{
	"contracts/ChadPepe.sol": {
		"ChadPepe": {
			"abi": [
				{
					"inputs": [],
					"stateMutability": "nonpayable",
					"type": "constructor"
				},
				{
					"anonymous": false,
					"inputs": [
						{
							"indexed": false,
							"internalType": "address",
							"name": "previousAdmin",
							"type": "address"
						},
						{
							"indexed": false,
							"internalType": "address",
							"name": "newAdmin",
							"type": "address"
						}
					],
					"name": "AdminChanged",
					"type": "event"
				},
				{
					"anonymous": false,
					"inputs": [
						{
							"indexed": true,
							"internalType": "address",
							"name": "owner",
							"type": "address"
						},
						{
							"indexed": true,
							"internalType": "address",
							"name": "spender",
							"type": "address"
						},
						{
							"indexed": false,
							"internalType": "uint256",
							"name": "value",
							"type": "uint256"
						}
					],
					"name": "Approval",
					"type": "event"
				},
				{
					"anonymous": false,
					"inputs": [
						{
							"indexed": true,
							"internalType": "address",
							"name": "beacon",
							"type": "address"
						}
					],
					"name": "BeaconUpgraded",
					"type": "event"
				},
				{
					"anonymous": false,
					"inputs": [
						{
							"indexed": false,
							"internalType": "uint8",
							"name": "version",
							"type": "uint8"
						}
					],
					"name": "Initialized",
					"type": "event"
				},
				{
					"anonymous": false,
					"inputs": [
						{
							"indexed": true,
							"internalType": "address",
							"name": "previousOwner",
							"type": "address"
						},
						{
							"indexed": true,
							"internalType": "address",
							"name": "newOwner",
							"type": "address"
						}
					],
					"name": "OwnershipTransferred",
					"type": "event"
				},
				{
					"anonymous": false,
					"inputs": [
						{
							"indexed": true,
							"internalType": "address",
							"name": "from",
							"type": "address"
						},
						{
							"indexed": true,
							"internalType": "address",
							"name": "to",
							"type": "address"
						},
						{
							"indexed": false,
							"internalType": "uint256",
							"name": "value",
							"type": "uint256"
						}
					],
					"name": "Transfer",
					"type": "event"
				},
				{
					"anonymous": false,
					"inputs": [
						{
							"indexed": true,
							"internalType": "address",
							"name": "implementation",
							"type": "address"
						}
					],
					"name": "Upgraded",
					"type": "event"
				},
				{
					"inputs": [
						{
							"internalType": "address",
							"name": "owner",
							"type": "address"
						},
						{
							"internalType": "address",
							"name": "spender",
							"type": "address"
						}
					],
					"name": "allowance",
					"outputs": [
						{
							"internalType": "uint256",
							"name": "",
							"type": "uint256"
						}
					],
					"stateMutability": "view",
					"type": "function"
				},
				{
					"inputs": [
						{
							"internalType": "address",
							"name": "spender",
							"type": "address"
						},
						{
							"internalType": "uint256",
							"name": "amount",
							"type": "uint256"
						}
					],
					"name": "approve",
					"outputs": [
						{
							"internalType": "bool",
							"name": "",
							"type": "bool"
						}
					],
					"stateMutability": "nonpayable",
					"type": "function"
				},
				{
					"inputs": [
						{
							"internalType": "address",
							"name": "account",
							"type": "address"
						}
					],
					"name": "balanceOf",
					"outputs": [
						{
							"internalType": "uint256",
							"name": "",
							"type": "uint256"
						}
					],
					"stateMutability": "view",
					"type": "function"
				},
				{
					"inputs": [
						{
							"internalType": "uint256",
							"name": "amount",
							"type": "uint256"
						}
					],
					"name": "burn",
					"outputs": [],
					"stateMutability": "nonpayable",
					"type": "function"
				},
				{
					"inputs": [
						{
							"internalType": "address",
							"name": "account",
							"type": "address"
						},
						{
							"internalType": "uint256",
							"name": "amount",
							"type": "uint256"
						}
					],
					"name": "burnFrom",
					"outputs": [],
					"stateMutability": "nonpayable",
					"type": "function"
				},
				{
					"inputs": [],
					"name": "decimals",
					"outputs": [
						{
							"internalType": "uint8",
							"name": "",
							"type": "uint8"
						}
					],
					"stateMutability": "view",
					"type": "function"
				},
				{
					"inputs": [
						{
							"internalType": "address",
							"name": "spender",
							"type": "address"
						},
						{
							"internalType": "uint256",
							"name": "subtractedValue",
							"type": "uint256"
						}
					],
					"name": "decreaseAllowance",
					"outputs": [
						{
							"internalType": "bool",
							"name": "",
							"type": "bool"
						}
					],
					"stateMutability": "nonpayable",
					"type": "function"
				},
				{
					"inputs": [
						{
							"internalType": "address",
							"name": "spender",
							"type": "address"
						},
						{
							"internalType": "uint256",
							"name": "addedValue",
							"type": "uint256"
						}
					],
					"name": "increaseAllowance",
					"outputs": [
						{
							"internalType": "bool",
							"name": "",
							"type": "bool"
						}
					],
					"stateMutability": "nonpayable",
					"type": "function"
				},
				{
					"inputs": [],
					"name": "initialize",
					"outputs": [],
					"stateMutability": "nonpayable",
					"type": "function"
				},
				{
					"inputs": [
						{
							"internalType": "address",
							"name": "to",
							"type": "address"
						},
						{
							"internalType": "uint256",
							"name": "amount",
							"type": "uint256"
						}
					],
					"name": "mint",
					"outputs": [],
					"stateMutability": "nonpayable",
					"type": "function"
				},
				{
					"inputs": [],
					"name": "name",
					"outputs": [
						{
							"internalType": "string",
							"name": "",
							"type": "string"
						}
					],
					"stateMutability": "view",
					"type": "function"
				},
				{
					"inputs": [],
					"name": "owner",
					"outputs": [
						{
							"internalType": "address",
							"name": "",
							"type": "address"
						}
					],
					"stateMutability": "view",
					"type": "function"
				},
				{
					"inputs": [],
					"name": "proxiableUUID",
					"outputs": [
						{
							"internalType": "bytes32",
							"name": "",
							"type": "bytes32"
						}
					],
					"stateMutability": "view",
					"type": "function"
				},
				{
					"inputs": [],
					"name": "renounceOwnership",
					"outputs": [],
					"stateMutability": "nonpayable",
					"type": "function"
				},
				{
					"inputs": [],
					"name": "symbol",
					"outputs": [
						{
							"internalType": "string",
							"name": "",
							"type": "string"
						}
					],
					"stateMutability": "view",
					"type": "function"
				},
				{
					"inputs": [],
					"name": "totalSupply",
					"outputs": [
						{
							"internalType": "uint256",
							"name": "",
							"type": "uint256"
						}
					],
					"stateMutability": "view",
					"type": "function"
				},
				{
					"inputs": [
						{
							"internalType": "address",
							"name": "to",
							"type": "address"
						},
						{
							"internalType": "uint256",
							"name": "amount",
							"type": "uint256"
						}
					],
					"name": "transfer",
					"outputs": [
						{
							"internalType": "bool",
							"name": "",
							"type": "bool"
						}
					],
					"stateMutability": "nonpayable",
					"type": "function"
				},
				{
					"inputs": [
						{
							"internalType": "address",
							"name": "from",
							"type": "address"
						},
						{
							"internalType": "address",
							"name": "to",
							"type": "address"
						},
						{
							"internalType": "uint256",
							"name": "amount",
							"type": "uint256"
						}
					],
					"name": "transferFrom",
					"outputs": [
						{
							"internalType": "bool",
							"name": "",
							"type": "bool"
						}
					],
					"stateMutability": "nonpayable",
					"type": "function"
				},
				{
					"inputs": [
						{
							"internalType": "address",
							"name": "newOwner",
							"type": "address"
						}
					],
					"name": "transferOwnership",
					"outputs": [],
					"stateMutability": "nonpayable",
					"type": "function"
				},
				{
					"inputs": [
						{
							"internalType": "address",
							"name": "newImplementation",
							"type": "address"
						}
					],
					"name": "upgradeTo",
					"outputs": [],
					"stateMutability": "nonpayable",
					"type": "function"
				},
				{
					"inputs": [
						{
							"internalType": "address",
							"name": "newImplementation",
							"type": "address"
						},
						{
							"internalType": "bytes",
							"name": "data",
							"type": "bytes"
						}
					],
					"name": "upgradeToAndCall",
					"outputs": [],
					"stateMutability": "payable",
					"type": "function"
				}
			],
			"devdoc": {
				"events": {
					"AdminChanged(address,address)": {
						"details": "Emitted when the admin account has changed."
					},
					"Approval(address,address,uint256)": {
						"details": "Emitted when the allowance of a `spender` for an `owner` is set by a call to {approve}. `value` is the new allowance."
					},
					"BeaconUpgraded(address)": {
						"details": "Emitted when the beacon is changed."
					},
					"Initialized(uint8)": {
						"details": "Triggered when the contract has been initialized or reinitialized."
					},
					"Transfer(address,address,uint256)": {
						"details": "Emitted when `value` tokens are moved from one account (`from`) to another (`to`). Note that `value` may be zero."
					},
					"Upgraded(address)": {
						"details": "Emitted when the implementation is upgraded."
					}
				},
				"kind": "dev",
				"methods": {
					"allowance(address,address)": {
						"details": "See {IERC20-allowance}."
					},
					"approve(address,uint256)": {
						"details": "See {IERC20-approve}. NOTE: If `amount` is the maximum `uint256`, the allowance is not updated on `transferFrom`. This is semantically equivalent to an infinite approval. Requirements: - `spender` cannot be the zero address."
					},
					"balanceOf(address)": {
						"details": "See {IERC20-balanceOf}."
					},
					"burn(uint256)": {
						"details": "Destroys `amount` tokens from the caller. See {ERC20-_burn}."
					},
					"burnFrom(address,uint256)": {
						"details": "Destroys `amount` tokens from `account`, deducting from the caller's allowance. See {ERC20-_burn} and {ERC20-allowance}. Requirements: - the caller must have allowance for ``accounts``'s tokens of at least `amount`."
					},
					"constructor": {
						"custom:oz-upgrades-unsafe-allow": "constructor"
					},
					"decimals()": {
						"details": "Returns the number of decimals used to get its user representation. For example, if `decimals` equals `2`, a balance of `505` tokens should be displayed to a user as `5.05` (`505 / 10 ** 2`). Tokens usually opt for a value of 18, imitating the relationship between Ether and Wei. This is the value {ERC20} uses, unless this function is overridden; NOTE: This information is only used for _display_ purposes: it in no way affects any of the arithmetic of the contract, including {IERC20-balanceOf} and {IERC20-transfer}."
					},
					"decreaseAllowance(address,uint256)": {
						"details": "Atomically decreases the allowance granted to `spender` by the caller. This is an alternative to {approve} that can be used as a mitigation for problems described in {IERC20-approve}. Emits an {Approval} event indicating the updated allowance. Requirements: - `spender` cannot be the zero address. - `spender` must have allowance for the caller of at least `subtractedValue`."
					},
					"increaseAllowance(address,uint256)": {
						"details": "Atomically increases the allowance granted to `spender` by the caller. This is an alternative to {approve} that can be used as a mitigation for problems described in {IERC20-approve}. Emits an {Approval} event indicating the updated allowance. Requirements: - `spender` cannot be the zero address."
					},
					"name()": {
						"details": "Returns the name of the token."
					},
					"owner()": {
						"details": "Returns the address of the current owner."
					},
					"proxiableUUID()": {
						"details": "Implementation of the ERC1822 {proxiableUUID} function. This returns the storage slot used by the implementation. It is used to validate the implementation's compatibility when performing an upgrade. IMPORTANT: A proxy pointing at a proxiable contract should not be considered proxiable itself, because this risks bricking a proxy that upgrades to it, by delegating to itself until out of gas. Thus it is critical that this function revert if invoked through a proxy. This is guaranteed by the `notDelegated` modifier."
					},
					"renounceOwnership()": {
						"details": "Leaves the contract without owner. It will not be possible to call `onlyOwner` functions anymore. Can only be called by the current owner. NOTE: Renouncing ownership will leave the contract without an owner, thereby removing any functionality that is only available to the owner."
					},
					"symbol()": {
						"details": "Returns the symbol of the token, usually a shorter version of the name."
					},
					"totalSupply()": {
						"details": "See {IERC20-totalSupply}."
					},
					"transfer(address,uint256)": {
						"details": "See {IERC20-transfer}. Requirements: - `to` cannot be the zero address. - the caller must have a balance of at least `amount`."
					},
					"transferFrom(address,address,uint256)": {
						"details": "See {IERC20-transferFrom}. Emits an {Approval} event indicating the updated allowance. This is not required by the EIP. See the note at the beginning of {ERC20}. NOTE: Does not update the allowance if the current allowance is the maximum `uint256`. Requirements: - `from` and `to` cannot be the zero address. - `from` must have a balance of at least `amount`. - the caller must have allowance for ``from``'s tokens of at least `amount`."
					},
					"transferOwnership(address)": {
						"details": "Transfers ownership of the contract to a new account (`newOwner`). Can only be called by the current owner."
					},
					"upgradeTo(address)": {
						"details": "Upgrade the implementation of the proxy to `newImplementation`. Calls {_authorizeUpgrade}. Emits an {Upgraded} event."
					},
					"upgradeToAndCall(address,bytes)": {
						"details": "Upgrade the implementation of the proxy to `newImplementation`, and subsequently execute the function call encoded in `data`. Calls {_authorizeUpgrade}. Emits an {Upgraded} event."
					}
				},
				"version": 1
			},
			"evm": {
				"assembly": "    /* \"contracts/ChadPepe.sol\":465:1100  contract ChadPepe is Initializable, ERC20Upgradeable, ERC20BurnableUpgradeable, OwnableUpgradeable, UUPSUpgradeable {... */\n  mstore(0x40, 0xa0)\n    /* \"@openzeppelin/contracts-upgradeable/proxy/utils/UUPSUpgradeable.sol\":1332:1336  this */\n  address\n    /* \"@openzeppelin/contracts-upgradeable/proxy/utils/UUPSUpgradeable.sol\":1289:1337  address private immutable __self = address(this) */\n  0xffffffffffffffffffffffffffffffffffffffff\n  and\n  0x80\n  swap1\n  0xffffffffffffffffffffffffffffffffffffffff\n  and\n  dup2\n  mstore\n  pop\n    /* \"contracts/ChadPepe.sol\":640:693  constructor() {... */\n  callvalue\n  dup1\n  iszero\n  tag_1\n  jumpi\n  0x00\n  dup1\n  revert\ntag_1:\n  pop\n    /* \"contracts/ChadPepe.sol\":664:686  _disableInitializers() */\n  tag_4\n    /* \"contracts/ChadPepe.sol\":664:684  _disableInitializers */\n  shl(0x20, tag_5)\n    /* \"contracts/ChadPepe.sol\":664:686  _disableInitializers() */\n  0x20\n  shr\n  jump\t// in\ntag_4:\n    /* \"contracts/ChadPepe.sol\":465:1100  contract ChadPepe is Initializable, ERC20Upgradeable, ERC20BurnableUpgradeable, OwnableUpgradeable, UUPSUpgradeable {... */\n  jump(tag_6)\n    /* \"@openzeppelin/contracts-upgradeable/proxy/utils/Initializable.sol\":5928:6207  function _disableInitializers() internal virtual {... */\ntag_5:\n    /* \"@openzeppelin/contracts-upgradeable/proxy/utils/Initializable.sol\":5996:6009  _initializing */\n  0x00\n  0x01\n  swap1\n  sload\n  swap1\n  0x0100\n  exp\n  swap1\n  div\n  0xff\n  and\n    /* \"@openzeppelin/contracts-upgradeable/proxy/utils/Initializable.sol\":5995:6009  !_initializing */\n  iszero\n    /* \"@openzeppelin/contracts-upgradeable/proxy/utils/Initializable.sol\":5987:6053  require(!_initializing, \"Initializable: contract is initializing\") */\n  tag_8\n  jumpi\n  mload(0x40)\n  0x08c379a000000000000000000000000000000000000000000000000000000000\n  dup2\n  mstore\n  0x04\n  add\n  tag_9\n  swap1\n  tag_10\n  jump\t// in\ntag_9:\n  mload(0x40)\n  dup1\n  swap2\n  sub\n  swap1\n  revert\ntag_8:\n    /* \"@openzeppelin/contracts-upgradeable/proxy/utils/Initializable.sol\":6082:6097  type(uint8).max */\n  0xff\n    /* \"@openzeppelin/contracts-upgradeable/proxy/utils/Initializable.sol\":6067:6097  _initialized < type(uint8).max */\n  dup1\n  and\n    /* \"@openzeppelin/contracts-upgradeable/proxy/utils/Initializable.sol\":6067:6079  _initialized */\n  0x00\n  dup1\n  sload\n  swap1\n  0x0100\n  exp\n  swap1\n  div\n  0xff\n  and\n    /* \"@openzeppelin/contracts-upgradeable/proxy/utils/Initializable.sol\":6067:6097  _initialized < type(uint8).max */\n  0xff\n  and\n  lt\n    /* \"@openzeppelin/contracts-upgradeable/proxy/utils/Initializable.sol\":6063:6201  if (_initialized < type(uint8).max) {... */\n  iszero\n  tag_11\n  jumpi\n    /* \"@openzeppelin/contracts-upgradeable/proxy/utils/Initializable.sol\":6128:6143  type(uint8).max */\n  0xff\n    /* \"@openzeppelin/contracts-upgradeable/proxy/utils/Initializable.sol\":6113:6125  _initialized */\n  0x00\n  dup1\n    /* \"@openzeppelin/contracts-upgradeable/proxy/utils/Initializable.sol\":6113:6143  _initialized = type(uint8).max */\n  0x0100\n  exp\n  dup2\n  sload\n  dup2\n  0xff\n  mul\n  not\n  and\n  swap1\n  dup4\n  0xff\n  and\n  mul\n  or\n  swap1\n  sstore\n  pop\n    /* \"@openzeppelin/contracts-upgradeable/proxy/utils/Initializable.sol\":6162:6190  Initialized(type(uint8).max) */\n  0x7f26b83ff96e1f2b6a682f133852f6798a09c465da95921460cefb3847402498\n    /* \"@openzeppelin/contracts-upgradeable/proxy/utils/Initializable.sol\":6174:6189  type(uint8).max */\n  0xff\n    /* \"@openzeppelin/contracts-upgradeable/proxy/utils/Initializable.sol\":6162:6190  Initialized(type(uint8).max) */\n  mload(0x40)\n  tag_12\n  swap2\n  swap1\n  tag_13\n  jump\t// in\ntag_12:\n  mload(0x40)\n  dup1\n  swap2\n  sub\n  swap1\n  log1\n    /* \"@openzeppelin/contracts-upgradeable/proxy/utils/Initializable.sol\":6063:6201  if (_initialized < type(uint8).max) {... */\ntag_11:\n    /* \"@openzeppelin/contracts-upgradeable/proxy/utils/Initializable.sol\":5928:6207  function _disableInitializers() internal virtual {... */\n  jump\t// out\n    /* \"#utility.yul\":7:176   */\ntag_14:\n    /* \"#utility.yul\":91:102   */\n  0x00\n    /* \"#utility.yul\":125:131   */\n  dup3\n    /* \"#utility.yul\":120:123   */\n  dup3\n    /* \"#utility.yul\":113:132   */\n  mstore\n    /* \"#utility.yul\":165:169   */\n  0x20\n    /* \"#utility.yul\":160:163   */\n  dup3\n    /* \"#utility.yul\":156:170   */\n  add\n    /* \"#utility.yul\":141:170   */\n  swap1\n  pop\n    /* \"#utility.yul\":7:176   */\n  swap3\n  swap2\n  pop\n  pop\n  jump\t// out\n    /* \"#utility.yul\":182:408   */\ntag_15:\n    /* \"#utility.yul\":322:356   */\n  0x496e697469616c697a61626c653a20636f6e747261637420697320696e697469\n    /* \"#utility.yul\":318:319   */\n  0x00\n    /* \"#utility.yul\":310:316   */\n  dup3\n    /* \"#utility.yul\":306:320   */\n  add\n    /* \"#utility.yul\":299:357   */\n  mstore\n    /* \"#utility.yul\":391:400   */\n  0x616c697a696e6700000000000000000000000000000000000000000000000000\n    /* \"#utility.yul\":386:388   */\n  0x20\n    /* \"#utility.yul\":378:384   */\n  dup3\n    /* \"#utility.yul\":374:389   */\n  add\n    /* \"#utility.yul\":367:401   */\n  mstore\n    /* \"#utility.yul\":182:408   */\n  pop\n  jump\t// out\n    /* \"#utility.yul\":414:780   */\ntag_16:\n    /* \"#utility.yul\":556:559   */\n  0x00\n    /* \"#utility.yul\":577:644   */\n  tag_23\n    /* \"#utility.yul\":641:643   */\n  0x27\n    /* \"#utility.yul\":636:639   */\n  dup4\n    /* \"#utility.yul\":577:644   */\n  tag_14\n  jump\t// in\ntag_23:\n    /* \"#utility.yul\":570:644   */\n  swap2\n  pop\n    /* \"#utility.yul\":653:746   */\n  tag_24\n    /* \"#utility.yul\":742:745   */\n  dup3\n    /* \"#utility.yul\":653:746   */\n  tag_15\n  jump\t// in\ntag_24:\n    /* \"#utility.yul\":771:773   */\n  0x40\n    /* \"#utility.yul\":766:769   */\n  dup3\n    /* \"#utility.yul\":762:774   */\n  add\n    /* \"#utility.yul\":755:774   */\n  swap1\n  pop\n    /* \"#utility.yul\":414:780   */\n  swap2\n  swap1\n  pop\n  jump\t// out\n    /* \"#utility.yul\":786:1205   */\ntag_10:\n    /* \"#utility.yul\":952:956   */\n  0x00\n    /* \"#utility.yul\":990:992   */\n  0x20\n    /* \"#utility.yul\":979:988   */\n  dup3\n    /* \"#utility.yul\":975:993   */\n  add\n    /* \"#utility.yul\":967:993   */\n  swap1\n  pop\n    /* \"#utility.yul\":1039:1048   */\n  dup2\n    /* \"#utility.yul\":1033:1037   */\n  dup2\n    /* \"#utility.yul\":1029:1049   */\n  sub\n    /* \"#utility.yul\":1025:1026   */\n  0x00\n    /* \"#utility.yul\":1014:1023   */\n  dup4\n    /* \"#utility.yul\":1010:1027   */\n  add\n    /* \"#utility.yul\":1003:1050   */\n  mstore\n    /* \"#utility.yul\":1067:1198   */\n  tag_26\n    /* \"#utility.yul\":1193:1197   */\n  dup2\n    /* \"#utility.yul\":1067:1198   */\n  tag_16\n  jump\t// in\ntag_26:\n    /* \"#utility.yul\":1059:1198   */\n  swap1\n  pop\n    /* \"#utility.yul\":786:1205   */\n  swap2\n  swap1\n  pop\n  jump\t// out\n    /* \"#utility.yul\":1211:1297   */\ntag_17:\n    /* \"#utility.yul\":1246:1253   */\n  0x00\n    /* \"#utility.yul\":1286:1290   */\n  0xff\n    /* \"#utility.yul\":1279:1284   */\n  dup3\n    /* \"#utility.yul\":1275:1291   */\n  and\n    /* \"#utility.yul\":1264:1291   */\n  swap1\n  pop\n    /* \"#utility.yul\":1211:1297   */\n  swap2\n  swap1\n  pop\n  jump\t// out\n    /* \"#utility.yul\":1303:1415   */\ntag_18:\n    /* \"#utility.yul\":1386:1408   */\n  tag_29\n    /* \"#utility.yul\":1402:1407   */\n  dup2\n    /* \"#utility.yul\":1386:1408   */\n  tag_17\n  jump\t// in\ntag_29:\n    /* \"#utility.yul\":1381:1384   */\n  dup3\n    /* \"#utility.yul\":1374:1409   */\n  mstore\n    /* \"#utility.yul\":1303:1415   */\n  pop\n  pop\n  jump\t// out\n    /* \"#utility.yul\":1421:1635   */\ntag_13:\n    /* \"#utility.yul\":1510:1514   */\n  0x00\n    /* \"#utility.yul\":1548:1550   */\n  0x20\n    /* \"#utility.yul\":1537:1546   */\n  dup3\n    /* \"#utility.yul\":1533:1551   */\n  add\n    /* \"#utility.yul\":1525:1551   */\n  swap1\n  pop\n    /* \"#utility.yul\":1561:1628   */\n  tag_31\n    /* \"#utility.yul\":1625:1626   */\n  0x00\n    /* \"#utility.yul\":1614:1623   */\n  dup4\n    /* \"#utility.yul\":1610:1627   */\n  add\n    /* \"#utility.yul\":1601:1607   */\n  dup5\n    /* \"#utility.yul\":1561:1628   */\n  tag_18\n  jump\t// in\ntag_31:\n    /* \"#utility.yul\":1421:1635   */\n  swap3\n  swap2\n  pop\n  pop\n  jump\t// out\n    /* \"contracts/ChadPepe.sol\":465:1100  contract ChadPepe is Initializable, ERC20Upgradeable, ERC20BurnableUpgradeable, OwnableUpgradeable, UUPSUpgradeable {... */\ntag_6:\n  mload(0x80)\n  codecopy(0x00, dataOffset(sub_0), dataSize(sub_0))\n  0x00\n  assignImmutable(\"0xba8ec0f6a62777c046a0824b08e7e4244a1eee076628ac93ff46d549f5a8ee4e\")\n  return(0x00, dataSize(sub_0))\nstop\n\nsub_0: assembly {\n        /* \"contracts/ChadPepe.sol\":465:1100  contract ChadPepe is Initializable, ERC20Upgradeable, ERC20BurnableUpgradeable, OwnableUpgradeable, UUPSUpgradeable {... */\n      mstore(0x40, 0x80)\n      jumpi(tag_1, lt(calldatasize, 0x04))\n      shr(0xe0, calldataload(0x00))\n      dup1\n      0x52d1902d\n      gt\n      tag_23\n      jumpi\n      dup1\n      0x8da5cb5b\n      gt\n      tag_24\n      jumpi\n      dup1\n      0x8da5cb5b\n      eq\n      tag_17\n      jumpi\n      dup1\n      0x95d89b41\n      eq\n      tag_18\n      jumpi\n      dup1\n      0xa457c2d7\n      eq\n      tag_19\n      jumpi\n      dup1\n      0xa9059cbb\n      eq\n      tag_20\n      jumpi\n      dup1\n      0xdd62ed3e\n      eq\n      tag_21\n      jumpi\n      dup1\n      0xf2fde38b\n      eq\n      tag_22\n      jumpi\n      jump(tag_1)\n    tag_24:\n      dup1\n      0x52d1902d\n      eq\n      tag_12\n      jumpi\n      dup1\n      0x70a08231\n      eq\n      tag_13\n      jumpi\n      dup1\n      0x715018a6\n      eq\n      tag_14\n      jumpi\n      dup1\n      0x79cc6790\n      eq\n      tag_15\n      jumpi\n      dup1\n      0x8129fc1c\n      eq\n      tag_16\n      jumpi\n      jump(tag_1)\n    tag_23:\n      dup1\n      0x3659cfe6\n      gt\n      tag_25\n      jumpi\n      dup1\n      0x3659cfe6\n      eq\n      tag_7\n      jumpi\n      dup1\n      0x39509351\n      eq\n      tag_8\n      jumpi\n      dup1\n      0x40c10f19\n      eq\n      tag_9\n      jumpi\n      dup1\n      0x42966c68\n      eq\n      tag_10\n      jumpi\n      dup1\n      0x4f1ef286\n      eq\n      tag_11\n      jumpi\n      jump(tag_1)\n    tag_25:\n      dup1\n      0x06fdde03\n      eq\n      tag_2\n      jumpi\n      dup1\n      0x095ea7b3\n      eq\n      tag_3\n      jumpi\n      dup1\n      0x18160ddd\n      eq\n      tag_4\n      jumpi\n      dup1\n      0x23b872dd\n      eq\n      tag_5\n      jumpi\n      dup1\n      0x313ce567\n      eq\n      tag_6\n      jumpi\n    tag_1:\n      0x00\n      dup1\n      revert\n        /* \"@openzeppelin/contracts-upgradeable/token/ERC20/ERC20Upgradeable.sol\":2491:2589  function name() public view virtual override returns (string memory) {... */\n    tag_2:\n      callvalue\n      dup1\n      iszero\n      tag_26\n      jumpi\n      0x00\n      dup1\n      revert\n    tag_26:\n      pop\n      tag_27\n      tag_28\n      jump\t// in\n    tag_27:\n      mload(0x40)\n      tag_29\n      swap2\n      swap1\n      tag_30\n      jump\t// in\n    tag_29:\n      mload(0x40)\n      dup1\n      swap2\n      sub\n      swap1\n      return\n        /* \"@openzeppelin/contracts-upgradeable/token/ERC20/ERC20Upgradeable.sol\":4768:4965  function approve(address spender, uint256 amount) public virtual override returns (bool) {... */\n    tag_3:\n      callvalue\n      dup1\n      iszero\n      tag_31\n      jumpi\n      0x00\n      dup1\n      revert\n    tag_31:\n      pop\n      tag_32\n      0x04\n      dup1\n      calldatasize\n      sub\n      dup2\n      add\n      swap1\n      tag_33\n      swap2\n      swap1\n      tag_34\n      jump\t// in\n    tag_33:\n      tag_35\n      jump\t// in\n    tag_32:\n      mload(0x40)\n      tag_36\n      swap2\n      swap1\n      tag_37\n      jump\t// in\n    tag_36:\n      mload(0x40)\n      dup1\n      swap2\n      sub\n      swap1\n      return\n        /* \"@openzeppelin/contracts-upgradeable/token/ERC20/ERC20Upgradeable.sol\":3579:3685  function totalSupply() public view virtual override returns (uint256) {... */\n    tag_4:\n      callvalue\n      dup1\n      iszero\n      tag_38\n      jumpi\n      0x00\n      dup1\n      revert\n    tag_38:\n      pop\n      tag_39\n      tag_40\n      jump\t// in\n    tag_39:\n      mload(0x40)\n      tag_41\n      swap2\n      swap1\n      tag_42\n      jump\t// in\n    tag_41:\n      mload(0x40)\n      dup1\n      swap2\n      sub\n      swap1\n      return\n        /* \"@openzeppelin/contracts-upgradeable/token/ERC20/ERC20Upgradeable.sol\":5527:5813  function transferFrom(... */\n    tag_5:\n      callvalue\n      dup1\n      iszero\n      tag_43\n      jumpi\n      0x00\n      dup1\n      revert\n    tag_43:\n      pop\n      tag_44\n      0x04\n      dup1\n      calldatasize\n      sub\n      dup2\n      add\n      swap1\n      tag_45\n      swap2\n      swap1\n      tag_46\n      jump\t// in\n    tag_45:\n      tag_47\n      jump\t// in\n    tag_44:\n      mload(0x40)\n      tag_48\n      swap2\n      swap1\n      tag_37\n      jump\t// in\n    tag_48:\n      mload(0x40)\n      dup1\n      swap2\n      sub\n      swap1\n      return\n        /* \"@openzeppelin/contracts-upgradeable/token/ERC20/ERC20Upgradeable.sol\":3428:3519  function decimals() public view virtual override returns (uint8) {... */\n    tag_6:\n      callvalue\n      dup1\n      iszero\n      tag_49\n      jumpi\n      0x00\n      dup1\n      revert\n    tag_49:\n      pop\n      tag_50\n      tag_51\n      jump\t// in\n    tag_50:\n      mload(0x40)\n      tag_52\n      swap2\n      swap1\n      tag_53\n      jump\t// in\n    tag_52:\n      mload(0x40)\n      dup1\n      swap2\n      sub\n      swap1\n      return\n        /* \"@openzeppelin/contracts-upgradeable/proxy/utils/UUPSUpgradeable.sol\":3317:3514  function upgradeTo(address newImplementation) external virtual onlyProxy {... */\n    tag_7:\n      callvalue\n      dup1\n      iszero\n      tag_54\n      jumpi\n      0x00\n      dup1\n      revert\n    tag_54:\n      pop\n      tag_55\n      0x04\n      dup1\n      calldatasize\n      sub\n      dup2\n      add\n      swap1\n      tag_56\n      swap2\n      swap1\n      tag_57\n      jump\t// in\n    tag_56:\n      tag_58\n      jump\t// in\n    tag_55:\n      stop\n        /* \"@openzeppelin/contracts-upgradeable/token/ERC20/ERC20Upgradeable.sol\":6208:6442  function increaseAllowance(address spender, uint256 addedValue) public virtual returns (bool) {... */\n    tag_8:\n      callvalue\n      dup1\n      iszero\n      tag_59\n      jumpi\n      0x00\n      dup1\n      revert\n    tag_59:\n      pop\n      tag_60\n      0x04\n      dup1\n      calldatasize\n      sub\n      dup2\n      add\n      swap1\n      tag_61\n      swap2\n      swap1\n      tag_34\n      jump\t// in\n    tag_61:\n      tag_62\n      jump\t// in\n    tag_60:\n      mload(0x40)\n      tag_63\n      swap2\n      swap1\n      tag_37\n      jump\t// in\n    tag_63:\n      mload(0x40)\n      dup1\n      swap2\n      sub\n      swap1\n      return\n        /* \"contracts/ChadPepe.sol\":887:980  function mint(address to, uint256 amount) public onlyOwner {... */\n    tag_9:\n      callvalue\n      dup1\n      iszero\n      tag_64\n      jumpi\n      0x00\n      dup1\n      revert\n    tag_64:\n      pop\n      tag_65\n      0x04\n      dup1\n      calldatasize\n      sub\n      dup2\n      add\n      swap1\n      tag_66\n      swap2\n      swap1\n      tag_34\n      jump\t// in\n    tag_66:\n      tag_67\n      jump\t// in\n    tag_65:\n      stop\n        /* \"@openzeppelin/contracts-upgradeable/token/ERC20/extensions/ERC20BurnableUpgradeable.sol\":848:937  function burn(uint256 amount) public virtual {... */\n    tag_10:\n      callvalue\n      dup1\n      iszero\n      tag_68\n      jumpi\n      0x00\n      dup1\n      revert\n    tag_68:\n      pop\n      tag_69\n      0x04\n      dup1\n      calldatasize\n      sub\n      dup2\n      add\n      swap1\n      tag_70\n      swap2\n      swap1\n      tag_71\n      jump\t// in\n    tag_70:\n      tag_72\n      jump\t// in\n    tag_69:\n      stop\n        /* \"@openzeppelin/contracts-upgradeable/proxy/utils/UUPSUpgradeable.sol\":3763:3985  function upgradeToAndCall(address newImplementation, bytes memory data) external payable virtual onlyProxy {... */\n    tag_11:\n      tag_73\n      0x04\n      dup1\n      calldatasize\n      sub\n      dup2\n      add\n      swap1\n      tag_74\n      swap2\n      swap1\n      tag_75\n      jump\t// in\n    tag_74:\n      tag_76\n      jump\t// in\n    tag_73:\n      stop\n        /* \"@openzeppelin/contracts-upgradeable/proxy/utils/UUPSUpgradeable.sol\":3006:3137  function proxiableUUID() external view virtual override notDelegated returns (bytes32) {... */\n    tag_12:\n      callvalue\n      dup1\n      iszero\n      tag_77\n      jumpi\n      0x00\n      dup1\n      revert\n    tag_77:\n      pop\n      tag_78\n      tag_79\n      jump\t// in\n    tag_78:\n      mload(0x40)\n      tag_80\n      swap2\n      swap1\n      tag_81\n      jump\t// in\n    tag_80:\n      mload(0x40)\n      dup1\n      swap2\n      sub\n      swap1\n      return\n        /* \"@openzeppelin/contracts-upgradeable/token/ERC20/ERC20Upgradeable.sol\":3743:3868  function balanceOf(address account) public view virtual override returns (uint256) {... */\n    tag_13:\n      callvalue\n      dup1\n      iszero\n      tag_82\n      jumpi\n      0x00\n      dup1\n      revert\n    tag_82:\n      pop\n      tag_83\n      0x04\n      dup1\n      calldatasize\n      sub\n      dup2\n      add\n      swap1\n      tag_84\n      swap2\n      swap1\n      tag_57\n      jump\t// in\n    tag_84:\n      tag_85\n      jump\t// in\n    tag_83:\n      mload(0x40)\n      tag_86\n      swap2\n      swap1\n      tag_42\n      jump\t// in\n    tag_86:\n      mload(0x40)\n      dup1\n      swap2\n      sub\n      swap1\n      return\n        /* \"@openzeppelin/contracts-upgradeable/access/OwnableUpgradeable.sol\":2071:2172  function renounceOwnership() public virtual onlyOwner {... */\n    tag_14:\n      callvalue\n      dup1\n      iszero\n      tag_87\n      jumpi\n      0x00\n      dup1\n      revert\n    tag_87:\n      pop\n      tag_88\n      tag_89\n      jump\t// in\n    tag_88:\n      stop\n        /* \"@openzeppelin/contracts-upgradeable/token/ERC20/extensions/ERC20BurnableUpgradeable.sol\":1243:1404  function burnFrom(address account, uint256 amount) public virtual {... */\n    tag_15:\n      callvalue\n      dup1\n      iszero\n      tag_90\n      jumpi\n      0x00\n      dup1\n      revert\n    tag_90:\n      pop\n      tag_91\n      0x04\n      dup1\n      calldatasize\n      sub\n      dup2\n      add\n      swap1\n      tag_92\n      swap2\n      swap1\n      tag_34\n      jump\t// in\n    tag_92:\n      tag_93\n      jump\t// in\n    tag_91:\n      stop\n        /* \"contracts/ChadPepe.sol\":699:881  function initialize() initializer public {... */\n    tag_16:\n      callvalue\n      dup1\n      iszero\n      tag_94\n      jumpi\n      0x00\n      dup1\n      revert\n    tag_94:\n      pop\n      tag_95\n      tag_96\n      jump\t// in\n    tag_95:\n      stop\n        /* \"@openzeppelin/contracts-upgradeable/access/OwnableUpgradeable.sol\":1441:1526  function owner() public view virtual returns (address) {... */\n    tag_17:\n      callvalue\n      dup1\n      iszero\n      tag_97\n      jumpi\n      0x00\n      dup1\n      revert\n    tag_97:\n      pop\n      tag_98\n      tag_99\n      jump\t// in\n    tag_98:\n      mload(0x40)\n      tag_100\n      swap2\n      swap1\n      tag_101\n      jump\t// in\n    tag_100:\n      mload(0x40)\n      dup1\n      swap2\n      sub\n      swap1\n      return\n        /* \"@openzeppelin/contracts-upgradeable/token/ERC20/ERC20Upgradeable.sol\":2702:2804  function symbol() public view virtual override returns (string memory) {... */\n    tag_18:\n      callvalue\n      dup1\n      iszero\n      tag_102\n      jumpi\n      0x00\n      dup1\n      revert\n    tag_102:\n      pop\n      tag_103\n      tag_104\n      jump\t// in\n    tag_103:\n      mload(0x40)\n      tag_105\n      swap2\n      swap1\n      tag_30\n      jump\t// in\n    tag_105:\n      mload(0x40)\n      dup1\n      swap2\n      sub\n      swap1\n      return\n        /* \"@openzeppelin/contracts-upgradeable/token/ERC20/ERC20Upgradeable.sol\":6929:7356  function decreaseAllowance(address spender, uint256 subtractedValue) public virtual returns (bool) {... */\n    tag_19:\n      callvalue\n      dup1\n      iszero\n      tag_106\n      jumpi\n      0x00\n      dup1\n      revert\n    tag_106:\n      pop\n      tag_107\n      0x04\n      dup1\n      calldatasize\n      sub\n      dup2\n      add\n      swap1\n      tag_108\n      swap2\n      swap1\n      tag_34\n      jump\t// in\n    tag_108:\n      tag_109\n      jump\t// in\n    tag_107:\n      mload(0x40)\n      tag_110\n      swap2\n      swap1\n      tag_37\n      jump\t// in\n    tag_110:\n      mload(0x40)\n      dup1\n      swap2\n      sub\n      swap1\n      return\n        /* \"@openzeppelin/contracts-upgradeable/token/ERC20/ERC20Upgradeable.sol\":4064:4253  function transfer(address to, uint256 amount) public virtual override returns (bool) {... */\n    tag_20:\n      callvalue\n      dup1\n      iszero\n      tag_111\n      jumpi\n      0x00\n      dup1\n      revert\n    tag_111:\n      pop\n      tag_112\n      0x04\n      dup1\n      calldatasize\n      sub\n      dup2\n      add\n      swap1\n      tag_113\n      swap2\n      swap1\n      tag_34\n      jump\t// in\n    tag_113:\n      tag_114\n      jump\t// in\n    tag_112:\n      mload(0x40)\n      tag_115\n      swap2\n      swap1\n      tag_37\n      jump\t// in\n    tag_115:\n      mload(0x40)\n      dup1\n      swap2\n      sub\n      swap1\n      return\n        /* \"@openzeppelin/contracts-upgradeable/token/ERC20/ERC20Upgradeable.sol\":4311:4460  function allowance(address owner, address spender) public view virtual override returns (uint256) {... */\n    tag_21:\n      callvalue\n      dup1\n      iszero\n      tag_116\n      jumpi\n      0x00\n      dup1\n      revert\n    tag_116:\n      pop\n      tag_117\n      0x04\n      dup1\n      calldatasize\n      sub\n      dup2\n      add\n      swap1\n      tag_118\n      swap2\n      swap1\n      tag_119\n      jump\t// in\n    tag_118:\n      tag_120\n      jump\t// in\n    tag_117:\n      mload(0x40)\n      tag_121\n      swap2\n      swap1\n      tag_42\n      jump\t// in\n    tag_121:\n      mload(0x40)\n      dup1\n      swap2\n      sub\n      swap1\n      return\n        /* \"@openzeppelin/contracts-upgradeable/access/OwnableUpgradeable.sol\":2321:2519  function transferOwnership(address newOwner) public virtual onlyOwner {... */\n    tag_22:\n      callvalue\n      dup1\n      iszero\n      tag_122\n      jumpi\n      0x00\n      dup1\n      revert\n    tag_122:\n      pop\n      tag_123\n      0x04\n      dup1\n      calldatasize\n      sub\n      dup2\n      add\n      swap1\n      tag_124\n      swap2\n      swap1\n      tag_57\n      jump\t// in\n    tag_124:\n      tag_125\n      jump\t// in\n    tag_123:\n      stop\n        /* \"@openzeppelin/contracts-upgradeable/token/ERC20/ERC20Upgradeable.sol\":2491:2589  function name() public view virtual override returns (string memory) {... */\n    tag_28:\n        /* \"@openzeppelin/contracts-upgradeable/token/ERC20/ERC20Upgradeable.sol\":2545:2558  string memory */\n      0x60\n        /* \"@openzeppelin/contracts-upgradeable/token/ERC20/ERC20Upgradeable.sol\":2577:2582  _name */\n      0x36\n        /* \"@openzeppelin/contracts-upgradeable/token/ERC20/ERC20Upgradeable.sol\":2570:2582  return _name */\n      dup1\n      sload\n      tag_127\n      swap1\n      tag_128\n      jump\t// in\n    tag_127:\n      dup1\n      0x1f\n      add\n      0x20\n      dup1\n      swap2\n      div\n      mul\n      0x20\n      add\n      mload(0x40)\n      swap1\n      dup2\n      add\n      0x40\n      mstore\n      dup1\n      swap3\n      swap2\n      swap1\n      dup2\n      dup2\n      mstore\n      0x20\n      add\n      dup3\n      dup1\n      sload\n      tag_129\n      swap1\n      tag_128\n      jump\t// in\n    tag_129:\n      dup1\n      iszero\n      tag_130\n      jumpi\n      dup1\n      0x1f\n      lt\n      tag_131\n      jumpi\n      0x0100\n      dup1\n      dup4\n      sload\n      div\n      mul\n      dup4\n      mstore\n      swap2\n      0x20\n      add\n      swap2\n      jump(tag_130)\n    tag_131:\n      dup3\n      add\n      swap2\n      swap1\n      0x00\n      mstore\n      keccak256(0x00, 0x20)\n      swap1\n    tag_132:\n      dup2\n      sload\n      dup2\n      mstore\n      swap1\n      0x01\n      add\n      swap1\n      0x20\n      add\n      dup1\n      dup4\n      gt\n      tag_132\n      jumpi\n      dup3\n      swap1\n      sub\n      0x1f\n      and\n      dup3\n      add\n      swap2\n    tag_130:\n      pop\n      pop\n      pop\n      pop\n      pop\n      swap1\n      pop\n        /* \"@openzeppelin/contracts-upgradeable/token/ERC20/ERC20Upgradeable.sol\":2491:2589  function name() public view virtual override returns (string memory) {... */\n      swap1\n      jump\t// out\n        /* \"@openzeppelin/contracts-upgradeable/token/ERC20/ERC20Upgradeable.sol\":4768:4965  function approve(address spender, uint256 amount) public virtual override returns (bool) {... */\n    tag_35:\n        /* \"@openzeppelin/contracts-upgradeable/token/ERC20/ERC20Upgradeable.sol\":4851:4855  bool */\n      0x00\n        /* \"@openzeppelin/contracts-upgradeable/token/ERC20/ERC20Upgradeable.sol\":4867:4880  address owner */\n      dup1\n        /* \"@openzeppelin/contracts-upgradeable/token/ERC20/ERC20Upgradeable.sol\":4883:4895  _msgSender() */\n      tag_134\n        /* \"@openzeppelin/contracts-upgradeable/token/ERC20/ERC20Upgradeable.sol\":4883:4893  _msgSender */\n      tag_135\n        /* \"@openzeppelin/contracts-upgradeable/token/ERC20/ERC20Upgradeable.sol\":4883:4895  _msgSender() */\n      jump\t// in\n    tag_134:\n        /* \"@openzeppelin/contracts-upgradeable/token/ERC20/ERC20Upgradeable.sol\":4867:4895  address owner = _msgSender() */\n      swap1\n      pop\n        /* \"@openzeppelin/contracts-upgradeable/token/ERC20/ERC20Upgradeable.sol\":4905:4937  _approve(owner, spender, amount) */\n      tag_136\n        /* \"@openzeppelin/contracts-upgradeable/token/ERC20/ERC20Upgradeable.sol\":4914:4919  owner */\n      dup2\n        /* \"@openzeppelin/contracts-upgradeable/token/ERC20/ERC20Upgradeable.sol\":4921:4928  spender */\n      dup6\n        /* \"@openzeppelin/contracts-upgradeable/token/ERC20/ERC20Upgradeable.sol\":4930:4936  amount */\n      dup6\n        /* \"@openzeppelin/contracts-upgradeable/token/ERC20/ERC20Upgradeable.sol\":4905:4913  _approve */\n      tag_137\n        /* \"@openzeppelin/contracts-upgradeable/token/ERC20/ERC20Upgradeable.sol\":4905:4937  _approve(owner, spender, amount) */\n      jump\t// in\n    tag_136:\n        /* \"@openzeppelin/contracts-upgradeable/token/ERC20/ERC20Upgradeable.sol\":4954:4958  true */\n      0x01\n        /* \"@openzeppelin/contracts-upgradeable/token/ERC20/ERC20Upgradeable.sol\":4947:4958  return true */\n      swap2\n      pop\n      pop\n        /* \"@openzeppelin/contracts-upgradeable/token/ERC20/ERC20Upgradeable.sol\":4768:4965  function approve(address spender, uint256 amount) public virtual override returns (bool) {... */\n      swap3\n      swap2\n      pop\n      pop\n      jump\t// out\n        /* \"@openzeppelin/contracts-upgradeable/token/ERC20/ERC20Upgradeable.sol\":3579:3685  function totalSupply() public view virtual override returns (uint256) {... */\n    tag_40:\n        /* \"@openzeppelin/contracts-upgradeable/token/ERC20/ERC20Upgradeable.sol\":3640:3647  uint256 */\n      0x00\n        /* \"@openzeppelin/contracts-upgradeable/token/ERC20/ERC20Upgradeable.sol\":3666:3678  _totalSupply */\n      sload(0x35)\n        /* \"@openzeppelin/contracts-upgradeable/token/ERC20/ERC20Upgradeable.sol\":3659:3678  return _totalSupply */\n      swap1\n      pop\n        /* \"@openzeppelin/contracts-upgradeable/token/ERC20/ERC20Upgradeable.sol\":3579:3685  function totalSupply() public view virtual override returns (uint256) {... */\n      swap1\n      jump\t// out\n        /* \"@openzeppelin/contracts-upgradeable/token/ERC20/ERC20Upgradeable.sol\":5527:5813  function transferFrom(... */\n    tag_47:\n        /* \"@openzeppelin/contracts-upgradeable/token/ERC20/ERC20Upgradeable.sol\":5654:5658  bool */\n      0x00\n        /* \"@openzeppelin/contracts-upgradeable/token/ERC20/ERC20Upgradeable.sol\":5670:5685  address spender */\n      dup1\n        /* \"@openzeppelin/contracts-upgradeable/token/ERC20/ERC20Upgradeable.sol\":5688:5700  _msgSender() */\n      tag_140\n        /* \"@openzeppelin/contracts-upgradeable/token/ERC20/ERC20Upgradeable.sol\":5688:5698  _msgSender */\n      tag_135\n        /* \"@openzeppelin/contracts-upgradeable/token/ERC20/ERC20Upgradeable.sol\":5688:5700  _msgSender() */\n      jump\t// in\n    tag_140:\n        /* \"@openzeppelin/contracts-upgradeable/token/ERC20/ERC20Upgradeable.sol\":5670:5700  address spender = _msgSender() */\n      swap1\n      pop\n        /* \"@openzeppelin/contracts-upgradeable/token/ERC20/ERC20Upgradeable.sol\":5710:5748  _spendAllowance(from, spender, amount) */\n      tag_141\n        /* \"@openzeppelin/contracts-upgradeable/token/ERC20/ERC20Upgradeable.sol\":5726:5730  from */\n      dup6\n        /* \"@openzeppelin/contracts-upgradeable/token/ERC20/ERC20Upgradeable.sol\":5732:5739  spender */\n      dup3\n        /* \"@openzeppelin/contracts-upgradeable/token/ERC20/ERC20Upgradeable.sol\":5741:5747  amount */\n      dup6\n        /* \"@openzeppelin/contracts-upgradeable/token/ERC20/ERC20Upgradeable.sol\":5710:5725  _spendAllowance */\n      tag_142\n        /* \"@openzeppelin/contracts-upgradeable/token/ERC20/ERC20Upgradeable.sol\":5710:5748  _spendAllowance(from, spender, amount) */\n      jump\t// in\n    tag_141:\n        /* \"@openzeppelin/contracts-upgradeable/token/ERC20/ERC20Upgradeable.sol\":5758:5785  _transfer(from, to, amount) */\n      tag_143\n        /* \"@openzeppelin/contracts-upgradeable/token/ERC20/ERC20Upgradeable.sol\":5768:5772  from */\n      dup6\n        /* \"@openzeppelin/contracts-upgradeable/token/ERC20/ERC20Upgradeable.sol\":5774:5776  to */\n      dup6\n        /* \"@openzeppelin/contracts-upgradeable/token/ERC20/ERC20Upgradeable.sol\":5778:5784  amount */\n      dup6\n        /* \"@openzeppelin/contracts-upgradeable/token/ERC20/ERC20Upgradeable.sol\":5758:5767  _transfer */\n      tag_144\n        /* \"@openzeppelin/contracts-upgradeable/token/ERC20/ERC20Upgradeable.sol\":5758:5785  _transfer(from, to, amount) */\n      jump\t// in\n    tag_143:\n        /* \"@openzeppelin/contracts-upgradeable/token/ERC20/ERC20Upgradeable.sol\":5802:5806  true */\n      0x01\n        /* \"@openzeppelin/contracts-upgradeable/token/ERC20/ERC20Upgradeable.sol\":5795:5806  return true */\n      swap2\n      pop\n      pop\n        /* \"@openzeppelin/contracts-upgradeable/token/ERC20/ERC20Upgradeable.sol\":5527:5813  function transferFrom(... */\n      swap4\n      swap3\n      pop\n      pop\n      pop\n      jump\t// out\n        /* \"@openzeppelin/contracts-upgradeable/token/ERC20/ERC20Upgradeable.sol\":3428:3519  function decimals() public view virtual override returns (uint8) {... */\n    tag_51:\n        /* \"@openzeppelin/contracts-upgradeable/token/ERC20/ERC20Upgradeable.sol\":3486:3491  uint8 */\n      0x00\n        /* \"@openzeppelin/contracts-upgradeable/token/ERC20/ERC20Upgradeable.sol\":3510:3512  18 */\n      0x12\n        /* \"@openzeppelin/contracts-upgradeable/token/ERC20/ERC20Upgradeable.sol\":3503:3512  return 18 */\n      swap1\n      pop\n        /* \"@openzeppelin/contracts-upgradeable/token/ERC20/ERC20Upgradeable.sol\":3428:3519  function decimals() public view virtual override returns (uint8) {... */\n      swap1\n      jump\t// out\n        /* \"@openzeppelin/contracts-upgradeable/proxy/utils/UUPSUpgradeable.sol\":3317:3514  function upgradeTo(address newImplementation) external virtual onlyProxy {... */\n    tag_58:\n        /* \"@openzeppelin/contracts-upgradeable/proxy/utils/UUPSUpgradeable.sol\":1898:1904  __self */\n      immutable(\"0xba8ec0f6a62777c046a0824b08e7e4244a1eee076628ac93ff46d549f5a8ee4e\")\n        /* \"@openzeppelin/contracts-upgradeable/proxy/utils/UUPSUpgradeable.sol\":1881:1904  address(this) != __self */\n      0xffffffffffffffffffffffffffffffffffffffff\n      and\n        /* \"@openzeppelin/contracts-upgradeable/proxy/utils/UUPSUpgradeable.sol\":1889:1893  this */\n      address\n        /* \"@openzeppelin/contracts-upgradeable/proxy/utils/UUPSUpgradeable.sol\":1881:1904  address(this) != __self */\n      0xffffffffffffffffffffffffffffffffffffffff\n      and\n      sub\n        /* \"@openzeppelin/contracts-upgradeable/proxy/utils/UUPSUpgradeable.sol\":1873:1953  require(address(this) != __self, \"Function must be called through delegatecall\") */\n      tag_147\n      jumpi\n      mload(0x40)\n      0x08c379a000000000000000000000000000000000000000000000000000000000\n      dup2\n      mstore\n      0x04\n      add\n      tag_148\n      swap1\n      tag_149\n      jump\t// in\n    tag_148:\n      mload(0x40)\n      dup1\n      swap2\n      sub\n      swap1\n      revert\n    tag_147:\n        /* \"@openzeppelin/contracts-upgradeable/proxy/utils/UUPSUpgradeable.sol\":1995:2001  __self */\n      immutable(\"0xba8ec0f6a62777c046a0824b08e7e4244a1eee076628ac93ff46d549f5a8ee4e\")\n        /* \"@openzeppelin/contracts-upgradeable/proxy/utils/UUPSUpgradeable.sol\":1971:2001  _getImplementation() == __self */\n      0xffffffffffffffffffffffffffffffffffffffff\n      and\n        /* \"@openzeppelin/contracts-upgradeable/proxy/utils/UUPSUpgradeable.sol\":1971:1991  _getImplementation() */\n      tag_150\n        /* \"@openzeppelin/contracts-upgradeable/proxy/utils/UUPSUpgradeable.sol\":1971:1989  _getImplementation */\n      tag_151\n        /* \"@openzeppelin/contracts-upgradeable/proxy/utils/UUPSUpgradeable.sol\":1971:1991  _getImplementation() */\n      jump\t// in\n    tag_150:\n        /* \"@openzeppelin/contracts-upgradeable/proxy/utils/UUPSUpgradeable.sol\":1971:2001  _getImplementation() == __self */\n      0xffffffffffffffffffffffffffffffffffffffff\n      and\n      eq\n        /* \"@openzeppelin/contracts-upgradeable/proxy/utils/UUPSUpgradeable.sol\":1963:2050  require(_getImplementation() == __self, \"Function must be called through active proxy\") */\n      tag_152\n      jumpi\n      mload(0x40)\n      0x08c379a000000000000000000000000000000000000000000000000000000000\n      dup2\n      mstore\n      0x04\n      add\n      tag_153\n      swap1\n      tag_154\n      jump\t// in\n    tag_153:\n      mload(0x40)\n      dup1\n      swap2\n      sub\n      swap1\n      revert\n    tag_152:\n        /* \"@openzeppelin/contracts-upgradeable/proxy/utils/UUPSUpgradeable.sol\":3400:3436  _authorizeUpgrade(newImplementation) */\n      tag_156\n        /* \"@openzeppelin/contracts-upgradeable/proxy/utils/UUPSUpgradeable.sol\":3418:3435  newImplementation */\n      dup2\n        /* \"@openzeppelin/contracts-upgradeable/proxy/utils/UUPSUpgradeable.sol\":3400:3417  _authorizeUpgrade */\n      tag_157\n        /* \"@openzeppelin/contracts-upgradeable/proxy/utils/UUPSUpgradeable.sol\":3400:3436  _authorizeUpgrade(newImplementation) */\n      jump\t// in\n    tag_156:\n        /* \"@openzeppelin/contracts-upgradeable/proxy/utils/UUPSUpgradeable.sol\":3446:3507  _upgradeToAndCallUUPS(newImplementation, new bytes(0), false) */\n      tag_158\n        /* \"@openzeppelin/contracts-upgradeable/proxy/utils/UUPSUpgradeable.sol\":3468:3485  newImplementation */\n      dup2\n        /* \"@openzeppelin/contracts-upgradeable/proxy/utils/UUPSUpgradeable.sol\":3497:3498  0 */\n      0x00\n        /* \"@openzeppelin/contracts-upgradeable/proxy/utils/UUPSUpgradeable.sol\":3487:3499  new bytes(0) */\n      0xffffffffffffffff\n      dup2\n      gt\n      iszero\n      tag_159\n      jumpi\n      tag_160\n      tag_161\n      jump\t// in\n    tag_160:\n    tag_159:\n      mload(0x40)\n      swap1\n      dup1\n      dup3\n      mstore\n      dup1\n      0x1f\n      add\n      not(0x1f)\n      and\n      0x20\n      add\n      dup3\n      add\n      0x40\n      mstore\n      dup1\n      iszero\n      tag_162\n      jumpi\n      dup2\n      0x20\n      add\n      0x01\n      dup3\n      mul\n      dup1\n      calldatasize\n      dup4\n      calldatacopy\n      dup1\n      dup3\n      add\n      swap2\n      pop\n      pop\n      swap1\n      pop\n    tag_162:\n      pop\n        /* \"@openzeppelin/contracts-upgradeable/proxy/utils/UUPSUpgradeable.sol\":3501:3506  false */\n      0x00\n        /* \"@openzeppelin/contracts-upgradeable/proxy/utils/UUPSUpgradeable.sol\":3446:3467  _upgradeToAndCallUUPS */\n      tag_163\n        /* \"@openzeppelin/contracts-upgradeable/proxy/utils/UUPSUpgradeable.sol\":3446:3507  _upgradeToAndCallUUPS(newImplementation, new bytes(0), false) */\n      jump\t// in\n    tag_158:\n        /* \"@openzeppelin/contracts-upgradeable/proxy/utils/UUPSUpgradeable.sol\":3317:3514  function upgradeTo(address newImplementation) external virtual onlyProxy {... */\n      pop\n      jump\t// out\n        /* \"@openzeppelin/contracts-upgradeable/token/ERC20/ERC20Upgradeable.sol\":6208:6442  function increaseAllowance(address spender, uint256 addedValue) public virtual returns (bool) {... */\n    tag_62:\n        /* \"@openzeppelin/contracts-upgradeable/token/ERC20/ERC20Upgradeable.sol\":6296:6300  bool */\n      0x00\n        /* \"@openzeppelin/contracts-upgradeable/token/ERC20/ERC20Upgradeable.sol\":6312:6325  address owner */\n      dup1\n        /* \"@openzeppelin/contracts-upgradeable/token/ERC20/ERC20Upgradeable.sol\":6328:6340  _msgSender() */\n      tag_165\n        /* \"@openzeppelin/contracts-upgradeable/token/ERC20/ERC20Upgradeable.sol\":6328:6338  _msgSender */\n      tag_135\n        /* \"@openzeppelin/contracts-upgradeable/token/ERC20/ERC20Upgradeable.sol\":6328:6340  _msgSender() */\n      jump\t// in\n    tag_165:\n        /* \"@openzeppelin/contracts-upgradeable/token/ERC20/ERC20Upgradeable.sol\":6312:6340  address owner = _msgSender() */\n      swap1\n      pop\n        /* \"@openzeppelin/contracts-upgradeable/token/ERC20/ERC20Upgradeable.sol\":6350:6414  _approve(owner, spender, allowance(owner, spender) + addedValue) */\n      tag_166\n        /* \"@openzeppelin/contracts-upgradeable/token/ERC20/ERC20Upgradeable.sol\":6359:6364  owner */\n      dup2\n        /* \"@openzeppelin/contracts-upgradeable/token/ERC20/ERC20Upgradeable.sol\":6366:6373  spender */\n      dup6\n        /* \"@openzeppelin/contracts-upgradeable/token/ERC20/ERC20Upgradeable.sol\":6403:6413  addedValue */\n      dup6\n        /* \"@openzeppelin/contracts-upgradeable/token/ERC20/ERC20Upgradeable.sol\":6375:6400  allowance(owner, spender) */\n      tag_167\n        /* \"@openzeppelin/contracts-upgradeable/token/ERC20/ERC20Upgradeable.sol\":6385:6390  owner */\n      dup6\n        /* \"@openzeppelin/contracts-upgradeable/token/ERC20/ERC20Upgradeable.sol\":6392:6399  spender */\n      dup10\n        /* \"@openzeppelin/contracts-upgradeable/token/ERC20/ERC20Upgradeable.sol\":6375:6384  allowance */\n      tag_120\n        /* \"@openzeppelin/contracts-upgradeable/token/ERC20/ERC20Upgradeable.sol\":6375:6400  allowance(owner, spender) */\n      jump\t// in\n    tag_167:\n        /* \"@openzeppelin/contracts-upgradeable/token/ERC20/ERC20Upgradeable.sol\":6375:6413  allowance(owner, spender) + addedValue */\n      tag_168\n      swap2\n      swap1\n      tag_169\n      jump\t// in\n    tag_168:\n        /* \"@openzeppelin/contracts-upgradeable/token/ERC20/ERC20Upgradeable.sol\":6350:6358  _approve */\n      tag_137\n        /* \"@openzeppelin/contracts-upgradeable/token/ERC20/ERC20Upgradeable.sol\":6350:6414  _approve(owner, spender, allowance(owner, spender) + addedValue) */\n      jump\t// in\n    tag_166:\n        /* \"@openzeppelin/contracts-upgradeable/token/ERC20/ERC20Upgradeable.sol\":6431:6435  true */\n      0x01\n        /* \"@openzeppelin/contracts-upgradeable/token/ERC20/ERC20Upgradeable.sol\":6424:6435  return true */\n      swap2\n      pop\n      pop\n        /* \"@openzeppelin/contracts-upgradeable/token/ERC20/ERC20Upgradeable.sol\":6208:6442  function increaseAllowance(address spender, uint256 addedValue) public virtual returns (bool) {... */\n      swap3\n      swap2\n      pop\n      pop\n      jump\t// out\n        /* \"contracts/ChadPepe.sol\":887:980  function mint(address to, uint256 amount) public onlyOwner {... */\n    tag_67:\n        /* \"@openzeppelin/contracts-upgradeable/access/OwnableUpgradeable.sol\":1334:1347  _checkOwner() */\n      tag_171\n        /* \"@openzeppelin/contracts-upgradeable/access/OwnableUpgradeable.sol\":1334:1345  _checkOwner */\n      tag_172\n        /* \"@openzeppelin/contracts-upgradeable/access/OwnableUpgradeable.sol\":1334:1347  _checkOwner() */\n      jump\t// in\n    tag_171:\n        /* \"contracts/ChadPepe.sol\":956:973  _mint(to, amount) */\n      tag_174\n        /* \"contracts/ChadPepe.sol\":962:964  to */\n      dup3\n        /* \"contracts/ChadPepe.sol\":966:972  amount */\n      dup3\n        /* \"contracts/ChadPepe.sol\":956:961  _mint */\n      tag_175\n        /* \"contracts/ChadPepe.sol\":956:973  _mint(to, amount) */\n      jump\t// in\n    tag_174:\n        /* \"contracts/ChadPepe.sol\":887:980  function mint(address to, uint256 amount) public onlyOwner {... */\n      pop\n      pop\n      jump\t// out\n        /* \"@openzeppelin/contracts-upgradeable/token/ERC20/extensions/ERC20BurnableUpgradeable.sol\":848:937  function burn(uint256 amount) public virtual {... */\n    tag_72:\n        /* \"@openzeppelin/contracts-upgradeable/token/ERC20/extensions/ERC20BurnableUpgradeable.sol\":903:930  _burn(_msgSender(), amount) */\n      tag_177\n        /* \"@openzeppelin/contracts-upgradeable/token/ERC20/extensions/ERC20BurnableUpgradeable.sol\":909:921  _msgSender() */\n      tag_178\n        /* \"@openzeppelin/contracts-upgradeable/token/ERC20/extensions/ERC20BurnableUpgradeable.sol\":909:919  _msgSender */\n      tag_135\n        /* \"@openzeppelin/contracts-upgradeable/token/ERC20/extensions/ERC20BurnableUpgradeable.sol\":909:921  _msgSender() */\n      jump\t// in\n    tag_178:\n        /* \"@openzeppelin/contracts-upgradeable/token/ERC20/extensions/ERC20BurnableUpgradeable.sol\":923:929  amount */\n      dup3\n        /* \"@openzeppelin/contracts-upgradeable/token/ERC20/extensions/ERC20BurnableUpgradeable.sol\":903:908  _burn */\n      tag_179\n        /* \"@openzeppelin/contracts-upgradeable/token/ERC20/extensions/ERC20BurnableUpgradeable.sol\":903:930  _burn(_msgSender(), amount) */\n      jump\t// in\n    tag_177:\n        /* \"@openzeppelin/contracts-upgradeable/token/ERC20/extensions/ERC20BurnableUpgradeable.sol\":848:937  function burn(uint256 amount) public virtual {... */\n      pop\n      jump\t// out\n        /* \"@openzeppelin/contracts-upgradeable/proxy/utils/UUPSUpgradeable.sol\":3763:3985  function upgradeToAndCall(address newImplementation, bytes memory data) external payable virtual onlyProxy {... */\n    tag_76:\n        /* \"@openzeppelin/contracts-upgradeable/proxy/utils/UUPSUpgradeable.sol\":1898:1904  __self */\n      immutable(\"0xba8ec0f6a62777c046a0824b08e7e4244a1eee076628ac93ff46d549f5a8ee4e\")\n        /* \"@openzeppelin/contracts-upgradeable/proxy/utils/UUPSUpgradeable.sol\":1881:1904  address(this) != __self */\n      0xffffffffffffffffffffffffffffffffffffffff\n      and\n        /* \"@openzeppelin/contracts-upgradeable/proxy/utils/UUPSUpgradeable.sol\":1889:1893  this */\n      address\n        /* \"@openzeppelin/contracts-upgradeable/proxy/utils/UUPSUpgradeable.sol\":1881:1904  address(this) != __self */\n      0xffffffffffffffffffffffffffffffffffffffff\n      and\n      sub\n        /* \"@openzeppelin/contracts-upgradeable/proxy/utils/UUPSUpgradeable.sol\":1873:1953  require(address(this) != __self, \"Function must be called through delegatecall\") */\n      tag_181\n      jumpi\n      mload(0x40)\n      0x08c379a000000000000000000000000000000000000000000000000000000000\n      dup2\n      mstore\n      0x04\n      add\n      tag_182\n      swap1\n      tag_149\n      jump\t// in\n    tag_182:\n      mload(0x40)\n      dup1\n      swap2\n      sub\n      swap1\n      revert\n    tag_181:\n        /* \"@openzeppelin/contracts-upgradeable/proxy/utils/UUPSUpgradeable.sol\":1995:2001  __self */\n      immutable(\"0xba8ec0f6a62777c046a0824b08e7e4244a1eee076628ac93ff46d549f5a8ee4e\")\n        /* \"@openzeppelin/contracts-upgradeable/proxy/utils/UUPSUpgradeable.sol\":1971:2001  _getImplementation() == __self */\n      0xffffffffffffffffffffffffffffffffffffffff\n      and\n        /* \"@openzeppelin/contracts-upgradeable/proxy/utils/UUPSUpgradeable.sol\":1971:1991  _getImplementation() */\n      tag_183\n        /* \"@openzeppelin/contracts-upgradeable/proxy/utils/UUPSUpgradeable.sol\":1971:1989  _getImplementation */\n      tag_151\n        /* \"@openzeppelin/contracts-upgradeable/proxy/utils/UUPSUpgradeable.sol\":1971:1991  _getImplementation() */\n      jump\t// in\n    tag_183:\n        /* \"@openzeppelin/contracts-upgradeable/proxy/utils/UUPSUpgradeable.sol\":1971:2001  _getImplementation() == __self */\n      0xffffffffffffffffffffffffffffffffffffffff\n      and\n      eq\n        /* \"@openzeppelin/contracts-upgradeable/proxy/utils/UUPSUpgradeable.sol\":1963:2050  require(_getImplementation() == __self, \"Function must be called through active proxy\") */\n      tag_184\n      jumpi\n      mload(0x40)\n      0x08c379a000000000000000000000000000000000000000000000000000000000\n      dup2\n      mstore\n      0x04\n      add\n      tag_185\n      swap1\n      tag_154\n      jump\t// in\n    tag_185:\n      mload(0x40)\n      dup1\n      swap2\n      sub\n      swap1\n      revert\n    tag_184:\n        /* \"@openzeppelin/contracts-upgradeable/proxy/utils/UUPSUpgradeable.sol\":3880:3916  _authorizeUpgrade(newImplementation) */\n      tag_187\n        /* \"@openzeppelin/contracts-upgradeable/proxy/utils/UUPSUpgradeable.sol\":3898:3915  newImplementation */\n      dup3\n        /* \"@openzeppelin/contracts-upgradeable/proxy/utils/UUPSUpgradeable.sol\":3880:3897  _authorizeUpgrade */\n      tag_157\n        /* \"@openzeppelin/contracts-upgradeable/proxy/utils/UUPSUpgradeable.sol\":3880:3916  _authorizeUpgrade(newImplementation) */\n      jump\t// in\n    tag_187:\n        /* \"@openzeppelin/contracts-upgradeable/proxy/utils/UUPSUpgradeable.sol\":3926:3978  _upgradeToAndCallUUPS(newImplementation, data, true) */\n      tag_188\n        /* \"@openzeppelin/contracts-upgradeable/proxy/utils/UUPSUpgradeable.sol\":3948:3965  newImplementation */\n      dup3\n        /* \"@openzeppelin/contracts-upgradeable/proxy/utils/UUPSUpgradeable.sol\":3967:3971  data */\n      dup3\n        /* \"@openzeppelin/contracts-upgradeable/proxy/utils/UUPSUpgradeable.sol\":3973:3977  true */\n      0x01\n        /* \"@openzeppelin/contracts-upgradeable/proxy/utils/UUPSUpgradeable.sol\":3926:3947  _upgradeToAndCallUUPS */\n      tag_163\n        /* \"@openzeppelin/contracts-upgradeable/proxy/utils/UUPSUpgradeable.sol\":3926:3978  _upgradeToAndCallUUPS(newImplementation, data, true) */\n      jump\t// in\n    tag_188:\n        /* \"@openzeppelin/contracts-upgradeable/proxy/utils/UUPSUpgradeable.sol\":3763:3985  function upgradeToAndCall(address newImplementation, bytes memory data) external payable virtual onlyProxy {... */\n      pop\n      pop\n      jump\t// out\n        /* \"@openzeppelin/contracts-upgradeable/proxy/utils/UUPSUpgradeable.sol\":3006:3137  function proxiableUUID() external view virtual override notDelegated returns (bytes32) {... */\n    tag_79:\n        /* \"@openzeppelin/contracts-upgradeable/proxy/utils/UUPSUpgradeable.sol\":3084:3091  bytes32 */\n      0x00\n        /* \"@openzeppelin/contracts-upgradeable/proxy/utils/UUPSUpgradeable.sol\":2333:2339  __self */\n      immutable(\"0xba8ec0f6a62777c046a0824b08e7e4244a1eee076628ac93ff46d549f5a8ee4e\")\n        /* \"@openzeppelin/contracts-upgradeable/proxy/utils/UUPSUpgradeable.sol\":2316:2339  address(this) == __self */\n      0xffffffffffffffffffffffffffffffffffffffff\n      and\n        /* \"@openzeppelin/contracts-upgradeable/proxy/utils/UUPSUpgradeable.sol\":2324:2328  this */\n      address\n        /* \"@openzeppelin/contracts-upgradeable/proxy/utils/UUPSUpgradeable.sol\":2316:2339  address(this) == __self */\n      0xffffffffffffffffffffffffffffffffffffffff\n      and\n      eq\n        /* \"@openzeppelin/contracts-upgradeable/proxy/utils/UUPSUpgradeable.sol\":2308:2400  require(address(this) == __self, \"UUPSUpgradeable: must not be called through delegatecall\") */\n      tag_190\n      jumpi\n      mload(0x40)\n      0x08c379a000000000000000000000000000000000000000000000000000000000\n      dup2\n      mstore\n      0x04\n      add\n      tag_191\n      swap1\n      tag_192\n      jump\t// in\n    tag_191:\n      mload(0x40)\n      dup1\n      swap2\n      sub\n      swap1\n      revert\n    tag_190:\n        /* \"@openzeppelin/contracts-upgradeable/proxy/ERC1967/ERC1967UpgradeUpgradeable.sol\":1364:1430  0x360894a13ba1a3210667c828492db98dca3e2076cc3735a920a3ca505d382bbc */\n      0x360894a13ba1a3210667c828492db98dca3e2076cc3735a920a3ca505d382bbc\n        /* \"@openzeppelin/contracts-upgradeable/proxy/utils/UUPSUpgradeable.sol\":3110:3130  _IMPLEMENTATION_SLOT */\n      0x00\n      shl\n        /* \"@openzeppelin/contracts-upgradeable/proxy/utils/UUPSUpgradeable.sol\":3103:3130  return _IMPLEMENTATION_SLOT */\n      swap1\n      pop\n        /* \"@openzeppelin/contracts-upgradeable/proxy/utils/UUPSUpgradeable.sol\":3006:3137  function proxiableUUID() external view virtual override notDelegated returns (bytes32) {... */\n      swap1\n      jump\t// out\n        /* \"@openzeppelin/contracts-upgradeable/token/ERC20/ERC20Upgradeable.sol\":3743:3868  function balanceOf(address account) public view virtual override returns (uint256) {... */\n    tag_85:\n        /* \"@openzeppelin/contracts-upgradeable/token/ERC20/ERC20Upgradeable.sol\":3817:3824  uint256 */\n      0x00\n        /* \"@openzeppelin/contracts-upgradeable/token/ERC20/ERC20Upgradeable.sol\":3843:3852  _balances */\n      0x33\n        /* \"@openzeppelin/contracts-upgradeable/token/ERC20/ERC20Upgradeable.sol\":3843:3861  _balances[account] */\n      0x00\n        /* \"@openzeppelin/contracts-upgradeable/token/ERC20/ERC20Upgradeable.sol\":3853:3860  account */\n      dup4\n        /* \"@openzeppelin/contracts-upgradeable/token/ERC20/ERC20Upgradeable.sol\":3843:3861  _balances[account] */\n      0xffffffffffffffffffffffffffffffffffffffff\n      and\n      0xffffffffffffffffffffffffffffffffffffffff\n      and\n      dup2\n      mstore\n      0x20\n      add\n      swap1\n      dup2\n      mstore\n      0x20\n      add\n      0x00\n      keccak256\n      sload\n        /* \"@openzeppelin/contracts-upgradeable/token/ERC20/ERC20Upgradeable.sol\":3836:3861  return _balances[account] */\n      swap1\n      pop\n        /* \"@openzeppelin/contracts-upgradeable/token/ERC20/ERC20Upgradeable.sol\":3743:3868  function balanceOf(address account) public view virtual override returns (uint256) {... */\n      swap2\n      swap1\n      pop\n      jump\t// out\n        /* \"@openzeppelin/contracts-upgradeable/access/OwnableUpgradeable.sol\":2071:2172  function renounceOwnership() public virtual onlyOwner {... */\n    tag_89:\n        /* \"@openzeppelin/contracts-upgradeable/access/OwnableUpgradeable.sol\":1334:1347  _checkOwner() */\n      tag_196\n        /* \"@openzeppelin/contracts-upgradeable/access/OwnableUpgradeable.sol\":1334:1345  _checkOwner */\n      tag_172\n        /* \"@openzeppelin/contracts-upgradeable/access/OwnableUpgradeable.sol\":1334:1347  _checkOwner() */\n      jump\t// in\n    tag_196:\n        /* \"@openzeppelin/contracts-upgradeable/access/OwnableUpgradeable.sol\":2135:2165  _transferOwnership(address(0)) */\n      tag_198\n        /* \"@openzeppelin/contracts-upgradeable/access/OwnableUpgradeable.sol\":2162:2163  0 */\n      0x00\n        /* \"@openzeppelin/contracts-upgradeable/access/OwnableUpgradeable.sol\":2135:2153  _transferOwnership */\n      tag_199\n        /* \"@openzeppelin/contracts-upgradeable/access/OwnableUpgradeable.sol\":2135:2165  _transferOwnership(address(0)) */\n      jump\t// in\n    tag_198:\n        /* \"@openzeppelin/contracts-upgradeable/access/OwnableUpgradeable.sol\":2071:2172  function renounceOwnership() public virtual onlyOwner {... */\n      jump\t// out\n        /* \"@openzeppelin/contracts-upgradeable/token/ERC20/extensions/ERC20BurnableUpgradeable.sol\":1243:1404  function burnFrom(address account, uint256 amount) public virtual {... */\n    tag_93:\n        /* \"@openzeppelin/contracts-upgradeable/token/ERC20/extensions/ERC20BurnableUpgradeable.sol\":1319:1365  _spendAllowance(account, _msgSender(), amount) */\n      tag_201\n        /* \"@openzeppelin/contracts-upgradeable/token/ERC20/extensions/ERC20BurnableUpgradeable.sol\":1335:1342  account */\n      dup3\n        /* \"@openzeppelin/contracts-upgradeable/token/ERC20/extensions/ERC20BurnableUpgradeable.sol\":1344:1356  _msgSender() */\n      tag_202\n        /* \"@openzeppelin/contracts-upgradeable/token/ERC20/extensions/ERC20BurnableUpgradeable.sol\":1344:1354  _msgSender */\n      tag_135\n        /* \"@openzeppelin/contracts-upgradeable/token/ERC20/extensions/ERC20BurnableUpgradeable.sol\":1344:1356  _msgSender() */\n      jump\t// in\n    tag_202:\n        /* \"@openzeppelin/contracts-upgradeable/token/ERC20/extensions/ERC20BurnableUpgradeable.sol\":1358:1364  amount */\n      dup4\n        /* \"@openzeppelin/contracts-upgradeable/token/ERC20/extensions/ERC20BurnableUpgradeable.sol\":1319:1334  _spendAllowance */\n      tag_142\n        /* \"@openzeppelin/contracts-upgradeable/token/ERC20/extensions/ERC20BurnableUpgradeable.sol\":1319:1365  _spendAllowance(account, _msgSender(), amount) */\n      jump\t// in\n    tag_201:\n        /* \"@openzeppelin/contracts-upgradeable/token/ERC20/extensions/ERC20BurnableUpgradeable.sol\":1375:1397  _burn(account, amount) */\n      tag_203\n        /* \"@openzeppelin/contracts-upgradeable/token/ERC20/extensions/ERC20BurnableUpgradeable.sol\":1381:1388  account */\n      dup3\n        /* \"@openzeppelin/contracts-upgradeable/token/ERC20/extensions/ERC20BurnableUpgradeable.sol\":1390:1396  amount */\n      dup3\n        /* \"@openzeppelin/contracts-upgradeable/token/ERC20/extensions/ERC20BurnableUpgradeable.sol\":1375:1380  _burn */\n      tag_179\n        /* \"@openzeppelin/contracts-upgradeable/token/ERC20/extensions/ERC20BurnableUpgradeable.sol\":1375:1397  _burn(account, amount) */\n      jump\t// in\n    tag_203:\n        /* \"@openzeppelin/contracts-upgradeable/token/ERC20/extensions/ERC20BurnableUpgradeable.sol\":1243:1404  function burnFrom(address account, uint256 amount) public virtual {... */\n      pop\n      pop\n      jump\t// out\n        /* \"contracts/ChadPepe.sol\":699:881  function initialize() initializer public {... */\n    tag_96:\n        /* \"@openzeppelin/contracts-upgradeable/proxy/utils/Initializable.sol\":3268:3287  bool isTopLevelCall */\n      0x00\n        /* \"@openzeppelin/contracts-upgradeable/proxy/utils/Initializable.sol\":3291:3304  _initializing */\n      dup1\n      0x01\n      swap1\n      sload\n      swap1\n      0x0100\n      exp\n      swap1\n      div\n      0xff\n      and\n        /* \"@openzeppelin/contracts-upgradeable/proxy/utils/Initializable.sol\":3290:3304  !_initializing */\n      iszero\n        /* \"@openzeppelin/contracts-upgradeable/proxy/utils/Initializable.sol\":3268:3304  bool isTopLevelCall = !_initializing */\n      swap1\n      pop\n        /* \"@openzeppelin/contracts-upgradeable/proxy/utils/Initializable.sol\":3336:3350  isTopLevelCall */\n      dup1\n        /* \"@openzeppelin/contracts-upgradeable/proxy/utils/Initializable.sol\":3336:3370  isTopLevelCall && _initialized < 1 */\n      dup1\n      iszero\n      tag_205\n      jumpi\n      pop\n        /* \"@openzeppelin/contracts-upgradeable/proxy/utils/Initializable.sol\":3369:3370  1 */\n      0x01\n        /* \"@openzeppelin/contracts-upgradeable/proxy/utils/Initializable.sol\":3354:3366  _initialized */\n      0x00\n      dup1\n      sload\n      swap1\n      0x0100\n      exp\n      swap1\n      div\n      0xff\n      and\n        /* \"@openzeppelin/contracts-upgradeable/proxy/utils/Initializable.sol\":3354:3370  _initialized < 1 */\n      0xff\n      and\n      lt\n        /* \"@openzeppelin/contracts-upgradeable/proxy/utils/Initializable.sol\":3336:3370  isTopLevelCall && _initialized < 1 */\n    tag_205:\n        /* \"@openzeppelin/contracts-upgradeable/proxy/utils/Initializable.sol\":3335:3443  (isTopLevelCall && _initialized < 1) || (!AddressUpgradeable.isContract(address(this)) && _initialized == 1) */\n      dup1\n      tag_206\n      jumpi\n      pop\n        /* \"@openzeppelin/contracts-upgradeable/proxy/utils/Initializable.sol\":3377:3421  AddressUpgradeable.isContract(address(this)) */\n      tag_207\n        /* \"@openzeppelin/contracts-upgradeable/proxy/utils/Initializable.sol\":3415:3419  this */\n      address\n        /* \"@openzeppelin/contracts-upgradeable/proxy/utils/Initializable.sol\":3377:3406  AddressUpgradeable.isContract */\n      tag_208\n        /* \"@openzeppelin/contracts-upgradeable/proxy/utils/Initializable.sol\":3377:3421  AddressUpgradeable.isContract(address(this)) */\n      jump\t// in\n    tag_207:\n        /* \"@openzeppelin/contracts-upgradeable/proxy/utils/Initializable.sol\":3376:3421  !AddressUpgradeable.isContract(address(this)) */\n      iszero\n        /* \"@openzeppelin/contracts-upgradeable/proxy/utils/Initializable.sol\":3376:3442  !AddressUpgradeable.isContract(address(this)) && _initialized == 1 */\n      dup1\n      iszero\n      tag_209\n      jumpi\n      pop\n        /* \"@openzeppelin/contracts-upgradeable/proxy/utils/Initializable.sol\":3441:3442  1 */\n      0x01\n        /* \"@openzeppelin/contracts-upgradeable/proxy/utils/Initializable.sol\":3425:3437  _initialized */\n      0x00\n      dup1\n      sload\n      swap1\n      0x0100\n      exp\n      swap1\n      div\n      0xff\n      and\n        /* \"@openzeppelin/contracts-upgradeable/proxy/utils/Initializable.sol\":3425:3442  _initialized == 1 */\n      0xff\n      and\n      eq\n        /* \"@openzeppelin/contracts-upgradeable/proxy/utils/Initializable.sol\":3376:3442  !AddressUpgradeable.isContract(address(this)) && _initialized == 1 */\n    tag_209:\n        /* \"@openzeppelin/contracts-upgradeable/proxy/utils/Initializable.sol\":3335:3443  (isTopLevelCall && _initialized < 1) || (!AddressUpgradeable.isContract(address(this)) && _initialized == 1) */\n    tag_206:\n        /* \"@openzeppelin/contracts-upgradeable/proxy/utils/Initializable.sol\":3314:3515  require(... */\n      tag_210\n      jumpi\n      mload(0x40)\n      0x08c379a000000000000000000000000000000000000000000000000000000000\n      dup2\n      mstore\n      0x04\n      add\n      tag_211\n      swap1\n      tag_212\n      jump\t// in\n    tag_211:\n      mload(0x40)\n      dup1\n      swap2\n      sub\n      swap1\n      revert\n    tag_210:\n        /* \"@openzeppelin/contracts-upgradeable/proxy/utils/Initializable.sol\":3540:3541  1 */\n      0x01\n        /* \"@openzeppelin/contracts-upgradeable/proxy/utils/Initializable.sol\":3525:3537  _initialized */\n      0x00\n      dup1\n        /* \"@openzeppelin/contracts-upgradeable/proxy/utils/Initializable.sol\":3525:3541  _initialized = 1 */\n      0x0100\n      exp\n      dup2\n      sload\n      dup2\n      0xff\n      mul\n      not\n      and\n      swap1\n      dup4\n      0xff\n      and\n      mul\n      or\n      swap1\n      sstore\n      pop\n        /* \"@openzeppelin/contracts-upgradeable/proxy/utils/Initializable.sol\":3555:3569  isTopLevelCall */\n      dup1\n        /* \"@openzeppelin/contracts-upgradeable/proxy/utils/Initializable.sol\":3551:3616  if (isTopLevelCall) {... */\n      iszero\n      tag_213\n      jumpi\n        /* \"@openzeppelin/contracts-upgradeable/proxy/utils/Initializable.sol\":3601:3605  true */\n      0x01\n        /* \"@openzeppelin/contracts-upgradeable/proxy/utils/Initializable.sol\":3585:3598  _initializing */\n      0x00\n      0x01\n        /* \"@openzeppelin/contracts-upgradeable/proxy/utils/Initializable.sol\":3585:3605  _initializing = true */\n      0x0100\n      exp\n      dup2\n      sload\n      dup2\n      0xff\n      mul\n      not\n      and\n      swap1\n      dup4\n      iszero\n      iszero\n      mul\n      or\n      swap1\n      sstore\n      pop\n        /* \"@openzeppelin/contracts-upgradeable/proxy/utils/Initializable.sol\":3551:3616  if (isTopLevelCall) {... */\n    tag_213:\n        /* \"contracts/ChadPepe.sol\":750:782  __ERC20_init(\"ChadPepe\", \"CHAD\") */\n      tag_215\n      mload(0x40)\n      dup1\n      0x40\n      add\n      0x40\n      mstore\n      dup1\n      0x08\n      dup2\n      mstore\n      0x20\n      add\n      0x4368616450657065000000000000000000000000000000000000000000000000\n      dup2\n      mstore\n      pop\n      mload(0x40)\n      dup1\n      0x40\n      add\n      0x40\n      mstore\n      dup1\n      0x04\n      dup2\n      mstore\n      0x20\n      add\n      0x4348414400000000000000000000000000000000000000000000000000000000\n      dup2\n      mstore\n      pop\n        /* \"contracts/ChadPepe.sol\":750:762  __ERC20_init */\n      tag_216\n        /* \"contracts/ChadPepe.sol\":750:782  __ERC20_init(\"ChadPepe\", \"CHAD\") */\n      jump\t// in\n    tag_215:\n        /* \"contracts/ChadPepe.sol\":792:814  __ERC20Burnable_init() */\n      tag_217\n        /* \"contracts/ChadPepe.sol\":792:812  __ERC20Burnable_init */\n      tag_218\n        /* \"contracts/ChadPepe.sol\":792:814  __ERC20Burnable_init() */\n      jump\t// in\n    tag_217:\n        /* \"contracts/ChadPepe.sol\":824:840  __Ownable_init() */\n      tag_219\n        /* \"contracts/ChadPepe.sol\":824:838  __Ownable_init */\n      tag_220\n        /* \"contracts/ChadPepe.sol\":824:840  __Ownable_init() */\n      jump\t// in\n    tag_219:\n        /* \"contracts/ChadPepe.sol\":850:874  __UUPSUpgradeable_init() */\n      tag_221\n        /* \"contracts/ChadPepe.sol\":850:872  __UUPSUpgradeable_init */\n      tag_222\n        /* \"contracts/ChadPepe.sol\":850:874  __UUPSUpgradeable_init() */\n      jump\t// in\n    tag_221:\n        /* \"@openzeppelin/contracts-upgradeable/proxy/utils/Initializable.sol\":3640:3654  isTopLevelCall */\n      dup1\n        /* \"@openzeppelin/contracts-upgradeable/proxy/utils/Initializable.sol\":3636:3735  if (isTopLevelCall) {... */\n      iszero\n      tag_223\n      jumpi\n        /* \"@openzeppelin/contracts-upgradeable/proxy/utils/Initializable.sol\":3686:3691  false */\n      0x00\n        /* \"@openzeppelin/contracts-upgradeable/proxy/utils/Initializable.sol\":3670:3683  _initializing */\n      dup1\n      0x01\n        /* \"@openzeppelin/contracts-upgradeable/proxy/utils/Initializable.sol\":3670:3691  _initializing = false */\n      0x0100\n      exp\n      dup2\n      sload\n      dup2\n      0xff\n      mul\n      not\n      and\n      swap1\n      dup4\n      iszero\n      iszero\n      mul\n      or\n      swap1\n      sstore\n      pop\n        /* \"@openzeppelin/contracts-upgradeable/proxy/utils/Initializable.sol\":3710:3724  Initialized(1) */\n      0x7f26b83ff96e1f2b6a682f133852f6798a09c465da95921460cefb3847402498\n        /* \"@openzeppelin/contracts-upgradeable/proxy/utils/Initializable.sol\":3722:3723  1 */\n      0x01\n        /* \"@openzeppelin/contracts-upgradeable/proxy/utils/Initializable.sol\":3710:3724  Initialized(1) */\n      mload(0x40)\n      tag_224\n      swap2\n      swap1\n      tag_225\n      jump\t// in\n    tag_224:\n      mload(0x40)\n      dup1\n      swap2\n      sub\n      swap1\n      log1\n        /* \"@openzeppelin/contracts-upgradeable/proxy/utils/Initializable.sol\":3636:3735  if (isTopLevelCall) {... */\n    tag_223:\n        /* \"@openzeppelin/contracts-upgradeable/proxy/utils/Initializable.sol\":3258:3741  {... */\n      pop\n        /* \"contracts/ChadPepe.sol\":699:881  function initialize() initializer public {... */\n      jump\t// out\n        /* \"@openzeppelin/contracts-upgradeable/access/OwnableUpgradeable.sol\":1441:1526  function owner() public view virtual returns (address) {... */\n    tag_99:\n        /* \"@openzeppelin/contracts-upgradeable/access/OwnableUpgradeable.sol\":1487:1494  address */\n      0x00\n        /* \"@openzeppelin/contracts-upgradeable/access/OwnableUpgradeable.sol\":1513:1519  _owner */\n      0x97\n      0x00\n      swap1\n      sload\n      swap1\n      0x0100\n      exp\n      swap1\n      div\n      0xffffffffffffffffffffffffffffffffffffffff\n      and\n        /* \"@openzeppelin/contracts-upgradeable/access/OwnableUpgradeable.sol\":1506:1519  return _owner */\n      swap1\n      pop\n        /* \"@openzeppelin/contracts-upgradeable/access/OwnableUpgradeable.sol\":1441:1526  function owner() public view virtual returns (address) {... */\n      swap1\n      jump\t// out\n        /* \"@openzeppelin/contracts-upgradeable/token/ERC20/ERC20Upgradeable.sol\":2702:2804  function symbol() public view virtual override returns (string memory) {... */\n    tag_104:\n        /* \"@openzeppelin/contracts-upgradeable/token/ERC20/ERC20Upgradeable.sol\":2758:2771  string memory */\n      0x60\n        /* \"@openzeppelin/contracts-upgradeable/token/ERC20/ERC20Upgradeable.sol\":2790:2797  _symbol */\n      0x37\n        /* \"@openzeppelin/contracts-upgradeable/token/ERC20/ERC20Upgradeable.sol\":2783:2797  return _symbol */\n      dup1\n      sload\n      tag_228\n      swap1\n      tag_128\n      jump\t// in\n    tag_228:\n      dup1\n      0x1f\n      add\n      0x20\n      dup1\n      swap2\n      div\n      mul\n      0x20\n      add\n      mload(0x40)\n      swap1\n      dup2\n      add\n      0x40\n      mstore\n      dup1\n      swap3\n      swap2\n      swap1\n      dup2\n      dup2\n      mstore\n      0x20\n      add\n      dup3\n      dup1\n      sload\n      tag_229\n      swap1\n      tag_128\n      jump\t// in\n    tag_229:\n      dup1\n      iszero\n      tag_230\n      jumpi\n      dup1\n      0x1f\n      lt\n      tag_231\n      jumpi\n      0x0100\n      dup1\n      dup4\n      sload\n      div\n      mul\n      dup4\n      mstore\n      swap2\n      0x20\n      add\n      swap2\n      jump(tag_230)\n    tag_231:\n      dup3\n      add\n      swap2\n      swap1\n      0x00\n      mstore\n      keccak256(0x00, 0x20)\n      swap1\n    tag_232:\n      dup2\n      sload\n      dup2\n      mstore\n      swap1\n      0x01\n      add\n      swap1\n      0x20\n      add\n      dup1\n      dup4\n      gt\n      tag_232\n      jumpi\n      dup3\n      swap1\n      sub\n      0x1f\n      and\n      dup3\n      add\n      swap2\n    tag_230:\n      pop\n      pop\n      pop\n      pop\n      pop\n      swap1\n      pop\n        /* \"@openzeppelin/contracts-upgradeable/token/ERC20/ERC20Upgradeable.sol\":2702:2804  function symbol() public view virtual override returns (string memory) {... */\n      swap1\n      jump\t// out\n        /* \"@openzeppelin/contracts-upgradeable/token/ERC20/ERC20Upgradeable.sol\":6929:7356  function decreaseAllowance(address spender, uint256 subtractedValue) public virtual returns (bool) {... */\n    tag_109:\n        /* \"@openzeppelin/contracts-upgradeable/token/ERC20/ERC20Upgradeable.sol\":7022:7026  bool */\n      0x00\n        /* \"@openzeppelin/contracts-upgradeable/token/ERC20/ERC20Upgradeable.sol\":7038:7051  address owner */\n      dup1\n        /* \"@openzeppelin/contracts-upgradeable/token/ERC20/ERC20Upgradeable.sol\":7054:7066  _msgSender() */\n      tag_234\n        /* \"@openzeppelin/contracts-upgradeable/token/ERC20/ERC20Upgradeable.sol\":7054:7064  _msgSender */\n      tag_135\n        /* \"@openzeppelin/contracts-upgradeable/token/ERC20/ERC20Upgradeable.sol\":7054:7066  _msgSender() */\n      jump\t// in\n    tag_234:\n        /* \"@openzeppelin/contracts-upgradeable/token/ERC20/ERC20Upgradeable.sol\":7038:7066  address owner = _msgSender() */\n      swap1\n      pop\n        /* \"@openzeppelin/contracts-upgradeable/token/ERC20/ERC20Upgradeable.sol\":7076:7100  uint256 currentAllowance */\n      0x00\n        /* \"@openzeppelin/contracts-upgradeable/token/ERC20/ERC20Upgradeable.sol\":7103:7128  allowance(owner, spender) */\n      tag_235\n        /* \"@openzeppelin/contracts-upgradeable/token/ERC20/ERC20Upgradeable.sol\":7113:7118  owner */\n      dup3\n        /* \"@openzeppelin/contracts-upgradeable/token/ERC20/ERC20Upgradeable.sol\":7120:7127  spender */\n      dup7\n        /* \"@openzeppelin/contracts-upgradeable/token/ERC20/ERC20Upgradeable.sol\":7103:7112  allowance */\n      tag_120\n        /* \"@openzeppelin/contracts-upgradeable/token/ERC20/ERC20Upgradeable.sol\":7103:7128  allowance(owner, spender) */\n      jump\t// in\n    tag_235:\n        /* \"@openzeppelin/contracts-upgradeable/token/ERC20/ERC20Upgradeable.sol\":7076:7128  uint256 currentAllowance = allowance(owner, spender) */\n      swap1\n      pop\n        /* \"@openzeppelin/contracts-upgradeable/token/ERC20/ERC20Upgradeable.sol\":7166:7181  subtractedValue */\n      dup4\n        /* \"@openzeppelin/contracts-upgradeable/token/ERC20/ERC20Upgradeable.sol\":7146:7162  currentAllowance */\n      dup2\n        /* \"@openzeppelin/contracts-upgradeable/token/ERC20/ERC20Upgradeable.sol\":7146:7181  currentAllowance >= subtractedValue */\n      lt\n      iszero\n        /* \"@openzeppelin/contracts-upgradeable/token/ERC20/ERC20Upgradeable.sol\":7138:7223  require(currentAllowance >= subtractedValue, \"ERC20: decreased allowance below zero\") */\n      tag_236\n      jumpi\n      mload(0x40)\n      0x08c379a000000000000000000000000000000000000000000000000000000000\n      dup2\n      mstore\n      0x04\n      add\n      tag_237\n      swap1\n      tag_238\n      jump\t// in\n    tag_237:\n      mload(0x40)\n      dup1\n      swap2\n      sub\n      swap1\n      revert\n    tag_236:\n        /* \"@openzeppelin/contracts-upgradeable/token/ERC20/ERC20Upgradeable.sol\":7257:7317  _approve(owner, spender, currentAllowance - subtractedValue) */\n      tag_239\n        /* \"@openzeppelin/contracts-upgradeable/token/ERC20/ERC20Upgradeable.sol\":7266:7271  owner */\n      dup3\n        /* \"@openzeppelin/contracts-upgradeable/token/ERC20/ERC20Upgradeable.sol\":7273:7280  spender */\n      dup7\n        /* \"@openzeppelin/contracts-upgradeable/token/ERC20/ERC20Upgradeable.sol\":7301:7316  subtractedValue */\n      dup7\n        /* \"@openzeppelin/contracts-upgradeable/token/ERC20/ERC20Upgradeable.sol\":7282:7298  currentAllowance */\n      dup5\n        /* \"@openzeppelin/contracts-upgradeable/token/ERC20/ERC20Upgradeable.sol\":7282:7316  currentAllowance - subtractedValue */\n      sub\n        /* \"@openzeppelin/contracts-upgradeable/token/ERC20/ERC20Upgradeable.sol\":7257:7265  _approve */\n      tag_137\n        /* \"@openzeppelin/contracts-upgradeable/token/ERC20/ERC20Upgradeable.sol\":7257:7317  _approve(owner, spender, currentAllowance - subtractedValue) */\n      jump\t// in\n    tag_239:\n        /* \"@openzeppelin/contracts-upgradeable/token/ERC20/ERC20Upgradeable.sol\":7345:7349  true */\n      0x01\n        /* \"@openzeppelin/contracts-upgradeable/token/ERC20/ERC20Upgradeable.sol\":7338:7349  return true */\n      swap3\n      pop\n      pop\n      pop\n        /* \"@openzeppelin/contracts-upgradeable/token/ERC20/ERC20Upgradeable.sol\":6929:7356  function decreaseAllowance(address spender, uint256 subtractedValue) public virtual returns (bool) {... */\n      swap3\n      swap2\n      pop\n      pop\n      jump\t// out\n        /* \"@openzeppelin/contracts-upgradeable/token/ERC20/ERC20Upgradeable.sol\":4064:4253  function transfer(address to, uint256 amount) public virtual override returns (bool) {... */\n    tag_114:\n        /* \"@openzeppelin/contracts-upgradeable/token/ERC20/ERC20Upgradeable.sol\":4143:4147  bool */\n      0x00\n        /* \"@openzeppelin/contracts-upgradeable/token/ERC20/ERC20Upgradeable.sol\":4159:4172  address owner */\n      dup1\n        /* \"@openzeppelin/contracts-upgradeable/token/ERC20/ERC20Upgradeable.sol\":4175:4187  _msgSender() */\n      tag_241\n        /* \"@openzeppelin/contracts-upgradeable/token/ERC20/ERC20Upgradeable.sol\":4175:4185  _msgSender */\n      tag_135\n        /* \"@openzeppelin/contracts-upgradeable/token/ERC20/ERC20Upgradeable.sol\":4175:4187  _msgSender() */\n      jump\t// in\n    tag_241:\n        /* \"@openzeppelin/contracts-upgradeable/token/ERC20/ERC20Upgradeable.sol\":4159:4187  address owner = _msgSender() */\n      swap1\n      pop\n        /* \"@openzeppelin/contracts-upgradeable/token/ERC20/ERC20Upgradeable.sol\":4197:4225  _transfer(owner, to, amount) */\n      tag_242\n        /* \"@openzeppelin/contracts-upgradeable/token/ERC20/ERC20Upgradeable.sol\":4207:4212  owner */\n      dup2\n        /* \"@openzeppelin/contracts-upgradeable/token/ERC20/ERC20Upgradeable.sol\":4214:4216  to */\n      dup6\n        /* \"@openzeppelin/contracts-upgradeable/token/ERC20/ERC20Upgradeable.sol\":4218:4224  amount */\n      dup6\n        /* \"@openzeppelin/contracts-upgradeable/token/ERC20/ERC20Upgradeable.sol\":4197:4206  _transfer */\n      tag_144\n        /* \"@openzeppelin/contracts-upgradeable/token/ERC20/ERC20Upgradeable.sol\":4197:4225  _transfer(owner, to, amount) */\n      jump\t// in\n    tag_242:\n        /* \"@openzeppelin/contracts-upgradeable/token/ERC20/ERC20Upgradeable.sol\":4242:4246  true */\n      0x01\n        /* \"@openzeppelin/contracts-upgradeable/token/ERC20/ERC20Upgradeable.sol\":4235:4246  return true */\n      swap2\n      pop\n      pop\n        /* \"@openzeppelin/contracts-upgradeable/token/ERC20/ERC20Upgradeable.sol\":4064:4253  function transfer(address to, uint256 amount) public virtual override returns (bool) {... */\n      swap3\n      swap2\n      pop\n      pop\n      jump\t// out\n        /* \"@openzeppelin/contracts-upgradeable/token/ERC20/ERC20Upgradeable.sol\":4311:4460  function allowance(address owner, address spender) public view virtual override returns (uint256) {... */\n    tag_120:\n        /* \"@openzeppelin/contracts-upgradeable/token/ERC20/ERC20Upgradeable.sol\":4400:4407  uint256 */\n      0x00\n        /* \"@openzeppelin/contracts-upgradeable/token/ERC20/ERC20Upgradeable.sol\":4426:4437  _allowances */\n      0x34\n        /* \"@openzeppelin/contracts-upgradeable/token/ERC20/ERC20Upgradeable.sol\":4426:4444  _allowances[owner] */\n      0x00\n        /* \"@openzeppelin/contracts-upgradeable/token/ERC20/ERC20Upgradeable.sol\":4438:4443  owner */\n      dup5\n        /* \"@openzeppelin/contracts-upgradeable/token/ERC20/ERC20Upgradeable.sol\":4426:4444  _allowances[owner] */\n      0xffffffffffffffffffffffffffffffffffffffff\n      and\n      0xffffffffffffffffffffffffffffffffffffffff\n      and\n      dup2\n      mstore\n      0x20\n      add\n      swap1\n      dup2\n      mstore\n      0x20\n      add\n      0x00\n      keccak256\n        /* \"@openzeppelin/contracts-upgradeable/token/ERC20/ERC20Upgradeable.sol\":4426:4453  _allowances[owner][spender] */\n      0x00\n        /* \"@openzeppelin/contracts-upgradeable/token/ERC20/ERC20Upgradeable.sol\":4445:4452  spender */\n      dup4\n        /* \"@openzeppelin/contracts-upgradeable/token/ERC20/ERC20Upgradeable.sol\":4426:4453  _allowances[owner][spender] */\n      0xffffffffffffffffffffffffffffffffffffffff\n      and\n      0xffffffffffffffffffffffffffffffffffffffff\n      and\n      dup2\n      mstore\n      0x20\n      add\n      swap1\n      dup2\n      mstore\n      0x20\n      add\n      0x00\n      keccak256\n      sload\n        /* \"@openzeppelin/contracts-upgradeable/token/ERC20/ERC20Upgradeable.sol\":4419:4453  return _allowances[owner][spender] */\n      swap1\n      pop\n        /* \"@openzeppelin/contracts-upgradeable/token/ERC20/ERC20Upgradeable.sol\":4311:4460  function allowance(address owner, address spender) public view virtual override returns (uint256) {... */\n      swap3\n      swap2\n      pop\n      pop\n      jump\t// out\n        /* \"@openzeppelin/contracts-upgradeable/access/OwnableUpgradeable.sol\":2321:2519  function transferOwnership(address newOwner) public virtual onlyOwner {... */\n    tag_125:\n        /* \"@openzeppelin/contracts-upgradeable/access/OwnableUpgradeable.sol\":1334:1347  _checkOwner() */\n      tag_245\n        /* \"@openzeppelin/contracts-upgradeable/access/OwnableUpgradeable.sol\":1334:1345  _checkOwner */\n      tag_172\n        /* \"@openzeppelin/contracts-upgradeable/access/OwnableUpgradeable.sol\":1334:1347  _checkOwner() */\n      jump\t// in\n    tag_245:\n        /* \"@openzeppelin/contracts-upgradeable/access/OwnableUpgradeable.sol\":2429:2430  0 */\n      0x00\n        /* \"@openzeppelin/contracts-upgradeable/access/OwnableUpgradeable.sol\":2409:2431  newOwner != address(0) */\n      0xffffffffffffffffffffffffffffffffffffffff\n      and\n        /* \"@openzeppelin/contracts-upgradeable/access/OwnableUpgradeable.sol\":2409:2417  newOwner */\n      dup2\n        /* \"@openzeppelin/contracts-upgradeable/access/OwnableUpgradeable.sol\":2409:2431  newOwner != address(0) */\n      0xffffffffffffffffffffffffffffffffffffffff\n      and\n      sub\n        /* \"@openzeppelin/contracts-upgradeable/access/OwnableUpgradeable.sol\":2401:2474  require(newOwner != address(0), \"Ownable: new owner is the zero address\") */\n      tag_247\n      jumpi\n      mload(0x40)\n      0x08c379a000000000000000000000000000000000000000000000000000000000\n      dup2\n      mstore\n      0x04\n      add\n      tag_248\n      swap1\n      tag_249\n      jump\t// in\n    tag_248:\n      mload(0x40)\n      dup1\n      swap2\n      sub\n      swap1\n      revert\n    tag_247:\n        /* \"@openzeppelin/contracts-upgradeable/access/OwnableUpgradeable.sol\":2484:2512  _transferOwnership(newOwner) */\n      tag_250\n        /* \"@openzeppelin/contracts-upgradeable/access/OwnableUpgradeable.sol\":2503:2511  newOwner */\n      dup2\n        /* \"@openzeppelin/contracts-upgradeable/access/OwnableUpgradeable.sol\":2484:2502  _transferOwnership */\n      tag_199\n        /* \"@openzeppelin/contracts-upgradeable/access/OwnableUpgradeable.sol\":2484:2512  _transferOwnership(newOwner) */\n      jump\t// in\n    tag_250:\n        /* \"@openzeppelin/contracts-upgradeable/access/OwnableUpgradeable.sol\":2321:2519  function transferOwnership(address newOwner) public virtual onlyOwner {... */\n      pop\n      jump\t// out\n        /* \"@openzeppelin/contracts-upgradeable/utils/ContextUpgradeable.sol\":850:946  function _msgSender() internal view virtual returns (address) {... */\n    tag_135:\n        /* \"@openzeppelin/contracts-upgradeable/utils/ContextUpgradeable.sol\":903:910  address */\n      0x00\n        /* \"@openzeppelin/contracts-upgradeable/utils/ContextUpgradeable.sol\":929:939  msg.sender */\n      caller\n        /* \"@openzeppelin/contracts-upgradeable/utils/ContextUpgradeable.sol\":922:939  return msg.sender */\n      swap1\n      pop\n        /* \"@openzeppelin/contracts-upgradeable/utils/ContextUpgradeable.sol\":850:946  function _msgSender() internal view virtual returns (address) {... */\n      swap1\n      jump\t// out\n        /* \"@openzeppelin/contracts-upgradeable/token/ERC20/ERC20Upgradeable.sol\":10841:11211  function _approve(... */\n    tag_137:\n        /* \"@openzeppelin/contracts-upgradeable/token/ERC20/ERC20Upgradeable.sol\":10989:10990  0 */\n      0x00\n        /* \"@openzeppelin/contracts-upgradeable/token/ERC20/ERC20Upgradeable.sol\":10972:10991  owner != address(0) */\n      0xffffffffffffffffffffffffffffffffffffffff\n      and\n        /* \"@openzeppelin/contracts-upgradeable/token/ERC20/ERC20Upgradeable.sol\":10972:10977  owner */\n      dup4\n        /* \"@openzeppelin/contracts-upgradeable/token/ERC20/ERC20Upgradeable.sol\":10972:10991  owner != address(0) */\n      0xffffffffffffffffffffffffffffffffffffffff\n      and\n      sub\n        /* \"@openzeppelin/contracts-upgradeable/token/ERC20/ERC20Upgradeable.sol\":10964:11032  require(owner != address(0), \"ERC20: approve from the zero address\") */\n      tag_253\n      jumpi\n      mload(0x40)\n      0x08c379a000000000000000000000000000000000000000000000000000000000\n      dup2\n      mstore\n      0x04\n      add\n      tag_254\n      swap1\n      tag_255\n      jump\t// in\n    tag_254:\n      mload(0x40)\n      dup1\n      swap2\n      sub\n      swap1\n      revert\n    tag_253:\n        /* \"@openzeppelin/contracts-upgradeable/token/ERC20/ERC20Upgradeable.sol\":11069:11070  0 */\n      0x00\n        /* \"@openzeppelin/contracts-upgradeable/token/ERC20/ERC20Upgradeable.sol\":11050:11071  spender != address(0) */\n      0xffffffffffffffffffffffffffffffffffffffff\n      and\n        /* \"@openzeppelin/contracts-upgradeable/token/ERC20/ERC20Upgradeable.sol\":11050:11057  spender */\n      dup3\n        /* \"@openzeppelin/contracts-upgradeable/token/ERC20/ERC20Upgradeable.sol\":11050:11071  spender != address(0) */\n      0xffffffffffffffffffffffffffffffffffffffff\n      and\n      sub\n        /* \"@openzeppelin/contracts-upgradeable/token/ERC20/ERC20Upgradeable.sol\":11042:11110  require(spender != address(0), \"ERC20: approve to the zero address\") */\n      tag_256\n      jumpi\n      mload(0x40)\n      0x08c379a000000000000000000000000000000000000000000000000000000000\n      dup2\n      mstore\n      0x04\n      add\n      tag_257\n      swap1\n      tag_258\n      jump\t// in\n    tag_257:\n      mload(0x40)\n      dup1\n      swap2\n      sub\n      swap1\n      revert\n    tag_256:\n        /* \"@openzeppelin/contracts-upgradeable/token/ERC20/ERC20Upgradeable.sol\":11151:11157  amount */\n      dup1\n        /* \"@openzeppelin/contracts-upgradeable/token/ERC20/ERC20Upgradeable.sol\":11121:11132  _allowances */\n      0x34\n        /* \"@openzeppelin/contracts-upgradeable/token/ERC20/ERC20Upgradeable.sol\":11121:11139  _allowances[owner] */\n      0x00\n        /* \"@openzeppelin/contracts-upgradeable/token/ERC20/ERC20Upgradeable.sol\":11133:11138  owner */\n      dup6\n        /* \"@openzeppelin/contracts-upgradeable/token/ERC20/ERC20Upgradeable.sol\":11121:11139  _allowances[owner] */\n      0xffffffffffffffffffffffffffffffffffffffff\n      and\n      0xffffffffffffffffffffffffffffffffffffffff\n      and\n      dup2\n      mstore\n      0x20\n      add\n      swap1\n      dup2\n      mstore\n      0x20\n      add\n      0x00\n      keccak256\n        /* \"@openzeppelin/contracts-upgradeable/token/ERC20/ERC20Upgradeable.sol\":11121:11148  _allowances[owner][spender] */\n      0x00\n        /* \"@openzeppelin/contracts-upgradeable/token/ERC20/ERC20Upgradeable.sol\":11140:11147  spender */\n      dup5\n        /* \"@openzeppelin/contracts-upgradeable/token/ERC20/ERC20Upgradeable.sol\":11121:11148  _allowances[owner][spender] */\n      0xffffffffffffffffffffffffffffffffffffffff\n      and\n      0xffffffffffffffffffffffffffffffffffffffff\n      and\n      dup2\n      mstore\n      0x20\n      add\n      swap1\n      dup2\n      mstore\n      0x20\n      add\n      0x00\n      keccak256\n        /* \"@openzeppelin/contracts-upgradeable/token/ERC20/ERC20Upgradeable.sol\":11121:11157  _allowances[owner][spender] = amount */\n      dup2\n      swap1\n      sstore\n      pop\n        /* \"@openzeppelin/contracts-upgradeable/token/ERC20/ERC20Upgradeable.sol\":11188:11195  spender */\n      dup2\n        /* \"@openzeppelin/contracts-upgradeable/token/ERC20/ERC20Upgradeable.sol\":11172:11204  Approval(owner, spender, amount) */\n      0xffffffffffffffffffffffffffffffffffffffff\n      and\n        /* \"@openzeppelin/contracts-upgradeable/token/ERC20/ERC20Upgradeable.sol\":11181:11186  owner */\n      dup4\n        /* \"@openzeppelin/contracts-upgradeable/token/ERC20/ERC20Upgradeable.sol\":11172:11204  Approval(owner, spender, amount) */\n      0xffffffffffffffffffffffffffffffffffffffff\n      and\n      0x8c5be1e5ebec7d5bd14f71427d1e84f3dd0314c0f7b2291e5b200ac8c7c3b925\n        /* \"@openzeppelin/contracts-upgradeable/token/ERC20/ERC20Upgradeable.sol\":11197:11203  amount */\n      dup4\n        /* \"@openzeppelin/contracts-upgradeable/token/ERC20/ERC20Upgradeable.sol\":11172:11204  Approval(owner, spender, amount) */\n      mload(0x40)\n      tag_259\n      swap2\n      swap1\n      tag_42\n      jump\t// in\n    tag_259:\n      mload(0x40)\n      dup1\n      swap2\n      sub\n      swap1\n      log3\n        /* \"@openzeppelin/contracts-upgradeable/token/ERC20/ERC20Upgradeable.sol\":10841:11211  function _approve(... */\n      pop\n      pop\n      pop\n      jump\t// out\n        /* \"@openzeppelin/contracts-upgradeable/token/ERC20/ERC20Upgradeable.sol\":11492:11933  function _spendAllowance(... */\n    tag_142:\n        /* \"@openzeppelin/contracts-upgradeable/token/ERC20/ERC20Upgradeable.sol\":11622:11646  uint256 currentAllowance */\n      0x00\n        /* \"@openzeppelin/contracts-upgradeable/token/ERC20/ERC20Upgradeable.sol\":11649:11674  allowance(owner, spender) */\n      tag_261\n        /* \"@openzeppelin/contracts-upgradeable/token/ERC20/ERC20Upgradeable.sol\":11659:11664  owner */\n      dup5\n        /* \"@openzeppelin/contracts-upgradeable/token/ERC20/ERC20Upgradeable.sol\":11666:11673  spender */\n      dup5\n        /* \"@openzeppelin/contracts-upgradeable/token/ERC20/ERC20Upgradeable.sol\":11649:11658  allowance */\n      tag_120\n        /* \"@openzeppelin/contracts-upgradeable/token/ERC20/ERC20Upgradeable.sol\":11649:11674  allowance(owner, spender) */\n      jump\t// in\n    tag_261:\n        /* \"@openzeppelin/contracts-upgradeable/token/ERC20/ERC20Upgradeable.sol\":11622:11674  uint256 currentAllowance = allowance(owner, spender) */\n      swap1\n      pop\n        /* \"@openzeppelin/contracts-upgradeable/token/ERC20/ERC20Upgradeable.sol\":11708:11725  type(uint256).max */\n      0xffffffffffffffffffffffffffffffffffffffffffffffffffffffffffffffff\n        /* \"@openzeppelin/contracts-upgradeable/token/ERC20/ERC20Upgradeable.sol\":11688:11704  currentAllowance */\n      dup2\n        /* \"@openzeppelin/contracts-upgradeable/token/ERC20/ERC20Upgradeable.sol\":11688:11725  currentAllowance != type(uint256).max */\n      eq\n        /* \"@openzeppelin/contracts-upgradeable/token/ERC20/ERC20Upgradeable.sol\":11684:11927  if (currentAllowance != type(uint256).max) {... */\n      tag_262\n      jumpi\n        /* \"@openzeppelin/contracts-upgradeable/token/ERC20/ERC20Upgradeable.sol\":11769:11775  amount */\n      dup2\n        /* \"@openzeppelin/contracts-upgradeable/token/ERC20/ERC20Upgradeable.sol\":11749:11765  currentAllowance */\n      dup2\n        /* \"@openzeppelin/contracts-upgradeable/token/ERC20/ERC20Upgradeable.sol\":11749:11775  currentAllowance >= amount */\n      lt\n      iszero\n        /* \"@openzeppelin/contracts-upgradeable/token/ERC20/ERC20Upgradeable.sol\":11741:11809  require(currentAllowance >= amount, \"ERC20: insufficient allowance\") */\n      tag_263\n      jumpi\n      mload(0x40)\n      0x08c379a000000000000000000000000000000000000000000000000000000000\n      dup2\n      mstore\n      0x04\n      add\n      tag_264\n      swap1\n      tag_265\n      jump\t// in\n    tag_264:\n      mload(0x40)\n      dup1\n      swap2\n      sub\n      swap1\n      revert\n    tag_263:\n        /* \"@openzeppelin/contracts-upgradeable/token/ERC20/ERC20Upgradeable.sol\":11851:11902  _approve(owner, spender, currentAllowance - amount) */\n      tag_266\n        /* \"@openzeppelin/contracts-upgradeable/token/ERC20/ERC20Upgradeable.sol\":11860:11865  owner */\n      dup5\n        /* \"@openzeppelin/contracts-upgradeable/token/ERC20/ERC20Upgradeable.sol\":11867:11874  spender */\n      dup5\n        /* \"@openzeppelin/contracts-upgradeable/token/ERC20/ERC20Upgradeable.sol\":11895:11901  amount */\n      dup5\n        /* \"@openzeppelin/contracts-upgradeable/token/ERC20/ERC20Upgradeable.sol\":11876:11892  currentAllowance */\n      dup5\n        /* \"@openzeppelin/contracts-upgradeable/token/ERC20/ERC20Upgradeable.sol\":11876:11901  currentAllowance - amount */\n      sub\n        /* \"@openzeppelin/contracts-upgradeable/token/ERC20/ERC20Upgradeable.sol\":11851:11859  _approve */\n      tag_137\n        /* \"@openzeppelin/contracts-upgradeable/token/ERC20/ERC20Upgradeable.sol\":11851:11902  _approve(owner, spender, currentAllowance - amount) */\n      jump\t// in\n    tag_266:\n        /* \"@openzeppelin/contracts-upgradeable/token/ERC20/ERC20Upgradeable.sol\":11684:11927  if (currentAllowance != type(uint256).max) {... */\n    tag_262:\n        /* \"@openzeppelin/contracts-upgradeable/token/ERC20/ERC20Upgradeable.sol\":11612:11933  {... */\n      pop\n        /* \"@openzeppelin/contracts-upgradeable/token/ERC20/ERC20Upgradeable.sol\":11492:11933  function _spendAllowance(... */\n      pop\n      pop\n      pop\n      jump\t// out\n        /* \"@openzeppelin/contracts-upgradeable/token/ERC20/ERC20Upgradeable.sol\":7810:8628  function _transfer(... */\n    tag_144:\n        /* \"@openzeppelin/contracts-upgradeable/token/ERC20/ERC20Upgradeable.sol\":7952:7953  0 */\n      0x00\n        /* \"@openzeppelin/contracts-upgradeable/token/ERC20/ERC20Upgradeable.sol\":7936:7954  from != address(0) */\n      0xffffffffffffffffffffffffffffffffffffffff\n      and\n        /* \"@openzeppelin/contracts-upgradeable/token/ERC20/ERC20Upgradeable.sol\":7936:7940  from */\n      dup4\n        /* \"@openzeppelin/contracts-upgradeable/token/ERC20/ERC20Upgradeable.sol\":7936:7954  from != address(0) */\n      0xffffffffffffffffffffffffffffffffffffffff\n      and\n      sub\n        /* \"@openzeppelin/contracts-upgradeable/token/ERC20/ERC20Upgradeable.sol\":7928:7996  require(from != address(0), \"ERC20: transfer from the zero address\") */\n      tag_268\n      jumpi\n      mload(0x40)\n      0x08c379a000000000000000000000000000000000000000000000000000000000\n      dup2\n      mstore\n      0x04\n      add\n      tag_269\n      swap1\n      tag_270\n      jump\t// in\n    tag_269:\n      mload(0x40)\n      dup1\n      swap2\n      sub\n      swap1\n      revert\n    tag_268:\n        /* \"@openzeppelin/contracts-upgradeable/token/ERC20/ERC20Upgradeable.sol\":8028:8029  0 */\n      0x00\n        /* \"@openzeppelin/contracts-upgradeable/token/ERC20/ERC20Upgradeable.sol\":8014:8030  to != address(0) */\n      0xffffffffffffffffffffffffffffffffffffffff\n      and\n        /* \"@openzeppelin/contracts-upgradeable/token/ERC20/ERC20Upgradeable.sol\":8014:8016  to */\n      dup3\n        /* \"@openzeppelin/contracts-upgradeable/token/ERC20/ERC20Upgradeable.sol\":8014:8030  to != address(0) */\n      0xffffffffffffffffffffffffffffffffffffffff\n      and\n      sub\n        /* \"@openzeppelin/contracts-upgradeable/token/ERC20/ERC20Upgradeable.sol\":8006:8070  require(to != address(0), \"ERC20: transfer to the zero address\") */\n      tag_271\n      jumpi\n      mload(0x40)\n      0x08c379a000000000000000000000000000000000000000000000000000000000\n      dup2\n      mstore\n      0x04\n      add\n      tag_272\n      swap1\n      tag_273\n      jump\t// in\n    tag_272:\n      mload(0x40)\n      dup1\n      swap2\n      sub\n      swap1\n      revert\n    tag_271:\n        /* \"@openzeppelin/contracts-upgradeable/token/ERC20/ERC20Upgradeable.sol\":8081:8119  _beforeTokenTransfer(from, to, amount) */\n      tag_274\n        /* \"@openzeppelin/contracts-upgradeable/token/ERC20/ERC20Upgradeable.sol\":8102:8106  from */\n      dup4\n        /* \"@openzeppelin/contracts-upgradeable/token/ERC20/ERC20Upgradeable.sol\":8108:8110  to */\n      dup4\n        /* \"@openzeppelin/contracts-upgradeable/token/ERC20/ERC20Upgradeable.sol\":8112:8118  amount */\n      dup4\n        /* \"@openzeppelin/contracts-upgradeable/token/ERC20/ERC20Upgradeable.sol\":8081:8101  _beforeTokenTransfer */\n      tag_275\n        /* \"@openzeppelin/contracts-upgradeable/token/ERC20/ERC20Upgradeable.sol\":8081:8119  _beforeTokenTransfer(from, to, amount) */\n      jump\t// in\n    tag_274:\n        /* \"@openzeppelin/contracts-upgradeable/token/ERC20/ERC20Upgradeable.sol\":8130:8149  uint256 fromBalance */\n      0x00\n        /* \"@openzeppelin/contracts-upgradeable/token/ERC20/ERC20Upgradeable.sol\":8152:8161  _balances */\n      0x33\n        /* \"@openzeppelin/contracts-upgradeable/token/ERC20/ERC20Upgradeable.sol\":8152:8167  _balances[from] */\n      0x00\n        /* \"@openzeppelin/contracts-upgradeable/token/ERC20/ERC20Upgradeable.sol\":8162:8166  from */\n      dup6\n        /* \"@openzeppelin/contracts-upgradeable/token/ERC20/ERC20Upgradeable.sol\":8152:8167  _balances[from] */\n      0xffffffffffffffffffffffffffffffffffffffff\n      and\n      0xffffffffffffffffffffffffffffffffffffffff\n      and\n      dup2\n      mstore\n      0x20\n      add\n      swap1\n      dup2\n      mstore\n      0x20\n      add\n      0x00\n      keccak256\n      sload\n        /* \"@openzeppelin/contracts-upgradeable/token/ERC20/ERC20Upgradeable.sol\":8130:8167  uint256 fromBalance = _balances[from] */\n      swap1\n      pop\n        /* \"@openzeppelin/contracts-upgradeable/token/ERC20/ERC20Upgradeable.sol\":8200:8206  amount */\n      dup2\n        /* \"@openzeppelin/contracts-upgradeable/token/ERC20/ERC20Upgradeable.sol\":8185:8196  fromBalance */\n      dup2\n        /* \"@openzeppelin/contracts-upgradeable/token/ERC20/ERC20Upgradeable.sol\":8185:8206  fromBalance >= amount */\n      lt\n      iszero\n        /* \"@openzeppelin/contracts-upgradeable/token/ERC20/ERC20Upgradeable.sol\":8177:8249  require(fromBalance >= amount, \"ERC20: transfer amount exceeds balance\") */\n      tag_276\n      jumpi\n      mload(0x40)\n      0x08c379a000000000000000000000000000000000000000000000000000000000\n      dup2\n      mstore\n      0x04\n      add\n      tag_277\n      swap1\n      tag_278\n      jump\t// in\n    tag_277:\n      mload(0x40)\n      dup1\n      swap2\n      sub\n      swap1\n      revert\n    tag_276:\n        /* \"@openzeppelin/contracts-upgradeable/token/ERC20/ERC20Upgradeable.sol\":8315:8321  amount */\n      dup2\n        /* \"@openzeppelin/contracts-upgradeable/token/ERC20/ERC20Upgradeable.sol\":8301:8312  fromBalance */\n      dup2\n        /* \"@openzeppelin/contracts-upgradeable/token/ERC20/ERC20Upgradeable.sol\":8301:8321  fromBalance - amount */\n      sub\n        /* \"@openzeppelin/contracts-upgradeable/token/ERC20/ERC20Upgradeable.sol\":8283:8292  _balances */\n      0x33\n        /* \"@openzeppelin/contracts-upgradeable/token/ERC20/ERC20Upgradeable.sol\":8283:8298  _balances[from] */\n      0x00\n        /* \"@openzeppelin/contracts-upgradeable/token/ERC20/ERC20Upgradeable.sol\":8293:8297  from */\n      dup7\n        /* \"@openzeppelin/contracts-upgradeable/token/ERC20/ERC20Upgradeable.sol\":8283:8298  _balances[from] */\n      0xffffffffffffffffffffffffffffffffffffffff\n      and\n      0xffffffffffffffffffffffffffffffffffffffff\n      and\n      dup2\n      mstore\n      0x20\n      add\n      swap1\n      dup2\n      mstore\n      0x20\n      add\n      0x00\n      keccak256\n        /* \"@openzeppelin/contracts-upgradeable/token/ERC20/ERC20Upgradeable.sol\":8283:8321  _balances[from] = fromBalance - amount */\n      dup2\n      swap1\n      sstore\n      pop\n        /* \"@openzeppelin/contracts-upgradeable/token/ERC20/ERC20Upgradeable.sol\":8515:8521  amount */\n      dup2\n        /* \"@openzeppelin/contracts-upgradeable/token/ERC20/ERC20Upgradeable.sol\":8498:8507  _balances */\n      0x33\n        /* \"@openzeppelin/contracts-upgradeable/token/ERC20/ERC20Upgradeable.sol\":8498:8511  _balances[to] */\n      0x00\n        /* \"@openzeppelin/contracts-upgradeable/token/ERC20/ERC20Upgradeable.sol\":8508:8510  to */\n      dup6\n        /* \"@openzeppelin/contracts-upgradeable/token/ERC20/ERC20Upgradeable.sol\":8498:8511  _balances[to] */\n      0xffffffffffffffffffffffffffffffffffffffff\n      and\n      0xffffffffffffffffffffffffffffffffffffffff\n      and\n      dup2\n      mstore\n      0x20\n      add\n      swap1\n      dup2\n      mstore\n      0x20\n      add\n      0x00\n      keccak256\n      0x00\n        /* \"@openzeppelin/contracts-upgradeable/token/ERC20/ERC20Upgradeable.sol\":8498:8521  _balances[to] += amount */\n      dup3\n      dup3\n      sload\n      add\n      swap3\n      pop\n      pop\n      dup2\n      swap1\n      sstore\n      pop\n        /* \"@openzeppelin/contracts-upgradeable/token/ERC20/ERC20Upgradeable.sol\":8562:8564  to */\n      dup3\n        /* \"@openzeppelin/contracts-upgradeable/token/ERC20/ERC20Upgradeable.sol\":8547:8573  Transfer(from, to, amount) */\n      0xffffffffffffffffffffffffffffffffffffffff\n      and\n        /* \"@openzeppelin/contracts-upgradeable/token/ERC20/ERC20Upgradeable.sol\":8556:8560  from */\n      dup5\n        /* \"@openzeppelin/contracts-upgradeable/token/ERC20/ERC20Upgradeable.sol\":8547:8573  Transfer(from, to, amount) */\n      0xffffffffffffffffffffffffffffffffffffffff\n      and\n      0xddf252ad1be2c89b69c2b068fc378daa952ba7f163c4a11628f55a4df523b3ef\n        /* \"@openzeppelin/contracts-upgradeable/token/ERC20/ERC20Upgradeable.sol\":8566:8572  amount */\n      dup5\n        /* \"@openzeppelin/contracts-upgradeable/token/ERC20/ERC20Upgradeable.sol\":8547:8573  Transfer(from, to, amount) */\n      mload(0x40)\n      tag_279\n      swap2\n      swap1\n      tag_42\n      jump\t// in\n    tag_279:\n      mload(0x40)\n      dup1\n      swap2\n      sub\n      swap1\n      log3\n        /* \"@openzeppelin/contracts-upgradeable/token/ERC20/ERC20Upgradeable.sol\":8584:8621  _afterTokenTransfer(from, to, amount) */\n      tag_280\n        /* \"@openzeppelin/contracts-upgradeable/token/ERC20/ERC20Upgradeable.sol\":8604:8608  from */\n      dup5\n        /* \"@openzeppelin/contracts-upgradeable/token/ERC20/ERC20Upgradeable.sol\":8610:8612  to */\n      dup5\n        /* \"@openzeppelin/contracts-upgradeable/token/ERC20/ERC20Upgradeable.sol\":8614:8620  amount */\n      dup5\n        /* \"@openzeppelin/contracts-upgradeable/token/ERC20/ERC20Upgradeable.sol\":8584:8603  _afterTokenTransfer */\n      tag_281\n        /* \"@openzeppelin/contracts-upgradeable/token/ERC20/ERC20Upgradeable.sol\":8584:8621  _afterTokenTransfer(from, to, amount) */\n      jump\t// in\n    tag_280:\n        /* \"@openzeppelin/contracts-upgradeable/token/ERC20/ERC20Upgradeable.sol\":7918:8628  {... */\n      pop\n        /* \"@openzeppelin/contracts-upgradeable/token/ERC20/ERC20Upgradeable.sol\":7810:8628  function _transfer(... */\n      pop\n      pop\n      pop\n      jump\t// out\n        /* \"@openzeppelin/contracts-upgradeable/proxy/ERC1967/ERC1967UpgradeUpgradeable.sol\":1509:1660  function _getImplementation() internal view returns (address) {... */\n    tag_151:\n        /* \"@openzeppelin/contracts-upgradeable/proxy/ERC1967/ERC1967UpgradeUpgradeable.sol\":1562:1569  address */\n      0x00\n        /* \"@openzeppelin/contracts-upgradeable/proxy/ERC1967/ERC1967UpgradeUpgradeable.sol\":1588:1647  StorageSlotUpgradeable.getAddressSlot(_IMPLEMENTATION_SLOT) */\n      tag_283\n        /* \"@openzeppelin/contracts-upgradeable/proxy/ERC1967/ERC1967UpgradeUpgradeable.sol\":1364:1430  0x360894a13ba1a3210667c828492db98dca3e2076cc3735a920a3ca505d382bbc */\n      0x360894a13ba1a3210667c828492db98dca3e2076cc3735a920a3ca505d382bbc\n        /* \"@openzeppelin/contracts-upgradeable/proxy/ERC1967/ERC1967UpgradeUpgradeable.sol\":1626:1646  _IMPLEMENTATION_SLOT */\n      0x00\n      shl\n        /* \"@openzeppelin/contracts-upgradeable/proxy/ERC1967/ERC1967UpgradeUpgradeable.sol\":1588:1625  StorageSlotUpgradeable.getAddressSlot */\n      tag_284\n        /* \"@openzeppelin/contracts-upgradeable/proxy/ERC1967/ERC1967UpgradeUpgradeable.sol\":1588:1647  StorageSlotUpgradeable.getAddressSlot(_IMPLEMENTATION_SLOT) */\n      jump\t// in\n    tag_283:\n        /* \"@openzeppelin/contracts-upgradeable/proxy/ERC1967/ERC1967UpgradeUpgradeable.sol\":1588:1653  StorageSlotUpgradeable.getAddressSlot(_IMPLEMENTATION_SLOT).value */\n      0x00\n      add\n      0x00\n      swap1\n      sload\n      swap1\n      0x0100\n      exp\n      swap1\n      div\n      0xffffffffffffffffffffffffffffffffffffffff\n      and\n        /* \"@openzeppelin/contracts-upgradeable/proxy/ERC1967/ERC1967UpgradeUpgradeable.sol\":1581:1653  return StorageSlotUpgradeable.getAddressSlot(_IMPLEMENTATION_SLOT).value */\n      swap1\n      pop\n        /* \"@openzeppelin/contracts-upgradeable/proxy/ERC1967/ERC1967UpgradeUpgradeable.sol\":1509:1660  function _getImplementation() internal view returns (address) {... */\n      swap1\n      jump\t// out\n        /* \"contracts/ChadPepe.sol\":986:1098  function _authorizeUpgrade(address newImplementation)... */\n    tag_157:\n        /* \"@openzeppelin/contracts-upgradeable/access/OwnableUpgradeable.sol\":1334:1347  _checkOwner() */\n      tag_286\n        /* \"@openzeppelin/contracts-upgradeable/access/OwnableUpgradeable.sol\":1334:1345  _checkOwner */\n      tag_172\n        /* \"@openzeppelin/contracts-upgradeable/access/OwnableUpgradeable.sol\":1334:1347  _checkOwner() */\n      jump\t// in\n    tag_286:\n        /* \"contracts/ChadPepe.sol\":986:1098  function _authorizeUpgrade(address newImplementation)... */\n      pop\n      jump\t// out\n        /* \"@openzeppelin/contracts-upgradeable/proxy/ERC1967/ERC1967UpgradeUpgradeable.sol\":2884:3858  function _upgradeToAndCallUUPS(... */\n    tag_163:\n        /* \"@openzeppelin/contracts-upgradeable/proxy/ERC1967/ERC1967UpgradeUpgradeable.sol\":3330:3383  StorageSlotUpgradeable.getBooleanSlot(_ROLLBACK_SLOT) */\n      tag_289\n        /* \"@openzeppelin/contracts-upgradeable/proxy/ERC1967/ERC1967UpgradeUpgradeable.sol\":1023:1089  0x4910fdfa16fed3260ed0e7147f7cc6da11a60208b5b9406d12a635614ffd9143 */\n      0x4910fdfa16fed3260ed0e7147f7cc6da11a60208b5b9406d12a635614ffd9143\n        /* \"@openzeppelin/contracts-upgradeable/proxy/ERC1967/ERC1967UpgradeUpgradeable.sol\":3368:3382  _ROLLBACK_SLOT */\n      0x00\n      shl\n        /* \"@openzeppelin/contracts-upgradeable/proxy/ERC1967/ERC1967UpgradeUpgradeable.sol\":3330:3367  StorageSlotUpgradeable.getBooleanSlot */\n      tag_290\n        /* \"@openzeppelin/contracts-upgradeable/proxy/ERC1967/ERC1967UpgradeUpgradeable.sol\":3330:3383  StorageSlotUpgradeable.getBooleanSlot(_ROLLBACK_SLOT) */\n      jump\t// in\n    tag_289:\n        /* \"@openzeppelin/contracts-upgradeable/proxy/ERC1967/ERC1967UpgradeUpgradeable.sol\":3330:3389  StorageSlotUpgradeable.getBooleanSlot(_ROLLBACK_SLOT).value */\n      0x00\n      add\n      0x00\n      swap1\n      sload\n      swap1\n      0x0100\n      exp\n      swap1\n      div\n      0xff\n      and\n        /* \"@openzeppelin/contracts-upgradeable/proxy/ERC1967/ERC1967UpgradeUpgradeable.sol\":3326:3852  if (StorageSlotUpgradeable.getBooleanSlot(_ROLLBACK_SLOT).value) {... */\n      iszero\n      tag_291\n      jumpi\n        /* \"@openzeppelin/contracts-upgradeable/proxy/ERC1967/ERC1967UpgradeUpgradeable.sol\":3405:3442  _setImplementation(newImplementation) */\n      tag_292\n        /* \"@openzeppelin/contracts-upgradeable/proxy/ERC1967/ERC1967UpgradeUpgradeable.sol\":3424:3441  newImplementation */\n      dup4\n        /* \"@openzeppelin/contracts-upgradeable/proxy/ERC1967/ERC1967UpgradeUpgradeable.sol\":3405:3423  _setImplementation */\n      tag_293\n        /* \"@openzeppelin/contracts-upgradeable/proxy/ERC1967/ERC1967UpgradeUpgradeable.sol\":3405:3442  _setImplementation(newImplementation) */\n      jump\t// in\n    tag_292:\n        /* \"@openzeppelin/contracts-upgradeable/proxy/ERC1967/ERC1967UpgradeUpgradeable.sol\":3326:3852  if (StorageSlotUpgradeable.getBooleanSlot(_ROLLBACK_SLOT).value) {... */\n      jump(tag_294)\n    tag_291:\n        /* \"@openzeppelin/contracts-upgradeable/proxy/ERC1967/ERC1967UpgradeUpgradeable.sol\":3506:3523  newImplementation */\n      dup3\n        /* \"@openzeppelin/contracts-upgradeable/proxy/ERC1967/ERC1967UpgradeUpgradeable.sol\":3477:3538  IERC1822ProxiableUpgradeable(newImplementation).proxiableUUID */\n      0xffffffffffffffffffffffffffffffffffffffff\n      and\n      0x52d1902d\n        /* \"@openzeppelin/contracts-upgradeable/proxy/ERC1967/ERC1967UpgradeUpgradeable.sol\":3477:3540  IERC1822ProxiableUpgradeable(newImplementation).proxiableUUID() */\n      mload(0x40)\n      dup2\n      0xffffffff\n      and\n      0xe0\n      shl\n      dup2\n      mstore\n      0x04\n      add\n      0x20\n      mload(0x40)\n      dup1\n      dup4\n      sub\n      dup2\n      dup7\n      gas\n      staticcall\n      swap3\n      pop\n      pop\n      pop\n      dup1\n      iszero\n      tag_295\n      jumpi\n      pop\n      mload(0x40)\n      returndatasize\n      not(0x1f)\n      0x1f\n      dup3\n      add\n      and\n      dup3\n      add\n      dup1\n      0x40\n      mstore\n      pop\n      dup2\n      add\n      swap1\n      tag_296\n      swap2\n      swap1\n      tag_297\n      jump\t// in\n    tag_296:\n      0x01\n    tag_295:\n        /* \"@openzeppelin/contracts-upgradeable/proxy/ERC1967/ERC1967UpgradeUpgradeable.sol\":3473:3775  try IERC1822ProxiableUpgradeable(newImplementation).proxiableUUID() returns (bytes32 slot) {... */\n      tag_298\n      jumpi\n        /* \"@openzeppelin/contracts-upgradeable/proxy/ERC1967/ERC1967UpgradeUpgradeable.sol\":3704:3760  revert(\"ERC1967Upgrade: new implementation is not UUPS\") */\n      mload(0x40)\n      0x08c379a000000000000000000000000000000000000000000000000000000000\n      dup2\n      mstore\n      0x04\n      add\n      tag_302\n      swap1\n      tag_303\n      jump\t// in\n    tag_302:\n      mload(0x40)\n      dup1\n      swap2\n      sub\n      swap1\n      revert\n        /* \"@openzeppelin/contracts-upgradeable/proxy/ERC1967/ERC1967UpgradeUpgradeable.sol\":3473:3775  try IERC1822ProxiableUpgradeable(newImplementation).proxiableUUID() returns (bytes32 slot) {... */\n    tag_298:\n        /* \"@openzeppelin/contracts-upgradeable/proxy/ERC1967/ERC1967UpgradeUpgradeable.sol\":1364:1430  0x360894a13ba1a3210667c828492db98dca3e2076cc3735a920a3ca505d382bbc */\n      0x360894a13ba1a3210667c828492db98dca3e2076cc3735a920a3ca505d382bbc\n        /* \"@openzeppelin/contracts-upgradeable/proxy/ERC1967/ERC1967UpgradeUpgradeable.sol\":3598:3618  _IMPLEMENTATION_SLOT */\n      0x00\n      shl\n        /* \"@openzeppelin/contracts-upgradeable/proxy/ERC1967/ERC1967UpgradeUpgradeable.sol\":3590:3594  slot */\n      dup2\n        /* \"@openzeppelin/contracts-upgradeable/proxy/ERC1967/ERC1967UpgradeUpgradeable.sol\":3590:3618  slot == _IMPLEMENTATION_SLOT */\n      eq\n        /* \"@openzeppelin/contracts-upgradeable/proxy/ERC1967/ERC1967UpgradeUpgradeable.sol\":3582:3664  require(slot == _IMPLEMENTATION_SLOT, \"ERC1967Upgrade: unsupported proxiableUUID\") */\n      tag_305\n      jumpi\n      mload(0x40)\n      0x08c379a000000000000000000000000000000000000000000000000000000000\n      dup2\n      mstore\n      0x04\n      add\n      tag_306\n      swap1\n      tag_307\n      jump\t// in\n    tag_306:\n      mload(0x40)\n      dup1\n      swap2\n      sub\n      swap1\n      revert\n    tag_305:\n        /* \"@openzeppelin/contracts-upgradeable/proxy/ERC1967/ERC1967UpgradeUpgradeable.sol\":3541:3679  returns (bytes32 slot) {... */\n      pop\n        /* \"@openzeppelin/contracts-upgradeable/proxy/ERC1967/ERC1967UpgradeUpgradeable.sol\":3788:3841  _upgradeToAndCall(newImplementation, data, forceCall) */\n      tag_308\n        /* \"@openzeppelin/contracts-upgradeable/proxy/ERC1967/ERC1967UpgradeUpgradeable.sol\":3806:3823  newImplementation */\n      dup4\n        /* \"@openzeppelin/contracts-upgradeable/proxy/ERC1967/ERC1967UpgradeUpgradeable.sol\":3825:3829  data */\n      dup4\n        /* \"@openzeppelin/contracts-upgradeable/proxy/ERC1967/ERC1967UpgradeUpgradeable.sol\":3831:3840  forceCall */\n      dup4\n        /* \"@openzeppelin/contracts-upgradeable/proxy/ERC1967/ERC1967UpgradeUpgradeable.sol\":3788:3805  _upgradeToAndCall */\n      tag_309\n        /* \"@openzeppelin/contracts-upgradeable/proxy/ERC1967/ERC1967UpgradeUpgradeable.sol\":3788:3841  _upgradeToAndCall(newImplementation, data, forceCall) */\n      jump\t// in\n    tag_308:\n        /* \"@openzeppelin/contracts-upgradeable/proxy/ERC1967/ERC1967UpgradeUpgradeable.sol\":3326:3852  if (StorageSlotUpgradeable.getBooleanSlot(_ROLLBACK_SLOT).value) {... */\n    tag_294:\n        /* \"@openzeppelin/contracts-upgradeable/proxy/ERC1967/ERC1967UpgradeUpgradeable.sol\":2884:3858  function _upgradeToAndCallUUPS(... */\n      pop\n      pop\n      pop\n      jump\t// out\n        /* \"@openzeppelin/contracts-upgradeable/access/OwnableUpgradeable.sol\":1599:1729  function _checkOwner() internal view virtual {... */\n    tag_172:\n        /* \"@openzeppelin/contracts-upgradeable/access/OwnableUpgradeable.sol\":1673:1685  _msgSender() */\n      tag_311\n        /* \"@openzeppelin/contracts-upgradeable/access/OwnableUpgradeable.sol\":1673:1683  _msgSender */\n      tag_135\n        /* \"@openzeppelin/contracts-upgradeable/access/OwnableUpgradeable.sol\":1673:1685  _msgSender() */\n      jump\t// in\n    tag_311:\n        /* \"@openzeppelin/contracts-upgradeable/access/OwnableUpgradeable.sol\":1662:1685  owner() == _msgSender() */\n      0xffffffffffffffffffffffffffffffffffffffff\n      and\n        /* \"@openzeppelin/contracts-upgradeable/access/OwnableUpgradeable.sol\":1662:1669  owner() */\n      tag_312\n        /* \"@openzeppelin/contracts-upgradeable/access/OwnableUpgradeable.sol\":1662:1667  owner */\n      tag_99\n        /* \"@openzeppelin/contracts-upgradeable/access/OwnableUpgradeable.sol\":1662:1669  owner() */\n      jump\t// in\n    tag_312:\n        /* \"@openzeppelin/contracts-upgradeable/access/OwnableUpgradeable.sol\":1662:1685  owner() == _msgSender() */\n      0xffffffffffffffffffffffffffffffffffffffff\n      and\n      eq\n        /* \"@openzeppelin/contracts-upgradeable/access/OwnableUpgradeable.sol\":1654:1722  require(owner() == _msgSender(), \"Ownable: caller is not the owner\") */\n      tag_313\n      jumpi\n      mload(0x40)\n      0x08c379a000000000000000000000000000000000000000000000000000000000\n      dup2\n      mstore\n      0x04\n      add\n      tag_314\n      swap1\n      tag_315\n      jump\t// in\n    tag_314:\n      mload(0x40)\n      dup1\n      swap2\n      sub\n      swap1\n      revert\n    tag_313:\n        /* \"@openzeppelin/contracts-upgradeable/access/OwnableUpgradeable.sol\":1599:1729  function _checkOwner() internal view virtual {... */\n      jump\t// out\n        /* \"@openzeppelin/contracts-upgradeable/token/ERC20/ERC20Upgradeable.sol\":8904:9439  function _mint(address account, uint256 amount) internal virtual {... */\n    tag_175:\n        /* \"@openzeppelin/contracts-upgradeable/token/ERC20/ERC20Upgradeable.sol\":9006:9007  0 */\n      0x00\n        /* \"@openzeppelin/contracts-upgradeable/token/ERC20/ERC20Upgradeable.sol\":8987:9008  account != address(0) */\n      0xffffffffffffffffffffffffffffffffffffffff\n      and\n        /* \"@openzeppelin/contracts-upgradeable/token/ERC20/ERC20Upgradeable.sol\":8987:8994  account */\n      dup3\n        /* \"@openzeppelin/contracts-upgradeable/token/ERC20/ERC20Upgradeable.sol\":8987:9008  account != address(0) */\n      0xffffffffffffffffffffffffffffffffffffffff\n      and\n      sub\n        /* \"@openzeppelin/contracts-upgradeable/token/ERC20/ERC20Upgradeable.sol\":8979:9044  require(account != address(0), \"ERC20: mint to the zero address\") */\n      tag_317\n      jumpi\n      mload(0x40)\n      0x08c379a000000000000000000000000000000000000000000000000000000000\n      dup2\n      mstore\n      0x04\n      add\n      tag_318\n      swap1\n      tag_319\n      jump\t// in\n    tag_318:\n      mload(0x40)\n      dup1\n      swap2\n      sub\n      swap1\n      revert\n    tag_317:\n        /* \"@openzeppelin/contracts-upgradeable/token/ERC20/ERC20Upgradeable.sol\":9055:9104  _beforeTokenTransfer(address(0), account, amount) */\n      tag_320\n        /* \"@openzeppelin/contracts-upgradeable/token/ERC20/ERC20Upgradeable.sol\":9084:9085  0 */\n      0x00\n        /* \"@openzeppelin/contracts-upgradeable/token/ERC20/ERC20Upgradeable.sol\":9088:9095  account */\n      dup4\n        /* \"@openzeppelin/contracts-upgradeable/token/ERC20/ERC20Upgradeable.sol\":9097:9103  amount */\n      dup4\n        /* \"@openzeppelin/contracts-upgradeable/token/ERC20/ERC20Upgradeable.sol\":9055:9075  _beforeTokenTransfer */\n      tag_275\n        /* \"@openzeppelin/contracts-upgradeable/token/ERC20/ERC20Upgradeable.sol\":9055:9104  _beforeTokenTransfer(address(0), account, amount) */\n      jump\t// in\n    tag_320:\n        /* \"@openzeppelin/contracts-upgradeable/token/ERC20/ERC20Upgradeable.sol\":9131:9137  amount */\n      dup1\n        /* \"@openzeppelin/contracts-upgradeable/token/ERC20/ERC20Upgradeable.sol\":9115:9127  _totalSupply */\n      0x35\n      0x00\n        /* \"@openzeppelin/contracts-upgradeable/token/ERC20/ERC20Upgradeable.sol\":9115:9137  _totalSupply += amount */\n      dup3\n      dup3\n      sload\n      tag_321\n      swap2\n      swap1\n      tag_169\n      jump\t// in\n    tag_321:\n      swap3\n      pop\n      pop\n      dup2\n      swap1\n      sstore\n      pop\n        /* \"@openzeppelin/contracts-upgradeable/token/ERC20/ERC20Upgradeable.sol\":9305:9311  amount */\n      dup1\n        /* \"@openzeppelin/contracts-upgradeable/token/ERC20/ERC20Upgradeable.sol\":9283:9292  _balances */\n      0x33\n        /* \"@openzeppelin/contracts-upgradeable/token/ERC20/ERC20Upgradeable.sol\":9283:9301  _balances[account] */\n      0x00\n        /* \"@openzeppelin/contracts-upgradeable/token/ERC20/ERC20Upgradeable.sol\":9293:9300  account */\n      dup5\n        /* \"@openzeppelin/contracts-upgradeable/token/ERC20/ERC20Upgradeable.sol\":9283:9301  _balances[account] */\n      0xffffffffffffffffffffffffffffffffffffffff\n      and\n      0xffffffffffffffffffffffffffffffffffffffff\n      and\n      dup2\n      mstore\n      0x20\n      add\n      swap1\n      dup2\n      mstore\n      0x20\n      add\n      0x00\n      keccak256\n      0x00\n        /* \"@openzeppelin/contracts-upgradeable/token/ERC20/ERC20Upgradeable.sol\":9283:9311  _balances[account] += amount */\n      dup3\n      dup3\n      sload\n      add\n      swap3\n      pop\n      pop\n      dup2\n      swap1\n      sstore\n      pop\n        /* \"@openzeppelin/contracts-upgradeable/token/ERC20/ERC20Upgradeable.sol\":9357:9364  account */\n      dup2\n        /* \"@openzeppelin/contracts-upgradeable/token/ERC20/ERC20Upgradeable.sol\":9336:9373  Transfer(address(0), account, amount) */\n      0xffffffffffffffffffffffffffffffffffffffff\n      and\n        /* \"@openzeppelin/contracts-upgradeable/token/ERC20/ERC20Upgradeable.sol\":9353:9354  0 */\n      0x00\n        /* \"@openzeppelin/contracts-upgradeable/token/ERC20/ERC20Upgradeable.sol\":9336:9373  Transfer(address(0), account, amount) */\n      0xffffffffffffffffffffffffffffffffffffffff\n      and\n      0xddf252ad1be2c89b69c2b068fc378daa952ba7f163c4a11628f55a4df523b3ef\n        /* \"@openzeppelin/contracts-upgradeable/token/ERC20/ERC20Upgradeable.sol\":9366:9372  amount */\n      dup4\n        /* \"@openzeppelin/contracts-upgradeable/token/ERC20/ERC20Upgradeable.sol\":9336:9373  Transfer(address(0), account, amount) */\n      mload(0x40)\n      tag_322\n      swap2\n      swap1\n      tag_42\n      jump\t// in\n    tag_322:\n      mload(0x40)\n      dup1\n      swap2\n      sub\n      swap1\n      log3\n        /* \"@openzeppelin/contracts-upgradeable/token/ERC20/ERC20Upgradeable.sol\":9384:9432  _afterTokenTransfer(address(0), account, amount) */\n      tag_323\n        /* \"@openzeppelin/contracts-upgradeable/token/ERC20/ERC20Upgradeable.sol\":9412:9413  0 */\n      0x00\n        /* \"@openzeppelin/contracts-upgradeable/token/ERC20/ERC20Upgradeable.sol\":9416:9423  account */\n      dup4\n        /* \"@openzeppelin/contracts-upgradeable/token/ERC20/ERC20Upgradeable.sol\":9425:9431  amount */\n      dup4\n        /* \"@openzeppelin/contracts-upgradeable/token/ERC20/ERC20Upgradeable.sol\":9384:9403  _afterTokenTransfer */\n      tag_281\n        /* \"@openzeppelin/contracts-upgradeable/token/ERC20/ERC20Upgradeable.sol\":9384:9432  _afterTokenTransfer(address(0), account, amount) */\n      jump\t// in\n    tag_323:\n        /* \"@openzeppelin/contracts-upgradeable/token/ERC20/ERC20Upgradeable.sol\":8904:9439  function _mint(address account, uint256 amount) internal virtual {... */\n      pop\n      pop\n      jump\t// out\n        /* \"@openzeppelin/contracts-upgradeable/token/ERC20/ERC20Upgradeable.sol\":9759:10418  function _burn(address account, uint256 amount) internal virtual {... */\n    tag_179:\n        /* \"@openzeppelin/contracts-upgradeable/token/ERC20/ERC20Upgradeable.sol\":9861:9862  0 */\n      0x00\n        /* \"@openzeppelin/contracts-upgradeable/token/ERC20/ERC20Upgradeable.sol\":9842:9863  account != address(0) */\n      0xffffffffffffffffffffffffffffffffffffffff\n      and\n        /* \"@openzeppelin/contracts-upgradeable/token/ERC20/ERC20Upgradeable.sol\":9842:9849  account */\n      dup3\n        /* \"@openzeppelin/contracts-upgradeable/token/ERC20/ERC20Upgradeable.sol\":9842:9863  account != address(0) */\n      0xffffffffffffffffffffffffffffffffffffffff\n      and\n      sub\n        /* \"@openzeppelin/contracts-upgradeable/token/ERC20/ERC20Upgradeable.sol\":9834:9901  require(account != address(0), \"ERC20: burn from the zero address\") */\n      tag_325\n      jumpi\n      mload(0x40)\n      0x08c379a000000000000000000000000000000000000000000000000000000000\n      dup2\n      mstore\n      0x04\n      add\n      tag_326\n      swap1\n      tag_327\n      jump\t// in\n    tag_326:\n      mload(0x40)\n      dup1\n      swap2\n      sub\n      swap1\n      revert\n    tag_325:\n        /* \"@openzeppelin/contracts-upgradeable/token/ERC20/ERC20Upgradeable.sol\":9912:9961  _beforeTokenTransfer(account, address(0), amount) */\n      tag_328\n        /* \"@openzeppelin/contracts-upgradeable/token/ERC20/ERC20Upgradeable.sol\":9933:9940  account */\n      dup3\n        /* \"@openzeppelin/contracts-upgradeable/token/ERC20/ERC20Upgradeable.sol\":9950:9951  0 */\n      0x00\n        /* \"@openzeppelin/contracts-upgradeable/token/ERC20/ERC20Upgradeable.sol\":9954:9960  amount */\n      dup4\n        /* \"@openzeppelin/contracts-upgradeable/token/ERC20/ERC20Upgradeable.sol\":9912:9932  _beforeTokenTransfer */\n      tag_275\n        /* \"@openzeppelin/contracts-upgradeable/token/ERC20/ERC20Upgradeable.sol\":9912:9961  _beforeTokenTransfer(account, address(0), amount) */\n      jump\t// in\n    tag_328:\n        /* \"@openzeppelin/contracts-upgradeable/token/ERC20/ERC20Upgradeable.sol\":9972:9994  uint256 accountBalance */\n      0x00\n        /* \"@openzeppelin/contracts-upgradeable/token/ERC20/ERC20Upgradeable.sol\":9997:10006  _balances */\n      0x33\n        /* \"@openzeppelin/contracts-upgradeable/token/ERC20/ERC20Upgradeable.sol\":9997:10015  _balances[account] */\n      0x00\n        /* \"@openzeppelin/contracts-upgradeable/token/ERC20/ERC20Upgradeable.sol\":10007:10014  account */\n      dup5\n        /* \"@openzeppelin/contracts-upgradeable/token/ERC20/ERC20Upgradeable.sol\":9997:10015  _balances[account] */\n      0xffffffffffffffffffffffffffffffffffffffff\n      and\n      0xffffffffffffffffffffffffffffffffffffffff\n      and\n      dup2\n      mstore\n      0x20\n      add\n      swap1\n      dup2\n      mstore\n      0x20\n      add\n      0x00\n      keccak256\n      sload\n        /* \"@openzeppelin/contracts-upgradeable/token/ERC20/ERC20Upgradeable.sol\":9972:10015  uint256 accountBalance = _balances[account] */\n      swap1\n      pop\n        /* \"@openzeppelin/contracts-upgradeable/token/ERC20/ERC20Upgradeable.sol\":10051:10057  amount */\n      dup2\n        /* \"@openzeppelin/contracts-upgradeable/token/ERC20/ERC20Upgradeable.sol\":10033:10047  accountBalance */\n      dup2\n        /* \"@openzeppelin/contracts-upgradeable/token/ERC20/ERC20Upgradeable.sol\":10033:10057  accountBalance >= amount */\n      lt\n      iszero\n        /* \"@openzeppelin/contracts-upgradeable/token/ERC20/ERC20Upgradeable.sol\":10025:10096  require(accountBalance >= amount, \"ERC20: burn amount exceeds balance\") */\n      tag_329\n      jumpi\n      mload(0x40)\n      0x08c379a000000000000000000000000000000000000000000000000000000000\n      dup2\n      mstore\n      0x04\n      add\n      tag_330\n      swap1\n      tag_331\n      jump\t// in\n    tag_330:\n      mload(0x40)\n      dup1\n      swap2\n      sub\n      swap1\n      revert\n    tag_329:\n        /* \"@openzeppelin/contracts-upgradeable/token/ERC20/ERC20Upgradeable.sol\":10168:10174  amount */\n      dup2\n        /* \"@openzeppelin/contracts-upgradeable/token/ERC20/ERC20Upgradeable.sol\":10151:10165  accountBalance */\n      dup2\n        /* \"@openzeppelin/contracts-upgradeable/token/ERC20/ERC20Upgradeable.sol\":10151:10174  accountBalance - amount */\n      sub\n        /* \"@openzeppelin/contracts-upgradeable/token/ERC20/ERC20Upgradeable.sol\":10130:10139  _balances */\n      0x33\n        /* \"@openzeppelin/contracts-upgradeable/token/ERC20/ERC20Upgradeable.sol\":10130:10148  _balances[account] */\n      0x00\n        /* \"@openzeppelin/contracts-upgradeable/token/ERC20/ERC20Upgradeable.sol\":10140:10147  account */\n      dup6\n        /* \"@openzeppelin/contracts-upgradeable/token/ERC20/ERC20Upgradeable.sol\":10130:10148  _balances[account] */\n      0xffffffffffffffffffffffffffffffffffffffff\n      and\n      0xffffffffffffffffffffffffffffffffffffffff\n      and\n      dup2\n      mstore\n      0x20\n      add\n      swap1\n      dup2\n      mstore\n      0x20\n      add\n      0x00\n      keccak256\n        /* \"@openzeppelin/contracts-upgradeable/token/ERC20/ERC20Upgradeable.sol\":10130:10174  _balances[account] = accountBalance - amount */\n      dup2\n      swap1\n      sstore\n      pop\n        /* \"@openzeppelin/contracts-upgradeable/token/ERC20/ERC20Upgradeable.sol\":10283:10289  amount */\n      dup2\n        /* \"@openzeppelin/contracts-upgradeable/token/ERC20/ERC20Upgradeable.sol\":10267:10279  _totalSupply */\n      0x35\n      0x00\n        /* \"@openzeppelin/contracts-upgradeable/token/ERC20/ERC20Upgradeable.sol\":10267:10289  _totalSupply -= amount */\n      dup3\n      dup3\n      sload\n      sub\n      swap3\n      pop\n      pop\n      dup2\n      swap1\n      sstore\n      pop\n        /* \"@openzeppelin/contracts-upgradeable/token/ERC20/ERC20Upgradeable.sol\":10341:10342  0 */\n      0x00\n        /* \"@openzeppelin/contracts-upgradeable/token/ERC20/ERC20Upgradeable.sol\":10315:10352  Transfer(account, address(0), amount) */\n      0xffffffffffffffffffffffffffffffffffffffff\n      and\n        /* \"@openzeppelin/contracts-upgradeable/token/ERC20/ERC20Upgradeable.sol\":10324:10331  account */\n      dup4\n        /* \"@openzeppelin/contracts-upgradeable/token/ERC20/ERC20Upgradeable.sol\":10315:10352  Transfer(account, address(0), amount) */\n      0xffffffffffffffffffffffffffffffffffffffff\n      and\n      0xddf252ad1be2c89b69c2b068fc378daa952ba7f163c4a11628f55a4df523b3ef\n        /* \"@openzeppelin/contracts-upgradeable/token/ERC20/ERC20Upgradeable.sol\":10345:10351  amount */\n      dup5\n        /* \"@openzeppelin/contracts-upgradeable/token/ERC20/ERC20Upgradeable.sol\":10315:10352  Transfer(account, address(0), amount) */\n      mload(0x40)\n      tag_332\n      swap2\n      swap1\n      tag_42\n      jump\t// in\n    tag_332:\n      mload(0x40)\n      dup1\n      swap2\n      sub\n      swap1\n      log3\n        /* \"@openzeppelin/contracts-upgradeable/token/ERC20/ERC20Upgradeable.sol\":10363:10411  _afterTokenTransfer(account, address(0), amount) */\n      tag_333\n        /* \"@openzeppelin/contracts-upgradeable/token/ERC20/ERC20Upgradeable.sol\":10383:10390  account */\n      dup4\n        /* \"@openzeppelin/contracts-upgradeable/token/ERC20/ERC20Upgradeable.sol\":10400:10401  0 */\n      0x00\n        /* \"@openzeppelin/contracts-upgradeable/token/ERC20/ERC20Upgradeable.sol\":10404:10410  amount */\n      dup5\n        /* \"@openzeppelin/contracts-upgradeable/token/ERC20/ERC20Upgradeable.sol\":10363:10382  _afterTokenTransfer */\n      tag_281\n        /* \"@openzeppelin/contracts-upgradeable/token/ERC20/ERC20Upgradeable.sol\":10363:10411  _afterTokenTransfer(account, address(0), amount) */\n      jump\t// in\n    tag_333:\n        /* \"@openzeppelin/contracts-upgradeable/token/ERC20/ERC20Upgradeable.sol\":9824:10418  {... */\n      pop\n        /* \"@openzeppelin/contracts-upgradeable/token/ERC20/ERC20Upgradeable.sol\":9759:10418  function _burn(address account, uint256 amount) internal virtual {... */\n      pop\n      pop\n      jump\t// out\n        /* \"@openzeppelin/contracts-upgradeable/access/OwnableUpgradeable.sol\":2673:2860  function _transferOwnership(address newOwner) internal virtual {... */\n    tag_199:\n        /* \"@openzeppelin/contracts-upgradeable/access/OwnableUpgradeable.sol\":2746:2762  address oldOwner */\n      0x00\n        /* \"@openzeppelin/contracts-upgradeable/access/OwnableUpgradeable.sol\":2765:2771  _owner */\n      0x97\n      0x00\n      swap1\n      sload\n      swap1\n      0x0100\n      exp\n      swap1\n      div\n      0xffffffffffffffffffffffffffffffffffffffff\n      and\n        /* \"@openzeppelin/contracts-upgradeable/access/OwnableUpgradeable.sol\":2746:2771  address oldOwner = _owner */\n      swap1\n      pop\n        /* \"@openzeppelin/contracts-upgradeable/access/OwnableUpgradeable.sol\":2790:2798  newOwner */\n      dup2\n        /* \"@openzeppelin/contracts-upgradeable/access/OwnableUpgradeable.sol\":2781:2787  _owner */\n      0x97\n      0x00\n        /* \"@openzeppelin/contracts-upgradeable/access/OwnableUpgradeable.sol\":2781:2798  _owner = newOwner */\n      0x0100\n      exp\n      dup2\n      sload\n      dup2\n      0xffffffffffffffffffffffffffffffffffffffff\n      mul\n      not\n      and\n      swap1\n      dup4\n      0xffffffffffffffffffffffffffffffffffffffff\n      and\n      mul\n      or\n      swap1\n      sstore\n      pop\n        /* \"@openzeppelin/contracts-upgradeable/access/OwnableUpgradeable.sol\":2844:2852  newOwner */\n      dup2\n        /* \"@openzeppelin/contracts-upgradeable/access/OwnableUpgradeable.sol\":2813:2853  OwnershipTransferred(oldOwner, newOwner) */\n      0xffffffffffffffffffffffffffffffffffffffff\n      and\n        /* \"@openzeppelin/contracts-upgradeable/access/OwnableUpgradeable.sol\":2834:2842  oldOwner */\n      dup2\n        /* \"@openzeppelin/contracts-upgradeable/access/OwnableUpgradeable.sol\":2813:2853  OwnershipTransferred(oldOwner, newOwner) */\n      0xffffffffffffffffffffffffffffffffffffffff\n      and\n      0x8be0079c531659141344cd1fd0a4f28419497f9722a3daafe3b4186f6b6457e0\n      mload(0x40)\n      mload(0x40)\n      dup1\n      swap2\n      sub\n      swap1\n      log3\n        /* \"@openzeppelin/contracts-upgradeable/access/OwnableUpgradeable.sol\":2736:2860  {... */\n      pop\n        /* \"@openzeppelin/contracts-upgradeable/access/OwnableUpgradeable.sol\":2673:2860  function _transferOwnership(address newOwner) internal virtual {... */\n      pop\n      jump\t// out\n        /* \"@openzeppelin/contracts-upgradeable/utils/AddressUpgradeable.sol\":1186:1506  function isContract(address account) internal view returns (bool) {... */\n    tag_208:\n        /* \"@openzeppelin/contracts-upgradeable/utils/AddressUpgradeable.sol\":1246:1250  bool */\n      0x00\n        /* \"@openzeppelin/contracts-upgradeable/utils/AddressUpgradeable.sol\":1498:1499  0 */\n      dup1\n        /* \"@openzeppelin/contracts-upgradeable/utils/AddressUpgradeable.sol\":1476:1483  account */\n      dup3\n        /* \"@openzeppelin/contracts-upgradeable/utils/AddressUpgradeable.sol\":1476:1495  account.code.length */\n      0xffffffffffffffffffffffffffffffffffffffff\n      and\n      extcodesize\n        /* \"@openzeppelin/contracts-upgradeable/utils/AddressUpgradeable.sol\":1476:1499  account.code.length > 0 */\n      gt\n        /* \"@openzeppelin/contracts-upgradeable/utils/AddressUpgradeable.sol\":1469:1499  return account.code.length > 0 */\n      swap1\n      pop\n        /* \"@openzeppelin/contracts-upgradeable/utils/AddressUpgradeable.sol\":1186:1506  function isContract(address account) internal view returns (bool) {... */\n      swap2\n      swap1\n      pop\n      jump\t// out\n        /* \"@openzeppelin/contracts-upgradeable/token/ERC20/ERC20Upgradeable.sol\":2114:2261  function __ERC20_init(string memory name_, string memory symbol_) internal onlyInitializing {... */\n    tag_216:\n        /* \"@openzeppelin/contracts-upgradeable/proxy/utils/Initializable.sol\":5363:5376  _initializing */\n      0x00\n      0x01\n      swap1\n      sload\n      swap1\n      0x0100\n      exp\n      swap1\n      div\n      0xff\n      and\n        /* \"@openzeppelin/contracts-upgradeable/proxy/utils/Initializable.sol\":5355:5424  require(_initializing, \"Initializable: contract is not initializing\") */\n      tag_337\n      jumpi\n      mload(0x40)\n      0x08c379a000000000000000000000000000000000000000000000000000000000\n      dup2\n      mstore\n      0x04\n      add\n      tag_338\n      swap1\n      tag_339\n      jump\t// in\n    tag_338:\n      mload(0x40)\n      dup1\n      swap2\n      sub\n      swap1\n      revert\n    tag_337:\n        /* \"@openzeppelin/contracts-upgradeable/token/ERC20/ERC20Upgradeable.sol\":2216:2254  __ERC20_init_unchained(name_, symbol_) */\n      tag_341\n        /* \"@openzeppelin/contracts-upgradeable/token/ERC20/ERC20Upgradeable.sol\":2239:2244  name_ */\n      dup3\n        /* \"@openzeppelin/contracts-upgradeable/token/ERC20/ERC20Upgradeable.sol\":2246:2253  symbol_ */\n      dup3\n        /* \"@openzeppelin/contracts-upgradeable/token/ERC20/ERC20Upgradeable.sol\":2216:2238  __ERC20_init_unchained */\n      tag_342\n        /* \"@openzeppelin/contracts-upgradeable/token/ERC20/ERC20Upgradeable.sol\":2216:2254  __ERC20_init_unchained(name_, symbol_) */\n      jump\t// in\n    tag_341:\n        /* \"@openzeppelin/contracts-upgradeable/token/ERC20/ERC20Upgradeable.sol\":2114:2261  function __ERC20_init(string memory name_, string memory symbol_) internal onlyInitializing {... */\n      pop\n      pop\n      jump\t// out\n        /* \"@openzeppelin/contracts-upgradeable/token/ERC20/extensions/ERC20BurnableUpgradeable.sol\":594:659  function __ERC20Burnable_init() internal onlyInitializing {... */\n    tag_218:\n        /* \"@openzeppelin/contracts-upgradeable/proxy/utils/Initializable.sol\":5363:5376  _initializing */\n      0x00\n      0x01\n      swap1\n      sload\n      swap1\n      0x0100\n      exp\n      swap1\n      div\n      0xff\n      and\n        /* \"@openzeppelin/contracts-upgradeable/proxy/utils/Initializable.sol\":5355:5424  require(_initializing, \"Initializable: contract is not initializing\") */\n      tag_344\n      jumpi\n      mload(0x40)\n      0x08c379a000000000000000000000000000000000000000000000000000000000\n      dup2\n      mstore\n      0x04\n      add\n      tag_345\n      swap1\n      tag_339\n      jump\t// in\n    tag_345:\n      mload(0x40)\n      dup1\n      swap2\n      sub\n      swap1\n      revert\n    tag_344:\n        /* \"@openzeppelin/contracts-upgradeable/token/ERC20/extensions/ERC20BurnableUpgradeable.sol\":594:659  function __ERC20Burnable_init() internal onlyInitializing {... */\n      jump\t// out\n        /* \"@openzeppelin/contracts-upgradeable/access/OwnableUpgradeable.sol\":1003:1098  function __Ownable_init() internal onlyInitializing {... */\n    tag_220:\n        /* \"@openzeppelin/contracts-upgradeable/proxy/utils/Initializable.sol\":5363:5376  _initializing */\n      0x00\n      0x01\n      swap1\n      sload\n      swap1\n      0x0100\n      exp\n      swap1\n      div\n      0xff\n      and\n        /* \"@openzeppelin/contracts-upgradeable/proxy/utils/Initializable.sol\":5355:5424  require(_initializing, \"Initializable: contract is not initializing\") */\n      tag_348\n      jumpi\n      mload(0x40)\n      0x08c379a000000000000000000000000000000000000000000000000000000000\n      dup2\n      mstore\n      0x04\n      add\n      tag_349\n      swap1\n      tag_339\n      jump\t// in\n    tag_349:\n      mload(0x40)\n      dup1\n      swap2\n      sub\n      swap1\n      revert\n    tag_348:\n        /* \"@openzeppelin/contracts-upgradeable/access/OwnableUpgradeable.sol\":1065:1091  __Ownable_init_unchained() */\n      tag_351\n        /* \"@openzeppelin/contracts-upgradeable/access/OwnableUpgradeable.sol\":1065:1089  __Ownable_init_unchained */\n      tag_352\n        /* \"@openzeppelin/contracts-upgradeable/access/OwnableUpgradeable.sol\":1065:1091  __Ownable_init_unchained() */\n      jump\t// in\n    tag_351:\n        /* \"@openzeppelin/contracts-upgradeable/access/OwnableUpgradeable.sol\":1003:1098  function __Ownable_init() internal onlyInitializing {... */\n      jump\t// out\n        /* \"@openzeppelin/contracts-upgradeable/proxy/utils/UUPSUpgradeable.sol\":1042:1109  function __UUPSUpgradeable_init() internal onlyInitializing {... */\n    tag_222:\n        /* \"@openzeppelin/contracts-upgradeable/proxy/utils/Initializable.sol\":5363:5376  _initializing */\n      0x00\n      0x01\n      swap1\n      sload\n      swap1\n      0x0100\n      exp\n      swap1\n      div\n      0xff\n      and\n        /* \"@openzeppelin/contracts-upgradeable/proxy/utils/Initializable.sol\":5355:5424  require(_initializing, \"Initializable: contract is not initializing\") */\n      tag_354\n      jumpi\n      mload(0x40)\n      0x08c379a000000000000000000000000000000000000000000000000000000000\n      dup2\n      mstore\n      0x04\n      add\n      tag_355\n      swap1\n      tag_339\n      jump\t// in\n    tag_355:\n      mload(0x40)\n      dup1\n      swap2\n      sub\n      swap1\n      revert\n    tag_354:\n        /* \"@openzeppelin/contracts-upgradeable/proxy/utils/UUPSUpgradeable.sol\":1042:1109  function __UUPSUpgradeable_init() internal onlyInitializing {... */\n      jump\t// out\n        /* \"@openzeppelin/contracts-upgradeable/token/ERC20/ERC20Upgradeable.sol\":12517:12638  function _beforeTokenTransfer(... */\n    tag_275:\n      pop\n      pop\n      pop\n      jump\t// out\n        /* \"@openzeppelin/contracts-upgradeable/token/ERC20/ERC20Upgradeable.sol\":13226:13346  function _afterTokenTransfer(... */\n    tag_281:\n      pop\n      pop\n      pop\n      jump\t// out\n        /* \"@openzeppelin/contracts-upgradeable/utils/StorageSlotUpgradeable.sol\":1625:1815  function getAddressSlot(bytes32 slot) internal pure returns (AddressSlot storage r) {... */\n    tag_284:\n        /* \"@openzeppelin/contracts-upgradeable/utils/StorageSlotUpgradeable.sol\":1686:1707  AddressSlot storage r */\n      0x00\n        /* \"@openzeppelin/contracts-upgradeable/utils/StorageSlotUpgradeable.sol\":1795:1799  slot */\n      dup2\n        /* \"@openzeppelin/contracts-upgradeable/utils/StorageSlotUpgradeable.sol\":1785:1799  r.slot := slot */\n      swap1\n      pop\n        /* \"@openzeppelin/contracts-upgradeable/utils/StorageSlotUpgradeable.sol\":1625:1815  function getAddressSlot(bytes32 slot) internal pure returns (AddressSlot storage r) {... */\n      swap2\n      swap1\n      pop\n      jump\t// out\n        /* \"@openzeppelin/contracts-upgradeable/utils/StorageSlotUpgradeable.sol\":1913:2103  function getBooleanSlot(bytes32 slot) internal pure returns (BooleanSlot storage r) {... */\n    tag_290:\n        /* \"@openzeppelin/contracts-upgradeable/utils/StorageSlotUpgradeable.sol\":1974:1995  BooleanSlot storage r */\n      0x00\n        /* \"@openzeppelin/contracts-upgradeable/utils/StorageSlotUpgradeable.sol\":2083:2087  slot */\n      dup2\n        /* \"@openzeppelin/contracts-upgradeable/utils/StorageSlotUpgradeable.sol\":2073:2087  r.slot := slot */\n      swap1\n      pop\n        /* \"@openzeppelin/contracts-upgradeable/utils/StorageSlotUpgradeable.sol\":1913:2103  function getBooleanSlot(bytes32 slot) internal pure returns (BooleanSlot storage r) {... */\n      swap2\n      swap1\n      pop\n      jump\t// out\n        /* \"@openzeppelin/contracts-upgradeable/proxy/ERC1967/ERC1967UpgradeUpgradeable.sol\":1751:2032  function _setImplementation(address newImplementation) private {... */\n    tag_293:\n        /* \"@openzeppelin/contracts-upgradeable/proxy/ERC1967/ERC1967UpgradeUpgradeable.sol\":1832:1880  AddressUpgradeable.isContract(newImplementation) */\n      tag_362\n        /* \"@openzeppelin/contracts-upgradeable/proxy/ERC1967/ERC1967UpgradeUpgradeable.sol\":1862:1879  newImplementation */\n      dup2\n        /* \"@openzeppelin/contracts-upgradeable/proxy/ERC1967/ERC1967UpgradeUpgradeable.sol\":1832:1861  AddressUpgradeable.isContract */\n      tag_208\n        /* \"@openzeppelin/contracts-upgradeable/proxy/ERC1967/ERC1967UpgradeUpgradeable.sol\":1832:1880  AddressUpgradeable.isContract(newImplementation) */\n      jump\t// in\n    tag_362:\n        /* \"@openzeppelin/contracts-upgradeable/proxy/ERC1967/ERC1967UpgradeUpgradeable.sol\":1824:1930  require(AddressUpgradeable.isContract(newImplementation), \"ERC1967: new implementation is not a contract\") */\n      tag_363\n      jumpi\n      mload(0x40)\n      0x08c379a000000000000000000000000000000000000000000000000000000000\n      dup2\n      mstore\n      0x04\n      add\n      tag_364\n      swap1\n      tag_365\n      jump\t// in\n    tag_364:\n      mload(0x40)\n      dup1\n      swap2\n      sub\n      swap1\n      revert\n    tag_363:\n        /* \"@openzeppelin/contracts-upgradeable/proxy/ERC1967/ERC1967UpgradeUpgradeable.sol\":2008:2025  newImplementation */\n      dup1\n        /* \"@openzeppelin/contracts-upgradeable/proxy/ERC1967/ERC1967UpgradeUpgradeable.sol\":1940:1999  StorageSlotUpgradeable.getAddressSlot(_IMPLEMENTATION_SLOT) */\n      tag_366\n        /* \"@openzeppelin/contracts-upgradeable/proxy/ERC1967/ERC1967UpgradeUpgradeable.sol\":1364:1430  0x360894a13ba1a3210667c828492db98dca3e2076cc3735a920a3ca505d382bbc */\n      0x360894a13ba1a3210667c828492db98dca3e2076cc3735a920a3ca505d382bbc\n        /* \"@openzeppelin/contracts-upgradeable/proxy/ERC1967/ERC1967UpgradeUpgradeable.sol\":1978:1998  _IMPLEMENTATION_SLOT */\n      0x00\n      shl\n        /* \"@openzeppelin/contracts-upgradeable/proxy/ERC1967/ERC1967UpgradeUpgradeable.sol\":1940:1977  StorageSlotUpgradeable.getAddressSlot */\n      tag_284\n        /* \"@openzeppelin/contracts-upgradeable/proxy/ERC1967/ERC1967UpgradeUpgradeable.sol\":1940:1999  StorageSlotUpgradeable.getAddressSlot(_IMPLEMENTATION_SLOT) */\n      jump\t// in\n    tag_366:\n        /* \"@openzeppelin/contracts-upgradeable/proxy/ERC1967/ERC1967UpgradeUpgradeable.sol\":1940:2005  StorageSlotUpgradeable.getAddressSlot(_IMPLEMENTATION_SLOT).value */\n      0x00\n      add\n      0x00\n        /* \"@openzeppelin/contracts-upgradeable/proxy/ERC1967/ERC1967UpgradeUpgradeable.sol\":1940:2025  StorageSlotUpgradeable.getAddressSlot(_IMPLEMENTATION_SLOT).value = newImplementation */\n      0x0100\n      exp\n      dup2\n      sload\n      dup2\n      0xffffffffffffffffffffffffffffffffffffffff\n      mul\n      not\n      and\n      swap1\n      dup4\n      0xffffffffffffffffffffffffffffffffffffffff\n      and\n      mul\n      or\n      swap1\n      sstore\n      pop\n        /* \"@openzeppelin/contracts-upgradeable/proxy/ERC1967/ERC1967UpgradeUpgradeable.sol\":1751:2032  function _setImplementation(address newImplementation) private {... */\n      pop\n      jump\t// out\n        /* \"@openzeppelin/contracts-upgradeable/proxy/ERC1967/ERC1967UpgradeUpgradeable.sol\":2424:2712  function _upgradeToAndCall(... */\n    tag_309:\n        /* \"@openzeppelin/contracts-upgradeable/proxy/ERC1967/ERC1967UpgradeUpgradeable.sol\":2562:2591  _upgradeTo(newImplementation) */\n      tag_368\n        /* \"@openzeppelin/contracts-upgradeable/proxy/ERC1967/ERC1967UpgradeUpgradeable.sol\":2573:2590  newImplementation */\n      dup4\n        /* \"@openzeppelin/contracts-upgradeable/proxy/ERC1967/ERC1967UpgradeUpgradeable.sol\":2562:2572  _upgradeTo */\n      tag_369\n        /* \"@openzeppelin/contracts-upgradeable/proxy/ERC1967/ERC1967UpgradeUpgradeable.sol\":2562:2591  _upgradeTo(newImplementation) */\n      jump\t// in\n    tag_368:\n        /* \"@openzeppelin/contracts-upgradeable/proxy/ERC1967/ERC1967UpgradeUpgradeable.sol\":2619:2620  0 */\n      0x00\n        /* \"@openzeppelin/contracts-upgradeable/proxy/ERC1967/ERC1967UpgradeUpgradeable.sol\":2605:2609  data */\n      dup3\n        /* \"@openzeppelin/contracts-upgradeable/proxy/ERC1967/ERC1967UpgradeUpgradeable.sol\":2605:2616  data.length */\n      mload\n        /* \"@openzeppelin/contracts-upgradeable/proxy/ERC1967/ERC1967UpgradeUpgradeable.sol\":2605:2620  data.length > 0 */\n      gt\n        /* \"@openzeppelin/contracts-upgradeable/proxy/ERC1967/ERC1967UpgradeUpgradeable.sol\":2605:2633  data.length > 0 || forceCall */\n      dup1\n      tag_370\n      jumpi\n      pop\n        /* \"@openzeppelin/contracts-upgradeable/proxy/ERC1967/ERC1967UpgradeUpgradeable.sol\":2624:2633  forceCall */\n      dup1\n        /* \"@openzeppelin/contracts-upgradeable/proxy/ERC1967/ERC1967UpgradeUpgradeable.sol\":2605:2633  data.length > 0 || forceCall */\n    tag_370:\n        /* \"@openzeppelin/contracts-upgradeable/proxy/ERC1967/ERC1967UpgradeUpgradeable.sol\":2601:2706  if (data.length > 0 || forceCall) {... */\n      iszero\n      tag_371\n      jumpi\n        /* \"@openzeppelin/contracts-upgradeable/proxy/ERC1967/ERC1967UpgradeUpgradeable.sol\":2649:2695  _functionDelegateCall(newImplementation, data) */\n      tag_372\n        /* \"@openzeppelin/contracts-upgradeable/proxy/ERC1967/ERC1967UpgradeUpgradeable.sol\":2671:2688  newImplementation */\n      dup4\n        /* \"@openzeppelin/contracts-upgradeable/proxy/ERC1967/ERC1967UpgradeUpgradeable.sol\":2690:2694  data */\n      dup4\n        /* \"@openzeppelin/contracts-upgradeable/proxy/ERC1967/ERC1967UpgradeUpgradeable.sol\":2649:2670  _functionDelegateCall */\n      tag_373\n        /* \"@openzeppelin/contracts-upgradeable/proxy/ERC1967/ERC1967UpgradeUpgradeable.sol\":2649:2695  _functionDelegateCall(newImplementation, data) */\n      jump\t// in\n    tag_372:\n      pop\n        /* \"@openzeppelin/contracts-upgradeable/proxy/ERC1967/ERC1967UpgradeUpgradeable.sol\":2601:2706  if (data.length > 0 || forceCall) {... */\n    tag_371:\n        /* \"@openzeppelin/contracts-upgradeable/proxy/ERC1967/ERC1967UpgradeUpgradeable.sol\":2424:2712  function _upgradeToAndCall(... */\n      pop\n      pop\n      pop\n      jump\t// out\n        /* \"@openzeppelin/contracts-upgradeable/token/ERC20/ERC20Upgradeable.sol\":2267:2426  function __ERC20_init_unchained(string memory name_, string memory symbol_) internal onlyInitializing {... */\n    tag_342:\n        /* \"@openzeppelin/contracts-upgradeable/proxy/utils/Initializable.sol\":5363:5376  _initializing */\n      0x00\n      0x01\n      swap1\n      sload\n      swap1\n      0x0100\n      exp\n      swap1\n      div\n      0xff\n      and\n        /* \"@openzeppelin/contracts-upgradeable/proxy/utils/Initializable.sol\":5355:5424  require(_initializing, \"Initializable: contract is not initializing\") */\n      tag_375\n      jumpi\n      mload(0x40)\n      0x08c379a000000000000000000000000000000000000000000000000000000000\n      dup2\n      mstore\n      0x04\n      add\n      tag_376\n      swap1\n      tag_339\n      jump\t// in\n    tag_376:\n      mload(0x40)\n      dup1\n      swap2\n      sub\n      swap1\n      revert\n    tag_375:\n        /* \"@openzeppelin/contracts-upgradeable/token/ERC20/ERC20Upgradeable.sol\":2387:2392  name_ */\n      dup2\n        /* \"@openzeppelin/contracts-upgradeable/token/ERC20/ERC20Upgradeable.sol\":2379:2384  _name */\n      0x36\n        /* \"@openzeppelin/contracts-upgradeable/token/ERC20/ERC20Upgradeable.sol\":2379:2392  _name = name_ */\n      swap1\n      dup2\n      tag_378\n      swap2\n      swap1\n      tag_379\n      jump\t// in\n    tag_378:\n      pop\n        /* \"@openzeppelin/contracts-upgradeable/token/ERC20/ERC20Upgradeable.sol\":2412:2419  symbol_ */\n      dup1\n        /* \"@openzeppelin/contracts-upgradeable/token/ERC20/ERC20Upgradeable.sol\":2402:2409  _symbol */\n      0x37\n        /* \"@openzeppelin/contracts-upgradeable/token/ERC20/ERC20Upgradeable.sol\":2402:2419  _symbol = symbol_ */\n      swap1\n      dup2\n      tag_380\n      swap2\n      swap1\n      tag_379\n      jump\t// in\n    tag_380:\n      pop\n        /* \"@openzeppelin/contracts-upgradeable/token/ERC20/ERC20Upgradeable.sol\":2267:2426  function __ERC20_init_unchained(string memory name_, string memory symbol_) internal onlyInitializing {... */\n      pop\n      pop\n      jump\t// out\n        /* \"@openzeppelin/contracts-upgradeable/access/OwnableUpgradeable.sol\":1104:1215  function __Ownable_init_unchained() internal onlyInitializing {... */\n    tag_352:\n        /* \"@openzeppelin/contracts-upgradeable/proxy/utils/Initializable.sol\":5363:5376  _initializing */\n      0x00\n      0x01\n      swap1\n      sload\n      swap1\n      0x0100\n      exp\n      swap1\n      div\n      0xff\n      and\n        /* \"@openzeppelin/contracts-upgradeable/proxy/utils/Initializable.sol\":5355:5424  require(_initializing, \"Initializable: contract is not initializing\") */\n      tag_382\n      jumpi\n      mload(0x40)\n      0x08c379a000000000000000000000000000000000000000000000000000000000\n      dup2\n      mstore\n      0x04\n      add\n      tag_383\n      swap1\n      tag_339\n      jump\t// in\n    tag_383:\n      mload(0x40)\n      dup1\n      swap2\n      sub\n      swap1\n      revert\n    tag_382:\n        /* \"@openzeppelin/contracts-upgradeable/access/OwnableUpgradeable.sol\":1176:1208  _transferOwnership(_msgSender()) */\n      tag_385\n        /* \"@openzeppelin/contracts-upgradeable/access/OwnableUpgradeable.sol\":1195:1207  _msgSender() */\n      tag_386\n        /* \"@openzeppelin/contracts-upgradeable/access/OwnableUpgradeable.sol\":1195:1205  _msgSender */\n      tag_135\n        /* \"@openzeppelin/contracts-upgradeable/access/OwnableUpgradeable.sol\":1195:1207  _msgSender() */\n      jump\t// in\n    tag_386:\n        /* \"@openzeppelin/contracts-upgradeable/access/OwnableUpgradeable.sol\":1176:1194  _transferOwnership */\n      tag_199\n        /* \"@openzeppelin/contracts-upgradeable/access/OwnableUpgradeable.sol\":1176:1208  _transferOwnership(_msgSender()) */\n      jump\t// in\n    tag_385:\n        /* \"@openzeppelin/contracts-upgradeable/access/OwnableUpgradeable.sol\":1104:1215  function __Ownable_init_unchained() internal onlyInitializing {... */\n      jump\t// out\n        /* \"@openzeppelin/contracts-upgradeable/proxy/ERC1967/ERC1967UpgradeUpgradeable.sol\":2138:2290  function _upgradeTo(address newImplementation) internal {... */\n    tag_369:\n        /* \"@openzeppelin/contracts-upgradeable/proxy/ERC1967/ERC1967UpgradeUpgradeable.sol\":2204:2241  _setImplementation(newImplementation) */\n      tag_388\n        /* \"@openzeppelin/contracts-upgradeable/proxy/ERC1967/ERC1967UpgradeUpgradeable.sol\":2223:2240  newImplementation */\n      dup2\n        /* \"@openzeppelin/contracts-upgradeable/proxy/ERC1967/ERC1967UpgradeUpgradeable.sol\":2204:2222  _setImplementation */\n      tag_293\n        /* \"@openzeppelin/contracts-upgradeable/proxy/ERC1967/ERC1967UpgradeUpgradeable.sol\":2204:2241  _setImplementation(newImplementation) */\n      jump\t// in\n    tag_388:\n        /* \"@openzeppelin/contracts-upgradeable/proxy/ERC1967/ERC1967UpgradeUpgradeable.sol\":2265:2282  newImplementation */\n      dup1\n        /* \"@openzeppelin/contracts-upgradeable/proxy/ERC1967/ERC1967UpgradeUpgradeable.sol\":2256:2283  Upgraded(newImplementation) */\n      0xffffffffffffffffffffffffffffffffffffffff\n      and\n      0xbc7cd75a20ee27fd9adebab32041f755214dbc6bffa90cc0225b39da2e5c2d3b\n      mload(0x40)\n      mload(0x40)\n      dup1\n      swap2\n      sub\n      swap1\n      log2\n        /* \"@openzeppelin/contracts-upgradeable/proxy/ERC1967/ERC1967UpgradeUpgradeable.sol\":2138:2290  function _upgradeTo(address newImplementation) internal {... */\n      pop\n      jump\t// out\n        /* \"@openzeppelin/contracts-upgradeable/proxy/ERC1967/ERC1967UpgradeUpgradeable.sol\":6780:7235  function _functionDelegateCall(address target, bytes memory data) private returns (bytes memory) {... */\n    tag_373:\n        /* \"@openzeppelin/contracts-upgradeable/proxy/ERC1967/ERC1967UpgradeUpgradeable.sol\":6863:6875  bytes memory */\n      0x60\n        /* \"@openzeppelin/contracts-upgradeable/proxy/ERC1967/ERC1967UpgradeUpgradeable.sol\":6895:6932  AddressUpgradeable.isContract(target) */\n      tag_390\n        /* \"@openzeppelin/contracts-upgradeable/proxy/ERC1967/ERC1967UpgradeUpgradeable.sol\":6925:6931  target */\n      dup4\n        /* \"@openzeppelin/contracts-upgradeable/proxy/ERC1967/ERC1967UpgradeUpgradeable.sol\":6895:6924  AddressUpgradeable.isContract */\n      tag_208\n        /* \"@openzeppelin/contracts-upgradeable/proxy/ERC1967/ERC1967UpgradeUpgradeable.sol\":6895:6932  AddressUpgradeable.isContract(target) */\n      jump\t// in\n    tag_390:\n        /* \"@openzeppelin/contracts-upgradeable/proxy/ERC1967/ERC1967UpgradeUpgradeable.sol\":6887:6975  require(AddressUpgradeable.isContract(target), \"Address: delegate call to non-contract\") */\n      tag_391\n      jumpi\n      mload(0x40)\n      0x08c379a000000000000000000000000000000000000000000000000000000000\n      dup2\n      mstore\n      0x04\n      add\n      tag_392\n      swap1\n      tag_393\n      jump\t// in\n    tag_392:\n      mload(0x40)\n      dup1\n      swap2\n      sub\n      swap1\n      revert\n    tag_391:\n        /* \"@openzeppelin/contracts-upgradeable/proxy/ERC1967/ERC1967UpgradeUpgradeable.sol\":7046:7058  bool success */\n      0x00\n        /* \"@openzeppelin/contracts-upgradeable/proxy/ERC1967/ERC1967UpgradeUpgradeable.sol\":7060:7083  bytes memory returndata */\n      dup1\n        /* \"@openzeppelin/contracts-upgradeable/proxy/ERC1967/ERC1967UpgradeUpgradeable.sol\":7087:7093  target */\n      dup5\n        /* \"@openzeppelin/contracts-upgradeable/proxy/ERC1967/ERC1967UpgradeUpgradeable.sol\":7087:7106  target.delegatecall */\n      0xffffffffffffffffffffffffffffffffffffffff\n      and\n        /* \"@openzeppelin/contracts-upgradeable/proxy/ERC1967/ERC1967UpgradeUpgradeable.sol\":7107:7111  data */\n      dup5\n        /* \"@openzeppelin/contracts-upgradeable/proxy/ERC1967/ERC1967UpgradeUpgradeable.sol\":7087:7112  target.delegatecall(data) */\n      mload(0x40)\n      tag_394\n      swap2\n      swap1\n      tag_395\n      jump\t// in\n    tag_394:\n      0x00\n      mload(0x40)\n      dup1\n      dup4\n      sub\n      dup2\n      dup6\n      gas\n      delegatecall\n      swap2\n      pop\n      pop\n      returndatasize\n      dup1\n      0x00\n      dup2\n      eq\n      tag_398\n      jumpi\n      mload(0x40)\n      swap2\n      pop\n      and(add(returndatasize, 0x3f), not(0x1f))\n      dup3\n      add\n      0x40\n      mstore\n      returndatasize\n      dup3\n      mstore\n      returndatasize\n      0x00\n      0x20\n      dup5\n      add\n      returndatacopy\n      jump(tag_397)\n    tag_398:\n      0x60\n      swap2\n      pop\n    tag_397:\n      pop\n        /* \"@openzeppelin/contracts-upgradeable/proxy/ERC1967/ERC1967UpgradeUpgradeable.sol\":7045:7112  (bool success, bytes memory returndata) = target.delegatecall(data) */\n      swap2\n      pop\n      swap2\n      pop\n        /* \"@openzeppelin/contracts-upgradeable/proxy/ERC1967/ERC1967UpgradeUpgradeable.sol\":7129:7228  AddressUpgradeable.verifyCallResult(success, returndata, \"Address: low-level delegate call failed\") */\n      tag_399\n        /* \"@openzeppelin/contracts-upgradeable/proxy/ERC1967/ERC1967UpgradeUpgradeable.sol\":7165:7172  success */\n      dup3\n        /* \"@openzeppelin/contracts-upgradeable/proxy/ERC1967/ERC1967UpgradeUpgradeable.sol\":7174:7184  returndata */\n      dup3\n        /* \"@openzeppelin/contracts-upgradeable/proxy/ERC1967/ERC1967UpgradeUpgradeable.sol\":7129:7228  AddressUpgradeable.verifyCallResult(success, returndata, \"Address: low-level delegate call failed\") */\n      mload(0x40)\n      dup1\n      0x60\n      add\n      0x40\n      mstore\n      dup1\n      0x27\n      dup2\n      mstore\n      0x20\n      add\n      data_9fdcd12e4b726339b32a442b0a448365d5d85c96b2d2cff917b4f66c63110398\n      0x27\n      swap2\n      codecopy\n        /* \"@openzeppelin/contracts-upgradeable/proxy/ERC1967/ERC1967UpgradeUpgradeable.sol\":7129:7164  AddressUpgradeable.verifyCallResult */\n      tag_400\n        /* \"@openzeppelin/contracts-upgradeable/proxy/ERC1967/ERC1967UpgradeUpgradeable.sol\":7129:7228  AddressUpgradeable.verifyCallResult(success, returndata, \"Address: low-level delegate call failed\") */\n      jump\t// in\n    tag_399:\n        /* \"@openzeppelin/contracts-upgradeable/proxy/ERC1967/ERC1967UpgradeUpgradeable.sol\":7122:7228  return AddressUpgradeable.verifyCallResult(success, returndata, \"Address: low-level delegate call failed\") */\n      swap3\n      pop\n      pop\n      pop\n        /* \"@openzeppelin/contracts-upgradeable/proxy/ERC1967/ERC1967UpgradeUpgradeable.sol\":6780:7235  function _functionDelegateCall(address target, bytes memory data) private returns (bytes memory) {... */\n      swap3\n      swap2\n      pop\n      pop\n      jump\t// out\n        /* \"@openzeppelin/contracts-upgradeable/utils/AddressUpgradeable.sol\":7438:7733  function verifyCallResult(... */\n    tag_400:\n        /* \"@openzeppelin/contracts-upgradeable/utils/AddressUpgradeable.sol\":7584:7596  bytes memory */\n      0x60\n        /* \"@openzeppelin/contracts-upgradeable/utils/AddressUpgradeable.sol\":7612:7619  success */\n      dup4\n        /* \"@openzeppelin/contracts-upgradeable/utils/AddressUpgradeable.sol\":7608:7727  if (success) {... */\n      iszero\n      tag_402\n      jumpi\n        /* \"@openzeppelin/contracts-upgradeable/utils/AddressUpgradeable.sol\":7642:7652  returndata */\n      dup3\n        /* \"@openzeppelin/contracts-upgradeable/utils/AddressUpgradeable.sol\":7635:7652  return returndata */\n      swap1\n      pop\n      jump(tag_401)\n        /* \"@openzeppelin/contracts-upgradeable/utils/AddressUpgradeable.sol\":7608:7727  if (success) {... */\n    tag_402:\n        /* \"@openzeppelin/contracts-upgradeable/utils/AddressUpgradeable.sol\":7683:7716  _revert(returndata, errorMessage) */\n      tag_404\n        /* \"@openzeppelin/contracts-upgradeable/utils/AddressUpgradeable.sol\":7691:7701  returndata */\n      dup4\n        /* \"@openzeppelin/contracts-upgradeable/utils/AddressUpgradeable.sol\":7703:7715  errorMessage */\n      dup4\n        /* \"@openzeppelin/contracts-upgradeable/utils/AddressUpgradeable.sol\":7683:7690  _revert */\n      tag_405\n        /* \"@openzeppelin/contracts-upgradeable/utils/AddressUpgradeable.sol\":7683:7716  _revert(returndata, errorMessage) */\n      jump\t// in\n    tag_404:\n        /* \"@openzeppelin/contracts-upgradeable/utils/AddressUpgradeable.sol\":7438:7733  function verifyCallResult(... */\n    tag_401:\n      swap4\n      swap3\n      pop\n      pop\n      pop\n      jump\t// out\n        /* \"@openzeppelin/contracts-upgradeable/utils/AddressUpgradeable.sol\":7739:8279  function _revert(bytes memory returndata, string memory errorMessage) private pure {... */\n    tag_405:\n        /* \"@openzeppelin/contracts-upgradeable/utils/AddressUpgradeable.sol\":7918:7919  0 */\n      0x00\n        /* \"@openzeppelin/contracts-upgradeable/utils/AddressUpgradeable.sol\":7898:7908  returndata */\n      dup3\n        /* \"@openzeppelin/contracts-upgradeable/utils/AddressUpgradeable.sol\":7898:7915  returndata.length */\n      mload\n        /* \"@openzeppelin/contracts-upgradeable/utils/AddressUpgradeable.sol\":7898:7919  returndata.length > 0 */\n      gt\n        /* \"@openzeppelin/contracts-upgradeable/utils/AddressUpgradeable.sol\":7894:8273  if (returndata.length > 0) {... */\n      iszero\n      tag_407\n      jumpi\n        /* \"@openzeppelin/contracts-upgradeable/utils/AddressUpgradeable.sol\":8126:8136  returndata */\n      dup2\n        /* \"@openzeppelin/contracts-upgradeable/utils/AddressUpgradeable.sol\":8120:8137  mload(returndata) */\n      mload\n        /* \"@openzeppelin/contracts-upgradeable/utils/AddressUpgradeable.sol\":8182:8197  returndata_size */\n      dup1\n        /* \"@openzeppelin/contracts-upgradeable/utils/AddressUpgradeable.sol\":8169:8179  returndata */\n      dup4\n        /* \"@openzeppelin/contracts-upgradeable/utils/AddressUpgradeable.sol\":8165:8167  32 */\n      0x20\n        /* \"@openzeppelin/contracts-upgradeable/utils/AddressUpgradeable.sol\":8161:8180  add(32, returndata) */\n      add\n        /* \"@openzeppelin/contracts-upgradeable/utils/AddressUpgradeable.sol\":8154:8198  revert(add(32, returndata), returndata_size) */\n      revert\n        /* \"@openzeppelin/contracts-upgradeable/utils/AddressUpgradeable.sol\":7894:8273  if (returndata.length > 0) {... */\n    tag_407:\n        /* \"@openzeppelin/contracts-upgradeable/utils/AddressUpgradeable.sol\":8249:8261  errorMessage */\n      dup1\n        /* \"@openzeppelin/contracts-upgradeable/utils/AddressUpgradeable.sol\":8242:8262  revert(errorMessage) */\n      mload(0x40)\n      0x08c379a000000000000000000000000000000000000000000000000000000000\n      dup2\n      mstore\n      0x04\n      add\n      tag_409\n      swap2\n      swap1\n      tag_30\n      jump\t// in\n    tag_409:\n      mload(0x40)\n      dup1\n      swap2\n      sub\n      swap1\n      revert\n        /* \"#utility.yul\":7:106   */\n    tag_410:\n        /* \"#utility.yul\":59:65   */\n      0x00\n        /* \"#utility.yul\":93:98   */\n      dup2\n        /* \"#utility.yul\":87:99   */\n      mload\n        /* \"#utility.yul\":77:99   */\n      swap1\n      pop\n        /* \"#utility.yul\":7:106   */\n      swap2\n      swap1\n      pop\n      jump\t// out\n        /* \"#utility.yul\":112:281   */\n    tag_411:\n        /* \"#utility.yul\":196:207   */\n      0x00\n        /* \"#utility.yul\":230:236   */\n      dup3\n        /* \"#utility.yul\":225:228   */\n      dup3\n        /* \"#utility.yul\":218:237   */\n      mstore\n        /* \"#utility.yul\":270:274   */\n      0x20\n        /* \"#utility.yul\":265:268   */\n      dup3\n        /* \"#utility.yul\":261:275   */\n      add\n        /* \"#utility.yul\":246:275   */\n      swap1\n      pop\n        /* \"#utility.yul\":112:281   */\n      swap3\n      swap2\n      pop\n      pop\n      jump\t// out\n        /* \"#utility.yul\":287:533   */\n    tag_412:\n        /* \"#utility.yul\":368:369   */\n      0x00\n        /* \"#utility.yul\":378:491   */\n    tag_512:\n        /* \"#utility.yul\":392:398   */\n      dup4\n        /* \"#utility.yul\":389:390   */\n      dup2\n        /* \"#utility.yul\":386:399   */\n      lt\n        /* \"#utility.yul\":378:491   */\n      iszero\n      tag_514\n      jumpi\n        /* \"#utility.yul\":477:478   */\n      dup1\n        /* \"#utility.yul\":472:475   */\n      dup3\n        /* \"#utility.yul\":468:479   */\n      add\n        /* \"#utility.yul\":462:480   */\n      mload\n        /* \"#utility.yul\":458:459   */\n      dup2\n        /* \"#utility.yul\":453:456   */\n      dup5\n        /* \"#utility.yul\":449:460   */\n      add\n        /* \"#utility.yul\":442:481   */\n      mstore\n        /* \"#utility.yul\":414:416   */\n      0x20\n        /* \"#utility.yul\":411:412   */\n      dup2\n        /* \"#utility.yul\":407:417   */\n      add\n        /* \"#utility.yul\":402:417   */\n      swap1\n      pop\n        /* \"#utility.yul\":378:491   */\n      jump(tag_512)\n    tag_514:\n        /* \"#utility.yul\":525:526   */\n      0x00\n        /* \"#utility.yul\":516:522   */\n      dup5\n        /* \"#utility.yul\":511:514   */\n      dup5\n        /* \"#utility.yul\":507:523   */\n      add\n        /* \"#utility.yul\":500:527   */\n      mstore\n        /* \"#utility.yul\":349:533   */\n      pop\n        /* \"#utility.yul\":287:533   */\n      pop\n      pop\n      pop\n      jump\t// out\n        /* \"#utility.yul\":539:641   */\n    tag_413:\n        /* \"#utility.yul\":580:586   */\n      0x00\n        /* \"#utility.yul\":631:633   */\n      0x1f\n        /* \"#utility.yul\":627:634   */\n      not\n        /* \"#utility.yul\":622:624   */\n      0x1f\n        /* \"#utility.yul\":615:620   */\n      dup4\n        /* \"#utility.yul\":611:625   */\n      add\n        /* \"#utility.yul\":607:635   */\n      and\n        /* \"#utility.yul\":597:635   */\n      swap1\n      pop\n        /* \"#utility.yul\":539:641   */\n      swap2\n      swap1\n      pop\n      jump\t// out\n        /* \"#utility.yul\":647:1024   */\n    tag_414:\n        /* \"#utility.yul\":735:738   */\n      0x00\n        /* \"#utility.yul\":763:802   */\n      tag_517\n        /* \"#utility.yul\":796:801   */\n      dup3\n        /* \"#utility.yul\":763:802   */\n      tag_410\n      jump\t// in\n    tag_517:\n        /* \"#utility.yul\":818:889   */\n      tag_518\n        /* \"#utility.yul\":882:888   */\n      dup2\n        /* \"#utility.yul\":877:880   */\n      dup6\n        /* \"#utility.yul\":818:889   */\n      tag_411\n      jump\t// in\n    tag_518:\n        /* \"#utility.yul\":811:889   */\n      swap4\n      pop\n        /* \"#utility.yul\":898:963   */\n      tag_519\n        /* \"#utility.yul\":956:962   */\n      dup2\n        /* \"#utility.yul\":951:954   */\n      dup6\n        /* \"#utility.yul\":944:948   */\n      0x20\n        /* \"#utility.yul\":937:942   */\n      dup7\n        /* \"#utility.yul\":933:949   */\n      add\n        /* \"#utility.yul\":898:963   */\n      tag_412\n      jump\t// in\n    tag_519:\n        /* \"#utility.yul\":988:1017   */\n      tag_520\n        /* \"#utility.yul\":1010:1016   */\n      dup2\n        /* \"#utility.yul\":988:1017   */\n      tag_413\n      jump\t// in\n    tag_520:\n        /* \"#utility.yul\":983:986   */\n      dup5\n        /* \"#utility.yul\":979:1018   */\n      add\n        /* \"#utility.yul\":972:1018   */\n      swap2\n      pop\n        /* \"#utility.yul\":739:1024   */\n      pop\n        /* \"#utility.yul\":647:1024   */\n      swap3\n      swap2\n      pop\n      pop\n      jump\t// out\n        /* \"#utility.yul\":1030:1343   */\n    tag_30:\n        /* \"#utility.yul\":1143:1147   */\n      0x00\n        /* \"#utility.yul\":1181:1183   */\n      0x20\n        /* \"#utility.yul\":1170:1179   */\n      dup3\n        /* \"#utility.yul\":1166:1184   */\n      add\n        /* \"#utility.yul\":1158:1184   */\n      swap1\n      pop\n        /* \"#utility.yul\":1230:1239   */\n      dup2\n        /* \"#utility.yul\":1224:1228   */\n      dup2\n        /* \"#utility.yul\":1220:1240   */\n      sub\n        /* \"#utility.yul\":1216:1217   */\n      0x00\n        /* \"#utility.yul\":1205:1214   */\n      dup4\n        /* \"#utility.yul\":1201:1218   */\n      add\n        /* \"#utility.yul\":1194:1241   */\n      mstore\n        /* \"#utility.yul\":1258:1336   */\n      tag_522\n        /* \"#utility.yul\":1331:1335   */\n      dup2\n        /* \"#utility.yul\":1322:1328   */\n      dup5\n        /* \"#utility.yul\":1258:1336   */\n      tag_414\n      jump\t// in\n    tag_522:\n        /* \"#utility.yul\":1250:1336   */\n      swap1\n      pop\n        /* \"#utility.yul\":1030:1343   */\n      swap3\n      swap2\n      pop\n      pop\n      jump\t// out\n        /* \"#utility.yul\":1349:1424   */\n    tag_415:\n        /* \"#utility.yul\":1382:1388   */\n      0x00\n        /* \"#utility.yul\":1415:1417   */\n      0x40\n        /* \"#utility.yul\":1409:1418   */\n      mload\n        /* \"#utility.yul\":1399:1418   */\n      swap1\n      pop\n        /* \"#utility.yul\":1349:1424   */\n      swap1\n      jump\t// out\n        /* \"#utility.yul\":1430:1547   */\n    tag_416:\n        /* \"#utility.yul\":1539:1540   */\n      0x00\n        /* \"#utility.yul\":1536:1537   */\n      dup1\n        /* \"#utility.yul\":1529:1541   */\n      revert\n        /* \"#utility.yul\":1553:1670   */\n    tag_417:\n        /* \"#utility.yul\":1662:1663   */\n      0x00\n        /* \"#utility.yul\":1659:1660   */\n      dup1\n        /* \"#utility.yul\":1652:1664   */\n      revert\n        /* \"#utility.yul\":1676:1802   */\n    tag_418:\n        /* \"#utility.yul\":1713:1720   */\n      0x00\n        /* \"#utility.yul\":1753:1795   */\n      0xffffffffffffffffffffffffffffffffffffffff\n        /* \"#utility.yul\":1746:1751   */\n      dup3\n        /* \"#utility.yul\":1742:1796   */\n      and\n        /* \"#utility.yul\":1731:1796   */\n      swap1\n      pop\n        /* \"#utility.yul\":1676:1802   */\n      swap2\n      swap1\n      pop\n      jump\t// out\n        /* \"#utility.yul\":1808:1904   */\n    tag_419:\n        /* \"#utility.yul\":1845:1852   */\n      0x00\n        /* \"#utility.yul\":1874:1898   */\n      tag_528\n        /* \"#utility.yul\":1892:1897   */\n      dup3\n        /* \"#utility.yul\":1874:1898   */\n      tag_418\n      jump\t// in\n    tag_528:\n        /* \"#utility.yul\":1863:1898   */\n      swap1\n      pop\n        /* \"#utility.yul\":1808:1904   */\n      swap2\n      swap1\n      pop\n      jump\t// out\n        /* \"#utility.yul\":1910:2032   */\n    tag_420:\n        /* \"#utility.yul\":1983:2007   */\n      tag_530\n        /* \"#utility.yul\":2001:2006   */\n      dup2\n        /* \"#utility.yul\":1983:2007   */\n      tag_419\n      jump\t// in\n    tag_530:\n        /* \"#utility.yul\":1976:1981   */\n      dup2\n        /* \"#utility.yul\":1973:2008   */\n      eq\n        /* \"#utility.yul\":1963:2026   */\n      tag_531\n      jumpi\n        /* \"#utility.yul\":2022:2023   */\n      0x00\n        /* \"#utility.yul\":2019:2020   */\n      dup1\n        /* \"#utility.yul\":2012:2024   */\n      revert\n        /* \"#utility.yul\":1963:2026   */\n    tag_531:\n        /* \"#utility.yul\":1910:2032   */\n      pop\n      jump\t// out\n        /* \"#utility.yul\":2038:2177   */\n    tag_421:\n        /* \"#utility.yul\":2084:2089   */\n      0x00\n        /* \"#utility.yul\":2122:2128   */\n      dup2\n        /* \"#utility.yul\":2109:2129   */\n      calldataload\n        /* \"#utility.yul\":2100:2129   */\n      swap1\n      pop\n        /* \"#utility.yul\":2138:2171   */\n      tag_533\n        /* \"#utility.yul\":2165:2170   */\n      dup2\n        /* \"#utility.yul\":2138:2171   */\n      tag_420\n      jump\t// in\n    tag_533:\n        /* \"#utility.yul\":2038:2177   */\n      swap3\n      swap2\n      pop\n      pop\n      jump\t// out\n        /* \"#utility.yul\":2183:2260   */\n    tag_422:\n        /* \"#utility.yul\":2220:2227   */\n      0x00\n        /* \"#utility.yul\":2249:2254   */\n      dup2\n        /* \"#utility.yul\":2238:2254   */\n      swap1\n      pop\n        /* \"#utility.yul\":2183:2260   */\n      swap2\n      swap1\n      pop\n      jump\t// out\n        /* \"#utility.yul\":2266:2388   */\n    tag_423:\n        /* \"#utility.yul\":2339:2363   */\n      tag_536\n        /* \"#utility.yul\":2357:2362   */\n      dup2\n        /* \"#utility.yul\":2339:2363   */\n      tag_422\n      jump\t// in\n    tag_536:\n        /* \"#utility.yul\":2332:2337   */\n      dup2\n        /* \"#utility.yul\":2329:2364   */\n      eq\n        /* \"#utility.yul\":2319:2382   */\n      tag_537\n      jumpi\n        /* \"#utility.yul\":2378:2379   */\n      0x00\n        /* \"#utility.yul\":2375:2376   */\n      dup1\n        /* \"#utility.yul\":2368:2380   */\n      revert\n        /* \"#utility.yul\":2319:2382   */\n    tag_537:\n        /* \"#utility.yul\":2266:2388   */\n      pop\n      jump\t// out\n        /* \"#utility.yul\":2394:2533   */\n    tag_424:\n        /* \"#utility.yul\":2440:2445   */\n      0x00\n        /* \"#utility.yul\":2478:2484   */\n      dup2\n        /* \"#utility.yul\":2465:2485   */\n      calldataload\n        /* \"#utility.yul\":2456:2485   */\n      swap1\n      pop\n        /* \"#utility.yul\":2494:2527   */\n      tag_539\n        /* \"#utility.yul\":2521:2526   */\n      dup2\n        /* \"#utility.yul\":2494:2527   */\n      tag_423\n      jump\t// in\n    tag_539:\n        /* \"#utility.yul\":2394:2533   */\n      swap3\n      swap2\n      pop\n      pop\n      jump\t// out\n        /* \"#utility.yul\":2539:3013   */\n    tag_34:\n        /* \"#utility.yul\":2607:2613   */\n      0x00\n        /* \"#utility.yul\":2615:2621   */\n      dup1\n        /* \"#utility.yul\":2664:2666   */\n      0x40\n        /* \"#utility.yul\":2652:2661   */\n      dup4\n        /* \"#utility.yul\":2643:2650   */\n      dup6\n        /* \"#utility.yul\":2639:2662   */\n      sub\n        /* \"#utility.yul\":2635:2667   */\n      slt\n        /* \"#utility.yul\":2632:2751   */\n      iszero\n      tag_541\n      jumpi\n        /* \"#utility.yul\":2670:2749   */\n      tag_542\n      tag_416\n      jump\t// in\n    tag_542:\n        /* \"#utility.yul\":2632:2751   */\n    tag_541:\n        /* \"#utility.yul\":2790:2791   */\n      0x00\n        /* \"#utility.yul\":2815:2868   */\n      tag_543\n        /* \"#utility.yul\":2860:2867   */\n      dup6\n        /* \"#utility.yul\":2851:2857   */\n      dup3\n        /* \"#utility.yul\":2840:2849   */\n      dup7\n        /* \"#utility.yul\":2836:2858   */\n      add\n        /* \"#utility.yul\":2815:2868   */\n      tag_421\n      jump\t// in\n    tag_543:\n        /* \"#utility.yul\":2805:2868   */\n      swap3\n      pop\n        /* \"#utility.yul\":2761:2878   */\n      pop\n        /* \"#utility.yul\":2917:2919   */\n      0x20\n        /* \"#utility.yul\":2943:2996   */\n      tag_544\n        /* \"#utility.yul\":2988:2995   */\n      dup6\n        /* \"#utility.yul\":2979:2985   */\n      dup3\n        /* \"#utility.yul\":2968:2977   */\n      dup7\n        /* \"#utility.yul\":2964:2986   */\n      add\n        /* \"#utility.yul\":2943:2996   */\n      tag_424\n      jump\t// in\n    tag_544:\n        /* \"#utility.yul\":2933:2996   */\n      swap2\n      pop\n        /* \"#utility.yul\":2888:3006   */\n      pop\n        /* \"#utility.yul\":2539:3013   */\n      swap3\n      pop\n      swap3\n      swap1\n      pop\n      jump\t// out\n        /* \"#utility.yul\":3019:3109   */\n    tag_425:\n        /* \"#utility.yul\":3053:3060   */\n      0x00\n        /* \"#utility.yul\":3096:3101   */\n      dup2\n        /* \"#utility.yul\":3089:3102   */\n      iszero\n        /* \"#utility.yul\":3082:3103   */\n      iszero\n        /* \"#utility.yul\":3071:3103   */\n      swap1\n      pop\n        /* \"#utility.yul\":3019:3109   */\n      swap2\n      swap1\n      pop\n      jump\t// out\n        /* \"#utility.yul\":3115:3224   */\n    tag_426:\n        /* \"#utility.yul\":3196:3217   */\n      tag_547\n        /* \"#utility.yul\":3211:3216   */\n      dup2\n        /* \"#utility.yul\":3196:3217   */\n      tag_425\n      jump\t// in\n    tag_547:\n        /* \"#utility.yul\":3191:3194   */\n      dup3\n        /* \"#utility.yul\":3184:3218   */\n      mstore\n        /* \"#utility.yul\":3115:3224   */\n      pop\n      pop\n      jump\t// out\n        /* \"#utility.yul\":3230:3440   */\n    tag_37:\n        /* \"#utility.yul\":3317:3321   */\n      0x00\n        /* \"#utility.yul\":3355:3357   */\n      0x20\n        /* \"#utility.yul\":3344:3353   */\n      dup3\n        /* \"#utility.yul\":3340:3358   */\n      add\n        /* \"#utility.yul\":3332:3358   */\n      swap1\n      pop\n        /* \"#utility.yul\":3368:3433   */\n      tag_549\n        /* \"#utility.yul\":3430:3431   */\n      0x00\n        /* \"#utility.yul\":3419:3428   */\n      dup4\n        /* \"#utility.yul\":3415:3432   */\n      add\n        /* \"#utility.yul\":3406:3412   */\n      dup5\n        /* \"#utility.yul\":3368:3433   */\n      tag_426\n      jump\t// in\n    tag_549:\n        /* \"#utility.yul\":3230:3440   */\n      swap3\n      swap2\n      pop\n      pop\n      jump\t// out\n        /* \"#utility.yul\":3446:3564   */\n    tag_427:\n        /* \"#utility.yul\":3533:3557   */\n      tag_551\n        /* \"#utility.yul\":3551:3556   */\n      dup2\n        /* \"#utility.yul\":3533:3557   */\n      tag_422\n      jump\t// in\n    tag_551:\n        /* \"#utility.yul\":3528:3531   */\n      dup3\n        /* \"#utility.yul\":3521:3558   */\n      mstore\n        /* \"#utility.yul\":3446:3564   */\n      pop\n      pop\n      jump\t// out\n        /* \"#utility.yul\":3570:3792   */\n    tag_42:\n        /* \"#utility.yul\":3663:3667   */\n      0x00\n        /* \"#utility.yul\":3701:3703   */\n      0x20\n        /* \"#utility.yul\":3690:3699   */\n      dup3\n        /* \"#utility.yul\":3686:3704   */\n      add\n        /* \"#utility.yul\":3678:3704   */\n      swap1\n      pop\n        /* \"#utility.yul\":3714:3785   */\n      tag_553\n        /* \"#utility.yul\":3782:3783   */\n      0x00\n        /* \"#utility.yul\":3771:3780   */\n      dup4\n        /* \"#utility.yul\":3767:3784   */\n      add\n        /* \"#utility.yul\":3758:3764   */\n      dup5\n        /* \"#utility.yul\":3714:3785   */\n      tag_427\n      jump\t// in\n    tag_553:\n        /* \"#utility.yul\":3570:3792   */\n      swap3\n      swap2\n      pop\n      pop\n      jump\t// out\n        /* \"#utility.yul\":3798:4417   */\n    tag_46:\n        /* \"#utility.yul\":3875:3881   */\n      0x00\n        /* \"#utility.yul\":3883:3889   */\n      dup1\n        /* \"#utility.yul\":3891:3897   */\n      0x00\n        /* \"#utility.yul\":3940:3942   */\n      0x60\n        /* \"#utility.yul\":3928:3937   */\n      dup5\n        /* \"#utility.yul\":3919:3926   */\n      dup7\n        /* \"#utility.yul\":3915:3938   */\n      sub\n        /* \"#utility.yul\":3911:3943   */\n      slt\n        /* \"#utility.yul\":3908:4027   */\n      iszero\n      tag_555\n      jumpi\n        /* \"#utility.yul\":3946:4025   */\n      tag_556\n      tag_416\n      jump\t// in\n    tag_556:\n        /* \"#utility.yul\":3908:4027   */\n    tag_555:\n        /* \"#utility.yul\":4066:4067   */\n      0x00\n        /* \"#utility.yul\":4091:4144   */\n      tag_557\n        /* \"#utility.yul\":4136:4143   */\n      dup7\n        /* \"#utility.yul\":4127:4133   */\n      dup3\n        /* \"#utility.yul\":4116:4125   */\n      dup8\n        /* \"#utility.yul\":4112:4134   */\n      add\n        /* \"#utility.yul\":4091:4144   */\n      tag_421\n      jump\t// in\n    tag_557:\n        /* \"#utility.yul\":4081:4144   */\n      swap4\n      pop\n        /* \"#utility.yul\":4037:4154   */\n      pop\n        /* \"#utility.yul\":4193:4195   */\n      0x20\n        /* \"#utility.yul\":4219:4272   */\n      tag_558\n        /* \"#utility.yul\":4264:4271   */\n      dup7\n        /* \"#utility.yul\":4255:4261   */\n      dup3\n        /* \"#utility.yul\":4244:4253   */\n      dup8\n        /* \"#utility.yul\":4240:4262   */\n      add\n        /* \"#utility.yul\":4219:4272   */\n      tag_421\n      jump\t// in\n    tag_558:\n        /* \"#utility.yul\":4209:4272   */\n      swap3\n      pop\n        /* \"#utility.yul\":4164:4282   */\n      pop\n        /* \"#utility.yul\":4321:4323   */\n      0x40\n        /* \"#utility.yul\":4347:4400   */\n      tag_559\n        /* \"#utility.yul\":4392:4399   */\n      dup7\n        /* \"#utility.yul\":4383:4389   */\n      dup3\n        /* \"#utility.yul\":4372:4381   */\n      dup8\n        /* \"#utility.yul\":4368:4390   */\n      add\n        /* \"#utility.yul\":4347:4400   */\n      tag_424\n      jump\t// in\n    tag_559:\n        /* \"#utility.yul\":4337:4400   */\n      swap2\n      pop\n        /* \"#utility.yul\":4292:4410   */\n      pop\n        /* \"#utility.yul\":3798:4417   */\n      swap3\n      pop\n      swap3\n      pop\n      swap3\n      jump\t// out\n        /* \"#utility.yul\":4423:4509   */\n    tag_428:\n        /* \"#utility.yul\":4458:4465   */\n      0x00\n        /* \"#utility.yul\":4498:4502   */\n      0xff\n        /* \"#utility.yul\":4491:4496   */\n      dup3\n        /* \"#utility.yul\":4487:4503   */\n      and\n        /* \"#utility.yul\":4476:4503   */\n      swap1\n      pop\n        /* \"#utility.yul\":4423:4509   */\n      swap2\n      swap1\n      pop\n      jump\t// out\n        /* \"#utility.yul\":4515:4627   */\n    tag_429:\n        /* \"#utility.yul\":4598:4620   */\n      tag_562\n        /* \"#utility.yul\":4614:4619   */\n      dup2\n        /* \"#utility.yul\":4598:4620   */\n      tag_428\n      jump\t// in\n    tag_562:\n        /* \"#utility.yul\":4593:4596   */\n      dup3\n        /* \"#utility.yul\":4586:4621   */\n      mstore\n        /* \"#utility.yul\":4515:4627   */\n      pop\n      pop\n      jump\t// out\n        /* \"#utility.yul\":4633:4847   */\n    tag_53:\n        /* \"#utility.yul\":4722:4726   */\n      0x00\n        /* \"#utility.yul\":4760:4762   */\n      0x20\n        /* \"#utility.yul\":4749:4758   */\n      dup3\n        /* \"#utility.yul\":4745:4763   */\n      add\n        /* \"#utility.yul\":4737:4763   */\n      swap1\n      pop\n        /* \"#utility.yul\":4773:4840   */\n      tag_564\n        /* \"#utility.yul\":4837:4838   */\n      0x00\n        /* \"#utility.yul\":4826:4835   */\n      dup4\n        /* \"#utility.yul\":4822:4839   */\n      add\n        /* \"#utility.yul\":4813:4819   */\n      dup5\n        /* \"#utility.yul\":4773:4840   */\n      tag_429\n      jump\t// in\n    tag_564:\n        /* \"#utility.yul\":4633:4847   */\n      swap3\n      swap2\n      pop\n      pop\n      jump\t// out\n        /* \"#utility.yul\":4853:5182   */\n    tag_57:\n        /* \"#utility.yul\":4912:4918   */\n      0x00\n        /* \"#utility.yul\":4961:4963   */\n      0x20\n        /* \"#utility.yul\":4949:4958   */\n      dup3\n        /* \"#utility.yul\":4940:4947   */\n      dup5\n        /* \"#utility.yul\":4936:4959   */\n      sub\n        /* \"#utility.yul\":4932:4964   */\n      slt\n        /* \"#utility.yul\":4929:5048   */\n      iszero\n      tag_566\n      jumpi\n        /* \"#utility.yul\":4967:5046   */\n      tag_567\n      tag_416\n      jump\t// in\n    tag_567:\n        /* \"#utility.yul\":4929:5048   */\n    tag_566:\n        /* \"#utility.yul\":5087:5088   */\n      0x00\n        /* \"#utility.yul\":5112:5165   */\n      tag_568\n        /* \"#utility.yul\":5157:5164   */\n      dup5\n        /* \"#utility.yul\":5148:5154   */\n      dup3\n        /* \"#utility.yul\":5137:5146   */\n      dup6\n        /* \"#utility.yul\":5133:5155   */\n      add\n        /* \"#utility.yul\":5112:5165   */\n      tag_421\n      jump\t// in\n    tag_568:\n        /* \"#utility.yul\":5102:5165   */\n      swap2\n      pop\n        /* \"#utility.yul\":5058:5175   */\n      pop\n        /* \"#utility.yul\":4853:5182   */\n      swap3\n      swap2\n      pop\n      pop\n      jump\t// out\n        /* \"#utility.yul\":5188:5517   */\n    tag_71:\n        /* \"#utility.yul\":5247:5253   */\n      0x00\n        /* \"#utility.yul\":5296:5298   */\n      0x20\n        /* \"#utility.yul\":5284:5293   */\n      dup3\n        /* \"#utility.yul\":5275:5282   */\n      dup5\n        /* \"#utility.yul\":5271:5294   */\n      sub\n        /* \"#utility.yul\":5267:5299   */\n      slt\n        /* \"#utility.yul\":5264:5383   */\n      iszero\n      tag_570\n      jumpi\n        /* \"#utility.yul\":5302:5381   */\n      tag_571\n      tag_416\n      jump\t// in\n    tag_571:\n        /* \"#utility.yul\":5264:5383   */\n    tag_570:\n        /* \"#utility.yul\":5422:5423   */\n      0x00\n        /* \"#utility.yul\":5447:5500   */\n      tag_572\n        /* \"#utility.yul\":5492:5499   */\n      dup5\n        /* \"#utility.yul\":5483:5489   */\n      dup3\n        /* \"#utility.yul\":5472:5481   */\n      dup6\n        /* \"#utility.yul\":5468:5490   */\n      add\n        /* \"#utility.yul\":5447:5500   */\n      tag_424\n      jump\t// in\n    tag_572:\n        /* \"#utility.yul\":5437:5500   */\n      swap2\n      pop\n        /* \"#utility.yul\":5393:5510   */\n      pop\n        /* \"#utility.yul\":5188:5517   */\n      swap3\n      swap2\n      pop\n      pop\n      jump\t// out\n        /* \"#utility.yul\":5523:5640   */\n    tag_430:\n        /* \"#utility.yul\":5632:5633   */\n      0x00\n        /* \"#utility.yul\":5629:5630   */\n      dup1\n        /* \"#utility.yul\":5622:5634   */\n      revert\n        /* \"#utility.yul\":5646:5763   */\n    tag_431:\n        /* \"#utility.yul\":5755:5756   */\n      0x00\n        /* \"#utility.yul\":5752:5753   */\n      dup1\n        /* \"#utility.yul\":5745:5757   */\n      revert\n        /* \"#utility.yul\":5769:5949   */\n    tag_161:\n        /* \"#utility.yul\":5817:5894   */\n      0x4e487b7100000000000000000000000000000000000000000000000000000000\n        /* \"#utility.yul\":5814:5815   */\n      0x00\n        /* \"#utility.yul\":5807:5895   */\n      mstore\n        /* \"#utility.yul\":5914:5918   */\n      0x41\n        /* \"#utility.yul\":5911:5912   */\n      0x04\n        /* \"#utility.yul\":5904:5919   */\n      mstore\n        /* \"#utility.yul\":5938:5942   */\n      0x24\n        /* \"#utility.yul\":5935:5936   */\n      0x00\n        /* \"#utility.yul\":5928:5943   */\n      revert\n        /* \"#utility.yul\":5955:6236   */\n    tag_432:\n        /* \"#utility.yul\":6038:6065   */\n      tag_577\n        /* \"#utility.yul\":6060:6064   */\n      dup3\n        /* \"#utility.yul\":6038:6065   */\n      tag_413\n      jump\t// in\n    tag_577:\n        /* \"#utility.yul\":6030:6036   */\n      dup2\n        /* \"#utility.yul\":6026:6066   */\n      add\n        /* \"#utility.yul\":6168:6174   */\n      dup2\n        /* \"#utility.yul\":6156:6166   */\n      dup2\n        /* \"#utility.yul\":6153:6175   */\n      lt\n        /* \"#utility.yul\":6132:6150   */\n      0xffffffffffffffff\n        /* \"#utility.yul\":6120:6130   */\n      dup3\n        /* \"#utility.yul\":6117:6151   */\n      gt\n        /* \"#utility.yul\":6114:6176   */\n      or\n        /* \"#utility.yul\":6111:6199   */\n      iszero\n      tag_578\n      jumpi\n        /* \"#utility.yul\":6179:6197   */\n      tag_579\n      tag_161\n      jump\t// in\n    tag_579:\n        /* \"#utility.yul\":6111:6199   */\n    tag_578:\n        /* \"#utility.yul\":6219:6229   */\n      dup1\n        /* \"#utility.yul\":6215:6217   */\n      0x40\n        /* \"#utility.yul\":6208:6230   */\n      mstore\n        /* \"#utility.yul\":5998:6236   */\n      pop\n        /* \"#utility.yul\":5955:6236   */\n      pop\n      pop\n      jump\t// out\n        /* \"#utility.yul\":6242:6371   */\n    tag_433:\n        /* \"#utility.yul\":6276:6282   */\n      0x00\n        /* \"#utility.yul\":6303:6323   */\n      tag_581\n      tag_415\n      jump\t// in\n    tag_581:\n        /* \"#utility.yul\":6293:6323   */\n      swap1\n      pop\n        /* \"#utility.yul\":6332:6365   */\n      tag_582\n        /* \"#utility.yul\":6360:6364   */\n      dup3\n        /* \"#utility.yul\":6352:6358   */\n      dup3\n        /* \"#utility.yul\":6332:6365   */\n      tag_432\n      jump\t// in\n    tag_582:\n        /* \"#utility.yul\":6242:6371   */\n      swap2\n      swap1\n      pop\n      jump\t// out\n        /* \"#utility.yul\":6377:6684   */\n    tag_434:\n        /* \"#utility.yul\":6438:6442   */\n      0x00\n        /* \"#utility.yul\":6528:6546   */\n      0xffffffffffffffff\n        /* \"#utility.yul\":6520:6526   */\n      dup3\n        /* \"#utility.yul\":6517:6547   */\n      gt\n        /* \"#utility.yul\":6514:6570   */\n      iszero\n      tag_584\n      jumpi\n        /* \"#utility.yul\":6550:6568   */\n      tag_585\n      tag_161\n      jump\t// in\n    tag_585:\n        /* \"#utility.yul\":6514:6570   */\n    tag_584:\n        /* \"#utility.yul\":6588:6617   */\n      tag_586\n        /* \"#utility.yul\":6610:6616   */\n      dup3\n        /* \"#utility.yul\":6588:6617   */\n      tag_413\n      jump\t// in\n    tag_586:\n        /* \"#utility.yul\":6580:6617   */\n      swap1\n      pop\n        /* \"#utility.yul\":6672:6676   */\n      0x20\n        /* \"#utility.yul\":6666:6670   */\n      dup2\n        /* \"#utility.yul\":6662:6677   */\n      add\n        /* \"#utility.yul\":6654:6677   */\n      swap1\n      pop\n        /* \"#utility.yul\":6377:6684   */\n      swap2\n      swap1\n      pop\n      jump\t// out\n        /* \"#utility.yul\":6690:6836   */\n    tag_435:\n        /* \"#utility.yul\":6787:6793   */\n      dup3\n        /* \"#utility.yul\":6782:6785   */\n      dup2\n        /* \"#utility.yul\":6777:6780   */\n      dup4\n        /* \"#utility.yul\":6764:6794   */\n      calldatacopy\n        /* \"#utility.yul\":6828:6829   */\n      0x00\n        /* \"#utility.yul\":6819:6825   */\n      dup4\n        /* \"#utility.yul\":6814:6817   */\n      dup4\n        /* \"#utility.yul\":6810:6826   */\n      add\n        /* \"#utility.yul\":6803:6830   */\n      mstore\n        /* \"#utility.yul\":6690:6836   */\n      pop\n      pop\n      pop\n      jump\t// out\n        /* \"#utility.yul\":6842:7265   */\n    tag_436:\n        /* \"#utility.yul\":6919:6924   */\n      0x00\n        /* \"#utility.yul\":6944:7009   */\n      tag_589\n        /* \"#utility.yul\":6960:7008   */\n      tag_590\n        /* \"#utility.yul\":7001:7007   */\n      dup5\n        /* \"#utility.yul\":6960:7008   */\n      tag_434\n      jump\t// in\n    tag_590:\n        /* \"#utility.yul\":6944:7009   */\n      tag_433\n      jump\t// in\n    tag_589:\n        /* \"#utility.yul\":6935:7009   */\n      swap1\n      pop\n        /* \"#utility.yul\":7032:7038   */\n      dup3\n        /* \"#utility.yul\":7025:7030   */\n      dup2\n        /* \"#utility.yul\":7018:7039   */\n      mstore\n        /* \"#utility.yul\":7070:7074   */\n      0x20\n        /* \"#utility.yul\":7063:7068   */\n      dup2\n        /* \"#utility.yul\":7059:7075   */\n      add\n        /* \"#utility.yul\":7108:7111   */\n      dup5\n        /* \"#utility.yul\":7099:7105   */\n      dup5\n        /* \"#utility.yul\":7094:7097   */\n      dup5\n        /* \"#utility.yul\":7090:7106   */\n      add\n        /* \"#utility.yul\":7087:7112   */\n      gt\n        /* \"#utility.yul\":7084:7196   */\n      iszero\n      tag_591\n      jumpi\n        /* \"#utility.yul\":7115:7194   */\n      tag_592\n      tag_431\n      jump\t// in\n    tag_592:\n        /* \"#utility.yul\":7084:7196   */\n    tag_591:\n        /* \"#utility.yul\":7205:7259   */\n      tag_593\n        /* \"#utility.yul\":7252:7258   */\n      dup5\n        /* \"#utility.yul\":7247:7250   */\n      dup3\n        /* \"#utility.yul\":7242:7245   */\n      dup6\n        /* \"#utility.yul\":7205:7259   */\n      tag_435\n      jump\t// in\n    tag_593:\n        /* \"#utility.yul\":6925:7265   */\n      pop\n        /* \"#utility.yul\":6842:7265   */\n      swap4\n      swap3\n      pop\n      pop\n      pop\n      jump\t// out\n        /* \"#utility.yul\":7284:7622   */\n    tag_437:\n        /* \"#utility.yul\":7339:7344   */\n      0x00\n        /* \"#utility.yul\":7388:7391   */\n      dup3\n        /* \"#utility.yul\":7381:7385   */\n      0x1f\n        /* \"#utility.yul\":7373:7379   */\n      dup4\n        /* \"#utility.yul\":7369:7386   */\n      add\n        /* \"#utility.yul\":7365:7392   */\n      slt\n        /* \"#utility.yul\":7355:7477   */\n      tag_595\n      jumpi\n        /* \"#utility.yul\":7396:7475   */\n      tag_596\n      tag_430\n      jump\t// in\n    tag_596:\n        /* \"#utility.yul\":7355:7477   */\n    tag_595:\n        /* \"#utility.yul\":7513:7519   */\n      dup2\n        /* \"#utility.yul\":7500:7520   */\n      calldataload\n        /* \"#utility.yul\":7538:7616   */\n      tag_597\n        /* \"#utility.yul\":7612:7615   */\n      dup5\n        /* \"#utility.yul\":7604:7610   */\n      dup3\n        /* \"#utility.yul\":7597:7601   */\n      0x20\n        /* \"#utility.yul\":7589:7595   */\n      dup7\n        /* \"#utility.yul\":7585:7602   */\n      add\n        /* \"#utility.yul\":7538:7616   */\n      tag_436\n      jump\t// in\n    tag_597:\n        /* \"#utility.yul\":7529:7616   */\n      swap2\n      pop\n        /* \"#utility.yul\":7345:7622   */\n      pop\n        /* \"#utility.yul\":7284:7622   */\n      swap3\n      swap2\n      pop\n      pop\n      jump\t// out\n        /* \"#utility.yul\":7628:8280   */\n    tag_75:\n        /* \"#utility.yul\":7705:7711   */\n      0x00\n        /* \"#utility.yul\":7713:7719   */\n      dup1\n        /* \"#utility.yul\":7762:7764   */\n      0x40\n        /* \"#utility.yul\":7750:7759   */\n      dup4\n        /* \"#utility.yul\":7741:7748   */\n      dup6\n        /* \"#utility.yul\":7737:7760   */\n      sub\n        /* \"#utility.yul\":7733:7765   */\n      slt\n        /* \"#utility.yul\":7730:7849   */\n      iszero\n      tag_599\n      jumpi\n        /* \"#utility.yul\":7768:7847   */\n      tag_600\n      tag_416\n      jump\t// in\n    tag_600:\n        /* \"#utility.yul\":7730:7849   */\n    tag_599:\n        /* \"#utility.yul\":7888:7889   */\n      0x00\n        /* \"#utility.yul\":7913:7966   */\n      tag_601\n        /* \"#utility.yul\":7958:7965   */\n      dup6\n        /* \"#utility.yul\":7949:7955   */\n      dup3\n        /* \"#utility.yul\":7938:7947   */\n      dup7\n        /* \"#utility.yul\":7934:7956   */\n      add\n        /* \"#utility.yul\":7913:7966   */\n      tag_421\n      jump\t// in\n    tag_601:\n        /* \"#utility.yul\":7903:7966   */\n      swap3\n      pop\n        /* \"#utility.yul\":7859:7976   */\n      pop\n        /* \"#utility.yul\":8043:8045   */\n      0x20\n        /* \"#utility.yul\":8032:8041   */\n      dup4\n        /* \"#utility.yul\":8028:8046   */\n      add\n        /* \"#utility.yul\":8015:8047   */\n      calldataload\n        /* \"#utility.yul\":8074:8092   */\n      0xffffffffffffffff\n        /* \"#utility.yul\":8066:8072   */\n      dup2\n        /* \"#utility.yul\":8063:8093   */\n      gt\n        /* \"#utility.yul\":8060:8177   */\n      iszero\n      tag_602\n      jumpi\n        /* \"#utility.yul\":8096:8175   */\n      tag_603\n      tag_417\n      jump\t// in\n    tag_603:\n        /* \"#utility.yul\":8060:8177   */\n    tag_602:\n        /* \"#utility.yul\":8201:8263   */\n      tag_604\n        /* \"#utility.yul\":8255:8262   */\n      dup6\n        /* \"#utility.yul\":8246:8252   */\n      dup3\n        /* \"#utility.yul\":8235:8244   */\n      dup7\n        /* \"#utility.yul\":8231:8253   */\n      add\n        /* \"#utility.yul\":8201:8263   */\n      tag_437\n      jump\t// in\n    tag_604:\n        /* \"#utility.yul\":8191:8263   */\n      swap2\n      pop\n        /* \"#utility.yul\":7986:8273   */\n      pop\n        /* \"#utility.yul\":7628:8280   */\n      swap3\n      pop\n      swap3\n      swap1\n      pop\n      jump\t// out\n        /* \"#utility.yul\":8286:8363   */\n    tag_438:\n        /* \"#utility.yul\":8323:8330   */\n      0x00\n        /* \"#utility.yul\":8352:8357   */\n      dup2\n        /* \"#utility.yul\":8341:8357   */\n      swap1\n      pop\n        /* \"#utility.yul\":8286:8363   */\n      swap2\n      swap1\n      pop\n      jump\t// out\n        /* \"#utility.yul\":8369:8487   */\n    tag_439:\n        /* \"#utility.yul\":8456:8480   */\n      tag_607\n        /* \"#utility.yul\":8474:8479   */\n      dup2\n        /* \"#utility.yul\":8456:8480   */\n      tag_438\n      jump\t// in\n    tag_607:\n        /* \"#utility.yul\":8451:8454   */\n      dup3\n        /* \"#utility.yul\":8444:8481   */\n      mstore\n        /* \"#utility.yul\":8369:8487   */\n      pop\n      pop\n      jump\t// out\n        /* \"#utility.yul\":8493:8715   */\n    tag_81:\n        /* \"#utility.yul\":8586:8590   */\n      0x00\n        /* \"#utility.yul\":8624:8626   */\n      0x20\n        /* \"#utility.yul\":8613:8622   */\n      dup3\n        /* \"#utility.yul\":8609:8627   */\n      add\n        /* \"#utility.yul\":8601:8627   */\n      swap1\n      pop\n        /* \"#utility.yul\":8637:8708   */\n      tag_609\n        /* \"#utility.yul\":8705:8706   */\n      0x00\n        /* \"#utility.yul\":8694:8703   */\n      dup4\n        /* \"#utility.yul\":8690:8707   */\n      add\n        /* \"#utility.yul\":8681:8687   */\n      dup5\n        /* \"#utility.yul\":8637:8708   */\n      tag_439\n      jump\t// in\n    tag_609:\n        /* \"#utility.yul\":8493:8715   */\n      swap3\n      swap2\n      pop\n      pop\n      jump\t// out\n        /* \"#utility.yul\":8721:8839   */\n    tag_440:\n        /* \"#utility.yul\":8808:8832   */\n      tag_611\n        /* \"#utility.yul\":8826:8831   */\n      dup2\n        /* \"#utility.yul\":8808:8832   */\n      tag_419\n      jump\t// in\n    tag_611:\n        /* \"#utility.yul\":8803:8806   */\n      dup3\n        /* \"#utility.yul\":8796:8833   */\n      mstore\n        /* \"#utility.yul\":8721:8839   */\n      pop\n      pop\n      jump\t// out\n        /* \"#utility.yul\":8845:9067   */\n    tag_101:\n        /* \"#utility.yul\":8938:8942   */\n      0x00\n        /* \"#utility.yul\":8976:8978   */\n      0x20\n        /* \"#utility.yul\":8965:8974   */\n      dup3\n        /* \"#utility.yul\":8961:8979   */\n      add\n        /* \"#utility.yul\":8953:8979   */\n      swap1\n      pop\n        /* \"#utility.yul\":8989:9060   */\n      tag_613\n        /* \"#utility.yul\":9057:9058   */\n      0x00\n        /* \"#utility.yul\":9046:9055   */\n      dup4\n        /* \"#utility.yul\":9042:9059   */\n      add\n        /* \"#utility.yul\":9033:9039   */\n      dup5\n        /* \"#utility.yul\":8989:9060   */\n      tag_440\n      jump\t// in\n    tag_613:\n        /* \"#utility.yul\":8845:9067   */\n      swap3\n      swap2\n      pop\n      pop\n      jump\t// out\n        /* \"#utility.yul\":9073:9547   */\n    tag_119:\n        /* \"#utility.yul\":9141:9147   */\n      0x00\n        /* \"#utility.yul\":9149:9155   */\n      dup1\n        /* \"#utility.yul\":9198:9200   */\n      0x40\n        /* \"#utility.yul\":9186:9195   */\n      dup4\n        /* \"#utility.yul\":9177:9184   */\n      dup6\n        /* \"#utility.yul\":9173:9196   */\n      sub\n        /* \"#utility.yul\":9169:9201   */\n      slt\n        /* \"#utility.yul\":9166:9285   */\n      iszero\n      tag_615\n      jumpi\n        /* \"#utility.yul\":9204:9283   */\n      tag_616\n      tag_416\n      jump\t// in\n    tag_616:\n        /* \"#utility.yul\":9166:9285   */\n    tag_615:\n        /* \"#utility.yul\":9324:9325   */\n      0x00\n        /* \"#utility.yul\":9349:9402   */\n      tag_617\n        /* \"#utility.yul\":9394:9401   */\n      dup6\n        /* \"#utility.yul\":9385:9391   */\n      dup3\n        /* \"#utility.yul\":9374:9383   */\n      dup7\n        /* \"#utility.yul\":9370:9392   */\n      add\n        /* \"#utility.yul\":9349:9402   */\n      tag_421\n      jump\t// in\n    tag_617:\n        /* \"#utility.yul\":9339:9402   */\n      swap3\n      pop\n        /* \"#utility.yul\":9295:9412   */\n      pop\n        /* \"#utility.yul\":9451:9453   */\n      0x20\n        /* \"#utility.yul\":9477:9530   */\n      tag_618\n        /* \"#utility.yul\":9522:9529   */\n      dup6\n        /* \"#utility.yul\":9513:9519   */\n      dup3\n        /* \"#utility.yul\":9502:9511   */\n      dup7\n        /* \"#utility.yul\":9498:9520   */\n      add\n        /* \"#utility.yul\":9477:9530   */\n      tag_421\n      jump\t// in\n    tag_618:\n        /* \"#utility.yul\":9467:9530   */\n      swap2\n      pop\n        /* \"#utility.yul\":9422:9540   */\n      pop\n        /* \"#utility.yul\":9073:9547   */\n      swap3\n      pop\n      swap3\n      swap1\n      pop\n      jump\t// out\n        /* \"#utility.yul\":9553:9733   */\n    tag_441:\n        /* \"#utility.yul\":9601:9678   */\n      0x4e487b7100000000000000000000000000000000000000000000000000000000\n        /* \"#utility.yul\":9598:9599   */\n      0x00\n        /* \"#utility.yul\":9591:9679   */\n      mstore\n        /* \"#utility.yul\":9698:9702   */\n      0x22\n        /* \"#utility.yul\":9695:9696   */\n      0x04\n        /* \"#utility.yul\":9688:9703   */\n      mstore\n        /* \"#utility.yul\":9722:9726   */\n      0x24\n        /* \"#utility.yul\":9719:9720   */\n      0x00\n        /* \"#utility.yul\":9712:9727   */\n      revert\n        /* \"#utility.yul\":9739:10059   */\n    tag_128:\n        /* \"#utility.yul\":9783:9789   */\n      0x00\n        /* \"#utility.yul\":9820:9821   */\n      0x02\n        /* \"#utility.yul\":9814:9818   */\n      dup3\n        /* \"#utility.yul\":9810:9822   */\n      div\n        /* \"#utility.yul\":9800:9822   */\n      swap1\n      pop\n        /* \"#utility.yul\":9867:9868   */\n      0x01\n        /* \"#utility.yul\":9861:9865   */\n      dup3\n        /* \"#utility.yul\":9857:9869   */\n      and\n        /* \"#utility.yul\":9888:9906   */\n      dup1\n        /* \"#utility.yul\":9878:9959   */\n      tag_621\n      jumpi\n        /* \"#utility.yul\":9944:9948   */\n      0x7f\n        /* \"#utility.yul\":9936:9942   */\n      dup3\n        /* \"#utility.yul\":9932:9949   */\n      and\n        /* \"#utility.yul\":9922:9949   */\n      swap2\n      pop\n        /* \"#utility.yul\":9878:9959   */\n    tag_621:\n        /* \"#utility.yul\":10006:10008   */\n      0x20\n        /* \"#utility.yul\":9998:10004   */\n      dup3\n        /* \"#utility.yul\":9995:10009   */\n      lt\n        /* \"#utility.yul\":9975:9993   */\n      dup2\n        /* \"#utility.yul\":9972:10010   */\n      sub\n        /* \"#utility.yul\":9969:10053   */\n      tag_622\n      jumpi\n        /* \"#utility.yul\":10025:10043   */\n      tag_623\n      tag_441\n      jump\t// in\n    tag_623:\n        /* \"#utility.yul\":9969:10053   */\n    tag_622:\n        /* \"#utility.yul\":9790:10059   */\n      pop\n        /* \"#utility.yul\":9739:10059   */\n      swap2\n      swap1\n      pop\n      jump\t// out\n        /* \"#utility.yul\":10065:10296   */\n    tag_442:\n        /* \"#utility.yul\":10205:10239   */\n      0x46756e6374696f6e206d7573742062652063616c6c6564207468726f75676820\n        /* \"#utility.yul\":10201:10202   */\n      0x00\n        /* \"#utility.yul\":10193:10199   */\n      dup3\n        /* \"#utility.yul\":10189:10203   */\n      add\n        /* \"#utility.yul\":10182:10240   */\n      mstore\n        /* \"#utility.yul\":10274:10288   */\n      0x64656c656761746563616c6c0000000000000000000000000000000000000000\n        /* \"#utility.yul\":10269:10271   */\n      0x20\n        /* \"#utility.yul\":10261:10267   */\n      dup3\n        /* \"#utility.yul\":10257:10272   */\n      add\n        /* \"#utility.yul\":10250:10289   */\n      mstore\n        /* \"#utility.yul\":10065:10296   */\n      pop\n      jump\t// out\n        /* \"#utility.yul\":10302:10668   */\n    tag_443:\n        /* \"#utility.yul\":10444:10447   */\n      0x00\n        /* \"#utility.yul\":10465:10532   */\n      tag_626\n        /* \"#utility.yul\":10529:10531   */\n      0x2c\n        /* \"#utility.yul\":10524:10527   */\n      dup4\n        /* \"#utility.yul\":10465:10532   */\n      tag_411\n      jump\t// in\n    tag_626:\n        /* \"#utility.yul\":10458:10532   */\n      swap2\n      pop\n        /* \"#utility.yul\":10541:10634   */\n      tag_627\n        /* \"#utility.yul\":10630:10633   */\n      dup3\n        /* \"#utility.yul\":10541:10634   */\n      tag_442\n      jump\t// in\n    tag_627:\n        /* \"#utility.yul\":10659:10661   */\n      0x40\n        /* \"#utility.yul\":10654:10657   */\n      dup3\n        /* \"#utility.yul\":10650:10662   */\n      add\n        /* \"#utility.yul\":10643:10662   */\n      swap1\n      pop\n        /* \"#utility.yul\":10302:10668   */\n      swap2\n      swap1\n      pop\n      jump\t// out\n        /* \"#utility.yul\":10674:11093   */\n    tag_149:\n        /* \"#utility.yul\":10840:10844   */\n      0x00\n        /* \"#utility.yul\":10878:10880   */\n      0x20\n        /* \"#utility.yul\":10867:10876   */\n      dup3\n        /* \"#utility.yul\":10863:10881   */\n      add\n        /* \"#utility.yul\":10855:10881   */\n      swap1\n      pop\n        /* \"#utility.yul\":10927:10936   */\n      dup2\n        /* \"#utility.yul\":10921:10925   */\n      dup2\n        /* \"#utility.yul\":10917:10937   */\n      sub\n        /* \"#utility.yul\":10913:10914   */\n      0x00\n        /* \"#utility.yul\":10902:10911   */\n      dup4\n        /* \"#utility.yul\":10898:10915   */\n      add\n        /* \"#utility.yul\":10891:10938   */\n      mstore\n        /* \"#utility.yul\":10955:11086   */\n      tag_629\n        /* \"#utility.yul\":11081:11085   */\n      dup2\n        /* \"#utility.yul\":10955:11086   */\n      tag_443\n      jump\t// in\n    tag_629:\n        /* \"#utility.yul\":10947:11086   */\n      swap1\n      pop\n        /* \"#utility.yul\":10674:11093   */\n      swap2\n      swap1\n      pop\n      jump\t// out\n        /* \"#utility.yul\":11099:11330   */\n    tag_444:\n        /* \"#utility.yul\":11239:11273   */\n      0x46756e6374696f6e206d7573742062652063616c6c6564207468726f75676820\n        /* \"#utility.yul\":11235:11236   */\n      0x00\n        /* \"#utility.yul\":11227:11233   */\n      dup3\n        /* \"#utility.yul\":11223:11237   */\n      add\n        /* \"#utility.yul\":11216:11274   */\n      mstore\n        /* \"#utility.yul\":11308:11322   */\n      0x6163746976652070726f78790000000000000000000000000000000000000000\n        /* \"#utility.yul\":11303:11305   */\n      0x20\n        /* \"#utility.yul\":11295:11301   */\n      dup3\n        /* \"#utility.yul\":11291:11306   */\n      add\n        /* \"#utility.yul\":11284:11323   */\n      mstore\n        /* \"#utility.yul\":11099:11330   */\n      pop\n      jump\t// out\n        /* \"#utility.yul\":11336:11702   */\n    tag_445:\n        /* \"#utility.yul\":11478:11481   */\n      0x00\n        /* \"#utility.yul\":11499:11566   */\n      tag_632\n        /* \"#utility.yul\":11563:11565   */\n      0x2c\n        /* \"#utility.yul\":11558:11561   */\n      dup4\n        /* \"#utility.yul\":11499:11566   */\n      tag_411\n      jump\t// in\n    tag_632:\n        /* \"#utility.yul\":11492:11566   */\n      swap2\n      pop\n        /* \"#utility.yul\":11575:11668   */\n      tag_633\n        /* \"#utility.yul\":11664:11667   */\n      dup3\n        /* \"#utility.yul\":11575:11668   */\n      tag_444\n      jump\t// in\n    tag_633:\n        /* \"#utility.yul\":11693:11695   */\n      0x40\n        /* \"#utility.yul\":11688:11691   */\n      dup3\n        /* \"#utility.yul\":11684:11696   */\n      add\n        /* \"#utility.yul\":11677:11696   */\n      swap1\n      pop\n        /* \"#utility.yul\":11336:11702   */\n      swap2\n      swap1\n      pop\n      jump\t// out\n        /* \"#utility.yul\":11708:12127   */\n    tag_154:\n        /* \"#utility.yul\":11874:11878   */\n      0x00\n        /* \"#utility.yul\":11912:11914   */\n      0x20\n        /* \"#utility.yul\":11901:11910   */\n      dup3\n        /* \"#utility.yul\":11897:11915   */\n      add\n        /* \"#utility.yul\":11889:11915   */\n      swap1\n      pop\n        /* \"#utility.yul\":11961:11970   */\n      dup2\n        /* \"#utility.yul\":11955:11959   */\n      dup2\n        /* \"#utility.yul\":11951:11971   */\n      sub\n        /* \"#utility.yul\":11947:11948   */\n      0x00\n        /* \"#utility.yul\":11936:11945   */\n      dup4\n        /* \"#utility.yul\":11932:11949   */\n      add\n        /* \"#utility.yul\":11925:11972   */\n      mstore\n        /* \"#utility.yul\":11989:12120   */\n      tag_635\n        /* \"#utility.yul\":12115:12119   */\n      dup2\n        /* \"#utility.yul\":11989:12120   */\n      tag_445\n      jump\t// in\n    tag_635:\n        /* \"#utility.yul\":11981:12120   */\n      swap1\n      pop\n        /* \"#utility.yul\":11708:12127   */\n      swap2\n      swap1\n      pop\n      jump\t// out\n        /* \"#utility.yul\":12133:12313   */\n    tag_446:\n        /* \"#utility.yul\":12181:12258   */\n      0x4e487b7100000000000000000000000000000000000000000000000000000000\n        /* \"#utility.yul\":12178:12179   */\n      0x00\n        /* \"#utility.yul\":12171:12259   */\n      mstore\n        /* \"#utility.yul\":12278:12282   */\n      0x11\n        /* \"#utility.yul\":12275:12276   */\n      0x04\n        /* \"#utility.yul\":12268:12283   */\n      mstore\n        /* \"#utility.yul\":12302:12306   */\n      0x24\n        /* \"#utility.yul\":12299:12300   */\n      0x00\n        /* \"#utility.yul\":12292:12307   */\n      revert\n        /* \"#utility.yul\":12319:12510   */\n    tag_169:\n        /* \"#utility.yul\":12359:12362   */\n      0x00\n        /* \"#utility.yul\":12378:12398   */\n      tag_638\n        /* \"#utility.yul\":12396:12397   */\n      dup3\n        /* \"#utility.yul\":12378:12398   */\n      tag_422\n      jump\t// in\n    tag_638:\n        /* \"#utility.yul\":12373:12398   */\n      swap2\n      pop\n        /* \"#utility.yul\":12412:12432   */\n      tag_639\n        /* \"#utility.yul\":12430:12431   */\n      dup4\n        /* \"#utility.yul\":12412:12432   */\n      tag_422\n      jump\t// in\n    tag_639:\n        /* \"#utility.yul\":12407:12432   */\n      swap3\n      pop\n        /* \"#utility.yul\":12455:12456   */\n      dup3\n        /* \"#utility.yul\":12452:12453   */\n      dup3\n        /* \"#utility.yul\":12448:12457   */\n      add\n        /* \"#utility.yul\":12441:12457   */\n      swap1\n      pop\n        /* \"#utility.yul\":12476:12479   */\n      dup1\n        /* \"#utility.yul\":12473:12474   */\n      dup3\n        /* \"#utility.yul\":12470:12480   */\n      gt\n        /* \"#utility.yul\":12467:12503   */\n      iszero\n      tag_640\n      jumpi\n        /* \"#utility.yul\":12483:12501   */\n      tag_641\n      tag_446\n      jump\t// in\n    tag_641:\n        /* \"#utility.yul\":12467:12503   */\n    tag_640:\n        /* \"#utility.yul\":12319:12510   */\n      swap3\n      swap2\n      pop\n      pop\n      jump\t// out\n        /* \"#utility.yul\":12516:12759   */\n    tag_447:\n        /* \"#utility.yul\":12656:12690   */\n      0x555550535570677261646561626c653a206d757374206e6f742062652063616c\n        /* \"#utility.yul\":12652:12653   */\n      0x00\n        /* \"#utility.yul\":12644:12650   */\n      dup3\n        /* \"#utility.yul\":12640:12654   */\n      add\n        /* \"#utility.yul\":12633:12691   */\n      mstore\n        /* \"#utility.yul\":12725:12751   */\n      0x6c6564207468726f7567682064656c656761746563616c6c0000000000000000\n        /* \"#utility.yul\":12720:12722   */\n      0x20\n        /* \"#utility.yul\":12712:12718   */\n      dup3\n        /* \"#utility.yul\":12708:12723   */\n      add\n        /* \"#utility.yul\":12701:12752   */\n      mstore\n        /* \"#utility.yul\":12516:12759   */\n      pop\n      jump\t// out\n        /* \"#utility.yul\":12765:13131   */\n    tag_448:\n        /* \"#utility.yul\":12907:12910   */\n      0x00\n        /* \"#utility.yul\":12928:12995   */\n      tag_644\n        /* \"#utility.yul\":12992:12994   */\n      0x38\n        /* \"#utility.yul\":12987:12990   */\n      dup4\n        /* \"#utility.yul\":12928:12995   */\n      tag_411\n      jump\t// in\n    tag_644:\n        /* \"#utility.yul\":12921:12995   */\n      swap2\n      pop\n        /* \"#utility.yul\":13004:13097   */\n      tag_645\n        /* \"#utility.yul\":13093:13096   */\n      dup3\n        /* \"#utility.yul\":13004:13097   */\n      tag_447\n      jump\t// in\n    tag_645:\n        /* \"#utility.yul\":13122:13124   */\n      0x40\n        /* \"#utility.yul\":13117:13120   */\n      dup3\n        /* \"#utility.yul\":13113:13125   */\n      add\n        /* \"#utility.yul\":13106:13125   */\n      swap1\n      pop\n        /* \"#utility.yul\":12765:13131   */\n      swap2\n      swap1\n      pop\n      jump\t// out\n        /* \"#utility.yul\":13137:13556   */\n    tag_192:\n        /* \"#utility.yul\":13303:13307   */\n      0x00\n        /* \"#utility.yul\":13341:13343   */\n      0x20\n        /* \"#utility.yul\":13330:13339   */\n      dup3\n        /* \"#utility.yul\":13326:13344   */\n      add\n        /* \"#utility.yul\":13318:13344   */\n      swap1\n      pop\n        /* \"#utility.yul\":13390:13399   */\n      dup2\n        /* \"#utility.yul\":13384:13388   */\n      dup2\n        /* \"#utility.yul\":13380:13400   */\n      sub\n        /* \"#utility.yul\":13376:13377   */\n      0x00\n        /* \"#utility.yul\":13365:13374   */\n      dup4\n        /* \"#utility.yul\":13361:13378   */\n      add\n        /* \"#utility.yul\":13354:13401   */\n      mstore\n        /* \"#utility.yul\":13418:13549   */\n      tag_647\n        /* \"#utility.yul\":13544:13548   */\n      dup2\n        /* \"#utility.yul\":13418:13549   */\n      tag_448\n      jump\t// in\n    tag_647:\n        /* \"#utility.yul\":13410:13549   */\n      swap1\n      pop\n        /* \"#utility.yul\":13137:13556   */\n      swap2\n      swap1\n      pop\n      jump\t// out\n        /* \"#utility.yul\":13562:13795   */\n    tag_449:\n        /* \"#utility.yul\":13702:13736   */\n      0x496e697469616c697a61626c653a20636f6e747261637420697320616c726561\n        /* \"#utility.yul\":13698:13699   */\n      0x00\n        /* \"#utility.yul\":13690:13696   */\n      dup3\n        /* \"#utility.yul\":13686:13700   */\n      add\n        /* \"#utility.yul\":13679:13737   */\n      mstore\n        /* \"#utility.yul\":13771:13787   */\n      0x647920696e697469616c697a6564000000000000000000000000000000000000\n        /* \"#utility.yul\":13766:13768   */\n      0x20\n        /* \"#utility.yul\":13758:13764   */\n      dup3\n        /* \"#utility.yul\":13754:13769   */\n      add\n        /* \"#utility.yul\":13747:13788   */\n      mstore\n        /* \"#utility.yul\":13562:13795   */\n      pop\n      jump\t// out\n        /* \"#utility.yul\":13801:14167   */\n    tag_450:\n        /* \"#utility.yul\":13943:13946   */\n      0x00\n        /* \"#utility.yul\":13964:14031   */\n      tag_650\n        /* \"#utility.yul\":14028:14030   */\n      0x2e\n        /* \"#utility.yul\":14023:14026   */\n      dup4\n        /* \"#utility.yul\":13964:14031   */\n      tag_411\n      jump\t// in\n    tag_650:\n        /* \"#utility.yul\":13957:14031   */\n      swap2\n      pop\n        /* \"#utility.yul\":14040:14133   */\n      tag_651\n        /* \"#utility.yul\":14129:14132   */\n      dup3\n        /* \"#utility.yul\":14040:14133   */\n      tag_449\n      jump\t// in\n    tag_651:\n        /* \"#utility.yul\":14158:14160   */\n      0x40\n        /* \"#utility.yul\":14153:14156   */\n      dup3\n        /* \"#utility.yul\":14149:14161   */\n      add\n        /* \"#utility.yul\":14142:14161   */\n      swap1\n      pop\n        /* \"#utility.yul\":13801:14167   */\n      swap2\n      swap1\n      pop\n      jump\t// out\n        /* \"#utility.yul\":14173:14592   */\n    tag_212:\n        /* \"#utility.yul\":14339:14343   */\n      0x00\n        /* \"#utility.yul\":14377:14379   */\n      0x20\n        /* \"#utility.yul\":14366:14375   */\n      dup3\n        /* \"#utility.yul\":14362:14380   */\n      add\n        /* \"#utility.yul\":14354:14380   */\n      swap1\n      pop\n        /* \"#utility.yul\":14426:14435   */\n      dup2\n        /* \"#utility.yul\":14420:14424   */\n      dup2\n        /* \"#utility.yul\":14416:14436   */\n      sub\n        /* \"#utility.yul\":14412:14413   */\n      0x00\n        /* \"#utility.yul\":14401:14410   */\n      dup4\n        /* \"#utility.yul\":14397:14414   */\n      add\n        /* \"#utility.yul\":14390:14437   */\n      mstore\n        /* \"#utility.yul\":14454:14585   */\n      tag_653\n        /* \"#utility.yul\":14580:14584   */\n      dup2\n        /* \"#utility.yul\":14454:14585   */\n      tag_450\n      jump\t// in\n    tag_653:\n        /* \"#utility.yul\":14446:14585   */\n      swap1\n      pop\n        /* \"#utility.yul\":14173:14592   */\n      swap2\n      swap1\n      pop\n      jump\t// out\n        /* \"#utility.yul\":14598:14683   */\n    tag_451:\n        /* \"#utility.yul\":14643:14650   */\n      0x00\n        /* \"#utility.yul\":14672:14677   */\n      dup2\n        /* \"#utility.yul\":14661:14677   */\n      swap1\n      pop\n        /* \"#utility.yul\":14598:14683   */\n      swap2\n      swap1\n      pop\n      jump\t// out\n        /* \"#utility.yul\":14689:14749   */\n    tag_452:\n        /* \"#utility.yul\":14717:14720   */\n      0x00\n        /* \"#utility.yul\":14738:14743   */\n      dup2\n        /* \"#utility.yul\":14731:14743   */\n      swap1\n      pop\n        /* \"#utility.yul\":14689:14749   */\n      swap2\n      swap1\n      pop\n      jump\t// out\n        /* \"#utility.yul\":14755:14909   */\n    tag_453:\n        /* \"#utility.yul\":14811:14820   */\n      0x00\n        /* \"#utility.yul\":14844:14903   */\n      tag_657\n        /* \"#utility.yul\":14860:14902   */\n      tag_658\n        /* \"#utility.yul\":14869:14901   */\n      tag_659\n        /* \"#utility.yul\":14895:14900   */\n      dup5\n        /* \"#utility.yul\":14869:14901   */\n      tag_451\n      jump\t// in\n    tag_659:\n        /* \"#utility.yul\":14860:14902   */\n      tag_452\n      jump\t// in\n    tag_658:\n        /* \"#utility.yul\":14844:14903   */\n      tag_428\n      jump\t// in\n    tag_657:\n        /* \"#utility.yul\":14831:14903   */\n      swap1\n      pop\n        /* \"#utility.yul\":14755:14909   */\n      swap2\n      swap1\n      pop\n      jump\t// out\n        /* \"#utility.yul\":14915:15058   */\n    tag_454:\n        /* \"#utility.yul\":15008:15051   */\n      tag_661\n        /* \"#utility.yul\":15045:15050   */\n      dup2\n        /* \"#utility.yul\":15008:15051   */\n      tag_453\n      jump\t// in\n    tag_661:\n        /* \"#utility.yul\":15003:15006   */\n      dup3\n        /* \"#utility.yul\":14996:15052   */\n      mstore\n        /* \"#utility.yul\":14915:15058   */\n      pop\n      pop\n      jump\t// out\n        /* \"#utility.yul\":15064:15298   */\n    tag_225:\n        /* \"#utility.yul\":15163:15167   */\n      0x00\n        /* \"#utility.yul\":15201:15203   */\n      0x20\n        /* \"#utility.yul\":15190:15199   */\n      dup3\n        /* \"#utility.yul\":15186:15204   */\n      add\n        /* \"#utility.yul\":15178:15204   */\n      swap1\n      pop\n        /* \"#utility.yul\":15214:15291   */\n      tag_663\n        /* \"#utility.yul\":15288:15289   */\n      0x00\n        /* \"#utility.yul\":15277:15286   */\n      dup4\n        /* \"#utility.yul\":15273:15290   */\n      add\n        /* \"#utility.yul\":15264:15270   */\n      dup5\n        /* \"#utility.yul\":15214:15291   */\n      tag_454\n      jump\t// in\n    tag_663:\n        /* \"#utility.yul\":15064:15298   */\n      swap3\n      swap2\n      pop\n      pop\n      jump\t// out\n        /* \"#utility.yul\":15304:15528   */\n    tag_455:\n        /* \"#utility.yul\":15444:15478   */\n      0x45524332303a2064656372656173656420616c6c6f77616e63652062656c6f77\n        /* \"#utility.yul\":15440:15441   */\n      0x00\n        /* \"#utility.yul\":15432:15438   */\n      dup3\n        /* \"#utility.yul\":15428:15442   */\n      add\n        /* \"#utility.yul\":15421:15479   */\n      mstore\n        /* \"#utility.yul\":15513:15520   */\n      0x207a65726f000000000000000000000000000000000000000000000000000000\n        /* \"#utility.yul\":15508:15510   */\n      0x20\n        /* \"#utility.yul\":15500:15506   */\n      dup3\n        /* \"#utility.yul\":15496:15511   */\n      add\n        /* \"#utility.yul\":15489:15521   */\n      mstore\n        /* \"#utility.yul\":15304:15528   */\n      pop\n      jump\t// out\n        /* \"#utility.yul\":15534:15900   */\n    tag_456:\n        /* \"#utility.yul\":15676:15679   */\n      0x00\n        /* \"#utility.yul\":15697:15764   */\n      tag_666\n        /* \"#utility.yul\":15761:15763   */\n      0x25\n        /* \"#utility.yul\":15756:15759   */\n      dup4\n        /* \"#utility.yul\":15697:15764   */\n      tag_411\n      jump\t// in\n    tag_666:\n        /* \"#utility.yul\":15690:15764   */\n      swap2\n      pop\n        /* \"#utility.yul\":15773:15866   */\n      tag_667\n        /* \"#utility.yul\":15862:15865   */\n      dup3\n        /* \"#utility.yul\":15773:15866   */\n      tag_455\n      jump\t// in\n    tag_667:\n        /* \"#utility.yul\":15891:15893   */\n      0x40\n        /* \"#utility.yul\":15886:15889   */\n      dup3\n        /* \"#utility.yul\":15882:15894   */\n      add\n        /* \"#utility.yul\":15875:15894   */\n      swap1\n      pop\n        /* \"#utility.yul\":15534:15900   */\n      swap2\n      swap1\n      pop\n      jump\t// out\n        /* \"#utility.yul\":15906:16325   */\n    tag_238:\n        /* \"#utility.yul\":16072:16076   */\n      0x00\n        /* \"#utility.yul\":16110:16112   */\n      0x20\n        /* \"#utility.yul\":16099:16108   */\n      dup3\n        /* \"#utility.yul\":16095:16113   */\n      add\n        /* \"#utility.yul\":16087:16113   */\n      swap1\n      pop\n        /* \"#utility.yul\":16159:16168   */\n      dup2\n        /* \"#utility.yul\":16153:16157   */\n      dup2\n        /* \"#utility.yul\":16149:16169   */\n      sub\n        /* \"#utility.yul\":16145:16146   */\n      0x00\n        /* \"#utility.yul\":16134:16143   */\n      dup4\n        /* \"#utility.yul\":16130:16147   */\n      add\n        /* \"#utility.yul\":16123:16170   */\n      mstore\n        /* \"#utility.yul\":16187:16318   */\n      tag_669\n        /* \"#utility.yul\":16313:16317   */\n      dup2\n        /* \"#utility.yul\":16187:16318   */\n      tag_456\n      jump\t// in\n    tag_669:\n        /* \"#utility.yul\":16179:16318   */\n      swap1\n      pop\n        /* \"#utility.yul\":15906:16325   */\n      swap2\n      swap1\n      pop\n      jump\t// out\n        /* \"#utility.yul\":16331:16556   */\n    tag_457:\n        /* \"#utility.yul\":16471:16505   */\n      0x4f776e61626c653a206e6577206f776e657220697320746865207a65726f2061\n        /* \"#utility.yul\":16467:16468   */\n      0x00\n        /* \"#utility.yul\":16459:16465   */\n      dup3\n        /* \"#utility.yul\":16455:16469   */\n      add\n        /* \"#utility.yul\":16448:16506   */\n      mstore\n        /* \"#utility.yul\":16540:16548   */\n      0x6464726573730000000000000000000000000000000000000000000000000000\n        /* \"#utility.yul\":16535:16537   */\n      0x20\n        /* \"#utility.yul\":16527:16533   */\n      dup3\n        /* \"#utility.yul\":16523:16538   */\n      add\n        /* \"#utility.yul\":16516:16549   */\n      mstore\n        /* \"#utility.yul\":16331:16556   */\n      pop\n      jump\t// out\n        /* \"#utility.yul\":16562:16928   */\n    tag_458:\n        /* \"#utility.yul\":16704:16707   */\n      0x00\n        /* \"#utility.yul\":16725:16792   */\n      tag_672\n        /* \"#utility.yul\":16789:16791   */\n      0x26\n        /* \"#utility.yul\":16784:16787   */\n      dup4\n        /* \"#utility.yul\":16725:16792   */\n      tag_411\n      jump\t// in\n    tag_672:\n        /* \"#utility.yul\":16718:16792   */\n      swap2\n      pop\n        /* \"#utility.yul\":16801:16894   */\n      tag_673\n        /* \"#utility.yul\":16890:16893   */\n      dup3\n        /* \"#utility.yul\":16801:16894   */\n      tag_457\n      jump\t// in\n    tag_673:\n        /* \"#utility.yul\":16919:16921   */\n      0x40\n        /* \"#utility.yul\":16914:16917   */\n      dup3\n        /* \"#utility.yul\":16910:16922   */\n      add\n        /* \"#utility.yul\":16903:16922   */\n      swap1\n      pop\n        /* \"#utility.yul\":16562:16928   */\n      swap2\n      swap1\n      pop\n      jump\t// out\n        /* \"#utility.yul\":16934:17353   */\n    tag_249:\n        /* \"#utility.yul\":17100:17104   */\n      0x00\n        /* \"#utility.yul\":17138:17140   */\n      0x20\n        /* \"#utility.yul\":17127:17136   */\n      dup3\n        /* \"#utility.yul\":17123:17141   */\n      add\n        /* \"#utility.yul\":17115:17141   */\n      swap1\n      pop\n        /* \"#utility.yul\":17187:17196   */\n      dup2\n        /* \"#utility.yul\":17181:17185   */\n      dup2\n        /* \"#utility.yul\":17177:17197   */\n      sub\n        /* \"#utility.yul\":17173:17174   */\n      0x00\n        /* \"#utility.yul\":17162:17171   */\n      dup4\n        /* \"#utility.yul\":17158:17175   */\n      add\n        /* \"#utility.yul\":17151:17198   */\n      mstore\n        /* \"#utility.yul\":17215:17346   */\n      tag_675\n        /* \"#utility.yul\":17341:17345   */\n      dup2\n        /* \"#utility.yul\":17215:17346   */\n      tag_458\n      jump\t// in\n    tag_675:\n        /* \"#utility.yul\":17207:17346   */\n      swap1\n      pop\n        /* \"#utility.yul\":16934:17353   */\n      swap2\n      swap1\n      pop\n      jump\t// out\n        /* \"#utility.yul\":17359:17582   */\n    tag_459:\n        /* \"#utility.yul\":17499:17533   */\n      0x45524332303a20617070726f76652066726f6d20746865207a65726f20616464\n        /* \"#utility.yul\":17495:17496   */\n      0x00\n        /* \"#utility.yul\":17487:17493   */\n      dup3\n        /* \"#utility.yul\":17483:17497   */\n      add\n        /* \"#utility.yul\":17476:17534   */\n      mstore\n        /* \"#utility.yul\":17568:17574   */\n      0x7265737300000000000000000000000000000000000000000000000000000000\n        /* \"#utility.yul\":17563:17565   */\n      0x20\n        /* \"#utility.yul\":17555:17561   */\n      dup3\n        /* \"#utility.yul\":17551:17566   */\n      add\n        /* \"#utility.yul\":17544:17575   */\n      mstore\n        /* \"#utility.yul\":17359:17582   */\n      pop\n      jump\t// out\n        /* \"#utility.yul\":17588:17954   */\n    tag_460:\n        /* \"#utility.yul\":17730:17733   */\n      0x00\n        /* \"#utility.yul\":17751:17818   */\n      tag_678\n        /* \"#utility.yul\":17815:17817   */\n      0x24\n        /* \"#utility.yul\":17810:17813   */\n      dup4\n        /* \"#utility.yul\":17751:17818   */\n      tag_411\n      jump\t// in\n    tag_678:\n        /* \"#utility.yul\":17744:17818   */\n      swap2\n      pop\n        /* \"#utility.yul\":17827:17920   */\n      tag_679\n        /* \"#utility.yul\":17916:17919   */\n      dup3\n        /* \"#utility.yul\":17827:17920   */\n      tag_459\n      jump\t// in\n    tag_679:\n        /* \"#utility.yul\":17945:17947   */\n      0x40\n        /* \"#utility.yul\":17940:17943   */\n      dup3\n        /* \"#utility.yul\":17936:17948   */\n      add\n        /* \"#utility.yul\":17929:17948   */\n      swap1\n      pop\n        /* \"#utility.yul\":17588:17954   */\n      swap2\n      swap1\n      pop\n      jump\t// out\n        /* \"#utility.yul\":17960:18379   */\n    tag_255:\n        /* \"#utility.yul\":18126:18130   */\n      0x00\n        /* \"#utility.yul\":18164:18166   */\n      0x20\n        /* \"#utility.yul\":18153:18162   */\n      dup3\n        /* \"#utility.yul\":18149:18167   */\n      add\n        /* \"#utility.yul\":18141:18167   */\n      swap1\n      pop\n        /* \"#utility.yul\":18213:18222   */\n      dup2\n        /* \"#utility.yul\":18207:18211   */\n      dup2\n        /* \"#utility.yul\":18203:18223   */\n      sub\n        /* \"#utility.yul\":18199:18200   */\n      0x00\n        /* \"#utility.yul\":18188:18197   */\n      dup4\n        /* \"#utility.yul\":18184:18201   */\n      add\n        /* \"#utility.yul\":18177:18224   */\n      mstore\n        /* \"#utility.yul\":18241:18372   */\n      tag_681\n        /* \"#utility.yul\":18367:18371   */\n      dup2\n        /* \"#utility.yul\":18241:18372   */\n      tag_460\n      jump\t// in\n    tag_681:\n        /* \"#utility.yul\":18233:18372   */\n      swap1\n      pop\n        /* \"#utility.yul\":17960:18379   */\n      swap2\n      swap1\n      pop\n      jump\t// out\n        /* \"#utility.yul\":18385:18606   */\n    tag_461:\n        /* \"#utility.yul\":18525:18559   */\n      0x45524332303a20617070726f766520746f20746865207a65726f206164647265\n        /* \"#utility.yul\":18521:18522   */\n      0x00\n        /* \"#utility.yul\":18513:18519   */\n      dup3\n        /* \"#utility.yul\":18509:18523   */\n      add\n        /* \"#utility.yul\":18502:18560   */\n      mstore\n        /* \"#utility.yul\":18594:18598   */\n      0x7373000000000000000000000000000000000000000000000000000000000000\n        /* \"#utility.yul\":18589:18591   */\n      0x20\n        /* \"#utility.yul\":18581:18587   */\n      dup3\n        /* \"#utility.yul\":18577:18592   */\n      add\n        /* \"#utility.yul\":18570:18599   */\n      mstore\n        /* \"#utility.yul\":18385:18606   */\n      pop\n      jump\t// out\n        /* \"#utility.yul\":18612:18978   */\n    tag_462:\n        /* \"#utility.yul\":18754:18757   */\n      0x00\n        /* \"#utility.yul\":18775:18842   */\n      tag_684\n        /* \"#utility.yul\":18839:18841   */\n      0x22\n        /* \"#utility.yul\":18834:18837   */\n      dup4\n        /* \"#utility.yul\":18775:18842   */\n      tag_411\n      jump\t// in\n    tag_684:\n        /* \"#utility.yul\":18768:18842   */\n      swap2\n      pop\n        /* \"#utility.yul\":18851:18944   */\n      tag_685\n        /* \"#utility.yul\":18940:18943   */\n      dup3\n        /* \"#utility.yul\":18851:18944   */\n      tag_461\n      jump\t// in\n    tag_685:\n        /* \"#utility.yul\":18969:18971   */\n      0x40\n        /* \"#utility.yul\":18964:18967   */\n      dup3\n        /* \"#utility.yul\":18960:18972   */\n      add\n        /* \"#utility.yul\":18953:18972   */\n      swap1\n      pop\n        /* \"#utility.yul\":18612:18978   */\n      swap2\n      swap1\n      pop\n      jump\t// out\n        /* \"#utility.yul\":18984:19403   */\n    tag_258:\n        /* \"#utility.yul\":19150:19154   */\n      0x00\n        /* \"#utility.yul\":19188:19190   */\n      0x20\n        /* \"#utility.yul\":19177:19186   */\n      dup3\n        /* \"#utility.yul\":19173:19191   */\n      add\n        /* \"#utility.yul\":19165:19191   */\n      swap1\n      pop\n        /* \"#utility.yul\":19237:19246   */\n      dup2\n        /* \"#utility.yul\":19231:19235   */\n      dup2\n        /* \"#utility.yul\":19227:19247   */\n      sub\n        /* \"#utility.yul\":19223:19224   */\n      0x00\n        /* \"#utility.yul\":19212:19221   */\n      dup4\n        /* \"#utility.yul\":19208:19225   */\n      add\n        /* \"#utility.yul\":19201:19248   */\n      mstore\n        /* \"#utility.yul\":19265:19396   */\n      tag_687\n        /* \"#utility.yul\":19391:19395   */\n      dup2\n        /* \"#utility.yul\":19265:19396   */\n      tag_462\n      jump\t// in\n    tag_687:\n        /* \"#utility.yul\":19257:19396   */\n      swap1\n      pop\n        /* \"#utility.yul\":18984:19403   */\n      swap2\n      swap1\n      pop\n      jump\t// out\n        /* \"#utility.yul\":19409:19588   */\n    tag_463:\n        /* \"#utility.yul\":19549:19580   */\n      0x45524332303a20696e73756666696369656e7420616c6c6f77616e6365000000\n        /* \"#utility.yul\":19545:19546   */\n      0x00\n        /* \"#utility.yul\":19537:19543   */\n      dup3\n        /* \"#utility.yul\":19533:19547   */\n      add\n        /* \"#utility.yul\":19526:19581   */\n      mstore\n        /* \"#utility.yul\":19409:19588   */\n      pop\n      jump\t// out\n        /* \"#utility.yul\":19594:19960   */\n    tag_464:\n        /* \"#utility.yul\":19736:19739   */\n      0x00\n        /* \"#utility.yul\":19757:19824   */\n      tag_690\n        /* \"#utility.yul\":19821:19823   */\n      0x1d\n        /* \"#utility.yul\":19816:19819   */\n      dup4\n        /* \"#utility.yul\":19757:19824   */\n      tag_411\n      jump\t// in\n    tag_690:\n        /* \"#utility.yul\":19750:19824   */\n      swap2\n      pop\n        /* \"#utility.yul\":19833:19926   */\n      tag_691\n        /* \"#utility.yul\":19922:19925   */\n      dup3\n        /* \"#utility.yul\":19833:19926   */\n      tag_463\n      jump\t// in\n    tag_691:\n        /* \"#utility.yul\":19951:19953   */\n      0x20\n        /* \"#utility.yul\":19946:19949   */\n      dup3\n        /* \"#utility.yul\":19942:19954   */\n      add\n        /* \"#utility.yul\":19935:19954   */\n      swap1\n      pop\n        /* \"#utility.yul\":19594:19960   */\n      swap2\n      swap1\n      pop\n      jump\t// out\n        /* \"#utility.yul\":19966:20385   */\n    tag_265:\n        /* \"#utility.yul\":20132:20136   */\n      0x00\n        /* \"#utility.yul\":20170:20172   */\n      0x20\n        /* \"#utility.yul\":20159:20168   */\n      dup3\n        /* \"#utility.yul\":20155:20173   */\n      add\n        /* \"#utility.yul\":20147:20173   */\n      swap1\n      pop\n        /* \"#utility.yul\":20219:20228   */\n      dup2\n        /* \"#utility.yul\":20213:20217   */\n      dup2\n        /* \"#utility.yul\":20209:20229   */\n      sub\n        /* \"#utility.yul\":20205:20206   */\n      0x00\n        /* \"#utility.yul\":20194:20203   */\n      dup4\n        /* \"#utility.yul\":20190:20207   */\n      add\n        /* \"#utility.yul\":20183:20230   */\n      mstore\n        /* \"#utility.yul\":20247:20378   */\n      tag_693\n        /* \"#utility.yul\":20373:20377   */\n      dup2\n        /* \"#utility.yul\":20247:20378   */\n      tag_464\n      jump\t// in\n    tag_693:\n        /* \"#utility.yul\":20239:20378   */\n      swap1\n      pop\n        /* \"#utility.yul\":19966:20385   */\n      swap2\n      swap1\n      pop\n      jump\t// out\n        /* \"#utility.yul\":20391:20615   */\n    tag_465:\n        /* \"#utility.yul\":20531:20565   */\n      0x45524332303a207472616e736665722066726f6d20746865207a65726f206164\n        /* \"#utility.yul\":20527:20528   */\n      0x00\n        /* \"#utility.yul\":20519:20525   */\n      dup3\n        /* \"#utility.yul\":20515:20529   */\n      add\n        /* \"#utility.yul\":20508:20566   */\n      mstore\n        /* \"#utility.yul\":20600:20607   */\n      0x6472657373000000000000000000000000000000000000000000000000000000\n        /* \"#utility.yul\":20595:20597   */\n      0x20\n        /* \"#utility.yul\":20587:20593   */\n      dup3\n        /* \"#utility.yul\":20583:20598   */\n      add\n        /* \"#utility.yul\":20576:20608   */\n      mstore\n        /* \"#utility.yul\":20391:20615   */\n      pop\n      jump\t// out\n        /* \"#utility.yul\":20621:20987   */\n    tag_466:\n        /* \"#utility.yul\":20763:20766   */\n      0x00\n        /* \"#utility.yul\":20784:20851   */\n      tag_696\n        /* \"#utility.yul\":20848:20850   */\n      0x25\n        /* \"#utility.yul\":20843:20846   */\n      dup4\n        /* \"#utility.yul\":20784:20851   */\n      tag_411\n      jump\t// in\n    tag_696:\n        /* \"#utility.yul\":20777:20851   */\n      swap2\n      pop\n        /* \"#utility.yul\":20860:20953   */\n      tag_697\n        /* \"#utility.yul\":20949:20952   */\n      dup3\n        /* \"#utility.yul\":20860:20953   */\n      tag_465\n      jump\t// in\n    tag_697:\n        /* \"#utility.yul\":20978:20980   */\n      0x40\n        /* \"#utility.yul\":20973:20976   */\n      dup3\n        /* \"#utility.yul\":20969:20981   */\n      add\n        /* \"#utility.yul\":20962:20981   */\n      swap1\n      pop\n        /* \"#utility.yul\":20621:20987   */\n      swap2\n      swap1\n      pop\n      jump\t// out\n        /* \"#utility.yul\":20993:21412   */\n    tag_270:\n        /* \"#utility.yul\":21159:21163   */\n      0x00\n        /* \"#utility.yul\":21197:21199   */\n      0x20\n        /* \"#utility.yul\":21186:21195   */\n      dup3\n        /* \"#utility.yul\":21182:21200   */\n      add\n        /* \"#utility.yul\":21174:21200   */\n      swap1\n      pop\n        /* \"#utility.yul\":21246:21255   */\n      dup2\n        /* \"#utility.yul\":21240:21244   */\n      dup2\n        /* \"#utility.yul\":21236:21256   */\n      sub\n        /* \"#utility.yul\":21232:21233   */\n      0x00\n        /* \"#utility.yul\":21221:21230   */\n      dup4\n        /* \"#utility.yul\":21217:21234   */\n      add\n        /* \"#utility.yul\":21210:21257   */\n      mstore\n        /* \"#utility.yul\":21274:21405   */\n      tag_699\n        /* \"#utility.yul\":21400:21404   */\n      dup2\n        /* \"#utility.yul\":21274:21405   */\n      tag_466\n      jump\t// in\n    tag_699:\n        /* \"#utility.yul\":21266:21405   */\n      swap1\n      pop\n        /* \"#utility.yul\":20993:21412   */\n      swap2\n      swap1\n      pop\n      jump\t// out\n        /* \"#utility.yul\":21418:21640   */\n    tag_467:\n        /* \"#utility.yul\":21558:21592   */\n      0x45524332303a207472616e7366657220746f20746865207a65726f2061646472\n        /* \"#utility.yul\":21554:21555   */\n      0x00\n        /* \"#utility.yul\":21546:21552   */\n      dup3\n        /* \"#utility.yul\":21542:21556   */\n      add\n        /* \"#utility.yul\":21535:21593   */\n      mstore\n        /* \"#utility.yul\":21627:21632   */\n      0x6573730000000000000000000000000000000000000000000000000000000000\n        /* \"#utility.yul\":21622:21624   */\n      0x20\n        /* \"#utility.yul\":21614:21620   */\n      dup3\n        /* \"#utility.yul\":21610:21625   */\n      add\n        /* \"#utility.yul\":21603:21633   */\n      mstore\n        /* \"#utility.yul\":21418:21640   */\n      pop\n      jump\t// out\n        /* \"#utility.yul\":21646:22012   */\n    tag_468:\n        /* \"#utility.yul\":21788:21791   */\n      0x00\n        /* \"#utility.yul\":21809:21876   */\n      tag_702\n        /* \"#utility.yul\":21873:21875   */\n      0x23\n        /* \"#utility.yul\":21868:21871   */\n      dup4\n        /* \"#utility.yul\":21809:21876   */\n      tag_411\n      jump\t// in\n    tag_702:\n        /* \"#utility.yul\":21802:21876   */\n      swap2\n      pop\n        /* \"#utility.yul\":21885:21978   */\n      tag_703\n        /* \"#utility.yul\":21974:21977   */\n      dup3\n        /* \"#utility.yul\":21885:21978   */\n      tag_467\n      jump\t// in\n    tag_703:\n        /* \"#utility.yul\":22003:22005   */\n      0x40\n        /* \"#utility.yul\":21998:22001   */\n      dup3\n        /* \"#utility.yul\":21994:22006   */\n      add\n        /* \"#utility.yul\":21987:22006   */\n      swap1\n      pop\n        /* \"#utility.yul\":21646:22012   */\n      swap2\n      swap1\n      pop\n      jump\t// out\n        /* \"#utility.yul\":22018:22437   */\n    tag_273:\n        /* \"#utility.yul\":22184:22188   */\n      0x00\n        /* \"#utility.yul\":22222:22224   */\n      0x20\n        /* \"#utility.yul\":22211:22220   */\n      dup3\n        /* \"#utility.yul\":22207:22225   */\n      add\n        /* \"#utility.yul\":22199:22225   */\n      swap1\n      pop\n        /* \"#utility.yul\":22271:22280   */\n      dup2\n        /* \"#utility.yul\":22265:22269   */\n      dup2\n        /* \"#utility.yul\":22261:22281   */\n      sub\n        /* \"#utility.yul\":22257:22258   */\n      0x00\n        /* \"#utility.yul\":22246:22255   */\n      dup4\n        /* \"#utility.yul\":22242:22259   */\n      add\n        /* \"#utility.yul\":22235:22282   */\n      mstore\n        /* \"#utility.yul\":22299:22430   */\n      tag_705\n        /* \"#utility.yul\":22425:22429   */\n      dup2\n        /* \"#utility.yul\":22299:22430   */\n      tag_468\n      jump\t// in\n    tag_705:\n        /* \"#utility.yul\":22291:22430   */\n      swap1\n      pop\n        /* \"#utility.yul\":22018:22437   */\n      swap2\n      swap1\n      pop\n      jump\t// out\n        /* \"#utility.yul\":22443:22668   */\n    tag_469:\n        /* \"#utility.yul\":22583:22617   */\n      0x45524332303a207472616e7366657220616d6f756e7420657863656564732062\n        /* \"#utility.yul\":22579:22580   */\n      0x00\n        /* \"#utility.yul\":22571:22577   */\n      dup3\n        /* \"#utility.yul\":22567:22581   */\n      add\n        /* \"#utility.yul\":22560:22618   */\n      mstore\n        /* \"#utility.yul\":22652:22660   */\n      0x616c616e63650000000000000000000000000000000000000000000000000000\n        /* \"#utility.yul\":22647:22649   */\n      0x20\n        /* \"#utility.yul\":22639:22645   */\n      dup3\n        /* \"#utility.yul\":22635:22650   */\n      add\n        /* \"#utility.yul\":22628:22661   */\n      mstore\n        /* \"#utility.yul\":22443:22668   */\n      pop\n      jump\t// out\n        /* \"#utility.yul\":22674:23040   */\n    tag_470:\n        /* \"#utility.yul\":22816:22819   */\n      0x00\n        /* \"#utility.yul\":22837:22904   */\n      tag_708\n        /* \"#utility.yul\":22901:22903   */\n      0x26\n        /* \"#utility.yul\":22896:22899   */\n      dup4\n        /* \"#utility.yul\":22837:22904   */\n      tag_411\n      jump\t// in\n    tag_708:\n        /* \"#utility.yul\":22830:22904   */\n      swap2\n      pop\n        /* \"#utility.yul\":22913:23006   */\n      tag_709\n        /* \"#utility.yul\":23002:23005   */\n      dup3\n        /* \"#utility.yul\":22913:23006   */\n      tag_469\n      jump\t// in\n    tag_709:\n        /* \"#utility.yul\":23031:23033   */\n      0x40\n        /* \"#utility.yul\":23026:23029   */\n      dup3\n        /* \"#utility.yul\":23022:23034   */\n      add\n        /* \"#utility.yul\":23015:23034   */\n      swap1\n      pop\n        /* \"#utility.yul\":22674:23040   */\n      swap2\n      swap1\n      pop\n      jump\t// out\n        /* \"#utility.yul\":23046:23465   */\n    tag_278:\n        /* \"#utility.yul\":23212:23216   */\n      0x00\n        /* \"#utility.yul\":23250:23252   */\n      0x20\n        /* \"#utility.yul\":23239:23248   */\n      dup3\n        /* \"#utility.yul\":23235:23253   */\n      add\n        /* \"#utility.yul\":23227:23253   */\n      swap1\n      pop\n        /* \"#utility.yul\":23299:23308   */\n      dup2\n        /* \"#utility.yul\":23293:23297   */\n      dup2\n        /* \"#utility.yul\":23289:23309   */\n      sub\n        /* \"#utility.yul\":23285:23286   */\n      0x00\n        /* \"#utility.yul\":23274:23283   */\n      dup4\n        /* \"#utility.yul\":23270:23287   */\n      add\n        /* \"#utility.yul\":23263:23310   */\n      mstore\n        /* \"#utility.yul\":23327:23458   */\n      tag_711\n        /* \"#utility.yul\":23453:23457   */\n      dup2\n        /* \"#utility.yul\":23327:23458   */\n      tag_470\n      jump\t// in\n    tag_711:\n        /* \"#utility.yul\":23319:23458   */\n      swap1\n      pop\n        /* \"#utility.yul\":23046:23465   */\n      swap2\n      swap1\n      pop\n      jump\t// out\n        /* \"#utility.yul\":23471:23593   */\n    tag_471:\n        /* \"#utility.yul\":23544:23568   */\n      tag_713\n        /* \"#utility.yul\":23562:23567   */\n      dup2\n        /* \"#utility.yul\":23544:23568   */\n      tag_438\n      jump\t// in\n    tag_713:\n        /* \"#utility.yul\":23537:23542   */\n      dup2\n        /* \"#utility.yul\":23534:23569   */\n      eq\n        /* \"#utility.yul\":23524:23587   */\n      tag_714\n      jumpi\n        /* \"#utility.yul\":23583:23584   */\n      0x00\n        /* \"#utility.yul\":23580:23581   */\n      dup1\n        /* \"#utility.yul\":23573:23585   */\n      revert\n        /* \"#utility.yul\":23524:23587   */\n    tag_714:\n        /* \"#utility.yul\":23471:23593   */\n      pop\n      jump\t// out\n        /* \"#utility.yul\":23599:23742   */\n    tag_472:\n        /* \"#utility.yul\":23656:23661   */\n      0x00\n        /* \"#utility.yul\":23687:23693   */\n      dup2\n        /* \"#utility.yul\":23681:23694   */\n      mload\n        /* \"#utility.yul\":23672:23694   */\n      swap1\n      pop\n        /* \"#utility.yul\":23703:23736   */\n      tag_716\n        /* \"#utility.yul\":23730:23735   */\n      dup2\n        /* \"#utility.yul\":23703:23736   */\n      tag_471\n      jump\t// in\n    tag_716:\n        /* \"#utility.yul\":23599:23742   */\n      swap3\n      swap2\n      pop\n      pop\n      jump\t// out\n        /* \"#utility.yul\":23748:24099   */\n    tag_297:\n        /* \"#utility.yul\":23818:23824   */\n      0x00\n        /* \"#utility.yul\":23867:23869   */\n      0x20\n        /* \"#utility.yul\":23855:23864   */\n      dup3\n        /* \"#utility.yul\":23846:23853   */\n      dup5\n        /* \"#utility.yul\":23842:23865   */\n      sub\n        /* \"#utility.yul\":23838:23870   */\n      slt\n        /* \"#utility.yul\":23835:23954   */\n      iszero\n      tag_718\n      jumpi\n        /* \"#utility.yul\":23873:23952   */\n      tag_719\n      tag_416\n      jump\t// in\n    tag_719:\n        /* \"#utility.yul\":23835:23954   */\n    tag_718:\n        /* \"#utility.yul\":23993:23994   */\n      0x00\n        /* \"#utility.yul\":24018:24082   */\n      tag_720\n        /* \"#utility.yul\":24074:24081   */\n      dup5\n        /* \"#utility.yul\":24065:24071   */\n      dup3\n        /* \"#utility.yul\":24054:24063   */\n      dup6\n        /* \"#utility.yul\":24050:24072   */\n      add\n        /* \"#utility.yul\":24018:24082   */\n      tag_472\n      jump\t// in\n    tag_720:\n        /* \"#utility.yul\":24008:24082   */\n      swap2\n      pop\n        /* \"#utility.yul\":23964:24092   */\n      pop\n        /* \"#utility.yul\":23748:24099   */\n      swap3\n      swap2\n      pop\n      pop\n      jump\t// out\n        /* \"#utility.yul\":24105:24338   */\n    tag_473:\n        /* \"#utility.yul\":24245:24279   */\n      0x45524331393637557067726164653a206e657720696d706c656d656e74617469\n        /* \"#utility.yul\":24241:24242   */\n      0x00\n        /* \"#utility.yul\":24233:24239   */\n      dup3\n        /* \"#utility.yul\":24229:24243   */\n      add\n        /* \"#utility.yul\":24222:24280   */\n      mstore\n        /* \"#utility.yul\":24314:24330   */\n      0x6f6e206973206e6f742055555053000000000000000000000000000000000000\n        /* \"#utility.yul\":24309:24311   */\n      0x20\n        /* \"#utility.yul\":24301:24307   */\n      dup3\n        /* \"#utility.yul\":24297:24312   */\n      add\n        /* \"#utility.yul\":24290:24331   */\n      mstore\n        /* \"#utility.yul\":24105:24338   */\n      pop\n      jump\t// out\n        /* \"#utility.yul\":24344:24710   */\n    tag_474:\n        /* \"#utility.yul\":24486:24489   */\n      0x00\n        /* \"#utility.yul\":24507:24574   */\n      tag_723\n        /* \"#utility.yul\":24571:24573   */\n      0x2e\n        /* \"#utility.yul\":24566:24569   */\n      dup4\n        /* \"#utility.yul\":24507:24574   */\n      tag_411\n      jump\t// in\n    tag_723:\n        /* \"#utility.yul\":24500:24574   */\n      swap2\n      pop\n        /* \"#utility.yul\":24583:24676   */\n      tag_724\n        /* \"#utility.yul\":24672:24675   */\n      dup3\n        /* \"#utility.yul\":24583:24676   */\n      tag_473\n      jump\t// in\n    tag_724:\n        /* \"#utility.yul\":24701:24703   */\n      0x40\n        /* \"#utility.yul\":24696:24699   */\n      dup3\n        /* \"#utility.yul\":24692:24704   */\n      add\n        /* \"#utility.yul\":24685:24704   */\n      swap1\n      pop\n        /* \"#utility.yul\":24344:24710   */\n      swap2\n      swap1\n      pop\n      jump\t// out\n        /* \"#utility.yul\":24716:25135   */\n    tag_303:\n        /* \"#utility.yul\":24882:24886   */\n      0x00\n        /* \"#utility.yul\":24920:24922   */\n      0x20\n        /* \"#utility.yul\":24909:24918   */\n      dup3\n        /* \"#utility.yul\":24905:24923   */\n      add\n        /* \"#utility.yul\":24897:24923   */\n      swap1\n      pop\n        /* \"#utility.yul\":24969:24978   */\n      dup2\n        /* \"#utility.yul\":24963:24967   */\n      dup2\n        /* \"#utility.yul\":24959:24979   */\n      sub\n        /* \"#utility.yul\":24955:24956   */\n      0x00\n        /* \"#utility.yul\":24944:24953   */\n      dup4\n        /* \"#utility.yul\":24940:24957   */\n      add\n        /* \"#utility.yul\":24933:24980   */\n      mstore\n        /* \"#utility.yul\":24997:25128   */\n      tag_726\n        /* \"#utility.yul\":25123:25127   */\n      dup2\n        /* \"#utility.yul\":24997:25128   */\n      tag_474\n      jump\t// in\n    tag_726:\n        /* \"#utility.yul\":24989:25128   */\n      swap1\n      pop\n        /* \"#utility.yul\":24716:25135   */\n      swap2\n      swap1\n      pop\n      jump\t// out\n        /* \"#utility.yul\":25141:25369   */\n    tag_475:\n        /* \"#utility.yul\":25281:25315   */\n      0x45524331393637557067726164653a20756e737570706f727465642070726f78\n        /* \"#utility.yul\":25277:25278   */\n      0x00\n        /* \"#utility.yul\":25269:25275   */\n      dup3\n        /* \"#utility.yul\":25265:25279   */\n      add\n        /* \"#utility.yul\":25258:25316   */\n      mstore\n        /* \"#utility.yul\":25350:25361   */\n      0x6961626c65555549440000000000000000000000000000000000000000000000\n        /* \"#utility.yul\":25345:25347   */\n      0x20\n        /* \"#utility.yul\":25337:25343   */\n      dup3\n        /* \"#utility.yul\":25333:25348   */\n      add\n        /* \"#utility.yul\":25326:25362   */\n      mstore\n        /* \"#utility.yul\":25141:25369   */\n      pop\n      jump\t// out\n        /* \"#utility.yul\":25375:25741   */\n    tag_476:\n        /* \"#utility.yul\":25517:25520   */\n      0x00\n        /* \"#utility.yul\":25538:25605   */\n      tag_729\n        /* \"#utility.yul\":25602:25604   */\n      0x29\n        /* \"#utility.yul\":25597:25600   */\n      dup4\n        /* \"#utility.yul\":25538:25605   */\n      tag_411\n      jump\t// in\n    tag_729:\n        /* \"#utility.yul\":25531:25605   */\n      swap2\n      pop\n        /* \"#utility.yul\":25614:25707   */\n      tag_730\n        /* \"#utility.yul\":25703:25706   */\n      dup3\n        /* \"#utility.yul\":25614:25707   */\n      tag_475\n      jump\t// in\n    tag_730:\n        /* \"#utility.yul\":25732:25734   */\n      0x40\n        /* \"#utility.yul\":25727:25730   */\n      dup3\n        /* \"#utility.yul\":25723:25735   */\n      add\n        /* \"#utility.yul\":25716:25735   */\n      swap1\n      pop\n        /* \"#utility.yul\":25375:25741   */\n      swap2\n      swap1\n      pop\n      jump\t// out\n        /* \"#utility.yul\":25747:26166   */\n    tag_307:\n        /* \"#utility.yul\":25913:25917   */\n      0x00\n        /* \"#utility.yul\":25951:25953   */\n      0x20\n        /* \"#utility.yul\":25940:25949   */\n      dup3\n        /* \"#utility.yul\":25936:25954   */\n      add\n        /* \"#utility.yul\":25928:25954   */\n      swap1\n      pop\n        /* \"#utility.yul\":26000:26009   */\n      dup2\n        /* \"#utility.yul\":25994:25998   */\n      dup2\n        /* \"#utility.yul\":25990:26010   */\n      sub\n        /* \"#utility.yul\":25986:25987   */\n      0x00\n        /* \"#utility.yul\":25975:25984   */\n      dup4\n        /* \"#utility.yul\":25971:25988   */\n      add\n        /* \"#utility.yul\":25964:26011   */\n      mstore\n        /* \"#utility.yul\":26028:26159   */\n      tag_732\n        /* \"#utility.yul\":26154:26158   */\n      dup2\n        /* \"#utility.yul\":26028:26159   */\n      tag_476\n      jump\t// in\n    tag_732:\n        /* \"#utility.yul\":26020:26159   */\n      swap1\n      pop\n        /* \"#utility.yul\":25747:26166   */\n      swap2\n      swap1\n      pop\n      jump\t// out\n        /* \"#utility.yul\":26172:26354   */\n    tag_477:\n        /* \"#utility.yul\":26312:26346   */\n      0x4f776e61626c653a2063616c6c6572206973206e6f7420746865206f776e6572\n        /* \"#utility.yul\":26308:26309   */\n      0x00\n        /* \"#utility.yul\":26300:26306   */\n      dup3\n        /* \"#utility.yul\":26296:26310   */\n      add\n        /* \"#utility.yul\":26289:26347   */\n      mstore\n        /* \"#utility.yul\":26172:26354   */\n      pop\n      jump\t// out\n        /* \"#utility.yul\":26360:26726   */\n    tag_478:\n        /* \"#utility.yul\":26502:26505   */\n      0x00\n        /* \"#utility.yul\":26523:26590   */\n      tag_735\n        /* \"#utility.yul\":26587:26589   */\n      0x20\n        /* \"#utility.yul\":26582:26585   */\n      dup4\n        /* \"#utility.yul\":26523:26590   */\n      tag_411\n      jump\t// in\n    tag_735:\n        /* \"#utility.yul\":26516:26590   */\n      swap2\n      pop\n        /* \"#utility.yul\":26599:26692   */\n      tag_736\n        /* \"#utility.yul\":26688:26691   */\n      dup3\n        /* \"#utility.yul\":26599:26692   */\n      tag_477\n      jump\t// in\n    tag_736:\n        /* \"#utility.yul\":26717:26719   */\n      0x20\n        /* \"#utility.yul\":26712:26715   */\n      dup3\n        /* \"#utility.yul\":26708:26720   */\n      add\n        /* \"#utility.yul\":26701:26720   */\n      swap1\n      pop\n        /* \"#utility.yul\":26360:26726   */\n      swap2\n      swap1\n      pop\n      jump\t// out\n        /* \"#utility.yul\":26732:27151   */\n    tag_315:\n        /* \"#utility.yul\":26898:26902   */\n      0x00\n        /* \"#utility.yul\":26936:26938   */\n      0x20\n        /* \"#utility.yul\":26925:26934   */\n      dup3\n        /* \"#utility.yul\":26921:26939   */\n      add\n        /* \"#utility.yul\":26913:26939   */\n      swap1\n      pop\n        /* \"#utility.yul\":26985:26994   */\n      dup2\n        /* \"#utility.yul\":26979:26983   */\n      dup2\n        /* \"#utility.yul\":26975:26995   */\n      sub\n        /* \"#utility.yul\":26971:26972   */\n      0x00\n        /* \"#utility.yul\":26960:26969   */\n      dup4\n        /* \"#utility.yul\":26956:26973   */\n      add\n        /* \"#utility.yul\":26949:26996   */\n      mstore\n        /* \"#utility.yul\":27013:27144   */\n      tag_738\n        /* \"#utility.yul\":27139:27143   */\n      dup2\n        /* \"#utility.yul\":27013:27144   */\n      tag_478\n      jump\t// in\n    tag_738:\n        /* \"#utility.yul\":27005:27144   */\n      swap1\n      pop\n        /* \"#utility.yul\":26732:27151   */\n      swap2\n      swap1\n      pop\n      jump\t// out\n        /* \"#utility.yul\":27157:27338   */\n    tag_479:\n        /* \"#utility.yul\":27297:27330   */\n      0x45524332303a206d696e7420746f20746865207a65726f206164647265737300\n        /* \"#utility.yul\":27293:27294   */\n      0x00\n        /* \"#utility.yul\":27285:27291   */\n      dup3\n        /* \"#utility.yul\":27281:27295   */\n      add\n        /* \"#utility.yul\":27274:27331   */\n      mstore\n        /* \"#utility.yul\":27157:27338   */\n      pop\n      jump\t// out\n        /* \"#utility.yul\":27344:27710   */\n    tag_480:\n        /* \"#utility.yul\":27486:27489   */\n      0x00\n        /* \"#utility.yul\":27507:27574   */\n      tag_741\n        /* \"#utility.yul\":27571:27573   */\n      0x1f\n        /* \"#utility.yul\":27566:27569   */\n      dup4\n        /* \"#utility.yul\":27507:27574   */\n      tag_411\n      jump\t// in\n    tag_741:\n        /* \"#utility.yul\":27500:27574   */\n      swap2\n      pop\n        /* \"#utility.yul\":27583:27676   */\n      tag_742\n        /* \"#utility.yul\":27672:27675   */\n      dup3\n        /* \"#utility.yul\":27583:27676   */\n      tag_479\n      jump\t// in\n    tag_742:\n        /* \"#utility.yul\":27701:27703   */\n      0x20\n        /* \"#utility.yul\":27696:27699   */\n      dup3\n        /* \"#utility.yul\":27692:27704   */\n      add\n        /* \"#utility.yul\":27685:27704   */\n      swap1\n      pop\n        /* \"#utility.yul\":27344:27710   */\n      swap2\n      swap1\n      pop\n      jump\t// out\n        /* \"#utility.yul\":27716:28135   */\n    tag_319:\n        /* \"#utility.yul\":27882:27886   */\n      0x00\n        /* \"#utility.yul\":27920:27922   */\n      0x20\n        /* \"#utility.yul\":27909:27918   */\n      dup3\n        /* \"#utility.yul\":27905:27923   */\n      add\n        /* \"#utility.yul\":27897:27923   */\n      swap1\n      pop\n        /* \"#utility.yul\":27969:27978   */\n      dup2\n        /* \"#utility.yul\":27963:27967   */\n      dup2\n        /* \"#utility.yul\":27959:27979   */\n      sub\n        /* \"#utility.yul\":27955:27956   */\n      0x00\n        /* \"#utility.yul\":27944:27953   */\n      dup4\n        /* \"#utility.yul\":27940:27957   */\n      add\n        /* \"#utility.yul\":27933:27980   */\n      mstore\n        /* \"#utility.yul\":27997:28128   */\n      tag_744\n        /* \"#utility.yul\":28123:28127   */\n      dup2\n        /* \"#utility.yul\":27997:28128   */\n      tag_480\n      jump\t// in\n    tag_744:\n        /* \"#utility.yul\":27989:28128   */\n      swap1\n      pop\n        /* \"#utility.yul\":27716:28135   */\n      swap2\n      swap1\n      pop\n      jump\t// out\n        /* \"#utility.yul\":28141:28361   */\n    tag_481:\n        /* \"#utility.yul\":28281:28315   */\n      0x45524332303a206275726e2066726f6d20746865207a65726f20616464726573\n        /* \"#utility.yul\":28277:28278   */\n      0x00\n        /* \"#utility.yul\":28269:28275   */\n      dup3\n        /* \"#utility.yul\":28265:28279   */\n      add\n        /* \"#utility.yul\":28258:28316   */\n      mstore\n        /* \"#utility.yul\":28350:28353   */\n      0x7300000000000000000000000000000000000000000000000000000000000000\n        /* \"#utility.yul\":28345:28347   */\n      0x20\n        /* \"#utility.yul\":28337:28343   */\n      dup3\n        /* \"#utility.yul\":28333:28348   */\n      add\n        /* \"#utility.yul\":28326:28354   */\n      mstore\n        /* \"#utility.yul\":28141:28361   */\n      pop\n      jump\t// out\n        /* \"#utility.yul\":28367:28733   */\n    tag_482:\n        /* \"#utility.yul\":28509:28512   */\n      0x00\n        /* \"#utility.yul\":28530:28597   */\n      tag_747\n        /* \"#utility.yul\":28594:28596   */\n      0x21\n        /* \"#utility.yul\":28589:28592   */\n      dup4\n        /* \"#utility.yul\":28530:28597   */\n      tag_411\n      jump\t// in\n    tag_747:\n        /* \"#utility.yul\":28523:28597   */\n      swap2\n      pop\n        /* \"#utility.yul\":28606:28699   */\n      tag_748\n        /* \"#utility.yul\":28695:28698   */\n      dup3\n        /* \"#utility.yul\":28606:28699   */\n      tag_481\n      jump\t// in\n    tag_748:\n        /* \"#utility.yul\":28724:28726   */\n      0x40\n        /* \"#utility.yul\":28719:28722   */\n      dup3\n        /* \"#utility.yul\":28715:28727   */\n      add\n        /* \"#utility.yul\":28708:28727   */\n      swap1\n      pop\n        /* \"#utility.yul\":28367:28733   */\n      swap2\n      swap1\n      pop\n      jump\t// out\n        /* \"#utility.yul\":28739:29158   */\n    tag_327:\n        /* \"#utility.yul\":28905:28909   */\n      0x00\n        /* \"#utility.yul\":28943:28945   */\n      0x20\n        /* \"#utility.yul\":28932:28941   */\n      dup3\n        /* \"#utility.yul\":28928:28946   */\n      add\n        /* \"#utility.yul\":28920:28946   */\n      swap1\n      pop\n        /* \"#utility.yul\":28992:29001   */\n      dup2\n        /* \"#utility.yul\":28986:28990   */\n      dup2\n        /* \"#utility.yul\":28982:29002   */\n      sub\n        /* \"#utility.yul\":28978:28979   */\n      0x00\n        /* \"#utility.yul\":28967:28976   */\n      dup4\n        /* \"#utility.yul\":28963:28980   */\n      add\n        /* \"#utility.yul\":28956:29003   */\n      mstore\n        /* \"#utility.yul\":29020:29151   */\n      tag_750\n        /* \"#utility.yul\":29146:29150   */\n      dup2\n        /* \"#utility.yul\":29020:29151   */\n      tag_482\n      jump\t// in\n    tag_750:\n        /* \"#utility.yul\":29012:29151   */\n      swap1\n      pop\n        /* \"#utility.yul\":28739:29158   */\n      swap2\n      swap1\n      pop\n      jump\t// out\n        /* \"#utility.yul\":29164:29385   */\n    tag_483:\n        /* \"#utility.yul\":29304:29338   */\n      0x45524332303a206275726e20616d6f756e7420657863656564732062616c616e\n        /* \"#utility.yul\":29300:29301   */\n      0x00\n        /* \"#utility.yul\":29292:29298   */\n      dup3\n        /* \"#utility.yul\":29288:29302   */\n      add\n        /* \"#utility.yul\":29281:29339   */\n      mstore\n        /* \"#utility.yul\":29373:29377   */\n      0x6365000000000000000000000000000000000000000000000000000000000000\n        /* \"#utility.yul\":29368:29370   */\n      0x20\n        /* \"#utility.yul\":29360:29366   */\n      dup3\n        /* \"#utility.yul\":29356:29371   */\n      add\n        /* \"#utility.yul\":29349:29378   */\n      mstore\n        /* \"#utility.yul\":29164:29385   */\n      pop\n      jump\t// out\n        /* \"#utility.yul\":29391:29757   */\n    tag_484:\n        /* \"#utility.yul\":29533:29536   */\n      0x00\n        /* \"#utility.yul\":29554:29621   */\n      tag_753\n        /* \"#utility.yul\":29618:29620   */\n      0x22\n        /* \"#utility.yul\":29613:29616   */\n      dup4\n        /* \"#utility.yul\":29554:29621   */\n      tag_411\n      jump\t// in\n    tag_753:\n        /* \"#utility.yul\":29547:29621   */\n      swap2\n      pop\n        /* \"#utility.yul\":29630:29723   */\n      tag_754\n        /* \"#utility.yul\":29719:29722   */\n      dup3\n        /* \"#utility.yul\":29630:29723   */\n      tag_483\n      jump\t// in\n    tag_754:\n        /* \"#utility.yul\":29748:29750   */\n      0x40\n        /* \"#utility.yul\":29743:29746   */\n      dup3\n        /* \"#utility.yul\":29739:29751   */\n      add\n        /* \"#utility.yul\":29732:29751   */\n      swap1\n      pop\n        /* \"#utility.yul\":29391:29757   */\n      swap2\n      swap1\n      pop\n      jump\t// out\n        /* \"#utility.yul\":29763:30182   */\n    tag_331:\n        /* \"#utility.yul\":29929:29933   */\n      0x00\n        /* \"#utility.yul\":29967:29969   */\n      0x20\n        /* \"#utility.yul\":29956:29965   */\n      dup3\n        /* \"#utility.yul\":29952:29970   */\n      add\n        /* \"#utility.yul\":29944:29970   */\n      swap1\n      pop\n        /* \"#utility.yul\":30016:30025   */\n      dup2\n        /* \"#utility.yul\":30010:30014   */\n      dup2\n        /* \"#utility.yul\":30006:30026   */\n      sub\n        /* \"#utility.yul\":30002:30003   */\n      0x00\n        /* \"#utility.yul\":29991:30000   */\n      dup4\n        /* \"#utility.yul\":29987:30004   */\n      add\n        /* \"#utility.yul\":29980:30027   */\n      mstore\n        /* \"#utility.yul\":30044:30175   */\n      tag_756\n        /* \"#utility.yul\":30170:30174   */\n      dup2\n        /* \"#utility.yul\":30044:30175   */\n      tag_484\n      jump\t// in\n    tag_756:\n        /* \"#utility.yul\":30036:30175   */\n      swap1\n      pop\n        /* \"#utility.yul\":29763:30182   */\n      swap2\n      swap1\n      pop\n      jump\t// out\n        /* \"#utility.yul\":30188:30418   */\n    tag_485:\n        /* \"#utility.yul\":30328:30362   */\n      0x496e697469616c697a61626c653a20636f6e7472616374206973206e6f742069\n        /* \"#utility.yul\":30324:30325   */\n      0x00\n        /* \"#utility.yul\":30316:30322   */\n      dup3\n        /* \"#utility.yul\":30312:30326   */\n      add\n        /* \"#utility.yul\":30305:30363   */\n      mstore\n        /* \"#utility.yul\":30397:30410   */\n      0x6e697469616c697a696e67000000000000000000000000000000000000000000\n        /* \"#utility.yul\":30392:30394   */\n      0x20\n        /* \"#utility.yul\":30384:30390   */\n      dup3\n        /* \"#utility.yul\":30380:30395   */\n      add\n        /* \"#utility.yul\":30373:30411   */\n      mstore\n        /* \"#utility.yul\":30188:30418   */\n      pop\n      jump\t// out\n        /* \"#utility.yul\":30424:30790   */\n    tag_486:\n        /* \"#utility.yul\":30566:30569   */\n      0x00\n        /* \"#utility.yul\":30587:30654   */\n      tag_759\n        /* \"#utility.yul\":30651:30653   */\n      0x2b\n        /* \"#utility.yul\":30646:30649   */\n      dup4\n        /* \"#utility.yul\":30587:30654   */\n      tag_411\n      jump\t// in\n    tag_759:\n        /* \"#utility.yul\":30580:30654   */\n      swap2\n      pop\n        /* \"#utility.yul\":30663:30756   */\n      tag_760\n        /* \"#utility.yul\":30752:30755   */\n      dup3\n        /* \"#utility.yul\":30663:30756   */\n      tag_485\n      jump\t// in\n    tag_760:\n        /* \"#utility.yul\":30781:30783   */\n      0x40\n        /* \"#utility.yul\":30776:30779   */\n      dup3\n        /* \"#utility.yul\":30772:30784   */\n      add\n        /* \"#utility.yul\":30765:30784   */\n      swap1\n      pop\n        /* \"#utility.yul\":30424:30790   */\n      swap2\n      swap1\n      pop\n      jump\t// out\n        /* \"#utility.yul\":30796:31215   */\n    tag_339:\n        /* \"#utility.yul\":30962:30966   */\n      0x00\n        /* \"#utility.yul\":31000:31002   */\n      0x20\n        /* \"#utility.yul\":30989:30998   */\n      dup3\n        /* \"#utility.yul\":30985:31003   */\n      add\n        /* \"#utility.yul\":30977:31003   */\n      swap1\n      pop\n        /* \"#utility.yul\":31049:31058   */\n      dup2\n        /* \"#utility.yul\":31043:31047   */\n      dup2\n        /* \"#utility.yul\":31039:31059   */\n      sub\n        /* \"#utility.yul\":31035:31036   */\n      0x00\n        /* \"#utility.yul\":31024:31033   */\n      dup4\n        /* \"#utility.yul\":31020:31037   */\n      add\n        /* \"#utility.yul\":31013:31060   */\n      mstore\n        /* \"#utility.yul\":31077:31208   */\n      tag_762\n        /* \"#utility.yul\":31203:31207   */\n      dup2\n        /* \"#utility.yul\":31077:31208   */\n      tag_486\n      jump\t// in\n    tag_762:\n        /* \"#utility.yul\":31069:31208   */\n      swap1\n      pop\n        /* \"#utility.yul\":30796:31215   */\n      swap2\n      swap1\n      pop\n      jump\t// out\n        /* \"#utility.yul\":31221:31453   */\n    tag_487:\n        /* \"#utility.yul\":31361:31395   */\n      0x455243313936373a206e657720696d706c656d656e746174696f6e206973206e\n        /* \"#utility.yul\":31357:31358   */\n      0x00\n        /* \"#utility.yul\":31349:31355   */\n      dup3\n        /* \"#utility.yul\":31345:31359   */\n      add\n        /* \"#utility.yul\":31338:31396   */\n      mstore\n        /* \"#utility.yul\":31430:31445   */\n      0x6f74206120636f6e747261637400000000000000000000000000000000000000\n        /* \"#utility.yul\":31425:31427   */\n      0x20\n        /* \"#utility.yul\":31417:31423   */\n      dup3\n        /* \"#utility.yul\":31413:31428   */\n      add\n        /* \"#utility.yul\":31406:31446   */\n      mstore\n        /* \"#utility.yul\":31221:31453   */\n      pop\n      jump\t// out\n        /* \"#utility.yul\":31459:31825   */\n    tag_488:\n        /* \"#utility.yul\":31601:31604   */\n      0x00\n        /* \"#utility.yul\":31622:31689   */\n      tag_765\n        /* \"#utility.yul\":31686:31688   */\n      0x2d\n        /* \"#utility.yul\":31681:31684   */\n      dup4\n        /* \"#utility.yul\":31622:31689   */\n      tag_411\n      jump\t// in\n    tag_765:\n        /* \"#utility.yul\":31615:31689   */\n      swap2\n      pop\n        /* \"#utility.yul\":31698:31791   */\n      tag_766\n        /* \"#utility.yul\":31787:31790   */\n      dup3\n        /* \"#utility.yul\":31698:31791   */\n      tag_487\n      jump\t// in\n    tag_766:\n        /* \"#utility.yul\":31816:31818   */\n      0x40\n        /* \"#utility.yul\":31811:31814   */\n      dup3\n        /* \"#utility.yul\":31807:31819   */\n      add\n        /* \"#utility.yul\":31800:31819   */\n      swap1\n      pop\n        /* \"#utility.yul\":31459:31825   */\n      swap2\n      swap1\n      pop\n      jump\t// out\n        /* \"#utility.yul\":31831:32250   */\n    tag_365:\n        /* \"#utility.yul\":31997:32001   */\n      0x00\n        /* \"#utility.yul\":32035:32037   */\n      0x20\n        /* \"#utility.yul\":32024:32033   */\n      dup3\n        /* \"#utility.yul\":32020:32038   */\n      add\n        /* \"#utility.yul\":32012:32038   */\n      swap1\n      pop\n        /* \"#utility.yul\":32084:32093   */\n      dup2\n        /* \"#utility.yul\":32078:32082   */\n      dup2\n        /* \"#utility.yul\":32074:32094   */\n      sub\n        /* \"#utility.yul\":32070:32071   */\n      0x00\n        /* \"#utility.yul\":32059:32068   */\n      dup4\n        /* \"#utility.yul\":32055:32072   */\n      add\n        /* \"#utility.yul\":32048:32095   */\n      mstore\n        /* \"#utility.yul\":32112:32243   */\n      tag_768\n        /* \"#utility.yul\":32238:32242   */\n      dup2\n        /* \"#utility.yul\":32112:32243   */\n      tag_488\n      jump\t// in\n    tag_768:\n        /* \"#utility.yul\":32104:32243   */\n      swap1\n      pop\n        /* \"#utility.yul\":31831:32250   */\n      swap2\n      swap1\n      pop\n      jump\t// out\n        /* \"#utility.yul\":32256:32397   */\n    tag_489:\n        /* \"#utility.yul\":32305:32309   */\n      0x00\n        /* \"#utility.yul\":32328:32331   */\n      dup2\n        /* \"#utility.yul\":32320:32331   */\n      swap1\n      pop\n        /* \"#utility.yul\":32351:32354   */\n      dup2\n        /* \"#utility.yul\":32348:32349   */\n      0x00\n        /* \"#utility.yul\":32341:32355   */\n      mstore\n        /* \"#utility.yul\":32385:32389   */\n      0x20\n        /* \"#utility.yul\":32382:32383   */\n      0x00\n        /* \"#utility.yul\":32372:32390   */\n      keccak256\n        /* \"#utility.yul\":32364:32390   */\n      swap1\n      pop\n        /* \"#utility.yul\":32256:32397   */\n      swap2\n      swap1\n      pop\n      jump\t// out\n        /* \"#utility.yul\":32403:32496   */\n    tag_490:\n        /* \"#utility.yul\":32440:32446   */\n      0x00\n        /* \"#utility.yul\":32487:32489   */\n      0x20\n        /* \"#utility.yul\":32482:32484   */\n      0x1f\n        /* \"#utility.yul\":32475:32480   */\n      dup4\n        /* \"#utility.yul\":32471:32485   */\n      add\n        /* \"#utility.yul\":32467:32490   */\n      div\n        /* \"#utility.yul\":32457:32490   */\n      swap1\n      pop\n        /* \"#utility.yul\":32403:32496   */\n      swap2\n      swap1\n      pop\n      jump\t// out\n        /* \"#utility.yul\":32502:32609   */\n    tag_491:\n        /* \"#utility.yul\":32546:32554   */\n      0x00\n        /* \"#utility.yul\":32596:32601   */\n      dup3\n        /* \"#utility.yul\":32590:32594   */\n      dup3\n        /* \"#utility.yul\":32586:32602   */\n      shl\n        /* \"#utility.yul\":32565:32602   */\n      swap1\n      pop\n        /* \"#utility.yul\":32502:32609   */\n      swap3\n      swap2\n      pop\n      pop\n      jump\t// out\n        /* \"#utility.yul\":32615:33008   */\n    tag_492:\n        /* \"#utility.yul\":32684:32690   */\n      0x00\n        /* \"#utility.yul\":32734:32735   */\n      0x08\n        /* \"#utility.yul\":32722:32732   */\n      dup4\n        /* \"#utility.yul\":32718:32736   */\n      mul\n        /* \"#utility.yul\":32757:32854   */\n      tag_773\n        /* \"#utility.yul\":32787:32853   */\n      0xffffffffffffffffffffffffffffffffffffffffffffffffffffffffffffffff\n        /* \"#utility.yul\":32776:32785   */\n      dup3\n        /* \"#utility.yul\":32757:32854   */\n      tag_491\n      jump\t// in\n    tag_773:\n        /* \"#utility.yul\":32875:32914   */\n      tag_774\n        /* \"#utility.yul\":32905:32913   */\n      dup7\n        /* \"#utility.yul\":32894:32903   */\n      dup4\n        /* \"#utility.yul\":32875:32914   */\n      tag_491\n      jump\t// in\n    tag_774:\n        /* \"#utility.yul\":32863:32914   */\n      swap6\n      pop\n        /* \"#utility.yul\":32947:32951   */\n      dup1\n        /* \"#utility.yul\":32943:32952   */\n      not\n        /* \"#utility.yul\":32936:32941   */\n      dup5\n        /* \"#utility.yul\":32932:32953   */\n      and\n        /* \"#utility.yul\":32923:32953   */\n      swap4\n      pop\n        /* \"#utility.yul\":32996:33000   */\n      dup1\n        /* \"#utility.yul\":32986:32994   */\n      dup7\n        /* \"#utility.yul\":32982:33001   */\n      and\n        /* \"#utility.yul\":32975:32980   */\n      dup5\n        /* \"#utility.yul\":32972:33002   */\n      or\n        /* \"#utility.yul\":32962:33002   */\n      swap3\n      pop\n        /* \"#utility.yul\":32691:33008   */\n      pop\n      pop\n        /* \"#utility.yul\":32615:33008   */\n      swap4\n      swap3\n      pop\n      pop\n      pop\n      jump\t// out\n        /* \"#utility.yul\":33014:33156   */\n    tag_493:\n        /* \"#utility.yul\":33064:33073   */\n      0x00\n        /* \"#utility.yul\":33097:33150   */\n      tag_776\n        /* \"#utility.yul\":33115:33149   */\n      tag_777\n        /* \"#utility.yul\":33124:33148   */\n      tag_778\n        /* \"#utility.yul\":33142:33147   */\n      dup5\n        /* \"#utility.yul\":33124:33148   */\n      tag_422\n      jump\t// in\n    tag_778:\n        /* \"#utility.yul\":33115:33149   */\n      tag_452\n      jump\t// in\n    tag_777:\n        /* \"#utility.yul\":33097:33150   */\n      tag_422\n      jump\t// in\n    tag_776:\n        /* \"#utility.yul\":33084:33150   */\n      swap1\n      pop\n        /* \"#utility.yul\":33014:33156   */\n      swap2\n      swap1\n      pop\n      jump\t// out\n        /* \"#utility.yul\":33162:33237   */\n    tag_494:\n        /* \"#utility.yul\":33205:33208   */\n      0x00\n        /* \"#utility.yul\":33226:33231   */\n      dup2\n        /* \"#utility.yul\":33219:33231   */\n      swap1\n      pop\n        /* \"#utility.yul\":33162:33237   */\n      swap2\n      swap1\n      pop\n      jump\t// out\n        /* \"#utility.yul\":33243:33512   */\n    tag_495:\n        /* \"#utility.yul\":33353:33392   */\n      tag_781\n        /* \"#utility.yul\":33384:33391   */\n      dup4\n        /* \"#utility.yul\":33353:33392   */\n      tag_493\n      jump\t// in\n    tag_781:\n        /* \"#utility.yul\":33414:33505   */\n      tag_782\n        /* \"#utility.yul\":33463:33504   */\n      tag_783\n        /* \"#utility.yul\":33487:33503   */\n      dup3\n        /* \"#utility.yul\":33463:33504   */\n      tag_494\n      jump\t// in\n    tag_783:\n        /* \"#utility.yul\":33455:33461   */\n      dup5\n        /* \"#utility.yul\":33448:33452   */\n      dup5\n        /* \"#utility.yul\":33442:33453   */\n      sload\n        /* \"#utility.yul\":33414:33505   */\n      tag_492\n      jump\t// in\n    tag_782:\n        /* \"#utility.yul\":33408:33412   */\n      dup3\n        /* \"#utility.yul\":33401:33506   */\n      sstore\n        /* \"#utility.yul\":33319:33512   */\n      pop\n        /* \"#utility.yul\":33243:33512   */\n      pop\n      pop\n      pop\n      jump\t// out\n        /* \"#utility.yul\":33518:33591   */\n    tag_496:\n        /* \"#utility.yul\":33563:33566   */\n      0x00\n        /* \"#utility.yul\":33518:33591   */\n      swap1\n      jump\t// out\n        /* \"#utility.yul\":33597:33786   */\n    tag_497:\n        /* \"#utility.yul\":33674:33706   */\n      tag_786\n      tag_496\n      jump\t// in\n    tag_786:\n        /* \"#utility.yul\":33715:33780   */\n      tag_787\n        /* \"#utility.yul\":33773:33779   */\n      dup2\n        /* \"#utility.yul\":33765:33771   */\n      dup5\n        /* \"#utility.yul\":33759:33763   */\n      dup5\n        /* \"#utility.yul\":33715:33780   */\n      tag_495\n      jump\t// in\n    tag_787:\n        /* \"#utility.yul\":33650:33786   */\n      pop\n        /* \"#utility.yul\":33597:33786   */\n      pop\n      pop\n      jump\t// out\n        /* \"#utility.yul\":33792:33978   */\n    tag_498:\n        /* \"#utility.yul\":33852:33972   */\n    tag_789:\n        /* \"#utility.yul\":33869:33872   */\n      dup2\n        /* \"#utility.yul\":33862:33867   */\n      dup2\n        /* \"#utility.yul\":33859:33873   */\n      lt\n        /* \"#utility.yul\":33852:33972   */\n      iszero\n      tag_791\n      jumpi\n        /* \"#utility.yul\":33923:33962   */\n      tag_792\n        /* \"#utility.yul\":33960:33961   */\n      0x00\n        /* \"#utility.yul\":33953:33958   */\n      dup3\n        /* \"#utility.yul\":33923:33962   */\n      tag_497\n      jump\t// in\n    tag_792:\n        /* \"#utility.yul\":33896:33897   */\n      0x01\n        /* \"#utility.yul\":33889:33894   */\n      dup2\n        /* \"#utility.yul\":33885:33898   */\n      add\n        /* \"#utility.yul\":33876:33898   */\n      swap1\n      pop\n        /* \"#utility.yul\":33852:33972   */\n      jump(tag_789)\n    tag_791:\n        /* \"#utility.yul\":33792:33978   */\n      pop\n      pop\n      jump\t// out\n        /* \"#utility.yul\":33984:34527   */\n    tag_499:\n        /* \"#utility.yul\":34085:34087   */\n      0x1f\n        /* \"#utility.yul\":34080:34083   */\n      dup3\n        /* \"#utility.yul\":34077:34088   */\n      gt\n        /* \"#utility.yul\":34074:34520   */\n      iszero\n      tag_794\n      jumpi\n        /* \"#utility.yul\":34119:34157   */\n      tag_795\n        /* \"#utility.yul\":34151:34156   */\n      dup2\n        /* \"#utility.yul\":34119:34157   */\n      tag_489\n      jump\t// in\n    tag_795:\n        /* \"#utility.yul\":34203:34232   */\n      tag_796\n        /* \"#utility.yul\":34221:34231   */\n      dup5\n        /* \"#utility.yul\":34203:34232   */\n      tag_490\n      jump\t// in\n    tag_796:\n        /* \"#utility.yul\":34193:34201   */\n      dup2\n        /* \"#utility.yul\":34189:34233   */\n      add\n        /* \"#utility.yul\":34386:34388   */\n      0x20\n        /* \"#utility.yul\":34374:34384   */\n      dup6\n        /* \"#utility.yul\":34371:34389   */\n      lt\n        /* \"#utility.yul\":34368:34417   */\n      iszero\n      tag_797\n      jumpi\n        /* \"#utility.yul\":34407:34415   */\n      dup2\n        /* \"#utility.yul\":34392:34415   */\n      swap1\n      pop\n        /* \"#utility.yul\":34368:34417   */\n    tag_797:\n        /* \"#utility.yul\":34430:34510   */\n      tag_798\n        /* \"#utility.yul\":34486:34508   */\n      tag_799\n        /* \"#utility.yul\":34504:34507   */\n      dup6\n        /* \"#utility.yul\":34486:34508   */\n      tag_490\n      jump\t// in\n    tag_799:\n        /* \"#utility.yul\":34476:34484   */\n      dup4\n        /* \"#utility.yul\":34472:34509   */\n      add\n        /* \"#utility.yul\":34459:34470   */\n      dup3\n        /* \"#utility.yul\":34430:34510   */\n      tag_498\n      jump\t// in\n    tag_798:\n        /* \"#utility.yul\":34089:34520   */\n      pop\n      pop\n        /* \"#utility.yul\":34074:34520   */\n    tag_794:\n        /* \"#utility.yul\":33984:34527   */\n      pop\n      pop\n      pop\n      jump\t// out\n        /* \"#utility.yul\":34533:34650   */\n    tag_500:\n        /* \"#utility.yul\":34587:34595   */\n      0x00\n        /* \"#utility.yul\":34637:34642   */\n      dup3\n        /* \"#utility.yul\":34631:34635   */\n      dup3\n        /* \"#utility.yul\":34627:34643   */\n      shr\n        /* \"#utility.yul\":34606:34643   */\n      swap1\n      pop\n        /* \"#utility.yul\":34533:34650   */\n      swap3\n      swap2\n      pop\n      pop\n      jump\t// out\n        /* \"#utility.yul\":34656:34825   */\n    tag_501:\n        /* \"#utility.yul\":34700:34706   */\n      0x00\n        /* \"#utility.yul\":34733:34784   */\n      tag_802\n        /* \"#utility.yul\":34781:34782   */\n      0x00\n        /* \"#utility.yul\":34777:34783   */\n      not\n        /* \"#utility.yul\":34769:34774   */\n      dup5\n        /* \"#utility.yul\":34766:34767   */\n      0x08\n        /* \"#utility.yul\":34762:34775   */\n      mul\n        /* \"#utility.yul\":34733:34784   */\n      tag_500\n      jump\t// in\n    tag_802:\n        /* \"#utility.yul\":34729:34785   */\n      not\n        /* \"#utility.yul\":34814:34818   */\n      dup1\n        /* \"#utility.yul\":34808:34812   */\n      dup4\n        /* \"#utility.yul\":34804:34819   */\n      and\n        /* \"#utility.yul\":34794:34819   */\n      swap2\n      pop\n        /* \"#utility.yul\":34707:34825   */\n      pop\n        /* \"#utility.yul\":34656:34825   */\n      swap3\n      swap2\n      pop\n      pop\n      jump\t// out\n        /* \"#utility.yul\":34830:35125   */\n    tag_502:\n        /* \"#utility.yul\":34906:34910   */\n      0x00\n        /* \"#utility.yul\":35052:35081   */\n      tag_804\n        /* \"#utility.yul\":35077:35080   */\n      dup4\n        /* \"#utility.yul\":35071:35075   */\n      dup4\n        /* \"#utility.yul\":35052:35081   */\n      tag_501\n      jump\t// in\n    tag_804:\n        /* \"#utility.yul\":35044:35081   */\n      swap2\n      pop\n        /* \"#utility.yul\":35114:35117   */\n      dup3\n        /* \"#utility.yul\":35111:35112   */\n      0x02\n        /* \"#utility.yul\":35107:35118   */\n      mul\n        /* \"#utility.yul\":35101:35105   */\n      dup3\n        /* \"#utility.yul\":35098:35119   */\n      or\n        /* \"#utility.yul\":35090:35119   */\n      swap1\n      pop\n        /* \"#utility.yul\":34830:35125   */\n      swap3\n      swap2\n      pop\n      pop\n      jump\t// out\n        /* \"#utility.yul\":35130:36525   */\n    tag_379:\n        /* \"#utility.yul\":35247:35284   */\n      tag_806\n        /* \"#utility.yul\":35280:35283   */\n      dup3\n        /* \"#utility.yul\":35247:35284   */\n      tag_410\n      jump\t// in\n    tag_806:\n        /* \"#utility.yul\":35349:35367   */\n      0xffffffffffffffff\n        /* \"#utility.yul\":35341:35347   */\n      dup2\n        /* \"#utility.yul\":35338:35368   */\n      gt\n        /* \"#utility.yul\":35335:35391   */\n      iszero\n      tag_807\n      jumpi\n        /* \"#utility.yul\":35371:35389   */\n      tag_808\n      tag_161\n      jump\t// in\n    tag_808:\n        /* \"#utility.yul\":35335:35391   */\n    tag_807:\n        /* \"#utility.yul\":35415:35453   */\n      tag_809\n        /* \"#utility.yul\":35447:35451   */\n      dup3\n        /* \"#utility.yul\":35441:35452   */\n      sload\n        /* \"#utility.yul\":35415:35453   */\n      tag_128\n      jump\t// in\n    tag_809:\n        /* \"#utility.yul\":35500:35567   */\n      tag_810\n        /* \"#utility.yul\":35560:35566   */\n      dup3\n        /* \"#utility.yul\":35552:35558   */\n      dup3\n        /* \"#utility.yul\":35546:35550   */\n      dup6\n        /* \"#utility.yul\":35500:35567   */\n      tag_499\n      jump\t// in\n    tag_810:\n        /* \"#utility.yul\":35594:35595   */\n      0x00\n        /* \"#utility.yul\":35618:35622   */\n      0x20\n        /* \"#utility.yul\":35605:35622   */\n      swap1\n      pop\n        /* \"#utility.yul\":35650:35652   */\n      0x1f\n        /* \"#utility.yul\":35642:35648   */\n      dup4\n        /* \"#utility.yul\":35639:35653   */\n      gt\n        /* \"#utility.yul\":35667:35668   */\n      0x01\n        /* \"#utility.yul\":35662:36280   */\n      dup2\n      eq\n      tag_812\n      jumpi\n        /* \"#utility.yul\":36324:36325   */\n      0x00\n        /* \"#utility.yul\":36341:36347   */\n      dup5\n        /* \"#utility.yul\":36338:36415   */\n      iszero\n      tag_813\n      jumpi\n        /* \"#utility.yul\":36390:36399   */\n      dup3\n        /* \"#utility.yul\":36385:36388   */\n      dup8\n        /* \"#utility.yul\":36381:36400   */\n      add\n        /* \"#utility.yul\":36375:36401   */\n      mload\n        /* \"#utility.yul\":36366:36401   */\n      swap1\n      pop\n        /* \"#utility.yul\":36338:36415   */\n    tag_813:\n        /* \"#utility.yul\":36441:36508   */\n      tag_814\n        /* \"#utility.yul\":36501:36507   */\n      dup6\n        /* \"#utility.yul\":36494:36499   */\n      dup3\n        /* \"#utility.yul\":36441:36508   */\n      tag_502\n      jump\t// in\n    tag_814:\n        /* \"#utility.yul\":36435:36439   */\n      dup7\n        /* \"#utility.yul\":36428:36509   */\n      sstore\n        /* \"#utility.yul\":36297:36519   */\n      pop\n        /* \"#utility.yul\":35632:36519   */\n      jump(tag_811)\n        /* \"#utility.yul\":35662:36280   */\n    tag_812:\n        /* \"#utility.yul\":35714:35718   */\n      0x1f\n        /* \"#utility.yul\":35710:35719   */\n      not\n        /* \"#utility.yul\":35702:35708   */\n      dup5\n        /* \"#utility.yul\":35698:35720   */\n      and\n        /* \"#utility.yul\":35748:35785   */\n      tag_815\n        /* \"#utility.yul\":35780:35784   */\n      dup7\n        /* \"#utility.yul\":35748:35785   */\n      tag_489\n      jump\t// in\n    tag_815:\n        /* \"#utility.yul\":35807:35808   */\n      0x00\n        /* \"#utility.yul\":35821:36029   */\n    tag_816:\n        /* \"#utility.yul\":35835:35842   */\n      dup3\n        /* \"#utility.yul\":35832:35833   */\n      dup2\n        /* \"#utility.yul\":35829:35843   */\n      lt\n        /* \"#utility.yul\":35821:36029   */\n      iszero\n      tag_818\n      jumpi\n        /* \"#utility.yul\":35914:35923   */\n      dup5\n        /* \"#utility.yul\":35909:35912   */\n      dup10\n        /* \"#utility.yul\":35905:35924   */\n      add\n        /* \"#utility.yul\":35899:35925   */\n      mload\n        /* \"#utility.yul\":35891:35897   */\n      dup3\n        /* \"#utility.yul\":35884:35926   */\n      sstore\n        /* \"#utility.yul\":35965:35966   */\n      0x01\n        /* \"#utility.yul\":35957:35963   */\n      dup3\n        /* \"#utility.yul\":35953:35967   */\n      add\n        /* \"#utility.yul\":35943:35967   */\n      swap2\n      pop\n        /* \"#utility.yul\":36012:36014   */\n      0x20\n        /* \"#utility.yul\":36001:36010   */\n      dup6\n        /* \"#utility.yul\":35997:36015   */\n      add\n        /* \"#utility.yul\":35984:36015   */\n      swap5\n      pop\n        /* \"#utility.yul\":35858:35862   */\n      0x20\n        /* \"#utility.yul\":35855:35856   */\n      dup2\n        /* \"#utility.yul\":35851:35863   */\n      add\n        /* \"#utility.yul\":35846:35863   */\n      swap1\n      pop\n        /* \"#utility.yul\":35821:36029   */\n      jump(tag_816)\n    tag_818:\n        /* \"#utility.yul\":36057:36063   */\n      dup7\n        /* \"#utility.yul\":36048:36055   */\n      dup4\n        /* \"#utility.yul\":36045:36064   */\n      lt\n        /* \"#utility.yul\":36042:36221   */\n      iszero\n      tag_819\n      jumpi\n        /* \"#utility.yul\":36115:36124   */\n      dup5\n        /* \"#utility.yul\":36110:36113   */\n      dup10\n        /* \"#utility.yul\":36106:36125   */\n      add\n        /* \"#utility.yul\":36100:36126   */\n      mload\n        /* \"#utility.yul\":36158:36206   */\n      tag_820\n        /* \"#utility.yul\":36200:36204   */\n      0x1f\n        /* \"#utility.yul\":36192:36198   */\n      dup10\n        /* \"#utility.yul\":36188:36205   */\n      and\n        /* \"#utility.yul\":36177:36186   */\n      dup3\n        /* \"#utility.yul\":36158:36206   */\n      tag_501\n      jump\t// in\n    tag_820:\n        /* \"#utility.yul\":36150:36156   */\n      dup4\n        /* \"#utility.yul\":36143:36207   */\n      sstore\n        /* \"#utility.yul\":36065:36221   */\n      pop\n        /* \"#utility.yul\":36042:36221   */\n    tag_819:\n        /* \"#utility.yul\":36267:36268   */\n      0x01\n        /* \"#utility.yul\":36263:36264   */\n      0x02\n        /* \"#utility.yul\":36255:36261   */\n      dup9\n        /* \"#utility.yul\":36251:36265   */\n      mul\n        /* \"#utility.yul\":36247:36269   */\n      add\n        /* \"#utility.yul\":36241:36245   */\n      dup9\n        /* \"#utility.yul\":36234:36270   */\n      sstore\n        /* \"#utility.yul\":35669:36280   */\n      pop\n      pop\n      pop\n        /* \"#utility.yul\":35632:36519   */\n    tag_811:\n      pop\n        /* \"#utility.yul\":35222:36525   */\n      pop\n      pop\n      pop\n        /* \"#utility.yul\":35130:36525   */\n      pop\n      pop\n      jump\t// out\n        /* \"#utility.yul\":36531:36756   */\n    tag_503:\n        /* \"#utility.yul\":36671:36705   */\n      0x416464726573733a2064656c65676174652063616c6c20746f206e6f6e2d636f\n        /* \"#utility.yul\":36667:36668   */\n      0x00\n        /* \"#utility.yul\":36659:36665   */\n      dup3\n        /* \"#utility.yul\":36655:36669   */\n      add\n        /* \"#utility.yul\":36648:36706   */\n      mstore\n        /* \"#utility.yul\":36740:36748   */\n      0x6e74726163740000000000000000000000000000000000000000000000000000\n        /* \"#utility.yul\":36735:36737   */\n      0x20\n        /* \"#utility.yul\":36727:36733   */\n      dup3\n        /* \"#utility.yul\":36723:36738   */\n      add\n        /* \"#utility.yul\":36716:36749   */\n      mstore\n        /* \"#utility.yul\":36531:36756   */\n      pop\n      jump\t// out\n        /* \"#utility.yul\":36762:37128   */\n    tag_504:\n        /* \"#utility.yul\":36904:36907   */\n      0x00\n        /* \"#utility.yul\":36925:36992   */\n      tag_823\n        /* \"#utility.yul\":36989:36991   */\n      0x26\n        /* \"#utility.yul\":36984:36987   */\n      dup4\n        /* \"#utility.yul\":36925:36992   */\n      tag_411\n      jump\t// in\n    tag_823:\n        /* \"#utility.yul\":36918:36992   */\n      swap2\n      pop\n        /* \"#utility.yul\":37001:37094   */\n      tag_824\n        /* \"#utility.yul\":37090:37093   */\n      dup3\n        /* \"#utility.yul\":37001:37094   */\n      tag_503\n      jump\t// in\n    tag_824:\n        /* \"#utility.yul\":37119:37121   */\n      0x40\n        /* \"#utility.yul\":37114:37117   */\n      dup3\n        /* \"#utility.yul\":37110:37122   */\n      add\n        /* \"#utility.yul\":37103:37122   */\n      swap1\n      pop\n        /* \"#utility.yul\":36762:37128   */\n      swap2\n      swap1\n      pop\n      jump\t// out\n        /* \"#utility.yul\":37134:37553   */\n    tag_393:\n        /* \"#utility.yul\":37300:37304   */\n      0x00\n        /* \"#utility.yul\":37338:37340   */\n      0x20\n        /* \"#utility.yul\":37327:37336   */\n      dup3\n        /* \"#utility.yul\":37323:37341   */\n      add\n        /* \"#utility.yul\":37315:37341   */\n      swap1\n      pop\n        /* \"#utility.yul\":37387:37396   */\n      dup2\n        /* \"#utility.yul\":37381:37385   */\n      dup2\n        /* \"#utility.yul\":37377:37397   */\n      sub\n        /* \"#utility.yul\":37373:37374   */\n      0x00\n        /* \"#utility.yul\":37362:37371   */\n      dup4\n        /* \"#utility.yul\":37358:37375   */\n      add\n        /* \"#utility.yul\":37351:37398   */\n      mstore\n        /* \"#utility.yul\":37415:37546   */\n      tag_826\n        /* \"#utility.yul\":37541:37545   */\n      dup2\n        /* \"#utility.yul\":37415:37546   */\n      tag_504\n      jump\t// in\n    tag_826:\n        /* \"#utility.yul\":37407:37546   */\n      swap1\n      pop\n        /* \"#utility.yul\":37134:37553   */\n      swap2\n      swap1\n      pop\n      jump\t// out\n        /* \"#utility.yul\":37559:37657   */\n    tag_505:\n        /* \"#utility.yul\":37610:37616   */\n      0x00\n        /* \"#utility.yul\":37644:37649   */\n      dup2\n        /* \"#utility.yul\":37638:37650   */\n      mload\n        /* \"#utility.yul\":37628:37650   */\n      swap1\n      pop\n        /* \"#utility.yul\":37559:37657   */\n      swap2\n      swap1\n      pop\n      jump\t// out\n        /* \"#utility.yul\":37663:37810   */\n    tag_506:\n        /* \"#utility.yul\":37764:37775   */\n      0x00\n        /* \"#utility.yul\":37801:37804   */\n      dup2\n        /* \"#utility.yul\":37786:37804   */\n      swap1\n      pop\n        /* \"#utility.yul\":37663:37810   */\n      swap3\n      swap2\n      pop\n      pop\n      jump\t// out\n        /* \"#utility.yul\":37816:38202   */\n    tag_507:\n        /* \"#utility.yul\":37920:37923   */\n      0x00\n        /* \"#utility.yul\":37948:37986   */\n      tag_830\n        /* \"#utility.yul\":37980:37985   */\n      dup3\n        /* \"#utility.yul\":37948:37986   */\n      tag_505\n      jump\t// in\n    tag_830:\n        /* \"#utility.yul\":38002:38090   */\n      tag_831\n        /* \"#utility.yul\":38083:38089   */\n      dup2\n        /* \"#utility.yul\":38078:38081   */\n      dup6\n        /* \"#utility.yul\":38002:38090   */\n      tag_506\n      jump\t// in\n    tag_831:\n        /* \"#utility.yul\":37995:38090   */\n      swap4\n      pop\n        /* \"#utility.yul\":38099:38164   */\n      tag_832\n        /* \"#utility.yul\":38157:38163   */\n      dup2\n        /* \"#utility.yul\":38152:38155   */\n      dup6\n        /* \"#utility.yul\":38145:38149   */\n      0x20\n        /* \"#utility.yul\":38138:38143   */\n      dup7\n        /* \"#utility.yul\":38134:38150   */\n      add\n        /* \"#utility.yul\":38099:38164   */\n      tag_412\n      jump\t// in\n    tag_832:\n        /* \"#utility.yul\":38189:38195   */\n      dup1\n        /* \"#utility.yul\":38184:38187   */\n      dup5\n        /* \"#utility.yul\":38180:38196   */\n      add\n        /* \"#utility.yul\":38173:38196   */\n      swap2\n      pop\n        /* \"#utility.yul\":37924:38202   */\n      pop\n        /* \"#utility.yul\":37816:38202   */\n      swap3\n      swap2\n      pop\n      pop\n      jump\t// out\n        /* \"#utility.yul\":38208:38479   */\n    tag_395:\n        /* \"#utility.yul\":38338:38341   */\n      0x00\n        /* \"#utility.yul\":38360:38453   */\n      tag_834\n        /* \"#utility.yul\":38449:38452   */\n      dup3\n        /* \"#utility.yul\":38440:38446   */\n      dup5\n        /* \"#utility.yul\":38360:38453   */\n      tag_507\n      jump\t// in\n    tag_834:\n        /* \"#utility.yul\":38353:38453   */\n      swap2\n      pop\n        /* \"#utility.yul\":38470:38473   */\n      dup2\n        /* \"#utility.yul\":38463:38473   */\n      swap1\n      pop\n        /* \"#utility.yul\":38208:38479   */\n      swap3\n      swap2\n      pop\n      pop\n      jump\t// out\n    stop\n    data_9fdcd12e4b726339b32a442b0a448365d5d85c96b2d2cff917b4f66c63110398 416464726573733a206c6f772d6c6576656c2064656c65676174652063616c6c206661696c6564\n\n    auxdata: 0xa2646970667358221220aaffc69c92d00ca02b12e77a03868a6d36ebac12750a66e8641f64e09bffa46364736f6c63430008120033\n}\n",
				"bytecode": {
					"linkReferences": {},
					"object": "60a06040523073ffffffffffffffffffffffffffffffffffffffff1660809073ffffffffffffffffffffffffffffffffffffffff168152503480156200004457600080fd5b50620000556200005b60201b60201c565b62000206565b600060019054906101000a900460ff1615620000ae576040517f08c379a0000000000000000000000000000000000000000000000000000000008152600401620000a590620001a9565b60405180910390fd5b60ff801660008054906101000a900460ff1660ff161015620001205760ff6000806101000a81548160ff021916908360ff1602179055507f7f26b83ff96e1f2b6a682f133852f6798a09c465da95921460cefb384740249860ff604051620001179190620001e9565b60405180910390a15b565b600082825260208201905092915050565b7f496e697469616c697a61626c653a20636f6e747261637420697320696e69746960008201527f616c697a696e6700000000000000000000000000000000000000000000000000602082015250565b60006200019160278362000122565b91506200019e8262000133565b604082019050919050565b60006020820190508181036000830152620001c48162000182565b9050919050565b600060ff82169050919050565b620001e381620001cb565b82525050565b6000602082019050620002006000830184620001d8565b92915050565b6080516133ae6200023e600039600081816105ec0152818161067a015281816107d501528181610863015261091301526133ae6000f3fe60806040526004361061012a5760003560e01c806352d1902d116100ab5780638da5cb5b1161006f5780638da5cb5b146103bd57806395d89b41146103e8578063a457c2d714610413578063a9059cbb14610450578063dd62ed3e1461048d578063f2fde38b146104ca5761012a565b806352d1902d146102fe57806370a0823114610329578063715018a61461036657806379cc67901461037d5780638129fc1c146103a65761012a565b80633659cfe6116100f25780633659cfe61461022a578063395093511461025357806340c10f191461029057806342966c68146102b95780634f1ef286146102e25761012a565b806306fdde031461012f578063095ea7b31461015a57806318160ddd1461019757806323b872dd146101c2578063313ce567146101ff575b600080fd5b34801561013b57600080fd5b506101446104f3565b6040516101519190611efe565b60405180910390f35b34801561016657600080fd5b50610181600480360381019061017c9190611fc8565b610585565b60405161018e9190612023565b60405180910390f35b3480156101a357600080fd5b506101ac6105a8565b6040516101b9919061204d565b60405180910390f35b3480156101ce57600080fd5b506101e960048036038101906101e49190612068565b6105b2565b6040516101f69190612023565b60405180910390f35b34801561020b57600080fd5b506102146105e1565b60405161022191906120d7565b60405180910390f35b34801561023657600080fd5b50610251600480360381019061024c91906120f2565b6105ea565b005b34801561025f57600080fd5b5061027a60048036038101906102759190611fc8565b610772565b6040516102879190612023565b60405180910390f35b34801561029c57600080fd5b506102b760048036038101906102b29190611fc8565b6107a9565b005b3480156102c557600080fd5b506102e060048036038101906102db919061211f565b6107bf565b005b6102fc60048036038101906102f79190612281565b6107d3565b005b34801561030a57600080fd5b5061031361090f565b60405161032091906122f6565b60405180910390f35b34801561033557600080fd5b50610350600480360381019061034b91906120f2565b6109c8565b60405161035d919061204d565b60405180910390f35b34801561037257600080fd5b5061037b610a11565b005b34801561038957600080fd5b506103a4600480360381019061039f9190611fc8565b610a25565b005b3480156103b257600080fd5b506103bb610a45565b005b3480156103c957600080fd5b506103d2610c07565b6040516103df9190612320565b60405180910390f35b3480156103f457600080fd5b506103fd610c31565b60405161040a9190611efe565b60405180910390f35b34801561041f57600080fd5b5061043a60048036038101906104359190611fc8565b610cc3565b6040516104479190612023565b60405180910390f35b34801561045c57600080fd5b5061047760048036038101906104729190611fc8565b610d3a565b6040516104849190612023565b60405180910390f35b34801561049957600080fd5b506104b460048036038101906104af919061233b565b610d5d565b6040516104c1919061204d565b60405180910390f35b3480156104d657600080fd5b506104f160048036038101906104ec91906120f2565b610de4565b005b606060368054610502906123aa565b80601f016020809104026020016040519081016040528092919081815260200182805461052e906123aa565b801561057b5780601f106105505761010080835404028352916020019161057b565b820191906000526020600020905b81548152906001019060200180831161055e57829003601f168201915b5050505050905090565b600080610590610e67565b905061059d818585610e6f565b600191505092915050565b6000603554905090565b6000806105bd610e67565b90506105ca858285611038565b6105d58585856110c4565b60019150509392505050565b60006012905090565b7f000000000000000000000000000000000000000000000000000000000000000073ffffffffffffffffffffffffffffffffffffffff163073ffffffffffffffffffffffffffffffffffffffff1603610678576040517f08c379a000000000000000000000000000000000000000000000000000000000815260040161066f9061244d565b60405180910390fd5b7f000000000000000000000000000000000000000000000000000000000000000073ffffffffffffffffffffffffffffffffffffffff166106b761133d565b73ffffffffffffffffffffffffffffffffffffffff161461070d576040517f08c379a0000000000000000000000000000000000000000000000000000000008152600401610704906124df565b60405180910390fd5b61071681611394565b61076f81600067ffffffffffffffff81111561073557610734612156565b5b6040519080825280601f01601f1916602001820160405280156107675781602001600182028036833780820191505090505b50600061139f565b50565b60008061077d610e67565b905061079e81858561078f8589610d5d565b610799919061252e565b610e6f565b600191505092915050565b6107b161150d565b6107bb828261158b565b5050565b6107d06107ca610e67565b826116e2565b50565b7f000000000000000000000000000000000000000000000000000000000000000073ffffffffffffffffffffffffffffffffffffffff163073ffffffffffffffffffffffffffffffffffffffff1603610861576040517f08c379a00000000000000000000000000000000000000000000000000000000081526004016108589061244d565b60405180910390fd5b7f000000000000000000000000000000000000000000000000000000000000000073ffffffffffffffffffffffffffffffffffffffff166108a061133d565b73ffffffffffffffffffffffffffffffffffffffff16146108f6576040517f08c379a00000000000000000000000000000000000000000000000000000000081526004016108ed906124df565b60405180910390fd5b6108ff82611394565b61090b8282600161139f565b5050565b60007f000000000000000000000000000000000000000000000000000000000000000073ffffffffffffffffffffffffffffffffffffffff163073ffffffffffffffffffffffffffffffffffffffff161461099f576040517f08c379a0000000000000000000000000000000000000000000000000000000008152600401610996906125d4565b60405180910390fd5b7f360894a13ba1a3210667c828492db98dca3e2076cc3735a920a3ca505d382bbc60001b905090565b6000603360008373ffffffffffffffffffffffffffffffffffffffff1673ffffffffffffffffffffffffffffffffffffffff168152602001908152602001600020549050919050565b610a1961150d565b610a2360006118b1565b565b610a3782610a31610e67565b83611038565b610a4182826116e2565b5050565b60008060019054906101000a900460ff16159050808015610a765750600160008054906101000a900460ff1660ff16105b80610aa35750610a8530611977565b158015610aa25750600160008054906101000a900460ff1660ff16145b5b610ae2576040517f08c379a0000000000000000000000000000000000000000000000000000000008152600401610ad990612666565b60405180910390fd5b60016000806101000a81548160ff021916908360ff1602179055508015610b1f576001600060016101000a81548160ff0219169083151502179055505b610b936040518060400160405280600881526020017f43686164506570650000000000000000000000000000000000000000000000008152506040518060400160405280600481526020017f434841440000000000000000000000000000000000000000000000000000000081525061199a565b610b9b6119f7565b610ba3611a48565b610bab611aa1565b8015610c045760008060016101000a81548160ff0219169083151502179055507f7f26b83ff96e1f2b6a682f133852f6798a09c465da95921460cefb38474024986001604051610bfb91906126cb565b60405180910390a15b50565b6000609760009054906101000a900473ffffffffffffffffffffffffffffffffffffffff16905090565b606060378054610c40906123aa565b80601f0160208091040260200160405190810160405280929190818152602001828054610c6c906123aa565b8015610cb95780601f10610c8e57610100808354040283529160200191610cb9565b820191906000526020600020905b815481529060010190602001808311610c9c57829003601f168201915b5050505050905090565b600080610cce610e67565b90506000610cdc8286610d5d565b905083811015610d21576040517f08c379a0000000000000000000000000000000000000000000000000000000008152600401610d1890612758565b60405180910390fd5b610d2e8286868403610e6f565b60019250505092915050565b600080610d45610e67565b9050610d528185856110c4565b600191505092915050565b6000603460008473ffffffffffffffffffffffffffffffffffffffff1673ffffffffffffffffffffffffffffffffffffffff16815260200190815260200160002060008373ffffffffffffffffffffffffffffffffffffffff1673ffffffffffffffffffffffffffffffffffffffff16815260200190815260200160002054905092915050565b610dec61150d565b600073ffffffffffffffffffffffffffffffffffffffff168173ffffffffffffffffffffffffffffffffffffffff1603610e5b576040517f08c379a0000000000000000000000000000000000000000000000000000000008152600401610e52906127ea565b60405180910390fd5b610e64816118b1565b50565b600033905090565b600073ffffffffffffffffffffffffffffffffffffffff168373ffffffffffffffffffffffffffffffffffffffff1603610ede576040517f08c379a0000000000000000000000000000000000000000000000000000000008152600401610ed59061287c565b60405180910390fd5b600073ffffffffffffffffffffffffffffffffffffffff168273ffffffffffffffffffffffffffffffffffffffff1603610f4d576040517f08c379a0000000000000000000000000000000000000000000000000000000008152600401610f449061290e565b60405180910390fd5b80603460008573ffffffffffffffffffffffffffffffffffffffff1673ffffffffffffffffffffffffffffffffffffffff16815260200190815260200160002060008473ffffffffffffffffffffffffffffffffffffffff1673ffffffffffffffffffffffffffffffffffffffff168152602001908152602001600020819055508173ffffffffffffffffffffffffffffffffffffffff168373ffffffffffffffffffffffffffffffffffffffff167f8c5be1e5ebec7d5bd14f71427d1e84f3dd0314c0f7b2291e5b200ac8c7c3b9258360405161102b919061204d565b60405180910390a3505050565b60006110448484610d5d565b90507fffffffffffffffffffffffffffffffffffffffffffffffffffffffffffffffff81146110be57818110156110b0576040517f08c379a00000000000000000000000000000000000000000000000000000000081526004016110a79061297a565b60405180910390fd5b6110bd8484848403610e6f565b5b50505050565b600073ffffffffffffffffffffffffffffffffffffffff168373ffffffffffffffffffffffffffffffffffffffff1603611133576040517f08c379a000000000000000000000000000000000000000000000000000000000815260040161112a90612a0c565b60405180910390fd5b600073ffffffffffffffffffffffffffffffffffffffff168273ffffffffffffffffffffffffffffffffffffffff16036111a2576040517f08c379a000000000000000000000000000000000000000000000000000000000815260040161119990612a9e565b60405180910390fd5b6111ad838383611af2565b6000603360008573ffffffffffffffffffffffffffffffffffffffff1673ffffffffffffffffffffffffffffffffffffffff16815260200190815260200160002054905081811015611234576040517f08c379a000000000000000000000000000000000000000000000000000000000815260040161122b90612b30565b60405180910390fd5b818103603360008673ffffffffffffffffffffffffffffffffffffffff1673ffffffffffffffffffffffffffffffffffffffff1681526020019081526020016000208190555081603360008573ffffffffffffffffffffffffffffffffffffffff1673ffffffffffffffffffffffffffffffffffffffff168152602001908152602001600020600082825401925050819055508273ffffffffffffffffffffffffffffffffffffffff168473ffffffffffffffffffffffffffffffffffffffff167fddf252ad1be2c89b69c2b068fc378daa952ba7f163c4a11628f55a4df523b3ef84604051611324919061204d565b60405180910390a3611337848484611af7565b50505050565b600061136b7f360894a13ba1a3210667c828492db98dca3e2076cc3735a920a3ca505d382bbc60001b611afc565b60000160009054906101000a900473ffffffffffffffffffffffffffffffffffffffff16905090565b61139c61150d565b50565b6113cb7f4910fdfa16fed3260ed0e7147f7cc6da11a60208b5b9406d12a635614ffd914360001b611b06565b60000160009054906101000a900460ff16156113ef576113ea83611b10565b611508565b8273ffffffffffffffffffffffffffffffffffffffff166352d1902d6040518163ffffffff1660e01b8152600401602060405180830381865afa92505050801561145757506040513d601f19601f820116820180604052508101906114549190612b7c565b60015b611496576040517f08c379a000000000000000000000000000000000000000000000000000000000815260040161148d90612c1b565b60405180910390fd5b7f360894a13ba1a3210667c828492db98dca3e2076cc3735a920a3ca505d382bbc60001b81146114fb576040517f08c379a00000000000000000000000000000000000000000000000000000000081526004016114f290612cad565b60405180910390fd5b50611507838383611bc9565b5b505050565b611515610e67565b73ffffffffffffffffffffffffffffffffffffffff16611533610c07565b73ffffffffffffffffffffffffffffffffffffffff1614611589576040517f08c379a000000000000000000000000000000000000000000000000000000000815260040161158090612d19565b60405180910390fd5b565b600073ffffffffffffffffffffffffffffffffffffffff168273ffffffffffffffffffffffffffffffffffffffff16036115fa576040517f08c379a00000000000000000000000000000000000000000000000000000000081526004016115f190612d85565b60405180910390fd5b61160660008383611af2565b8060356000828254611618919061252e565b9250508190555080603360008473ffffffffffffffffffffffffffffffffffffffff1673ffffffffffffffffffffffffffffffffffffffff168152602001908152602001600020600082825401925050819055508173ffffffffffffffffffffffffffffffffffffffff16600073ffffffffffffffffffffffffffffffffffffffff167fddf252ad1be2c89b69c2b068fc378daa952ba7f163c4a11628f55a4df523b3ef836040516116ca919061204d565b60405180910390a36116de60008383611af7565b5050565b600073ffffffffffffffffffffffffffffffffffffffff168273ffffffffffffffffffffffffffffffffffffffff1603611751576040517f08c379a000000000000000000000000000000000000000000000000000000000815260040161174890612e17565b60405180910390fd5b61175d82600083611af2565b6000603360008473ffffffffffffffffffffffffffffffffffffffff1673ffffffffffffffffffffffffffffffffffffffff168152602001908152602001600020549050818110156117e4576040517f08c379a00000000000000000000000000000000000000000000000000000000081526004016117db90612ea9565b60405180910390fd5b818103603360008573ffffffffffffffffffffffffffffffffffffffff1673ffffffffffffffffffffffffffffffffffffffff1681526020019081526020016000208190555081603560008282540392505081905550600073ffffffffffffffffffffffffffffffffffffffff168373ffffffffffffffffffffffffffffffffffffffff167fddf252ad1be2c89b69c2b068fc378daa952ba7f163c4a11628f55a4df523b3ef84604051611898919061204d565b60405180910390a36118ac83600084611af7565b505050565b6000609760009054906101000a900473ffffffffffffffffffffffffffffffffffffffff16905081609760006101000a81548173ffffffffffffffffffffffffffffffffffffffff021916908373ffffffffffffffffffffffffffffffffffffffff1602179055508173ffffffffffffffffffffffffffffffffffffffff168173ffffffffffffffffffffffffffffffffffffffff167f8be0079c531659141344cd1fd0a4f28419497f9722a3daafe3b4186f6b6457e060405160405180910390a35050565b6000808273ffffffffffffffffffffffffffffffffffffffff163b119050919050565b600060019054906101000a900460ff166119e9576040517f08c379a00000000000000000000000000000000000000000000000000000000081526004016119e090612f3b565b60405180910390fd5b6119f38282611bf5565b5050565b600060019054906101000a900460ff16611a46576040517f08c379a0000000000000000000000000000000000000000000000000000000008152600401611a3d90612f3b565b60405180910390fd5b565b600060019054906101000a900460ff16611a97576040517f08c379a0000000000000000000000000000000000000000000000000000000008152600401611a8e90612f3b565b60405180910390fd5b611a9f611c68565b565b600060019054906101000a900460ff16611af0576040517f08c379a0000000000000000000000000000000000000000000000000000000008152600401611ae790612f3b565b60405180910390fd5b565b505050565b505050565b6000819050919050565b6000819050919050565b611b1981611977565b611b58576040517f08c379a0000000000000000000000000000000000000000000000000000000008152600401611b4f90612fcd565b60405180910390fd5b80611b857f360894a13ba1a3210667c828492db98dca3e2076cc3735a920a3ca505d382bbc60001b611afc565b60000160006101000a81548173ffffffffffffffffffffffffffffffffffffffff021916908373ffffffffffffffffffffffffffffffffffffffff16021790555050565b611bd283611cc9565b600082511180611bdf5750805b15611bf057611bee8383611d18565b505b505050565b600060019054906101000a900460ff16611c44576040517f08c379a0000000000000000000000000000000000000000000000000000000008152600401611c3b90612f3b565b60405180910390fd5b8160369081611c53919061318f565b508060379081611c63919061318f565b505050565b600060019054906101000a900460ff16611cb7576040517f08c379a0000000000000000000000000000000000000000000000000000000008152600401611cae90612f3b565b60405180910390fd5b611cc7611cc2610e67565b6118b1565b565b611cd281611b10565b8073ffffffffffffffffffffffffffffffffffffffff167fbc7cd75a20ee27fd9adebab32041f755214dbc6bffa90cc0225b39da2e5c2d3b60405160405180910390a250565b6060611d2383611977565b611d62576040517f08c379a0000000000000000000000000000000000000000000000000000000008152600401611d59906132d3565b60405180910390fd5b6000808473ffffffffffffffffffffffffffffffffffffffff1684604051611d8a919061333a565b600060405180830381855af49150503d8060008114611dc5576040519150601f19603f3d011682016040523d82523d6000602084013e611dca565b606091505b5091509150611df2828260405180606001604052806027815260200161335260279139611dfc565b9250505092915050565b60608315611e0c57829050611e17565b611e168383611e1e565b5b9392505050565b600082511115611e315781518083602001fd5b806040517f08c379a0000000000000000000000000000000000000000000000000000000008152600401611e659190611efe565b60405180910390fd5b600081519050919050565b600082825260208201905092915050565b60005b83811015611ea8578082015181840152602081019050611e8d565b60008484015250505050565b6000601f19601f8301169050919050565b6000611ed082611e6e565b611eda8185611e79565b9350611eea818560208601611e8a565b611ef381611eb4565b840191505092915050565b60006020820190508181036000830152611f188184611ec5565b905092915050565b6000604051905090565b600080fd5b600080fd5b600073ffffffffffffffffffffffffffffffffffffffff82169050919050565b6000611f5f82611f34565b9050919050565b611f6f81611f54565b8114611f7a57600080fd5b50565b600081359050611f8c81611f66565b92915050565b6000819050919050565b611fa581611f92565b8114611fb057600080fd5b50565b600081359050611fc281611f9c565b92915050565b60008060408385031215611fdf57611fde611f2a565b5b6000611fed85828601611f7d565b9250506020611ffe85828601611fb3565b9150509250929050565b60008115159050919050565b61201d81612008565b82525050565b60006020820190506120386000830184612014565b92915050565b61204781611f92565b82525050565b6000602082019050612062600083018461203e565b92915050565b60008060006060848603121561208157612080611f2a565b5b600061208f86828701611f7d565b93505060206120a086828701611f7d565b92505060406120b186828701611fb3565b9150509250925092565b600060ff82169050919050565b6120d1816120bb565b82525050565b60006020820190506120ec60008301846120c8565b92915050565b60006020828403121561210857612107611f2a565b5b600061211684828501611f7d565b91505092915050565b60006020828403121561213557612134611f2a565b5b600061214384828501611fb3565b91505092915050565b600080fd5b600080fd5b7f4e487b7100000000000000000000000000000000000000000000000000000000600052604160045260246000fd5b61218e82611eb4565b810181811067ffffffffffffffff821117156121ad576121ac612156565b5b80604052505050565b60006121c0611f20565b90506121cc8282612185565b919050565b600067ffffffffffffffff8211156121ec576121eb612156565b5b6121f582611eb4565b9050602081019050919050565b82818337600083830152505050565b600061222461221f846121d1565b6121b6565b9050828152602081018484840111156122405761223f612151565b5b61224b848285612202565b509392505050565b600082601f8301126122685761226761214c565b5b8135612278848260208601612211565b91505092915050565b6000806040838503121561229857612297611f2a565b5b60006122a685828601611f7d565b925050602083013567ffffffffffffffff8111156122c7576122c6611f2f565b5b6122d385828601612253565b9150509250929050565b6000819050919050565b6122f0816122dd565b82525050565b600060208201905061230b60008301846122e7565b92915050565b61231a81611f54565b82525050565b60006020820190506123356000830184612311565b92915050565b6000806040838503121561235257612351611f2a565b5b600061236085828601611f7d565b925050602061237185828601611f7d565b9150509250929050565b7f4e487b7100000000000000000000000000000000000000000000000000000000600052602260045260246000fd5b600060028204905060018216806123c257607f821691505b6020821081036123d5576123d461237b565b5b50919050565b7f46756e6374696f6e206d7573742062652063616c6c6564207468726f7567682060008201527f64656c656761746563616c6c0000000000000000000000000000000000000000602082015250565b6000612437602c83611e79565b9150612442826123db565b604082019050919050565b600060208201905081810360008301526124668161242a565b9050919050565b7f46756e6374696f6e206d7573742062652063616c6c6564207468726f7567682060008201527f6163746976652070726f78790000000000000000000000000000000000000000602082015250565b60006124c9602c83611e79565b91506124d48261246d565b604082019050919050565b600060208201905081810360008301526124f8816124bc565b9050919050565b7f4e487b7100000000000000000000000000000000000000000000000000000000600052601160045260246000fd5b600061253982611f92565b915061254483611f92565b925082820190508082111561255c5761255b6124ff565b5b92915050565b7f555550535570677261646561626c653a206d757374206e6f742062652063616c60008201527f6c6564207468726f7567682064656c656761746563616c6c0000000000000000602082015250565b60006125be603883611e79565b91506125c982612562565b604082019050919050565b600060208201905081810360008301526125ed816125b1565b9050919050565b7f496e697469616c697a61626c653a20636f6e747261637420697320616c72656160008201527f647920696e697469616c697a6564000000000000000000000000000000000000602082015250565b6000612650602e83611e79565b915061265b826125f4565b604082019050919050565b6000602082019050818103600083015261267f81612643565b9050919050565b6000819050919050565b6000819050919050565b60006126b56126b06126ab84612686565b612690565b6120bb565b9050919050565b6126c58161269a565b82525050565b60006020820190506126e060008301846126bc565b92915050565b7f45524332303a2064656372656173656420616c6c6f77616e63652062656c6f7760008201527f207a65726f000000000000000000000000000000000000000000000000000000602082015250565b6000612742602583611e79565b915061274d826126e6565b604082019050919050565b6000602082019050818103600083015261277181612735565b9050919050565b7f4f776e61626c653a206e6577206f776e657220697320746865207a65726f206160008201527f6464726573730000000000000000000000000000000000000000000000000000602082015250565b60006127d4602683611e79565b91506127df82612778565b604082019050919050565b60006020820190508181036000830152612803816127c7565b9050919050565b7f45524332303a20617070726f76652066726f6d20746865207a65726f2061646460008201527f7265737300000000000000000000000000000000000000000000000000000000602082015250565b6000612866602483611e79565b91506128718261280a565b604082019050919050565b6000602082019050818103600083015261289581612859565b9050919050565b7f45524332303a20617070726f766520746f20746865207a65726f20616464726560008201527f7373000000000000000000000000000000000000000000000000000000000000602082015250565b60006128f8602283611e79565b91506129038261289c565b604082019050919050565b60006020820190508181036000830152612927816128eb565b9050919050565b7f45524332303a20696e73756666696369656e7420616c6c6f77616e6365000000600082015250565b6000612964601d83611e79565b915061296f8261292e565b602082019050919050565b6000602082019050818103600083015261299381612957565b9050919050565b7f45524332303a207472616e736665722066726f6d20746865207a65726f20616460008201527f6472657373000000000000000000000000000000000000000000000000000000602082015250565b60006129f6602583611e79565b9150612a018261299a565b604082019050919050565b60006020820190508181036000830152612a25816129e9565b9050919050565b7f45524332303a207472616e7366657220746f20746865207a65726f206164647260008201527f6573730000000000000000000000000000000000000000000000000000000000602082015250565b6000612a88602383611e79565b9150612a9382612a2c565b604082019050919050565b60006020820190508181036000830152612ab781612a7b565b9050919050565b7f45524332303a207472616e7366657220616d6f756e742065786365656473206260008201527f616c616e63650000000000000000000000000000000000000000000000000000602082015250565b6000612b1a602683611e79565b9150612b2582612abe565b604082019050919050565b60006020820190508181036000830152612b4981612b0d565b9050919050565b612b59816122dd565b8114612b6457600080fd5b50565b600081519050612b7681612b50565b92915050565b600060208284031215612b9257612b91611f2a565b5b6000612ba084828501612b67565b91505092915050565b7f45524331393637557067726164653a206e657720696d706c656d656e7461746960008201527f6f6e206973206e6f742055555053000000000000000000000000000000000000602082015250565b6000612c05602e83611e79565b9150612c1082612ba9565b604082019050919050565b60006020820190508181036000830152612c3481612bf8565b9050919050565b7f45524331393637557067726164653a20756e737570706f727465642070726f7860008201527f6961626c65555549440000000000000000000000000000000000000000000000602082015250565b6000612c97602983611e79565b9150612ca282612c3b565b604082019050919050565b60006020820190508181036000830152612cc681612c8a565b9050919050565b7f4f776e61626c653a2063616c6c6572206973206e6f7420746865206f776e6572600082015250565b6000612d03602083611e79565b9150612d0e82612ccd565b602082019050919050565b60006020820190508181036000830152612d3281612cf6565b9050919050565b7f45524332303a206d696e7420746f20746865207a65726f206164647265737300600082015250565b6000612d6f601f83611e79565b9150612d7a82612d39565b602082019050919050565b60006020820190508181036000830152612d9e81612d62565b9050919050565b7f45524332303a206275726e2066726f6d20746865207a65726f2061646472657360008201527f7300000000000000000000000000000000000000000000000000000000000000602082015250565b6000612e01602183611e79565b9150612e0c82612da5565b604082019050919050565b60006020820190508181036000830152612e3081612df4565b9050919050565b7f45524332303a206275726e20616d6f756e7420657863656564732062616c616e60008201527f6365000000000000000000000000000000000000000000000000000000000000602082015250565b6000612e93602283611e79565b9150612e9e82612e37565b604082019050919050565b60006020820190508181036000830152612ec281612e86565b9050919050565b7f496e697469616c697a61626c653a20636f6e7472616374206973206e6f74206960008201527f6e697469616c697a696e67000000000000000000000000000000000000000000602082015250565b6000612f25602b83611e79565b9150612f3082612ec9565b604082019050919050565b60006020820190508181036000830152612f5481612f18565b9050919050565b7f455243313936373a206e657720696d706c656d656e746174696f6e206973206e60008201527f6f74206120636f6e747261637400000000000000000000000000000000000000602082015250565b6000612fb7602d83611e79565b9150612fc282612f5b565b604082019050919050565b60006020820190508181036000830152612fe681612faa565b9050919050565b60008190508160005260206000209050919050565b60006020601f8301049050919050565b600082821b905092915050565b60006008830261304f7fffffffffffffffffffffffffffffffffffffffffffffffffffffffffffffffff82613012565b6130598683613012565b95508019841693508086168417925050509392505050565b600061308c61308761308284611f92565b612690565b611f92565b9050919050565b6000819050919050565b6130a683613071565b6130ba6130b282613093565b84845461301f565b825550505050565b600090565b6130cf6130c2565b6130da81848461309d565b505050565b5b818110156130fe576130f36000826130c7565b6001810190506130e0565b5050565b601f8211156131435761311481612fed565b61311d84613002565b8101602085101561312c578190505b61314061313885613002565b8301826130df565b50505b505050565b600082821c905092915050565b600061316660001984600802613148565b1980831691505092915050565b600061317f8383613155565b9150826002028217905092915050565b61319882611e6e565b67ffffffffffffffff8111156131b1576131b0612156565b5b6131bb82546123aa565b6131c6828285613102565b600060209050601f8311600181146131f957600084156131e7578287015190505b6131f18582613173565b865550613259565b601f19841661320786612fed565b60005b8281101561322f5784890151825560018201915060208501945060208101905061320a565b8683101561324c5784890151613248601f891682613155565b8355505b6001600288020188555050505b505050505050565b7f416464726573733a2064656c65676174652063616c6c20746f206e6f6e2d636f60008201527f6e74726163740000000000000000000000000000000000000000000000000000602082015250565b60006132bd602683611e79565b91506132c882613261565b604082019050919050565b600060208201905081810360008301526132ec816132b0565b9050919050565b600081519050919050565b600081905092915050565b6000613314826132f3565b61331e81856132fe565b935061332e818560208601611e8a565b80840191505092915050565b60006133468284613309565b91508190509291505056fe416464726573733a206c6f772d6c6576656c2064656c65676174652063616c6c206661696c6564a2646970667358221220aaffc69c92d00ca02b12e77a03868a6d36ebac12750a66e8641f64e09bffa46364736f6c63430008120033",
					"opcodes": "PUSH1 0xA0 PUSH1 0x40 MSTORE ADDRESS PUSH20 0xFFFFFFFFFFFFFFFFFFFFFFFFFFFFFFFFFFFFFFFF AND PUSH1 0x80 SWAP1 PUSH20 0xFFFFFFFFFFFFFFFFFFFFFFFFFFFFFFFFFFFFFFFF AND DUP2 MSTORE POP CALLVALUE DUP1 ISZERO PUSH3 0x44 JUMPI PUSH1 0x0 DUP1 REVERT JUMPDEST POP PUSH3 0x55 PUSH3 0x5B PUSH1 0x20 SHL PUSH1 0x20 SHR JUMP JUMPDEST PUSH3 0x206 JUMP JUMPDEST PUSH1 0x0 PUSH1 0x1 SWAP1 SLOAD SWAP1 PUSH2 0x100 EXP SWAP1 DIV PUSH1 0xFF AND ISZERO PUSH3 0xAE JUMPI PUSH1 0x40 MLOAD PUSH32 0x8C379A000000000000000000000000000000000000000000000000000000000 DUP2 MSTORE PUSH1 0x4 ADD PUSH3 0xA5 SWAP1 PUSH3 0x1A9 JUMP JUMPDEST PUSH1 0x40 MLOAD DUP1 SWAP2 SUB SWAP1 REVERT JUMPDEST PUSH1 0xFF DUP1 AND PUSH1 0x0 DUP1 SLOAD SWAP1 PUSH2 0x100 EXP SWAP1 DIV PUSH1 0xFF AND PUSH1 0xFF AND LT ISZERO PUSH3 0x120 JUMPI PUSH1 0xFF PUSH1 0x0 DUP1 PUSH2 0x100 EXP DUP2 SLOAD DUP2 PUSH1 0xFF MUL NOT AND SWAP1 DUP4 PUSH1 0xFF AND MUL OR SWAP1 SSTORE POP PUSH32 0x7F26B83FF96E1F2B6A682F133852F6798A09C465DA95921460CEFB3847402498 PUSH1 0xFF PUSH1 0x40 MLOAD PUSH3 0x117 SWAP2 SWAP1 PUSH3 0x1E9 JUMP JUMPDEST PUSH1 0x40 MLOAD DUP1 SWAP2 SUB SWAP1 LOG1 JUMPDEST JUMP JUMPDEST PUSH1 0x0 DUP3 DUP3 MSTORE PUSH1 0x20 DUP3 ADD SWAP1 POP SWAP3 SWAP2 POP POP JUMP JUMPDEST PUSH32 0x496E697469616C697A61626C653A20636F6E747261637420697320696E697469 PUSH1 0x0 DUP3 ADD MSTORE PUSH32 0x616C697A696E6700000000000000000000000000000000000000000000000000 PUSH1 0x20 DUP3 ADD MSTORE POP JUMP JUMPDEST PUSH1 0x0 PUSH3 0x191 PUSH1 0x27 DUP4 PUSH3 0x122 JUMP JUMPDEST SWAP2 POP PUSH3 0x19E DUP3 PUSH3 0x133 JUMP JUMPDEST PUSH1 0x40 DUP3 ADD SWAP1 POP SWAP2 SWAP1 POP JUMP JUMPDEST PUSH1 0x0 PUSH1 0x20 DUP3 ADD SWAP1 POP DUP2 DUP2 SUB PUSH1 0x0 DUP4 ADD MSTORE PUSH3 0x1C4 DUP2 PUSH3 0x182 JUMP JUMPDEST SWAP1 POP SWAP2 SWAP1 POP JUMP JUMPDEST PUSH1 0x0 PUSH1 0xFF DUP3 AND SWAP1 POP SWAP2 SWAP1 POP JUMP JUMPDEST PUSH3 0x1E3 DUP2 PUSH3 0x1CB JUMP JUMPDEST DUP3 MSTORE POP POP JUMP JUMPDEST PUSH1 0x0 PUSH1 0x20 DUP3 ADD SWAP1 POP PUSH3 0x200 PUSH1 0x0 DUP4 ADD DUP5 PUSH3 0x1D8 JUMP JUMPDEST SWAP3 SWAP2 POP POP JUMP JUMPDEST PUSH1 0x80 MLOAD PUSH2 0x33AE PUSH3 0x23E PUSH1 0x0 CODECOPY PUSH1 0x0 DUP2 DUP2 PUSH2 0x5EC ADD MSTORE DUP2 DUP2 PUSH2 0x67A ADD MSTORE DUP2 DUP2 PUSH2 0x7D5 ADD MSTORE DUP2 DUP2 PUSH2 0x863 ADD MSTORE PUSH2 0x913 ADD MSTORE PUSH2 0x33AE PUSH1 0x0 RETURN INVALID PUSH1 0x80 PUSH1 0x40 MSTORE PUSH1 0x4 CALLDATASIZE LT PUSH2 0x12A JUMPI PUSH1 0x0 CALLDATALOAD PUSH1 0xE0 SHR DUP1 PUSH4 0x52D1902D GT PUSH2 0xAB JUMPI DUP1 PUSH4 0x8DA5CB5B GT PUSH2 0x6F JUMPI DUP1 PUSH4 0x8DA5CB5B EQ PUSH2 0x3BD JUMPI DUP1 PUSH4 0x95D89B41 EQ PUSH2 0x3E8 JUMPI DUP1 PUSH4 0xA457C2D7 EQ PUSH2 0x413 JUMPI DUP1 PUSH4 0xA9059CBB EQ PUSH2 0x450 JUMPI DUP1 PUSH4 0xDD62ED3E EQ PUSH2 0x48D JUMPI DUP1 PUSH4 0xF2FDE38B EQ PUSH2 0x4CA JUMPI PUSH2 0x12A JUMP JUMPDEST DUP1 PUSH4 0x52D1902D EQ PUSH2 0x2FE JUMPI DUP1 PUSH4 0x70A08231 EQ PUSH2 0x329 JUMPI DUP1 PUSH4 0x715018A6 EQ PUSH2 0x366 JUMPI DUP1 PUSH4 0x79CC6790 EQ PUSH2 0x37D JUMPI DUP1 PUSH4 0x8129FC1C EQ PUSH2 0x3A6 JUMPI PUSH2 0x12A JUMP JUMPDEST DUP1 PUSH4 0x3659CFE6 GT PUSH2 0xF2 JUMPI DUP1 PUSH4 0x3659CFE6 EQ PUSH2 0x22A JUMPI DUP1 PUSH4 0x39509351 EQ PUSH2 0x253 JUMPI DUP1 PUSH4 0x40C10F19 EQ PUSH2 0x290 JUMPI DUP1 PUSH4 0x42966C68 EQ PUSH2 0x2B9 JUMPI DUP1 PUSH4 0x4F1EF286 EQ PUSH2 0x2E2 JUMPI PUSH2 0x12A JUMP JUMPDEST DUP1 PUSH4 0x6FDDE03 EQ PUSH2 0x12F JUMPI DUP1 PUSH4 0x95EA7B3 EQ PUSH2 0x15A JUMPI DUP1 PUSH4 0x18160DDD EQ PUSH2 0x197 JUMPI DUP1 PUSH4 0x23B872DD EQ PUSH2 0x1C2 JUMPI DUP1 PUSH4 0x313CE567 EQ PUSH2 0x1FF JUMPI JUMPDEST PUSH1 0x0 DUP1 REVERT JUMPDEST CALLVALUE DUP1 ISZERO PUSH2 0x13B JUMPI PUSH1 0x0 DUP1 REVERT JUMPDEST POP PUSH2 0x144 PUSH2 0x4F3 JUMP JUMPDEST PUSH1 0x40 MLOAD PUSH2 0x151 SWAP2 SWAP1 PUSH2 0x1EFE JUMP JUMPDEST PUSH1 0x40 MLOAD DUP1 SWAP2 SUB SWAP1 RETURN JUMPDEST CALLVALUE DUP1 ISZERO PUSH2 0x166 JUMPI PUSH1 0x0 DUP1 REVERT JUMPDEST POP PUSH2 0x181 PUSH1 0x4 DUP1 CALLDATASIZE SUB DUP2 ADD SWAP1 PUSH2 0x17C SWAP2 SWAP1 PUSH2 0x1FC8 JUMP JUMPDEST PUSH2 0x585 JUMP JUMPDEST PUSH1 0x40 MLOAD PUSH2 0x18E SWAP2 SWAP1 PUSH2 0x2023 JUMP JUMPDEST PUSH1 0x40 MLOAD DUP1 SWAP2 SUB SWAP1 RETURN JUMPDEST CALLVALUE DUP1 ISZERO PUSH2 0x1A3 JUMPI PUSH1 0x0 DUP1 REVERT JUMPDEST POP PUSH2 0x1AC PUSH2 0x5A8 JUMP JUMPDEST PUSH1 0x40 MLOAD PUSH2 0x1B9 SWAP2 SWAP1 PUSH2 0x204D JUMP JUMPDEST PUSH1 0x40 MLOAD DUP1 SWAP2 SUB SWAP1 RETURN JUMPDEST CALLVALUE DUP1 ISZERO PUSH2 0x1CE JUMPI PUSH1 0x0 DUP1 REVERT JUMPDEST POP PUSH2 0x1E9 PUSH1 0x4 DUP1 CALLDATASIZE SUB DUP2 ADD SWAP1 PUSH2 0x1E4 SWAP2 SWAP1 PUSH2 0x2068 JUMP JUMPDEST PUSH2 0x5B2 JUMP JUMPDEST PUSH1 0x40 MLOAD PUSH2 0x1F6 SWAP2 SWAP1 PUSH2 0x2023 JUMP JUMPDEST PUSH1 0x40 MLOAD DUP1 SWAP2 SUB SWAP1 RETURN JUMPDEST CALLVALUE DUP1 ISZERO PUSH2 0x20B JUMPI PUSH1 0x0 DUP1 REVERT JUMPDEST POP PUSH2 0x214 PUSH2 0x5E1 JUMP JUMPDEST PUSH1 0x40 MLOAD PUSH2 0x221 SWAP2 SWAP1 PUSH2 0x20D7 JUMP JUMPDEST PUSH1 0x40 MLOAD DUP1 SWAP2 SUB SWAP1 RETURN JUMPDEST CALLVALUE DUP1 ISZERO PUSH2 0x236 JUMPI PUSH1 0x0 DUP1 REVERT JUMPDEST POP PUSH2 0x251 PUSH1 0x4 DUP1 CALLDATASIZE SUB DUP2 ADD SWAP1 PUSH2 0x24C SWAP2 SWAP1 PUSH2 0x20F2 JUMP JUMPDEST PUSH2 0x5EA JUMP JUMPDEST STOP JUMPDEST CALLVALUE DUP1 ISZERO PUSH2 0x25F JUMPI PUSH1 0x0 DUP1 REVERT JUMPDEST POP PUSH2 0x27A PUSH1 0x4 DUP1 CALLDATASIZE SUB DUP2 ADD SWAP1 PUSH2 0x275 SWAP2 SWAP1 PUSH2 0x1FC8 JUMP JUMPDEST PUSH2 0x772 JUMP JUMPDEST PUSH1 0x40 MLOAD PUSH2 0x287 SWAP2 SWAP1 PUSH2 0x2023 JUMP JUMPDEST PUSH1 0x40 MLOAD DUP1 SWAP2 SUB SWAP1 RETURN JUMPDEST CALLVALUE DUP1 ISZERO PUSH2 0x29C JUMPI PUSH1 0x0 DUP1 REVERT JUMPDEST POP PUSH2 0x2B7 PUSH1 0x4 DUP1 CALLDATASIZE SUB DUP2 ADD SWAP1 PUSH2 0x2B2 SWAP2 SWAP1 PUSH2 0x1FC8 JUMP JUMPDEST PUSH2 0x7A9 JUMP JUMPDEST STOP JUMPDEST CALLVALUE DUP1 ISZERO PUSH2 0x2C5 JUMPI PUSH1 0x0 DUP1 REVERT JUMPDEST POP PUSH2 0x2E0 PUSH1 0x4 DUP1 CALLDATASIZE SUB DUP2 ADD SWAP1 PUSH2 0x2DB SWAP2 SWAP1 PUSH2 0x211F JUMP JUMPDEST PUSH2 0x7BF JUMP JUMPDEST STOP JUMPDEST PUSH2 0x2FC PUSH1 0x4 DUP1 CALLDATASIZE SUB DUP2 ADD SWAP1 PUSH2 0x2F7 SWAP2 SWAP1 PUSH2 0x2281 JUMP JUMPDEST PUSH2 0x7D3 JUMP JUMPDEST STOP JUMPDEST CALLVALUE DUP1 ISZERO PUSH2 0x30A JUMPI PUSH1 0x0 DUP1 REVERT JUMPDEST POP PUSH2 0x313 PUSH2 0x90F JUMP JUMPDEST PUSH1 0x40 MLOAD PUSH2 0x320 SWAP2 SWAP1 PUSH2 0x22F6 JUMP JUMPDEST PUSH1 0x40 MLOAD DUP1 SWAP2 SUB SWAP1 RETURN JUMPDEST CALLVALUE DUP1 ISZERO PUSH2 0x335 JUMPI PUSH1 0x0 DUP1 REVERT JUMPDEST POP PUSH2 0x350 PUSH1 0x4 DUP1 CALLDATASIZE SUB DUP2 ADD SWAP1 PUSH2 0x34B SWAP2 SWAP1 PUSH2 0x20F2 JUMP JUMPDEST PUSH2 0x9C8 JUMP JUMPDEST PUSH1 0x40 MLOAD PUSH2 0x35D SWAP2 SWAP1 PUSH2 0x204D JUMP JUMPDEST PUSH1 0x40 MLOAD DUP1 SWAP2 SUB SWAP1 RETURN JUMPDEST CALLVALUE DUP1 ISZERO PUSH2 0x372 JUMPI PUSH1 0x0 DUP1 REVERT JUMPDEST POP PUSH2 0x37B PUSH2 0xA11 JUMP JUMPDEST STOP JUMPDEST CALLVALUE DUP1 ISZERO PUSH2 0x389 JUMPI PUSH1 0x0 DUP1 REVERT JUMPDEST POP PUSH2 0x3A4 PUSH1 0x4 DUP1 CALLDATASIZE SUB DUP2 ADD SWAP1 PUSH2 0x39F SWAP2 SWAP1 PUSH2 0x1FC8 JUMP JUMPDEST PUSH2 0xA25 JUMP JUMPDEST STOP JUMPDEST CALLVALUE DUP1 ISZERO PUSH2 0x3B2 JUMPI PUSH1 0x0 DUP1 REVERT JUMPDEST POP PUSH2 0x3BB PUSH2 0xA45 JUMP JUMPDEST STOP JUMPDEST CALLVALUE DUP1 ISZERO PUSH2 0x3C9 JUMPI PUSH1 0x0 DUP1 REVERT JUMPDEST POP PUSH2 0x3D2 PUSH2 0xC07 JUMP JUMPDEST PUSH1 0x40 MLOAD PUSH2 0x3DF SWAP2 SWAP1 PUSH2 0x2320 JUMP JUMPDEST PUSH1 0x40 MLOAD DUP1 SWAP2 SUB SWAP1 RETURN JUMPDEST CALLVALUE DUP1 ISZERO PUSH2 0x3F4 JUMPI PUSH1 0x0 DUP1 REVERT JUMPDEST POP PUSH2 0x3FD PUSH2 0xC31 JUMP JUMPDEST PUSH1 0x40 MLOAD PUSH2 0x40A SWAP2 SWAP1 PUSH2 0x1EFE JUMP JUMPDEST PUSH1 0x40 MLOAD DUP1 SWAP2 SUB SWAP1 RETURN JUMPDEST CALLVALUE DUP1 ISZERO PUSH2 0x41F JUMPI PUSH1 0x0 DUP1 REVERT JUMPDEST POP PUSH2 0x43A PUSH1 0x4 DUP1 CALLDATASIZE SUB DUP2 ADD SWAP1 PUSH2 0x435 SWAP2 SWAP1 PUSH2 0x1FC8 JUMP JUMPDEST PUSH2 0xCC3 JUMP JUMPDEST PUSH1 0x40 MLOAD PUSH2 0x447 SWAP2 SWAP1 PUSH2 0x2023 JUMP JUMPDEST PUSH1 0x40 MLOAD DUP1 SWAP2 SUB SWAP1 RETURN JUMPDEST CALLVALUE DUP1 ISZERO PUSH2 0x45C JUMPI PUSH1 0x0 DUP1 REVERT JUMPDEST POP PUSH2 0x477 PUSH1 0x4 DUP1 CALLDATASIZE SUB DUP2 ADD SWAP1 PUSH2 0x472 SWAP2 SWAP1 PUSH2 0x1FC8 JUMP JUMPDEST PUSH2 0xD3A JUMP JUMPDEST PUSH1 0x40 MLOAD PUSH2 0x484 SWAP2 SWAP1 PUSH2 0x2023 JUMP JUMPDEST PUSH1 0x40 MLOAD DUP1 SWAP2 SUB SWAP1 RETURN JUMPDEST CALLVALUE DUP1 ISZERO PUSH2 0x499 JUMPI PUSH1 0x0 DUP1 REVERT JUMPDEST POP PUSH2 0x4B4 PUSH1 0x4 DUP1 CALLDATASIZE SUB DUP2 ADD SWAP1 PUSH2 0x4AF SWAP2 SWAP1 PUSH2 0x233B JUMP JUMPDEST PUSH2 0xD5D JUMP JUMPDEST PUSH1 0x40 MLOAD PUSH2 0x4C1 SWAP2 SWAP1 PUSH2 0x204D JUMP JUMPDEST PUSH1 0x40 MLOAD DUP1 SWAP2 SUB SWAP1 RETURN JUMPDEST CALLVALUE DUP1 ISZERO PUSH2 0x4D6 JUMPI PUSH1 0x0 DUP1 REVERT JUMPDEST POP PUSH2 0x4F1 PUSH1 0x4 DUP1 CALLDATASIZE SUB DUP2 ADD SWAP1 PUSH2 0x4EC SWAP2 SWAP1 PUSH2 0x20F2 JUMP JUMPDEST PUSH2 0xDE4 JUMP JUMPDEST STOP JUMPDEST PUSH1 0x60 PUSH1 0x36 DUP1 SLOAD PUSH2 0x502 SWAP1 PUSH2 0x23AA JUMP JUMPDEST DUP1 PUSH1 0x1F ADD PUSH1 0x20 DUP1 SWAP2 DIV MUL PUSH1 0x20 ADD PUSH1 0x40 MLOAD SWAP1 DUP2 ADD PUSH1 0x40 MSTORE DUP1 SWAP3 SWAP2 SWAP1 DUP2 DUP2 MSTORE PUSH1 0x20 ADD DUP3 DUP1 SLOAD PUSH2 0x52E SWAP1 PUSH2 0x23AA JUMP JUMPDEST DUP1 ISZERO PUSH2 0x57B JUMPI DUP1 PUSH1 0x1F LT PUSH2 0x550 JUMPI PUSH2 0x100 DUP1 DUP4 SLOAD DIV MUL DUP4 MSTORE SWAP2 PUSH1 0x20 ADD SWAP2 PUSH2 0x57B JUMP JUMPDEST DUP3 ADD SWAP2 SWAP1 PUSH1 0x0 MSTORE PUSH1 0x20 PUSH1 0x0 KECCAK256 SWAP1 JUMPDEST DUP2 SLOAD DUP2 MSTORE SWAP1 PUSH1 0x1 ADD SWAP1 PUSH1 0x20 ADD DUP1 DUP4 GT PUSH2 0x55E JUMPI DUP3 SWAP1 SUB PUSH1 0x1F AND DUP3 ADD SWAP2 JUMPDEST POP POP POP POP POP SWAP1 POP SWAP1 JUMP JUMPDEST PUSH1 0x0 DUP1 PUSH2 0x590 PUSH2 0xE67 JUMP JUMPDEST SWAP1 POP PUSH2 0x59D DUP2 DUP6 DUP6 PUSH2 0xE6F JUMP JUMPDEST PUSH1 0x1 SWAP2 POP POP SWAP3 SWAP2 POP POP JUMP JUMPDEST PUSH1 0x0 PUSH1 0x35 SLOAD SWAP1 POP SWAP1 JUMP JUMPDEST PUSH1 0x0 DUP1 PUSH2 0x5BD PUSH2 0xE67 JUMP JUMPDEST SWAP1 POP PUSH2 0x5CA DUP6 DUP3 DUP6 PUSH2 0x1038 JUMP JUMPDEST PUSH2 0x5D5 DUP6 DUP6 DUP6 PUSH2 0x10C4 JUMP JUMPDEST PUSH1 0x1 SWAP2 POP POP SWAP4 SWAP3 POP POP POP JUMP JUMPDEST PUSH1 0x0 PUSH1 0x12 SWAP1 POP SWAP1 JUMP JUMPDEST PUSH32 0x0 PUSH20 0xFFFFFFFFFFFFFFFFFFFFFFFFFFFFFFFFFFFFFFFF AND ADDRESS PUSH20 0xFFFFFFFFFFFFFFFFFFFFFFFFFFFFFFFFFFFFFFFF AND SUB PUSH2 0x678 JUMPI PUSH1 0x40 MLOAD PUSH32 0x8C379A000000000000000000000000000000000000000000000000000000000 DUP2 MSTORE PUSH1 0x4 ADD PUSH2 0x66F SWAP1 PUSH2 0x244D JUMP JUMPDEST PUSH1 0x40 MLOAD DUP1 SWAP2 SUB SWAP1 REVERT JUMPDEST PUSH32 0x0 PUSH20 0xFFFFFFFFFFFFFFFFFFFFFFFFFFFFFFFFFFFFFFFF AND PUSH2 0x6B7 PUSH2 0x133D JUMP JUMPDEST PUSH20 0xFFFFFFFFFFFFFFFFFFFFFFFFFFFFFFFFFFFFFFFF AND EQ PUSH2 0x70D JUMPI PUSH1 0x40 MLOAD PUSH32 0x8C379A000000000000000000000000000000000000000000000000000000000 DUP2 MSTORE PUSH1 0x4 ADD PUSH2 0x704 SWAP1 PUSH2 0x24DF JUMP JUMPDEST PUSH1 0x40 MLOAD DUP1 SWAP2 SUB SWAP1 REVERT JUMPDEST PUSH2 0x716 DUP2 PUSH2 0x1394 JUMP JUMPDEST PUSH2 0x76F DUP2 PUSH1 0x0 PUSH8 0xFFFFFFFFFFFFFFFF DUP2 GT ISZERO PUSH2 0x735 JUMPI PUSH2 0x734 PUSH2 0x2156 JUMP JUMPDEST JUMPDEST PUSH1 0x40 MLOAD SWAP1 DUP1 DUP3 MSTORE DUP1 PUSH1 0x1F ADD PUSH1 0x1F NOT AND PUSH1 0x20 ADD DUP3 ADD PUSH1 0x40 MSTORE DUP1 ISZERO PUSH2 0x767 JUMPI DUP2 PUSH1 0x20 ADD PUSH1 0x1 DUP3 MUL DUP1 CALLDATASIZE DUP4 CALLDATACOPY DUP1 DUP3 ADD SWAP2 POP POP SWAP1 POP JUMPDEST POP PUSH1 0x0 PUSH2 0x139F JUMP JUMPDEST POP JUMP JUMPDEST PUSH1 0x0 DUP1 PUSH2 0x77D PUSH2 0xE67 JUMP JUMPDEST SWAP1 POP PUSH2 0x79E DUP2 DUP6 DUP6 PUSH2 0x78F DUP6 DUP10 PUSH2 0xD5D JUMP JUMPDEST PUSH2 0x799 SWAP2 SWAP1 PUSH2 0x252E JUMP JUMPDEST PUSH2 0xE6F JUMP JUMPDEST PUSH1 0x1 SWAP2 POP POP SWAP3 SWAP2 POP POP JUMP JUMPDEST PUSH2 0x7B1 PUSH2 0x150D JUMP JUMPDEST PUSH2 0x7BB DUP3 DUP3 PUSH2 0x158B JUMP JUMPDEST POP POP JUMP JUMPDEST PUSH2 0x7D0 PUSH2 0x7CA PUSH2 0xE67 JUMP JUMPDEST DUP3 PUSH2 0x16E2 JUMP JUMPDEST POP JUMP JUMPDEST PUSH32 0x0 PUSH20 0xFFFFFFFFFFFFFFFFFFFFFFFFFFFFFFFFFFFFFFFF AND ADDRESS PUSH20 0xFFFFFFFFFFFFFFFFFFFFFFFFFFFFFFFFFFFFFFFF AND SUB PUSH2 0x861 JUMPI PUSH1 0x40 MLOAD PUSH32 0x8C379A000000000000000000000000000000000000000000000000000000000 DUP2 MSTORE PUSH1 0x4 ADD PUSH2 0x858 SWAP1 PUSH2 0x244D JUMP JUMPDEST PUSH1 0x40 MLOAD DUP1 SWAP2 SUB SWAP1 REVERT JUMPDEST PUSH32 0x0 PUSH20 0xFFFFFFFFFFFFFFFFFFFFFFFFFFFFFFFFFFFFFFFF AND PUSH2 0x8A0 PUSH2 0x133D JUMP JUMPDEST PUSH20 0xFFFFFFFFFFFFFFFFFFFFFFFFFFFFFFFFFFFFFFFF AND EQ PUSH2 0x8F6 JUMPI PUSH1 0x40 MLOAD PUSH32 0x8C379A000000000000000000000000000000000000000000000000000000000 DUP2 MSTORE PUSH1 0x4 ADD PUSH2 0x8ED SWAP1 PUSH2 0x24DF JUMP JUMPDEST PUSH1 0x40 MLOAD DUP1 SWAP2 SUB SWAP1 REVERT JUMPDEST PUSH2 0x8FF DUP3 PUSH2 0x1394 JUMP JUMPDEST PUSH2 0x90B DUP3 DUP3 PUSH1 0x1 PUSH2 0x139F JUMP JUMPDEST POP POP JUMP JUMPDEST PUSH1 0x0 PUSH32 0x0 PUSH20 0xFFFFFFFFFFFFFFFFFFFFFFFFFFFFFFFFFFFFFFFF AND ADDRESS PUSH20 0xFFFFFFFFFFFFFFFFFFFFFFFFFFFFFFFFFFFFFFFF AND EQ PUSH2 0x99F JUMPI PUSH1 0x40 MLOAD PUSH32 0x8C379A000000000000000000000000000000000000000000000000000000000 DUP2 MSTORE PUSH1 0x4 ADD PUSH2 0x996 SWAP1 PUSH2 0x25D4 JUMP JUMPDEST PUSH1 0x40 MLOAD DUP1 SWAP2 SUB SWAP1 REVERT JUMPDEST PUSH32 0x360894A13BA1A3210667C828492DB98DCA3E2076CC3735A920A3CA505D382BBC PUSH1 0x0 SHL SWAP1 POP SWAP1 JUMP JUMPDEST PUSH1 0x0 PUSH1 0x33 PUSH1 0x0 DUP4 PUSH20 0xFFFFFFFFFFFFFFFFFFFFFFFFFFFFFFFFFFFFFFFF AND PUSH20 0xFFFFFFFFFFFFFFFFFFFFFFFFFFFFFFFFFFFFFFFF AND DUP2 MSTORE PUSH1 0x20 ADD SWAP1 DUP2 MSTORE PUSH1 0x20 ADD PUSH1 0x0 KECCAK256 SLOAD SWAP1 POP SWAP2 SWAP1 POP JUMP JUMPDEST PUSH2 0xA19 PUSH2 0x150D JUMP JUMPDEST PUSH2 0xA23 PUSH1 0x0 PUSH2 0x18B1 JUMP JUMPDEST JUMP JUMPDEST PUSH2 0xA37 DUP3 PUSH2 0xA31 PUSH2 0xE67 JUMP JUMPDEST DUP4 PUSH2 0x1038 JUMP JUMPDEST PUSH2 0xA41 DUP3 DUP3 PUSH2 0x16E2 JUMP JUMPDEST POP POP JUMP JUMPDEST PUSH1 0x0 DUP1 PUSH1 0x1 SWAP1 SLOAD SWAP1 PUSH2 0x100 EXP SWAP1 DIV PUSH1 0xFF AND ISZERO SWAP1 POP DUP1 DUP1 ISZERO PUSH2 0xA76 JUMPI POP PUSH1 0x1 PUSH1 0x0 DUP1 SLOAD SWAP1 PUSH2 0x100 EXP SWAP1 DIV PUSH1 0xFF AND PUSH1 0xFF AND LT JUMPDEST DUP1 PUSH2 0xAA3 JUMPI POP PUSH2 0xA85 ADDRESS PUSH2 0x1977 JUMP JUMPDEST ISZERO DUP1 ISZERO PUSH2 0xAA2 JUMPI POP PUSH1 0x1 PUSH1 0x0 DUP1 SLOAD SWAP1 PUSH2 0x100 EXP SWAP1 DIV PUSH1 0xFF AND PUSH1 0xFF AND EQ JUMPDEST JUMPDEST PUSH2 0xAE2 JUMPI PUSH1 0x40 MLOAD PUSH32 0x8C379A000000000000000000000000000000000000000000000000000000000 DUP2 MSTORE PUSH1 0x4 ADD PUSH2 0xAD9 SWAP1 PUSH2 0x2666 JUMP JUMPDEST PUSH1 0x40 MLOAD DUP1 SWAP2 SUB SWAP1 REVERT JUMPDEST PUSH1 0x1 PUSH1 0x0 DUP1 PUSH2 0x100 EXP DUP2 SLOAD DUP2 PUSH1 0xFF MUL NOT AND SWAP1 DUP4 PUSH1 0xFF AND MUL OR SWAP1 SSTORE POP DUP1 ISZERO PUSH2 0xB1F JUMPI PUSH1 0x1 PUSH1 0x0 PUSH1 0x1 PUSH2 0x100 EXP DUP2 SLOAD DUP2 PUSH1 0xFF MUL NOT AND SWAP1 DUP4 ISZERO ISZERO MUL OR SWAP1 SSTORE POP JUMPDEST PUSH2 0xB93 PUSH1 0x40 MLOAD DUP1 PUSH1 0x40 ADD PUSH1 0x40 MSTORE DUP1 PUSH1 0x8 DUP2 MSTORE PUSH1 0x20 ADD PUSH32 0x4368616450657065000000000000000000000000000000000000000000000000 DUP2 MSTORE POP PUSH1 0x40 MLOAD DUP1 PUSH1 0x40 ADD PUSH1 0x40 MSTORE DUP1 PUSH1 0x4 DUP2 MSTORE PUSH1 0x20 ADD PUSH32 0x4348414400000000000000000000000000000000000000000000000000000000 DUP2 MSTORE POP PUSH2 0x199A JUMP JUMPDEST PUSH2 0xB9B PUSH2 0x19F7 JUMP JUMPDEST PUSH2 0xBA3 PUSH2 0x1A48 JUMP JUMPDEST PUSH2 0xBAB PUSH2 0x1AA1 JUMP JUMPDEST DUP1 ISZERO PUSH2 0xC04 JUMPI PUSH1 0x0 DUP1 PUSH1 0x1 PUSH2 0x100 EXP DUP2 SLOAD DUP2 PUSH1 0xFF MUL NOT AND SWAP1 DUP4 ISZERO ISZERO MUL OR SWAP1 SSTORE POP PUSH32 0x7F26B83FF96E1F2B6A682F133852F6798A09C465DA95921460CEFB3847402498 PUSH1 0x1 PUSH1 0x40 MLOAD PUSH2 0xBFB SWAP2 SWAP1 PUSH2 0x26CB JUMP JUMPDEST PUSH1 0x40 MLOAD DUP1 SWAP2 SUB SWAP1 LOG1 JUMPDEST POP JUMP JUMPDEST PUSH1 0x0 PUSH1 0x97 PUSH1 0x0 SWAP1 SLOAD SWAP1 PUSH2 0x100 EXP SWAP1 DIV PUSH20 0xFFFFFFFFFFFFFFFFFFFFFFFFFFFFFFFFFFFFFFFF AND SWAP1 POP SWAP1 JUMP JUMPDEST PUSH1 0x60 PUSH1 0x37 DUP1 SLOAD PUSH2 0xC40 SWAP1 PUSH2 0x23AA JUMP JUMPDEST DUP1 PUSH1 0x1F ADD PUSH1 0x20 DUP1 SWAP2 DIV MUL PUSH1 0x20 ADD PUSH1 0x40 MLOAD SWAP1 DUP2 ADD PUSH1 0x40 MSTORE DUP1 SWAP3 SWAP2 SWAP1 DUP2 DUP2 MSTORE PUSH1 0x20 ADD DUP3 DUP1 SLOAD PUSH2 0xC6C SWAP1 PUSH2 0x23AA JUMP JUMPDEST DUP1 ISZERO PUSH2 0xCB9 JUMPI DUP1 PUSH1 0x1F LT PUSH2 0xC8E JUMPI PUSH2 0x100 DUP1 DUP4 SLOAD DIV MUL DUP4 MSTORE SWAP2 PUSH1 0x20 ADD SWAP2 PUSH2 0xCB9 JUMP JUMPDEST DUP3 ADD SWAP2 SWAP1 PUSH1 0x0 MSTORE PUSH1 0x20 PUSH1 0x0 KECCAK256 SWAP1 JUMPDEST DUP2 SLOAD DUP2 MSTORE SWAP1 PUSH1 0x1 ADD SWAP1 PUSH1 0x20 ADD DUP1 DUP4 GT PUSH2 0xC9C JUMPI DUP3 SWAP1 SUB PUSH1 0x1F AND DUP3 ADD SWAP2 JUMPDEST POP POP POP POP POP SWAP1 POP SWAP1 JUMP JUMPDEST PUSH1 0x0 DUP1 PUSH2 0xCCE PUSH2 0xE67 JUMP JUMPDEST SWAP1 POP PUSH1 0x0 PUSH2 0xCDC DUP3 DUP7 PUSH2 0xD5D JUMP JUMPDEST SWAP1 POP DUP4 DUP2 LT ISZERO PUSH2 0xD21 JUMPI PUSH1 0x40 MLOAD PUSH32 0x8C379A000000000000000000000000000000000000000000000000000000000 DUP2 MSTORE PUSH1 0x4 ADD PUSH2 0xD18 SWAP1 PUSH2 0x2758 JUMP JUMPDEST PUSH1 0x40 MLOAD DUP1 SWAP2 SUB SWAP1 REVERT JUMPDEST PUSH2 0xD2E DUP3 DUP7 DUP7 DUP5 SUB PUSH2 0xE6F JUMP JUMPDEST PUSH1 0x1 SWAP3 POP POP POP SWAP3 SWAP2 POP POP JUMP JUMPDEST PUSH1 0x0 DUP1 PUSH2 0xD45 PUSH2 0xE67 JUMP JUMPDEST SWAP1 POP PUSH2 0xD52 DUP2 DUP6 DUP6 PUSH2 0x10C4 JUMP JUMPDEST PUSH1 0x1 SWAP2 POP POP SWAP3 SWAP2 POP POP JUMP JUMPDEST PUSH1 0x0 PUSH1 0x34 PUSH1 0x0 DUP5 PUSH20 0xFFFFFFFFFFFFFFFFFFFFFFFFFFFFFFFFFFFFFFFF AND PUSH20 0xFFFFFFFFFFFFFFFFFFFFFFFFFFFFFFFFFFFFFFFF AND DUP2 MSTORE PUSH1 0x20 ADD SWAP1 DUP2 MSTORE PUSH1 0x20 ADD PUSH1 0x0 KECCAK256 PUSH1 0x0 DUP4 PUSH20 0xFFFFFFFFFFFFFFFFFFFFFFFFFFFFFFFFFFFFFFFF AND PUSH20 0xFFFFFFFFFFFFFFFFFFFFFFFFFFFFFFFFFFFFFFFF AND DUP2 MSTORE PUSH1 0x20 ADD SWAP1 DUP2 MSTORE PUSH1 0x20 ADD PUSH1 0x0 KECCAK256 SLOAD SWAP1 POP SWAP3 SWAP2 POP POP JUMP JUMPDEST PUSH2 0xDEC PUSH2 0x150D JUMP JUMPDEST PUSH1 0x0 PUSH20 0xFFFFFFFFFFFFFFFFFFFFFFFFFFFFFFFFFFFFFFFF AND DUP2 PUSH20 0xFFFFFFFFFFFFFFFFFFFFFFFFFFFFFFFFFFFFFFFF AND SUB PUSH2 0xE5B JUMPI PUSH1 0x40 MLOAD PUSH32 0x8C379A000000000000000000000000000000000000000000000000000000000 DUP2 MSTORE PUSH1 0x4 ADD PUSH2 0xE52 SWAP1 PUSH2 0x27EA JUMP JUMPDEST PUSH1 0x40 MLOAD DUP1 SWAP2 SUB SWAP1 REVERT JUMPDEST PUSH2 0xE64 DUP2 PUSH2 0x18B1 JUMP JUMPDEST POP JUMP JUMPDEST PUSH1 0x0 CALLER SWAP1 POP SWAP1 JUMP JUMPDEST PUSH1 0x0 PUSH20 0xFFFFFFFFFFFFFFFFFFFFFFFFFFFFFFFFFFFFFFFF AND DUP4 PUSH20 0xFFFFFFFFFFFFFFFFFFFFFFFFFFFFFFFFFFFFFFFF AND SUB PUSH2 0xEDE JUMPI PUSH1 0x40 MLOAD PUSH32 0x8C379A000000000000000000000000000000000000000000000000000000000 DUP2 MSTORE PUSH1 0x4 ADD PUSH2 0xED5 SWAP1 PUSH2 0x287C JUMP JUMPDEST PUSH1 0x40 MLOAD DUP1 SWAP2 SUB SWAP1 REVERT JUMPDEST PUSH1 0x0 PUSH20 0xFFFFFFFFFFFFFFFFFFFFFFFFFFFFFFFFFFFFFFFF AND DUP3 PUSH20 0xFFFFFFFFFFFFFFFFFFFFFFFFFFFFFFFFFFFFFFFF AND SUB PUSH2 0xF4D JUMPI PUSH1 0x40 MLOAD PUSH32 0x8C379A000000000000000000000000000000000000000000000000000000000 DUP2 MSTORE PUSH1 0x4 ADD PUSH2 0xF44 SWAP1 PUSH2 0x290E JUMP JUMPDEST PUSH1 0x40 MLOAD DUP1 SWAP2 SUB SWAP1 REVERT JUMPDEST DUP1 PUSH1 0x34 PUSH1 0x0 DUP6 PUSH20 0xFFFFFFFFFFFFFFFFFFFFFFFFFFFFFFFFFFFFFFFF AND PUSH20 0xFFFFFFFFFFFFFFFFFFFFFFFFFFFFFFFFFFFFFFFF AND DUP2 MSTORE PUSH1 0x20 ADD SWAP1 DUP2 MSTORE PUSH1 0x20 ADD PUSH1 0x0 KECCAK256 PUSH1 0x0 DUP5 PUSH20 0xFFFFFFFFFFFFFFFFFFFFFFFFFFFFFFFFFFFFFFFF AND PUSH20 0xFFFFFFFFFFFFFFFFFFFFFFFFFFFFFFFFFFFFFFFF AND DUP2 MSTORE PUSH1 0x20 ADD SWAP1 DUP2 MSTORE PUSH1 0x20 ADD PUSH1 0x0 KECCAK256 DUP2 SWAP1 SSTORE POP DUP2 PUSH20 0xFFFFFFFFFFFFFFFFFFFFFFFFFFFFFFFFFFFFFFFF AND DUP4 PUSH20 0xFFFFFFFFFFFFFFFFFFFFFFFFFFFFFFFFFFFFFFFF AND PUSH32 0x8C5BE1E5EBEC7D5BD14F71427D1E84F3DD0314C0F7B2291E5B200AC8C7C3B925 DUP4 PUSH1 0x40 MLOAD PUSH2 0x102B SWAP2 SWAP1 PUSH2 0x204D JUMP JUMPDEST PUSH1 0x40 MLOAD DUP1 SWAP2 SUB SWAP1 LOG3 POP POP POP JUMP JUMPDEST PUSH1 0x0 PUSH2 0x1044 DUP5 DUP5 PUSH2 0xD5D JUMP JUMPDEST SWAP1 POP PUSH32 0xFFFFFFFFFFFFFFFFFFFFFFFFFFFFFFFFFFFFFFFFFFFFFFFFFFFFFFFFFFFFFFFF DUP2 EQ PUSH2 0x10BE JUMPI DUP2 DUP2 LT ISZERO PUSH2 0x10B0 JUMPI PUSH1 0x40 MLOAD PUSH32 0x8C379A000000000000000000000000000000000000000000000000000000000 DUP2 MSTORE PUSH1 0x4 ADD PUSH2 0x10A7 SWAP1 PUSH2 0x297A JUMP JUMPDEST PUSH1 0x40 MLOAD DUP1 SWAP2 SUB SWAP1 REVERT JUMPDEST PUSH2 0x10BD DUP5 DUP5 DUP5 DUP5 SUB PUSH2 0xE6F JUMP JUMPDEST JUMPDEST POP POP POP POP JUMP JUMPDEST PUSH1 0x0 PUSH20 0xFFFFFFFFFFFFFFFFFFFFFFFFFFFFFFFFFFFFFFFF AND DUP4 PUSH20 0xFFFFFFFFFFFFFFFFFFFFFFFFFFFFFFFFFFFFFFFF AND SUB PUSH2 0x1133 JUMPI PUSH1 0x40 MLOAD PUSH32 0x8C379A000000000000000000000000000000000000000000000000000000000 DUP2 MSTORE PUSH1 0x4 ADD PUSH2 0x112A SWAP1 PUSH2 0x2A0C JUMP JUMPDEST PUSH1 0x40 MLOAD DUP1 SWAP2 SUB SWAP1 REVERT JUMPDEST PUSH1 0x0 PUSH20 0xFFFFFFFFFFFFFFFFFFFFFFFFFFFFFFFFFFFFFFFF AND DUP3 PUSH20 0xFFFFFFFFFFFFFFFFFFFFFFFFFFFFFFFFFFFFFFFF AND SUB PUSH2 0x11A2 JUMPI PUSH1 0x40 MLOAD PUSH32 0x8C379A000000000000000000000000000000000000000000000000000000000 DUP2 MSTORE PUSH1 0x4 ADD PUSH2 0x1199 SWAP1 PUSH2 0x2A9E JUMP JUMPDEST PUSH1 0x40 MLOAD DUP1 SWAP2 SUB SWAP1 REVERT JUMPDEST PUSH2 0x11AD DUP4 DUP4 DUP4 PUSH2 0x1AF2 JUMP JUMPDEST PUSH1 0x0 PUSH1 0x33 PUSH1 0x0 DUP6 PUSH20 0xFFFFFFFFFFFFFFFFFFFFFFFFFFFFFFFFFFFFFFFF AND PUSH20 0xFFFFFFFFFFFFFFFFFFFFFFFFFFFFFFFFFFFFFFFF AND DUP2 MSTORE PUSH1 0x20 ADD SWAP1 DUP2 MSTORE PUSH1 0x20 ADD PUSH1 0x0 KECCAK256 SLOAD SWAP1 POP DUP2 DUP2 LT ISZERO PUSH2 0x1234 JUMPI PUSH1 0x40 MLOAD PUSH32 0x8C379A000000000000000000000000000000000000000000000000000000000 DUP2 MSTORE PUSH1 0x4 ADD PUSH2 0x122B SWAP1 PUSH2 0x2B30 JUMP JUMPDEST PUSH1 0x40 MLOAD DUP1 SWAP2 SUB SWAP1 REVERT JUMPDEST DUP2 DUP2 SUB PUSH1 0x33 PUSH1 0x0 DUP7 PUSH20 0xFFFFFFFFFFFFFFFFFFFFFFFFFFFFFFFFFFFFFFFF AND PUSH20 0xFFFFFFFFFFFFFFFFFFFFFFFFFFFFFFFFFFFFFFFF AND DUP2 MSTORE PUSH1 0x20 ADD SWAP1 DUP2 MSTORE PUSH1 0x20 ADD PUSH1 0x0 KECCAK256 DUP2 SWAP1 SSTORE POP DUP2 PUSH1 0x33 PUSH1 0x0 DUP6 PUSH20 0xFFFFFFFFFFFFFFFFFFFFFFFFFFFFFFFFFFFFFFFF AND PUSH20 0xFFFFFFFFFFFFFFFFFFFFFFFFFFFFFFFFFFFFFFFF AND DUP2 MSTORE PUSH1 0x20 ADD SWAP1 DUP2 MSTORE PUSH1 0x20 ADD PUSH1 0x0 KECCAK256 PUSH1 0x0 DUP3 DUP3 SLOAD ADD SWAP3 POP POP DUP2 SWAP1 SSTORE POP DUP3 PUSH20 0xFFFFFFFFFFFFFFFFFFFFFFFFFFFFFFFFFFFFFFFF AND DUP5 PUSH20 0xFFFFFFFFFFFFFFFFFFFFFFFFFFFFFFFFFFFFFFFF AND PUSH32 0xDDF252AD1BE2C89B69C2B068FC378DAA952BA7F163C4A11628F55A4DF523B3EF DUP5 PUSH1 0x40 MLOAD PUSH2 0x1324 SWAP2 SWAP1 PUSH2 0x204D JUMP JUMPDEST PUSH1 0x40 MLOAD DUP1 SWAP2 SUB SWAP1 LOG3 PUSH2 0x1337 DUP5 DUP5 DUP5 PUSH2 0x1AF7 JUMP JUMPDEST POP POP POP POP JUMP JUMPDEST PUSH1 0x0 PUSH2 0x136B PUSH32 0x360894A13BA1A3210667C828492DB98DCA3E2076CC3735A920A3CA505D382BBC PUSH1 0x0 SHL PUSH2 0x1AFC JUMP JUMPDEST PUSH1 0x0 ADD PUSH1 0x0 SWAP1 SLOAD SWAP1 PUSH2 0x100 EXP SWAP1 DIV PUSH20 0xFFFFFFFFFFFFFFFFFFFFFFFFFFFFFFFFFFFFFFFF AND SWAP1 POP SWAP1 JUMP JUMPDEST PUSH2 0x139C PUSH2 0x150D JUMP JUMPDEST POP JUMP JUMPDEST PUSH2 0x13CB PUSH32 0x4910FDFA16FED3260ED0E7147F7CC6DA11A60208B5B9406D12A635614FFD9143 PUSH1 0x0 SHL PUSH2 0x1B06 JUMP JUMPDEST PUSH1 0x0 ADD PUSH1 0x0 SWAP1 SLOAD SWAP1 PUSH2 0x100 EXP SWAP1 DIV PUSH1 0xFF AND ISZERO PUSH2 0x13EF JUMPI PUSH2 0x13EA DUP4 PUSH2 0x1B10 JUMP JUMPDEST PUSH2 0x1508 JUMP JUMPDEST DUP3 PUSH20 0xFFFFFFFFFFFFFFFFFFFFFFFFFFFFFFFFFFFFFFFF AND PUSH4 0x52D1902D PUSH1 0x40 MLOAD DUP2 PUSH4 0xFFFFFFFF AND PUSH1 0xE0 SHL DUP2 MSTORE PUSH1 0x4 ADD PUSH1 0x20 PUSH1 0x40 MLOAD DUP1 DUP4 SUB DUP2 DUP7 GAS STATICCALL SWAP3 POP POP POP DUP1 ISZERO PUSH2 0x1457 JUMPI POP PUSH1 0x40 MLOAD RETURNDATASIZE PUSH1 0x1F NOT PUSH1 0x1F DUP3 ADD AND DUP3 ADD DUP1 PUSH1 0x40 MSTORE POP DUP2 ADD SWAP1 PUSH2 0x1454 SWAP2 SWAP1 PUSH2 0x2B7C JUMP JUMPDEST PUSH1 0x1 JUMPDEST PUSH2 0x1496 JUMPI PUSH1 0x40 MLOAD PUSH32 0x8C379A000000000000000000000000000000000000000000000000000000000 DUP2 MSTORE PUSH1 0x4 ADD PUSH2 0x148D SWAP1 PUSH2 0x2C1B JUMP JUMPDEST PUSH1 0x40 MLOAD DUP1 SWAP2 SUB SWAP1 REVERT JUMPDEST PUSH32 0x360894A13BA1A3210667C828492DB98DCA3E2076CC3735A920A3CA505D382BBC PUSH1 0x0 SHL DUP2 EQ PUSH2 0x14FB JUMPI PUSH1 0x40 MLOAD PUSH32 0x8C379A000000000000000000000000000000000000000000000000000000000 DUP2 MSTORE PUSH1 0x4 ADD PUSH2 0x14F2 SWAP1 PUSH2 0x2CAD JUMP JUMPDEST PUSH1 0x40 MLOAD DUP1 SWAP2 SUB SWAP1 REVERT JUMPDEST POP PUSH2 0x1507 DUP4 DUP4 DUP4 PUSH2 0x1BC9 JUMP JUMPDEST JUMPDEST POP POP POP JUMP JUMPDEST PUSH2 0x1515 PUSH2 0xE67 JUMP JUMPDEST PUSH20 0xFFFFFFFFFFFFFFFFFFFFFFFFFFFFFFFFFFFFFFFF AND PUSH2 0x1533 PUSH2 0xC07 JUMP JUMPDEST PUSH20 0xFFFFFFFFFFFFFFFFFFFFFFFFFFFFFFFFFFFFFFFF AND EQ PUSH2 0x1589 JUMPI PUSH1 0x40 MLOAD PUSH32 0x8C379A000000000000000000000000000000000000000000000000000000000 DUP2 MSTORE PUSH1 0x4 ADD PUSH2 0x1580 SWAP1 PUSH2 0x2D19 JUMP JUMPDEST PUSH1 0x40 MLOAD DUP1 SWAP2 SUB SWAP1 REVERT JUMPDEST JUMP JUMPDEST PUSH1 0x0 PUSH20 0xFFFFFFFFFFFFFFFFFFFFFFFFFFFFFFFFFFFFFFFF AND DUP3 PUSH20 0xFFFFFFFFFFFFFFFFFFFFFFFFFFFFFFFFFFFFFFFF AND SUB PUSH2 0x15FA JUMPI PUSH1 0x40 MLOAD PUSH32 0x8C379A000000000000000000000000000000000000000000000000000000000 DUP2 MSTORE PUSH1 0x4 ADD PUSH2 0x15F1 SWAP1 PUSH2 0x2D85 JUMP JUMPDEST PUSH1 0x40 MLOAD DUP1 SWAP2 SUB SWAP1 REVERT JUMPDEST PUSH2 0x1606 PUSH1 0x0 DUP4 DUP4 PUSH2 0x1AF2 JUMP JUMPDEST DUP1 PUSH1 0x35 PUSH1 0x0 DUP3 DUP3 SLOAD PUSH2 0x1618 SWAP2 SWAP1 PUSH2 0x252E JUMP JUMPDEST SWAP3 POP POP DUP2 SWAP1 SSTORE POP DUP1 PUSH1 0x33 PUSH1 0x0 DUP5 PUSH20 0xFFFFFFFFFFFFFFFFFFFFFFFFFFFFFFFFFFFFFFFF AND PUSH20 0xFFFFFFFFFFFFFFFFFFFFFFFFFFFFFFFFFFFFFFFF AND DUP2 MSTORE PUSH1 0x20 ADD SWAP1 DUP2 MSTORE PUSH1 0x20 ADD PUSH1 0x0 KECCAK256 PUSH1 0x0 DUP3 DUP3 SLOAD ADD SWAP3 POP POP DUP2 SWAP1 SSTORE POP DUP2 PUSH20 0xFFFFFFFFFFFFFFFFFFFFFFFFFFFFFFFFFFFFFFFF AND PUSH1 0x0 PUSH20 0xFFFFFFFFFFFFFFFFFFFFFFFFFFFFFFFFFFFFFFFF AND PUSH32 0xDDF252AD1BE2C89B69C2B068FC378DAA952BA7F163C4A11628F55A4DF523B3EF DUP4 PUSH1 0x40 MLOAD PUSH2 0x16CA SWAP2 SWAP1 PUSH2 0x204D JUMP JUMPDEST PUSH1 0x40 MLOAD DUP1 SWAP2 SUB SWAP1 LOG3 PUSH2 0x16DE PUSH1 0x0 DUP4 DUP4 PUSH2 0x1AF7 JUMP JUMPDEST POP POP JUMP JUMPDEST PUSH1 0x0 PUSH20 0xFFFFFFFFFFFFFFFFFFFFFFFFFFFFFFFFFFFFFFFF AND DUP3 PUSH20 0xFFFFFFFFFFFFFFFFFFFFFFFFFFFFFFFFFFFFFFFF AND SUB PUSH2 0x1751 JUMPI PUSH1 0x40 MLOAD PUSH32 0x8C379A000000000000000000000000000000000000000000000000000000000 DUP2 MSTORE PUSH1 0x4 ADD PUSH2 0x1748 SWAP1 PUSH2 0x2E17 JUMP JUMPDEST PUSH1 0x40 MLOAD DUP1 SWAP2 SUB SWAP1 REVERT JUMPDEST PUSH2 0x175D DUP3 PUSH1 0x0 DUP4 PUSH2 0x1AF2 JUMP JUMPDEST PUSH1 0x0 PUSH1 0x33 PUSH1 0x0 DUP5 PUSH20 0xFFFFFFFFFFFFFFFFFFFFFFFFFFFFFFFFFFFFFFFF AND PUSH20 0xFFFFFFFFFFFFFFFFFFFFFFFFFFFFFFFFFFFFFFFF AND DUP2 MSTORE PUSH1 0x20 ADD SWAP1 DUP2 MSTORE PUSH1 0x20 ADD PUSH1 0x0 KECCAK256 SLOAD SWAP1 POP DUP2 DUP2 LT ISZERO PUSH2 0x17E4 JUMPI PUSH1 0x40 MLOAD PUSH32 0x8C379A000000000000000000000000000000000000000000000000000000000 DUP2 MSTORE PUSH1 0x4 ADD PUSH2 0x17DB SWAP1 PUSH2 0x2EA9 JUMP JUMPDEST PUSH1 0x40 MLOAD DUP1 SWAP2 SUB SWAP1 REVERT JUMPDEST DUP2 DUP2 SUB PUSH1 0x33 PUSH1 0x0 DUP6 PUSH20 0xFFFFFFFFFFFFFFFFFFFFFFFFFFFFFFFFFFFFFFFF AND PUSH20 0xFFFFFFFFFFFFFFFFFFFFFFFFFFFFFFFFFFFFFFFF AND DUP2 MSTORE PUSH1 0x20 ADD SWAP1 DUP2 MSTORE PUSH1 0x20 ADD PUSH1 0x0 KECCAK256 DUP2 SWAP1 SSTORE POP DUP2 PUSH1 0x35 PUSH1 0x0 DUP3 DUP3 SLOAD SUB SWAP3 POP POP DUP2 SWAP1 SSTORE POP PUSH1 0x0 PUSH20 0xFFFFFFFFFFFFFFFFFFFFFFFFFFFFFFFFFFFFFFFF AND DUP4 PUSH20 0xFFFFFFFFFFFFFFFFFFFFFFFFFFFFFFFFFFFFFFFF AND PUSH32 0xDDF252AD1BE2C89B69C2B068FC378DAA952BA7F163C4A11628F55A4DF523B3EF DUP5 PUSH1 0x40 MLOAD PUSH2 0x1898 SWAP2 SWAP1 PUSH2 0x204D JUMP JUMPDEST PUSH1 0x40 MLOAD DUP1 SWAP2 SUB SWAP1 LOG3 PUSH2 0x18AC DUP4 PUSH1 0x0 DUP5 PUSH2 0x1AF7 JUMP JUMPDEST POP POP POP JUMP JUMPDEST PUSH1 0x0 PUSH1 0x97 PUSH1 0x0 SWAP1 SLOAD SWAP1 PUSH2 0x100 EXP SWAP1 DIV PUSH20 0xFFFFFFFFFFFFFFFFFFFFFFFFFFFFFFFFFFFFFFFF AND SWAP1 POP DUP2 PUSH1 0x97 PUSH1 0x0 PUSH2 0x100 EXP DUP2 SLOAD DUP2 PUSH20 0xFFFFFFFFFFFFFFFFFFFFFFFFFFFFFFFFFFFFFFFF MUL NOT AND SWAP1 DUP4 PUSH20 0xFFFFFFFFFFFFFFFFFFFFFFFFFFFFFFFFFFFFFFFF AND MUL OR SWAP1 SSTORE POP DUP2 PUSH20 0xFFFFFFFFFFFFFFFFFFFFFFFFFFFFFFFFFFFFFFFF AND DUP2 PUSH20 0xFFFFFFFFFFFFFFFFFFFFFFFFFFFFFFFFFFFFFFFF AND PUSH32 0x8BE0079C531659141344CD1FD0A4F28419497F9722A3DAAFE3B4186F6B6457E0 PUSH1 0x40 MLOAD PUSH1 0x40 MLOAD DUP1 SWAP2 SUB SWAP1 LOG3 POP POP JUMP JUMPDEST PUSH1 0x0 DUP1 DUP3 PUSH20 0xFFFFFFFFFFFFFFFFFFFFFFFFFFFFFFFFFFFFFFFF AND EXTCODESIZE GT SWAP1 POP SWAP2 SWAP1 POP JUMP JUMPDEST PUSH1 0x0 PUSH1 0x1 SWAP1 SLOAD SWAP1 PUSH2 0x100 EXP SWAP1 DIV PUSH1 0xFF AND PUSH2 0x19E9 JUMPI PUSH1 0x40 MLOAD PUSH32 0x8C379A000000000000000000000000000000000000000000000000000000000 DUP2 MSTORE PUSH1 0x4 ADD PUSH2 0x19E0 SWAP1 PUSH2 0x2F3B JUMP JUMPDEST PUSH1 0x40 MLOAD DUP1 SWAP2 SUB SWAP1 REVERT JUMPDEST PUSH2 0x19F3 DUP3 DUP3 PUSH2 0x1BF5 JUMP JUMPDEST POP POP JUMP JUMPDEST PUSH1 0x0 PUSH1 0x1 SWAP1 SLOAD SWAP1 PUSH2 0x100 EXP SWAP1 DIV PUSH1 0xFF AND PUSH2 0x1A46 JUMPI PUSH1 0x40 MLOAD PUSH32 0x8C379A000000000000000000000000000000000000000000000000000000000 DUP2 MSTORE PUSH1 0x4 ADD PUSH2 0x1A3D SWAP1 PUSH2 0x2F3B JUMP JUMPDEST PUSH1 0x40 MLOAD DUP1 SWAP2 SUB SWAP1 REVERT JUMPDEST JUMP JUMPDEST PUSH1 0x0 PUSH1 0x1 SWAP1 SLOAD SWAP1 PUSH2 0x100 EXP SWAP1 DIV PUSH1 0xFF AND PUSH2 0x1A97 JUMPI PUSH1 0x40 MLOAD PUSH32 0x8C379A000000000000000000000000000000000000000000000000000000000 DUP2 MSTORE PUSH1 0x4 ADD PUSH2 0x1A8E SWAP1 PUSH2 0x2F3B JUMP JUMPDEST PUSH1 0x40 MLOAD DUP1 SWAP2 SUB SWAP1 REVERT JUMPDEST PUSH2 0x1A9F PUSH2 0x1C68 JUMP JUMPDEST JUMP JUMPDEST PUSH1 0x0 PUSH1 0x1 SWAP1 SLOAD SWAP1 PUSH2 0x100 EXP SWAP1 DIV PUSH1 0xFF AND PUSH2 0x1AF0 JUMPI PUSH1 0x40 MLOAD PUSH32 0x8C379A000000000000000000000000000000000000000000000000000000000 DUP2 MSTORE PUSH1 0x4 ADD PUSH2 0x1AE7 SWAP1 PUSH2 0x2F3B JUMP JUMPDEST PUSH1 0x40 MLOAD DUP1 SWAP2 SUB SWAP1 REVERT JUMPDEST JUMP JUMPDEST POP POP POP JUMP JUMPDEST POP POP POP JUMP JUMPDEST PUSH1 0x0 DUP2 SWAP1 POP SWAP2 SWAP1 POP JUMP JUMPDEST PUSH1 0x0 DUP2 SWAP1 POP SWAP2 SWAP1 POP JUMP JUMPDEST PUSH2 0x1B19 DUP2 PUSH2 0x1977 JUMP JUMPDEST PUSH2 0x1B58 JUMPI PUSH1 0x40 MLOAD PUSH32 0x8C379A000000000000000000000000000000000000000000000000000000000 DUP2 MSTORE PUSH1 0x4 ADD PUSH2 0x1B4F SWAP1 PUSH2 0x2FCD JUMP JUMPDEST PUSH1 0x40 MLOAD DUP1 SWAP2 SUB SWAP1 REVERT JUMPDEST DUP1 PUSH2 0x1B85 PUSH32 0x360894A13BA1A3210667C828492DB98DCA3E2076CC3735A920A3CA505D382BBC PUSH1 0x0 SHL PUSH2 0x1AFC JUMP JUMPDEST PUSH1 0x0 ADD PUSH1 0x0 PUSH2 0x100 EXP DUP2 SLOAD DUP2 PUSH20 0xFFFFFFFFFFFFFFFFFFFFFFFFFFFFFFFFFFFFFFFF MUL NOT AND SWAP1 DUP4 PUSH20 0xFFFFFFFFFFFFFFFFFFFFFFFFFFFFFFFFFFFFFFFF AND MUL OR SWAP1 SSTORE POP POP JUMP JUMPDEST PUSH2 0x1BD2 DUP4 PUSH2 0x1CC9 JUMP JUMPDEST PUSH1 0x0 DUP3 MLOAD GT DUP1 PUSH2 0x1BDF JUMPI POP DUP1 JUMPDEST ISZERO PUSH2 0x1BF0 JUMPI PUSH2 0x1BEE DUP4 DUP4 PUSH2 0x1D18 JUMP JUMPDEST POP JUMPDEST POP POP POP JUMP JUMPDEST PUSH1 0x0 PUSH1 0x1 SWAP1 SLOAD SWAP1 PUSH2 0x100 EXP SWAP1 DIV PUSH1 0xFF AND PUSH2 0x1C44 JUMPI PUSH1 0x40 MLOAD PUSH32 0x8C379A000000000000000000000000000000000000000000000000000000000 DUP2 MSTORE PUSH1 0x4 ADD PUSH2 0x1C3B SWAP1 PUSH2 0x2F3B JUMP JUMPDEST PUSH1 0x40 MLOAD DUP1 SWAP2 SUB SWAP1 REVERT JUMPDEST DUP2 PUSH1 0x36 SWAP1 DUP2 PUSH2 0x1C53 SWAP2 SWAP1 PUSH2 0x318F JUMP JUMPDEST POP DUP1 PUSH1 0x37 SWAP1 DUP2 PUSH2 0x1C63 SWAP2 SWAP1 PUSH2 0x318F JUMP JUMPDEST POP POP POP JUMP JUMPDEST PUSH1 0x0 PUSH1 0x1 SWAP1 SLOAD SWAP1 PUSH2 0x100 EXP SWAP1 DIV PUSH1 0xFF AND PUSH2 0x1CB7 JUMPI PUSH1 0x40 MLOAD PUSH32 0x8C379A000000000000000000000000000000000000000000000000000000000 DUP2 MSTORE PUSH1 0x4 ADD PUSH2 0x1CAE SWAP1 PUSH2 0x2F3B JUMP JUMPDEST PUSH1 0x40 MLOAD DUP1 SWAP2 SUB SWAP1 REVERT JUMPDEST PUSH2 0x1CC7 PUSH2 0x1CC2 PUSH2 0xE67 JUMP JUMPDEST PUSH2 0x18B1 JUMP JUMPDEST JUMP JUMPDEST PUSH2 0x1CD2 DUP2 PUSH2 0x1B10 JUMP JUMPDEST DUP1 PUSH20 0xFFFFFFFFFFFFFFFFFFFFFFFFFFFFFFFFFFFFFFFF AND PUSH32 0xBC7CD75A20EE27FD9ADEBAB32041F755214DBC6BFFA90CC0225B39DA2E5C2D3B PUSH1 0x40 MLOAD PUSH1 0x40 MLOAD DUP1 SWAP2 SUB SWAP1 LOG2 POP JUMP JUMPDEST PUSH1 0x60 PUSH2 0x1D23 DUP4 PUSH2 0x1977 JUMP JUMPDEST PUSH2 0x1D62 JUMPI PUSH1 0x40 MLOAD PUSH32 0x8C379A000000000000000000000000000000000000000000000000000000000 DUP2 MSTORE PUSH1 0x4 ADD PUSH2 0x1D59 SWAP1 PUSH2 0x32D3 JUMP JUMPDEST PUSH1 0x40 MLOAD DUP1 SWAP2 SUB SWAP1 REVERT JUMPDEST PUSH1 0x0 DUP1 DUP5 PUSH20 0xFFFFFFFFFFFFFFFFFFFFFFFFFFFFFFFFFFFFFFFF AND DUP5 PUSH1 0x40 MLOAD PUSH2 0x1D8A SWAP2 SWAP1 PUSH2 0x333A JUMP JUMPDEST PUSH1 0x0 PUSH1 0x40 MLOAD DUP1 DUP4 SUB DUP2 DUP6 GAS DELEGATECALL SWAP2 POP POP RETURNDATASIZE DUP1 PUSH1 0x0 DUP2 EQ PUSH2 0x1DC5 JUMPI PUSH1 0x40 MLOAD SWAP2 POP PUSH1 0x1F NOT PUSH1 0x3F RETURNDATASIZE ADD AND DUP3 ADD PUSH1 0x40 MSTORE RETURNDATASIZE DUP3 MSTORE RETURNDATASIZE PUSH1 0x0 PUSH1 0x20 DUP5 ADD RETURNDATACOPY PUSH2 0x1DCA JUMP JUMPDEST PUSH1 0x60 SWAP2 POP JUMPDEST POP SWAP2 POP SWAP2 POP PUSH2 0x1DF2 DUP3 DUP3 PUSH1 0x40 MLOAD DUP1 PUSH1 0x60 ADD PUSH1 0x40 MSTORE DUP1 PUSH1 0x27 DUP2 MSTORE PUSH1 0x20 ADD PUSH2 0x3352 PUSH1 0x27 SWAP2 CODECOPY PUSH2 0x1DFC JUMP JUMPDEST SWAP3 POP POP POP SWAP3 SWAP2 POP POP JUMP JUMPDEST PUSH1 0x60 DUP4 ISZERO PUSH2 0x1E0C JUMPI DUP3 SWAP1 POP PUSH2 0x1E17 JUMP JUMPDEST PUSH2 0x1E16 DUP4 DUP4 PUSH2 0x1E1E JUMP JUMPDEST JUMPDEST SWAP4 SWAP3 POP POP POP JUMP JUMPDEST PUSH1 0x0 DUP3 MLOAD GT ISZERO PUSH2 0x1E31 JUMPI DUP2 MLOAD DUP1 DUP4 PUSH1 0x20 ADD REVERT JUMPDEST DUP1 PUSH1 0x40 MLOAD PUSH32 0x8C379A000000000000000000000000000000000000000000000000000000000 DUP2 MSTORE PUSH1 0x4 ADD PUSH2 0x1E65 SWAP2 SWAP1 PUSH2 0x1EFE JUMP JUMPDEST PUSH1 0x40 MLOAD DUP1 SWAP2 SUB SWAP1 REVERT JUMPDEST PUSH1 0x0 DUP2 MLOAD SWAP1 POP SWAP2 SWAP1 POP JUMP JUMPDEST PUSH1 0x0 DUP3 DUP3 MSTORE PUSH1 0x20 DUP3 ADD SWAP1 POP SWAP3 SWAP2 POP POP JUMP JUMPDEST PUSH1 0x0 JUMPDEST DUP4 DUP2 LT ISZERO PUSH2 0x1EA8 JUMPI DUP1 DUP3 ADD MLOAD DUP2 DUP5 ADD MSTORE PUSH1 0x20 DUP2 ADD SWAP1 POP PUSH2 0x1E8D JUMP JUMPDEST PUSH1 0x0 DUP5 DUP5 ADD MSTORE POP POP POP POP JUMP JUMPDEST PUSH1 0x0 PUSH1 0x1F NOT PUSH1 0x1F DUP4 ADD AND SWAP1 POP SWAP2 SWAP1 POP JUMP JUMPDEST PUSH1 0x0 PUSH2 0x1ED0 DUP3 PUSH2 0x1E6E JUMP JUMPDEST PUSH2 0x1EDA DUP2 DUP6 PUSH2 0x1E79 JUMP JUMPDEST SWAP4 POP PUSH2 0x1EEA DUP2 DUP6 PUSH1 0x20 DUP7 ADD PUSH2 0x1E8A JUMP JUMPDEST PUSH2 0x1EF3 DUP2 PUSH2 0x1EB4 JUMP JUMPDEST DUP5 ADD SWAP2 POP POP SWAP3 SWAP2 POP POP JUMP JUMPDEST PUSH1 0x0 PUSH1 0x20 DUP3 ADD SWAP1 POP DUP2 DUP2 SUB PUSH1 0x0 DUP4 ADD MSTORE PUSH2 0x1F18 DUP2 DUP5 PUSH2 0x1EC5 JUMP JUMPDEST SWAP1 POP SWAP3 SWAP2 POP POP JUMP JUMPDEST PUSH1 0x0 PUSH1 0x40 MLOAD SWAP1 POP SWAP1 JUMP JUMPDEST PUSH1 0x0 DUP1 REVERT JUMPDEST PUSH1 0x0 DUP1 REVERT JUMPDEST PUSH1 0x0 PUSH20 0xFFFFFFFFFFFFFFFFFFFFFFFFFFFFFFFFFFFFFFFF DUP3 AND SWAP1 POP SWAP2 SWAP1 POP JUMP JUMPDEST PUSH1 0x0 PUSH2 0x1F5F DUP3 PUSH2 0x1F34 JUMP JUMPDEST SWAP1 POP SWAP2 SWAP1 POP JUMP JUMPDEST PUSH2 0x1F6F DUP2 PUSH2 0x1F54 JUMP JUMPDEST DUP2 EQ PUSH2 0x1F7A JUMPI PUSH1 0x0 DUP1 REVERT JUMPDEST POP JUMP JUMPDEST PUSH1 0x0 DUP2 CALLDATALOAD SWAP1 POP PUSH2 0x1F8C DUP2 PUSH2 0x1F66 JUMP JUMPDEST SWAP3 SWAP2 POP POP JUMP JUMPDEST PUSH1 0x0 DUP2 SWAP1 POP SWAP2 SWAP1 POP JUMP JUMPDEST PUSH2 0x1FA5 DUP2 PUSH2 0x1F92 JUMP JUMPDEST DUP2 EQ PUSH2 0x1FB0 JUMPI PUSH1 0x0 DUP1 REVERT JUMPDEST POP JUMP JUMPDEST PUSH1 0x0 DUP2 CALLDATALOAD SWAP1 POP PUSH2 0x1FC2 DUP2 PUSH2 0x1F9C JUMP JUMPDEST SWAP3 SWAP2 POP POP JUMP JUMPDEST PUSH1 0x0 DUP1 PUSH1 0x40 DUP4 DUP6 SUB SLT ISZERO PUSH2 0x1FDF JUMPI PUSH2 0x1FDE PUSH2 0x1F2A JUMP JUMPDEST JUMPDEST PUSH1 0x0 PUSH2 0x1FED DUP6 DUP3 DUP7 ADD PUSH2 0x1F7D JUMP JUMPDEST SWAP3 POP POP PUSH1 0x20 PUSH2 0x1FFE DUP6 DUP3 DUP7 ADD PUSH2 0x1FB3 JUMP JUMPDEST SWAP2 POP POP SWAP3 POP SWAP3 SWAP1 POP JUMP JUMPDEST PUSH1 0x0 DUP2 ISZERO ISZERO SWAP1 POP SWAP2 SWAP1 POP JUMP JUMPDEST PUSH2 0x201D DUP2 PUSH2 0x2008 JUMP JUMPDEST DUP3 MSTORE POP POP JUMP JUMPDEST PUSH1 0x0 PUSH1 0x20 DUP3 ADD SWAP1 POP PUSH2 0x2038 PUSH1 0x0 DUP4 ADD DUP5 PUSH2 0x2014 JUMP JUMPDEST SWAP3 SWAP2 POP POP JUMP JUMPDEST PUSH2 0x2047 DUP2 PUSH2 0x1F92 JUMP JUMPDEST DUP3 MSTORE POP POP JUMP JUMPDEST PUSH1 0x0 PUSH1 0x20 DUP3 ADD SWAP1 POP PUSH2 0x2062 PUSH1 0x0 DUP4 ADD DUP5 PUSH2 0x203E JUMP JUMPDEST SWAP3 SWAP2 POP POP JUMP JUMPDEST PUSH1 0x0 DUP1 PUSH1 0x0 PUSH1 0x60 DUP5 DUP7 SUB SLT ISZERO PUSH2 0x2081 JUMPI PUSH2 0x2080 PUSH2 0x1F2A JUMP JUMPDEST JUMPDEST PUSH1 0x0 PUSH2 0x208F DUP7 DUP3 DUP8 ADD PUSH2 0x1F7D JUMP JUMPDEST SWAP4 POP POP PUSH1 0x20 PUSH2 0x20A0 DUP7 DUP3 DUP8 ADD PUSH2 0x1F7D JUMP JUMPDEST SWAP3 POP POP PUSH1 0x40 PUSH2 0x20B1 DUP7 DUP3 DUP8 ADD PUSH2 0x1FB3 JUMP JUMPDEST SWAP2 POP POP SWAP3 POP SWAP3 POP SWAP3 JUMP JUMPDEST PUSH1 0x0 PUSH1 0xFF DUP3 AND SWAP1 POP SWAP2 SWAP1 POP JUMP JUMPDEST PUSH2 0x20D1 DUP2 PUSH2 0x20BB JUMP JUMPDEST DUP3 MSTORE POP POP JUMP JUMPDEST PUSH1 0x0 PUSH1 0x20 DUP3 ADD SWAP1 POP PUSH2 0x20EC PUSH1 0x0 DUP4 ADD DUP5 PUSH2 0x20C8 JUMP JUMPDEST SWAP3 SWAP2 POP POP JUMP JUMPDEST PUSH1 0x0 PUSH1 0x20 DUP3 DUP5 SUB SLT ISZERO PUSH2 0x2108 JUMPI PUSH2 0x2107 PUSH2 0x1F2A JUMP JUMPDEST JUMPDEST PUSH1 0x0 PUSH2 0x2116 DUP5 DUP3 DUP6 ADD PUSH2 0x1F7D JUMP JUMPDEST SWAP2 POP POP SWAP3 SWAP2 POP POP JUMP JUMPDEST PUSH1 0x0 PUSH1 0x20 DUP3 DUP5 SUB SLT ISZERO PUSH2 0x2135 JUMPI PUSH2 0x2134 PUSH2 0x1F2A JUMP JUMPDEST JUMPDEST PUSH1 0x0 PUSH2 0x2143 DUP5 DUP3 DUP6 ADD PUSH2 0x1FB3 JUMP JUMPDEST SWAP2 POP POP SWAP3 SWAP2 POP POP JUMP JUMPDEST PUSH1 0x0 DUP1 REVERT JUMPDEST PUSH1 0x0 DUP1 REVERT JUMPDEST PUSH32 0x4E487B7100000000000000000000000000000000000000000000000000000000 PUSH1 0x0 MSTORE PUSH1 0x41 PUSH1 0x4 MSTORE PUSH1 0x24 PUSH1 0x0 REVERT JUMPDEST PUSH2 0x218E DUP3 PUSH2 0x1EB4 JUMP JUMPDEST DUP2 ADD DUP2 DUP2 LT PUSH8 0xFFFFFFFFFFFFFFFF DUP3 GT OR ISZERO PUSH2 0x21AD JUMPI PUSH2 0x21AC PUSH2 0x2156 JUMP JUMPDEST JUMPDEST DUP1 PUSH1 0x40 MSTORE POP POP POP JUMP JUMPDEST PUSH1 0x0 PUSH2 0x21C0 PUSH2 0x1F20 JUMP JUMPDEST SWAP1 POP PUSH2 0x21CC DUP3 DUP3 PUSH2 0x2185 JUMP JUMPDEST SWAP2 SWAP1 POP JUMP JUMPDEST PUSH1 0x0 PUSH8 0xFFFFFFFFFFFFFFFF DUP3 GT ISZERO PUSH2 0x21EC JUMPI PUSH2 0x21EB PUSH2 0x2156 JUMP JUMPDEST JUMPDEST PUSH2 0x21F5 DUP3 PUSH2 0x1EB4 JUMP JUMPDEST SWAP1 POP PUSH1 0x20 DUP2 ADD SWAP1 POP SWAP2 SWAP1 POP JUMP JUMPDEST DUP3 DUP2 DUP4 CALLDATACOPY PUSH1 0x0 DUP4 DUP4 ADD MSTORE POP POP POP JUMP JUMPDEST PUSH1 0x0 PUSH2 0x2224 PUSH2 0x221F DUP5 PUSH2 0x21D1 JUMP JUMPDEST PUSH2 0x21B6 JUMP JUMPDEST SWAP1 POP DUP3 DUP2 MSTORE PUSH1 0x20 DUP2 ADD DUP5 DUP5 DUP5 ADD GT ISZERO PUSH2 0x2240 JUMPI PUSH2 0x223F PUSH2 0x2151 JUMP JUMPDEST JUMPDEST PUSH2 0x224B DUP5 DUP3 DUP6 PUSH2 0x2202 JUMP JUMPDEST POP SWAP4 SWAP3 POP POP POP JUMP JUMPDEST PUSH1 0x0 DUP3 PUSH1 0x1F DUP4 ADD SLT PUSH2 0x2268 JUMPI PUSH2 0x2267 PUSH2 0x214C JUMP JUMPDEST JUMPDEST DUP2 CALLDATALOAD PUSH2 0x2278 DUP5 DUP3 PUSH1 0x20 DUP7 ADD PUSH2 0x2211 JUMP JUMPDEST SWAP2 POP POP SWAP3 SWAP2 POP POP JUMP JUMPDEST PUSH1 0x0 DUP1 PUSH1 0x40 DUP4 DUP6 SUB SLT ISZERO PUSH2 0x2298 JUMPI PUSH2 0x2297 PUSH2 0x1F2A JUMP JUMPDEST JUMPDEST PUSH1 0x0 PUSH2 0x22A6 DUP6 DUP3 DUP7 ADD PUSH2 0x1F7D JUMP JUMPDEST SWAP3 POP POP PUSH1 0x20 DUP4 ADD CALLDATALOAD PUSH8 0xFFFFFFFFFFFFFFFF DUP2 GT ISZERO PUSH2 0x22C7 JUMPI PUSH2 0x22C6 PUSH2 0x1F2F JUMP JUMPDEST JUMPDEST PUSH2 0x22D3 DUP6 DUP3 DUP7 ADD PUSH2 0x2253 JUMP JUMPDEST SWAP2 POP POP SWAP3 POP SWAP3 SWAP1 POP JUMP JUMPDEST PUSH1 0x0 DUP2 SWAP1 POP SWAP2 SWAP1 POP JUMP JUMPDEST PUSH2 0x22F0 DUP2 PUSH2 0x22DD JUMP JUMPDEST DUP3 MSTORE POP POP JUMP JUMPDEST PUSH1 0x0 PUSH1 0x20 DUP3 ADD SWAP1 POP PUSH2 0x230B PUSH1 0x0 DUP4 ADD DUP5 PUSH2 0x22E7 JUMP JUMPDEST SWAP3 SWAP2 POP POP JUMP JUMPDEST PUSH2 0x231A DUP2 PUSH2 0x1F54 JUMP JUMPDEST DUP3 MSTORE POP POP JUMP JUMPDEST PUSH1 0x0 PUSH1 0x20 DUP3 ADD SWAP1 POP PUSH2 0x2335 PUSH1 0x0 DUP4 ADD DUP5 PUSH2 0x2311 JUMP JUMPDEST SWAP3 SWAP2 POP POP JUMP JUMPDEST PUSH1 0x0 DUP1 PUSH1 0x40 DUP4 DUP6 SUB SLT ISZERO PUSH2 0x2352 JUMPI PUSH2 0x2351 PUSH2 0x1F2A JUMP JUMPDEST JUMPDEST PUSH1 0x0 PUSH2 0x2360 DUP6 DUP3 DUP7 ADD PUSH2 0x1F7D JUMP JUMPDEST SWAP3 POP POP PUSH1 0x20 PUSH2 0x2371 DUP6 DUP3 DUP7 ADD PUSH2 0x1F7D JUMP JUMPDEST SWAP2 POP POP SWAP3 POP SWAP3 SWAP1 POP JUMP JUMPDEST PUSH32 0x4E487B7100000000000000000000000000000000000000000000000000000000 PUSH1 0x0 MSTORE PUSH1 0x22 PUSH1 0x4 MSTORE PUSH1 0x24 PUSH1 0x0 REVERT JUMPDEST PUSH1 0x0 PUSH1 0x2 DUP3 DIV SWAP1 POP PUSH1 0x1 DUP3 AND DUP1 PUSH2 0x23C2 JUMPI PUSH1 0x7F DUP3 AND SWAP2 POP JUMPDEST PUSH1 0x20 DUP3 LT DUP2 SUB PUSH2 0x23D5 JUMPI PUSH2 0x23D4 PUSH2 0x237B JUMP JUMPDEST JUMPDEST POP SWAP2 SWAP1 POP JUMP JUMPDEST PUSH32 0x46756E6374696F6E206D7573742062652063616C6C6564207468726F75676820 PUSH1 0x0 DUP3 ADD MSTORE PUSH32 0x64656C656761746563616C6C0000000000000000000000000000000000000000 PUSH1 0x20 DUP3 ADD MSTORE POP JUMP JUMPDEST PUSH1 0x0 PUSH2 0x2437 PUSH1 0x2C DUP4 PUSH2 0x1E79 JUMP JUMPDEST SWAP2 POP PUSH2 0x2442 DUP3 PUSH2 0x23DB JUMP JUMPDEST PUSH1 0x40 DUP3 ADD SWAP1 POP SWAP2 SWAP1 POP JUMP JUMPDEST PUSH1 0x0 PUSH1 0x20 DUP3 ADD SWAP1 POP DUP2 DUP2 SUB PUSH1 0x0 DUP4 ADD MSTORE PUSH2 0x2466 DUP2 PUSH2 0x242A JUMP JUMPDEST SWAP1 POP SWAP2 SWAP1 POP JUMP JUMPDEST PUSH32 0x46756E6374696F6E206D7573742062652063616C6C6564207468726F75676820 PUSH1 0x0 DUP3 ADD MSTORE PUSH32 0x6163746976652070726F78790000000000000000000000000000000000000000 PUSH1 0x20 DUP3 ADD MSTORE POP JUMP JUMPDEST PUSH1 0x0 PUSH2 0x24C9 PUSH1 0x2C DUP4 PUSH2 0x1E79 JUMP JUMPDEST SWAP2 POP PUSH2 0x24D4 DUP3 PUSH2 0x246D JUMP JUMPDEST PUSH1 0x40 DUP3 ADD SWAP1 POP SWAP2 SWAP1 POP JUMP JUMPDEST PUSH1 0x0 PUSH1 0x20 DUP3 ADD SWAP1 POP DUP2 DUP2 SUB PUSH1 0x0 DUP4 ADD MSTORE PUSH2 0x24F8 DUP2 PUSH2 0x24BC JUMP JUMPDEST SWAP1 POP SWAP2 SWAP1 POP JUMP JUMPDEST PUSH32 0x4E487B7100000000000000000000000000000000000000000000000000000000 PUSH1 0x0 MSTORE PUSH1 0x11 PUSH1 0x4 MSTORE PUSH1 0x24 PUSH1 0x0 REVERT JUMPDEST PUSH1 0x0 PUSH2 0x2539 DUP3 PUSH2 0x1F92 JUMP JUMPDEST SWAP2 POP PUSH2 0x2544 DUP4 PUSH2 0x1F92 JUMP JUMPDEST SWAP3 POP DUP3 DUP3 ADD SWAP1 POP DUP1 DUP3 GT ISZERO PUSH2 0x255C JUMPI PUSH2 0x255B PUSH2 0x24FF JUMP JUMPDEST JUMPDEST SWAP3 SWAP2 POP POP JUMP JUMPDEST PUSH32 0x555550535570677261646561626C653A206D757374206E6F742062652063616C PUSH1 0x0 DUP3 ADD MSTORE PUSH32 0x6C6564207468726F7567682064656C656761746563616C6C0000000000000000 PUSH1 0x20 DUP3 ADD MSTORE POP JUMP JUMPDEST PUSH1 0x0 PUSH2 0x25BE PUSH1 0x38 DUP4 PUSH2 0x1E79 JUMP JUMPDEST SWAP2 POP PUSH2 0x25C9 DUP3 PUSH2 0x2562 JUMP JUMPDEST PUSH1 0x40 DUP3 ADD SWAP1 POP SWAP2 SWAP1 POP JUMP JUMPDEST PUSH1 0x0 PUSH1 0x20 DUP3 ADD SWAP1 POP DUP2 DUP2 SUB PUSH1 0x0 DUP4 ADD MSTORE PUSH2 0x25ED DUP2 PUSH2 0x25B1 JUMP JUMPDEST SWAP1 POP SWAP2 SWAP1 POP JUMP JUMPDEST PUSH32 0x496E697469616C697A61626C653A20636F6E747261637420697320616C726561 PUSH1 0x0 DUP3 ADD MSTORE PUSH32 0x647920696E697469616C697A6564000000000000000000000000000000000000 PUSH1 0x20 DUP3 ADD MSTORE POP JUMP JUMPDEST PUSH1 0x0 PUSH2 0x2650 PUSH1 0x2E DUP4 PUSH2 0x1E79 JUMP JUMPDEST SWAP2 POP PUSH2 0x265B DUP3 PUSH2 0x25F4 JUMP JUMPDEST PUSH1 0x40 DUP3 ADD SWAP1 POP SWAP2 SWAP1 POP JUMP JUMPDEST PUSH1 0x0 PUSH1 0x20 DUP3 ADD SWAP1 POP DUP2 DUP2 SUB PUSH1 0x0 DUP4 ADD MSTORE PUSH2 0x267F DUP2 PUSH2 0x2643 JUMP JUMPDEST SWAP1 POP SWAP2 SWAP1 POP JUMP JUMPDEST PUSH1 0x0 DUP2 SWAP1 POP SWAP2 SWAP1 POP JUMP JUMPDEST PUSH1 0x0 DUP2 SWAP1 POP SWAP2 SWAP1 POP JUMP JUMPDEST PUSH1 0x0 PUSH2 0x26B5 PUSH2 0x26B0 PUSH2 0x26AB DUP5 PUSH2 0x2686 JUMP JUMPDEST PUSH2 0x2690 JUMP JUMPDEST PUSH2 0x20BB JUMP JUMPDEST SWAP1 POP SWAP2 SWAP1 POP JUMP JUMPDEST PUSH2 0x26C5 DUP2 PUSH2 0x269A JUMP JUMPDEST DUP3 MSTORE POP POP JUMP JUMPDEST PUSH1 0x0 PUSH1 0x20 DUP3 ADD SWAP1 POP PUSH2 0x26E0 PUSH1 0x0 DUP4 ADD DUP5 PUSH2 0x26BC JUMP JUMPDEST SWAP3 SWAP2 POP POP JUMP JUMPDEST PUSH32 0x45524332303A2064656372656173656420616C6C6F77616E63652062656C6F77 PUSH1 0x0 DUP3 ADD MSTORE PUSH32 0x207A65726F000000000000000000000000000000000000000000000000000000 PUSH1 0x20 DUP3 ADD MSTORE POP JUMP JUMPDEST PUSH1 0x0 PUSH2 0x2742 PUSH1 0x25 DUP4 PUSH2 0x1E79 JUMP JUMPDEST SWAP2 POP PUSH2 0x274D DUP3 PUSH2 0x26E6 JUMP JUMPDEST PUSH1 0x40 DUP3 ADD SWAP1 POP SWAP2 SWAP1 POP JUMP JUMPDEST PUSH1 0x0 PUSH1 0x20 DUP3 ADD SWAP1 POP DUP2 DUP2 SUB PUSH1 0x0 DUP4 ADD MSTORE PUSH2 0x2771 DUP2 PUSH2 0x2735 JUMP JUMPDEST SWAP1 POP SWAP2 SWAP1 POP JUMP JUMPDEST PUSH32 0x4F776E61626C653A206E6577206F776E657220697320746865207A65726F2061 PUSH1 0x0 DUP3 ADD MSTORE PUSH32 0x6464726573730000000000000000000000000000000000000000000000000000 PUSH1 0x20 DUP3 ADD MSTORE POP JUMP JUMPDEST PUSH1 0x0 PUSH2 0x27D4 PUSH1 0x26 DUP4 PUSH2 0x1E79 JUMP JUMPDEST SWAP2 POP PUSH2 0x27DF DUP3 PUSH2 0x2778 JUMP JUMPDEST PUSH1 0x40 DUP3 ADD SWAP1 POP SWAP2 SWAP1 POP JUMP JUMPDEST PUSH1 0x0 PUSH1 0x20 DUP3 ADD SWAP1 POP DUP2 DUP2 SUB PUSH1 0x0 DUP4 ADD MSTORE PUSH2 0x2803 DUP2 PUSH2 0x27C7 JUMP JUMPDEST SWAP1 POP SWAP2 SWAP1 POP JUMP JUMPDEST PUSH32 0x45524332303A20617070726F76652066726F6D20746865207A65726F20616464 PUSH1 0x0 DUP3 ADD MSTORE PUSH32 0x7265737300000000000000000000000000000000000000000000000000000000 PUSH1 0x20 DUP3 ADD MSTORE POP JUMP JUMPDEST PUSH1 0x0 PUSH2 0x2866 PUSH1 0x24 DUP4 PUSH2 0x1E79 JUMP JUMPDEST SWAP2 POP PUSH2 0x2871 DUP3 PUSH2 0x280A JUMP JUMPDEST PUSH1 0x40 DUP3 ADD SWAP1 POP SWAP2 SWAP1 POP JUMP JUMPDEST PUSH1 0x0 PUSH1 0x20 DUP3 ADD SWAP1 POP DUP2 DUP2 SUB PUSH1 0x0 DUP4 ADD MSTORE PUSH2 0x2895 DUP2 PUSH2 0x2859 JUMP JUMPDEST SWAP1 POP SWAP2 SWAP1 POP JUMP JUMPDEST PUSH32 0x45524332303A20617070726F766520746F20746865207A65726F206164647265 PUSH1 0x0 DUP3 ADD MSTORE PUSH32 0x7373000000000000000000000000000000000000000000000000000000000000 PUSH1 0x20 DUP3 ADD MSTORE POP JUMP JUMPDEST PUSH1 0x0 PUSH2 0x28F8 PUSH1 0x22 DUP4 PUSH2 0x1E79 JUMP JUMPDEST SWAP2 POP PUSH2 0x2903 DUP3 PUSH2 0x289C JUMP JUMPDEST PUSH1 0x40 DUP3 ADD SWAP1 POP SWAP2 SWAP1 POP JUMP JUMPDEST PUSH1 0x0 PUSH1 0x20 DUP3 ADD SWAP1 POP DUP2 DUP2 SUB PUSH1 0x0 DUP4 ADD MSTORE PUSH2 0x2927 DUP2 PUSH2 0x28EB JUMP JUMPDEST SWAP1 POP SWAP2 SWAP1 POP JUMP JUMPDEST PUSH32 0x45524332303A20696E73756666696369656E7420616C6C6F77616E6365000000 PUSH1 0x0 DUP3 ADD MSTORE POP JUMP JUMPDEST PUSH1 0x0 PUSH2 0x2964 PUSH1 0x1D DUP4 PUSH2 0x1E79 JUMP JUMPDEST SWAP2 POP PUSH2 0x296F DUP3 PUSH2 0x292E JUMP JUMPDEST PUSH1 0x20 DUP3 ADD SWAP1 POP SWAP2 SWAP1 POP JUMP JUMPDEST PUSH1 0x0 PUSH1 0x20 DUP3 ADD SWAP1 POP DUP2 DUP2 SUB PUSH1 0x0 DUP4 ADD MSTORE PUSH2 0x2993 DUP2 PUSH2 0x2957 JUMP JUMPDEST SWAP1 POP SWAP2 SWAP1 POP JUMP JUMPDEST PUSH32 0x45524332303A207472616E736665722066726F6D20746865207A65726F206164 PUSH1 0x0 DUP3 ADD MSTORE PUSH32 0x6472657373000000000000000000000000000000000000000000000000000000 PUSH1 0x20 DUP3 ADD MSTORE POP JUMP JUMPDEST PUSH1 0x0 PUSH2 0x29F6 PUSH1 0x25 DUP4 PUSH2 0x1E79 JUMP JUMPDEST SWAP2 POP PUSH2 0x2A01 DUP3 PUSH2 0x299A JUMP JUMPDEST PUSH1 0x40 DUP3 ADD SWAP1 POP SWAP2 SWAP1 POP JUMP JUMPDEST PUSH1 0x0 PUSH1 0x20 DUP3 ADD SWAP1 POP DUP2 DUP2 SUB PUSH1 0x0 DUP4 ADD MSTORE PUSH2 0x2A25 DUP2 PUSH2 0x29E9 JUMP JUMPDEST SWAP1 POP SWAP2 SWAP1 POP JUMP JUMPDEST PUSH32 0x45524332303A207472616E7366657220746F20746865207A65726F2061646472 PUSH1 0x0 DUP3 ADD MSTORE PUSH32 0x6573730000000000000000000000000000000000000000000000000000000000 PUSH1 0x20 DUP3 ADD MSTORE POP JUMP JUMPDEST PUSH1 0x0 PUSH2 0x2A88 PUSH1 0x23 DUP4 PUSH2 0x1E79 JUMP JUMPDEST SWAP2 POP PUSH2 0x2A93 DUP3 PUSH2 0x2A2C JUMP JUMPDEST PUSH1 0x40 DUP3 ADD SWAP1 POP SWAP2 SWAP1 POP JUMP JUMPDEST PUSH1 0x0 PUSH1 0x20 DUP3 ADD SWAP1 POP DUP2 DUP2 SUB PUSH1 0x0 DUP4 ADD MSTORE PUSH2 0x2AB7 DUP2 PUSH2 0x2A7B JUMP JUMPDEST SWAP1 POP SWAP2 SWAP1 POP JUMP JUMPDEST PUSH32 0x45524332303A207472616E7366657220616D6F756E7420657863656564732062 PUSH1 0x0 DUP3 ADD MSTORE PUSH32 0x616C616E63650000000000000000000000000000000000000000000000000000 PUSH1 0x20 DUP3 ADD MSTORE POP JUMP JUMPDEST PUSH1 0x0 PUSH2 0x2B1A PUSH1 0x26 DUP4 PUSH2 0x1E79 JUMP JUMPDEST SWAP2 POP PUSH2 0x2B25 DUP3 PUSH2 0x2ABE JUMP JUMPDEST PUSH1 0x40 DUP3 ADD SWAP1 POP SWAP2 SWAP1 POP JUMP JUMPDEST PUSH1 0x0 PUSH1 0x20 DUP3 ADD SWAP1 POP DUP2 DUP2 SUB PUSH1 0x0 DUP4 ADD MSTORE PUSH2 0x2B49 DUP2 PUSH2 0x2B0D JUMP JUMPDEST SWAP1 POP SWAP2 SWAP1 POP JUMP JUMPDEST PUSH2 0x2B59 DUP2 PUSH2 0x22DD JUMP JUMPDEST DUP2 EQ PUSH2 0x2B64 JUMPI PUSH1 0x0 DUP1 REVERT JUMPDEST POP JUMP JUMPDEST PUSH1 0x0 DUP2 MLOAD SWAP1 POP PUSH2 0x2B76 DUP2 PUSH2 0x2B50 JUMP JUMPDEST SWAP3 SWAP2 POP POP JUMP JUMPDEST PUSH1 0x0 PUSH1 0x20 DUP3 DUP5 SUB SLT ISZERO PUSH2 0x2B92 JUMPI PUSH2 0x2B91 PUSH2 0x1F2A JUMP JUMPDEST JUMPDEST PUSH1 0x0 PUSH2 0x2BA0 DUP5 DUP3 DUP6 ADD PUSH2 0x2B67 JUMP JUMPDEST SWAP2 POP POP SWAP3 SWAP2 POP POP JUMP JUMPDEST PUSH32 0x45524331393637557067726164653A206E657720696D706C656D656E74617469 PUSH1 0x0 DUP3 ADD MSTORE PUSH32 0x6F6E206973206E6F742055555053000000000000000000000000000000000000 PUSH1 0x20 DUP3 ADD MSTORE POP JUMP JUMPDEST PUSH1 0x0 PUSH2 0x2C05 PUSH1 0x2E DUP4 PUSH2 0x1E79 JUMP JUMPDEST SWAP2 POP PUSH2 0x2C10 DUP3 PUSH2 0x2BA9 JUMP JUMPDEST PUSH1 0x40 DUP3 ADD SWAP1 POP SWAP2 SWAP1 POP JUMP JUMPDEST PUSH1 0x0 PUSH1 0x20 DUP3 ADD SWAP1 POP DUP2 DUP2 SUB PUSH1 0x0 DUP4 ADD MSTORE PUSH2 0x2C34 DUP2 PUSH2 0x2BF8 JUMP JUMPDEST SWAP1 POP SWAP2 SWAP1 POP JUMP JUMPDEST PUSH32 0x45524331393637557067726164653A20756E737570706F727465642070726F78 PUSH1 0x0 DUP3 ADD MSTORE PUSH32 0x6961626C65555549440000000000000000000000000000000000000000000000 PUSH1 0x20 DUP3 ADD MSTORE POP JUMP JUMPDEST PUSH1 0x0 PUSH2 0x2C97 PUSH1 0x29 DUP4 PUSH2 0x1E79 JUMP JUMPDEST SWAP2 POP PUSH2 0x2CA2 DUP3 PUSH2 0x2C3B JUMP JUMPDEST PUSH1 0x40 DUP3 ADD SWAP1 POP SWAP2 SWAP1 POP JUMP JUMPDEST PUSH1 0x0 PUSH1 0x20 DUP3 ADD SWAP1 POP DUP2 DUP2 SUB PUSH1 0x0 DUP4 ADD MSTORE PUSH2 0x2CC6 DUP2 PUSH2 0x2C8A JUMP JUMPDEST SWAP1 POP SWAP2 SWAP1 POP JUMP JUMPDEST PUSH32 0x4F776E61626C653A2063616C6C6572206973206E6F7420746865206F776E6572 PUSH1 0x0 DUP3 ADD MSTORE POP JUMP JUMPDEST PUSH1 0x0 PUSH2 0x2D03 PUSH1 0x20 DUP4 PUSH2 0x1E79 JUMP JUMPDEST SWAP2 POP PUSH2 0x2D0E DUP3 PUSH2 0x2CCD JUMP JUMPDEST PUSH1 0x20 DUP3 ADD SWAP1 POP SWAP2 SWAP1 POP JUMP JUMPDEST PUSH1 0x0 PUSH1 0x20 DUP3 ADD SWAP1 POP DUP2 DUP2 SUB PUSH1 0x0 DUP4 ADD MSTORE PUSH2 0x2D32 DUP2 PUSH2 0x2CF6 JUMP JUMPDEST SWAP1 POP SWAP2 SWAP1 POP JUMP JUMPDEST PUSH32 0x45524332303A206D696E7420746F20746865207A65726F206164647265737300 PUSH1 0x0 DUP3 ADD MSTORE POP JUMP JUMPDEST PUSH1 0x0 PUSH2 0x2D6F PUSH1 0x1F DUP4 PUSH2 0x1E79 JUMP JUMPDEST SWAP2 POP PUSH2 0x2D7A DUP3 PUSH2 0x2D39 JUMP JUMPDEST PUSH1 0x20 DUP3 ADD SWAP1 POP SWAP2 SWAP1 POP JUMP JUMPDEST PUSH1 0x0 PUSH1 0x20 DUP3 ADD SWAP1 POP DUP2 DUP2 SUB PUSH1 0x0 DUP4 ADD MSTORE PUSH2 0x2D9E DUP2 PUSH2 0x2D62 JUMP JUMPDEST SWAP1 POP SWAP2 SWAP1 POP JUMP JUMPDEST PUSH32 0x45524332303A206275726E2066726F6D20746865207A65726F20616464726573 PUSH1 0x0 DUP3 ADD MSTORE PUSH32 0x7300000000000000000000000000000000000000000000000000000000000000 PUSH1 0x20 DUP3 ADD MSTORE POP JUMP JUMPDEST PUSH1 0x0 PUSH2 0x2E01 PUSH1 0x21 DUP4 PUSH2 0x1E79 JUMP JUMPDEST SWAP2 POP PUSH2 0x2E0C DUP3 PUSH2 0x2DA5 JUMP JUMPDEST PUSH1 0x40 DUP3 ADD SWAP1 POP SWAP2 SWAP1 POP JUMP JUMPDEST PUSH1 0x0 PUSH1 0x20 DUP3 ADD SWAP1 POP DUP2 DUP2 SUB PUSH1 0x0 DUP4 ADD MSTORE PUSH2 0x2E30 DUP2 PUSH2 0x2DF4 JUMP JUMPDEST SWAP1 POP SWAP2 SWAP1 POP JUMP JUMPDEST PUSH32 0x45524332303A206275726E20616D6F756E7420657863656564732062616C616E PUSH1 0x0 DUP3 ADD MSTORE PUSH32 0x6365000000000000000000000000000000000000000000000000000000000000 PUSH1 0x20 DUP3 ADD MSTORE POP JUMP JUMPDEST PUSH1 0x0 PUSH2 0x2E93 PUSH1 0x22 DUP4 PUSH2 0x1E79 JUMP JUMPDEST SWAP2 POP PUSH2 0x2E9E DUP3 PUSH2 0x2E37 JUMP JUMPDEST PUSH1 0x40 DUP3 ADD SWAP1 POP SWAP2 SWAP1 POP JUMP JUMPDEST PUSH1 0x0 PUSH1 0x20 DUP3 ADD SWAP1 POP DUP2 DUP2 SUB PUSH1 0x0 DUP4 ADD MSTORE PUSH2 0x2EC2 DUP2 PUSH2 0x2E86 JUMP JUMPDEST SWAP1 POP SWAP2 SWAP1 POP JUMP JUMPDEST PUSH32 0x496E697469616C697A61626C653A20636F6E7472616374206973206E6F742069 PUSH1 0x0 DUP3 ADD MSTORE PUSH32 0x6E697469616C697A696E67000000000000000000000000000000000000000000 PUSH1 0x20 DUP3 ADD MSTORE POP JUMP JUMPDEST PUSH1 0x0 PUSH2 0x2F25 PUSH1 0x2B DUP4 PUSH2 0x1E79 JUMP JUMPDEST SWAP2 POP PUSH2 0x2F30 DUP3 PUSH2 0x2EC9 JUMP JUMPDEST PUSH1 0x40 DUP3 ADD SWAP1 POP SWAP2 SWAP1 POP JUMP JUMPDEST PUSH1 0x0 PUSH1 0x20 DUP3 ADD SWAP1 POP DUP2 DUP2 SUB PUSH1 0x0 DUP4 ADD MSTORE PUSH2 0x2F54 DUP2 PUSH2 0x2F18 JUMP JUMPDEST SWAP1 POP SWAP2 SWAP1 POP JUMP JUMPDEST PUSH32 0x455243313936373A206E657720696D706C656D656E746174696F6E206973206E PUSH1 0x0 DUP3 ADD MSTORE PUSH32 0x6F74206120636F6E747261637400000000000000000000000000000000000000 PUSH1 0x20 DUP3 ADD MSTORE POP JUMP JUMPDEST PUSH1 0x0 PUSH2 0x2FB7 PUSH1 0x2D DUP4 PUSH2 0x1E79 JUMP JUMPDEST SWAP2 POP PUSH2 0x2FC2 DUP3 PUSH2 0x2F5B JUMP JUMPDEST PUSH1 0x40 DUP3 ADD SWAP1 POP SWAP2 SWAP1 POP JUMP JUMPDEST PUSH1 0x0 PUSH1 0x20 DUP3 ADD SWAP1 POP DUP2 DUP2 SUB PUSH1 0x0 DUP4 ADD MSTORE PUSH2 0x2FE6 DUP2 PUSH2 0x2FAA JUMP JUMPDEST SWAP1 POP SWAP2 SWAP1 POP JUMP JUMPDEST PUSH1 0x0 DUP2 SWAP1 POP DUP2 PUSH1 0x0 MSTORE PUSH1 0x20 PUSH1 0x0 KECCAK256 SWAP1 POP SWAP2 SWAP1 POP JUMP JUMPDEST PUSH1 0x0 PUSH1 0x20 PUSH1 0x1F DUP4 ADD DIV SWAP1 POP SWAP2 SWAP1 POP JUMP JUMPDEST PUSH1 0x0 DUP3 DUP3 SHL SWAP1 POP SWAP3 SWAP2 POP POP JUMP JUMPDEST PUSH1 0x0 PUSH1 0x8 DUP4 MUL PUSH2 0x304F PUSH32 0xFFFFFFFFFFFFFFFFFFFFFFFFFFFFFFFFFFFFFFFFFFFFFFFFFFFFFFFFFFFFFFFF DUP3 PUSH2 0x3012 JUMP JUMPDEST PUSH2 0x3059 DUP7 DUP4 PUSH2 0x3012 JUMP JUMPDEST SWAP6 POP DUP1 NOT DUP5 AND SWAP4 POP DUP1 DUP7 AND DUP5 OR SWAP3 POP POP POP SWAP4 SWAP3 POP POP POP JUMP JUMPDEST PUSH1 0x0 PUSH2 0x308C PUSH2 0x3087 PUSH2 0x3082 DUP5 PUSH2 0x1F92 JUMP JUMPDEST PUSH2 0x2690 JUMP JUMPDEST PUSH2 0x1F92 JUMP JUMPDEST SWAP1 POP SWAP2 SWAP1 POP JUMP JUMPDEST PUSH1 0x0 DUP2 SWAP1 POP SWAP2 SWAP1 POP JUMP JUMPDEST PUSH2 0x30A6 DUP4 PUSH2 0x3071 JUMP JUMPDEST PUSH2 0x30BA PUSH2 0x30B2 DUP3 PUSH2 0x3093 JUMP JUMPDEST DUP5 DUP5 SLOAD PUSH2 0x301F JUMP JUMPDEST DUP3 SSTORE POP POP POP POP JUMP JUMPDEST PUSH1 0x0 SWAP1 JUMP JUMPDEST PUSH2 0x30CF PUSH2 0x30C2 JUMP JUMPDEST PUSH2 0x30DA DUP2 DUP5 DUP5 PUSH2 0x309D JUMP JUMPDEST POP POP POP JUMP JUMPDEST JUMPDEST DUP2 DUP2 LT ISZERO PUSH2 0x30FE JUMPI PUSH2 0x30F3 PUSH1 0x0 DUP3 PUSH2 0x30C7 JUMP JUMPDEST PUSH1 0x1 DUP2 ADD SWAP1 POP PUSH2 0x30E0 JUMP JUMPDEST POP POP JUMP JUMPDEST PUSH1 0x1F DUP3 GT ISZERO PUSH2 0x3143 JUMPI PUSH2 0x3114 DUP2 PUSH2 0x2FED JUMP JUMPDEST PUSH2 0x311D DUP5 PUSH2 0x3002 JUMP JUMPDEST DUP2 ADD PUSH1 0x20 DUP6 LT ISZERO PUSH2 0x312C JUMPI DUP2 SWAP1 POP JUMPDEST PUSH2 0x3140 PUSH2 0x3138 DUP6 PUSH2 0x3002 JUMP JUMPDEST DUP4 ADD DUP3 PUSH2 0x30DF JUMP JUMPDEST POP POP JUMPDEST POP POP POP JUMP JUMPDEST PUSH1 0x0 DUP3 DUP3 SHR SWAP1 POP SWAP3 SWAP2 POP POP JUMP JUMPDEST PUSH1 0x0 PUSH2 0x3166 PUSH1 0x0 NOT DUP5 PUSH1 0x8 MUL PUSH2 0x3148 JUMP JUMPDEST NOT DUP1 DUP4 AND SWAP2 POP POP SWAP3 SWAP2 POP POP JUMP JUMPDEST PUSH1 0x0 PUSH2 0x317F DUP4 DUP4 PUSH2 0x3155 JUMP JUMPDEST SWAP2 POP DUP3 PUSH1 0x2 MUL DUP3 OR SWAP1 POP SWAP3 SWAP2 POP POP JUMP JUMPDEST PUSH2 0x3198 DUP3 PUSH2 0x1E6E JUMP JUMPDEST PUSH8 0xFFFFFFFFFFFFFFFF DUP2 GT ISZERO PUSH2 0x31B1 JUMPI PUSH2 0x31B0 PUSH2 0x2156 JUMP JUMPDEST JUMPDEST PUSH2 0x31BB DUP3 SLOAD PUSH2 0x23AA JUMP JUMPDEST PUSH2 0x31C6 DUP3 DUP3 DUP6 PUSH2 0x3102 JUMP JUMPDEST PUSH1 0x0 PUSH1 0x20 SWAP1 POP PUSH1 0x1F DUP4 GT PUSH1 0x1 DUP2 EQ PUSH2 0x31F9 JUMPI PUSH1 0x0 DUP5 ISZERO PUSH2 0x31E7 JUMPI DUP3 DUP8 ADD MLOAD SWAP1 POP JUMPDEST PUSH2 0x31F1 DUP6 DUP3 PUSH2 0x3173 JUMP JUMPDEST DUP7 SSTORE POP PUSH2 0x3259 JUMP JUMPDEST PUSH1 0x1F NOT DUP5 AND PUSH2 0x3207 DUP7 PUSH2 0x2FED JUMP JUMPDEST PUSH1 0x0 JUMPDEST DUP3 DUP2 LT ISZERO PUSH2 0x322F JUMPI DUP5 DUP10 ADD MLOAD DUP3 SSTORE PUSH1 0x1 DUP3 ADD SWAP2 POP PUSH1 0x20 DUP6 ADD SWAP5 POP PUSH1 0x20 DUP2 ADD SWAP1 POP PUSH2 0x320A JUMP JUMPDEST DUP7 DUP4 LT ISZERO PUSH2 0x324C JUMPI DUP5 DUP10 ADD MLOAD PUSH2 0x3248 PUSH1 0x1F DUP10 AND DUP3 PUSH2 0x3155 JUMP JUMPDEST DUP4 SSTORE POP JUMPDEST PUSH1 0x1 PUSH1 0x2 DUP9 MUL ADD DUP9 SSTORE POP POP POP JUMPDEST POP POP POP POP POP POP JUMP JUMPDEST PUSH32 0x416464726573733A2064656C65676174652063616C6C20746F206E6F6E2D636F PUSH1 0x0 DUP3 ADD MSTORE PUSH32 0x6E74726163740000000000000000000000000000000000000000000000000000 PUSH1 0x20 DUP3 ADD MSTORE POP JUMP JUMPDEST PUSH1 0x0 PUSH2 0x32BD PUSH1 0x26 DUP4 PUSH2 0x1E79 JUMP JUMPDEST SWAP2 POP PUSH2 0x32C8 DUP3 PUSH2 0x3261 JUMP JUMPDEST PUSH1 0x40 DUP3 ADD SWAP1 POP SWAP2 SWAP1 POP JUMP JUMPDEST PUSH1 0x0 PUSH1 0x20 DUP3 ADD SWAP1 POP DUP2 DUP2 SUB PUSH1 0x0 DUP4 ADD MSTORE PUSH2 0x32EC DUP2 PUSH2 0x32B0 JUMP JUMPDEST SWAP1 POP SWAP2 SWAP1 POP JUMP JUMPDEST PUSH1 0x0 DUP2 MLOAD SWAP1 POP SWAP2 SWAP1 POP JUMP JUMPDEST PUSH1 0x0 DUP2 SWAP1 POP SWAP3 SWAP2 POP POP JUMP JUMPDEST PUSH1 0x0 PUSH2 0x3314 DUP3 PUSH2 0x32F3 JUMP JUMPDEST PUSH2 0x331E DUP2 DUP6 PUSH2 0x32FE JUMP JUMPDEST SWAP4 POP PUSH2 0x332E DUP2 DUP6 PUSH1 0x20 DUP7 ADD PUSH2 0x1E8A JUMP JUMPDEST DUP1 DUP5 ADD SWAP2 POP POP SWAP3 SWAP2 POP POP JUMP JUMPDEST PUSH1 0x0 PUSH2 0x3346 DUP3 DUP5 PUSH2 0x3309 JUMP JUMPDEST SWAP2 POP DUP2 SWAP1 POP SWAP3 SWAP2 POP POP JUMP INVALID COINBASE PUSH5 0x6472657373 GASPRICE KECCAK256 PUSH13 0x6F772D6C6576656C2064656C65 PUSH8 0x6174652063616C6C KECCAK256 PUSH7 0x61696C6564A264 PUSH10 0x70667358221220AAFFC6 SWAP13 SWAP3 0xD0 0xC LOG0 0x2B SLT 0xE7 PUSH27 0x3868A6D36EBAC12750A66E8641F64E09BFFA46364736F6C634300 ADDMOD SLT STOP CALLER "
				},
				"gasEstimates": {
					"creation": {
						"codeDepositCost": "2646000",
						"executionCost": "infinite",
						"totalCost": "infinite"
					},
					"external": {
						"allowance(address,address)": "infinite",
						"approve(address,uint256)": "infinite",
						"balanceOf(address)": "2886",
						"burn(uint256)": "infinite",
						"burnFrom(address,uint256)": "infinite",
						"decimals()": "455",
						"decreaseAllowance(address,uint256)": "infinite",
						"increaseAllowance(address,uint256)": "infinite",
						"initialize()": "infinite",
						"mint(address,uint256)": "infinite",
						"name()": "infinite",
						"owner()": "2544",
						"proxiableUUID()": "infinite",
						"renounceOwnership()": "30465",
						"symbol()": "infinite",
						"totalSupply()": "2505",
						"transfer(address,uint256)": "infinite",
						"transferFrom(address,address,uint256)": "infinite",
						"transferOwnership(address)": "30876",
						"upgradeTo(address)": "infinite",
						"upgradeToAndCall(address,bytes)": "infinite"
					},
					"internal": {
						"_authorizeUpgrade(address)": "infinite"
					}
				},
				"methodIdentifiers": {
					"allowance(address,address)": "dd62ed3e",
					"approve(address,uint256)": "095ea7b3",
					"balanceOf(address)": "70a08231",
					"burn(uint256)": "42966c68",
					"burnFrom(address,uint256)": "79cc6790",
					"decimals()": "313ce567",
					"decreaseAllowance(address,uint256)": "a457c2d7",
					"increaseAllowance(address,uint256)": "39509351",
					"initialize()": "8129fc1c",
					"mint(address,uint256)": "40c10f19",
					"name()": "06fdde03",
					"owner()": "8da5cb5b",
					"proxiableUUID()": "52d1902d",
					"renounceOwnership()": "715018a6",
					"symbol()": "95d89b41",
					"totalSupply()": "18160ddd",
					"transfer(address,uint256)": "a9059cbb",
					"transferFrom(address,address,uint256)": "23b872dd",
					"transferOwnership(address)": "f2fde38b",
					"upgradeTo(address)": "3659cfe6",
					"upgradeToAndCall(address,bytes)": "4f1ef286"
				}
			},
			"storageLayout": {
				"storage": [
					{
						"astId": 534,
						"contract": "contracts/ChadPepe.sol:ChadPepe",
						"label": "_initialized",
						"offset": 0,
						"slot": "0",
						"type": "t_uint8"
					},
					{
						"astId": 537,
						"contract": "contracts/ChadPepe.sol:ChadPepe",
						"label": "_initializing",
						"offset": 1,
						"slot": "0",
						"type": "t_bool"
					},
					{
						"astId": 1936,
						"contract": "contracts/ChadPepe.sol:ChadPepe",
						"label": "__gap",
						"offset": 0,
						"slot": "1",
						"type": "t_array(t_uint256)50_storage"
					},
					{
						"astId": 851,
						"contract": "contracts/ChadPepe.sol:ChadPepe",
						"label": "_balances",
						"offset": 0,
						"slot": "51",
						"type": "t_mapping(t_address,t_uint256)"
					},
					{
						"astId": 857,
						"contract": "contracts/ChadPepe.sol:ChadPepe",
						"label": "_allowances",
						"offset": 0,
						"slot": "52",
						"type": "t_mapping(t_address,t_mapping(t_address,t_uint256))"
					},
					{
						"astId": 859,
						"contract": "contracts/ChadPepe.sol:ChadPepe",
						"label": "_totalSupply",
						"offset": 0,
						"slot": "53",
						"type": "t_uint256"
					},
					{
						"astId": 861,
						"contract": "contracts/ChadPepe.sol:ChadPepe",
						"label": "_name",
						"offset": 0,
						"slot": "54",
						"type": "t_string_storage"
					},
					{
						"astId": 863,
						"contract": "contracts/ChadPepe.sol:ChadPepe",
						"label": "_symbol",
						"offset": 0,
						"slot": "55",
						"type": "t_string_storage"
					},
					{
						"astId": 1443,
						"contract": "contracts/ChadPepe.sol:ChadPepe",
						"label": "__gap",
						"offset": 0,
						"slot": "56",
						"type": "t_array(t_uint256)45_storage"
					},
					{
						"astId": 1585,
						"contract": "contracts/ChadPepe.sol:ChadPepe",
						"label": "__gap",
						"offset": 0,
						"slot": "101",
						"type": "t_array(t_uint256)50_storage"
					},
					{
						"astId": 10,
						"contract": "contracts/ChadPepe.sol:ChadPepe",
						"label": "_owner",
						"offset": 0,
						"slot": "151",
						"type": "t_address"
					},
					{
						"astId": 130,
						"contract": "contracts/ChadPepe.sol:ChadPepe",
						"label": "__gap",
						"offset": 0,
						"slot": "152",
						"type": "t_array(t_uint256)49_storage"
					},
					{
						"astId": 516,
						"contract": "contracts/ChadPepe.sol:ChadPepe",
						"label": "__gap",
						"offset": 0,
						"slot": "201",
						"type": "t_array(t_uint256)50_storage"
					},
					{
						"astId": 831,
						"contract": "contracts/ChadPepe.sol:ChadPepe",
						"label": "__gap",
						"offset": 0,
						"slot": "251",
						"type": "t_array(t_uint256)50_storage"
					}
				],
				"types": {
					"t_address": {
						"encoding": "inplace",
						"label": "address",
						"numberOfBytes": "20"
					},
					"t_array(t_uint256)45_storage": {
						"base": "t_uint256",
						"encoding": "inplace",
						"label": "uint256[45]",
						"numberOfBytes": "1440"
					},
					"t_array(t_uint256)49_storage": {
						"base": "t_uint256",
						"encoding": "inplace",
						"label": "uint256[49]",
						"numberOfBytes": "1568"
					},
					"t_array(t_uint256)50_storage": {
						"base": "t_uint256",
						"encoding": "inplace",
						"label": "uint256[50]",
						"numberOfBytes": "1600"
					},
					"t_bool": {
						"encoding": "inplace",
						"label": "bool",
						"numberOfBytes": "1"
					},
					"t_mapping(t_address,t_mapping(t_address,t_uint256))": {
						"encoding": "mapping",
						"key": "t_address",
						"label": "mapping(address => mapping(address => uint256))",
						"numberOfBytes": "32",
						"value": "t_mapping(t_address,t_uint256)"
					},
					"t_mapping(t_address,t_uint256)": {
						"encoding": "mapping",
						"key": "t_address",
						"label": "mapping(address => uint256)",
						"numberOfBytes": "32",
						"value": "t_uint256"
					},
					"t_string_storage": {
						"encoding": "bytes",
						"label": "string",
						"numberOfBytes": "32"
					},
					"t_uint256": {
						"encoding": "inplace",
						"label": "uint256",
						"numberOfBytes": "32"
					},
					"t_uint8": {
						"encoding": "inplace",
						"label": "uint8",
						"numberOfBytes": "1"
					}
				}
			},
			"userdoc": {
				"kind": "user",
				"methods": {},
				"version": 1
			}
		}
	}
}