{
	"contracts/ChadPepeCrowdsale.sol": {
		"ChadPepeCrowdsale": {
			"abi": [
				{
					"inputs": [
						{
							"internalType": "uint256",
							"name": "_rate",
							"type": "uint256"
						},
						{
							"internalType": "address",
							"name": "_tokenAddress",
							"type": "address"
						}
					],
					"stateMutability": "nonpayable",
					"type": "constructor"
				},
				{
					"anonymous": false,
					"inputs": [
						{
							"indexed": true,
							"internalType": "address",
							"name": "previousOwner",
							"type": "address"
						},
						{
							"indexed": true,
							"internalType": "address",
							"name": "newOwner",
							"type": "address"
						}
					],
					"name": "OwnershipTransferred",
					"type": "event"
				},
				{
					"anonymous": false,
					"inputs": [
						{
							"indexed": true,
							"internalType": "address",
							"name": "purchaser",
							"type": "address"
						},
						{
							"indexed": true,
							"internalType": "address",
							"name": "beneficiary",
							"type": "address"
						},
						{
							"indexed": false,
							"internalType": "uint256",
							"name": "value",
							"type": "uint256"
						},
						{
							"indexed": false,
							"internalType": "uint256",
							"name": "amount",
							"type": "uint256"
						}
					],
					"name": "TokensPurchased",
					"type": "event"
				},
				{
					"inputs": [
						{
							"internalType": "address",
							"name": "beneficiary",
							"type": "address"
						}
					],
					"name": "buyTokens",
					"outputs": [],
					"stateMutability": "payable",
					"type": "function"
				},
				{
					"inputs": [],
					"name": "owner",
					"outputs": [
						{
							"internalType": "address",
							"name": "",
							"type": "address"
						}
					],
					"stateMutability": "view",
					"type": "function"
				},
				{
					"inputs": [],
					"name": "rate",
					"outputs": [
						{
							"internalType": "uint256",
							"name": "",
							"type": "uint256"
						}
					],
					"stateMutability": "view",
					"type": "function"
				},
				{
					"inputs": [],
					"name": "renounceOwnership",
					"outputs": [],
					"stateMutability": "nonpayable",
					"type": "function"
				},
				{
					"inputs": [
						{
							"internalType": "uint256",
							"name": "newRate",
							"type": "uint256"
						}
					],
					"name": "setRate",
					"outputs": [],
					"stateMutability": "nonpayable",
					"type": "function"
				},
				{
					"inputs": [],
					"name": "token",
					"outputs": [
						{
							"internalType": "contract IERC20",
							"name": "",
							"type": "address"
						}
					],
					"stateMutability": "view",
					"type": "function"
				},
				{
					"inputs": [
						{
							"internalType": "address",
							"name": "newOwner",
							"type": "address"
						}
					],
					"name": "transferOwnership",
					"outputs": [],
					"stateMutability": "nonpayable",
					"type": "function"
				},
				{
					"inputs": [],
					"name": "weiRaised",
					"outputs": [
						{
							"internalType": "uint256",
							"name": "",
							"type": "uint256"
						}
					],
					"stateMutability": "view",
					"type": "function"
				},
				{
					"stateMutability": "payable",
					"type": "receive"
				}
			],
			"devdoc": {
				"kind": "dev",
				"methods": {
					"owner()": {
						"details": "Returns the address of the current owner."
					},
					"renounceOwnership()": {
						"details": "Leaves the contract without owner. It will not be possible to call `onlyOwner` functions anymore. Can only be called by the current owner. NOTE: Renouncing ownership will leave the contract without an owner, thereby removing any functionality that is only available to the owner."
					},
					"transferOwnership(address)": {
						"details": "Transfers ownership of the contract to a new account (`newOwner`). Can only be called by the current owner."
					}
				},
				"version": 1
			},
			"evm": {
				"assembly": "    /* \"contracts/ChadPepeCrowdsale.sol\":289:2720  contract ChadPepeCrowdsale is Ownable, ReentrancyGuard {... */\n  mstore(0x40, 0x80)\n    /* \"contracts/ChadPepeCrowdsale.sol\":579:852  constructor(uint256 _rate, address _tokenAddress) {... */\n  callvalue\n  dup1\n  iszero\n  tag_1\n  jumpi\n  0x00\n  dup1\n  revert\ntag_1:\n  pop\n  mload(0x40)\n  sub(codesize, bytecodeSize)\n  dup1\n  bytecodeSize\n  dup4\n  codecopy\n  dup2\n  dup2\n  add\n  0x40\n  mstore\n  dup2\n  add\n  swap1\n  tag_2\n  swap2\n  swap1\n  tag_3\n  jump\t// in\ntag_2:\n    /* \"@openzeppelin/contracts/access/Ownable.sol\":936:968  _transferOwnership(_msgSender()) */\n  tag_8\n    /* \"@openzeppelin/contracts/access/Ownable.sol\":955:967  _msgSender() */\n  tag_9\n    /* \"@openzeppelin/contracts/access/Ownable.sol\":955:965  _msgSender */\n  shl(0x20, tag_10)\n    /* \"@openzeppelin/contracts/access/Ownable.sol\":955:967  _msgSender() */\n  0x20\n  shr\n  jump\t// in\ntag_9:\n    /* \"@openzeppelin/contracts/access/Ownable.sol\":936:954  _transferOwnership */\n  shl(0x20, tag_11)\n    /* \"@openzeppelin/contracts/access/Ownable.sol\":936:968  _transferOwnership(_msgSender()) */\n  0x20\n  shr\n  jump\t// in\ntag_8:\n    /* \"@openzeppelin/contracts/security/ReentrancyGuard.sol\":1716:1717  1 */\n  0x01\n    /* \"@openzeppelin/contracts/security/ReentrancyGuard.sol\":1821:1828  _status */\n  dup1\n    /* \"@openzeppelin/contracts/security/ReentrancyGuard.sol\":1821:1843  _status = _NOT_ENTERED */\n  dup2\n  swap1\n  sstore\n  pop\n    /* \"contracts/ChadPepeCrowdsale.sol\":655:656  0 */\n  0x00\n    /* \"contracts/ChadPepeCrowdsale.sol\":647:652  _rate */\n  dup3\n    /* \"contracts/ChadPepeCrowdsale.sol\":647:656  _rate > 0 */\n  gt\n    /* \"contracts/ChadPepeCrowdsale.sol\":639:689  require(_rate > 0, \"ChadPepeCrowdsale: rate is 0\") */\n  tag_14\n  jumpi\n  mload(0x40)\n  0x08c379a000000000000000000000000000000000000000000000000000000000\n  dup2\n  mstore\n  0x04\n  add\n  tag_15\n  swap1\n  tag_16\n  jump\t// in\ntag_15:\n  mload(0x40)\n  dup1\n  swap2\n  sub\n  swap1\n  revert\ntag_14:\n    /* \"contracts/ChadPepeCrowdsale.sol\":732:733  0 */\n  0x00\n    /* \"contracts/ChadPepeCrowdsale.sol\":707:734  _tokenAddress != address(0) */\n  0xffffffffffffffffffffffffffffffffffffffff\n  and\n    /* \"contracts/ChadPepeCrowdsale.sol\":707:720  _tokenAddress */\n  dup2\n    /* \"contracts/ChadPepeCrowdsale.sol\":707:734  _tokenAddress != address(0) */\n  0xffffffffffffffffffffffffffffffffffffffff\n  and\n  sub\n    /* \"contracts/ChadPepeCrowdsale.sol\":699:783  require(_tokenAddress != address(0), \"ChadPepeCrowdsale: token is the zero address\") */\n  tag_17\n  jumpi\n  mload(0x40)\n  0x08c379a000000000000000000000000000000000000000000000000000000000\n  dup2\n  mstore\n  0x04\n  add\n  tag_18\n  swap1\n  tag_19\n  jump\t// in\ntag_18:\n  mload(0x40)\n  dup1\n  swap2\n  sub\n  swap1\n  revert\ntag_17:\n    /* \"contracts/ChadPepeCrowdsale.sol\":801:806  _rate */\n  dup2\n    /* \"contracts/ChadPepeCrowdsale.sol\":794:798  rate */\n  0x03\n    /* \"contracts/ChadPepeCrowdsale.sol\":794:806  rate = _rate */\n  dup2\n  swap1\n  sstore\n  pop\n    /* \"contracts/ChadPepeCrowdsale.sol\":831:844  _tokenAddress */\n  dup1\n    /* \"contracts/ChadPepeCrowdsale.sol\":816:821  token */\n  0x02\n  0x00\n    /* \"contracts/ChadPepeCrowdsale.sol\":816:845  token = IERC20(_tokenAddress) */\n  0x0100\n  exp\n  dup2\n  sload\n  dup2\n  0xffffffffffffffffffffffffffffffffffffffff\n  mul\n  not\n  and\n  swap1\n  dup4\n  0xffffffffffffffffffffffffffffffffffffffff\n  and\n  mul\n  or\n  swap1\n  sstore\n  pop\n    /* \"contracts/ChadPepeCrowdsale.sol\":579:852  constructor(uint256 _rate, address _tokenAddress) {... */\n  pop\n  pop\n    /* \"contracts/ChadPepeCrowdsale.sol\":289:2720  contract ChadPepeCrowdsale is Ownable, ReentrancyGuard {... */\n  jump(tag_20)\n    /* \"@openzeppelin/contracts/utils/Context.sol\":640:736  function _msgSender() internal view virtual returns (address) {... */\ntag_10:\n    /* \"@openzeppelin/contracts/utils/Context.sol\":693:700  address */\n  0x00\n    /* \"@openzeppelin/contracts/utils/Context.sol\":719:729  msg.sender */\n  caller\n    /* \"@openzeppelin/contracts/utils/Context.sol\":712:729  return msg.sender */\n  swap1\n  pop\n    /* \"@openzeppelin/contracts/utils/Context.sol\":640:736  function _msgSender() internal view virtual returns (address) {... */\n  swap1\n  jump\t// out\n    /* \"@openzeppelin/contracts/access/Ownable.sol\":2433:2620  function _transferOwnership(address newOwner) internal virtual {... */\ntag_11:\n    /* \"@openzeppelin/contracts/access/Ownable.sol\":2506:2522  address oldOwner */\n  0x00\n    /* \"@openzeppelin/contracts/access/Ownable.sol\":2525:2531  _owner */\n  dup1\n  0x00\n  swap1\n  sload\n  swap1\n  0x0100\n  exp\n  swap1\n  div\n  0xffffffffffffffffffffffffffffffffffffffff\n  and\n    /* \"@openzeppelin/contracts/access/Ownable.sol\":2506:2531  address oldOwner = _owner */\n  swap1\n  pop\n    /* \"@openzeppelin/contracts/access/Ownable.sol\":2550:2558  newOwner */\n  dup2\n    /* \"@openzeppelin/contracts/access/Ownable.sol\":2541:2547  _owner */\n  0x00\n  dup1\n    /* \"@openzeppelin/contracts/access/Ownable.sol\":2541:2558  _owner = newOwner */\n  0x0100\n  exp\n  dup2\n  sload\n  dup2\n  0xffffffffffffffffffffffffffffffffffffffff\n  mul\n  not\n  and\n  swap1\n  dup4\n  0xffffffffffffffffffffffffffffffffffffffff\n  and\n  mul\n  or\n  swap1\n  sstore\n  pop\n    /* \"@openzeppelin/contracts/access/Ownable.sol\":2604:2612  newOwner */\n  dup2\n    /* \"@openzeppelin/contracts/access/Ownable.sol\":2573:2613  OwnershipTransferred(oldOwner, newOwner) */\n  0xffffffffffffffffffffffffffffffffffffffff\n  and\n    /* \"@openzeppelin/contracts/access/Ownable.sol\":2594:2602  oldOwner */\n  dup2\n    /* \"@openzeppelin/contracts/access/Ownable.sol\":2573:2613  OwnershipTransferred(oldOwner, newOwner) */\n  0xffffffffffffffffffffffffffffffffffffffff\n  and\n  0x8be0079c531659141344cd1fd0a4f28419497f9722a3daafe3b4186f6b6457e0\n  mload(0x40)\n  mload(0x40)\n  dup1\n  swap2\n  sub\n  swap1\n  log3\n    /* \"@openzeppelin/contracts/access/Ownable.sol\":2496:2620  {... */\n  pop\n    /* \"@openzeppelin/contracts/access/Ownable.sol\":2433:2620  function _transferOwnership(address newOwner) internal virtual {... */\n  pop\n  jump\t// out\n    /* \"#utility.yul\":88:205   */\ntag_24:\n    /* \"#utility.yul\":197:198   */\n  0x00\n    /* \"#utility.yul\":194:195   */\n  dup1\n    /* \"#utility.yul\":187:199   */\n  revert\n    /* \"#utility.yul\":334:411   */\ntag_26:\n    /* \"#utility.yul\":371:378   */\n  0x00\n    /* \"#utility.yul\":400:405   */\n  dup2\n    /* \"#utility.yul\":389:405   */\n  swap1\n  pop\n    /* \"#utility.yul\":334:411   */\n  swap2\n  swap1\n  pop\n  jump\t// out\n    /* \"#utility.yul\":417:539   */\ntag_27:\n    /* \"#utility.yul\":490:514   */\n  tag_44\n    /* \"#utility.yul\":508:513   */\n  dup2\n    /* \"#utility.yul\":490:514   */\n  tag_26\n  jump\t// in\ntag_44:\n    /* \"#utility.yul\":483:488   */\n  dup2\n    /* \"#utility.yul\":480:515   */\n  eq\n    /* \"#utility.yul\":470:533   */\n  tag_45\n  jumpi\n    /* \"#utility.yul\":529:530   */\n  0x00\n    /* \"#utility.yul\":526:527   */\n  dup1\n    /* \"#utility.yul\":519:531   */\n  revert\n    /* \"#utility.yul\":470:533   */\ntag_45:\n    /* \"#utility.yul\":417:539   */\n  pop\n  jump\t// out\n    /* \"#utility.yul\":545:688   */\ntag_28:\n    /* \"#utility.yul\":602:607   */\n  0x00\n    /* \"#utility.yul\":633:639   */\n  dup2\n    /* \"#utility.yul\":627:640   */\n  mload\n    /* \"#utility.yul\":618:640   */\n  swap1\n  pop\n    /* \"#utility.yul\":649:682   */\n  tag_47\n    /* \"#utility.yul\":676:681   */\n  dup2\n    /* \"#utility.yul\":649:682   */\n  tag_27\n  jump\t// in\ntag_47:\n    /* \"#utility.yul\":545:688   */\n  swap3\n  swap2\n  pop\n  pop\n  jump\t// out\n    /* \"#utility.yul\":694:820   */\ntag_29:\n    /* \"#utility.yul\":731:738   */\n  0x00\n    /* \"#utility.yul\":771:813   */\n  0xffffffffffffffffffffffffffffffffffffffff\n    /* \"#utility.yul\":764:769   */\n  dup3\n    /* \"#utility.yul\":760:814   */\n  and\n    /* \"#utility.yul\":749:814   */\n  swap1\n  pop\n    /* \"#utility.yul\":694:820   */\n  swap2\n  swap1\n  pop\n  jump\t// out\n    /* \"#utility.yul\":826:922   */\ntag_30:\n    /* \"#utility.yul\":863:870   */\n  0x00\n    /* \"#utility.yul\":892:916   */\n  tag_50\n    /* \"#utility.yul\":910:915   */\n  dup3\n    /* \"#utility.yul\":892:916   */\n  tag_29\n  jump\t// in\ntag_50:\n    /* \"#utility.yul\":881:916   */\n  swap1\n  pop\n    /* \"#utility.yul\":826:922   */\n  swap2\n  swap1\n  pop\n  jump\t// out\n    /* \"#utility.yul\":928:1050   */\ntag_31:\n    /* \"#utility.yul\":1001:1025   */\n  tag_52\n    /* \"#utility.yul\":1019:1024   */\n  dup2\n    /* \"#utility.yul\":1001:1025   */\n  tag_30\n  jump\t// in\ntag_52:\n    /* \"#utility.yul\":994:999   */\n  dup2\n    /* \"#utility.yul\":991:1026   */\n  eq\n    /* \"#utility.yul\":981:1044   */\n  tag_53\n  jumpi\n    /* \"#utility.yul\":1040:1041   */\n  0x00\n    /* \"#utility.yul\":1037:1038   */\n  dup1\n    /* \"#utility.yul\":1030:1042   */\n  revert\n    /* \"#utility.yul\":981:1044   */\ntag_53:\n    /* \"#utility.yul\":928:1050   */\n  pop\n  jump\t// out\n    /* \"#utility.yul\":1056:1199   */\ntag_32:\n    /* \"#utility.yul\":1113:1118   */\n  0x00\n    /* \"#utility.yul\":1144:1150   */\n  dup2\n    /* \"#utility.yul\":1138:1151   */\n  mload\n    /* \"#utility.yul\":1129:1151   */\n  swap1\n  pop\n    /* \"#utility.yul\":1160:1193   */\n  tag_55\n    /* \"#utility.yul\":1187:1192   */\n  dup2\n    /* \"#utility.yul\":1160:1193   */\n  tag_31\n  jump\t// in\ntag_55:\n    /* \"#utility.yul\":1056:1199   */\n  swap3\n  swap2\n  pop\n  pop\n  jump\t// out\n    /* \"#utility.yul\":1205:1712   */\ntag_3:\n    /* \"#utility.yul\":1284:1290   */\n  0x00\n    /* \"#utility.yul\":1292:1298   */\n  dup1\n    /* \"#utility.yul\":1341:1343   */\n  0x40\n    /* \"#utility.yul\":1329:1338   */\n  dup4\n    /* \"#utility.yul\":1320:1327   */\n  dup6\n    /* \"#utility.yul\":1316:1339   */\n  sub\n    /* \"#utility.yul\":1312:1344   */\n  slt\n    /* \"#utility.yul\":1309:1428   */\n  iszero\n  tag_57\n  jumpi\n    /* \"#utility.yul\":1347:1426   */\n  tag_58\n  tag_24\n  jump\t// in\ntag_58:\n    /* \"#utility.yul\":1309:1428   */\ntag_57:\n    /* \"#utility.yul\":1467:1468   */\n  0x00\n    /* \"#utility.yul\":1492:1556   */\n  tag_59\n    /* \"#utility.yul\":1548:1555   */\n  dup6\n    /* \"#utility.yul\":1539:1545   */\n  dup3\n    /* \"#utility.yul\":1528:1537   */\n  dup7\n    /* \"#utility.yul\":1524:1546   */\n  add\n    /* \"#utility.yul\":1492:1556   */\n  tag_28\n  jump\t// in\ntag_59:\n    /* \"#utility.yul\":1482:1556   */\n  swap3\n  pop\n    /* \"#utility.yul\":1438:1566   */\n  pop\n    /* \"#utility.yul\":1605:1607   */\n  0x20\n    /* \"#utility.yul\":1631:1695   */\n  tag_60\n    /* \"#utility.yul\":1687:1694   */\n  dup6\n    /* \"#utility.yul\":1678:1684   */\n  dup3\n    /* \"#utility.yul\":1667:1676   */\n  dup7\n    /* \"#utility.yul\":1663:1685   */\n  add\n    /* \"#utility.yul\":1631:1695   */\n  tag_32\n  jump\t// in\ntag_60:\n    /* \"#utility.yul\":1621:1695   */\n  swap2\n  pop\n    /* \"#utility.yul\":1576:1705   */\n  pop\n    /* \"#utility.yul\":1205:1712   */\n  swap3\n  pop\n  swap3\n  swap1\n  pop\n  jump\t// out\n    /* \"#utility.yul\":1718:1887   */\ntag_33:\n    /* \"#utility.yul\":1802:1813   */\n  0x00\n    /* \"#utility.yul\":1836:1842   */\n  dup3\n    /* \"#utility.yul\":1831:1834   */\n  dup3\n    /* \"#utility.yul\":1824:1843   */\n  mstore\n    /* \"#utility.yul\":1876:1880   */\n  0x20\n    /* \"#utility.yul\":1871:1874   */\n  dup3\n    /* \"#utility.yul\":1867:1881   */\n  add\n    /* \"#utility.yul\":1852:1881   */\n  swap1\n  pop\n    /* \"#utility.yul\":1718:1887   */\n  swap3\n  swap2\n  pop\n  pop\n  jump\t// out\n    /* \"#utility.yul\":1893:2071   */\ntag_34:\n    /* \"#utility.yul\":2033:2063   */\n  0x436861645065706543726f776473616c653a2072617465206973203000000000\n    /* \"#utility.yul\":2029:2030   */\n  0x00\n    /* \"#utility.yul\":2021:2027   */\n  dup3\n    /* \"#utility.yul\":2017:2031   */\n  add\n    /* \"#utility.yul\":2010:2064   */\n  mstore\n    /* \"#utility.yul\":1893:2071   */\n  pop\n  jump\t// out\n    /* \"#utility.yul\":2077:2443   */\ntag_35:\n    /* \"#utility.yul\":2219:2222   */\n  0x00\n    /* \"#utility.yul\":2240:2307   */\n  tag_64\n    /* \"#utility.yul\":2304:2306   */\n  0x1c\n    /* \"#utility.yul\":2299:2302   */\n  dup4\n    /* \"#utility.yul\":2240:2307   */\n  tag_33\n  jump\t// in\ntag_64:\n    /* \"#utility.yul\":2233:2307   */\n  swap2\n  pop\n    /* \"#utility.yul\":2316:2409   */\n  tag_65\n    /* \"#utility.yul\":2405:2408   */\n  dup3\n    /* \"#utility.yul\":2316:2409   */\n  tag_34\n  jump\t// in\ntag_65:\n    /* \"#utility.yul\":2434:2436   */\n  0x20\n    /* \"#utility.yul\":2429:2432   */\n  dup3\n    /* \"#utility.yul\":2425:2437   */\n  add\n    /* \"#utility.yul\":2418:2437   */\n  swap1\n  pop\n    /* \"#utility.yul\":2077:2443   */\n  swap2\n  swap1\n  pop\n  jump\t// out\n    /* \"#utility.yul\":2449:2868   */\ntag_16:\n    /* \"#utility.yul\":2615:2619   */\n  0x00\n    /* \"#utility.yul\":2653:2655   */\n  0x20\n    /* \"#utility.yul\":2642:2651   */\n  dup3\n    /* \"#utility.yul\":2638:2656   */\n  add\n    /* \"#utility.yul\":2630:2656   */\n  swap1\n  pop\n    /* \"#utility.yul\":2702:2711   */\n  dup2\n    /* \"#utility.yul\":2696:2700   */\n  dup2\n    /* \"#utility.yul\":2692:2712   */\n  sub\n    /* \"#utility.yul\":2688:2689   */\n  0x00\n    /* \"#utility.yul\":2677:2686   */\n  dup4\n    /* \"#utility.yul\":2673:2690   */\n  add\n    /* \"#utility.yul\":2666:2713   */\n  mstore\n    /* \"#utility.yul\":2730:2861   */\n  tag_67\n    /* \"#utility.yul\":2856:2860   */\n  dup2\n    /* \"#utility.yul\":2730:2861   */\n  tag_35\n  jump\t// in\ntag_67:\n    /* \"#utility.yul\":2722:2861   */\n  swap1\n  pop\n    /* \"#utility.yul\":2449:2868   */\n  swap2\n  swap1\n  pop\n  jump\t// out\n    /* \"#utility.yul\":2874:3105   */\ntag_36:\n    /* \"#utility.yul\":3014:3048   */\n  0x436861645065706543726f776473616c653a20746f6b656e2069732074686520\n    /* \"#utility.yul\":3010:3011   */\n  0x00\n    /* \"#utility.yul\":3002:3008   */\n  dup3\n    /* \"#utility.yul\":2998:3012   */\n  add\n    /* \"#utility.yul\":2991:3049   */\n  mstore\n    /* \"#utility.yul\":3083:3097   */\n  0x7a65726f20616464726573730000000000000000000000000000000000000000\n    /* \"#utility.yul\":3078:3080   */\n  0x20\n    /* \"#utility.yul\":3070:3076   */\n  dup3\n    /* \"#utility.yul\":3066:3081   */\n  add\n    /* \"#utility.yul\":3059:3098   */\n  mstore\n    /* \"#utility.yul\":2874:3105   */\n  pop\n  jump\t// out\n    /* \"#utility.yul\":3111:3477   */\ntag_37:\n    /* \"#utility.yul\":3253:3256   */\n  0x00\n    /* \"#utility.yul\":3274:3341   */\n  tag_70\n    /* \"#utility.yul\":3338:3340   */\n  0x2c\n    /* \"#utility.yul\":3333:3336   */\n  dup4\n    /* \"#utility.yul\":3274:3341   */\n  tag_33\n  jump\t// in\ntag_70:\n    /* \"#utility.yul\":3267:3341   */\n  swap2\n  pop\n    /* \"#utility.yul\":3350:3443   */\n  tag_71\n    /* \"#utility.yul\":3439:3442   */\n  dup3\n    /* \"#utility.yul\":3350:3443   */\n  tag_36\n  jump\t// in\ntag_71:\n    /* \"#utility.yul\":3468:3470   */\n  0x40\n    /* \"#utility.yul\":3463:3466   */\n  dup3\n    /* \"#utility.yul\":3459:3471   */\n  add\n    /* \"#utility.yul\":3452:3471   */\n  swap1\n  pop\n    /* \"#utility.yul\":3111:3477   */\n  swap2\n  swap1\n  pop\n  jump\t// out\n    /* \"#utility.yul\":3483:3902   */\ntag_19:\n    /* \"#utility.yul\":3649:3653   */\n  0x00\n    /* \"#utility.yul\":3687:3689   */\n  0x20\n    /* \"#utility.yul\":3676:3685   */\n  dup3\n    /* \"#utility.yul\":3672:3690   */\n  add\n    /* \"#utility.yul\":3664:3690   */\n  swap1\n  pop\n    /* \"#utility.yul\":3736:3745   */\n  dup2\n    /* \"#utility.yul\":3730:3734   */\n  dup2\n    /* \"#utility.yul\":3726:3746   */\n  sub\n    /* \"#utility.yul\":3722:3723   */\n  0x00\n    /* \"#utility.yul\":3711:3720   */\n  dup4\n    /* \"#utility.yul\":3707:3724   */\n  add\n    /* \"#utility.yul\":3700:3747   */\n  mstore\n    /* \"#utility.yul\":3764:3895   */\n  tag_73\n    /* \"#utility.yul\":3890:3894   */\n  dup2\n    /* \"#utility.yul\":3764:3895   */\n  tag_37\n  jump\t// in\ntag_73:\n    /* \"#utility.yul\":3756:3895   */\n  swap1\n  pop\n    /* \"#utility.yul\":3483:3902   */\n  swap2\n  swap1\n  pop\n  jump\t// out\n    /* \"contracts/ChadPepeCrowdsale.sol\":289:2720  contract ChadPepeCrowdsale is Ownable, ReentrancyGuard {... */\ntag_20:\n  dataSize(sub_0)\n  dup1\n  dataOffset(sub_0)\n  0x00\n  codecopy\n  0x00\n  return\nstop\n\nsub_0: assembly {\n        /* \"contracts/ChadPepeCrowdsale.sol\":289:2720  contract ChadPepeCrowdsale is Ownable, ReentrancyGuard {... */\n      mstore(0x40, 0x80)\n      jumpi(tag_1, lt(calldatasize, 0x04))\n      shr(0xe0, calldataload(0x00))\n      dup1\n      0x8da5cb5b\n      gt\n      tag_11\n      jumpi\n      dup1\n      0x8da5cb5b\n      eq\n      tag_7\n      jumpi\n      dup1\n      0xec8ac4d8\n      eq\n      tag_8\n      jumpi\n      dup1\n      0xf2fde38b\n      eq\n      tag_9\n      jumpi\n      dup1\n      0xfc0c546a\n      eq\n      tag_10\n      jumpi\n      jump(tag_2)\n    tag_11:\n      dup1\n      0x2c4e722e\n      eq\n      tag_3\n      jumpi\n      dup1\n      0x34fcf437\n      eq\n      tag_4\n      jumpi\n      dup1\n      0x4042b66f\n      eq\n      tag_5\n      jumpi\n      dup1\n      0x715018a6\n      eq\n      tag_6\n      jumpi\n      jump(tag_2)\n    tag_1:\n      jumpi(tag_2, calldatasize)\n        /* \"contracts/ChadPepeCrowdsale.sol\":895:916  buyTokens(msg.sender) */\n      tag_14\n        /* \"contracts/ChadPepeCrowdsale.sol\":905:915  msg.sender */\n      caller\n        /* \"contracts/ChadPepeCrowdsale.sol\":895:904  buyTokens */\n      tag_15\n        /* \"contracts/ChadPepeCrowdsale.sol\":895:916  buyTokens(msg.sender) */\n      jump\t// in\n    tag_14:\n        /* \"contracts/ChadPepeCrowdsale.sol\":289:2720  contract ChadPepeCrowdsale is Ownable, ReentrancyGuard {... */\n      stop\n    tag_2:\n      0x00\n      dup1\n      revert\n        /* \"contracts/ChadPepeCrowdsale.sol\":408:427  uint256 public rate */\n    tag_3:\n      callvalue\n      dup1\n      iszero\n      tag_16\n      jumpi\n      0x00\n      dup1\n      revert\n    tag_16:\n      pop\n      tag_17\n      tag_18\n      jump\t// in\n    tag_17:\n      mload(0x40)\n      tag_19\n      swap2\n      swap1\n      tag_20\n      jump\t// in\n    tag_19:\n      mload(0x40)\n      dup1\n      swap2\n      sub\n      swap1\n      return\n        /* \"contracts/ChadPepeCrowdsale.sol\":2568:2718  function setRate(uint256 newRate) external onlyOwner {... */\n    tag_4:\n      callvalue\n      dup1\n      iszero\n      tag_21\n      jumpi\n      0x00\n      dup1\n      revert\n    tag_21:\n      pop\n      tag_22\n      0x04\n      dup1\n      calldatasize\n      sub\n      dup2\n      add\n      swap1\n      tag_23\n      swap2\n      swap1\n      tag_24\n      jump\t// in\n    tag_23:\n      tag_25\n      jump\t// in\n    tag_22:\n      stop\n        /* \"contracts/ChadPepeCrowdsale.sol\":433:457  uint256 public weiRaised */\n    tag_5:\n      callvalue\n      dup1\n      iszero\n      tag_26\n      jumpi\n      0x00\n      dup1\n      revert\n    tag_26:\n      pop\n      tag_27\n      tag_28\n      jump\t// in\n    tag_27:\n      mload(0x40)\n      tag_29\n      swap2\n      swap1\n      tag_20\n      jump\t// in\n    tag_29:\n      mload(0x40)\n      dup1\n      swap2\n      sub\n      swap1\n      return\n        /* \"@openzeppelin/contracts/access/Ownable.sol\":1831:1932  function renounceOwnership() public virtual onlyOwner {... */\n    tag_6:\n      callvalue\n      dup1\n      iszero\n      tag_30\n      jumpi\n      0x00\n      dup1\n      revert\n    tag_30:\n      pop\n      tag_31\n      tag_32\n      jump\t// in\n    tag_31:\n      stop\n        /* \"@openzeppelin/contracts/access/Ownable.sol\":1201:1286  function owner() public view virtual returns (address) {... */\n    tag_7:\n      callvalue\n      dup1\n      iszero\n      tag_33\n      jumpi\n      0x00\n      dup1\n      revert\n    tag_33:\n      pop\n      tag_34\n      tag_35\n      jump\t// in\n    tag_34:\n      mload(0x40)\n      tag_36\n      swap2\n      swap1\n      tag_37\n      jump\t// in\n    tag_36:\n      mload(0x40)\n      dup1\n      swap2\n      sub\n      swap1\n      return\n        /* \"contracts/ChadPepeCrowdsale.sol\":929:1458  function buyTokens(address beneficiary) public nonReentrant payable {... */\n    tag_8:\n      tag_38\n      0x04\n      dup1\n      calldatasize\n      sub\n      dup2\n      add\n      swap1\n      tag_39\n      swap2\n      swap1\n      tag_40\n      jump\t// in\n    tag_39:\n      tag_15\n      jump\t// in\n    tag_38:\n      stop\n        /* \"@openzeppelin/contracts/access/Ownable.sol\":2081:2279  function transferOwnership(address newOwner) public virtual onlyOwner {... */\n    tag_9:\n      callvalue\n      dup1\n      iszero\n      tag_41\n      jumpi\n      0x00\n      dup1\n      revert\n    tag_41:\n      pop\n      tag_42\n      0x04\n      dup1\n      calldatasize\n      sub\n      dup2\n      add\n      swap1\n      tag_43\n      swap2\n      swap1\n      tag_40\n      jump\t// in\n    tag_43:\n      tag_44\n      jump\t// in\n    tag_42:\n      stop\n        /* \"contracts/ChadPepeCrowdsale.sol\":383:402  IERC20 public token */\n    tag_10:\n      callvalue\n      dup1\n      iszero\n      tag_45\n      jumpi\n      0x00\n      dup1\n      revert\n    tag_45:\n      pop\n      tag_46\n      tag_47\n      jump\t// in\n    tag_46:\n      mload(0x40)\n      tag_48\n      swap2\n      swap1\n      tag_49\n      jump\t// in\n    tag_48:\n      mload(0x40)\n      dup1\n      swap2\n      sub\n      swap1\n      return\n        /* \"contracts/ChadPepeCrowdsale.sol\":929:1458  function buyTokens(address beneficiary) public nonReentrant payable {... */\n    tag_15:\n        /* \"@openzeppelin/contracts/security/ReentrancyGuard.sol\":2261:2282  _nonReentrantBefore() */\n      tag_51\n        /* \"@openzeppelin/contracts/security/ReentrancyGuard.sol\":2261:2280  _nonReentrantBefore */\n      tag_52\n        /* \"@openzeppelin/contracts/security/ReentrancyGuard.sol\":2261:2282  _nonReentrantBefore() */\n      jump\t// in\n    tag_51:\n        /* \"contracts/ChadPepeCrowdsale.sol\":1007:1024  uint256 weiAmount */\n      0x00\n        /* \"contracts/ChadPepeCrowdsale.sol\":1027:1036  msg.value */\n      callvalue\n        /* \"contracts/ChadPepeCrowdsale.sol\":1007:1036  uint256 weiAmount = msg.value */\n      swap1\n      pop\n        /* \"contracts/ChadPepeCrowdsale.sol\":1046:1090  _preValidatePurchase(beneficiary, weiAmount) */\n      tag_54\n        /* \"contracts/ChadPepeCrowdsale.sol\":1067:1078  beneficiary */\n      dup3\n        /* \"contracts/ChadPepeCrowdsale.sol\":1080:1089  weiAmount */\n      dup3\n        /* \"contracts/ChadPepeCrowdsale.sol\":1046:1066  _preValidatePurchase */\n      tag_55\n        /* \"contracts/ChadPepeCrowdsale.sol\":1046:1090  _preValidatePurchase(beneficiary, weiAmount) */\n      jump\t// in\n    tag_54:\n        /* \"contracts/ChadPepeCrowdsale.sol\":1101:1115  uint256 tokens */\n      0x00\n        /* \"contracts/ChadPepeCrowdsale.sol\":1118:1144  _getTokenAmount(weiAmount) */\n      tag_56\n        /* \"contracts/ChadPepeCrowdsale.sol\":1134:1143  weiAmount */\n      dup3\n        /* \"contracts/ChadPepeCrowdsale.sol\":1118:1133  _getTokenAmount */\n      tag_57\n        /* \"contracts/ChadPepeCrowdsale.sol\":1118:1144  _getTokenAmount(weiAmount) */\n      jump\t// in\n    tag_56:\n        /* \"contracts/ChadPepeCrowdsale.sol\":1101:1144  uint256 tokens = _getTokenAmount(weiAmount) */\n      swap1\n      pop\n        /* \"contracts/ChadPepeCrowdsale.sol\":1167:1191  weiRaised.add(weiAmount) */\n      tag_58\n        /* \"contracts/ChadPepeCrowdsale.sol\":1181:1190  weiAmount */\n      dup3\n        /* \"contracts/ChadPepeCrowdsale.sol\":1167:1176  weiRaised */\n      sload(0x04)\n        /* \"contracts/ChadPepeCrowdsale.sol\":1167:1180  weiRaised.add */\n      tag_59\n      swap1\n        /* \"contracts/ChadPepeCrowdsale.sol\":1167:1191  weiRaised.add(weiAmount) */\n      swap2\n      swap1\n      0xffffffff\n      and\n      jump\t// in\n    tag_58:\n        /* \"contracts/ChadPepeCrowdsale.sol\":1155:1164  weiRaised */\n      0x04\n        /* \"contracts/ChadPepeCrowdsale.sol\":1155:1191  weiRaised = weiRaised.add(weiAmount) */\n      dup2\n      swap1\n      sstore\n      pop\n        /* \"contracts/ChadPepeCrowdsale.sol\":1202:1239  _processPurchase(beneficiary, tokens) */\n      tag_60\n        /* \"contracts/ChadPepeCrowdsale.sol\":1219:1230  beneficiary */\n      dup4\n        /* \"contracts/ChadPepeCrowdsale.sol\":1232:1238  tokens */\n      dup3\n        /* \"contracts/ChadPepeCrowdsale.sol\":1202:1218  _processPurchase */\n      tag_61\n        /* \"contracts/ChadPepeCrowdsale.sol\":1202:1239  _processPurchase(beneficiary, tokens) */\n      jump\t// in\n    tag_60:\n        /* \"contracts/ChadPepeCrowdsale.sol\":1282:1293  beneficiary */\n      dup3\n        /* \"contracts/ChadPepeCrowdsale.sol\":1254:1313  TokensPurchased(msg.sender, beneficiary, weiAmount, tokens) */\n      0xffffffffffffffffffffffffffffffffffffffff\n      and\n        /* \"contracts/ChadPepeCrowdsale.sol\":1270:1280  msg.sender */\n      caller\n        /* \"contracts/ChadPepeCrowdsale.sol\":1254:1313  TokensPurchased(msg.sender, beneficiary, weiAmount, tokens) */\n      0xffffffffffffffffffffffffffffffffffffffff\n      and\n      0x6faf93231a456e552dbc9961f58d9713ee4f2e69d15f1975b050ef0911053a7b\n        /* \"contracts/ChadPepeCrowdsale.sol\":1295:1304  weiAmount */\n      dup5\n        /* \"contracts/ChadPepeCrowdsale.sol\":1306:1312  tokens */\n      dup5\n        /* \"contracts/ChadPepeCrowdsale.sol\":1254:1313  TokensPurchased(msg.sender, beneficiary, weiAmount, tokens) */\n      mload(0x40)\n      tag_62\n      swap3\n      swap2\n      swap1\n      tag_63\n      jump\t// in\n    tag_62:\n      mload(0x40)\n      dup1\n      swap2\n      sub\n      swap1\n      log3\n        /* \"contracts/ChadPepeCrowdsale.sol\":1324:1370  _updatePurchasingState(beneficiary, weiAmount) */\n      tag_64\n        /* \"contracts/ChadPepeCrowdsale.sol\":1347:1358  beneficiary */\n      dup4\n        /* \"contracts/ChadPepeCrowdsale.sol\":1360:1369  weiAmount */\n      dup4\n        /* \"contracts/ChadPepeCrowdsale.sol\":1324:1346  _updatePurchasingState */\n      tag_65\n        /* \"contracts/ChadPepeCrowdsale.sol\":1324:1370  _updatePurchasingState(beneficiary, weiAmount) */\n      jump\t// in\n    tag_64:\n        /* \"contracts/ChadPepeCrowdsale.sol\":1381:1396  _forwardFunds() */\n      tag_66\n        /* \"contracts/ChadPepeCrowdsale.sol\":1381:1394  _forwardFunds */\n      tag_67\n        /* \"contracts/ChadPepeCrowdsale.sol\":1381:1396  _forwardFunds() */\n      jump\t// in\n    tag_66:\n        /* \"contracts/ChadPepeCrowdsale.sol\":1406:1451  _postValidatePurchase(beneficiary, weiAmount) */\n      tag_68\n        /* \"contracts/ChadPepeCrowdsale.sol\":1428:1439  beneficiary */\n      dup4\n        /* \"contracts/ChadPepeCrowdsale.sol\":1441:1450  weiAmount */\n      dup4\n        /* \"contracts/ChadPepeCrowdsale.sol\":1406:1427  _postValidatePurchase */\n      tag_69\n        /* \"contracts/ChadPepeCrowdsale.sol\":1406:1451  _postValidatePurchase(beneficiary, weiAmount) */\n      jump\t// in\n    tag_68:\n        /* \"contracts/ChadPepeCrowdsale.sol\":997:1458  {... */\n      pop\n      pop\n        /* \"@openzeppelin/contracts/security/ReentrancyGuard.sol\":2303:2323  _nonReentrantAfter() */\n      tag_70\n        /* \"@openzeppelin/contracts/security/ReentrancyGuard.sol\":2303:2321  _nonReentrantAfter */\n      tag_71\n        /* \"@openzeppelin/contracts/security/ReentrancyGuard.sol\":2303:2323  _nonReentrantAfter() */\n      jump\t// in\n    tag_70:\n        /* \"contracts/ChadPepeCrowdsale.sol\":929:1458  function buyTokens(address beneficiary) public nonReentrant payable {... */\n      pop\n      jump\t// out\n        /* \"contracts/ChadPepeCrowdsale.sol\":408:427  uint256 public rate */\n    tag_18:\n      sload(0x03)\n      dup2\n      jump\t// out\n        /* \"contracts/ChadPepeCrowdsale.sol\":2568:2718  function setRate(uint256 newRate) external onlyOwner {... */\n    tag_25:\n        /* \"@openzeppelin/contracts/access/Ownable.sol\":1094:1107  _checkOwner() */\n      tag_73\n        /* \"@openzeppelin/contracts/access/Ownable.sol\":1094:1105  _checkOwner */\n      tag_74\n        /* \"@openzeppelin/contracts/access/Ownable.sol\":1094:1107  _checkOwner() */\n      jump\t// in\n    tag_73:\n        /* \"contracts/ChadPepeCrowdsale.sol\":2649:2650  0 */\n      0x00\n        /* \"contracts/ChadPepeCrowdsale.sol\":2639:2646  newRate */\n      dup2\n        /* \"contracts/ChadPepeCrowdsale.sol\":2639:2650  newRate > 0 */\n      gt\n        /* \"contracts/ChadPepeCrowdsale.sol\":2631:2687  require(newRate > 0, \"ChadPepeCrowdsale: new rate is 0\") */\n      tag_76\n      jumpi\n      mload(0x40)\n      0x08c379a000000000000000000000000000000000000000000000000000000000\n      dup2\n      mstore\n      0x04\n      add\n      tag_77\n      swap1\n      tag_78\n      jump\t// in\n    tag_77:\n      mload(0x40)\n      dup1\n      swap2\n      sub\n      swap1\n      revert\n    tag_76:\n        /* \"contracts/ChadPepeCrowdsale.sol\":2704:2711  newRate */\n      dup1\n        /* \"contracts/ChadPepeCrowdsale.sol\":2697:2701  rate */\n      0x03\n        /* \"contracts/ChadPepeCrowdsale.sol\":2697:2711  rate = newRate */\n      dup2\n      swap1\n      sstore\n      pop\n        /* \"contracts/ChadPepeCrowdsale.sol\":2568:2718  function setRate(uint256 newRate) external onlyOwner {... */\n      pop\n      jump\t// out\n        /* \"contracts/ChadPepeCrowdsale.sol\":433:457  uint256 public weiRaised */\n    tag_28:\n      sload(0x04)\n      dup2\n      jump\t// out\n        /* \"@openzeppelin/contracts/access/Ownable.sol\":1831:1932  function renounceOwnership() public virtual onlyOwner {... */\n    tag_32:\n        /* \"@openzeppelin/contracts/access/Ownable.sol\":1094:1107  _checkOwner() */\n      tag_80\n        /* \"@openzeppelin/contracts/access/Ownable.sol\":1094:1105  _checkOwner */\n      tag_74\n        /* \"@openzeppelin/contracts/access/Ownable.sol\":1094:1107  _checkOwner() */\n      jump\t// in\n    tag_80:\n        /* \"@openzeppelin/contracts/access/Ownable.sol\":1895:1925  _transferOwnership(address(0)) */\n      tag_82\n        /* \"@openzeppelin/contracts/access/Ownable.sol\":1922:1923  0 */\n      0x00\n        /* \"@openzeppelin/contracts/access/Ownable.sol\":1895:1913  _transferOwnership */\n      tag_83\n        /* \"@openzeppelin/contracts/access/Ownable.sol\":1895:1925  _transferOwnership(address(0)) */\n      jump\t// in\n    tag_82:\n        /* \"@openzeppelin/contracts/access/Ownable.sol\":1831:1932  function renounceOwnership() public virtual onlyOwner {... */\n      jump\t// out\n        /* \"@openzeppelin/contracts/access/Ownable.sol\":1201:1286  function owner() public view virtual returns (address) {... */\n    tag_35:\n        /* \"@openzeppelin/contracts/access/Ownable.sol\":1247:1254  address */\n      0x00\n        /* \"@openzeppelin/contracts/access/Ownable.sol\":1273:1279  _owner */\n      dup1\n      0x00\n      swap1\n      sload\n      swap1\n      0x0100\n      exp\n      swap1\n      div\n      0xffffffffffffffffffffffffffffffffffffffff\n      and\n        /* \"@openzeppelin/contracts/access/Ownable.sol\":1266:1279  return _owner */\n      swap1\n      pop\n        /* \"@openzeppelin/contracts/access/Ownable.sol\":1201:1286  function owner() public view virtual returns (address) {... */\n      swap1\n      jump\t// out\n        /* \"@openzeppelin/contracts/access/Ownable.sol\":2081:2279  function transferOwnership(address newOwner) public virtual onlyOwner {... */\n    tag_44:\n        /* \"@openzeppelin/contracts/access/Ownable.sol\":1094:1107  _checkOwner() */\n      tag_86\n        /* \"@openzeppelin/contracts/access/Ownable.sol\":1094:1105  _checkOwner */\n      tag_74\n        /* \"@openzeppelin/contracts/access/Ownable.sol\":1094:1107  _checkOwner() */\n      jump\t// in\n    tag_86:\n        /* \"@openzeppelin/contracts/access/Ownable.sol\":2189:2190  0 */\n      0x00\n        /* \"@openzeppelin/contracts/access/Ownable.sol\":2169:2191  newOwner != address(0) */\n      0xffffffffffffffffffffffffffffffffffffffff\n      and\n        /* \"@openzeppelin/contracts/access/Ownable.sol\":2169:2177  newOwner */\n      dup2\n        /* \"@openzeppelin/contracts/access/Ownable.sol\":2169:2191  newOwner != address(0) */\n      0xffffffffffffffffffffffffffffffffffffffff\n      and\n      sub\n        /* \"@openzeppelin/contracts/access/Ownable.sol\":2161:2234  require(newOwner != address(0), \"Ownable: new owner is the zero address\") */\n      tag_88\n      jumpi\n      mload(0x40)\n      0x08c379a000000000000000000000000000000000000000000000000000000000\n      dup2\n      mstore\n      0x04\n      add\n      tag_89\n      swap1\n      tag_90\n      jump\t// in\n    tag_89:\n      mload(0x40)\n      dup1\n      swap2\n      sub\n      swap1\n      revert\n    tag_88:\n        /* \"@openzeppelin/contracts/access/Ownable.sol\":2244:2272  _transferOwnership(newOwner) */\n      tag_91\n        /* \"@openzeppelin/contracts/access/Ownable.sol\":2263:2271  newOwner */\n      dup2\n        /* \"@openzeppelin/contracts/access/Ownable.sol\":2244:2262  _transferOwnership */\n      tag_83\n        /* \"@openzeppelin/contracts/access/Ownable.sol\":2244:2272  _transferOwnership(newOwner) */\n      jump\t// in\n    tag_91:\n        /* \"@openzeppelin/contracts/access/Ownable.sol\":2081:2279  function transferOwnership(address newOwner) public virtual onlyOwner {... */\n      pop\n      jump\t// out\n        /* \"contracts/ChadPepeCrowdsale.sol\":383:402  IERC20 public token */\n    tag_47:\n      0x02\n      0x00\n      swap1\n      sload\n      swap1\n      0x0100\n      exp\n      swap1\n      div\n      0xffffffffffffffffffffffffffffffffffffffff\n      and\n      dup2\n      jump\t// out\n        /* \"@openzeppelin/contracts/security/ReentrancyGuard.sol\":2336:2623  function _nonReentrantBefore() private {... */\n    tag_52:\n        /* \"@openzeppelin/contracts/security/ReentrancyGuard.sol\":1759:1760  2 */\n      0x02\n        /* \"@openzeppelin/contracts/security/ReentrancyGuard.sol\":2468:2475  _status */\n      sload(0x01)\n        /* \"@openzeppelin/contracts/security/ReentrancyGuard.sol\":2468:2487  _status != _ENTERED */\n      sub\n        /* \"@openzeppelin/contracts/security/ReentrancyGuard.sol\":2460:2523  require(_status != _ENTERED, \"ReentrancyGuard: reentrant call\") */\n      tag_93\n      jumpi\n      mload(0x40)\n      0x08c379a000000000000000000000000000000000000000000000000000000000\n      dup2\n      mstore\n      0x04\n      add\n      tag_94\n      swap1\n      tag_95\n      jump\t// in\n    tag_94:\n      mload(0x40)\n      dup1\n      swap2\n      sub\n      swap1\n      revert\n    tag_93:\n        /* \"@openzeppelin/contracts/security/ReentrancyGuard.sol\":1759:1760  2 */\n      0x02\n        /* \"@openzeppelin/contracts/security/ReentrancyGuard.sol\":2598:2605  _status */\n      0x01\n        /* \"@openzeppelin/contracts/security/ReentrancyGuard.sol\":2598:2616  _status = _ENTERED */\n      dup2\n      swap1\n      sstore\n      pop\n        /* \"@openzeppelin/contracts/security/ReentrancyGuard.sol\":2336:2623  function _nonReentrantBefore() private {... */\n      jump\t// out\n        /* \"contracts/ChadPepeCrowdsale.sol\":1464:1723  function _preValidatePurchase(address beneficiary, uint256 weiAmount) internal pure {... */\n    tag_55:\n        /* \"contracts/ChadPepeCrowdsale.sol\":1589:1590  0 */\n      0x00\n        /* \"contracts/ChadPepeCrowdsale.sol\":1566:1591  beneficiary != address(0) */\n      0xffffffffffffffffffffffffffffffffffffffff\n      and\n        /* \"contracts/ChadPepeCrowdsale.sol\":1566:1577  beneficiary */\n      dup3\n        /* \"contracts/ChadPepeCrowdsale.sol\":1566:1591  beneficiary != address(0) */\n      0xffffffffffffffffffffffffffffffffffffffff\n      and\n      sub\n        /* \"contracts/ChadPepeCrowdsale.sol\":1558:1646  require(beneficiary != address(0), \"ChadPepeCrowdsale: beneficiary is the zero address\") */\n      tag_97\n      jumpi\n      mload(0x40)\n      0x08c379a000000000000000000000000000000000000000000000000000000000\n      dup2\n      mstore\n      0x04\n      add\n      tag_98\n      swap1\n      tag_99\n      jump\t// in\n    tag_98:\n      mload(0x40)\n      dup1\n      swap2\n      sub\n      swap1\n      revert\n    tag_97:\n        /* \"contracts/ChadPepeCrowdsale.sol\":1677:1678  0 */\n      0x00\n        /* \"contracts/ChadPepeCrowdsale.sol\":1664:1673  weiAmount */\n      dup2\n        /* \"contracts/ChadPepeCrowdsale.sol\":1664:1678  weiAmount != 0 */\n      sub\n        /* \"contracts/ChadPepeCrowdsale.sol\":1656:1716  require(weiAmount != 0, \"ChadPepeCrowdsale: weiAmount is 0\") */\n      tag_100\n      jumpi\n      mload(0x40)\n      0x08c379a000000000000000000000000000000000000000000000000000000000\n      dup2\n      mstore\n      0x04\n      add\n      tag_101\n      swap1\n      tag_102\n      jump\t// in\n    tag_101:\n      mload(0x40)\n      dup1\n      swap2\n      sub\n      swap1\n      revert\n    tag_100:\n        /* \"contracts/ChadPepeCrowdsale.sol\":1464:1723  function _preValidatePurchase(address beneficiary, uint256 weiAmount) internal pure {... */\n      pop\n      pop\n      jump\t// out\n        /* \"contracts/ChadPepeCrowdsale.sol\":2350:2469  function _getTokenAmount(uint256 weiAmount) internal view returns (uint256) {... */\n    tag_57:\n        /* \"contracts/ChadPepeCrowdsale.sol\":2417:2424  uint256 */\n      0x00\n        /* \"contracts/ChadPepeCrowdsale.sol\":2443:2462  weiAmount.mul(rate) */\n      tag_104\n        /* \"contracts/ChadPepeCrowdsale.sol\":2457:2461  rate */\n      sload(0x03)\n        /* \"contracts/ChadPepeCrowdsale.sol\":2443:2452  weiAmount */\n      dup4\n        /* \"contracts/ChadPepeCrowdsale.sol\":2443:2456  weiAmount.mul */\n      tag_105\n      swap1\n        /* \"contracts/ChadPepeCrowdsale.sol\":2443:2462  weiAmount.mul(rate) */\n      swap2\n      swap1\n      0xffffffff\n      and\n      jump\t// in\n    tag_104:\n        /* \"contracts/ChadPepeCrowdsale.sol\":2436:2462  return weiAmount.mul(rate) */\n      swap1\n      pop\n        /* \"contracts/ChadPepeCrowdsale.sol\":2350:2469  function _getTokenAmount(uint256 weiAmount) internal view returns (uint256) {... */\n      swap2\n      swap1\n      pop\n      jump\t// out\n        /* \"@openzeppelin/contracts/utils/math/SafeMath.sol\":2755:2851  function add(uint256 a, uint256 b) internal pure returns (uint256) {... */\n    tag_59:\n        /* \"@openzeppelin/contracts/utils/math/SafeMath.sol\":2813:2820  uint256 */\n      0x00\n        /* \"@openzeppelin/contracts/utils/math/SafeMath.sol\":2843:2844  b */\n      dup2\n        /* \"@openzeppelin/contracts/utils/math/SafeMath.sol\":2839:2840  a */\n      dup4\n        /* \"@openzeppelin/contracts/utils/math/SafeMath.sol\":2839:2844  a + b */\n      tag_107\n      swap2\n      swap1\n      tag_108\n      jump\t// in\n    tag_107:\n        /* \"@openzeppelin/contracts/utils/math/SafeMath.sol\":2832:2844  return a + b */\n      swap1\n      pop\n        /* \"@openzeppelin/contracts/utils/math/SafeMath.sol\":2755:2851  function add(uint256 a, uint256 b) internal pure returns (uint256) {... */\n      swap3\n      swap2\n      pop\n      pop\n      jump\t// out\n        /* \"contracts/ChadPepeCrowdsale.sol\":2043:2177  function _processPurchase(address beneficiary, uint256 tokenAmount) internal {... */\n    tag_61:\n        /* \"contracts/ChadPepeCrowdsale.sol\":2130:2170  _deliverTokens(beneficiary, tokenAmount) */\n      tag_110\n        /* \"contracts/ChadPepeCrowdsale.sol\":2145:2156  beneficiary */\n      dup3\n        /* \"contracts/ChadPepeCrowdsale.sol\":2158:2169  tokenAmount */\n      dup3\n        /* \"contracts/ChadPepeCrowdsale.sol\":2130:2144  _deliverTokens */\n      tag_111\n        /* \"contracts/ChadPepeCrowdsale.sol\":2130:2170  _deliverTokens(beneficiary, tokenAmount) */\n      jump\t// in\n    tag_110:\n        /* \"contracts/ChadPepeCrowdsale.sol\":2043:2177  function _processPurchase(address beneficiary, uint256 tokenAmount) internal {... */\n      pop\n      pop\n      jump\t// out\n        /* \"contracts/ChadPepeCrowdsale.sol\":2183:2344  function _updatePurchasingState(address beneficiary, uint256 weiAmount) internal {... */\n    tag_65:\n      pop\n      pop\n      jump\t// out\n        /* \"contracts/ChadPepeCrowdsale.sol\":2475:2562  function _forwardFunds() internal {... */\n    tag_67:\n        /* \"contracts/ChadPepeCrowdsale.sol\":2527:2534  owner() */\n      tag_114\n        /* \"contracts/ChadPepeCrowdsale.sol\":2527:2532  owner */\n      tag_35\n        /* \"contracts/ChadPepeCrowdsale.sol\":2527:2534  owner() */\n      jump\t// in\n    tag_114:\n        /* \"contracts/ChadPepeCrowdsale.sol\":2519:2544  payable(owner()).transfer */\n      0xffffffffffffffffffffffffffffffffffffffff\n      and\n        /* \"contracts/ChadPepeCrowdsale.sol\":2519:2555  payable(owner()).transfer(msg.value) */\n      0x08fc\n        /* \"contracts/ChadPepeCrowdsale.sol\":2545:2554  msg.value */\n      callvalue\n        /* \"contracts/ChadPepeCrowdsale.sol\":2519:2555  payable(owner()).transfer(msg.value) */\n      swap1\n      dup2\n      iszero\n      mul\n      swap1\n      mload(0x40)\n      0x00\n      mload(0x40)\n      dup1\n      dup4\n      sub\n      dup2\n      dup6\n      dup9\n      dup9\n      call\n      swap4\n      pop\n      pop\n      pop\n      pop\n      iszero\n      dup1\n      iszero\n      tag_116\n      jumpi\n      returndatasize\n      0x00\n      dup1\n      returndatacopy\n      revert(0x00, returndatasize)\n    tag_116:\n      pop\n        /* \"contracts/ChadPepeCrowdsale.sol\":2475:2562  function _forwardFunds() internal {... */\n      jump\t// out\n        /* \"contracts/ChadPepeCrowdsale.sol\":1729:1886  function _postValidatePurchase(address beneficiary, uint256 weiAmount) internal pure {... */\n    tag_69:\n      pop\n      pop\n      jump\t// out\n        /* \"@openzeppelin/contracts/security/ReentrancyGuard.sol\":2629:2838  function _nonReentrantAfter() private {... */\n    tag_71:\n        /* \"@openzeppelin/contracts/security/ReentrancyGuard.sol\":1716:1717  1 */\n      0x01\n        /* \"@openzeppelin/contracts/security/ReentrancyGuard.sol\":2809:2816  _status */\n      dup1\n        /* \"@openzeppelin/contracts/security/ReentrancyGuard.sol\":2809:2831  _status = _NOT_ENTERED */\n      dup2\n      swap1\n      sstore\n      pop\n        /* \"@openzeppelin/contracts/security/ReentrancyGuard.sol\":2629:2838  function _nonReentrantAfter() private {... */\n      jump\t// out\n        /* \"@openzeppelin/contracts/access/Ownable.sol\":1359:1489  function _checkOwner() internal view virtual {... */\n    tag_74:\n        /* \"@openzeppelin/contracts/access/Ownable.sol\":1433:1445  _msgSender() */\n      tag_120\n        /* \"@openzeppelin/contracts/access/Ownable.sol\":1433:1443  _msgSender */\n      tag_121\n        /* \"@openzeppelin/contracts/access/Ownable.sol\":1433:1445  _msgSender() */\n      jump\t// in\n    tag_120:\n        /* \"@openzeppelin/contracts/access/Ownable.sol\":1422:1445  owner() == _msgSender() */\n      0xffffffffffffffffffffffffffffffffffffffff\n      and\n        /* \"@openzeppelin/contracts/access/Ownable.sol\":1422:1429  owner() */\n      tag_122\n        /* \"@openzeppelin/contracts/access/Ownable.sol\":1422:1427  owner */\n      tag_35\n        /* \"@openzeppelin/contracts/access/Ownable.sol\":1422:1429  owner() */\n      jump\t// in\n    tag_122:\n        /* \"@openzeppelin/contracts/access/Ownable.sol\":1422:1445  owner() == _msgSender() */\n      0xffffffffffffffffffffffffffffffffffffffff\n      and\n      eq\n        /* \"@openzeppelin/contracts/access/Ownable.sol\":1414:1482  require(owner() == _msgSender(), \"Ownable: caller is not the owner\") */\n      tag_123\n      jumpi\n      mload(0x40)\n      0x08c379a000000000000000000000000000000000000000000000000000000000\n      dup2\n      mstore\n      0x04\n      add\n      tag_124\n      swap1\n      tag_125\n      jump\t// in\n    tag_124:\n      mload(0x40)\n      dup1\n      swap2\n      sub\n      swap1\n      revert\n    tag_123:\n        /* \"@openzeppelin/contracts/access/Ownable.sol\":1359:1489  function _checkOwner() internal view virtual {... */\n      jump\t// out\n        /* \"@openzeppelin/contracts/access/Ownable.sol\":2433:2620  function _transferOwnership(address newOwner) internal virtual {... */\n    tag_83:\n        /* \"@openzeppelin/contracts/access/Ownable.sol\":2506:2522  address oldOwner */\n      0x00\n        /* \"@openzeppelin/contracts/access/Ownable.sol\":2525:2531  _owner */\n      dup1\n      0x00\n      swap1\n      sload\n      swap1\n      0x0100\n      exp\n      swap1\n      div\n      0xffffffffffffffffffffffffffffffffffffffff\n      and\n        /* \"@openzeppelin/contracts/access/Ownable.sol\":2506:2531  address oldOwner = _owner */\n      swap1\n      pop\n        /* \"@openzeppelin/contracts/access/Ownable.sol\":2550:2558  newOwner */\n      dup2\n        /* \"@openzeppelin/contracts/access/Ownable.sol\":2541:2547  _owner */\n      0x00\n      dup1\n        /* \"@openzeppelin/contracts/access/Ownable.sol\":2541:2558  _owner = newOwner */\n      0x0100\n      exp\n      dup2\n      sload\n      dup2\n      0xffffffffffffffffffffffffffffffffffffffff\n      mul\n      not\n      and\n      swap1\n      dup4\n      0xffffffffffffffffffffffffffffffffffffffff\n      and\n      mul\n      or\n      swap1\n      sstore\n      pop\n        /* \"@openzeppelin/contracts/access/Ownable.sol\":2604:2612  newOwner */\n      dup2\n        /* \"@openzeppelin/contracts/access/Ownable.sol\":2573:2613  OwnershipTransferred(oldOwner, newOwner) */\n      0xffffffffffffffffffffffffffffffffffffffff\n      and\n        /* \"@openzeppelin/contracts/access/Ownable.sol\":2594:2602  oldOwner */\n      dup2\n        /* \"@openzeppelin/contracts/access/Ownable.sol\":2573:2613  OwnershipTransferred(oldOwner, newOwner) */\n      0xffffffffffffffffffffffffffffffffffffffff\n      and\n      0x8be0079c531659141344cd1fd0a4f28419497f9722a3daafe3b4186f6b6457e0\n      mload(0x40)\n      mload(0x40)\n      dup1\n      swap2\n      sub\n      swap1\n      log3\n        /* \"@openzeppelin/contracts/access/Ownable.sol\":2496:2620  {... */\n      pop\n        /* \"@openzeppelin/contracts/access/Ownable.sol\":2433:2620  function _transferOwnership(address newOwner) internal virtual {... */\n      pop\n      jump\t// out\n        /* \"@openzeppelin/contracts/utils/math/SafeMath.sol\":3465:3561  function mul(uint256 a, uint256 b) internal pure returns (uint256) {... */\n    tag_105:\n        /* \"@openzeppelin/contracts/utils/math/SafeMath.sol\":3523:3530  uint256 */\n      0x00\n        /* \"@openzeppelin/contracts/utils/math/SafeMath.sol\":3553:3554  b */\n      dup2\n        /* \"@openzeppelin/contracts/utils/math/SafeMath.sol\":3549:3550  a */\n      dup4\n        /* \"@openzeppelin/contracts/utils/math/SafeMath.sol\":3549:3554  a * b */\n      tag_128\n      swap2\n      swap1\n      tag_129\n      jump\t// in\n    tag_128:\n        /* \"@openzeppelin/contracts/utils/math/SafeMath.sol\":3542:3554  return a * b */\n      swap1\n      pop\n        /* \"@openzeppelin/contracts/utils/math/SafeMath.sol\":3465:3561  function mul(uint256 a, uint256 b) internal pure returns (uint256) {... */\n      swap3\n      swap2\n      pop\n      pop\n      jump\t// out\n        /* \"contracts/ChadPepeCrowdsale.sol\":1892:2037  function _deliverTokens(address beneficiary, uint256 tokenAmount) internal {... */\n    tag_111:\n        /* \"contracts/ChadPepeCrowdsale.sol\":1977:1982  token */\n      0x02\n      0x00\n      swap1\n      sload\n      swap1\n      0x0100\n      exp\n      swap1\n      div\n      0xffffffffffffffffffffffffffffffffffffffff\n      and\n        /* \"contracts/ChadPepeCrowdsale.sol\":1977:1995  token.transferFrom */\n      0xffffffffffffffffffffffffffffffffffffffff\n      and\n      0x23b872dd\n        /* \"contracts/ChadPepeCrowdsale.sol\":1996:2003  owner() */\n      tag_131\n        /* \"contracts/ChadPepeCrowdsale.sol\":1996:2001  owner */\n      tag_35\n        /* \"contracts/ChadPepeCrowdsale.sol\":1996:2003  owner() */\n      jump\t// in\n    tag_131:\n        /* \"contracts/ChadPepeCrowdsale.sol\":2005:2016  beneficiary */\n      dup5\n        /* \"contracts/ChadPepeCrowdsale.sol\":2018:2029  tokenAmount */\n      dup5\n        /* \"contracts/ChadPepeCrowdsale.sol\":1977:2030  token.transferFrom(owner(), beneficiary, tokenAmount) */\n      mload(0x40)\n      dup5\n      0xffffffff\n      and\n      0xe0\n      shl\n      dup2\n      mstore\n      0x04\n      add\n      tag_132\n      swap4\n      swap3\n      swap2\n      swap1\n      tag_133\n      jump\t// in\n    tag_132:\n      0x20\n      mload(0x40)\n      dup1\n      dup4\n      sub\n      dup2\n      0x00\n      dup8\n      gas\n      call\n      iszero\n      dup1\n      iszero\n      tag_135\n      jumpi\n      returndatasize\n      0x00\n      dup1\n      returndatacopy\n      revert(0x00, returndatasize)\n    tag_135:\n      pop\n      pop\n      pop\n      pop\n      mload(0x40)\n      returndatasize\n      not(0x1f)\n      0x1f\n      dup3\n      add\n      and\n      dup3\n      add\n      dup1\n      0x40\n      mstore\n      pop\n      dup2\n      add\n      swap1\n      tag_136\n      swap2\n      swap1\n      tag_137\n      jump\t// in\n    tag_136:\n      pop\n        /* \"contracts/ChadPepeCrowdsale.sol\":1892:2037  function _deliverTokens(address beneficiary, uint256 tokenAmount) internal {... */\n      pop\n      pop\n      jump\t// out\n        /* \"@openzeppelin/contracts/utils/Context.sol\":640:736  function _msgSender() internal view virtual returns (address) {... */\n    tag_121:\n        /* \"@openzeppelin/contracts/utils/Context.sol\":693:700  address */\n      0x00\n        /* \"@openzeppelin/contracts/utils/Context.sol\":719:729  msg.sender */\n      caller\n        /* \"@openzeppelin/contracts/utils/Context.sol\":712:729  return msg.sender */\n      swap1\n      pop\n        /* \"@openzeppelin/contracts/utils/Context.sol\":640:736  function _msgSender() internal view virtual returns (address) {... */\n      swap1\n      jump\t// out\n        /* \"#utility.yul\":7:84   */\n    tag_139:\n        /* \"#utility.yul\":44:51   */\n      0x00\n        /* \"#utility.yul\":73:78   */\n      dup2\n        /* \"#utility.yul\":62:78   */\n      swap1\n      pop\n        /* \"#utility.yul\":7:84   */\n      swap2\n      swap1\n      pop\n      jump\t// out\n        /* \"#utility.yul\":90:208   */\n    tag_140:\n        /* \"#utility.yul\":177:201   */\n      tag_176\n        /* \"#utility.yul\":195:200   */\n      dup2\n        /* \"#utility.yul\":177:201   */\n      tag_139\n      jump\t// in\n    tag_176:\n        /* \"#utility.yul\":172:175   */\n      dup3\n        /* \"#utility.yul\":165:202   */\n      mstore\n        /* \"#utility.yul\":90:208   */\n      pop\n      pop\n      jump\t// out\n        /* \"#utility.yul\":214:436   */\n    tag_20:\n        /* \"#utility.yul\":307:311   */\n      0x00\n        /* \"#utility.yul\":345:347   */\n      0x20\n        /* \"#utility.yul\":334:343   */\n      dup3\n        /* \"#utility.yul\":330:348   */\n      add\n        /* \"#utility.yul\":322:348   */\n      swap1\n      pop\n        /* \"#utility.yul\":358:429   */\n      tag_178\n        /* \"#utility.yul\":426:427   */\n      0x00\n        /* \"#utility.yul\":415:424   */\n      dup4\n        /* \"#utility.yul\":411:428   */\n      add\n        /* \"#utility.yul\":402:408   */\n      dup5\n        /* \"#utility.yul\":358:429   */\n      tag_140\n      jump\t// in\n    tag_178:\n        /* \"#utility.yul\":214:436   */\n      swap3\n      swap2\n      pop\n      pop\n      jump\t// out\n        /* \"#utility.yul\":523:640   */\n    tag_142:\n        /* \"#utility.yul\":632:633   */\n      0x00\n        /* \"#utility.yul\":629:630   */\n      dup1\n        /* \"#utility.yul\":622:634   */\n      revert\n        /* \"#utility.yul\":769:891   */\n    tag_144:\n        /* \"#utility.yul\":842:866   */\n      tag_183\n        /* \"#utility.yul\":860:865   */\n      dup2\n        /* \"#utility.yul\":842:866   */\n      tag_139\n      jump\t// in\n    tag_183:\n        /* \"#utility.yul\":835:840   */\n      dup2\n        /* \"#utility.yul\":832:867   */\n      eq\n        /* \"#utility.yul\":822:885   */\n      tag_184\n      jumpi\n        /* \"#utility.yul\":881:882   */\n      0x00\n        /* \"#utility.yul\":878:879   */\n      dup1\n        /* \"#utility.yul\":871:883   */\n      revert\n        /* \"#utility.yul\":822:885   */\n    tag_184:\n        /* \"#utility.yul\":769:891   */\n      pop\n      jump\t// out\n        /* \"#utility.yul\":897:1036   */\n    tag_145:\n        /* \"#utility.yul\":943:948   */\n      0x00\n        /* \"#utility.yul\":981:987   */\n      dup2\n        /* \"#utility.yul\":968:988   */\n      calldataload\n        /* \"#utility.yul\":959:988   */\n      swap1\n      pop\n        /* \"#utility.yul\":997:1030   */\n      tag_186\n        /* \"#utility.yul\":1024:1029   */\n      dup2\n        /* \"#utility.yul\":997:1030   */\n      tag_144\n      jump\t// in\n    tag_186:\n        /* \"#utility.yul\":897:1036   */\n      swap3\n      swap2\n      pop\n      pop\n      jump\t// out\n        /* \"#utility.yul\":1042:1371   */\n    tag_24:\n        /* \"#utility.yul\":1101:1107   */\n      0x00\n        /* \"#utility.yul\":1150:1152   */\n      0x20\n        /* \"#utility.yul\":1138:1147   */\n      dup3\n        /* \"#utility.yul\":1129:1136   */\n      dup5\n        /* \"#utility.yul\":1125:1148   */\n      sub\n        /* \"#utility.yul\":1121:1153   */\n      slt\n        /* \"#utility.yul\":1118:1237   */\n      iszero\n      tag_188\n      jumpi\n        /* \"#utility.yul\":1156:1235   */\n      tag_189\n      tag_142\n      jump\t// in\n    tag_189:\n        /* \"#utility.yul\":1118:1237   */\n    tag_188:\n        /* \"#utility.yul\":1276:1277   */\n      0x00\n        /* \"#utility.yul\":1301:1354   */\n      tag_190\n        /* \"#utility.yul\":1346:1353   */\n      dup5\n        /* \"#utility.yul\":1337:1343   */\n      dup3\n        /* \"#utility.yul\":1326:1335   */\n      dup6\n        /* \"#utility.yul\":1322:1344   */\n      add\n        /* \"#utility.yul\":1301:1354   */\n      tag_145\n      jump\t// in\n    tag_190:\n        /* \"#utility.yul\":1291:1354   */\n      swap2\n      pop\n        /* \"#utility.yul\":1247:1364   */\n      pop\n        /* \"#utility.yul\":1042:1371   */\n      swap3\n      swap2\n      pop\n      pop\n      jump\t// out\n        /* \"#utility.yul\":1377:1503   */\n    tag_146:\n        /* \"#utility.yul\":1414:1421   */\n      0x00\n        /* \"#utility.yul\":1454:1496   */\n      0xffffffffffffffffffffffffffffffffffffffff\n        /* \"#utility.yul\":1447:1452   */\n      dup3\n        /* \"#utility.yul\":1443:1497   */\n      and\n        /* \"#utility.yul\":1432:1497   */\n      swap1\n      pop\n        /* \"#utility.yul\":1377:1503   */\n      swap2\n      swap1\n      pop\n      jump\t// out\n        /* \"#utility.yul\":1509:1605   */\n    tag_147:\n        /* \"#utility.yul\":1546:1553   */\n      0x00\n        /* \"#utility.yul\":1575:1599   */\n      tag_193\n        /* \"#utility.yul\":1593:1598   */\n      dup3\n        /* \"#utility.yul\":1575:1599   */\n      tag_146\n      jump\t// in\n    tag_193:\n        /* \"#utility.yul\":1564:1599   */\n      swap1\n      pop\n        /* \"#utility.yul\":1509:1605   */\n      swap2\n      swap1\n      pop\n      jump\t// out\n        /* \"#utility.yul\":1611:1729   */\n    tag_148:\n        /* \"#utility.yul\":1698:1722   */\n      tag_195\n        /* \"#utility.yul\":1716:1721   */\n      dup2\n        /* \"#utility.yul\":1698:1722   */\n      tag_147\n      jump\t// in\n    tag_195:\n        /* \"#utility.yul\":1693:1696   */\n      dup3\n        /* \"#utility.yul\":1686:1723   */\n      mstore\n        /* \"#utility.yul\":1611:1729   */\n      pop\n      pop\n      jump\t// out\n        /* \"#utility.yul\":1735:1957   */\n    tag_37:\n        /* \"#utility.yul\":1828:1832   */\n      0x00\n        /* \"#utility.yul\":1866:1868   */\n      0x20\n        /* \"#utility.yul\":1855:1864   */\n      dup3\n        /* \"#utility.yul\":1851:1869   */\n      add\n        /* \"#utility.yul\":1843:1869   */\n      swap1\n      pop\n        /* \"#utility.yul\":1879:1950   */\n      tag_197\n        /* \"#utility.yul\":1947:1948   */\n      0x00\n        /* \"#utility.yul\":1936:1945   */\n      dup4\n        /* \"#utility.yul\":1932:1949   */\n      add\n        /* \"#utility.yul\":1923:1929   */\n      dup5\n        /* \"#utility.yul\":1879:1950   */\n      tag_148\n      jump\t// in\n    tag_197:\n        /* \"#utility.yul\":1735:1957   */\n      swap3\n      swap2\n      pop\n      pop\n      jump\t// out\n        /* \"#utility.yul\":1963:2085   */\n    tag_149:\n        /* \"#utility.yul\":2036:2060   */\n      tag_199\n        /* \"#utility.yul\":2054:2059   */\n      dup2\n        /* \"#utility.yul\":2036:2060   */\n      tag_147\n      jump\t// in\n    tag_199:\n        /* \"#utility.yul\":2029:2034   */\n      dup2\n        /* \"#utility.yul\":2026:2061   */\n      eq\n        /* \"#utility.yul\":2016:2079   */\n      tag_200\n      jumpi\n        /* \"#utility.yul\":2075:2076   */\n      0x00\n        /* \"#utility.yul\":2072:2073   */\n      dup1\n        /* \"#utility.yul\":2065:2077   */\n      revert\n        /* \"#utility.yul\":2016:2079   */\n    tag_200:\n        /* \"#utility.yul\":1963:2085   */\n      pop\n      jump\t// out\n        /* \"#utility.yul\":2091:2230   */\n    tag_150:\n        /* \"#utility.yul\":2137:2142   */\n      0x00\n        /* \"#utility.yul\":2175:2181   */\n      dup2\n        /* \"#utility.yul\":2162:2182   */\n      calldataload\n        /* \"#utility.yul\":2153:2182   */\n      swap1\n      pop\n        /* \"#utility.yul\":2191:2224   */\n      tag_202\n        /* \"#utility.yul\":2218:2223   */\n      dup2\n        /* \"#utility.yul\":2191:2224   */\n      tag_149\n      jump\t// in\n    tag_202:\n        /* \"#utility.yul\":2091:2230   */\n      swap3\n      swap2\n      pop\n      pop\n      jump\t// out\n        /* \"#utility.yul\":2236:2565   */\n    tag_40:\n        /* \"#utility.yul\":2295:2301   */\n      0x00\n        /* \"#utility.yul\":2344:2346   */\n      0x20\n        /* \"#utility.yul\":2332:2341   */\n      dup3\n        /* \"#utility.yul\":2323:2330   */\n      dup5\n        /* \"#utility.yul\":2319:2342   */\n      sub\n        /* \"#utility.yul\":2315:2347   */\n      slt\n        /* \"#utility.yul\":2312:2431   */\n      iszero\n      tag_204\n      jumpi\n        /* \"#utility.yul\":2350:2429   */\n      tag_205\n      tag_142\n      jump\t// in\n    tag_205:\n        /* \"#utility.yul\":2312:2431   */\n    tag_204:\n        /* \"#utility.yul\":2470:2471   */\n      0x00\n        /* \"#utility.yul\":2495:2548   */\n      tag_206\n        /* \"#utility.yul\":2540:2547   */\n      dup5\n        /* \"#utility.yul\":2531:2537   */\n      dup3\n        /* \"#utility.yul\":2520:2529   */\n      dup6\n        /* \"#utility.yul\":2516:2538   */\n      add\n        /* \"#utility.yul\":2495:2548   */\n      tag_150\n      jump\t// in\n    tag_206:\n        /* \"#utility.yul\":2485:2548   */\n      swap2\n      pop\n        /* \"#utility.yul\":2441:2558   */\n      pop\n        /* \"#utility.yul\":2236:2565   */\n      swap3\n      swap2\n      pop\n      pop\n      jump\t// out\n        /* \"#utility.yul\":2571:2631   */\n    tag_151:\n        /* \"#utility.yul\":2599:2602   */\n      0x00\n        /* \"#utility.yul\":2620:2625   */\n      dup2\n        /* \"#utility.yul\":2613:2625   */\n      swap1\n      pop\n        /* \"#utility.yul\":2571:2631   */\n      swap2\n      swap1\n      pop\n      jump\t// out\n        /* \"#utility.yul\":2637:2779   */\n    tag_152:\n        /* \"#utility.yul\":2687:2696   */\n      0x00\n        /* \"#utility.yul\":2720:2773   */\n      tag_209\n        /* \"#utility.yul\":2738:2772   */\n      tag_210\n        /* \"#utility.yul\":2747:2771   */\n      tag_211\n        /* \"#utility.yul\":2765:2770   */\n      dup5\n        /* \"#utility.yul\":2747:2771   */\n      tag_146\n      jump\t// in\n    tag_211:\n        /* \"#utility.yul\":2738:2772   */\n      tag_151\n      jump\t// in\n    tag_210:\n        /* \"#utility.yul\":2720:2773   */\n      tag_146\n      jump\t// in\n    tag_209:\n        /* \"#utility.yul\":2707:2773   */\n      swap1\n      pop\n        /* \"#utility.yul\":2637:2779   */\n      swap2\n      swap1\n      pop\n      jump\t// out\n        /* \"#utility.yul\":2785:2911   */\n    tag_153:\n        /* \"#utility.yul\":2835:2844   */\n      0x00\n        /* \"#utility.yul\":2868:2905   */\n      tag_213\n        /* \"#utility.yul\":2899:2904   */\n      dup3\n        /* \"#utility.yul\":2868:2905   */\n      tag_152\n      jump\t// in\n    tag_213:\n        /* \"#utility.yul\":2855:2905   */\n      swap1\n      pop\n        /* \"#utility.yul\":2785:2911   */\n      swap2\n      swap1\n      pop\n      jump\t// out\n        /* \"#utility.yul\":2917:3057   */\n    tag_154:\n        /* \"#utility.yul\":2981:2990   */\n      0x00\n        /* \"#utility.yul\":3014:3051   */\n      tag_215\n        /* \"#utility.yul\":3045:3050   */\n      dup3\n        /* \"#utility.yul\":3014:3051   */\n      tag_153\n      jump\t// in\n    tag_215:\n        /* \"#utility.yul\":3001:3051   */\n      swap1\n      pop\n        /* \"#utility.yul\":2917:3057   */\n      swap2\n      swap1\n      pop\n      jump\t// out\n        /* \"#utility.yul\":3063:3222   */\n    tag_155:\n        /* \"#utility.yul\":3164:3215   */\n      tag_217\n        /* \"#utility.yul\":3209:3214   */\n      dup2\n        /* \"#utility.yul\":3164:3215   */\n      tag_154\n      jump\t// in\n    tag_217:\n        /* \"#utility.yul\":3159:3162   */\n      dup3\n        /* \"#utility.yul\":3152:3216   */\n      mstore\n        /* \"#utility.yul\":3063:3222   */\n      pop\n      pop\n      jump\t// out\n        /* \"#utility.yul\":3228:3478   */\n    tag_49:\n        /* \"#utility.yul\":3335:3339   */\n      0x00\n        /* \"#utility.yul\":3373:3375   */\n      0x20\n        /* \"#utility.yul\":3362:3371   */\n      dup3\n        /* \"#utility.yul\":3358:3376   */\n      add\n        /* \"#utility.yul\":3350:3376   */\n      swap1\n      pop\n        /* \"#utility.yul\":3386:3471   */\n      tag_219\n        /* \"#utility.yul\":3468:3469   */\n      0x00\n        /* \"#utility.yul\":3457:3466   */\n      dup4\n        /* \"#utility.yul\":3453:3470   */\n      add\n        /* \"#utility.yul\":3444:3450   */\n      dup5\n        /* \"#utility.yul\":3386:3471   */\n      tag_155\n      jump\t// in\n    tag_219:\n        /* \"#utility.yul\":3228:3478   */\n      swap3\n      swap2\n      pop\n      pop\n      jump\t// out\n        /* \"#utility.yul\":3484:3816   */\n    tag_63:\n        /* \"#utility.yul\":3605:3609   */\n      0x00\n        /* \"#utility.yul\":3643:3645   */\n      0x40\n        /* \"#utility.yul\":3632:3641   */\n      dup3\n        /* \"#utility.yul\":3628:3646   */\n      add\n        /* \"#utility.yul\":3620:3646   */\n      swap1\n      pop\n        /* \"#utility.yul\":3656:3727   */\n      tag_221\n        /* \"#utility.yul\":3724:3725   */\n      0x00\n        /* \"#utility.yul\":3713:3722   */\n      dup4\n        /* \"#utility.yul\":3709:3726   */\n      add\n        /* \"#utility.yul\":3700:3706   */\n      dup6\n        /* \"#utility.yul\":3656:3727   */\n      tag_140\n      jump\t// in\n    tag_221:\n        /* \"#utility.yul\":3737:3809   */\n      tag_222\n        /* \"#utility.yul\":3805:3807   */\n      0x20\n        /* \"#utility.yul\":3794:3803   */\n      dup4\n        /* \"#utility.yul\":3790:3808   */\n      add\n        /* \"#utility.yul\":3781:3787   */\n      dup5\n        /* \"#utility.yul\":3737:3809   */\n      tag_140\n      jump\t// in\n    tag_222:\n        /* \"#utility.yul\":3484:3816   */\n      swap4\n      swap3\n      pop\n      pop\n      pop\n      jump\t// out\n        /* \"#utility.yul\":3822:3991   */\n    tag_156:\n        /* \"#utility.yul\":3906:3917   */\n      0x00\n        /* \"#utility.yul\":3940:3946   */\n      dup3\n        /* \"#utility.yul\":3935:3938   */\n      dup3\n        /* \"#utility.yul\":3928:3947   */\n      mstore\n        /* \"#utility.yul\":3980:3984   */\n      0x20\n        /* \"#utility.yul\":3975:3978   */\n      dup3\n        /* \"#utility.yul\":3971:3985   */\n      add\n        /* \"#utility.yul\":3956:3985   */\n      swap1\n      pop\n        /* \"#utility.yul\":3822:3991   */\n      swap3\n      swap2\n      pop\n      pop\n      jump\t// out\n        /* \"#utility.yul\":3997:4179   */\n    tag_157:\n        /* \"#utility.yul\":4137:4171   */\n      0x436861645065706543726f776473616c653a206e657720726174652069732030\n        /* \"#utility.yul\":4133:4134   */\n      0x00\n        /* \"#utility.yul\":4125:4131   */\n      dup3\n        /* \"#utility.yul\":4121:4135   */\n      add\n        /* \"#utility.yul\":4114:4172   */\n      mstore\n        /* \"#utility.yul\":3997:4179   */\n      pop\n      jump\t// out\n        /* \"#utility.yul\":4185:4551   */\n    tag_158:\n        /* \"#utility.yul\":4327:4330   */\n      0x00\n        /* \"#utility.yul\":4348:4415   */\n      tag_226\n        /* \"#utility.yul\":4412:4414   */\n      0x20\n        /* \"#utility.yul\":4407:4410   */\n      dup4\n        /* \"#utility.yul\":4348:4415   */\n      tag_156\n      jump\t// in\n    tag_226:\n        /* \"#utility.yul\":4341:4415   */\n      swap2\n      pop\n        /* \"#utility.yul\":4424:4517   */\n      tag_227\n        /* \"#utility.yul\":4513:4516   */\n      dup3\n        /* \"#utility.yul\":4424:4517   */\n      tag_157\n      jump\t// in\n    tag_227:\n        /* \"#utility.yul\":4542:4544   */\n      0x20\n        /* \"#utility.yul\":4537:4540   */\n      dup3\n        /* \"#utility.yul\":4533:4545   */\n      add\n        /* \"#utility.yul\":4526:4545   */\n      swap1\n      pop\n        /* \"#utility.yul\":4185:4551   */\n      swap2\n      swap1\n      pop\n      jump\t// out\n        /* \"#utility.yul\":4557:4976   */\n    tag_78:\n        /* \"#utility.yul\":4723:4727   */\n      0x00\n        /* \"#utility.yul\":4761:4763   */\n      0x20\n        /* \"#utility.yul\":4750:4759   */\n      dup3\n        /* \"#utility.yul\":4746:4764   */\n      add\n        /* \"#utility.yul\":4738:4764   */\n      swap1\n      pop\n        /* \"#utility.yul\":4810:4819   */\n      dup2\n        /* \"#utility.yul\":4804:4808   */\n      dup2\n        /* \"#utility.yul\":4800:4820   */\n      sub\n        /* \"#utility.yul\":4796:4797   */\n      0x00\n        /* \"#utility.yul\":4785:4794   */\n      dup4\n        /* \"#utility.yul\":4781:4798   */\n      add\n        /* \"#utility.yul\":4774:4821   */\n      mstore\n        /* \"#utility.yul\":4838:4969   */\n      tag_229\n        /* \"#utility.yul\":4964:4968   */\n      dup2\n        /* \"#utility.yul\":4838:4969   */\n      tag_158\n      jump\t// in\n    tag_229:\n        /* \"#utility.yul\":4830:4969   */\n      swap1\n      pop\n        /* \"#utility.yul\":4557:4976   */\n      swap2\n      swap1\n      pop\n      jump\t// out\n        /* \"#utility.yul\":4982:5207   */\n    tag_159:\n        /* \"#utility.yul\":5122:5156   */\n      0x4f776e61626c653a206e6577206f776e657220697320746865207a65726f2061\n        /* \"#utility.yul\":5118:5119   */\n      0x00\n        /* \"#utility.yul\":5110:5116   */\n      dup3\n        /* \"#utility.yul\":5106:5120   */\n      add\n        /* \"#utility.yul\":5099:5157   */\n      mstore\n        /* \"#utility.yul\":5191:5199   */\n      0x6464726573730000000000000000000000000000000000000000000000000000\n        /* \"#utility.yul\":5186:5188   */\n      0x20\n        /* \"#utility.yul\":5178:5184   */\n      dup3\n        /* \"#utility.yul\":5174:5189   */\n      add\n        /* \"#utility.yul\":5167:5200   */\n      mstore\n        /* \"#utility.yul\":4982:5207   */\n      pop\n      jump\t// out\n        /* \"#utility.yul\":5213:5579   */\n    tag_160:\n        /* \"#utility.yul\":5355:5358   */\n      0x00\n        /* \"#utility.yul\":5376:5443   */\n      tag_232\n        /* \"#utility.yul\":5440:5442   */\n      0x26\n        /* \"#utility.yul\":5435:5438   */\n      dup4\n        /* \"#utility.yul\":5376:5443   */\n      tag_156\n      jump\t// in\n    tag_232:\n        /* \"#utility.yul\":5369:5443   */\n      swap2\n      pop\n        /* \"#utility.yul\":5452:5545   */\n      tag_233\n        /* \"#utility.yul\":5541:5544   */\n      dup3\n        /* \"#utility.yul\":5452:5545   */\n      tag_159\n      jump\t// in\n    tag_233:\n        /* \"#utility.yul\":5570:5572   */\n      0x40\n        /* \"#utility.yul\":5565:5568   */\n      dup3\n        /* \"#utility.yul\":5561:5573   */\n      add\n        /* \"#utility.yul\":5554:5573   */\n      swap1\n      pop\n        /* \"#utility.yul\":5213:5579   */\n      swap2\n      swap1\n      pop\n      jump\t// out\n        /* \"#utility.yul\":5585:6004   */\n    tag_90:\n        /* \"#utility.yul\":5751:5755   */\n      0x00\n        /* \"#utility.yul\":5789:5791   */\n      0x20\n        /* \"#utility.yul\":5778:5787   */\n      dup3\n        /* \"#utility.yul\":5774:5792   */\n      add\n        /* \"#utility.yul\":5766:5792   */\n      swap1\n      pop\n        /* \"#utility.yul\":5838:5847   */\n      dup2\n        /* \"#utility.yul\":5832:5836   */\n      dup2\n        /* \"#utility.yul\":5828:5848   */\n      sub\n        /* \"#utility.yul\":5824:5825   */\n      0x00\n        /* \"#utility.yul\":5813:5822   */\n      dup4\n        /* \"#utility.yul\":5809:5826   */\n      add\n        /* \"#utility.yul\":5802:5849   */\n      mstore\n        /* \"#utility.yul\":5866:5997   */\n      tag_235\n        /* \"#utility.yul\":5992:5996   */\n      dup2\n        /* \"#utility.yul\":5866:5997   */\n      tag_160\n      jump\t// in\n    tag_235:\n        /* \"#utility.yul\":5858:5997   */\n      swap1\n      pop\n        /* \"#utility.yul\":5585:6004   */\n      swap2\n      swap1\n      pop\n      jump\t// out\n        /* \"#utility.yul\":6010:6191   */\n    tag_161:\n        /* \"#utility.yul\":6150:6183   */\n      0x5265656e7472616e637947756172643a207265656e7472616e742063616c6c00\n        /* \"#utility.yul\":6146:6147   */\n      0x00\n        /* \"#utility.yul\":6138:6144   */\n      dup3\n        /* \"#utility.yul\":6134:6148   */\n      add\n        /* \"#utility.yul\":6127:6184   */\n      mstore\n        /* \"#utility.yul\":6010:6191   */\n      pop\n      jump\t// out\n        /* \"#utility.yul\":6197:6563   */\n    tag_162:\n        /* \"#utility.yul\":6339:6342   */\n      0x00\n        /* \"#utility.yul\":6360:6427   */\n      tag_238\n        /* \"#utility.yul\":6424:6426   */\n      0x1f\n        /* \"#utility.yul\":6419:6422   */\n      dup4\n        /* \"#utility.yul\":6360:6427   */\n      tag_156\n      jump\t// in\n    tag_238:\n        /* \"#utility.yul\":6353:6427   */\n      swap2\n      pop\n        /* \"#utility.yul\":6436:6529   */\n      tag_239\n        /* \"#utility.yul\":6525:6528   */\n      dup3\n        /* \"#utility.yul\":6436:6529   */\n      tag_161\n      jump\t// in\n    tag_239:\n        /* \"#utility.yul\":6554:6556   */\n      0x20\n        /* \"#utility.yul\":6549:6552   */\n      dup3\n        /* \"#utility.yul\":6545:6557   */\n      add\n        /* \"#utility.yul\":6538:6557   */\n      swap1\n      pop\n        /* \"#utility.yul\":6197:6563   */\n      swap2\n      swap1\n      pop\n      jump\t// out\n        /* \"#utility.yul\":6569:6988   */\n    tag_95:\n        /* \"#utility.yul\":6735:6739   */\n      0x00\n        /* \"#utility.yul\":6773:6775   */\n      0x20\n        /* \"#utility.yul\":6762:6771   */\n      dup3\n        /* \"#utility.yul\":6758:6776   */\n      add\n        /* \"#utility.yul\":6750:6776   */\n      swap1\n      pop\n        /* \"#utility.yul\":6822:6831   */\n      dup2\n        /* \"#utility.yul\":6816:6820   */\n      dup2\n        /* \"#utility.yul\":6812:6832   */\n      sub\n        /* \"#utility.yul\":6808:6809   */\n      0x00\n        /* \"#utility.yul\":6797:6806   */\n      dup4\n        /* \"#utility.yul\":6793:6810   */\n      add\n        /* \"#utility.yul\":6786:6833   */\n      mstore\n        /* \"#utility.yul\":6850:6981   */\n      tag_241\n        /* \"#utility.yul\":6976:6980   */\n      dup2\n        /* \"#utility.yul\":6850:6981   */\n      tag_162\n      jump\t// in\n    tag_241:\n        /* \"#utility.yul\":6842:6981   */\n      swap1\n      pop\n        /* \"#utility.yul\":6569:6988   */\n      swap2\n      swap1\n      pop\n      jump\t// out\n        /* \"#utility.yul\":6994:7231   */\n    tag_163:\n        /* \"#utility.yul\":7134:7168   */\n      0x436861645065706543726f776473616c653a2062656e65666963696172792069\n        /* \"#utility.yul\":7130:7131   */\n      0x00\n        /* \"#utility.yul\":7122:7128   */\n      dup3\n        /* \"#utility.yul\":7118:7132   */\n      add\n        /* \"#utility.yul\":7111:7169   */\n      mstore\n        /* \"#utility.yul\":7203:7223   */\n      0x7320746865207a65726f20616464726573730000000000000000000000000000\n        /* \"#utility.yul\":7198:7200   */\n      0x20\n        /* \"#utility.yul\":7190:7196   */\n      dup3\n        /* \"#utility.yul\":7186:7201   */\n      add\n        /* \"#utility.yul\":7179:7224   */\n      mstore\n        /* \"#utility.yul\":6994:7231   */\n      pop\n      jump\t// out\n        /* \"#utility.yul\":7237:7603   */\n    tag_164:\n        /* \"#utility.yul\":7379:7382   */\n      0x00\n        /* \"#utility.yul\":7400:7467   */\n      tag_244\n        /* \"#utility.yul\":7464:7466   */\n      0x32\n        /* \"#utility.yul\":7459:7462   */\n      dup4\n        /* \"#utility.yul\":7400:7467   */\n      tag_156\n      jump\t// in\n    tag_244:\n        /* \"#utility.yul\":7393:7467   */\n      swap2\n      pop\n        /* \"#utility.yul\":7476:7569   */\n      tag_245\n        /* \"#utility.yul\":7565:7568   */\n      dup3\n        /* \"#utility.yul\":7476:7569   */\n      tag_163\n      jump\t// in\n    tag_245:\n        /* \"#utility.yul\":7594:7596   */\n      0x40\n        /* \"#utility.yul\":7589:7592   */\n      dup3\n        /* \"#utility.yul\":7585:7597   */\n      add\n        /* \"#utility.yul\":7578:7597   */\n      swap1\n      pop\n        /* \"#utility.yul\":7237:7603   */\n      swap2\n      swap1\n      pop\n      jump\t// out\n        /* \"#utility.yul\":7609:8028   */\n    tag_99:\n        /* \"#utility.yul\":7775:7779   */\n      0x00\n        /* \"#utility.yul\":7813:7815   */\n      0x20\n        /* \"#utility.yul\":7802:7811   */\n      dup3\n        /* \"#utility.yul\":7798:7816   */\n      add\n        /* \"#utility.yul\":7790:7816   */\n      swap1\n      pop\n        /* \"#utility.yul\":7862:7871   */\n      dup2\n        /* \"#utility.yul\":7856:7860   */\n      dup2\n        /* \"#utility.yul\":7852:7872   */\n      sub\n        /* \"#utility.yul\":7848:7849   */\n      0x00\n        /* \"#utility.yul\":7837:7846   */\n      dup4\n        /* \"#utility.yul\":7833:7850   */\n      add\n        /* \"#utility.yul\":7826:7873   */\n      mstore\n        /* \"#utility.yul\":7890:8021   */\n      tag_247\n        /* \"#utility.yul\":8016:8020   */\n      dup2\n        /* \"#utility.yul\":7890:8021   */\n      tag_164\n      jump\t// in\n    tag_247:\n        /* \"#utility.yul\":7882:8021   */\n      swap1\n      pop\n        /* \"#utility.yul\":7609:8028   */\n      swap2\n      swap1\n      pop\n      jump\t// out\n        /* \"#utility.yul\":8034:8254   */\n    tag_165:\n        /* \"#utility.yul\":8174:8208   */\n      0x436861645065706543726f776473616c653a20776569416d6f756e7420697320\n        /* \"#utility.yul\":8170:8171   */\n      0x00\n        /* \"#utility.yul\":8162:8168   */\n      dup3\n        /* \"#utility.yul\":8158:8172   */\n      add\n        /* \"#utility.yul\":8151:8209   */\n      mstore\n        /* \"#utility.yul\":8243:8246   */\n      0x3000000000000000000000000000000000000000000000000000000000000000\n        /* \"#utility.yul\":8238:8240   */\n      0x20\n        /* \"#utility.yul\":8230:8236   */\n      dup3\n        /* \"#utility.yul\":8226:8241   */\n      add\n        /* \"#utility.yul\":8219:8247   */\n      mstore\n        /* \"#utility.yul\":8034:8254   */\n      pop\n      jump\t// out\n        /* \"#utility.yul\":8260:8626   */\n    tag_166:\n        /* \"#utility.yul\":8402:8405   */\n      0x00\n        /* \"#utility.yul\":8423:8490   */\n      tag_250\n        /* \"#utility.yul\":8487:8489   */\n      0x21\n        /* \"#utility.yul\":8482:8485   */\n      dup4\n        /* \"#utility.yul\":8423:8490   */\n      tag_156\n      jump\t// in\n    tag_250:\n        /* \"#utility.yul\":8416:8490   */\n      swap2\n      pop\n        /* \"#utility.yul\":8499:8592   */\n      tag_251\n        /* \"#utility.yul\":8588:8591   */\n      dup3\n        /* \"#utility.yul\":8499:8592   */\n      tag_165\n      jump\t// in\n    tag_251:\n        /* \"#utility.yul\":8617:8619   */\n      0x40\n        /* \"#utility.yul\":8612:8615   */\n      dup3\n        /* \"#utility.yul\":8608:8620   */\n      add\n        /* \"#utility.yul\":8601:8620   */\n      swap1\n      pop\n        /* \"#utility.yul\":8260:8626   */\n      swap2\n      swap1\n      pop\n      jump\t// out\n        /* \"#utility.yul\":8632:9051   */\n    tag_102:\n        /* \"#utility.yul\":8798:8802   */\n      0x00\n        /* \"#utility.yul\":8836:8838   */\n      0x20\n        /* \"#utility.yul\":8825:8834   */\n      dup3\n        /* \"#utility.yul\":8821:8839   */\n      add\n        /* \"#utility.yul\":8813:8839   */\n      swap1\n      pop\n        /* \"#utility.yul\":8885:8894   */\n      dup2\n        /* \"#utility.yul\":8879:8883   */\n      dup2\n        /* \"#utility.yul\":8875:8895   */\n      sub\n        /* \"#utility.yul\":8871:8872   */\n      0x00\n        /* \"#utility.yul\":8860:8869   */\n      dup4\n        /* \"#utility.yul\":8856:8873   */\n      add\n        /* \"#utility.yul\":8849:8896   */\n      mstore\n        /* \"#utility.yul\":8913:9044   */\n      tag_253\n        /* \"#utility.yul\":9039:9043   */\n      dup2\n        /* \"#utility.yul\":8913:9044   */\n      tag_166\n      jump\t// in\n    tag_253:\n        /* \"#utility.yul\":8905:9044   */\n      swap1\n      pop\n        /* \"#utility.yul\":8632:9051   */\n      swap2\n      swap1\n      pop\n      jump\t// out\n        /* \"#utility.yul\":9057:9237   */\n    tag_167:\n        /* \"#utility.yul\":9105:9182   */\n      0x4e487b7100000000000000000000000000000000000000000000000000000000\n        /* \"#utility.yul\":9102:9103   */\n      0x00\n        /* \"#utility.yul\":9095:9183   */\n      mstore\n        /* \"#utility.yul\":9202:9206   */\n      0x11\n        /* \"#utility.yul\":9199:9200   */\n      0x04\n        /* \"#utility.yul\":9192:9207   */\n      mstore\n        /* \"#utility.yul\":9226:9230   */\n      0x24\n        /* \"#utility.yul\":9223:9224   */\n      0x00\n        /* \"#utility.yul\":9216:9231   */\n      revert\n        /* \"#utility.yul\":9243:9434   */\n    tag_108:\n        /* \"#utility.yul\":9283:9286   */\n      0x00\n        /* \"#utility.yul\":9302:9322   */\n      tag_256\n        /* \"#utility.yul\":9320:9321   */\n      dup3\n        /* \"#utility.yul\":9302:9322   */\n      tag_139\n      jump\t// in\n    tag_256:\n        /* \"#utility.yul\":9297:9322   */\n      swap2\n      pop\n        /* \"#utility.yul\":9336:9356   */\n      tag_257\n        /* \"#utility.yul\":9354:9355   */\n      dup4\n        /* \"#utility.yul\":9336:9356   */\n      tag_139\n      jump\t// in\n    tag_257:\n        /* \"#utility.yul\":9331:9356   */\n      swap3\n      pop\n        /* \"#utility.yul\":9379:9380   */\n      dup3\n        /* \"#utility.yul\":9376:9377   */\n      dup3\n        /* \"#utility.yul\":9372:9381   */\n      add\n        /* \"#utility.yul\":9365:9381   */\n      swap1\n      pop\n        /* \"#utility.yul\":9400:9403   */\n      dup1\n        /* \"#utility.yul\":9397:9398   */\n      dup3\n        /* \"#utility.yul\":9394:9404   */\n      gt\n        /* \"#utility.yul\":9391:9427   */\n      iszero\n      tag_258\n      jumpi\n        /* \"#utility.yul\":9407:9425   */\n      tag_259\n      tag_167\n      jump\t// in\n    tag_259:\n        /* \"#utility.yul\":9391:9427   */\n    tag_258:\n        /* \"#utility.yul\":9243:9434   */\n      swap3\n      swap2\n      pop\n      pop\n      jump\t// out\n        /* \"#utility.yul\":9440:9622   */\n    tag_168:\n        /* \"#utility.yul\":9580:9614   */\n      0x4f776e61626c653a2063616c6c6572206973206e6f7420746865206f776e6572\n        /* \"#utility.yul\":9576:9577   */\n      0x00\n        /* \"#utility.yul\":9568:9574   */\n      dup3\n        /* \"#utility.yul\":9564:9578   */\n      add\n        /* \"#utility.yul\":9557:9615   */\n      mstore\n        /* \"#utility.yul\":9440:9622   */\n      pop\n      jump\t// out\n        /* \"#utility.yul\":9628:9994   */\n    tag_169:\n        /* \"#utility.yul\":9770:9773   */\n      0x00\n        /* \"#utility.yul\":9791:9858   */\n      tag_262\n        /* \"#utility.yul\":9855:9857   */\n      0x20\n        /* \"#utility.yul\":9850:9853   */\n      dup4\n        /* \"#utility.yul\":9791:9858   */\n      tag_156\n      jump\t// in\n    tag_262:\n        /* \"#utility.yul\":9784:9858   */\n      swap2\n      pop\n        /* \"#utility.yul\":9867:9960   */\n      tag_263\n        /* \"#utility.yul\":9956:9959   */\n      dup3\n        /* \"#utility.yul\":9867:9960   */\n      tag_168\n      jump\t// in\n    tag_263:\n        /* \"#utility.yul\":9985:9987   */\n      0x20\n        /* \"#utility.yul\":9980:9983   */\n      dup3\n        /* \"#utility.yul\":9976:9988   */\n      add\n        /* \"#utility.yul\":9969:9988   */\n      swap1\n      pop\n        /* \"#utility.yul\":9628:9994   */\n      swap2\n      swap1\n      pop\n      jump\t// out\n        /* \"#utility.yul\":10000:10419   */\n    tag_125:\n        /* \"#utility.yul\":10166:10170   */\n      0x00\n        /* \"#utility.yul\":10204:10206   */\n      0x20\n        /* \"#utility.yul\":10193:10202   */\n      dup3\n        /* \"#utility.yul\":10189:10207   */\n      add\n        /* \"#utility.yul\":10181:10207   */\n      swap1\n      pop\n        /* \"#utility.yul\":10253:10262   */\n      dup2\n        /* \"#utility.yul\":10247:10251   */\n      dup2\n        /* \"#utility.yul\":10243:10263   */\n      sub\n        /* \"#utility.yul\":10239:10240   */\n      0x00\n        /* \"#utility.yul\":10228:10237   */\n      dup4\n        /* \"#utility.yul\":10224:10241   */\n      add\n        /* \"#utility.yul\":10217:10264   */\n      mstore\n        /* \"#utility.yul\":10281:10412   */\n      tag_265\n        /* \"#utility.yul\":10407:10411   */\n      dup2\n        /* \"#utility.yul\":10281:10412   */\n      tag_169\n      jump\t// in\n    tag_265:\n        /* \"#utility.yul\":10273:10412   */\n      swap1\n      pop\n        /* \"#utility.yul\":10000:10419   */\n      swap2\n      swap1\n      pop\n      jump\t// out\n        /* \"#utility.yul\":10425:10835   */\n    tag_129:\n        /* \"#utility.yul\":10465:10472   */\n      0x00\n        /* \"#utility.yul\":10488:10508   */\n      tag_267\n        /* \"#utility.yul\":10506:10507   */\n      dup3\n        /* \"#utility.yul\":10488:10508   */\n      tag_139\n      jump\t// in\n    tag_267:\n        /* \"#utility.yul\":10483:10508   */\n      swap2\n      pop\n        /* \"#utility.yul\":10522:10542   */\n      tag_268\n        /* \"#utility.yul\":10540:10541   */\n      dup4\n        /* \"#utility.yul\":10522:10542   */\n      tag_139\n      jump\t// in\n    tag_268:\n        /* \"#utility.yul\":10517:10542   */\n      swap3\n      pop\n        /* \"#utility.yul\":10577:10578   */\n      dup3\n        /* \"#utility.yul\":10574:10575   */\n      dup3\n        /* \"#utility.yul\":10570:10579   */\n      mul\n        /* \"#utility.yul\":10599:10629   */\n      tag_269\n        /* \"#utility.yul\":10617:10628   */\n      dup2\n        /* \"#utility.yul\":10599:10629   */\n      tag_139\n      jump\t// in\n    tag_269:\n        /* \"#utility.yul\":10588:10629   */\n      swap2\n      pop\n        /* \"#utility.yul\":10778:10779   */\n      dup3\n        /* \"#utility.yul\":10769:10776   */\n      dup3\n        /* \"#utility.yul\":10765:10780   */\n      div\n        /* \"#utility.yul\":10762:10763   */\n      dup5\n        /* \"#utility.yul\":10759:10781   */\n      eq\n        /* \"#utility.yul\":10739:10740   */\n      dup4\n        /* \"#utility.yul\":10732:10741   */\n      iszero\n        /* \"#utility.yul\":10712:10795   */\n      or\n        /* \"#utility.yul\":10689:10828   */\n      tag_270\n      jumpi\n        /* \"#utility.yul\":10808:10826   */\n      tag_271\n      tag_167\n      jump\t// in\n    tag_271:\n        /* \"#utility.yul\":10689:10828   */\n    tag_270:\n        /* \"#utility.yul\":10473:10835   */\n      pop\n        /* \"#utility.yul\":10425:10835   */\n      swap3\n      swap2\n      pop\n      pop\n      jump\t// out\n        /* \"#utility.yul\":10841:11283   */\n    tag_133:\n        /* \"#utility.yul\":10990:10994   */\n      0x00\n        /* \"#utility.yul\":11028:11030   */\n      0x60\n        /* \"#utility.yul\":11017:11026   */\n      dup3\n        /* \"#utility.yul\":11013:11031   */\n      add\n        /* \"#utility.yul\":11005:11031   */\n      swap1\n      pop\n        /* \"#utility.yul\":11041:11112   */\n      tag_273\n        /* \"#utility.yul\":11109:11110   */\n      0x00\n        /* \"#utility.yul\":11098:11107   */\n      dup4\n        /* \"#utility.yul\":11094:11111   */\n      add\n        /* \"#utility.yul\":11085:11091   */\n      dup7\n        /* \"#utility.yul\":11041:11112   */\n      tag_148\n      jump\t// in\n    tag_273:\n        /* \"#utility.yul\":11122:11194   */\n      tag_274\n        /* \"#utility.yul\":11190:11192   */\n      0x20\n        /* \"#utility.yul\":11179:11188   */\n      dup4\n        /* \"#utility.yul\":11175:11193   */\n      add\n        /* \"#utility.yul\":11166:11172   */\n      dup6\n        /* \"#utility.yul\":11122:11194   */\n      tag_148\n      jump\t// in\n    tag_274:\n        /* \"#utility.yul\":11204:11276   */\n      tag_275\n        /* \"#utility.yul\":11272:11274   */\n      0x40\n        /* \"#utility.yul\":11261:11270   */\n      dup4\n        /* \"#utility.yul\":11257:11275   */\n      add\n        /* \"#utility.yul\":11248:11254   */\n      dup5\n        /* \"#utility.yul\":11204:11276   */\n      tag_140\n      jump\t// in\n    tag_275:\n        /* \"#utility.yul\":10841:11283   */\n      swap5\n      swap4\n      pop\n      pop\n      pop\n      pop\n      jump\t// out\n        /* \"#utility.yul\":11289:11379   */\n    tag_170:\n        /* \"#utility.yul\":11323:11330   */\n      0x00\n        /* \"#utility.yul\":11366:11371   */\n      dup2\n        /* \"#utility.yul\":11359:11372   */\n      iszero\n        /* \"#utility.yul\":11352:11373   */\n      iszero\n        /* \"#utility.yul\":11341:11373   */\n      swap1\n      pop\n        /* \"#utility.yul\":11289:11379   */\n      swap2\n      swap1\n      pop\n      jump\t// out\n        /* \"#utility.yul\":11385:11501   */\n    tag_171:\n        /* \"#utility.yul\":11455:11476   */\n      tag_278\n        /* \"#utility.yul\":11470:11475   */\n      dup2\n        /* \"#utility.yul\":11455:11476   */\n      tag_170\n      jump\t// in\n    tag_278:\n        /* \"#utility.yul\":11448:11453   */\n      dup2\n        /* \"#utility.yul\":11445:11477   */\n      eq\n        /* \"#utility.yul\":11435:11495   */\n      tag_279\n      jumpi\n        /* \"#utility.yul\":11491:11492   */\n      0x00\n        /* \"#utility.yul\":11488:11489   */\n      dup1\n        /* \"#utility.yul\":11481:11493   */\n      revert\n        /* \"#utility.yul\":11435:11495   */\n    tag_279:\n        /* \"#utility.yul\":11385:11501   */\n      pop\n      jump\t// out\n        /* \"#utility.yul\":11507:11644   */\n    tag_172:\n        /* \"#utility.yul\":11561:11566   */\n      0x00\n        /* \"#utility.yul\":11592:11598   */\n      dup2\n        /* \"#utility.yul\":11586:11599   */\n      mload\n        /* \"#utility.yul\":11577:11599   */\n      swap1\n      pop\n        /* \"#utility.yul\":11608:11638   */\n      tag_281\n        /* \"#utility.yul\":11632:11637   */\n      dup2\n        /* \"#utility.yul\":11608:11638   */\n      tag_171\n      jump\t// in\n    tag_281:\n        /* \"#utility.yul\":11507:11644   */\n      swap3\n      swap2\n      pop\n      pop\n      jump\t// out\n        /* \"#utility.yul\":11650:11995   */\n    tag_137:\n        /* \"#utility.yul\":11717:11723   */\n      0x00\n        /* \"#utility.yul\":11766:11768   */\n      0x20\n        /* \"#utility.yul\":11754:11763   */\n      dup3\n        /* \"#utility.yul\":11745:11752   */\n      dup5\n        /* \"#utility.yul\":11741:11764   */\n      sub\n        /* \"#utility.yul\":11737:11769   */\n      slt\n        /* \"#utility.yul\":11734:11853   */\n      iszero\n      tag_283\n      jumpi\n        /* \"#utility.yul\":11772:11851   */\n      tag_284\n      tag_142\n      jump\t// in\n    tag_284:\n        /* \"#utility.yul\":11734:11853   */\n    tag_283:\n        /* \"#utility.yul\":11892:11893   */\n      0x00\n        /* \"#utility.yul\":11917:11978   */\n      tag_285\n        /* \"#utility.yul\":11970:11977   */\n      dup5\n        /* \"#utility.yul\":11961:11967   */\n      dup3\n        /* \"#utility.yul\":11950:11959   */\n      dup6\n        /* \"#utility.yul\":11946:11968   */\n      add\n        /* \"#utility.yul\":11917:11978   */\n      tag_172\n      jump\t// in\n    tag_285:\n        /* \"#utility.yul\":11907:11978   */\n      swap2\n      pop\n        /* \"#utility.yul\":11863:11988   */\n      pop\n        /* \"#utility.yul\":11650:11995   */\n      swap3\n      swap2\n      pop\n      pop\n      jump\t// out\n\n    auxdata: 0xa2646970667358221220994dc450424dd8e7a7a7079bd3916a079079dc382997286ea236db947e02704864736f6c63430008120033\n}\n",
				"bytecode": {
					"linkReferences": {},
					"object": "60806040523480156200001157600080fd5b5060405162001250380380620012508339818101604052810190620000379190620002d7565b620000576200004b6200016660201b60201c565b6200016e60201b60201c565b6001808190555060008211620000a4576040517f08c379a00000000000000000000000000000000000000000000000000000000081526004016200009b906200037f565b60405180910390fd5b600073ffffffffffffffffffffffffffffffffffffffff168173ffffffffffffffffffffffffffffffffffffffff160362000116576040517f08c379a00000000000000000000000000000000000000000000000000000000081526004016200010d9062000417565b60405180910390fd5b8160038190555080600260006101000a81548173ffffffffffffffffffffffffffffffffffffffff021916908373ffffffffffffffffffffffffffffffffffffffff160217905550505062000439565b600033905090565b60008060009054906101000a900473ffffffffffffffffffffffffffffffffffffffff169050816000806101000a81548173ffffffffffffffffffffffffffffffffffffffff021916908373ffffffffffffffffffffffffffffffffffffffff1602179055508173ffffffffffffffffffffffffffffffffffffffff168173ffffffffffffffffffffffffffffffffffffffff167f8be0079c531659141344cd1fd0a4f28419497f9722a3daafe3b4186f6b6457e060405160405180910390a35050565b600080fd5b6000819050919050565b6200024c8162000237565b81146200025857600080fd5b50565b6000815190506200026c8162000241565b92915050565b600073ffffffffffffffffffffffffffffffffffffffff82169050919050565b60006200029f8262000272565b9050919050565b620002b18162000292565b8114620002bd57600080fd5b50565b600081519050620002d181620002a6565b92915050565b60008060408385031215620002f157620002f062000232565b5b600062000301858286016200025b565b92505060206200031485828601620002c0565b9150509250929050565b600082825260208201905092915050565b7f436861645065706543726f776473616c653a2072617465206973203000000000600082015250565b600062000367601c836200031e565b915062000374826200032f565b602082019050919050565b600060208201905081810360008301526200039a8162000358565b9050919050565b7f436861645065706543726f776473616c653a20746f6b656e206973207468652060008201527f7a65726f20616464726573730000000000000000000000000000000000000000602082015250565b6000620003ff602c836200031e565b91506200040c82620003a1565b604082019050919050565b600060208201905081810360008301526200043281620003f0565b9050919050565b610e0780620004496000396000f3fe60806040526004361061007f5760003560e01c80638da5cb5b1161004e5780638da5cb5b1461012a578063ec8ac4d814610155578063f2fde38b14610171578063fc0c546a1461019a5761008f565b80632c4e722e1461009457806334fcf437146100bf5780634042b66f146100e8578063715018a6146101135761008f565b3661008f5761008d336101c5565b005b600080fd5b3480156100a057600080fd5b506100a961029e565b6040516100b691906107b4565b60405180910390f35b3480156100cb57600080fd5b506100e660048036038101906100e19190610800565b6102a4565b005b3480156100f457600080fd5b506100fd6102f9565b60405161010a91906107b4565b60405180910390f35b34801561011f57600080fd5b506101286102ff565b005b34801561013657600080fd5b5061013f610313565b60405161014c919061086e565b60405180910390f35b61016f600480360381019061016a91906108b5565b6101c5565b005b34801561017d57600080fd5b50610198600480360381019061019391906108b5565b61033c565b005b3480156101a657600080fd5b506101af6103bf565b6040516101bc9190610941565b60405180910390f35b6101cd6103e5565b60003490506101dc8282610434565b60006101e7826104ea565b90506101fe8260045461050890919063ffffffff16565b60048190555061020e838261051e565b8273ffffffffffffffffffffffffffffffffffffffff163373ffffffffffffffffffffffffffffffffffffffff167f6faf93231a456e552dbc9961f58d9713ee4f2e69d15f1975b050ef0911053a7b848460405161026d92919061095c565b60405180910390a361027f838361052c565b610287610530565b6102918383610580565b505061029b610584565b50565b60035481565b6102ac61058d565b600081116102ef576040517f08c379a00000000000000000000000000000000000000000000000000000000081526004016102e6906109e2565b60405180910390fd5b8060038190555050565b60045481565b61030761058d565b610311600061060b565b565b60008060009054906101000a900473ffffffffffffffffffffffffffffffffffffffff16905090565b61034461058d565b600073ffffffffffffffffffffffffffffffffffffffff168173ffffffffffffffffffffffffffffffffffffffff16036103b3576040517f08c379a00000000000000000000000000000000000000000000000000000000081526004016103aa90610a74565b60405180910390fd5b6103bc8161060b565b50565b600260009054906101000a900473ffffffffffffffffffffffffffffffffffffffff1681565b60026001540361042a576040517f08c379a000000000000000000000000000000000000000000000000000000000815260040161042190610ae0565b60405180910390fd5b6002600181905550565b600073ffffffffffffffffffffffffffffffffffffffff168273ffffffffffffffffffffffffffffffffffffffff16036104a3576040517f08c379a000000000000000000000000000000000000000000000000000000000815260040161049a90610b72565b60405180910390fd5b600081036104e6576040517f08c379a00000000000000000000000000000000000000000000000000000000081526004016104dd90610c04565b60405180910390fd5b5050565b6000610501600354836106cf90919063ffffffff16565b9050919050565b600081836105169190610c53565b905092915050565b61052882826106e5565b5050565b5050565b610538610313565b73ffffffffffffffffffffffffffffffffffffffff166108fc349081150290604051600060405180830381858888f1935050505015801561057d573d6000803e3d6000fd5b50565b5050565b60018081905550565b610595610793565b73ffffffffffffffffffffffffffffffffffffffff166105b3610313565b73ffffffffffffffffffffffffffffffffffffffff1614610609576040517f08c379a000000000000000000000000000000000000000000000000000000000815260040161060090610cd3565b60405180910390fd5b565b60008060009054906101000a900473ffffffffffffffffffffffffffffffffffffffff169050816000806101000a81548173ffffffffffffffffffffffffffffffffffffffff021916908373ffffffffffffffffffffffffffffffffffffffff1602179055508173ffffffffffffffffffffffffffffffffffffffff168173ffffffffffffffffffffffffffffffffffffffff167f8be0079c531659141344cd1fd0a4f28419497f9722a3daafe3b4186f6b6457e060405160405180910390a35050565b600081836106dd9190610cf3565b905092915050565b600260009054906101000a900473ffffffffffffffffffffffffffffffffffffffff1673ffffffffffffffffffffffffffffffffffffffff166323b872dd61072b610313565b84846040518463ffffffff1660e01b815260040161074b93929190610d35565b6020604051808303816000875af115801561076a573d6000803e3d6000fd5b505050506040513d601f19601f8201168201806040525081019061078e9190610da4565b505050565b600033905090565b6000819050919050565b6107ae8161079b565b82525050565b60006020820190506107c960008301846107a5565b92915050565b600080fd5b6107dd8161079b565b81146107e857600080fd5b50565b6000813590506107fa816107d4565b92915050565b600060208284031215610816576108156107cf565b5b6000610824848285016107eb565b91505092915050565b600073ffffffffffffffffffffffffffffffffffffffff82169050919050565b60006108588261082d565b9050919050565b6108688161084d565b82525050565b6000602082019050610883600083018461085f565b92915050565b6108928161084d565b811461089d57600080fd5b50565b6000813590506108af81610889565b92915050565b6000602082840312156108cb576108ca6107cf565b5b60006108d9848285016108a0565b91505092915050565b6000819050919050565b60006109076109026108fd8461082d565b6108e2565b61082d565b9050919050565b6000610919826108ec565b9050919050565b600061092b8261090e565b9050919050565b61093b81610920565b82525050565b60006020820190506109566000830184610932565b92915050565b600060408201905061097160008301856107a5565b61097e60208301846107a5565b9392505050565b600082825260208201905092915050565b7f436861645065706543726f776473616c653a206e657720726174652069732030600082015250565b60006109cc602083610985565b91506109d782610996565b602082019050919050565b600060208201905081810360008301526109fb816109bf565b9050919050565b7f4f776e61626c653a206e6577206f776e657220697320746865207a65726f206160008201527f6464726573730000000000000000000000000000000000000000000000000000602082015250565b6000610a5e602683610985565b9150610a6982610a02565b604082019050919050565b60006020820190508181036000830152610a8d81610a51565b9050919050565b7f5265656e7472616e637947756172643a207265656e7472616e742063616c6c00600082015250565b6000610aca601f83610985565b9150610ad582610a94565b602082019050919050565b60006020820190508181036000830152610af981610abd565b9050919050565b7f436861645065706543726f776473616c653a2062656e6566696369617279206960008201527f7320746865207a65726f20616464726573730000000000000000000000000000602082015250565b6000610b5c603283610985565b9150610b6782610b00565b604082019050919050565b60006020820190508181036000830152610b8b81610b4f565b9050919050565b7f436861645065706543726f776473616c653a20776569416d6f756e742069732060008201527f3000000000000000000000000000000000000000000000000000000000000000602082015250565b6000610bee602183610985565b9150610bf982610b92565b604082019050919050565b60006020820190508181036000830152610c1d81610be1565b9050919050565b7f4e487b7100000000000000000000000000000000000000000000000000000000600052601160045260246000fd5b6000610c5e8261079b565b9150610c698361079b565b9250828201905080821115610c8157610c80610c24565b5b92915050565b7f4f776e61626c653a2063616c6c6572206973206e6f7420746865206f776e6572600082015250565b6000610cbd602083610985565b9150610cc882610c87565b602082019050919050565b60006020820190508181036000830152610cec81610cb0565b9050919050565b6000610cfe8261079b565b9150610d098361079b565b9250828202610d178161079b565b91508282048414831517610d2e57610d2d610c24565b5b5092915050565b6000606082019050610d4a600083018661085f565b610d57602083018561085f565b610d6460408301846107a5565b949350505050565b60008115159050919050565b610d8181610d6c565b8114610d8c57600080fd5b50565b600081519050610d9e81610d78565b92915050565b600060208284031215610dba57610db96107cf565b5b6000610dc884828501610d8f565b9150509291505056fea2646970667358221220994dc450424dd8e7a7a7079bd3916a079079dc382997286ea236db947e02704864736f6c63430008120033",
					"opcodes": "PUSH1 0x80 PUSH1 0x40 MSTORE CALLVALUE DUP1 ISZERO PUSH3 0x11 JUMPI PUSH1 0x0 DUP1 REVERT JUMPDEST POP PUSH1 0x40 MLOAD PUSH3 0x1250 CODESIZE SUB DUP1 PUSH3 0x1250 DUP4 CODECOPY DUP2 DUP2 ADD PUSH1 0x40 MSTORE DUP2 ADD SWAP1 PUSH3 0x37 SWAP2 SWAP1 PUSH3 0x2D7 JUMP JUMPDEST PUSH3 0x57 PUSH3 0x4B PUSH3 0x166 PUSH1 0x20 SHL PUSH1 0x20 SHR JUMP JUMPDEST PUSH3 0x16E PUSH1 0x20 SHL PUSH1 0x20 SHR JUMP JUMPDEST PUSH1 0x1 DUP1 DUP2 SWAP1 SSTORE POP PUSH1 0x0 DUP3 GT PUSH3 0xA4 JUMPI PUSH1 0x40 MLOAD PUSH32 0x8C379A000000000000000000000000000000000000000000000000000000000 DUP2 MSTORE PUSH1 0x4 ADD PUSH3 0x9B SWAP1 PUSH3 0x37F JUMP JUMPDEST PUSH1 0x40 MLOAD DUP1 SWAP2 SUB SWAP1 REVERT JUMPDEST PUSH1 0x0 PUSH20 0xFFFFFFFFFFFFFFFFFFFFFFFFFFFFFFFFFFFFFFFF AND DUP2 PUSH20 0xFFFFFFFFFFFFFFFFFFFFFFFFFFFFFFFFFFFFFFFF AND SUB PUSH3 0x116 JUMPI PUSH1 0x40 MLOAD PUSH32 0x8C379A000000000000000000000000000000000000000000000000000000000 DUP2 MSTORE PUSH1 0x4 ADD PUSH3 0x10D SWAP1 PUSH3 0x417 JUMP JUMPDEST PUSH1 0x40 MLOAD DUP1 SWAP2 SUB SWAP1 REVERT JUMPDEST DUP2 PUSH1 0x3 DUP2 SWAP1 SSTORE POP DUP1 PUSH1 0x2 PUSH1 0x0 PUSH2 0x100 EXP DUP2 SLOAD DUP2 PUSH20 0xFFFFFFFFFFFFFFFFFFFFFFFFFFFFFFFFFFFFFFFF MUL NOT AND SWAP1 DUP4 PUSH20 0xFFFFFFFFFFFFFFFFFFFFFFFFFFFFFFFFFFFFFFFF AND MUL OR SWAP1 SSTORE POP POP POP PUSH3 0x439 JUMP JUMPDEST PUSH1 0x0 CALLER SWAP1 POP SWAP1 JUMP JUMPDEST PUSH1 0x0 DUP1 PUSH1 0x0 SWAP1 SLOAD SWAP1 PUSH2 0x100 EXP SWAP1 DIV PUSH20 0xFFFFFFFFFFFFFFFFFFFFFFFFFFFFFFFFFFFFFFFF AND SWAP1 POP DUP2 PUSH1 0x0 DUP1 PUSH2 0x100 EXP DUP2 SLOAD DUP2 PUSH20 0xFFFFFFFFFFFFFFFFFFFFFFFFFFFFFFFFFFFFFFFF MUL NOT AND SWAP1 DUP4 PUSH20 0xFFFFFFFFFFFFFFFFFFFFFFFFFFFFFFFFFFFFFFFF AND MUL OR SWAP1 SSTORE POP DUP2 PUSH20 0xFFFFFFFFFFFFFFFFFFFFFFFFFFFFFFFFFFFFFFFF AND DUP2 PUSH20 0xFFFFFFFFFFFFFFFFFFFFFFFFFFFFFFFFFFFFFFFF AND PUSH32 0x8BE0079C531659141344CD1FD0A4F28419497F9722A3DAAFE3B4186F6B6457E0 PUSH1 0x40 MLOAD PUSH1 0x40 MLOAD DUP1 SWAP2 SUB SWAP1 LOG3 POP POP JUMP JUMPDEST PUSH1 0x0 DUP1 REVERT JUMPDEST PUSH1 0x0 DUP2 SWAP1 POP SWAP2 SWAP1 POP JUMP JUMPDEST PUSH3 0x24C DUP2 PUSH3 0x237 JUMP JUMPDEST DUP2 EQ PUSH3 0x258 JUMPI PUSH1 0x0 DUP1 REVERT JUMPDEST POP JUMP JUMPDEST PUSH1 0x0 DUP2 MLOAD SWAP1 POP PUSH3 0x26C DUP2 PUSH3 0x241 JUMP JUMPDEST SWAP3 SWAP2 POP POP JUMP JUMPDEST PUSH1 0x0 PUSH20 0xFFFFFFFFFFFFFFFFFFFFFFFFFFFFFFFFFFFFFFFF DUP3 AND SWAP1 POP SWAP2 SWAP1 POP JUMP JUMPDEST PUSH1 0x0 PUSH3 0x29F DUP3 PUSH3 0x272 JUMP JUMPDEST SWAP1 POP SWAP2 SWAP1 POP JUMP JUMPDEST PUSH3 0x2B1 DUP2 PUSH3 0x292 JUMP JUMPDEST DUP2 EQ PUSH3 0x2BD JUMPI PUSH1 0x0 DUP1 REVERT JUMPDEST POP JUMP JUMPDEST PUSH1 0x0 DUP2 MLOAD SWAP1 POP PUSH3 0x2D1 DUP2 PUSH3 0x2A6 JUMP JUMPDEST SWAP3 SWAP2 POP POP JUMP JUMPDEST PUSH1 0x0 DUP1 PUSH1 0x40 DUP4 DUP6 SUB SLT ISZERO PUSH3 0x2F1 JUMPI PUSH3 0x2F0 PUSH3 0x232 JUMP JUMPDEST JUMPDEST PUSH1 0x0 PUSH3 0x301 DUP6 DUP3 DUP7 ADD PUSH3 0x25B JUMP JUMPDEST SWAP3 POP POP PUSH1 0x20 PUSH3 0x314 DUP6 DUP3 DUP7 ADD PUSH3 0x2C0 JUMP JUMPDEST SWAP2 POP POP SWAP3 POP SWAP3 SWAP1 POP JUMP JUMPDEST PUSH1 0x0 DUP3 DUP3 MSTORE PUSH1 0x20 DUP3 ADD SWAP1 POP SWAP3 SWAP2 POP POP JUMP JUMPDEST PUSH32 0x436861645065706543726F776473616C653A2072617465206973203000000000 PUSH1 0x0 DUP3 ADD MSTORE POP JUMP JUMPDEST PUSH1 0x0 PUSH3 0x367 PUSH1 0x1C DUP4 PUSH3 0x31E JUMP JUMPDEST SWAP2 POP PUSH3 0x374 DUP3 PUSH3 0x32F JUMP JUMPDEST PUSH1 0x20 DUP3 ADD SWAP1 POP SWAP2 SWAP1 POP JUMP JUMPDEST PUSH1 0x0 PUSH1 0x20 DUP3 ADD SWAP1 POP DUP2 DUP2 SUB PUSH1 0x0 DUP4 ADD MSTORE PUSH3 0x39A DUP2 PUSH3 0x358 JUMP JUMPDEST SWAP1 POP SWAP2 SWAP1 POP JUMP JUMPDEST PUSH32 0x436861645065706543726F776473616C653A20746F6B656E2069732074686520 PUSH1 0x0 DUP3 ADD MSTORE PUSH32 0x7A65726F20616464726573730000000000000000000000000000000000000000 PUSH1 0x20 DUP3 ADD MSTORE POP JUMP JUMPDEST PUSH1 0x0 PUSH3 0x3FF PUSH1 0x2C DUP4 PUSH3 0x31E JUMP JUMPDEST SWAP2 POP PUSH3 0x40C DUP3 PUSH3 0x3A1 JUMP JUMPDEST PUSH1 0x40 DUP3 ADD SWAP1 POP SWAP2 SWAP1 POP JUMP JUMPDEST PUSH1 0x0 PUSH1 0x20 DUP3 ADD SWAP1 POP DUP2 DUP2 SUB PUSH1 0x0 DUP4 ADD MSTORE PUSH3 0x432 DUP2 PUSH3 0x3F0 JUMP JUMPDEST SWAP1 POP SWAP2 SWAP1 POP JUMP JUMPDEST PUSH2 0xE07 DUP1 PUSH3 0x449 PUSH1 0x0 CODECOPY PUSH1 0x0 RETURN INVALID PUSH1 0x80 PUSH1 0x40 MSTORE PUSH1 0x4 CALLDATASIZE LT PUSH2 0x7F JUMPI PUSH1 0x0 CALLDATALOAD PUSH1 0xE0 SHR DUP1 PUSH4 0x8DA5CB5B GT PUSH2 0x4E JUMPI DUP1 PUSH4 0x8DA5CB5B EQ PUSH2 0x12A JUMPI DUP1 PUSH4 0xEC8AC4D8 EQ PUSH2 0x155 JUMPI DUP1 PUSH4 0xF2FDE38B EQ PUSH2 0x171 JUMPI DUP1 PUSH4 0xFC0C546A EQ PUSH2 0x19A JUMPI PUSH2 0x8F JUMP JUMPDEST DUP1 PUSH4 0x2C4E722E EQ PUSH2 0x94 JUMPI DUP1 PUSH4 0x34FCF437 EQ PUSH2 0xBF JUMPI DUP1 PUSH4 0x4042B66F EQ PUSH2 0xE8 JUMPI DUP1 PUSH4 0x715018A6 EQ PUSH2 0x113 JUMPI PUSH2 0x8F JUMP JUMPDEST CALLDATASIZE PUSH2 0x8F JUMPI PUSH2 0x8D CALLER PUSH2 0x1C5 JUMP JUMPDEST STOP JUMPDEST PUSH1 0x0 DUP1 REVERT JUMPDEST CALLVALUE DUP1 ISZERO PUSH2 0xA0 JUMPI PUSH1 0x0 DUP1 REVERT JUMPDEST POP PUSH2 0xA9 PUSH2 0x29E JUMP JUMPDEST PUSH1 0x40 MLOAD PUSH2 0xB6 SWAP2 SWAP1 PUSH2 0x7B4 JUMP JUMPDEST PUSH1 0x40 MLOAD DUP1 SWAP2 SUB SWAP1 RETURN JUMPDEST CALLVALUE DUP1 ISZERO PUSH2 0xCB JUMPI PUSH1 0x0 DUP1 REVERT JUMPDEST POP PUSH2 0xE6 PUSH1 0x4 DUP1 CALLDATASIZE SUB DUP2 ADD SWAP1 PUSH2 0xE1 SWAP2 SWAP1 PUSH2 0x800 JUMP JUMPDEST PUSH2 0x2A4 JUMP JUMPDEST STOP JUMPDEST CALLVALUE DUP1 ISZERO PUSH2 0xF4 JUMPI PUSH1 0x0 DUP1 REVERT JUMPDEST POP PUSH2 0xFD PUSH2 0x2F9 JUMP JUMPDEST PUSH1 0x40 MLOAD PUSH2 0x10A SWAP2 SWAP1 PUSH2 0x7B4 JUMP JUMPDEST PUSH1 0x40 MLOAD DUP1 SWAP2 SUB SWAP1 RETURN JUMPDEST CALLVALUE DUP1 ISZERO PUSH2 0x11F JUMPI PUSH1 0x0 DUP1 REVERT JUMPDEST POP PUSH2 0x128 PUSH2 0x2FF JUMP JUMPDEST STOP JUMPDEST CALLVALUE DUP1 ISZERO PUSH2 0x136 JUMPI PUSH1 0x0 DUP1 REVERT JUMPDEST POP PUSH2 0x13F PUSH2 0x313 JUMP JUMPDEST PUSH1 0x40 MLOAD PUSH2 0x14C SWAP2 SWAP1 PUSH2 0x86E JUMP JUMPDEST PUSH1 0x40 MLOAD DUP1 SWAP2 SUB SWAP1 RETURN JUMPDEST PUSH2 0x16F PUSH1 0x4 DUP1 CALLDATASIZE SUB DUP2 ADD SWAP1 PUSH2 0x16A SWAP2 SWAP1 PUSH2 0x8B5 JUMP JUMPDEST PUSH2 0x1C5 JUMP JUMPDEST STOP JUMPDEST CALLVALUE DUP1 ISZERO PUSH2 0x17D JUMPI PUSH1 0x0 DUP1 REVERT JUMPDEST POP PUSH2 0x198 PUSH1 0x4 DUP1 CALLDATASIZE SUB DUP2 ADD SWAP1 PUSH2 0x193 SWAP2 SWAP1 PUSH2 0x8B5 JUMP JUMPDEST PUSH2 0x33C JUMP JUMPDEST STOP JUMPDEST CALLVALUE DUP1 ISZERO PUSH2 0x1A6 JUMPI PUSH1 0x0 DUP1 REVERT JUMPDEST POP PUSH2 0x1AF PUSH2 0x3BF JUMP JUMPDEST PUSH1 0x40 MLOAD PUSH2 0x1BC SWAP2 SWAP1 PUSH2 0x941 JUMP JUMPDEST PUSH1 0x40 MLOAD DUP1 SWAP2 SUB SWAP1 RETURN JUMPDEST PUSH2 0x1CD PUSH2 0x3E5 JUMP JUMPDEST PUSH1 0x0 CALLVALUE SWAP1 POP PUSH2 0x1DC DUP3 DUP3 PUSH2 0x434 JUMP JUMPDEST PUSH1 0x0 PUSH2 0x1E7 DUP3 PUSH2 0x4EA JUMP JUMPDEST SWAP1 POP PUSH2 0x1FE DUP3 PUSH1 0x4 SLOAD PUSH2 0x508 SWAP1 SWAP2 SWAP1 PUSH4 0xFFFFFFFF AND JUMP JUMPDEST PUSH1 0x4 DUP2 SWAP1 SSTORE POP PUSH2 0x20E DUP4 DUP3 PUSH2 0x51E JUMP JUMPDEST DUP3 PUSH20 0xFFFFFFFFFFFFFFFFFFFFFFFFFFFFFFFFFFFFFFFF AND CALLER PUSH20 0xFFFFFFFFFFFFFFFFFFFFFFFFFFFFFFFFFFFFFFFF AND PUSH32 0x6FAF93231A456E552DBC9961F58D9713EE4F2E69D15F1975B050EF0911053A7B DUP5 DUP5 PUSH1 0x40 MLOAD PUSH2 0x26D SWAP3 SWAP2 SWAP1 PUSH2 0x95C JUMP JUMPDEST PUSH1 0x40 MLOAD DUP1 SWAP2 SUB SWAP1 LOG3 PUSH2 0x27F DUP4 DUP4 PUSH2 0x52C JUMP JUMPDEST PUSH2 0x287 PUSH2 0x530 JUMP JUMPDEST PUSH2 0x291 DUP4 DUP4 PUSH2 0x580 JUMP JUMPDEST POP POP PUSH2 0x29B PUSH2 0x584 JUMP JUMPDEST POP JUMP JUMPDEST PUSH1 0x3 SLOAD DUP2 JUMP JUMPDEST PUSH2 0x2AC PUSH2 0x58D JUMP JUMPDEST PUSH1 0x0 DUP2 GT PUSH2 0x2EF JUMPI PUSH1 0x40 MLOAD PUSH32 0x8C379A000000000000000000000000000000000000000000000000000000000 DUP2 MSTORE PUSH1 0x4 ADD PUSH2 0x2E6 SWAP1 PUSH2 0x9E2 JUMP JUMPDEST PUSH1 0x40 MLOAD DUP1 SWAP2 SUB SWAP1 REVERT JUMPDEST DUP1 PUSH1 0x3 DUP2 SWAP1 SSTORE POP POP JUMP JUMPDEST PUSH1 0x4 SLOAD DUP2 JUMP JUMPDEST PUSH2 0x307 PUSH2 0x58D JUMP JUMPDEST PUSH2 0x311 PUSH1 0x0 PUSH2 0x60B JUMP JUMPDEST JUMP JUMPDEST PUSH1 0x0 DUP1 PUSH1 0x0 SWAP1 SLOAD SWAP1 PUSH2 0x100 EXP SWAP1 DIV PUSH20 0xFFFFFFFFFFFFFFFFFFFFFFFFFFFFFFFFFFFFFFFF AND SWAP1 POP SWAP1 JUMP JUMPDEST PUSH2 0x344 PUSH2 0x58D JUMP JUMPDEST PUSH1 0x0 PUSH20 0xFFFFFFFFFFFFFFFFFFFFFFFFFFFFFFFFFFFFFFFF AND DUP2 PUSH20 0xFFFFFFFFFFFFFFFFFFFFFFFFFFFFFFFFFFFFFFFF AND SUB PUSH2 0x3B3 JUMPI PUSH1 0x40 MLOAD PUSH32 0x8C379A000000000000000000000000000000000000000000000000000000000 DUP2 MSTORE PUSH1 0x4 ADD PUSH2 0x3AA SWAP1 PUSH2 0xA74 JUMP JUMPDEST PUSH1 0x40 MLOAD DUP1 SWAP2 SUB SWAP1 REVERT JUMPDEST PUSH2 0x3BC DUP2 PUSH2 0x60B JUMP JUMPDEST POP JUMP JUMPDEST PUSH1 0x2 PUSH1 0x0 SWAP1 SLOAD SWAP1 PUSH2 0x100 EXP SWAP1 DIV PUSH20 0xFFFFFFFFFFFFFFFFFFFFFFFFFFFFFFFFFFFFFFFF AND DUP2 JUMP JUMPDEST PUSH1 0x2 PUSH1 0x1 SLOAD SUB PUSH2 0x42A JUMPI PUSH1 0x40 MLOAD PUSH32 0x8C379A000000000000000000000000000000000000000000000000000000000 DUP2 MSTORE PUSH1 0x4 ADD PUSH2 0x421 SWAP1 PUSH2 0xAE0 JUMP JUMPDEST PUSH1 0x40 MLOAD DUP1 SWAP2 SUB SWAP1 REVERT JUMPDEST PUSH1 0x2 PUSH1 0x1 DUP2 SWAP1 SSTORE POP JUMP JUMPDEST PUSH1 0x0 PUSH20 0xFFFFFFFFFFFFFFFFFFFFFFFFFFFFFFFFFFFFFFFF AND DUP3 PUSH20 0xFFFFFFFFFFFFFFFFFFFFFFFFFFFFFFFFFFFFFFFF AND SUB PUSH2 0x4A3 JUMPI PUSH1 0x40 MLOAD PUSH32 0x8C379A000000000000000000000000000000000000000000000000000000000 DUP2 MSTORE PUSH1 0x4 ADD PUSH2 0x49A SWAP1 PUSH2 0xB72 JUMP JUMPDEST PUSH1 0x40 MLOAD DUP1 SWAP2 SUB SWAP1 REVERT JUMPDEST PUSH1 0x0 DUP2 SUB PUSH2 0x4E6 JUMPI PUSH1 0x40 MLOAD PUSH32 0x8C379A000000000000000000000000000000000000000000000000000000000 DUP2 MSTORE PUSH1 0x4 ADD PUSH2 0x4DD SWAP1 PUSH2 0xC04 JUMP JUMPDEST PUSH1 0x40 MLOAD DUP1 SWAP2 SUB SWAP1 REVERT JUMPDEST POP POP JUMP JUMPDEST PUSH1 0x0 PUSH2 0x501 PUSH1 0x3 SLOAD DUP4 PUSH2 0x6CF SWAP1 SWAP2 SWAP1 PUSH4 0xFFFFFFFF AND JUMP JUMPDEST SWAP1 POP SWAP2 SWAP1 POP JUMP JUMPDEST PUSH1 0x0 DUP2 DUP4 PUSH2 0x516 SWAP2 SWAP1 PUSH2 0xC53 JUMP JUMPDEST SWAP1 POP SWAP3 SWAP2 POP POP JUMP JUMPDEST PUSH2 0x528 DUP3 DUP3 PUSH2 0x6E5 JUMP JUMPDEST POP POP JUMP JUMPDEST POP POP JUMP JUMPDEST PUSH2 0x538 PUSH2 0x313 JUMP JUMPDEST PUSH20 0xFFFFFFFFFFFFFFFFFFFFFFFFFFFFFFFFFFFFFFFF AND PUSH2 0x8FC CALLVALUE SWAP1 DUP2 ISZERO MUL SWAP1 PUSH1 0x40 MLOAD PUSH1 0x0 PUSH1 0x40 MLOAD DUP1 DUP4 SUB DUP2 DUP6 DUP9 DUP9 CALL SWAP4 POP POP POP POP ISZERO DUP1 ISZERO PUSH2 0x57D JUMPI RETURNDATASIZE PUSH1 0x0 DUP1 RETURNDATACOPY RETURNDATASIZE PUSH1 0x0 REVERT JUMPDEST POP JUMP JUMPDEST POP POP JUMP JUMPDEST PUSH1 0x1 DUP1 DUP2 SWAP1 SSTORE POP JUMP JUMPDEST PUSH2 0x595 PUSH2 0x793 JUMP JUMPDEST PUSH20 0xFFFFFFFFFFFFFFFFFFFFFFFFFFFFFFFFFFFFFFFF AND PUSH2 0x5B3 PUSH2 0x313 JUMP JUMPDEST PUSH20 0xFFFFFFFFFFFFFFFFFFFFFFFFFFFFFFFFFFFFFFFF AND EQ PUSH2 0x609 JUMPI PUSH1 0x40 MLOAD PUSH32 0x8C379A000000000000000000000000000000000000000000000000000000000 DUP2 MSTORE PUSH1 0x4 ADD PUSH2 0x600 SWAP1 PUSH2 0xCD3 JUMP JUMPDEST PUSH1 0x40 MLOAD DUP1 SWAP2 SUB SWAP1 REVERT JUMPDEST JUMP JUMPDEST PUSH1 0x0 DUP1 PUSH1 0x0 SWAP1 SLOAD SWAP1 PUSH2 0x100 EXP SWAP1 DIV PUSH20 0xFFFFFFFFFFFFFFFFFFFFFFFFFFFFFFFFFFFFFFFF AND SWAP1 POP DUP2 PUSH1 0x0 DUP1 PUSH2 0x100 EXP DUP2 SLOAD DUP2 PUSH20 0xFFFFFFFFFFFFFFFFFFFFFFFFFFFFFFFFFFFFFFFF MUL NOT AND SWAP1 DUP4 PUSH20 0xFFFFFFFFFFFFFFFFFFFFFFFFFFFFFFFFFFFFFFFF AND MUL OR SWAP1 SSTORE POP DUP2 PUSH20 0xFFFFFFFFFFFFFFFFFFFFFFFFFFFFFFFFFFFFFFFF AND DUP2 PUSH20 0xFFFFFFFFFFFFFFFFFFFFFFFFFFFFFFFFFFFFFFFF AND PUSH32 0x8BE0079C531659141344CD1FD0A4F28419497F9722A3DAAFE3B4186F6B6457E0 PUSH1 0x40 MLOAD PUSH1 0x40 MLOAD DUP1 SWAP2 SUB SWAP1 LOG3 POP POP JUMP JUMPDEST PUSH1 0x0 DUP2 DUP4 PUSH2 0x6DD SWAP2 SWAP1 PUSH2 0xCF3 JUMP JUMPDEST SWAP1 POP SWAP3 SWAP2 POP POP JUMP JUMPDEST PUSH1 0x2 PUSH1 0x0 SWAP1 SLOAD SWAP1 PUSH2 0x100 EXP SWAP1 DIV PUSH20 0xFFFFFFFFFFFFFFFFFFFFFFFFFFFFFFFFFFFFFFFF AND PUSH20 0xFFFFFFFFFFFFFFFFFFFFFFFFFFFFFFFFFFFFFFFF AND PUSH4 0x23B872DD PUSH2 0x72B PUSH2 0x313 JUMP JUMPDEST DUP5 DUP5 PUSH1 0x40 MLOAD DUP5 PUSH4 0xFFFFFFFF AND PUSH1 0xE0 SHL DUP2 MSTORE PUSH1 0x4 ADD PUSH2 0x74B SWAP4 SWAP3 SWAP2 SWAP1 PUSH2 0xD35 JUMP JUMPDEST PUSH1 0x20 PUSH1 0x40 MLOAD DUP1 DUP4 SUB DUP2 PUSH1 0x0 DUP8 GAS CALL ISZERO DUP1 ISZERO PUSH2 0x76A JUMPI RETURNDATASIZE PUSH1 0x0 DUP1 RETURNDATACOPY RETURNDATASIZE PUSH1 0x0 REVERT JUMPDEST POP POP POP POP PUSH1 0x40 MLOAD RETURNDATASIZE PUSH1 0x1F NOT PUSH1 0x1F DUP3 ADD AND DUP3 ADD DUP1 PUSH1 0x40 MSTORE POP DUP2 ADD SWAP1 PUSH2 0x78E SWAP2 SWAP1 PUSH2 0xDA4 JUMP JUMPDEST POP POP POP JUMP JUMPDEST PUSH1 0x0 CALLER SWAP1 POP SWAP1 JUMP JUMPDEST PUSH1 0x0 DUP2 SWAP1 POP SWAP2 SWAP1 POP JUMP JUMPDEST PUSH2 0x7AE DUP2 PUSH2 0x79B JUMP JUMPDEST DUP3 MSTORE POP POP JUMP JUMPDEST PUSH1 0x0 PUSH1 0x20 DUP3 ADD SWAP1 POP PUSH2 0x7C9 PUSH1 0x0 DUP4 ADD DUP5 PUSH2 0x7A5 JUMP JUMPDEST SWAP3 SWAP2 POP POP JUMP JUMPDEST PUSH1 0x0 DUP1 REVERT JUMPDEST PUSH2 0x7DD DUP2 PUSH2 0x79B JUMP JUMPDEST DUP2 EQ PUSH2 0x7E8 JUMPI PUSH1 0x0 DUP1 REVERT JUMPDEST POP JUMP JUMPDEST PUSH1 0x0 DUP2 CALLDATALOAD SWAP1 POP PUSH2 0x7FA DUP2 PUSH2 0x7D4 JUMP JUMPDEST SWAP3 SWAP2 POP POP JUMP JUMPDEST PUSH1 0x0 PUSH1 0x20 DUP3 DUP5 SUB SLT ISZERO PUSH2 0x816 JUMPI PUSH2 0x815 PUSH2 0x7CF JUMP JUMPDEST JUMPDEST PUSH1 0x0 PUSH2 0x824 DUP5 DUP3 DUP6 ADD PUSH2 0x7EB JUMP JUMPDEST SWAP2 POP POP SWAP3 SWAP2 POP POP JUMP JUMPDEST PUSH1 0x0 PUSH20 0xFFFFFFFFFFFFFFFFFFFFFFFFFFFFFFFFFFFFFFFF DUP3 AND SWAP1 POP SWAP2 SWAP1 POP JUMP JUMPDEST PUSH1 0x0 PUSH2 0x858 DUP3 PUSH2 0x82D JUMP JUMPDEST SWAP1 POP SWAP2 SWAP1 POP JUMP JUMPDEST PUSH2 0x868 DUP2 PUSH2 0x84D JUMP JUMPDEST DUP3 MSTORE POP POP JUMP JUMPDEST PUSH1 0x0 PUSH1 0x20 DUP3 ADD SWAP1 POP PUSH2 0x883 PUSH1 0x0 DUP4 ADD DUP5 PUSH2 0x85F JUMP JUMPDEST SWAP3 SWAP2 POP POP JUMP JUMPDEST PUSH2 0x892 DUP2 PUSH2 0x84D JUMP JUMPDEST DUP2 EQ PUSH2 0x89D JUMPI PUSH1 0x0 DUP1 REVERT JUMPDEST POP JUMP JUMPDEST PUSH1 0x0 DUP2 CALLDATALOAD SWAP1 POP PUSH2 0x8AF DUP2 PUSH2 0x889 JUMP JUMPDEST SWAP3 SWAP2 POP POP JUMP JUMPDEST PUSH1 0x0 PUSH1 0x20 DUP3 DUP5 SUB SLT ISZERO PUSH2 0x8CB JUMPI PUSH2 0x8CA PUSH2 0x7CF JUMP JUMPDEST JUMPDEST PUSH1 0x0 PUSH2 0x8D9 DUP5 DUP3 DUP6 ADD PUSH2 0x8A0 JUMP JUMPDEST SWAP2 POP POP SWAP3 SWAP2 POP POP JUMP JUMPDEST PUSH1 0x0 DUP2 SWAP1 POP SWAP2 SWAP1 POP JUMP JUMPDEST PUSH1 0x0 PUSH2 0x907 PUSH2 0x902 PUSH2 0x8FD DUP5 PUSH2 0x82D JUMP JUMPDEST PUSH2 0x8E2 JUMP JUMPDEST PUSH2 0x82D JUMP JUMPDEST SWAP1 POP SWAP2 SWAP1 POP JUMP JUMPDEST PUSH1 0x0 PUSH2 0x919 DUP3 PUSH2 0x8EC JUMP JUMPDEST SWAP1 POP SWAP2 SWAP1 POP JUMP JUMPDEST PUSH1 0x0 PUSH2 0x92B DUP3 PUSH2 0x90E JUMP JUMPDEST SWAP1 POP SWAP2 SWAP1 POP JUMP JUMPDEST PUSH2 0x93B DUP2 PUSH2 0x920 JUMP JUMPDEST DUP3 MSTORE POP POP JUMP JUMPDEST PUSH1 0x0 PUSH1 0x20 DUP3 ADD SWAP1 POP PUSH2 0x956 PUSH1 0x0 DUP4 ADD DUP5 PUSH2 0x932 JUMP JUMPDEST SWAP3 SWAP2 POP POP JUMP JUMPDEST PUSH1 0x0 PUSH1 0x40 DUP3 ADD SWAP1 POP PUSH2 0x971 PUSH1 0x0 DUP4 ADD DUP6 PUSH2 0x7A5 JUMP JUMPDEST PUSH2 0x97E PUSH1 0x20 DUP4 ADD DUP5 PUSH2 0x7A5 JUMP JUMPDEST SWAP4 SWAP3 POP POP POP JUMP JUMPDEST PUSH1 0x0 DUP3 DUP3 MSTORE PUSH1 0x20 DUP3 ADD SWAP1 POP SWAP3 SWAP2 POP POP JUMP JUMPDEST PUSH32 0x436861645065706543726F776473616C653A206E657720726174652069732030 PUSH1 0x0 DUP3 ADD MSTORE POP JUMP JUMPDEST PUSH1 0x0 PUSH2 0x9CC PUSH1 0x20 DUP4 PUSH2 0x985 JUMP JUMPDEST SWAP2 POP PUSH2 0x9D7 DUP3 PUSH2 0x996 JUMP JUMPDEST PUSH1 0x20 DUP3 ADD SWAP1 POP SWAP2 SWAP1 POP JUMP JUMPDEST PUSH1 0x0 PUSH1 0x20 DUP3 ADD SWAP1 POP DUP2 DUP2 SUB PUSH1 0x0 DUP4 ADD MSTORE PUSH2 0x9FB DUP2 PUSH2 0x9BF JUMP JUMPDEST SWAP1 POP SWAP2 SWAP1 POP JUMP JUMPDEST PUSH32 0x4F776E61626C653A206E6577206F776E657220697320746865207A65726F2061 PUSH1 0x0 DUP3 ADD MSTORE PUSH32 0x6464726573730000000000000000000000000000000000000000000000000000 PUSH1 0x20 DUP3 ADD MSTORE POP JUMP JUMPDEST PUSH1 0x0 PUSH2 0xA5E PUSH1 0x26 DUP4 PUSH2 0x985 JUMP JUMPDEST SWAP2 POP PUSH2 0xA69 DUP3 PUSH2 0xA02 JUMP JUMPDEST PUSH1 0x40 DUP3 ADD SWAP1 POP SWAP2 SWAP1 POP JUMP JUMPDEST PUSH1 0x0 PUSH1 0x20 DUP3 ADD SWAP1 POP DUP2 DUP2 SUB PUSH1 0x0 DUP4 ADD MSTORE PUSH2 0xA8D DUP2 PUSH2 0xA51 JUMP JUMPDEST SWAP1 POP SWAP2 SWAP1 POP JUMP JUMPDEST PUSH32 0x5265656E7472616E637947756172643A207265656E7472616E742063616C6C00 PUSH1 0x0 DUP3 ADD MSTORE POP JUMP JUMPDEST PUSH1 0x0 PUSH2 0xACA PUSH1 0x1F DUP4 PUSH2 0x985 JUMP JUMPDEST SWAP2 POP PUSH2 0xAD5 DUP3 PUSH2 0xA94 JUMP JUMPDEST PUSH1 0x20 DUP3 ADD SWAP1 POP SWAP2 SWAP1 POP JUMP JUMPDEST PUSH1 0x0 PUSH1 0x20 DUP3 ADD SWAP1 POP DUP2 DUP2 SUB PUSH1 0x0 DUP4 ADD MSTORE PUSH2 0xAF9 DUP2 PUSH2 0xABD JUMP JUMPDEST SWAP1 POP SWAP2 SWAP1 POP JUMP JUMPDEST PUSH32 0x436861645065706543726F776473616C653A2062656E65666963696172792069 PUSH1 0x0 DUP3 ADD MSTORE PUSH32 0x7320746865207A65726F20616464726573730000000000000000000000000000 PUSH1 0x20 DUP3 ADD MSTORE POP JUMP JUMPDEST PUSH1 0x0 PUSH2 0xB5C PUSH1 0x32 DUP4 PUSH2 0x985 JUMP JUMPDEST SWAP2 POP PUSH2 0xB67 DUP3 PUSH2 0xB00 JUMP JUMPDEST PUSH1 0x40 DUP3 ADD SWAP1 POP SWAP2 SWAP1 POP JUMP JUMPDEST PUSH1 0x0 PUSH1 0x20 DUP3 ADD SWAP1 POP DUP2 DUP2 SUB PUSH1 0x0 DUP4 ADD MSTORE PUSH2 0xB8B DUP2 PUSH2 0xB4F JUMP JUMPDEST SWAP1 POP SWAP2 SWAP1 POP JUMP JUMPDEST PUSH32 0x436861645065706543726F776473616C653A20776569416D6F756E7420697320 PUSH1 0x0 DUP3 ADD MSTORE PUSH32 0x3000000000000000000000000000000000000000000000000000000000000000 PUSH1 0x20 DUP3 ADD MSTORE POP JUMP JUMPDEST PUSH1 0x0 PUSH2 0xBEE PUSH1 0x21 DUP4 PUSH2 0x985 JUMP JUMPDEST SWAP2 POP PUSH2 0xBF9 DUP3 PUSH2 0xB92 JUMP JUMPDEST PUSH1 0x40 DUP3 ADD SWAP1 POP SWAP2 SWAP1 POP JUMP JUMPDEST PUSH1 0x0 PUSH1 0x20 DUP3 ADD SWAP1 POP DUP2 DUP2 SUB PUSH1 0x0 DUP4 ADD MSTORE PUSH2 0xC1D DUP2 PUSH2 0xBE1 JUMP JUMPDEST SWAP1 POP SWAP2 SWAP1 POP JUMP JUMPDEST PUSH32 0x4E487B7100000000000000000000000000000000000000000000000000000000 PUSH1 0x0 MSTORE PUSH1 0x11 PUSH1 0x4 MSTORE PUSH1 0x24 PUSH1 0x0 REVERT JUMPDEST PUSH1 0x0 PUSH2 0xC5E DUP3 PUSH2 0x79B JUMP JUMPDEST SWAP2 POP PUSH2 0xC69 DUP4 PUSH2 0x79B JUMP JUMPDEST SWAP3 POP DUP3 DUP3 ADD SWAP1 POP DUP1 DUP3 GT ISZERO PUSH2 0xC81 JUMPI PUSH2 0xC80 PUSH2 0xC24 JUMP JUMPDEST JUMPDEST SWAP3 SWAP2 POP POP JUMP JUMPDEST PUSH32 0x4F776E61626C653A2063616C6C6572206973206E6F7420746865206F776E6572 PUSH1 0x0 DUP3 ADD MSTORE POP JUMP JUMPDEST PUSH1 0x0 PUSH2 0xCBD PUSH1 0x20 DUP4 PUSH2 0x985 JUMP JUMPDEST SWAP2 POP PUSH2 0xCC8 DUP3 PUSH2 0xC87 JUMP JUMPDEST PUSH1 0x20 DUP3 ADD SWAP1 POP SWAP2 SWAP1 POP JUMP JUMPDEST PUSH1 0x0 PUSH1 0x20 DUP3 ADD SWAP1 POP DUP2 DUP2 SUB PUSH1 0x0 DUP4 ADD MSTORE PUSH2 0xCEC DUP2 PUSH2 0xCB0 JUMP JUMPDEST SWAP1 POP SWAP2 SWAP1 POP JUMP JUMPDEST PUSH1 0x0 PUSH2 0xCFE DUP3 PUSH2 0x79B JUMP JUMPDEST SWAP2 POP PUSH2 0xD09 DUP4 PUSH2 0x79B JUMP JUMPDEST SWAP3 POP DUP3 DUP3 MUL PUSH2 0xD17 DUP2 PUSH2 0x79B JUMP JUMPDEST SWAP2 POP DUP3 DUP3 DIV DUP5 EQ DUP4 ISZERO OR PUSH2 0xD2E JUMPI PUSH2 0xD2D PUSH2 0xC24 JUMP JUMPDEST JUMPDEST POP SWAP3 SWAP2 POP POP JUMP JUMPDEST PUSH1 0x0 PUSH1 0x60 DUP3 ADD SWAP1 POP PUSH2 0xD4A PUSH1 0x0 DUP4 ADD DUP7 PUSH2 0x85F JUMP JUMPDEST PUSH2 0xD57 PUSH1 0x20 DUP4 ADD DUP6 PUSH2 0x85F JUMP JUMPDEST PUSH2 0xD64 PUSH1 0x40 DUP4 ADD DUP5 PUSH2 0x7A5 JUMP JUMPDEST SWAP5 SWAP4 POP POP POP POP JUMP JUMPDEST PUSH1 0x0 DUP2 ISZERO ISZERO SWAP1 POP SWAP2 SWAP1 POP JUMP JUMPDEST PUSH2 0xD81 DUP2 PUSH2 0xD6C JUMP JUMPDEST DUP2 EQ PUSH2 0xD8C JUMPI PUSH1 0x0 DUP1 REVERT JUMPDEST POP JUMP JUMPDEST PUSH1 0x0 DUP2 MLOAD SWAP1 POP PUSH2 0xD9E DUP2 PUSH2 0xD78 JUMP JUMPDEST SWAP3 SWAP2 POP POP JUMP JUMPDEST PUSH1 0x0 PUSH1 0x20 DUP3 DUP5 SUB SLT ISZERO PUSH2 0xDBA JUMPI PUSH2 0xDB9 PUSH2 0x7CF JUMP JUMPDEST JUMPDEST PUSH1 0x0 PUSH2 0xDC8 DUP5 DUP3 DUP6 ADD PUSH2 0xD8F JUMP JUMPDEST SWAP2 POP POP SWAP3 SWAP2 POP POP JUMP INVALID LOG2 PUSH5 0x6970667358 0x22 SLT KECCAK256 SWAP10 0x4D 0xC4 POP TIMESTAMP 0x4D 0xD8 0xE7 0xA7 0xA7 SMOD SWAP12 0xD3 SWAP2 PUSH11 0x79079DC382997286EA236 0xDB SWAP5 PUSH31 0x2704864736F6C634300081200330000000000000000000000000000000000 "
				},
				"gasEstimates": {
					"creation": {
						"codeDepositCost": "718200",
						"executionCost": "infinite",
						"totalCost": "infinite"
					},
					"external": {
						"buyTokens(address)": "infinite",
						"owner()": "2522",
						"rate()": "2430",
						"renounceOwnership()": "30465",
						"setRate(uint256)": "24830",
						"token()": "infinite",
						"transferOwnership(address)": "30788",
						"weiRaised()": "2474"
					},
					"internal": {
						"_deliverTokens(address,uint256)": "infinite",
						"_forwardFunds()": "infinite",
						"_getTokenAmount(uint256)": "infinite",
						"_postValidatePurchase(address,uint256)": "13",
						"_preValidatePurchase(address,uint256)": "infinite",
						"_processPurchase(address,uint256)": "infinite",
						"_updatePurchasingState(address,uint256)": "13"
					}
				},
				"methodIdentifiers": {
					"buyTokens(address)": "ec8ac4d8",
					"owner()": "8da5cb5b",
					"rate()": "2c4e722e",
					"renounceOwnership()": "715018a6",
					"setRate(uint256)": "34fcf437",
					"token()": "fc0c546a",
					"transferOwnership(address)": "f2fde38b",
					"weiRaised()": "4042b66f"
				}
			},
			"storageLayout": {
				"storage": [
					{
						"astId": 7,
						"contract": "contracts/ChadPepeCrowdsale.sol:ChadPepeCrowdsale",
						"label": "_owner",
						"offset": 0,
						"slot": "0",
						"type": "t_address"
					},
					{
						"astId": 123,
						"contract": "contracts/ChadPepeCrowdsale.sol:ChadPepeCrowdsale",
						"label": "_status",
						"offset": 0,
						"slot": "1",
						"type": "t_uint256"
					},
					{
						"astId": 594,
						"contract": "contracts/ChadPepeCrowdsale.sol:ChadPepeCrowdsale",
						"label": "token",
						"offset": 0,
						"slot": "2",
						"type": "t_contract(IERC20)244"
					},
					{
						"astId": 596,
						"contract": "contracts/ChadPepeCrowdsale.sol:ChadPepeCrowdsale",
						"label": "rate",
						"offset": 0,
						"slot": "3",
						"type": "t_uint256"
					},
					{
						"astId": 598,
						"contract": "contracts/ChadPepeCrowdsale.sol:ChadPepeCrowdsale",
						"label": "weiRaised",
						"offset": 0,
						"slot": "4",
						"type": "t_uint256"
					}
				],
				"types": {
					"t_address": {
						"encoding": "inplace",
						"label": "address",
						"numberOfBytes": "20"
					},
					"t_contract(IERC20)244": {
						"encoding": "inplace",
						"label": "contract IERC20",
						"numberOfBytes": "20"
					},
					"t_uint256": {
						"encoding": "inplace",
						"label": "uint256",
						"numberOfBytes": "32"
					}
				}
			},
			"userdoc": {
				"kind": "user",
				"methods": {},
				"version": 1
			}
		}
	}
}