{
	"data": {
		"bytecode": {
			"linkReferences": {},
			"object": "60a06040523073ffffffffffffffffffffffffffffffffffffffff1660809073ffffffffffffffffffffffffffffffffffffffff168152506040518062033760016040528062033732815260200162004f176203373291396101959081620000689190620003ce565b503480156200007657600080fd5b50620000876200008d60201b60201c565b62000599565b600060019054906101000a900460ff1615620000e0576040517f08c379a0000000000000000000000000000000000000000000000000000000008152600401620000d7906200053c565b60405180910390fd5b60ff801660008054906101000a900460ff1660ff161015620001525760ff6000806101000a81548160ff021916908360ff1602179055507f7f26b83ff96e1f2b6a682f133852f6798a09c465da95921460cefb384740249860ff6040516200014991906200057c565b60405180910390a15b565b600081519050919050565b7f4e487b7100000000000000000000000000000000000000000000000000000000600052604160045260246000fd5b7f4e487b7100000000000000000000000000000000000000000000000000000000600052602260045260246000fd5b60006002820490506001821680620001d657607f821691505b602082108103620001ec57620001eb6200018e565b5b50919050565b60008190508160005260206000209050919050565b60006020601f8301049050919050565b600082821b905092915050565b600060088302620002567fffffffffffffffffffffffffffffffffffffffffffffffffffffffffffffffff8262000217565b62000262868362000217565b95508019841693508086168417925050509392505050565b6000819050919050565b6000819050919050565b6000620002af620002a9620002a3846200027a565b62000284565b6200027a565b9050919050565b6000819050919050565b620002cb836200028e565b620002e3620002da82620002b6565b84845462000224565b825550505050565b600090565b620002fa620002eb565b62000307818484620002c0565b505050565b5b818110156200032f5762000323600082620002f0565b6001810190506200030d565b5050565b601f8211156200037e576200034881620001f2565b620003538462000207565b8101602085101562000363578190505b6200037b620003728562000207565b8301826200030c565b50505b505050565b600082821c905092915050565b6000620003a36000198460080262000383565b1980831691505092915050565b6000620003be838362000390565b9150826002028217905092915050565b620003d98262000154565b67ffffffffffffffff811115620003f557620003f46200015f565b5b620004018254620001bd565b6200040e82828562000333565b600060209050601f83116001811462000446576000841562000431578287015190505b6200043d8582620003b0565b865550620004ad565b601f1984166200045686620001f2565b60005b82811015620004805784890151825560018201915060208501945060208101905062000459565b86831015620004a057848901516200049c601f89168262000390565b8355505b6001600288020188555050505b505050505050565b600082825260208201905092915050565b7f496e697469616c697a61626c653a20636f6e747261637420697320696e69746960008201527f616c697a696e6700000000000000000000000000000000000000000000000000602082015250565b600062000524602783620004b5565b91506200053182620004c6565b604082019050919050565b60006020820190508181036000830152620005578162000515565b9050919050565b600060ff82169050919050565b62000576816200055e565b82525050565b60006020820190506200059360008301846200056b565b92915050565b608051614946620005d160003960008181610a4801528181610ad601528181610cb301528181610d410152610df101526149466000f3fe60806040526004361061021a5760003560e01c806370a0823111610123578063981b24d0116100ab578063bed998501161006f578063bed99850146107a0578063c6d69a30146107cb578063dd62ed3e146107f4578063ded998b914610831578063f2fde38b1461085a5761021a565b8063981b24d014610695578063a457c2d7146106d2578063a9059cbb1461070f578063a9e757231461074c578063b92e6396146107775761021a565b80638129fc1c116100f25780638129fc1c146105e85780638456cb59146105ff5780638bf55409146106165780638da5cb5b1461063f57806395d89b411461066a5761021a565b806370a0823114610540578063715018a61461057d578063771a3a1d1461059457806379cc6790146105bf5761021a565b806339509351116101a65780634ee2cd7e116101755780634ee2cd7e146104665780634f1ef286146104a357806352d1902d146104bf5780635c975abb146104ea57806368841431146105155761021a565b806339509351146103c05780633f4ba83a146103fd57806340c10f191461041457806342966c681461043d5761021a565b806318160ddd116101ed57806318160ddd146102db578063189d165e1461030657806323b872dd1461032f578063313ce5671461036c5780633659cfe6146103975761021a565b806306fdde031461021f578063095ea7b31461024a5780631419841d146102875780631694505e146102b0575b600080fd5b34801561022b57600080fd5b50610234610883565b6040516102419190612e1f565b60405180910390f35b34801561025657600080fd5b50610271600480360381019061026c9190612ee9565b610915565b60405161027e9190612f44565b60405180910390f35b34801561029357600080fd5b506102ae60048036038101906102a99190612f5f565b610938565b005b3480156102bc57600080fd5b506102c5610985565b6040516102d29190612feb565b60405180910390f35b3480156102e757600080fd5b506102f06109ac565b6040516102fd9190613015565b60405180910390f35b34801561031257600080fd5b5061032d60048036038101906103289190613030565b6109b6565b005b34801561033b57600080fd5b506103566004803603810190610351919061305d565b610a0e565b6040516103639190612f44565b60405180910390f35b34801561037857600080fd5b50610381610a3d565b60405161038e91906130cc565b60405180910390f35b3480156103a357600080fd5b506103be60048036038101906103b99190612f5f565b610a46565b005b3480156103cc57600080fd5b506103e760048036038101906103e29190612ee9565b610bce565b6040516103f49190612f44565b60405180910390f35b34801561040957600080fd5b50610412610c05565b005b34801561042057600080fd5b5061043b60048036038101906104369190612ee9565b610c17565b005b34801561044957600080fd5b50610464600480360381019061045f9190613030565b610c2d565b005b34801561047257600080fd5b5061048d60048036038101906104889190612ee9565b610c41565b60405161049a9190613015565b60405180910390f35b6104bd60048036038101906104b8919061321c565b610cb1565b005b3480156104cb57600080fd5b506104d4610ded565b6040516104e19190613291565b60405180910390f35b3480156104f657600080fd5b506104ff610ea6565b60405161050c9190612f44565b60405180910390f35b34801561052157600080fd5b5061052a610ebd565b6040516105379190613015565b60405180910390f35b34801561054c57600080fd5b5061056760048036038101906105629190612f5f565b610ec4565b6040516105749190613015565b60405180910390f35b34801561058957600080fd5b50610592610f0d565b005b3480156105a057600080fd5b506105a9610f21565b6040516105b69190613015565b60405180910390f35b3480156105cb57600080fd5b506105e660048036038101906105e19190612ee9565b610f2c565b005b3480156105f457600080fd5b506105fd610f4c565b005b34801561060b57600080fd5b50610614611152565b005b34801561062257600080fd5b5061063d60048036038101906106389190613030565b611164565b005b34801561064b57600080fd5b50610654611177565b60405161066191906132bb565b60405180910390f35b34801561067657600080fd5b5061067f6111a1565b60405161068c9190612e1f565b60405180910390f35b3480156106a157600080fd5b506106bc60048036038101906106b79190613030565b611233565b6040516106c99190613015565b60405180910390f35b3480156106de57600080fd5b506106f960048036038101906106f49190612ee9565b611264565b6040516107069190612f44565b60405180910390f35b34801561071b57600080fd5b5061073660048036038101906107319190612ee9565b6112db565b6040516107439190612f44565b60405180910390f35b34801561075857600080fd5b506107616112fe565b60405161076e9190613015565b60405180910390f35b34801561078357600080fd5b5061079e60048036038101906107999190613030565b611305565b005b3480156107ac57600080fd5b506107b5611318565b6040516107c29190613015565b60405180910390f35b3480156107d757600080fd5b506107f260048036038101906107ed9190613030565b611323565b005b34801561080057600080fd5b5061081b600480360381019061081691906132d6565b61137b565b6040516108289190613015565b60405180910390f35b34801561083d57600080fd5b5061085860048036038101906108539190613316565b611402565b005b34801561086657600080fd5b50610881600480360381019061087c9190612f5f565b6114ed565b005b606060368054610892906133d2565b80601f01602080910402602001604051908101604052809291908181526020018280546108be906133d2565b801561090b5780601f106108e05761010080835404028352916020019161090b565b820191906000526020600020905b8154815290600101906020018083116108ee57829003601f168201915b5050505050905090565b600080610920611570565b905061092d818585611578565b600191505092915050565b610940611741565b8061019660006101000a81548173ffffffffffffffffffffffffffffffffffffffff021916908373ffffffffffffffffffffffffffffffffffffffff16021790555050565b61019660009054906101000a900473ffffffffffffffffffffffffffffffffffffffff1681565b6000603554905090565b6109be611741565b6103e8811115610a03576040517f08c379a00000000000000000000000000000000000000000000000000000000081526004016109fa9061344f565b60405180910390fd5b806101928190555050565b600080610a19611570565b9050610a268582856117bf565b610a3185858561184b565b60019150509392505050565b60006012905090565b7f000000000000000000000000000000000000000000000000000000000000000073ffffffffffffffffffffffffffffffffffffffff163073ffffffffffffffffffffffffffffffffffffffff1603610ad4576040517f08c379a0000000000000000000000000000000000000000000000000000000008152600401610acb906134e1565b60405180910390fd5b7f000000000000000000000000000000000000000000000000000000000000000073ffffffffffffffffffffffffffffffffffffffff16610b13611995565b73ffffffffffffffffffffffffffffffffffffffff1614610b69576040517f08c379a0000000000000000000000000000000000000000000000000000000008152600401610b6090613573565b60405180910390fd5b610b72816119ec565b610bcb81600067ffffffffffffffff811115610b9157610b906130f1565b5b6040519080825280601f01601f191660200182016040528015610bc35781602001600182028036833780820191505090505b5060006119f7565b50565b600080610bd9611570565b9050610bfa818585610beb858961137b565b610bf591906135c2565b611578565b600191505092915050565b610c0d611741565b610c15611b65565b565b610c1f611741565b610c298282611bc8565b5050565b610c3e610c38611570565b82611d1f565b50565b6000806000610c8e84609760008873ffffffffffffffffffffffffffffffffffffffff1673ffffffffffffffffffffffffffffffffffffffff168152602001908152602001600020611eee565b9150915081610ca557610ca085610ec4565b610ca7565b805b9250505092915050565b7f000000000000000000000000000000000000000000000000000000000000000073ffffffffffffffffffffffffffffffffffffffff163073ffffffffffffffffffffffffffffffffffffffff1603610d3f576040517f08c379a0000000000000000000000000000000000000000000000000000000008152600401610d36906134e1565b60405180910390fd5b7f000000000000000000000000000000000000000000000000000000000000000073ffffffffffffffffffffffffffffffffffffffff16610d7e611995565b73ffffffffffffffffffffffffffffffffffffffff1614610dd4576040517f08c379a0000000000000000000000000000000000000000000000000000000008152600401610dcb90613573565b60405180910390fd5b610ddd826119ec565b610de9828260016119f7565b5050565b60007f000000000000000000000000000000000000000000000000000000000000000073ffffffffffffffffffffffffffffffffffffffff163073ffffffffffffffffffffffffffffffffffffffff1614610e7d576040517f08c379a0000000000000000000000000000000000000000000000000000000008152600401610e7490613668565b60405180910390fd5b7f360894a13ba1a3210667c828492db98dca3e2076cc3735a920a3ca505d382bbc60001b905090565b600060fb60009054906101000a900460ff16905090565b6101945481565b6000603360008373ffffffffffffffffffffffffffffffffffffffff1673ffffffffffffffffffffffffffffffffffffffff168152602001908152602001600020549050919050565b610f15611741565b610f1f6000611fe3565b565b600061019154905090565b610f3e82610f38611570565b836117bf565b610f488282611d1f565b5050565b60008060019054906101000a900460ff16159050808015610f7d5750600160008054906101000a900460ff1660ff16105b80610faa5750610f8c306120a9565b158015610fa95750600160008054906101000a900460ff1660ff16145b5b610fe9576040517f08c379a0000000000000000000000000000000000000000000000000000000008152600401610fe0906136fa565b60405180910390fd5b60016000806101000a81548160ff021916908360ff1602179055508015611026576001600060016101000a81548160ff0219169083151502179055505b61109a6040518060400160405280600881526020017f43686164506570650000000000000000000000000000000000000000000000008152506040518060400160405280600481526020017f43484144000000000000000000000000000000000000000000000000000000008152506120cc565b6110a2612129565b6110aa61217a565b6110b26121cb565b6110ba612224565b6110c261227d565b60c86101918190555060646101928190555069d3c21bcecceda100000061019381905550670de0b6b3a764000061019481905550801561114f5760008060016101000a81548160ff0219169083151502179055507f7f26b83ff96e1f2b6a682f133852f6798a09c465da95921460cefb384740249860016040516111469190613755565b60405180910390a15b50565b61115a611741565b6111626122ce565b565b61116c611741565b806101938190555050565b600060c960009054906101000a900473ffffffffffffffffffffffffffffffffffffffff16905090565b6060603780546111b0906133d2565b80601f01602080910402602001604051908101604052809291908181526020018280546111dc906133d2565b80156112295780601f106111fe57610100808354040283529160200191611229565b820191906000526020600020905b81548152906001019060200180831161120c57829003601f168201915b5050505050905090565b6000806000611243846098611eee565b9150915081611259576112546109ac565b61125b565b805b92505050919050565b60008061126f611570565b9050600061127d828661137b565b9050838110156112c2576040517f08c379a00000000000000000000000000000000000000000000000000000000081526004016112b9906137e2565b60405180910390fd5b6112cf8286868403611578565b60019250505092915050565b6000806112e6611570565b90506112f381858561184b565b600191505092915050565b6101935481565b61130d611741565b806101948190555050565b600061019254905090565b61132b611741565b6103e8811115611370576040517f08c379a00000000000000000000000000000000000000000000000000000000081526004016113679061384e565b60405180910390fd5b806101918190555050565b6000603460008473ffffffffffffffffffffffffffffffffffffffff1673ffffffffffffffffffffffffffffffffffffffff16815260200190815260200160002060008373ffffffffffffffffffffffffffffffffffffffff1673ffffffffffffffffffffffffffffffffffffffff16815260200190815260200160002054905092915050565b61140a611741565b61143761019660009054906101000a900473ffffffffffffffffffffffffffffffffffffffff1687610915565b5061019660009054906101000a900473ffffffffffffffffffffffffffffffffffffffff1673ffffffffffffffffffffffffffffffffffffffff1663f305d719863089888888886040518863ffffffff1660e01b815260040161149f9695949392919061386e565b60606040518083038185885af11580156114bd573d6000803e3d6000fd5b50505050506040513d601f19601f820116820180604052508101906114e291906138e4565b505050505050505050565b6114f5611741565b600073ffffffffffffffffffffffffffffffffffffffff168173ffffffffffffffffffffffffffffffffffffffff1603611564576040517f08c379a000000000000000000000000000000000000000000000000000000000815260040161155b906139a9565b60405180910390fd5b61156d81611fe3565b50565b600033905090565b600073ffffffffffffffffffffffffffffffffffffffff168373ffffffffffffffffffffffffffffffffffffffff16036115e7576040517f08c379a00000000000000000000000000000000000000000000000000000000081526004016115de90613a3b565b60405180910390fd5b600073ffffffffffffffffffffffffffffffffffffffff168273ffffffffffffffffffffffffffffffffffffffff1603611656576040517f08c379a000000000000000000000000000000000000000000000000000000000815260040161164d90613acd565b60405180910390fd5b80603460008573ffffffffffffffffffffffffffffffffffffffff1673ffffffffffffffffffffffffffffffffffffffff16815260200190815260200160002060008473ffffffffffffffffffffffffffffffffffffffff1673ffffffffffffffffffffffffffffffffffffffff168152602001908152602001600020819055508173ffffffffffffffffffffffffffffffffffffffff168373ffffffffffffffffffffffffffffffffffffffff167f8c5be1e5ebec7d5bd14f71427d1e84f3dd0314c0f7b2291e5b200ac8c7c3b925836040516117349190613015565b60405180910390a3505050565b611749611570565b73ffffffffffffffffffffffffffffffffffffffff16611767611177565b73ffffffffffffffffffffffffffffffffffffffff16146117bd576040517f08c379a00000000000000000000000000000000000000000000000000000000081526004016117b490613b39565b60405180910390fd5b565b60006117cb848461137b565b90507fffffffffffffffffffffffffffffffffffffffffffffffffffffffffffffffff81146118455781811015611837576040517f08c379a000000000000000000000000000000000000000000000000000000000815260040161182e90613ba5565b60405180910390fd5b6118448484848403611578565b5b50505050565b611853612331565b61019354811115611899576040517f08c379a000000000000000000000000000000000000000000000000000000000815260040161189090613c37565b60405180910390fd5b610194548110156118df576040517f08c379a00000000000000000000000000000000000000000000000000000000081526004016118d690613cc9565b60405180910390fd5b600061190b6127106118fd610191548561237b90919063ffffffff16565b61239190919063ffffffff16565b9050600061193961271061192b610192548661237b90919063ffffffff16565b61239190919063ffffffff16565b905060006119628261195485876123a790919063ffffffff16565b6123a790919063ffffffff16565b905061196f8686836123bd565b61197b866000846123bd565b61198d86611987611177565b856123bd565b505050505050565b60006119c37f360894a13ba1a3210667c828492db98dca3e2076cc3735a920a3ca505d382bbc60001b612636565b60000160009054906101000a900473ffffffffffffffffffffffffffffffffffffffff16905090565b6119f4611741565b50565b611a237f4910fdfa16fed3260ed0e7147f7cc6da11a60208b5b9406d12a635614ffd914360001b612640565b60000160009054906101000a900460ff1615611a4757611a428361264a565b611b60565b8273ffffffffffffffffffffffffffffffffffffffff166352d1902d6040518163ffffffff1660e01b8152600401602060405180830381865afa925050508015611aaf57506040513d601f19601f82011682018060405250810190611aac9190613d15565b60015b611aee576040517f08c379a0000000000000000000000000000000000000000000000000000000008152600401611ae590613db4565b60405180910390fd5b7f360894a13ba1a3210667c828492db98dca3e2076cc3735a920a3ca505d382bbc60001b8114611b53576040517f08c379a0000000000000000000000000000000000000000000000000000000008152600401611b4a90613e46565b60405180910390fd5b50611b5f838383612703565b5b505050565b611b6d61272f565b600060fb60006101000a81548160ff0219169083151502179055507f5db9ee0a495bf2e6ff9c91a7834c1ba4fdd244a5e8aa4e537bd38aeae4b073aa611bb1611570565b604051611bbe91906132bb565b60405180910390a1565b600073ffffffffffffffffffffffffffffffffffffffff168273ffffffffffffffffffffffffffffffffffffffff1603611c37576040517f08c379a0000000000000000000000000000000000000000000000000000000008152600401611c2e90613eb2565b60405180910390fd5b611c4360008383612778565b8060356000828254611c5591906135c2565b9250508190555080603360008473ffffffffffffffffffffffffffffffffffffffff1673ffffffffffffffffffffffffffffffffffffffff168152602001908152602001600020600082825401925050819055508173ffffffffffffffffffffffffffffffffffffffff16600073ffffffffffffffffffffffffffffffffffffffff167fddf252ad1be2c89b69c2b068fc378daa952ba7f163c4a11628f55a4df523b3ef83604051611d079190613015565b60405180910390a3611d1b60008383612790565b5050565b600073ffffffffffffffffffffffffffffffffffffffff168273ffffffffffffffffffffffffffffffffffffffff1603611d8e576040517f08c379a0000000000000000000000000000000000000000000000000000000008152600401611d8590613f44565b60405180910390fd5b611d9a82600083612778565b6000603360008473ffffffffffffffffffffffffffffffffffffffff1673ffffffffffffffffffffffffffffffffffffffff16815260200190815260200160002054905081811015611e21576040517f08c379a0000000000000000000000000000000000000000000000000000000008152600401611e1890613fd6565b60405180910390fd5b818103603360008573ffffffffffffffffffffffffffffffffffffffff1673ffffffffffffffffffffffffffffffffffffffff1681526020019081526020016000208190555081603560008282540392505081905550600073ffffffffffffffffffffffffffffffffffffffff168373ffffffffffffffffffffffffffffffffffffffff167fddf252ad1be2c89b69c2b068fc378daa952ba7f163c4a11628f55a4df523b3ef84604051611ed59190613015565b60405180910390a3611ee983600084612790565b505050565b60008060008411611f34576040517f08c379a0000000000000000000000000000000000000000000000000000000008152600401611f2b90614042565b60405180910390fd5b611f3c612795565b841115611f7e576040517f08c379a0000000000000000000000000000000000000000000000000000000008152600401611f75906140ae565b60405180910390fd5b6000611f9685856000016127a690919063ffffffff16565b905083600001805490508103611fb3576000809250925050611fdc565b6001846001018281548110611fcb57611fca6140ce565b5b906000526020600020015492509250505b9250929050565b600060c960009054906101000a900473ffffffffffffffffffffffffffffffffffffffff1690508160c960006101000a81548173ffffffffffffffffffffffffffffffffffffffff021916908373ffffffffffffffffffffffffffffffffffffffff1602179055508173ffffffffffffffffffffffffffffffffffffffff168173ffffffffffffffffffffffffffffffffffffffff167f8be0079c531659141344cd1fd0a4f28419497f9722a3daafe3b4186f6b6457e060405160405180910390a35050565b6000808273ffffffffffffffffffffffffffffffffffffffff163b119050919050565b600060019054906101000a900460ff1661211b576040517f08c379a00000000000000000000000000000000000000000000000000000000081526004016121129061416f565b60405180910390fd5b612125828261285f565b5050565b600060019054906101000a900460ff16612178576040517f08c379a000000000000000000000000000000000000000000000000000000000815260040161216f9061416f565b60405180910390fd5b565b600060019054906101000a900460ff166121c9576040517f08c379a00000000000000000000000000000000000000000000000000000000081526004016121c09061416f565b60405180910390fd5b565b600060019054906101000a900460ff1661221a576040517f08c379a00000000000000000000000000000000000000000000000000000000081526004016122119061416f565b60405180910390fd5b6122226128d2565b565b600060019054906101000a900460ff16612273576040517f08c379a000000000000000000000000000000000000000000000000000000000815260040161226a9061416f565b60405180910390fd5b61227b612933565b565b600060019054906101000a900460ff166122cc576040517f08c379a00000000000000000000000000000000000000000000000000000000081526004016122c39061416f565b60405180910390fd5b565b6122d6612331565b600160fb60006101000a81548160ff0219169083151502179055507f62e78cea01bee320cd4e420270b5ea74000d11b0c9f74754ebdbfc544b05a25861231a611570565b60405161232791906132bb565b60405180910390a1565b612339610ea6565b15612379576040517f08c379a0000000000000000000000000000000000000000000000000000000008152600401612370906141db565b60405180910390fd5b565b6000818361238991906141fb565b905092915050565b6000818361239f919061426c565b905092915050565b600081836123b5919061429d565b905092915050565b600073ffffffffffffffffffffffffffffffffffffffff168373ffffffffffffffffffffffffffffffffffffffff160361242c576040517f08c379a000000000000000000000000000000000000000000000000000000000815260040161242390614343565b60405180910390fd5b600073ffffffffffffffffffffffffffffffffffffffff168273ffffffffffffffffffffffffffffffffffffffff160361249b576040517f08c379a0000000000000000000000000000000000000000000000000000000008152600401612492906143d5565b60405180910390fd5b6124a6838383612778565b6000603360008573ffffffffffffffffffffffffffffffffffffffff1673ffffffffffffffffffffffffffffffffffffffff1681526020019081526020016000205490508181101561252d576040517f08c379a000000000000000000000000000000000000000000000000000000000815260040161252490614467565b60405180910390fd5b818103603360008673ffffffffffffffffffffffffffffffffffffffff1673ffffffffffffffffffffffffffffffffffffffff1681526020019081526020016000208190555081603360008573ffffffffffffffffffffffffffffffffffffffff1673ffffffffffffffffffffffffffffffffffffffff168152602001908152602001600020600082825401925050819055508273ffffffffffffffffffffffffffffffffffffffff168473ffffffffffffffffffffffffffffffffffffffff167fddf252ad1be2c89b69c2b068fc378daa952ba7f163c4a11628f55a4df523b3ef8460405161261d9190613015565b60405180910390a3612630848484612790565b50505050565b6000819050919050565b6000819050919050565b612653816120a9565b612692576040517f08c379a0000000000000000000000000000000000000000000000000000000008152600401612689906144f9565b60405180910390fd5b806126bf7f360894a13ba1a3210667c828492db98dca3e2076cc3735a920a3ca505d382bbc60001b612636565b60000160006101000a81548173ffffffffffffffffffffffffffffffffffffffff021916908373ffffffffffffffffffffffffffffffffffffffff16021790555050565b61270c8361299f565b6000825111806127195750805b1561272a5761272883836129ee565b505b505050565b612737610ea6565b612776576040517f08c379a000000000000000000000000000000000000000000000000000000000815260040161276d90614565565b60405180910390fd5b565b612780612331565b61278b838383612ad2565b505050565b505050565b60006127a1609a612b8a565b905090565b6000808380549050036127bc5760009050612859565b600080848054905090505b808210156128105760006127db8383612b98565b9050846127e88783612bbe565b6000015411156127fa5780915061280a565b60018161280791906135c2565b92505b506127c7565b6000821180156128385750836128328660018561282d919061429d565b612bbe565b60000154145b156128535760018261284a919061429d565b92505050612859565b81925050505b92915050565b600060019054906101000a900460ff166128ae576040517f08c379a00000000000000000000000000000000000000000000000000000000081526004016128a59061416f565b60405180910390fd5b81603690816128bd9190614727565b5080603790816128cd9190614727565b505050565b600060019054906101000a900460ff16612921576040517f08c379a00000000000000000000000000000000000000000000000000000000081526004016129189061416f565b60405180910390fd5b61293161292c611570565b611fe3565b565b600060019054906101000a900460ff16612982576040517f08c379a00000000000000000000000000000000000000000000000000000000081526004016129799061416f565b60405180910390fd5b600060fb60006101000a81548160ff021916908315150217905550565b6129a88161264a565b8073ffffffffffffffffffffffffffffffffffffffff167fbc7cd75a20ee27fd9adebab32041f755214dbc6bffa90cc0225b39da2e5c2d3b60405160405180910390a250565b60606129f9836120a9565b612a38576040517f08c379a0000000000000000000000000000000000000000000000000000000008152600401612a2f9061486b565b60405180910390fd5b6000808473ffffffffffffffffffffffffffffffffffffffff1684604051612a6091906148d2565b600060405180830381855af49150503d8060008114612a9b576040519150601f19603f3d011682016040523d82523d6000602084013e612aa0565b606091505b5091509150612ac882826040518060600160405280602781526020016148ea60279139612be0565b9250505092915050565b612add838383612c02565b600073ffffffffffffffffffffffffffffffffffffffff168373ffffffffffffffffffffffffffffffffffffffff1603612b2757612b1a82612c07565b612b22612c5a565b612b85565b600073ffffffffffffffffffffffffffffffffffffffff168273ffffffffffffffffffffffffffffffffffffffff1603612b7157612b6483612c07565b612b6c612c5a565b612b84565b612b7a83612c07565b612b8382612c07565b5b5b505050565b600081600001549050919050565b60006002828418612ba9919061426c565b828416612bb691906135c2565b905092915050565b60008083600052826020600020019050612bd781612c6e565b91505092915050565b60608315612bf057829050612bfb565b612bfa8383612c78565b5b9392505050565b505050565b612c57609760008373ffffffffffffffffffffffffffffffffffffffff1673ffffffffffffffffffffffffffffffffffffffff168152602001908152602001600020612c5283610ec4565b612cc8565b50565b612c6c6098612c676109ac565b612cc8565b565b6000819050919050565b600082511115612c8b5781518083602001fd5b806040517f08c379a0000000000000000000000000000000000000000000000000000000008152600401612cbf9190612e1f565b60405180910390fd5b6000612cd2612795565b905080612ce184600001612d43565b1015612d3e5782600001819080600181540180825580915050600190039060005260206000200160009091909190915055826001018290806001815401808255809150506001900390600052602060002001600090919091909150555b505050565b600080828054905003612d595760009050612d8a565b8160018380549050612d6b919061429d565b81548110612d7c57612d7b6140ce565b5b906000526020600020015490505b919050565b600081519050919050565b600082825260208201905092915050565b60005b83811015612dc9578082015181840152602081019050612dae565b60008484015250505050565b6000601f19601f8301169050919050565b6000612df182612d8f565b612dfb8185612d9a565b9350612e0b818560208601612dab565b612e1481612dd5565b840191505092915050565b60006020820190508181036000830152612e398184612de6565b905092915050565b6000604051905090565b600080fd5b600080fd5b600073ffffffffffffffffffffffffffffffffffffffff82169050919050565b6000612e8082612e55565b9050919050565b612e9081612e75565b8114612e9b57600080fd5b50565b600081359050612ead81612e87565b92915050565b6000819050919050565b612ec681612eb3565b8114612ed157600080fd5b50565b600081359050612ee381612ebd565b92915050565b60008060408385031215612f0057612eff612e4b565b5b6000612f0e85828601612e9e565b9250506020612f1f85828601612ed4565b9150509250929050565b60008115159050919050565b612f3e81612f29565b82525050565b6000602082019050612f596000830184612f35565b92915050565b600060208284031215612f7557612f74612e4b565b5b6000612f8384828501612e9e565b91505092915050565b6000819050919050565b6000612fb1612fac612fa784612e55565b612f8c565b612e55565b9050919050565b6000612fc382612f96565b9050919050565b6000612fd582612fb8565b9050919050565b612fe581612fca565b82525050565b60006020820190506130006000830184612fdc565b92915050565b61300f81612eb3565b82525050565b600060208201905061302a6000830184613006565b92915050565b60006020828403121561304657613045612e4b565b5b600061305484828501612ed4565b91505092915050565b60008060006060848603121561307657613075612e4b565b5b600061308486828701612e9e565b935050602061309586828701612e9e565b92505060406130a686828701612ed4565b9150509250925092565b600060ff82169050919050565b6130c6816130b0565b82525050565b60006020820190506130e160008301846130bd565b92915050565b600080fd5b600080fd5b7f4e487b7100000000000000000000000000000000000000000000000000000000600052604160045260246000fd5b61312982612dd5565b810181811067ffffffffffffffff82111715613148576131476130f1565b5b80604052505050565b600061315b612e41565b90506131678282613120565b919050565b600067ffffffffffffffff821115613187576131866130f1565b5b61319082612dd5565b9050602081019050919050565b82818337600083830152505050565b60006131bf6131ba8461316c565b613151565b9050828152602081018484840111156131db576131da6130ec565b5b6131e684828561319d565b509392505050565b600082601f830112613203576132026130e7565b5b81356132138482602086016131ac565b91505092915050565b6000806040838503121561323357613232612e4b565b5b600061324185828601612e9e565b925050602083013567ffffffffffffffff81111561326257613261612e50565b5b61326e858286016131ee565b9150509250929050565b6000819050919050565b61328b81613278565b82525050565b60006020820190506132a66000830184613282565b92915050565b6132b581612e75565b82525050565b60006020820190506132d060008301846132ac565b92915050565b600080604083850312156132ed576132ec612e4b565b5b60006132fb85828601612e9e565b925050602061330c85828601612e9e565b9150509250929050565b60008060008060008060c0878903121561333357613332612e4b565b5b600061334189828a01612ed4565b965050602061335289828a01612ed4565b955050604061336389828a01612ed4565b945050606061337489828a01612ed4565b935050608061338589828a01612e9e565b92505060a061339689828a01612ed4565b9150509295509295509295565b7f4e487b7100000000000000000000000000000000000000000000000000000000600052602260045260246000fd5b600060028204905060018216806133ea57607f821691505b6020821081036133fd576133fc6133a3565b5b50919050565b7f43686164506570653a204275726e207261746520746f6f206869676800000000600082015250565b6000613439601c83612d9a565b915061344482613403565b602082019050919050565b600060208201905081810360008301526134688161342c565b9050919050565b7f46756e6374696f6e206d7573742062652063616c6c6564207468726f7567682060008201527f64656c656761746563616c6c0000000000000000000000000000000000000000602082015250565b60006134cb602c83612d9a565b91506134d68261346f565b604082019050919050565b600060208201905081810360008301526134fa816134be565b9050919050565b7f46756e6374696f6e206d7573742062652063616c6c6564207468726f7567682060008201527f6163746976652070726f78790000000000000000000000000000000000000000602082015250565b600061355d602c83612d9a565b915061356882613501565b604082019050919050565b6000602082019050818103600083015261358c81613550565b9050919050565b7f4e487b7100000000000000000000000000000000000000000000000000000000600052601160045260246000fd5b60006135cd82612eb3565b91506135d883612eb3565b92508282019050808211156135f0576135ef613593565b5b92915050565b7f555550535570677261646561626c653a206d757374206e6f742062652063616c60008201527f6c6564207468726f7567682064656c656761746563616c6c0000000000000000602082015250565b6000613652603883612d9a565b915061365d826135f6565b604082019050919050565b6000602082019050818103600083015261368181613645565b9050919050565b7f496e697469616c697a61626c653a20636f6e747261637420697320616c72656160008201527f647920696e697469616c697a6564000000000000000000000000000000000000602082015250565b60006136e4602e83612d9a565b91506136ef82613688565b604082019050919050565b60006020820190508181036000830152613713816136d7565b9050919050565b6000819050919050565b600061373f61373a6137358461371a565b612f8c565b6130b0565b9050919050565b61374f81613724565b82525050565b600060208201905061376a6000830184613746565b92915050565b7f45524332303a2064656372656173656420616c6c6f77616e63652062656c6f7760008201527f207a65726f000000000000000000000000000000000000000000000000000000602082015250565b60006137cc602583612d9a565b91506137d782613770565b604082019050919050565b600060208201905081810360008301526137fb816137bf565b9050919050565b7f43686164506570653a20546178207261746520746f6f20686967680000000000600082015250565b6000613838601b83612d9a565b915061384382613802565b602082019050919050565b600060208201905081810360008301526138678161382b565b9050919050565b600060c08201905061388360008301896132ac565b6138906020830188613006565b61389d6040830187613006565b6138aa6060830186613006565b6138b760808301856132ac565b6138c460a0830184613006565b979650505050505050565b6000815190506138de81612ebd565b92915050565b6000806000606084860312156138fd576138fc612e4b565b5b600061390b868287016138cf565b935050602061391c868287016138cf565b925050604061392d868287016138cf565b9150509250925092565b7f4f776e61626c653a206e6577206f776e657220697320746865207a65726f206160008201527f6464726573730000000000000000000000000000000000000000000000000000602082015250565b6000613993602683612d9a565b915061399e82613937565b604082019050919050565b600060208201905081810360008301526139c281613986565b9050919050565b7f45524332303a20617070726f76652066726f6d20746865207a65726f2061646460008201527f7265737300000000000000000000000000000000000000000000000000000000602082015250565b6000613a25602483612d9a565b9150613a30826139c9565b604082019050919050565b60006020820190508181036000830152613a5481613a18565b9050919050565b7f45524332303a20617070726f766520746f20746865207a65726f20616464726560008201527f7373000000000000000000000000000000000000000000000000000000000000602082015250565b6000613ab7602283612d9a565b9150613ac282613a5b565b604082019050919050565b60006020820190508181036000830152613ae681613aaa565b9050919050565b7f4f776e61626c653a2063616c6c6572206973206e6f7420746865206f776e6572600082015250565b6000613b23602083612d9a565b9150613b2e82613aed565b602082019050919050565b60006020820190508181036000830152613b5281613b16565b9050919050565b7f45524332303a20696e73756666696369656e7420616c6c6f77616e6365000000600082015250565b6000613b8f601d83612d9a565b9150613b9a82613b59565b602082019050919050565b60006020820190508181036000830152613bbe81613b82565b9050919050565b7f43686164506570653a205472616e7366657220616d6f756e742065786365656460008201527f7320746865206d617820616c6c6f776564000000000000000000000000000000602082015250565b6000613c21603183612d9a565b9150613c2c82613bc5565b604082019050919050565b60006020820190508181036000830152613c5081613c14565b9050919050565b7f43686164506570653a205472616e7366657220616d6f756e742069732062656c60008201527f6f7720746865206d696e20616c6c6f7765640000000000000000000000000000602082015250565b6000613cb3603283612d9a565b9150613cbe82613c57565b604082019050919050565b60006020820190508181036000830152613ce281613ca6565b9050919050565b613cf281613278565b8114613cfd57600080fd5b50565b600081519050613d0f81613ce9565b92915050565b600060208284031215613d2b57613d2a612e4b565b5b6000613d3984828501613d00565b91505092915050565b7f45524331393637557067726164653a206e657720696d706c656d656e7461746960008201527f6f6e206973206e6f742055555053000000000000000000000000000000000000602082015250565b6000613d9e602e83612d9a565b9150613da982613d42565b604082019050919050565b60006020820190508181036000830152613dcd81613d91565b9050919050565b7f45524331393637557067726164653a20756e737570706f727465642070726f7860008201527f6961626c65555549440000000000000000000000000000000000000000000000602082015250565b6000613e30602983612d9a565b9150613e3b82613dd4565b604082019050919050565b60006020820190508181036000830152613e5f81613e23565b9050919050565b7f45524332303a206d696e7420746f20746865207a65726f206164647265737300600082015250565b6000613e9c601f83612d9a565b9150613ea782613e66565b602082019050919050565b60006020820190508181036000830152613ecb81613e8f565b9050919050565b7f45524332303a206275726e2066726f6d20746865207a65726f2061646472657360008201527f7300000000000000000000000000000000000000000000000000000000000000602082015250565b6000613f2e602183612d9a565b9150613f3982613ed2565b604082019050919050565b60006020820190508181036000830152613f5d81613f21565b9050919050565b7f45524332303a206275726e20616d6f756e7420657863656564732062616c616e60008201527f6365000000000000000000000000000000000000000000000000000000000000602082015250565b6000613fc0602283612d9a565b9150613fcb82613f64565b604082019050919050565b60006020820190508181036000830152613fef81613fb3565b9050919050565b7f4552433230536e617073686f743a206964206973203000000000000000000000600082015250565b600061402c601683612d9a565b915061403782613ff6565b602082019050919050565b6000602082019050818103600083015261405b8161401f565b9050919050565b7f4552433230536e617073686f743a206e6f6e6578697374656e74206964000000600082015250565b6000614098601d83612d9a565b91506140a382614062565b602082019050919050565b600060208201905081810360008301526140c78161408b565b9050919050565b7f4e487b7100000000000000000000000000000000000000000000000000000000600052603260045260246000fd5b7f496e697469616c697a61626c653a20636f6e7472616374206973206e6f74206960008201527f6e697469616c697a696e67000000000000000000000000000000000000000000602082015250565b6000614159602b83612d9a565b9150614164826140fd565b604082019050919050565b600060208201905081810360008301526141888161414c565b9050919050565b7f5061757361626c653a2070617573656400000000000000000000000000000000600082015250565b60006141c5601083612d9a565b91506141d08261418f565b602082019050919050565b600060208201905081810360008301526141f4816141b8565b9050919050565b600061420682612eb3565b915061421183612eb3565b925082820261421f81612eb3565b9150828204841483151761423657614235613593565b5b5092915050565b7f4e487b7100000000000000000000000000000000000000000000000000000000600052601260045260246000fd5b600061427782612eb3565b915061428283612eb3565b9250826142925761429161423d565b5b828204905092915050565b60006142a882612eb3565b91506142b383612eb3565b92508282039050818111156142cb576142ca613593565b5b92915050565b7f45524332303a207472616e736665722066726f6d20746865207a65726f20616460008201527f6472657373000000000000000000000000000000000000000000000000000000602082015250565b600061432d602583612d9a565b9150614338826142d1565b604082019050919050565b6000602082019050818103600083015261435c81614320565b9050919050565b7f45524332303a207472616e7366657220746f20746865207a65726f206164647260008201527f6573730000000000000000000000000000000000000000000000000000000000602082015250565b60006143bf602383612d9a565b91506143ca82614363565b604082019050919050565b600060208201905081810360008301526143ee816143b2565b9050919050565b7f45524332303a207472616e7366657220616d6f756e742065786365656473206260008201527f616c616e63650000000000000000000000000000000000000000000000000000602082015250565b6000614451602683612d9a565b915061445c826143f5565b604082019050919050565b6000602082019050818103600083015261448081614444565b9050919050565b7f455243313936373a206e657720696d706c656d656e746174696f6e206973206e60008201527f6f74206120636f6e747261637400000000000000000000000000000000000000602082015250565b60006144e3602d83612d9a565b91506144ee82614487565b604082019050919050565b60006020820190508181036000830152614512816144d6565b9050919050565b7f5061757361626c653a206e6f7420706175736564000000000000000000000000600082015250565b600061454f601483612d9a565b915061455a82614519565b602082019050919050565b6000602082019050818103600083015261457e81614542565b9050919050565b60008190508160005260206000209050919050565b60006020601f8301049050919050565b600082821b905092915050565b6000600883026145e77fffffffffffffffffffffffffffffffffffffffffffffffffffffffffffffffff826145aa565b6145f186836145aa565b95508019841693508086168417925050509392505050565b600061462461461f61461a84612eb3565b612f8c565b612eb3565b9050919050565b6000819050919050565b61463e83614609565b61465261464a8261462b565b8484546145b7565b825550505050565b600090565b61466761465a565b614672818484614635565b505050565b5b818110156146965761468b60008261465f565b600181019050614678565b5050565b601f8211156146db576146ac81614585565b6146b58461459a565b810160208510156146c4578190505b6146d86146d08561459a565b830182614677565b50505b505050565b600082821c905092915050565b60006146fe600019846008026146e0565b1980831691505092915050565b600061471783836146ed565b9150826002028217905092915050565b61473082612d8f565b67ffffffffffffffff811115614749576147486130f1565b5b61475382546133d2565b61475e82828561469a565b600060209050601f831160018114614791576000841561477f578287015190505b614789858261470b565b8655506147f1565b601f19841661479f86614585565b60005b828110156147c7578489015182556001820191506020850194506020810190506147a2565b868310156147e457848901516147e0601f8916826146ed565b8355505b6001600288020188555050505b505050505050565b7f416464726573733a2064656c65676174652063616c6c20746f206e6f6e2d636f60008201527f6e74726163740000000000000000000000000000000000000000000000000000602082015250565b6000614855602683612d9a565b9150614860826147f9565b604082019050919050565b6000602082019050818103600083015261488481614848565b9050919050565b600081519050919050565b600081905092915050565b60006148ac8261488b565b6148b68185614896565b93506148c6818560208601612dab565b80840191505092915050565b60006148de82846148a1565b91508190509291505056fe416464726573733a206c6f772d6c6576656c2064656c65676174652063616c6c206661696c6564a26469706673582212209430a46904fb2b9f30cf549b53dffdfe4482268680b4e586e63607c489c4b16964736f6c63430008120033646174613a696d6167652f7376672b786d6c3b6261736536342c5044393462577767646d567963326c76626a30694d5334774969426c626d4e765a476c755a7a30696458526d4c546769507a344b50484e325a79423261575633516d393450534977494441674e444177494451774d43496765473173626e4d39496d6830644841364c79393364336375647a4d7562334a6e4c7a49774d44417663335a6e496a344b494341385a7942705a44306963335a6e5a79492b436941674943413863474630614342705a443069634746306144456949475139496b30784f4451754f54633249444d344c6a45344e794244494445344e4334314e446b674d7a67754e5445774c4445344d7934334d6a63674d7a67754e7a67774c4445344d7934784e446b674d7a67754e7a673349454d674d5467794c6a55334d53417a4f4334334f5451734d5467784c6a67334e43417a4f5334774e7a41734d5467784c6a59774d43417a4f5334304d444167517941784f4445754d7a493249444d354c6a637a4d4377784f4441754f544933494451774c6a41774d4377784f4441754e7a4530494451774c6a41774d434244494445344d4334314d4445674e4441754d4441774c4445334f5334344e6a6b674e4441754d7a59774c4445334f53347a4d446b674e4441754f44417749454d674d5463344c6a63314d4341304d5334794e4441734d5463344c6a51344e6941304d5334324d4441734d5463344c6a63794d6941304d5334324d444167517941784e7a67754f545535494451784c6a59774d4377784e7a6b754d6a5530494451784c6a517a4e6977784e7a6b754d7a6335494451784c6a497a4e534244494445334f5334324d4449674e4441754f44637a4c4445344d5334324f5459674d7a6b754f4455314c4445344e4334304d4441674d7a67754e7a6b7a49454d674d5467334c6a51314d79417a4e7934314f5451734d546b7a4c6a59324d79417a4e7934344d4441734d546b314c6a67354f43417a4f5334784e7a5567517941784f5459754f546b7a49444d354c6a67304f5377784f5467754d445135494451774c6a51774d4377784f5467754d6a5130494451774c6a51774d534244494445354f4334344e7a63674e4441754e4441794c4449774d5334344e4445674e444d754d7a4d354c4449774d7934314f5445674e4455754e7a417749454d674d6a41314c6a51344d5341304f4334794e5441734d6a41324c6a41794e6941304f4334324e7a45734d6a41304c6a6b794d7941304e6934334d6a6767517941794d444d754f444133494451304c6a63324e5377784f546b754d546734494451774c6a41774d4377784f5467754e444178494451774c6a41774d434244494445354f4334774d5451674e4441754d4441774c4445354e7934304e7a51674d7a6b754e7a4d774c4445354e7934794d4441674d7a6b754e44417749454d674d546b324c6a6b794e69417a4f5334774e7a41734d546b324c6a51334e69417a4f4334344d4441734d546b324c6a49774d43417a4f4334344d444167517941784f5455754f54493049444d344c6a67774d4377784f5455754e44633049444d344c6a557a4d4377784f5455754d6a417749444d344c6a49774d434244494445354e4334304f5445674d7a63754d7a51324c4445344e6934784d444d674d7a63754d7a4d324c4445344e4334354e7a59674d7a67754d546733494530784e4451754f44417749444d354c6a4d344e434244494445304e4334774d7a41674d7a6b754e6a67354c4445304d6934354e444d674d7a6b754f54557a4c4445304d69347a4f4455674d7a6b754f54637749454d674d5451784c6a497a4d7941304d4334774d4451734d544d334c6a67314d5341304d5334324d4441734d544d344c6a6b794f5341304d5334324d444167517941784d7a6b754d7a4530494451784c6a59774d4377784e4441754d444933494451784c6a4d314d6977784e4441754e544530494451784c6a41304f434244494445304d5334774d4445674e4441754e7a51304c4445304d6934794f4449674e4441754d7a67304c4445304d79347a4e6a41674e4441754d6a513349454d674d5451304c6a517a4e7941304d4334784d5445734d5451314c6a55314f43417a4f5334344d4445734d5451314c6a67314d43417a4f5334314e546767517941784e4459754e6a593449444d344c6a67344d4377784e544d754d44557949444d354c6a67344f4377784e5455754d6a5979494451784c6a41304e434244494445314e5334344e4459674e4445754d7a55774c4445314e6934324d5459674e4445754e6a41774c4445314e6934354e7a51674e4445754e6a417749454d674d5455334c6a4d7a4d6941304d5334324d4441734d5455334c6a63794f5341304d5334344e7a41734d5455334c6a67314e5341304d6934794d444167517941784e5463754f546779494451794c6a557a4d4377784e5467754d7a5531494451794c6a67774d4377784e5467754e6a6731494451794c6a67774d434244494445314f5334774d5455674e4449754f4441774c4445314f5334354f4459674e444d754d7a55314c4445324d4334344e444d674e4451754d444d3049454d674d5459784c6a63794d6941304e4334334d7a41734d5459794c6a49354e7941304e4334354f5467734d5459794c6a45324e4341304e4334324e446b67517941784e6a49754d444d7a494451304c6a4d774f5377784e6a45754e54677a4944517a4c6a6b794d5377784e6a45754d54597a4944517a4c6a63344f434244494445324d4334334e444d674e444d754e6a55314c4445324d4334304d4441674e444d754e4445354c4445324d4334304d4441674e444d754d6a593149454d674d5459774c6a51774d4341304d6934354f4441734d5455344c6a45324d4341304d5334334e7a55734d5455314c6a59774d4341304d4334324f444d67517941784e5445754f44413449444d354c6a41324e6977784e4463754d44513149444d344c6a51354d7977784e4451754f44417749444d354c6a4d344e43424e4d5467354c6a41774d4341304d4334794e6a4167517941784f4449754e7a4d32494451784c6a55334d4377784e7a55754e444131494451324c6a51354d5377784e7a4d754d545578494455774c6a6b774d434244494445334d6934774e7a45674e544d754d4445784c4445334d4334344d4441674e5449754f546b774c4445334d4334344d4441674e5441754f44597749454d674d5463774c6a67774d4341304f4334324d5445734d5463304c6a55304d6941304d7934344d544d734d5463334c6a45774d4341304d6934334f444967517941784e7a63754e546b31494451794c6a55344d7977784e7a67754d444177494451794c6a49794d7977784e7a67754d444177494451784c6a6b344d794244494445334f4334774d4441674e4445754d7a55324c4445334e5334334d7a4d674e444d754d4451784c4445334d79347a4f4441674e4455754e44453249454d674d5463784c6a45344e4341304e7934324d7a4d734d5463774c6a41794e6941304f5334324e7a55734d5459354c6a6b314e4341314d5334304e6a4167517941784e6a6b754f544932494455794c6a457a4e6977784e6a6b754f444d7a494455794c6a4d784e5377784e6a6b754e7a4930494455784c6a6b774d434244494445324f5334324d6a51674e5445754e5445314c4445324f53347a4e7a63674e5445754d6a41774c4445324f5334784e7a59674e5445754d6a417749454d674d5459344c6a6b334e6941314d5334794d4441734d5459344c6a4d784e5341314d4334304d7a55734d5459334c6a63774e7941304f5334314d444167517941784e6a63754d544177494451344c6a55324e5377784e6a59754d6a5135494451334c6a557a4d4377784e6a55754f444531494451334c6a49774d434244494445324e4334784e6a49674e4455754f54517a4c4445324d6934344d4441674e4455754d6a49334c4445324d6934344d4441674e4455754e6a453249454d674d5459794c6a67774d4341304e5334344d7a67734d54597a4c6a497a4f4341304e6934784f4463734d54597a4c6a63334e4341304e69347a4f544167517941784e6a51754f544d78494451324c6a677a4d4377784e6a59754f444177494451344c6a4d354d4377784e6a59754f444177494451344c6a6b784e534244494445324e6934344d4441674e446b754d5445344c4445324e79347a4d5451674e446b754f5451784c4445324e7934354e444d674e5441754e7a517949454d674d5459344c6a55334d6941314d5334314e4451734d5463774c6a45314f5341314e4334774d4441734d5463784c6a51334d4341314e6934794d444167517941784e7a63754d445533494459314c6a55334f4377784e7a63754d44637a494459324c6a45354e7977784e7a45754e6a6b31494459304c6a67794e434244494445324f5334354d546b674e6a51754d7a63784c4445324e7934334e5451674e6a51754d4441774c4445324e6934344f4449674e6a51754d44417749454d674d5459324c6a41784d5341324e4334774d4441734d5459304c6a59774e7941324d7934334d5445734d54597a4c6a63324d7941324d79347a4e546b67517941784e6a49754d6a6332494459794c6a637a4e7977784e5467754d6a4135494459794c6a63334e7977784e5463754d5459304944597a4c6a51794d694244494445314e6934354e4449674e6a4d754e5455354c4445314e5334784f5451674e6a4d754f5441334c4445314d7934794f4441674e6a51754d546b3149454d674d5451334c6a41324e5341324e5334784d7a45734d54517a4c6a67794d7941324e6934304d6a51734d5451774c6a59774d7941324f5334794e544567517941784d7a67754f444933494463774c6a67784d4377784d7a63754d7a5532494463774c6a4d784f5377784d7a63754e7a5977494459344c6a4d774d5342444944457a4f5334774d4467674e6a49754d4459784c4445314e7934774f546b674e5463754e4459344c4445324e7934774d4441674e6a41754f44633449454d674d5463774c6a45794e6941324d5334354e5455734d5463784c6a63774d6941324d53347a4f5459734d5463774c6a51334e5341314f5334324e445967517941784e7a41754d6a4932494455354c6a49354d5377784e6a6b754e7a5132494455344c6a51324d4377784e6a6b754e444135494455334c6a67774d434244494445324f5334774e7a49674e5463754d5451774c4445324e7934314d5445674e5455754d7a51774c4445324e5334354e4445674e544d754f44417749454d674d5459304c6a4d334d5341314d6934794e6a41734d5459794c6a4d334e5341314d4334774e6a41734d5459784c6a55774e4341304f4334354d544967517941784e6a41754d445579494451324c6a6b354e5377784e5459754f444578494451304c6a51774d4377784e5455754f446377494451304c6a51774d434244494445314e5334324e5451674e4451754e4441774c4445314e4334304e7a41674e444d754f5445344c4445314d7934794d7a6b674e444d754d7a493549454d674d5451354c6a59794f4341304d5334324d4441734d5451314c6a41354f5341304d5334324e5467734d5451784c6a59774d4341304d7934304e7a5967517941784e4445754d4455774944517a4c6a63324d5377784e4441754d6a6b324944517a4c6a6b354e6977784d7a6b754f5449304944517a4c6a6b354f4342444944457a4f5334314e5449674e444d754f546b354c44457a4f5334784d6a55674e4451754d546b334c44457a4f4334354e7a59674e4451754e444d3549454d674d544d344c6a67794e7941304e4334324f4441734d544d334c6a51344d7941304e5334324e6a67734d544d314c6a6b344f5341304e6934324d7a5167517941784d6a63754e7a5533494455784c6a6b324d4377784d6a45754e544579494459784c6a6b784e6977784d5467754f5455784944637a4c6a67774d434244494445784e7934324e4449674e7a6b754f4459344c4445784e5334324d4459674f4463754e4455354c4445784e5334774e544d674f4467754d7a493549454d674d5445304c6a4d344d7941344f53347a4f444d734d54457a4c6a51324e7941344e79347a4e5463734d54457a4c6a6b324e6941344e5334354d6a5567517941784d5451754d6a4131494467314c6a49304d4377784d5451754e444132494467304c6a45794d6977784d5451754e44457a4944677a4c6a51304d434244494445784e4334304d6a41674f4449754e7a55344c4445784e4334324f5441674f4445754f4455784c4445784e5334774d544d674f4445754e44493049454d674d5445314c6a4d344d6941344d4334354d7a55734d5445314c6a59774d4341334f5334334d6a6b734d5445314c6a59774d4341334f4334784e7a4d67517941784d5455754e6a4177494463324c6a55334d5377784d5455754e7a6b79494463314c6a557a4f4377784d5459754d545132494463314c6a49304e534244494445784e6934304e5459674e7a51754f5467344c4445784e6934334f4449674e7a4d754e6a55344c4445784e6934354d4449674e7a49754d54553549454d674d5445334c6a41784f5341334d4334334d5445734d5445334c6a4d784d7941324f53347a4d6a63734d5445334c6a55314e7941324f5334774f444d67517941784d5463754f444178494459344c6a677a4f5377784d5463754f546734494459344c6a45344d5377784d5463754f546330494459334c6a59794d434244494445784e7934354d6a63674e6a55754f4451304c4445784e6934304e5455674e7a41754f4449794c4445784e6934304d6a59674e7a49754f44557849454d674d5445324c6a51784d4341334d7934354f4445734d5445324c6a45324e6941334e4334344f5459734d5445314c6a67774d4341334e5334794d444167517941784d5455754e444178494463314c6a557a4d5377784d5455754d6a4177494463324c6a51794f4377784d5455754d6a4177494463334c6a67334e534244494445784e5334794d4441674e7a6b754d44637a4c4445784e4334354f4455674f4441754e4451324c4445784e4334334d6a4d674f4441754f54493249454d674d5445304c6a41774e6941344d6934794e4441734d54457a4c6a55774f4341344e5334304f4441734d54457a4c6a55334d4341344f4334304d6a5567517941784d544d754e6a453349446b774c6a59794f5377784d544d754e44593049446b784c6a49344f5377784d5449754e6a457a49446b794c6a55304d794244494445784d6934774e5459674f544d754d7a59304c4445784d5334324d4441674f5451754e44677a4c4445784d5334324d4441674f5455754d444d7849454d674d5445784c6a59774d4341354e5334314e7a67734d5445784c6a4d7a4d4341354e6934324e7a49734d5445784c6a41774d4341354e7934304e6a4967517941784d5441754e6a637749446b344c6a49314d5377784d5441754e44493149446b354c6a637a4d5377784d5441754e445532494445774d4334334e446b67544341784d5441754e54457a494445774d6934324d4441674d5445774c6a63354d5341784d4441754e6a417749454d674d5445774c6a6b304e4341354f5334314d4441734d5445784c6a49334f5341354f4334774f544d734d5445784c6a557a4e5341354e7934304e7a5167517941784d5445754e7a6b7849446b324c6a67314e5377784d5449754d44413249446b314c6a67324e5377784d5449754d44453049446b314c6a49334e434244494445784d6934774d6a49674f5451754e6a677a4c4445784d6934304f444d674f544d754e6a59774c4445784d7934774d7a6b674f544d754d444177494577674d5445304c6a41304f5341354d5334344d4441674d54457a4c6a67344d4341354e4334774d444167517941784d544d754e6a553349446b324c6a6b774e7977784d5449754f544179494445774d6934314f4449734d5445794c6a45334e7941784d4459754f44417749454d674d5445784c6a67314e5341784d4467754e6a63774c4445784d5334314d5441674d5445794c6a41784e6977784d5445754e444578494445784e4334794d7a5567517941784d5445754d7a4578494445784e6934304e5455734d5445784c6a41304d7941784d5467754e7a59784c4445784d4334344d5455674d5445354c6a4d324d534244494445784d4334314f4463674d5445354c6a6b324d5377784d5441754e444177494445794d5334344d4441734d5445774c6a51774d4341784d6a4d754e44513349454d674d5445774c6a51774d4341784d6a55754d446b304c4445784d4334784d7a4d674d5449334c6a59304f4377784d446b754f444133494445794f5334784d6a4567517941784d446b754e4467784944457a4d4334314f5451734d5441354c6a457a4e5341784d7a51754d5451774c4445774f5334774d7a67674d544d334c6a41774d434244494445774f4334344e4451674d5451794c6a63794d6977784d4467754e546b79494445304e4334304d7a41734d5441334c6a67334e6941784e4451754f44673149454d674d5441334c6a41334e5341784e4455754d7a6b314c4445774e6934344d4441674d5451314c6a49304d4377784d4459754f444177494445304e4334794f444167517941784d4459754f444177494445304d6934794d4451734d5441314c6a497a4d4341784e4445754f5441784c4445774d6934794d4441674d54517a4c6a4d354d534244494445774d5334784d4441674d54517a4c6a6b7a4d6977784d4441754d445130494445304e43347a4f4445734f546b754f445530494445304e43347a4f446367517941354f5334314e4449674d5451304c6a4d354f5377354f4334774d7a59674d5451314c6a4d7a4e5377354d6934304d4441674d5451354c6a41794d69424449446b784c6a51784d4341784e446b754e6a63774c446b774c6a49324e6941784e5441754d7a4d324c4467354c6a67314e7941784e5441754e54417a49454d674f4459754d7a6332494445314d5334354d6a4d734e7a6b754e6a6730494445314e7934784d4445734e7a4d754e44637a494445324d7934784f444567517941324e4334794e5451674d5463794c6a49774e7977324d5334324d5441674d5463304c6a6b354d4377324d5334324d4455674d5463314c6a59334d794244494459784c6a55354f4341784e7a59754e6a6b794c4455354c6a51334e4341784e7a67754d4441774c4455334c6a67794f4341784e7a67754d44417749454d674e5459754d544d32494445334f4334774d4441734e5445754d6a5133494445334f5334794d5449734e4459754d7a5178494445344d4334344e446367517941304e4334304d7a6b674d5467784c6a51344d5377304d6934324f444d674d5467794c6a41774d4377304d6934304d7a6b674d5467794c6a41774d434244494451794c6a45354e5341784f4449754d4441774c4451784c6a41324d7941784f4449754e4455774c444d354c6a6b794d7941784f444d754d44417749454d674d7a67754e7a677a494445344d7934314e5441734d7a63754e545935494445344e4334774d4459734d7a63754d6a4931494445344e4334774d5451675179417a4e6934344f4445674d5467304c6a41794d53777a4e5334344f4441674d5467304c6a4d334e53777a4e5334774d4441674d5467304c6a67774d43424449444d304c6a45794d4341784f4455754d6a49314c444d7a4c6a45334d6941784f4455754e5463354c444d794c6a67354e4341784f4455754e54673249454d674d7a49754d445130494445344e5334324d446b734d6a49754e444134494445354d4334324f5451734d5467754f444177494445354d7934774d6a5167517941784e6934354d7a41674d546b304c6a497a4d6977784e4334354e5445674d546b314c6a51774f4377784e4334304d4449674d546b314c6a597a4e7942444944457a4c6a67314d7941784f5455754f4459334c4445794c6a63334d7941784f5459754e544d344c4445794c6a41774d6941784f5463754d54493349454d674d5445754d6a4d78494445354e7934334d5463734f5334354e7a41674d546b344c6a557a4e5377354c6a49774d4341784f5467754f54513149454d674f4334304d7a41674d546b354c6a4d314e5377334c6a41314d4341794d4441754d7a41774c4459754d544d7a494449774d5334774e445567517941314c6a49784e6941794d4445754e7a6b774c4451754d6a6732494449774d6934304d4441734e4334774e6a59674d6a41794c6a51774d43424449444d754f445132494449774d6934304d4441734d7934324d4463674d6a41794c6a557a4e69777a4c6a557a4d7941794d4449754e7a417a49454d674d7934304e6a41674d6a41794c6a67334d4377794c6a597a4e5341794d444d754e6a41314c4445754e7a4177494449774e43347a4d7a6367517941774c6a63324e5341794d4455754d4459344c4441754d444177494449774e5334354e4445734d4334774d4441674d6a41324c6a49334e534244494441754d444177494449774e6934334d4441734d4334304d6a4d674d6a41324c6a55784d6977784c6a51774e5341794d4455754e6a513549454d674d6934784e7a67674d6a41304c6a6b334d43777a4c6a4d7a4d6941794d4451754d5451314c444d754f545935494449774d7934344d545967517941304c6a59774e6941794d444d754e4467324c4455754d546735494449774d7934774e7a67734e5334794e6a51674d6a41794c6a6b774f434244494455754e445931494449774d6934304e5449734f4334324f5463674d6a41774c6a41774d4377354c6a41354e7941794d4441754d44417749454d674f5334794f4459674d6a41774c6a41774d4377784d5334794d4463674d546b344c6a677a4e6977784d79347a4e6a55674d546b334c6a51784d794244494445314c6a55794e4341784f5455754f546b774c4445334c6a597a4d4341784f5451754e7a45344c4445344c6a41304e5341784f5451754e54673249454d674d5467754e445977494445354e4334304e5451734d5467754f444177494445354e4334784f5467734d5467754f444177494445354e4334774d545967517941784f4334344d4441674d546b7a4c6a677a4e5377784f5334794e4463674d546b7a4c6a55334e5377784f5334334f544d674d546b7a4c6a517a4f434244494449774c6a4d7a4f5341784f544d754d7a41784c4449784c6a4d334e4341784f5449754e6a6b324c4449794c6a41354d7941784f5449754d446b3049454d674d6a49754f444579494445354d5334304f5449734d6a51754e546377494445354d4334304d7a4d734d6a59754d444177494445344f5334334e444167517941794e7934304d7a41674d5467354c6a41304e6977794f5334324f4441674d5467334c6a6b304e79777a4d5334774d4441674d5467334c6a49354e69424449444d794c6a4d794d4341784f4459754e6a51314c444d304c6a51344d4341784f4455754f4445314c444d314c6a67774d4341784f4455754e44557849454d674d7a63754d544977494445344e5334774f4467734d7a67754f544977494445344e4334304e4455734d7a6b754f444177494445344e4334774d6a5567517941304d4334324f4441674d54677a4c6a59774e4377304d6934304e6a55674d5467794c6a6b314d4377304d7934334e6a59674d5467794c6a55334d694244494451314c6a41324e7941784f4449754d546b7a4c4451324c6a55354e7941784f4445754e6a51784c4451334c6a45324e6941784f4445754d7a513049454d674e4463754e7a4d31494445344d5334774e4467734e4467754e446778494445344d4334344d4451734e4467754f444931494445344d4334344d444967517941304f5334344e7a4d674d5467774c6a63354f4377314e5334334e7a55674d5463354c6a45324f5377314e6934784f4441674d5463344c6a63334d694244494455324c6a4d344f5341784e7a67754e5459344c4455334c6a55774d5341784e7a67754e4441774c4455344c6a59314d5341784e7a67754e44417749454d674e6a41754f446332494445334f4334304d4441734e6a49754d444177494445334e7934334d7a4d734e6a49754d444177494445334e6934304d545167517941324d6934774d4441674d5463324c6a41784d7977324d6934794e7a41674d5463314c6a55344d6977324d6934324d4441674d5463314c6a51314e534244494459794c6a6b7a4d4341784e7a55754d7a49354c44597a4c6a49774d4341784e7a55754d44597a4c44597a4c6a49774d4341784e7a51754f44593249454d674e6a4d754d6a4177494445334e4334324e6a67734e6a55754d7a6b33494445334d69347a4e6a67734e6a67754d44677a494445324f5334334e544d67517941334d4334334e6a67674d5459334c6a457a4f5377334e4334774e544d674d54597a4c6a67314d6977334e53347a4f444d674d5459794c6a51304f534244494463324c6a63784d6941784e6a45754d4451314c4463344c6a63774d4341784e546b754d6a457a4c4463354c6a67774d4341784e5467754d7a633349454d674f4459754e7a4935494445314d7934784d5445734f4459754e6a5177494445314d7934784e7a49734f446b754e6a4177494445314d5334324f446367517941354d4334344d5441674d5455784c6a41344d4377354d6934344e6a45674d5451354c6a67324e7977354e4334784e5463674d5451344c6a6b354d53424449446b344c6a55344d6941784e4459754d4441304c446b344c6a457a4d5341784e4459754d6a59794c4445774d7934304e4467674d54517a4c6a59344d434244494445774e4334354d544d674d5451794c6a6b324f5377784d4459754d444177494445304d7934794e5459734d5441324c6a41774d4341784e4451754d7a553149454d674d5441324c6a41774d4341784e4451754e7a67304c4445774e6934784d446b674d5451314c6a51784f5377784d4459754d6a517a494445304e5334334e6a6367517941784d4459754e444931494445304e6934794e444d734d5441324c6a497a4d5341784e4459754e4441774c4445774e5334304e5463674d5451324c6a51774d434244494445774d7934324d4459674d5451324c6a51774d4377784d4449754e445577494445314d69347a4d7a49734d54417a4c6a6b304f5341784e5451754d544d3449454d674d5441314c6a6b344d6941784e5459754e5467344c4445774f4334354e4445674d5455784c6a49334e6977784d4463754e6a4d30494445304e7934314d6a5567517941784d4463754d6a6335494445304e6934314d4459734d5441334c6a4d304d4341784e4459754d7a45354c4445774f4334784e5455674d5451314c6a6b304f434244494445774f53347a4d5449674d5451314c6a51794d4377784d446b754f546b7a494445304d6934314d7a51734d5445774c6a45334d4341784d7a63754e44417749454d674d5445774c6a51334d5341784d6a67754e6a67324c4445784d4334354d7a45674d5449784c6a4d324f5377784d5445754d6a4179494445794d5334774d444167517941784d5445754e6a5532494445794d43347a4f4445734d5445794c6a4d7a4e6941784d5459754e7a63354c4445784d69347a4d7a55674d5445314c6a41774d434244494445784d69347a4d7a4d674d5445784c6a677a4f4377784d544d754d6a5979494445774d79347a4e4455734d54457a4c6a6b784d4341784d4441754e6a417749454d674d5445304c6a4d774f4341354f4334354d5459734d5445304c6a55314f4341354e6934794e4459734d5445304c6a557a4f4341354d7934354d444167517941784d5451754e54497749446b784c6a63314e5377784d5451754e6a553349446b774c6a41774d4377784d5451754f44517949446b774c6a41774d434244494445784e53347a4e544d674f5441754d4441774c4445784e6934304e7a67674f4463754e6a51304c4445784e7934774d7a67674f4455754e44417749454d674d5445334c6a4d784d6941344e43347a4d4441734d5445334c6a677a4d7941344d6934304d5441734d5445344c6a45354e5341344d5334794d444167517941784d5467754e545534494463354c6a6b354d4377784d546b754d444531494463334c6a67334e4377784d546b754d6a4579494463324c6a51354f434244494445784f5334304d4467674e7a55754d5449794c4445784f5334344e4459674e7a4d754d5467784c4445794d4334784f4455674e7a49754d54673049454d674d5449774c6a55794d7941334d5334784f4467734d5449774c6a67774d5341334d4334774e6a4d734d5449774c6a67774d6941324f5334324f445967517941784d6a41754f444130494459344c6a67334e4377784d6a49754d7a6377494459304c6a6b7a4d5377784d6a4d754d6a4d304944597a4c6a55324d534244494445794d7934314e6a67674e6a4d754d444d794c4445794e43347a4e5459674e6a45754e444d774c4445794e4334354f4459674e6a41754d44417749454d674d5449324c6a6b7a4d7941314e5334314f444d734d544d324c6a63314f5341304e5334324d4441734d544d354c6a45324d4341304e5334324d444167517941784d7a6b754d7a4530494451314c6a59774d4377784d7a6b754e6a4d33494451314c6a51774d7977784d7a6b754f446334494451314c6a45324d694244494445304d5334344d7a41674e444d754d6a45774c4445304f4334354e5467674e4449754d6a55334c4445314d5334334e5459674e444d754e54637a49454d674d5455354c6a45794f4341304e7934774e4441734d5455344c6a63344d7941304e6934344d444d734d5459784c6a59794e7941314d43347a4f444967517941784e6a4d754d544535494455794c6a49324d6977784e6a51754f546b77494455304c6a4d774e7977784e6a55754e7a6779494455304c6a6b794e794244494445324e6934314e7a55674e5455754e5451324c4445324e7934334d544d674e5459754f4441324c4445324f43347a4d5449674e5463754e7a493349454d674d5459344c6a6b784d4341314f4334324e4463734d5459354c6a557a4e5341314f5334304e6a41734d5459354c6a63774d4341314f5334314d7a4d67517941784e6a6b754f445931494455354c6a59774e7977784e7a41754d444177494455354c6a6b794d6977784e7a41754d444177494459774c6a497a4d794244494445334d4334774d4441674e6a45754e444d334c4445324f4334784e7a49674e6a41754e6a49324c4445324e5334344d4441674e5467754d7a637749454d674d5459304c6a6b794d4341314e7934314d7a4d734d54597a4c6a49324e5341314e5334354e4467734d5459794c6a45794d6941314e4334344e446767517941784e5467754d6a6378494455784c6a45304d4377784e5459754e544532494455774c6a59324e5377784e5463754e7a63794944557a4c6a59334d434244494445314f4334314e4445674e5455754e5445794c4445314e7934354d4441674e5463754f5441324c4445314e6934304f5455674e5467754e44517749454d674d54557a4c6a6b314d5341314f5334304d4463734d5455794c6a41774d4341314f43347a4d7a63734d5455794c6a41774d4341314e5334354e7a5167517941784e5449754d444177494455314c6a4d354e7977784e5445754e545531494455304c6a457a4d7977784e5445754d4445784944557a4c6a45324d794244494445314d4334304e6a59674e5449754d546b7a4c4445304f5334304e5467674e5441754d6a6b314c4445304f4334334e6a6b674e4467754f54513149454d674d5451324c6a63794d6941304e4334354d7a4d734d5451784c6a55334e5341304e43347a4e7a51734d544d354c6a41334e6941304e7934344f545167517941784d7a67754d7a6330494451344c6a67344d7977784d7a59754e6a4d77494455774c6a67344e7977784d7a55754d6a4177494455794c6a4d304e6942444944457a4d5334304d4467674e5459754d6a45324c44457a4d4334314d6a59674e5463754e44457a4c4445794f5334334e6a49674e546b754e7a493149454d674d5449354c6a4d344e4341324d4334344e6a59734d5449344c6a59314e4341324d6934304e7a45734d5449344c6a457a4f4341324d7934794f544967517941784d6a63754e6a4979494459304c6a45784d7977784d6a63754d6a4177494459314c6a41314e4377784d6a63754d6a4177494459314c6a4d344d794244494445794e7934794d4441674e6a55754e7a45794c4445794e6934324e6a55674e6a59754f5463784c4445794e6934774d5441674e6a67754d54677849454d674d5449314c6a4d314e6941324f53347a4f5441734d5449304c6a55314e4341334d5334304d546b734d5449304c6a49794f4341334d6934324f544167517941784d6a4d754e6a5977494463304c6a6b774e4377784d6a49754d446730494463354c6a67304e7977784d6a45754d444130494467794c6a67774d434244494445784f5334314f446b674f4459754e6a59324c4445784f4334304d4441674f5445754e7a63354c4445784f4334304d4441674f544d754f546b3149454d674d5445344c6a51774d4341354e5334334d444d734d5445344c6a45304d6941354e6934354d7a59734d5445334c6a557a4f4341354f4334784d545967517941784d5463754d44593049446b354c6a41304d6977784d5459754e6a4d78494445774d4334314d6a41734d5445324c6a55334e7941784d4445754e44417749454d674d5445324c6a55794d6941784d4449754d6a67774c4445784e6934794f4441674d5441304c6a41344d4377784d5459754d444d34494445774e5334304d444167517941784d5455754e7a4532494445774e7934784e5455734d5445314c6a63784f4341784d4467754d446b7a4c4445784e6934774e4451674d5441344c6a67354d534244494445784e6934794f446b674d5441354c6a51354d5377784d5459754d7a6b33494445784d4334314e7a45734d5445324c6a49344d7941784d5445754d6a6b7849454d674d5445314c6a51314d4341784d5459754e5463774c4445784e5334784e5459674d5445344c6a41794d7977784d5451754e6a4531494445784f5334314e546b67517941784d5451754d6a6333494445794d4334314d5463734d5445304c6a41774d4341784d6a49754e4459774c4445784e4334774d4441674d54497a4c6a67334e794244494445784e4334774d4441674d5449314c6a49354d7977784d544d754e7a6777494445794e6934344e4459734d54457a4c6a55784d6941784d6a63754d7a493249454d674d54457a4c6a45334d4341784d6a63754f544d344c4445784d7934774e6a4d674d544d774c6a41794d4377784d544d754d5455304944457a4e4334794e7a4167517941784d544d754d6a55344944457a4f5334774f546b734d54457a4c6a45314d4341784e4441754e7a51314c4445784d6934324d6a59674d5451794c6a4d794d694244494445784d5334354f5459674d5451304c6a49784f4377784d5449754d44417a494445304e43347a4f546b734d5445794c6a63344d7941784e4459754e44557a49454d674d54457a4c6a6b354d7941784e446b754e6a4d314c4445784d7934344e6a63674d5455774c6a55354f4377784d5449754d444177494445314d6934304e446367517941784d5441754e6a5530494445314d7934334f4441734d5445774c6a51774d4341784e5451754d6a6b774c4445784d4334304d4441674d5455314c6a59324d794244494445784d4334304d4441674d5459784c6a41324e7977784d444d754f545531494445324d5334334f4467734d5441784c6a41354f4341784e5459754e7a417a49454d674d5441774c6a55334d7941784e5455754e7a63774c446b354c6a6b314e7941784e5455754d6a41774c446b354c6a51334e5341784e5455754d6a417749454d674f5467754e445131494445314e5334794d4441734f5445754d7a6333494445314f4334324e5467734f446b754e6a4177494445324d4334774d7a4567517941344f4334344d7a41674d5459774c6a59794e6977344e7934314d546b674d5459784c6a4d794f4377344e6934324f4459674d5459784c6a55354d694244494467314c6a67314d7941784e6a45754f4455324c4467304c6a6b774e7941784e6a49754e4463324c4467304c6a55344d7941784e6a49754f54637749454d674f444d754e6a6b30494445324e43347a4d6a63734f4441754e7a6b79494445324e6934794e6a51734e7a67754f446330494445324e6934334f444167517941334e7934314d7a4d674d5459334c6a45304d5377334e7934774d6a67674d5459334c6a557a4e4377334e6934314d5449674d5459344c6a59784e694244494463324c6a45314d5341784e6a6b754d7a637a4c4463314c6a557a4e6941784e7a41754d446b7a4c4463314c6a45304e5341784e7a41754d6a453449454d674e7a51754e544579494445334d4334304d5467734e7a49754e7a5930494445334d6934304e4449734e7a41754e6a6b78494445334e53347a4e7a4d67517941334d43347a4d4441674d5463314c6a6b794e4377324f4334354e546b674d5463324c6a6b334d7977324e7934334d446b674d5463334c6a63774d794244494459314c6a63334e4341784e7a67754f444d304c4459314c6a49794d4341784e7a6b754e4451774c44597a4c6a6b344d7941784f4445754e7a633549454d674e6a45754e544d35494445344e6934304d4449734e6a45754f44417a494445344e69347a4d546b734e544d754d446330494445344e5334784f544167517941314d4334784e6a41674d5467304c6a67784d6977304f4334334f4445674d5467304c6a63354e5377304e7934334d6a41674d5467314c6a45794d434244494451324c6a59794d5341784f4455754e4455334c4451314c6a6b794e5341784f4455754e444d7a4c4451304c6a63774f5341784f4455754d44457a49454d674e444d754d546b77494445344e4334304f5441734e444d754d444979494445344e4334314d6a4d734e4441754e544133494445344e5334344d7a51675179417a4f5334774e6a55674d5467324c6a55344e53777a4e7934324d4467674d5467334c6a49774d43777a4e7934794e6a6b674d5467334c6a49774d43424449444d324c6a6b794f5341784f4463754d6a41774c444d324c6a49334e5341784f4463754e5455304c444d314c6a67784e5341784f4463754f54673249454d674d7a51754f446b32494445344f4334344e446b734d7a49754d444535494445354d4334314e4463734d7a41754d7a4532494445354d5334794d7a4567517941794f5334334d6a41674d546b784c6a51334d5377794f5334784d7a41674d546b784c6a6b354d5377794f5334774d4451674d546b794c6a4d344f434244494449344c6a63304e7941784f544d754d546b344c4449324c6a6b7a4d4341784f5451754e446b354c44497a4c6a51304d7941784f5459754d7a637749454d674d6a49754d545133494445354e7934774e6a59734d6a41754e445178494445354f4334784e6a63734d546b754e6a5579494445354f4334344d546767517941784f4334344e6a4d674d546b354c6a51324f4377784f4334774d5451674d6a41774c6a41774d4377784e7934334e6a51674d6a41774c6a41774d434244494445334c6a55784e5341794d4441754d4441774c4445314c6a63334e4341794d4441754e7a49774c44457a4c6a67354e6941794d4445754e6a417749454d674d5449754d444535494449774d6934304f4441734d5441754d6a597a494449774d7934794d4441734f5334354f5455674d6a417a4c6a49774d43424449446b754e44637a494449774d7934794d4441734e6934304d4441674d6a41324c6a4d344d7977324c6a51774d4341794d4459754f54493049454d674e6934304d4441674d6a41334c6a45774d6977304c6a6b324d4341794d4467754e6a67344c444d754d6a4177494449784d4334304e446767544341774c6a41774d4341794d544d754e6a5134494441754d444177494449794f5334324d6a5167544341774c6a41774d4341794e4455754e6a4177494441754f545578494449304e5334324d444167517941784c6a51334e4341794e4455754e6a41774c4449754e544135494449304e53347a4e5441734d7934794e5445674d6a51314c6a41304e434244494455754e6a4535494449304e4334774e6a6b734f4334324e5441674d6a517a4c6a677a4d6977344c6a6b304e4341794e4451754e546b3549454d674f5334304d5451674d6a51314c6a67794e4377344c6a55794d6941794e4459754e6a6b794c4459754e544578494449304e6934354e6a63675179417a4c6a51304d6941794e4463754d7a67324c4330774c6a41774d4341794e4467754e54417a4c4330774c6a41774d4341794e446b754d44633549454d674c5441754d444177494449304f5334304e544d734d4334794d4455674d6a51354c6a55774d5377774c6a63774d4341794e446b754d6a513249454d674d5334304e446b674d6a51344c6a67324d4377304c6a67794e5341794e4467754d4467334c4463754d7a4933494449304e7934334d6a6b67544341344c6a67314e4341794e4463754e544578494467754e7a4933494449304f5334774e545567517941344c6a59774d5341794e5441754e5467354c4467754e546731494449314d4334324d4449734e6934324d4441674d6a55774c6a677a4e794244494455754e544177494449314d4334354e6a67734d7934354d7a45674d6a55784c6a4d334d79777a4c6a45784d7941794e5445754e7a4d3349454d674d6934794f5455674d6a55794c6a45774d6977784c6a49324d4341794e5449754e4441774c4441754f44457a494449314d6934304d444167544341774c6a41774d4341794e5449754e444177494441754d44417749444d794e6934794d444167544341774c6a41774d4341304d4441754d444177494449334c6a41774d4341304d4441754d44417749454d674e5459754d544d32494451774d4334774d4441734e5451754f544d7a494451774d4334774f5451734e544d754d6a557749444d354e7934354e545167517941314d6934344d7a63674d7a6b334c6a51794f5377314d6934794d4451674d7a6b324c6a457a4d5377314d5334344e4451674d7a6b314c6a41324f534244494455784c6a51344d79417a4f5451754d4441334c4455774c6a6b794d53417a4f5449754e6a49784c4455774c6a55354e43417a4f5445754f54673549454d674e5441754d6a593349444d354d53347a4e5463734e5441754d44417749444d354d4334304e7a45734e5441754d44417749444d354d4334774d6a4167517941314d4334774d4441674d7a67354c6a55324f5377304f5334344d7a67674d7a67354c6a49774d4377304f5334324d7a6b674d7a67354c6a49774d434244494451344c6a6b784d53417a4f446b754d6a41774c4451334c6a59774d43417a4f444d754e7a45324c4451334c6a59774d43417a4f4441754e6a637849454d674e4463754e6a417749444d334f4334354e5459734e4463754e44497949444d334e7934324d4463734e4463754d54673249444d334e7934314d6a6b67517941304e6934794d6a45674d7a63334c6a49774e7977304e5334304f544d674d7a637a4c6a55324f4377304e5334784d546b674d7a59334c6a49774d434244494451304c6a63784d53417a4e6a41754d6a51794c4451304c6a59314f53417a4e6a41754d4451774c4451794c6a41334d69417a4e5455754e44417749454d674e4441754d6a413149444d314d6934774e5441734d7a63754e6a417749444d304e4334794f4467734d7a63754e6a417749444d304d6934774e7a4d675179417a4e7934324d4441674d7a51784c6a45784d43777a4e79347a4d4445674d7a51774c6a45784f53777a4e6934344d7a59674d7a4d354c6a55304e69424d49444d324c6a41334d79417a4d7a67754e6a417a49444d314c6a55334e69417a4d7a6b754f44417849454d674d7a51754d7a457749444d304d6934344e5445734d6a59754f54457749444d314e7934304f444d734d6a59754d54633149444d314f43347a4f445967517941794e5334794e546b674d7a55354c6a55784e4377794d7934784e7a4d674d7a59794c6a6b334d7977794d6934324f4451674d7a59304c6a45334f534244494449794c6a4d344f43417a4e6a51754f5441344c4449774c6a45324d69417a4e6a67754e5449314c4445304c6a677a4f43417a4e7a59754f544d3049454d674d544d754e6a413349444d334f4334344e7a63734d5445754e7a453349444d344d5334324e6a63734d5441754e6a4d3349444d344d7934784d7a5167517941354c6a55314f43417a4f4451754e6a41774c4467754d544d7a49444d344e6934334d4441734e7934304e7a49674d7a67334c6a67774d434244494455754d6a4d3549444d354d5334314d5449734e4334774d7a6b674d7a6b794c6a4d324f43777a4c6a49784f53417a4f5441754f444d3249454d674d6934344f5445674d7a6b774c6a49794d79777a4c6a41344d69417a4f446b754e6a6b774c4451754d54673049444d344f4334784d7a5967517941334c6a4d784e69417a4f444d754e7a49794c44457a4c6a45774d43417a4e7a51754e6a49354c44457a4c6a597a4d43417a4e7a4d754d6a673349454d674d5451754d54457a49444d334d6934774e6a49734d546b754f446b7749444d324d6934314e6a41734d6a45754d6a497849444d324d4334344d444167517941794d5334344d444d674d7a59774c6a417a4d4377794d6934314f4459674d7a55344c6a55314f5377794d6934354e6a45674d7a55334c6a557a4d6942444944497a4c6a4d7a4e69417a4e5459754e5441304c44497a4c6a6b774d79417a4e5455754e4451334c4449304c6a49794d53417a4e5455754d54677a49454d674d6a51754e544d3549444d314e4334354d5467734d6a51754f44417749444d314e4334314e6a59734d6a51754f44417749444d314e43347a4f546b67517941794e4334344d4441674d7a55304c6a497a4d7977794e5334304d7a6b674d7a557a4c6a41304d4377794e6934794d6a45674d7a55784c6a63304f434244494449344c6a59334e69417a4e4463754e6a6b784c444d794c6a517a4e79417a4d7a6b754e6a41774c444d7a4c6a67304e69417a4d7a55754d7a513249454d674d7a55754d7a637749444d7a4d4334334e4445734d7a55754e44597849444d794f5334784f5455734d7a51754e7a6b3449444d784f5334794d4441675179417a4e4334784d6a67674d7a41354c6a45774f43777a4d7934354d6a6b674d6a6b324c6a41784e69777a4e4334304d4441674d6a6b7a4c6a41774d43424449444d304c6a59304d5341794f5445754e4459774c444d304c6a6b354f4341794f4467754d7a45774c444d314c6a45354d7941794f4459754d44417749454d674d7a55754e544578494449344d6934794d7a51734d7a59754e544930494449334e69347a4e7a45734d7a59754f546730494449334e5334324d6a59675179417a4e7934774f4445674d6a63314c6a51334d43777a4e79347a4e4455674d6a63304c6a49334e53777a4e7934314e7a49674d6a63794c6a6b334d53424449444d344c6a41314d6941794e7a41754d6a45334c4451774c6a41334d7941794e6a49754f444d354c4451774c6a6b774e6941794e6a41754f44417749454d674e4449754f544131494449314e5334354d5441734e444d754d7a5532494449314e53347a4e4449734e4451754f445532494449314e5334344d546767517941304e6934774d7a4d674d6a55324c6a45354d5377304e5334344e4463674d6a55334c6a59304d4377304e4334774d5449674d6a59794c6a51774d434244494451774c6a59304d5341794e7a45754d54517a4c444d354c6a41354d7941794e7a63754e6a51334c444d334c6a6b324f5341794f4463754f44417749454d674d7a63754e445530494449354d6934304e446b734d7a63754e446b3249444d794d5334774d7a41734d7a67754d44493049444d794e6934774d4441675179417a4f4334794e7a41674d7a49344c6a4d784d43777a4f4334314d5459674d7a4d784c6a497a4f53777a4f4334314e7a45674d7a4d794c6a55774f43424449444d344c6a59304d79417a4d7a51754d5467324c444d344c6a67324e69417a4d7a51754f5459774c444d354c6a4d344f43417a4d7a55754d7a517949454d674d7a6b754f446b7749444d7a4e5334334d446b734e4441754d546b3549444d7a4e6934324f5459734e4441754e44453549444d7a4f4334324d7a4d67517941304d4334354d6a55674d7a517a4c6a41354e4377304d6934784d5441674d7a51334c6a49344e4377304d7934334d5455674d7a55774c6a49344d434244494451304c6a41354d69417a4e5441754f5467304c4451304c6a51774d43417a4e5445754e7a4d7a4c4451304c6a51774d43417a4e5445754f54513149454d674e4451754e44417749444d314d6934314d6a6b734e4463754e54633249444d314e7934354e6a51734e446b754d446b3249444d314f5334354f444d67517941314d4334334f5463674d7a59794c6a49304d5377314d4334344d446b674d7a59304c6a457a4d4377304f5334784d6a55674d7a59304c6a4d794e434244494451344c6a55784e53417a4e6a51754d7a6b314c4451334c6a6b344d53417a4e6a51754e7a51784c4451334c6a67354d69417a4e6a55754d54493049454d674e4463754e544d3349444d324e6934324e5445734e4467754d446b3349444d334e7934774e5467734e4467754e546b3149444d334f4334794d444167517941304f4334344f444d674d7a63344c6a67324d4377304f5334304d7a45674d7a67774c6a4d354d4377304f5334344d5451674d7a67784c6a59774d434244494455774c6a45354e79417a4f4449754f4445774c4455774c6a63314e53417a4f4451754d7a6b784c4455784c6a41314e53417a4f4455754d54453049454d674e5445754d7a553149444d344e5334344d7a59734e5445754e6a417749444d344e6934334d4451734e5445754e6a417749444d344e7934774e444967517941314d5334324d4441674d7a67334c6a59304d6977314e6934314e6a59674d7a6b334c6a51794e4377314e7934794e5451674d7a6b344c6a45344d434244494455334c6a51304e43417a4f5467754d7a67354c4455334c6a59774d43417a4f5467754f4467304c4455334c6a59774d43417a4f546b754d6a677749454d674e5463754e6a4177494451774d4334324d7a4d734e6a59754d6a4934494451774d43347a4e4441734e6a59754e54637849444d354f4334354e7a5567517941324e6934354d5455674d7a6b334c6a59774d7977324f4334354d6a6b674d7a6b334c6a63774d6977324f5334784d6a67674d7a6b354c6a45774d434244494459354c6a49314d53417a4f546b754f5459314c4459354c6a51784d6941304d4441754d4441774c44637a4c6a49314d5341304d4441754d44417749454d674e7a63754f444d7a494451774d4334774d4441734e7a63754e7a5931494451774d4334794f5451734e7a51754d54517a49444d354e6934784d6a6767517941324f4334774f5455674d7a67354c6a45334d7977324e4334334d7a41674d7a67784c6a4d794d6977324e7934794d6a59674d7a63354c6a6b344e694244494459344c6a45784f43417a4e7a6b754e5441354c4459354c6a49774d43417a4f4441754d4455794c4459354c6a49774d43417a4f4441754f54633449454d674e6a6b754d6a417749444d344d7934784e7a4d734e7a51754d546b7949444d354d5334774e6a4d734e7a67754d6a6b3449444d354e53347a4e545967517941334f5334324d5445674d7a6b324c6a63794f5377344d5334774d4449674d7a6b344c6a4d7a4e6977344d53347a4f446b674d7a6b344c6a6b794f43424d494467794c6a41354e4341304d4441754d44417a4944457a4d5334344f446b674d7a6b354c6a6b774d69424d494445344d5334324f4455674d7a6b354c6a67774d4341784f4449754f54517949444d354e7934314e544167517941784f4455754e44593149444d354d7934774d7a59734d546b784c6a41354e43417a4f4455754e7a41784c4445354e53347a4f4449674d7a67784c6a4d304d534244494449774d7934324e6a55674d7a63794c6a6b784f4377794d4455754d544d7849444d334d5334794d4441734d6a41304c6a417a4f53417a4e7a45754d6a417749454d674d6a417a4c6a51314e69417a4e7a45754d6a41774c4445354d5334304d7a6b674d7a63314c6a49314d7977784f5445754d44417749444d334e5334314f546367517941784f5441754e7a677749444d334e5334334e7a41734d5467344c6a6b344d43417a4e7a59754d6a6b354c4445344e7934774d4441674d7a63324c6a63334e434244494445344e5334774d6a41674d7a63334c6a49304f4377784f4449754f54557749444d334e7934344d7a55734d5467794c6a51774d43417a4e7a67754d44633449454d674d5467784c6a67314d43417a4e7a67754d7a49784c4445344d4334324f4441674d7a63344c6a59324d7977784e7a6b754f44417749444d334f4334344d7a6b67517941784e7a67754f54497749444d334f5334774d5455734d5463324c6a67314d43417a4e7a6b754e5451324c4445334e5334794d4441674d7a67774c6a41784f534244494445334d7934314e5441674d7a67774c6a51354d5377784e7a45754d54417749444d344d5334774d5455734d5459354c6a63314e53417a4f4445754d54677949454d674d5459344c6a51774f53417a4f4445754d7a51354c4445324e7934784d5459674d7a67784c6a59774e4377784e6a59754f44677849444d344d5334334e544167517941784e6a59754d7a597849444d344d6934774e7a45734d5459774c6a4d784d69417a4f4449754f544d7a4c4445314d4334304d4441674d7a67304c6a41354e7942444944457a4f4334784d7a6b674d7a67314c6a557a4f4377784d546b754d54453449444d344e53347a4d7a45734d5441324c6a41774d43417a4f444d754e6a453149454d674f5455754d44553049444d344d6934784f444d734f4463754e44457949444d344d43347a4f544d734f4441754e54457749444d334e7934324e445167517941334f43347a4e546b674d7a63324c6a63344f4377334e6934794f4445674d7a63314c6a6b344d6977334e5334344f5445674d7a63314c6a67314d794244494463304c6a67314e69417a4e7a55754e5445774c4463304c6a55304f43417a4e7a51754d7a637a4c4463314c6a4d7a4e53417a4e7a4d754e7a6b3449454d674e7a59754e44637849444d334d6934354e6a63734e7a59754d44633249444d334d6934304e546b734e7a51754d54417749444d334d6934794d446b67517941334d5334794e6a63674d7a63784c6a67314d6977324f5334794e5467674d7a63784c6a497a4f5377324e6934334d5445674d7a59354c6a6b314e534244494459314c6a51314d79417a4e6a6b754d7a49774c4459304c6a49304d43417a4e6a67754f4441774c4459304c6a41784e79417a4e6a67754f44417749454d674e6a49754f44637749444d324f4334344d4441734e546b754d6a4d3149444d324e6934794d6a6b734e5455754e54457949444d324d6934334f445167517941304e7934334d7a59674d7a55314c6a55344f4377304f4334304f5449674d7a51324c6a67774d4377314e6934344f4463674d7a51324c6a67774d434244494455344c6a4d784d53417a4e4459754f4441774c4459314c6a497a4f43417a4e4467754d7a6b774c4459344c6a4d774d69417a4e446b754e44497749454d674f4451754d7a4d3349444d314e4334344d5441734f5441754e7a457749444d324e7934324d7a63734e7a6b754d7a513149444d334d5334324e446b67517941334e7934354e4455674d7a63794c6a45304e4377334e6934344d4441674d7a63794c6a59334d5377334e6934344d4441674d7a63794c6a67794d434244494463324c6a67774d43417a4e7a4d754d6a49324c4467774c6a63304e79417a4e7a51754e5467324c4467324c6a59774d43417a4e7a59754d546b3349454d674f446b754e44597749444d334e6934354f4451734f5449754e444d7749444d334e7934344d4451734f544d754d6a417749444d334f4334774d546b67517941354e5334344e7a63674d7a63344c6a63324e6977784d444d754d44497849444d334f5334354d5459734d5445774c6a51774d43417a4f4441754e7a673249454d674d5449794c6a45324e69417a4f4449754d5463304c4445304e7934784e444d674d7a67794c6a41334e4377784e5455754e44417749444d344d4334324d445967517941784e5463754d54597749444d344d4334794f5451734d5455354c6a45304d43417a4e7a6b754f5455314c4445314f5334344d4441674d7a63354c6a67314e434244494445324f4334334e5463674d7a63344c6a51344e6977784f4455754d6a673449444d334e4334314d5459734d546b7a4c6a41774d43417a4e7a45754f44677749454d674d546b324c6a51304d43417a4e7a41754e7a41304c4445354f4334324e7a55674d7a59354c6a63344d7977794d4455754f44417749444d324e6934324d445567517941794d4463754d54633349444d324e5334354f5445734d6a41354c6a6b314d43417a4e6a51754e5467344c4449784d79347a4e7a6b674d7a59794c6a63334d434244494449784e4334324f4463674d7a59794c6a41334e6977794d5459754e444d7849444d324d5334794e7a45734d6a45334c6a49314d79417a4e6a41754f54677849454d674d6a45344c6a41334e69417a4e6a41754e6a6b784c4449794d4334774f4463674d7a55354c6a55304d6977794d6a45754e7a497a49444d314f4334304d6a6367517941794d6a4d754d7a553449444d314e79347a4d5449734d6a49304c6a63354e43417a4e5459754e4441774c4449794e4334354d544d674d7a55324c6a51774d434244494449794e53347a4e6a55674d7a55324c6a51774d4377794d7a4d754e44513349444d314d5334784d5449734d6a4d304c6a51794d69417a4e5441754d54633549454d674d6a4d304c6a6b344e43417a4e446b754e6a51774c44497a4e5334314e4463674d7a51354c6a49774d4377794d7a55754e6a633049444d304f5334794d444167517941794d7a55754f44417849444d304f5334794d4441734d6a4d334c6a4d344e53417a4e4463754e6a677a4c44497a4f5334784f5455674d7a51314c6a67794f534244494449304d6934304d4455674d7a51794c6a55304d5377794e444d754e6a417749444d304d5334354e4455734d6a517a4c6a59774d43417a4e444d754e6a4d3049454d674d6a517a4c6a59774d43417a4e4451754d7a6b794c44497a4f43347a4f5451674d7a55774c6a41774d4377794d7a63754e6a6b7749444d314d4334774d444167517941794d7a63754d54513249444d314d4334774d4441734d6a4d314c6a41314d69417a4e5449754d4441324c44497a4e4334794e7a63674d7a557a4c6a49334d4342444944497a4d7934354d5463674d7a557a4c6a67314f4377794d7a4d754d6a553349444d314e4334304e5455734d6a4d794c6a67784d53417a4e5451754e546b3349454d674d6a4d794c6a4d324e53417a4e5451754e7a4d344c44497a4d6934774d4441674d7a55314c6a457a4e5377794d7a49754d44417749444d314e5334304f444167517941794d7a49754d44417749444d314e6934794d5441734d6a4d794c6a6b354e79417a4e5459754d5441784c44497a4f4334304d4441674d7a55304c6a63344d434244494449304e4334794e6a59674d7a557a4c6a4d304e6977794e4459754d44457849444d314d7934784d6a63734d6a557a4c6a49774d43417a4e5449754f54497849454d674d6a59774c6a51794d69417a4e5449754e7a457a4c4449324e7934304d446b674d7a557a4c6a49774e6977794e7a45754f44493249444d314e4334794d7a5567517941794e7a55754d6a417a49444d314e5334774d6a49734d6a63334c6a49354e79417a4e5451754f546b354c4449334e6934794d6a51674d7a55304c6a45344e794244494449334e5334334f5459674d7a557a4c6a67324e4377794e7a55754d444d7849444d314d7934324d4441734d6a63304c6a55794e43417a4e544d754e6a417749454d674d6a63304c6a41784e69417a4e544d754e6a41774c4449334d7934324d4441674d7a557a4c6a51794d4377794e7a4d754e6a417749444d314d7934794d444167517941794e7a4d754e6a417749444d314d6934354f4441734d6a637a4c6a51774f43417a4e5449754f4441774c4449334d7934784e7a51674d7a55794c6a67774d434244494449334d4334344e6a4d674d7a55794c6a67774d4377794e6a59754f44417849444d304f5334324e5459734d6a59334c6a67784d43417a4e4467754e6a513449454d674d6a59344c6a59324e69417a4e4463754e7a6b784c4449324f4334324d6a63674d7a51334c6a63344e4377794e7a49754d6a413449444d304f5334304d545967517941794e7a59754d6a633449444d314d5334794e7a45734d6a67794c6a6b304e69417a4e544d754d7a6b314c4449344e7934794d4441674d7a55304c6a45354d534244494449344f5334774e7a41674d7a55304c6a55304d5377794f5445754e7a637749444d314e5334774f4451734d6a6b7a4c6a49774d43417a4e5455754d7a6b3449454d674d6a6b304c6a597a4d43417a4e5455754e7a457a4c4449354f4334794d7a41674d7a55324c6a41334f53777a4d4445754d6a417749444d314e6934794d544d675179417a4d4451754d54637749444d314e69347a4e4459734d7a41334c6a63334d43417a4e5459754e7a4d314c444d774f5334794d4441674d7a55334c6a41334e79424449444d784d69347a4f5449674d7a55334c6a67304d43777a4d6a63754e6a597949444d314e7934314d4463734d7a4d794c6a49774d43417a4e5459754e54633149454d674d7a4d7a4c6a63304d43417a4e5459754d6a55354c444d7a4e5334324d7a41674d7a55314c6a6b354e53777a4d7a59754e44417749444d314e5334354f4467675179417a4d7a67754d44517749444d314e5334354e7a4d734d7a51314c6a51774d69417a4e5451754e7a49794c444d304f4334774d4441674d7a55304c6a41784f43424449444d304f4334354f5441674d7a557a4c6a63304f53777a4e5441754e7a6b7749444d314d7934794e6a4d734d7a55794c6a41774d43417a4e5449754f544d3449454d674d7a55314c6a49304e53417a4e5449754d4459324c444d324e6934304d5445674d7a51344c6a51794e69777a4e6a63754f44417749444d304e7934334f4467675179417a4e6a67754e44597749444d304e7934304f4455734d7a59354c6a6b774d43417a4e4459754f4467314c444d334d5334774d4441674d7a51324c6a51314e53424449444d344e4334314e7a59674d7a51784c6a45314d4377304d4441754d6a673449444d7a4d4334324e7a41734d7a6b354c6a6b794e43417a4d6a63754d545979494577674d7a6b354c6a67774d43417a4d6a55754f54637849444d354f4334304d4463674d7a49334c6a49304f43424449444d344f5334344f4445674d7a4d314c6a41324e43777a4f4445754d7a6b3549444d7a4d6934344e5455734d7a677a4c6a45324d79417a4d6a4d754d6a633449454d674d7a67304c6a51794d53417a4d5459754e4455784c444d354e4334784d4463674d7a41304c6a59784f43777a4f5467754e444d3449444d774e4334324d5467675179417a4f546b754e7a6b3249444d774e4334324d5467734e4441774c6a41774d43417a4d4451754e446b354c4451774d4334774d4441674d7a417a4c6a63774f534244494451774d4334774d4441674d7a417a4c6a49774f53777a4f546b754f44497749444d774d6934344d4441734d7a6b354c6a59774d43417a4d4449754f44417749454d674d7a6b354c6a4d344d43417a4d4449754f4441774c444d354f5334794d4441674d7a41794c6a51304d43777a4f546b754d6a417749444d774d6934774d4441675179417a4f546b754d6a417749444d774d5334314e6a41734d7a6b354c6a4d344d43417a4d4445754d6a41774c444d354f5334324d4441674d7a41784c6a49774d43424449444d354f5334344e5467674d7a41784c6a49774d4377304d4441754d444177494449354e6934334d546b734e4441774c6a41774d4341794f4467754e545534494577674e4441774c6a41774d4341794e7a55754f54453149444d354f4334344e5467674d6a63304c6a51314f43424449444d354f4334794d6a6b674d6a637a4c6a59314e69777a4f5463754d7a5134494449334d6934774d5441734d7a6b324c6a6b774d4341794e7a41754f44417749454d674d7a6b314c6a67344e7941794e6a67754d4459314c444d354d5334314e6a55674d6a55354c6a45314d79777a4f5441754d6a4135494449314e7934774d4441675179417a4f446b754e6a5530494449314e6934784d6a41734d7a67344c6a67304d5341794e5451754e546b774c444d344f4334304d4445674d6a557a4c6a59774d43424449444d344e7934354e6a45674d6a55794c6a59784d43777a4f4463754e445932494449314d5334314f546b734d7a67334c6a4d774d4341794e5445754d7a553049454d674d7a67314c6a67324d5341794e446b754d6a45334c444d344d7934334e6a51674d6a51324c6a49344e79777a4f4449754e6a4135494449304e4334344d4441675179417a4f4445754f445178494449304d7934344d5441734d7a67774c6a51354f5341794e4445754f5467354c444d334f5334324d6a67674d6a51774c6a63314e43424449444d334f4334334e5459674d6a4d354c6a55784f43777a4e7a63754e446b774944497a4f4334774e4449734d7a63324c6a67784d7941794d7a63754e44637949454d674d7a63324c6a457a4e7941794d7a59754f54417a4c444d334e4334334e5445674d6a4d314c6a49784e43777a4e7a4d754e7a4d7a4944497a4d7934334d546b675179417a4e7a49754e7a45324944497a4d6934794d6a4d734d7a63784c6a49774e7941794d7a41754d4445774c444d334d43347a4f4449674d6a49344c6a67774d43424449444d324f5334314e5459674d6a49334c6a55354d43777a4e6a59754e444d79494449794e4334784d6a59734d7a597a4c6a51304d4341794d6a45754d54417a49454d674d7a59774c6a51304f4341794d5467754d4463354c444d314f4334774d4441674d6a45314c6a55794d69777a4e5467754d444177494449784e5334304d6a41675179417a4e5467754d444177494449784e53347a4d546b734d7a55334c6a55314d4341794d5451754e5463794c444d314e7934774d4441674d6a457a4c6a63324d69424449444d314e5334334d7a51674d6a45784c6a67354e79777a4e5455754e6a5931494449784d4334304d4441734d7a55324c6a67304e5341794d5441754e44417749454d674d7a55344c6a4d324e5341794d5441754e4441774c444d324d4334344d7a51674d6a45794c6a59314d53777a4e7a41754e445135494449794d6934344d4449675179417a4e7a63754d6a6b774944497a4d4334774d6a55734d7a67774c6a51794e5341794d7a4d754e6a63324c444d344d6934344d4441674d6a4d334c6a45344f43424449444d344d7934784d7a41674d6a4d334c6a59334e69777a4f444d754e7a45314944497a4f4334304e4455734d7a67304c6a45774d4341794d7a67754f446b3549454d674d7a67304c6a51344e5341794d7a6b754d7a55794c444d344e4334344d4441674d6a4d354c6a6b324e53777a4f4451754f444177494449304d4334794e6a45675179417a4f4451754f444177494449304d4334314e5467734d7a67304c6a6b7a4e5341794e4441754f4441784c444d344e5334784d4441674d6a51774c6a67774d69424449444d344e5334794e6a55674d6a51774c6a67774d79777a4f4459754d546731494449304d5334354e7a4d734d7a67334c6a45304e5341794e444d754e44417949454d674d7a67344c6a45774e4341794e4451754f444d784c444d344f5334774e446b674d6a51324c6a41774d43777a4f446b754d6a5131494449304e6934774d4441675179417a4f446b754e445177494449304e6934774d4441734d7a67354c6a59774d4341794e4459754d6a517a4c444d344f5334324d4441674d6a51324c6a55304d43424449444d344f5334324d4441674d6a51324c6a677a4e79777a4f5441754d544132494449304e7934334f4449734d7a6b774c6a63794e4341794e4467754e6a517749454d674d7a6b784c6a4d304d6941794e446b754e446b344c444d354d5334354e6a59674d6a55774c6a55784e53777a4f5449754d544578494449314d4334354d4441675179417a4f5449754d6a5532494449314d5334794f4455734d7a6b794c6a55324d5341794e5445754e6a41774c444d354d6934334f4463674d6a55784c6a59774d43424449444d354d7934774d5451674d6a55784c6a59774d43777a4f544d754d6a4177494449314d5334344e7a49734d7a6b7a4c6a49774d4341794e5449754d6a413049454d674d7a6b7a4c6a49774d4341794e5449754e544d324c444d354d7934314e6a41674d6a557a4c6a45784e69777a4f5451754d444177494449314d7934304f544d675179417a4f5451754e445177494449314d7934344e7a41734d7a6b304c6a67774d4341794e5451754e4445784c444d354e4334344d4441674d6a55304c6a59354e79424449444d354e4334344d4441674d6a55304c6a6b344d69777a4f5455754d6a4931494449314e5334344f446b734d7a6b314c6a63304e4341794e5459754e7a457849454d674d7a6b324c6a49324d7941794e5463754e544d7a4c444d354e7934774e5441674d6a55344c6a6b794e53777a4f5463754e446b79494449314f5334344d444d675179417a4f546b754e545530494449324d7934344f5467734d7a6b354c6a63344e6941794e6a51754d6a51794c444d354f5334354d5449674d6a597a4c6a4d354d434244494451774d4334774e4441674d6a59794c6a55794e43777a4f5463754d444535494449314e6934324f4451734d7a6b304c6a49794e6941794e5449754e44417749454d674d7a67334c6a51324f5341794e4449754d444d7a4c444d344e6934794d4451674d6a51774c6a457a4d69777a4f4455754e7a45774944497a4f5334324d4441675179417a4f4455754e44417a4944497a4f5334794e7a41734d7a67304c6a51304d6941794d7a67754d4445774c444d344d7934314e7a55674d6a4d324c6a67774d43424449444d344d5334304e7a4d674d6a4d7a4c6a67324f43777a4f4445754e7a49774944497a4e4334784f5441734d7a63354c6a41774d4341794d7a41754f44493549454d674d7a63334c6a59344d4341794d6a6b754d546b344c444d334e6934784e5441674d6a49334c6a4d354d69777a4e7a55754e6a4177494449794e6934344d5459675179417a4e6a55754d7a4530494449784e6934774e4455734d7a59794c6a4d334d4341794d5449754e7a63794c444d324d6934324d5449674d6a45794c6a4d344d43424449444d324d7934774e7a41674d6a45784c6a597a4f53777a4e6a51754d446779494449784d6934774d546b734d7a59314c6a55354f4341794d544d754e54417749454d674d7a63774c6a41354d5341794d5463754f446b774c444d334d4334314e7a55674d6a45334c6a6b774d79777a4e6a6b754d6a4177494449784d7934324d4441675179417a4e6a67754e7a5977494449784d6934794d6a4d734d7a59344c6a51774d4341794d5441754e7a55344c444d324f4334304d4441674d6a45774c6a4d304e69424449444d324f4334304d4441674d6a41354c6a6b7a4e43777a4e6a63754f544d31494449774f4334324e5449734d7a59334c6a4d324e6941794d4463754e446b3449454d674d7a59314c6a51304e4341794d444d754e546b304c444d324e5334784e5459674d6a41794c6a55774d53777a4e6a55754f445934494449774d5334334f446b675179417a4e6a59754e6a5979494449774d4334354f5455734d7a59334c6a59334e6941794d4445754e7a63304c444d324f43347a4f544d674d6a417a4c6a63794f53424449444d324f4334324e446b674d6a41304c6a51794f43777a4e6a6b754d544179494449774e5334314e4441734d7a59354c6a4d354f4341794d4459754d6a417749454d674d7a59354c6a59354e5341794d4459754f4459774c444d334d4334774e7a67674d6a41344c6a45794d43777a4e7a41754d6a5134494449774f5334774d4441675443417a4e7a41754e545535494449784d4334324d4441674d7a63774c6a63334f5341794d4467754f44417749454d674d7a63784c6a49784e5341794d4455754d6a51354c444d334d7934794e4463674d6a41324c6a4d784d79777a4e7a51754e6a4178494449784d4334344d4441675179417a4e7a51754f545932494449784d6934774d5441734d7a63314c6a51304e4341794d544d754e4451324c444d334e5334324e6a55674d6a457a4c6a6b354d43424449444d334e6934794d7a49674d6a45314c6a4d354e43777a4e7a51754e6a6330494449784e6934334e7a49734d7a637a4c6a59774f4341794d5455754f44413349454d674d7a63794c6a6b354e5341794d5455754d6a55794c444d334d6934344e6a41674d6a45314c6a49334d53777a4e7a49754d6a417a494449784e5334354f5463675179417a4e7a45754f44417a494449784e6934304d7a6b734d7a63784c6a497a4e4341794d5459754f4441774c444d334d4334354d7a67674d6a45324c6a67774d43424449444d324f5334354d5451674d6a45324c6a67774d43777a4e7a41754e444535494449784e7934344d446b734d7a63794c6a557a4f5341794d6a41754d44417749454d674d7a637a4c6a63774f5341794d6a45754d6a45774c444d334e5334334e5459674d6a497a4c6a51324d43777a4e7a63754d446733494449794e5334774d4441675179417a4f4441754d444d31494449794f4334304d5441734d7a67784c6a55354e6941794d7a41754d54597a4c444d344d79347a4d6a4d674d6a4d794c6a41774d43424449444d344e6934794f4445674d6a4d314c6a45304e79777a4f4467754f4451314944497a4f4334304d7a4d734d7a6b784c6a55354e4341794e4449754e6a417749454d674d7a6b7a4c6a45354d5341794e4455754d4449774c444d354e4334344d7a55674d6a51334c6a51314d43777a4f5455754d6a5134494449304f4334774d4441675179417a4f5455754e6a5978494449304f4334314e5441734d7a6b324c6a55344e4341794e5441754d4459774c444d354e7934794f546b674d6a55784c6a4d314e79424449444d354f5334774d5441674d6a55304c6a51314e53777a4f546b754e444935494449314e5334784e6a49734d7a6b354c6a63304d4341794e5455754e44633049454d674d7a6b354c6a67344d7941794e5455754e6a45334c4451774d4334774d4441674d6a51794c6a41304e5377304d4441754d444177494449794e53347a4d545167544341304d4441754d444177494445354e4334344f5455674d7a6b344c6a45774d4341784f5451754d6a413549454d674d7a6b334c6a41314e5341784f544d754f444d784c444d354e5334774d7a41674d546b7a4c6a4d334e79777a4f544d754e6a4177494445354d7934784f546b675179417a4f5441754f446330494445354d6934344e546b734d7a67354c6a41774e6941784f5449754d7a45784c444d344e7934774d4441674d546b784c6a49324d53424449444d344e69347a4e4441674d546b774c6a6b784e69777a4f4451754f546b77494445354d4334304f5467734d7a67304c6a41774d4341784f5441754d7a4d7949454d674d7a677a4c6a41784d4341784f5441754d5459334c444d344d5334784f5451674d5467354c6a67324e43777a4e7a6b754f545930494445344f5334324e546b675179417a4e7a4d754d445532494445344f4334314d4467734d7a63794c6a51774e4341784f4451754e54677a4c444d334f5334774f444d674d5467304c6a4d314d79424449444d344d6934774f4467674d5467304c6a49314d43777a4f4463754e6a5135494445344e5334774d4459734d7a67354c6a4d774d7941784f4455754e7a517a49454d674d7a6b784c6a59324d5341784f4459754e7a6b7a4c444d354d7934794f5463674d5467334c6a49774d43777a4f5455754d545932494445344e7934794d4441675179417a4f5459754d6a5134494445344e7934794d4441734d7a6b334c6a597a4d4341784f4463754e544d784c444d354f4334314d4459674d5467344c6a41774d53424449444d354f5334354d446b674d5467344c6a63314d7977304d4441754d444177494445344f4334334e5467734e4441774c6a41774d4341784f4467754d44673249454d674e4441774c6a41774d4341784f4463754d7a49774c444d354e6934334d7a6b674d5467324c6a41344e69777a4f5449754e444177494445344e5334794d5441675179417a4f4451754e7a6732494445344d7934324e7a49734d7a67784c6a67344d6941784f444d754d6a49334c444d334f53347a4e7a4d674d54677a4c6a49784e43424449444d334e6934334d7a59674d54677a4c6a49774d53777a4e7a49754e6a4534494445344d69347a4d6a51734d7a63784c6a67334e4341784f4445754e6a453449454d674d7a59354c6a59324d4341784e7a6b754e5445314c444d344d5334774d6a63674d5463354c6a59344e53777a4f4467754e444177494445344d5334344e6a55675179417a4f5441754d6a6377494445344d6934304d5467734d7a6b794c6a4d304d4341784f444d754d4445354c444d354d7934774d4441674d54677a4c6a49774d53424449444d354d7934324e6a41674d54677a4c6a4d344d69777a4f5455754d546b77494445344d7934344d444d734d7a6b324c6a51774d4341784f4451754d544d3349454d674d7a6b334c6a59784d4341784f4451754e4463774c444d354f4334354d5455674d5467304c6a67324e53777a4f546b754d7a4177494445344e5334774d5451675179417a4f546b754e7a5977494445344e5334784f544d734e4441774c6a41774d4341784f4455754d446b324c4451774d4334774d4441674d5467304c6a637a4d534244494451774d4334774d4441674d5467304c6a45344f53777a4f5459754d545131494445344d6934344d4441734d7a6b304c6a59304d5341784f4449754f44417749454d674d7a6b304c6a49304e5341784f4449754f4441774c444d354d79347a4e5451674d5467794c6a55324d43777a4f5449754e6a5977494445344d6934794e6a59675179417a4f5445754d445931494445344d5334314f5441734d7a67344c6a6b354e5341784f4441754f4455794c444d344e7934794d4459674d5467774c6a4d794d79424449444d344e6934304e4441674d5467774c6a41354e69777a4f4455754d7a6733494445334f5334314e7a55734d7a67304c6a67324e6941784e7a6b754d54593249454d674d7a67304c6a4d304e5341784e7a67754e7a55324c444d344d7934794e6a49674d5463344c6a4d774d69777a4f4449754e445535494445334f4334784e5463675179417a4f4445754e6a5533494445334f4334774d5449734d7a67774c6a55304d5341784e7a63754e6a59784c444d334f5334354f4441674d5463334c6a4d334f43424449444d334f5334304d546b674d5463334c6a41354e43777a4e7a63754d7a5135494445334e6934324e6a55734d7a63314c6a4d344d4341784e7a59754e44493149454d674d7a637a4c6a51784d5341784e7a59754d5467314c444d334d4334344d5441674d5463314c6a63344d79777a4e6a6b754e6a4177494445334e5334314d7a49675179417a4e6a67754d7a6b77494445334e5334794f4445734d7a59324c6a59344d4341784e7a55754d54417a4c444d324e5334344d4441674d5463314c6a457a4e69424449444d324e4334354d6a41674d5463314c6a45324f53777a4e6a49754d445177494445334e4334354f4467734d7a55354c6a51774d4341784e7a51754e7a4d3049454d674d7a55324c6a63324d4341784e7a51754e4467774c444d314d6934354e5449674d5463304c6a4d774e53777a4e5441754f544d33494445334e43347a4e4463675179417a4e4467754d7a6b33494445334e43347a4f546b734d7a51324c6a63304d6941784e7a51754d6a49304c444d304e5334314d7a63674d54637a4c6a63334f43424449444d304e4334314f4449674d54637a4c6a51794e43777a4e444d754d7a6b31494445334d7934774d7a67734d7a51794c6a6b774d4341784e7a49754f54497849454d674d7a51784c6a4d314f5341784e7a49754e5455304c444d304d5334344f5441674d5463784c6a59354d43777a4e444d754f544930494445334d5334794e5451675179417a4e4459754e446334494445334d4334334d4459734d7a59344c6a45794d5341784e7a41754e6a67324c444d334d4334794d4441674d5463784c6a497a4d43424449444d334d5334774f4441674d5463784c6a51324d43777a4e7a4d754e7a6777494445334d6934774e6a63734d7a63324c6a49774d4341784e7a49754e54633549454d674d7a67774c6a63334d4341784e7a4d754e5451334c444d344d7934314d4445674d5463304c6a4d334f53777a4f4455754e445532494445334e53347a4f546b675179417a4f4459754d446731494445334e5334334d6a63734d7a67324c6a63344d4341784e7a55754f546b334c444d344e7934774d4441674d5463314c6a6b354f53424449444d344e7934794d6a41674d5463324c6a41774d53777a4f4467754e7a4930494445334e6934314e4449734d7a6b774c6a4d304d5341784e7a63754d6a417849454d674d7a6b784c6a6b314f5341784e7a63754f4459784c444d354d7934324d4455674d5463344c6a51774d43777a4f544d754f546b35494445334f4334304d4441675179417a4f5451754d7a6b79494445334f4334304d4441734d7a6b304c6a67784f4341784e7a67754e6a63774c444d354e4334354e4455674d5463354c6a41774d43424449444d354e5334774e7a45674d5463354c6a4d7a4d43777a4f5455754e444d32494445334f5334324d4441734d7a6b314c6a63314e4341784e7a6b754e6a417749454d674d7a6b324c6a41334d7941784e7a6b754e6a41774c444d354e69347a4f544d674d5463354c6a637a4e53777a4f5459754e445933494445334f5334354d4441675179417a4f5459754e6a4934494445344d4334794e6a4d734d7a6b354c6a51314e4341784f4449754e4441774c444d354f5334334e7a4d674d5467794c6a51774d434244494451774d69347a4d5445674d5467794c6a51774d43777a4f5451754e7a6333494445334e7934324e4467734d7a67354c6a4d304d5341784e7a55754f44497749454d674d7a67334c6a63324f5341784e7a55754d6a6b784c444d344e5334334f446b674d5463304c6a55774e69777a4f4451754f545178494445334e4334774e7a63675179417a4f4451754d446b7a494445334d7934324e4463734d7a67794c6a51314e5341784e7a4d754d5459334c444d344d53347a4d4441674d54637a4c6a41784d43424449444d344d4334784e4459674d5463794c6a67314d79777a4e7a6b754d544132494445334d6934314e7a49734d7a63344c6a6b354d5341784e7a49754d7a673249454d674d7a63344c6a67334e6941784e7a49754d546b354c444d334e7934354d7a45674d5463784c6a6b794e69777a4e7a59754f446b78494445334d5334334e7a67675179417a4e7a55754f445578494445334d5334324d7a45734d7a637a4c6a6b794d4341784e7a45754d6a63324c444d334d6934324d4441674d5463774c6a6b344f53424449444d324f4334794e4449674d5463774c6a41304e43777a4e6a41754e546333494445324f5334304e6a6b734d7a55324c6a41354e6941784e6a6b754e7a557949454d674d7a51784c6a49314e7941784e7a41754e6a67344c444d304d4334344d4441674d5463774c6a63314e79777a4e4441754f444177494445334d6934774e5455675179417a4e4441754f444177494445334d6934304e7a6b734d7a51784c6a45784e5341784e7a49754f544d774c444d304d5334314d4441674d54637a4c6a41314f53424449444d304e4334314f5449674d5463304c6a41354d53777a4e5445754d7a5979494445334f4334784d5449734d7a557a4c6a51324e5341784f4441754d54593149454d674d7a55304c6a45324d4341784f4441754f4451304c444d314e6934774d4449674d5467794c6a51344d43777a4e5463754e545533494445344d7934344d4441675179417a4e546b754d544579494445344e5334784d6a41734d7a59774c6a4d344f4341784f4459754e4449314c444d324d43347a4f5449674d5467324c6a63774d43424449444d324d4334304d4455674d5467334c6a55784e69777a4e546b754d444134494445344e7934794e7a41734d7a55344c6a45794e5341784f4459754d7a417749454d674d7a55314c6a63354e4341784f444d754e7a4d344c444d314d7934794e6a55674d5467784c6a59334d79777a4e5449754d545930494445344d5334304d7a51675179417a4e5445754e446730494445344d5334794f4459734d7a55774c6a41304e4341784f4441754e54677a4c444d304f4334354e6a51674d5463354c6a67334d69424449444d304e6934314e4449674d5463344c6a49334f43777a4d7a55754e446b78494445334d7934774d4459734d7a4d774c6a51774d4341784e7a45754d44453249454d674d7a49354c6a51784d4341784e7a41754e6a49354c444d794f4334784e5441674d5463774c6a457a4e53777a4d6a63754e6a4177494445324f5334354d546b675179417a4d6a59754d7a5531494445324f5334304d6a6b734d7a45354c6a51334e6941784e6a63754d5459324c444d784e6934774d4441674d5459324c6a45774d69424449444d784d6934794e544d674d5459304c6a6b314e69777a4d5441754e6a6734494445324e4334314e5455734d7a41324c6a49774d4341784e6a4d754e54673549454d674d7a41304c6a41774d4341784e6a4d754d5445324c444d774d5334314e7a41674d5459794c6a55334e69777a4d4441754f444177494445324d69347a4f544167517941794f5467754e444134494445324d5334344d5441734d6a67344c6a59334e4341784e6a41754d7a67314c4449344e7934794d4441674d5459774c6a4d354f534244494449344e4334344d6a67674d5459774c6a51794d6977794f4451754e545935494445324d4334354d7a45734d6a67324c6a49334f5341784e6a49754d6a453149454d674d6a67334c6a45784e6941784e6a49754f4451304c4449344e7934344f5441674d54597a4c6a51314f4377794f4467754d444177494445324d7934314f444167517941794f4467754d6a517a494445324d7934344e5441734d6a6b774c6a63354d5341784e6a55754e5451774c4449354d7934774f444d674d5459324c6a6b314d694244494449354e5334784d5449674d5459344c6a49774d6977794f5455754f44637a494445324f53347a4f5441734d6a6b314c6a45334f5341784e7a41754d6a493249454d674d6a6b304c6a51774e4341784e7a45754d5455354c4449354d7934774e4445674d5463774c6a67344f4377794f5445754e6a517a494445324f5334314d6a4567517941794f5441754f544930494445324f4334344d5463734d6a6b774c6a41774d6941784e6a67754d4455794c4449344f5334314f5451674d5459334c6a67794d534244494449344f43347a4f446b674d5459334c6a457a4e6977794f4445754f445532494445324d6934324e444d734d6a67784c6a49334e7941784e6a49754d54417749454d674d6a67774c6a6b344d7941784e6a45754f4449314c4449344d4334314e7a51674d5459784c6a59774d4377794f4441754d7a5934494445324d5334324d444167517941794f4441754d545978494445324d5334324d4441734d6a63354c6a51774f5341784e6a45754d444d314c4449334f4334324f5459674d5459774c6a4d304d794244494449334e7934354f444d674d5455354c6a59314d6977794e7a59754e544177494445314f4334324e5449734d6a63314c6a51774d4341784e5467754d54497849454d674d6a63304c6a4d774d4341784e5463754e546b774c4449334d6934334e5441674d5455324c6a63324d5377794e7a45754f545531494445314e6934794e7a6767517941794e7a45754d545977494445314e5334334f5455734d6a59344c6a59304d4341784e5451754d7a4d344c4449324e69347a4e5455674d54557a4c6a41304d434244494449324e4334774e7a41674d5455784c6a63304d6977794e6a41754f445577494445304f5334354d5445734d6a55354c6a49774d4341784e4467754f54637849454d674d6a55304c6a55334e4341784e4459754d7a4d324c4449304f5334794d6a55674d5451304c6a41774d4377794e4463754f444534494445304e4334774d444167517941794e4463754d7a4d78494445304e4334774d4441734d6a51324c6a67774e5341784e444d754f4463794c4449304e6934324e4467674d54517a4c6a63784e534244494449304e6934794e446b674d54517a4c6a4d784e6977794e4449754e7a4534494445304d6934774d4445734d6a51794c6a41304e4341784e4449754d44417749454d674d6a51784c6a51774e5341784e4449754d4441774c4449304d5334324e6a67674d5451314c6a63784f4377794e4449754d7a5933494445304e6934314e6a4167517941794e4449754f444d31494445304e7934784d6a51734d6a51304c6a55784f4341784e5451754e7a4d314c4449304e5334324d4455674d5459784c6a49774d434244494449304e6934774d7a41674d54597a4c6a637a4d4377794e4459754e446730494445324e6934784e6a63734d6a51324c6a59784d7941784e6a59754e6a453249454d674d6a51324c6a63324f4341784e6a63754d5455784c4449304e6934314e6a67674d5459334c6a59344e6977794e4459754d444d79494445324f4334784e7a4567517941794e4451754f446335494445324f5334794d5451734d6a51304c6a49784d6941784e6a67754e5449774c4449304d7934324e5451674d5459314c6a59354e694244494449304d7934304d4451674d5459304c6a517a4d7977794e4449754f444931494445324d5334314d5441734d6a51794c6a4d324e7941784e546b754d6a417749454d674d6a51784c6a6b774f5341784e5459754f446b774c4449304d5334794f5463674d54557a4c6a51334d4377794e4445754d444131494445314d5334324d444167517941794e4441754e445179494445304e7934354f4449734d6a4d354c6a6b774f4341784e4459754d6a4d334c44497a4f5334794d7a59674d5451314c6a67794d6942444944497a4f4334334d546b674d5451314c6a55774d7977794d7a67754d546331494445304d7934314d4463734d6a4d334c6a51784e4341784d7a6b754d54517949454d674d6a4d334c6a41344f5341784d7a63754d6a63344c44497a4e6934304e5445674d544d304c6a6b784d7977794d7a55754f546b334944457a4d7934344f446367517941794d7a55754d5445784944457a4d5334344f444d734d6a4d304c6a517a4e5341784d6a59754f4441774c44497a4e5334774e5451674d5449324c6a67774d4342444944497a4e5334304e7a55674d5449324c6a67774d4377794d7a59754e444134494445794f4334344d5441734d6a4d324c6a67784f5341784d7a41754e6a417749454d674d6a4d334c6a41344f5341784d7a45754e7a63334c44497a4e7934774f5459674d544d784c6a63344d4377794d7a63754d5451334944457a4d4334334e444567517941794d7a63754d5463324944457a4d4334784e546b734d6a4d324c6a59324d4341784d6a67754e546b304c44497a4e6934774d4441674d5449334c6a49324d7942444944497a4e5334794d7a4d674d5449314c6a63784f4377794d7a51754e7a6333494445794e4334784e5445734d6a4d304c6a637a4e6941784d6a49754f54497949454d674d6a4d304c6a59344e5341784d6a45754d7a67784c44497a4e4334324e444d674d5449784c6a49334f4377794d7a51754e544934494445794d6934304d444167517941794d7a51754d546332494445794e5334344d6a4d734d6a4d304c6a41774d6941784d6a55754f5463354c44497a4d6934354e7a4d674d54497a4c6a67774d4342444944497a4d6934304e5451674d5449794c6a63774d4377794d7a49754d444979494445794d5334304f4455734d6a4d794c6a41784e4341784d6a45754d54417749454d674d6a4d784c6a6b354d4341784d546b754f5445774c44497a4d4334314e4467674d5449774c6a49334e7977794d6a6b754f546b30494445794d5334324d545167517941794d6a63754f54517a494445794e6934314e6a55734d6a45354c6a63334d4341784d6a6b754e6a55314c4449774e6934794d4441674d544d774c6a59784d434244494449774d53347a4e6a41674d544d774c6a6b314d4377784f5459754d4455774944457a4d53347a4f444d734d546b304c6a51774d4341784d7a45754e54637949454d674d5459324c6a67784e7941784d7a51754e7a49334c4445304d5334774d7a67674d5449324c6a55354f5377784e444d754f546777494445784e5334324e7a5567517941784e4455754d446335494445784d5334314f5445734d5455774c6a49324e7941784d5441754e4451784c4445314e7934794f4459674d5445794c6a63794e534244494445324d7934784e4451674d5445304c6a597a4d5377784e7a51754e7a5530494445784e5334324f4455734d5467774c6a49774d4341784d5451754f44413349454d674d5467784c6a55794d4341784d5451754e546b304c4445344e4334344e5441674d5445304c6a49794f5377784f4463754e6a4177494445784d7934354f545967517941784f5455754d7a6732494445784d79347a4d7a63734d546b354c6a637a4f4341784d5449754e6a49354c4449774e5334344d4441674d5445784c6a417a4e794244494449774f4334344f4441674d5445774c6a49794f4377794d5449754e445533494445774f53347a4d4441734d6a457a4c6a63304f4341784d4467754f54633249454d674d6a45314c6a41304d4341784d4467754e6a55794c4449784e7934794d4441674d5441334c6a6b314e7977794d5467754e545134494445774e7934304d7a4567517941794d546b754f446b33494445774e6934354d4455734d6a49784c6a63794d4341784d4459754d6a55334c4449794d6934324d4441674d5441314c6a6b344f534244494449794d7934304f4441674d5441314c6a63794d6977794d6a51754f446732494445774e5334794e6a55734d6a49314c6a63794e5341784d4451754f54633049454d674d6a49334c6a4d794d7941784d4451754e4445354c4449794f4334304d4455674d5441304c6a55324f5377794d6a67754d7a6b7a494445774e53347a4e444d67517941794d6a67754d7a6733494445774e5334334e6a49734d6a497a4c6a63774e7941784d4467754f4441774c4449794d7934774e6a67674d5441344c6a67774d434244494449794d6934354d5459674d5441344c6a67774d4377794d6a49754d444934494445774f5334784d7a4d734d6a49784c6a41354e6941784d446b754e54517749454d674d6a49774c6a45324d7941784d446b754f5451334c4449784f43347a4d6a41674d5445774c6a59344d7977794d5463754d444177494445784d5334784e7a5567517941794d5455754e6a6777494445784d5334324e6a63734d6a45304c6a49304d4341784d5449754d6a45794c4449784d7934344d4441674d5445794c6a4d344e794244494449784d6934354d5451674d5445794c6a637a4e7977794d4467754d7a4131494445784e4334774d546b734d6a41304c6a59774d4341784d5451754f54513149454d674d6a41784c6a51774d6941784d5455754e7a51304c4445354f4334314e444d674d5445324c6a49314e5377784f5451754d6a4177494445784e6934344d445167517941784f5449754d6a4977494445784e7934774e5451734d5467354c6a63354d4341784d5463754e4451774c4445344f4334344d4441674d5445334c6a59324d694244494445344e7934334e7a59674d5445334c6a67354d5377784f4449754d7a5131494445784f4334774d6a67734d5463324c6a49774d4341784d5463754f54633549454d674d54597a4c6a41304d4341784d5463754f4463314c4445324d79347a4d4455674d5445334c6a67324e5377784e6a4d754f544577494445784f4334304e7a4167517941784e6a51754f446379494445784f5334304d7a49734d5463314c6a67344e5341784d6a41754e5463324c4445344d7934344d4441674d5449774c6a557a4e694244494445354f4334774d444d674d5449774c6a51324e6977794d4449754e544977494445794d4334774f5459734d6a45774c6a41304d6941784d5467754d7a677a49454d674d6a45784c6a6b7a4e5341784d5463754f54557a4c4449784d7934344e546b674d5445334c6a59774d4377794d5451754d7a4534494445784e7934324d444167517941794d5451754e7a6333494445784e7934324d4441734d6a45314c6a49314d6941784d5463754e4451774c4449784e53347a4e7a4d674d5445334c6a49304e434244494449784e5334304f5451674d5445334c6a41304f5377794d5459754d445535494445784e6934334e7a49734d6a45324c6a59794f4341784d5459754e6a493549454d674d6a45344c6a63794d7941784d5459754d54417a4c4449794d6934344e5451674d54457a4c6a67354e6977794d6a51754f546377494445784d6934784e7a4967517941794d6a63754f444977494445774f5334344e5445734d6a49354c6a63784e5341784d446b754e7a49794c4449794f4334314e6a51674d5445784c6a6b794f434244494449794f4334794e5463674d5445794c6a55784f4377794d6a67754d444130494445784d7934794d4445734d6a49344c6a41774d6941784d544d754e44513249454d674d6a49334c6a6b354d4341784d5455754e7a63344c4449784f4334344f5445674d5449774c6a45324f5377794d5441754d7a4532494445794d5334354f444567517941794d4459754d546335494445794d6934344e5455734d6a417a4c6a4d784f5341784d6a4d754e5459784c4449774d6934794e7a51674d54497a4c6a6b324e534244494445354f4334344f4459674d5449314c6a49334e5377784e7a55754f446379494445794e4334784e7a49734d5459314c6a41774d4341784d6a49754d54633549454d674d54597a4c6a49304d4341784d6a45754f4455324c4445324d4334334d6a41674d5449784c6a51314f4377784e546b754e444177494445794d5334794f545167544341784e5463754d444177494445794d4334354f5455674d5455334c6a41774d4341784d546b754e546b34494577674d5455334c6a41774d4341784d5467754d6a4177494445314f5334354d4441674d5445344c6a41344d694244494445324d6934314d7a59674d5445334c6a6b334e6977784e6a51754d445531494445784e7934794e6a67734d5459784c6a6b774d4341784d5463754d54557849454d674d5459784c6a51774e5341784d5463754d5449304c4445324d4334784e7a55674d5445334c6a41314f4377784e546b754d545932494445784e7934774d445167517941784e5467754d545534494445784e6934354e446b734d5455324c6a67334f5341784d5459754e6a41344c4445314e69347a4d6a51674d5445324c6a49304e534244494445314d7934784d7a59674d5445304c6a45314e5377784e4459754f444177494445784e53347a4d6a49734d5451324c6a67774d4341784d5463754f546b3549454d674d5451324c6a67774d4341784d546b754d446b344c4445314d4334774f4445674d5449794c6a55344d4377784e5445754e7a4531494445794d7934794d545567517941784e5449754e444979494445794d7934304f446b734d54557a4c6a63794d4341784d6a51754d444d334c4445314e4334324d4441674d5449304c6a517a4d794244494445314e6934354e7a4d674d5449314c6a51354f4377784e6a45754d7a4d30494445794e6934324f5459734d5459314c6a51774d4341784d6a63754d7a6b3549454d674d5459334c6a4d344d4341784d6a63754e7a51784c4445324f5334354f5441674d5449344c6a49784e5377784e7a45754d6a4177494445794f4334304e544967517941784e7a55754d6a5534494445794f5334794e4467734d5467304c6a59774e4341784d6a6b754d7a51324c4445344f53347a4d5449674d5449344c6a59304e434244494445354d5334324f4451674d5449344c6a49354d4377784f5451754e444132494445794f4334774d4441734d546b314c6a4d324d6941784d6a67754d44417749454d674d546b324c6a4d784e7941784d6a67754d4441774c4445354e7934344e6a45674d5449334c6a637a4d5377784f5467754e7a6b79494445794e7934304d444d67517941784f546b754e7a497a494445794e7934774e7a51734d6a41774c6a59784d6941784d6a59754f4467304c4449774d4334334e6a59674d5449324c6a6b334f534244494449774d6934334d5449674d5449344c6a45344d6977794d5463754e444931494445794e6934774e7a51734d6a49784c6a63794f4341784d6a4d754f54633249454d674d6a49344c6a4d314d6941784d6a41754e7a51324c44497a4d79347a4f5459674d5445774c6a4d7a4d5377794d7a41754d544177494445774e6934324f544167517941794d6a6b754e7a4531494445774e6934794e6a51734d6a49354c6a4d314d5341784d4455754d6a59774c4449794f5334794f5449674d5441304c6a51314f434244494449794f4334344e544d674f5467754e5445354c4449794f4334304d7a41674f5451754e7a67314c4449794f4334784e4441674f5451754d6a633549454d674d6a49334c6a59334d5341354d7934304e546b734d6a497a4c6a55334d4341344f4334334f5459734d6a49794c6a59304d7941344f4334774d6a6767517941794d6a49754d6a4932494467334c6a59344d6977794d6a45754e546b32494467334c6a41324e7977794d6a45754d6a517a494467324c6a59324d434244494449784e7934354e7a45674f4449754f446b794c4449784e5334314e5441674f4445754f5467344c4449784e4334784f4463674f4451754d44493049454d674d6a45794c6a4d7a4f4341344e6934334f4463734d6a41334c6a59774d4341344f5334784e446b734d6a41794c6a49774d4341344f5334354f546b67517941784f5449754d54553549446b784c6a55344d4377784f4445754d7a6330494467304c6a4d334e7977784f4463754d6a6335494467774c6a417a4e534244494445344f4334794d4449674e7a6b754d7a55324c4445344f5334784f4463674e7a67754f4441774c4445344f5334304e6a63674e7a67754f44417749454d674d5467354c6a63304f4341334f4334344d4441734d546b784c6a41784e7941334f43347a4d7a51734d546b794c6a49344f5341334e7934334e6a5167517941784f5455754e44637a494463324c6a4d7a4e6977784f5463754e7a6777494463314c6a59794d4377794d4441754e6a4177494463314c6a45344e694244494449774d5334354d6a41674e7a51754f54677a4c4449774d7934344d5441674e7a51754e6a45314c4449774e4334344d4441674e7a51754d7a637749454d674d6a41324c6a67314f5341334d7934344e546b734d6a41334c6a67774d7941334d7934344d4441734d6a45794c6a41334d5341334d7934354d545967517941794d5451754d6a63304944637a4c6a6b334e6977794d5455754d7a4931494463304c6a45344d6977794d5455754e7a6732494463304c6a59304d794244494449784e6934784f544d674e7a55754d4455774c4449784e6934344e6a55674e7a55754d6a497a4c4449784e7934324d5455674e7a55754d54457a49454d674d6a45354c6a41324e5341334e4334354d4441734d6a45354c6a45784e7941334e53347a4e4455734d6a45334c6a6b354f5341334f4334304d444d67544341794d5463754d546b34494467774c6a55354e5341794d5467754e6a4d30494467784c6a63354e794244494449784f5334304d6a51674f4449754e4455354c4449794d5334794d6a63674f4451754d5449314c4449794d6934324e4441674f4455754e54417749454d674d6a49304c6a41314e4341344e6934344e7a55734d6a49314c6a4d334f5341344f4334774d4441734d6a49314c6a55344e6941344f4334774d444167517941794d6a59754d444179494467344c6a41774d4377794d6a51754e546b7a494467324c6a55344f5377794d6a41754e6a41324944677a4c6a41784d694244494449784e7934334e4463674f4441754e4451344c4449784e7934304e4455674e7a6b754d6a6b354c4449784f5334774d7a4d674e7a63754d444d7849454d674d6a45354c6a63324f4341334e5334354f4449734d6a45354c6a63314f4341334d7934354e6a49734d6a45354c6a41784d7941334d6934354e7a5967517941794d5467754e6a6b77494463794c6a55304f5377794d5467754e444977494463784c6a6b784d7977794d5467754e44457a494463784c6a55324d694244494449784f43347a4f5463674e7a41754e7a51354c4449784e4334784e444d674e6a59754e4441774c4449784d79347a4e6a51674e6a59754e44417749454d674d6a45794c6a59344e4341324e6934304d4441734d6a45794c6a41774d4341324e4334344d6a51734d6a45794c6a41774d4341324d7934794e545167517941794d5449754d444177494459794c6a59314d6977794d5445754f444132494459784c6a6b324e6977794d5445754e545935494459784c6a63794f534244494449784d53347a4d7a49674e6a45754e446b794c4449784d4334354f4451674e6a41754e6a6b784c4449784d4334334f5459674e546b754f54513549454d674d6a41354c6a67354f4341314e69347a4f546b734d6a41314c6a6b354d6941304e7934344d6a51734d6a41314c6a59344f5341304f4334334d7a5167517941794d4455754e546b31494451354c6a41784e6977794d4455754e7a597a494451354c6a55314d5377794d4459754d445979494451354c6a6b794d794244494449774e69347a4e6a49674e5441754d6a6b314c4449774e6934344f5441674e5445754d6a4d774c4449774e7934794d7a59674e5449754d44417749454d674d6a41334c6a55344d5341314d6934334e7a41734d6a41344c6a45314f4341314e4334774d7a41734d6a41344c6a55784e6941314e4334344d444167517941794d4467754f446330494455314c6a55334d4377794d446b754e544d34494455334c6a4d334d4377794d446b754f546b77494455344c6a67774d434244494449784d4334304e4449674e6a41754d6a4d774c4449784d4334354f446b674e6a45754e7a457a4c4449784d5334794d4459674e6a49754d446b3149454d674d6a45784c6a51794d7941324d6934304e7a63734d6a45784c6a59774d4341324d7934314e5463734d6a45784c6a59774d4341324e4334304f545567544341794d5445754e6a4177494459324c6a49774d4341794d4467754d7a4177494459324c6a49794f434244494449774d7934774d6a59674e6a59754d6a63794c4449774d43347a4e4445674e6a59754f4459354c4445354d5334334f5441674e6a6b754f446b3449454d674d5467324c6a51354d4341334d5334334e7a55734d5467304c6a59334d4341334d5334794d7a4d734d5467334c6a45774d4341324f4334314d444967517941784f4467754d444935494459334c6a51314e7977784f544d754e546333494459314c6a55344f4377784f5463754e545535494459304c6a6b334f534244494445354f4334314d6a63674e6a51754f444d784c4445354f5334354d6a55674e6a51754e4455324c4449774d4334324e6a59674e6a51754d54513349454d674d6a41784c6a55314f5341324d7934334e7a51734d6a41794c6a67774e5341324d7934324e5455734d6a41304c6a4d324d6941324d7934334f546367517941794d4467754d446b7a494459304c6a457a4e5377794d4463754f446b30494459794c6a45334d7977794d444d754f546b34494459774c6a45354f534244494445354f5334334e7a45674e5467754d4455334c4445354d6934794e5467674e546b754d6a41324c4445344f5334324d4441674e6a49754e44417949454d674d5467354c6a51354d4341324d6934314d7a51734d5467344c6a59344d4341324d7934784e6a55734d5467334c6a67774d4341324d7934344d444d67517941784f4459754f544977494459304c6a51304d6977784f4455754d6a6331494459314c6a637a4e4377784f4451754d545130494459324c6a59334e534244494445344d53347a4f5441674e6a67754f5459334c4445344d4334794f4445674e6a6b754d7a637a4c4445334f5334304d4467674e6a67754e44413549454d674d5463344c6a4d304e4341324e7934794d7a4d734d54677a4c6a59784d4341324d5334324e5449734d5467334c6a67774d4341314f5334314d545967517941784f4467754e445977494455354c6a45344d4377784f446b754e7a4977494455344c6a557a4e6977784f5441754e6a4177494455344c6a41344e694244494445354d6934784f544d674e5463754d6a63794c4445354e69347a4d4459674e5459754d4463314c4445354f4334304e444d674e5455754f44413149454d674d6a41774c6a4d774f5341314e5334314e6a6b734d6a417a4c6a51334d5341314e6934324d7a63734d6a41314c6a59324d5341314f4334794e445567544341794d4463754e7a4d78494455354c6a63324e5341794d4463754e446b35494455344c6a4d7a4d694244494449774e79347a4e7a45674e5463754e5451304c4449774e6934314e7a63674e5455754e7a49784c4449774e5334334d7a4d674e5451754d6a677749454d674d6a41304c6a67354d4341314d6934344d7a6b734d6a417a4c6a55344e4341314d4334324d5445734d6a41794c6a677a4d6941304f53347a4d7a4167517941784f546b754d6a49344944517a4c6a45354d6977784f544d754d7a593149444d354c6a4d304e7977784f446b754d444177494451774c6a49324d43424e4d546b334c6a55794e4341304e43347a4d444167517941784f546b754d544132494451314c6a677a4d6977794d4441754e444177494451334c6a49354d5377794d4441754e444177494451334c6a55304d794244494449774d4334304d4441674e4463754e7a6b304c4449774d4334314e6a45674e4467754d4441774c4449774d4334334e5463674e4467754d44417749454d674d6a41774c6a6b314e4341304f4334774d4441734d6a41784c6a49794f4341304f4334794f5459734d6a41784c6a4d324e7941304f4334324e546367517941794d4445754f544131494455774c6a41324d5377794d4445754d446b33494451354c6a59314e4377784f546b754d444535494451334c6a51334e434244494445354e6934314d7a4d674e4451754f4459324c4445354e5334354e7a49674e4451754e6a637a4c4445354e6934784f4459674e4459754e54417749454d674d546b324c6a49324f5341304e7934794d5455734d546b324c6a51314e7941304f4334334f5441734d546b324c6a59774d7941314d4334774d444167517941784f5463754d444d7a4944557a4c6a55324f5377784f5455754e6a4d31494455314c6a67774d4377784f5449754f545934494455314c6a67774d43424d494445354d5334774d4441674e5455754f444177494445354d4334344d4441674e5445754f54453349454d674d546b774c6a59774d4341304f4334774d7a63734d546b774c6a55354f5341304f4334774d7a51734d5467354c6a41784f5341304e6934304d546367517941784f4459754f546731494451304c6a4d7a4e7977784f4459754e7a4177494451304c6a4d324e5377784f4449754e7a4130494451334c6a41314e794244494445334e7934344d6a45674e5441754d7a51324c4445334e6934774d4441674e544d754d5451324c4445334e6934774d4441674e5463754d7a593149454d674d5463324c6a41774d4341324d4334324f5455734d5463314c6a4d7a4e5341324d5334304e5467734d5463304c6a51774d4341314f5334794d444167517941784e7a51754d544933494455344c6a55304d4377784e7a4d754e7a5131494455344c6a41774d4377784e7a4d754e545578494455344c6a41774d434244494445334d79347a4e5467674e5467754d4441774c4445334d7934794d4441674e5463754f4445324c4445334d7934794d4441674e5463754e546b7949454d674d54637a4c6a49774d4341314e79347a4e6a67734d5463794c6a63314d4341314e6934304e7a45734d5463794c6a49774d4341314e5334324d444167517941784e7a41754f5463794944557a4c6a59314e4377784e7a41754f5455314944557a4c6a49354d5377784e7a49754d4467354944557a4c6a45794f434244494445334d6934324d5449674e544d754d44557a4c4445334d79347a4d544d674e5449754e44457a4c4445334d7934334f446b674e5445754e54633149454d674d5463314c6a51314d6941304f4334324e544d734d5463354c6a41344e4341304e5334794f4451734d5467794c6a55314f4341304d7934304e444567517941784f444d754e6a4d31494451794c6a67324f5377784f4451754e7a4533494451794c6a497a4e5377784f4451754f54597a494451794c6a417a4d534244494445344e5334314f5467674e4445754e5441304c4445344f4334784d5441674e4445754d6a59324c4445354d5334324d6a51674e4445754d7a6b35494577674d546b304c6a59304f5341304d5334314d5451674d546b334c6a55794e4341304e43347a4d4441675454457a4e4334324e4445674e444d754e546b3049454d674d544d784c6a67784d7941304e5334314f544d734d5449334c6a59774d4341304f5334304f5467734d5449334c6a59774d4341314d4334784d6a4967517941784d6a63754e6a4177494455774c6a4d784e4377784d6a59754e7a6b77494455784c6a4d354e7977784d6a55754f444177494455794c6a55794f534244494445794e4334344d5441674e544d754e6a59774c4445794e4334774d4441674e5451754e7a4d7a4c4445794e4334774d4441674e5451754f54457949454d674d5449304c6a41774d4341314e5334774f5449734d54497a4c6a4d304d6941314e6934794e6a55734d5449794c6a557a4f4341314e7934314d546b67517941784d6a45754d445533494455354c6a677a4d4377784d546b754d6a41774944597a4c6a45324d6977784d546b754d6a41774944597a4c6a55774f534244494445784f5334794d4441674e6a4d754e6a457a4c4445784f5334304e7a41674e6a4d754e4463304c4445784f5334344d4441674e6a4d754d6a417749454d674d5449774c6a457a4d4341324d6934354d6a59734d5449774c6a51774d4341324d6934314d7a45734d5449774c6a51774d4341324d69347a4d6a4567517941784d6a41754e444177494459794c6a45784d5377784d6a45754d545931494459774c6a59344e5377784d6a49754d544177494455354c6a45314d534244494445794d7934774d7a55674e5463754e6a45334c4445794d7934354f444d674e5459754d4455324c4445794e4334794d4459674e5455754e6a677849454d674d5449314c6a51334d5341314d7934314e546b734d5449324c6a6b7a4f4341314d5334324d7a49734d5449334c6a517a4d7941314d5334304e444d67517941784d6a63754e7a5131494455784c6a4d794d7977784d6a67754d444177494455784c6a41794e7977784d6a67754d444177494455774c6a63344e694244494445794f4334774d4441674e446b754e5449354c44457a4e53347a4e5451674e4449754f4441774c44457a4e6934334d6a63674e4449754f44417749454d674d544d324c6a6b7a4d7941304d6934344d4441734d544d334c6a4d794e6941304d6934314d7a41734d544d334c6a59774d4341304d6934794d444167517941784d7a67754e446b35494451784c6a45784e7977784d7a63754e445131494451784c6a59784d7977784d7a51754e6a51784944517a4c6a55354e43424e4d6a41794c6a67774d4341314d4334344d6a5167517941794d4449754f444177494455784c6a49334e7977794d4449754e6a4977494455784c6a557a4e6977794d4449754e444177494455784c6a51774d434244494449774d6934784f4441674e5445754d6a59304c4449774d6934774d4441674e5441754f446b7a4c4449774d6934774d4441674e5441754e54633249454d674d6a41794c6a41774d4341314d4334794e546b734d6a41794c6a45344d4341314d4334774d4441734d6a41794c6a51774d4341314d4334774d444167517941794d4449754e6a4977494455774c6a41774d4377794d4449754f444177494455774c6a4d334d5377794d4449754f444177494455774c6a67794e43424e4d6a41324c6a4d354e4341314e79347a4d444167517941794d4459754d7a6735494455344c6a41794f4377794d4459754d7a4530494455344c6a41344e5377794d4459754d444177494455334c6a59774d434244494449774e5334304f546b674e5459754f4449304c4449774e5334304f546b674e5459754e4441774c4449774e6934774d4441674e5459754e44417749454d674d6a41324c6a49794d4341314e6934304d4441734d6a41324c6a4d354e7941314e6934344d4455734d6a41324c6a4d354e4341314e79347a4d444167545445354e79347a4e7a63674e6a45754d6a673549454d674d546b344c6a63354d4341324d79347a4d4459734d546b344c6a49344d5341324d7934334e4449734d546b304c6a41794f4341324e4334784e6a5167517941784f5445754d6a4d78494459304c6a51304d5377784f446b754d546b35494459794c6a51354f4377784f5445754e544177494459784c6a63304e694244494445354d5334344f4455674e6a45754e6a49774c4445354d6934334e4441674e6a45754d6a63774c4445354d7934304d4441674e6a41754f54593449454d674d546b314c6a45354e7941324d4334784e4455734d546b324c6a59314f5341324d4334794e6a4d734d546b334c6a4d334e7941324d5334794f446b67545445324d6934344d5451674e6a51754d6a413349454d674d5459314c6a45354e5341324e5334304d7a67734d5459314c6a45344e5341324f4334314d5455734d5459794c6a67774d4341324f4334344d7a5167517941784e6a45754f444577494459344c6a6b324e7977784e6a41754e544d31494459354c6a49324e7977784e546b754f545933494459354c6a55774d694244494445314f4334304e4449674e7a41754d544d7a4c4445314e7934304e446b674e6a6b754d4463344c4445314e6934334f4449674e6a59754d54497849454d674d5455324c6a51784d5341324e4334304e7a55734d5455324c6a67324d4341324e4334774f5451734d5455354c6a51784d4341324d7934344f546767517941784e6a41754e5441314944597a4c6a67784d7977784e6a45754e4455304944597a4c6a63784d6977784e6a45754e5449774944597a4c6a59334d694244494445324d5334314f4459674e6a4d754e6a4d794c4445324d6934784e6a67674e6a4d754f44637a4c4445324d6934344d5451674e6a51754d6a4133494530784d5467754e446378494459304c6a677a4e534244494445784f4334784f4445674e6a55754d6a6b354c4445784f4334774d6a45674e6a55754e7a55314c4445784f4334784d5455674e6a55754f44513549454d674d5445344c6a4d354d7941324e6934784d6a59734d5445354c6a49344f4341324e4334344e6a51734d5445354c6a457a4e7941324e4334304d544167517941784d546b754d445977494459304c6a45344d4377784d5467754e7a5977494459304c6a4d334d5377784d5467754e446378494459304c6a677a4e53424e4d6a45774c6a51344e4341324e7934304e445567517941794d5445754d44517a494459344c6a45304e5377794d5449754d7a417a494459354c6a4d324f4377794d5455754d7a5935494463794c6a45344f434244494449784e6934304e5449674e7a4d754d5467314c4449784e7934794e4449674e7a51754d4441774c4449784e7934784d6a55674e7a51754d44417749454d674d6a45324c6a557a4f5341334e4334774d4441734d6a45774c6a63354f4341334d5334354f5463734d6a41354c6a51774d4341334d53347a4d445567517941794d4455754f545531494459354c6a59774d4377794d444d754e445931494459354c6a59794e5377794d4455754d546733494463784c6a4d304e794244494449774e5334354f4451674e7a49754d5451304c4449774e5334324d7a6b674e7a4d754d5463334c4449774e4334314d4441674e7a4d754e44413049454d674d6a417a4c6a4d324f5341334d7934324d6a6b734d6a41784c6a6b7a4f5341334e4334774e7a63734d6a41774c6a59354d5341334e4334314f546367517941784f546b754e7a597a494463304c6a6b344e4377784f5463754d7a6331494463794c6a55774f4377784f5459754f546b79494463774c6a63324d794244494445354e6934314e5441674e6a67754e7a55774c4445354e7934304d5467674e6a67754d6a49304c4449774d5334794d444d674e6a67754d6a457849454d674d6a417a4c6a4d324e5341324f4334794d4451734d6a41304c6a51774d4341324f4334774e446b734d6a41304c6a51774d4341324e7934334d7a4d67517941794d4451754e444177494459324c6a597a4e7977794d446b754e6a5177494459324c6a4d344f5377794d5441754e446730494459334c6a51304e53424e4d6a45314c6a6b794d7941324f4334354e546367517941794d546b754d7a4d31494463794c6a51354f5377794d5467754e6a51334944637a4c6a55334d4377794d5451754f446b30494463774c6a55314f534244494449784d53347a4e4441674e6a63754e7a41344c4449784d4334344d5459674e6a59754f4441774c4449784d6934334d6a4d674e6a59754f44417749454d674d6a457a4c6a55314e7941324e6934344d4441734d6a45304c6a4d334f4341324e79347a4e544d734d6a45314c6a6b794d7941324f4334354e546367545445334e6934344e5451674e6a67754f54677749454d674d5467784c6a4d354e4341334d69347a4d5449734d5467304c6a67344d5341334f4334314e6a51734d54677a4c6a4d344f4341344d4334324f545567517941784f444d754d444930494467784c6a49784e5377784f4449754f446330494467784c6a6b314e6977784f444d754d444533494467794c6a55794e794244494445344d7934784e6a4d674f444d754d5441344c4445344d7934774d7a55674f444d754e7a41344c4445344d6934324f5441674f4451754d44557949454d674d5467794c6a4d334f4341344e43347a4e6a51734d5467784c6a67784d5341344e5334794e7a67734d5467784c6a51794f5341344e6934774f444967517941784e7a59754f54493049446b314c6a55334e6977784e6a49754f54557749446b334c6a67774e4377784e4449754d6a413449446b794c6a4d7a4e694244494445304d4334324e7a49674f5445754f544d784c44457a4f4334354d6a49674f5445754e6a41774c44457a4f43347a4d546b674f5445754e6a417749454d674d544d324c6a45334d6941354d5334324d4441734d544d7a4c6a55774e7941344f5334354e5441734d544d7a4c6a67774e6941344f4334344d445967517941784d7a4d754f545578494467344c6a49314d7977784d7a51754d54417a494467334c6a49324d4377784d7a51754d545130494467324c6a59774d4342444944457a4e43347a4d4463674f444d754f5451304c44457a4e43347a4d4449674f444d754f5451344c4445304d7934304d4441674e7a67754d7a6b3449454d674d5451354c6a67344f5341334e4334304d7a6b734d5455324c6a41774d4341334d5334794f544d734d5455344c6a45794e5341334d4334344d546367517941784e6a51754d7a4d78494459354c6a51794e6977784e7a41754e6a6b34494459344c6a6b774f5377784e7a45754e7a5931494459354c6a63784d434244494445334d7934304e5445674e7a41754f5463314c4445334d5334304e6a55674e7a49754e4441774c4445324f4334774d5459674e7a49754e44417749454d674d5459314c6a63354e7941334d6934304d4441734d5459794c6a41354f4341334d7934304e6a45734d5455344c6a49334d5341334e5334784f546367517941784e5459754f444579494463314c6a67314f5377784e5455754d7a5133494463324c6a51774d4377784e5455754d444532494463324c6a51774d434244494445314e4334794e6a4d674e7a59754e4441774c4445304e6934794d5463674f4441754e54557a4c4445304e4334324d4441674f4445754e7a633349454d674d54517a4c6a6b304d4341344d6934794e7a59734d5451794c6a6b334e7941344d6934344d546b734d5451794c6a51324d4341344d6934354f444967517941784e4445754e7a6b774944677a4c6a45354e4377784e4445754e6a517a4944677a4c6a51774d7977784e4445754f5451354944677a4c6a63774f534244494445304d6934794e5451674f4451754d4445304c4445304d7934774e4451674f444d754f5449344c4445304e4334324f446b674f444d754e44457749454d674d5451324c6a6b794f4341344d6934334d4459734d5451334c6a63774d6941344d6934304d5449734d5455774c6a6b784e6941344d5334774e444d67517941784e5455754e7a6b33494463344c6a6b324e5377784e546b754e544934494463344c6a45314f4377784e6a55754d6a4177494463334c6a6b314d694244494445334d6934354f544d674e7a63754e6a63774c4445334e5334324f5463674e7a63754f4441344c4445334e7934354d4445674e7a67754e6a417949454d674d5467784c6a41354f5341334f5334334e5451734d5467784c6a4d324d5341334f5334774e7a63734d5463344c6a6b334e5341334e5334344d6a6767517941784e7a63754f544530494463304c6a4d344d6977784e7a59754f5445784944637a4c6a49774d4377784e7a59754e7a51334944637a4c6a49774d434244494445334e69347a4e6a41674e7a4d754d6a41774c4445334d6934324f544d674e7a41754d4451344c4445334d6934794f5467674e6a6b754d7a633249454d674d5463784c6a45344d5341324e7934304e7a67734d5463304c6a51794d7941324e7934784f5459734d5463324c6a67314e4341324f4334354f444167545445324f4334794d6a45674e7a55754d44593549454d674d5459344c6a67304f5341334e6934794e6a45734d5459344c6a6b334f4341334e6934344e6a49734d5459344c6a59334d5341334e7934784e6a6b67517941784e6a63754f546333494463334c6a67324d7977784e6a41754f444932494463334c6a637a4d6977784e6a41754e54557a494463334c6a41794d534244494445324d4334794e444d674e7a59754d6a457a4c4445324d5334324d7a51674e7a51754e444d784c4445324d6934324d4441674e7a51754d7a6b3449454d674d54597a4c6a41304d4341334e43347a4f4451734d54597a4c6a67314d4341334e4334784d5441734d5459304c6a51774d4341334d7934334f544567517941784e6a59754d446777494463794c6a67784e5377784e6a63754d6a4d334944637a4c6a49774d6977784e6a67754d6a4978494463314c6a41324f53424e4d6a41354c6a4d314f4341334e6934784e545567517941794d4463754d446331494463324c6a59314d6977794d4459754d6a4135494463334c6a497a4e5377794d4455754d7a6732494463344c6a67794f434244494449774e4334784e4451674f4445754d6a4d774c4449774d5334334e5463674f4449754e5455334c4445354f4334794d7a41674f4449754f44457749454d674d546b314c6a55314d5341344d7934774d4445734d546b314c6a49774d6941344d7934774f546b734d546b324c6a45344e5341344d79347a4f445567517941784f546b754d446b35494467304c6a497a4d6977794d444d754f545530494467794c6a45794d7977794d4455754e7a6b79494463354c6a49784d794244494449774e7934784e7a59674e7a63754d4449784c4449774f4334774e6a49674e7a59754e6a59304c4449784d6934794d4441674e7a59754e6a4d7749454d674d6a45314c6a55324e7941334e6934324d4449734d6a45314c6a67774f4341334e6934324e5455734d6a45314c6a6b794d4341334e7934304e444967517941794d5459754d6a6b35494467774c6a41354e7977794d446b754e7a4531494467304c6a67304d7977794d444d754e444177494467324c6a51324e794244494445354e7934354f5441674f4463754f4455344c4445344f4334774e4441674f4451754f5459794c4445354d4334774d6a49674f4449754e54637a49454d674d546b774c6a55304d5341344d5334354e4467734d546b784c6a45304f4341344d5334354e5441734d546b7a4c6a59774d4341344d6934314f445167517941784f5451754d6a6735494467794c6a63324d6977784f5451754d544d31494467794c6a55344e4377784f544d754d54417a494467794c6a41784d794244494445354d43347a4f544d674f4441754e5445794c4445344e7934324d6a6b674f4449754d6a6b794c4445344f5334324f5451674f4451754d6a413349454d674d546b304c6a49324d7941344f4334304e444d734d6a417a4c6a55784f4341344f4334314d5459734d6a41354c6a67324d6941344e43347a4e6a5567517941794d5441754e7a63334944677a4c6a63324e7977794d5445754f5441354944677a4c6a45314e6977794d5449754d7a63344944677a4c6a41774e794244494449784d79347a4d6a63674f4449754e7a41324c4449784e6934784f5455674e7a6b754d6a63324c4449784e6934324d6a45674e7a63754f544d3049454d674d6a45334c6a49324d7941334e5334354d5449734d6a45304c6a41324e7941334e5334784d7a41734d6a41354c6a4d314f4341334e6934784e545567545445324f4334354d7a6b674f4441754e7a637a49454d674d5459344c6a51324e5341344d4334354e7a67734d5459334c6a55324e5341344d5334344d5451734d5459324c6a6b7a4f5341344d6934324d7a4967517941784e6a49754d7a5933494467344c6a59774d4377784e5459754e54457949446b774c6a417a4e4377784e446b754e7a4535494467324c6a67314d434244494445304e7934334f4455674f4455754f54517a4c4445304e6934324d444d674f4455754e6a41794c4445304e6934784d546b674f4455754f44457849454d674d5451314c6a55304e5341344e6934774e6a41734d5451314c6a59344d6941344e6934784e7a59734d5451324c6a67774d4341344e69347a4f446367517941784e4463754e546377494467324c6a557a4d7977784e4467754e546730494467324c6a67324d4377784e446b754d445579494467334c6a45784e534244494445314e5334784f4463674f5441754e4451304c4445324d53347a4d4451674f446b754e4441314c4445324e6934794d7a63674f4451754d546b32494577674d5459354c6a41334e4341344d5334794d4441674d5463784c6a59334e4341344d5334794d444167517941784f4441754e545577494467784c6a49774d4377784e7a6b754d7a6732494467334c6a51774e7977784e6a6b754f444d3249446b784c6a41774d534244494445324e53347a4e4449674f5449754e6a6b7a4c4445314d7934324e444d674f5449754d6a6b794c4445304f4334784e4467674f5441754d6a553549454d674d5451334c6a49354e6941344f5334354e4451734d5451314c6a6b344e4341344f5334314d6a6b734d5451314c6a497a4d5341344f53347a4d7a6367517941784e444d754e545131494467344c6a6b774e7977784e444d754d6a6b35494467344c6a4d774d5377784e4451754d7a6331494467334c6a49794e534244494445304e5334314e4463674f4459754d44557a4c4445304e4334324e7a41674f4459754d546b354c4445304d79347a4d6a49674f4463754e44417849454d674d5451784c6a6b334e6941344f4334324d4445734d5451794c6a55304e6941344f53347a4d546b734d5451314c6a4d344f4341354d4334774d445967517941784e4459754d6a633049446b774c6a49794d4377784e4463754e54517749446b774c6a55354e6977784e4467754d6a417749446b774c6a67304d534244494445314f5334774f5451674f5451754f4467794c4445334e4334344d7a6b674f5449754d446b354c4445334f4334794d7a59674f4455754e544d7849454d674d5463354c6a67314f4341344d69347a4f5455734d54637a4c6a457a4e7941334f4334354e5451734d5459344c6a6b7a4f5341344d4334334e7a4d67545449794d5334324d5467674f4467754e44453449454d674d6a49334c6a55314e7941354e4334794f5463734d6a49344c6a41774d4341354e5334784d5463734d6a49344c6a41774d4341784d4441754d6a4977494577674d6a49344c6a41774d4341784d444d754d54457a494449794e69347a4f5449674d54417a4c6a63314e794244494449794d7934344e446b674d5441304c6a63334e4377794d6a4d754e6a4930494445774e4334324e7a49734d6a49304c6a41324e5341784d4449754e7a417749454d674d6a49304c6a49334e4341784d4445754e7a59314c4449794e4334334d4455674d5441774c6a59774d5377794d6a55754d444979494445774d4334784d545167517941794d6a55754f54673249446b344c6a597a4e6977794d6a51754f544d3049446b7a4c6a6b774e4377794d6a4d754e54417749446b7a4c6a49324e794244494449794d79347a4d7a55674f544d754d546b7a4c4449794d7934794d4441674f5449754f44637a4c4449794d7934794d4441674f5449754e54553049454d674d6a497a4c6a49774d4341354d6934794d7a59734d6a49794c6a6b7a4d4341354d5334344e7a45734d6a49794c6a59774d4341354d5334334e445567517941794d6a49754d6a637749446b784c6a59784f4377794d6a49754d44417749446b784c6a49324e4377794d6a49754d44417749446b774c6a6b314e794244494449794d6934774d4441674f5441754e6a55784c4449794d5334344e4455674f5441754e4441774c4449794d5334324e5463674f5441754e44417749454d674d6a49784c6a51324f4341354d4334304d4441734d6a49774c6a4d304e4341344f5334314d4441734d6a45354c6a45324d4341344f4334304d444167517941794d5463754f546332494467334c6a4d774d4377794d5459754f44417a494467324c6a51774d4377794d5459754e54557a494467324c6a51774d434244494449784e5334334d6a6b674f4459754e4441774c4449784e5334784e5467674f4455754d7a41314c4449784e5334304d6a59674f4451754d6a4d3449454d674d6a45314c6a67784d6941344d6934334d4441734d6a45314c6a6b774f4341344d6934334e6a55734d6a49784c6a59784f4341344f4334304d546767545449794e79347a4e6a41674f446b754e6a677a49454d674d6a49334c6a637a4f5341354d4334794e6a41734d6a49344c6a4d774e7941354d4334344d7a49734d6a49344c6a59794e4341354d4334354e545167517941794d6a67754f54517849446b784c6a41334e5377794d6a6b754d6a417749446b784c6a51794f5377794d6a6b754d6a417749446b784c6a637a4f434244494449794f5334794d4441674f5449754d4451344c4449794f5334304e5441674f5449754e5445774c4449794f5334334e5459674f5449754e7a593049454d674d6a4d774c6a41324d6941354d7934774d5467734d6a4d774c6a59794e4341354e4334314e446b734d6a4d784c6a41774e5341354e6934784e6a6367517941794d7a45754e6a557849446b344c6a6b774f4377794d7a45754e6a5135494445774d4334794e6a45734d6a4d774c6a6b354e7941784d4449754f44497849454d674d6a4d774c6a63344e4341784d444d754e6a55354c44497a4d4334354d6a49674d54417a4c6a6b794e7977794d7a45754e7a5934494445774e43347a4d544d67517941794d7a49754d7a5933494445774e4334314f4459734d6a4d794c6a67774d4341784d4455754d5445794c44497a4d6934344d4441674d5441314c6a55324f4342444944497a4d6934344d4441674d5441324c6a41774d4377794d7a49754f545530494445774e6934304e4467734d6a4d7a4c6a45304d6941784d4459754e54593049454d674d6a4d7a4c6a63354d7941784d4459754f5459324c44497a4d7934784d4441674d5441304c6a63334e5377794d7a49754e44497a494445774e4334794f446767517941794d7a45754f445934494445774d7934344f5441734d6a4d784c6a63304e5341784d444d754d544d344c44497a4d5334334e5455674d5441774c6a49774d4342444944497a4d5334334e7a49674f5451754f446b314c44497a4d4334324f5441674f5445754f5459784c4449794e7934344e4467674f446b754e6a4133494577674d6a49324c6a59334d7941344f4334324d7a51674d6a49334c6a4d324d4341344f5334324f444d67545445774f5334324f4445674d5441304c6a49344f434244494445774f5334304d5459674d5441314c6a45334d5377784d446b754d6a4978494445774e6934304d5449734d5441354c6a49304e6941784d4463754d44513249454d674d5441354c6a49334e7941784d4463754f4445334c4445774f53347a4e4463674d5441334c6a6b7a4e5377784d446b754e445533494445774e7934304d444167517941784d446b754e545133494445774e6934354e6a41734d5441354c6a67784f4341784d4455754f5451324c4445784d4334774e546b674d5441314c6a45304e694244494445784d43347a4d4441674d5441304c6a4d304e7977784d5441754e444979494445774d7934304e6a59734d5445774c6a4d794f5341784d444d754d54673449454d674d5445774c6a497a4e7941784d4449754f5445784c4445774f5334354e4455674d54417a4c6a51774e6977784d446b754e6a6778494445774e4334794f446767545445794d6934344d4441674d54417a4c6a63794e434244494445794d6934344d4441674d5441304c6a63344e7977784d6a45754f444179494445774e69347a4d7a55734d5449784c6a4d344e5341784d4455754f54453449454d674d5449784c6a497a4d4341784d4455754e7a59304c4445794d5334794d6a51674d5441304c6a6b354f5377784d6a45754d7a6377494445774e4334794d546b67517941784d6a45754e6a6378494445774d6934324d5455734d5449794c6a67774d4341784d4449754d6a49304c4445794d6934344d4441674d54417a4c6a63794e43424e4d5449314c6a6b344e7941784d444d754d54673049454d674d5449324c6a51354f4341784d444d754e5441324c4445794e6934304e7a6b674d54417a4c6a67794d4377784d6a55754f44517a494445774e5334314f446767517941784d6a51754f445577494445774f43347a4e446b734d5449314c6a417a4d5341784d5455754e6a63794c4445794e6934784d7a51674d5445334c6a4d314e534244494445794e6934314d7a51674d5445334c6a6b324e5377784d6a63754d544979494445784f5334304e6a6b734d5449334c6a51304d6941784d6a41754e6a6b3349454d674d5449334c6a63324d6941784d6a45754f5449314c4445794f4334334e5445674d5449304c6a51324d4377784d6a6b754e6a4d35494445794e69347a4d7a4167517941784d7a45754e5459314944457a4d43347a4f4451734d544d784c6a557a4e4341784d7a45754e7a49304c4445794f5334314d546b674d544d784c6a55794e434244494445794e7934304d6a63674d544d784c6a4d784e7977784d6a49754f444177494445794d5334784d6a4d734d5449794c6a67774d4341784d5459754e7a497949454d674d5449794c6a67774d4341784d5455754f4455324c4445794d6934324d5445674d5445304c6a63354e5377784d6a49754d7a6778494445784e43347a4e6a5167517941784d6a45754f444131494445784d7934794f4467734d5449784c6a637a4f4341784d446b754d6a49324c4445794d6934794e7a49674d5441334c6a63344e434244494445794d6934314d544d674d5441334c6a457a4d7977784d6a49754f544530494445774e5334344e4467734d54497a4c6a45324d7941784d4451754f54493449454d674d54497a4c6a55314f5341784d444d754e44597a4c4445794d7934354d4449674d54417a4c6a45784e4377784d6a55754d6a4177494445774d6934344e544d67517941784d6a55754d7a4577494445774d6934344d7a41734d5449314c6a59324e4341784d4449754f5463354c4445794e5334354f4463674d54417a4c6a45344e43424e4d6a49354c6a4d354d7941784d4467754d7a593549454d674d6a49354c6a41314e5341784d446b754e7a45324c4449794f5334774e7a49674d5441354c6a63774e7977794d6a63754f445579494445774f5334784e544567517941794d6a59754e54597a494445774f4334314e6a4d734d6a49324c6a55784d7941784d4463754f446b784c4449794e7934334d4441674d5441334c6a41354d694244494449794f4334344f5455674d5441324c6a49344f4377794d6a6b754e7a557a494445774e6934354d7a59734d6a49354c6a4d354d7941784d4467754d7a5935494530784d6a63754e6a557a494445774f4334334d444167517941784d7a41754e446734494445784d7934344d5449734d544d774c6a67354f4341784d5463754d6a55344c4445794f4334334d444d674d5445334c6a55794d694244494445794e6934324e5459674d5445334c6a63324f5377784d6a55754d444134494445784d6934794e6a49734d5449314c6a67314e7941784d4467754d44453349454d674d5449324c6a45344d7941784d4459754d7a677a4c4445794e6934304d5467674d5441324c6a51334d7977784d6a63754e6a557a494445774f4334334d4441675454497a4d6934344f4451674d5445784c6a41304d4342444944497a4d6934344d7a67674d54457a4c6a41304d6977794d7a49754e6a4131494445784e5334794e4441734d6a4d794c6a4d324e7941784d5455754f54497a49454d674d6a4d784c6a6b344e7941784d5463754d4445304c44497a4d6934774e6a41674d5445334c6a4d7a4d6977794d7a49754f545933494445784f4334314d6a4567517941794d7a4d754e544d31494445784f5334794e6a59734d6a4d304c6a41774d4341784d6a41754d5445304c44497a4e4334774d4441674d5449774c6a51774e4342444944497a4e4334774d4441674d5449774c6a59354e5377794d7a51754d544535494445794d4334344d5451734d6a4d304c6a49324e4341784d6a41754e6a593549454d674d6a4d304c6a55324d6941784d6a41754d7a63784c44497a4d7934784e7a63674d5445334c6a59774d4377794d7a49754e7a4d77494445784e7934324d444167517941794d7a49754e546378494445784e7934324d4441734d6a4d794c6a59784f5341784d5463754d446b784c44497a4d6934344d7a59674d5445324c6a51324f4342444944497a4d7934774e544d674d5445314c6a67304e6977794d7a4d754d546378494445784d7934314e5445734d6a4d7a4c6a41354f5341784d5445754d7a5934494577674d6a4d794c6a6b324e7941784d4463754e4441774944497a4d6934344f4451674d5445784c6a41304d43424e4d5441344c6a67324e4341784d5441754d6a497749454d674d5441344c6a67794f5341784d5441754f446b784c4445774f4334314e7a59674d5445784c6a59324e4377784d4467754d7a417a494445784d5334354d7a6367517941784d4463754f445179494445784d69347a4f5467734d5441334c6a51354e5341784d5459754e7a41794c4445774e7934774e4449674d5449334c6a59774d43424d494445774e6934354d4441674d544d784c6a41774d4341784d4463754d6a5179494445794e7934344d444167517941784d4463754e444d77494445794e6934774e4441734d5441334c6a63304e4341784d6a49754d4459334c4445774e7934354d7a6b674d5445344c6a6b334d534244494445774f4334784d7a55674d5445314c6a67334e6977784d4467754e544577494445784d6934354e4449734d5441344c6a63334d6941784d5449754e44557a49454d674d5441354c6a417a4e4341784d5445754f54597a4c4445774f5334784e7a59674d5445774c6a6b344e6977784d446b754d446734494445784d4334794f444967544341784d4467754f544934494445774f5334774d4441674d5441344c6a67324e4341784d5441754d6a4977494530794d6a67754f444d33494445784e5334344f544567517941794d6a67754e446b77494445784e6934304f4463734d6a49344c6a51794d6941784d5459754d7a6b334c4449794f4334304d5449674d5445314c6a4d7a4d794244494449794f43347a4f5451674d54457a4c6a51774f5377794d6a67754f545932494445784d6934794e5445734d6a49354c6a45794e5341784d544d754f446b7849454d674d6a49354c6a45354d7941784d5451754e6a41794c4449794f5334774e6a51674d5445314c6a55774d6977794d6a67754f444d33494445784e5334344f5445675454497a4e4334784d7a6b674d5449354c6a677a4e5342444944497a4e4334794f4441674d544d784c6a55774e4377794d7a51754e6a51794944457a4d79347a4e446b734d6a4d304c6a6b304d6941784d7a4d754f544d3149454d674d6a4d324c6a41324e6941784d7a59754d5449314c44497a4e6934314d7a6b674d544d334c6a67334d7977794d7a59754e6a6735494445304d4334304d444167517941794d7a59754f444d35494445304d6934354d546b734d6a4d334c6a55314f5341784e4455754d5459304c44497a4f4334324d5451674d5451324c6a51774d4342444944497a4f5334794e6a59674d5451334c6a45324e5377794d7a6b754e544931494445304f4334334e546b734d6a4d354c6a41774d4341784e4467754e7a633349454d674d6a4d344c6a63344d4341784e4467754e7a67304c44497a4f4334794e7a49674d5451344c6a59344e6977794d7a63754f446378494445304f4334314e546b67517941794d7a63754d444178494445304f4334794f444d734d6a4d314c6a59774d4341784e446b754e444d774c44497a4e5334324d4441674d5455774c6a51784f5342444944497a4e5334324d4441674d5455774c6a67774d6977794d7a55754d7a4978494445314d5334794d6a45734d6a4d304c6a6b344d5341784e5445754d7a557949454d674d6a4d304c6a45324e6941784e5445754e6a59314c44497a4e4334314f5441674d5451334c6a45304e4377794d7a55754e544934494445304e5334314d546367517941794d7a59754d54417a494445304e4334314d546b734d6a4d324c6a41344e6941784e4451754d6a41344c44497a4e53347a4d444d674d5451784c6a55784e7942444944497a4e4334784d4445674d544d334c6a4d344e7977794d7a4d754e446b7a4944457a4d7934354d5449734d6a4d7a4c6a4d774e4341784d7a41754d54417749454d674d6a4d7a4c6a41354f5341784d6a55754f544d324c44497a4d7934334f5445674d5449314c6a63784e6977794d7a51754d544d35494445794f5334344d7a5567545445774e69347a4d5455674d544d314c6a497a4d43424d494445774e6934794d4441674d544d344c6a67314f5341784d4451754d6a41774944457a4f5334324e7a6767517941784d444d754d544177494445304d4334784d6a6b734d5441784c6a597a4d7941784e4441754e7a51324c4445774d4334354e4441674d5451784c6a41304f534244494445774d4334794e4459674d5451784c6a4d314d6977354f53347a4d7a59674d5451784c6a59774d4377354f4334354d5459674d5451784c6a59774d43424449446b344c6a51354e6941784e4445754e6a41774c446b334c6a67774e4341784e4445754f4459304c446b334c6a4d334e6941784e4449754d54673349454d674f5459754f545135494445304d6934314d5441734f5459754d6a6b78494445304d6934334f4441734f5455754f544579494445304d6934334f446367517941354e5334794e5449674d5451794c6a63354f5377354d6934774d5451674d5451304c6a4d774e5377354d5334324d4441674d5451304c6a63354d69424449446b784c6a51354d4341784e4451754f5449794c446b774c6a67344d5341784e4455754e4449324c446b774c6a49304e6941784e4455754f54453049454d674f446b754e6a4578494445304e6934304d4445734f446b754d6a6732494445304e6934344d4441734f446b754e544979494445304e6934344d444167517941344f5334334e546b674d5451324c6a67774d4377354d4334774e6a49674d5451324c6a59794e4377354d4334784f5455674d5451324c6a51774f43424449446b774c6a59314e5341784e4455754e6a59304c446b314c6a49304e6941784e444d754d6a41774c446b324c6a45334d6941784e444d754d6a417749454d674f5459754e6a6730494445304d7934794d4441734f5463754d7a4133494445304d6934354e5449734f5463754e545535494445304d6934324e544167517941354e7934344d5441674d5451794c6a4d304e7977354f4334334e4441674d5451784c6a6b344e4377354f5334324d6a55674d5451784c6a67304d694244494445774d4334314d5441674d5451784c6a63774d5377784d4445754e545179494445304d5334304d6a59734d5441784c6a6b784e7941784e4445754d6a4d7849454d674d5441794c6a49354d7941784e4445754d444d334c4445774d7934314e4455674d5451774c6a51314e7977784d4451754e7a41774944457a4f5334354e445167544341784d4459754f4441774944457a4f5334774d5445674d5441324c6a67774d4341784d7a55754d7a413249454d674d5441324c6a67774d4341784d7a41754e5451324c4445774e6934304e6a55674d544d774c6a51354e4377784d4459754d7a45314944457a4e5334794d7a41675454497a4e79347a4e7a51674d544d794c6a59774d4342444944497a4e7934314d7a55674d544d7a4c6a41304d4377794d7a63754f4441784944457a4e4334794d6a6b734d6a4d334c6a6b324e4341784d7a55754d6a517849454d674d6a4d344c6a4d354f5341784d7a63754f544d794c44497a4f5334334d5455674d544d354c6a59774d4377794e4445754e4441304944457a4f5334324d444167517941794e4449754d5451324944457a4f5334324d4441734d6a51794c6a67324e4341784d7a6b754e7a67774c4449304d7934774d4441674d5451774c6a41774d434244494449304d7934784d7a59674d5451774c6a49794d4377794e444d754e545178494445304d4334304d4441734d6a517a4c6a6b774d4341784e4441754e44417749454d674d6a51304c6a51304f4341784e4441754e4441774c4449304e4334304d6a67674d5451774c6a4d774e5377794e444d754e7a63324944457a4f5334344d544d67517941794e444d754d7a51354944457a4f5334304f5441734d6a51794c6a51794d6941784d7a6b754d6a49774c4449304d5334334d5459674d544d354c6a49784d794244494449304d4334354d5451674d544d354c6a49774e5377794e4441754d5445354944457a4f4334344e6a51734d6a4d354c6a59774d4341784d7a67754d7a413449454d674d6a4d344c6a63314d5341784d7a63754d7a6b334c44497a4f4334324d5441674d544d324c6a6b334e5377794d7a67754d6a51774944457a4e4334794d7a5567517941794d7a67754d5449304944457a4d79347a4e7a51734d6a4d334c6a67784e6941784d7a49754e4463304c44497a4e7934314e5459674d544d794c6a497a4e5342444944497a4e7934784f546b674d544d784c6a6b774e7977794d7a63754d5455304944457a4d5334354f5463734d6a4d334c6a4d334e4341784d7a49754e6a4177494530794e4459754d544977494445304d4334334f445967517941794e4459754f545533494445304d4334354e4467734d6a51334c6a67304f4341784e4445754d6a67344c4449304f4334784d4441674d5451784c6a55304d434244494449304f43347a4e544d674d5451784c6a63354d7977794e4467754f546330494445304d6934774d4441734d6a51354c6a51344d4341784e4449754d44417749454d674d6a51354c6a6b344e6941784e4449754d4441774c4449314d4334304d4441674d5451794c6a45334e7977794e5441754e444177494445304d69347a4f544967517941794e5441754e444177494445304d6934324d4467734d6a55774c6a67354e5341784e4449754f54417a4c4449314d5334314d4441674d54517a4c6a41304f434244494449314d6934784d4455674d54517a4c6a45354d6977794e5449754f446377494445304d7934314d5441734d6a557a4c6a49774d4341784e444d754e7a553149454d674d6a557a4c6a63794d5341784e4451754d5451794c4449314d7934334d6a67674d5451304c6a45774f4377794e544d754d6a5578494445304d7934314d444167517941794e5449754f545135494445304d7934784d5455734d6a55794c6a4d344e6941784e4449754f4441774c4449314d6934774d4441674d5451794c6a67774d434244494449314d5334324d5451674d5451794c6a67774d4377794e5445754d446330494445304d6934314d7a41734d6a55774c6a67774d4341784e4449754d6a417749454d674d6a55774c6a55794e6941784e4445754f4463774c4449304f5334344f5459674d5451784c6a59774d4377794e446b754e444177494445304d5334324d444167517941794e4467754f544130494445304d5334324d4441734d6a51344c6a49334e4341784e4445754d7a4d774c4449304f4334774d4441674d5451784c6a41774d434244494449304e7934334d4467674d5451774c6a59304f4377794e4459754f544179494445304d4334304d546b734d6a51324c6a41314d5341784e4441754e445132494577674d6a51304c6a59774d4341784e4441754e446b79494449304e6934784d6a41674d5451774c6a63344e69424e4d6a51314c6a49774d4341784e4451754d444d7949454d674d6a51314c6a49774d4341784e4451754d546b324c4449304e5334354e5467674d5451304c6a51314f4377794e4459754f446731494445304e4334324d545167517941794e4463754f444578494445304e4334334e7a45734d6a51344c6a67304e6941784e4455754d4451304c4449304f5334784f4455674d5451314c6a49794d694244494449304f5334314d6a4d674d5451314c6a4d354f5377794e5441754f446777494445304e5334354e5451734d6a55794c6a49774d4341784e4459754e44553049454d674d6a557a4c6a55794d4341784e4459754f5455304c4449314e4334344d6a63674d5451334c6a557a4d4377794e5455754d544130494445304e7934334d7a5167517941794e5455754f446730494445304f43347a4d4463734d6a55344c6a63794e7941784e446b754f4463344c4449324d5334324e7a67674d5455784c6a4d324e534244494449324d7934784e5445674d5455794c6a45774e7977794e6a51754f445978494445314d7934774e7a41734d6a59314c6a51334f4341784e544d754e54413149454d674d6a59324c6a41354e5341784e544d754f544d354c4449324e7934774d4455674d5455304c6a51794d5377794e6a63754e544177494445314e4334314e7a5167517941794e6a63754f546b31494445314e4334334d6a67734d6a59344c6a51774d4341784e5455754d4445774c4449324f4334304d4441674d5455314c6a49774d434244494449324f4334304d4441674d5455314c6a4d354d4377794e6a67754f444131494445314e5334324e7a55734d6a59354c6a4d774d4341784e5455754f444d7849454d674d6a59354c6a63354e5341784e5455754f5467344c4449334d4334354d6a41674d5455324c6a55334e5377794e7a45754f444177494445314e7934784d7a5567517941794e7a49754e6a6777494445314e7934324f5455734d6a63304c6a45354d6941784e5467754e5463354c4449334e5334784e6a45674d5455354c6a41354f434244494449334e6934784d7a41674d5455354c6a59784e7977794e7a63754e545932494445324d4334314e7a4d734d6a63344c6a4d314d6941784e6a45754d6a497849454d674d6a63354c6a457a4f5341784e6a45754f4463774c4449334f5334354f5459674d5459794c6a51774d4377794f4441754d6a5534494445324d6934304d444167517941794f4441754e544535494445324d6934304d4441734d6a67774c6a63354d7941784e6a49754e5451304c4449344d4334344e6a63674d5459794c6a63794d434244494449344d4334354e4441674d5459794c6a67354e5377794f4449754e546b78494445324e4334774f544d734d6a67304c6a557a4e6941784e6a55754d7a677849454d674d6a67354c6a63784e5341784e6a67754f4441354c4449354d5334784e5455674d5463774c6a49304e6977794f5441754d545931494445334d4334354f545967517941794f4467754d545535494445334d6934314d5451734d6a67794c6a6b314f4341784e7a41754d5463334c4449334f4334794d4441674d5459314c6a59784f534244494449334e79347a4d6a41674d5459304c6a63334e6977794e7a59754d6a5177494445324d7934354e7a67734d6a63314c6a67774d4341784e6a4d754f44513149454d674d6a63314c6a4d324d4341784e6a4d754e7a457a4c4449334e4334304e6a41674d54597a4c6a457a4e4377794e7a4d754f444177494445324d6934314e546b67517941794e7a4d754d545177494445324d5334354f4451734d6a63784c6a59334e5341784e6a41754f5445344c4449334d4334314e4451674d5459774c6a45354d434244494449324f5334304d544d674d5455354c6a51324d6977794e6a67754d7a5533494445314f4334324e5451734d6a59344c6a45354e7941784e5467754d7a6b3149454d674d6a59344c6a417a4e7941784e5467754d544d324c4449324e6934344d4449674d5455334c6a4d344f4377794e6a55754e44557a494445314e6934334d7a4d67517941794e6a41754f546b31494445314e4334314e6a6b734d6a55354c6a63324d5341784e544d754f4445314c4449314f43347a4e5455674d5455794c6a4d354e534244494449314e69347a4d7a67674d5455774c6a4d314f4377794e4459754e444d31494445304e5334304e5463734d6a51304c6a49334d6941784e4455754e44493149454d674d6a51794c6a59354d6941784e4455754e4441784c4449304d6934314f544d674d5451314c6a4d7a4d4377794e4449754e446333494445304e4334784d7a4167544341794e4449754d7a5530494445304d6934344e6a45674d6a517a4c6a63334e7941784e444d754d6a6b3349454d674d6a51304c6a55324d4341784e444d754e544d344c4449304e5334794d4441674d54517a4c6a67324f4377794e4455754d6a4177494445304e4334774d7a4967545449314e5334314e4451674d5451304c6a67774f534244494449314e6934314d444d674d5451314c6a49304e4377794e5463754e54677a494445304e5334314f4459734d6a55334c6a6b304e4341784e4455754e54593449454d674d6a55344c6a51344e5341784e4455754e5451794c4449314f4334304f5451674d5451314c6a55774d5377794e5467754d444177494445304e53347a4d7a4d67517941794e5463754e6a6377494445304e5334794d6a41734d6a55324c6a677a4d7941784e4451754f4463304c4449314e6934784e4441674d5451304c6a55324e434244494449314e5334304e4459674d5451304c6a49314e4377794e5451754e6a4d32494445304e4334774d4451734d6a55304c6a4d304d4341784e4451754d44413549454d674d6a55304c6a41304d7941784e4451754d4445304c4449314e4334314f4455674d5451304c6a4d334e4377794e5455754e545130494445304e4334344d446b67545449314f5334794d4441674d5451324c6a49774d434244494449314f5334304e7a51674d5451324c6a557a4d4377794e6a41754d446778494445304e6934334f546b734d6a59774c6a55304f5341784e4459754e7a6b3449454d674d6a59784c6a49344e7941784e4459754e7a6b314c4449324d5334794e4463674d5451324c6a63784e5377794e6a41754d6a5530494445304e6934784f546767517941794e5467754f444577494445304e5334304e4451734d6a55344c6a55334d7941784e4455754e4451314c4449314f5334794d4441674d5451324c6a49774d43424e4f4463754e545135494445304e7934304e6a6b67517941344e7934794e4463674d5451334c6a677a4f4377344e5334354d6a41674d5451344c6a6b794f5377344e4334324d4441674d5451354c6a67354e6942444944677a4c6a49344d4341784e5441754f4459794c4467784c6a417a4d4341784e5449754e7a637a4c4463354c6a59774d4341784e5451754d54517949454d674e7a67754d546377494445314e5334314d5449734e7a55754f444d77494445314e7934314d4459734e7a51754e444177494445314f4334314e7a4d67517941334d5334344e6a45674d5459774c6a51324f4377324e4334774d4441674d5459344c6a45794d4377324e4334774d4441674d5459344c6a59354e694244494459304c6a41774d4341784e6a67754f4455324c4459314c6a6b7a4e5341784e6a63754d4463344c4459344c6a4d774d4341784e6a51754e7a513149454d674e7a41754e6a5931494445324d6934304d5449734e7a4d754e546b77494445314f5334334f4441734e7a51754f444177494445314f4334344f545967517941334e6934774d5441674d5455344c6a41784d7977334f4334794f4467674d5455324c6a41794d6977334f5334344e6a49674d5455304c6a51334e434244494467784c6a517a4e7941784e5449754f5449314c44677a4c6a51314f5341784e5445754d546b304c4467304c6a4d314e6941784e5441754e6a493449454d674f4459754d546b34494445304f5334304e6a55734f446b754d446378494445304e6934344d4441734f4467754e44677a494445304e6934344d444167517941344f4334794e7a45674d5451324c6a67774d4377344e7934344e5445674d5451334c6a45774d5377344e7934314e446b674d5451334c6a51324f53424e4d6a59794c6a41774e6941784e4463754e44413349454d674d6a59794c6a49334d5341784e4463754e7a49324c4449324d79347a4d6a4d674d5451344c6a4d354e4377794e6a51754d7a5130494445304f4334344f544167517941794e6a55754f446331494445304f5334324d7a55734d6a59344c6a41334d6941784e5441754f4455354c4449334d6934324e6a63674d54557a4c6a55794f534244494449334d7934354d4451674d5455304c6a49304e7977794e7a63754e6a4932494445314e6934344f444d734d6a63344c6a45324e6941784e5463754e44497a49454d674d6a63344c6a59784e5341784e5463754f4463794c4449344d4334774d446b674d5455344c6a41344e6977794f444d754e445533494445314f4334794d7a5567517941794f4459754d444d79494445314f43347a4e4463734d6a67344c6a4d784e6941784e5467754e5451344c4449344f4334314d7a49674d5455344c6a59344d694244494449344f4334334e4467674d5455344c6a67784e5377794f5441754d544579494445314f4334354e7a63734d6a6b784c6a55324d7941784e546b754d44517849454d674d6a6b7a4c6a41784d7941784e546b754d5441314c4449354e4334344d7a41674d5455354c6a49314e4377794f5455754e6a4177494445314f53347a4e7a4967517941794f5459754f446779494445314f5334314e6a6b734d6a6b324c6a6b784e5341784e546b754e5455774c4449354e6934774d4441674d5455354c6a45314d434244494449354e5334304e5441674d5455344c6a6b774f5377794f544d754f544977494445314f4334324e6a4d734d6a6b794c6a59774d4341784e5467754e6a417849454d674d6a6b784c6a49344d4341784e5467754e5451774c4449344f5334334e5441674d5455344c6a4d344d4377794f446b754d6a4177494445314f4334794e445967517941794f4467754e6a5577494445314f4334784d5449734d6a67324c6a45354d7941784e5463754f5449314c4449344d7934334e4445674d5455334c6a677a4d43424d494449334f5334794f4449674d5455334c6a59314f5341794e7a59754e7a5178494445314e5334344d7a5167517941794e7a55754d7a517a494445314e4334344d7a41734d6a637a4c6a6b784e5341784e544d754e7a4d334c4449334d7934314e6a59674d54557a4c6a51774e534244494449334d7934794d5467674d54557a4c6a41334d6977794e7a49754e7a4d78494445314d6934344d4441734d6a63794c6a51344e4341784e5449754f44417749454d674d6a63794c6a497a4e7941784e5449754f4441774c4449334d53347a4e544d674d5455794c6a4d7a4d6977794e7a41754e544534494445314d5334334e6a4167517941794e6a6b754e6a677a494445314d5334784f4467734d6a59344c6a59304d4341784e5441754e5455344c4449324f4334794d4441674d5455774c6a4d324d534244494449324e7934334e6a41674d5455774c6a45324d7977794e6a63754d544d77494445304f5334344d7a51734d6a59324c6a67774d4341784e446b754e6a4d7749454d674d6a59324c6a51334d4341784e446b754e4449314c4449324e5334354d7a41674d5451354c6a45314d6977794e6a55754e6a4177494445304f5334774d6a5167517941794e6a55754d6a6377494445304f4334344f5455734d6a59304c6a49784f4341784e4467754d7a51344c4449324d7934794e6a49674d5451334c6a67774f434244494449324d69347a4d4459674d5451334c6a49324f4377794e6a45754e7a5178494445304e7934774f4467734d6a59794c6a41774e6941784e4463754e444133494530784d4459754e444d30494445304f4334774e6a5167517941784d4463754e44557a494445304f5334354e6a63734d5441314c6a67324f5341784e5455754d7a41304c4445774e4334334f5449674d54557a4c6a59774d434244494445774e4334794e4451674d5455794c6a637a4d7977784d4451754d7a4578494445304f4334794e446b734d5441304c6a67344d4341784e4463754e6a677749454d674d5441314c6a55324e4341784e4459754f546b324c4445774e5334354d4467674d5451334c6a41344d4377784d4459754e444d30494445304f4334774e6a51675454497a4f4334784d5455674d5455784c6a6b774e7942444944497a4e7934334f4451674d5455314c6a4d774f5377794d7a59754e54417a494445324d53347a4d5463734d6a4d314c6a45354e6941784e6a55754e6a417749454d674d6a4d304c6a51354d6941784e6a63754f5445774c44497a4d7934324f4467674d5463774c6a63354d4377794d7a4d754e444579494445334d6934774d444167517941794d7a49754e7a4d7a494445334e4334354e6a51734d6a4d784c6a4d794e6941784e7a63754f44517a4c44497a4d4334774e7a55674d5463344c6a67794e794244494449794e7934324d446b674d5467774c6a63324e7977794d6a59754d6a5130494445334f4334304d6a49734d6a49344c6a45354f4341784e7a55754e6a417949454d674d6a49354c6a51304e4341784e7a4d754f4441314c44497a4d5334794e7a4d674d5459354c6a51304e4377794d7a49754d545932494445324e6934784e444967517941794d7a49754e544530494445324e4334344e5451734d6a4d7a4c6a41344e6941784e6a49754f4445774c44497a4d7934304d7a59674d5459784c6a59774d4342444944497a4d7934334f4463674d5459774c6a4d354d4377794d7a51754d6a5130494445314f4334314f5441734d6a4d304c6a51314d7941784e5463754e6a417749454d674d6a4d304c6a59324d6941784e5459754e6a45774c44497a4e5334774d4455674d5455314c6a51344e7977794d7a55754d6a4532494445314e5334784d445567517941794d7a55754e444933494445314e4334334d6a4d734d6a4d314c6a59774e4341784e5451754d44417a4c44497a4e5334324d446b674d54557a4c6a55774e5342444944497a4e5334324d5451674d54557a4c6a41774e7977794d7a55754f546330494445314d5334344d5451734d6a4d324c6a51784d5341784e5441754f44557949454d674d6a4d334c6a51324e7941784e4467754e5449314c44497a4f43347a4f5441674d5451354c6a41354e6977794d7a67754d544531494445314d5334354d446367545449304d4334304d5455674d54557a4c6a67774e434244494449304d4334314d7a51674d5455304c6a6b774d6977794e4441754f444d77494445314e6934784e6a41734d6a51784c6a41334d7941784e5459754e6a417749454d674d6a51784c6a51314e4341784e5463754d6a67334c4449304d5334344d4451674d5459774c6a63304e7977794e4445754e6a5577494445324d69347a4d444167517941794e4445754e546b78494445324d6934344f5455734d6a51774c6a45314e4341784e6a49754f54637a4c44497a4f5334344d4441674d5459794c6a51774d4342444944497a4f53347a4e7a45674d5459784c6a63774e5377794d7a67754f444930494445324d5334354e6a51734d6a4d344c6a55324f4341784e6a49754f54673049454d674d6a4d344c6a517a4d7941784e6a4d754e5449314c44497a4f4334774e6a6b674d5459304c6a45334e7977794d7a63754e7a5978494445324e4334304d7a4d67517941794d7a63754e445579494445324e4334324f446b734d6a4d334c6a49774d4341784e6a55754e4441314c44497a4e7934794d4441674d5459324c6a41794e5342444944497a4e7934794d4441674d5459324c6a59304e5377794d7a63754d444d7a494445324e7934794e5459734d6a4d324c6a67794f5341784e6a63754d7a677949454d674d6a4d324c6a45794f4341784e6a63754f4445314c44497a4e6934774d5451674d5459324c6a45354f5377794d7a59754e6a4133494445324e4334794d7a5967517941794d7a59754f544d7a494445324d7934784e5459734d6a4d334c6a49774d4341784e6a45754e7a45794c44497a4e7934794d4441674d5459784c6a41794e5342444944497a4e7934794d4441674d5459774c6a4d7a4f5377794d7a63754e445134494445314f5334304d6a4d734d6a4d334c6a63314d4341784e5467754f54673549454d674d6a4d344c6a4d334f4341784e5467754d4467354c44497a4f5334774d7a41674d5455304c6a4d314f4377794d7a67754f445532494445314d6934324e6a5567517941794d7a67754e7a5979494445314d5334334e5445734d6a4d344c6a67344d6941784e5445754e5455334c44497a4f5334304e7a41674d5455784c6a59324f534244494449304d4334774d6a4d674d5455784c6a63334e5377794e4441754d6a5579494445314d6934794f5449734d6a51774c6a51784e5341784e544d754f444130494530794d7a4d754f446733494445314e7934774f545567517941794d7a4d754e7a6b31494445314e7934334d444d734d6a4d7a4c6a63784e7941784e5463754d7a41774c44497a4d7934334d5451674d5455324c6a49774d4342444944497a4d7934334d5445674d5455314c6a45774d4377794d7a4d754e7a6733494445314e4334324d444d734d6a4d7a4c6a67344d6941784e5455754d446b3149454d674d6a4d7a4c6a6b334e7941784e5455754e5467324c44497a4d7934354e7a6b674d5455324c6a51344e6977794d7a4d754f446733494445314e7934774f545567545449354f5334324d4441674d5455354c6a55344e69424449444d774d4334344d5441674d5455354c6a63334e79777a4d4449754e444935494445324d4334784d6a6b734d7a417a4c6a45354e7941784e6a41754d7a593349454d674d7a417a4c6a6b324e6941784e6a41754e6a41314c444d774e53347a4e7a51674d5459774c6a67774d43777a4d4459754d7a4932494445324d4334344d4441675179417a4d4463754d7a4d78494445324d4334344d4441734d7a41344c6a4d774f5341784e6a45754d4455794c444d774f4334324e5463674d5459784c6a51774d43424449444d774f4334354f4463674d5459784c6a637a4d43777a4d446b754f544535494445324d6934774d4459734d7a45774c6a63794f5341784e6a49754d44453049454d674d7a45784c6a557a4f4341784e6a49754d4449794c444d784d6934324e5441674d5459794c6a49344e69777a4d544d754d6a4177494445324d6934324d4441675179417a4d544d754e7a5577494445324d6934354d5451734d7a45304c6a63304d4341784e6a4d754d5467304c444d784e5334304d4441674d54597a4c6a45354f53424449444d784e6934774e6a41674d54597a4c6a49784d79777a4d5459754f545135494445324d7934304f5441734d7a45334c6a4d334e6941784e6a4d754f44457a49454d674d7a45334c6a67774e4341784e6a51754d544d324c444d784f4334324d5451674d5459304c6a4d334f53777a4d546b754d546332494445324e43347a4e5451675179417a4d6a41754d44457a494445324e43347a4d5459734d7a49774c6a41314e4341784e6a51754d6a63774c444d784f5334304d4441674d5459304c6a45774e69424449444d784f4334354e6a41674d54597a4c6a6b354e53777a4d5467754d6a5131494445324d7934324e5455734d7a45334c6a67784d5341784e6a4d754d7a557949454d674d7a45334c6a4d334e7941784e6a4d754d4451344c444d784e6934314e4451674d5459794c6a67774d43777a4d5455754f545977494445324d6934344d4441675179417a4d5455754d7a6332494445324d6934344d4441734d7a45304c6a49314d5341784e6a49754e544d774c444d784d7934304e6a49674d5459794c6a49774d43424449444d784d6934324e7a49674d5459784c6a67334d43777a4d5445754e544530494445324d5334324d4441734d7a45774c6a67344f5341784e6a45754e6a417749454d674d7a45774c6a49324e4341784e6a45754e6a41774c444d774f5334304d4451674d5459784c6a4d7a4e69777a4d4467754f546332494445324d5334774d544d675179417a4d4467754e545135494445324d4334324f5441734d7a41334c6a51794d7941784e6a41754e4449774c444d774e6934304e7a51674d5459774c6a51784d79424449444d774e5334314d6a51674d5459774c6a51774e69777a4d4451754d7a6b77494445324d4334794d446b734d7a417a4c6a6b314d7941784e546b754f54633149454d674d7a417a4c6a55784e7941784e546b754e7a51784c444d774d5334344e6a4d674d5455354c6a51344d43777a4d4441754d6a6777494445314f53347a4f545167517941794f5463754e445533494445314f5334794e4449734d6a6b334c6a51304d7941784e546b754d6a51324c4449354f5334324d4441674d5455354c6a55344e69424e4d5449314c6a49304f5341784e6a41754e7a673149454d674d5449314c6a63774d4341784e6a41754e7a6b314c4445794e5334354e7a6b674d5459784c6a4d784f4377784d6a59754d545930494445324d6934314d444167517941784d6a59754e445179494445324e4334794e7a59734d544d784c6a49344d5341784e6a6b754e44677a4c44457a4d7934354d5455674d5463774c6a67304d4342444944457a4e4334314d5449674d5463784c6a45304e7977784d7a55754d545130494445334d5334324d6a51734d544d314c6a4d794d4341784e7a45754f446b3549454d674d544d314c6a51354e6941784e7a49754d5463314c44457a4e5334344e4445674d5463794c6a51774d4377784d7a59754d446732494445334d6934304d444167517941784d7a59754d7a4d79494445334d6934304d4441734d544d324c6a67784f4341784e7a49754e6a59324c44457a4e7934784e6a59674d5463794c6a6b354d5342444944457a4e7934314d5455674d54637a4c6a4d784e6977784d7a67754d6a6733494445334e4334774d7a59734d544d344c6a67344d6941784e7a51754e546b7849454d674d544d354c6a51334e7941784e7a55754d5451324c4445304d4334784e5441674d5463314c6a59774d4377784e4441754d7a6335494445334e5334324d444167517941784e4441754e6a4133494445334e5334324d4441734d5451784c6a49334d6941784e7a59754d544d324c4445304d5334344e5459674d5463324c6a63354d694244494445304d6934304e4441674d5463334c6a51304e7977784e444d754d6a5578494445334f4334774f446b734d54517a4c6a59314f5341784e7a67754d6a453549454d674d5451314c6a41344d7941784e7a67754e6a63784c4445304e4334314d4459674d5463354c6a59774d4377784e4449754f444177494445334f5334324d444167517941784e4445754e6a5130494445334f5334324d4441734d5451784c6a49774d4341784e7a6b754e444d7a4c4445304d5334794d4441674d5463354c6a41774d434244494445304d5334794d4441674d5463344c6a59334d4377784e4445754d444130494445334f4334304d4441734d5451774c6a63324e4341784e7a67754e44417749454d674d5451774c6a55794e4341784e7a67754e4441774c44457a4f5334314f5445674d5463334c6a63334d4377784d7a67754e6a6b79494445334e7934774d444167517941784d7a63754e7a6b79494445334e6934794d7a41734d544d324c6a67314d7941784e7a55754e6a41774c44457a4e6934324d4459674d5463314c6a59774d4342444944457a4e69347a4e5467674d5463314c6a59774d4377784d7a55754e544d31494445334e5334784e4445734d544d304c6a63334f4341784e7a51754e54677849454d674d544d304c6a41794d4341784e7a51754d4449774c44457a4d6934324e5455674d54637a4c6a45344f4377784d7a45754e7a5130494445334d6934334d7a4567517941784d6a67754d44417a494445334d4334344e5467734d5445354c6a6b344e6941784e6a4d754e6a6b314c4445794d4334774d4459674d5459794c6a49304e434244494445794d4334774d6a51674d5459774c6a6b344d5377784d6a45754d6a4132494445324d43347a4e7a55734d54497a4c6a49774d4341784e6a41754e6a413349454d674d54497a4c6a6b334d4341784e6a41754e6a6b324c4445794e4334344f5449674d5459774c6a63334e7977784d6a55754d6a5135494445324d4334334f445567545449354d6934304f444d674d5459784c6a63344e794244494449354e43347a4f546b674d5459794c6a41354f5377794f5459754d6a6735494445324d6934314d6a45734d6a6b324c6a59344d7941784e6a49754e7a493149454d674d6a6b334c6a41334e7941784e6a49754f5449354c4449354f4334334e5441674d54597a4c6a49794d43777a4d4441754e444177494445324d79347a4e7a45675179417a4d4449754d445577494445324d7934314d6a49734d7a417a4c6a6b304d4341784e6a4d754f4441784c444d774e4334324d4441674d54597a4c6a6b354d69424449444d774f5334774d7a67674d5459314c6a49334d53777a4d5441754e445535494445324e5334324d4451734d7a45794c6a55774d4341784e6a55754f44517949454d674d7a457a4c6a63324e5341784e6a55754f5467354c444d784e4334344d4441674d5459324c6a49794e53777a4d5451754f444177494445324e69347a4e6a59675179417a4d5451754f444177494445324e6934314d4463734d7a45324c6a45354e5341784e6a63754d44517a4c444d784e7934354d4441674d5459334c6a55314f43424449444d784f5334324d4455674d5459344c6a41334d69777a4d6a45754e6a6335494445324f4334334e4449734d7a49794c6a55774f4341784e6a6b754d44513349454d674d7a497a4c6a4d7a4f4341784e6a6b754d7a55784c444d794e4334794f5455674d5459354c6a59774d43777a4d6a51754e6a4d33494445324f5334324d4441675179417a4d6a51754f546334494445324f5334324d4441734d7a49314c6a55794e7941784e6a6b754f4463774c444d794e5334344e5463674d5463774c6a49774d43424449444d794e6934784f4463674d5463774c6a557a4d43777a4d6a59754f445935494445334d4334344d4441734d7a49334c6a4d334d6941784e7a41754f44417749454d674d7a49334c6a67334e5341784e7a41754f4441774c444d794f53347a4e4467674d5463784c6a4d7a4f43777a4d7a41754e6a5130494445334d5334354f5455675179417a4d7a45754f545177494445334d6934324e5449734d7a4d7a4c6a49774d5341784e7a4d754d546b794c444d7a4d7934304e4463674d54637a4c6a45354e53424449444d7a4d7934324f544d674d54637a4c6a45354f43777a4d7a55754d544931494445334d7934344d7a41734d7a4d324c6a59794f4341784e7a51754e6a417749454d674d7a4d344c6a457a4d6941784e7a55754d7a63774c444d7a4f5334314f5463674d5463324c6a41774d43777a4d7a6b754f446730494445334e6934774d4441675179417a4e4441754d546379494445334e6934774d4441734d7a51784c6a45314d6941784e7a59754e5451774c444d304d6934774e6a4d674d5463334c6a49774d43424449444d304d6934354e7a55674d5463334c6a67324d43777a4e4451754d445935494445334f4334304d4441734d7a51304c6a51354e6941784e7a67754e44417749454d674d7a51314c6a59314d4341784e7a67754e4441774c444d304e7934324d4441674d5467774c6a51794d69777a4e4463754e6a4177494445344d5334324d546b675179417a4e4463754e6a4177494445344e43347a4f4459734d7a51304c6a6b774d7941784f4451754d7a55314c444d304d6934784f4455674d5467784c6a55314e69424449444d304d4334774d5449674d5463354c6a4d784f43777a4d7a51754e6a4d35494445334e5334324d4441734d7a4d7a4c6a55334e7941784e7a55754e6a417749454d674d7a4d7a4c6a49784d4341784e7a55754e6a41774c444d7a4d6934794e7a59674d5463314c6a41354e69777a4d7a45754e544179494445334e4334304f4445675179417a4d7a41754e7a4933494445334d7934344e6a55734d7a49354c6a417a4e7941784e7a4d754d4449304c444d794e7934334e4463674d5463794c6a59784d69424449444d794e6934304e5459674d5463794c6a45354f53777a4d6a51754d545177494445334d5334304d6a6b734d7a49794c6a59774d4341784e7a41754f54417749454d674d7a45334c6a55774e5341784e6a6b754d5455774c444d784e6934774d6a45674d5459344c6a67774f53777a4d446b754d444131494445324e7934334e7a55675179417a4d4459754e546734494445324e7934304d5467734d7a41304c6a49334e5341784e6a59754f5451334c444d774d7934344e6a55674d5459324c6a63794f43424449444d774d7934304e5455674d5459324c6a55774f43777a4d4445754e7a5179494445324e6934794f4459734d7a41774c6a41314f5341784e6a59754d6a4d3149454d674d6a6b304c6a45324e5341784e6a59754d4455304c4449354d5334334e6a41674d5459314c6a51774e6977794f446b754d545132494445324d7934794f545167517941794f4459754e545935494445324d5334794d5445734d6a67324c6a49794e7941784e6a41754e54637a4c4449344e7934354d4441674d5459774c6a6b324e434244494449344f4334314d4455674d5459784c6a45774e5377794f5441754e545933494445324d5334304e7a59734d6a6b794c6a51344d7941784e6a45754e7a6733494530784d6a67754f444177494445324d5334344d444167517941784d6a6b754e444d34494445324d6934784d7a41734d544d774c6a45774e4341784e6a49754e6a4d794c44457a4d4334794f4441674d5459794c6a6b784e5342444944457a4d4334304e5459674d54597a4c6a45354f4377784d7a45754e546b77494445324e4334794d7a41734d544d794c6a67774d4341784e6a55754d6a413549454d674d544d304c6a41784d4341784e6a59754d5467334c44457a4e5334354f5455674d5459334c6a67354d4377784d7a63754d6a4579494445324f4334354f545167517941784d7a6b754f545577494445334d5334304e7a63734d5451784c6a45774d4341784e7a49754e4451324c4445304e4334304d5451674d5463314c6a41324e694244494445304e5334344e5449674d5463324c6a49774d7977784e4463754d6a5931494445334e7934314e7a55734d5451334c6a55314e5341784e7a67754d54453249454d674d5451344c6a41304e5341784e7a6b754d444d784c4445314d4334354d6a6b674d5467774c6a67774d4377784e5445754f544d79494445344d4334344d444167517941784e5449754d546332494445344d4334344d4441734d5455794c6a63334e5341784f4445754d7a51774c4445314d7934794e6a4d674d5467794c6a41774d434244494445314d7934334e5445674d5467794c6a59324d4377784e5451754d7a4177494445344d7934794d4441734d5455304c6a51344d7941784f444d754d6a417749454d674d5455324c6a49324e4341784f444d754d6a41774c4445314f4334334e6a4d674d5467324c6a49344d5377784e5463754e546333494445344e7934774d545167517941784e5463754d444979494445344e79347a4e5463734d5455304c6a457a4e4341784f4455754e444d324c4445314d7934344d6a41674d5467304c6a55784e534244494445314d7934324f4459674d5467304c6a45794d6977784e5449754e7a6378494445344d7934794f5445734d5455784c6a63344f4341784f4449754e6a593549454d674d5455774c6a67774e5341784f4449754d4451324c4445314d4334774d4441674d5467784c6a4d334d5377784e5441754d444177494445344d5334784e6a6b67517941784e5441754d444177494445344d4334354e6a59734d5451354c6a63784d5341784f4441754f4441774c4445304f53347a4e5467674d5467774c6a67774d434244494445304f5334774d4451674d5467774c6a67774d4377784e4467754d444d7a494445344d4334794e6a41734d5451334c6a49774d4341784e7a6b754e6a417749454d674d5451324c6a4d324e7941784e7a67754f5451774c4445304e5334304f5459674d5463344c6a51774d4377784e4455754d6a5931494445334f4334304d444167517941784e4455754d444d30494445334f4334304d4441734d5451304c6a59784d4341784e7a67754d4463324c4445304e43347a4d6a4d674d5463334c6a59334f534244494445304e4334774d7a55674d5463334c6a49344d6977784e444d754d445535494445334e6934304d6a63734d5451794c6a45314e4341784e7a55754e7a633549454d674d544d774c6a6b324f5341784e6a63754e7a59334c4445794e6934794f5467674d54597a4c6a51344e6977784d6a59754f544d7a494445324d5334344d7a4167517941784d6a63754d6a4d78494445324d5334774e5451734d5449334c6a4d314d7941784e6a45754d4455794c4445794f4334344d4441674d5459784c6a67774d43424e4d7a49784c6a59774d4341784e6a55754d44417749454d674d7a49784c6a67334e4341784e6a55754d7a4d774c444d794d6934314e7a45674d5459314c6a55334f53777a4d6a4d754d545135494445324e5334314e5451675179417a4d6a4d754f546333494445324e5334314d5463734d7a49304c6a417a4d4341784e6a55754e4459324c444d794d7934304d4441674d5459314c6a4d784e53424449444d794d6934354e6a41674d5459314c6a49774f53777a4d6a49754e444935494445324e4334354e6a41734d7a49794c6a49794d4341784e6a51754e7a597849454d674d7a49784c6a55344e6941784e6a51754d5455344c444d794d5334774e6a63674d5459304c6a4d314f43777a4d6a45754e6a4177494445324e5334774d44416754544d794e5334334d4451674d5459324c6a51774d43424449444d794e6934314d6a55674d5459324c6a67304d43777a4d6a63754e545133494445324e7934794d4441734d7a49334c6a6b334e5341784e6a63754d6a417749454d674d7a49344c6a51774d7941784e6a63754d6a41774c444d794f4334344e6a51674d5459334c6a4d344d43777a4d6a6b754d444177494445324e7934324d4441675179417a4d6a6b754d544d32494445324e7934344d6a41734d7a49354c6a517a4f5341784e6a67754d4441774c444d794f5334324e7a4d674d5459344c6a41774d43424449444d794f5334354e4445674d5459344c6a41774d43777a4d6a6b754f544530494445324e7934334e7a67734d7a49354c6a59774d4341784e6a63754e44417749454d674d7a49354c6a4d794e6941784e6a63754d4463774c444d794f4334324d4459674d5459324c6a67774d43777a4d6a67754d444177494445324e6934344d4441675179417a4d6a63754d7a6b30494445324e6934344d4441734d7a49324c6a59334e4341784e6a59754e544d774c444d794e6934304d4441674d5459324c6a49774d43424449444d794e6934784d6a59674d5459314c6a67334d43777a4d6a55754e544979494445324e5334324d4441734d7a49314c6a41314e7941784e6a55754e6a417749454d674d7a49304c6a51784d7941784e6a55754e6a41774c444d794e4334314e6a63674d5459314c6a63354d43777a4d6a55754e7a4130494445324e6934304d44416754544d304e6934344e4455674d5459334c6a497a4e53424449444d304e4334784f5463674d5459334c6a63314d53777a4e4451754d6a6333494445324f4334784d7a6b734d7a51324c6a6b324d7941784e6a63754f44457a49454d674d7a51354c6a59334d4341784e6a63754e4467314c444d324d6934784d6a59674d5459334c6a51324d43777a4e6a59754d444177494445324e7934334e7a55675443417a4e6a67754e6a4177494445324e7934354f4463674d7a59324c6a59314e7941784e6a63754e44493049454d674d7a59304c6a51314d6941784e6a59754e7a67314c444d304f5334344e7a41674d5459324c6a59304e69777a4e4459754f445131494445324e7934794d7a55675454497a4e6934774d4441674d5459354c6a49774d4342444944497a4e6934774d4441674d5463774c6a55774e5377794d7a55754d7a4534494445334d5334784e7a4d734d6a4d304c6a6b314e4341784e7a41754d6a493049454d674d6a4d304c6a59794e6941784e6a6b754d7a59354c44497a4e5334784d7a45674d5459334c6a55784d4377794d7a55754e6a4579494445324e7934344d446367517941794d7a55754f444931494445324e7934354d7a6b734d6a4d324c6a41774d4341784e6a67754e5459324c44497a4e6934774d4441674d5459354c6a49774d43424e4d7a4d784c6a41774d4341784e6a67754d6a6b3049454d674d7a4d784c6a51304d4341784e6a67754e4441314c444d7a4d6934784e5455674d5459344c6a63304e53777a4d7a49754e546735494445324f5334774e4467675179417a4d7a4d754e545534494445324f5334334d6a59734d7a4d314c6a55324f4341784e6a6b754e7a59774c444d7a4e7934774e7a51674d5459354c6a45794e53424449444d7a4e7934324f544d674d5459344c6a67324e43777a4d7a6b754e445977494445324f4334314d7a4d734d7a51784c6a41774d4341784e6a67754d7a6b77494577674d7a517a4c6a67774d4341784e6a67754d54493549444d304d5334784e446b674d5459344c6a41324e53424449444d7a4f5334314e5455674d5459344c6a41794e69777a4d7a63754f544931494445324f4334794d7a6b734d7a4d334c6a41324d6941784e6a67754e6a417749454d674d7a4d324c6a49334d6941784e6a67754f544d774c444d7a4e5334784d4449674d5459354c6a49774d43777a4d7a51754e445979494445324f5334794d4441675179417a4d7a4d754f444979494445324f5334794d4441734d7a4d7a4c6a41334e4341784e6a67754f544d774c444d7a4d6934344d4441674d5459344c6a59774d43424449444d7a4d6934314d6a59674d5459344c6a49334d43777a4d7a45754f444935494445324f4334774d6a45734d7a4d784c6a49314d5341784e6a67754d44513249454d674d7a4d774c6a51784d5341784e6a67754d44677a4c444d7a4d43347a4e6a45674d5459344c6a457a4d79777a4d7a45754d444177494445324f4334794f54516754544d334d5334304d4441674d5459344c6a4d344e79424449444d334d6934354e4441674d5459344c6a55304f43777a4e7a51754f444935494445324f4334344f4459734d7a63314c6a55354e7941784e6a6b754d54517749454d674d7a63324c6a4d324e6941784e6a6b754d7a6b7a4c444d334e7934324d6a59674d5459354c6a59774e69777a4e7a67754d7a6b33494445324f5334324d544d675179417a4e7a6b754d545935494445324f5334324d6a41734d7a67774c6a45304f5341784e6a6b754f446b774c444d344d4334314e7a59674d5463774c6a49784d79424449444d344d5334774d4451674d5463774c6a557a4e69777a4f4445754f544130494445334d4334334f4449734d7a67794c6a55334e6941784e7a41754e7a5535494577674d7a677a4c6a67774d4341784e7a41754e7a453449444d344d6934324d4441674d5463774c6a4d354f43424449444d344d5334354e4441674d5463774c6a49794d53777a4f4441754f445977494445324f5334344f5449734d7a67774c6a49774d4341784e6a6b754e6a593349454d674d7a63334c6a67354e4341784e6a67754f4463344c444d334e4334314e7a63674d5459344c6a4d784e43777a4e7a45754e6a4177494445324f4334794d4455675443417a4e6a67754e6a4177494445324f4334774f5451674d7a63784c6a51774d4341784e6a67754d7a6733494530324d5334344d6a59674d5463784c6a4d304f534244494455354c6a4d784e6941784e7a51754d6a67334c4455334c6a4d7a4e5341784e7a55754e546b334c4455314c6a4d334f4341784e7a55754e6a457a49454d674e5451754e544577494445334e5334324d6a41734e544d754e445578494445334e5334344f5441734e544d754d444930494445334e6934794d544d67517941314d69347a4e7a49674d5463324c6a63774e5377314d69347a4e5449674d5463324c6a67774d4377314d6934354d4441674d5463324c6a67774d4342444944557a4c6a49314f5341784e7a59754f4441774c44557a4c6a59324e4341784e7a59754e6a49774c44557a4c6a67774d4341784e7a59754e44417749454d674e544d754f544d32494445334e6934784f4441734e5451754e7a4579494445334e5334354f546b734e5455754e544930494445334e5334354f546b67517941314e7934344e4463674d5463314c6a6b354e6977324d4334314e4441674d5463304c6a41784d4377324d7934794e5445674d5463774c6a4d774d434244494459304c6a55354d4341784e6a67754e4459324c44597a4c6a63334e7941784e6a6b754d4459324c4459784c6a67794e6941784e7a45754d7a51354945307a4f4451754e6a4930494445334d53347a4f4463675179417a4f4455754d445578494445334d5334334d5441734d7a67314c6a59304e6941784e7a45754f5467774c444d344e5334354e4459674d5463784c6a6b344e79424449444d344e6934794e4459674d5463784c6a6b354e43777a4f446b754e444977494445334d7934304e4441734d7a6b7a4c6a41774d4341784e7a55754d6a417749454d674d7a6b324c6a55344d4341784e7a59754f5459774c444d354f5334324e6a51674d5463344c6a4d354e79777a4f546b754f445530494445334f43347a4f545167517941304d4441754d7a5577494445334f43347a4f4459734d7a6b344c6a6b304e6941784e7a63754e6a4d794c444d354d6934304e6a67674d5463304c6a517a4d69424449444d344f53347a4d5455674d5463794c6a67334e43777a4f4459754e444178494445334d5334324d4441734d7a67314c6a6b354d5341784e7a45754e6a417749454d674d7a67314c6a55344d6941784e7a45754e6a41774c444d344e5334784d7a59674d5463784c6a51794d43777a4f4455754d444177494445334d5334794d4441675179417a4f4451754f445930494445334d4334354f4441734d7a67304c6a55304f5341784e7a41754f4441774c444d344e43347a4d4441674d5463774c6a67774d43424449444d344e4334774e5445674d5463774c6a67774d43777a4f4451754d546b32494445334d5334774e6a51734d7a67304c6a59794e4341784e7a45754d7a6733494530784e4451754e544532494445334d6934314d444167517941784e4455754d6a4979494445334d6934354f5455734d5451324c6a4d354d5341784e7a4d754f446b314c4445304e7934784d5451674d5463304c6a55774d434244494445304e7934344d7a63674d5463314c6a45774e5377784e4467754e6a597a494445334e5334324d4441734d5451344c6a6b314d4341784e7a55754e6a417749454d674d5451354c6a4d344d4341784e7a55754e6a41774c4445314d4334304d4441674d5463334c6a45324d4377784e5441754e444177494445334e7934344d546b67517941784e5441754e444177494445334f4334314e544d734d5451344c6a51774d5341784e7a63754e7a6b344c4445304e7934324e4467674d5463324c6a63344d434244494445304e7934784e5449674d5463324c6a45774f5377784e4459754d7a4134494445334e53347a4f544d734d5451314c6a63334d7941784e7a55754d546b7749454d674d5451314c6a497a4f4341784e7a51754f5467324c4445304e4334344d4441674d5463304c6a59314d7977784e4451754f444177494445334e4334304e446b67517941784e4451754f444177494445334e4334794e4459734d5451304c6a45334d4341784e7a4d754e7a41334c4445304d7934304d4441674d54637a4c6a49314d794244494445304d6934324d7a41674d5463794c6a63354f5377784e4449754d444177494445334d6934794e4445734d5451794c6a41774d4341784e7a49754d44457a49454d674d5451794c6a41774d4341784e7a45754d7a49304c4445304d7934784e5467674d5463784c6a55304f4377784e4451754e544532494445334d6934314d444167545449324d7934324e6a6b674d5463314c6a41324d694244494449324e4334344d5463674d5463324c6a45774d6977794e6a51754e545133494445334e7934774d4449734d6a59794c6a55774d4341784e7a67754f54513349454d674d6a59784c6a51314e5341784e7a6b754f5451784c4449314f4334304e4441674d5467794c6a677a4e6977794e5455754f444177494445344e53347a4f444167517941794e446b754e544177494445354d5334304e544d734d6a51324c6a63344d7941784f544d754d6a51334c4449304e5334784f444d674d546b794c6a4d354d534244494449304d7934774d7a45674d546b784c6a497a4f5377794e444d754e545933494445344f4334344e7a51734d6a51324c6a497a4d6941784f4463754e7a597849454d674d6a51334c6a51354d7941784f4463754d6a4d304c4449304f5334324d5459674d5467314c6a4d334d5377794e5467754d544577494445334e79347a4e444167517941794e6a45754d7a4d35494445334e4334794f4463734d6a59794c6a4d314d7941784e7a4d754f4463784c4449324d7934324e6a6b674d5463314c6a41324d69424e4e446b754d6a4177494445334e7934304d444167517941304f4334794f5441674d5463334c6a6b794d4377304f4334794e7a4d674d5463334c6a6b334d7977304f5334774d6a41674d5463334c6a6b344e694244494451354c6a51334d5341784e7a63754f546b304c4455774c6a41784d5341784e7a63754f444d334c4455774c6a49794d4341784e7a63754e6a4d3549454d674e5441754e444935494445334e7934304e4441734e5441754f545977494445334e7934784f5445734e5445754e444177494445334e7934774f445567517941314d6934774e5445674d5463324c6a6b794f5377314d6934774d5451674d5463324c6a67344e7977314d5334794d4441674d5463324c6a67324d534244494455774c6a59314d4341784e7a59754f44517a4c4451354c6a63314d4341784e7a63754d4467324c4451354c6a49774d4341784e7a63754e444177494530304e5334784d5463674d5463344c6a49784e694244494451304c6a637a4e5341784e7a67754e546b354c4451774c6a59304f5341784f4441754d4459314c444d354c6a41774d4341784f4441754e44457949454d674d7a63754e445130494445344d4334334d7a6b734d7a49754e545930494445344d7934784e7a67734d7a4d754e444d32494445344d7934784f544d675179417a4d7934324e7a59674d54677a4c6a45354e79777a4e4334344e4459674d5467794c6a59324d79777a4e6934774d7a59674d5467794c6a41774e79424449444d334c6a49794e6941784f4445754d7a55784c444d344c6a63314d5341784f4441754f4445784c444d354c6a51794e4341784f4441754f44413349454d674e4441754d446b32494445344d4334344d444d734e4441754f546b32494445344d4334314d7a59734e4445754e444930494445344d4334794d544d67517941304d5334344e5445674d5463354c6a67354d4377304d6934314e6a55674d5463354c6a59794d4377304d7934774d5445674d5463354c6a59784d7942444944517a4c6a51314e7941784e7a6b754e6a41324c4451304c6a45344e5341784e7a6b754d7a51314c4451304c6a59794f5341784e7a6b754d444d3049454d674e4455754d446330494445334f4334334d6a4d734e4455754f545935494445334f43347a4f5441734e4459754e6a4534494445334f4334794f545167544341304e7934344d4441674d5463344c6a45794d4341304e6934314e6a63674d5463344c6a41324d434244494451314c6a67344f4341784e7a67754d4449334c4451314c6a497a4e6941784e7a67754d446b334c4451314c6a45784e7941784e7a67754d6a4532494530334d6934314f5449674d5467794c6a49324e434244494463334c6a59794f4341784f4455754d7a49304c4467784c6a59774d4341784f4467754e54457a4c4467784c6a59774d4341784f446b754e446b3149454d674f4445754e6a4177494445354d5334784d4445734f4441754e544d31494445354d4334354e5463734e7a63754e7a4578494445344f4334354e7a4167517941334d7934784d5467674d5467314c6a637a4f4377334d5334344e6a45674d5467304c6a6b784e7977334d4334784d6a63674d5467304c6a41784e694244494459344c6a45794d4341784f4449754f5463304c4459334c6a517a4d5341784f4449754d6a45354c4459334c6a63304d7941784f4445754e44413149454d674e6a67754d544d30494445344d43347a4f4451734e7a41754d445979494445344d4334334d6a59734e7a49754e546b79494445344d6934794e6a516754544d774c6a55774e5341784f444d754f54553249454d674d6a67754e7a497a494445344e4334324e6a51734d6a63754e445931494445344e5334324d4441734d6a67754d6a6b32494445344e5334324d444167517941794f4334314e4463674d5467314c6a59774d4377794f4334344e5449674d5467314c6a51304d4377794f4334354e7a4d674d5467314c6a49304e434244494449354c6a41354e4341784f4455754d4451354c4449354c6a59334e4341784f4451754e7a59344c444d774c6a49324e4341784f4451754e6a497749454d674d7a45754d7a4932494445344e43347a4e544d734d7a4d754d7a4d32494445344d7934784e6a49734d7a49754e546735494445344d7934794e4445675179417a4d69347a4e7a55674d54677a4c6a49324e43777a4d5334304d7a63674d54677a4c6a55344e69777a4d4334314d4455674d54677a4c6a6b314e69424e4d6a49754f444177494445344e7934304d444167517941794d6934314d6a59674d5467334c6a637a4d4377794d6934774d446b674d5467344c6a41774f4377794d5334324e5445674d5467344c6a41784e794244494449784c6a49354d7941784f4467754d4449334c4449774c6a49344d4341784f4467754e4459314c4445354c6a51774d4341784f4467754f546b7949454d674d5467754e544977494445344f5334314d5467734d5463754d446733494445354d43347a4d7a63734d5459754d6a4531494445354d4334344d544967517941784e53347a4e444d674d546b784c6a49344e7977784e4334784f5451674d546b794c6a41784f5377784d7934324e6a45674d546b794c6a517a4f4342444944457a4c6a45794f4341784f5449754f4455334c4445794c6a55794d4341784f544d754d6a41774c4445794c6a4d784d5341784f544d754d6a417749454d674d5449754d544178494445354d7934794d4441734d5445754d44417a494445354e4334774d5441734f5334344e7a45674d546b314c6a41774d434244494467754e7a5177494445354e5334354f5441734e7934324e7a59674d546b324c6a67774d4377334c6a55774e7941784f5459754f44417749454d674e79347a4d7a67674d546b324c6a67774d4377324c6a67334e7941784f5463754d5445314c4459754e446779494445354e7934314d444167517941324c6a41344e7941784f5463754f4467314c4451754f446379494445354f4334354e446b734d7934334f4449674d546b354c6a67324e534244494441754d6a6730494449774d6934344d4455734c5441754d544d77494449774d7934794d4441734d4334794f5441674d6a417a4c6a49774d434244494441754e544533494449774d7934794d4441734d4334354d6a59674d6a41794c6a6b7a4d4377784c6a49774d4341794d4449754e6a417749454d674d5334304e7a51674d6a41794c6a49334d4377784c6a6b304e6941794d4449754d4441774c4449754d6a5135494449774d6934774d444167517941794c6a55314d6941794d4449754d4441774c4449754f444177494449774d5334344d5455734d6934344d4441674d6a41784c6a55344f434244494449754f444177494449774d5334784e5449734e4334344f5441674d546b354c6a49774d7977324c6a6b324d7941784f5463754e7a413249454d674e7934324e444d674d546b334c6a49784e5377344c6a63794d5341784f5459754e4441314c446b754d7a5533494445354e5334354d445967517941784d4334354e4441674d546b304c6a59324e6977784e4334334e7a45674d546b794c6a41774d4377784e4334354e7a45674d546b794c6a41774d434244494445314c6a41324d5341784f5449754d4441774c4445324c6a55774e4341784f5445754d546b774c4445344c6a45334f4341784f5441754d6a417749454d674d546b754f44557a494445344f5334794d5441734d6a45754e445932494445344f4334304d4441734d6a45754e7a597a494445344f4334304d444167517941794d6934774e546b674d5467344c6a51774d4377794d6934314d5463674d5467344c6a45304d5377794d6934334f4441674d5467334c6a67794e4342444944497a4c6a41304d7941784f4463754e5441334c44497a4c6a59314d4341784f4463754d5463794c4449304c6a45794f5341784f4463754d44633449454d674d6a51754f546b31494445344e6934354d5441734d6a51754f546b31494445344e6934354d446b734d6a51754d545135494445344e6934344e545167517941794d7934324f4445674d5467324c6a67794e5377794d7934774e7a51674d5467334c6a41334d4377794d6934344d4441674d5467334c6a51774d43424e4d6a51784c6a6b794f4341784f5445754e7a457a49454d674d6a51794c6a59794f4341784f5449754e5455334c4449304d6934774f5451674d546b7a4c6a41774f4377794d7a55754e7a4d35494445354e6934354d7a6367517941794d7a45754e7a4d35494445354f5334304d5441734d6a4d784c6a557a4d4341784f546b754e4467774c44497a4d4334344d4449674d546b344c6a59774d694244494449794f5334334d7a51674d546b334c6a4d784e5377794d7a49754e54457a494445354e5334774e7a49734d6a4d344c6a59774d4341784f5449754d7a457849454d674d6a51784c6a51774d4341784f5445754d4451784c4449304d53347a4e7a51674d546b784c6a41304e6977794e4445754f544934494445354d5334334d544d67545445794e4334794d4441674d546b344c6a45354d694244494445794e69347a4d7a63674d546b344c6a67794d6977784d6a67754f445979494445354f5334794d4449734d544d784c6a67774d4341784f546b754d7a4d3349454d674d544d304c6a49794d4341784f546b754e4451344c44457a4e6934334e4441674d546b354c6a63314d4377784d7a63754e444177494449774d4334774d446767517941784d7a67754d544d78494449774d4334794f5451734d5451774c6a63784d6941794d4441754e4459784c4445304e4334774d4441674d6a41774c6a517a4e534244494445314e7934354d4449674d6a41774c6a4d794e6977784e6a41754d445579494449774d43347a4e4441734d54597a4c6a63784e7941794d4441754e54593449454d674d5459314c6a6b314e7941794d4441754e7a41334c4445324f53347a4f4451674d6a41774c6a59774e4377784e7a45754e7a4533494449774d43347a4d6a6767517941784e7a67754f445131494445354f5334304f4455734d5467794c6a4d794e5341784f546b754e6a49774c4445344d7934794e6a41674d6a41774c6a63334e534244494445344e4334314d546b674d6a41794c6a4d794f5377784f444d754d6a5532494449774e5334784f5451734d5467784c6a59774d4341794d4451754e54517849454d674d5467784c6a49334d4341794d4451754e4445784c4445334f4334324e6a41674d6a41304c6a49304e5377784e7a55754f444177494449774e4334784e7a4567517941784e7a49754f545177494449774e4334774f5467734d5459354c6a45344d4341794d444d754f5449314c4445324e7934304e4459674d6a417a4c6a63344e794244494445324d6934324f4449674d6a417a4c6a51774e7977784e446b754e444930494449774d7934314d7a55734d5451344c6a49334e7941794d444d754f54637849454d674d5451334c6a59784e7941794d4451754d6a49794c4445304e6934334e4445674d6a41304c6a49774f5377784e4455754e7a5132494449774d7934354d7a5167517941784e4451754e6a5933494449774d7934324d7a59734d5451794c6a4d344d5341794d444d754e6a55784c44457a4e7934344f446b674d6a417a4c6a6b344e4342444944457a4d6934304f4445674d6a41304c6a4d344e5377784d7a45754d545979494449774e43347a4e6a55734d5449344c6a67334e7941794d444d754f44513549454d674d5449334c6a51774e5341794d444d754e5445334c4445794e4334304f5441674d6a41794c6a6b304d6977784d6a49754e444177494449774d6934314e7a4567517941784d5455754d445131494449774d5334794e6a63734d5445794c6a51354d5341784f546b754e5459324c4445784e4334324e4467674d546b334c6a51774f534244494445784e5334314d544d674d546b324c6a55304e4377784d546b754f444177494445354e6934344f5459734d5449304c6a49774d4341784f5467754d546b79494530794d6a45754e7a4d30494449774e4334304e6a5967517941794d6a49754e544d30494449774e5334334d7a67734d6a45344c6a557a4e4341794d4463754f544d354c4449784e43347a4e5449674d6a41344c6a55794f534244494449784d7934314e5459674d6a41344c6a59304d5377794d5445754e7a5179494449774f5334784f5467734d6a45774c6a4d794d5341794d446b754e7a593249454d674d6a41334c6a41324d6941794d5445754d4463774c4449774e4334324d5445674d6a45784c6a45304d6977794d444d754f546331494449774f5334354e544d67517941794d444d754d546b33494449774f4334304f546b734d6a41304c6a49784d5341794d4463754f546b7a4c4449774f4334794e5459674d6a41334c6a67784e694244494449784d5334314e6a63674d6a41334c6a59334d5377794d5449754d545132494449774e7934314d5451734d6a45314c6a51794f5341794d4455754f44637849454d674d6a49774c6a557a4e5341794d444d754d7a45334c4449794d4334354e5445674d6a417a4c6a49794e4377794d6a45754e7a4d30494449774e4334304e6a5967545445334d43347a4d7a59674d6a41304c6a59324e694244494445334f5334344f4459674d6a41304c6a6b7a4e6977784f4445754d446b33494449774e5334784e6a49734d5467774c6a55314e5341794d4459754e54637949454d674d5467774c6a49774e4341794d4463754e4467344c4445334f5334794f4467674d6a41334c6a55794e4377784e6a63754d7a4d78494449774e7934784d444567517941784e6a41754f546735494449774e6934344e7a59734d5455304c6a51784f4341794d4459754e7a49344c4445314d6934334d6a6b674d6a41324c6a63334d534244494445314d4334314d446b674d6a41324c6a67794f5377784e446b754d6a6b34494449774e6934324e6a55734d5451344c6a4d314f4341794d4459754d546334494577674d5451334c6a41314e6941794d4455754e544131494445304f4334774d6a67674d6a41304c6a6b324e794244494445304f5334784e5455674d6a41304c6a4d304d6977784e5455754e7a5579494449774e4334794e544d734d5463774c6a4d7a4e6941794d4451754e6a59324945307a4e5455754d7a4977494449774e5334774e4463675179417a4e5459754d444930494449774e5334304d444d734d7a55324c6a6b324d4341794d4459754d4445784c444d314e7934304d4441674d6a41324c6a4d354f43424449444d314e7934344e4441674d6a41324c6a63344e69777a4e5467754e6a6779494449774e79347a4e5441734d7a55354c6a49334d6941794d4463754e6a557849454d674d7a59774c6a4d794e4341794d4467754d546b774c444d324d6934304d4441674d6a45774c6a67304d43777a4e6a49754e444177494449784d5334324e4455675179417a4e6a49754e444177494449784d6934334d6a41734d7a55334c6a67314d6941794d446b754e7a6b774c444d314e4334344d7a49674d6a41324c6a63334d53424449444d314d6934344e7a67674d6a41304c6a67784e69777a4e544d754d544932494449774d7934354d7a67734d7a55314c6a4d794d4341794d4455754d445133494530784e4455754e7a5135494449774e5334784e446367517941784e4463754d446778494449774e53347a4e5441734d5451304c6a63794d4341794d4459754d7a51334c4445304d6934304f4467674d6a41324c6a55794e534244494445304d5334774d5441674d6a41324c6a59304d6977784d7a67754f544534494449774e6934354d7a49734d544d334c6a67304d4341794d4463754d54593449454d674d544d314c6a49314e5341794d4463754e7a4d314c44457a4d7934354f4441674d6a41324c6a67334e7977784d7a55754d7a5977494449774e5334304f546367517941784d7a55754f444d77494449774e5334774d6a63734d54517a4c6a4d774f5341794d4451754e7a63314c4445304e5334334e446b674d6a41314c6a45304e79424e4d7a63774c6a67774d4341794d5445754e54513149454d674d7a63774c6a67774d4341794d5449754e7a49784c444d334d5334314d544d674d6a45304c6a51774d43777a4e7a49754d44457a494449784e4334304d4441675179417a4e7a49754e7a6b78494449784e4334304d4441734d7a63794c6a49354f5341794d5445754d4449324c444d334d5334314d4441674d6a45774c6a67334e43424449444d334d5334774d6a49674d6a45774c6a63344d79777a4e7a41754f444177494449784d4334354f5459734d7a63774c6a67774d4341794d5445754e545131494530794d5455754e544578494449784d7934354d444167517941794d5463754d44637a494449784e4334354d446b734d6a45344c6a45304f5341794d5459754d6a41324c4449794d4334794e444d674d6a45354c6a59774d434244494449794d5334794e6a45674d6a49784c6a49314d4377794d6a49754e444d32494449794d7934774f5449734d6a49794c6a67314e4341794d6a4d754e6a6b7a49454d674d6a497a4c6a59314e5341794d6a51754f4451324c44497a4d6934774d4441674d6a51784c6a4d784d7977794d7a49754d444177494449304d5334334e444567517941794d7a49754d444177494449304d5334344e7a67734d6a4d7a4c6a45304e6941794e4451754d7a63344c44497a4e4334314e4459674d6a51334c6a49354e5342444944497a4e5334354e4459674d6a55774c6a49784d7977794d7a63754d7a5935494449314d79347a4d6a41734d6a4d334c6a63774e6941794e5451754d6a417749454d674d6a4d344c6a41304e4341794e5455754d4467774c44497a4f5334784d7a49674d6a55334c6a63344d4377794e4441754d54497a494449324d4334794d444167517941794e4449754e446778494449324e5334354e5467734d6a51794c6a51324d5341794e6a55754f4467784c4449304d5334334e7a45674d6a59324c6a55334d534244494449304d4334334f4467674d6a59334c6a55314e5377794e4441754d444130494449324e6934344e4455734d6a4d344c6a557a4f5341794e6a4d754e6a513049454d674d6a4d334c6a63334d6941794e6a45754f5463774c44497a4e6934314d6a67674d6a55354c6a4d774d7977794d7a55754e7a637a494449314e7934334d546b67517941794d7a55754d444534494449314e6934784d7a51734d6a4d304c6a4d354f5341794e5451754e6a6b304c44497a4e43347a4f5463674d6a55304c6a55784f5342444944497a4e43347a4f5449674d6a55304c6a41784f5377794d6a51754e4467784944497a4e4334304d5445734d6a497a4c6a49784e7941794d7a49754e44417749454d674d6a49794c6a55354e5341794d7a45754e4445774c4449794d5334354e5455674d6a4d774c6a45324e4377794d6a45754e7a6b30494449794f5334324d7a4967517941794d6a45754d7a6b32494449794f43347a4d5441734d6a45314c6a517a4d5341794d5463754f546b7a4c4449784e4334304f5441674d6a45334c6a41774d434244494449784d5334324d7a63674d6a457a4c6a6b344f4377794d5449754d7a5178494449784d5334344e5445734d6a45314c6a55784d5341794d544d754f544177494530794e6a67754d6a4177494449784f4334354e7a5167517941794e6a67754d6a4177494449794d4334774e4449734d6a59334c6a6b7a4e7941794d6a41754d6a55324c4449324e5334774d4441674d6a49784c6a55334e534244494449324d7934794e4441674d6a49794c6a4d324e6977794e6a45754d444535494449794d7934314e4441734d6a59774c6a41324e5341794d6a51754d54677a49454d674d6a55344c6a63774d7941794d6a55754d5441784c4449314f4334784f4467674d6a49314c6a49314f5377794e5463754e6a5931494449794e4334354d6a4567517941794e5455754e7a6779494449794d7934334d4441734d6a55344c6a6b7a4e4341794d6a41754e5459794c4449324d7934344d4455674d6a45344c6a67774e694244494449324e7934324e6a63674d6a45334c6a51784e5377794e6a67754d6a4177494449784e7934304d7a55734d6a59344c6a49774d4341794d5467754f546330494530784f4459754d444177494449794e6934774d6a5167517941784f4459754f546b77494449794e6934794e6a45734d5467344c6a49314d4341794d6a59754e5455784c4445344f4334344d4441674d6a49324c6a59324f434244494445354d6934334d5449674d6a49334c6a55774d6977794d4455754d5455344944497a4d6934784d4467734d6a457a4c6a4d794f4341794d7a55754e7a513049454d674d6a45314c6a517a4e7941794d7a59754e6a677a4c4449784e5334324e444d674d6a4d324c6a67344e4377794d5455754e5449344944497a4e7934344f544167517941794d5455754d7a49774944497a4f5334324f5467734d6a45304c6a41334d6941794d7a6b754e44677a4c4449774e5334324e546b674d6a4d324c6a45354d794244494445354e4334794e7a49674d6a4d784c6a637a4f5377784f446b754e6a6b784944497a4d4334784e7a55734d5467314c6a49774d4341794d6a6b754d6a413149454d674d5467784c6a63354d5341794d6a67754e4459354c4445344d5334324d6a6b674d6a49344c6a51774d5377784f4445754d545132494449794e7934314d444167517941784f4441754e546334494449794e6934304d7a67734d5467784c6a6b344e4341794d6a55754d446b7a4c4445344d79347a4e4445674d6a49314c6a4d354f534244494445344d7934344d544d674d6a49314c6a55774e6977784f4455754d444577494449794e5334334f4463734d5467324c6a41774d4341794d6a59754d444930494530794e6a67754d7a4978494449794f4334354d7a5167517941794e6a67754d546733494449794f5334344e5467734d6a59314c6a51774d5341794d7a45754f5459324c4449324e4334794f4463674d6a4d784c6a6b344e794244494449324d6934794d4467674d6a4d794c6a41794e5377794e6a4d754d7a4530494449794f5334794d5467734d6a59314c6a63794f5341794d6a67754d7a493549454d674d6a59334c6a59354f5341794d6a63754e6a41304c4449324f4334304f4467674d6a49334c6a63344f4377794e6a67754d7a4978494449794f4334354d7a5167545449774e4334304e7a55674d6a4d324c6a67784f534244494449774e5334794d4451674d6a4d334c6a51354d4377794d4459754e5459324944497a4f4334314d6a55734d6a41334c6a55774d7941794d7a6b754d54453549454d674d6a45784c6a6b354d7941794e4445754f5459354c4449774f5334304d5451674d6a517a4c6a51344e6977794d4451754e6a4177494449304d4334344d6a6367517941794d4445754d4451774944497a4f4334344e6a45734d6a41774c6a4d314e7941794d7a63754e7a59314c4449774d5334354d4449674d6a4d324c6a55774d694244494449774d7934794d7a51674d6a4d314c6a51784d6977794d4449754f5441794944497a4e53347a4e7a45734d6a41304c6a51334e5341794d7a59754f4445354945307a4f4334344d4459674d6a55784c6a41774e79424449444d354c6a67324e6941794e5449754d6a67304c444d344c6a63794d7941794e5463754d6a4d334c444d334c6a497a4f4341794e5463754f44413349454d674d7a59754d444178494449314f4334794f4449734d7a55754e544577494449314e7934774e446b734d7a55754f444579494449314e4334794d6a67675179417a4e6934784e7a67674d6a55774c6a67774e53777a4e7934304e7a67674d6a51354c6a51774e79777a4f4334344d4459674d6a55784c6a41774e79424e4d7a4d754e544932494449314f43347a4e5451675179417a4e4334314e5463674d6a59774c6a45344f43777a4e4334324d7a51674d6a59784c6a457a4e53777a4d7934334f4441674d6a59784c6a51324d79424449444d794c6a4d324f4341794e6a49754d4441314c444d774c6a497a4d6941794e5467754e5459334c444d784c6a497a4d6941794e5463754d7a597949454d674d7a45754f546b7a494449314e6934304e4455734d7a49754e6a4178494449314e6934334d4467734d7a4d754e544932494449314f43347a4e545167545449794d5334314f5441674d6a59304c6a41794d534244494449794d7934304d4459674d6a59304c6a51334d7977794d6a55754e545131494449324e5334774f4451734d6a49324c6a4d304e5341794e6a55754d7a633549454d674d6a49334c6a45304e5341794e6a55754e6a63304c4449794f4334344f4441674d6a59324c6a497a4d6977794d7a41754d6a4177494449324e6934324d6a4167517941794d7a51754f545131494449324f4334774d5451734d6a4d344c6a4d334d6941794e6a6b754f4449794c44497a4f4334784d5459674d6a63774c6a63354f4342444944497a4e7934344d5467674d6a63784c6a6b304d4377794d7a59754f546731494449334d6934794d6a45734d6a4d314c6a51314d4341794e7a45754e7a417749454d674d6a4d304c6a63324d6941794e7a45754e4459324c44497a4d6934344e5441674d6a63774c6a67344e6977794d7a45754d6a4177494449334d4334304d446b67517941794d6a6b754e545577494449324f5334354d7a4d734d6a49334c6a67304d4341794e6a6b754d7a677a4c4449794e7934304d4441674d6a59354c6a45344e694244494449794e53347a4f544d674d6a59344c6a49344f4377794d6a45754d6a4d32494449324e6934354d6a67734d6a45334c6a63774d4341794e6a59754d44457749454d674d6a45314c6a6b304d6941794e6a55754e5455304c4449784e5334304f444d674d6a59304c6a59334e7977794d5459754e446777494449324d7934324f444167517941794d5463754d544d7a494449324d7934774d6a63734d6a45334c6a63324e4341794e6a4d754d4459354c4449794d5334314f5441674d6a59304c6a41794d53424e4d6a55304c6a4d354e6941794e6a51754e546b3149454d674d6a55314c6a45794f5341794e6a55754e4463344c4449314e4334314e6a67674d6a59334c6a41794e6977794e544d754d545578494449324f4334774d7a5567517941794e5445754f545132494449324f4334344f544d734d6a55774c6a63334f5341794e7a41754d4459354c4449304f4334324d6a45674d6a63794c6a59774d434244494449304e7934324d6a59674d6a637a4c6a63324e7977794e4463754e546779494449334d7934334e7a6b734d6a51324c6a6b354f5341794e7a4d754d44493049454d674d6a51314c6a67334e5341794e7a45754e5459334c4449304e69347a4e5455674d6a63774c6a63784e6977794e5445754e445933494449324e5334784d444167517941794e5449754e546335494449324d7934344e7a67734d6a557a4c6a59304f4341794e6a4d754e6a6b304c4449314e43347a4f5459674d6a59304c6a55354e53424e4d6a49334c6a41774d4341794e7a49754f44417749454d674d6a49334c6a457a4e6941794e7a4d754d4449774c4449794e7934334d7a49674d6a637a4c6a49774e6977794d6a67754d7a4930494449334d7934794d544967517941794d7a41754e544d31494449334d7934794d7a67734d6a4d324c6a6b344e7941794e7a59754d544d794c44497a4e7934784d7a55674d6a63334c6a45324e5342444944497a4e7934304d7a45674d6a63354c6a497a4e5377794d7a55754e544933494449334f5334784d7a63734d6a49354c6a49774d4341794e7a59754e7a553149454d674d6a497a4c6a4d304d4341794e7a51754e5451344c4449794d7934794d4441674d6a63304c6a51344d5377794d6a4d754d6a4177494449334d7934344f446b67517941794d6a4d754d6a4177494449334d6934324d5451734d6a49324c6a4d7a4d5341794e7a45754e7a45334c4449794e7934774d4441674d6a63794c6a67774d43424e4d6a55324c6a45314f4341794e7a59754d54417749454d674d6a55324c6a6b314e4341794e7a63754d7a63794c4449314e5334354e7a63674d6a63344c6a45324e7977794e544d754d546734494449334f4334314d546367517941794e5441754d544530494449334f4334354d4449734d6a51344c6a6b774d7941794e7a67754d6a4d7a4c4449314d4334784e6a41674d6a63324c6a67304e434244494449314d5334314e446b674d6a63314c6a4d784d4377794e5455754d7a5932494449334e4334344d7a59734d6a55324c6a45314f4341794e7a59754d544177494530794e4467754e6a4132494449354d4334324e6a5567517941794e446b754e544132494449354d6934774d7a6b734d6a55784c6a55334f4341794f546b754f5467304c4449314d7934784e7a67674d7a41344c6a49774d434244494449314d7934314e6a51674d7a45774c6a45344d4377794e5451754d7a633549444d784d7934354f544d734d6a55304c6a6b354d43417a4d5459754e6a637949454d674d6a55324c6a45774e69417a4d6a45754e5459324c4449314e6934784d5455674d7a497a4c6a59774d4377794e5455754d44497849444d794d7934324d444167517941794e544d754f44593549444d794d7934324d4441734d6a557a4c6a4d7a4f53417a4d6a49754d7a63304c4449314d6934774e6a59674d7a45324c6a63314e794244494449314d53347a4e4467674d7a457a4c6a55354d5377794e5441754d6a4d3349444d774f5334774d6a41734d6a51354c6a55354e79417a4d4459754e6a417749454d674d6a51344c6a6b314e69417a4d4451754d5467774c4449304f4334774e4451674d7a41774c6a55344d4377794e4463754e545935494449354f4334324d444167517941794e4463754d446b30494449354e6934324d6a41734d6a51324c6a51314e7941794f5451754e444d7a4c4449304e6934784e544d674d6a6b7a4c6a63304d434244494449304e4334324e7a63674d6a6b774c6a4d334e4377794e4459754e7a4d77494449344e7934344d4449734d6a51344c6a59774e6941794f5441754e6a59314945307a4f5467754e6a677749444d774f43347a4d5451675179417a4f5467754d44593049444d774f4334354e5467734d7a6b324c6a67354e43417a4d446b754e6a6b794c444d354e6934774f4441674d7a41354c6a6b304e43424449444d354e5334784e5445674d7a45774c6a497a4d79777a4f5451754d6a493449444d784d4334354d7a51734d7a6b7a4c6a59774d43417a4d5445754f44493449454d674d7a6b7a4c6a41314d43417a4d5449754e6a45784c444d354d5334344e7a51674d7a45304c6a45794f53777a4f5441754f54673349444d784e5334794d4441675179417a4f4449754e44557849444d794e5334314d446b734d7a67324c6a41344d79417a4d7a4d754d5445334c444d354e5334334e6a45674d7a49314c6a49774d43424449444d354f43347a4e7a45674d7a497a4c6a41324e43777a4f5467754e54453549444d794d6934304f5445734d7a6b324c6a55774d43417a4d6a49754d7a493049454d674d7a6b314c6a41344d53417a4d6a49754d6a41334c444d354e4334354f544d674d7a49794c6a45784f53777a4f5451754f44633249444d794d4334324f5463675179417a4f5451754e7a513349444d784f5334784d7a6b734d7a6b304c6a63354f43417a4d546b754d4467324c444d354e6934354d4441674d7a45344c6a59794e69424449444d354e7934344f5463674d7a45344c6a51774e79777a4f5467754d44417749444d784f4334794d6a41734d7a6b344c6a41774d43417a4d5459754e6a493249454d674d7a6b344c6a41774d43417a4d5455754d6a41794c444d354f4334784f5451674d7a45304c6a63794e53777a4f546b754d44453449444d784e4334784d6a55675179417a4f546b754f54677749444d784d7934304d6a51734e4441774c6a417a4d43417a4d544d754d6a45774c444d354f5334354d5467674d7a45774c6a49324d79424d49444d354f5334344d4441674d7a41334c6a45304d79417a4f5467754e6a677749444d774f43347a4d5451675454497a4e5334774e5463674d7a45794c6a51794d5342444944497a4e5334324e6a59674d7a45794c6a59314d7977794d7a63754f44677a49444d784d7934794f5467734d6a4d354c6a6b344d79417a4d544d754f44553049454d674d6a51304c6a4d794f43417a4d5455754d4441314c4449304e6934784e5449674d7a45324c6a49774e6977794e4451754f54497849444d784e7934784d446767517941794e4451754d444d3149444d784e7934334e5459734d6a51794c6a497a4f43417a4d5463754e54457a4c44497a4e7934324d4441674d7a45324c6a45784e6942444944497a4e5334334d7a41674d7a45314c6a55314d7977794d7a4d754d6a457949444d784e4334354f4449734d6a4d794c6a41774e53417a4d5451754f44513249454d674d6a49354c6a63324e69417a4d5451754e546b314c4449794f5334784f546b674d7a45304c6a41794d7977794d6a6b754e7a553049444d784d6934314e7a6367517941794d7a41754d44497749444d784d5334344f4449734d6a4d7a4c6a4d334f43417a4d5445754e7a677a4c44497a4e5334774e5463674d7a45794c6a51794d53424e4d6a51314c6a41774d43417a4d6a51754e544d7749454d674d6a51354c6a49344e79417a4d6a55754e7a67794c4449314d5334784d6a59674d7a49324c6a6b334d7977794e5441754e6a553349444d794f4334784f545567517941794e5441754d54513549444d794f5334314d6a41734d6a51784c6a63774e69417a4d6a63754d7a6b774c4449304d4334324e4449674d7a49314c6a59324f434244494449304d4334794e7a55674d7a49314c6a41334e5377794e4445754e6a557849444d794d7934314d5467734d6a51794c6a4d304e79417a4d6a4d754e7a4d3549454d674d6a51794c6a63774e69417a4d6a4d754f44557a4c4449304d7934354d4441674d7a49304c6a49774f5377794e4455754d44417749444d794e4334314d7a4167545449324e4334324d7a4d674d7a49304c6a517a4e694244494449324e53347a4e7a55674d7a49314c6a49314e7977794e6a55754d7a633149444d794e5334794f444d734d6a59304c6a59784f43417a4d6a55754f444d3249454d674d6a59794c6a67314d79417a4d6a63754d5449334c4449324d43347a4d5459674d7a49324c6a41324f5377794e6a45754e44453149444d794e4334314d444167517941794e6a49754d6a413149444d794d79347a4e7a49734d6a597a4c6a59304e43417a4d6a4d754d7a517a4c4449324e4334324d7a4d674d7a49304c6a517a4e69424e4d7a6b334c6a49774d43417a4d6a6b754f54513249454d674d7a6b334c6a49774d43417a4d7a41754d7a51334c444d354d7934324d7a55674d7a4d7a4c6a49774d43777a4f544d754d544d3049444d7a4d7934794d4441675179417a4f5449754f54557749444d7a4d7934794d4441734d7a6b794c6a67774d43417a4d7a4d754d4449774c444d354d6934344d4441674d7a4d794c6a67774d43424449444d354d6934344d4441674d7a4d794c6a55344d43777a4f5449754f54513349444d7a4d6934304d4441734d7a6b7a4c6a45794e79417a4d7a49754e44417749454d674d7a6b7a4c6a4d774e79417a4d7a49754e4441774c444d354e4334784e6a49674d7a4d784c6a63334d43777a4f5455754d44493349444d7a4d5334774d4441675179417a4f5459754e6a413549444d794f5334314f5449734d7a6b334c6a49774d43417a4d6a6b754d7a41324c444d354e7934794d4441674d7a49354c6a6b304e69424e4d7a6b344c6a597a4d69417a4d7a4d754f54513549454d674d7a6b344c6a55784d79417a4d7a51754d5451784c444d354e7934794e4449674d7a4d314c6a41334e53777a4f5455754f44413449444d7a4e6934774d6a55675179417a4f5449754f44637849444d7a4e7934354e7a41734d7a6b794c6a63784e69417a4d7a67754d7a49794c444d354e43347a4e7a67674d7a4d354c6a49324f43424449444d354e5334354e7a63674d7a51774c6a45334e79777a4f5459754e446b7749444d304d6934794e7a55734d7a6b324c6a45354e69417a4e4459754e6a6b33494577674d7a6b314c6a6b324d69417a4e5441754d6a417749444d354e7934354e6a67674d7a55794c6a51774d43424d49444d354f5334354e7a55674d7a55304c6a59774d43417a4f546b754f54673349444d304e4334784d444167517941304d4441754d44417749444d7a4d7934334d544d734d7a6b354c6a63344d79417a4d7a49754d4467324c444d354f4334324d7a49674d7a4d7a4c6a6b304f53424e4d6a55314c6a67774e79417a4d7a59754f44497849454d674d6a55324c6a51774e53417a4d7a67754e7a41314c4449314d4334344d6a6b674d7a51314c6a4d314d6977794e4467754f44513049444d304e5334784d6a4567517941794e4459754e546b7849444d304e4334344e6a41734d6a51334c6a49774e43417a4e444d754d5459334c4449314d4334354d5449674d7a4d354c6a51774f534244494449314e43347a4e6a4d674d7a4d314c6a6b784d5377794e5455754d7a557949444d7a4e53347a4f4467734d6a55314c6a67774e79417a4d7a59754f4449784945307a4f5459754d44417749444d7a4e7934324d4441675179417a4f5459754d44417749444d7a4e7934344d6a41734d7a6b314c6a55354e53417a4d7a63754f546b334c444d354e5334784d4441674d7a4d334c6a6b354e43424449444d354e43347a4e7a49674d7a4d334c6a6b344f53777a4f5451754d7a453149444d7a4e7934354d5451734d7a6b304c6a67774d43417a4d7a63754e6a417749454d674d7a6b314c6a55334e69417a4d7a63754d446b354c444d354e6934774d4441674d7a4d334c6a41354f53777a4f5459754d44417749444d7a4e7934324d44416754544d344e6934334d4441674d7a4d334c6a67334e69424449444d344e69347a4d5455674d7a4d334c6a6b334e69777a4f4455754e6a673149444d7a4e7934354e7a59734d7a67314c6a4d774d43417a4d7a63754f44633249454d674d7a67304c6a6b784e53417a4d7a63754e7a63314c444d344e5334794d7a41674d7a4d334c6a59354d79777a4f4459754d44417749444d7a4e7934324f544d675179417a4f4459754e7a637749444d7a4e7934324f544d734d7a67334c6a41344e53417a4d7a63754e7a63314c444d344e6934334d4441674d7a4d334c6a67334e69424e4d6a55354c6a45794d43417a4d7a67754f44677749454d674d6a55354c6a67794d43417a4d7a6b754e5467774c4449314f5334334d6a41674d7a51794c6a59794d7977794e5467754f54637849444d304d79347a4e7a4567517941794e5463754e6a553349444d304e4334324f4459734d6a55324c6a41774d43417a4e444d754f4459794c4449314e6934774d4441674d7a51784c6a67354e434244494449314e6934774d4441674d7a4d354c6a4d344e5377794e5463754f44513049444d7a4e7934324d4451734d6a55354c6a45794d43417a4d7a67754f4467774945307a4f5441754f44557949444d7a4f53347a4d7a63675179417a4f5441754e6a413349444d7a4f5334324d7a4d734d7a67354c6a4d7a4e69417a4e4441754e444d324c444d344f4334774d6a63674d7a51784c6a45794d69424449444d344e6934334d5467674d7a51784c6a67774f43777a4f4451754e7a677949444d304d7934774d7a45734d7a677a4c6a63794e43417a4e444d754f44517849454d674d7a67774c6a4d314d79417a4e4459754e4449774c444d324e69347a4e4445674d7a55794c6a55334f53777a4e6a45754d44417749444d314d7934344d6a6b675179417a4e6a41754d7a517749444d314d7934354f4451734d7a55354c6a59794d43417a4e5451754d6a51784c444d314f5334304d4441674d7a55304c6a51774d53424449444d314f5334784f4441674d7a55304c6a55324d69777a4e5467754e54557749444d314e4334334f4463734d7a55344c6a41774d43417a4e5451754f54417949454d674d7a55334c6a51314d43417a4e5455754d4445344c444d314e5334314e6a41674d7a55314c6a51354e79777a4e544d754f44417749444d314e5334354e6a67675179417a4e5449754d44517749444d314e6934304d7a6b734d7a51354c6a41334d43417a4e5463754d446b324c444d304e7934794d4441674d7a55334c6a51794f43424449444d304e53347a4d7a41674d7a55334c6a63324d53777a4e4449754d6a637749444d314f43347a4d4451734d7a51774c6a51774d43417a4e5467754e6a4d3149454d674d7a4d314c6a55774d43417a4e546b754e5441304c444d794e53347a4f546b674d7a59774c6a4d304d53777a4d5459754e44417749444d324d4334324d6a51675179417a4d4455754d44457949444d324d4334354f4449734d7a41304c6a45344f43417a4e6a41754f5455794c4449354f5334344d4441674d7a59774c6a41794e534244494449354e7934324d4441674d7a55354c6a55324d4377794f5451754e54597949444d314f4334354f5445734d6a6b7a4c6a41304f43417a4e5467754e7a597949454d674d6a6b784c6a557a4e53417a4e5467754e544d794c4449344f4334334f4463674d7a55334c6a6b774e7977794f4459754f54517949444d314e79347a4e7a4967517941794f444d754e44633149444d314e69347a4e6a63734d6a67774c6a55314f53417a4e5459754d4467334c4449344d5334774d4441674d7a55324c6a67774d434244494449344d5334784d7a59674d7a55334c6a41794d4377794f4445754e546b7949444d314e7934794d4441734d6a67794c6a41784d79417a4e5463754d6a417749454d674d6a67304c6a67324e43417a4e5463754d6a41774c4449354f4334344f4445674d7a59314c6a41314f43777a4d4459754d44417749444d334d4334324e4467675179417a4d5449754e44453449444d334e5334324f4463734d7a49314c6a55344d79417a4f5441754d6a6b304c444d7a4d4334794e6a59674d7a6b334c6a55334d53424d49444d7a4d5334344d4441674d7a6b354c6a6b314e69417a4e5463754f44457a49444d354f5334354e7a67675443417a4f444d754f444931494451774d4334774d4441674d7a67304c6a49324e53417a4f5467754d7a417749454d674d7a67304c6a55774e69417a4f5463754d7a59314c444d344e4334354d7a4d674d7a6b314c6a63774d43777a4f4455754d6a457a49444d354e4334324d4441675179417a4f4455754e446b7949444d354d7934314d4441734d7a67314c6a63344d43417a4f5441754d54677a4c444d344e5334344e5445674d7a67334c6a49794f53424449444d344e5334354f446b674d7a67784c6a55794f53777a4f4459754d44517a49444d344d53347a4e4449734d7a67334c6a59774d43417a4f4445754d544d3049454d674d7a67344c6a6b354f53417a4f4441754f5451334c444d344f4334324d4445674d7a63794c6a63304d43777a4f4463754d54413049444d334d4334344f5455675179417a4f4459754e7a453249444d334d4334304d5467734d7a67304c6a41774d43417a4e7a4d754f544d354c444d344e4334774d4441674d7a63304c6a6b784f53424449444d344e4334774d4441674d7a63324c6a63774d69777a4e7a6b754e7a513349444d334f5334334e5449734d7a63344c6a55354e53417a4e7a67754e7a6b3249454d674d7a63334c6a63354e53417a4e7a67754d544d794c444d334e7934794f544d674d7a63344c6a55344d69777a4e7a51754f54413549444d344d6934774f5467675179417a4e7a4d754f44553549444d344d7934324e4459734d7a63794c6a59784d53417a4f4455754e4463794c444d334d6934784d7a59674d7a67324c6a45314e69424449444d334d4334314e5459674d7a67344c6a517a4d69777a4e6a55754d7a6b3049444d354d7934314e6a4d734d7a597a4c6a63314e43417a4f5451754e44673449454d674d7a59794c6a67324e43417a4f5451754f546b774c444d324d53347a4e7a49674d7a6b314c6a6b774e69777a4e6a41754e444d3549444d354e6934314d6a51675179417a4e5467754f44413049444d354e7934324d4459734d7a55334c6a51774e53417a4f5463754f444d7a4c444d314e7934314d4455674d7a6b334c6a41774d43424449444d314e7934314d7a45674d7a6b324c6a63344d43777a4e5463754f44677949444d354e6934314d5441734d7a55344c6a49344e53417a4f5459754e44417749454d674d7a59774c6a55304d69417a4f5455754e7a67304c444d324e4334334e7a49674d7a6b784c6a557a4d79777a4e6a6b754d6a4d3049444d344e53347a4f5459675179417a4e7a41754f444d7a49444d344d7934784f5467734d7a63794c6a67314d79417a4f4441754d4455774c444d334d7934334d6a4d674d7a63344c6a51774d43424449444d334e6934794f5463674d7a637a4c6a55794d53777a4e7a67754e44417749444d324f5334794f5451734d7a63344c6a51774d43417a4e6a67754f546b3449454d674d7a63344c6a51774d43417a4e6a67754f4451314c444d334f4334324e6a49674d7a59344c6a45314e43777a4e7a67754f54677949444d324e7934304e6a41675179417a4f4445754d7a673449444d324d6934794e5445734d7a677a4c6a49774d43417a4e5451754f4445314c444d344d7934794d4441674d7a55774c6a45314d69424449444d344d7934794d4441674d7a51324c6a63334d79777a4f444d754e7a673449444d304e5334324e4455734d7a67314c6a45324e53417a4e4459754d7a677849454d674d7a67334c6a41774f43417a4e4463754d7a59344c444d344e53347a4d5451674d7a59794c6a55774d79777a4f4449754f44513049444d324e7934784d5463675179417a4f4449754e6a417749444d324e7934314e7a51734d7a67794c6a51774d43417a4e6a67754d6a59774c444d344d6934304d4441674d7a59344c6a59304d69424449444d344d6934304d4441674d7a59354c6a41794e43777a4f4449754d54453049444d324f5334324e544d734d7a67784c6a63324e53417a4e7a41754d444d3549454d674d7a67784c6a51784e69417a4e7a41754e4449314c444d344d5334794d544d674d7a63784c6a41324f53777a4f4445754d7a453049444d334d5334304e7a41675179417a4f4445754e44553549444d334d6934774e4455734d7a67784c6a59784d69417a4e7a45754f5449314c444d344d6934774d7a63674d7a63774c6a6b774d43424449444d344d69347a4d7a4d674d7a63774c6a45344e53777a4f4449754e6a6b3149444d324f5334324d4441734d7a67794c6a67304d69417a4e6a6b754e6a417749454d674d7a677a4c6a4d794e53417a4e6a6b754e6a41774c444d344e6934304d4441674d7a59304c6a41334f53777a4f4459754e44417749444d324d7934794d5445675179417a4f4459754e44417749444d324d6934334e4451734d7a67324c6a67784e43417a4e6a45754f5459314c444d344e79347a4d546b674d7a59784c6a51344d53424449444d344f4334794d544d674d7a59774c6a59794e53777a4f5441754d44493049444d314e6934324f446b734d7a6b784c6a51784e79417a4e5449754e54633449454d674d7a6b794c6a41314d69417a4e5441754e7a417a4c444d354d6934774e5451674d7a55774c6a51324e69777a4f5445754e44557849444d304f5334794f5467675179417a4f5441754e54457949444d304e7934304f444d734d7a6b774c6a597a4f53417a4e4459754e546b794c444d354d6934774e444d674d7a51314c6a45314e69424449444d354d7934784d5449674d7a51304c6a41324d69777a4f544d754d6a557a49444d304d7934324f444d734d7a6b7a4c6a41304e79417a4e4449754e44517949454d674d7a6b794c6a6b784e69417a4e4445754e6a51354c444d354d6934344d4463674d7a51774c6a55774e53777a4f5449754f44413049444d7a4f5334354d4441675179417a4f5449754f44417749444d7a4f4334324f4451734d7a6b784c6a59324e53417a4d7a67754d7a55334c444d354d4334344e5449674d7a4d354c6a4d7a4e79424e4d7a6b784c6a67304e43417a4e4445754e44493549454d674d7a6b784c6a63794d53417a4e4445754e7a55774c444d354d5334794d5445674d7a51794c6a45354e79777a4f5441754e7a457749444d304d6934304d6a4d675179417a4f5441754d6a457749444d304d6934324e446b734d7a67354c6a4d314d43417a4e444d754d446b344c444d344f4334344d4441674d7a517a4c6a51784f53424449444d344e7934334d4449674d7a51304c6a41324d53777a4f4459754d7a517949444d304e4334774e4441734d7a67324c6a45794e43417a4e444d754d7a633449454d674d7a67314c6a6b354e43417a4e4449754f54677a4c444d344f43347a4f444d674d7a51784c6a59774d43777a4f446b754d546b3149444d304d5334324d4441675179417a4f446b754d7a6b3449444d304d5334324d4441734d7a6b774c6a41324d69417a4e4445754d5441314c444d354d4334324e7a49674d7a51774c6a55774d43424449444d354d5334344d5451674d7a4d354c6a4d324e79777a4f5449754e44513049444d7a4f5334344e6a59734d7a6b784c6a67304e43417a4e4445754e444935494530314e5334334d5441674d7a51354c6a67354e434244494455794c6a6b794f43417a4e5441754d6a49354c4455794c6a45344f43417a4e5449754f546b7a4c4455304c6a45794f53417a4e5455754f44417749454d674e5463754d7a4d3049444d324d4334304d7a4d734e6a45754e6a417749444d324d7934314f5455734e6a45754e6a417749444d324d53347a4d7a6367517941324d5334324d4441674d7a55354c6a55344d6977324e5334784e4441674d7a55324c6a63794d5377324e6934794d5445674d7a55334c6a59774f534244494459334c6a45774d43417a4e5467754d7a51334c4459324c6a6b784f53417a4e546b754e7a51344c4459314c6a67774d43417a4e6a41754f44417749454d674e6a55754d6a557749444d324d53347a4d5463734e6a51754f44417749444d324d5334354e7a67734e6a51754f44417749444d324d6934794e7a4167517941324e4334344d4441674d7a597a4c6a41344d5377324e6934784f4455674d7a59794c6a6b774d4377324e7934774d5467674d7a59784c6a6b344d534244494459334c6a55794d79417a4e6a45754e4449794c4459344c6a45304f43417a4e6a45754d546b354c4459344c6a6b344d43417a4e6a45754d6a677849454d674e7a45754d544d3149444d324d5334304f5445734e7a41754e6a673349444d324d7934784d6a55734e6a63754f44453549444d324e5334314d545967517941324e6934324e4451674d7a59324c6a51354e5377324e7934784e6a45674d7a59334c6a45784d7977324f5334354d4441674d7a59344c6a41774d694244494463344c6a49304e53417a4e7a41754e7a457a4c44677a4c6a59324e79417a4e6a67754d7a4d344c4467784c6a45344e69417a4e6a4d754d44553549454d674e7a6b754d54677949444d314f4334334f5463734e6a6b754e44633549444d314d5334354e544d734e6a51754d6a417749444d314d5334774e7a6767517941324d6934304f544d674d7a55774c6a63354e5377314f4334304e4451674d7a55774c6a41314e6977314e7934324e6a45674d7a51354c6a67344e434244494455334c6a49354f43417a4e446b754f4441304c4455324c6a51784f53417a4e446b754f4441354c4455314c6a63784d43417a4e446b754f446b304945307a4f544d754e6a4d3349444d314e5334324d7a59675179417a4f544d754d546b7849444d314e69347a4e6a67734d7a6b794c6a63774f43417a4e5463754e5445314c444d354d6934314e6a51674d7a55344c6a45344e43424449444d354d6934304d546b674d7a55344c6a67314d79777a4f5445754e7a593449444d324d4334304e6a41734d7a6b784c6a45784e79417a4e6a45754e7a553249454d674d7a67354c6a63344d43417a4e6a51754e44457a4c444d344f5334334e7a6b674d7a59304c6a45774d43777a4f5445754d54593149444d334e4334774d4441675179417a4f5445754e6a457949444d334e7934784f5441734d7a6b794c6a41334e53417a4f4441754e5449774c444d354d6934784f5451674d7a67784c6a51774d43424449444d354d69347a4d544d674d7a67794c6a49344d43777a4f5449754e6a417949444d344e4334794d4445734d7a6b794c6a677a4e69417a4f4455754e6a593549454d674d7a6b7a4c6a4d7a4d79417a4f4467754e7a67354c444d354d6934354d7a49674d7a6b774c6a41774d43777a4f5445754e44417749444d354d4334774d4441675179417a4f5441754d544d3349444d354d4334774d4441734d7a67354c6a59784e53417a4f4467754f5459344c444d344f5334314e4441674d7a67324c6a4d794e69424449444d344f5334314d4463674d7a67314c6a45314e79777a4f446b754d7a513049444d344e6934314e4441734d7a67354c6a45334f43417a4f446b754e44417749454d674d7a67354c6a41774f43417a4f5449754d7a49304c444d344f4334314f546b674d7a6b314c6a4d344f43777a4f4467754d6a513049444d354e6934304d4441675179417a4f4459754f544d7a494451774d4334784d7a45734d7a67324c6a637a4d4341304d4441754d4441774c444d354d7934344d6a63674e4441774c6a41774d43424d494451774d4334774e544d674e4441774c6a41774d43417a4f546b754f446b7849444d354e6934784d4441675179417a4f546b754e7a677a49444d354d7934304f4455734d7a6b354c6a4d784d79417a4f5441754e5463794c444d354f4334304e6a55674d7a67334c6a49314f43424449444d354e7934334e6a6b674d7a67304c6a55304d53777a4f5463754d6a417749444d344d5334344f5459734d7a6b334c6a49774d43417a4f4445754d7a677949454d674d7a6b334c6a49774d43417a4f4441754f4459344c444d354e7934774d6a41674d7a67774c6a4d7a4e69777a4f5459754f44417749444d344d4334794d4441675179417a4f5459754e54677749444d344d4334774e6a51734d7a6b324c6a51774d43417a4e7a6b754e4463334c444d354e6934304d4441674d7a63344c6a67354e69424449444d354e6934304d4441674d7a63334c6a67784d53777a4f5455754d54673549444d334d6934784e6a55734d7a6b304c6a45354d69417a4e6a67754e6a417749454d674d7a6b794c6a63774d43417a4e6a4d754d6a59314c444d354d7934774d446b674d7a59774c6a41774d43777a4f5455754d44413249444d324d4334774d4441675179417a4f5459754e7a413449444d324d4334774d4441734d7a6b324c6a6b354e69417a4e5459754e7a41774c444d354e5334304d6a4d674d7a55314c6a49794d69424d49444d354e4334304e4459674d7a55304c6a4d774e43417a4f544d754e6a4d3349444d314e5334324d7a5967545449334e7934794d4441674d7a55314c6a49794d794244494449334e7934794d4441674d7a55314c6a59334d4377794e7a67754f54513549444d314e6934774d5445734d6a63354c6a4d794d79417a4e5455754e6a4d3349454d674d6a63354c6a55774f53417a4e5455754e4455784c4449334f5334784d4463674d7a55314c6a49784f4377794e7a67754e444d7749444d314e5334784d546b67517941794e7a63754e7a553049444d314e5334774d6a41734d6a63334c6a49774d43417a4e5455754d4459324c4449334e7934794d4441674d7a55314c6a49794d79424e4d6a51354c6a41774d43417a4e5459754d44457a49454d674d6a51334c6a59344d43417a4e5459754d6a45324c4449304e5334774e7a41674d7a55324c6a55344f4377794e444d754d6a417749444d314e6934344d7a6367517941794d7a6b754e7a4d3249444d314e79347a4d4441734d6a4d784c6a41354e69417a4e6a41754d4441794c4449794f4334794d4441674d7a59784c6a55794f434244494449794e79347a4d6a41674d7a59784c6a6b354d6977794d6a55754e7a6b7749444d324d6934334e4459734d6a49304c6a67774d43417a4e6a4d754d6a413049454d674d6a497a4c6a67784d43417a4e6a4d754e6a59794c4449794d6934324e5467674d7a59304c6a49794e7977794d6a49754d6a517749444d324e4334304e546b67517941794d6a45754f44497a49444d324e4334324f5445734d6a49774c6a45784d79417a4e6a55754e6a41354c4449784f4334304e4441674d7a59324c6a51354f534244494449784d4334794e6a63674d7a63774c6a67304f5377784f5467754e54673249444d344d4334324e5441734d546b7a4c6a63784e43417a4f4463754d6a513249454d674d546b794c6a677a4f43417a4f4467754e444d784c4445354d5334344d6a51674d7a67354c6a59304f4377784f5445754e44597849444d344f5334354e446b67517941784f5445754d446b3349444d354d4334794e5445734d546b774c6a67774d43417a4f5441754e7a49324c4445354d4334344d4441674d7a6b784c6a41774e694244494445354d4334344d4441674d7a6b784c6a49344e5377784f5441754d444d3149444d354d69347a4f4467734d5467354c6a45774d43417a4f544d754e44553349454d674d5467334c6a41774d69417a4f5455754f4455314c4445344e4334344d4441674d7a6b344c6a6b344d7977784f4451754f44417749444d354f5334314e6a5567517941784f4451754f44417749444d354f5334344e7a55734d546b324c6a677a4f5341304d4441754d4441774c4449794e6934344d4463674e4441774c6a41774d43424d494449324f4334344d5451674e4441774c6a41774d4341794e6a67754e54637949444d354e5334314d444167517941794e6a67754e444d3549444d354d7934774d6a55734d6a59344c6a41324d79417a4f5441754d5455784c4449324e7934334d7a63674d7a67354c6a45784e434244494449324e7934304d5445674d7a67344c6a41334e7977794e6a63754d546b7949444d344e6934354d4463734d6a59334c6a49304f43417a4f4459754e54453049454d674d6a59334c6a557a4e53417a4f4451754e544d344c4449324e6934304d7a45674d7a63354c6a59344e6977794e6a51754d6a453549444d334d7934794d444167517941794e6a49754d7a637849444d324e7934334e7a6b734d6a59774c6a49344d69417a4e6a51754e5455324c4449314e7934334d4455674d7a597a4c6a45304f434244494449314e5334344e6a59674d7a59794c6a45304d7977794e5455754e54597749444d324d5334774f444d734d6a55324c6a67334d79417a4e6a41754d6a597749454d674d6a55334c6a67304e53417a4e546b754e6a55784c4449324d5334784f5455674d7a59784c6a4d774f5377794e6a49754d6a553549444d324d6934354d6a5967517941794e6a59754d54633449444d324f4334344f4441734d6a59344c6a6b334e43417a4e7a55754f446b354c4449334d4334774d5459674d7a67794c6a51774d434244494449334d4334354d5463674d7a67344c6a41784e7977794e7a45754e54553049444d354d7934354e4451734d6a63784c6a55334e79417a4f5459754f544177494577674d6a63784c6a59774d4341304d4441754d444177494449354f5334304d4441674e4441774c6a41774d43424449444d794f4334334d4441674e4441774c6a41774d43777a4d6a67754d7a4d30494451774d4334774d6a49734d7a49324c6a59344e69417a4f5467754d7a493549454d674d7a49324c6a51774d79417a4f5467754d444d344c444d794e5334324e4441674d7a6b334c6a41344d43777a4d6a51754f546b7849444d354e6934794d4441675179417a4d5451754e44453549444d344d5334344e6a67734d7a41774c6a55334f43417a4e6a6b754e4455314c4449344f4334344d4441674d7a597a4c6a63304d694244494449344e7934784e5441674d7a59794c6a6b304d6977794f4455754e44597a49444d324d6934784d5463734d6a67314c6a41314d69417a4e6a45754f54457749454d674d6a677a4c6a59354f53417a4e6a45754d6a49344c4449334e7934344d6a6b674d7a55354c6a457a4e5377794e7a59754e44417749444d314f4334344d6a5567517941794e7a51754e544d7a49444d314f4334304d6a41734d6a63774c6a45794e69417a4e5463754d6a597a4c4449324f4334304e6a51674d7a55324c6a63304d534244494449324e7934334d6a6b674d7a55324c6a55784d5377794e6a55754e7a513549444d314e6934794e5463734d6a59304c6a41324e43417a4e5459754d54633449454d674d6a55304c6a45314d69417a4e5455754e7a457a4c4449314d5334784e5451674d7a55314c6a59344d4377794e446b754d44417749444d314e6934774d544d6754544d354e7934344e4451674d7a59334c6a63324e79424449444d354e7934334d5445674d7a59344c6a49354f53777a4f5463754e7a637749444d324f5334784e5451734d7a6b334c6a6b334e53417a4e6a6b754e6a593349454d674d7a6b344c6a49344f43417a4e7a41754e4451344c444d354f43347a4e544d674d7a63774c6a49354d43777a4f5467754d7a633149444d324f4334334d4441675179417a4f5467754e44417a49444d324e6934324d446b734d7a6b344c6a49784e79417a4e6a59754d6a67794c444d354e7934344e4451674d7a59334c6a63324e79416949475a706247773949694d31597a67354d324d6949475a7062477774636e56735a5430695a585a6c626d396b5a4349676333523562475539496e4e30636d39725a546f67636d6469595367784f446373494449784f4377674f445573494441754e6a6b704f79497650676f674943416750484268644767676333523562475539496e4e30636d39725a546f67636d64694b44417349444173494441704f79426d615778734f6942795a32496f4d6a49314c43417a4d4377674d7a41704f7949675a443069545341794d6a59754d4459674d5441334c6a63774d694244494449794e5334344d5467674d5441324c6a6b334d7941794d6a63754e444131494445774e5334344f4445674d6a49334c6a67304e7941784d4455754e6a5967517941794d6a6b754d6a4534494445774e4334354e7a51674d6a4d774c6a41784d7941784d4455754f4445314944497a4d5334314f5341784d4459754d7a5167517941794d7a45754f5463674d5441324c6a51324e7941794d7a4d754d6a5530494445774e79347a4f546b674d6a4d794c6a59354e6941784d4463754f54553349454d674d6a4d794c6a51334d6941784d4467754d5467784944497a4d5334314f5341784d446b754d5463324944497a4d5334314f5341784d446b754e6a553449454d674d6a4d784c6a5535494445784d4334794e6a6b674d6a4d784c6a6b774f4341784d5445754e5445334944497a4d5334334e6941784d5449754d445167517941794d7a41754e6a6b78494445784e5334344d4463674d6a4d784c6a51334e5341784d5463754e446b354944497a4d43347a4d5451674d5445344c6a51794d534244494449794e5334334d6a6b674d5449794c6a41324e4341794d6a63754d546778494445794d5334344d5445674d6a49314c6a67774e5341784d6a45754f54413549454d674d6a49304c6a5933494445794d5334354f5341794d6a55754d7a5931494445794d7934324d6941794d6a51754d7a5535494445794e4334794f544567517941794d6a4d754e44597a494445794e4334344f4467674d6a49784c6a67354f5341784d6a51754f446335494449794d5334794d5449674d5449314c6a55324e694244494449794d5334774e5459674d5449314c6a63794d5341794d6a45754d444130494445794e5334324f4449674d6a49774c6a63344e6941784d6a55754e7a4d3249454d674d6a45354c6a55354e7941784d6a59754d444d7a494449784e5334334e5459674d5449324c6a41334f5341794d5451754e446b78494445794e69347a4d7a4967517941794d5449754e5445674d5449324c6a63794f4341794d446b754f444132494445794e6934794d4463674d6a41344c6a41794e5341784d6a63754d446b3449454d674d6a41324c6a6b794e7941784d6a63754e6a5133494449774e4334344f5467674d5449334c6a4d334d6941794d444d754e6a6733494445794e7934314d6a4d67517941794d4445754d7a49674d5449334c6a67784f5341784f5467754f544530494445794f4334794e5459674d546b324c6a59794e6941784d6a67754e7a453049454d674d546b304c6a51794d5341784d6a6b754d545531494445354d6934774e6a49674d5449354c6a41794d5341784f446b754f4449674d5449354c6a4d354e534244494445344e7934784e4445674d5449354c6a67304d5341784f4451754d544d7a4944457a4d4334784f5463674d5467784c6a4d354f4341784d6a6b754e6a5567517941784e7a6b754e7a49674d5449354c6a4d784e4341784e7a63754f444131494445794f5334324e7a45674d5463324c6a49774f5341784d6a6b754d544d3549454d674d5463304c6a45674d5449344c6a517a4e7941784e7a45754e544578494445794f5334794e4459674d5459354c6a51774d7941784d6a67754e54513049454d674d5459344c6a63794d6941784d6a67754d7a4533494445324e7934344d5459674d5449344c6a51354d6941784e6a63754d544132494445794f43347a4e7a5167517941784e6a51754f444978494445794e7934354f544d674d5459794c6a4d794d5341784d6a67754d445531494445324d4334794d5459674d5449334c6a4d314d794244494445314f5334774d4455674d5449324c6a6b304f5341784e5463754e6a4979494445794e69347a4f4449674d5455324c6a4d774d6941784d6a59754d54597949454d674d5455314c6a637a4f4341784d6a59754d445934494445314e4334794d6a67674d5449314c6a67334e4341784e544d754f444d31494445794e5334304f444567517941784e544d754e444532494445794e5334774e6a49674d5455784c6a6b344e5341784d6a51754e445131494445314d53347a4e6a67674d5449304c6a493549454d674d5455774c6a59304e5341784d6a51754d544135494445304f5334304f544d674d5449794c6a6b794e5341784e4467754f546733494445794d6934304d546b67517941784e4467754d7a597a494445794d5334334f5459674d5451344c6a45774f4341784d6a45754e5451674d5451334c6a59794e6941784d6a45754d44553449454d674d5451334c6a4d304f4341784d6a41754e7a67674d5451324c6a59774e4341784d6a41754d544d674d5451324c6a59774e4341784d546b754e7a677949454d674d5451324c6a59774e4341784d546b754d6a6b79494445304e6934774d7a59674d5445334c6a6b324f5341784e4455754e7a557a494445784e7934314e794244494445304e53347a4e6a55674d5445334c6a41794d6941784e4463754d7a63674d5445304c6a6b7a4d6941784e4463754d7a63674d5445304c6a63324d694244494445304e79347a4e7941784d5445754e7a4135494445314d4334354d6a63674d5445314c6a55784e4341784e544d754e4445674d5445314c6a41784f434244494445314e4334794d7a55674d5445304c6a67314d7941784e5455754d6a677a494445784e4334344e4467674d5455324c6a457a4d6941784d5451754f44513449454d674d5455324c6a6b314e5341784d5451754f445134494445314e7934334e7a63674d5445304c6a67304f4341784e5467754e546b35494445784e4334344e446767517941784e6a41754f545132494445784e4334344e4467674d54597a4c6a4d304e7941784d5451754f544d7a494445324e5334324e6941784d5451754f544d7a49454d674d5459324c6a63314d7941784d5451754f544d7a494445324f4334304e546b674d5445304c6a63784e5341784e6a6b754e44417a494445784e5334784f446767517941784e7a41754d446b35494445784e5334314d7a59674d5463784c6a49314e5341784d5455754d446b7a494445334d5334354e5455674d5445314c6a51304d794244494445334d6934304e7a45674d5445314c6a63774d5341784e7a4d754f44517a494445784e5334304e444d674d5463304c6a51794d6941784d5455754e44517a49454d674d5463324c6a59784d5341784d5455754e44517a494445334f4334334e4455674d5445314c6a49334d7941784f4441754f446734494445784e5334794e7a4d67517941784f444d754e4455674d5445314c6a49334d7941784f4459754e445130494445784e5334324d6a67674d5467344c6a67344e4341784d5455754d44453449454d674d5467354c6a63314d5341784d5451754f444178494445354d4334334f4459674d5445314c6a417a4e6941784f5445754e6a4133494445784e4334334e6a4967517941784f5449754d6a5132494445784e4334314e446b674d546b7a4c6a41354e5341784d5451754f446b674d546b7a4c6a637a4d7941784d5451754e6a633349454d674d546b314c6a63794e6941784d5451754d44457a494445354f4334784d7a67674d5445304c6a59344d6941794d4441754d546b35494445784e4334784e6a6367517941794d4445754e7a4d7a494445784d7934334f444d674d6a417a4c6a55774d5341784d5451754d445535494449774e4334354e6a4d674d54457a4c6a55334d534244494449774e6934334e7a55674d5445794c6a6b324e7941794d4467754e7a4533494445784d6934334e4455674d6a45774c6a55334e7941784d5449754d54493149454d674d6a45784c6a6b784e6941784d5445754e6a6335494449784d7934774d6a6b674d5445784c6a4578494449784e43347a4d6a45674d5445774c6a59334f534244494449784e53347a4f4467674d5445774c6a4d794d7941794d5459754e545135494445784d4334784e6941794d5463754e54557a494445774f5334324e546767517941794d5467754e6a4d35494445774f5334784d5455674d6a49774c6a45324e4341784d446b754d6a5132494449794d5334794d5445674d5441344c6a63794d694244494449794d5334324f546b674d5441344c6a51334f4341794d6a49754e7a59674d5441344c6a45794e7941794d6a4d754d7a4d34494445774f4334784d6a6367517941794d6a4d754e546330494445774f4334784d6a63674d6a49324c6a67324d6941784d4463754d54637a494449794e5334354e7a55674d5441334c6a59784e69497650676f6749434167504842686447676761575139496e4268644767794969426b50534a4e4d5467314c6a49774d43417a4f4334324d444167517941784f4451754e6a557749444d344c6a6b784e4377784f444d754f54457a49444d354c6a45334f4377784f444d754e54597a49444d354c6a45344e694244494445344d7934794d544d674d7a6b754d546b304c4445344d6934784d7a4d674d7a6b754e6a51344c4445344d5334784e6a4d674e4441754d546b3149454d674d5467774c6a45354d7941304d4334334e4449734d5463354c6a457a4d4341304d53347a4d544d734d5463344c6a67774d4341304d5334304e6a5567517941784e7a67754e446377494451784c6a59784e6977784e7a67754d445532494451784c6a6b334f4377784e7a63754f446777494451794c6a49334d434244494445334e7934334d4451674e4449754e5459784c4445334e79347a4e4451674e4449754f4441794c4445334e7934774f4441674e4449754f44413149454d674d5463314c6a4d344d4341304d6934344d6a4d734d5463774c6a67774d4341304f4334324f5463734d5463774c6a67774d4341314d4334344e6a4167517941784e7a41754f444177494455794c6a6b354d4377784e7a49754d4463784944557a4c6a41784d5377784e7a4d754d545578494455774c6a6b774d434244494445334e5334314e4451674e4459754d6a49784c4445344d7934304e446b674e4445754d5441784c4445344f5334324f5441674e4441754d54673449454d674d546b7a4c6a63304f43417a4f5334314f5455734d546b354c6a51304d6941304d7934314e5459734d6a41794c6a677a4d6941304f53347a4d7a4167517941794d444d754e546730494455774c6a59784d5377794d4451754f446b77494455794c6a677a4f5377794d4455754e7a4d7a494455304c6a49344d434244494449774e6934314e7a63674e5455754e7a49784c4449774e79347a4e7a45674e5463754e5451304c4449774e7934304f546b674e5467754d7a4d79494577674d6a41334c6a637a4d5341314f5334334e6a55674d6a41314c6a59324d5341314f4334794e445567517941794d444d754e446378494455324c6a597a4e7977794d4441754d7a4135494455314c6a55324f5377784f5467754e44517a494455314c6a67774e534244494445354e69347a4d4459674e5459754d4463314c4445354d6934784f544d674e5463754d6a63794c4445354d4334324d4441674e5467754d44673249454d674d5467354c6a63794d4341314f4334314d7a59734d5467344c6a51324d4341314f5334784f4441734d5467334c6a67774d4341314f5334314d545967517941784f444d754e6a4577494459784c6a59314d6977784e7a67754d7a5130494459334c6a497a4d7977784e7a6b754e444134494459344c6a51774f534244494445344d4334794f4445674e6a6b754d7a637a4c4445344d53347a4f5441674e6a67754f5459334c4445344e4334784e4451674e6a59754e6a633149454d674d5467314c6a49334e5341324e5334334d7a51734d5467324c6a6b794d4341324e4334304e4449734d5467334c6a67774d4341324d7934344d444d67517941784f4467754e6a67774944597a4c6a45324e5377784f446b754e446b77494459794c6a557a4e4377784f446b754e6a4177494459794c6a51774d694244494445354d6934794e5467674e546b754d6a41324c4445354f5334334e7a45674e5467754d4455334c4449774d7934354f5467674e6a41754d546b3549454d674d6a41334c6a67354e4341324d6934784e7a4d734d6a41344c6a41354d7941324e4334784d7a55734d6a41304c6a4d324d6941324d7934334f546367517941794d4449754f4441314944597a4c6a59314e5377794d4445754e5455354944597a4c6a63334e4377794d4441754e6a5932494459304c6a45304e794244494445354f5334354d6a55674e6a51754e4455324c4445354f4334314d6a63674e6a51754f444d784c4445354e7934314e546b674e6a51754f54633549454d674d546b7a4c6a55334e7941324e5334314f4467734d5467344c6a41794f5341324e7934304e5463734d5467334c6a45774d4341324f4334314d444967517941784f4451754e6a6377494463784c6a497a4d7977784f4459754e446b77494463784c6a63334e5377784f5445754e7a6b77494459354c6a67354f434244494449774d43347a4e4445674e6a59754f4459354c4449774d7934774d6a59674e6a59754d6a63794c4449774f43347a4d4441674e6a59754d6a4934494577674d6a45784c6a59774d4341324e6934794d4441674d6a45784c6a59774d4341324e4334304f545567517941794d5445754e6a41774944597a4c6a55314e7977794d5445754e44497a494459794c6a51334e7977794d5445754d6a4132494459794c6a41354e534244494449784d4334354f446b674e6a45754e7a457a4c4449784d4334304e4449674e6a41754d6a4d774c4449774f5334354f5441674e5467754f44417749454d674d6a41354c6a557a4f4341314e79347a4e7a41734d6a41344c6a6b784e6941314e5334324e6a41734d6a41344c6a59774f5341314e5334774d444167517941794d4467754d7a4178494455304c6a4d304d4377794d4463754e6a597a494455794c6a6b304e6977794d4463754d546b77494455784c6a6b774d694244494449774e6934334d5467674e5441754f4455344c4449774e6934784e6a59674e446b754f54417a4c4449774e5334354e6a55674e446b754e7a633549454d674d6a41314c6a63324e4341304f5334324e5451734d6a41314c6a59774d4341304f5334794f4441734d6a41314c6a59774d4341304f4334354e445967517941794d4455754e6a4177494451334c6a59304f4377784f546b754d7a597a494451774c6a51774d6977784f5467754d6a5130494451774c6a51774d534244494445354f4334774e446b674e4441754e4441774c4445354e7934774d5445674d7a6b754f4459774c4445354e5334354d7a67674d7a6b754d6a417749454d674d546b7a4c6a59324e43417a4e7934344d4445734d5467334c6a49794e79417a4e7934304e4445734d5467314c6a49774d43417a4f4334324d444167545445304e5334334f4451674d7a6b754e54593449454d674d5451314c6a55314e53417a4f5334344d4445734d5451304c6a51334e5341304d4334784d4459734d54517a4c6a4d344e4341304d4334794e445167517941784e4449754d6a6b7a494451774c6a4d344d6977784e4445754d444178494451774c6a63304e4377784e4441754e544530494451784c6a41304f434244494445304d4334774d6a63674e4445754d7a55794c44457a4f5334794f4451674e4445754e6a41774c44457a4f4334344e6a4d674e4445754e6a417749454d674d544d344c6a51304d6941304d5334324d4441734d544d334c6a67334e4341304d5334344e7a41734d544d334c6a59774d4341304d6934794d444167517941784d7a63754d7a4932494451794c6a557a4d4377784d7a59754f544d7a494451794c6a67774d4377784d7a59754e7a4933494451794c6a67774d4342444944457a4e53347a4e4441674e4449754f4441774c4445794f4334314f5441674e4467754f5467794c4445794e7934344f444d674e5441754f54417749454d674d5449334c6a63304d5341314d5334794f4455734d5449334c6a51324d7941314d5334324d4441734d5449334c6a49324e6941314d5334324d444167517941784d6a59754f545578494455784c6a59774d4377784d6a55754e4449344944557a4c6a597a4d6977784d6a51754d6a4132494455314c6a59344d534244494445794d7934354f444d674e5459754d4455324c4445794d7934774d7a55674e5463754e6a45334c4445794d6934784d4441674e546b754d54557849454d674d5449784c6a45324e5341324d4334324f4455734d5449774c6a51774d4341324d6934784d5445734d5449774c6a51774d4341324d69347a4d6a4567517941784d6a41754e444177494459794c6a557a4d5377784d6a41754d544d77494459794c6a6b794e6977784d546b754f4441774944597a4c6a49774d434244494445784f5334304e7a41674e6a4d754e4463304c4445784f5334794d4441674e6a51754d4445304c4445784f5334794d4441674e6a51754e44417749454d674d5445354c6a49774d4341324e4334334f4459734d5445344c6a6b7a4d4341324e53347a4d6a59734d5445344c6a59774d4341324e5334324d444167517941784d5467754d6a6377494459314c6a67334e4377784d5467754d444177494459324c6a59334d4377784d5467754d444177494459334c6a4d324f534244494445784f4334774d4441674e6a67754d4459344c4445784e7934344d4445674e6a67754f444d354c4445784e7934314e5463674e6a6b754d44677a49454d674d5445334c6a4d784d7941324f53347a4d6a63734d5445334c6a41784f5341334d4334334d5445734d5445324c6a6b774d6941334d6934784e546b67517941784d5459754e7a67794944637a4c6a59314f4377784d5459754e445532494463304c6a6b344f4377784d5459754d545132494463314c6a49304e534244494445784e5334334f5449674e7a55754e544d344c4445784e5334324d4441674e7a59754e5463784c4445784e5334324d4441674e7a67754d54637a49454d674d5445314c6a59774d4341334f5334334d6a6b734d5445314c6a4d344d6941344d4334354d7a55734d5445314c6a41784d7941344d5334304d6a5167517941784d5451754e6a6b77494467784c6a67314d5377784d5451754e444977494467794c6a63314f4377784d5451754e44457a4944677a4c6a51304d434244494445784e4334304d4459674f4451754d5449794c4445784e4334794d4455674f4455754d6a51774c4445784d7934354e6a59674f4455754f54493149454d674d54457a4c6a51324e7941344e79347a4e5463734d5445304c6a4d344d7941344f53347a4f444d734d5445314c6a41314d7941344f43347a4d6a6b67517941784d5455754e6a4132494467334c6a51314f5377784d5463754e6a5179494463354c6a67324f4377784d5467754f5455784944637a4c6a67774d434244494445794d5334314d5449674e6a45754f5445324c4445794e7934334e5463674e5445754f5459774c44457a4e5334354f446b674e4459754e6a4d3049454d674d544d334c6a51344d7941304e5334324e6a67734d544d344c6a67794e7941304e4334324f4441734d544d344c6a6b334e6941304e4334304d7a6b67517941784d7a6b754d544931494451304c6a45354e7977784d7a6b754e5455794944517a4c6a6b354f5377784d7a6b754f5449304944517a4c6a6b354f434244494445304d4334794f5459674e444d754f546b324c4445304d5334774e5441674e444d754e7a59784c4445304d5334324d4441674e444d754e44633249454d674d5451314c6a41354f5341304d5334324e5467734d5451354c6a59794f4341304d5334324d4441734d54557a4c6a497a4f5341304d79347a4d6a6b67517941784e5451754e4463774944517a4c6a6b784f4377784e5455754e6a5530494451304c6a51774d4377784e5455754f446377494451304c6a51774d434244494445314e6934344d5445674e4451754e4441774c4445324d4334774e5449674e4459754f546b314c4445324d5334314d4451674e4467754f54457949454d674d5459794c6a4d334e5341314d4334774e6a41734d5459304c6a4d334d5341314d6934794e6a41734d5459314c6a6b304d5341314d7934344d444167517941784e6a63754e544578494455314c6a4d304d4377784e6a6b754d446379494455334c6a45304d4377784e6a6b754e444135494455334c6a67774d434244494445324f5334334e4459674e5467754e4459774c4445334d4334794d6a59674e546b754d6a6b784c4445334d4334304e7a55674e546b754e6a513249454d674d5463784c6a63774d6941324d53347a4f5459734d5463774c6a45794e6941324d5334354e5455734d5459334c6a41774d4341324d4334344e7a6767517941784e5463754d446b35494455334c6a51324f4377784d7a6b754d444134494459794c6a41324d5377784d7a63754e7a5977494459344c6a4d774d5342444944457a4e79347a4e5459674e7a41754d7a45354c44457a4f4334344d6a63674e7a41754f4445774c4445304d4334324d444d674e6a6b754d6a557849454d674d54517a4c6a67794d7941324e6934304d6a51734d5451334c6a41324e5341324e5334784d7a45734d54557a4c6a49344d4341324e4334784f545567517941784e5455754d546b304944597a4c6a6b774e7977784e5459754f5451794944597a4c6a55314f5377784e5463754d5459304944597a4c6a51794d694244494445314f4334794d446b674e6a49754e7a63334c4445324d6934794e7a59674e6a49754e7a4d334c4445324d7934334e6a4d674e6a4d754d7a553549454d674d5459304c6a59774e7941324d7934334d5445734d5459324c6a41784d5341324e4334774d4441734d5459324c6a67344d6941324e4334774d444167517941784e6a63754e7a5530494459304c6a41774d4377784e6a6b754f544535494459304c6a4d334d5377784e7a45754e6a6b31494459304c6a67794e434244494445334e7934774e7a4d674e6a59754d546b334c4445334e7934774e5463674e6a55754e5463344c4445334d5334304e7a41674e5459754d6a417749454d674d5463774c6a45314f5341314e4334774d4441734d5459344c6a55334d6941314d5334314e4451734d5459334c6a6b304d7941314d4334334e444967517941784e6a63754d7a4530494451354c6a6b304d5377784e6a59754f444177494451354c6a45784d6977784e6a59754f444177494451344c6a6b774d434244494445324e6934344d4441674e4467754d7a677a4c4445324e43347a4e7a55674e4459754e4441774c4445324d7934334e444d674e4459754e44417749454d674d54597a4c6a51324e6941304e6934304d4441734d54597a4c6a41354e6941304e6934784e7a41734d5459794c6a6b794d4341304e5334344f446b67517941784e6a49754d7a677a494451314c6a417a4d6977784e546b754d7a497a494451794c6a67774d4377784e5467754e6a6731494451794c6a67774d434244494445314f43347a4e5455674e4449754f4441774c4445314e7934354f4449674e4449754e544d774c4445314e7934344e5455674e4449754d6a417749454d674d5455334c6a63794f5341304d5334344e7a41734d5455334c6a4d7a4d6941304d5334324d4441734d5455324c6a6b334e4341304d5334324d444167517941784e5459754e6a4532494451784c6a59774d4377784e5455754f445132494451784c6a4d314d4377784e5455754d6a5979494451784c6a41304e434244494445314d7934774e5467674d7a6b754f446b784c4445304e6934304e7a51674d7a67754f4459314c4445304e5334334f4451674d7a6b754e545934494530794d5445754e6a4177494459334c6a45794e434244494449784d5334324d4441674e6a63754f5445314c4449784e6934324f5459674e7a49754e4441774c4449784e7934314f5451674e7a49754e44417749454d674d6a45344c6a55314d6941334d6934304d4441734d6a45334c6a67314e4341334d4334354e6a49734d6a45314c6a6b794d7941324f4334354e546367517941794d5451754d444135494459324c6a6b334d4377794d5445754e6a4177494459314c6a6b304f4377794d5445754e6a4177494459334c6a45794e43424e4d5463794c6a59794e6941324f4334794d7a4567517941784e7a49754d6a5932494459344c6a55354d5377784e7a49754d544931494459354c6a41344d7977784e7a49754d6a6b34494459354c6a4d334e694244494445334d6934324f544d674e7a41754d4451344c4445334e69347a4e6a41674e7a4d754d6a41774c4445334e6934334e4463674e7a4d754d6a417749454d674d5463324c6a6b784d5341334d7934794d4441734d5463334c6a6b784e4341334e43347a4f4449734d5463344c6a6b334e5341334e5334344d6a6767517941784f4445754d7a5978494463354c6a41334e7977784f4445754d446b35494463354c6a63314e4377784e7a63754f544178494463344c6a59774d694244494445334d69347a4e5467674e7a59754e6a41314c4445314f43347a4e6a63674e7a63754f4463784c4445314d4334354d5459674f4445754d44517a49454d674d5451334c6a63774d6941344d6934304d5449734d5451324c6a6b794f4341344d6934334d4459734d5451304c6a59344f5341344d7934304d544167517941784e444d754d4451304944677a4c6a6b794f4377784e4449754d6a5530494467304c6a41784e4377784e4445754f5451354944677a4c6a63774f534244494445304d5334324e444d674f444d754e44417a4c4445304d5334334f5441674f444d754d546b304c4445304d6934304e6a41674f4449754f54677949454d674d5451794c6a6b334e7941344d6934344d546b734d54517a4c6a6b304d4341344d6934794e7a59734d5451304c6a59774d4341344d5334334e7a6367517941784e4459754d6a4533494467774c6a55314d7977784e5451754d6a597a494463324c6a51774d4377784e5455754d444532494463324c6a51774d434244494445314e53347a4e4463674e7a59754e4441774c4445314e6934344d5449674e7a55754f4455354c4445314f4334794e7a45674e7a55754d546b3349454d674d5459794c6a41354f4341334d7934304e6a45734d5459314c6a63354e7941334d6934304d4441734d5459344c6a41784e6941334d6934304d444167517941784e7a45754e445931494463794c6a51774d4377784e7a4d754e445578494463774c6a6b334e5377784e7a45754e7a5931494459354c6a63784d434244494445334d4334324f5467674e6a67754f5441354c4445324e43347a4d7a45674e6a6b754e4449324c4445314f4334784d6a55674e7a41754f44453349454d674d5455324c6a41774d4341334d5334794f544d734d5451354c6a67344f5341334e4334304d7a6b734d54517a4c6a51774d4341334f43347a4f546767517941784d7a51754d7a41794944677a4c6a6b304f4377784d7a51754d7a41334944677a4c6a6b304e4377784d7a51754d545130494467324c6a59774d4342444944457a4e4334784d444d674f4463754d6a59774c44457a4d7934354e5445674f4467754d6a557a4c44457a4d7934344d4459674f4467754f44413249454d674d544d7a4c6a55774e7941344f5334354e5441734d544d324c6a45334d6941354d5334324d4441734d544d344c6a4d784f5341354d5334324d444167517941784d7a67754f54497949446b784c6a59774d4377784e4441754e6a637949446b784c6a6b7a4d5377784e4449754d6a413449446b794c6a4d7a4e694244494445324d6934354e5441674f5463754f4441304c4445334e6934354d6a51674f5455754e5463324c4445344d5334304d6a6b674f4459754d44677949454d674d5467784c6a67784d5341344e5334794e7a67734d5467794c6a4d334f4341344e43347a4e6a51734d5467794c6a59354d4341344e4334774e544967517941784f444d754d444d314944677a4c6a63774f4377784f444d754d54597a4944677a4c6a45774f4377784f444d754d444533494467794c6a55794e794244494445344d6934344e7a51674f4445754f5455324c4445344d7934774d6a51674f4445754d6a45314c4445344d79347a4f4467674f4441754e6a6b3149454d674d5467314c6a67354d7941334e7934784d6a41734d5463314c6a59794e7941324e5334794d7a41734d5463794c6a59794e6941324f4334794d7a4567545449774e6934794d4441674e7a4d754f54553149454d674d6a41304c6a6b324e6941334e4334304f4463734d6a41784c6a63784d6941334e5334784f546b734d6a41774c6a51354e4341334e5334794d445567517941784f546b754d545132494463314c6a49784d6977784f5455754d7a6378494463324c6a4d354d4377784f5449754d6a6735494463334c6a63324e794244494445354d5334774d5463674e7a67754d7a4d314c4445344f5334334e4467674e7a67754f4441774c4445344f5334304e6a63674e7a67754f44417749454d674d5467354c6a45344e7941334f4334344d4441734d5467344c6a49774d6941334f53347a4e5459734d5467334c6a49334f5341344d4334774d7a5567517941784f4445754d7a6330494467304c6a4d334e7977784f5449754d54553549446b784c6a55344d4377794d4449754d6a4177494467354c6a6b354f534244494449774e7934324d4441674f446b754d5451354c4449784d69347a4d7a67674f4459754e7a67334c4449784e4334784f4463674f4451754d44493049454d674d6a45314c6a55314d4341344d5334354f4467734d6a45334c6a6b334d5341344d6934344f5449734d6a49784c6a49304d7941344e6934324e6a4167517941794d6a45754e546b32494467334c6a41324e7977794d6a49754d6a4932494467334c6a59344d6977794d6a49754e6a517a494467344c6a41794f434244494449794d7934314e7a41674f4467754e7a6b324c4449794e7934324e7a45674f544d754e4455354c4449794f4334784e4441674f5451754d6a633549454d674d6a49344c6a517a4d4341354e4334334f4455734d6a49344c6a67314d7941354f4334314d546b734d6a49354c6a49354d6941784d4451754e44553449454d674d6a49354c6a4d314d5341784d4455754d6a59774c4449794f5334334d5455674d5441324c6a49324e4377794d7a41754d544177494445774e6934324f544167517941794d7a4d754d7a6b32494445784d43347a4d7a45734d6a49344c6a4d314d6941784d6a41754e7a51324c4449794d5334334d6a67674d54497a4c6a6b334e694244494449784e7934304d6a55674d5449324c6a41334e4377794d4449754e7a4579494445794f4334784f4449734d6a41774c6a63324e6941784d6a59754f54633549454d674d6a41774c6a59784d6941784d6a59754f4467304c4445354f5334334d6a4d674d5449334c6a41334e4377784f5467754e7a6b79494445794e7934304d444d67517941784f5463754f445978494445794e7934334d7a45734d546b324c6a4d784e7941784d6a67754d4441774c4445354e53347a4e6a49674d5449344c6a41774d434244494445354e4334304d4459674d5449344c6a41774d4377784f5445754e6a6730494445794f4334794f5441734d5467354c6a4d784d6941784d6a67754e6a513049454d674d5467304c6a59774e4341784d6a6b754d7a51324c4445334e5334794e5467674d5449354c6a49304f4377784e7a45754d6a4177494445794f4334304e544967517941784e6a6b754f546b77494445794f4334794d5455734d5459334c6a4d344d4341784d6a63754e7a51784c4445324e5334304d4441674d5449334c6a4d354f534244494445324d53347a4d7a51674d5449324c6a59354e6977784e5459754f54637a494445794e5334304f5467734d5455304c6a59774d4341784d6a51754e444d7a49454d674d54557a4c6a63794d4341784d6a51754d444d334c4445314d6934304d6a49674d54497a4c6a51344f5377784e5445754e7a4531494445794d7934794d545567517941784e5441754d446778494445794d6934314f4441734d5451324c6a67774d4341784d546b754d446b344c4445304e6934344d4441674d5445334c6a6b354f534244494445304e6934344d4441674d5445314c6a4d794d6977784e544d754d544d32494445784e4334784e5455734d5455324c6a4d794e4341784d5459754d6a513149454d674d5455324c6a67334f5341784d5459754e6a41344c4445314f4334784e5467674d5445324c6a6b304f5377784e546b754d545932494445784e7934774d445167517941784e6a41754d546331494445784e7934774e5467734d5459784c6a51774e5341784d5463754d5449304c4445324d5334354d4441674d5445334c6a45314d534244494445324e4334774e5455674d5445334c6a49324f4377784e6a49754e544d32494445784e7934354e7a59734d5455354c6a6b774d4341784d5467754d446779494577674d5455334c6a41774d4341784d5467754d6a4177494445314e7934774d4441674d5445354c6a55354f43424d494445314e7934774d4441674d5449774c6a6b354e5341784e546b754e444177494445794d5334794f545167517941784e6a41754e7a4977494445794d5334304e5467734d54597a4c6a49304d4341784d6a45754f4455324c4445324e5334774d4441674d5449794c6a45334f534244494445334e5334344e7a49674d5449304c6a45334d6977784f5467754f446732494445794e5334794e7a55734d6a41794c6a49334e4341784d6a4d754f54593149454d674d6a417a4c6a4d784f5341784d6a4d754e5459784c4449774e6934784e7a6b674d5449794c6a67314e5377794d5441754d7a4532494445794d5334354f444567517941794d5467754f446b78494445794d4334784e6a6b734d6a49334c6a6b354d4341784d5455754e7a63344c4449794f4334774d4449674d54457a4c6a51304e694244494449794f4334774d4451674d54457a4c6a49774d5377794d6a67754d6a5533494445784d6934314d5467734d6a49344c6a55324e4341784d5445754f54493449454d674d6a49354c6a63784e5341784d446b754e7a49794c4449794e7934344d6a41674d5441354c6a67314d5377794d6a51754f546377494445784d6934784e7a4967517941794d6a49754f445530494445784d7934344f5459734d6a45344c6a63794d7941784d5459754d54417a4c4449784e6934324d6a67674d5445324c6a59794f534244494449784e6934774e546b674d5445324c6a63334d6977794d5455754e446b30494445784e7934774e446b734d6a45314c6a4d334d7941784d5463754d6a513049454d674d6a45314c6a49314d6941784d5463754e4451774c4449784e4334334e7a63674d5445334c6a59774d4377794d5451754d7a4534494445784e7934324d444167517941794d544d754f445535494445784e7934324d4441734d6a45784c6a6b7a4e5341784d5463754f54557a4c4449784d4334774e4449674d5445344c6a4d344d794244494449774d6934314d6a41674d5449774c6a41354e6977784f5467754d44417a494445794d4334304e6a59734d54677a4c6a67774d4341784d6a41754e544d3249454d674d5463314c6a67344e5341784d6a41754e5463324c4445324e4334344e7a49674d5445354c6a517a4d6977784e6a4d754f544577494445784f4334304e7a4167517941784e6a4d754d7a4131494445784e7934344e6a55734d54597a4c6a41304d4341784d5463754f4463314c4445334e6934794d4441674d5445334c6a6b334f534244494445344d69347a4e4455674d5445344c6a41794f4377784f4463754e7a6332494445784e7934344f5445734d5467344c6a67774d4341784d5463754e6a597949454d674d5467354c6a63354d4341784d5463754e4451774c4445354d6934794d6a41674d5445334c6a41314e4377784f5451754d6a4177494445784e6934344d445167517941784f5467754e54517a494445784e6934794e5455734d6a41784c6a51774d6941784d5455754e7a51304c4449774e4334324d4441674d5445304c6a6b304e534244494449774f43347a4d4455674d5445304c6a41784f5377794d5449754f544530494445784d6934334d7a63734d6a457a4c6a67774d4341784d5449754d7a673349454d674d6a45304c6a49304d4341784d5449754d6a45794c4449784e5334324f4441674d5445784c6a59324e7977794d5463754d444177494445784d5334784e7a5567517941794d5467754d7a4977494445784d4334324f444d734d6a49774c6a45324d7941784d446b754f5451334c4449794d5334774f5459674d5441354c6a55304d434244494449794d6934774d6a67674d5441354c6a457a4d7977794d6a49754f544532494445774f4334344d4441734d6a497a4c6a41324f4341784d4467754f44417749454d674d6a497a4c6a63774e7941784d4467754f4441774c4449794f43347a4f4463674d5441314c6a63324d6977794d6a67754d7a6b7a494445774e53347a4e444d67517941794d6a67754e444131494445774e4334314e6a6b734d6a49334c6a4d794d7941784d4451754e4445354c4449794e5334334d6a55674d5441304c6a6b334e434244494449794e4334344f4459674d5441314c6a49324e5377794d6a4d754e446777494445774e5334334d6a49734d6a49794c6a59774d4341784d4455754f54673549454d674d6a49784c6a63794d4341784d4459754d6a55334c4449784f5334344f5463674d5441324c6a6b774e5377794d5467754e545134494445774e7934304d7a4567517941794d5463754d6a4177494445774e7934354e5463734d6a45314c6a41304d4341784d4467754e6a55794c4449784d7934334e4467674d5441344c6a6b334e694244494449784d6934304e5463674d5441354c6a4d774d4377794d4467754f446777494445784d4334794d6a67734d6a41314c6a67774d4341784d5445754d444d3349454d674d546b354c6a637a4f4341784d5449754e6a49354c4445354e53347a4f4459674d54457a4c6a4d7a4e7977784f4463754e6a4177494445784d7934354f545967517941784f4451754f445577494445784e4334794d6a6b734d5467784c6a55794d4341784d5451754e546b304c4445344d4334794d4441674d5445304c6a67774e794244494445334e4334334e5451674d5445314c6a59344e5377784e6a4d754d545130494445784e4334324d7a45734d5455334c6a49344e6941784d5449754e7a493149454d674d5455774c6a49324e7941784d5441754e4451784c4445304e5334774e7a6b674d5445784c6a55354d5377784e444d754f546777494445784e5334324e7a5567517941784e4445754d444d34494445794e6934314f546b734d5459324c6a67784e7941784d7a51754e7a49334c4445354e4334304d4441674d544d784c6a55334d694244494445354e6934774e5441674d544d784c6a4d344d7977794d4445754d7a59774944457a4d4334354e5441734d6a41324c6a49774d4341784d7a41754e6a457749454d674d6a45354c6a63334d4341784d6a6b754e6a55314c4449794e7934354e444d674d5449324c6a55324e5377794d6a6b754f546b30494445794d5334324d545167517941794d7a41754e545134494445794d4334794e7a63734d6a4d784c6a6b354d4341784d546b754f5445774c44497a4d6934774d5451674d5449784c6a45774d4342444944497a4d6934774e5441674d5449794c6a67324f5377794d7a4d754f446b33494445794e5334344e7a6b734d6a4d304c6a49774f4341784d6a51754e6a633249454d674d6a4d304c6a63774d4341784d6a49754e7a63314c44497a4e4334784f4441674d5449774c6a45784d6977794d7a4d754d444979494445784f4334314f544d67517941794d7a49754d446330494445784e79347a4e5445734d6a4d784c6a6b354e4341784d5463754d4449314c44497a4d69347a4e6a41674d5445314c6a67354d4342444944497a4d6934314f446b674d5445314c6a45344d5377794d7a49754f444532494445784d6934304e6a4d734d6a4d794c6a67324e5341784d446b754f44557849454d674d6a4d794c6a6b314f4341784d4451754f544d304c44497a4d6934344d5467674d5441304c6a51334e7977794d7a45754d44517a494445774d7934344f444167517941794d7a41754e7a4931494445774d7934334e7a4d734d6a4d774c6a63304d5341784d444d754d7a4d324c44497a4d5334784d4441674d5441794c6a4d7a4e7942444944497a4d5334354d7a49674d5441774c6a41784e6977794d7a45754d54673049446b304c6a51304e5377794d6a6b754f44497749446b794c6a67774d434244494449794f5334314e4459674f5449754e4463774c4449794f5334794d5441674f5445754f4467314c4449794f5334774e7a4d674f5445754e54417749454d674d6a49344c6a6b7a4e7941354d5334784d5455734d6a49344c6a59314e4341354d4334344d4441734d6a49344c6a51304e5341354d4334344d444167517941794d6a67754d6a4d3249446b774c6a67774d4377794d6a63754e6a633249446b774c6a45334d4377794d6a63754d6a4177494467354c6a51774d434244494449794e6934334d6a51674f4467754e6a4d774c4449794e6934774f4449674f4467754d4441774c4449794e5334334e7a4d674f4467754d44417749454d674d6a49314c6a51324e4341344f4334774d4441734d6a49304c6a41314e4341344e6934344e7a55734d6a49794c6a59304d4341344e5334314d444167517941794d6a45754d6a4933494467304c6a45794e5377794d546b754e444930494467794c6a51314f5377794d5467754e6a4d30494467784c6a63354e79424d494449784e7934784f5467674f4441754e546b31494449784e7934354f546b674e7a67754e44417a49454d674d6a45354c6a45784e7941334e53347a4e4455734d6a45354c6a41324e5341334e4334354d4441734d6a45334c6a59784e5341334e5334784d544d67517941794d5459754f445931494463314c6a49794d7977794d5459754d546b7a494463314c6a41314d4377794d5455754e7a6732494463304c6a59304d794244494449784e53347a4e444d674e7a51754d6a41774c4449784e4334304d6a45674e7a51754d4441774c4449784d6934344d6a63674e7a51754d44417749454d674d6a45784c6a55314e4341334e4334774d4441734d6a41354c6a63794d6941334d7934354d5449734d6a41344c6a63314e6941334d7934344d445567517941794d4463754e7a6b774944637a4c6a59354f4377794d4459754e6a51774944637a4c6a63324e6977794d4459754d6a41774944637a4c6a6b314e53424e4d6a45314c6a6b304e7941334e69347a4e445967517941794d5463754d7a5530494463334c6a51794f4377794d5451754e7a6379494467794c6a49304e7977794d5449754d7a63344944677a4c6a41774e794244494449784d5334354d446b674f444d754d5455324c4449784d4334334e7a63674f444d754e7a59334c4449774f5334344e6a49674f4451754d7a593149454d674d6a417a4c6a55784f4341344f4334314d5459734d546b304c6a49324d7941344f4334304e444d734d5467354c6a59354e4341344e4334794d446367517941784f4463754e6a4977494467794c6a49344d7977784f5441754d7a5530494467774c6a55304f4377784f544d754d546731494467784c6a6b354d694244494445354e7934334d6a59674f4451754d7a41354c4449774d6934314d5455674f4449754e7a55344c4449774e6934794e5445674e7a63754e7a597949454d674d6a41334c6a59334e5341334e5334344e5463734d6a45304c6a41354d6941334e4334354d546b734d6a45314c6a6b304e7941334e69347a4e445967545445334e6934314f4441674f4445754e546b7849454d674d5467794c6a55354f4341344e43347a4d7a49734d54637a4c6a67304e7941354d6934774d6a59734d5459304c6a41774d4341354d6934324e544567517941784e546b754d7a513149446b794c6a6b304e6977784e5445754e444d7849446b794c6a417a4f5377784e4467754d6a417749446b774c6a67304d534244494445304e7934314e4441674f5441754e546b324c4445304e6934794e7a51674f5441754d6a49774c4445304e53347a4f4467674f5441754d44413249454d674d5451784c6a63304e7941344f5334784d6a59734d5451784c6a59314d6941344e7934354d7a49734d5451314c6a41354e4341344e69347a4d545167544341784e4459754f444d7a494467314c6a51354e7941784e446b754e7a4532494467324c6a67304f434244494445314e6934314d544d674f5441754d444d304c4445324d69347a4e6a59674f4467754e6a41784c4445324e6934354d7a6b674f4449754e6a4d7949454d674d5459344c6a67794d6941344d4334784e7a4d734d5463794c6a55334f4341334f5334334e6a67734d5463324c6a55344d4341344d5334314f544567545445784d6934354d4441674f544d754d54513049454d674d5445794c6a51774e5341354d7934344d5463734d5445794c6a41774d4341354e4334344d6a45734d5445794c6a41774d4341354e53347a4e7a5967517941784d5449754d44417749446b314c6a6b7a4d4377784d5445754e7a557749446b334c6a41324d6977784d5445754e44513149446b334c6a67354d694244494445784d4334354d6a55674f546b754d7a41334c4445784d4334324d6a49674d5441774c6a6b324d4377784d446b754e546331494445774f4334784d444167517941784d446b754d7a5178494445774f5334324f5455734d5441344c6a6b314d6941784d5445754e6a4d774c4445774f4334334d446b674d5445794c6a51774d434244494445774f4334304e6a63674d54457a4c6a45334d4377784d4467754d544535494445784e6934794d7a41734d5441334c6a6b7a4e7941784d546b754d6a417749454d674d5441334c6a63314e4341784d6a49754d5463774c4445774e7934304d7a6b674d5449324c6a49794d4377784d4463754d6a4d33494445794f4334794d444167517941784d4463754d444d314944457a4d4334784f4441734d5441324c6a67314e4341784d7a4d754e44497a4c4445774e6934344d7a55674d544d314c6a51774e69424d494445774e6934344d4441674d544d354c6a41784d5341784d4451754e7a41774944457a4f5334354e445167517941784d444d754e545131494445304d4334304e5463734d5441794c6a49354d7941784e4445754d444d334c4445774d5334354d5463674d5451784c6a497a4d534244494445774d5334314e4449674d5451784c6a51794e6977784d4441754e544577494445304d5334334d4445734f546b754e6a4931494445304d5334344e444967517941354f4334334e4441674d5451784c6a6b344e4377354e7934344d5441674d5451794c6a4d304e7977354e7934314e546b674d5451794c6a59314d43424449446b334c6a4d774e7941784e4449754f5455794c446b324c6a59344e4341784e444d754d6a41774c446b324c6a45334d6941784e444d754d6a417749454d674f5455754e6a5978494445304d7934794d4441734f5451754d544d30494445304d7934344e7a55734f5449754e7a6335494445304e4334334d444167517941354d5334304d6a51674d5451314c6a55794e5377344f5334344e5455674d5451324c6a51304f5377344f5334794f5449674d5451324c6a63314d794244494467344c6a63794f5341784e4463754d4455334c4467334c6a63344d4341784e4463754f4441334c4467334c6a45344d7941784e4467754e44453449454d674f4459754e546731494445304f5334774d6a6b734f4455754d7a4d33494445314d4334774d4467734f4451754e444577494445314d4334314f544d67517941344d7934304f444d674d5455784c6a45334f5377344d5334304d7a63674d5455794c6a6b794e5377334f5334344e6a49674d5455304c6a51334e434244494463344c6a49344f4341784e5459754d4449794c4463324c6a41784d4341784e5467754d44457a4c4463304c6a67774d4341784e5467754f446b3349454d674e7a49754d44417a494445324d4334354e4441734e6a55754e546733494445324e7934784f5441734e6a4d754e6a4132494445324f5334344d444167517941324d4334784e6a55674d5463304c6a4d7a4e6977314f4334774d4441674d5463314c6a6b354e6977314e5334314d6a51674d5463314c6a6b354f534244494455304c6a63784d6941784e7a55754f546b354c44557a4c6a6b304e6941784e7a59754d5459304c44557a4c6a67794d6941784e7a59754d7a593149454d674e544d754e6a6b33494445334e6934314e6a59734e5449754f446334494445334e6934344e5449734e5449754d444177494445334e7934774d444167517941314d5334784d6a49674d5463334c6a45304f4377314d43347a4d5459674d5463334c6a51784d7977314d4334794d4463674d5463334c6a55344f434244494455774c6a41354f5341784e7a63754e7a597a4c4451344c6a6b334f4341784e7a67754d444d324c4451334c6a63784e6941784e7a67754d546b7a49454d674e4459754e445530494445334f43347a4e5445734e4455754d445978494445334f4334334d7a49734e4451754e6a4979494445334f5334774e444167517941304e4334784f4449674d5463354c6a4d304f4377304d7934304e5463674d5463354c6a59774e6977304d7934774d5445674d5463354c6a59784d794244494451794c6a55324e5341784e7a6b754e6a49774c4451784c6a67314d5341784e7a6b754f446b774c4451784c6a51794e4341784f4441754d6a457a49454d674e4441754f546b32494445344d4334314d7a59734e4441754d544979494445344d4334344d4441734d7a6b754e446777494445344d4334344d4441675179417a4f4334344d7a63674d5467774c6a67774d43777a4e7934794d4463674d5467784c6a4d314e69777a4e5334344e5459674d5467794c6a417a4e69424449444d7a4c6a49304e5341784f444d754d7a55774c444d784c6a6b324e7941784f444d754f544d344c4449354c6a51774d4341784f4455754d44413349454d674d6a67754e544977494445344e53347a4e7a4d734d6a63754d445977494445344e6934774d5463734d6a59754d545532494445344e6934304d7a6367517941794e5334794e5449674d5467324c6a67314e6977794e4334794d7a6b674d5467334c6a49774d4377794d7934354d4455674d5467334c6a49774d4342444944497a4c6a55334d5341784f4463754d6a41774c44497a4c6a41334e4341784f4463754e4463774c4449794c6a67774d4341784f4463754f44417749454d674d6a49754e544932494445344f4334784d7a41734d6a49754d445535494445344f4334304d4441734d6a45754e7a597a494445344f4334304d444167517941794d5334304e6a59674d5467344c6a51774d4377784f5334344e544d674d5467354c6a49784d4377784f4334784e7a67674d546b774c6a49774d434244494445324c6a55774e4341784f5445754d546b774c4445314c6a41324d5341784f5449754d4441774c4445304c6a6b334d5341784f5449754d44417749454d674d5451754e7a6378494445354d6934774d4441734d5441754f545177494445354e4334324e6a59734f53347a4e5463674d546b314c6a6b774e694244494467754e7a4978494445354e6934304d4455734e7934324e444d674d546b334c6a49784e5377324c6a6b324d7941784f5463754e7a413249454d674e4334344f5441674d546b354c6a49774d7977794c6a67774d4341794d4445754d5455794c4449754f444177494449774d5334314f446767517941794c6a67774d4341794d4445754f4445314c4449754e546331494449774d6934774d4459734d69347a4d4441674d6a41794c6a41784d794244494445754d7a4931494449774d6934774d7a6b734d4334774d4441674d6a417a4c6a55794f4377744d4334774d4441674d6a41304c6a55354f43424d494330774c6a41774d4341794d4455754e6a5933494445754e7a4177494449774e43347a4d7a6367517941794c6a597a4e5341794d444d754e6a41314c444d754e445977494449774d6934344e7a41734d7934314d7a4d674d6a41794c6a63774d79424449444d754e6a4133494449774d6934314d7a59734d7934344e4459674d6a41794c6a51774d4377304c6a41324e6941794d4449754e44417749454d674e4334794f4459674d6a41794c6a51774d4377314c6a49784e6941794d4445754e7a6b774c4459754d544d7a494449774d5334774e445567517941334c6a41314d4341794d4441754d7a41774c4467754e444d77494445354f53347a4e5455734f5334794d4441674d546b344c6a6b304e53424449446b754f546377494445354f4334314d7a55734d5445754d6a4d78494445354e7934334d5463734d5449754d444179494445354e7934784d6a6367517941784d6934334e7a4d674d546b324c6a557a4f4377784d7934344e544d674d546b314c6a67324e7977784e4334304d4449674d546b314c6a597a4e794244494445304c6a6b314d5341784f5455754e4441344c4445324c6a6b7a4d4341784f5451754d6a4d794c4445344c6a67774d4341784f544d754d44493049454d674d6a49754e444134494445354d4334324f5451734d7a49754d445130494445344e5334324d446b734d7a49754f446b30494445344e5334314f4459675179417a4d7934784e7a49674d5467314c6a55334f53777a4e4334784d6a41674d5467314c6a49794e53777a4e5334774d4441674d5467304c6a67774d43424449444d314c6a67344d4341784f4451754d7a63314c444d324c6a67344d5341784f4451754d4449784c444d334c6a49794e5341784f4451754d44453049454d674d7a63754e545935494445344e4334774d4459734d7a67754e7a677a494445344d7934314e5441734d7a6b754f54497a494445344d7934774d444167517941304d5334774e6a4d674d5467794c6a51314d4377304d6934784f5455674d5467794c6a41774d4377304d6934304d7a6b674d5467794c6a41774d434244494451794c6a59344d7941784f4449754d4441774c4451304c6a517a4f5341784f4445754e4467784c4451324c6a4d304d5341784f4441754f44513349454d674e5445754d6a5133494445334f5334794d5449734e5459754d544d32494445334f4334774d4441734e5463754f444934494445334f4334774d444167517941314f5334304e7a51674d5463344c6a41774d4377324d5334314f5467674d5463324c6a59354d6977324d5334324d4455674d5463314c6a59334d794244494459784c6a59784d4341784e7a51754f546b774c4459304c6a49314e4341784e7a49754d6a41334c44637a4c6a51334d7941784e6a4d754d54677849454d674e7a6b754e6a6730494445314e7934784d4445734f4459754d7a6332494445314d5334354d6a4d734f446b754f445533494445314d4334314d444d67517941354d4334794e6a59674d5455774c6a4d7a4e6977354d5334304d5441674d5451354c6a59334d4377354d6934304d4441674d5451354c6a41794d69424449446b344c6a417a4e6941784e4455754d7a4d314c446b354c6a55304d6941784e4451754d7a6b354c446b354c6a67314e4341784e4451754d7a673349454d674d5441774c6a41304e4341784e4451754d7a67784c4445774d5334784d4441674d54517a4c6a6b7a4d6977784d4449754d6a4177494445304d79347a4f544567517941784d4455754d6a4d77494445304d5334354d4445734d5441324c6a67774d4341784e4449754d6a41304c4445774e6934344d4441674d5451304c6a49344d434244494445774e6934344d4441674d5451314c6a49304d4377784d4463754d446331494445304e53347a4f5455734d5441334c6a67334e6941784e4451754f44673149454d674d5441344c6a55354d6941784e4451754e444d774c4445774f4334344e4451674d5451794c6a63794d6977784d446b754d444d344944457a4e7934774d444167517941784d446b754d544d314944457a4e4334784e4441734d5441354c6a51344d5341784d7a41754e546b304c4445774f5334344d4463674d5449354c6a45794d534244494445784d4334784d7a4d674d5449334c6a59304f4377784d5441754e444177494445794e5334774f5451734d5445774c6a51774d4341784d6a4d754e44513349454d674d5445774c6a51774d4341784d6a45754f4441774c4445784d4334314f4463674d5445354c6a6b324d5377784d5441754f444531494445784f53347a4e6a4567517941784d5445754d44517a494445784f4334334e6a45734d5445784c6a4d784e4341784d5459754d7a6b314c4445784d5334304d5467674d5445304c6a45774e434244494445784d5334314d6a45674d5445784c6a67784d7977784d5445754f445534494445774f4334324e4467734d5445794c6a45324e7941784d4463754d44593549454d674d5445794c6a51334e5341784d4455754e446b784c4445784d6934344d7a67674d5441794c6a67334d5377784d5449754f546379494445774d5334794e445967517941784d544d754d54413249446b354c6a59794d6977784d544d754e44413149446b334c6a55304d4377784d544d754e6a4d3249446b324c6a59794d534244494445784d7934344e6a67674f5455754e7a41794c4445784d7934354f546b674f5451754d6a59344c4445784d7934354d6a6b674f544d754e444d31494577674d54457a4c6a67774d4341354d5334354d6a41674d5445794c6a6b774d4341354d7934784e445167545445794e43347a4d4467674d54417a4c6a41334e434244494445794d7934344f546b674d54417a4c6a45344d5377784d6a4d754e444d77494445774d7934354e4449734d54497a4c6a45324d7941784d4451754f54493449454d674d5449794c6a6b784e4341784d4455754f4451344c4445794d6934314d544d674d5441334c6a457a4d7977784d6a49754d6a6379494445774e7934334f445167517941784d6a45754e7a4d34494445774f5334794d6a59734d5449784c6a67774e5341784d544d754d6a67344c4445794d69347a4f4445674d5445304c6a4d324e434244494445794d6934324d5445674d5445304c6a63354e5377784d6a49754f444177494445784e5334344e5459734d5449794c6a67774d4341784d5459754e7a497949454d674d5449794c6a67774d4341784d6a45754d54497a4c4445794e7934304d6a63674d544d784c6a4d784e7977784d6a6b754e5445354944457a4d5334314d6a5167517941784d7a45754e544d304944457a4d5334334d6a51734d544d784c6a55324e5341784d7a41754d7a67304c4445794f5334324d7a6b674d5449324c6a4d7a4d434244494445794f4334334e5445674d5449304c6a51324d4377784d6a63754e7a5979494445794d5334354d6a55734d5449334c6a51304d6941784d6a41754e6a6b3349454d674d5449334c6a45794d6941784d546b754e4459354c4445794e6934314d7a51674d5445334c6a6b324e5377784d6a59754d544d30494445784e79347a4e545567517941784d6a55754d444d78494445784e5334324e7a49734d5449304c6a67314d4341784d4467754d7a51354c4445794e5334344e444d674d5441314c6a55344f434244494445794e6934314e4445674d54417a4c6a59304f4377784d6a59754d7a4178494445774d6934324d7a45734d5449314c6a49774d4341784d4449754f44557a49454d674d5449314c6a41354d4341784d4449754f4463314c4445794e4334324f4467674d5441794c6a6b334e4377784d6a51754d7a4134494445774d7934774e7a51675454497a4e4334354d6a67674d5449354c6a51784d5342444944497a4e5334774e6a49674d544d774c6a67304e6977794d7a55754e54517a4944457a4d6934344e6a45734d6a4d314c6a6b354e7941784d7a4d754f44673349454d674d6a4d324c6a51314d5341784d7a51754f54457a4c44497a4e7934774f446b674d544d334c6a49334f4377794d7a63754e4445304944457a4f5334784e444967517941794d7a67754d546331494445304d7934314d4463734d6a4d344c6a63784f5341784e4455754e54417a4c44497a4f5334794d7a59674d5451314c6a67794d6942444944497a4f5334354d4467674d5451324c6a497a4e7977794e4441754e445179494445304e7934354f4449734d6a51784c6a41774e5341784e5445754e6a417749454d674d6a51784c6a49354e7941784e544d754e4463774c4449304d5334354d446b674d5455324c6a67354d4377794e4449754d7a5933494445314f5334794d444167517941794e4449754f444931494445324d5334314d5441734d6a517a4c6a51774e4341784e6a51754e444d7a4c4449304d7934324e5451674d5459314c6a59354e694244494449304e4334794d5449674d5459344c6a55794d4377794e4451754f446335494445324f5334794d5451734d6a51324c6a417a4d6941784e6a67754d54637849454d674d6a51324c6a55324f4341784e6a63754e6a67324c4449304e6934334e6a67674d5459334c6a45314d5377794e4459754e6a457a494445324e6934324d545967517941794e4459754e446730494445324e6934784e6a63734d6a51324c6a417a4d4341784e6a4d754e7a4d774c4449304e5334324d4455674d5459784c6a49774d434244494449304e4334314d5467674d5455304c6a637a4e5377794e4449754f444d31494445304e7934784d6a51734d6a51794c6a4d324e7941784e4459754e54597749454d674d6a51784c6a59324f4341784e4455754e7a45344c4449304d5334304d4455674d5451794c6a41774d4377794e4449754d445130494445304d6934774d444167517941794e4449754e7a4534494445304d6934774d4445734d6a51324c6a49304f5341784e444d754d7a45324c4449304e6934324e4467674d54517a4c6a63784e534244494449304e6934344d4455674d54517a4c6a67334d6977794e4463754d7a4d78494445304e4334774d4441734d6a51334c6a67784f4341784e4451754d44417749454d674d6a51354c6a49794e5341784e4451754d4441774c4449314e4334314e7a51674d5451324c6a4d7a4e6977794e546b754d6a4177494445304f4334354e7a4567517941794e6a41754f445577494445304f5334354d5445734d6a59304c6a41334d4341784e5445754e7a51794c4449324e69347a4e5455674d54557a4c6a41304d434244494449324f4334324e4441674d5455304c6a4d7a4f4377794e7a45754d545977494445314e5334334f5455734d6a63784c6a6b314e5341784e5459754d6a633449454d674d6a63794c6a63314d4341784e5459754e7a59784c4449334e43347a4d4441674d5455334c6a55354d4377794e7a55754e444177494445314f4334784d6a4567517941794e7a59754e544177494445314f4334324e5449734d6a63334c6a6b344d7941784e546b754e6a55794c4449334f4334324f5459674d5459774c6a4d304d794244494449334f5334304d446b674d5459784c6a417a4e5377794f4441754d545978494445324d5334324d4441734d6a67774c6a4d324f4341784e6a45754e6a417749454d674d6a67774c6a55334e4341784e6a45754e6a41774c4449344d4334354f444d674d5459784c6a67794e5377794f4445754d6a6333494445324d6934784d444167517941794f4445754f445532494445324d6934324e444d734d6a67344c6a4d344f5341784e6a63754d544d324c4449344f5334314f5451674d5459334c6a67794d534244494449354d4334774d4449674d5459344c6a41314d6977794f5441754f544930494445324f4334344d5463734d6a6b784c6a59304d7941784e6a6b754e54497849454d674d6a6b7a4c6a41304d5341784e7a41754f4467344c4449354e4334304d4451674d5463784c6a45314f5377794f5455754d546335494445334d4334794d6a5967517941794f5455754f44637a494445324f53347a4f5441734d6a6b314c6a45784d6941784e6a67754d6a41794c4449354d7934774f444d674d5459324c6a6b314d694244494449354d4334334f5445674d5459314c6a55304d4377794f4467754d6a517a494445324d7934344e5441734d6a67344c6a41774d4341784e6a4d754e54677749454d674d6a67334c6a67354d4341784e6a4d754e4455344c4449344e7934784d5459674d5459794c6a67304e4377794f4459754d6a6335494445324d6934794d545567517941794f4451754e545935494445324d4334354d7a45734d6a67304c6a67794f4341784e6a41754e4449794c4449344e7934794d4441674d5459774c6a4d354f534244494449344f4334324e7a51674d5459774c6a4d344e5377794f5467754e444134494445324d5334344d5441734d7a41774c6a67774d4341784e6a49754d7a6b7749454d674d7a41784c6a55334d4341784e6a49754e5463324c444d774e4334774d4441674d54597a4c6a45784e69777a4d4459754d6a4177494445324d7934314f446b675179417a4d5441754e6a6734494445324e4334314e5455734d7a45794c6a49314d7941784e6a51754f5455324c444d784e6934774d4441674d5459324c6a45774d69424449444d784f5334304e7a59674d5459334c6a45324e69777a4d6a59754d7a5531494445324f5334304d6a6b734d7a49334c6a59774d4341784e6a6b754f54453549454d674d7a49344c6a45314d4341784e7a41754d544d314c444d794f5334304d5441674d5463774c6a59794f53777a4d7a41754e444177494445334d5334774d5459675179417a4d7a55754e446b78494445334d7934774d4459734d7a51324c6a55304d6941784e7a67754d6a63344c444d304f4334354e6a51674d5463354c6a67334d69424449444d314d4334774e4451674d5467774c6a55344d79777a4e5445754e446730494445344d5334794f4459734d7a55794c6a45324e4341784f4445754e444d3049454d674d7a557a4c6a49324e5341784f4445754e6a637a4c444d314e5334334f5451674d54677a4c6a637a4f43777a4e5467754d544931494445344e69347a4d4441675179417a4e546b754d444134494445344e7934794e7a41734d7a59774c6a51774e5341784f4463754e5445324c444d324d43347a4f5449674d5467324c6a63774d43424449444d324d43347a4f4467674d5467324c6a51794e53777a4e546b754d544579494445344e5334784d6a41734d7a55334c6a55314e7941784f444d754f44417749454d674d7a55324c6a41774d6941784f4449754e4467774c444d314e4334784e6a41674d5467774c6a67304e43777a4e544d754e445931494445344d4334784e6a55675179417a4e5445754d7a5979494445334f4334784d5449734d7a51304c6a55354d6941784e7a51754d446b784c444d304d5334314d4441674d54637a4c6a41314f53424449444d304d5334784d5455674d5463794c6a6b7a4d43777a4e4441754f444177494445334d6934304e7a6b734d7a51774c6a67774d4341784e7a49754d44553149454d674d7a51774c6a67774d4341784e7a41754e7a55334c444d304d5334794e5463674d5463774c6a59344f43777a4e5459754d446b32494445324f5334334e5449675179417a4e6a41754e546333494445324f5334304e6a6b734d7a59344c6a49304d6941784e7a41754d4451304c444d334d6934324d4441674d5463774c6a6b344f53424449444d334d7934354d6a41674d5463784c6a49334e69777a4e7a55754f445578494445334d5334324d7a45734d7a63324c6a67354d5341784e7a45754e7a633449454d674d7a63334c6a6b7a4d5341784e7a45754f5449324c444d334f4334344e7a59674d5463794c6a45354f53777a4e7a67754f546b78494445334d69347a4f4459675179417a4e7a6b754d544132494445334d6934314e7a49734d7a67774c6a45304e6941784e7a49754f44557a4c444d344d53347a4d4441674d54637a4c6a41784d43424449444d344d6934304e5455674d54637a4c6a45324e79777a4f4451754d446b7a494445334d7934324e4463734d7a67304c6a6b304d5341784e7a51754d44633349454d674d7a67314c6a63344f5341784e7a51754e5441324c444d344e7934334f544d674d5463314c6a49354f53777a4f446b754d7a6b32494445334e5334344d7a63675179417a4f5449754e546730494445334e6934354d4463734d7a6b314c6a45324f4341784e7a67754d5467354c444d354e7934344d6a4d674d5467774c6a41784e69424449444d354f5334354e6a51674d5467784c6a51344f5377304d4441754d444178494445344d5334304f4463734d7a6b354c6a6b354e6941784e7a6b754f54417749454d674d7a6b354c6a6b354d6941784e7a67754e6a45324c444d354f5334354d5445674d5463344c6a55324d43777a4f544d754d6a4d7a494445334e53347a4d4441675179417a4f446b754e544531494445334d7934304f4455734d7a67324c6a497a4d6941784e7a45754f546b304c444d344e5334354d7a63674d5463784c6a6b344e79424449444d344e5334324e4445674d5463784c6a6b344d43777a4f4455754d445578494445334d5334334d5441734d7a67304c6a59794e4341784e7a45754d7a673349454d674d7a67304c6a45354e6941784e7a45754d4459304c444d344d7934794f4459674d5463774c6a67774d43777a4f4449754e6a4177494445334d4334344d4441675179417a4f4445754f544530494445334d4334344d4441734d7a67784c6a41774e4341784e7a41754e544d324c444d344d4334314e7a59674d5463774c6a49784d79424449444d344d4334784e446b674d5459354c6a67354d43777a4e7a6b754d446777494445324f5334324d5449734d7a63344c6a49774d4341784e6a6b754e546b3149454d674d7a63334c6a4d794d4341784e6a6b754e5463354c444d334e5334344f4441674d5459354c6a4d774e53777a4e7a55754d444177494445324f4334354f4467675179417a4e7a51754d544977494445324f4334324e7a45734d7a63794c6a55354d4341784e6a67754e4441324c444d334d5334324d4441674d5459344c6a4d354f43424449444d334d4334324d5441674d5459344c6a4d354d43777a4e6a67754e545979494445324f4334794d4455734d7a59334c6a41304f5341784e6a63754f54673249454d674d7a59774c6a55794d5341784e6a63754d44517a4c444d304d5334334d6a49674d5459334c6a63774e79777a4d7a63754e6a4177494445324f5334774d6a63675179417a4d7a55754d7a4131494445324f5334334e6a4d734d7a4d7a4c6a55324d5341784e6a6b754e7a55344c444d7a4d6934314e7a59674d5459354c6a41784d79424449444d7a4d6934784e446b674d5459344c6a59354d43777a4d7a45754e544d77494445324f4334304d546b734d7a4d784c6a49774d4341784e6a67754e44457749454d674d7a4d774c6a67334d4341784e6a67754e4441794c444d7a4d4334774f4451674d5459344c6a45794e69777a4d6a6b754e445530494445324e7934334f5467675179417a4d6a67754f444930494445324e7934304e6a6b734d7a49344c6a41314f4341784e6a63754d6a41774c444d794e7934334e544d674d5459334c6a49774d43424449444d794e7934304e4463674d5459334c6a49774d43777a4d6a59754e544931494445324e6934344e4441734d7a49314c6a63774e4341784e6a59754e44417749454d674d7a49304c6a67344e4341784e6a55754f5459774c444d794d7934334d7a59674d5459314c6a59774d43777a4d6a4d754d545531494445324e5334324d4441675179417a4d6a49754e546330494445324e5334324d4441734d7a49784c6a67334e4341784e6a55754d7a4d774c444d794d5334324d4441674d5459314c6a41774d43424449444d794d53347a4d6a49674d5459304c6a59324e53777a4d6a41754e445577494445324e4334304d4441734d7a45354c6a59794e7941784e6a51754e44417749454d674d7a45344c6a67784e6941784e6a51754e4441774c444d784e7934344d4451674d5459304c6a457a4e69777a4d5463754d7a6332494445324d7934344d544d675179417a4d5459754f545135494445324d7934304f5441734d7a45324c6a41324d4341784e6a4d754d6a457a4c444d784e5334304d4441674d54597a4c6a45354f53424449444d784e4334334e4441674d54597a4c6a45344e43777a4d544d754e7a5577494445324d6934354d5451734d7a457a4c6a49774d4341784e6a49754e6a417749454d674d7a45794c6a59314d4341784e6a49754d6a67324c444d784d5334314d7a67674d5459794c6a41794d69777a4d5441754e7a4935494445324d6934774d5451675179417a4d446b754f544535494445324d6934774d4459734d7a41344c6a6b344e7941784e6a45754e7a4d774c444d774f4334324e5463674d5459784c6a51774d43424449444d774f43347a4d4459674d5459784c6a41304f53777a4d4463754d7a4935494445324d4334344d4441734d7a41324c6a4d774d5341784e6a41754f44417749454d674d7a41314c6a4d7a4e5341784e6a41754f4441774c444d774d7934324e5467674d5459774c6a55304d53777a4d4449754e54637a494445324d4334794d6a51675179417a4d4441754e7a4531494445314f5334324f4449734d6a6b304c6a41304d6941784e546b754d4445794c4449354d5334304d4441674d5455354c6a45774d694244494449354d4334334e4441674d5455354c6a45794e5377794f446b754e6a5977494445314f4334354f4441734d6a67354c6a41774d4341784e5467754e7a677749454d674d6a67344c6a4d304d4341784e5467754e5467784c4449344e5334334e6a6b674d5455344c6a4d7a4d4377794f444d754d6a6732494445314f4334794d6a4d67517941794e7a6b754f546730494445314f4334774f4445734d6a63344c6a59774f5341784e5463754f4459324c4449334f4334784e6a55674d5455334c6a51794d694244494449334e7934324d6a59674d5455324c6a67344d7977794e7a4d754f54417a494445314e4334794e4459734d6a63794c6a59324e7941784e544d754e54493549454d674d6a59344c6a41334d6941784e5441754f4455354c4449324e5334344e7a55674d5451354c6a597a4e5377794e6a51754d7a5130494445304f4334344f544167517941794e6a4d754d7a497a494445304f43347a4f5451734d6a59794c6a49324e6941784e4463754e7a49774c4449324d5334354f5455674d5451334c6a4d354e434244494449324d5334334d6a51674d5451334c6a41324e7977794e6a45754d446b32494445304e6934344d4441734d6a59774c6a59774d4341784e4459754f44417749454d674d6a59774c6a45774e4341784e4459754f4441774c4449314f5334304e7a51674d5451324c6a557a4d4377794e546b754d6a4177494445304e6934794d444167517941794e5467754f544932494445304e5334344e7a41734d6a55344c6a4d324e5341784e4455754e6a41774c4449314e7934354e5449674d5451314c6a59774d434244494449314e7934314e4441674d5451314c6a59774d4377794e5459754d446333494445304e5334774e7a67734d6a55304c6a63774d5341784e4451754e44517749454d674d6a557a4c6a4d794e5341784e444d754f4441784c4449314d5334334f5455674d54517a4c6a45314f5377794e5445754d7a4177494445304d7934774d544d67517941794e5441754f444131494445304d6934344e6a59734d6a55774c6a51774d4341784e4449754e5463344c4449314d4334304d4441674d5451794c6a4d334d794244494449314d4334304d4441674d5451794c6a45324f4377794e5441754d444d30494445304d6934774d4441734d6a51354c6a55344e6941784e4449754d44417749454d674d6a51354c6a457a4f4341784e4449754d4441774c4449304f43347a4e7a4d674d5451784c6a63314d4377794e4463754f446732494445304d5334304e444d67517941794e4463754d7a6b35494445304d5334784d7a63734d6a51324c6a45304f5341784e4441754e7a59334c4449304e5334784d446b674d5451774c6a59794d434244494449304e4334774e6a6b674d5451774c6a51334e4377794e444d754d544530494445304d4334784f4451734d6a51794c6a6b344e6941784d7a6b754f54633349454d674d6a51794c6a67314f4341784d7a6b754e7a63774c4449304d6934784e4459674d544d354c6a59774d4377794e4445754e4441304944457a4f5334324d444167517941794d7a6b754e7a59794944457a4f5334324d4441734d6a4d344c6a51774d4341784d7a63754f5451304c44497a4e7934354e7a6b674d544d314c6a517a4e5342444944497a4e6934344e6a4d674d5449344c6a63344d5377794d7a51754e444534494445794d7934354e544d734d6a4d304c6a6b794f4341784d6a6b754e444578494530784d4451754f446777494445304e7934324f444167517941784d4451754d7a4578494445304f4334794e446b734d5441304c6a49304e4341784e5449754e7a4d7a4c4445774e4334334f5449674d54557a4c6a59774d434244494445774e5334344e6a6b674d5455314c6a4d774e4377784d4463754e44557a494445304f5334354e6a63734d5441324c6a517a4e4341784e4467754d44593049454d674d5441314c6a6b774f4341784e4463754d4467774c4445774e5334314e6a51674d5451324c6a6b354e6977784d4451754f446777494445304e7934324f4441675454497a4e6934304d5445674d5455774c6a67314d6942444944497a4e5334354e7a51674d5455784c6a67784e4377794d7a55754e6a4530494445314d7934774d4463734d6a4d314c6a59774f5341784e544d754e54413149454d674d6a4d314c6a59774e4341784e5451754d44417a4c44497a4e5334304d6a63674d5455304c6a63794d7977794d7a55754d6a4532494445314e5334784d445567517941794d7a55754d444131494445314e5334304f4463734d6a4d304c6a59324d6941784e5459754e6a45774c44497a4e4334304e544d674d5455334c6a59774d4342444944497a4e4334794e4451674d5455344c6a55354d4377794d7a4d754e7a6733494445324d43347a4f5441734d6a4d7a4c6a517a4e6941784e6a45754e6a417749454d674d6a4d7a4c6a41344e6941784e6a49754f4445774c44497a4d6934314d5451674d5459304c6a67314e4377794d7a49754d545932494445324e6934784e444967517941794d7a45754d6a637a494445324f5334304e4451734d6a49354c6a51304e4341784e7a4d754f4441314c4449794f4334784f5467674d5463314c6a59774d694244494449794e6934794e4451674d5463344c6a51794d6977794d6a63754e6a4135494445344d4334334e6a63734d6a4d774c6a41334e5341784e7a67754f44493349454d674d6a4d784c6a4d794e6941784e7a63754f44517a4c44497a4d6934334d7a4d674d5463304c6a6b324e4377794d7a4d754e444579494445334d6934774d444167517941794d7a4d754e6a6734494445334d4334334f5441734d6a4d304c6a51354d6941784e6a63754f5445774c44497a4e5334784f5459674d5459314c6a59774d4342444944497a4f43347a4d4451674d5455314c6a51784d4377794d7a6b754d54677a494445304e4334334e444d734d6a4d324c6a51784d5341784e5441754f445579494530784d6a59754f544d7a494445324d5334344d7a4167517941784d6a59754d6a6b34494445324d7934304f4459734d544d774c6a6b324f5341784e6a63754e7a59334c4445304d6934784e5451674d5463314c6a63334f534244494445304d7934774e546b674d5463324c6a51794e7977784e4451754d444d31494445334e7934794f4449734d5451304c6a4d794d7941784e7a63754e6a633549454d674d5451304c6a59784d4341784e7a67754d4463324c4445304e5334774d7a51674d5463344c6a51774d4377784e4455754d6a5931494445334f4334304d444167517941784e4455754e446b32494445334f4334304d4441734d5451324c6a4d324e7941784e7a67754f5451774c4445304e7934794d4441674d5463354c6a59774d434244494445304f4334774d7a4d674d5467774c6a49324d4377784e446b754d444130494445344d4334344d4441734d5451354c6a4d314f4341784f4441754f44417749454d674d5451354c6a63784d5341784f4441754f4441774c4445314d4334774d4441674d5467774c6a6b324e6977784e5441754d444177494445344d5334784e6a6b67517941784e5441754d444177494445344d53347a4e7a45734d5455774c6a67774e5341784f4449754d4451324c4445314d5334334f4467674d5467794c6a59324f534244494445314d6934334e7a45674d54677a4c6a49354d5377784e544d754e6a6732494445344e4334784d6a49734d54557a4c6a67794d4341784f4451754e54453149454d674d5455304c6a457a4e4341784f4455754e444d324c4445314e7934774d6a49674d5467334c6a4d314e7977784e5463754e546333494445344e7934774d545167517941784e5467754e7a597a494445344e6934794f4445734d5455324c6a49324e4341784f444d754d6a41774c4445314e4334304f444d674d54677a4c6a49774d434244494445314e43347a4d4441674d54677a4c6a49774d4377784e544d754e7a5578494445344d6934324e6a41734d54557a4c6a49324d7941784f4449754d44417749454d674d5455794c6a63334e5341784f4445754d7a51774c4445314d6934784e7a59674d5467774c6a67774d4377784e5445754f544d79494445344d4334344d444167517941784e5441754f544935494445344d4334344d4441734d5451344c6a41304e5341784e7a6b754d444d784c4445304e7934314e5455674d5463344c6a45784e694244494445304e7934794e6a55674d5463334c6a55334e5377784e4455754f445579494445334e6934794d444d734d5451304c6a51784e4341784e7a55754d44593249454d674d5451784c6a45774d4341784e7a49754e4451324c44457a4f5334354e5441674d5463784c6a51334e7977784d7a63754d6a4579494445324f4334354f545167517941784d7a55754f546b31494445324e7934344f5441734d544d304c6a41784d4341784e6a59754d5467334c44457a4d6934344d4441674d5459314c6a49774f5342444944457a4d5334314f5441674d5459304c6a497a4d4377784d7a41754e445532494445324d7934784f5467734d544d774c6a49344d4341784e6a49754f54453149454d674d5449354c6a6b344d4341784e6a49754e444d784c4445794e7934354d5463674d5459784c6a49774d4377784d6a63754e444133494445324d5334794d444167517941784d6a63754d6a6335494445324d5334794d4441734d5449334c6a41324e6941784e6a45754e4467304c4445794e6934354d7a4d674d5459784c6a677a4d43424e4d7a63794c6a49774d7941784f4441754e6a553049454d674d7a63784c6a41774d4341784f4445754f4455334c444d334e4334334d7a55674d54677a4c6a45354d53777a4e7a6b754d7a637a494445344d7934794d5451675179417a4f4445754f446777494445344d7934794d6a63734d7a67304c6a557a4f4341784f444d754e6a4d7a4c444d354d6934304d4441674d5467314c6a49774e53424449444d354d7934324d5441674d5467314c6a51304e79777a4f5455754e6a6777494445344e5334354f5455734d7a6b334c6a41774d4341784f4459754e44497a49454d674e4441774c6a41774f5341784f4463754d7a6b334c4451774d4334774d4441674d5467334c6a4d354f4377304d4441754d444177494445344e6934794d7a4967517941304d4441754d444177494445344e5334794d6a51734d7a6b354c6a55354d4341784f4455754d444d784c444d354e4334304d4441674d54677a4c6a59774d79424449444d354d7934304d5441674d54677a4c6a4d7a4d43777a4f5449754d545577494445344d6934354e5463734d7a6b784c6a59774d4341784f4449754e7a633049454d674d7a67304c6a51794e6941784f4441754d7a67334c444d334d7934324e4467674d5463354c6a49774f53777a4e7a49754d6a417a494445344d4334324e545167545459334c6a63304d7941784f4445754e44413149454d674e6a63754e444d78494445344d6934794d546b734e6a67754d544977494445344d6934354e7a51734e7a41754d544933494445344e4334774d545967517941334d5334344e6a45674d5467304c6a6b784e7977334d7934784d5467674d5467314c6a637a4f4377334e7934334d5445674d5467344c6a6b334d434244494467794c6a677a4e5341784f5449754e5463314c44677a4c6a4d354e7941784f446b754f4467794c4463344c6a4d774d4341784f4459754d54513249454d674e7a45754e6a4532494445344d5334794e4463734e6a67754d7a5930494445334f5334334f4463734e6a63754e7a517a494445344d5334304d4455675454497a4f4334324d4441674d546b794c6a4d784d5342444944497a4d6934314d544d674d546b314c6a41334d6977794d6a6b754e7a4d30494445354e79347a4d5455734d6a4d774c6a67774d6941784f5467754e6a417949454d674d6a4d784c6a557a4d4341784f546b754e4467774c44497a4d5334334d7a6b674d546b354c6a51784d4377794d7a55754e7a4d35494445354e6934354d7a6367517941794e4449754d446b30494445354d7934774d4467734d6a51794c6a59794f4341784f5449754e5455334c4449304d5334354d6a67674d546b784c6a63784d794244494449304d53347a4e7a51674d546b784c6a41304e6977794e4445754e444177494445354d5334774e4445734d6a4d344c6a59774d4341784f5449754d7a45784945307a4e6a55754f445934494449774d5334334f446b675179417a4e6a55754d545532494449774d6934314d4445734d7a59314c6a51304e4341794d444d754e546b304c444d324e79347a4e6a59674d6a41334c6a51354f43424449444d324e7934354d7a55674d6a41344c6a59314d69777a4e6a67754e444177494449774f5334354d7a51734d7a59344c6a51774d4341794d5441754d7a513249454d674d7a59344c6a51774d4341794d5441754e7a55344c444d324f4334334e6a41674d6a45794c6a49794d79777a4e6a6b754d6a4177494449784d7934324d4441675179417a4e7a41754e546331494449784e7934354d444d734d7a63774c6a41354d5341794d5463754f446b774c444d324e5334314f5467674d6a457a4c6a55774d43424449444d324e4334774f4449674d6a45794c6a41784f53777a4e6a4d754d446377494449784d5334324d7a6b734d7a59794c6a59784d6941794d5449754d7a677749454d674d7a59794c6a4d334d4341794d5449754e7a63794c444d324e53347a4d5451674d6a45324c6a41304e53777a4e7a55754e6a4177494449794e6934344d5459675179417a4e7a59754d545577494449794e79347a4f5449734d7a63334c6a59344d4341794d6a6b754d546b344c444d334f5334774d4441674d6a4d774c6a67794f53424449444d344d5334334d6a41674d6a4d304c6a45354d43777a4f4445754e44637a4944497a4d7934344e6a67734d7a677a4c6a55334e5341794d7a59754f44417749454d674d7a67304c6a51304d6941794d7a67754d4445774c444d344e5334304d444d674d6a4d354c6a49334d43777a4f4455754e7a45774944497a4f5334324d4441675179417a4f4459754d4445334944497a4f5334354d7a41734d7a67334c6a59334e7941794e4449754d7a59774c444d344f5334304d4441674d6a51314c6a41774d43424449444d354d5334784d6a49674d6a51334c6a59304d43777a4f544d754d7a4578494449314d4334354f5449734d7a6b304c6a49324d7941794e5449754e44557749454d674d7a6b314c6a49784e5341794e544d754f5441334c444d354e6934344e5445674d6a55324c6a59354e79777a4f5463754f446b33494449314f4334324e5441675443417a4f546b754f444177494449324d6934794d4441674d7a6b354c6a6b784e6941794e546b754d54517a49454d674e4441774c6a41784d5341794e5459754e6a55774c444d354f5334344f444d674d6a55314c6a677a4f53777a4f546b754d6a4931494449314e4334334e444d675179417a4f5467754e7a6779494449314e4334774d4451734d7a6b334c6a67334e4341794e5449754e4445774c444d354e7934794d446b674d6a55784c6a49774d43424449444d354e6934314e444d674d6a51354c6a6b354d43777a4f5455754e6a5978494449304f4334314e5441734d7a6b314c6a49304f4341794e4467754d44417749454d674d7a6b304c6a677a4e5341794e4463754e4455774c444d354d7934784f5445674d6a51314c6a41794d43777a4f5445754e546b30494449304d6934324d4441675179417a4f4467754f4451314944497a4f4334304d7a4d734d7a67324c6a49344d5341794d7a55754d5451334c444d344d79347a4d6a4d674d6a4d794c6a41774d43424449444d344d5334314f5459674d6a4d774c6a45324d79777a4f4441754d444d31494449794f4334304d5441734d7a63334c6a41344e7941794d6a55754d44417749454d674d7a63314c6a63314e6941794d6a4d754e4459774c444d334d7934334d446b674d6a49784c6a49784d43777a4e7a49754e544d35494449794d4334774d4441675179417a4e7a41754e444535494449784e7934344d446b734d7a59354c6a6b784e4341794d5459754f4441774c444d334d4334354d7a67674d6a45324c6a67774d43424449444d334d5334794d7a51674d6a45324c6a67774d43777a4e7a45754f44417a494449784e6934304d7a6b734d7a63794c6a49774d7941794d5455754f546b3349454d674d7a63794c6a67324d4341794d5455754d6a63784c444d334d6934354f5455674d6a45314c6a49314d69777a4e7a4d754e6a4134494449784e5334344d4463675179417a4e7a51754e6a6330494449784e6934334e7a49734d7a63324c6a497a4d6941794d5455754d7a6b304c444d334e5334324e6a55674d6a457a4c6a6b354d43424449444d334e5334304e4451674d6a457a4c6a51304e69777a4e7a51754f545932494449784d6934774d5441734d7a63304c6a59774d5341794d5441754f44417749454d674d7a637a4c6a49304e7941794d4459754d7a457a4c444d334d5334794d5455674d6a41314c6a49304f53777a4e7a41754e7a6335494449774f4334344d4441675443417a4e7a41754e545535494449784d4334324d4441674d7a63774c6a49304f4341794d446b754d44417749454d674d7a63774c6a41334f4341794d4467754d5449774c444d324f5334324f5455674d6a41324c6a67324d43777a4e6a6b754d7a6b34494449774e6934794d4441675179417a4e6a6b754d544179494449774e5334314e4441734d7a59344c6a59304f5341794d4451754e4449344c444d324f43347a4f544d674d6a417a4c6a63794f53424449444d324e7934324e7a59674d6a41784c6a63334e43777a4e6a59754e6a5979494449774d4334354f5455734d7a59314c6a67324f4341794d4445754e7a6735494530794d546b754e6a4177494449774d7934344e6a6b67517941794d546b754d6a6377494449774d7934354f4467734d6a45334c6a4d354d7941794d4451754f4467354c4449784e5334304d6a6b674d6a41314c6a67334d534244494449784d6934784e4459674d6a41334c6a55784e4377794d5445754e545933494449774e7934324e7a45734d6a41344c6a49314e6941794d4463754f44453249454d674d6a41304c6a49784d5341794d4463754f546b7a4c4449774d7934784f5463674d6a41344c6a51354f5377794d444d754f546331494449774f5334354e544d67517941794d4451754e6a4578494449784d5334784e4449734d6a41334c6a41324d6941794d5445754d4463774c4449784d43347a4d6a45674d6a41354c6a63324e694244494449784d5334334e4449674d6a41354c6a45354f4377794d544d754e545532494449774f4334324e4445734d6a45304c6a4d314d6941794d4467754e54493549454d674d6a45324c6a51774e6941794d4467754d6a4d354c4449794d5334774e4463674d6a41324c6a51324e7977794d6a45754e6a5134494449774e5334334e444d67517941794d6a49754e546333494449774e4334324d6a49734d6a49784c6a45304e7941794d444d754d7a45304c4449784f5334324d4441674d6a417a4c6a67324f53424e4d5451344c6a41794f4341794d4451754f545933494577674d5451334c6a41314e6941794d4455754e544131494445304f43347a4e5467674d6a41324c6a45334f434244494445304f5334794f5467674d6a41324c6a59324e5377784e5441754e544135494449774e6934344d6a6b734d5455794c6a63794f5341794d4459754e7a637849454d674d5455304c6a51784f4341794d4459754e7a49344c4445324d4334354f446b674d6a41324c6a67334e6977784e6a63754d7a4d78494449774e7934784d444567517941784f4441754e6a4d34494449774e7934314e7a49734d5467794c6a45794e7941794d4463754d7a67304c4445344d4334794d546b674d6a41314c6a51334e694244494445334f5334784f5451674d6a41304c6a51314d5377784e446b754f444177494449774d7934354f4455734d5451344c6a41794f4341794d4451754f5459334945307a4e544d754e6a4177494449774e4334354e6a6b675179417a4e544d754e6a4177494449774e6934774d7a55734d7a55354c6a55304f4341794d5445754d5455314c444d324d5334314d4441674d6a45784c6a63334d43424449444d324d7934794e5449674d6a45794c6a4d794d69777a4e6a45754d6a6779494449774f4334324f4441734d7a55354c6a49334d6941794d4463754e6a557849454d674d7a55344c6a59344d6941794d4463754d7a55774c444d314e7934344e4441674d6a41324c6a63344e69777a4e5463754e444177494449774e69347a4f5467675179417a4e5459754e6a4932494449774e5334334d5459734d7a55304c6a49324e7941794d4451754e4441774c444d314d7934344d6a41674d6a41304c6a51774d43424449444d314d7934324f546b674d6a41304c6a51774d43777a4e544d754e6a4177494449774e4334324e5459734d7a557a4c6a59774d4341794d4451754f545935494530784d7a55754d7a5977494449774e5334304f546367517941784d7a4d754f546777494449774e6934344e7a63734d544d314c6a49314e5341794d4463754e7a4d314c44457a4e7934344e4441674d6a41334c6a45324f4342444944457a4f4334354d5467674d6a41324c6a6b7a4d6977784e4445754d444577494449774e6934324e4449734d5451794c6a51344f4341794d4459754e54493149454d674d5451304c6a63794d4341794d4459754d7a51334c4445304e7934774f4445674d6a41314c6a4d314d4377784e4455754e7a5135494449774e5334784e446367517941784e444d754d7a4135494449774e4334334e7a55734d544d314c6a677a4d4341794d4455754d4449334c44457a4e53347a4e6a41674d6a41314c6a51354e79424e4d7a63794c6a4d794d7941794d5449754e7a417a49454d674d7a63794c6a51324d5341794d5451754e6a45794c444d334d5334344d4467674d6a45304c6a6b354f53777a4e7a45754d546b77494449784d79347a4e7a51675179417a4e7a41754e546377494449784d5334334e4449734d7a63774c6a59354e6941794d5441754e7a49794c444d334d5334314d4441674d6a45774c6a67334e43424449444d334d6934774d5445674d6a45774c6a6b334d53777a4e7a49754d6a4d7a494449784d5334304e6a59734d7a63794c6a4d794d7941794d5449754e7a417a494530794d5449754e546735494449784d7934324d546767517941794d5449754d7a4533494449784e4334774e5463734d6a457a4c6a49784e4341794d5455754e6a557a4c4449784e4334304f5441674d6a45334c6a41774d434244494449784e5334304d7a45674d6a45334c6a6b354d7977794d6a45754d7a6b32494449794f43347a4d5441734d6a49784c6a63354e4341794d6a6b754e6a4d7949454d674d6a49784c6a6b314e5341794d7a41754d5459304c4449794d6934314f5455674d6a4d784c6a51784d4377794d6a4d754d6a45334944497a4d6934304d444167517941794d6a51754e4467784944497a4e4334304d5445734d6a4d304c6a4d354d6941794e5451754d4445354c44497a4e43347a4f5463674d6a55304c6a55784f5342444944497a4e43347a4f546b674d6a55304c6a59354e4377794d7a55754d444534494449314e6934784d7a51734d6a4d314c6a63334d7941794e5463754e7a453549454d674d6a4d324c6a55794f4341794e546b754d7a417a4c44497a4e7934334e7a49674d6a59784c6a6b334d4377794d7a67754e544d35494449324d7934324e445167517941794e4441754d444130494449324e6934344e4455734d6a51774c6a63344f4341794e6a63754e5455314c4449304d5334334e7a45674d6a59324c6a55334d534244494449304d6934304e6a45674d6a59314c6a67344d5377794e4449754e446778494449324e5334354e5467734d6a51774c6a45794d7941794e6a41754d6a417749454d674d6a4d354c6a457a4d6941794e5463754e7a67774c44497a4f4334774e4451674d6a55314c6a41344d4377794d7a63754e7a4132494449314e4334794d444167517941794d7a63754d7a5935494449314d79347a4d6a41734d6a4d314c6a6b304e6941794e5441754d6a457a4c44497a4e4334314e4459674d6a51334c6a49354e5342444944497a4d7934784e4459674d6a51304c6a4d334f4377794d7a49754d444177494449304d5334344e7a67734d6a4d794c6a41774d4341794e4445754e7a517849454d674d6a4d794c6a41774d4341794e4445754d7a457a4c4449794d7934324e5455674d6a49304c6a67304e6977794d6a49754f445530494449794d7934324f544d67517941794d6a49754e444d32494449794d7934774f5449734d6a49784c6a49324d5341794d6a45754d6a55774c4449794d4334794e444d674d6a45354c6a59774d434244494449784e7934774d5463674d6a45304c6a4d334d4377794d544d754e7a4534494449784d5334334f5449734d6a45794c6a55344f5341794d544d754e6a4534494530794e6a4d754f444131494449784f4334344d445967517941794e5467754f544d30494449794d4334314e6a49734d6a55314c6a63344d6941794d6a4d754e7a41774c4449314e7934324e6a55674d6a49304c6a6b794d534244494449314f4334784f4467674d6a49314c6a49314f5377794e5467754e7a417a494449794e5334784d4445734d6a59774c6a41324e5341794d6a51754d54677a49454d674d6a59784c6a41784f5341794d6a4d754e5451774c4449324d7934794e4441674d6a49794c6a4d324e6977794e6a55754d444177494449794d5334314e7a5567517941794e6a63754f544d33494449794d4334794e5459734d6a59344c6a49774d4341794d6a41754d4451794c4449324f4334794d4441674d6a45344c6a6b334e434244494449324f4334794d4441674d6a45334c6a517a4e5377794e6a63754e6a5933494449784e7934304d5455734d6a597a4c6a67774e5341794d5467754f444132494530784f4445754e546734494449794e5334354d6a6b67517941784f4441754f444d34494449794e6934314d7a63734d5467774c6a63324e7941794d6a59754e7a6b774c4445344d5334784e4459674d6a49334c6a55774d434244494445344d5334324d6a6b674d6a49344c6a51774d5377784f4445754e7a6b78494449794f4334304e6a6b734d5467314c6a49774d4341794d6a6b754d6a413149454d674d5467354c6a59354d5341794d7a41754d5463314c4445354e4334794e7a49674d6a4d784c6a637a4f5377794d4455754e6a55354944497a4e6934784f544d67517941794d5451754d4463794944497a4f5334304f444d734d6a45314c6a4d794d4341794d7a6b754e6a6b344c4449784e5334314d6a67674d6a4d334c6a67354d434244494449784e5334324e444d674d6a4d324c6a67344e4377794d5455754e444d334944497a4e6934324f444d734d6a457a4c6a4d794f4341794d7a55754e7a513049454d674d6a41314c6a45314f4341794d7a49754d5441344c4445354d6934334d5449674d6a49334c6a55774d6977784f4467754f444177494449794e6934324e6a6767517941784f4467754d6a5577494449794e6934314e5445734d5467324c6a6b354d4341794d6a59754d6a59784c4445344e6934774d4441674d6a49324c6a41794e434244494445344e5334774d5441674d6a49314c6a63344e7977784f444d754f44457a494449794e5334314d4459734d54677a4c6a4d304d5341794d6a55754d7a6b3549454d674d5467794c6a67314d7941794d6a55754d6a67354c4445344d6934774f5459674d6a49314c6a55784f4377784f4445754e546734494449794e5334354d6a6b67545449324e5334334d6a6b674d6a49344c6a4d794f534244494449324d7934354e7a67674d6a49344c6a6b334e4377794e6a49754f5449324944497a4d43347a4d5441734d6a597a4c6a4d7a4e4341794d7a45754d7a637a49454d674d6a597a4c6a59344e6941794d7a49754d6a6b774c4449324e4334334f4463674d6a4d794c6a45794d4377794e6a59754e6a41774944497a4d4334344e7a4167517941794e6a6b754e444535494449794f4334354d6a55734d6a59344c6a67794e4341794d6a63754d5467354c4449324e5334334d6a6b674d6a49344c6a4d794f53424e4d6a41784c6a6b774d6941794d7a59754e54417949454d674d6a41774c6a4d314e7941794d7a63754e7a59314c4449774d5334774e4441674d6a4d344c6a67324d5377794d4451754e6a4177494449304d4334344d6a6367517941794d446b754e444530494449304d7934304f4459734d6a45784c6a6b354d7941794e4445754f5459354c4449774e7934314d444d674d6a4d354c6a45784f534244494449774e6934314e6a59674d6a4d344c6a55794e5377794d4455754d6a41304944497a4e7934304f5441734d6a41304c6a51334e5341794d7a59754f44453549454d674d6a41794c6a6b774d6941794d7a55754d7a63784c4449774d7934794d7a51674d6a4d314c6a51784d6977794d4445754f5441794944497a4e6934314d444967545455754d7a4535494449304e4334304d6a4167517941304c6a4d354e4341794e4451754e6a41794c444d754d6a6778494449304e4334354e444d734d6934344e4455674d6a51314c6a45334e694244494449754e444135494449304e5334304d446b734d5334314f5445674d6a51314c6a59774d4377784c6a41794e6941794e4455754e6a417749454d674d4334784d6a41674d6a51314c6a59774d4377774c6a41774d4341794e4455754e7a59304c4441754d444177494449304e7934774d444167517941774c6a41774d4341794e4467754e5467784c4441754d544577494449304f4334324d5467734d6934304f4459674d6a51334c6a677a4e53424449444d754e444935494449304e7934314d6a55734e5334784e4467674d6a51334c6a45304f4377324c6a4d774e6941794e4459754f546b3349454d674f4334314d4445674d6a51324c6a63784d6977354c6a517a4e5341794e4455754f4463334c4467754f545532494449304e4334324d6a6b67517941344c6a59354e5341794e444d754f5451344c4463754f544934494449304d7934354d4451734e53347a4d546b674d6a51304c6a51794d43424e4d7a59754e6a6333494449314d4334354f4441675179417a4e5334344d5449674d6a55784c6a67304e53777a4e53347a4e7a41674d6a55324c6a63304d69777a4e6934774f5449674d6a55334c6a51324d79424449444d334c6a4d314d5341794e5467754e7a497a4c444d344c6a63314e6941794e5459754f5467324c444d354c6a41344f5341794e544d754e7a553549454d674d7a6b754d7a6b78494449314d4334344d7a4d734d7a67754d546b35494449304f5334304e546b734d7a59754e6a6333494449314d4334354f4441675454517a4c6a51774d4341794e5455754f54413249454d674e4449754f546735494449314e6934794d4467734e4445754f444135494449314f4334314e6a67734e4441754e6a5530494449324d5334304d4441675179417a4f5334344e4467674d6a597a4c6a4d334e53777a4f4334774d6a55674d6a63774c6a49304e79777a4e7934314d7a51674d6a637a4c6a45324d79424449444d334c6a4d7a4d7941794e7a51754d7a557a4c444d334c6a41344f4341794e7a55754e4455344c444d324c6a6b344f4341794e7a55754e6a453549454d674d7a59754e544930494449334e69347a4e7a41734d7a55754e54457a494449344d6934794d5463734d7a55754d546b7a494449344e6934774d4441675179417a4e4334354f5467674d6a67344c6a4d784d43777a4e4334324e4445674d6a6b784c6a51324d43777a4e4334304d4441674d6a6b7a4c6a41774d43424449444d7a4c6a6b794f5341794f5459754d4445324c444d304c6a45794f43417a4d446b754d5441344c444d304c6a63354f43417a4d546b754d6a417749454d674d7a55754e44597849444d794f5334784f5455734d7a55754d7a637749444d7a4d4334334e4445734d7a4d754f44513249444d7a4e53347a4e4459675179417a4d6934304d7a63674d7a4d354c6a59774d4377794f4334324e7a59674d7a51334c6a59354d5377794e6934794d6a45674d7a55784c6a63304f434244494449314c6a517a4f53417a4e544d754d4451774c4449304c6a67774d43417a4e5451754d6a4d7a4c4449304c6a67774d43417a4e5451754d7a6b3549454d674d6a51754f44417749444d314e4334314e6a59734d6a51754e544d3549444d314e4334354d5467734d6a51754d6a497849444d314e5334784f444d67517941794d7934354d444d674d7a55314c6a51304e7977794d79347a4d7a59674d7a55324c6a55774e4377794d6934354e6a45674d7a55334c6a557a4d694244494449794c6a55344e69417a4e5467754e5455354c4449784c6a67774d79417a4e6a41754d444d774c4449784c6a49794d53417a4e6a41754f44417749454d674d546b754f446b7749444d324d6934314e6a41734d5451754d54457a49444d334d6934774e6a49734d544d754e6a4d7749444d334d7934794f446367517941784d7934784d4441674d7a63304c6a59794f5377334c6a4d784e69417a4f444d754e7a49794c4451754d54673049444d344f4334784d7a59675179417a4c6a41344d69417a4f446b754e6a6b774c4449754f446b7849444d354d4334794d6a4d734d7934794d546b674d7a6b774c6a677a4e694244494451754d444d3549444d354d69347a4e6a67734e5334794d7a6b674d7a6b784c6a55784d6977334c6a51334d69417a4f4463754f44417749454d674f4334784d7a4d674d7a67324c6a63774d4377354c6a55314f43417a4f4451754e6a41774c4445774c6a597a4e79417a4f444d754d544d3049454d674d5445754e7a453349444d344d5334324e6a63734d544d754e6a413349444d334f4334344e7a63734d5451754f444d3449444d334e6934354d7a5167517941794d4334784e6a49674d7a59344c6a55794e5377794d69347a4f4467674d7a59304c6a6b774f4377794d6934324f4451674d7a59304c6a45334f5342444944497a4c6a45334d79417a4e6a49754f54637a4c4449314c6a49314f53417a4e546b754e5445304c4449324c6a45334e53417a4e5467754d7a673249454d674d6a59754f54457749444d314e7934304f444d734d7a51754d7a457749444d304d6934344e5445734d7a55754e54633249444d7a4f5334344d4445675443417a4e6934774e7a4d674d7a4d344c6a59774d79417a4e6934344d7a59674d7a4d354c6a55304e69424449444d334c6a4d774d53417a4e4441754d5445354c444d334c6a59774d43417a4e4445754d5445774c444d334c6a59774d43417a4e4449754d44637a49454d674d7a63754e6a417749444d304e4334794f4467734e4441754d6a413149444d314d6934774e5441734e4449754d44637949444d314e5334304d444167517941304e4334324e546b674d7a59774c6a41304d4377304e4334334d5445674d7a59774c6a49304d6977304e5334784d546b674d7a59334c6a49774d434244494451314c6a51354d79417a4e7a4d754e5459344c4451324c6a49794d53417a4e7a63754d6a41334c4451334c6a45344e69417a4e7a63754e54493549454d674e4463754e44497949444d334e7934324d4463734e4463754e6a417749444d334f4334354e5459734e4463754e6a417749444d344d4334324e7a4567517941304e7934324d4441674d7a677a4c6a63784e6977304f4334354d5445674d7a67354c6a49774d4377304f5334324d7a6b674d7a67354c6a49774d434244494451354c6a677a4f43417a4f446b754d6a41774c4455774c6a41774d43417a4f446b754e5459354c4455774c6a41774d43417a4f5441754d44497749454d674e5441754d44417749444d354d4334304e7a45734e5441754d6a593349444d354d53347a4e5463734e5441754e546b3049444d354d5334354f446b67517941314d4334354d6a45674d7a6b794c6a59794d5377314d5334304f444d674d7a6b304c6a41774e7977314d5334344e4451674d7a6b314c6a41324f534244494455794c6a49774e43417a4f5459754d544d784c4455794c6a677a4e79417a4f5463754e4449354c44557a4c6a49314d43417a4f5463754f54553049454d674e544d754e6a597949444d354f4334304e7a6b734e5451754d44417749444d354f5334784e5451734e5451754d44417749444d354f5334304e545167517941314e4334774d4441674d7a6b354c6a677a4e4377314e4334314e4459674e4441774c6a41774d4377314e5334344d4441674e4441774c6a41774d434244494455334c6a59784d5341304d4441754d4441774c4455344c6a49784f53417a4f546b754d6a51774c4455334c6a49314e43417a4f5467754d54677749454d674e5459754e54593249444d354e7934304d6a51734e5445754e6a417749444d344e7934324e4449734e5445754e6a417749444d344e7934774e444967517941314d5334324d4441674d7a67324c6a63774e4377314d53347a4e5455674d7a67314c6a677a4e6977314d5334774e5455674d7a67314c6a45784e434244494455774c6a63314e53417a4f4451754d7a6b784c4455774c6a45354e79417a4f4449754f4445774c4451354c6a67784e43417a4f4445754e6a417749454d674e446b754e444d7849444d344d43347a4f5441734e4467754f44677a49444d334f4334344e6a41734e4467754e546b3149444d334f4334794d444167517941304f4334774f5463674d7a63334c6a41314f4377304e7934314d7a63674d7a59324c6a59314d5377304e7934344f5449674d7a59314c6a45794e434244494451334c6a6b344d53417a4e6a51754e7a51784c4451344c6a55784e53417a4e6a51754d7a6b314c4451354c6a45794e53417a4e6a51754d7a493049454d674e5441754f44413549444d324e4334784d7a41734e5441754e7a6b3349444d324d6934794e4445734e446b754d446b3249444d314f5334354f444d67517941304e7934314e7a59674d7a55334c6a6b324e4377304e4334304d4441674d7a55794c6a55794f5377304e4334304d4441674d7a55784c6a6b304e534244494451304c6a51774d43417a4e5445754e7a4d7a4c4451304c6a41354d69417a4e5441754f5467304c44517a4c6a63784e53417a4e5441754d6a677749454d674e4449754d54457749444d304e7934794f4451734e4441754f54493149444d304d7934774f5451734e4441754e44453549444d7a4f4334324d7a4d67517941304d4334784f546b674d7a4d324c6a59354e69777a4f5334344f5441674d7a4d314c6a63774f53777a4f53347a4f4467674d7a4d314c6a4d304d69424449444d344c6a67324e69417a4d7a51754f5459774c444d344c6a59304d79417a4d7a51754d5467324c444d344c6a55334d53417a4d7a49754e54413449454d674d7a67754e54453249444d7a4d5334794d7a6b734d7a67754d6a637749444d794f43347a4d5441734d7a67754d44493049444d794e6934774d4441675179417a4e7934304f5459674d7a49784c6a417a4d43777a4e7934304e5451674d6a6b794c6a51304f53777a4e7934354e6a6b674d6a67334c6a67774d43424449444d354c6a41354e6941794e7a63754e6a45354c4451774c6a63794e5341794e7a41754e7a6b304c4451304c6a41794f5341794e6a49754e44417749454d674e4459754d44677a494449314e7934784f4451734e4455754e7a6735494449314e4334784e5445734e444d754e444177494449314e5334354d44596754544d784c6a497a4d6941794e5463754d7a597949454d674d7a41754d6a4d79494449314f4334314e6a63734d7a49754d7a5934494449324d6934774d4455734d7a4d754e7a6777494449324d5334304e6a4d675179417a4e4334324d7a51674d6a59784c6a457a4e53777a4e4334314e5463674d6a59774c6a45344f43777a4d7934314d6a59674d6a55344c6a4d314e43424449444d794c6a59774d5341794e5459754e7a41344c444d784c6a6b354d7941794e5459754e4451314c444d784c6a497a4d6941794e5463754d7a5979494530794d5459754e446777494449324d7934324f444167517941794d5455754e44677a494449324e4334324e7a63734d6a45314c6a6b304d6941794e6a55754e5455304c4449784e7934334d4441674d6a59324c6a41784d434244494449794d5334794d7a59674d6a59324c6a6b794f4377794d6a55754d7a6b7a494449324f4334794f4467734d6a49334c6a51774d4341794e6a6b754d54673249454d674d6a49334c6a67304d4341794e6a6b754d7a677a4c4449794f5334314e5441674d6a59354c6a6b7a4d7977794d7a45754d6a4177494449334d4334304d446b67517941794d7a49754f445577494449334d4334344f4459734d6a4d304c6a63324d6941794e7a45754e4459324c44497a4e5334304e5441674d6a63784c6a63774d4342444944497a4e6934354f4455674d6a63794c6a49794d5377794d7a63754f444534494449334d5334354e4441734d6a4d344c6a45784e6941794e7a41754e7a6b3449454d674d6a4d344c6a4d334d6941794e6a6b754f4449794c44497a4e4334354e4455674d6a59344c6a41784e4377794d7a41754d6a4177494449324e6934324d6a4167517941794d6a67754f446777494449324e6934794d7a49734d6a49334c6a45304e5341794e6a55754e6a63304c4449794e69347a4e4455674d6a59314c6a4d334f534244494449794d5334344f5463674d6a597a4c6a63304d4377794d5463754d6a4931494449324d6934354d7a55734d6a45324c6a51344d4341794e6a4d754e6a6777494530794e5445754e445933494449324e5334784d444167517941794e4459754d7a5531494449334d4334334d5459734d6a51314c6a67334e5341794e7a45754e5459334c4449304e6934354f546b674d6a637a4c6a41794e434244494449304e7934314f4449674d6a637a4c6a63334f5377794e4463754e6a4932494449334d7934334e6a63734d6a51344c6a59794d5341794e7a49754e6a417749454d674d6a55774c6a63334f5341794e7a41754d4459354c4449314d5334354e4459674d6a59344c6a67354d7977794e544d754d545578494449324f4334774d7a5567517941794e5451754e545934494449324e7934774d6a59734d6a55314c6a45794f5341794e6a55754e4463344c4449314e43347a4f5459674d6a59304c6a55354e534244494449314d7934324e4467674d6a597a4c6a59354e4377794e5449754e546335494449324d7934344e7a67734d6a55784c6a51324e7941794e6a55754d544177494530794d6a4d754e6a6777494449334d6934344f444167517941794d6a49754f545178494449334d7934324d546b734d6a497a4c6a45774f4341794e7a51754d7a63344c4449794e4334784d4441674d6a63304c6a63354e5342444944497a4d7934334d4455674d6a63344c6a67794e7977794d7a63754e446377494449334f5334314d5449734d6a4d334c6a457a4e5341794e7a63754d54593149454d674d6a4d324c6a6b344e7941794e7a59754d544d794c44497a4d4334314d7a55674d6a637a4c6a497a4f4377794d6a67754d7a4930494449334d7934794d544967517941794d6a63754e7a4d79494449334d7934794d4459734d6a49334c6a457a4e6941794e7a4d754d4449774c4449794e7934774d4441674d6a63794c6a67774d434244494449794e6934324e5455674d6a63794c6a49304d5377794d6a51754d6a5978494449334d6934794f546b734d6a497a4c6a59344d4341794e7a49754f446777494530794e5449754d7a4d7a494449334e5334324e6a5567517941794e5441754d6a6b78494449334e6934794d6a41734d6a51354c6a497a4e7941794e7a63754e4441344c4449314d4334774e5467674d6a63344c6a49794f534244494449314d4334344f5463674d6a63354c6a41324f5377794e5455754e544531494449334f4334314d5463734d6a55324c6a45314e5341794e7a63754e54417749454d674d6a55334c6a49774e4341794e7a55754f444d7a4c4449314e5334794d546b674d6a63304c6a67344d4377794e5449754d7a4d7a494449334e5334324e6a5567545449304e5334344e6a63674d6a67354c6a67324e794244494449304e5334304d5459674d6a6b774c6a4d784e7977794e4455754e546378494449354d6934304d5449734d6a51324c6a45314d7941794f544d754e7a517749454d674d6a51324c6a51314e7941794f5451754e444d7a4c4449304e7934774f5451674d6a6b324c6a59794d4377794e4463754e545935494449354f4334324d444167517941794e4467754d44513049444d774d4334314f4441734d6a51344c6a6b314e69417a4d4451754d5467774c4449304f5334314f5463674d7a41324c6a59774d434244494449314d4334794d7a63674d7a41354c6a41794d4377794e5445754d7a513449444d784d7934314f5445734d6a55794c6a41324e69417a4d5459754e7a553349454d674d6a557a4c6a4d7a4f53417a4d6a49754d7a63304c4449314d7934344e6a6b674d7a497a4c6a59774d4377794e5455754d44497849444d794d7934324d444167517941794e5459754d54453149444d794d7934324d4441734d6a55324c6a45774e69417a4d6a45754e5459324c4449314e4334354f5441674d7a45324c6a59334d694244494449314e43347a4e7a6b674d7a457a4c6a6b354d7977794e544d754e54593049444d784d4334784f4441734d6a557a4c6a45334f43417a4d4467754d6a417749454d674d6a55774c6a45344f5341794f5449754f4455784c4449304f4334784d4455674d6a67334c6a59794f4377794e4455754f445933494449344f5334344e6a636754544d354f5334794d4441674d7a41794c6a41774d43424449444d354f5334794d4441674d7a41794c6a51304d43777a4f546b754d7a677749444d774d6934344d4441734d7a6b354c6a59774d43417a4d4449754f44417749454d674d7a6b354c6a67794d43417a4d4449754f4441774c4451774d4334774d4441674d7a41794c6a51304d4377304d4441754d44417749444d774d6934774d444167517941304d4441754d44417749444d774d5334314e6a41734d7a6b354c6a67794d43417a4d4445754d6a41774c444d354f5334324d4441674d7a41784c6a49774d43424449444d354f53347a4f4441674d7a41784c6a49774d43777a4f546b754d6a417749444d774d5334314e6a41734d7a6b354c6a49774d43417a4d4449754d4441774945307a4f5463754d6a417749444d774e4334324f4459675179417a4f5459754e44593349444d774e4334354e5463734d7a6b774c6a55334f43417a4d5441754d5463784c444d344f5334794e5441674d7a45784c6a63794d79424449444d334e6934354e5467674d7a49324c6a41354f53777a4f4451754d7a593449444d7a4f53347a4d5467734d7a6b344c6a45774d43417a4d6a63754e544578494577674e4441774c6a41774d43417a4d6a55754f446334494451774d4334774d4441674d7a45354c6a59354d43424d494451774d4334774d4441674d7a457a4c6a55774d69417a4f546b754d54417749444d784e4334774f5463675179417a4f5467754e44497949444d784e4334314e4455734d7a6b344c6a45334d43417a4d5455754d5451354c444d354f4334774e7a67674d7a45324c6a55304e43424449444d354e7934354e7a41674d7a45344c6a45344f43777a4f5463754f444d3149444d784f4334304d6a49734d7a6b324c6a67334f43417a4d5467754e6a4d7849454d674d7a6b304c6a67774d53417a4d546b754d4467314c444d354e4334334e4463674d7a45354c6a45304d53777a4f5451754f44633249444d794d4334324f5463675179417a4f5451754f546b7a49444d794d6934784d546b734d7a6b314c6a41344d53417a4d6a49754d6a41334c444d354e6934314d4441674d7a49794c6a4d794e43424449444d354f4334314d546b674d7a49794c6a51354d53777a4f5467754d7a637849444d794d7934774e6a51734d7a6b314c6a63324d53417a4d6a55754d6a417749454d674d7a67324c6a41344d79417a4d7a4d754d5445334c444d344d6934304e5445674d7a49314c6a55774f53777a4f5441754f54673349444d784e5334794d4441675179417a4f5445754f44633049444d784e4334784d6a6b734d7a6b7a4c6a41314d43417a4d5449754e6a45314c444d354d7934324d4441674d7a45784c6a677a4e79424449444d354e4334784f4459674d7a45784c6a41774f43777a4f5455754d54677749444d784d4334794d7a45734d7a6b324c6a41774d43417a4d446b754f54597a49454d674d7a6b324c6a63334d43417a4d446b754e7a45784c444d354e7934354f4455674d7a41344c6a6b314d53777a4f5467754e7a417749444d774f4334794e7a5167517941304d4445754d44513449444d774e6934774e5441734e4441774c6a417a4f43417a4d444d754e6a4d304c444d354e7934794d4441674d7a41304c6a59344e69424e4d6a49354c6a63314e43417a4d5449754e54633349454d674d6a49354c6a45354f53417a4d5451754d44497a4c4449794f5334334e6a59674d7a45304c6a55354e5377794d7a49754d44413149444d784e4334344e445967517941794d7a4d754d6a457949444d784e4334354f4449734d6a4d314c6a637a4d43417a4d5455754e54557a4c44497a4e7934324d4441674d7a45324c6a45784e694244494449304d6934794d7a67674d7a45334c6a55784d7977794e4451754d444d3149444d784e7934334e5459734d6a51304c6a6b794d53417a4d5463754d54413449454d674d6a51324c6a45314d69417a4d5459754d6a41324c4449304e43347a4d6a67674d7a45314c6a41774e5377794d7a6b754f54677a49444d784d7934344e545167517941794d7a63754f44677a49444d784d7934794f5467734d6a4d314c6a59324e69417a4d5449754e6a557a4c44497a4e5334774e5463674d7a45794c6a51794d5342444944497a4d79347a4e7a67674d7a45784c6a63344d7977794d7a41754d44497749444d784d5334344f4449734d6a49354c6a63314e43417a4d5449754e546333494530794e4445754d44597a49444d794e4334304d7a4567517941794e4441754d446b7949444d794e5334344d5467734d6a51784c6a417a4d79417a4d6a59754e54517a4c4449304e5334334d4451674d7a49344c6a41774e794244494449304f4334334d5455674d7a49344c6a6b314d5377794e5441754d7a517a49444d794f5334774d544d734d6a55774c6a59314e79417a4d6a67754d546b3149454d674d6a55784c6a45794e69417a4d6a59754f54637a4c4449304f5334794f4463674d7a49314c6a63344d6977794e4455754d44417749444d794e4334314d7a4167517941794e444d754f54417749444d794e4334794d446b734d6a51794c6a63774e69417a4d6a4d754f44557a4c4449304d69347a4e4463674d7a497a4c6a637a4f534244494449304d5334354e5455674d7a497a4c6a59784e4377794e4445754e44517949444d794d7934344f5445734d6a51784c6a41324d79417a4d6a51754e444d78494530794e6a45754e44453149444d794e4334314d444167517941794e6a41754d7a453249444d794e6934774e6a6b734d6a59794c6a67314d79417a4d6a63754d5449334c4449324e4334324d5467674d7a49314c6a677a4e694244494449324e53347a4e7a55674d7a49314c6a49344d7977794e6a55754d7a633149444d794e5334794e5463734d6a59304c6a597a4d79417a4d6a51754e444d3249454d674d6a597a4c6a59304e43417a4d6a4d754d7a517a4c4449324d6934794d4455674d7a497a4c6a4d334d6977794e6a45754e44453149444d794e4334314d44416754544d354f4334334d4445674d7a49354c6a63344e79424449444d354e5334354f546b674d7a4d7a4c6a55774d69777a4f4441754f54413249444d304d6934314f4451734d7a63784c6a41774d43417a4e4459754e44553149454d674d7a59354c6a6b774d43417a4e4459754f4467314c444d324f4334304e6a41674d7a51334c6a51344e53777a4e6a63754f44417749444d304e7934334f4467675179417a4e6a59754e44457849444d304f4334304d6a59734d7a55314c6a49304e53417a4e5449754d4459324c444d314d6934774d4441674d7a55794c6a6b7a4f43424449444d314d4334334f5441674d7a557a4c6a49324d79777a4e4467754f546b7749444d314d7934334e446b734d7a51344c6a41774d43417a4e5451754d44453449454d674d7a51314c6a51774d69417a4e5451754e7a49794c444d7a4f4334774e4441674d7a55314c6a6b334d79777a4d7a59754e44417749444d314e5334354f4467675179417a4d7a55754e6a4d7749444d314e5334354f5455734d7a4d7a4c6a63304d43417a4e5459754d6a55354c444d7a4d6934794d4441674d7a55324c6a55334e53424449444d794e7934324e6a49674d7a55334c6a55774e79777a4d5449754d7a6b7949444d314e7934344e4441734d7a41354c6a49774d43417a4e5463754d44633349454d674d7a41334c6a63334d43417a4e5459754e7a4d314c444d774e4334784e7a41674d7a55324c6a4d304e69777a4d4445754d6a417749444d314e6934794d544d67517941794f5467754d6a4d7749444d314e6934774e7a6b734d6a6b304c6a597a4d43417a4e5455754e7a457a4c4449354d7934794d4441674d7a55314c6a4d354f434244494449354d5334334e7a41674d7a55314c6a41344e4377794f446b754d44637749444d314e4334314e4445734d6a67334c6a49774d43417a4e5451754d546b7849454d674d6a67794c6a6b304e69417a4e544d754d7a6b314c4449334e6934794e7a67674d7a55784c6a49334d5377794e7a49754d6a413449444d304f5334304d545967517941794e6a67754e6a493349444d304e7934334f4451734d6a59344c6a59324e69417a4e4463754e7a6b784c4449324e7934344d5441674d7a51344c6a59304f434244494449324e6934344d4445674d7a51354c6a59314e6977794e7a41754f44597a49444d314d6934344d4441734d6a637a4c6a45334e43417a4e5449754f44417749454d674d6a637a4c6a51774f43417a4e5449754f4441774c4449334d7934324d4441674d7a55794c6a6b344d4377794e7a4d754e6a417749444d314d7934794d444167517941794e7a4d754e6a417749444d314d7934304d6a41734d6a63304c6a41784e69417a4e544d754e6a41774c4449334e4334314d6a51674d7a557a4c6a59774d434244494449334e5334774d7a45674d7a557a4c6a59774d4377794e7a55754e7a6b3249444d314d7934344e6a51734d6a63324c6a49794e43417a4e5451754d54673349454d674d6a63334c6a49354e79417a4e5451754f546b354c4449334e5334794d444d674d7a55314c6a41794d6977794e7a45754f44493249444d314e4334794d7a5567517941794e6a63754e44413549444d314d7934794d4459734d6a59774c6a51794d69417a4e5449754e7a457a4c4449314d7934794d4441674d7a55794c6a6b794d534244494449304e6934774d5445674d7a557a4c6a45794e7977794e4451754d6a593249444d314d79347a4e4459734d6a4d344c6a51774d43417a4e5451754e7a677749454d674d6a4d794c6a6b354e79417a4e5459754d5441784c44497a4d6934774d4441674d7a55324c6a49784d4377794d7a49754d44417749444d314e5334304f444167517941794d7a49754d44417749444d314e5334784d7a55734d6a4d794c6a4d324e53417a4e5451754e7a4d344c44497a4d6934344d5445674d7a55304c6a55354e7942444944497a4d7934794e5463674d7a55304c6a51314e5377794d7a4d754f54453349444d314d7934344e5467734d6a4d304c6a49334e79417a4e544d754d6a637749454d674d6a4d314c6a41314d69417a4e5449754d4441324c44497a4e7934784e4459674d7a55774c6a41774d4377794d7a63754e6a6b7749444d314d4334774d444167517941794d7a67754d7a6b3049444d314d4334774d4441734d6a517a4c6a59774d43417a4e4451754d7a6b794c4449304d7934324d4441674d7a517a4c6a597a4e434244494449304d7934324d4441674d7a51784c6a6b304e5377794e4449754e44413149444d304d6934314e4445734d6a4d354c6a45354e53417a4e4455754f44493549454d674d6a4d334c6a4d344e53417a4e4463754e6a677a4c44497a4e5334344d4445674d7a51354c6a49774d4377794d7a55754e6a633049444d304f5334794d444167517941794d7a55754e54513349444d304f5334794d4441734d6a4d304c6a6b344e43417a4e446b754e6a51774c44497a4e4334304d6a49674d7a55774c6a45334f5342444944497a4d7934304e4463674d7a55784c6a45784d6977794d6a55754d7a593149444d314e6934304d4441734d6a49304c6a6b784d79417a4e5459754e44417749454d674d6a49304c6a63354e43417a4e5459754e4441774c4449794d79347a4e5467674d7a55334c6a4d784d6977794d6a45754e7a497a49444d314f4334304d6a6367517941794d6a41754d44673349444d314f5334314e4449734d6a45344c6a41334e69417a4e6a41754e6a6b784c4449784e7934794e544d674d7a59774c6a6b344d534244494449784e6934304d7a45674d7a59784c6a49334d5377794d5451754e6a673349444d324d6934774e7a59734d6a457a4c6a4d334f53417a4e6a49754e7a637749454d674d6a41354c6a6b314d43417a4e6a51754e5467344c4449774e7934784e7a63674d7a59314c6a6b354d5377794d4455754f44417749444d324e6934324d445567517941784f5467754e6a633149444d324f5334334f444d734d546b324c6a51304d43417a4e7a41754e7a41304c4445354d7934774d4441674d7a63784c6a67344d434244494445344e5334794f4467674d7a63304c6a55784e6977784e6a67754e7a553349444d334f4334304f4459734d5455354c6a67774d43417a4e7a6b754f44553049454d674d5455354c6a45304d43417a4e7a6b754f5455314c4445314e7934784e6a41674d7a67774c6a49354e4377784e5455754e44417749444d344d4334324d445967517941784e4463754d54517a49444d344d6934774e7a51734d5449794c6a45324e69417a4f4449754d5463304c4445784d4334304d4441674d7a67774c6a63344e694244494445774d7934774d6a45674d7a63354c6a6b784e6977354e5334344e7a63674d7a63344c6a63324e6977354d7934794d4441674d7a63344c6a41784f53424449446b794c6a517a4d43417a4e7a63754f4441304c4467354c6a51324d43417a4e7a59754f5467304c4467324c6a59774d43417a4e7a59754d546b3349454d674f4441754e7a513349444d334e4334314f4459734e7a59754f44417749444d334d7934794d6a59734e7a59754f44417749444d334d6934344d6a4167517941334e6934344d4441674d7a63794c6a59334d5377334e7934354e4455674d7a63794c6a45304e4377334f53347a4e4455674d7a63784c6a59304f534244494467344c6a6b314d43417a4e6a67754d6a55354c4467324c6a41314f53417a4e5463754e7a55324c44637a4c6a6b774d69417a4e5445754f44633349454d674e5459754e6a513249444d304d7934314d7a49734e4455754f44453249444d304e69347a4e5441734e5445754e54453549444d314e7934324f546b67517941314d7934304d7a41674d7a59784c6a55774d5377324d5334324e4463674d7a59344c6a67774d4377324e4334774d5463674d7a59344c6a67774d434244494459304c6a49304d43417a4e6a67754f4441774c4459314c6a51314d79417a4e6a6b754d7a49774c4459324c6a63784d53417a4e6a6b754f54553149454d674e6a6b754d6a553449444d334d5334794d7a6b734e7a45754d6a593349444d334d5334344e5449734e7a51754d54417749444d334d6934794d446b67517941334e6934774e7a59674d7a63794c6a51314f5377334e6934304e7a45674d7a63794c6a6b324e7977334e53347a4d7a55674d7a637a4c6a63354f434244494463304c6a55304f43417a4e7a51754d7a637a4c4463304c6a67314e69417a4e7a55754e5445774c4463314c6a67354d53417a4e7a55754f44557a49454d674e7a59754d6a677849444d334e5334354f4449734e7a67754d7a553549444d334e6934334f4467734f4441754e54457749444d334e7934324e445167517941354f5334324d6a51674d7a67314c6a49314e7977784d7a41754d44673249444d344e7934784d5455734d5459794c6a45794e79417a4f4449754e6a497849454d674d5459304c6a55774e69417a4f4449754d6a67334c4445324e6934324e4459674d7a67784c6a67354e5377784e6a59754f44677849444d344d5334334e544167517941784e6a63754d54453249444d344d5334324d4451734d5459344c6a51774f53417a4f4445754d7a51354c4445324f5334334e5455674d7a67784c6a45344d694244494445334d5334784d4441674d7a67784c6a41784e5377784e7a4d754e54557749444d344d4334304f5445734d5463314c6a49774d43417a4f4441754d44453549454d674d5463324c6a67314d43417a4e7a6b754e5451324c4445334f4334354d6a41674d7a63354c6a41784e5377784e7a6b754f44417749444d334f4334344d7a6b67517941784f4441754e6a677749444d334f4334324e6a4d734d5467784c6a67314d43417a4e7a67754d7a49784c4445344d6934304d4441674d7a63344c6a41334f434244494445344d6934354e5441674d7a63334c6a677a4e5377784f4455754d44497749444d334e7934794e4467734d5467334c6a41774d43417a4e7a59754e7a633049454d674d5467344c6a6b344d43417a4e7a59754d6a6b354c4445354d4334334f4441674d7a63314c6a63334d4377784f5445754d44417749444d334e5334314f546367517941784f5445754e444d3549444d334e5334794e544d734d6a417a4c6a51314e69417a4e7a45754d6a41774c4449774e4334774d7a6b674d7a63784c6a49774d434244494449774e5334784d7a49674d7a63784c6a49774d4377794d444d754e7a593549444d334d6934334f5463734d546b314c6a4d344f43417a4f4445754d7a517849454d674d546b784c6a41324e53417a4f4455754e7a51334c4445344e4334344e6a63674d7a6b7a4c6a67784e7977784f4449754f44497a49444d354e7934334d444167544341784f4445754e6a4579494451774d4334774d4441674d54677a4c6a49774e6941304d4441754d44417749454d674d5467304c6a41344e7941304d4441754d4441774c4445344e4334344d4441674d7a6b354c6a67774e5377784f4451754f44417749444d354f5334314e6a5567517941784f4451754f44417749444d354f4334354f444d734d5467334c6a41774d69417a4f5455754f4455314c4445344f5334784d4441674d7a6b7a4c6a51314e794244494445354d4334774d7a55674d7a6b794c6a4d344f4377784f5441754f44417749444d354d5334794f4455734d546b774c6a67774d43417a4f5445754d44413249454d674d546b774c6a67774d43417a4f5441754e7a49324c4445354d5334774f5463674d7a6b774c6a49314d5377784f5445754e44597849444d344f5334354e446b67517941784f5445754f44493049444d344f5334324e4467734d546b794c6a677a4f43417a4f4467754e444d784c4445354d7934334d5451674d7a67334c6a49304e694244494445354f4334314f4459674d7a67774c6a59314d4377794d5441754d6a593349444d334d4334344e446b734d6a45344c6a51304d43417a4e6a59754e446b3549454d674d6a49774c6a45784d79417a4e6a55754e6a41354c4449794d5334344d6a4d674d7a59304c6a59354d5377794d6a49754d6a517749444d324e4334304e546b67517941794d6a49754e6a553449444d324e4334794d6a63734d6a497a4c6a67784d43417a4e6a4d754e6a59794c4449794e4334344d4441674d7a597a4c6a49774e434244494449794e5334334f5441674d7a59794c6a63304e6977794d6a63754d7a497749444d324d5334354f5451734d6a49344c6a49774d43417a4e6a45754e544d7949454d674d6a4d314c6a41334f43417a4e5463754f5449314c4449304f5334304f4441674d7a55314c6a41354e7977794e5463754e54417749444d314e5334334f444167517941794e546b754e44493149444d314e5334354e444d734d6a59794c6a4d334f53417a4e5459754d544d794c4449324e4334774e6a51674d7a55324c6a49774d434244494449324e5334334e446b674d7a55324c6a49324e7977794e6a63754e7a493549444d314e6934314d5445734d6a59344c6a51324e43417a4e5459754e7a517849454d674d6a63774c6a45794e69417a4e5463754d6a597a4c4449334e4334314d7a4d674d7a55344c6a51794d4377794e7a59754e44417749444d314f4334344d6a5567517941794e7a63754f44493549444d314f5334784d7a55734d6a677a4c6a59354f53417a4e6a45754d6a49344c4449344e5334774e5449674d7a59784c6a6b784d434244494449344e5334304e6a4d674d7a59794c6a45784e7977794f4463754d54557749444d324d6934354e4449734d6a67344c6a67774d43417a4e6a4d754e7a517949454d674d7a41774c6a55334f43417a4e6a6b754e4455314c444d784e4334304d546b674d7a67784c6a67324f43777a4d6a51754f546b7849444d354e6934794d4441675179417a4d6a55754e6a517749444d354e7934774f4441734d7a49324c6a51774d79417a4f5467754d444d344c444d794e6934324f4459674d7a6b344c6a4d794f53424449444d794e6934354e6a67674d7a6b344c6a59784f53777a4d6a63754d6a417749444d354f5334784d5451734d7a49334c6a49774d43417a4f546b754e44493549454d674d7a49334c6a49774d43417a4f546b754f4455314c444d794e7934334e6a41674e4441774c6a41774d43777a4d6a6b754e444177494451774d4334774d4441675179417a4d7a49754d544178494451774d4334774d4441734d7a4d794c6a45774d5341304d4441754d4445344c444d794f5334304d4455674d7a6b324c6a49324d43424449444d794d4334784f444d674d7a677a4c6a51774e79777a4d446b754f54633149444d334d7934784d7a55734d6a6b354c6a45334d79417a4e6a55754f444d3549454d674d6a6b7a4c6a63324e69417a4e6a49754d5467334c4449344d7934344e6a41674d7a55334c6a49774d4377794f4449754d44457a49444d314e7934794d444167517941794f4445754e546b7949444d314e7934794d4441734d6a67784c6a457a4e69417a4e5463754d4449774c4449344d5334774d4441674d7a55324c6a67774d434244494449344d4334314e546b674d7a55324c6a41344e7977794f444d754e44633149444d314e69347a4e6a63734d6a67324c6a6b304d69417a4e5463754d7a637949454d674d6a67344c6a63344e79417a4e5463754f5441334c4449354d5334314d7a55674d7a55344c6a557a4d6977794f544d754d44513449444d314f4334334e6a4967517941794f5451754e54597949444d314f4334354f5445734d6a6b334c6a59774d43417a4e546b754e5459774c4449354f5334344d4441674d7a59774c6a41794e53424449444d774e4334784f4467674d7a59774c6a6b314d69777a4d4455754d44457949444d324d4334354f4449734d7a45324c6a51774d43417a4e6a41754e6a493049454d674d7a49314c6a4d354f53417a4e6a41754d7a51784c444d7a4e5334314d4441674d7a55354c6a55774e43777a4e4441754e44417749444d314f4334324d7a55675179417a4e4449754d6a637749444d314f43347a4d4451734d7a51314c6a4d7a4d43417a4e5463754e7a59784c444d304e7934794d4441674d7a55334c6a51794f43424449444d304f5334774e7a41674d7a55334c6a41354e69777a4e5449754d44517749444d314e6934304d7a6b734d7a557a4c6a67774d43417a4e5455754f54593449454d674d7a55314c6a55324d43417a4e5455754e446b334c444d314e7934304e5441674d7a55314c6a41784f43777a4e5467754d44417749444d314e4334354d4449675179417a4e5467754e54557749444d314e4334334f4463734d7a55354c6a45344d43417a4e5451754e5459794c444d314f5334304d4441674d7a55304c6a51774d53424449444d314f5334324d6a41674d7a55304c6a49304d53777a4e6a41754d7a517749444d314d7934354f4451734d7a59784c6a41774d43417a4e544d754f44493549454d674d7a59324c6a4d314d69417a4e5449754e5463324c444d344d43347a4e5451674d7a51324c6a51784f53777a4f444d754e7a4d3349444d304d7934344d7a41675179417a4f4451754f44417a49444d304d7934774d5455734d7a67324c6a51794d79417a4e4445754f5463784c444d344e79347a4d7a63674d7a51784c6a55784d43424449444d344f4334794e5449674d7a51784c6a41304f53777a4f446b754e54637a49444d304d4334794e5445734d7a6b774c6a49334d79417a4d7a6b754e7a4d3249454d674d7a6b784c6a6b354e79417a4d7a67754e4459354c444d354d6934334f546b674d7a4d344c6a55794d53777a4f5449754f44413049444d7a4f5334354d4441675179417a4f5449754f44413349444d304d4334314d4455734d7a6b794c6a6b784e69417a4e4445754e6a51354c444d354d7934774e4463674d7a51794c6a51304d69424449444d354d7934794e544d674d7a517a4c6a59344d79777a4f544d754d54457949444d304e4334774e6a49734d7a6b794c6a41304d79417a4e4455754d54553249454d674d7a6b774c6a597a4f53417a4e4459754e546b794c444d354d4334314d5449674d7a51334c6a51344d79777a4f5445754e44557849444d304f5334794f5467675179417a4f5449754d44553049444d314d4334304e6a59734d7a6b794c6a41314d69417a4e5441754e7a417a4c444d354d5334304d5463674d7a55794c6a55334f43424449444d354d4334774d6a51674d7a55324c6a59344f53777a4f4467754d6a457a49444d324d4334324d6a55734d7a67334c6a4d784f53417a4e6a45754e44677849454d674d7a67324c6a67784e43417a4e6a45754f5459314c444d344e6934304d4441674d7a59794c6a63304e43777a4f4459754e44417749444d324d7934794d5445675179417a4f4459754e44417749444d324e4334774e7a6b734d7a677a4c6a4d794e53417a4e6a6b754e6a41774c444d344d6934344e4449674d7a59354c6a59774d43424449444d344d6934324f5455674d7a59354c6a59774d43777a4f4449754d7a4d7a49444d334d4334784f4455734d7a67794c6a417a4e79417a4e7a41754f54417749454d674d7a67784c6a59784d69417a4e7a45754f5449314c444d344d5334304e546b674d7a63794c6a41304e53777a4f4445754d7a453049444d334d5334304e7a41675179417a4f4445754d6a457a49444d334d5334774e6a6b734d7a67784c6a51784e69417a4e7a41754e4449314c444d344d5334334e6a55674d7a63774c6a417a4f53424449444d344d6934784d5451674d7a59354c6a59314d79777a4f4449754e44417749444d324f5334774d6a51734d7a67794c6a51774d43417a4e6a67754e6a517949454d674d7a67794c6a51774d43417a4e6a67754d6a59774c444d344d6934324d4441674d7a59334c6a55334e43777a4f4449754f44513049444d324e7934784d5463675179417a4f4455754d7a453049444d324d6934314d444d734d7a67334c6a41774f43417a4e4463754d7a59344c444d344e5334784e6a55674d7a51324c6a4d344d53424449444d344d7934334f4467674d7a51314c6a59304e53777a4f444d754d6a417749444d304e6934334e7a4d734d7a677a4c6a49774d43417a4e5441754d54557949454d674d7a677a4c6a49774d43417a4e5451754f4445314c444d344d53347a4f4467674d7a59794c6a49314d53777a4e7a67754f54677949444d324e7934304e6a41675179417a4e7a67754e6a597949444d324f4334784e5451734d7a63344c6a51774d43417a4e6a67754f4451314c444d334f4334304d4441674d7a59344c6a6b354f43424449444d334f4334304d4441674d7a59354c6a49354e43777a4e7a59754d6a6b3349444d334d7934314d6a45734d7a637a4c6a63794d79417a4e7a67754e44417749454d674d7a63774c6a59784d69417a4f4451754d6a6b334c444d324d7934334f4445674d7a6b794c6a67314e79777a4e6a41754d54553449444d354e5334304d4441675179417a4e546b754e544d7849444d354e5334344e4441734d7a55344c6a59344f43417a4f5459754d6a6b774c444d314f4334794f4455674d7a6b324c6a51774d43424449444d314e7934344f4449674d7a6b324c6a55784d43777a4e5463754e54553049444d354e6934334f4441734d7a55334c6a55314e53417a4f5463754d44417749454d674d7a55334c6a55324d43417a4f5463754f4445334c444d314f4334334f5445674d7a6b334c6a59784e43777a4e6a41754e444d3549444d354e6934314d6a51675179417a4e6a45754d7a637949444d354e5334354d4459734d7a59794c6a67324e43417a4f5451754f546b774c444d324d7934334e5451674d7a6b304c6a51344f43424449444d324e53347a4f5451674d7a6b7a4c6a55324d79777a4e7a41754e54553249444d344f4334304d7a49734d7a63794c6a457a4e69417a4f4459754d54553249454d674d7a63794c6a59784d53417a4f4455754e4463794c444d334d7934344e546b674d7a677a4c6a59304e69777a4e7a51754f54413549444d344d6934774f5467675179417a4e7a63754d6a6b7a49444d334f4334314f4449734d7a63334c6a63354e53417a4e7a67754d544d794c444d334f4334314f5455674d7a63344c6a63354e69424449444d334f5334334e4463674d7a63354c6a63314d69777a4f4451754d44417749444d334e6934334d4449734d7a67304c6a41774d43417a4e7a51754f54453549454d674d7a67304c6a41774d43417a4e7a4d754f544d354c444d344e6934334d5459674d7a63774c6a51784f43777a4f4463754d54413049444d334d4334344f5455675179417a4f4467754e6a417849444d334d6934334e4441734d7a67344c6a6b354f53417a4f4441754f5451334c444d344e7934324d4441674d7a67784c6a457a4e43424449444d344e6934774d444d674d7a67784c6a4d304f43777a4f4455754f44553549444d344d5334334e5467734d7a67314c6a6b7a4f53417a4f4455754f44673449454d674d7a67324c6a41784e69417a4f446b754f4463774c444d344e5334314e6a55674d7a6b7a4c6a45354f43777a4f4451754d54633149444d354f4334354d4441675179417a4f444d754f54457949444d354f5334354f4441734d7a677a4c6a6b304d5341304d4441754d4441774c444d344e5334334e544d674e4441774c6a41774d43424449444d344e7934304d4441674e4441774c6a41774d43777a4f4463754e6a417849444d354f5334354d444d734d7a67334c6a59774e69417a4f546b754d54417749454d674d7a67334c6a59774f53417a4f5467754e6a41314c444d344e7934344f5459674d7a6b334c6a4d354d43777a4f4467754d6a513049444d354e6934304d4441675179417a4f4467754e546b3549444d354e53347a4f4467734d7a67354c6a41774f43417a4f5449754d7a49304c444d344f5334784e7a67674d7a67354c6a51774d43424449444d344f53347a4e4451674d7a67324c6a55304d43777a4f446b754e54413349444d344e5334784e5463734d7a67354c6a55304d43417a4f4459754d7a493249454d674d7a67354c6a59784e53417a4f4467754f5459344c444d354d4334784d7a63674d7a6b774c6a41774d43777a4f5445754e44417749444d354d4334774d4441675179417a4f5449754f544d7949444d354d4334774d4441734d7a6b7a4c6a4d7a4d79417a4f4467754e7a67354c444d354d6934344d7a59674d7a67314c6a59324f53424449444d354d6934324d4449674d7a67304c6a49774d53777a4f5449754d7a457a49444d344d6934794f4441734d7a6b794c6a45354e43417a4f4445754e44417749454d674d7a6b794c6a41334e53417a4f4441754e5449774c444d354d5334324d5449674d7a63334c6a45354d43777a4f5445754d54593149444d334e4334774d4441675179417a4f446b754e7a633549444d324e4334784d4441734d7a67354c6a63344d43417a4e6a51754e44457a4c444d354d5334784d5463674d7a59784c6a63314e69424449444d354d5334334e6a67674d7a59774c6a51324d43777a4f5449754e44453549444d314f4334344e544d734d7a6b794c6a55324e43417a4e5467754d54673049454d674d7a6b794c6a63774f43417a4e5463754e5445314c444d354d7934784f5445674d7a55324c6a4d324f43777a4f544d754e6a4d3349444d314e5334324d7a59675443417a4f5451754e44513249444d314e43347a4d4451674d7a6b314c6a51794d79417a4e5455754d6a497949454d674d7a6b324c6a6b354e69417a4e5459754e7a41774c444d354e6934334d4467674d7a59774c6a41774d43777a4f5455754d44413249444d324d4334774d4441675179417a4f544d754d44413549444d324d4334774d4441734d7a6b794c6a63774d43417a4e6a4d754d6a59314c444d354e4334784f5449674d7a59344c6a59774d43424449444d354e5334784f446b674d7a63794c6a45324e53777a4f5459754e44417749444d334e7934344d5445734d7a6b324c6a51774d43417a4e7a67754f446b3249454d674d7a6b324c6a51774d43417a4e7a6b754e4463334c444d354e6934314f4441674d7a67774c6a41324e43777a4f5459754f44417749444d344d4334794d4441675179417a4f5463754d44497749444d344d43347a4d7a59734d7a6b334c6a49774d43417a4f4441754f4459344c444d354e7934794d4441674d7a67784c6a4d344d69424449444d354e7934794d4441674d7a67794c6a51314f53777a4f546b754e44497949444d354d5334354e5455734d7a6b354c6a63314d53417a4f5449754d6a673049454d674d7a6b354c6a67334d53417a4f5449754e4441314c444d354f5334354e7a49674d7a677a4c6a6b354e43777a4f546b754f54633149444d334d7934314f5455675443417a4f546b754f54677849444d314e4334324f4459674d7a6b334c6a6b7a4e79417a4e5449754d7a4933494577674d7a6b314c6a67354d79417a4e446b754f54593349444d354e6934784e6a59674d7a51324c6a55354f53424449444d354e6934314d544d674d7a51794c6a4d784f43777a4f5455754f546b7a49444d304d4334784f4459734d7a6b304c6a4d334f43417a4d7a6b754d6a593449454d674d7a6b7a4c6a637a4d79417a4d7a67754f5441774c444d354d7934794d4451674d7a4d344c6a51774f53777a4f544d754d6a417a49444d7a4f4334784e7a59675179417a4f544d754d6a417749444d7a4e7934334f4445734d7a6b334c6a51304f43417a4d7a51754e6a6b7a4c444d354f5334794d5451674d7a4d7a4c6a67774e53424449444d354f5334344e546b674d7a4d7a4c6a51344d5377304d4441754d44417749444d7a4d6934354f5455734e4441774c6a41774d43417a4d7a45754d54413149454d674e4441774c6a41774d43417a4d6a67754e5467784c444d354f5334334e5463674d7a49344c6a4d7a4e43777a4f5467754e7a417849444d794f5334334f446367545449314d4334354d5449674d7a4d354c6a51774f534244494449304e7934794d4451674d7a517a4c6a45324e7977794e4459754e546b7849444d304e4334344e6a41734d6a51344c6a67304e43417a4e4455754d54497849454d674d6a55774c6a67794f53417a4e4455754d7a55794c4449314e6934304d4455674d7a4d344c6a63774e5377794e5455754f44413349444d7a4e6934344d6a4567517941794e5455754d7a557949444d7a4e53347a4f4467734d6a55304c6a4d324d79417a4d7a55754f5445784c4449314d4334354d5449674d7a4d354c6a51774f53424e4d6a55334c6a4d324d43417a4d7a67754e7a413249454d674d6a55324c6a45774e53417a4d7a6b754e5451304c4449314e5334314e446b674d7a51794c6a55344f5377794e5459754e44677749444d304d7934314d6a4167517941794e5463754f44517949444d304e4334344f4449734d6a55354c6a59774d43417a4e444d754e446b784c4449314f5334324d4441674d7a51784c6a41314d534244494449314f5334324d4441674d7a4d344c6a67314d7977794e5467754e6a517949444d7a4e7934344e5441734d6a55334c6a4d324d43417a4d7a67754e7a4132494530324d4334324e6a45674d7a55774c6a51314e434244494459784c6a6b304f43417a4e5441754e6a67344c44597a4c6a55304d43417a4e5441754f5459354c4459304c6a49774d43417a4e5445754d44633449454d674e6a6b754e44633549444d314d5334354e544d734e7a6b754d54677949444d314f4334334f5463734f4445754d54673249444d324d7934774e546b67517941344d7934324e6a63674d7a59344c6a4d7a4f4377334f4334794e4455674d7a63774c6a63784d7977324f5334354d4441674d7a59344c6a41774d694244494459334c6a45324d53417a4e6a63754d54457a4c4459324c6a59304e43417a4e6a59754e446b314c4459334c6a67784f53417a4e6a55754e54453249454d674e7a41754e6a673349444d324d7934784d6a55734e7a45754d544d3149444d324d5334304f5445734e6a67754f54677749444d324d5334794f444567517941324f4334784e4467674d7a59784c6a45354f5377324e7934314d6a4d674d7a59784c6a51794d6977324e7934774d5467674d7a59784c6a6b344d534244494459324c6a45344e53417a4e6a49754f5441774c4459304c6a67774d43417a4e6a4d754d4467784c4459304c6a67774d43417a4e6a49754d6a637749454d674e6a51754f44417749444d324d5334354e7a67734e6a55754d6a557749444d324d53347a4d5463734e6a55754f44417749444d324d4334344d444167517941324e6934354d546b674d7a55354c6a63304f4377324e7934784d4441674d7a55344c6a4d304e7977324e6934794d5445674d7a55334c6a59774f534244494459314c6a45304d43417a4e5459754e7a49784c4459784c6a59774d43417a4e546b754e5467794c4459784c6a59774d43417a4e6a45754d7a4d3349454d674e6a45754e6a417749444d324e43347a4f4441734e544d754f44553449444d314e7934784f444d734e544d754d444d3049444d314d79347a4e7a5167517941314d6934314e446b674d7a55784c6a457a4d4377314e4334354f4449674d7a51354c6a49354e5377314e7934324e6a45674d7a51354c6a67344e434244494455344c6a41794e53417a4e446b754f5459304c4455354c6a4d334e53417a4e5441754d6a49784c4459774c6a59324d53417a4e5441754e445530494530794e7a6b754d7a497a49444d314e5334324d7a6367517941794e7a67754f54513549444d314e6934774d5445734d6a63334c6a49774d43417a4e5455754e6a63774c4449334e7934794d4441674d7a55314c6a49794d794244494449334e7934794d4441674d7a55314c6a41324e6977794e7a63754e7a553049444d314e5334774d6a41734d6a63344c6a517a4d43417a4e5455754d54453549454d674d6a63354c6a45774e79417a4e5455754d6a45344c4449334f5334314d446b674d7a55314c6a51314d5377794e7a6b754d7a497a49444d314e5334324d7a6367545449314e6934304f4441674d7a59774c6a51344d434244494449314e5334314f5455674d7a59784c6a4d324e5377794e5455754f54673349444d324d6934794d5441734d6a55334c6a63794d43417a4e6a4d754d54553249454d674d6a59774c6a49334f53417a4e6a51754e5455304c4449324d69347a4e6a6b674d7a59334c6a63344d7977794e6a51754d6a497a49444d334d7934794d444167517941794e6a59754d7a6b3049444d334f5334314e4455734d6a59334c6a497a4e53417a4f444d754d4467774c4449324e7934794e5455674d7a67314c6a6b304e434244494449324e7934794e6a45674d7a67324c6a6b774d7977794e6a63754e54497949444d344f4334304d5445734d6a59334c6a677a4d79417a4f446b754d6a6b3049454d674d6a59344c6a45304e53417a4f5441754d5463344c4449324f4334304d4441674d7a6b784c6a67304d6977794e6a67754e44417749444d354d6934354f544967517941794e6a67754e44417749444d354e4334784e4449734d6a59344c6a55784e69417a4f5459754d5467354c4449324f4334324e5463674d7a6b334c6a55304d53424d494449324f4334354d5451674e4441774c6a41774d4341794e7a41754d6a5533494451774d4334774d444167544341794e7a45754e6a4177494451774d4334774d4441674d6a63784c6a55334e79417a4f5459754f54417749454d674d6a63784c6a55314e43417a4f544d754f5451304c4449334d4334354d5463674d7a67344c6a41784e7977794e7a41754d44453249444d344d6934304d444167517941794e6a67754f546b7a49444d334e6934774d5459734d6a59314c6a49774e53417a4e6a59754e6a63304c4449324d5334344f5441674d7a59794c6a4d314f434244494449324d4334324f4463674d7a59774c6a63354d6977794e5463754d7a4d7949444d314f5334324d6a67734d6a55324c6a51344d43417a4e6a41754e4467774945307a4f5467754d7a633149444d324f4334334d4441675179417a4f5467754d7a557a49444d334d4334794f5441734d7a6b344c6a49344f43417a4e7a41754e4451344c444d354e7934354e7a55674d7a59354c6a59324e79424449444d354e7934324e444d674d7a59344c6a677a4f53777a4f5463754f444d3049444d324e6934344d4441734d7a6b344c6a49304d79417a4e6a59754f44417749454d674d7a6b344c6a4d7a4d43417a4e6a59754f4441774c444d354f43347a4f446b674d7a59334c6a59314e53777a4f5467754d7a633149444d324f4334334d444167545459334c6a45774d43417a4f4441754d444d7a49454d674e6a51754e6a637949444d344d5334304e4451734e6a67754d6a4d7849444d344f5334794f4449734e7a51754e7a557949444d354e6934344f446767544341334e7934304d4441674d7a6b354c6a6b334e5341334f5334334e4459674d7a6b354c6a6b344f43424d494467794c6a41354d6941304d4441754d444177494467784c6a4d344f43417a4f5467754f54493249454d674f4445754d44417849444d354f43347a4d7a55734e7a6b754e6a457849444d354e6934334d6a6b734e7a67754d6a6b3449444d354e53347a4e545967517941334e4334324f4451674d7a6b784c6a55334e7977334d6934344e6a55674d7a67344c6a6b344d4377334d4334354d4455674d7a67304c6a67774d434244494459344c6a55304e53417a4e7a6b754e7a59334c4459344c6a55354f43417a4e7a6b754f4459304c4459344c6a45334d53417a4e7a6b754e7a4d3349454d674e6a63754f54593349444d334f5334324e7a59734e6a63754e44673149444d334f5334344d446b734e6a63754d54417749444d344d4334774d7a4d67545459324c6a59314d53417a4f5467754e6a457849454d674e6a59754d6a417749444d354f5334334f4463734e6a59754d7a6777494451774d4334774d4441734e6a63754f444934494451774d4334774d444167517941324f5334774f4441674e4441774c6a41774d4377324f5334794e4441674d7a6b354c6a67344f5377324f5334784d6a67674d7a6b354c6a45774d434244494459344c6a6b324f43417a4f5463754f5463314c4459334c6a41304d53417a4f5463754e546b314c4459324c6a59314d53417a4f5467754e6a457849434967633352796232746c50534a756232356c4969426d615778735053496a4d5449784f5442694969426d615778734c584a3162475539496d56325a5735765a47516949484e306557786c505349694c7a344b49434167494478775958526f49476c6b50534a775958526f4d7949675a443069545445344e7934774d4455674e4445754e44637949454d674d5467324c6a45794f4341304d5334314e7a55734d5467314c6a49774f5341304d5334344d6a63734d5467304c6a6b324d7941304d6934774d7a4567517941784f4451754e7a4533494451794c6a497a4e5377784f444d754e6a4d31494451794c6a67324f5377784f4449754e5455344944517a4c6a51304d534244494445334f5334774f4451674e4455754d6a67304c4445334e5334304e5449674e4467754e6a557a4c4445334d7934334f446b674e5445754e54633149454d674d54637a4c6a4d784d7941314d6934304d544d734d5463794c6a59784d6941314d7934774e544d734d5463794c6a41344f5341314d7934784d6a6767517941784e7a41754f5455314944557a4c6a49354d5377784e7a41754f5463794944557a4c6a59314e4377784e7a49754d6a4177494455314c6a59774d434244494445334d6934334e5441674e5459754e4463784c4445334d7934794d4441674e5463754d7a59344c4445334d7934794d4441674e5463754e546b7949454d674d54637a4c6a49774d4341314e7934344d5459734d54637a4c6a4d314f4341314f4334774d4441734d54637a4c6a55314d5341314f4334774d444167517941784e7a4d754e7a5131494455344c6a41774d4377784e7a51754d544933494455344c6a55304d4377784e7a51754e444177494455354c6a49774d434244494445334e53347a4d7a55674e6a45754e4455344c4445334e6934774d4441674e6a41754e6a6b314c4445334e6934774d4441674e5463754d7a593149454d674d5463324c6a41774d4341314d7934784e4459734d5463334c6a67794d5341314d43347a4e4459734d5467794c6a63774e4341304e7934774e546367517941784f4459754e7a4177494451304c6a4d324e5377784f4459754f546731494451304c6a4d7a4e7977784f446b754d444535494451324c6a51784e794244494445354d4334314f546b674e4467754d444d304c4445354d4334324d4441674e4467754d444d334c4445354d4334344d4441674e5445754f544533494577674d546b784c6a41774d4341314e5334344d4441674d546b794c6a6b324f4341314e5334344d444167517941784f5455754e6a4d31494455314c6a67774d4377784f5463754d444d7a4944557a4c6a55324f5377784f5459754e6a417a494455774c6a41774d434244494445354e6934304e5463674e4467754e7a6b774c4445354e6934794e6a6b674e4463754d6a45314c4445354e6934784f4459674e4459754e54417749454d674d546b314c6a6b334d6941304e4334324e7a4d734d546b324c6a557a4d7941304e4334344e6a59734d546b354c6a41784f5341304e7934304e7a5167517941794d4445754d446b33494451354c6a59314e4377794d4445754f544131494455774c6a41324d5377794d4445754d7a5933494451344c6a59314e794244494449774d5334794d6a67674e4467754d6a6b324c4449774d4334354e5451674e4467754d4441774c4449774d4334334e5463674e4467754d44417749454d674d6a41774c6a55324d5341304f4334774d4441734d6a41774c6a51774d4341304e7934334f5451734d6a41774c6a51774d4341304e7934314e444d67517941794d4441754e444177494451334c6a49354d5377784f546b754d544132494451314c6a677a4d6977784f5463754e544930494451304c6a4d774d43424d494445354e4334324e446b674e4445754e544530494445354d5334324d6a51674e4445754d7a6b3549454d674d5467354c6a6b324d5341304d53347a4d7a59734d5467334c6a67344d6941304d53347a4e6a6b734d5467334c6a41774e5341304d5334304e7a4967545445304d6934344e6a55674e444d754e7a6b3049454d674d5451784c6a51334d4341304e4334794f5467734d5451774c6a45794f5341304e4334354d5445734d544d354c6a67344e5341304e5334784e545567517941784d7a6b754e6a5177494451314c6a51774d4377784d7a6b754d7a4530494451314c6a59774d4377784d7a6b754d545977494451314c6a59774d4342444944457a4e6934334e546b674e4455754e6a41774c4445794e6934354d7a4d674e5455754e54677a4c4445794e4334354f4459674e6a41754d44417749454d674d5449304c6a4d314e6941324d5334304d7a41734d54497a4c6a55324f4341324d7934774d7a49734d54497a4c6a497a4e4341324d7934314e6a4567517941784d6a49754d7a6377494459304c6a6b7a4d5377784d6a41754f444130494459344c6a67334e4377784d6a41754f444179494459354c6a59344e694244494445794d4334344d4445674e7a41754d44597a4c4445794d4334314d6a4d674e7a45754d5467344c4445794d4334784f4455674e7a49754d54673049454d674d5445354c6a67304e6941334d7934784f4445734d5445354c6a51774f4341334e5334784d6a49734d5445354c6a49784d6941334e6934304f546767517941784d546b754d444531494463334c6a67334e4377784d5467754e545534494463354c6a6b354d4377784d5467754d546b31494467784c6a49774d434244494445784e7934344d7a4d674f4449754e4445774c4445784e79347a4d5449674f4451754d7a41774c4445784e7934774d7a67674f4455754e44417749454d674d5445324c6a51334f4341344e7934324e4451734d5445314c6a4d314d7941354d4334774d4441734d5445304c6a67304d6941354d4334774d444167517941784d5451754e6a553349446b774c6a41774d4377784d5451754e54497749446b784c6a63314e5377784d5451754e544d3449446b7a4c6a6b774d434244494445784e4334314e5467674f5459754d6a51324c4445784e43347a4d4467674f5467754f5445324c4445784d7934354d5441674d5441774c6a59774d434244494445784d7934794e6a49674d54417a4c6a4d304e5377784d5449754d7a4d7a494445784d5334344d7a67734d5445794c6a4d7a4e5341784d5455754d44417749454d674d5445794c6a4d7a4e6941784d5459754e7a63354c4445784d5334324e5459674d5449774c6a4d344d5377784d5445754d6a4179494445794d5334774d444167517941784d5441754f544d78494445794d53347a4e6a6b734d5445774c6a51334d5341784d6a67754e6a67324c4445784d4334784e7a41674d544d334c6a51774d434244494445774f5334354f544d674d5451794c6a557a4e4377784d446b754d7a4579494445304e5334304d6a41734d5441344c6a45314e5341784e4455754f54513449454d674d5441334c6a4d304d4341784e4459754d7a45354c4445774e7934794e7a6b674d5451324c6a55774e6977784d4463754e6a4d30494445304e7934314d6a5567517941784d4467754f545178494445314d5334794e7a59734d5441314c6a6b344d6941784e5459754e5467344c4445774d7934354e446b674d5455304c6a457a4f434244494445774d6934304e5441674d5455794c6a4d7a4d6977784d444d754e6a4132494445304e6934304d4441734d5441314c6a51314e7941784e4459754e44417749454d674d5441324c6a497a4d5341784e4459754e4441774c4445774e6934304d6a55674d5451324c6a49304d7977784d4459754d6a517a494445304e5334334e6a6367517941784d4459754d544135494445304e5334304d546b734d5441324c6a41774d4341784e4451754e7a67304c4445774e6934774d4441674d5451304c6a4d314e534244494445774e6934774d4441674d54517a4c6a49314e6977784d4451754f54457a494445304d6934354e6a6b734d54417a4c6a51304f4341784e444d754e6a677749454d674f5467754d544d78494445304e6934794e6a49734f5467754e546779494445304e6934774d4451734f5451754d545533494445304f4334354f544567517941354d6934344e6a45674d5451354c6a67324e7977354d4334344d5441674d5455784c6a41344d4377344f5334324d4441674d5455784c6a59344e794244494467324c6a59304d4341784e544d754d5463794c4467324c6a63794f5341784e544d754d5445784c4463354c6a67774d4341784e5467754d7a633349454d674e7a67754e7a4177494445314f5334794d544d734e7a59754e7a4579494445324d5334774e4455734e7a55754d7a677a494445324d6934304e446b67517941334e4334774e544d674d54597a4c6a67314d6977334d4334334f4451674d5459334c6a45794d7977324f4334784d546b674d5459354c6a63784f434244494459314c6a51314d7941784e7a49754d7a457a4c44597a4c6a45334d5341784e7a51754e6a6b344c44597a4c6a41304f4341784e7a55754d44453449454d674e6a49754f544932494445334e53347a4d7a67734e6a49754e6a4d35494445334e5334324d4441734e6a49754e44457a494445334e5334324d444167517941324d6934784f4459674d5463314c6a59774d4377324d6934774d4441674d5463314c6a6b304e7977324d6934774d4441674d5463324c6a4d334d534244494459794c6a41774d4341784e7a63754e7a4d7a4c4459774c6a67354f4341784e7a67754e4441774c4455344c6a59314d5341784e7a67754e44417749454d674e5463754e544178494445334f4334304d4441734e5459754d7a6735494445334f4334314e6a67734e5459754d546777494445334f4334334e7a4967517941314e5334334e7a55674d5463354c6a45324f5377304f5334344e7a4d674d5467774c6a63354f4377304f4334344d6a55674d5467774c6a67774d694244494451344c6a51344d5341784f4441754f4441304c4451334c6a637a4e5341784f4445754d4451344c4451334c6a45324e6941784f4445754d7a513049454d674e4459754e546b33494445344d5334324e4445734e4455754d445933494445344d6934784f544d734e444d754e7a5932494445344d6934314e7a4967517941304d6934304e6a55674d5467794c6a6b314d4377304d4334324f4441674d54677a4c6a59774e43777a4f5334344d4441674d5467304c6a41794e53424449444d344c6a6b794d4341784f4451754e4451314c444d334c6a45794d4341784f4455754d4467344c444d314c6a67774d4341784f4455754e44557849454d674d7a51754e446777494445344e5334344d5455734d7a49754d7a4977494445344e6934324e4455734d7a45754d444177494445344e7934794f545967517941794f5334324f4441674d5467334c6a6b304e7977794e7934304d7a41674d5467354c6a41304e6977794e6934774d4441674d5467354c6a63304d434244494449304c6a55334d4341784f5441754e444d7a4c4449794c6a67784d6941784f5445754e446b794c4449794c6a41354d7941784f5449754d446b3049454d674d6a45754d7a6330494445354d6934324f5459734d6a41754d7a4d35494445354d79347a4d4445734d546b754e7a6b7a494445354d7934304d7a6767517941784f5334794e4463674d546b7a4c6a55334e5377784f4334344d4441674d546b7a4c6a677a4e5377784f4334344d4441674d546b304c6a41784e694244494445344c6a67774d4341784f5451754d546b344c4445344c6a51324d4341784f5451754e4455304c4445344c6a41304e5341784f5451754e54673249454d674d5463754e6a4d77494445354e4334334d5467734d5455754e544930494445354e5334354f5441734d544d754d7a5931494445354e7934304d544d67517941784d5334794d4463674d546b344c6a677a4e6977354c6a49344e6941794d4441754d4441774c446b754d446b33494449774d4334774d444167517941344c6a59354e7941794d4441754d4441774c4455754e445931494449774d6934304e5449734e5334794e6a51674d6a41794c6a6b774f434244494455754d546735494449774d7934774e7a67734e4334324d4459674d6a417a4c6a51344e69777a4c6a6b324f5341794d444d754f44453249454d674d4334334d4467674d6a41314c6a55774d6977774c6a41774d4341794d4459754e6a457a4c4441754d444177494449784d4334774e444567517941774c6a41774d4341794d5445754e7a63354c4441754d544531494449784d7934794d4441734d4334794e5459674d6a457a4c6a49774d434244494441754e6a4977494449784d7934794d4441734e6934304d4441674d6a41334c6a49344d4377324c6a51774d4341794d4459754f54413449454d674e6934304d4441674d6a41324c6a4d334f5377354c6a51344d6941794d444d754d6a41774c446b754f546b31494449774d7934794d444167517941784d4334794e6a4d674d6a417a4c6a49774d4377784d6934774d546b674d6a41794c6a51344d4377784d7934344f5459674d6a41784c6a59774d434244494445314c6a63334e4341794d4441754e7a49774c4445334c6a55784e5341794d4441754d4441774c4445334c6a63324e4341794d4441754d44417749454d674d5467754d444530494449774d4334774d4441734d5467754f44597a494445354f5334304e6a67734d546b754e6a5579494445354f4334344d546767517941794d4334304e4445674d546b344c6a45324e7977794d6934784e4463674d546b334c6a41324e6977794d7934304e444d674d546b324c6a4d334d434244494449324c6a6b7a4d4341784f5451754e446b354c4449344c6a63304e7941784f544d754d546b344c4449354c6a41774e4341784f5449754d7a673449454d674d6a6b754d544d77494445354d5334354f5445734d6a6b754e7a4977494445354d5334304e7a45734d7a41754d7a4532494445354d5334794d7a45675179417a4d6934774d546b674d546b774c6a55304e79777a4e4334344f5459674d5467344c6a67304f53777a4e5334344d5455674d5467334c6a6b344e69424449444d324c6a49334e5341784f4463754e5455304c444d324c6a6b794f5341784f4463754d6a41774c444d334c6a49324f5341784f4463754d6a417749454d674d7a63754e6a4134494445344e7934794d4441734d7a6b754d445931494445344e6934314f4455734e4441754e544133494445344e5334344d7a5167517941304d7934774d6a49674d5467304c6a55794d7977304d7934784f5441674d5467304c6a51354d4377304e4334334d446b674d5467314c6a41784d794244494451314c6a6b794e5341784f4455754e444d7a4c4451324c6a59794d5341784f4455754e4455334c4451334c6a63794d4341784f4455754d54497749454d674e4467754e7a6778494445344e4334334f5455734e5441754d545977494445344e4334344d5449734e544d754d446330494445344e5334784f544167517941324d5334344d444d674d5467324c6a4d784f5377324d5334314d7a6b674d5467324c6a51774d6977324d7934354f444d674d5467784c6a63334f534244494459314c6a49794d4341784e7a6b754e4451774c4459314c6a63334e4341784e7a67754f444d304c4459334c6a63774f5341784e7a63754e7a417a49454d674e6a67754f545535494445334e6934354e7a4d734e7a41754d7a4177494445334e5334354d6a51734e7a41754e6a6b78494445334e53347a4e7a4d67517941334d6934334e6a51674d5463794c6a51304d6977334e4334314d5449674d5463774c6a51784f4377334e5334784e4455674d5463774c6a49784f434244494463314c6a557a4e6941784e7a41754d446b7a4c4463324c6a45314d5341784e6a6b754d7a637a4c4463324c6a55784d6941784e6a67754e6a453249454d674e7a63754d444934494445324e7934314d7a51734e7a63754e544d7a494445324e7934784e4445734e7a67754f446330494445324e6934334f444167517941344d4334334f5449674d5459324c6a49324e4377344d7934324f5451674d5459304c6a4d794e7977344e4334314f444d674d5459794c6a6b334d434244494467304c6a6b774e7941784e6a49754e4463324c4467314c6a67314d7941784e6a45754f4455324c4467324c6a59344e6941784e6a45754e546b7949454d674f4463754e544535494445324d53347a4d6a67734f4467754f444d77494445324d4334324d6a59734f446b754e6a4177494445324d4334774d7a4567517941354d53347a4e7a63674d5455344c6a59314f4377354f4334304e4455674d5455314c6a49774d4377354f5334304e7a55674d5455314c6a49774d43424449446b354c6a6b314e7941784e5455754d6a41774c4445774d4334314e7a4d674d5455314c6a63334d4377784d4445754d446b34494445314e6934334d444d67517941784d444d754f545531494445324d5334334f4467734d5445774c6a51774d4341784e6a45754d4459334c4445784d4334304d4441674d5455314c6a59324d794244494445784d4334304d4441674d5455304c6a49354d4377784d5441754e6a5530494445314d7934334f4441734d5445794c6a41774d4341784e5449754e44513349454d674d54457a4c6a67324e7941784e5441754e546b344c4445784d7934354f544d674d5451354c6a597a4e5377784d5449754e7a677a494445304e6934304e544d67517941784d5449754d44417a494445304e43347a4f546b734d5445784c6a6b354e6941784e4451754d6a45344c4445784d6934324d6a59674d5451794c6a4d794d694244494445784d7934784e5441674d5451774c6a63304e5377784d544d754d6a55344944457a4f5334774f546b734d54457a4c6a45314e4341784d7a51754d6a637749454d674d54457a4c6a41324d7941784d7a41754d4449774c4445784d7934784e7a41674d5449334c6a6b7a4f4377784d544d754e544579494445794e79347a4d6a5967517941784d544d754e7a6777494445794e6934344e4459734d5445304c6a41774d4341784d6a55754d6a6b7a4c4445784e4334774d4441674d54497a4c6a67334e794244494445784e4334774d4441674d5449794c6a51324d4377784d5451754d6a6333494445794d4334314d5463734d5445304c6a59784e5341784d546b754e54553549454d674d5445314c6a45314e6941784d5467754d44497a4c4445784e5334304e5441674d5445324c6a55334d4377784d5459754d6a677a494445784d5334794f544567517941784d5459754d7a6b33494445784d4334314e7a45734d5445324c6a49344f5341784d446b754e446b784c4445784e6934774e4451674d5441344c6a67354d534244494445784e5334334d5467674d5441344c6a41354d7977784d5455754e7a4532494445774e7934784e5455734d5445324c6a417a4f4341784d4455754e44417749454d674d5445324c6a49344d4341784d4451754d4467774c4445784e6934314d6a49674d5441794c6a49344d4377784d5459754e546333494445774d5334304d444167517941784d5459754e6a4d78494445774d4334314d6a41734d5445334c6a41324e4341354f5334774e4449734d5445334c6a557a4f4341354f4334784d545967517941784d5467754d54517949446b324c6a6b7a4e6977784d5467754e44417749446b314c6a63774d7977784d5467754e44417749446b7a4c6a6b354e534244494445784f4334304d4441674f5445754e7a63354c4445784f5334314f446b674f4459754e6a59324c4445794d5334774d4451674f4449754f44417749454d674d5449794c6a41344e4341334f5334344e4463734d54497a4c6a59324d4341334e4334354d4451734d5449304c6a49794f4341334d6934324f544167517941784d6a51754e545530494463784c6a51784f5377784d6a55754d7a5532494459354c6a4d354d4377784d6a59754d444577494459344c6a45344d534244494445794e6934324e6a55674e6a59754f5463784c4445794e7934794d4441674e6a55754e7a45794c4445794e7934794d4441674e6a55754d7a677a49454d674d5449334c6a49774d4341324e5334774e5451734d5449334c6a59794d6941324e4334784d544d734d5449344c6a457a4f4341324d7934794f544967517941784d6a67754e6a5530494459794c6a51334d5377784d6a6b754d7a6730494459774c6a67324e6977784d6a6b754e7a5979494455354c6a63794e5342444944457a4d4334314d6a59674e5463754e44457a4c44457a4d5334304d4467674e5459754d6a45324c44457a4e5334794d4441674e5449754d7a513249454d674d544d324c6a597a4d4341314d4334344f4463734d544d344c6a4d334e4341304f4334344f444d734d544d354c6a41334e6941304e7934344f545167517941784e4445754e546331494451304c6a4d334e4377784e4459754e7a4979494451304c6a6b7a4d7977784e4467754e7a5935494451344c6a6b304e534244494445304f5334304e5467674e5441754d6a6b314c4445314d4334304e6a59674e5449754d546b7a4c4445314d5334774d5445674e544d754d54597a49454d674d5455784c6a55314e5341314e4334784d7a4d734d5455794c6a41774d4341314e53347a4f5463734d5455794c6a41774d4341314e5334354e7a5167517941784e5449754d444177494455344c6a4d7a4e7977784e544d754f545578494455354c6a51774e7977784e5459754e446b31494455344c6a51304d434244494445314e7934354d4441674e5463754f5441324c4445314f4334314e4445674e5455754e5445794c4445314e7934334e7a49674e544d754e6a637749454d674d5455324c6a55784e6941314d4334324e6a55734d5455344c6a49334d5341314d5334784e4441734d5459794c6a45794d6941314e4334344e446767517941784e6a4d754d6a5931494455314c6a6b304f4377784e6a51754f544977494455334c6a557a4d7977784e6a55754f444177494455344c6a4d334d434244494445324f4334784e7a49674e6a41754e6a49324c4445334d4334774d4441674e6a45754e444d334c4445334d4334774d4441674e6a41754d6a4d7a49454d674d5463774c6a41774d4341314f5334354d6a49734d5459354c6a67324e5341314f5334324d4463734d5459354c6a63774d4341314f5334314d7a4d67517941784e6a6b754e544d31494455354c6a51324d4377784e6a67754f544577494455344c6a59304e7977784e6a67754d7a4579494455334c6a63794e794244494445324e7934334d544d674e5459754f4441324c4445324e6934314e7a55674e5455754e5451324c4445324e5334334f4449674e5451754f54493349454d674d5459304c6a6b354d4341314e43347a4d4463734d54597a4c6a45784f5341314d6934794e6a49734d5459784c6a59794e7941314d43347a4f444967517941784e5467754e7a677a494451324c6a67774d7977784e546b754d544934494451334c6a41304d4377784e5445754e7a55324944517a4c6a55334d794244494445304f5334314e4455674e4449754e544d7a4c4445304e6934784d5463674e4449754e6a45354c4445304d6934344e6a55674e444d754e7a6b30494530794d4449754d444177494455774c6a55334e694244494449774d6934774d4441674e5441754f446b7a4c4449774d6934784f4441674e5445754d6a59304c4449774d6934304d4441674e5445754e44417749454d674d6a41794c6a59794d4341314d5334314d7a59734d6a41794c6a67774d4341314d5334794e7a63734d6a41794c6a67774d4341314d4334344d6a5167517941794d4449754f444177494455774c6a4d334d5377794d4449754e6a4977494455774c6a41774d4377794d4449754e444177494455774c6a41774d434244494449774d6934784f4441674e5441754d4441774c4449774d6934774d4441674e5441754d6a55354c4449774d6934774d4441674e5441754e546332494530794d4455754e6a4132494455324c6a63774d434244494449774e5334324d6a51674e5463754e5463334c4449774e69347a4f4467674e5467754d5455354c4449774e69347a4f5451674e5463754d7a417749454d674d6a41324c6a4d354e7941314e6934344d4455734d6a41324c6a49794d4341314e6934304d4441734d6a41324c6a41774d4341314e6934304d444167517941794d4455754e7a6777494455324c6a51774d4377794d4455754e6a417a494455324c6a557a4e5377794d4455754e6a4132494455324c6a63774d43424e4d546b7a4c6a51774d4341324d4334354e6a6767517941784f5449754e7a5177494459784c6a49334d4377784f5445754f446731494459784c6a59794d4377784f5445754e544177494459784c6a63304e694244494445344f5334784f546b674e6a49754e446b344c4445354d5334794d7a45674e6a51754e4451784c4445354e4334774d6a67674e6a51754d54593049454d674d546b344c6a49344d5341324d7934334e4449734d546b344c6a63354d4341324d79347a4d4459734d546b334c6a4d334e7941324d5334794f446b67517941784f5459754e6a5535494459774c6a49324d7977784f5455754d546b33494459774c6a45304e5377784f544d754e444177494459774c6a6b324f43424e4d5455354c6a51784d4341324d7934344f546767517941784e5459754f445977494459304c6a41354e4377784e5459754e444578494459304c6a51334e5377784e5459754e7a6779494459324c6a45794d534244494445314e7934304e446b674e6a6b754d4463344c4445314f4334304e4449674e7a41754d544d7a4c4445314f5334354e6a63674e6a6b754e54417949454d674d5459774c6a557a4e5341324f5334794e6a63734d5459784c6a67784d4341324f4334354e6a63734d5459794c6a67774d4341324f4334344d7a5167517941784e6a51754e7a4531494459344c6a55334f4377784e6a51754f444530494459344c6a4d314e5377784e6a51754d546b33494459314c6a63774e794244494445324e4334774d6a63674e6a51754f5463354c4445324d5334354e6a41674e6a4d754e4441334c4445324d5334314d6a41674e6a4d754e6a637949454d674d5459784c6a51314e4341324d7934334d5449734d5459774c6a55774e5341324d7934344d544d734d5455354c6a51784d4341324d7934344f546767545449774e4334354d4441674e6a63754d44593149454d674d6a41304c6a59794e5341324e7934784e7a59734d6a41304c6a51774d4341324e7934304e7a63734d6a41304c6a51774d4341324e7934334d7a4d67517941794d4451754e444177494459344c6a41304f5377794d444d754d7a5931494459344c6a49774e4377794d4445754d6a417a494459344c6a49784d534244494445354e7934304d5467674e6a67754d6a49304c4445354e6934314e5441674e6a67754e7a55774c4445354e6934354f5449674e7a41754e7a597a49454d674d546b334c6a4d334e5341334d6934314d4467734d546b354c6a63324d7941334e4334354f4451734d6a41774c6a59354d5341334e4334314f546367517941794d4445754f544d35494463304c6a41334e7977794d444d754d7a59354944637a4c6a59794f5377794d4451754e5441774944637a4c6a51774e434244494449774e5334324d7a6b674e7a4d754d5463334c4449774e5334354f4451674e7a49754d5451304c4449774e5334784f4463674e7a45754d7a513349454d674d6a417a4c6a51324e5341324f5334324d6a55734d6a41314c6a6b314e5341324f5334324d4441734d6a41354c6a51774d4341334d53347a4d445567517941794d5441754e7a6b34494463784c6a6b354e7977794d5459754e544d35494463304c6a41774d4377794d5463754d544931494463304c6a41774d434244494449784e7934794e4449674e7a51754d4441774c4449784e6934304e5449674e7a4d754d5467314c4449784e53347a4e6a6b674e7a49754d54673449454d674d6a45794c6a4d774d7941324f53347a4e6a67734d6a45784c6a41304d7941324f4334784e4455734d6a45774c6a51344e4341324e7934304e445567517941794d446b754f546778494459324c6a67784e6977794d4459754d545979494459324c6a55314e6977794d4451754f544177494459334c6a41324e53424e4d5459304c6a51774d4341334d7934334f544567517941784e6a4d754f445577494463304c6a45784d4377784e6a4d754d445177494463304c6a4d344e4377784e6a49754e6a4177494463304c6a4d354f434244494445324d5334324d7a51674e7a51754e444d784c4445324d4334794e444d674e7a59754d6a457a4c4445324d4334314e544d674e7a63754d44497849454d674d5459774c6a67794e6941334e7934334d7a49734d5459334c6a6b334e7941334e7934344e6a4d734d5459344c6a59334d5341334e7934784e6a6b67517941784e7a41754d6a5131494463314c6a55354e5377784e6a59754e445531494463794c6a55354e6977784e6a51754e4441774944637a4c6a63354d53424e4d6a45314c6a51794e6941344e4334794d7a6767517941794d5455754d545534494467314c6a4d774e5377794d5455754e7a4935494467324c6a51774d4377794d5459754e54557a494467324c6a51774d434244494449784e6934344d444d674f4459754e4441774c4449784e7934354e7a59674f4463754d7a41774c4449784f5334784e6a41674f4467754e44417749454d674d6a49774c6a4d304e4341344f5334314d4441734d6a49784c6a51324f4341354d4334304d4441734d6a49784c6a59314e7941354d4334304d444167517941794d6a45754f44513149446b774c6a51774d4377794d6a49754d44417749446b774c6a59314d5377794d6a49754d44417749446b774c6a6b314e794244494449794d6934774d4441674f5445754d6a59304c4449794d6934794e7a41674f5445754e6a45344c4449794d6934324d4441674f5445754e7a513149454d674d6a49794c6a6b7a4d4341354d5334344e7a45734d6a497a4c6a49774d4341354d6934794d7a59734d6a497a4c6a49774d4341354d6934314e545167517941794d6a4d754d6a417749446b794c6a67334d7977794d6a4d754d7a4d3149446b7a4c6a45354d7977794d6a4d754e54417749446b7a4c6a49324e794244494449794e4334354d7a51674f544d754f5441304c4449794e5334354f4459674f5467754e6a4d324c4449794e5334774d6a49674d5441774c6a45784e434244494449794e4334334d4455674d5441774c6a59774d5377794d6a51754d6a6330494445774d5334334e6a55734d6a49304c6a41324e5341784d4449754e7a417749454d674d6a497a4c6a59794e4341784d4451754e6a63794c4449794d7934344e446b674d5441304c6a63334e4377794d6a59754d7a6b79494445774d7934334e546367544341794d6a67754d444177494445774d7934784d544d674d6a49344c6a41774d4341784d4441754d6a497749454d674d6a49344c6a41774d4341354e5334784d5463734d6a49334c6a55314e7941354e4334794f5463734d6a49784c6a59784f4341344f4334304d546767517941794d5455754f544134494467794c6a63324e5377794d5455754f444579494467794c6a63774d4377794d5455754e444932494467304c6a497a4f43424e4d5449784c6a4d334d4341784d4451754d6a453549454d674d5449784c6a49794e4341784d4451754f546b354c4445794d5334794d7a41674d5441314c6a63324e4377784d6a45754d7a6731494445774e5334354d546767517941784d6a45754f444179494445774e69347a4d7a55734d5449794c6a67774d4341784d4451754e7a67334c4445794d6934344d4441674d54417a4c6a63794e434244494445794d6934344d4441674d5441794c6a49794e4377784d6a45754e6a6378494445774d6934324d5455734d5449784c6a4d334d4341784d4451754d6a4535494530794d6a63754e7a4177494445774e7934774f544967517941794d6a59754e54457a494445774e7934344f5445734d6a49324c6a55324d7941784d4467754e54597a4c4449794e7934344e5449674d5441354c6a45314d534244494449794f5334774e7a49674d5441354c6a63774e7977794d6a6b754d445531494445774f5334334d5459734d6a49354c6a4d354d7941784d4467754d7a593549454d674d6a49354c6a63314d7941784d4459754f544d324c4449794f4334344f5455674d5441324c6a49344f4377794d6a63754e7a4177494445774e7934774f544967545445794e5334344e5463674d5441344c6a41784e794244494445794e5334774d4467674d5445794c6a49324d6977784d6a59754e6a5532494445784e7934334e6a6b734d5449344c6a63774d7941784d5463754e54497949454d674d544d774c6a67354f4341784d5463754d6a55344c44457a4d4334304f4467674d54457a4c6a67784d6977784d6a63754e6a557a494445774f4334334d444167517941784d6a59754e444534494445774e6934304e7a4d734d5449324c6a45344d7941784d4459754d7a677a4c4445794e5334344e5463674d5441344c6a41784e79424e4d6a49344c6a63774d4341784d544d754d7a4d7a49454d674d6a49344c6a49774f4341784d5451754e544d314c4449794f43347a4d6a63674d5445324c6a63324e7977794d6a67754f444d33494445784e5334344f544567517941794d6a6b754d445930494445784e5334314d4449734d6a49354c6a45354d7941784d5451754e6a41794c4449794f5334784d6a55674d54457a4c6a67354d534244494449794f5334774d6a63674d5445794c6a67334e7977794d6a67754f544d32494445784d6934334e5463734d6a49344c6a63774d4341784d544d754d7a4d7a494530794d7a4d754d7a41304944457a4d4334784d444167517941794d7a4d754e446b7a4944457a4d7934354d5449734d6a4d304c6a45774d5341784d7a63754d7a67334c44497a4e53347a4d444d674d5451784c6a55784e7942444944497a4e6934774f4459674d5451304c6a49774f4377794d7a59754d54417a494445304e4334314d546b734d6a4d314c6a55794f4341784e4455754e54453349454d674d6a4d304c6a55354d4341784e4463754d5451304c44497a4e4334784e6a59674d5455784c6a59324e5377794d7a51754f546778494445314d53347a4e544967517941794d7a55754d7a4978494445314d5334794d6a45734d6a4d314c6a59774d4341784e5441754f4441794c44497a4e5334324d4441674d5455774c6a51784f5342444944497a4e5334324d4441674d5451354c6a517a4d4377794d7a63754d444178494445304f4334794f444d734d6a4d334c6a67334d5341784e4467754e54553549454d674d6a4d344c6a49334d6941784e4467754e6a67324c44497a4f4334334f4441674d5451344c6a63344e4377794d7a6b754d444177494445304f4334334e7a6367517941794d7a6b754e544931494445304f4334334e546b734d6a4d354c6a49324e6941784e4463754d5459314c44497a4f4334324d5451674d5451324c6a51774d4342444944497a4e7934314e546b674d5451314c6a45324e4377794d7a59754f444d35494445304d6934354d546b734d6a4d324c6a59344f5341784e4441754e44417749454d674d6a4d324c6a557a4f5341784d7a63754f44637a4c44497a4e6934774e6a59674d544d324c6a45794e5377794d7a51754f5451794944457a4d7934354d7a5567517941794d7a51754e6a51794944457a4d79347a4e446b734d6a4d304c6a49344d4341784d7a45754e5441304c44497a4e4334784d7a6b674d5449354c6a677a4e5342444944497a4d7934334f5445674d5449314c6a63784e6977794d7a4d754d446b35494445794e5334354d7a59734d6a4d7a4c6a4d774e4341784d7a41754d544177494530794e4449754e446333494445304e4334784d7a4167517941794e4449754e546b7a494445304e53347a4d7a41734d6a51794c6a59354d6941784e4455754e4441784c4449304e4334794e7a49674d5451314c6a51794e534244494449304e6934304d7a55674d5451314c6a51314e7977794e5459754d7a4d34494445314d43347a4e5467734d6a55344c6a4d314e5341784e5449754d7a6b3149454d674d6a55354c6a63324d5341784e544d754f4445314c4449324d4334354f5455674d5455304c6a55324f5377794e6a55754e44557a494445314e6934334d7a4d67517941794e6a59754f444179494445314e79347a4f4467734d6a59344c6a417a4e7941784e5467754d544d324c4449324f4334784f5463674d5455344c6a4d354e534244494449324f43347a4e5463674d5455344c6a59314e4377794e6a6b754e44457a494445314f5334304e6a49734d6a63774c6a55304e4341784e6a41754d546b7749454d674d6a63784c6a59334e5341784e6a41754f5445344c4449334d7934784e4441674d5459784c6a6b344e4377794e7a4d754f444177494445324d6934314e546b67517941794e7a51754e445977494445324d7934784d7a51734d6a63314c6a4d324d4341784e6a4d754e7a457a4c4449334e5334344d4441674d54597a4c6a67304e534244494449334e6934794e4441674d54597a4c6a6b334f4377794e7a63754d7a4977494445324e4334334e7a59734d6a63344c6a49774d4341784e6a55754e6a453549454d674d6a67794c6a6b314f4341784e7a41754d5463334c4449344f4334784e546b674d5463794c6a55784e4377794f5441754d545931494445334d4334354f545967517941794f5445754d545531494445334d4334794e4459734d6a67354c6a63784e5341784e6a67754f4441354c4449344e4334314d7a59674d5459314c6a4d344d534244494449344d6934314f5445674d5459304c6a41354d7977794f4441754f545177494445324d6934344f5455734d6a67774c6a67324e7941784e6a49754e7a497749454d674d6a67774c6a63354d7941784e6a49754e5451304c4449344d4334314d546b674d5459794c6a51774d4377794f4441754d6a5534494445324d6934304d444167517941794e7a6b754f546b32494445324d6934304d4441734d6a63354c6a457a4f5341784e6a45754f4463774c4449334f43347a4e5449674d5459784c6a49794d534244494449334e7934314e6a59674d5459774c6a55334d7977794e7a59754d544d77494445314f5334324d5463734d6a63314c6a45324d5341784e546b754d446b3449454d674d6a63304c6a45354d6941784e5467754e5463354c4449334d6934324f4441674d5455334c6a59354e5377794e7a45754f444177494445314e7934784d7a5567517941794e7a41754f544977494445314e6934314e7a55734d6a59354c6a63354e5341784e5455754f5467344c4449324f53347a4d4441674d5455314c6a677a4d534244494449324f4334344d4455674d5455314c6a59334e5377794e6a67754e444177494445314e53347a4f5441734d6a59344c6a51774d4341784e5455754d6a417749454d674d6a59344c6a51774d4341784e5455754d4445774c4449324e7934354f5455674d5455304c6a63794f4377794e6a63754e544177494445314e4334314e7a5167517941794e6a63754d444131494445314e4334304d6a45734d6a59324c6a41354e5341784e544d754f544d354c4449324e5334304e7a67674d54557a4c6a55774e534244494449324e4334344e6a45674d54557a4c6a41334d4377794e6a4d754d545578494445314d6934784d4463734d6a59784c6a59334f4341784e5445754d7a593149454d674d6a55344c6a63794e7941784e446b754f4463344c4449314e5334344f4451674d5451344c6a4d774e7977794e5455754d544130494445304e7934334d7a5167517941794e5451754f444933494445304e7934314d7a41734d6a557a4c6a55794d4341784e4459754f5455304c4449314d6934794d4441674d5451324c6a51314e434244494449314d4334344f4441674d5451314c6a6b314e4377794e446b754e54497a494445304e53347a4f546b734d6a51354c6a45344e5341784e4455754d6a497949454d674d6a51344c6a67304e6941784e4455754d4451304c4449304e7934344d5445674d5451304c6a63334d5377794e4459754f446731494445304e4334324d545167517941794e4455754f545534494445304e4334304e5467734d6a51314c6a49774d4341784e4451754d546b324c4449304e5334794d4441674d5451304c6a417a4d694244494449304e5334794d4441674d54517a4c6a67324f4377794e4451754e545977494445304d7934314d7a67734d6a517a4c6a63334e7941784e444d754d6a6b33494577674d6a51794c6a4d314e4341784e4449754f445978494449304d6934304e7a63674d5451304c6a457a4d43424e4d6a4d344c6a67314e6941784e5449754e6a593149454d674d6a4d354c6a417a4d4341784e5451754d7a55344c44497a4f43347a4e7a67674d5455344c6a41344f5377794d7a63754e7a5577494445314f4334354f446b67517941794d7a63754e445134494445314f5334304d6a4d734d6a4d334c6a49774d4341784e6a41754d7a4d354c44497a4e7934794d4441674d5459784c6a41794e5342444944497a4e7934794d4441674d5459784c6a63784d6977794d7a59754f544d7a494445324d7934784e5459734d6a4d324c6a59774e7941784e6a51754d6a4d3249454d674d6a4d324c6a41784e4341784e6a59754d546b354c44497a4e6934784d6a67674d5459334c6a67784e5377794d7a59754f444935494445324e79347a4f444967517941794d7a63754d444d7a494445324e7934794e5459734d6a4d334c6a49774d4341784e6a59754e6a51314c44497a4e7934794d4441674d5459324c6a41794e5342444944497a4e7934794d4441674d5459314c6a51774e5377794d7a63754e445579494445324e4334324f446b734d6a4d334c6a63324d5341784e6a51754e444d7a49454d674d6a4d344c6a41324f5341784e6a51754d5463334c44497a4f4334304d7a4d674d54597a4c6a55794e5377794d7a67754e545934494445324d6934354f445167517941794d7a67754f444930494445324d5334354e6a51734d6a4d354c6a4d334d5341784e6a45754e7a41314c44497a4f5334344d4441674d5459794c6a51774d434244494449304d4334784e5451674d5459794c6a6b334d7977794e4445754e546b78494445324d6934344f5455734d6a51784c6a59314d4341784e6a49754d7a417749454d674d6a51784c6a67774e4341784e6a41754e7a51334c4449304d5334304e5451674d5455334c6a49344e7977794e4445754d44637a494445314e6934324d444167517941794e4441754f444d77494445314e6934784e6a41734d6a51774c6a557a4e4341784e5451754f5441794c4449304d4334304d5455674d54557a4c6a67774e434244494449304d4334794e5449674d5455794c6a49354d6977794e4441754d44497a494445314d5334334e7a55734d6a4d354c6a51334d4341784e5445754e6a593549454d674d6a4d344c6a67344d6941784e5445754e5455334c44497a4f4334334e6a49674d5455784c6a63314d5377794d7a67754f445532494445314d6934324e6a55675454497a4d7934334d5451674d5455324c6a49774d4342444944497a4d7934334d5463674d5455334c6a4d774d4377794d7a4d754e7a6b31494445314e7934334d444d734d6a4d7a4c6a67344e7941784e5463754d446b3149454d674d6a4d7a4c6a6b334f5341784e5459754e4467324c44497a4d7934354e7a63674d5455314c6a55344e6977794d7a4d754f446779494445314e5334774f545567517941794d7a4d754e7a6733494445314e4334324d444d734d6a4d7a4c6a63784d5341784e5455754d5441774c44497a4d7934334d5451674d5455324c6a49774d43424e4d5449784c6a49774d4341784e6a41754e6a677949454d674d5449774c6a55774f5341784e6a41754f5455324c4445794d4334774d5455674d5459784c6a59774d7977784d6a41754d444132494445324d6934794e445167517941784d546b754f546732494445324d7934324f5455734d5449344c6a41774d7941784e7a41754f4455344c44457a4d5334334e4451674d5463794c6a637a4d5342444944457a4d6934324e5455674d54637a4c6a45344f4377784d7a51754d444977494445334e4334774d6a41734d544d304c6a63334f4341784e7a51754e54677849454d674d544d314c6a557a4e5341784e7a55754d5451784c44457a4e69347a4e5467674d5463314c6a59774d4377784d7a59754e6a4132494445334e5334324d444167517941784d7a59754f44557a494445334e5334324d4441734d544d334c6a63354d6941784e7a59754d6a4d774c44457a4f4334324f5449674d5463334c6a41774d4342444944457a4f5334314f5445674d5463334c6a63334d4377784e4441754e544930494445334f4334304d4441734d5451774c6a63324e4341784e7a67754e44417749454d674d5451784c6a41774e4341784e7a67754e4441774c4445304d5334794d4441674d5463344c6a59334d4377784e4445754d6a4177494445334f5334774d444167517941784e4445754d6a4177494445334f5334304d7a4d734d5451784c6a59304e4341784e7a6b754e6a41774c4445304d6934344d4441674d5463354c6a59774d434244494445304e4334314d4459674d5463354c6a59774d4377784e4455754d44677a494445334f4334324e7a45734d54517a4c6a59314f5341784e7a67754d6a453549454d674d54517a4c6a49314d5341784e7a67754d4467354c4445304d6934304e4441674d5463334c6a51304e7977784e4445754f445532494445334e6934334f544967517941784e4445754d6a6379494445334e6934784d7a59734d5451774c6a59774e7941784e7a55754e6a41774c4445304d43347a4e7a6b674d5463314c6a59774d434244494445304d4334784e5441674d5463314c6a59774d4377784d7a6b754e446333494445334e5334784e4459734d544d344c6a67344d6941784e7a51754e546b7849454d674d544d344c6a49344e7941784e7a51754d444d324c44457a4e7934314d5455674d54637a4c6a4d784e6977784d7a63754d545932494445334d6934354f544567517941784d7a59754f444534494445334d6934324e6a59734d544d324c6a4d7a4d6941784e7a49754e4441774c44457a4e6934774f4459674d5463794c6a51774d4342444944457a4e5334344e4445674d5463794c6a51774d4377784d7a55754e446b32494445334d6934784e7a55734d544d314c6a4d794d4341784e7a45754f446b3549454d674d544d314c6a45304e4341784e7a45754e6a49304c44457a4e4334314d5449674d5463784c6a45304e7977784d7a4d754f544531494445334d4334344e444167517941784d7a45754d6a6778494445324f5334304f444d734d5449324c6a51304d6941784e6a51754d6a63324c4445794e6934784e6a51674d5459794c6a55774d434244494445794e5334354e7a6b674d5459784c6a4d784f4377784d6a55754e7a4177494445324d4334334f5455734d5449314c6a49304f5341784e6a41754e7a673149454d674d5449304c6a67354d6941784e6a41754e7a63334c4445794d7934354e7a41674d5459774c6a59354e6977784d6a4d754d6a4177494445324d4334324d446367517941784d6a49754e444d77494445324d4334314d5463734d5449784c6a557a4d4341784e6a41754e5455784c4445794d5334794d4441674d5459774c6a59344d69424e4d6a67324c6a67774d5341784e6a45754d44557a49454d674d6a67324c6a67784d6941784e6a4d754e4445304c4449354d7934314d5463674d5459324c6a417a4e53777a4d4441754d445535494445324e6934794d7a55675179417a4d4445754e7a5179494445324e6934794f4459734d7a417a4c6a51314e5341784e6a59754e5441344c444d774d7934344e6a55674d5459324c6a63794f43424449444d774e4334794e7a55674d5459324c6a6b304e79777a4d4459754e546734494445324e7934304d5467734d7a41354c6a41774e5341784e6a63754e7a633149454d674d7a45324c6a41794d5341784e6a67754f4441354c444d784e7934314d4455674d5459354c6a45314d43777a4d6a49754e6a4177494445334d4334354d4441675179417a4d6a51754d545177494445334d5334304d6a6b734d7a49324c6a51314e6941784e7a49754d546b354c444d794e7934334e4463674d5463794c6a59784d69424449444d794f5334774d7a63674d54637a4c6a41794e43777a4d7a41754e7a4933494445334d7934344e6a55734d7a4d784c6a55774d6941784e7a51754e44677849454d674d7a4d794c6a49334e6941784e7a55754d446b324c444d7a4d7934794d5441674d5463314c6a59774d43777a4d7a4d754e546333494445334e5334324d4441675179417a4d7a51754e6a4d35494445334e5334324d4441734d7a51774c6a41784d6941784e7a6b754d7a45344c444d304d6934784f4455674d5467784c6a55314e69424449444d304e4334354d444d674d5467304c6a4d314e53777a4e4463754e6a4177494445344e43347a4f4459734d7a51334c6a59774d4341784f4445754e6a453549454d674d7a51334c6a59774d4341784f4441754e4449794c444d304e5334324e5441674d5463344c6a51774d43777a4e4451754e446b32494445334f4334304d4441675179417a4e4451754d445935494445334f4334304d4441734d7a51794c6a6b334e5341784e7a63754f4459774c444d304d6934774e6a4d674d5463334c6a49774d43424449444d304d5334784e5449674d5463324c6a55304d43777a4e4441754d546379494445334e6934774d4441734d7a4d354c6a67344e4341784e7a59754d44417749454d674d7a4d354c6a55354e7941784e7a59754d4441774c444d7a4f4334784d7a49674d5463314c6a4d334d43777a4d7a59754e6a4934494445334e4334324d4441675179417a4d7a55754d544931494445334d7934344d7a41734d7a4d7a4c6a59354d7941784e7a4d754d546b344c444d7a4d7934304e4463674d54637a4c6a45354e53424449444d7a4d7934794d4445674d54637a4c6a45354d69777a4d7a45754f545177494445334d6934324e5449734d7a4d774c6a59304e4341784e7a45754f546b3149454d674d7a49354c6a4d304f4341784e7a45754d7a4d344c444d794e7934344e7a55674d5463774c6a67774d43777a4d6a63754d7a6379494445334d4334344d4441675179417a4d6a59754f445935494445334d4334344d4441734d7a49324c6a45344e7941784e7a41754e544d774c444d794e5334344e5463674d5463774c6a49774d43424449444d794e5334314d6a63674d5459354c6a67334d43777a4d6a51754f546334494445324f5334324d4441734d7a49304c6a597a4e7941784e6a6b754e6a417749454d674d7a49304c6a49354e5341784e6a6b754e6a41774c444d794d79347a4d7a67674d5459354c6a4d314d53777a4d6a49754e544134494445324f5334774e4463675179417a4d6a45754e6a6335494445324f4334334e4449734d7a45354c6a59774e5341784e6a67754d4463794c444d784e7934354d4441674d5459334c6a55314f43424449444d784e6934784f5455674d5459334c6a41304d79777a4d5451754f444177494445324e6934314d4463734d7a45304c6a67774d4341784e6a59754d7a593249454d674d7a45304c6a67774d4341784e6a59754d6a49314c444d784d7934334e6a55674d5459314c6a6b344f53777a4d5449754e544177494445324e5334344e4449675179417a4d5441754e445535494445324e5334324d4451734d7a41354c6a417a4f4341784e6a55754d6a63784c444d774e4334324d4441674d54597a4c6a6b354d69424449444d774d7934354e4441674d54597a4c6a67774d53777a4d4449754d445577494445324d7934314d6a49734d7a41774c6a51774d4341784e6a4d754d7a637849454d674d6a6b344c6a63314d4341784e6a4d754d6a49774c4449354e7934774e7a63674d5459794c6a6b794f5377794f5459754e6a677a494445324d6934334d6a5567517941794f5459754d6a6735494445324d6934314d6a45734d6a6b304c6a4d354f5341784e6a49754d446b354c4449354d6934304f444d674d5459784c6a63344e794244494449354d4334314e6a63674d5459784c6a51334e6977794f4467754e544131494445324d5334784d4455734d6a67334c6a6b774d4341784e6a41754f54593049454d674d6a67334c6a49354e5341784e6a41754f4449794c4449344e6934344d4445674d5459774c6a67324d7977794f4459754f444178494445324d5334774e544d675454497a4e4334354e6a6b674d5459344c6a55344d7942444944497a4e4334324e6a59674d5459354c6a63344f4377794d7a55754d444935494445334d4334354e544d734d6a4d314c6a55354e7941784e7a41754e6a417949454d674d6a4d324c6a45784d6941784e7a41754d6a677a4c44497a4e6934784d6a51674d5459344c6a45794e4377794d7a55754e6a4579494445324e7934344d446367517941794d7a55754d7a6b34494445324e7934324e7a55734d6a4d314c6a45774f5341784e6a67754d4449304c44497a4e4334354e6a6b674d5459344c6a55344d79424e4d7a517a4c6a63774d4341784e7a45754d6a633249454d674d7a51784c6a67324e4341784e7a45754e6a63334c444d304d5334304d6a6b674d5463794c6a55334d53777a4e4449754f544177494445334d6934354d6a45675179417a4e444d754d7a6b31494445334d7934774d7a67734d7a51304c6a55344d6941784e7a4d754e4449304c444d304e5334314d7a63674d54637a4c6a63334f43424449444d304e6934334e4449674d5463304c6a49794e43777a4e4467754d7a6b33494445334e43347a4f546b734d7a55774c6a6b7a4e7941784e7a51754d7a513349454d674d7a55794c6a6b314d6941784e7a51754d7a41314c444d314e6934334e6a41674d5463304c6a51344d43777a4e546b754e444177494445334e4334334d7a51675179417a4e6a49754d445177494445334e4334354f4467734d7a59304c6a6b794d4341784e7a55754d5459354c444d324e5334344d4441674d5463314c6a457a4e69424449444d324e6934324f4441674d5463314c6a45774d79777a4e6a67754d7a6b77494445334e5334794f4445734d7a59354c6a59774d4341784e7a55754e544d7949454d674d7a63774c6a67784d4341784e7a55754e7a677a4c444d334d7934304d5445674d5463324c6a45344e53777a4e7a55754d7a6777494445334e6934304d6a55675179417a4e7a63754d7a5135494445334e6934324e6a55734d7a63354c6a51784f5341784e7a63754d446b304c444d334f5334354f4441674d5463334c6a4d334f43424449444d344d4334314e4445674d5463334c6a59324d53777a4f4445754e6a5533494445334f4334774d5449734d7a67794c6a51314f5341784e7a67754d54553349454d674d7a677a4c6a49324d6941784e7a67754d7a41794c444d344e43347a4e4455674d5463344c6a63314e69777a4f4451754f445932494445334f5334784e6a59675179417a4f4455754d7a6733494445334f5334314e7a55734d7a67324c6a51304d4341784f4441754d446b324c444d344e7934794d4459674d5467774c6a4d794d79424449444d344f4334354e7a45674d5467774c6a67304e53777a4f5445754d545930494445344d5334324d5455734d7a6b794c6a49774f5341784f4449754d44633549454d674d7a6b794c6a59314e4341784f4449754d6a63324c444d354e4334784f4451674d5467794c6a63774e69777a4f5455754e6a4135494445344d7934774d7a4d675179417a4f5463754d444d30494445344d79347a4e6a41734d7a6b344c6a59774e5341784f444d754e7a4d794c444d354f5334784d4441674d54677a4c6a67324d534244494451774d4334334d7a4d674d5467304c6a49344d7977304d4441754d54597a494445344d6934334d5445734d7a6b344c6a49774f4341784f4445754e44417749454d674d7a6b334c6a49794d7941784f4441754e7a51774c444d354e6934304d5451674d5467774c6a41324e53777a4f5459754e444135494445334f5334354d4441675179417a4f5459754e444130494445334f5334334d7a55734d7a6b324c6a45794e4341784e7a6b754e6a41774c444d354e5334334f4463674d5463354c6a59774d43424449444d354e5334304e5445674d5463354c6a59774d43777a4f5455754d446378494445334f53347a4d7a41734d7a6b304c6a6b304e5341784e7a6b754d44417749454d674d7a6b304c6a67784f4341784e7a67754e6a63774c444d354e43347a4f5449674d5463344c6a51774d43777a4f544d754f546b35494445334f4334304d4441675179417a4f544d754e6a4131494445334f4334304d4441734d7a6b784c6a6b314f5341784e7a63754f4459784c444d354d43347a4e4445674d5463334c6a49774d53424449444d344f4334334d6a51674d5463324c6a55304d69777a4f4463754d6a4977494445334e6934774d4445734d7a67334c6a41774d4341784e7a55754f546b3549454d674d7a67324c6a63344d4341784e7a55754f546b334c444d344e6934774f4455674d5463314c6a63794e79777a4f4455754e445532494445334e53347a4f546b675179417a4f444d754e544178494445334e43347a4e7a6b734d7a67774c6a63334d4341784e7a4d754e5451334c444d334e6934794d4441674d5463794c6a55334f53424449444d334d7934334f4441674d5463794c6a41324e79777a4e7a45754d446777494445334d5334304e6a41734d7a63774c6a49774d4341784e7a45754d6a4d7749454d674d7a59344c6a49794d4341784e7a41754e7a45304c444d304e6934784d4445674d5463774c6a63314d69777a4e444d754e7a4177494445334d5334794e7a5967545445304d6934774d4441674d5463794c6a41784d794244494445304d6934774d4441674d5463794c6a49304d5377784e4449754e6a4d77494445334d6934334f546b734d54517a4c6a51774d4341784e7a4d754d6a557a49454d674d5451304c6a45334d4341784e7a4d754e7a41334c4445304e4334344d4441674d5463304c6a49304e6977784e4451754f444177494445334e4334304e446b67517941784e4451754f444177494445334e4334324e544d734d5451314c6a497a4f4341784e7a51754f5467324c4445304e5334334e7a4d674d5463314c6a45354d434244494445304e69347a4d4467674d5463314c6a4d354d7977784e4463754d545579494445334e6934784d446b734d5451334c6a59304f4341784e7a59754e7a677749454d674d5451344c6a51774d5341784e7a63754e7a6b344c4445314d4334304d4441674d5463344c6a55314d7977784e5441754e444177494445334e7934344d546b67517941784e5441754e444177494445334e7934784e6a41734d5451354c6a4d344d4341784e7a55754e6a41774c4445304f4334354e5441674d5463314c6a59774d434244494445304f4334324e6a4d674d5463314c6a59774d4377784e4463754f444d33494445334e5334784d4455734d5451334c6a45784e4341784e7a51754e54417749454d674d54517a4c6a6b354d4341784e7a45754f4467314c4445304d6934774d4441674d5463774c6a6b784e7977784e4449754d444177494445334d6934774d544d67545449314f4334784d5441674d5463334c6a4d304d434244494449304f5334324d5459674d5467314c6a4d334d5377794e4463754e446b7a494445344e7934794d7a51734d6a51324c6a497a4d6941784f4463754e7a597849454d674d6a517a4c6a55324e7941784f4467754f4463304c4449304d7934774d7a45674d546b784c6a497a4f5377794e4455754d54677a494445354d69347a4f544567517941794e4459754e7a677a494445354d7934794e4463734d6a51354c6a55774d4341784f5445754e44557a4c4449314e5334344d4441674d5467314c6a4d344d434244494449314f4334304e4441674d5467794c6a677a4e6977794e6a45754e445531494445334f5334354e4445734d6a59794c6a55774d4341784e7a67754f54513349454d674d6a59304c6a55304e7941784e7a63754d4441794c4449324e4334344d5463674d5463324c6a45774d6977794e6a4d754e6a5935494445334e5334774e6a4967517941794e6a49754d7a557a494445334d7934344e7a45734d6a59784c6a4d7a4f5341784e7a51754d6a67334c4449314f4334784d5441674d5463334c6a4d304d43424e4d7a63334c6a59784f5341784f4451754e44417a49454d674d7a63794c6a4d314f5341784f4455754d546b334c444d334d7934344f5445674d5467344c6a59304f53777a4e7a6b754f545578494445344f5334324e5463675179417a4f4445754d546734494445344f5334344e6a4d734d7a677a4c6a41784d4341784f5441754d5459334c444d344e4334774d4441674d546b774c6a4d7a4d69424449444d344e4334354f5441674d546b774c6a51354f43777a4f4459754d7a5177494445354d4334354d5467734d7a67334c6a41774d4341784f5445754d6a593249454d674d7a67354c6a41304d4341784f5449754d7a517a4c444d354d6934784d546b674d546b7a4c6a49774e43777a4f544d754f544977494445354d7934794d4449675179417a4f5451754f445932494445354d7934794d4445734d7a6b324c6a45794e6941784f544d754e4451314c444d354e6934334d6a41674d546b7a4c6a63304e43424449444d354e79347a4d5451674d546b304c6a41304d79777a4f5467754d6a6b31494445354e4334304d4459734d7a6b344c6a6b774d4341784f5451754e545578494577674e4441774c6a41774d4341784f5451754f444531494451774d4334774d4441674d546b784c6a67314e434244494451774d4334774d4441674d5467344c6a49794e53777a4f546b754d7a637a494445344e7934324d7a67734d7a6b314c6a41794d5341784f4463754d54673149454d674d7a6b794c6a457a4e4341784f4459754f4467304c444d354d5334314e5467674d5467324c6a637a4f53777a4f446b754d7a417a494445344e5334334e4441675179417a4f4467754e546b77494445344e5334304d6a51734d7a67324c6a59784d4341784f4451754f546b794c444d344e4334354d444d674d5467304c6a63344d43424449444d344d7934784f5463674d5467304c6a55324e79777a4f4445754d7a5577494445344e43347a4d6a49734d7a67774c6a67774d4341784f4451754d6a4d3049454d674d7a67774c6a49314d4341784f4451754d5451324c444d334f4334344d546b674d5467304c6a49794d69777a4e7a63754e6a4535494445344e4334304d444d67545445784e4334324e4467674d546b334c6a51774f534244494445784d6934304f5445674d546b354c6a55324e6977784d5455754d445131494449774d5334794e6a63734d5449794c6a51774d4341794d4449754e54637849454d674d5449304c6a51354d4341794d4449754f5451794c4445794e7934304d4455674d6a417a4c6a55784e7977784d6a67754f446333494449774d7934344e446b67517941784d7a45754d545979494449774e43347a4e6a55734d544d794c6a51344d5341794d4451754d7a67314c44457a4e7934344f446b674d6a417a4c6a6b344e434244494445304d69347a4f4445674d6a417a4c6a59314d5377784e4451754e6a5933494449774d7934324d7a59734d5451314c6a63304e6941794d444d754f544d3049454d674d5451324c6a63304d5341794d4451754d6a41354c4445304e7934324d5463674d6a41304c6a49794d6977784e4467754d6a6333494449774d7934354e7a4567517941784e446b754e444930494449774d7934314d7a55734d5459794c6a59344d6941794d444d754e4441334c4445324e7934304e4459674d6a417a4c6a63344e794244494445324f5334784f4441674d6a417a4c6a6b794e5377784e7a49754f545177494449774e4334774f5467734d5463314c6a67774d4341794d4451754d54637849454d674d5463344c6a59324d4341794d4451754d6a51314c4445344d5334794e7a41674d6a41304c6a51784d5377784f4445754e6a4177494449774e4334314e444567517941784f444d754d6a5532494449774e5334784f5451734d5467304c6a55784f5341794d4449754d7a49354c4445344d7934794e6a41674d6a41774c6a63334e534244494445344d69347a4d6a55674d546b354c6a59794d4377784e7a67754f445131494445354f5334304f4455734d5463784c6a63784e7941794d4441754d7a493449454d674d5459354c6a4d344e4341794d4441754e6a41304c4445324e5334354e5463674d6a41774c6a63774e7977784e6a4d754e7a4533494449774d4334314e6a6767517941784e6a41754d445579494449774d43347a4e4441734d5455334c6a6b774d6941794d4441754d7a49324c4445304e4334774d4441674d6a41774c6a517a4e534244494445304d4334334d5449674d6a41774c6a51324d5377784d7a67754d544d78494449774d4334794f5451734d544d334c6a51774d4341794d4441754d44413449454d674d544d324c6a63304d4341784f546b754e7a55774c44457a4e4334794d6a41674d546b354c6a51304f4377784d7a45754f444177494445354f53347a4d7a6367517941784d6a67754f445979494445354f5334794d4449734d5449324c6a4d7a4e7941784f5467754f4449794c4445794e4334794d4441674d546b344c6a45354d694244494445784f5334344d4441674d546b324c6a67354e6977784d5455754e54457a494445354e6934314e4451734d5445304c6a59304f4341784f5463754e4441354945307a4e5459754d444177494449784d53347a4e4451675179417a4e5459754d444177494449784d5334344e6a4d734d7a55324c6a51314d4341794d5449754f5455784c444d314e7934774d4441674d6a457a4c6a63324d69424449444d314e7934314e5441674d6a45304c6a55334d69777a4e5467754d444177494449784e53347a4d546b734d7a55344c6a41774d4341794d5455754e44497749454d674d7a55344c6a41774d4341794d5455754e5449794c444d324d4334304e4467674d6a45344c6a41334f53777a4e6a4d754e445177494449794d5334784d444d675179417a4e6a59754e444d79494449794e4334784d6a59734d7a59354c6a55314e6941794d6a63754e546b774c444d334d43347a4f4449674d6a49344c6a67774d43424449444d334d5334794d4463674d6a4d774c6a41784d43777a4e7a49754e7a45324944497a4d6934794d6a4d734d7a637a4c6a637a4d7941794d7a4d754e7a453549454d674d7a63304c6a63314d5341794d7a55754d6a45304c444d334e6934784d7a63674d6a4d324c6a6b774d79777a4e7a59754f44457a4944497a4e7934304e7a49675179417a4e7a63754e446b774944497a4f4334774e4449734d7a63344c6a63314e6941794d7a6b754e5445344c444d334f5334324d6a67674d6a51774c6a63314e43424449444d344d4334304f546b674d6a51784c6a6b344f53777a4f4445754f445178494449304d7934344d5441734d7a67794c6a59774f5341794e4451754f44417749454d674d7a677a4c6a63324e4341794e4459754d6a67334c444d344e5334344e6a45674d6a51354c6a49784e79777a4f4463754d7a4177494449314d53347a4e5451675179417a4f4463754e445932494449314d5334314f546b734d7a67334c6a6b324d5341794e5449754e6a45774c444d344f4334304d4445674d6a557a4c6a59774d43424449444d344f4334344e4445674d6a55304c6a55354d43777a4f446b754e6a5530494449314e6934784d6a41734d7a6b774c6a49774f4341794e5463754d44417749454d674d7a6b784c6a55334f5341794e546b754d5463344c444d354e6934774f5459674d6a59344c6a55794f53777a4f5459754f546732494449334d5334774d7a45675179417a4f5463754d7a6730494449334d6934784e446b734d7a6b344c6a49784f5341794e7a4d754e6a63354c444d354f4334344e4451674d6a63304c6a517a4d53424d49444d354f5334354e7a67674d6a63314c6a67774d43417a4f546b754f546735494449334d4334784d5449675179417a4f546b754f546b35494449324e4334354f5463734d7a6b354c6a6b784d7941794e6a51754d6a63794c444d354f5334784d7a49674d6a59794c6a6b784d69424449444d354f4334324e5455674d6a59794c6a41344d43777a4f5463754f544577494449324d4334324f4445734d7a6b334c6a51334e6941794e546b754f44417a49454d674d7a6b334c6a41304d7941794e5467754f5449314c444d354e6934794e6a4d674d6a55334c6a557a4d79777a4f5455754e7a5130494449314e6934334d5445675179417a4f5455754d6a4931494449314e5334344f446b734d7a6b304c6a67774d4341794e5451754f5467794c444d354e4334344d4441674d6a55304c6a59354e79424449444d354e4334344d4441674d6a55304c6a51784d53777a4f5451754e445177494449314d7934344e7a41734d7a6b304c6a41774d4341794e544d754e446b7a49454d674d7a6b7a4c6a55324d4341794e544d754d5445324c444d354d7934794d4441674d6a55794c6a55314e53777a4f544d754d6a4177494449314d6934794e4463675179417a4f544d754d6a4177494449314d5334354d7a67734d7a6b794c6a6b7a4d4341794e5445754e5467794c444d354d6934324d4441674d6a55784c6a51314e53424449444d354d6934794e7a41674d6a55784c6a4d794f53777a4f5449754d444177494449314d5334774d7a67734d7a6b794c6a41774d4341794e5441754f44413549454d674d7a6b794c6a41774d4341794e5441754e5467774c444d354d5334304e6a41674d6a51354c6a59304f43777a4f5441754f444177494449304f4334334d7a63675179417a4f5441754d545177494449304e7934344d6a55734d7a67354c6a59774d4341794e4459754f444d334c444d344f5334324d4441674d6a51324c6a55304d43424449444d344f5334324d4441674d6a51324c6a49304d79777a4f446b754e445177494449304e6934774d4441734d7a67354c6a49304e5341794e4459754d44417749454d674d7a67354c6a41304f5341794e4459754d4441774c444d344f4334784d4451674d6a51304c6a677a4d53777a4f4463754d545131494449304d7934304d4449675179417a4f4459754d546731494449304d5334354e7a4d734d7a67314c6a49324e5341794e4441754f44417a4c444d344e5334784d4441674d6a51774c6a67774d69424449444d344e4334354d7a55674d6a51774c6a67774d53777a4f4451754f444177494449304d4334314e5467734d7a67304c6a67774d4341794e4441754d6a597849454d674d7a67304c6a67774d4341794d7a6b754f5459314c444d344e4334304f4455674d6a4d354c6a4d314d69777a4f4451754d5441774944497a4f4334344f546b675179417a4f444d754e7a45314944497a4f4334304e4455734d7a677a4c6a457a4d4341794d7a63754e6a63324c444d344d6934344d4441674d6a4d334c6a45344f43424449444d344d4334304d6a55674d6a4d7a4c6a59334e69777a4e7a63754d6a6b774944497a4d4334774d6a55734d7a63774c6a51304f5341794d6a49754f44417949454d674d7a55344c6a6b334f4341794d5441754e6a6b794c444d314e6934774d4441674d6a41344c6a4d7a4d43777a4e5459754d444177494449784d53347a4e445167545451754f444177494449304f4334794d6a5567517941304c6a417a4d4341794e4467754e5445324c4449754f445578494449304f4334334e6a55734d6934784f4441674d6a51344c6a63334e794244494441754e6a417a494449304f4334344d4463734c5441754d444177494449304f5334304e4451734c5441754d444177494449314d5334774f444167517941774c6a41774d4341794e5449754e6a4d334c4441754e7a517a494449314d6934334f544d734d7934784d544d674d6a55784c6a637a4e79424449444d754f544d78494449314d53347a4e7a4d734e5334314d4441674d6a55774c6a6b324f4377324c6a59774d4341794e5441754f444d3349454d674f4334314e7a4d674d6a55774c6a59774d7977344c6a59774d6941794e5441754e5467774c4467754e7a4930494449304f5334784d444167517941344c6a67324e6941794e4463754d7a67354c4463754e6a6b34494449304e7934784d6a6b734e4334344d4441674d6a51344c6a49794e53424e4d7a6b314c6a41794e79417a4d7a45754d44417749454d674d7a6b304c6a45324d69417a4d7a45754e7a63774c444d354d79347a4d4463674d7a4d794c6a51774d43777a4f544d754d54493349444d7a4d6934304d4441675179417a4f5449754f54513349444d7a4d6934304d4441734d7a6b794c6a67774d43417a4d7a49754e5467774c444d354d6934344d4441674d7a4d794c6a67774d43424449444d354d6934344d4441674d7a4d7a4c6a41794d43777a4f5449754f54557749444d7a4d7934794d4441734d7a6b7a4c6a457a4e43417a4d7a4d754d6a417749454d674d7a6b7a4c6a597a4e53417a4d7a4d754d6a41774c444d354e7934794d4441674d7a4d774c6a4d304e79777a4f5463754d6a417749444d794f5334354e4459675179417a4f5463754d6a417749444d794f53347a4d4459734d7a6b324c6a59774f53417a4d6a6b754e546b794c444d354e5334774d6a63674d7a4d784c6a41774d43424e4d7a6b304c6a67774d43417a4d7a63754e6a417749454d674d7a6b304c6a4d784e53417a4d7a63754f5445304c444d354e43347a4e7a49674d7a4d334c6a6b344f53777a4f5455754d54417749444d7a4e7934354f5451675179417a4f5455754e546b3149444d7a4e7934354f5463734d7a6b324c6a41774d43417a4d7a63754f4449774c444d354e6934774d4441674d7a4d334c6a59774d43424449444d354e6934774d4441674d7a4d334c6a41354f53777a4f5455754e54633249444d7a4e7934774f546b734d7a6b304c6a67774d43417a4d7a63754e6a41774945307a4f4455754d7a417749444d7a4e7934344e7a59675179417a4f4455754e6a673149444d7a4e7934354e7a59734d7a67324c6a4d784e53417a4d7a63754f5463324c444d344e6934334d4441674d7a4d334c6a67334e69424449444d344e7934774f4455674d7a4d334c6a63334e53777a4f4459754e7a637749444d7a4e7934324f544d734d7a67324c6a41774d43417a4d7a63754e6a6b7a49454d674d7a67314c6a497a4d43417a4d7a63754e6a6b7a4c444d344e4334354d5455674d7a4d334c6a63334e53777a4f4455754d7a417749444d7a4e7934344e7a596754544d354d4334324e7a49674d7a51774c6a55774d43424449444d354d4334774e6a49674d7a51784c6a45774e53777a4f446b754d7a6b3449444d304d5334324d4441734d7a67354c6a45354e53417a4e4445754e6a417749454d674d7a67344c6a4d344d79417a4e4445754e6a41774c444d344e5334354f5451674d7a51794c6a6b344d79777a4f4459754d54493049444d304d79347a4e7a67675179417a4f4459754d7a517949444d304e4334774e4441734d7a67334c6a63774d69417a4e4451754d4459784c444d344f4334344d4441674d7a517a4c6a51784f53424449444d344f53347a4e5441674d7a517a4c6a41354f43777a4f5441754d6a457749444d304d6934324e446b734d7a6b774c6a63784d43417a4e4449754e44497a49454d674d7a6b784c6a637a4d79417a4e4445754f5459784c444d354d6934784d7a63674d7a51784c6a45354e53777a4f5445754f54493049444d304d4334784d6a4d675179417a4f5445754e7a6b3349444d7a4f5334304f4459734d7a6b784c6a59304f43417a4d7a6b754e544d784c444d354d4334324e7a49674d7a51774c6a55774d43416949484e30636d39725a543069626d39755a5349675a6d6c73624331796457786c50534a6c646d56756232526b4969427a64486c735a5430695a6d6c7362446f67636d64694b4445334e6977674d6a41354c4341784e444d704f79497650676f6749434167504842686447676761575139496e4268644767304969426b50534a4e4d5467314c6a55774d43417a4e7934774e7a4567517941784f4451754e54513049444d334c6a45344e4377784f4451754d44417749444d334c6a51314e7977784f4451754d44417749444d334c6a67794e434244494445344e4334774d4441674d7a67754d6a45334c4445344d7934314e5441674d7a67754e4441774c4445344d6934314f4463674d7a67754e44417749454d674d5467784c6a63774d53417a4f4334304d4441734d5467784c6a41344f53417a4f4334324d6a4d734d5467774c6a6b304e53417a4f5334774d444167517941784f4441754f44453449444d354c6a4d7a4d4377784f4441754e44453049444d354c6a59774d4377784f4441754d44513249444d354c6a59774d434244494445334f5334324e7a6b674d7a6b754e6a41774c4445334f5334774e7a41674d7a6b754f5459774c4445334f4334324f544d674e4441754e44417749454d674d5463344c6a4d784e6941304d4334344e4441734d5463334c6a637a4e5341304d5334794d4441734d5463334c6a51774d6941304d5334794d444167517941784e7a59754e544533494451784c6a49774d4377784e7a41754e445577494451334c6a55784d7977784e6a6b754e7a4d31494451354c6a45334f434244494445324f5334784e5445674e5441754e544d334c4445324f5334784d4467674e5441754e5459774c4445324f4334334e7a55674e446b754e7a417749454d674d5459344c6a55344d7941304f5334794d4455734d5459344c6a49314d6941304f4334344d4441734d5459344c6a41304d4341304f4334344d444167517941784e6a63754f444934494451344c6a67774d4377784e6a63754e545177494451344c6a51304d4377784e6a63754e444177494451344c6a41774d434244494445324e7934794e6a41674e4463754e5459774c4445324e6934344f4467674e4463754d6a41774c4445324e6934314e7a4d674e4463754d6a417749454d674d5459324c6a49314f4341304e7934794d4441734d5459324c6a41774d4341304e6934354d6a51734d5459324c6a41774d4341304e6934314f446367517941784e6a59754d444177494451324c6a49314d5377784e6a55754e6a6731494451314c6a67314f5377784e6a55754d7a4177494451314c6a63784e794244494445324e4334354d5455674e4455754e5463314c4445324e4334774e444d674e4455754d4451784c4445324d79347a4e6a49674e4451754e54493549454d674d5459794c6a59344d5341304e4334774d5467734d5459784c6a6b784e6941304d7934324d4441734d5459784c6a59324d6941304d7934324d444167517941784e6a45754e4441344944517a4c6a59774d4377784e6a45754d6a41774944517a4c6a4d324e7977784e6a45754d6a41774944517a4c6a41344d794244494445324d5334794d4441674e4449754e7a6b354c4445324d4334784d6a67674e4449754d4463304c4445314f4334344d5463674e4445754e44637a49454d674d5455334c6a55774e6941304d4334344e7a45734d5455324c6a4d794e6941304d4334794d4451734d5455324c6a45354d79417a4f5334354f446b67517941784e5459754d44597849444d354c6a63334e5377784e5455754e444d3449444d354c6a59774d4377784e5451754f44457749444d354c6a59774d434244494445314e4334784f4445674d7a6b754e6a41774c4445314d7934314f5449674d7a6b754d7a63314c4445314d7934314d4445674d7a6b754d54417749454d674d54557a4c6a49794e53417a4f4334794e7a45734d54517a4c6a6b774e43417a4f4334784e544d734d54517a4c6a41344f53417a4f4334354e6a6767517941784e4449754e7a517949444d354c6a4d784e6977784e4449754d44633349444d354c6a59774d4377784e4445754e6a457a49444d354c6a59774d434244494445304d5334784e4467674d7a6b754e6a41774c4445304d4334784d4441674d7a6b754f544d314c44457a4f5334794f4451674e4441754d7a513049454d674d544d344c6a51324f4341304d4334334e5451734d544d334c6a55334e5341304d5334774d446b734d544d334c6a4d774d4341304d4334354d544567517941784d7a63754d444931494451774c6a67784d7977784d7a59754f444177494451774c6a6b354e6977784d7a59754f444177494451784c6a4d784e7942444944457a4e6934344d4441674e4445754e6a51314c44457a4e6934794e7a51674e4449754d4441314c44457a4e5334314f5463674e4449754d54517849454d674d544d304c6a6b7a4e5341304d6934794e7a4d734d544d304c6a51304d4341304d6934324d4459734d544d304c6a51354e7941304d6934344f444567517941784d7a51754e5455304944517a4c6a45314e6977784d7a51754d6a45324944517a4c6a51304d4377784d7a4d754e7a51334944517a4c6a55784d6942444944457a4d7934794e7a67674e444d754e5467304c44457a4d6934304d6a45674e4451754d5463304c44457a4d5334344e4451674e4451754f44497949454d674d544d784c6a49324e6941304e5334304e7a41734d544d774c6a59784e5341304e6934774d4441734d544d774c6a4d354e7941304e6934774d444167517941784d7a41754d546335494451324c6a41774d4377784d7a41754d444177494451324c6a49334d4377784d7a41754d444177494451324c6a59774d4342444944457a4d4334774d4441674e4459754f544d774c4445794f5334334e7a55674e4463754d6a41344c4445794f5334314d4441674e4463754d6a453449454d674d5449354c6a49794e5341304e7934794d6a6b734d5449344c6a59304d4341304e7934334d444d734d5449344c6a49774d4341304f4334794e7a4d67517941784d6a63754e7a5977494451344c6a67304d7977784d6a59754f444531494451354c6a6b794d5377784d6a59754d544177494455774c6a59324f434244494445794e53347a4f4455674e5445754e4445314c4445794e4334344d4441674e5449754d6a67784c4445794e4334344d4441674e5449754e546b7a49454d674d5449304c6a67774d4341314d6934354d4451734d5449304c6a4d314d4341314d7934324e4451734d54497a4c6a67774d4341314e4334794d7a6767517941784d6a4d754d6a5577494455304c6a677a4d5377784d6a49754f444177494455314c6a55304f4377784d6a49754f444177494455314c6a677a4d434244494445794d6934344d4441674e5459754d5445794c4445794d6934304f4459674e5459754e6a55334c4445794d6934784d444d674e5463754d44517749454d674d5449784c6a4d7a4e5341314e7934344d4467734d5449774c6a63314d4341314f4334334e5449734d5445354c6a67324e5341324d4334324e544567517941784d546b754e545130494459784c6a4d7a4f5377784d546b754d44677a494459794c6a41794e5377784d5467754f445178494459794c6a45334e534244494445784f4334314f5467674e6a49754d7a49314c4445784f4334304d4441674e6a49754f4467334c4445784f4334304d4441674e6a4d754e44493049454d674d5445344c6a51774d4341324d7934354e6a45734d5445344c6a49794d4341324e4334304d4441734d5445344c6a41774d4341324e4334304d444167517941784d5463754e7a6777494459304c6a51774d4377784d5463754e6a4534494459304c6a6b344e5377784d5463754e6a5177494459314c6a63774d434244494445784e7934324e7a41674e6a59754e6a67334c4445784e7934334e444d674e6a59754f4441344c4445784e7934354e4449674e6a59754d6a417749454d674d5445344c6a517a4e7941324e4334324f5445734d5449774c6a55354d4341324d4334314f5467734d5449794c6a49354e5341314e7934354d7a4167517941784d6a4d754d6a4d7a494455324c6a51324d5377784d6a51754d444177494455314c6a45774f4377784d6a51754d444177494455304c6a6b794d794244494445794e4334774d4441674e5451754e7a4d344c4445794e4334344d5441674e544d754e6a59774c4445794e5334344d4441674e5449754e54493549454d674d5449324c6a63354d4341314d53347a4f5463734d5449334c6a59774d4341314d43347a4d5451734d5449334c6a59774d4341314d4334784d6a4d67517941784d6a63754e6a4177494451344c6a677a4e5377784d7a59754d446b32494451794c6a45304e6977784d7a67754f446b30494451784c6a497a4d5342444944457a4f5334334d5459674e4441754f5459794c4445304d4334304f5449674e4441754e5463314c4445304d4334324d5467674e4441754d7a637849454d674d5451774c6a63304e4341304d4334784e6a63734d5451784c6a4d304e5341304d4334774d4441734d5451784c6a6b314d6941304d4334774d444167517941784e4449754e545977494451774c6a41774d4377784e444d754f54417949444d354c6a63784d6977784e4451754f544d3149444d354c6a4d324d434244494445304f4334784e7a41674d7a67754d6a55344c4445314d7934784d7a49674d7a6b754d6a55784c4445314f4334314e7a63674e4449754d446b7749454d674d5459774c6a49784d6941304d6934354e444d734d5459774c6a4d794f5341304d7934774d6a55734d5459794c6a41794d5341304e4334314d445967517941784e6a49754e546779494451304c6a6b354f4377784e6a4d754f446732494451314c6a6b7a4d4377784e6a51754f544535494451324c6a55334f434244494445324e5334354e5445674e4463754d6a49334c4445324e6934344f5459674e4467754d4463794c4445324e7934774d5467674e4467754e44553449454d674d5459334c6a45304d5341304f4334344e4451734d5459334c6a63314f4341304f5334334d544d734d5459344c6a4d354d5341314d43347a4f544167517941784e6a6b754d44497a494455784c6a41324e7977784e6a6b754e6a4935494455784c6a67304d5377784e6a6b754e7a4d35494455794c6a45784d434244494445324f5334344e4467674e5449754d7a67774c4445324f5334354e5445674e5449754d4467334c4445324f5334354e6a67674e5445754e44597749454d674d5463774c6a41314e4341304f43347a4e5463734d5463334c6a6b7a4f4341304d4334774d4441734d5467774c6a63334f5341304d4334774d444167517941784f4441754f545533494451774c6a41774d4377784f4445754d7a493249444d354c6a637a4d4377784f4445754e6a417749444d354c6a51774d434244494445344d5334344e7a51674d7a6b754d4463774c4445344d6934314e7a45674d7a67754e7a6b304c4445344d7934784e446b674d7a67754e7a673349454d674d54677a4c6a63794e79417a4f4334334f4441734d5467304c6a55304f53417a4f4334314d5441734d5467304c6a6b334e69417a4f4334784f446367517941784f4459754d54417a49444d334c6a4d7a4e6977784f5451754e446b7849444d334c6a4d304e6977784f5455754d6a417749444d344c6a49774d434244494445354e5334304e7a51674d7a67754e544d774c4445354e5334354d6a51674d7a67754f4441774c4445354e6934794d4441674d7a67754f44417749454d674d546b324c6a51334e69417a4f4334344d4441734d546b324c6a6b794e69417a4f5334774e7a41734d546b334c6a49774d43417a4f5334304d444167517941784f5463754e44633049444d354c6a637a4d4377784f5467754d444133494451774c6a41774d4377784f5467754d7a6732494451774c6a41774d434244494449774d5334784f544d674e4441754d4441774c4449774f4334344e7a41674e5449754d7a51774c4449784d4334334f5459674e546b754f54513549454d674d6a45774c6a6b344e4341324d4334324f5445734d6a45784c6a4d7a4d6941324d5334304f5449734d6a45784c6a55324f5341324d5334334d6a6b67517941794d5445754f444132494459784c6a6b324e6977794d5449754d444177494459794c6a59314d6977794d5449754d4441774944597a4c6a49314e434244494449784d6934774d4441674e6a51754f4449304c4449784d6934324f4451674e6a59754e4441774c4449784d79347a4e6a51674e6a59754e44417749454d674d6a45304c6a45304d7941324e6934304d4441734d6a45344c6a4d354e7941334d4334334e446b734d6a45344c6a51784d7941334d5334314e6a4967517941794d5467754e444977494463784c6a6b784d7977794d5467754e6a6b77494463794c6a55304f5377794d546b754d44457a494463794c6a6b334e694244494449784f5334334e5467674e7a4d754f5459794c4449784f5334334e6a67674e7a55754f5467794c4449784f5334774d7a4d674e7a63754d444d7849454d674d6a45334c6a51304e5341334f5334794f546b734d6a45334c6a63304e7941344d4334304e4467734d6a49774c6a59774e6941344d7934774d544967517941794d6a6b754f444d3149446b784c6a49354d5377794d7a41754e44557849446b784c6a6b334e6977794d7a45754d6a633149446b304c6a67334d7942444944497a4d5334314e4459674f5455754f44497a4c44497a4d5334334e6a51674f5467754d6a45354c44497a4d5334334e6a45674d5441774c6a45354f5342444944497a4d5334334e5459674d54417a4c6a49314f4377794d7a45754f445935494445774d7934344f446b734d6a4d794c6a55784e6941784d4451754e44453049454d674d6a4d7a4c6a4d324e5341784d4455754d5441784c44497a4d7934314f4449674d5445304c6a55304d7977794d7a49754e7a6b33494445784e6934324d446767517941794d7a49754e546735494445784e7934784e5451734d6a4d794c6a55314d4341784d5463754e6a41784c44497a4d6934334d5441674d5445334c6a59774d7942444944497a4d79347a4f5467674d5445334c6a59774f5377794d7a51754e54417a494445794d43347a4f446b734d6a4d304c6a59354e6941784d6a49754e6a417749454d674d6a4d304c6a67794e5341784d6a51754d4463314c44497a4e53347a4e4467674d5449314c6a6b774d6977794d7a59754d44557a494445794e79347a4e444567517941794d7a59754e6a6730494445794f4334324d6a6b734d6a4d334c6a49774d4341784d7a41754d446b7a4c44497a4e7934794d4441674d544d774c6a55354e5342444944497a4e7934794d4441674d544d784c6a41354f4377794d7a63754e4459354944457a4d6934774d6a51734d6a4d334c6a63354f4341784d7a49754e6a553049454d674d6a4d344c6a45794e6941784d7a4d754d6a67304c44497a4f43347a4f5459674d544d304c6a517a4e5377794d7a67754d7a6b344944457a4e5334794d544567517941794d7a67754e4441794944457a4e7934314d6a67734d6a4d354c6a67774e4341784d7a6b754d5463314c4449304d5334344d4441674d544d354c6a49774e794244494449304d6934304e6a41674d544d354c6a49784e7977794e444d754d7a51354944457a4f5334304f5441734d6a517a4c6a63334e6941784d7a6b754f44457a49454d674d6a51304c6a49774e4341784e4441754d544d324c4449304e5334794d5459674d5451774c6a51774d4377794e4459754d444933494445304d4334304d444167517941794e4459754f445577494445304d4334304d4441734d6a51334c6a63794d6941784e4441754e6a59314c4449304f4334774d4441674d5451784c6a41774d434244494449304f4334794e7a51674d5451784c6a4d7a4d4377794e4467754f544130494445304d5334324d4441734d6a51354c6a51774d4341784e4445754e6a417749454d674d6a51354c6a67354e6941784e4445754e6a41774c4449314d4334314d6a59674d5451784c6a67334d4377794e5441754f444177494445304d6934794d444167517941794e5445754d446330494445304d6934314d7a41734d6a55784c6a59784e4341784e4449754f4441774c4449314d6934774d4441674d5451794c6a67774d434244494449314d69347a4f4459674d5451794c6a67774d4377794e5449754f544932494445304d7934774e7a41734d6a557a4c6a49774d4341784e444d754e44417749454d674d6a557a4c6a51334e4341784e444d754e7a4d774c4449314d7934354f5445674d5451304c6a41774d5377794e5451754d7a5135494445304e4334774d444967517941794e5451754e7a4133494445304e4334774d4451734d6a55314c6a55784e6941784e4451754d6a63304c4449314e6934784e4459674d5451304c6a59774d694244494449314e6934334e7a59674d5451304c6a6b7a4d5377794e5463754e446779494445304e5334794d4441734d6a55334c6a63784e6941784e4455754d6a417749454d674d6a55344c6a45344f4341784e4455754d6a41774c4449324d7934354d5441674d5451344c6a41774d7977794e6a59754e7a4177494445304f5334324d444567517941794e6a63754d446731494445304f5334344d6a45734d6a59334c6a63324d4341784e5441754d54597a4c4449324f4334794d4441674d5455774c6a4d324d534244494449324f4334324e4441674d5455774c6a55314f4377794e6a6b754e6a677a494445314d5334784f4467734d6a63774c6a55784f4341784e5445754e7a597749454d674d6a63784c6a4d314d7941784e5449754d7a4d794c4449334d6934794d7a63674d5455794c6a67774d4377794e7a49754e446730494445314d6934344d444167517941794e7a49754e7a4d78494445314d6934344d4441734d6a637a4c6a49784f4341784e544d754d4463794c4449334d7934314e6a59674d54557a4c6a51774e534244494449334d7934354d5455674d54557a4c6a637a4e7977794e7a55754d7a517a494445314e4334344d7a41734d6a63324c6a63304d5341784e5455754f444d30494577674d6a63354c6a49344d6941784e5463754e6a5535494449344d7934334e4445674d5455334c6a677a4d434244494449344e6934784f544d674d5455334c6a6b794e5377794f4467754e6a5577494445314f4334784d5463734d6a67354c6a49774d4341784e5467754d6a553449454d674d6a67354c6a63314d4341784e5467754d7a6b354c4449354d5334774d5441674d5455344c6a55314d5377794f5449754d444177494445314f4334314f546367517941794f5459754e445133494445314f4334344d444d734d7a417a4c6a49784f4341784e546b754e5467784c444d774d7934354e4463674d5455354c6a6b334d53424449444d774e43347a4f4463674d5459774c6a49774e79777a4d4455754e544930494445324d4334304d4459734d7a41324c6a51334e4341784e6a41754e44457a49454d674d7a41334c6a51794d7941784e6a41754e4449774c444d774f4334314e446b674d5459774c6a59354d43777a4d4467754f546332494445324d5334774d544d675179417a4d446b754e444130494445324d53347a4d7a59734d7a45774c6a49324e4341784e6a45754e6a41774c444d784d4334344f446b674d5459784c6a59774d43424449444d784d5334314d5451674d5459784c6a59774d43777a4d5449754e6a6379494445324d5334344e7a41734d7a457a4c6a51324d6941784e6a49754d6a417749454d674d7a45304c6a49314d5341784e6a49754e544d774c444d784e53347a4e7a59674d5459794c6a67774d43777a4d5455754f545977494445324d6934344d4441675179417a4d5459754e545130494445324d6934344d4441734d7a45334c6a4d354f5341784e6a4d754d4459304c444d784e7934344e6a41674d54597a4c6a4d344e79424449444d784f43347a4d6a45674d54597a4c6a63784d43777a4d546b754e445131494445324e4334774f5451734d7a49774c6a4d314f4341784e6a51754d6a517749454d674d7a49784c6a49334d5341784e6a51754d7a67324c444d794d6934784d4467674d5459304c6a59314d53777a4d6a49754d6a4534494445324e4334344d6a6b675179417a4d6a49754d7a4934494445324e5334774d4467734d7a497a4c6a49784f5341784e6a55754d6a63304c444d794e4334784f5459674d5459314c6a51794d43424449444d794e5334784e7a51674d5459314c6a55324e79777a4d6a59754d546779494445324e5334354d7a63734d7a49324c6a517a4e6941784e6a59754d6a517a49454d674d7a49324c6a59354d4341784e6a59754e5455774c444d794e79347a4f5451674d5459324c6a67774d43777a4d6a67754d444177494445324e6934344d4441675179417a4d6a67754e6a4132494445324e6934344d4441734d7a49354c6a4d794e6941784e6a63754d4463774c444d794f5334324d4441674d5459334c6a51774d43424449444d794f5334344e7a51674d5459334c6a637a4d43777a4d7a41754e546b30494445324f4334774d4441734d7a4d784c6a49774d4341784e6a67754d44417749454d674d7a4d784c6a67774e6941784e6a67754d4441774c444d7a4d6934314d6a59674d5459344c6a49334d43777a4d7a49754f444177494445324f4334324d4441675179417a4d7a4d754d7a6b34494445324f53347a4d6a41734d7a4d314c6a45794f4341784e6a6b754d7a63334c444d7a4e6934324e7a51674d5459344c6a63794e79424449444d7a4e7934794f544d674d5459344c6a51324e69777a4d7a6b754e544577494445324f4334784d6a41734d7a51784c6a59774d4341784e6a63754f54553549454d674d7a517a4c6a59354d4341784e6a63754e7a6b334c444d304e6934794e6a55674d5459334c6a51334d79777a4e4463754d7a4979494445324e7934794e4441675179417a4e446b754e7a5133494445324e6934334d4455734d7a59304c6a4d334e7941784e6a59754e7a497a4c444d324e6934784d4463674d5459334c6a49324e43424449444d324e6934344d5467674d5459334c6a51344e69777a4e6a6b754d444977494445324e7934344d546b734d7a63784c6a41774d4341784e6a67754d44413149454d674d7a63304c6a63314e7941784e6a67754d7a55344c444d334f4334784e5467674d5459344c6a6b334d53777a4f4441754d6a4177494445324f5334324e6a4d675179417a4f4441754f445977494445324f5334344f4463734d7a67794c6a45794d4341784e7a41754d6a51314c444d344d7934774d4441674d5463774c6a51314f43424449444d344d7934344f4441674d5463774c6a59334d53777a4f4451754e7a6378494445334d5334774d5459734d7a67304c6a6b344d4341784e7a45754d6a497a49454d674d7a67314c6a45344f5341784e7a45754e444d774c444d344e5334324e6a6b674d5463784c6a59774d43777a4f4459754d445134494445334d5334324d4441675179417a4f4459754f445978494445334d5334324d4441734d7a6b344c6a49334d4341784e7a63754d4459314c444d354f4334324d5449674d5463334c6a59784f53424449444d354f4334334e4445674d5463334c6a67794f53777a4f546b754d545178494445334f4334774d4441734d7a6b354c6a51354f5341784e7a67754d44417749454d674e4441774c6a417a4d6941784e7a67754d4441774c444d354f5334354f5455674d5463334c6a67314e53777a4f546b754d6a6b79494445334e7934794d4441675179417a4f5467754f444977494445334e6934334e6a41734d7a6b344c6a45334f4341784e7a59754e4441774c444d354e7934344e6a59674d5463324c6a51774d43424449444d354e7934314e544d674d5463324c6a51774d43777a4f5463754d446330494445334e6934784d7a41734d7a6b324c6a67774d4341784e7a55754f44417749454d674d7a6b324c6a55794e6941784e7a55754e4463774c444d354e5334344f4441674d5463314c6a49774d43777a4f5455754d7a5931494445334e5334794d4441675179417a4f5451754f444d34494445334e5334794d4441734d7a6b304c6a49304d5341784e7a51754f4455774c444d354e4334774d4441674d5463304c6a51774d43424449444d354d7934334e546b674d54637a4c6a6b314d43777a4f544d754d545979494445334d7934324d4441734d7a6b794c6a597a4e5341784e7a4d754e6a417749454d674d7a6b794c6a45794d4341784e7a4d754e6a41774c444d354d5334304e7a51674d54637a4c6a4d7a4d43777a4f5445754d6a4177494445334d7934774d4441675179417a4f5441754f544932494445334d6934324e7a41734d7a6b774c6a4d314f4341784e7a49754e4441774c444d344f5334354d7a67674d5463794c6a51774d43424449444d344f5334314d546b674d5463794c6a51774d43777a4f446b754d446378494445334d6934784d7a41734d7a67344c6a6b304e5341784e7a45754f44417749454d674d7a67344c6a67784e6941784e7a45754e4459304c444d344f4334794d6a45674d5463784c6a49774d43777a4f4463754e546b78494445334d5334794d4441675179417a4f4459754f546379494445334d5334794d4441734d7a67324c6a51774d5341784e7a45754d4441794c444d344e69347a4d6a41674d5463774c6a63324d53424449444d344e6934794e4441674d5463774c6a55784f53777a4f4455754d6a6777494445334d4334794d6a59734d7a67304c6a45344e7941784e7a41754d54457749454d674d7a677a4c6a41354e4341784e6a6b754f546b7a4c444d344d5334354d7a41674d5459354c6a59334d79777a4f4445754e6a4177494445324f53347a4f5463675179417a4f4445754d6a6377494445324f5334784d6a45734d7a63354c6a6b324f4341784e6a67754e7a63794c444d334f4334334d4459674d5459344c6a59794d43424449444d334e7934304e4455674d5459344c6a51324f43777a4e7a59754d7a4135494445324f4334784e7a63734d7a63324c6a45344d7941784e6a63754f54637949454d674d7a63324c6a41314e6941784e6a63754e7a59334c444d334e4334314e5467674d5459334c6a59774d43777a4e7a49754f44557a494445324e7934324d4441675179417a4e7a41754e7a5132494445324e7934324d4441734d7a59354c6a55774e4341784e6a63754e4445794c444d324f4334354e7a59674d5459334c6a41784d79424449444d324e7934354d546b674d5459324c6a49784d79777a4e4451754f445578494445324e6934784d4467734d7a51304c6a41324d5341784e6a59754f54417749454d674d7a517a4c6a63344e7941784e6a63754d5463314c444d304d5334354f5459674d5459334c6a55794e79777a4e4441754d446778494445324e7934324f4445675179417a4d7a67754d545933494445324e7934344d7a59734d7a4d314c6a67314e6941784e6a67754d4463344c444d7a4e4334354e4463674d5459344c6a49784f53424449444d7a4d7934354d544d674d5459344c6a4d334f53777a4d7a4d754d546b79494445324f43347a4d5445734d7a4d7a4c6a41794d7941784e6a67754d444d3449454d674d7a4d794c6a67334e4341784e6a63754e7a6b334c444d7a4d6934794e444d674d5459334c6a59774d43777a4d7a45754e6a4535494445324e7934324d4441675179417a4d7a41754f546778494445324e7934324d4441734d7a4d774c6a4d344e5341784e6a63754d7a4d344c444d7a4d4334794e5455674d5459334c6a41774d43424449444d7a4d4334784d5449674d5459324c6a59794e69777a4d6a6b754e544178494445324e6934304d4441734d7a49344c6a597a4d6941784e6a59754e44417749454d674d7a49334c6a63354f4341784e6a59754e4441774c444d794e7934784d4449674d5459324c6a45314e53777a4d6a59754f446b33494445324e5334334f4463675179417a4d6a59754e7a4134494445324e5334304e5441734d7a49314c6a67304e6941784e6a55754d4459774c444d794e4334354f4441674d5459304c6a6b784f53424449444d794e4334784d5455674d5459304c6a63334f53777a4d6a4d754d545933494445324e4334304d6a55734d7a49794c6a67334e5341784e6a51754d544d7949454d674d7a49794c6a55344d6941784e6a4d754f444d354c444d794d5334314e4459674d54597a4c6a59774d43777a4d6a41754e546378494445324d7934324d4441675179417a4d546b754e546b33494445324d7934324d4441734d7a45344c6a67774d4341784e6a4d754e444d784c444d784f4334344d4441674d54597a4c6a49794e53424449444d784f4334344d4441674d54597a4c6a41784f43777a4d5463754f546332494445324d6934334d6a55734d7a45324c6a6b324f4341784e6a49754e54633049454d674d7a45314c6a6b324d5341784e6a49754e44497a4c444d784e5334774e4445674d5459794c6a41314d69777a4d5451754f544931494445324d5334334e5441675179417a4d5451754e7a6779494445324d53347a4e7a59734d7a45304c6a41784e4341784e6a45754d6a41774c444d784d6934314d6a6b674d5459784c6a49774d43424449444d784d5334784d546b674d5459784c6a49774d43777a4d5441754d544d77494445324d4334354f4463734d7a41354c6a63304d7941784e6a41754e6a417749454d674d7a41354c6a4d324d4341784e6a41754d6a45334c444d774f43347a4e7a51674d5459774c6a41774d43777a4d4463754d444977494445324d4334774d4441675179417a4d4455754e6a6732494445324d4334774d4441734d7a41304c6a63794e5341784e546b754e7a6b784c444d774e4334304d7a49674d5455354c6a517a4f43424449444d774e4334784d5445674d5455354c6a41314d53777a4d4449754e545177494445314f4334334f4467734d6a6b354c6a4d344d7941784e5467754e546b7749454d674d6a6b324c6a67324d6941784e5467754e444d7a4c4449354e4334344d4441674d5455344c6a45304e6977794f5451754f444177494445314e7934354e544967517941794f5451754f444177494445314e7934334e5467734d6a6b794c6a6b314e4341784e5463754e6a41774c4449354d4334324f5463674d5455334c6a59774d434244494449344f4334304e4445674d5455334c6a59774d4377794f4455754f545932494445314e7934304d4467734d6a67314c6a45354e7941784e5463754d54633049454d674d6a67304c6a51794f5341784e5459754f5451774c4449344d6934314e4455674d5455324c6a59344f5377794f4445754d444577494445314e6934324d545967517941794e7a67754e7a4130494445314e6934314d4463734d6a63344c6a45794e4341784e5459754d7a4d344c4449334e7934324e6a45674d5455314c6a59304d694244494449334e79347a4e5451674d5455314c6a45334f5377794e7a59754f446330494445314e4334344d4441734d6a63324c6a55354e4341784e5451754f44417749454d674d6a63324c6a4d784e4341784e5451754f4441774c4449334e5334354e7a55674d5455304c6a55784d5377794e7a55754f444d35494445314e4334784e546767517941794e7a55754e7a4130494445314d7934344d4459734d6a63314c6a4d314e7941784e544d754e6a41344c4449334e5334774e6a67674d54557a4c6a63784f534244494449334e4334334e7a6b674d54557a4c6a67794f5377794e7a51754d7a4935494445314d7934314e7a67734d6a63304c6a41324f4341784e544d754d54597749454d674d6a637a4c6a67774e7941784e5449754e7a51794c4449334d7934794d7a55674d5455794c6a51774d4377794e7a49754e7a6b33494445314d6934304d444167517941794e7a49754d7a5534494445314d6934304d4441734d6a63794c6a41304e5341784e5449754d5463354c4449334d6934784d4441674d5455784c6a6b774f534244494449334d6934784e5455674d5455784c6a59304d4377794e7a45754e7a5530494445314d53347a4e5449734d6a63784c6a49784d4341784e5445754d6a637749454d674d6a63774c6a59324e5341784e5445754d5467344c4449324f5334354f4441674d5455774c6a63334f5377794e6a6b754e6a6733494445314d43347a4e6a4167517941794e6a6b754d7a6b30494445304f5334354e4449734d6a59344c6a67774e5341784e446b754e6a41774c4449324f43347a4e7a63674d5451354c6a59774d434244494449324e7934354e5441674d5451354c6a59774d4377794e6a63754e6a4177494445304f5334304e5455734d6a59334c6a59774d4341784e446b754d6a633349454d674d6a59334c6a59774d4341784e4467754f544d354c4449324e4334344d6a63674d5451334c6a59774d4377794e6a51754d544934494445304e7934324d444167517941794e6a4d754f544132494445304e7934324d4441734d6a597a4c6a4d354f4341784e4463754d6a51774c4449324d7934774d4441674d5451324c6a67774d434244494449324d6934324d4449674d5451324c6a4d324d4377794e6a45754f446b35494445304e5334354f5451734d6a59784c6a517a4f4341784e4455754f54673349454d674d6a59774c6a6b334e7941784e4455754f5467774c4449324d4334794e5445674d5451314c6a63784d4377794e546b754f444930494445304e53347a4f446367517941794e546b754d7a6b32494445304e5334774e6a51734d6a55344c6a63304e4341784e4451754f4441774c4449314f43347a4e7a4d674d5451304c6a67774d434244494449314f4334774d4449674d5451304c6a67774d4377794e5463754e446b33494445304e4334314e5463734d6a55334c6a49314d5341784e4451754d6a597849454d674d6a55334c6a41774e4341784e444d754f5459304c4449314e6934794d7a45674d54517a4c6a63774e6977794e5455754e544d78494445304d7934324f445967517941794e5451754f444932494445304d7934324e6a59734d6a55304c6a45774e4341784e444d754d7a63784c4449314d7934354d5441674d54517a4c6a41794e534244494449314d7934334d5467674d5451794c6a59344d5377794e544d754d545178494445304d6934304d4441734d6a55794c6a59794f5341784e4449754e44417749454d674d6a55794c6a45784e7941784e4449754e4441774c4449314d5334304e7a51674d5451794c6a457a4d4377794e5445754d6a4177494445304d5334344d444167517941794e5441754f544932494445304d5334304e7a41734d6a55774c6a49354d7941784e4445754d6a41774c4449304f5334334f5451674d5451784c6a49774d434244494449304f5334794f5451674d5451784c6a49774d4377794e4467754e7a6779494445304d4334354d7a41734d6a51344c6a59314e5341784e4441754e6a417749454d674d6a51344c6a55794f5341784e4441754d6a63774c4449304e7934354f4445674d5451774c6a41774d4377794e4463754e444d35494445304d4334774d444167517941794e4459754f446b32494445304d4334774d4441734d6a51314c6a6b304e5341784d7a6b754f4441784c4449304e53347a4d6a59674d544d354c6a55314e794244494449304e4334334d4463674d544d354c6a4d784e4377794e444d754d7a41794944457a4f4334354f546b734d6a51794c6a49774e5341784d7a67754f44553349454d674d6a51774c6a597a4f5341784d7a67754e6a55314c4449304d4334784e7a67674d544d344c6a51794f4377794e4441754d4459784944457a4e7934344d444167517941794d7a6b754f5463344944457a4e79347a4e6a41734d6a4d354c6a59324d5341784d7a59754f4455324c44497a4f53347a4e5455674d544d324c6a59344d4342444944497a4f4334354f5445674d544d324c6a51334d4377794d7a67754f4441774944457a4e5334324d6a63734d6a4d344c6a67774d4341784d7a51754d6a493549454d674d6a4d344c6a67774d4341784d7a49754f44497a4c44497a4f4334314f5459674d544d784c6a6b794f5377794d7a67754d6a41774944457a4d5334324d444167517941794d7a63754f4463774944457a4d53347a4d6a59734d6a4d334c6a59774d4341784d7a41754e5445314c44497a4e7934324d4441674d5449354c6a63354e7942444944497a4e7934324d4441674d5449354c6a41334f5377794d7a63754d7a4d78494445794e7934354e7a59734d6a4d334c6a41774d6941784d6a63754d7a513249454d674d6a4d324c6a59334e4341784d6a59754e7a45324c44497a4e6934304d444d674d5449314c6a6b7a4d4377794d7a59754e444177494445794e5334324d444167517941794d7a59754d7a6b33494445794e5334794e7a41734d6a4d324c6a45784d5341784d6a51754e4459774c44497a4e5334334e6a51674d54497a4c6a67774d4342444944497a4e5334304d5463674d54497a4c6a45304d4377794d7a55754d544535494445794d5334344d6a55734d6a4d314c6a45774d7941784d6a41754f44633449454d674d6a4d314c6a41344d5341784d546b754e6a55324c44497a4e4334344e446b674d5445354c6a41774d4377794d7a51754d7a417a494445784f4334324d546367517941794d7a4d754e546b33494445784f4334784d6a49734d6a4d7a4c6a557a4f5341784d5463754e546b784c44497a4d7934324d444d674d5445794c6a457a4f5342444944497a4d7934334d444d674d54417a4c6a59324f5377794d7a4d754e7a4134494445774d7934334d6a45734d6a4d794c6a67334d4341784d444d754e54417a49454d674d6a4d794c6a49784e5341784d444d754d7a4d784c44497a4d6934784e7a45674d54417a4c6a41794f5377794d7a49754e445177494445774d4334314d446b67517941794d7a49754e6a453149446b344c6a67344d4377794d7a49754e54637a49446b334c6a41314e7977794d7a49754d7a517949446b324c6a45314d7942444944497a4d6934784d6a4d674f5455754d6a6b354c44497a4d5334344d7a6b674f5451754d5455774c44497a4d5334334d446b674f544d754e6a417749454d674d6a4d784c6a55344d4341354d7934774e5441734d6a4d784c6a45304d7941354d69347a4e6a55734d6a4d774c6a637a4e7941354d6934774e7a6367517941794d7a41754d7a4d7949446b784c6a63354d4377794d7a41754d44417749446b784c6a4d794e4377794d7a41754d44417749446b784c6a41304d6942444944497a4d4334774d4441674f5441754d6a6b794c4449794e6934354e4441674f4463754d6a41774c4449794e6934784f5463674f4463754d6a417749454d674d6a49314c6a67304f4341344e7934794d4441734d6a49314c6a49314f5341344e6934324e7a41734d6a49304c6a67344e7941344e6934774d6a4967517941794d6a51754e544531494467314c6a4d334e4377794d6a4d754f446330494467304c6a63314e6977794d6a4d754e44597a494467304c6a59304f434244494449794d7934774e5449674f4451754e5451784c4449794d6934334f5451674f4451754d6a45354c4449794d6934344f446b674f444d754f544d7a49454d674d6a497a4c6a41314e7941344d7934304d7a41734d6a49784c6a55324e4341344d6934304d4441734d6a49774c6a59324e7941344d6934304d444167517941794d5467754f545933494467794c6a51774d4377794d5467754d545178494463354c6a51324d7977794d546b754e444933494463334c6a6b354d534244494449784f5334334d546b674e7a63754e6a55324c4449794d4334774d6a51674e7a59754e7a55774c4449794d4334784d444d674e7a55754f54633349454d674d6a49774c6a45344d6941334e5334794d444d734d6a49774c6a4d344d6941334e43347a4e5449734d6a49774c6a55304e7941334e4334774f445567517941794d6a41754e7a45794944637a4c6a67784f4377794d6a41754e6a55334944637a4c6a59774d4377794d6a41754e4449304944637a4c6a59774d434244494449794d4334784f5445674e7a4d754e6a41774c4449794d4334774d4441674e7a4d754d6a51774c4449794d4334774d4441674e7a49754f44417749454d674d6a49774c6a41774d4341334d69347a4e6a41734d6a45354c6a67794d4341334d6934774d4441734d6a45354c6a59774d4341334d6934774d444167517941794d546b754d7a6777494463794c6a41774d4377794d546b754d6a4177494463784c6a637a4d5377794d546b754d6a4177494463784c6a51774d694244494449784f5334794d4441674e7a41754e6a63314c4449784e4334304f4455674e6a59754d4441774c4449784d7934334e5449674e6a59754d44417749454d674d6a45794c6a6b314d5341324e6934774d4441734d6a45794c6a51774d4341324e4334324e4451734d6a45794c6a51774d4341324d6934324e7a5567517941794d5449754e444177494459784c6a55344d7977794d5449754d545935494459774c6a63774e6977794d5445754f444177494459774c6a51774d434244494449784d5334304e7a41674e6a41754d5449324c4449784d5334794d4441674e546b754e4441324c4449784d5334794d4441674e5467754f44417749454d674d6a45784c6a49774d4341314f4334784f5451734d6a45774c6a6b7a4d4341314e7934304e7a51734d6a45774c6a59774d4341314e7934794d444167517941794d5441754d6a6377494455324c6a6b794e6977794d5441754d444177494455324c6a49774e6977794d5441754d444177494455314c6a59774d434244494449784d4334774d4441674e5451754f546b304c4449774f5334334d7a41674e5451754d6a63304c4449774f5334304d4441674e5451754d44417749454d674d6a41354c6a41334d4341314d7934334d6a59734d6a41344c6a67774d4341314d7934774f4455734d6a41344c6a67774d4341314d6934314e7a5567517941794d4467754f444177494455794c6a41324e5377794d4467754e6a4533494455784c6a557a4e4377794d4467754d7a6b30494455784c6a4d354e694244494449774f4334784e7a45674e5445754d6a55344c4449774e7934334d6a49674e5441754e54637a4c4449774e79347a4f5459674e446b754f44637a49454d674d6a41324c6a51304f4341304e7934344d7a49734d6a41314c6a41354f4341304e5334334e544d734d6a417a4c6a63774d4341304e4334784f444d67517941794d4449754f5467314944517a4c6a4d344d4377794d4449754e444177494451794c6a597a4d7977794d4449754e444177494451794c6a55794d694244494449774d6934304d4441674e4449754d5451344c4445354f5334304d444d674d7a6b754e6a45354c4445354f4334354e446b674d7a6b754e6a413549454d674d546b344c6a63774d53417a4f5334324d4451734d546b344c6a49334e43417a4f53347a4d7a41734d546b344c6a41774d43417a4f5334774d444167517941784f5463754e7a493249444d344c6a59334d4377784f5463754d6a493549444d344c6a51774d4377784f5459754f446b3149444d344c6a51774d434244494445354e6934314e6a45674d7a67754e4441774c4445354e6934774e6a49674d7a67754d446b774c4445354e5334334f4455674d7a63754e7a457949454d674d546b314c6a49324f53417a4e7934774d4459734d5467354c6a49794e69417a4e6934324d6a6b734d5467314c6a55774d43417a4e7934774e7a4567545445784e6934304e6a51674e6a67754e6a453549454d674d5445324c6a49774f5341324f5334784e7a6b734d5445324c6a41774d4341334d43347a4e446b734d5445324c6a41774d4341334d5334794d546b67517941784d5459754d444177494463794c6a41344f4377784d5455754f444d78494463794c6a67774d4377784d5455754e6a4931494463794c6a67774d434244494445784e5334304d546b674e7a49754f4441774c4445784e5334794d6a6b674e7a4d754d5445314c4445784e5334794d4451674e7a4d754e54417749454d674d5445304c6a677a4d6941334f5334784e7a4d734d5445304c6a63774d5341344d4334774d4441734d5445304c6a45324e7941344d4334774d444167517941784d544d754e7a5532494467774c6a41774d4377784d544d754e6a4177494467774c6a557a4d4377784d544d754e6a4177494467784c6a6b794e434244494445784d7934324d4441674f4449754f546b324c4445784d79347a4e4441674f4451754d546b784c4445784d7934774d544d674f4451754e6a493049454d674d5445794c6a59774e4341344e5334784e6a4d734d5445794c6a51794d6941344e6934304e544d734d5445794c6a51784d7941344f4334344e546367517941784d5449754e44417a49446b784c6a55314d7977784d5449754d6a593449446b794c6a4d324e5377784d5445754f44417749446b794c6a55304e534244494445784d5334304e6a63674f5449754e6a637a4c4445784d5334784f546b674f544d754d6a59354c4445784d5334784f5467674f544d754f44673349454d674d5445784c6a45354e6941354e4334304f546b734d5445774c6a6b794d6941354e5334314d6a4d734d5445774c6a55344f4341354e6934784e6a4d67517941784d5441754d6a553149446b324c6a67774d7977784d446b754f544d3349446b344c6a55344f5377784d446b754f44677a494445774d4334784d7a4d67517941784d446b754f444535494445774d5334354d6a41734d5441354c6a59774e5341784d4449754f546b344c4445774f5334794f5449674d54417a4c6a45774d794244494445774f4334354e7a4d674d54417a4c6a49774f5377784d4467754f444177494445774e4334784e4449734d5441344c6a67774d4341784d4455754e7a557a49454d674d5441344c6a67774d4341784d4463754d5449784c4445774f4334324d5441674d5441344c6a517a4d4377784d4467754d7a6333494445774f4334324e6a4d67517941784d4467754d545130494445774f4334344f5459734d5441334c6a67344d4341784d5441754d5451334c4445774e7934334f5441674d5445784c6a51304d794244494445774e7934334d4441674d5445794c6a637a4f5377784d4463754e7a4d77494445784d7934304e4441734d5441334c6a67314e6941784d544d754d44417749454d674d5441334c6a6b344d7941784d5449754e5459774c4445774f4334794e444d674d5445794c6a41774e7977784d4467754e444d30494445784d5334334e7a4167517941784d4467754e6a4931494445784d5334314d7a51734d5441344c6a6b774d7941784d5441754d4441304c4445774f5334774e5445674d5441344c6a4d334d434244494445774f5334784f546b674d5441324c6a637a4e7977784d446b754e54597a494445774e4334334d4449734d5441354c6a67324d4341784d444d754f44557749454d674d5445774c6a45314e7941784d4449754f546b334c4445784d4334304d4441674d5441784c6a557a4e4377784d5441754e444177494445774d4334314f546b67517941784d5441754e44417749446b354c6a59324d7977784d5441754e6a637749446b344c6a49314d5377784d5445754d44417749446b334c6a51324d694244494445784d53347a4d7a41674f5459754e6a63794c4445784d5334324d4441674f5455754e5463344c4445784d5334324d4441674f5455754d444d7849454d674d5445784c6a59774d4341354e4334304f444d734d5445794c6a41314e6941354d79347a4e6a51734d5445794c6a59784d7941354d6934314e444d67517941784d544d754e44593049446b784c6a49344f5377784d544d754e6a453349446b774c6a59794f5377784d544d754e546377494467344c6a51794e534244494445784d7934314d4467674f4455754e4467774c4445784e4334774d4459674f4449754d6a51774c4445784e4334334d6a4d674f4441754f54493249454d674d5445304c6a6b344e5341344d4334304e4459734d5445314c6a49774d4341334f5334774e7a4d734d5445314c6a49774d4341334e7934344e7a5567517941784d5455754d6a4177494463324c6a51794f4377784d5455754e444178494463314c6a557a4d5377784d5455754f444177494463314c6a49774d434244494445784e6934784e6a6b674e7a51754f446b304c4445784e6934304d4463674e7a4d754f546b774c4445784e6934304d5467674e7a49754f44557849454d674d5445324c6a51794e7941334d5334344d7a4d734d5445324c6a59354e5341334d4334794f4441734d5445334c6a41784d6941324f5334304d444167517941784d5463754e7a6b33494459334c6a49794d5377784d5463754d7a6331494459324c6a59784f5377784d5459754e445930494459344c6a59784f53424e4d6a45794c6a6b794d4341334e6934324f545967517941794d5463754d6a557a494463324c6a6b324e7977794d5455754f544977494463354c6a63344d5377794d446b754e7a45774944677a4c6a51334e434244494449774f43347a4e4445674f4451754d6a67344c4449774e7934794f446b674f4455754d44497a4c4449774e79347a4e7a4d674f4455754d54413349454d674d6a41334c6a63794e5341344e5334304e5467734d6a457a4c6a4d344d7941344d5334334d4463734d6a45304c6a51314f4341344d4334304d544567517941794d5459754f446735494463334c6a51334e7977794d5459754e444978494463324c6a4d324e7977794d5449754f444177494463324c6a51344d69424d494449784d4334324d4441674e7a59754e545578494449784d6934354d6a41674e7a59754e6a6b32494530794d4459754f445935494463334c6a6b324d694244494449774e6934794f4445674e7a67754e6a41784c4449774e53347a4f5467674e7a6b754e6a59784c4449774e4334354d4463674f4441754d7a453349454d674d6a41304c6a51784e6941344d4334354e7a4d734d6a417a4c6a49304e6941344d5334344f5441734d6a41794c6a4d774e7941344d69347a4e545167517941794d4445754d7a5934494467794c6a67784f5377794d4441754f4455304944677a4c6a49774d4377794d4445754d5459314944677a4c6a49774d434244494449774d69347a4d546b674f444d754d6a41774c4449774e5334784f4459674f4445754d5451794c4449774e6934794e7a55674e7a6b754e544d7749454d674d6a41334c6a41344d6941334f43347a4d7a63734d6a41334c6a67314d7941334e7934334d6a63734d6a41354c6a41774d4341334e79347a4e7a5567544341794d5441754e6a4177494463324c6a67344e4341794d446b754d6a5935494463324c6a67304d694244494449774f4334794f4441674e7a59754f4445784c4449774e7934324e6a51674e7a63754d446b344c4449774e6934344e6a6b674e7a63754f545979494530784e7a41754d7a4133494467784c6a51354d434244494445334d5334774d6a59674f4445754e5463354c4445334d6934784d4459674f4445754e5463334c4445334d6934334d4463674f4445754e44673249454d674d54637a4c6a4d774f4341344d53347a4f5455734d5463794c6a63794d4341344d53347a4d6a49734d5463784c6a51774d4341344d53347a4d6a5167517941784e7a41754d446777494467784c6a4d794e6977784e6a6b754e546734494467784c6a51774d5377784e7a41754d7a4133494467784c6a51354d43424e4d5459324c6a45354e5341344e4334794e546367517941784e6a49754e544d34494467344c6a4d354e6977784e5459754d44497749446b774c6a4d7a4e7977784e5449754d7a5535494467344c6a4d334f434244494445314d5334354d4451674f4467754d544d304c4445314d5334304e4445674f4467754d4449314c4445314d53347a4d7a45674f4467754d544d3149454d674d5455774c6a63794f4341344f4334334d7a67734d54557a4c6a4d334f5341344f53347a4e4441734d5455324c6a59774d4341344f53347a4d7a4567517941784e6a45754e6a497a494467354c6a4d784f4377784e6a51754d544131494467334c6a67354e4377784e6a63754f544d77494467794c6a677a4d534244494445324f5334304e7a49674f4441754e7a6b794c4445324f4334324f4459674f4445754e444d334c4445324e6934784f5455674f4451754d6a5533494530784e7a55754e6a4177494467794c6a55304d434244494445334e69347a4e7a41674f444d754d5441334c4445334e7934794d6a55674f444d754e7a59314c4445334e7934314d4441674f4451754d44417949454d674d5463334c6a67324e6941344e43347a4d5459734d5463344c6a41774d4341344e4334794f4459734d5463344c6a41774d4341344d7934344f544167517941784e7a67754d4441774944677a4c6a55354d6977784e7a63754d7a49314944677a4c6a41774e5377784e7a59754e544177494467794c6a55344e534244494445334e4334794d6a45674f4445754e4449304c4445334e4334774e7a59674f4445754e4445334c4445334e5334324d4441674f4449754e545177494530784f5441754d444535494467794c6a55334f434244494445344f5334304e5451674f444d754d6a55344c4445354d4334334e6a6b674f4455754d6a45334c4445354d5334334e7a41674f4455754d54673349454d674d546b794c6a41774e6941344e5334784f4441734d546b784c6a59354e5341344e4334334d7a41734d546b784c6a41334e7941344e4334784f446367517941784f4467754f444135494467794c6a45354d6977784f5445754e6a6731494467784c6a67794e5377784f5455754d6a6b314944677a4c6a59304f534244494445354e6934784e5467674f4451754d4467314c4445354f5334794d6a55674f4451754d446b354c4445354f5334354d4449674f444d754e6a593549454d674d6a41774c6a45344e6941344d7934304f446b734d546b354c6a51774d6941344d79347a4e446b734d546b344c6a45774d6941344d79347a4e446367517941784f5459754f444d324944677a4c6a4d304e5377784f5455754d4467774944677a4c6a45784e7977784f5451754d6a4177494467794c6a677a4f534244494445354d53347a4e6a41674f4445754f54517a4c4445354d4334314f4459674f4445754f446b304c4445354d4334774d546b674f4449754e546334494530784e7a63754d544532494467314c6a63354d794244494445334e43347a4e5455674f446b754e4467334c4445324f5334304d7a4d674f5445754d6a63354c4445324d5334794d4441674f5445754e546735494577674d5455304c6a59774d4341354d5334344d7a67674d5459774c6a67354d5341354d5334354d546b67517941784e6a59754e7a4d7a49446b784c6a6b354e4377784e6a63754d7a637849446b784c6a6b794f5377784e6a6b754f444d3249446b784c6a41774d534244494445334d7934784e6a63674f446b754e7a51334c4445334f4334324e6a63674f4455754e7a45324c4445334e7934354e6a67674f4455754d44517849454d674d5463334c6a67334e6941344e4334354e5445734d5463334c6a51354d6941344e5334794f5441734d5463334c6a45784e6941344e5334334f544d67545445354d7934774d5451674f4455754e7a677749454d674d546b7a4c6a51304e6941344e6934784d4463734d546b304c6a517a4d4341344e69347a4e6a6b734d546b314c6a49774d4341344e69347a4e6a4967517941784f5459754e7a6b31494467324c6a4d304f4377784f5459754d445533494467314c6a6b794e5377784f544d754e6a4530494467314c6a51314d794244494445354d69347a4d6a4d674f4455754d6a41304c4445354d6934794f4449674f4455754d6a49334c4445354d7934774d5451674f4455754e7a6777494530794d4451754e6a4177494467314c6a51344e534244494449774e4334784e6a41674f4455754e546b784c4449774d7934324d6a6b674f4455754f4451774c4449774d7934304d6a41674f4459754d444d3549454d674d6a41794c6a67774f4341344e6934324d6a45734d6a41304c6a51344e5341344e6934304d7a63734d6a41314c6a59774d4341344e5334344d444167517941794d4459754e546730494467314c6a497a4e7977794d4459754d546378494467314c6a45774e7977794d4451754e6a4177494467314c6a51344e53424e4d5451304c6a4d334e5341344e7934794d6a5567517941784e444d754d7a4d34494467344c6a49324d6977784e444d754e544931494467344c6a67314e6977784e4455754d444931494467354c6a49344f534244494445304e5334324e7a45674f446b754e4463324c4445304e7934794f4441674f446b754f5463794c4445304f4334324d4441674f5441754d7a6b7849454d674d5451354c6a6b794d4341354d4334344d5445734d5455784c6a67784d4341354d5334794e4463734d5455794c6a67774d4341354d53347a4e6a4567544341784e5451754e6a417749446b784c6a55324f4341784e544d754d44417749446b784c6a41784e534244494445314d6934784d6a41674f5441754e7a45774c4445314d4334354e5441674f5441754e4451334c4445314d4334304d4441674f5441754e44493449454d674d5451354c6a67314d4341354d4334304d5441734d5451344c6a67344e4341354d4334784d6a59734d5451344c6a49314e4341344f5334334f546767517941784e4463754e6a4930494467354c6a51324f5377784e4459754f446378494467354c6a49774d4377784e4459754e546777494467354c6a49774d434244494445304e4334344e5463674f446b754d6a41774c4445304d7934344e7a63674f4467754d7a6b354c4445304e4334324d446b674f4463754e546b7749454d674d5451314c6a4d314d5341344e6934334e7a41734d5451334c6a55794f4341344e6934314d4467734d5451344c6a49794d4341344e7934784e545567517941784e4467754e444935494467334c6a4d314d4377784e446b754d445577494467334c6a59794e6977784e446b754e6a4177494467334c6a63324f534244494445314d43347a4e5467674f4463754f5459314c4445314d4334794e6a45674f4463754f444d314c4445304f5334794d4441674f4463754d6a4d7849454d674d5451334c6a4d314d7941344e6934784e7a6b734d5451314c6a51794d7941344e6934784e7a63734d5451304c6a4d334e5341344e7934794d6a5567545445354f43347a4d5445674f4459754e6a6b7a49454d674d546b354c6a49314d5341344e6934334e7a67734d6a41774c6a59354d5341344e6934334e7a63734d6a41784c6a55784d5341344e6934324f544567517941794d4449754d7a4d77494467324c6a59774e5377794d4445754e545977494467324c6a557a4e6977784f546b754f444177494467324c6a557a4e794244494445354f4334774e4441674f4459754e544d354c4445354e79347a4e7a41674f4459754e6a41354c4445354f43347a4d5445674f4459754e6a6b7a494530784d4463754d6a4177494445794d5334334e546367517941784d4463754d6a4177494445794d6934794f4451734d5441324c6a6b7a4d4341784d6a49754f4445344c4445774e6934324d4441674d5449794c6a6b304e534244494445774e6934774f5455674d54497a4c6a457a4f4377784d4459754d444177494445794e4334304d5449734d5441324c6a41774d4341784d7a41754f546733494577674d5441324c6a41774d4341784d7a67754f444177494445774e4334334d4441674d544d344c6a67784e434244494445774d7934354f4455674d544d344c6a67794d6977784d4449754f5455774944457a4f5334774f4459734d5441794c6a51774d4341784d7a6b754e44417749454d674d5441784c6a67314d4341784d7a6b754e7a45304c4445774d5334774e7a49674d544d354c6a6b334f4377784d4441754e6a63784944457a4f5334354f445967517941784d4441754d6a63784944457a4f5334354f5451734f546b754e6a637a494445304d4334794e7a41734f546b754d7a517a494445304d4334324d444167517941354f5334774d544d674d5451774c6a6b7a4d4377354f43347a4d4441674d5451784c6a49774d4377354e7934334e546b674d5451784c6a49774d43424449446b334c6a49784f4341784e4445754d6a41774c446b324c6a59334d5341784e4445754e4463774c446b324c6a55304e5341784e4445754f44417749454d674f5459754e444131494445304d6934784e6a51734f5455754f444177494445304d6934304d4441734f5455754d444132494445304d6934304d444167517941354e4334794f4463674d5451794c6a51774d4377354d7934304e7a51674d5451794c6a59334d4377354d7934794d4441674d54517a4c6a41774d43424449446b794c6a6b794e6941784e444d754d7a4d774c446b794c6a51324e4341784e444d754e6a41774c446b794c6a45334e4341784e444d754e6a417749454d674f5445754f44677a494445304d7934324d4441734f5445754d7a6777494445304d7934354f4441734f5445754d445531494445304e4334304e444d67517941354d4334334d7a41674d5451304c6a6b774e7977354d4334794e6a67674d5451314c6a45324e6977354d4334774d6a6b674d5451314c6a41784f434244494467354c6a63354d4341784e4451754f4463774c4467354c6a51344e6941784e4455754d444d784c4467354c6a4d314e4341784e4455754d7a633149454d674f446b754d6a4979494445304e5334334d546b734f4467754f544135494445304e6934774d4449734f4467754e6a5533494445304e6934774d445167517941344f4334304d4459674d5451324c6a41774e7977344e7934314f5441674d5451324c6a597a4e7977344e6934344e4451674d5451334c6a51774e434244494467324c6a41354f4341784e4467754d5463794c4467314c6a49314d4341784e4467754f4441774c4467304c6a6b314f5341784e4467754f44417749454d674f4451754e6a5935494445304f4334344d4441734f444d754e546b34494445304f5334324d446b734f4449754e546778494445314d4334314f546767517941344d5334314e6a51674d5455784c6a55344e6977344d4334794d4463674d5455794c6a63774e5377334f5334314e6a59674d54557a4c6a41344e434244494463344c6a6b794e5341784e544d754e44597a4c4463344c6a51774d4341784e5451754d446b304c4463344c6a51774d4341784e5451754e44673249454d674e7a67754e444177494445314e4334344e7a6b734e7a67754d6a4133494445314e5334794d4441734e7a63754f546378494445314e5334794d444167517941334e7934334d7a59674d5455314c6a49774d4377334e7934794f5449674d5455314c6a51794e5377334e6934354f4455674d5455314c6a63774d434244494463304c6a63314d6941784e5463754e7a417a4c4463784c6a59314f5341784e6a41754d4441774c4463784c6a45354e7941784e6a41754d44417749454d674e7a41754f546334494445324d4334774d4441734e7a41754f444177494445324d4334794e7a41734e7a41754f444177494445324d4334324d444167517941334d4334344d4441674d5459774c6a6b7a4d4377334d4334324e446b674d5459784c6a49774d4377334d4334304e6a55674d5459784c6a49774d434244494459354c6a67334e5341784e6a45754d6a41774c4459324c6a41774d4341784e6a55754d6a41794c4459324c6a41774d4341784e6a55754f44457949454d674e6a59754d444177494445324e6934784d7a55734e6a55754f445530494445324e69347a4e5455734e6a55754e6a6332494445324e69347a4d444167517941324e53347a4d6a41674d5459324c6a45354d4377324d6934304d4455674d5459354c6a49784e7977324d6934304d4449674d5459354c6a63774d434244494459794c6a51774d5341784e6a6b754f4459314c4459794c6a457a4d7941784e7a41754d4441774c4459784c6a67774f4341784e7a41754d44417749454d674e6a45754e446779494445334d4334774d4441734e6a45754d544179494445334d4334304e5441734e6a41754f545930494445334d5334774d444167517941324d4334344d6a59674d5463784c6a55314d4377324d4334304e7a55674d5463794c6a41774d4377324d4334784f4451674d5463794c6a41774d434244494455354c6a67354d6941784e7a49754d4441774c4455354c6a55304d4341784e7a49754d7a59774c4455354c6a51774d4341784e7a49754f44417749454d674e546b754d6a5977494445334d7934794e4441734e5467754f446b34494445334d7934324d4441734e5467754e546b32494445334d7934324d444167517941314f4334794f544d674d54637a4c6a59774d4377314e7934334f444d674d54637a4c6a6b334e5377314e7934304e6a49674d5463304c6a517a4d794244494455324c6a6b354d6941784e7a55754d5441304c4455324c6a55794e6941784e7a55754d6a51304c4455314c6a41314f5341784e7a55754d54557a49454d674e544d754e7a6731494445334e5334774e7a55734e544d754d44457a494445334e5334794e4455734e5449754e446734494445334e5334334d6a4567517941314d6934774e5467674d5463324c6a45784d4377314d5334774e6a63674d5463324c6a51774e5377314d4334784e6a6b674d5463324c6a51784d794244494451354c6a4d774e6941784e7a59754e4449774c4451344c6a49314d5341784e7a59754e6a6b774c4451334c6a67794e4341784e7a63754d44457a49454d674e4463754d7a6b32494445334e79347a4d7a59734e4459754d7a6730494445334e7934324d4441734e4455754e54637a494445334e7934324d444167517941304e4334334e5441674d5463334c6a59774d4377304d7934344e7a67674d5463334c6a67324e5377304d7934324d4441674d5463344c6a49774d4342444944517a4c6a4d794e6941784e7a67754e544d774c4451794c6a55784e6941784e7a67754f4441774c4451784c6a67774d4341784e7a67754f44417749454d674e4445754d446730494445334f4334344d4441734e4441754d6a6330494445334f5334774e7a41734e4441754d444177494445334f5334304d4441675179417a4f5334334d6a45674d5463354c6a637a4e79777a4f4334344e446b674d5467774c6a41774d43777a4f4334774d544d674d5467774c6a41774d43424449444d334c6a417a4f4341784f4441754d4441774c444d324c6a49334e7941784f4441754d6a637a4c444d314c6a67774f5341784f4441754e7a6b7849454d674d7a55754e444531494445344d5334794d6a55734d7a51754f545534494445344d5334304f5463734d7a51754e7a6b79494445344d53347a4f5455675179417a4e4334324d6a59674d5467784c6a49354d79777a4e4334794e6a67674d5467784c6a51334e79777a4d7934354f5459674d5467784c6a67774e43424449444d7a4c6a63794e4341784f4449754d544d794c444d794c6a6b334f4341784f4449754e4441774c444d794c6a4d7a4f4341784f4449754e44417749454d674d7a45754e6a637a494445344d6934304d4441734d7a45754d446332494445344d6934324e5463734d7a41754f545131494445344d7934774d4441675179417a4d4334344d5455674d54677a4c6a4d7a4f43777a4d4334794d546b674d54677a4c6a59774d4377794f5334314f4441674d54677a4c6a59774d434244494449344c6a67334e7941784f444d754e6a41774c4449344c6a49784f5341784f444d754f54497a4c4449334c6a67314d4341784f4451754e44513549454d674d6a63754e444134494445344e5334774f4445734d6a59754f545579494445344e5334794e5451734d6a59754d445935494445344e5334784d6a5567517941794e5334794d4463674d5467304c6a6b354f4377794e4334354d7a67674d5467314c6a41354e4377794e5334774f4451674d5467314c6a51334e534244494449314c6a45354e5341784f4455754e7a59304c4449314c6a457a4d5341784f4459754d4445314c4449304c6a6b304d7941784f4459754d444d7a49454d674d6a4d754d446777494445344e6934794d5451734d6a49754e6a557a494445344e69347a4e6a49734d6a49754d7a4d78494445344e6934354d7a6367517941794d6934784d6a63674d5467334c6a4d774d6977794d5334314d5451674d5467334c6a59774d4377794d4334354e6a67674d5467334c6a59774d434244494449774c6a51794d6941784f4463754e6a41774c4445354c6a67334d5341784f4463754f4463774c4445354c6a63304e5341784f4467754d6a417749454d674d546b754e6a4534494445344f4334314d7a41734d546b754d446b7a494445344f4334344d4441734d5467754e546333494445344f4334344d444167517941784f4334774e6a49674d5467344c6a67774d4377784e7934304f5459674d5467354c6a41794e5377784e79347a4d6a41674d5467354c6a4d774d434244494445334c6a45304e4341784f446b754e5463324c4445324c6a45304e5341784f5441754d6a45344c4445314c6a45774d4341784f5441754e7a493449454d674d5451754d445531494445354d5334794d7a6b734d544d754d6a4177494445354d5334344d446b734d544d754d6a4177494445354d5334354f545967517941784d7934794d4441674d546b794c6a45344d7977784d6934324e6a41674d546b794c6a51314e5377784d6934774d4441674d546b794c6a59774d434244494445784c6a4d304d4341784f5449754e7a51314c4445774c6a67774d4341784f544d754d4463324c4445774c6a67774d4341784f544d754d7a4d3249454d674d5441754f444177494445354d7934344d444d734f5334794d5459674d546b314c6a41794f4377344c6a63324f4341784f5451754f54413349454d674f4334324e4441674d546b304c6a67334d7977334c6a49354d4341784f5459754d4441304c4455754e7a5934494445354e7934304d6a4167517941304c6a49304e5341784f5467754f444d334c4449754f446332494445354f5334354f5459734d6934334d6a55674d546b354c6a6b354f434244494449754d6a4131494449774d4334774d4449734c5441754d545531494449774d69347a4e7a67734d4334784d4451674d6a41794c6a597a4e794244494441754d6a5132494449774d6934334e7a6b734d4334324d5445674d6a41794c6a59304f5377774c6a6b784e5341794d4449754d7a513449454d674d5334794d546b674d6a41794c6a41304e6977794c6a517a4e4341794d4441754f546b774c444d754e6a4532494449774d4334774d444167517941304c6a63354e7941784f546b754d4445774c4459754d446733494445354e7934344f4455734e6934304f4449674d546b334c6a55774d434244494459754f446333494445354e7934784d5455734e79347a4d7a67674d546b324c6a67774d4377334c6a55774e7941784f5459754f44417749454d674e7934324e7a59674d546b324c6a67774d4377344c6a63304d4341784f5455754f546b774c446b754f446378494445354e5334774d444167517941784d5334774d444d674d546b304c6a41784d4377784d6934784d4445674d546b7a4c6a49774d4377784d69347a4d5445674d546b7a4c6a49774d434244494445794c6a55794d4341784f544d754d6a41774c44457a4c6a45794f4341784f5449754f4455334c44457a4c6a59324d5341784f5449754e444d3449454d674d5451754d546b30494445354d6934774d546b734d5455754d7a517a494445354d5334794f4463734d5459754d6a4531494445354d4334344d544967517941784e7934774f4463674d546b774c6a4d7a4e7977784f4334314d6a41674d5467354c6a55784f4377784f5334304d4441674d5467344c6a6b354d694244494449774c6a49344d4341784f4467754e4459314c4449784c6a49354d7941784f4467754d4449334c4449784c6a59314d5341784f4467754d44453349454d674d6a49754d444135494445344f4334774d4467734d6a49754e544932494445344e7934334d7a41734d6a49754f444177494445344e7934304d444167517941794d7934774e7a51674d5467334c6a41334d4377794d7934324f5449674d5467324c6a67774d4377794e4334784e7a4d674d5467324c6a67774d434244494449304c6a59314e4341784f4459754f4441774c4449314c6a4d354e6941784f4459754e544d324c4449314c6a67794e4341784f4459754d6a457a49454d674d6a59754d6a5578494445344e5334344f5441734d6a59754f445532494445344e5334324d6a41734d6a63754d545935494445344e5334324d544d67517941794e7934304f4445674d5467314c6a59774e6977794f4334774d6a45674d5467314c6a4d324d5377794f43347a4e6a6b674d5467314c6a41324f434244494449344c6a63784e6941784f4451754e7a63314c4449354c6a6b774d4341784f4451754d6a457a4c444d784c6a41774d4341784f444d754f44453549454d674d7a49754d544177494445344d7934304d6a51734d7a4d754f546b77494445344d6934314e7a4d734d7a55754d6a4177494445344d5334354d6a63675179417a4e6934304d5441674d5467784c6a49344d53777a4f4334784d6a41674d5467774c6a59774d43777a4f5334774d4441674d5467774c6a51784e43424449444d354c6a67344d4341784f4441754d6a49344c4451784c6a55354d4341784e7a6b754e6a63344c4451794c6a67774d4341784e7a6b754d546b7949454d674e4451754d444577494445334f4334334d4459734e4455754f444577494445334f4334784f4451734e4459754f444177494445334f4334774d7a4967517941304e7934334f5441674d5463334c6a67334f5377304f4334354f544d674d5463334c6a557a4f5377304f5334304e7a51674d5463334c6a49334e794244494451354c6a6b314e4341784e7a63754d4445314c4455774c6a63334e5341784e7a59754f4441774c4455784c6a49354e7941784e7a59754f44417749454d674e5445754f444977494445334e6934344d4441734e5449754e546b32494445334e6934314d7a59734e544d754d444930494445334e6934794d544d67517941314d7934304e5445674d5463314c6a67354d4377314e4334314d5441674d5463314c6a59794d4377314e53347a4e7a67674d5463314c6a59784d794244494455334c6a55794e6941784e7a55754e546b314c4459304c6a41774d4341784e7a41754d7a55314c4459304c6a41774d4341784e6a67754e6a4d3149454d674e6a51754d444177494445324f4334784d4459734e7a49754d444135494445324d43347a4e5467734e7a51754e444177494445314f4334314e7a4d67517941334e5334344d7a41674d5455334c6a55774e6977334f4334784e7a41674d5455314c6a55784d6977334f5334324d4441674d5455304c6a45304d694244494467784c6a417a4d4341784e5449754e7a637a4c44677a4c6a4d774e5341784e5441754f4451324c4467304c6a59314e6941784e446b754f44597749454d674f4459754d444132494445304f4334344e7a51734f4463754d6a4d30494445304e7934344e6a6b734f4463754d7a677a494445304e7934324d6a6367517941344e7934314d7a49674d5451334c6a4d344e6977344f4334794d6a63674d5451324c6a6b304d6977344f4334354d6a63674d5451324c6a59304d534244494467354c6a59794e7941784e4459754d7a51774c446b774c6a55324d4341784e4455754e7a55794c446b784c6a41774d4341784e4455754d7a4d7a49454d674f5449754d444935494445304e43347a4e5455734f5455754d444979494445304d6934344d4451734f5455754f544579494445304d6934334f446367517941354e6934794f5445674d5451794c6a63344d4377354e6934354e446b674d5451794c6a55784d4377354e79347a4e7a59674d5451794c6a45344e79424449446b334c6a67774e4341784e4445754f4459304c446b344c6a51354e6941784e4445754e6a41774c446b344c6a6b784e6941784e4445754e6a417749454d674f546b754d7a4d32494445304d5334324d4441734d5441774c6a49304e6941784e4445754d7a55794c4445774d4334354e4441674d5451784c6a41304f534244494445774d5334324d7a4d674d5451774c6a63304e6977784d444d754d544177494445304d4334784d6a6b734d5441304c6a49774d4341784d7a6b754e6a6335494577674d5441324c6a49774d4341784d7a67754f445977494445774e6934324f4445674d544d784c6a557a4d434244494445774e6934354e4455674d5449334c6a51354f5377784d4463754d6a6335494445794d7934304d7a55734d5441334c6a51794d7941784d6a49754e54417749454d674d5441334c6a55324e6941784d6a45754e5459314c4445774e7934314e7a55674d5449774c6a67774d4377784d4463754e445179494445794d4334344d444167517941784d4463754d7a4135494445794d4334344d4441734d5441334c6a49774d4341784d6a45754d6a4d784c4445774e7934794d4441674d5449784c6a63314e79416949484e30636d39725a543069626d39755a5349675a6d6c7362443069497a6c6c59545a6a4e7949675a6d6c73624331796457786c50534a6c646d56756232526b4969427a64486c735a5430694969382b436941675043396e50676f384c334e325a7a343d",
			"opcodes": "PUSH1 0xA0 PUSH1 0x40 MSTORE ADDRESS PUSH20 0xFFFFFFFFFFFFFFFFFFFFFFFFFFFFFFFFFFFFFFFF AND PUSH1 0x80 SWAP1 PUSH20 0xFFFFFFFFFFFFFFFFFFFFFFFFFFFFFFFFFFFFFFFF AND DUP2 MSTORE POP PUSH1 0x40 MLOAD DUP1 PUSH3 0x33760 ADD PUSH1 0x40 MSTORE DUP1 PUSH3 0x33732 DUP2 MSTORE PUSH1 0x20 ADD PUSH3 0x4F17 PUSH3 0x33732 SWAP2 CODECOPY PUSH2 0x195 SWAP1 DUP2 PUSH3 0x68 SWAP2 SWAP1 PUSH3 0x3CE JUMP JUMPDEST POP CALLVALUE DUP1 ISZERO PUSH3 0x76 JUMPI PUSH1 0x0 DUP1 REVERT JUMPDEST POP PUSH3 0x87 PUSH3 0x8D PUSH1 0x20 SHL PUSH1 0x20 SHR JUMP JUMPDEST PUSH3 0x599 JUMP JUMPDEST PUSH1 0x0 PUSH1 0x1 SWAP1 SLOAD SWAP1 PUSH2 0x100 EXP SWAP1 DIV PUSH1 0xFF AND ISZERO PUSH3 0xE0 JUMPI PUSH1 0x40 MLOAD PUSH32 0x8C379A000000000000000000000000000000000000000000000000000000000 DUP2 MSTORE PUSH1 0x4 ADD PUSH3 0xD7 SWAP1 PUSH3 0x53C JUMP JUMPDEST PUSH1 0x40 MLOAD DUP1 SWAP2 SUB SWAP1 REVERT JUMPDEST PUSH1 0xFF DUP1 AND PUSH1 0x0 DUP1 SLOAD SWAP1 PUSH2 0x100 EXP SWAP1 DIV PUSH1 0xFF AND PUSH1 0xFF AND LT ISZERO PUSH3 0x152 JUMPI PUSH1 0xFF PUSH1 0x0 DUP1 PUSH2 0x100 EXP DUP2 SLOAD DUP2 PUSH1 0xFF MUL NOT AND SWAP1 DUP4 PUSH1 0xFF AND MUL OR SWAP1 SSTORE POP PUSH32 0x7F26B83FF96E1F2B6A682F133852F6798A09C465DA95921460CEFB3847402498 PUSH1 0xFF PUSH1 0x40 MLOAD PUSH3 0x149 SWAP2 SWAP1 PUSH3 0x57C JUMP JUMPDEST PUSH1 0x40 MLOAD DUP1 SWAP2 SUB SWAP1 LOG1 JUMPDEST JUMP JUMPDEST PUSH1 0x0 DUP2 MLOAD SWAP1 POP SWAP2 SWAP1 POP JUMP JUMPDEST PUSH32 0x4E487B7100000000000000000000000000000000000000000000000000000000 PUSH1 0x0 MSTORE PUSH1 0x41 PUSH1 0x4 MSTORE PUSH1 0x24 PUSH1 0x0 REVERT JUMPDEST PUSH32 0x4E487B7100000000000000000000000000000000000000000000000000000000 PUSH1 0x0 MSTORE PUSH1 0x22 PUSH1 0x4 MSTORE PUSH1 0x24 PUSH1 0x0 REVERT JUMPDEST PUSH1 0x0 PUSH1 0x2 DUP3 DIV SWAP1 POP PUSH1 0x1 DUP3 AND DUP1 PUSH3 0x1D6 JUMPI PUSH1 0x7F DUP3 AND SWAP2 POP JUMPDEST PUSH1 0x20 DUP3 LT DUP2 SUB PUSH3 0x1EC JUMPI PUSH3 0x1EB PUSH3 0x18E JUMP JUMPDEST JUMPDEST POP SWAP2 SWAP1 POP JUMP JUMPDEST PUSH1 0x0 DUP2 SWAP1 POP DUP2 PUSH1 0x0 MSTORE PUSH1 0x20 PUSH1 0x0 KECCAK256 SWAP1 POP SWAP2 SWAP1 POP JUMP JUMPDEST PUSH1 0x0 PUSH1 0x20 PUSH1 0x1F DUP4 ADD DIV SWAP1 POP SWAP2 SWAP1 POP JUMP JUMPDEST PUSH1 0x0 DUP3 DUP3 SHL SWAP1 POP SWAP3 SWAP2 POP POP JUMP JUMPDEST PUSH1 0x0 PUSH1 0x8 DUP4 MUL PUSH3 0x256 PUSH32 0xFFFFFFFFFFFFFFFFFFFFFFFFFFFFFFFFFFFFFFFFFFFFFFFFFFFFFFFFFFFFFFFF DUP3 PUSH3 0x217 JUMP JUMPDEST PUSH3 0x262 DUP7 DUP4 PUSH3 0x217 JUMP JUMPDEST SWAP6 POP DUP1 NOT DUP5 AND SWAP4 POP DUP1 DUP7 AND DUP5 OR SWAP3 POP POP POP SWAP4 SWAP3 POP POP POP JUMP JUMPDEST PUSH1 0x0 DUP2 SWAP1 POP SWAP2 SWAP1 POP JUMP JUMPDEST PUSH1 0x0 DUP2 SWAP1 POP SWAP2 SWAP1 POP JUMP JUMPDEST PUSH1 0x0 PUSH3 0x2AF PUSH3 0x2A9 PUSH3 0x2A3 DUP5 PUSH3 0x27A JUMP JUMPDEST PUSH3 0x284 JUMP JUMPDEST PUSH3 0x27A JUMP JUMPDEST SWAP1 POP SWAP2 SWAP1 POP JUMP JUMPDEST PUSH1 0x0 DUP2 SWAP1 POP SWAP2 SWAP1 POP JUMP JUMPDEST PUSH3 0x2CB DUP4 PUSH3 0x28E JUMP JUMPDEST PUSH3 0x2E3 PUSH3 0x2DA DUP3 PUSH3 0x2B6 JUMP JUMPDEST DUP5 DUP5 SLOAD PUSH3 0x224 JUMP JUMPDEST DUP3 SSTORE POP POP POP POP JUMP JUMPDEST PUSH1 0x0 SWAP1 JUMP JUMPDEST PUSH3 0x2FA PUSH3 0x2EB JUMP JUMPDEST PUSH3 0x307 DUP2 DUP5 DUP5 PUSH3 0x2C0 JUMP JUMPDEST POP POP POP JUMP JUMPDEST JUMPDEST DUP2 DUP2 LT ISZERO PUSH3 0x32F JUMPI PUSH3 0x323 PUSH1 0x0 DUP3 PUSH3 0x2F0 JUMP JUMPDEST PUSH1 0x1 DUP2 ADD SWAP1 POP PUSH3 0x30D JUMP JUMPDEST POP POP JUMP JUMPDEST PUSH1 0x1F DUP3 GT ISZERO PUSH3 0x37E JUMPI PUSH3 0x348 DUP2 PUSH3 0x1F2 JUMP JUMPDEST PUSH3 0x353 DUP5 PUSH3 0x207 JUMP JUMPDEST DUP2 ADD PUSH1 0x20 DUP6 LT ISZERO PUSH3 0x363 JUMPI DUP2 SWAP1 POP JUMPDEST PUSH3 0x37B PUSH3 0x372 DUP6 PUSH3 0x207 JUMP JUMPDEST DUP4 ADD DUP3 PUSH3 0x30C JUMP JUMPDEST POP POP JUMPDEST POP POP POP JUMP JUMPDEST PUSH1 0x0 DUP3 DUP3 SHR SWAP1 POP SWAP3 SWAP2 POP POP JUMP JUMPDEST PUSH1 0x0 PUSH3 0x3A3 PUSH1 0x0 NOT DUP5 PUSH1 0x8 MUL PUSH3 0x383 JUMP JUMPDEST NOT DUP1 DUP4 AND SWAP2 POP POP SWAP3 SWAP2 POP POP JUMP JUMPDEST PUSH1 0x0 PUSH3 0x3BE DUP4 DUP4 PUSH3 0x390 JUMP JUMPDEST SWAP2 POP DUP3 PUSH1 0x2 MUL DUP3 OR SWAP1 POP SWAP3 SWAP2 POP POP JUMP JUMPDEST PUSH3 0x3D9 DUP3 PUSH3 0x154 JUMP JUMPDEST PUSH8 0xFFFFFFFFFFFFFFFF DUP2 GT ISZERO PUSH3 0x3F5 JUMPI PUSH3 0x3F4 PUSH3 0x15F JUMP JUMPDEST JUMPDEST PUSH3 0x401 DUP3 SLOAD PUSH3 0x1BD JUMP JUMPDEST PUSH3 0x40E DUP3 DUP3 DUP6 PUSH3 0x333 JUMP JUMPDEST PUSH1 0x0 PUSH1 0x20 SWAP1 POP PUSH1 0x1F DUP4 GT PUSH1 0x1 DUP2 EQ PUSH3 0x446 JUMPI PUSH1 0x0 DUP5 ISZERO PUSH3 0x431 JUMPI DUP3 DUP8 ADD MLOAD SWAP1 POP JUMPDEST PUSH3 0x43D DUP6 DUP3 PUSH3 0x3B0 JUMP JUMPDEST DUP7 SSTORE POP PUSH3 0x4AD JUMP JUMPDEST PUSH1 0x1F NOT DUP5 AND PUSH3 0x456 DUP7 PUSH3 0x1F2 JUMP JUMPDEST PUSH1 0x0 JUMPDEST DUP3 DUP2 LT ISZERO PUSH3 0x480 JUMPI DUP5 DUP10 ADD MLOAD DUP3 SSTORE PUSH1 0x1 DUP3 ADD SWAP2 POP PUSH1 0x20 DUP6 ADD SWAP5 POP PUSH1 0x20 DUP2 ADD SWAP1 POP PUSH3 0x459 JUMP JUMPDEST DUP7 DUP4 LT ISZERO PUSH3 0x4A0 JUMPI DUP5 DUP10 ADD MLOAD PUSH3 0x49C PUSH1 0x1F DUP10 AND DUP3 PUSH3 0x390 JUMP JUMPDEST DUP4 SSTORE POP JUMPDEST PUSH1 0x1 PUSH1 0x2 DUP9 MUL ADD DUP9 SSTORE POP POP POP JUMPDEST POP POP POP POP POP POP JUMP JUMPDEST PUSH1 0x0 DUP3 DUP3 MSTORE PUSH1 0x20 DUP3 ADD SWAP1 POP SWAP3 SWAP2 POP POP JUMP JUMPDEST PUSH32 0x496E697469616C697A61626C653A20636F6E747261637420697320696E697469 PUSH1 0x0 DUP3 ADD MSTORE PUSH32 0x616C697A696E6700000000000000000000000000000000000000000000000000 PUSH1 0x20 DUP3 ADD MSTORE POP JUMP JUMPDEST PUSH1 0x0 PUSH3 0x524 PUSH1 0x27 DUP4 PUSH3 0x4B5 JUMP JUMPDEST SWAP2 POP PUSH3 0x531 DUP3 PUSH3 0x4C6 JUMP JUMPDEST PUSH1 0x40 DUP3 ADD SWAP1 POP SWAP2 SWAP1 POP JUMP JUMPDEST PUSH1 0x0 PUSH1 0x20 DUP3 ADD SWAP1 POP DUP2 DUP2 SUB PUSH1 0x0 DUP4 ADD MSTORE PUSH3 0x557 DUP2 PUSH3 0x515 JUMP JUMPDEST SWAP1 POP SWAP2 SWAP1 POP JUMP JUMPDEST PUSH1 0x0 PUSH1 0xFF DUP3 AND SWAP1 POP SWAP2 SWAP1 POP JUMP JUMPDEST PUSH3 0x576 DUP2 PUSH3 0x55E JUMP JUMPDEST DUP3 MSTORE POP POP JUMP JUMPDEST PUSH1 0x0 PUSH1 0x20 DUP3 ADD SWAP1 POP PUSH3 0x593 PUSH1 0x0 DUP4 ADD DUP5 PUSH3 0x56B JUMP JUMPDEST SWAP3 SWAP2 POP POP JUMP JUMPDEST PUSH1 0x80 MLOAD PUSH2 0x4946 PUSH3 0x5D1 PUSH1 0x0 CODECOPY PUSH1 0x0 DUP2 DUP2 PUSH2 0xA48 ADD MSTORE DUP2 DUP2 PUSH2 0xAD6 ADD MSTORE DUP2 DUP2 PUSH2 0xCB3 ADD MSTORE DUP2 DUP2 PUSH2 0xD41 ADD MSTORE PUSH2 0xDF1 ADD MSTORE PUSH2 0x4946 PUSH1 0x0 RETURN INVALID PUSH1 0x80 PUSH1 0x40 MSTORE PUSH1 0x4 CALLDATASIZE LT PUSH2 0x21A JUMPI PUSH1 0x0 CALLDATALOAD PUSH1 0xE0 SHR DUP1 PUSH4 0x70A08231 GT PUSH2 0x123 JUMPI DUP1 PUSH4 0x981B24D0 GT PUSH2 0xAB JUMPI DUP1 PUSH4 0xBED99850 GT PUSH2 0x6F JUMPI DUP1 PUSH4 0xBED99850 EQ PUSH2 0x7A0 JUMPI DUP1 PUSH4 0xC6D69A30 EQ PUSH2 0x7CB JUMPI DUP1 PUSH4 0xDD62ED3E EQ PUSH2 0x7F4 JUMPI DUP1 PUSH4 0xDED998B9 EQ PUSH2 0x831 JUMPI DUP1 PUSH4 0xF2FDE38B EQ PUSH2 0x85A JUMPI PUSH2 0x21A JUMP JUMPDEST DUP1 PUSH4 0x981B24D0 EQ PUSH2 0x695 JUMPI DUP1 PUSH4 0xA457C2D7 EQ PUSH2 0x6D2 JUMPI DUP1 PUSH4 0xA9059CBB EQ PUSH2 0x70F JUMPI DUP1 PUSH4 0xA9E75723 EQ PUSH2 0x74C JUMPI DUP1 PUSH4 0xB92E6396 EQ PUSH2 0x777 JUMPI PUSH2 0x21A JUMP JUMPDEST DUP1 PUSH4 0x8129FC1C GT PUSH2 0xF2 JUMPI DUP1 PUSH4 0x8129FC1C EQ PUSH2 0x5E8 JUMPI DUP1 PUSH4 0x8456CB59 EQ PUSH2 0x5FF JUMPI DUP1 PUSH4 0x8BF55409 EQ PUSH2 0x616 JUMPI DUP1 PUSH4 0x8DA5CB5B EQ PUSH2 0x63F JUMPI DUP1 PUSH4 0x95D89B41 EQ PUSH2 0x66A JUMPI PUSH2 0x21A JUMP JUMPDEST DUP1 PUSH4 0x70A08231 EQ PUSH2 0x540 JUMPI DUP1 PUSH4 0x715018A6 EQ PUSH2 0x57D JUMPI DUP1 PUSH4 0x771A3A1D EQ PUSH2 0x594 JUMPI DUP1 PUSH4 0x79CC6790 EQ PUSH2 0x5BF JUMPI PUSH2 0x21A JUMP JUMPDEST DUP1 PUSH4 0x39509351 GT PUSH2 0x1A6 JUMPI DUP1 PUSH4 0x4EE2CD7E GT PUSH2 0x175 JUMPI DUP1 PUSH4 0x4EE2CD7E EQ PUSH2 0x466 JUMPI DUP1 PUSH4 0x4F1EF286 EQ PUSH2 0x4A3 JUMPI DUP1 PUSH4 0x52D1902D EQ PUSH2 0x4BF JUMPI DUP1 PUSH4 0x5C975ABB EQ PUSH2 0x4EA JUMPI DUP1 PUSH4 0x68841431 EQ PUSH2 0x515 JUMPI PUSH2 0x21A JUMP JUMPDEST DUP1 PUSH4 0x39509351 EQ PUSH2 0x3C0 JUMPI DUP1 PUSH4 0x3F4BA83A EQ PUSH2 0x3FD JUMPI DUP1 PUSH4 0x40C10F19 EQ PUSH2 0x414 JUMPI DUP1 PUSH4 0x42966C68 EQ PUSH2 0x43D JUMPI PUSH2 0x21A JUMP JUMPDEST DUP1 PUSH4 0x18160DDD GT PUSH2 0x1ED JUMPI DUP1 PUSH4 0x18160DDD EQ PUSH2 0x2DB JUMPI DUP1 PUSH4 0x189D165E EQ PUSH2 0x306 JUMPI DUP1 PUSH4 0x23B872DD EQ PUSH2 0x32F JUMPI DUP1 PUSH4 0x313CE567 EQ PUSH2 0x36C JUMPI DUP1 PUSH4 0x3659CFE6 EQ PUSH2 0x397 JUMPI PUSH2 0x21A JUMP JUMPDEST DUP1 PUSH4 0x6FDDE03 EQ PUSH2 0x21F JUMPI DUP1 PUSH4 0x95EA7B3 EQ PUSH2 0x24A JUMPI DUP1 PUSH4 0x1419841D EQ PUSH2 0x287 JUMPI DUP1 PUSH4 0x1694505E EQ PUSH2 0x2B0 JUMPI JUMPDEST PUSH1 0x0 DUP1 REVERT JUMPDEST CALLVALUE DUP1 ISZERO PUSH2 0x22B JUMPI PUSH1 0x0 DUP1 REVERT JUMPDEST POP PUSH2 0x234 PUSH2 0x883 JUMP JUMPDEST PUSH1 0x40 MLOAD PUSH2 0x241 SWAP2 SWAP1 PUSH2 0x2E1F JUMP JUMPDEST PUSH1 0x40 MLOAD DUP1 SWAP2 SUB SWAP1 RETURN JUMPDEST CALLVALUE DUP1 ISZERO PUSH2 0x256 JUMPI PUSH1 0x0 DUP1 REVERT JUMPDEST POP PUSH2 0x271 PUSH1 0x4 DUP1 CALLDATASIZE SUB DUP2 ADD SWAP1 PUSH2 0x26C SWAP2 SWAP1 PUSH2 0x2EE9 JUMP JUMPDEST PUSH2 0x915 JUMP JUMPDEST PUSH1 0x40 MLOAD PUSH2 0x27E SWAP2 SWAP1 PUSH2 0x2F44 JUMP JUMPDEST PUSH1 0x40 MLOAD DUP1 SWAP2 SUB SWAP1 RETURN JUMPDEST CALLVALUE DUP1 ISZERO PUSH2 0x293 JUMPI PUSH1 0x0 DUP1 REVERT JUMPDEST POP PUSH2 0x2AE PUSH1 0x4 DUP1 CALLDATASIZE SUB DUP2 ADD SWAP1 PUSH2 0x2A9 SWAP2 SWAP1 PUSH2 0x2F5F JUMP JUMPDEST PUSH2 0x938 JUMP JUMPDEST STOP JUMPDEST CALLVALUE DUP1 ISZERO PUSH2 0x2BC JUMPI PUSH1 0x0 DUP1 REVERT JUMPDEST POP PUSH2 0x2C5 PUSH2 0x985 JUMP JUMPDEST PUSH1 0x40 MLOAD PUSH2 0x2D2 SWAP2 SWAP1 PUSH2 0x2FEB JUMP JUMPDEST PUSH1 0x40 MLOAD DUP1 SWAP2 SUB SWAP1 RETURN JUMPDEST CALLVALUE DUP1 ISZERO PUSH2 0x2E7 JUMPI PUSH1 0x0 DUP1 REVERT JUMPDEST POP PUSH2 0x2F0 PUSH2 0x9AC JUMP JUMPDEST PUSH1 0x40 MLOAD PUSH2 0x2FD SWAP2 SWAP1 PUSH2 0x3015 JUMP JUMPDEST PUSH1 0x40 MLOAD DUP1 SWAP2 SUB SWAP1 RETURN JUMPDEST CALLVALUE DUP1 ISZERO PUSH2 0x312 JUMPI PUSH1 0x0 DUP1 REVERT JUMPDEST POP PUSH2 0x32D PUSH1 0x4 DUP1 CALLDATASIZE SUB DUP2 ADD SWAP1 PUSH2 0x328 SWAP2 SWAP1 PUSH2 0x3030 JUMP JUMPDEST PUSH2 0x9B6 JUMP JUMPDEST STOP JUMPDEST CALLVALUE DUP1 ISZERO PUSH2 0x33B JUMPI PUSH1 0x0 DUP1 REVERT JUMPDEST POP PUSH2 0x356 PUSH1 0x4 DUP1 CALLDATASIZE SUB DUP2 ADD SWAP1 PUSH2 0x351 SWAP2 SWAP1 PUSH2 0x305D JUMP JUMPDEST PUSH2 0xA0E JUMP JUMPDEST PUSH1 0x40 MLOAD PUSH2 0x363 SWAP2 SWAP1 PUSH2 0x2F44 JUMP JUMPDEST PUSH1 0x40 MLOAD DUP1 SWAP2 SUB SWAP1 RETURN JUMPDEST CALLVALUE DUP1 ISZERO PUSH2 0x378 JUMPI PUSH1 0x0 DUP1 REVERT JUMPDEST POP PUSH2 0x381 PUSH2 0xA3D JUMP JUMPDEST PUSH1 0x40 MLOAD PUSH2 0x38E SWAP2 SWAP1 PUSH2 0x30CC JUMP JUMPDEST PUSH1 0x40 MLOAD DUP1 SWAP2 SUB SWAP1 RETURN JUMPDEST CALLVALUE DUP1 ISZERO PUSH2 0x3A3 JUMPI PUSH1 0x0 DUP1 REVERT JUMPDEST POP PUSH2 0x3BE PUSH1 0x4 DUP1 CALLDATASIZE SUB DUP2 ADD SWAP1 PUSH2 0x3B9 SWAP2 SWAP1 PUSH2 0x2F5F JUMP JUMPDEST PUSH2 0xA46 JUMP JUMPDEST STOP JUMPDEST CALLVALUE DUP1 ISZERO PUSH2 0x3CC JUMPI PUSH1 0x0 DUP1 REVERT JUMPDEST POP PUSH2 0x3E7 PUSH1 0x4 DUP1 CALLDATASIZE SUB DUP2 ADD SWAP1 PUSH2 0x3E2 SWAP2 SWAP1 PUSH2 0x2EE9 JUMP JUMPDEST PUSH2 0xBCE JUMP JUMPDEST PUSH1 0x40 MLOAD PUSH2 0x3F4 SWAP2 SWAP1 PUSH2 0x2F44 JUMP JUMPDEST PUSH1 0x40 MLOAD DUP1 SWAP2 SUB SWAP1 RETURN JUMPDEST CALLVALUE DUP1 ISZERO PUSH2 0x409 JUMPI PUSH1 0x0 DUP1 REVERT JUMPDEST POP PUSH2 0x412 PUSH2 0xC05 JUMP JUMPDEST STOP JUMPDEST CALLVALUE DUP1 ISZERO PUSH2 0x420 JUMPI PUSH1 0x0 DUP1 REVERT JUMPDEST POP PUSH2 0x43B PUSH1 0x4 DUP1 CALLDATASIZE SUB DUP2 ADD SWAP1 PUSH2 0x436 SWAP2 SWAP1 PUSH2 0x2EE9 JUMP JUMPDEST PUSH2 0xC17 JUMP JUMPDEST STOP JUMPDEST CALLVALUE DUP1 ISZERO PUSH2 0x449 JUMPI PUSH1 0x0 DUP1 REVERT JUMPDEST POP PUSH2 0x464 PUSH1 0x4 DUP1 CALLDATASIZE SUB DUP2 ADD SWAP1 PUSH2 0x45F SWAP2 SWAP1 PUSH2 0x3030 JUMP JUMPDEST PUSH2 0xC2D JUMP JUMPDEST STOP JUMPDEST CALLVALUE DUP1 ISZERO PUSH2 0x472 JUMPI PUSH1 0x0 DUP1 REVERT JUMPDEST POP PUSH2 0x48D PUSH1 0x4 DUP1 CALLDATASIZE SUB DUP2 ADD SWAP1 PUSH2 0x488 SWAP2 SWAP1 PUSH2 0x2EE9 JUMP JUMPDEST PUSH2 0xC41 JUMP JUMPDEST PUSH1 0x40 MLOAD PUSH2 0x49A SWAP2 SWAP1 PUSH2 0x3015 JUMP JUMPDEST PUSH1 0x40 MLOAD DUP1 SWAP2 SUB SWAP1 RETURN JUMPDEST PUSH2 0x4BD PUSH1 0x4 DUP1 CALLDATASIZE SUB DUP2 ADD SWAP1 PUSH2 0x4B8 SWAP2 SWAP1 PUSH2 0x321C JUMP JUMPDEST PUSH2 0xCB1 JUMP JUMPDEST STOP JUMPDEST CALLVALUE DUP1 ISZERO PUSH2 0x4CB JUMPI PUSH1 0x0 DUP1 REVERT JUMPDEST POP PUSH2 0x4D4 PUSH2 0xDED JUMP JUMPDEST PUSH1 0x40 MLOAD PUSH2 0x4E1 SWAP2 SWAP1 PUSH2 0x3291 JUMP JUMPDEST PUSH1 0x40 MLOAD DUP1 SWAP2 SUB SWAP1 RETURN JUMPDEST CALLVALUE DUP1 ISZERO PUSH2 0x4F6 JUMPI PUSH1 0x0 DUP1 REVERT JUMPDEST POP PUSH2 0x4FF PUSH2 0xEA6 JUMP JUMPDEST PUSH1 0x40 MLOAD PUSH2 0x50C SWAP2 SWAP1 PUSH2 0x2F44 JUMP JUMPDEST PUSH1 0x40 MLOAD DUP1 SWAP2 SUB SWAP1 RETURN JUMPDEST CALLVALUE DUP1 ISZERO PUSH2 0x521 JUMPI PUSH1 0x0 DUP1 REVERT JUMPDEST POP PUSH2 0x52A PUSH2 0xEBD JUMP JUMPDEST PUSH1 0x40 MLOAD PUSH2 0x537 SWAP2 SWAP1 PUSH2 0x3015 JUMP JUMPDEST PUSH1 0x40 MLOAD DUP1 SWAP2 SUB SWAP1 RETURN JUMPDEST CALLVALUE DUP1 ISZERO PUSH2 0x54C JUMPI PUSH1 0x0 DUP1 REVERT JUMPDEST POP PUSH2 0x567 PUSH1 0x4 DUP1 CALLDATASIZE SUB DUP2 ADD SWAP1 PUSH2 0x562 SWAP2 SWAP1 PUSH2 0x2F5F JUMP JUMPDEST PUSH2 0xEC4 JUMP JUMPDEST PUSH1 0x40 MLOAD PUSH2 0x574 SWAP2 SWAP1 PUSH2 0x3015 JUMP JUMPDEST PUSH1 0x40 MLOAD DUP1 SWAP2 SUB SWAP1 RETURN JUMPDEST CALLVALUE DUP1 ISZERO PUSH2 0x589 JUMPI PUSH1 0x0 DUP1 REVERT JUMPDEST POP PUSH2 0x592 PUSH2 0xF0D JUMP JUMPDEST STOP JUMPDEST CALLVALUE DUP1 ISZERO PUSH2 0x5A0 JUMPI PUSH1 0x0 DUP1 REVERT JUMPDEST POP PUSH2 0x5A9 PUSH2 0xF21 JUMP JUMPDEST PUSH1 0x40 MLOAD PUSH2 0x5B6 SWAP2 SWAP1 PUSH2 0x3015 JUMP JUMPDEST PUSH1 0x40 MLOAD DUP1 SWAP2 SUB SWAP1 RETURN JUMPDEST CALLVALUE DUP1 ISZERO PUSH2 0x5CB JUMPI PUSH1 0x0 DUP1 REVERT JUMPDEST POP PUSH2 0x5E6 PUSH1 0x4 DUP1 CALLDATASIZE SUB DUP2 ADD SWAP1 PUSH2 0x5E1 SWAP2 SWAP1 PUSH2 0x2EE9 JUMP JUMPDEST PUSH2 0xF2C JUMP JUMPDEST STOP JUMPDEST CALLVALUE DUP1 ISZERO PUSH2 0x5F4 JUMPI PUSH1 0x0 DUP1 REVERT JUMPDEST POP PUSH2 0x5FD PUSH2 0xF4C JUMP JUMPDEST STOP JUMPDEST CALLVALUE DUP1 ISZERO PUSH2 0x60B JUMPI PUSH1 0x0 DUP1 REVERT JUMPDEST POP PUSH2 0x614 PUSH2 0x1152 JUMP JUMPDEST STOP JUMPDEST CALLVALUE DUP1 ISZERO PUSH2 0x622 JUMPI PUSH1 0x0 DUP1 REVERT JUMPDEST POP PUSH2 0x63D PUSH1 0x4 DUP1 CALLDATASIZE SUB DUP2 ADD SWAP1 PUSH2 0x638 SWAP2 SWAP1 PUSH2 0x3030 JUMP JUMPDEST PUSH2 0x1164 JUMP JUMPDEST STOP JUMPDEST CALLVALUE DUP1 ISZERO PUSH2 0x64B JUMPI PUSH1 0x0 DUP1 REVERT JUMPDEST POP PUSH2 0x654 PUSH2 0x1177 JUMP JUMPDEST PUSH1 0x40 MLOAD PUSH2 0x661 SWAP2 SWAP1 PUSH2 0x32BB JUMP JUMPDEST PUSH1 0x40 MLOAD DUP1 SWAP2 SUB SWAP1 RETURN JUMPDEST CALLVALUE DUP1 ISZERO PUSH2 0x676 JUMPI PUSH1 0x0 DUP1 REVERT JUMPDEST POP PUSH2 0x67F PUSH2 0x11A1 JUMP JUMPDEST PUSH1 0x40 MLOAD PUSH2 0x68C SWAP2 SWAP1 PUSH2 0x2E1F JUMP JUMPDEST PUSH1 0x40 MLOAD DUP1 SWAP2 SUB SWAP1 RETURN JUMPDEST CALLVALUE DUP1 ISZERO PUSH2 0x6A1 JUMPI PUSH1 0x0 DUP1 REVERT JUMPDEST POP PUSH2 0x6BC PUSH1 0x4 DUP1 CALLDATASIZE SUB DUP2 ADD SWAP1 PUSH2 0x6B7 SWAP2 SWAP1 PUSH2 0x3030 JUMP JUMPDEST PUSH2 0x1233 JUMP JUMPDEST PUSH1 0x40 MLOAD PUSH2 0x6C9 SWAP2 SWAP1 PUSH2 0x3015 JUMP JUMPDEST PUSH1 0x40 MLOAD DUP1 SWAP2 SUB SWAP1 RETURN JUMPDEST CALLVALUE DUP1 ISZERO PUSH2 0x6DE JUMPI PUSH1 0x0 DUP1 REVERT JUMPDEST POP PUSH2 0x6F9 PUSH1 0x4 DUP1 CALLDATASIZE SUB DUP2 ADD SWAP1 PUSH2 0x6F4 SWAP2 SWAP1 PUSH2 0x2EE9 JUMP JUMPDEST PUSH2 0x1264 JUMP JUMPDEST PUSH1 0x40 MLOAD PUSH2 0x706 SWAP2 SWAP1 PUSH2 0x2F44 JUMP JUMPDEST PUSH1 0x40 MLOAD DUP1 SWAP2 SUB SWAP1 RETURN JUMPDEST CALLVALUE DUP1 ISZERO PUSH2 0x71B JUMPI PUSH1 0x0 DUP1 REVERT JUMPDEST POP PUSH2 0x736 PUSH1 0x4 DUP1 CALLDATASIZE SUB DUP2 ADD SWAP1 PUSH2 0x731 SWAP2 SWAP1 PUSH2 0x2EE9 JUMP JUMPDEST PUSH2 0x12DB JUMP JUMPDEST PUSH1 0x40 MLOAD PUSH2 0x743 SWAP2 SWAP1 PUSH2 0x2F44 JUMP JUMPDEST PUSH1 0x40 MLOAD DUP1 SWAP2 SUB SWAP1 RETURN JUMPDEST CALLVALUE DUP1 ISZERO PUSH2 0x758 JUMPI PUSH1 0x0 DUP1 REVERT JUMPDEST POP PUSH2 0x761 PUSH2 0x12FE JUMP JUMPDEST PUSH1 0x40 MLOAD PUSH2 0x76E SWAP2 SWAP1 PUSH2 0x3015 JUMP JUMPDEST PUSH1 0x40 MLOAD DUP1 SWAP2 SUB SWAP1 RETURN JUMPDEST CALLVALUE DUP1 ISZERO PUSH2 0x783 JUMPI PUSH1 0x0 DUP1 REVERT JUMPDEST POP PUSH2 0x79E PUSH1 0x4 DUP1 CALLDATASIZE SUB DUP2 ADD SWAP1 PUSH2 0x799 SWAP2 SWAP1 PUSH2 0x3030 JUMP JUMPDEST PUSH2 0x1305 JUMP JUMPDEST STOP JUMPDEST CALLVALUE DUP1 ISZERO PUSH2 0x7AC JUMPI PUSH1 0x0 DUP1 REVERT JUMPDEST POP PUSH2 0x7B5 PUSH2 0x1318 JUMP JUMPDEST PUSH1 0x40 MLOAD PUSH2 0x7C2 SWAP2 SWAP1 PUSH2 0x3015 JUMP JUMPDEST PUSH1 0x40 MLOAD DUP1 SWAP2 SUB SWAP1 RETURN JUMPDEST CALLVALUE DUP1 ISZERO PUSH2 0x7D7 JUMPI PUSH1 0x0 DUP1 REVERT JUMPDEST POP PUSH2 0x7F2 PUSH1 0x4 DUP1 CALLDATASIZE SUB DUP2 ADD SWAP1 PUSH2 0x7ED SWAP2 SWAP1 PUSH2 0x3030 JUMP JUMPDEST PUSH2 0x1323 JUMP JUMPDEST STOP JUMPDEST CALLVALUE DUP1 ISZERO PUSH2 0x800 JUMPI PUSH1 0x0 DUP1 REVERT JUMPDEST POP PUSH2 0x81B PUSH1 0x4 DUP1 CALLDATASIZE SUB DUP2 ADD SWAP1 PUSH2 0x816 SWAP2 SWAP1 PUSH2 0x32D6 JUMP JUMPDEST PUSH2 0x137B JUMP JUMPDEST PUSH1 0x40 MLOAD PUSH2 0x828 SWAP2 SWAP1 PUSH2 0x3015 JUMP JUMPDEST PUSH1 0x40 MLOAD DUP1 SWAP2 SUB SWAP1 RETURN JUMPDEST CALLVALUE DUP1 ISZERO PUSH2 0x83D JUMPI PUSH1 0x0 DUP1 REVERT JUMPDEST POP PUSH2 0x858 PUSH1 0x4 DUP1 CALLDATASIZE SUB DUP2 ADD SWAP1 PUSH2 0x853 SWAP2 SWAP1 PUSH2 0x3316 JUMP JUMPDEST PUSH2 0x1402 JUMP JUMPDEST STOP JUMPDEST CALLVALUE DUP1 ISZERO PUSH2 0x866 JUMPI PUSH1 0x0 DUP1 REVERT JUMPDEST POP PUSH2 0x881 PUSH1 0x4 DUP1 CALLDATASIZE SUB DUP2 ADD SWAP1 PUSH2 0x87C SWAP2 SWAP1 PUSH2 0x2F5F JUMP JUMPDEST PUSH2 0x14ED JUMP JUMPDEST STOP JUMPDEST PUSH1 0x60 PUSH1 0x36 DUP1 SLOAD PUSH2 0x892 SWAP1 PUSH2 0x33D2 JUMP JUMPDEST DUP1 PUSH1 0x1F ADD PUSH1 0x20 DUP1 SWAP2 DIV MUL PUSH1 0x20 ADD PUSH1 0x40 MLOAD SWAP1 DUP2 ADD PUSH1 0x40 MSTORE DUP1 SWAP3 SWAP2 SWAP1 DUP2 DUP2 MSTORE PUSH1 0x20 ADD DUP3 DUP1 SLOAD PUSH2 0x8BE SWAP1 PUSH2 0x33D2 JUMP JUMPDEST DUP1 ISZERO PUSH2 0x90B JUMPI DUP1 PUSH1 0x1F LT PUSH2 0x8E0 JUMPI PUSH2 0x100 DUP1 DUP4 SLOAD DIV MUL DUP4 MSTORE SWAP2 PUSH1 0x20 ADD SWAP2 PUSH2 0x90B JUMP JUMPDEST DUP3 ADD SWAP2 SWAP1 PUSH1 0x0 MSTORE PUSH1 0x20 PUSH1 0x0 KECCAK256 SWAP1 JUMPDEST DUP2 SLOAD DUP2 MSTORE SWAP1 PUSH1 0x1 ADD SWAP1 PUSH1 0x20 ADD DUP1 DUP4 GT PUSH2 0x8EE JUMPI DUP3 SWAP1 SUB PUSH1 0x1F AND DUP3 ADD SWAP2 JUMPDEST POP POP POP POP POP SWAP1 POP SWAP1 JUMP JUMPDEST PUSH1 0x0 DUP1 PUSH2 0x920 PUSH2 0x1570 JUMP JUMPDEST SWAP1 POP PUSH2 0x92D DUP2 DUP6 DUP6 PUSH2 0x1578 JUMP JUMPDEST PUSH1 0x1 SWAP2 POP POP SWAP3 SWAP2 POP POP JUMP JUMPDEST PUSH2 0x940 PUSH2 0x1741 JUMP JUMPDEST DUP1 PUSH2 0x196 PUSH1 0x0 PUSH2 0x100 EXP DUP2 SLOAD DUP2 PUSH20 0xFFFFFFFFFFFFFFFFFFFFFFFFFFFFFFFFFFFFFFFF MUL NOT AND SWAP1 DUP4 PUSH20 0xFFFFFFFFFFFFFFFFFFFFFFFFFFFFFFFFFFFFFFFF AND MUL OR SWAP1 SSTORE POP POP JUMP JUMPDEST PUSH2 0x196 PUSH1 0x0 SWAP1 SLOAD SWAP1 PUSH2 0x100 EXP SWAP1 DIV PUSH20 0xFFFFFFFFFFFFFFFFFFFFFFFFFFFFFFFFFFFFFFFF AND DUP2 JUMP JUMPDEST PUSH1 0x0 PUSH1 0x35 SLOAD SWAP1 POP SWAP1 JUMP JUMPDEST PUSH2 0x9BE PUSH2 0x1741 JUMP JUMPDEST PUSH2 0x3E8 DUP2 GT ISZERO PUSH2 0xA03 JUMPI PUSH1 0x40 MLOAD PUSH32 0x8C379A000000000000000000000000000000000000000000000000000000000 DUP2 MSTORE PUSH1 0x4 ADD PUSH2 0x9FA SWAP1 PUSH2 0x344F JUMP JUMPDEST PUSH1 0x40 MLOAD DUP1 SWAP2 SUB SWAP1 REVERT JUMPDEST DUP1 PUSH2 0x192 DUP2 SWAP1 SSTORE POP POP JUMP JUMPDEST PUSH1 0x0 DUP1 PUSH2 0xA19 PUSH2 0x1570 JUMP JUMPDEST SWAP1 POP PUSH2 0xA26 DUP6 DUP3 DUP6 PUSH2 0x17BF JUMP JUMPDEST PUSH2 0xA31 DUP6 DUP6 DUP6 PUSH2 0x184B JUMP JUMPDEST PUSH1 0x1 SWAP2 POP POP SWAP4 SWAP3 POP POP POP JUMP JUMPDEST PUSH1 0x0 PUSH1 0x12 SWAP1 POP SWAP1 JUMP JUMPDEST PUSH32 0x0 PUSH20 0xFFFFFFFFFFFFFFFFFFFFFFFFFFFFFFFFFFFFFFFF AND ADDRESS PUSH20 0xFFFFFFFFFFFFFFFFFFFFFFFFFFFFFFFFFFFFFFFF AND SUB PUSH2 0xAD4 JUMPI PUSH1 0x40 MLOAD PUSH32 0x8C379A000000000000000000000000000000000000000000000000000000000 DUP2 MSTORE PUSH1 0x4 ADD PUSH2 0xACB SWAP1 PUSH2 0x34E1 JUMP JUMPDEST PUSH1 0x40 MLOAD DUP1 SWAP2 SUB SWAP1 REVERT JUMPDEST PUSH32 0x0 PUSH20 0xFFFFFFFFFFFFFFFFFFFFFFFFFFFFFFFFFFFFFFFF AND PUSH2 0xB13 PUSH2 0x1995 JUMP JUMPDEST PUSH20 0xFFFFFFFFFFFFFFFFFFFFFFFFFFFFFFFFFFFFFFFF AND EQ PUSH2 0xB69 JUMPI PUSH1 0x40 MLOAD PUSH32 0x8C379A000000000000000000000000000000000000000000000000000000000 DUP2 MSTORE PUSH1 0x4 ADD PUSH2 0xB60 SWAP1 PUSH2 0x3573 JUMP JUMPDEST PUSH1 0x40 MLOAD DUP1 SWAP2 SUB SWAP1 REVERT JUMPDEST PUSH2 0xB72 DUP2 PUSH2 0x19EC JUMP JUMPDEST PUSH2 0xBCB DUP2 PUSH1 0x0 PUSH8 0xFFFFFFFFFFFFFFFF DUP2 GT ISZERO PUSH2 0xB91 JUMPI PUSH2 0xB90 PUSH2 0x30F1 JUMP JUMPDEST JUMPDEST PUSH1 0x40 MLOAD SWAP1 DUP1 DUP3 MSTORE DUP1 PUSH1 0x1F ADD PUSH1 0x1F NOT AND PUSH1 0x20 ADD DUP3 ADD PUSH1 0x40 MSTORE DUP1 ISZERO PUSH2 0xBC3 JUMPI DUP2 PUSH1 0x20 ADD PUSH1 0x1 DUP3 MUL DUP1 CALLDATASIZE DUP4 CALLDATACOPY DUP1 DUP3 ADD SWAP2 POP POP SWAP1 POP JUMPDEST POP PUSH1 0x0 PUSH2 0x19F7 JUMP JUMPDEST POP JUMP JUMPDEST PUSH1 0x0 DUP1 PUSH2 0xBD9 PUSH2 0x1570 JUMP JUMPDEST SWAP1 POP PUSH2 0xBFA DUP2 DUP6 DUP6 PUSH2 0xBEB DUP6 DUP10 PUSH2 0x137B JUMP JUMPDEST PUSH2 0xBF5 SWAP2 SWAP1 PUSH2 0x35C2 JUMP JUMPDEST PUSH2 0x1578 JUMP JUMPDEST PUSH1 0x1 SWAP2 POP POP SWAP3 SWAP2 POP POP JUMP JUMPDEST PUSH2 0xC0D PUSH2 0x1741 JUMP JUMPDEST PUSH2 0xC15 PUSH2 0x1B65 JUMP JUMPDEST JUMP JUMPDEST PUSH2 0xC1F PUSH2 0x1741 JUMP JUMPDEST PUSH2 0xC29 DUP3 DUP3 PUSH2 0x1BC8 JUMP JUMPDEST POP POP JUMP JUMPDEST PUSH2 0xC3E PUSH2 0xC38 PUSH2 0x1570 JUMP JUMPDEST DUP3 PUSH2 0x1D1F JUMP JUMPDEST POP JUMP JUMPDEST PUSH1 0x0 DUP1 PUSH1 0x0 PUSH2 0xC8E DUP5 PUSH1 0x97 PUSH1 0x0 DUP9 PUSH20 0xFFFFFFFFFFFFFFFFFFFFFFFFFFFFFFFFFFFFFFFF AND PUSH20 0xFFFFFFFFFFFFFFFFFFFFFFFFFFFFFFFFFFFFFFFF AND DUP2 MSTORE PUSH1 0x20 ADD SWAP1 DUP2 MSTORE PUSH1 0x20 ADD PUSH1 0x0 KECCAK256 PUSH2 0x1EEE JUMP JUMPDEST SWAP2 POP SWAP2 POP DUP2 PUSH2 0xCA5 JUMPI PUSH2 0xCA0 DUP6 PUSH2 0xEC4 JUMP JUMPDEST PUSH2 0xCA7 JUMP JUMPDEST DUP1 JUMPDEST SWAP3 POP POP POP SWAP3 SWAP2 POP POP JUMP JUMPDEST PUSH32 0x0 PUSH20 0xFFFFFFFFFFFFFFFFFFFFFFFFFFFFFFFFFFFFFFFF AND ADDRESS PUSH20 0xFFFFFFFFFFFFFFFFFFFFFFFFFFFFFFFFFFFFFFFF AND SUB PUSH2 0xD3F JUMPI PUSH1 0x40 MLOAD PUSH32 0x8C379A000000000000000000000000000000000000000000000000000000000 DUP2 MSTORE PUSH1 0x4 ADD PUSH2 0xD36 SWAP1 PUSH2 0x34E1 JUMP JUMPDEST PUSH1 0x40 MLOAD DUP1 SWAP2 SUB SWAP1 REVERT JUMPDEST PUSH32 0x0 PUSH20 0xFFFFFFFFFFFFFFFFFFFFFFFFFFFFFFFFFFFFFFFF AND PUSH2 0xD7E PUSH2 0x1995 JUMP JUMPDEST PUSH20 0xFFFFFFFFFFFFFFFFFFFFFFFFFFFFFFFFFFFFFFFF AND EQ PUSH2 0xDD4 JUMPI PUSH1 0x40 MLOAD PUSH32 0x8C379A000000000000000000000000000000000000000000000000000000000 DUP2 MSTORE PUSH1 0x4 ADD PUSH2 0xDCB SWAP1 PUSH2 0x3573 JUMP JUMPDEST PUSH1 0x40 MLOAD DUP1 SWAP2 SUB SWAP1 REVERT JUMPDEST PUSH2 0xDDD DUP3 PUSH2 0x19EC JUMP JUMPDEST PUSH2 0xDE9 DUP3 DUP3 PUSH1 0x1 PUSH2 0x19F7 JUMP JUMPDEST POP POP JUMP JUMPDEST PUSH1 0x0 PUSH32 0x0 PUSH20 0xFFFFFFFFFFFFFFFFFFFFFFFFFFFFFFFFFFFFFFFF AND ADDRESS PUSH20 0xFFFFFFFFFFFFFFFFFFFFFFFFFFFFFFFFFFFFFFFF AND EQ PUSH2 0xE7D JUMPI PUSH1 0x40 MLOAD PUSH32 0x8C379A000000000000000000000000000000000000000000000000000000000 DUP2 MSTORE PUSH1 0x4 ADD PUSH2 0xE74 SWAP1 PUSH2 0x3668 JUMP JUMPDEST PUSH1 0x40 MLOAD DUP1 SWAP2 SUB SWAP1 REVERT JUMPDEST PUSH32 0x360894A13BA1A3210667C828492DB98DCA3E2076CC3735A920A3CA505D382BBC PUSH1 0x0 SHL SWAP1 POP SWAP1 JUMP JUMPDEST PUSH1 0x0 PUSH1 0xFB PUSH1 0x0 SWAP1 SLOAD SWAP1 PUSH2 0x100 EXP SWAP1 DIV PUSH1 0xFF AND SWAP1 POP SWAP1 JUMP JUMPDEST PUSH2 0x194 SLOAD DUP2 JUMP JUMPDEST PUSH1 0x0 PUSH1 0x33 PUSH1 0x0 DUP4 PUSH20 0xFFFFFFFFFFFFFFFFFFFFFFFFFFFFFFFFFFFFFFFF AND PUSH20 0xFFFFFFFFFFFFFFFFFFFFFFFFFFFFFFFFFFFFFFFF AND DUP2 MSTORE PUSH1 0x20 ADD SWAP1 DUP2 MSTORE PUSH1 0x20 ADD PUSH1 0x0 KECCAK256 SLOAD SWAP1 POP SWAP2 SWAP1 POP JUMP JUMPDEST PUSH2 0xF15 PUSH2 0x1741 JUMP JUMPDEST PUSH2 0xF1F PUSH1 0x0 PUSH2 0x1FE3 JUMP JUMPDEST JUMP JUMPDEST PUSH1 0x0 PUSH2 0x191 SLOAD SWAP1 POP SWAP1 JUMP JUMPDEST PUSH2 0xF3E DUP3 PUSH2 0xF38 PUSH2 0x1570 JUMP JUMPDEST DUP4 PUSH2 0x17BF JUMP JUMPDEST PUSH2 0xF48 DUP3 DUP3 PUSH2 0x1D1F JUMP JUMPDEST POP POP JUMP JUMPDEST PUSH1 0x0 DUP1 PUSH1 0x1 SWAP1 SLOAD SWAP1 PUSH2 0x100 EXP SWAP1 DIV PUSH1 0xFF AND ISZERO SWAP1 POP DUP1 DUP1 ISZERO PUSH2 0xF7D JUMPI POP PUSH1 0x1 PUSH1 0x0 DUP1 SLOAD SWAP1 PUSH2 0x100 EXP SWAP1 DIV PUSH1 0xFF AND PUSH1 0xFF AND LT JUMPDEST DUP1 PUSH2 0xFAA JUMPI POP PUSH2 0xF8C ADDRESS PUSH2 0x20A9 JUMP JUMPDEST ISZERO DUP1 ISZERO PUSH2 0xFA9 JUMPI POP PUSH1 0x1 PUSH1 0x0 DUP1 SLOAD SWAP1 PUSH2 0x100 EXP SWAP1 DIV PUSH1 0xFF AND PUSH1 0xFF AND EQ JUMPDEST JUMPDEST PUSH2 0xFE9 JUMPI PUSH1 0x40 MLOAD PUSH32 0x8C379A000000000000000000000000000000000000000000000000000000000 DUP2 MSTORE PUSH1 0x4 ADD PUSH2 0xFE0 SWAP1 PUSH2 0x36FA JUMP JUMPDEST PUSH1 0x40 MLOAD DUP1 SWAP2 SUB SWAP1 REVERT JUMPDEST PUSH1 0x1 PUSH1 0x0 DUP1 PUSH2 0x100 EXP DUP2 SLOAD DUP2 PUSH1 0xFF MUL NOT AND SWAP1 DUP4 PUSH1 0xFF AND MUL OR SWAP1 SSTORE POP DUP1 ISZERO PUSH2 0x1026 JUMPI PUSH1 0x1 PUSH1 0x0 PUSH1 0x1 PUSH2 0x100 EXP DUP2 SLOAD DUP2 PUSH1 0xFF MUL NOT AND SWAP1 DUP4 ISZERO ISZERO MUL OR SWAP1 SSTORE POP JUMPDEST PUSH2 0x109A PUSH1 0x40 MLOAD DUP1 PUSH1 0x40 ADD PUSH1 0x40 MSTORE DUP1 PUSH1 0x8 DUP2 MSTORE PUSH1 0x20 ADD PUSH32 0x4368616450657065000000000000000000000000000000000000000000000000 DUP2 MSTORE POP PUSH1 0x40 MLOAD DUP1 PUSH1 0x40 ADD PUSH1 0x40 MSTORE DUP1 PUSH1 0x4 DUP2 MSTORE PUSH1 0x20 ADD PUSH32 0x4348414400000000000000000000000000000000000000000000000000000000 DUP2 MSTORE POP PUSH2 0x20CC JUMP JUMPDEST PUSH2 0x10A2 PUSH2 0x2129 JUMP JUMPDEST PUSH2 0x10AA PUSH2 0x217A JUMP JUMPDEST PUSH2 0x10B2 PUSH2 0x21CB JUMP JUMPDEST PUSH2 0x10BA PUSH2 0x2224 JUMP JUMPDEST PUSH2 0x10C2 PUSH2 0x227D JUMP JUMPDEST PUSH1 0xC8 PUSH2 0x191 DUP2 SWAP1 SSTORE POP PUSH1 0x64 PUSH2 0x192 DUP2 SWAP1 SSTORE POP PUSH10 0xD3C21BCECCEDA1000000 PUSH2 0x193 DUP2 SWAP1 SSTORE POP PUSH8 0xDE0B6B3A7640000 PUSH2 0x194 DUP2 SWAP1 SSTORE POP DUP1 ISZERO PUSH2 0x114F JUMPI PUSH1 0x0 DUP1 PUSH1 0x1 PUSH2 0x100 EXP DUP2 SLOAD DUP2 PUSH1 0xFF MUL NOT AND SWAP1 DUP4 ISZERO ISZERO MUL OR SWAP1 SSTORE POP PUSH32 0x7F26B83FF96E1F2B6A682F133852F6798A09C465DA95921460CEFB3847402498 PUSH1 0x1 PUSH1 0x40 MLOAD PUSH2 0x1146 SWAP2 SWAP1 PUSH2 0x3755 JUMP JUMPDEST PUSH1 0x40 MLOAD DUP1 SWAP2 SUB SWAP1 LOG1 JUMPDEST POP JUMP JUMPDEST PUSH2 0x115A PUSH2 0x1741 JUMP JUMPDEST PUSH2 0x1162 PUSH2 0x22CE JUMP JUMPDEST JUMP JUMPDEST PUSH2 0x116C PUSH2 0x1741 JUMP JUMPDEST DUP1 PUSH2 0x193 DUP2 SWAP1 SSTORE POP POP JUMP JUMPDEST PUSH1 0x0 PUSH1 0xC9 PUSH1 0x0 SWAP1 SLOAD SWAP1 PUSH2 0x100 EXP SWAP1 DIV PUSH20 0xFFFFFFFFFFFFFFFFFFFFFFFFFFFFFFFFFFFFFFFF AND SWAP1 POP SWAP1 JUMP JUMPDEST PUSH1 0x60 PUSH1 0x37 DUP1 SLOAD PUSH2 0x11B0 SWAP1 PUSH2 0x33D2 JUMP JUMPDEST DUP1 PUSH1 0x1F ADD PUSH1 0x20 DUP1 SWAP2 DIV MUL PUSH1 0x20 ADD PUSH1 0x40 MLOAD SWAP1 DUP2 ADD PUSH1 0x40 MSTORE DUP1 SWAP3 SWAP2 SWAP1 DUP2 DUP2 MSTORE PUSH1 0x20 ADD DUP3 DUP1 SLOAD PUSH2 0x11DC SWAP1 PUSH2 0x33D2 JUMP JUMPDEST DUP1 ISZERO PUSH2 0x1229 JUMPI DUP1 PUSH1 0x1F LT PUSH2 0x11FE JUMPI PUSH2 0x100 DUP1 DUP4 SLOAD DIV MUL DUP4 MSTORE SWAP2 PUSH1 0x20 ADD SWAP2 PUSH2 0x1229 JUMP JUMPDEST DUP3 ADD SWAP2 SWAP1 PUSH1 0x0 MSTORE PUSH1 0x20 PUSH1 0x0 KECCAK256 SWAP1 JUMPDEST DUP2 SLOAD DUP2 MSTORE SWAP1 PUSH1 0x1 ADD SWAP1 PUSH1 0x20 ADD DUP1 DUP4 GT PUSH2 0x120C JUMPI DUP3 SWAP1 SUB PUSH1 0x1F AND DUP3 ADD SWAP2 JUMPDEST POP POP POP POP POP SWAP1 POP SWAP1 JUMP JUMPDEST PUSH1 0x0 DUP1 PUSH1 0x0 PUSH2 0x1243 DUP5 PUSH1 0x98 PUSH2 0x1EEE JUMP JUMPDEST SWAP2 POP SWAP2 POP DUP2 PUSH2 0x1259 JUMPI PUSH2 0x1254 PUSH2 0x9AC JUMP JUMPDEST PUSH2 0x125B JUMP JUMPDEST DUP1 JUMPDEST SWAP3 POP POP POP SWAP2 SWAP1 POP JUMP JUMPDEST PUSH1 0x0 DUP1 PUSH2 0x126F PUSH2 0x1570 JUMP JUMPDEST SWAP1 POP PUSH1 0x0 PUSH2 0x127D DUP3 DUP7 PUSH2 0x137B JUMP JUMPDEST SWAP1 POP DUP4 DUP2 LT ISZERO PUSH2 0x12C2 JUMPI PUSH1 0x40 MLOAD PUSH32 0x8C379A000000000000000000000000000000000000000000000000000000000 DUP2 MSTORE PUSH1 0x4 ADD PUSH2 0x12B9 SWAP1 PUSH2 0x37E2 JUMP JUMPDEST PUSH1 0x40 MLOAD DUP1 SWAP2 SUB SWAP1 REVERT JUMPDEST PUSH2 0x12CF DUP3 DUP7 DUP7 DUP5 SUB PUSH2 0x1578 JUMP JUMPDEST PUSH1 0x1 SWAP3 POP POP POP SWAP3 SWAP2 POP POP JUMP JUMPDEST PUSH1 0x0 DUP1 PUSH2 0x12E6 PUSH2 0x1570 JUMP JUMPDEST SWAP1 POP PUSH2 0x12F3 DUP2 DUP6 DUP6 PUSH2 0x184B JUMP JUMPDEST PUSH1 0x1 SWAP2 POP POP SWAP3 SWAP2 POP POP JUMP JUMPDEST PUSH2 0x193 SLOAD DUP2 JUMP JUMPDEST PUSH2 0x130D PUSH2 0x1741 JUMP JUMPDEST DUP1 PUSH2 0x194 DUP2 SWAP1 SSTORE POP POP JUMP JUMPDEST PUSH1 0x0 PUSH2 0x192 SLOAD SWAP1 POP SWAP1 JUMP JUMPDEST PUSH2 0x132B PUSH2 0x1741 JUMP JUMPDEST PUSH2 0x3E8 DUP2 GT ISZERO PUSH2 0x1370 JUMPI PUSH1 0x40 MLOAD PUSH32 0x8C379A000000000000000000000000000000000000000000000000000000000 DUP2 MSTORE PUSH1 0x4 ADD PUSH2 0x1367 SWAP1 PUSH2 0x384E JUMP JUMPDEST PUSH1 0x40 MLOAD DUP1 SWAP2 SUB SWAP1 REVERT JUMPDEST DUP1 PUSH2 0x191 DUP2 SWAP1 SSTORE POP POP JUMP JUMPDEST PUSH1 0x0 PUSH1 0x34 PUSH1 0x0 DUP5 PUSH20 0xFFFFFFFFFFFFFFFFFFFFFFFFFFFFFFFFFFFFFFFF AND PUSH20 0xFFFFFFFFFFFFFFFFFFFFFFFFFFFFFFFFFFFFFFFF AND DUP2 MSTORE PUSH1 0x20 ADD SWAP1 DUP2 MSTORE PUSH1 0x20 ADD PUSH1 0x0 KECCAK256 PUSH1 0x0 DUP4 PUSH20 0xFFFFFFFFFFFFFFFFFFFFFFFFFFFFFFFFFFFFFFFF AND PUSH20 0xFFFFFFFFFFFFFFFFFFFFFFFFFFFFFFFFFFFFFFFF AND DUP2 MSTORE PUSH1 0x20 ADD SWAP1 DUP2 MSTORE PUSH1 0x20 ADD PUSH1 0x0 KECCAK256 SLOAD SWAP1 POP SWAP3 SWAP2 POP POP JUMP JUMPDEST PUSH2 0x140A PUSH2 0x1741 JUMP JUMPDEST PUSH2 0x1437 PUSH2 0x196 PUSH1 0x0 SWAP1 SLOAD SWAP1 PUSH2 0x100 EXP SWAP1 DIV PUSH20 0xFFFFFFFFFFFFFFFFFFFFFFFFFFFFFFFFFFFFFFFF AND DUP8 PUSH2 0x915 JUMP JUMPDEST POP PUSH2 0x196 PUSH1 0x0 SWAP1 SLOAD SWAP1 PUSH2 0x100 EXP SWAP1 DIV PUSH20 0xFFFFFFFFFFFFFFFFFFFFFFFFFFFFFFFFFFFFFFFF AND PUSH20 0xFFFFFFFFFFFFFFFFFFFFFFFFFFFFFFFFFFFFFFFF AND PUSH4 0xF305D719 DUP7 ADDRESS DUP10 DUP9 DUP9 DUP9 DUP9 PUSH1 0x40 MLOAD DUP9 PUSH4 0xFFFFFFFF AND PUSH1 0xE0 SHL DUP2 MSTORE PUSH1 0x4 ADD PUSH2 0x149F SWAP7 SWAP6 SWAP5 SWAP4 SWAP3 SWAP2 SWAP1 PUSH2 0x386E JUMP JUMPDEST PUSH1 0x60 PUSH1 0x40 MLOAD DUP1 DUP4 SUB DUP2 DUP6 DUP9 GAS CALL ISZERO DUP1 ISZERO PUSH2 0x14BD JUMPI RETURNDATASIZE PUSH1 0x0 DUP1 RETURNDATACOPY RETURNDATASIZE PUSH1 0x0 REVERT JUMPDEST POP POP POP POP POP PUSH1 0x40 MLOAD RETURNDATASIZE PUSH1 0x1F NOT PUSH1 0x1F DUP3 ADD AND DUP3 ADD DUP1 PUSH1 0x40 MSTORE POP DUP2 ADD SWAP1 PUSH2 0x14E2 SWAP2 SWAP1 PUSH2 0x38E4 JUMP JUMPDEST POP POP POP POP POP POP POP POP POP JUMP JUMPDEST PUSH2 0x14F5 PUSH2 0x1741 JUMP JUMPDEST PUSH1 0x0 PUSH20 0xFFFFFFFFFFFFFFFFFFFFFFFFFFFFFFFFFFFFFFFF AND DUP2 PUSH20 0xFFFFFFFFFFFFFFFFFFFFFFFFFFFFFFFFFFFFFFFF AND SUB PUSH2 0x1564 JUMPI PUSH1 0x40 MLOAD PUSH32 0x8C379A000000000000000000000000000000000000000000000000000000000 DUP2 MSTORE PUSH1 0x4 ADD PUSH2 0x155B SWAP1 PUSH2 0x39A9 JUMP JUMPDEST PUSH1 0x40 MLOAD DUP1 SWAP2 SUB SWAP1 REVERT JUMPDEST PUSH2 0x156D DUP2 PUSH2 0x1FE3 JUMP JUMPDEST POP JUMP JUMPDEST PUSH1 0x0 CALLER SWAP1 POP SWAP1 JUMP JUMPDEST PUSH1 0x0 PUSH20 0xFFFFFFFFFFFFFFFFFFFFFFFFFFFFFFFFFFFFFFFF AND DUP4 PUSH20 0xFFFFFFFFFFFFFFFFFFFFFFFFFFFFFFFFFFFFFFFF AND SUB PUSH2 0x15E7 JUMPI PUSH1 0x40 MLOAD PUSH32 0x8C379A000000000000000000000000000000000000000000000000000000000 DUP2 MSTORE PUSH1 0x4 ADD PUSH2 0x15DE SWAP1 PUSH2 0x3A3B JUMP JUMPDEST PUSH1 0x40 MLOAD DUP1 SWAP2 SUB SWAP1 REVERT JUMPDEST PUSH1 0x0 PUSH20 0xFFFFFFFFFFFFFFFFFFFFFFFFFFFFFFFFFFFFFFFF AND DUP3 PUSH20 0xFFFFFFFFFFFFFFFFFFFFFFFFFFFFFFFFFFFFFFFF AND SUB PUSH2 0x1656 JUMPI PUSH1 0x40 MLOAD PUSH32 0x8C379A000000000000000000000000000000000000000000000000000000000 DUP2 MSTORE PUSH1 0x4 ADD PUSH2 0x164D SWAP1 PUSH2 0x3ACD JUMP JUMPDEST PUSH1 0x40 MLOAD DUP1 SWAP2 SUB SWAP1 REVERT JUMPDEST DUP1 PUSH1 0x34 PUSH1 0x0 DUP6 PUSH20 0xFFFFFFFFFFFFFFFFFFFFFFFFFFFFFFFFFFFFFFFF AND PUSH20 0xFFFFFFFFFFFFFFFFFFFFFFFFFFFFFFFFFFFFFFFF AND DUP2 MSTORE PUSH1 0x20 ADD SWAP1 DUP2 MSTORE PUSH1 0x20 ADD PUSH1 0x0 KECCAK256 PUSH1 0x0 DUP5 PUSH20 0xFFFFFFFFFFFFFFFFFFFFFFFFFFFFFFFFFFFFFFFF AND PUSH20 0xFFFFFFFFFFFFFFFFFFFFFFFFFFFFFFFFFFFFFFFF AND DUP2 MSTORE PUSH1 0x20 ADD SWAP1 DUP2 MSTORE PUSH1 0x20 ADD PUSH1 0x0 KECCAK256 DUP2 SWAP1 SSTORE POP DUP2 PUSH20 0xFFFFFFFFFFFFFFFFFFFFFFFFFFFFFFFFFFFFFFFF AND DUP4 PUSH20 0xFFFFFFFFFFFFFFFFFFFFFFFFFFFFFFFFFFFFFFFF AND PUSH32 0x8C5BE1E5EBEC7D5BD14F71427D1E84F3DD0314C0F7B2291E5B200AC8C7C3B925 DUP4 PUSH1 0x40 MLOAD PUSH2 0x1734 SWAP2 SWAP1 PUSH2 0x3015 JUMP JUMPDEST PUSH1 0x40 MLOAD DUP1 SWAP2 SUB SWAP1 LOG3 POP POP POP JUMP JUMPDEST PUSH2 0x1749 PUSH2 0x1570 JUMP JUMPDEST PUSH20 0xFFFFFFFFFFFFFFFFFFFFFFFFFFFFFFFFFFFFFFFF AND PUSH2 0x1767 PUSH2 0x1177 JUMP JUMPDEST PUSH20 0xFFFFFFFFFFFFFFFFFFFFFFFFFFFFFFFFFFFFFFFF AND EQ PUSH2 0x17BD JUMPI PUSH1 0x40 MLOAD PUSH32 0x8C379A000000000000000000000000000000000000000000000000000000000 DUP2 MSTORE PUSH1 0x4 ADD PUSH2 0x17B4 SWAP1 PUSH2 0x3B39 JUMP JUMPDEST PUSH1 0x40 MLOAD DUP1 SWAP2 SUB SWAP1 REVERT JUMPDEST JUMP JUMPDEST PUSH1 0x0 PUSH2 0x17CB DUP5 DUP5 PUSH2 0x137B JUMP JUMPDEST SWAP1 POP PUSH32 0xFFFFFFFFFFFFFFFFFFFFFFFFFFFFFFFFFFFFFFFFFFFFFFFFFFFFFFFFFFFFFFFF DUP2 EQ PUSH2 0x1845 JUMPI DUP2 DUP2 LT ISZERO PUSH2 0x1837 JUMPI PUSH1 0x40 MLOAD PUSH32 0x8C379A000000000000000000000000000000000000000000000000000000000 DUP2 MSTORE PUSH1 0x4 ADD PUSH2 0x182E SWAP1 PUSH2 0x3BA5 JUMP JUMPDEST PUSH1 0x40 MLOAD DUP1 SWAP2 SUB SWAP1 REVERT JUMPDEST PUSH2 0x1844 DUP5 DUP5 DUP5 DUP5 SUB PUSH2 0x1578 JUMP JUMPDEST JUMPDEST POP POP POP POP JUMP JUMPDEST PUSH2 0x1853 PUSH2 0x2331 JUMP JUMPDEST PUSH2 0x193 SLOAD DUP2 GT ISZERO PUSH2 0x1899 JUMPI PUSH1 0x40 MLOAD PUSH32 0x8C379A000000000000000000000000000000000000000000000000000000000 DUP2 MSTORE PUSH1 0x4 ADD PUSH2 0x1890 SWAP1 PUSH2 0x3C37 JUMP JUMPDEST PUSH1 0x40 MLOAD DUP1 SWAP2 SUB SWAP1 REVERT JUMPDEST PUSH2 0x194 SLOAD DUP2 LT ISZERO PUSH2 0x18DF JUMPI PUSH1 0x40 MLOAD PUSH32 0x8C379A000000000000000000000000000000000000000000000000000000000 DUP2 MSTORE PUSH1 0x4 ADD PUSH2 0x18D6 SWAP1 PUSH2 0x3CC9 JUMP JUMPDEST PUSH1 0x40 MLOAD DUP1 SWAP2 SUB SWAP1 REVERT JUMPDEST PUSH1 0x0 PUSH2 0x190B PUSH2 0x2710 PUSH2 0x18FD PUSH2 0x191 SLOAD DUP6 PUSH2 0x237B SWAP1 SWAP2 SWAP1 PUSH4 0xFFFFFFFF AND JUMP JUMPDEST PUSH2 0x2391 SWAP1 SWAP2 SWAP1 PUSH4 0xFFFFFFFF AND JUMP JUMPDEST SWAP1 POP PUSH1 0x0 PUSH2 0x1939 PUSH2 0x2710 PUSH2 0x192B PUSH2 0x192 SLOAD DUP7 PUSH2 0x237B SWAP1 SWAP2 SWAP1 PUSH4 0xFFFFFFFF AND JUMP JUMPDEST PUSH2 0x2391 SWAP1 SWAP2 SWAP1 PUSH4 0xFFFFFFFF AND JUMP JUMPDEST SWAP1 POP PUSH1 0x0 PUSH2 0x1962 DUP3 PUSH2 0x1954 DUP6 DUP8 PUSH2 0x23A7 SWAP1 SWAP2 SWAP1 PUSH4 0xFFFFFFFF AND JUMP JUMPDEST PUSH2 0x23A7 SWAP1 SWAP2 SWAP1 PUSH4 0xFFFFFFFF AND JUMP JUMPDEST SWAP1 POP PUSH2 0x196F DUP7 DUP7 DUP4 PUSH2 0x23BD JUMP JUMPDEST PUSH2 0x197B DUP7 PUSH1 0x0 DUP5 PUSH2 0x23BD JUMP JUMPDEST PUSH2 0x198D DUP7 PUSH2 0x1987 PUSH2 0x1177 JUMP JUMPDEST DUP6 PUSH2 0x23BD JUMP JUMPDEST POP POP POP POP POP POP JUMP JUMPDEST PUSH1 0x0 PUSH2 0x19C3 PUSH32 0x360894A13BA1A3210667C828492DB98DCA3E2076CC3735A920A3CA505D382BBC PUSH1 0x0 SHL PUSH2 0x2636 JUMP JUMPDEST PUSH1 0x0 ADD PUSH1 0x0 SWAP1 SLOAD SWAP1 PUSH2 0x100 EXP SWAP1 DIV PUSH20 0xFFFFFFFFFFFFFFFFFFFFFFFFFFFFFFFFFFFFFFFF AND SWAP1 POP SWAP1 JUMP JUMPDEST PUSH2 0x19F4 PUSH2 0x1741 JUMP JUMPDEST POP JUMP JUMPDEST PUSH2 0x1A23 PUSH32 0x4910FDFA16FED3260ED0E7147F7CC6DA11A60208B5B9406D12A635614FFD9143 PUSH1 0x0 SHL PUSH2 0x2640 JUMP JUMPDEST PUSH1 0x0 ADD PUSH1 0x0 SWAP1 SLOAD SWAP1 PUSH2 0x100 EXP SWAP1 DIV PUSH1 0xFF AND ISZERO PUSH2 0x1A47 JUMPI PUSH2 0x1A42 DUP4 PUSH2 0x264A JUMP JUMPDEST PUSH2 0x1B60 JUMP JUMPDEST DUP3 PUSH20 0xFFFFFFFFFFFFFFFFFFFFFFFFFFFFFFFFFFFFFFFF AND PUSH4 0x52D1902D PUSH1 0x40 MLOAD DUP2 PUSH4 0xFFFFFFFF AND PUSH1 0xE0 SHL DUP2 MSTORE PUSH1 0x4 ADD PUSH1 0x20 PUSH1 0x40 MLOAD DUP1 DUP4 SUB DUP2 DUP7 GAS STATICCALL SWAP3 POP POP POP DUP1 ISZERO PUSH2 0x1AAF JUMPI POP PUSH1 0x40 MLOAD RETURNDATASIZE PUSH1 0x1F NOT PUSH1 0x1F DUP3 ADD AND DUP3 ADD DUP1 PUSH1 0x40 MSTORE POP DUP2 ADD SWAP1 PUSH2 0x1AAC SWAP2 SWAP1 PUSH2 0x3D15 JUMP JUMPDEST PUSH1 0x1 JUMPDEST PUSH2 0x1AEE JUMPI PUSH1 0x40 MLOAD PUSH32 0x8C379A000000000000000000000000000000000000000000000000000000000 DUP2 MSTORE PUSH1 0x4 ADD PUSH2 0x1AE5 SWAP1 PUSH2 0x3DB4 JUMP JUMPDEST PUSH1 0x40 MLOAD DUP1 SWAP2 SUB SWAP1 REVERT JUMPDEST PUSH32 0x360894A13BA1A3210667C828492DB98DCA3E2076CC3735A920A3CA505D382BBC PUSH1 0x0 SHL DUP2 EQ PUSH2 0x1B53 JUMPI PUSH1 0x40 MLOAD PUSH32 0x8C379A000000000000000000000000000000000000000000000000000000000 DUP2 MSTORE PUSH1 0x4 ADD PUSH2 0x1B4A SWAP1 PUSH2 0x3E46 JUMP JUMPDEST PUSH1 0x40 MLOAD DUP1 SWAP2 SUB SWAP1 REVERT JUMPDEST POP PUSH2 0x1B5F DUP4 DUP4 DUP4 PUSH2 0x2703 JUMP JUMPDEST JUMPDEST POP POP POP JUMP JUMPDEST PUSH2 0x1B6D PUSH2 0x272F JUMP JUMPDEST PUSH1 0x0 PUSH1 0xFB PUSH1 0x0 PUSH2 0x100 EXP DUP2 SLOAD DUP2 PUSH1 0xFF MUL NOT AND SWAP1 DUP4 ISZERO ISZERO MUL OR SWAP1 SSTORE POP PUSH32 0x5DB9EE0A495BF2E6FF9C91A7834C1BA4FDD244A5E8AA4E537BD38AEAE4B073AA PUSH2 0x1BB1 PUSH2 0x1570 JUMP JUMPDEST PUSH1 0x40 MLOAD PUSH2 0x1BBE SWAP2 SWAP1 PUSH2 0x32BB JUMP JUMPDEST PUSH1 0x40 MLOAD DUP1 SWAP2 SUB SWAP1 LOG1 JUMP JUMPDEST PUSH1 0x0 PUSH20 0xFFFFFFFFFFFFFFFFFFFFFFFFFFFFFFFFFFFFFFFF AND DUP3 PUSH20 0xFFFFFFFFFFFFFFFFFFFFFFFFFFFFFFFFFFFFFFFF AND SUB PUSH2 0x1C37 JUMPI PUSH1 0x40 MLOAD PUSH32 0x8C379A000000000000000000000000000000000000000000000000000000000 DUP2 MSTORE PUSH1 0x4 ADD PUSH2 0x1C2E SWAP1 PUSH2 0x3EB2 JUMP JUMPDEST PUSH1 0x40 MLOAD DUP1 SWAP2 SUB SWAP1 REVERT JUMPDEST PUSH2 0x1C43 PUSH1 0x0 DUP4 DUP4 PUSH2 0x2778 JUMP JUMPDEST DUP1 PUSH1 0x35 PUSH1 0x0 DUP3 DUP3 SLOAD PUSH2 0x1C55 SWAP2 SWAP1 PUSH2 0x35C2 JUMP JUMPDEST SWAP3 POP POP DUP2 SWAP1 SSTORE POP DUP1 PUSH1 0x33 PUSH1 0x0 DUP5 PUSH20 0xFFFFFFFFFFFFFFFFFFFFFFFFFFFFFFFFFFFFFFFF AND PUSH20 0xFFFFFFFFFFFFFFFFFFFFFFFFFFFFFFFFFFFFFFFF AND DUP2 MSTORE PUSH1 0x20 ADD SWAP1 DUP2 MSTORE PUSH1 0x20 ADD PUSH1 0x0 KECCAK256 PUSH1 0x0 DUP3 DUP3 SLOAD ADD SWAP3 POP POP DUP2 SWAP1 SSTORE POP DUP2 PUSH20 0xFFFFFFFFFFFFFFFFFFFFFFFFFFFFFFFFFFFFFFFF AND PUSH1 0x0 PUSH20 0xFFFFFFFFFFFFFFFFFFFFFFFFFFFFFFFFFFFFFFFF AND PUSH32 0xDDF252AD1BE2C89B69C2B068FC378DAA952BA7F163C4A11628F55A4DF523B3EF DUP4 PUSH1 0x40 MLOAD PUSH2 0x1D07 SWAP2 SWAP1 PUSH2 0x3015 JUMP JUMPDEST PUSH1 0x40 MLOAD DUP1 SWAP2 SUB SWAP1 LOG3 PUSH2 0x1D1B PUSH1 0x0 DUP4 DUP4 PUSH2 0x2790 JUMP JUMPDEST POP POP JUMP JUMPDEST PUSH1 0x0 PUSH20 0xFFFFFFFFFFFFFFFFFFFFFFFFFFFFFFFFFFFFFFFF AND DUP3 PUSH20 0xFFFFFFFFFFFFFFFFFFFFFFFFFFFFFFFFFFFFFFFF AND SUB PUSH2 0x1D8E JUMPI PUSH1 0x40 MLOAD PUSH32 0x8C379A000000000000000000000000000000000000000000000000000000000 DUP2 MSTORE PUSH1 0x4 ADD PUSH2 0x1D85 SWAP1 PUSH2 0x3F44 JUMP JUMPDEST PUSH1 0x40 MLOAD DUP1 SWAP2 SUB SWAP1 REVERT JUMPDEST PUSH2 0x1D9A DUP3 PUSH1 0x0 DUP4 PUSH2 0x2778 JUMP JUMPDEST PUSH1 0x0 PUSH1 0x33 PUSH1 0x0 DUP5 PUSH20 0xFFFFFFFFFFFFFFFFFFFFFFFFFFFFFFFFFFFFFFFF AND PUSH20 0xFFFFFFFFFFFFFFFFFFFFFFFFFFFFFFFFFFFFFFFF AND DUP2 MSTORE PUSH1 0x20 ADD SWAP1 DUP2 MSTORE PUSH1 0x20 ADD PUSH1 0x0 KECCAK256 SLOAD SWAP1 POP DUP2 DUP2 LT ISZERO PUSH2 0x1E21 JUMPI PUSH1 0x40 MLOAD PUSH32 0x8C379A000000000000000000000000000000000000000000000000000000000 DUP2 MSTORE PUSH1 0x4 ADD PUSH2 0x1E18 SWAP1 PUSH2 0x3FD6 JUMP JUMPDEST PUSH1 0x40 MLOAD DUP1 SWAP2 SUB SWAP1 REVERT JUMPDEST DUP2 DUP2 SUB PUSH1 0x33 PUSH1 0x0 DUP6 PUSH20 0xFFFFFFFFFFFFFFFFFFFFFFFFFFFFFFFFFFFFFFFF AND PUSH20 0xFFFFFFFFFFFFFFFFFFFFFFFFFFFFFFFFFFFFFFFF AND DUP2 MSTORE PUSH1 0x20 ADD SWAP1 DUP2 MSTORE PUSH1 0x20 ADD PUSH1 0x0 KECCAK256 DUP2 SWAP1 SSTORE POP DUP2 PUSH1 0x35 PUSH1 0x0 DUP3 DUP3 SLOAD SUB SWAP3 POP POP DUP2 SWAP1 SSTORE POP PUSH1 0x0 PUSH20 0xFFFFFFFFFFFFFFFFFFFFFFFFFFFFFFFFFFFFFFFF AND DUP4 PUSH20 0xFFFFFFFFFFFFFFFFFFFFFFFFFFFFFFFFFFFFFFFF AND PUSH32 0xDDF252AD1BE2C89B69C2B068FC378DAA952BA7F163C4A11628F55A4DF523B3EF DUP5 PUSH1 0x40 MLOAD PUSH2 0x1ED5 SWAP2 SWAP1 PUSH2 0x3015 JUMP JUMPDEST PUSH1 0x40 MLOAD DUP1 SWAP2 SUB SWAP1 LOG3 PUSH2 0x1EE9 DUP4 PUSH1 0x0 DUP5 PUSH2 0x2790 JUMP JUMPDEST POP POP POP JUMP JUMPDEST PUSH1 0x0 DUP1 PUSH1 0x0 DUP5 GT PUSH2 0x1F34 JUMPI PUSH1 0x40 MLOAD PUSH32 0x8C379A000000000000000000000000000000000000000000000000000000000 DUP2 MSTORE PUSH1 0x4 ADD PUSH2 0x1F2B SWAP1 PUSH2 0x4042 JUMP JUMPDEST PUSH1 0x40 MLOAD DUP1 SWAP2 SUB SWAP1 REVERT JUMPDEST PUSH2 0x1F3C PUSH2 0x2795 JUMP JUMPDEST DUP5 GT ISZERO PUSH2 0x1F7E JUMPI PUSH1 0x40 MLOAD PUSH32 0x8C379A000000000000000000000000000000000000000000000000000000000 DUP2 MSTORE PUSH1 0x4 ADD PUSH2 0x1F75 SWAP1 PUSH2 0x40AE JUMP JUMPDEST PUSH1 0x40 MLOAD DUP1 SWAP2 SUB SWAP1 REVERT JUMPDEST PUSH1 0x0 PUSH2 0x1F96 DUP6 DUP6 PUSH1 0x0 ADD PUSH2 0x27A6 SWAP1 SWAP2 SWAP1 PUSH4 0xFFFFFFFF AND JUMP JUMPDEST SWAP1 POP DUP4 PUSH1 0x0 ADD DUP1 SLOAD SWAP1 POP DUP2 SUB PUSH2 0x1FB3 JUMPI PUSH1 0x0 DUP1 SWAP3 POP SWAP3 POP POP PUSH2 0x1FDC JUMP JUMPDEST PUSH1 0x1 DUP5 PUSH1 0x1 ADD DUP3 DUP2 SLOAD DUP2 LT PUSH2 0x1FCB JUMPI PUSH2 0x1FCA PUSH2 0x40CE JUMP JUMPDEST JUMPDEST SWAP1 PUSH1 0x0 MSTORE PUSH1 0x20 PUSH1 0x0 KECCAK256 ADD SLOAD SWAP3 POP SWAP3 POP POP JUMPDEST SWAP3 POP SWAP3 SWAP1 POP JUMP JUMPDEST PUSH1 0x0 PUSH1 0xC9 PUSH1 0x0 SWAP1 SLOAD SWAP1 PUSH2 0x100 EXP SWAP1 DIV PUSH20 0xFFFFFFFFFFFFFFFFFFFFFFFFFFFFFFFFFFFFFFFF AND SWAP1 POP DUP2 PUSH1 0xC9 PUSH1 0x0 PUSH2 0x100 EXP DUP2 SLOAD DUP2 PUSH20 0xFFFFFFFFFFFFFFFFFFFFFFFFFFFFFFFFFFFFFFFF MUL NOT AND SWAP1 DUP4 PUSH20 0xFFFFFFFFFFFFFFFFFFFFFFFFFFFFFFFFFFFFFFFF AND MUL OR SWAP1 SSTORE POP DUP2 PUSH20 0xFFFFFFFFFFFFFFFFFFFFFFFFFFFFFFFFFFFFFFFF AND DUP2 PUSH20 0xFFFFFFFFFFFFFFFFFFFFFFFFFFFFFFFFFFFFFFFF AND PUSH32 0x8BE0079C531659141344CD1FD0A4F28419497F9722A3DAAFE3B4186F6B6457E0 PUSH1 0x40 MLOAD PUSH1 0x40 MLOAD DUP1 SWAP2 SUB SWAP1 LOG3 POP POP JUMP JUMPDEST PUSH1 0x0 DUP1 DUP3 PUSH20 0xFFFFFFFFFFFFFFFFFFFFFFFFFFFFFFFFFFFFFFFF AND EXTCODESIZE GT SWAP1 POP SWAP2 SWAP1 POP JUMP JUMPDEST PUSH1 0x0 PUSH1 0x1 SWAP1 SLOAD SWAP1 PUSH2 0x100 EXP SWAP1 DIV PUSH1 0xFF AND PUSH2 0x211B JUMPI PUSH1 0x40 MLOAD PUSH32 0x8C379A000000000000000000000000000000000000000000000000000000000 DUP2 MSTORE PUSH1 0x4 ADD PUSH2 0x2112 SWAP1 PUSH2 0x416F JUMP JUMPDEST PUSH1 0x40 MLOAD DUP1 SWAP2 SUB SWAP1 REVERT JUMPDEST PUSH2 0x2125 DUP3 DUP3 PUSH2 0x285F JUMP JUMPDEST POP POP JUMP JUMPDEST PUSH1 0x0 PUSH1 0x1 SWAP1 SLOAD SWAP1 PUSH2 0x100 EXP SWAP1 DIV PUSH1 0xFF AND PUSH2 0x2178 JUMPI PUSH1 0x40 MLOAD PUSH32 0x8C379A000000000000000000000000000000000000000000000000000000000 DUP2 MSTORE PUSH1 0x4 ADD PUSH2 0x216F SWAP1 PUSH2 0x416F JUMP JUMPDEST PUSH1 0x40 MLOAD DUP1 SWAP2 SUB SWAP1 REVERT JUMPDEST JUMP JUMPDEST PUSH1 0x0 PUSH1 0x1 SWAP1 SLOAD SWAP1 PUSH2 0x100 EXP SWAP1 DIV PUSH1 0xFF AND PUSH2 0x21C9 JUMPI PUSH1 0x40 MLOAD PUSH32 0x8C379A000000000000000000000000000000000000000000000000000000000 DUP2 MSTORE PUSH1 0x4 ADD PUSH2 0x21C0 SWAP1 PUSH2 0x416F JUMP JUMPDEST PUSH1 0x40 MLOAD DUP1 SWAP2 SUB SWAP1 REVERT JUMPDEST JUMP JUMPDEST PUSH1 0x0 PUSH1 0x1 SWAP1 SLOAD SWAP1 PUSH2 0x100 EXP SWAP1 DIV PUSH1 0xFF AND PUSH2 0x221A JUMPI PUSH1 0x40 MLOAD PUSH32 0x8C379A000000000000000000000000000000000000000000000000000000000 DUP2 MSTORE PUSH1 0x4 ADD PUSH2 0x2211 SWAP1 PUSH2 0x416F JUMP JUMPDEST PUSH1 0x40 MLOAD DUP1 SWAP2 SUB SWAP1 REVERT JUMPDEST PUSH2 0x2222 PUSH2 0x28D2 JUMP JUMPDEST JUMP JUMPDEST PUSH1 0x0 PUSH1 0x1 SWAP1 SLOAD SWAP1 PUSH2 0x100 EXP SWAP1 DIV PUSH1 0xFF AND PUSH2 0x2273 JUMPI PUSH1 0x40 MLOAD PUSH32 0x8C379A000000000000000000000000000000000000000000000000000000000 DUP2 MSTORE PUSH1 0x4 ADD PUSH2 0x226A SWAP1 PUSH2 0x416F JUMP JUMPDEST PUSH1 0x40 MLOAD DUP1 SWAP2 SUB SWAP1 REVERT JUMPDEST PUSH2 0x227B PUSH2 0x2933 JUMP JUMPDEST JUMP JUMPDEST PUSH1 0x0 PUSH1 0x1 SWAP1 SLOAD SWAP1 PUSH2 0x100 EXP SWAP1 DIV PUSH1 0xFF AND PUSH2 0x22CC JUMPI PUSH1 0x40 MLOAD PUSH32 0x8C379A000000000000000000000000000000000000000000000000000000000 DUP2 MSTORE PUSH1 0x4 ADD PUSH2 0x22C3 SWAP1 PUSH2 0x416F JUMP JUMPDEST PUSH1 0x40 MLOAD DUP1 SWAP2 SUB SWAP1 REVERT JUMPDEST JUMP JUMPDEST PUSH2 0x22D6 PUSH2 0x2331 JUMP JUMPDEST PUSH1 0x1 PUSH1 0xFB PUSH1 0x0 PUSH2 0x100 EXP DUP2 SLOAD DUP2 PUSH1 0xFF MUL NOT AND SWAP1 DUP4 ISZERO ISZERO MUL OR SWAP1 SSTORE POP PUSH32 0x62E78CEA01BEE320CD4E420270B5EA74000D11B0C9F74754EBDBFC544B05A258 PUSH2 0x231A PUSH2 0x1570 JUMP JUMPDEST PUSH1 0x40 MLOAD PUSH2 0x2327 SWAP2 SWAP1 PUSH2 0x32BB JUMP JUMPDEST PUSH1 0x40 MLOAD DUP1 SWAP2 SUB SWAP1 LOG1 JUMP JUMPDEST PUSH2 0x2339 PUSH2 0xEA6 JUMP JUMPDEST ISZERO PUSH2 0x2379 JUMPI PUSH1 0x40 MLOAD PUSH32 0x8C379A000000000000000000000000000000000000000000000000000000000 DUP2 MSTORE PUSH1 0x4 ADD PUSH2 0x2370 SWAP1 PUSH2 0x41DB JUMP JUMPDEST PUSH1 0x40 MLOAD DUP1 SWAP2 SUB SWAP1 REVERT JUMPDEST JUMP JUMPDEST PUSH1 0x0 DUP2 DUP4 PUSH2 0x2389 SWAP2 SWAP1 PUSH2 0x41FB JUMP JUMPDEST SWAP1 POP SWAP3 SWAP2 POP POP JUMP JUMPDEST PUSH1 0x0 DUP2 DUP4 PUSH2 0x239F SWAP2 SWAP1 PUSH2 0x426C JUMP JUMPDEST SWAP1 POP SWAP3 SWAP2 POP POP JUMP JUMPDEST PUSH1 0x0 DUP2 DUP4 PUSH2 0x23B5 SWAP2 SWAP1 PUSH2 0x429D JUMP JUMPDEST SWAP1 POP SWAP3 SWAP2 POP POP JUMP JUMPDEST PUSH1 0x0 PUSH20 0xFFFFFFFFFFFFFFFFFFFFFFFFFFFFFFFFFFFFFFFF AND DUP4 PUSH20 0xFFFFFFFFFFFFFFFFFFFFFFFFFFFFFFFFFFFFFFFF AND SUB PUSH2 0x242C JUMPI PUSH1 0x40 MLOAD PUSH32 0x8C379A000000000000000000000000000000000000000000000000000000000 DUP2 MSTORE PUSH1 0x4 ADD PUSH2 0x2423 SWAP1 PUSH2 0x4343 JUMP JUMPDEST PUSH1 0x40 MLOAD DUP1 SWAP2 SUB SWAP1 REVERT JUMPDEST PUSH1 0x0 PUSH20 0xFFFFFFFFFFFFFFFFFFFFFFFFFFFFFFFFFFFFFFFF AND DUP3 PUSH20 0xFFFFFFFFFFFFFFFFFFFFFFFFFFFFFFFFFFFFFFFF AND SUB PUSH2 0x249B JUMPI PUSH1 0x40 MLOAD PUSH32 0x8C379A000000000000000000000000000000000000000000000000000000000 DUP2 MSTORE PUSH1 0x4 ADD PUSH2 0x2492 SWAP1 PUSH2 0x43D5 JUMP JUMPDEST PUSH1 0x40 MLOAD DUP1 SWAP2 SUB SWAP1 REVERT JUMPDEST PUSH2 0x24A6 DUP4 DUP4 DUP4 PUSH2 0x2778 JUMP JUMPDEST PUSH1 0x0 PUSH1 0x33 PUSH1 0x0 DUP6 PUSH20 0xFFFFFFFFFFFFFFFFFFFFFFFFFFFFFFFFFFFFFFFF AND PUSH20 0xFFFFFFFFFFFFFFFFFFFFFFFFFFFFFFFFFFFFFFFF AND DUP2 MSTORE PUSH1 0x20 ADD SWAP1 DUP2 MSTORE PUSH1 0x20 ADD PUSH1 0x0 KECCAK256 SLOAD SWAP1 POP DUP2 DUP2 LT ISZERO PUSH2 0x252D JUMPI PUSH1 0x40 MLOAD PUSH32 0x8C379A000000000000000000000000000000000000000000000000000000000 DUP2 MSTORE PUSH1 0x4 ADD PUSH2 0x2524 SWAP1 PUSH2 0x4467 JUMP JUMPDEST PUSH1 0x40 MLOAD DUP1 SWAP2 SUB SWAP1 REVERT JUMPDEST DUP2 DUP2 SUB PUSH1 0x33 PUSH1 0x0 DUP7 PUSH20 0xFFFFFFFFFFFFFFFFFFFFFFFFFFFFFFFFFFFFFFFF AND PUSH20 0xFFFFFFFFFFFFFFFFFFFFFFFFFFFFFFFFFFFFFFFF AND DUP2 MSTORE PUSH1 0x20 ADD SWAP1 DUP2 MSTORE PUSH1 0x20 ADD PUSH1 0x0 KECCAK256 DUP2 SWAP1 SSTORE POP DUP2 PUSH1 0x33 PUSH1 0x0 DUP6 PUSH20 0xFFFFFFFFFFFFFFFFFFFFFFFFFFFFFFFFFFFFFFFF AND PUSH20 0xFFFFFFFFFFFFFFFFFFFFFFFFFFFFFFFFFFFFFFFF AND DUP2 MSTORE PUSH1 0x20 ADD SWAP1 DUP2 MSTORE PUSH1 0x20 ADD PUSH1 0x0 KECCAK256 PUSH1 0x0 DUP3 DUP3 SLOAD ADD SWAP3 POP POP DUP2 SWAP1 SSTORE POP DUP3 PUSH20 0xFFFFFFFFFFFFFFFFFFFFFFFFFFFFFFFFFFFFFFFF AND DUP5 PUSH20 0xFFFFFFFFFFFFFFFFFFFFFFFFFFFFFFFFFFFFFFFF AND PUSH32 0xDDF252AD1BE2C89B69C2B068FC378DAA952BA7F163C4A11628F55A4DF523B3EF DUP5 PUSH1 0x40 MLOAD PUSH2 0x261D SWAP2 SWAP1 PUSH2 0x3015 JUMP JUMPDEST PUSH1 0x40 MLOAD DUP1 SWAP2 SUB SWAP1 LOG3 PUSH2 0x2630 DUP5 DUP5 DUP5 PUSH2 0x2790 JUMP JUMPDEST POP POP POP POP JUMP JUMPDEST PUSH1 0x0 DUP2 SWAP1 POP SWAP2 SWAP1 POP JUMP JUMPDEST PUSH1 0x0 DUP2 SWAP1 POP SWAP2 SWAP1 POP JUMP JUMPDEST PUSH2 0x2653 DUP2 PUSH2 0x20A9 JUMP JUMPDEST PUSH2 0x2692 JUMPI PUSH1 0x40 MLOAD PUSH32 0x8C379A000000000000000000000000000000000000000000000000000000000 DUP2 MSTORE PUSH1 0x4 ADD PUSH2 0x2689 SWAP1 PUSH2 0x44F9 JUMP JUMPDEST PUSH1 0x40 MLOAD DUP1 SWAP2 SUB SWAP1 REVERT JUMPDEST DUP1 PUSH2 0x26BF PUSH32 0x360894A13BA1A3210667C828492DB98DCA3E2076CC3735A920A3CA505D382BBC PUSH1 0x0 SHL PUSH2 0x2636 JUMP JUMPDEST PUSH1 0x0 ADD PUSH1 0x0 PUSH2 0x100 EXP DUP2 SLOAD DUP2 PUSH20 0xFFFFFFFFFFFFFFFFFFFFFFFFFFFFFFFFFFFFFFFF MUL NOT AND SWAP1 DUP4 PUSH20 0xFFFFFFFFFFFFFFFFFFFFFFFFFFFFFFFFFFFFFFFF AND MUL OR SWAP1 SSTORE POP POP JUMP JUMPDEST PUSH2 0x270C DUP4 PUSH2 0x299F JUMP JUMPDEST PUSH1 0x0 DUP3 MLOAD GT DUP1 PUSH2 0x2719 JUMPI POP DUP1 JUMPDEST ISZERO PUSH2 0x272A JUMPI PUSH2 0x2728 DUP4 DUP4 PUSH2 0x29EE JUMP JUMPDEST POP JUMPDEST POP POP POP JUMP JUMPDEST PUSH2 0x2737 PUSH2 0xEA6 JUMP JUMPDEST PUSH2 0x2776 JUMPI PUSH1 0x40 MLOAD PUSH32 0x8C379A000000000000000000000000000000000000000000000000000000000 DUP2 MSTORE PUSH1 0x4 ADD PUSH2 0x276D SWAP1 PUSH2 0x4565 JUMP JUMPDEST PUSH1 0x40 MLOAD DUP1 SWAP2 SUB SWAP1 REVERT JUMPDEST JUMP JUMPDEST PUSH2 0x2780 PUSH2 0x2331 JUMP JUMPDEST PUSH2 0x278B DUP4 DUP4 DUP4 PUSH2 0x2AD2 JUMP JUMPDEST POP POP POP JUMP JUMPDEST POP POP POP JUMP JUMPDEST PUSH1 0x0 PUSH2 0x27A1 PUSH1 0x9A PUSH2 0x2B8A JUMP JUMPDEST SWAP1 POP SWAP1 JUMP JUMPDEST PUSH1 0x0 DUP1 DUP4 DUP1 SLOAD SWAP1 POP SUB PUSH2 0x27BC JUMPI PUSH1 0x0 SWAP1 POP PUSH2 0x2859 JUMP JUMPDEST PUSH1 0x0 DUP1 DUP5 DUP1 SLOAD SWAP1 POP SWAP1 POP JUMPDEST DUP1 DUP3 LT ISZERO PUSH2 0x2810 JUMPI PUSH1 0x0 PUSH2 0x27DB DUP4 DUP4 PUSH2 0x2B98 JUMP JUMPDEST SWAP1 POP DUP5 PUSH2 0x27E8 DUP8 DUP4 PUSH2 0x2BBE JUMP JUMPDEST PUSH1 0x0 ADD SLOAD GT ISZERO PUSH2 0x27FA JUMPI DUP1 SWAP2 POP PUSH2 0x280A JUMP JUMPDEST PUSH1 0x1 DUP2 PUSH2 0x2807 SWAP2 SWAP1 PUSH2 0x35C2 JUMP JUMPDEST SWAP3 POP JUMPDEST POP PUSH2 0x27C7 JUMP JUMPDEST PUSH1 0x0 DUP3 GT DUP1 ISZERO PUSH2 0x2838 JUMPI POP DUP4 PUSH2 0x2832 DUP7 PUSH1 0x1 DUP6 PUSH2 0x282D SWAP2 SWAP1 PUSH2 0x429D JUMP JUMPDEST PUSH2 0x2BBE JUMP JUMPDEST PUSH1 0x0 ADD SLOAD EQ JUMPDEST ISZERO PUSH2 0x2853 JUMPI PUSH1 0x1 DUP3 PUSH2 0x284A SWAP2 SWAP1 PUSH2 0x429D JUMP JUMPDEST SWAP3 POP POP POP PUSH2 0x2859 JUMP JUMPDEST DUP2 SWAP3 POP POP POP JUMPDEST SWAP3 SWAP2 POP POP JUMP JUMPDEST PUSH1 0x0 PUSH1 0x1 SWAP1 SLOAD SWAP1 PUSH2 0x100 EXP SWAP1 DIV PUSH1 0xFF AND PUSH2 0x28AE JUMPI PUSH1 0x40 MLOAD PUSH32 0x8C379A000000000000000000000000000000000000000000000000000000000 DUP2 MSTORE PUSH1 0x4 ADD PUSH2 0x28A5 SWAP1 PUSH2 0x416F JUMP JUMPDEST PUSH1 0x40 MLOAD DUP1 SWAP2 SUB SWAP1 REVERT JUMPDEST DUP2 PUSH1 0x36 SWAP1 DUP2 PUSH2 0x28BD SWAP2 SWAP1 PUSH2 0x4727 JUMP JUMPDEST POP DUP1 PUSH1 0x37 SWAP1 DUP2 PUSH2 0x28CD SWAP2 SWAP1 PUSH2 0x4727 JUMP JUMPDEST POP POP POP JUMP JUMPDEST PUSH1 0x0 PUSH1 0x1 SWAP1 SLOAD SWAP1 PUSH2 0x100 EXP SWAP1 DIV PUSH1 0xFF AND PUSH2 0x2921 JUMPI PUSH1 0x40 MLOAD PUSH32 0x8C379A000000000000000000000000000000000000000000000000000000000 DUP2 MSTORE PUSH1 0x4 ADD PUSH2 0x2918 SWAP1 PUSH2 0x416F JUMP JUMPDEST PUSH1 0x40 MLOAD DUP1 SWAP2 SUB SWAP1 REVERT JUMPDEST PUSH2 0x2931 PUSH2 0x292C PUSH2 0x1570 JUMP JUMPDEST PUSH2 0x1FE3 JUMP JUMPDEST JUMP JUMPDEST PUSH1 0x0 PUSH1 0x1 SWAP1 SLOAD SWAP1 PUSH2 0x100 EXP SWAP1 DIV PUSH1 0xFF AND PUSH2 0x2982 JUMPI PUSH1 0x40 MLOAD PUSH32 0x8C379A000000000000000000000000000000000000000000000000000000000 DUP2 MSTORE PUSH1 0x4 ADD PUSH2 0x2979 SWAP1 PUSH2 0x416F JUMP JUMPDEST PUSH1 0x40 MLOAD DUP1 SWAP2 SUB SWAP1 REVERT JUMPDEST PUSH1 0x0 PUSH1 0xFB PUSH1 0x0 PUSH2 0x100 EXP DUP2 SLOAD DUP2 PUSH1 0xFF MUL NOT AND SWAP1 DUP4 ISZERO ISZERO MUL OR SWAP1 SSTORE POP JUMP JUMPDEST PUSH2 0x29A8 DUP2 PUSH2 0x264A JUMP JUMPDEST DUP1 PUSH20 0xFFFFFFFFFFFFFFFFFFFFFFFFFFFFFFFFFFFFFFFF AND PUSH32 0xBC7CD75A20EE27FD9ADEBAB32041F755214DBC6BFFA90CC0225B39DA2E5C2D3B PUSH1 0x40 MLOAD PUSH1 0x40 MLOAD DUP1 SWAP2 SUB SWAP1 LOG2 POP JUMP JUMPDEST PUSH1 0x60 PUSH2 0x29F9 DUP4 PUSH2 0x20A9 JUMP JUMPDEST PUSH2 0x2A38 JUMPI PUSH1 0x40 MLOAD PUSH32 0x8C379A000000000000000000000000000000000000000000000000000000000 DUP2 MSTORE PUSH1 0x4 ADD PUSH2 0x2A2F SWAP1 PUSH2 0x486B JUMP JUMPDEST PUSH1 0x40 MLOAD DUP1 SWAP2 SUB SWAP1 REVERT JUMPDEST PUSH1 0x0 DUP1 DUP5 PUSH20 0xFFFFFFFFFFFFFFFFFFFFFFFFFFFFFFFFFFFFFFFF AND DUP5 PUSH1 0x40 MLOAD PUSH2 0x2A60 SWAP2 SWAP1 PUSH2 0x48D2 JUMP JUMPDEST PUSH1 0x0 PUSH1 0x40 MLOAD DUP1 DUP4 SUB DUP2 DUP6 GAS DELEGATECALL SWAP2 POP POP RETURNDATASIZE DUP1 PUSH1 0x0 DUP2 EQ PUSH2 0x2A9B JUMPI PUSH1 0x40 MLOAD SWAP2 POP PUSH1 0x1F NOT PUSH1 0x3F RETURNDATASIZE ADD AND DUP3 ADD PUSH1 0x40 MSTORE RETURNDATASIZE DUP3 MSTORE RETURNDATASIZE PUSH1 0x0 PUSH1 0x20 DUP5 ADD RETURNDATACOPY PUSH2 0x2AA0 JUMP JUMPDEST PUSH1 0x60 SWAP2 POP JUMPDEST POP SWAP2 POP SWAP2 POP PUSH2 0x2AC8 DUP3 DUP3 PUSH1 0x40 MLOAD DUP1 PUSH1 0x60 ADD PUSH1 0x40 MSTORE DUP1 PUSH1 0x27 DUP2 MSTORE PUSH1 0x20 ADD PUSH2 0x48EA PUSH1 0x27 SWAP2 CODECOPY PUSH2 0x2BE0 JUMP JUMPDEST SWAP3 POP POP POP SWAP3 SWAP2 POP POP JUMP JUMPDEST PUSH2 0x2ADD DUP4 DUP4 DUP4 PUSH2 0x2C02 JUMP JUMPDEST PUSH1 0x0 PUSH20 0xFFFFFFFFFFFFFFFFFFFFFFFFFFFFFFFFFFFFFFFF AND DUP4 PUSH20 0xFFFFFFFFFFFFFFFFFFFFFFFFFFFFFFFFFFFFFFFF AND SUB PUSH2 0x2B27 JUMPI PUSH2 0x2B1A DUP3 PUSH2 0x2C07 JUMP JUMPDEST PUSH2 0x2B22 PUSH2 0x2C5A JUMP JUMPDEST PUSH2 0x2B85 JUMP JUMPDEST PUSH1 0x0 PUSH20 0xFFFFFFFFFFFFFFFFFFFFFFFFFFFFFFFFFFFFFFFF AND DUP3 PUSH20 0xFFFFFFFFFFFFFFFFFFFFFFFFFFFFFFFFFFFFFFFF AND SUB PUSH2 0x2B71 JUMPI PUSH2 0x2B64 DUP4 PUSH2 0x2C07 JUMP JUMPDEST PUSH2 0x2B6C PUSH2 0x2C5A JUMP JUMPDEST PUSH2 0x2B84 JUMP JUMPDEST PUSH2 0x2B7A DUP4 PUSH2 0x2C07 JUMP JUMPDEST PUSH2 0x2B83 DUP3 PUSH2 0x2C07 JUMP JUMPDEST JUMPDEST JUMPDEST POP POP POP JUMP JUMPDEST PUSH1 0x0 DUP2 PUSH1 0x0 ADD SLOAD SWAP1 POP SWAP2 SWAP1 POP JUMP JUMPDEST PUSH1 0x0 PUSH1 0x2 DUP3 DUP5 XOR PUSH2 0x2BA9 SWAP2 SWAP1 PUSH2 0x426C JUMP JUMPDEST DUP3 DUP5 AND PUSH2 0x2BB6 SWAP2 SWAP1 PUSH2 0x35C2 JUMP JUMPDEST SWAP1 POP SWAP3 SWAP2 POP POP JUMP JUMPDEST PUSH1 0x0 DUP1 DUP4 PUSH1 0x0 MSTORE DUP3 PUSH1 0x20 PUSH1 0x0 KECCAK256 ADD SWAP1 POP PUSH2 0x2BD7 DUP2 PUSH2 0x2C6E JUMP JUMPDEST SWAP2 POP POP SWAP3 SWAP2 POP POP JUMP JUMPDEST PUSH1 0x60 DUP4 ISZERO PUSH2 0x2BF0 JUMPI DUP3 SWAP1 POP PUSH2 0x2BFB JUMP JUMPDEST PUSH2 0x2BFA DUP4 DUP4 PUSH2 0x2C78 JUMP JUMPDEST JUMPDEST SWAP4 SWAP3 POP POP POP JUMP JUMPDEST POP POP POP JUMP JUMPDEST PUSH2 0x2C57 PUSH1 0x97 PUSH1 0x0 DUP4 PUSH20 0xFFFFFFFFFFFFFFFFFFFFFFFFFFFFFFFFFFFFFFFF AND PUSH20 0xFFFFFFFFFFFFFFFFFFFFFFFFFFFFFFFFFFFFFFFF AND DUP2 MSTORE PUSH1 0x20 ADD SWAP1 DUP2 MSTORE PUSH1 0x20 ADD PUSH1 0x0 KECCAK256 PUSH2 0x2C52 DUP4 PUSH2 0xEC4 JUMP JUMPDEST PUSH2 0x2CC8 JUMP JUMPDEST POP JUMP JUMPDEST PUSH2 0x2C6C PUSH1 0x98 PUSH2 0x2C67 PUSH2 0x9AC JUMP JUMPDEST PUSH2 0x2CC8 JUMP JUMPDEST JUMP JUMPDEST PUSH1 0x0 DUP2 SWAP1 POP SWAP2 SWAP1 POP JUMP JUMPDEST PUSH1 0x0 DUP3 MLOAD GT ISZERO PUSH2 0x2C8B JUMPI DUP2 MLOAD DUP1 DUP4 PUSH1 0x20 ADD REVERT JUMPDEST DUP1 PUSH1 0x40 MLOAD PUSH32 0x8C379A000000000000000000000000000000000000000000000000000000000 DUP2 MSTORE PUSH1 0x4 ADD PUSH2 0x2CBF SWAP2 SWAP1 PUSH2 0x2E1F JUMP JUMPDEST PUSH1 0x40 MLOAD DUP1 SWAP2 SUB SWAP1 REVERT JUMPDEST PUSH1 0x0 PUSH2 0x2CD2 PUSH2 0x2795 JUMP JUMPDEST SWAP1 POP DUP1 PUSH2 0x2CE1 DUP5 PUSH1 0x0 ADD PUSH2 0x2D43 JUMP JUMPDEST LT ISZERO PUSH2 0x2D3E JUMPI DUP3 PUSH1 0x0 ADD DUP2 SWAP1 DUP1 PUSH1 0x1 DUP2 SLOAD ADD DUP1 DUP3 SSTORE DUP1 SWAP2 POP POP PUSH1 0x1 SWAP1 SUB SWAP1 PUSH1 0x0 MSTORE PUSH1 0x20 PUSH1 0x0 KECCAK256 ADD PUSH1 0x0 SWAP1 SWAP2 SWAP1 SWAP2 SWAP1 SWAP2 POP SSTORE DUP3 PUSH1 0x1 ADD DUP3 SWAP1 DUP1 PUSH1 0x1 DUP2 SLOAD ADD DUP1 DUP3 SSTORE DUP1 SWAP2 POP POP PUSH1 0x1 SWAP1 SUB SWAP1 PUSH1 0x0 MSTORE PUSH1 0x20 PUSH1 0x0 KECCAK256 ADD PUSH1 0x0 SWAP1 SWAP2 SWAP1 SWAP2 SWAP1 SWAP2 POP SSTORE JUMPDEST POP POP POP JUMP JUMPDEST PUSH1 0x0 DUP1 DUP3 DUP1 SLOAD SWAP1 POP SUB PUSH2 0x2D59 JUMPI PUSH1 0x0 SWAP1 POP PUSH2 0x2D8A JUMP JUMPDEST DUP2 PUSH1 0x1 DUP4 DUP1 SLOAD SWAP1 POP PUSH2 0x2D6B SWAP2 SWAP1 PUSH2 0x429D JUMP JUMPDEST DUP2 SLOAD DUP2 LT PUSH2 0x2D7C JUMPI PUSH2 0x2D7B PUSH2 0x40CE JUMP JUMPDEST JUMPDEST SWAP1 PUSH1 0x0 MSTORE PUSH1 0x20 PUSH1 0x0 KECCAK256 ADD SLOAD SWAP1 POP JUMPDEST SWAP2 SWAP1 POP JUMP JUMPDEST PUSH1 0x0 DUP2 MLOAD SWAP1 POP SWAP2 SWAP1 POP JUMP JUMPDEST PUSH1 0x0 DUP3 DUP3 MSTORE PUSH1 0x20 DUP3 ADD SWAP1 POP SWAP3 SWAP2 POP POP JUMP JUMPDEST PUSH1 0x0 JUMPDEST DUP4 DUP2 LT ISZERO PUSH2 0x2DC9 JUMPI DUP1 DUP3 ADD MLOAD DUP2 DUP5 ADD MSTORE PUSH1 0x20 DUP2 ADD SWAP1 POP PUSH2 0x2DAE JUMP JUMPDEST PUSH1 0x0 DUP5 DUP5 ADD MSTORE POP POP POP POP JUMP JUMPDEST PUSH1 0x0 PUSH1 0x1F NOT PUSH1 0x1F DUP4 ADD AND SWAP1 POP SWAP2 SWAP1 POP JUMP JUMPDEST PUSH1 0x0 PUSH2 0x2DF1 DUP3 PUSH2 0x2D8F JUMP JUMPDEST PUSH2 0x2DFB DUP2 DUP6 PUSH2 0x2D9A JUMP JUMPDEST SWAP4 POP PUSH2 0x2E0B DUP2 DUP6 PUSH1 0x20 DUP7 ADD PUSH2 0x2DAB JUMP JUMPDEST PUSH2 0x2E14 DUP2 PUSH2 0x2DD5 JUMP JUMPDEST DUP5 ADD SWAP2 POP POP SWAP3 SWAP2 POP POP JUMP JUMPDEST PUSH1 0x0 PUSH1 0x20 DUP3 ADD SWAP1 POP DUP2 DUP2 SUB PUSH1 0x0 DUP4 ADD MSTORE PUSH2 0x2E39 DUP2 DUP5 PUSH2 0x2DE6 JUMP JUMPDEST SWAP1 POP SWAP3 SWAP2 POP POP JUMP JUMPDEST PUSH1 0x0 PUSH1 0x40 MLOAD SWAP1 POP SWAP1 JUMP JUMPDEST PUSH1 0x0 DUP1 REVERT JUMPDEST PUSH1 0x0 DUP1 REVERT JUMPDEST PUSH1 0x0 PUSH20 0xFFFFFFFFFFFFFFFFFFFFFFFFFFFFFFFFFFFFFFFF DUP3 AND SWAP1 POP SWAP2 SWAP1 POP JUMP JUMPDEST PUSH1 0x0 PUSH2 0x2E80 DUP3 PUSH2 0x2E55 JUMP JUMPDEST SWAP1 POP SWAP2 SWAP1 POP JUMP JUMPDEST PUSH2 0x2E90 DUP2 PUSH2 0x2E75 JUMP JUMPDEST DUP2 EQ PUSH2 0x2E9B JUMPI PUSH1 0x0 DUP1 REVERT JUMPDEST POP JUMP JUMPDEST PUSH1 0x0 DUP2 CALLDATALOAD SWAP1 POP PUSH2 0x2EAD DUP2 PUSH2 0x2E87 JUMP JUMPDEST SWAP3 SWAP2 POP POP JUMP JUMPDEST PUSH1 0x0 DUP2 SWAP1 POP SWAP2 SWAP1 POP JUMP JUMPDEST PUSH2 0x2EC6 DUP2 PUSH2 0x2EB3 JUMP JUMPDEST DUP2 EQ PUSH2 0x2ED1 JUMPI PUSH1 0x0 DUP1 REVERT JUMPDEST POP JUMP JUMPDEST PUSH1 0x0 DUP2 CALLDATALOAD SWAP1 POP PUSH2 0x2EE3 DUP2 PUSH2 0x2EBD JUMP JUMPDEST SWAP3 SWAP2 POP POP JUMP JUMPDEST PUSH1 0x0 DUP1 PUSH1 0x40 DUP4 DUP6 SUB SLT ISZERO PUSH2 0x2F00 JUMPI PUSH2 0x2EFF PUSH2 0x2E4B JUMP JUMPDEST JUMPDEST PUSH1 0x0 PUSH2 0x2F0E DUP6 DUP3 DUP7 ADD PUSH2 0x2E9E JUMP JUMPDEST SWAP3 POP POP PUSH1 0x20 PUSH2 0x2F1F DUP6 DUP3 DUP7 ADD PUSH2 0x2ED4 JUMP JUMPDEST SWAP2 POP POP SWAP3 POP SWAP3 SWAP1 POP JUMP JUMPDEST PUSH1 0x0 DUP2 ISZERO ISZERO SWAP1 POP SWAP2 SWAP1 POP JUMP JUMPDEST PUSH2 0x2F3E DUP2 PUSH2 0x2F29 JUMP JUMPDEST DUP3 MSTORE POP POP JUMP JUMPDEST PUSH1 0x0 PUSH1 0x20 DUP3 ADD SWAP1 POP PUSH2 0x2F59 PUSH1 0x0 DUP4 ADD DUP5 PUSH2 0x2F35 JUMP JUMPDEST SWAP3 SWAP2 POP POP JUMP JUMPDEST PUSH1 0x0 PUSH1 0x20 DUP3 DUP5 SUB SLT ISZERO PUSH2 0x2F75 JUMPI PUSH2 0x2F74 PUSH2 0x2E4B JUMP JUMPDEST JUMPDEST PUSH1 0x0 PUSH2 0x2F83 DUP5 DUP3 DUP6 ADD PUSH2 0x2E9E JUMP JUMPDEST SWAP2 POP POP SWAP3 SWAP2 POP POP JUMP JUMPDEST PUSH1 0x0 DUP2 SWAP1 POP SWAP2 SWAP1 POP JUMP JUMPDEST PUSH1 0x0 PUSH2 0x2FB1 PUSH2 0x2FAC PUSH2 0x2FA7 DUP5 PUSH2 0x2E55 JUMP JUMPDEST PUSH2 0x2F8C JUMP JUMPDEST PUSH2 0x2E55 JUMP JUMPDEST SWAP1 POP SWAP2 SWAP1 POP JUMP JUMPDEST PUSH1 0x0 PUSH2 0x2FC3 DUP3 PUSH2 0x2F96 JUMP JUMPDEST SWAP1 POP SWAP2 SWAP1 POP JUMP JUMPDEST PUSH1 0x0 PUSH2 0x2FD5 DUP3 PUSH2 0x2FB8 JUMP JUMPDEST SWAP1 POP SWAP2 SWAP1 POP JUMP JUMPDEST PUSH2 0x2FE5 DUP2 PUSH2 0x2FCA JUMP JUMPDEST DUP3 MSTORE POP POP JUMP JUMPDEST PUSH1 0x0 PUSH1 0x20 DUP3 ADD SWAP1 POP PUSH2 0x3000 PUSH1 0x0 DUP4 ADD DUP5 PUSH2 0x2FDC JUMP JUMPDEST SWAP3 SWAP2 POP POP JUMP JUMPDEST PUSH2 0x300F DUP2 PUSH2 0x2EB3 JUMP JUMPDEST DUP3 MSTORE POP POP JUMP JUMPDEST PUSH1 0x0 PUSH1 0x20 DUP3 ADD SWAP1 POP PUSH2 0x302A PUSH1 0x0 DUP4 ADD DUP5 PUSH2 0x3006 JUMP JUMPDEST SWAP3 SWAP2 POP POP JUMP JUMPDEST PUSH1 0x0 PUSH1 0x20 DUP3 DUP5 SUB SLT ISZERO PUSH2 0x3046 JUMPI PUSH2 0x3045 PUSH2 0x2E4B JUMP JUMPDEST JUMPDEST PUSH1 0x0 PUSH2 0x3054 DUP5 DUP3 DUP6 ADD PUSH2 0x2ED4 JUMP JUMPDEST SWAP2 POP POP SWAP3 SWAP2 POP POP JUMP JUMPDEST PUSH1 0x0 DUP1 PUSH1 0x0 PUSH1 0x60 DUP5 DUP7 SUB SLT ISZERO PUSH2 0x3076 JUMPI PUSH2 0x3075 PUSH2 0x2E4B JUMP JUMPDEST JUMPDEST PUSH1 0x0 PUSH2 0x3084 DUP7 DUP3 DUP8 ADD PUSH2 0x2E9E JUMP JUMPDEST SWAP4 POP POP PUSH1 0x20 PUSH2 0x3095 DUP7 DUP3 DUP8 ADD PUSH2 0x2E9E JUMP JUMPDEST SWAP3 POP POP PUSH1 0x40 PUSH2 0x30A6 DUP7 DUP3 DUP8 ADD PUSH2 0x2ED4 JUMP JUMPDEST SWAP2 POP POP SWAP3 POP SWAP3 POP SWAP3 JUMP JUMPDEST PUSH1 0x0 PUSH1 0xFF DUP3 AND SWAP1 POP SWAP2 SWAP1 POP JUMP JUMPDEST PUSH2 0x30C6 DUP2 PUSH2 0x30B0 JUMP JUMPDEST DUP3 MSTORE POP POP JUMP JUMPDEST PUSH1 0x0 PUSH1 0x20 DUP3 ADD SWAP1 POP PUSH2 0x30E1 PUSH1 0x0 DUP4 ADD DUP5 PUSH2 0x30BD JUMP JUMPDEST SWAP3 SWAP2 POP POP JUMP JUMPDEST PUSH1 0x0 DUP1 REVERT JUMPDEST PUSH1 0x0 DUP1 REVERT JUMPDEST PUSH32 0x4E487B7100000000000000000000000000000000000000000000000000000000 PUSH1 0x0 MSTORE PUSH1 0x41 PUSH1 0x4 MSTORE PUSH1 0x24 PUSH1 0x0 REVERT JUMPDEST PUSH2 0x3129 DUP3 PUSH2 0x2DD5 JUMP JUMPDEST DUP2 ADD DUP2 DUP2 LT PUSH8 0xFFFFFFFFFFFFFFFF DUP3 GT OR ISZERO PUSH2 0x3148 JUMPI PUSH2 0x3147 PUSH2 0x30F1 JUMP JUMPDEST JUMPDEST DUP1 PUSH1 0x40 MSTORE POP POP POP JUMP JUMPDEST PUSH1 0x0 PUSH2 0x315B PUSH2 0x2E41 JUMP JUMPDEST SWAP1 POP PUSH2 0x3167 DUP3 DUP3 PUSH2 0x3120 JUMP JUMPDEST SWAP2 SWAP1 POP JUMP JUMPDEST PUSH1 0x0 PUSH8 0xFFFFFFFFFFFFFFFF DUP3 GT ISZERO PUSH2 0x3187 JUMPI PUSH2 0x3186 PUSH2 0x30F1 JUMP JUMPDEST JUMPDEST PUSH2 0x3190 DUP3 PUSH2 0x2DD5 JUMP JUMPDEST SWAP1 POP PUSH1 0x20 DUP2 ADD SWAP1 POP SWAP2 SWAP1 POP JUMP JUMPDEST DUP3 DUP2 DUP4 CALLDATACOPY PUSH1 0x0 DUP4 DUP4 ADD MSTORE POP POP POP JUMP JUMPDEST PUSH1 0x0 PUSH2 0x31BF PUSH2 0x31BA DUP5 PUSH2 0x316C JUMP JUMPDEST PUSH2 0x3151 JUMP JUMPDEST SWAP1 POP DUP3 DUP2 MSTORE PUSH1 0x20 DUP2 ADD DUP5 DUP5 DUP5 ADD GT ISZERO PUSH2 0x31DB JUMPI PUSH2 0x31DA PUSH2 0x30EC JUMP JUMPDEST JUMPDEST PUSH2 0x31E6 DUP5 DUP3 DUP6 PUSH2 0x319D JUMP JUMPDEST POP SWAP4 SWAP3 POP POP POP JUMP JUMPDEST PUSH1 0x0 DUP3 PUSH1 0x1F DUP4 ADD SLT PUSH2 0x3203 JUMPI PUSH2 0x3202 PUSH2 0x30E7 JUMP JUMPDEST JUMPDEST DUP2 CALLDATALOAD PUSH2 0x3213 DUP5 DUP3 PUSH1 0x20 DUP7 ADD PUSH2 0x31AC JUMP JUMPDEST SWAP2 POP POP SWAP3 SWAP2 POP POP JUMP JUMPDEST PUSH1 0x0 DUP1 PUSH1 0x40 DUP4 DUP6 SUB SLT ISZERO PUSH2 0x3233 JUMPI PUSH2 0x3232 PUSH2 0x2E4B JUMP JUMPDEST JUMPDEST PUSH1 0x0 PUSH2 0x3241 DUP6 DUP3 DUP7 ADD PUSH2 0x2E9E JUMP JUMPDEST SWAP3 POP POP PUSH1 0x20 DUP4 ADD CALLDATALOAD PUSH8 0xFFFFFFFFFFFFFFFF DUP2 GT ISZERO PUSH2 0x3262 JUMPI PUSH2 0x3261 PUSH2 0x2E50 JUMP JUMPDEST JUMPDEST PUSH2 0x326E DUP6 DUP3 DUP7 ADD PUSH2 0x31EE JUMP JUMPDEST SWAP2 POP POP SWAP3 POP SWAP3 SWAP1 POP JUMP JUMPDEST PUSH1 0x0 DUP2 SWAP1 POP SWAP2 SWAP1 POP JUMP JUMPDEST PUSH2 0x328B DUP2 PUSH2 0x3278 JUMP JUMPDEST DUP3 MSTORE POP POP JUMP JUMPDEST PUSH1 0x0 PUSH1 0x20 DUP3 ADD SWAP1 POP PUSH2 0x32A6 PUSH1 0x0 DUP4 ADD DUP5 PUSH2 0x3282 JUMP JUMPDEST SWAP3 SWAP2 POP POP JUMP JUMPDEST PUSH2 0x32B5 DUP2 PUSH2 0x2E75 JUMP JUMPDEST DUP3 MSTORE POP POP JUMP JUMPDEST PUSH1 0x0 PUSH1 0x20 DUP3 ADD SWAP1 POP PUSH2 0x32D0 PUSH1 0x0 DUP4 ADD DUP5 PUSH2 0x32AC JUMP JUMPDEST SWAP3 SWAP2 POP POP JUMP JUMPDEST PUSH1 0x0 DUP1 PUSH1 0x40 DUP4 DUP6 SUB SLT ISZERO PUSH2 0x32ED JUMPI PUSH2 0x32EC PUSH2 0x2E4B JUMP JUMPDEST JUMPDEST PUSH1 0x0 PUSH2 0x32FB DUP6 DUP3 DUP7 ADD PUSH2 0x2E9E JUMP JUMPDEST SWAP3 POP POP PUSH1 0x20 PUSH2 0x330C DUP6 DUP3 DUP7 ADD PUSH2 0x2E9E JUMP JUMPDEST SWAP2 POP POP SWAP3 POP SWAP3 SWAP1 POP JUMP JUMPDEST PUSH1 0x0 DUP1 PUSH1 0x0 DUP1 PUSH1 0x0 DUP1 PUSH1 0xC0 DUP8 DUP10 SUB SLT ISZERO PUSH2 0x3333 JUMPI PUSH2 0x3332 PUSH2 0x2E4B JUMP JUMPDEST JUMPDEST PUSH1 0x0 PUSH2 0x3341 DUP10 DUP3 DUP11 ADD PUSH2 0x2ED4 JUMP JUMPDEST SWAP7 POP POP PUSH1 0x20 PUSH2 0x3352 DUP10 DUP3 DUP11 ADD PUSH2 0x2ED4 JUMP JUMPDEST SWAP6 POP POP PUSH1 0x40 PUSH2 0x3363 DUP10 DUP3 DUP11 ADD PUSH2 0x2ED4 JUMP JUMPDEST SWAP5 POP POP PUSH1 0x60 PUSH2 0x3374 DUP10 DUP3 DUP11 ADD PUSH2 0x2ED4 JUMP JUMPDEST SWAP4 POP POP PUSH1 0x80 PUSH2 0x3385 DUP10 DUP3 DUP11 ADD PUSH2 0x2E9E JUMP JUMPDEST SWAP3 POP POP PUSH1 0xA0 PUSH2 0x3396 DUP10 DUP3 DUP11 ADD PUSH2 0x2ED4 JUMP JUMPDEST SWAP2 POP POP SWAP3 SWAP6 POP SWAP3 SWAP6 POP SWAP3 SWAP6 JUMP JUMPDEST PUSH32 0x4E487B7100000000000000000000000000000000000000000000000000000000 PUSH1 0x0 MSTORE PUSH1 0x22 PUSH1 0x4 MSTORE PUSH1 0x24 PUSH1 0x0 REVERT JUMPDEST PUSH1 0x0 PUSH1 0x2 DUP3 DIV SWAP1 POP PUSH1 0x1 DUP3 AND DUP1 PUSH2 0x33EA JUMPI PUSH1 0x7F DUP3 AND SWAP2 POP JUMPDEST PUSH1 0x20 DUP3 LT DUP2 SUB PUSH2 0x33FD JUMPI PUSH2 0x33FC PUSH2 0x33A3 JUMP JUMPDEST JUMPDEST POP SWAP2 SWAP1 POP JUMP JUMPDEST PUSH32 0x43686164506570653A204275726E207261746520746F6F206869676800000000 PUSH1 0x0 DUP3 ADD MSTORE POP JUMP JUMPDEST PUSH1 0x0 PUSH2 0x3439 PUSH1 0x1C DUP4 PUSH2 0x2D9A JUMP JUMPDEST SWAP2 POP PUSH2 0x3444 DUP3 PUSH2 0x3403 JUMP JUMPDEST PUSH1 0x20 DUP3 ADD SWAP1 POP SWAP2 SWAP1 POP JUMP JUMPDEST PUSH1 0x0 PUSH1 0x20 DUP3 ADD SWAP1 POP DUP2 DUP2 SUB PUSH1 0x0 DUP4 ADD MSTORE PUSH2 0x3468 DUP2 PUSH2 0x342C JUMP JUMPDEST SWAP1 POP SWAP2 SWAP1 POP JUMP JUMPDEST PUSH32 0x46756E6374696F6E206D7573742062652063616C6C6564207468726F75676820 PUSH1 0x0 DUP3 ADD MSTORE PUSH32 0x64656C656761746563616C6C0000000000000000000000000000000000000000 PUSH1 0x20 DUP3 ADD MSTORE POP JUMP JUMPDEST PUSH1 0x0 PUSH2 0x34CB PUSH1 0x2C DUP4 PUSH2 0x2D9A JUMP JUMPDEST SWAP2 POP PUSH2 0x34D6 DUP3 PUSH2 0x346F JUMP JUMPDEST PUSH1 0x40 DUP3 ADD SWAP1 POP SWAP2 SWAP1 POP JUMP JUMPDEST PUSH1 0x0 PUSH1 0x20 DUP3 ADD SWAP1 POP DUP2 DUP2 SUB PUSH1 0x0 DUP4 ADD MSTORE PUSH2 0x34FA DUP2 PUSH2 0x34BE JUMP JUMPDEST SWAP1 POP SWAP2 SWAP1 POP JUMP JUMPDEST PUSH32 0x46756E6374696F6E206D7573742062652063616C6C6564207468726F75676820 PUSH1 0x0 DUP3 ADD MSTORE PUSH32 0x6163746976652070726F78790000000000000000000000000000000000000000 PUSH1 0x20 DUP3 ADD MSTORE POP JUMP JUMPDEST PUSH1 0x0 PUSH2 0x355D PUSH1 0x2C DUP4 PUSH2 0x2D9A JUMP JUMPDEST SWAP2 POP PUSH2 0x3568 DUP3 PUSH2 0x3501 JUMP JUMPDEST PUSH1 0x40 DUP3 ADD SWAP1 POP SWAP2 SWAP1 POP JUMP JUMPDEST PUSH1 0x0 PUSH1 0x20 DUP3 ADD SWAP1 POP DUP2 DUP2 SUB PUSH1 0x0 DUP4 ADD MSTORE PUSH2 0x358C DUP2 PUSH2 0x3550 JUMP JUMPDEST SWAP1 POP SWAP2 SWAP1 POP JUMP JUMPDEST PUSH32 0x4E487B7100000000000000000000000000000000000000000000000000000000 PUSH1 0x0 MSTORE PUSH1 0x11 PUSH1 0x4 MSTORE PUSH1 0x24 PUSH1 0x0 REVERT JUMPDEST PUSH1 0x0 PUSH2 0x35CD DUP3 PUSH2 0x2EB3 JUMP JUMPDEST SWAP2 POP PUSH2 0x35D8 DUP4 PUSH2 0x2EB3 JUMP JUMPDEST SWAP3 POP DUP3 DUP3 ADD SWAP1 POP DUP1 DUP3 GT ISZERO PUSH2 0x35F0 JUMPI PUSH2 0x35EF PUSH2 0x3593 JUMP JUMPDEST JUMPDEST SWAP3 SWAP2 POP POP JUMP JUMPDEST PUSH32 0x555550535570677261646561626C653A206D757374206E6F742062652063616C PUSH1 0x0 DUP3 ADD MSTORE PUSH32 0x6C6564207468726F7567682064656C656761746563616C6C0000000000000000 PUSH1 0x20 DUP3 ADD MSTORE POP JUMP JUMPDEST PUSH1 0x0 PUSH2 0x3652 PUSH1 0x38 DUP4 PUSH2 0x2D9A JUMP JUMPDEST SWAP2 POP PUSH2 0x365D DUP3 PUSH2 0x35F6 JUMP JUMPDEST PUSH1 0x40 DUP3 ADD SWAP1 POP SWAP2 SWAP1 POP JUMP JUMPDEST PUSH1 0x0 PUSH1 0x20 DUP3 ADD SWAP1 POP DUP2 DUP2 SUB PUSH1 0x0 DUP4 ADD MSTORE PUSH2 0x3681 DUP2 PUSH2 0x3645 JUMP JUMPDEST SWAP1 POP SWAP2 SWAP1 POP JUMP JUMPDEST PUSH32 0x496E697469616C697A61626C653A20636F6E747261637420697320616C726561 PUSH1 0x0 DUP3 ADD MSTORE PUSH32 0x647920696E697469616C697A6564000000000000000000000000000000000000 PUSH1 0x20 DUP3 ADD MSTORE POP JUMP JUMPDEST PUSH1 0x0 PUSH2 0x36E4 PUSH1 0x2E DUP4 PUSH2 0x2D9A JUMP JUMPDEST SWAP2 POP PUSH2 0x36EF DUP3 PUSH2 0x3688 JUMP JUMPDEST PUSH1 0x40 DUP3 ADD SWAP1 POP SWAP2 SWAP1 POP JUMP JUMPDEST PUSH1 0x0 PUSH1 0x20 DUP3 ADD SWAP1 POP DUP2 DUP2 SUB PUSH1 0x0 DUP4 ADD MSTORE PUSH2 0x3713 DUP2 PUSH2 0x36D7 JUMP JUMPDEST SWAP1 POP SWAP2 SWAP1 POP JUMP JUMPDEST PUSH1 0x0 DUP2 SWAP1 POP SWAP2 SWAP1 POP JUMP JUMPDEST PUSH1 0x0 PUSH2 0x373F PUSH2 0x373A PUSH2 0x3735 DUP5 PUSH2 0x371A JUMP JUMPDEST PUSH2 0x2F8C JUMP JUMPDEST PUSH2 0x30B0 JUMP JUMPDEST SWAP1 POP SWAP2 SWAP1 POP JUMP JUMPDEST PUSH2 0x374F DUP2 PUSH2 0x3724 JUMP JUMPDEST DUP3 MSTORE POP POP JUMP JUMPDEST PUSH1 0x0 PUSH1 0x20 DUP3 ADD SWAP1 POP PUSH2 0x376A PUSH1 0x0 DUP4 ADD DUP5 PUSH2 0x3746 JUMP JUMPDEST SWAP3 SWAP2 POP POP JUMP JUMPDEST PUSH32 0x45524332303A2064656372656173656420616C6C6F77616E63652062656C6F77 PUSH1 0x0 DUP3 ADD MSTORE PUSH32 0x207A65726F000000000000000000000000000000000000000000000000000000 PUSH1 0x20 DUP3 ADD MSTORE POP JUMP JUMPDEST PUSH1 0x0 PUSH2 0x37CC PUSH1 0x25 DUP4 PUSH2 0x2D9A JUMP JUMPDEST SWAP2 POP PUSH2 0x37D7 DUP3 PUSH2 0x3770 JUMP JUMPDEST PUSH1 0x40 DUP3 ADD SWAP1 POP SWAP2 SWAP1 POP JUMP JUMPDEST PUSH1 0x0 PUSH1 0x20 DUP3 ADD SWAP1 POP DUP2 DUP2 SUB PUSH1 0x0 DUP4 ADD MSTORE PUSH2 0x37FB DUP2 PUSH2 0x37BF JUMP JUMPDEST SWAP1 POP SWAP2 SWAP1 POP JUMP JUMPDEST PUSH32 0x43686164506570653A20546178207261746520746F6F20686967680000000000 PUSH1 0x0 DUP3 ADD MSTORE POP JUMP JUMPDEST PUSH1 0x0 PUSH2 0x3838 PUSH1 0x1B DUP4 PUSH2 0x2D9A JUMP JUMPDEST SWAP2 POP PUSH2 0x3843 DUP3 PUSH2 0x3802 JUMP JUMPDEST PUSH1 0x20 DUP3 ADD SWAP1 POP SWAP2 SWAP1 POP JUMP JUMPDEST PUSH1 0x0 PUSH1 0x20 DUP3 ADD SWAP1 POP DUP2 DUP2 SUB PUSH1 0x0 DUP4 ADD MSTORE PUSH2 0x3867 DUP2 PUSH2 0x382B JUMP JUMPDEST SWAP1 POP SWAP2 SWAP1 POP JUMP JUMPDEST PUSH1 0x0 PUSH1 0xC0 DUP3 ADD SWAP1 POP PUSH2 0x3883 PUSH1 0x0 DUP4 ADD DUP10 PUSH2 0x32AC JUMP JUMPDEST PUSH2 0x3890 PUSH1 0x20 DUP4 ADD DUP9 PUSH2 0x3006 JUMP JUMPDEST PUSH2 0x389D PUSH1 0x40 DUP4 ADD DUP8 PUSH2 0x3006 JUMP JUMPDEST PUSH2 0x38AA PUSH1 0x60 DUP4 ADD DUP7 PUSH2 0x3006 JUMP JUMPDEST PUSH2 0x38B7 PUSH1 0x80 DUP4 ADD DUP6 PUSH2 0x32AC JUMP JUMPDEST PUSH2 0x38C4 PUSH1 0xA0 DUP4 ADD DUP5 PUSH2 0x3006 JUMP JUMPDEST SWAP8 SWAP7 POP POP POP POP POP POP POP JUMP JUMPDEST PUSH1 0x0 DUP2 MLOAD SWAP1 POP PUSH2 0x38DE DUP2 PUSH2 0x2EBD JUMP JUMPDEST SWAP3 SWAP2 POP POP JUMP JUMPDEST PUSH1 0x0 DUP1 PUSH1 0x0 PUSH1 0x60 DUP5 DUP7 SUB SLT ISZERO PUSH2 0x38FD JUMPI PUSH2 0x38FC PUSH2 0x2E4B JUMP JUMPDEST JUMPDEST PUSH1 0x0 PUSH2 0x390B DUP7 DUP3 DUP8 ADD PUSH2 0x38CF JUMP JUMPDEST SWAP4 POP POP PUSH1 0x20 PUSH2 0x391C DUP7 DUP3 DUP8 ADD PUSH2 0x38CF JUMP JUMPDEST SWAP3 POP POP PUSH1 0x40 PUSH2 0x392D DUP7 DUP3 DUP8 ADD PUSH2 0x38CF JUMP JUMPDEST SWAP2 POP POP SWAP3 POP SWAP3 POP SWAP3 JUMP JUMPDEST PUSH32 0x4F776E61626C653A206E6577206F776E657220697320746865207A65726F2061 PUSH1 0x0 DUP3 ADD MSTORE PUSH32 0x6464726573730000000000000000000000000000000000000000000000000000 PUSH1 0x20 DUP3 ADD MSTORE POP JUMP JUMPDEST PUSH1 0x0 PUSH2 0x3993 PUSH1 0x26 DUP4 PUSH2 0x2D9A JUMP JUMPDEST SWAP2 POP PUSH2 0x399E DUP3 PUSH2 0x3937 JUMP JUMPDEST PUSH1 0x40 DUP3 ADD SWAP1 POP SWAP2 SWAP1 POP JUMP JUMPDEST PUSH1 0x0 PUSH1 0x20 DUP3 ADD SWAP1 POP DUP2 DUP2 SUB PUSH1 0x0 DUP4 ADD MSTORE PUSH2 0x39C2 DUP2 PUSH2 0x3986 JUMP JUMPDEST SWAP1 POP SWAP2 SWAP1 POP JUMP JUMPDEST PUSH32 0x45524332303A20617070726F76652066726F6D20746865207A65726F20616464 PUSH1 0x0 DUP3 ADD MSTORE PUSH32 0x7265737300000000000000000000000000000000000000000000000000000000 PUSH1 0x20 DUP3 ADD MSTORE POP JUMP JUMPDEST PUSH1 0x0 PUSH2 0x3A25 PUSH1 0x24 DUP4 PUSH2 0x2D9A JUMP JUMPDEST SWAP2 POP PUSH2 0x3A30 DUP3 PUSH2 0x39C9 JUMP JUMPDEST PUSH1 0x40 DUP3 ADD SWAP1 POP SWAP2 SWAP1 POP JUMP JUMPDEST PUSH1 0x0 PUSH1 0x20 DUP3 ADD SWAP1 POP DUP2 DUP2 SUB PUSH1 0x0 DUP4 ADD MSTORE PUSH2 0x3A54 DUP2 PUSH2 0x3A18 JUMP JUMPDEST SWAP1 POP SWAP2 SWAP1 POP JUMP JUMPDEST PUSH32 0x45524332303A20617070726F766520746F20746865207A65726F206164647265 PUSH1 0x0 DUP3 ADD MSTORE PUSH32 0x7373000000000000000000000000000000000000000000000000000000000000 PUSH1 0x20 DUP3 ADD MSTORE POP JUMP JUMPDEST PUSH1 0x0 PUSH2 0x3AB7 PUSH1 0x22 DUP4 PUSH2 0x2D9A JUMP JUMPDEST SWAP2 POP PUSH2 0x3AC2 DUP3 PUSH2 0x3A5B JUMP JUMPDEST PUSH1 0x40 DUP3 ADD SWAP1 POP SWAP2 SWAP1 POP JUMP JUMPDEST PUSH1 0x0 PUSH1 0x20 DUP3 ADD SWAP1 POP DUP2 DUP2 SUB PUSH1 0x0 DUP4 ADD MSTORE PUSH2 0x3AE6 DUP2 PUSH2 0x3AAA JUMP JUMPDEST SWAP1 POP SWAP2 SWAP1 POP JUMP JUMPDEST PUSH32 0x4F776E61626C653A2063616C6C6572206973206E6F7420746865206F776E6572 PUSH1 0x0 DUP3 ADD MSTORE POP JUMP JUMPDEST PUSH1 0x0 PUSH2 0x3B23 PUSH1 0x20 DUP4 PUSH2 0x2D9A JUMP JUMPDEST SWAP2 POP PUSH2 0x3B2E DUP3 PUSH2 0x3AED JUMP JUMPDEST PUSH1 0x20 DUP3 ADD SWAP1 POP SWAP2 SWAP1 POP JUMP JUMPDEST PUSH1 0x0 PUSH1 0x20 DUP3 ADD SWAP1 POP DUP2 DUP2 SUB PUSH1 0x0 DUP4 ADD MSTORE PUSH2 0x3B52 DUP2 PUSH2 0x3B16 JUMP JUMPDEST SWAP1 POP SWAP2 SWAP1 POP JUMP JUMPDEST PUSH32 0x45524332303A20696E73756666696369656E7420616C6C6F77616E6365000000 PUSH1 0x0 DUP3 ADD MSTORE POP JUMP JUMPDEST PUSH1 0x0 PUSH2 0x3B8F PUSH1 0x1D DUP4 PUSH2 0x2D9A JUMP JUMPDEST SWAP2 POP PUSH2 0x3B9A DUP3 PUSH2 0x3B59 JUMP JUMPDEST PUSH1 0x20 DUP3 ADD SWAP1 POP SWAP2 SWAP1 POP JUMP JUMPDEST PUSH1 0x0 PUSH1 0x20 DUP3 ADD SWAP1 POP DUP2 DUP2 SUB PUSH1 0x0 DUP4 ADD MSTORE PUSH2 0x3BBE DUP2 PUSH2 0x3B82 JUMP JUMPDEST SWAP1 POP SWAP2 SWAP1 POP JUMP JUMPDEST PUSH32 0x43686164506570653A205472616E7366657220616D6F756E7420657863656564 PUSH1 0x0 DUP3 ADD MSTORE PUSH32 0x7320746865206D617820616C6C6F776564000000000000000000000000000000 PUSH1 0x20 DUP3 ADD MSTORE POP JUMP JUMPDEST PUSH1 0x0 PUSH2 0x3C21 PUSH1 0x31 DUP4 PUSH2 0x2D9A JUMP JUMPDEST SWAP2 POP PUSH2 0x3C2C DUP3 PUSH2 0x3BC5 JUMP JUMPDEST PUSH1 0x40 DUP3 ADD SWAP1 POP SWAP2 SWAP1 POP JUMP JUMPDEST PUSH1 0x0 PUSH1 0x20 DUP3 ADD SWAP1 POP DUP2 DUP2 SUB PUSH1 0x0 DUP4 ADD MSTORE PUSH2 0x3C50 DUP2 PUSH2 0x3C14 JUMP JUMPDEST SWAP1 POP SWAP2 SWAP1 POP JUMP JUMPDEST PUSH32 0x43686164506570653A205472616E7366657220616D6F756E742069732062656C PUSH1 0x0 DUP3 ADD MSTORE PUSH32 0x6F7720746865206D696E20616C6C6F7765640000000000000000000000000000 PUSH1 0x20 DUP3 ADD MSTORE POP JUMP JUMPDEST PUSH1 0x0 PUSH2 0x3CB3 PUSH1 0x32 DUP4 PUSH2 0x2D9A JUMP JUMPDEST SWAP2 POP PUSH2 0x3CBE DUP3 PUSH2 0x3C57 JUMP JUMPDEST PUSH1 0x40 DUP3 ADD SWAP1 POP SWAP2 SWAP1 POP JUMP JUMPDEST PUSH1 0x0 PUSH1 0x20 DUP3 ADD SWAP1 POP DUP2 DUP2 SUB PUSH1 0x0 DUP4 ADD MSTORE PUSH2 0x3CE2 DUP2 PUSH2 0x3CA6 JUMP JUMPDEST SWAP1 POP SWAP2 SWAP1 POP JUMP JUMPDEST PUSH2 0x3CF2 DUP2 PUSH2 0x3278 JUMP JUMPDEST DUP2 EQ PUSH2 0x3CFD JUMPI PUSH1 0x0 DUP1 REVERT JUMPDEST POP JUMP JUMPDEST PUSH1 0x0 DUP2 MLOAD SWAP1 POP PUSH2 0x3D0F DUP2 PUSH2 0x3CE9 JUMP JUMPDEST SWAP3 SWAP2 POP POP JUMP JUMPDEST PUSH1 0x0 PUSH1 0x20 DUP3 DUP5 SUB SLT ISZERO PUSH2 0x3D2B JUMPI PUSH2 0x3D2A PUSH2 0x2E4B JUMP JUMPDEST JUMPDEST PUSH1 0x0 PUSH2 0x3D39 DUP5 DUP3 DUP6 ADD PUSH2 0x3D00 JUMP JUMPDEST SWAP2 POP POP SWAP3 SWAP2 POP POP JUMP JUMPDEST PUSH32 0x45524331393637557067726164653A206E657720696D706C656D656E74617469 PUSH1 0x0 DUP3 ADD MSTORE PUSH32 0x6F6E206973206E6F742055555053000000000000000000000000000000000000 PUSH1 0x20 DUP3 ADD MSTORE POP JUMP JUMPDEST PUSH1 0x0 PUSH2 0x3D9E PUSH1 0x2E DUP4 PUSH2 0x2D9A JUMP JUMPDEST SWAP2 POP PUSH2 0x3DA9 DUP3 PUSH2 0x3D42 JUMP JUMPDEST PUSH1 0x40 DUP3 ADD SWAP1 POP SWAP2 SWAP1 POP JUMP JUMPDEST PUSH1 0x0 PUSH1 0x20 DUP3 ADD SWAP1 POP DUP2 DUP2 SUB PUSH1 0x0 DUP4 ADD MSTORE PUSH2 0x3DCD DUP2 PUSH2 0x3D91 JUMP JUMPDEST SWAP1 POP SWAP2 SWAP1 POP JUMP JUMPDEST PUSH32 0x45524331393637557067726164653A20756E737570706F727465642070726F78 PUSH1 0x0 DUP3 ADD MSTORE PUSH32 0x6961626C65555549440000000000000000000000000000000000000000000000 PUSH1 0x20 DUP3 ADD MSTORE POP JUMP JUMPDEST PUSH1 0x0 PUSH2 0x3E30 PUSH1 0x29 DUP4 PUSH2 0x2D9A JUMP JUMPDEST SWAP2 POP PUSH2 0x3E3B DUP3 PUSH2 0x3DD4 JUMP JUMPDEST PUSH1 0x40 DUP3 ADD SWAP1 POP SWAP2 SWAP1 POP JUMP JUMPDEST PUSH1 0x0 PUSH1 0x20 DUP3 ADD SWAP1 POP DUP2 DUP2 SUB PUSH1 0x0 DUP4 ADD MSTORE PUSH2 0x3E5F DUP2 PUSH2 0x3E23 JUMP JUMPDEST SWAP1 POP SWAP2 SWAP1 POP JUMP JUMPDEST PUSH32 0x45524332303A206D696E7420746F20746865207A65726F206164647265737300 PUSH1 0x0 DUP3 ADD MSTORE POP JUMP JUMPDEST PUSH1 0x0 PUSH2 0x3E9C PUSH1 0x1F DUP4 PUSH2 0x2D9A JUMP JUMPDEST SWAP2 POP PUSH2 0x3EA7 DUP3 PUSH2 0x3E66 JUMP JUMPDEST PUSH1 0x20 DUP3 ADD SWAP1 POP SWAP2 SWAP1 POP JUMP JUMPDEST PUSH1 0x0 PUSH1 0x20 DUP3 ADD SWAP1 POP DUP2 DUP2 SUB PUSH1 0x0 DUP4 ADD MSTORE PUSH2 0x3ECB DUP2 PUSH2 0x3E8F JUMP JUMPDEST SWAP1 POP SWAP2 SWAP1 POP JUMP JUMPDEST PUSH32 0x45524332303A206275726E2066726F6D20746865207A65726F20616464726573 PUSH1 0x0 DUP3 ADD MSTORE PUSH32 0x7300000000000000000000000000000000000000000000000000000000000000 PUSH1 0x20 DUP3 ADD MSTORE POP JUMP JUMPDEST PUSH1 0x0 PUSH2 0x3F2E PUSH1 0x21 DUP4 PUSH2 0x2D9A JUMP JUMPDEST SWAP2 POP PUSH2 0x3F39 DUP3 PUSH2 0x3ED2 JUMP JUMPDEST PUSH1 0x40 DUP3 ADD SWAP1 POP SWAP2 SWAP1 POP JUMP JUMPDEST PUSH1 0x0 PUSH1 0x20 DUP3 ADD SWAP1 POP DUP2 DUP2 SUB PUSH1 0x0 DUP4 ADD MSTORE PUSH2 0x3F5D DUP2 PUSH2 0x3F21 JUMP JUMPDEST SWAP1 POP SWAP2 SWAP1 POP JUMP JUMPDEST PUSH32 0x45524332303A206275726E20616D6F756E7420657863656564732062616C616E PUSH1 0x0 DUP3 ADD MSTORE PUSH32 0x6365000000000000000000000000000000000000000000000000000000000000 PUSH1 0x20 DUP3 ADD MSTORE POP JUMP JUMPDEST PUSH1 0x0 PUSH2 0x3FC0 PUSH1 0x22 DUP4 PUSH2 0x2D9A JUMP JUMPDEST SWAP2 POP PUSH2 0x3FCB DUP3 PUSH2 0x3F64 JUMP JUMPDEST PUSH1 0x40 DUP3 ADD SWAP1 POP SWAP2 SWAP1 POP JUMP JUMPDEST PUSH1 0x0 PUSH1 0x20 DUP3 ADD SWAP1 POP DUP2 DUP2 SUB PUSH1 0x0 DUP4 ADD MSTORE PUSH2 0x3FEF DUP2 PUSH2 0x3FB3 JUMP JUMPDEST SWAP1 POP SWAP2 SWAP1 POP JUMP JUMPDEST PUSH32 0x4552433230536E617073686F743A206964206973203000000000000000000000 PUSH1 0x0 DUP3 ADD MSTORE POP JUMP JUMPDEST PUSH1 0x0 PUSH2 0x402C PUSH1 0x16 DUP4 PUSH2 0x2D9A JUMP JUMPDEST SWAP2 POP PUSH2 0x4037 DUP3 PUSH2 0x3FF6 JUMP JUMPDEST PUSH1 0x20 DUP3 ADD SWAP1 POP SWAP2 SWAP1 POP JUMP JUMPDEST PUSH1 0x0 PUSH1 0x20 DUP3 ADD SWAP1 POP DUP2 DUP2 SUB PUSH1 0x0 DUP4 ADD MSTORE PUSH2 0x405B DUP2 PUSH2 0x401F JUMP JUMPDEST SWAP1 POP SWAP2 SWAP1 POP JUMP JUMPDEST PUSH32 0x4552433230536E617073686F743A206E6F6E6578697374656E74206964000000 PUSH1 0x0 DUP3 ADD MSTORE POP JUMP JUMPDEST PUSH1 0x0 PUSH2 0x4098 PUSH1 0x1D DUP4 PUSH2 0x2D9A JUMP JUMPDEST SWAP2 POP PUSH2 0x40A3 DUP3 PUSH2 0x4062 JUMP JUMPDEST PUSH1 0x20 DUP3 ADD SWAP1 POP SWAP2 SWAP1 POP JUMP JUMPDEST PUSH1 0x0 PUSH1 0x20 DUP3 ADD SWAP1 POP DUP2 DUP2 SUB PUSH1 0x0 DUP4 ADD MSTORE PUSH2 0x40C7 DUP2 PUSH2 0x408B JUMP JUMPDEST SWAP1 POP SWAP2 SWAP1 POP JUMP JUMPDEST PUSH32 0x4E487B7100000000000000000000000000000000000000000000000000000000 PUSH1 0x0 MSTORE PUSH1 0x32 PUSH1 0x4 MSTORE PUSH1 0x24 PUSH1 0x0 REVERT JUMPDEST PUSH32 0x496E697469616C697A61626C653A20636F6E7472616374206973206E6F742069 PUSH1 0x0 DUP3 ADD MSTORE PUSH32 0x6E697469616C697A696E67000000000000000000000000000000000000000000 PUSH1 0x20 DUP3 ADD MSTORE POP JUMP JUMPDEST PUSH1 0x0 PUSH2 0x4159 PUSH1 0x2B DUP4 PUSH2 0x2D9A JUMP JUMPDEST SWAP2 POP PUSH2 0x4164 DUP3 PUSH2 0x40FD JUMP JUMPDEST PUSH1 0x40 DUP3 ADD SWAP1 POP SWAP2 SWAP1 POP JUMP JUMPDEST PUSH1 0x0 PUSH1 0x20 DUP3 ADD SWAP1 POP DUP2 DUP2 SUB PUSH1 0x0 DUP4 ADD MSTORE PUSH2 0x4188 DUP2 PUSH2 0x414C JUMP JUMPDEST SWAP1 POP SWAP2 SWAP1 POP JUMP JUMPDEST PUSH32 0x5061757361626C653A2070617573656400000000000000000000000000000000 PUSH1 0x0 DUP3 ADD MSTORE POP JUMP JUMPDEST PUSH1 0x0 PUSH2 0x41C5 PUSH1 0x10 DUP4 PUSH2 0x2D9A JUMP JUMPDEST SWAP2 POP PUSH2 0x41D0 DUP3 PUSH2 0x418F JUMP JUMPDEST PUSH1 0x20 DUP3 ADD SWAP1 POP SWAP2 SWAP1 POP JUMP JUMPDEST PUSH1 0x0 PUSH1 0x20 DUP3 ADD SWAP1 POP DUP2 DUP2 SUB PUSH1 0x0 DUP4 ADD MSTORE PUSH2 0x41F4 DUP2 PUSH2 0x41B8 JUMP JUMPDEST SWAP1 POP SWAP2 SWAP1 POP JUMP JUMPDEST PUSH1 0x0 PUSH2 0x4206 DUP3 PUSH2 0x2EB3 JUMP JUMPDEST SWAP2 POP PUSH2 0x4211 DUP4 PUSH2 0x2EB3 JUMP JUMPDEST SWAP3 POP DUP3 DUP3 MUL PUSH2 0x421F DUP2 PUSH2 0x2EB3 JUMP JUMPDEST SWAP2 POP DUP3 DUP3 DIV DUP5 EQ DUP4 ISZERO OR PUSH2 0x4236 JUMPI PUSH2 0x4235 PUSH2 0x3593 JUMP JUMPDEST JUMPDEST POP SWAP3 SWAP2 POP POP JUMP JUMPDEST PUSH32 0x4E487B7100000000000000000000000000000000000000000000000000000000 PUSH1 0x0 MSTORE PUSH1 0x12 PUSH1 0x4 MSTORE PUSH1 0x24 PUSH1 0x0 REVERT JUMPDEST PUSH1 0x0 PUSH2 0x4277 DUP3 PUSH2 0x2EB3 JUMP JUMPDEST SWAP2 POP PUSH2 0x4282 DUP4 PUSH2 0x2EB3 JUMP JUMPDEST SWAP3 POP DUP3 PUSH2 0x4292 JUMPI PUSH2 0x4291 PUSH2 0x423D JUMP JUMPDEST JUMPDEST DUP3 DUP3 DIV SWAP1 POP SWAP3 SWAP2 POP POP JUMP JUMPDEST PUSH1 0x0 PUSH2 0x42A8 DUP3 PUSH2 0x2EB3 JUMP JUMPDEST SWAP2 POP PUSH2 0x42B3 DUP4 PUSH2 0x2EB3 JUMP JUMPDEST SWAP3 POP DUP3 DUP3 SUB SWAP1 POP DUP2 DUP2 GT ISZERO PUSH2 0x42CB JUMPI PUSH2 0x42CA PUSH2 0x3593 JUMP JUMPDEST JUMPDEST SWAP3 SWAP2 POP POP JUMP JUMPDEST PUSH32 0x45524332303A207472616E736665722066726F6D20746865207A65726F206164 PUSH1 0x0 DUP3 ADD MSTORE PUSH32 0x6472657373000000000000000000000000000000000000000000000000000000 PUSH1 0x20 DUP3 ADD MSTORE POP JUMP JUMPDEST PUSH1 0x0 PUSH2 0x432D PUSH1 0x25 DUP4 PUSH2 0x2D9A JUMP JUMPDEST SWAP2 POP PUSH2 0x4338 DUP3 PUSH2 0x42D1 JUMP JUMPDEST PUSH1 0x40 DUP3 ADD SWAP1 POP SWAP2 SWAP1 POP JUMP JUMPDEST PUSH1 0x0 PUSH1 0x20 DUP3 ADD SWAP1 POP DUP2 DUP2 SUB PUSH1 0x0 DUP4 ADD MSTORE PUSH2 0x435C DUP2 PUSH2 0x4320 JUMP JUMPDEST SWAP1 POP SWAP2 SWAP1 POP JUMP JUMPDEST PUSH32 0x45524332303A207472616E7366657220746F20746865207A65726F2061646472 PUSH1 0x0 DUP3 ADD MSTORE PUSH32 0x6573730000000000000000000000000000000000000000000000000000000000 PUSH1 0x20 DUP3 ADD MSTORE POP JUMP JUMPDEST PUSH1 0x0 PUSH2 0x43BF PUSH1 0x23 DUP4 PUSH2 0x2D9A JUMP JUMPDEST SWAP2 POP PUSH2 0x43CA DUP3 PUSH2 0x4363 JUMP JUMPDEST PUSH1 0x40 DUP3 ADD SWAP1 POP SWAP2 SWAP1 POP JUMP JUMPDEST PUSH1 0x0 PUSH1 0x20 DUP3 ADD SWAP1 POP DUP2 DUP2 SUB PUSH1 0x0 DUP4 ADD MSTORE PUSH2 0x43EE DUP2 PUSH2 0x43B2 JUMP JUMPDEST SWAP1 POP SWAP2 SWAP1 POP JUMP JUMPDEST PUSH32 0x45524332303A207472616E7366657220616D6F756E7420657863656564732062 PUSH1 0x0 DUP3 ADD MSTORE PUSH32 0x616C616E63650000000000000000000000000000000000000000000000000000 PUSH1 0x20 DUP3 ADD MSTORE POP JUMP JUMPDEST PUSH1 0x0 PUSH2 0x4451 PUSH1 0x26 DUP4 PUSH2 0x2D9A JUMP JUMPDEST SWAP2 POP PUSH2 0x445C DUP3 PUSH2 0x43F5 JUMP JUMPDEST PUSH1 0x40 DUP3 ADD SWAP1 POP SWAP2 SWAP1 POP JUMP JUMPDEST PUSH1 0x0 PUSH1 0x20 DUP3 ADD SWAP1 POP DUP2 DUP2 SUB PUSH1 0x0 DUP4 ADD MSTORE PUSH2 0x4480 DUP2 PUSH2 0x4444 JUMP JUMPDEST SWAP1 POP SWAP2 SWAP1 POP JUMP JUMPDEST PUSH32 0x455243313936373A206E657720696D706C656D656E746174696F6E206973206E PUSH1 0x0 DUP3 ADD MSTORE PUSH32 0x6F74206120636F6E747261637400000000000000000000000000000000000000 PUSH1 0x20 DUP3 ADD MSTORE POP JUMP JUMPDEST PUSH1 0x0 PUSH2 0x44E3 PUSH1 0x2D DUP4 PUSH2 0x2D9A JUMP JUMPDEST SWAP2 POP PUSH2 0x44EE DUP3 PUSH2 0x4487 JUMP JUMPDEST PUSH1 0x40 DUP3 ADD SWAP1 POP SWAP2 SWAP1 POP JUMP JUMPDEST PUSH1 0x0 PUSH1 0x20 DUP3 ADD SWAP1 POP DUP2 DUP2 SUB PUSH1 0x0 DUP4 ADD MSTORE PUSH2 0x4512 DUP2 PUSH2 0x44D6 JUMP JUMPDEST SWAP1 POP SWAP2 SWAP1 POP JUMP JUMPDEST PUSH32 0x5061757361626C653A206E6F7420706175736564000000000000000000000000 PUSH1 0x0 DUP3 ADD MSTORE POP JUMP JUMPDEST PUSH1 0x0 PUSH2 0x454F PUSH1 0x14 DUP4 PUSH2 0x2D9A JUMP JUMPDEST SWAP2 POP PUSH2 0x455A DUP3 PUSH2 0x4519 JUMP JUMPDEST PUSH1 0x20 DUP3 ADD SWAP1 POP SWAP2 SWAP1 POP JUMP JUMPDEST PUSH1 0x0 PUSH1 0x20 DUP3 ADD SWAP1 POP DUP2 DUP2 SUB PUSH1 0x0 DUP4 ADD MSTORE PUSH2 0x457E DUP2 PUSH2 0x4542 JUMP JUMPDEST SWAP1 POP SWAP2 SWAP1 POP JUMP JUMPDEST PUSH1 0x0 DUP2 SWAP1 POP DUP2 PUSH1 0x0 MSTORE PUSH1 0x20 PUSH1 0x0 KECCAK256 SWAP1 POP SWAP2 SWAP1 POP JUMP JUMPDEST PUSH1 0x0 PUSH1 0x20 PUSH1 0x1F DUP4 ADD DIV SWAP1 POP SWAP2 SWAP1 POP JUMP JUMPDEST PUSH1 0x0 DUP3 DUP3 SHL SWAP1 POP SWAP3 SWAP2 POP POP JUMP JUMPDEST PUSH1 0x0 PUSH1 0x8 DUP4 MUL PUSH2 0x45E7 PUSH32 0xFFFFFFFFFFFFFFFFFFFFFFFFFFFFFFFFFFFFFFFFFFFFFFFFFFFFFFFFFFFFFFFF DUP3 PUSH2 0x45AA JUMP JUMPDEST PUSH2 0x45F1 DUP7 DUP4 PUSH2 0x45AA JUMP JUMPDEST SWAP6 POP DUP1 NOT DUP5 AND SWAP4 POP DUP1 DUP7 AND DUP5 OR SWAP3 POP POP POP SWAP4 SWAP3 POP POP POP JUMP JUMPDEST PUSH1 0x0 PUSH2 0x4624 PUSH2 0x461F PUSH2 0x461A DUP5 PUSH2 0x2EB3 JUMP JUMPDEST PUSH2 0x2F8C JUMP JUMPDEST PUSH2 0x2EB3 JUMP JUMPDEST SWAP1 POP SWAP2 SWAP1 POP JUMP JUMPDEST PUSH1 0x0 DUP2 SWAP1 POP SWAP2 SWAP1 POP JUMP JUMPDEST PUSH2 0x463E DUP4 PUSH2 0x4609 JUMP JUMPDEST PUSH2 0x4652 PUSH2 0x464A DUP3 PUSH2 0x462B JUMP JUMPDEST DUP5 DUP5 SLOAD PUSH2 0x45B7 JUMP JUMPDEST DUP3 SSTORE POP POP POP POP JUMP JUMPDEST PUSH1 0x0 SWAP1 JUMP JUMPDEST PUSH2 0x4667 PUSH2 0x465A JUMP JUMPDEST PUSH2 0x4672 DUP2 DUP5 DUP5 PUSH2 0x4635 JUMP JUMPDEST POP POP POP JUMP JUMPDEST JUMPDEST DUP2 DUP2 LT ISZERO PUSH2 0x4696 JUMPI PUSH2 0x468B PUSH1 0x0 DUP3 PUSH2 0x465F JUMP JUMPDEST PUSH1 0x1 DUP2 ADD SWAP1 POP PUSH2 0x4678 JUMP JUMPDEST POP POP JUMP JUMPDEST PUSH1 0x1F DUP3 GT ISZERO PUSH2 0x46DB JUMPI PUSH2 0x46AC DUP2 PUSH2 0x4585 JUMP JUMPDEST PUSH2 0x46B5 DUP5 PUSH2 0x459A JUMP JUMPDEST DUP2 ADD PUSH1 0x20 DUP6 LT ISZERO PUSH2 0x46C4 JUMPI DUP2 SWAP1 POP JUMPDEST PUSH2 0x46D8 PUSH2 0x46D0 DUP6 PUSH2 0x459A JUMP JUMPDEST DUP4 ADD DUP3 PUSH2 0x4677 JUMP JUMPDEST POP POP JUMPDEST POP POP POP JUMP JUMPDEST PUSH1 0x0 DUP3 DUP3 SHR SWAP1 POP SWAP3 SWAP2 POP POP JUMP JUMPDEST PUSH1 0x0 PUSH2 0x46FE PUSH1 0x0 NOT DUP5 PUSH1 0x8 MUL PUSH2 0x46E0 JUMP JUMPDEST NOT DUP1 DUP4 AND SWAP2 POP POP SWAP3 SWAP2 POP POP JUMP JUMPDEST PUSH1 0x0 PUSH2 0x4717 DUP4 DUP4 PUSH2 0x46ED JUMP JUMPDEST SWAP2 POP DUP3 PUSH1 0x2 MUL DUP3 OR SWAP1 POP SWAP3 SWAP2 POP POP JUMP JUMPDEST PUSH2 0x4730 DUP3 PUSH2 0x2D8F JUMP JUMPDEST PUSH8 0xFFFFFFFFFFFFFFFF DUP2 GT ISZERO PUSH2 0x4749 JUMPI PUSH2 0x4748 PUSH2 0x30F1 JUMP JUMPDEST JUMPDEST PUSH2 0x4753 DUP3 SLOAD PUSH2 0x33D2 JUMP JUMPDEST PUSH2 0x475E DUP3 DUP3 DUP6 PUSH2 0x469A JUMP JUMPDEST PUSH1 0x0 PUSH1 0x20 SWAP1 POP PUSH1 0x1F DUP4 GT PUSH1 0x1 DUP2 EQ PUSH2 0x4791 JUMPI PUSH1 0x0 DUP5 ISZERO PUSH2 0x477F JUMPI DUP3 DUP8 ADD MLOAD SWAP1 POP JUMPDEST PUSH2 0x4789 DUP6 DUP3 PUSH2 0x470B JUMP JUMPDEST DUP7 SSTORE POP PUSH2 0x47F1 JUMP JUMPDEST PUSH1 0x1F NOT DUP5 AND PUSH2 0x479F DUP7 PUSH2 0x4585 JUMP JUMPDEST PUSH1 0x0 JUMPDEST DUP3 DUP2 LT ISZERO PUSH2 0x47C7 JUMPI DUP5 DUP10 ADD MLOAD DUP3 SSTORE PUSH1 0x1 DUP3 ADD SWAP2 POP PUSH1 0x20 DUP6 ADD SWAP5 POP PUSH1 0x20 DUP2 ADD SWAP1 POP PUSH2 0x47A2 JUMP JUMPDEST DUP7 DUP4 LT ISZERO PUSH2 0x47E4 JUMPI DUP5 DUP10 ADD MLOAD PUSH2 0x47E0 PUSH1 0x1F DUP10 AND DUP3 PUSH2 0x46ED JUMP JUMPDEST DUP4 SSTORE POP JUMPDEST PUSH1 0x1 PUSH1 0x2 DUP9 MUL ADD DUP9 SSTORE POP POP POP JUMPDEST POP POP POP POP POP POP JUMP JUMPDEST PUSH32 0x416464726573733A2064656C65676174652063616C6C20746F206E6F6E2D636F PUSH1 0x0 DUP3 ADD MSTORE PUSH32 0x6E74726163740000000000000000000000000000000000000000000000000000 PUSH1 0x20 DUP3 ADD MSTORE POP JUMP JUMPDEST PUSH1 0x0 PUSH2 0x4855 PUSH1 0x26 DUP4 PUSH2 0x2D9A JUMP JUMPDEST SWAP2 POP PUSH2 0x4860 DUP3 PUSH2 0x47F9 JUMP JUMPDEST PUSH1 0x40 DUP3 ADD SWAP1 POP SWAP2 SWAP1 POP JUMP JUMPDEST PUSH1 0x0 PUSH1 0x20 DUP3 ADD SWAP1 POP DUP2 DUP2 SUB PUSH1 0x0 DUP4 ADD MSTORE PUSH2 0x4884 DUP2 PUSH2 0x4848 JUMP JUMPDEST SWAP1 POP SWAP2 SWAP1 POP JUMP JUMPDEST PUSH1 0x0 DUP2 MLOAD SWAP1 POP SWAP2 SWAP1 POP JUMP JUMPDEST PUSH1 0x0 DUP2 SWAP1 POP SWAP3 SWAP2 POP POP JUMP JUMPDEST PUSH1 0x0 PUSH2 0x48AC DUP3 PUSH2 0x488B JUMP JUMPDEST PUSH2 0x48B6 DUP2 DUP6 PUSH2 0x4896 JUMP JUMPDEST SWAP4 POP PUSH2 0x48C6 DUP2 DUP6 PUSH1 0x20 DUP7 ADD PUSH2 0x2DAB JUMP JUMPDEST DUP1 DUP5 ADD SWAP2 POP POP SWAP3 SWAP2 POP POP JUMP JUMPDEST PUSH1 0x0 PUSH2 0x48DE DUP3 DUP5 PUSH2 0x48A1 JUMP JUMPDEST SWAP2 POP DUP2 SWAP1 POP SWAP3 SWAP2 POP POP JUMP INVALID COINBASE PUSH5 0x6472657373 GASPRICE KECCAK256 PUSH13 0x6F772D6C6576656C2064656C65 PUSH8 0x6174652063616C6C KECCAK256 PUSH7 0x61696C6564A264 PUSH10 0x706673582212209430A4 PUSH10 0x4FB2B9F30CF549B53DF REVERT INVALID PREVRANDAO DUP3 0x26 DUP7 DUP1 0xB4 0xE5 DUP7 0xE6 CALLDATASIZE SMOD 0xC4 DUP10 0xC4 0xB1 PUSH10 0x64736F6C634300081200 CALLER PUSH5 0x6174613A69 PUSH14 0x6167652F7376672B786D6C3B6261 PUSH20 0x6536342C5044393462577767646D567963326C76 PUSH3 0x6A3069 0x4D MSTORE8 CALLVALUE PUSH24 0x4969426C626D4E765A476C755A7A30696458526D4C546769 POP PUSH27 0x344B50484E325A79423261575633516D393450534977494441674E PREVRANDAO COINBASE PUSH24 0x494451774D43496765473173626E4D39496D683064484136 0x4C PUSH26 0x393364336375647A4D7562334A6E4C7A49774D44417663335A6E 0x49 PUSH11 0x344B494341385A7942705A PREVRANDAO ADDRESS PUSH10 0x63335A6E5A79492B4369 COINBASE PUSH8 0x4943413863474630 PUSH2 0x4342 PUSH17 0x5A44306963474630614445694947513949 PUSH12 0x30784F4451754F5463324944 0x4D CALLVALUE 0x4C PUSH11 0x45344E794244494445344E NUMBER CALLVALUE BALANCE 0x4E PREVRANDAO PUSH12 0x674D7A67754E5445774C4445 CALLVALUE 0x4D PUSH26 0x34334D6A63674D7A67754E7A67774C4445344D7934784E446B67 0x4D PUSH27 0x67754E7A673349454D674D5467794C6A55334D53417A4F4334334F SLOAD MLOAD PUSH20 0x4D5467784C6A67334E43417A4F5334774E7A4173 0x4D SLOAD PUSH8 0x784C6A59774D4341 PUSH27 0x4F5334304D444167517941784F4445754D7A493249444D354C6A63 PUSH27 0x4D4377784F4441754F544933494451774C6A41774D4377784F4441 PUSH22 0x4E7A4530494451774C6A41774D434244494445344D43 CALLVALUE BALANCE 0x4D PREVRANDAO GASLIMIT PUSH8 0x4E4441754D444177 0x4C PREVRANDAO GASLIMIT CALLER 0x4F MSTORE8 CALLVALUE CALLVALUE 0x4E PUSH11 0x6B674E4441754D7A59774C PREVRANDAO GASLIMIT CALLER 0x4F MSTORE8 CALLVALUE PUSH27 0x4D446B674E4441754F44417749454D674D5463344C6A63314D4341 ADDRESS 0x4D MSTORE8 CALLVALUE PUSH26 0x4E4441734D5463344C6A51344E6941304D5334324D4441734D54 PUSH4 0x344C6A63 PUSH26 0x4D6941304D5334324D444167517941784E7A67754F5455354944 MLOAD PUSH25 0x4C6A59774D4377784E7A6B754D6A5530494451784C6A517A4E PUSH10 0x77784E7A6B754D7A6335 0x49 PREVRANDAO MLOAD PUSH25 0x4C6A497A4E534244494445334F5334324D4449674E4441754F PREVRANDAO PUSH4 0x7A4C4445 CALLVALUE 0x4D MSTORE8 CALLVALUE ORIGIN 0x4F SLOAD MSIZE PUSH8 0x4D7A6B754F445531 0x4C PREVRANDAO GASLIMIT CALLVALUE 0x4E NUMBER CALLVALUE ADDRESS 0x4D PREVRANDAO COINBASE PUSH8 0x4D7A67754E7A6B7A 0x49 GASLIMIT 0x4D PUSH8 0x4D5467334C6A5131 0x4D PUSH26 0x417A4E7934314F5451734D546B7A4C6A59324D79417A4E793434 0x4D PREVRANDAO COINBASE PUSH20 0x4D546B314C6A67354F43417A4F5334784E7A5567 MLOAD PUSH26 0x41784F5459754F546B7A49444D354C6A67304F5377784F546775 0x4D PREVRANDAO MLOAD CALLDATALOAD 0x49 PREVRANDAO MLOAD PUSH24 0x4C6A51774D4377784F5467754D6A5130494451774C6A5177 0x4D MSTORE8 TIMESTAMP PREVRANDAO 0x49 PREVRANDAO GASLIMIT CALLDATALOAD 0x4F NUMBER CALLVALUE CALLVALUE 0x4E PUSH27 0x63674E4441754E4441794C4449774D5334344E4445674E444D754D PUSH27 0x4D354C4449774D7934314F5445674E4455754E7A417749454D674D PUSH11 0x41314C6A51344D5341304F NUMBER CALLVALUE PUSH26 0x4E5441734D6A41324C6A41794E6941304F4334324E7A45734D6A COINBASE ADDRESS 0x4C PUSH11 0x6B794D7941304E6934334D PUSH11 0x6767517941794D444D754F PREVRANDAO COINBASE CALLER 0x49 PREVRANDAO MLOAD ADDRESS 0x4C PUSH11 0x63324E5377784F546B754D SLOAD PUSH8 0x34494451774C6A41 PUSH24 0x4D4377784F5467754E444178494451774C6A41774D434244 0x49 PREVRANDAO GASLIMIT CALLDATALOAD 0x4F NUMBER CALLVALUE PUSH24 0x4D5451674E4441754D4441774C4445354E7934304E7A5167 0x4D PUSH27 0x6B754E7A4D774C4445354E7934794D4441674D7A6B754E44417749 GASLIMIT 0x4D PUSH8 0x4D546B324C6A6B79 0x4E PUSH10 0x417A4F5334774E7A4173 0x4D SLOAD PUSH12 0x324C6A51334E69417A4F4334 CALLVALUE 0x4D PREVRANDAO COINBASE PUSH20 0x4D546B324C6A49774D43417A4F4334344D444167 MLOAD PUSH26 0x41784F5455754F54493049444D344C6A67774D4377784F545575 0x4E PREVRANDAO PUSH4 0x3049444D CALLVALUE 0x4C PUSH11 0x557A4D4377784F5455754D PUSH11 0x417749444D344C6A49774D NUMBER TIMESTAMP PREVRANDAO 0x49 PREVRANDAO GASLIMIT CALLDATALOAD 0x4E NUMBER CALLVALUE ADDRESS 0x4F SLOAD GASLIMIT PUSH8 0x4D7A63754D7A5132 0x4C PREVRANDAO GASLIMIT CALLVALUE 0x4E PUSH10 0x34784D444D674D7A6375 0x4D PUSH27 0x4D324C4445344E4334354E7A59674D7A67754D546733494530784E PREVRANDAO MLOAD PUSH22 0x4F44417749444D354C6A4D344E434244494445304E43 CALLVALUE PUSH24 0x4D7A41674D7A6B754E6A67354C4445304D6934354E444D67 0x4D PUSH27 0x6B754F54557A4C4445304D69347A4F4455674D7A6B754F54637749 GASLIMIT 0x4D PUSH8 0x4D5451784C6A497A 0x4D PUSH26 0x41304D4334774D4451734D544D334C6A67314D5341304D533432 0x4D PREVRANDAO COINBASE PUSH20 0x4D544D344C6A6B794F5341304D5334324D444167 MLOAD PUSH26 0x41784D7A6B754D7A4530494451784C6A59774D4377784E444175 0x4D PREVRANDAO 0x49 CALLER 0x49 PREVRANDAO MLOAD PUSH25 0x4C6A4D314D6977784E4441754E544530494451784C6A41304F NUMBER TIMESTAMP PREVRANDAO 0x49 PREVRANDAO GASLIMIT ADDRESS 0x4D MSTORE8 CALLVALUE PUSH24 0x4D4445674E4441754E7A51304C4445304D6934794F444967 0x4E PREVRANDAO COINBASE PUSH22 0x4D7A67304C4445304D79347A4E6A41674E4441754D6A MLOAD CALLER 0x49 GASLIMIT 0x4D PUSH8 0x4D5451304C6A517A 0x4E PUSH26 0x41304D4334784D5445734D5451314C6A55314F43417A4F533434 0x4D PREVRANDAO GASLIMIT PUSH20 0x4D5451314C6A67314D43417A4F5334314E546767 MLOAD PUSH26 0x41784E4459754E6A593449444D344C6A67344D4377784E544D75 0x4D PREVRANDAO SSTORE PUSH26 0x49444D354C6A67344F4377784E5455754D6A5979494451784C6A COINBASE ADDRESS 0x4E NUMBER TIMESTAMP PREVRANDAO 0x49 PREVRANDAO GASLIMIT BALANCE 0x4E MSTORE8 CALLVALUE CALLVALUE 0x4E PREVRANDAO MSIZE PUSH8 0x4E4445754D7A5577 0x4C PREVRANDAO GASLIMIT BALANCE 0x4E PUSH10 0x34324D5459674E444575 0x4E PUSH11 0x41774C4445314E6934354E PUSH27 0x51674E4445754E6A417749454D674D5455334C6A4D7A4D6941304D MSTORE8 CALLVALUE ORIGIN 0x4D PREVRANDAO COINBASE PUSH20 0x4D5455334C6A63794F5341304D5334344E7A4173 0x4D SLOAD SSTORE CALLER 0x4C PUSH11 0x67314E5341304D6934794D PREVRANDAO COINBASE PUSH8 0x517941784E546375 0x4F SLOAD PUSH8 0x79494451794C6A55 PUSH27 0x4D4377784E5467754D7A5531494451794C6A67774D4377784E5467 PUSH22 0x4E6A6731494451794C6A67774D434244494445314F53 CALLVALUE PUSH24 0x4D5455674E4449754F4441774C4445314F5334354F445967 0x4E PREVRANDAO 0x4D PUSH22 0x4D7A55314C4445324D4334344E444D674E4451754D44 0x4D ADDRESS 0x49 GASLIMIT 0x4D PUSH8 0x4D5459784C6A6379 0x4D PUSH10 0x41304E4334334D7A4173 0x4D SLOAD MSIZE PUSH26 0x4C6A49354E7941304E4334354F5467734D5459794C6A45324E43 COINBASE ADDRESS 0x4E NUMBER CALLVALUE ORIGIN 0x4E PREVRANDAO PUSH12 0x67517941784E6A49754D444D PUSH27 0x494451304C6A4D774F5377784E6A45754E54677A4944517A4C6A6B PUSH26 0x4D5377784E6A45754D54597A4944517A4C6A63344F4342444944 GASLIMIT ORIGIN 0x4D NUMBER CALLVALUE CALLER 0x4E PREVRANDAO 0x4D PUSH8 0x4E444D754E6A5531 0x4C PREVRANDAO GASLIMIT ORIGIN 0x4D NUMBER CALLVALUE ADDRESS 0x4D PREVRANDAO COINBASE PUSH8 0x4E444D754E444535 0x4C PREVRANDAO GASLIMIT ORIGIN 0x4D NUMBER CALLVALUE ADDRESS 0x4D PREVRANDAO COINBASE PUSH8 0x4E444D754D6A5931 0x49 GASLIMIT 0x4D PUSH8 0x4D5459774C6A5177 0x4D NUMBER COINBASE ADDRESS 0x4D PUSH10 0x34354F4441734D545534 0x4C PUSH11 0x45324D4341304D5334334E PUSH27 0x55734D5455314C6A59774D4341304D4334324F444D67517941784E SLOAD GASLIMIT PUSH22 0x4F44413449444D354C6A41324E6977784E4463754D44 MLOAD BALANCE 0x49 PREVRANDAO 0x4D CALLVALUE 0x4C PUSH11 0x51354D7977784E4451754F PREVRANDAO COINBASE PUSH24 0x49444D354C6A4D344E43424E4D5467354C6A41774D434130 0x4D NUMBER CALLVALUE PUSH26 0x4E6A4167517941784F4449754E7A4D32494451784C6A55334D43 PUSH24 0x784E7A55754E444131494451324C6A51354D5377784E7A4D PUSH22 0x4D545578494455774C6A6B774D434244494445334D69 CALLVALUE PUSH24 0x4E7A45674E544D754D4445784C4445334D4334344D444167 0x4E SLOAD 0x49 PUSH22 0x4F546B774C4445334D4334344D4441674E5441754F44 MSIZE PUSH24 0x49454D674D5463774C6A67774D4341304F4334324D544573 0x4D SLOAD PUSH4 0x304C6A55 ADDRESS 0x4D PUSH10 0x41304D7934344D544D73 0x4D SLOAD PUSH4 0x334C6A45 PUSH24 0x4D4341304D6934334F444967517941784E7A63754E546B31 0x49 PREVRANDAO MLOAD PUSH26 0x4C6A55344D7977784E7A67754D444177494451794C6A49794D79 PUSH24 0x784E7A67754D444177494451784C6A6B344D794244494445 CALLER 0x4F NUMBER CALLVALUE PUSH24 0x4D4441674E4445754D7A55324C4445334E5334334D7A4D67 0x4E PREVRANDAO 0x4D PUSH22 0x4D4451784C4445334D79347A4F4441674E4455754E44 GASLIMIT ORIGIN 0x49 GASLIMIT 0x4D PUSH8 0x4D5463784C6A4534 0x4E NUMBER COINBASE ADDRESS 0x4E PUSH26 0x34324D7A4D734D5463774C6A41794E6941304F5334324E7A5573 0x4D SLOAD MSIZE CALLDATALOAD 0x4C PUSH11 0x6B314E4341314D5334304E PUSH11 0x4167517941784E6A6B754F SLOAD 0x49 ORIGIN 0x49 PREVRANDAO SSTORE PUSH26 0x4C6A457A4E6977784E6A6B754F444D7A494455794C6A4D784E53 PUSH24 0x784E6A6B754E7A4930494455784C6A6B774D434244494445 ORIGIN 0x4F MSTORE8 CALLVALUE ORIGIN 0x4D PUSH11 0x51674E5445754E5445314C PREVRANDAO GASLIMIT ORIGIN 0x4F MSTORE8 CALLVALUE PUSH27 0x4E7A63674E5445754D6A41774C4445324F5334784E7A59674E5445 PUSH22 0x4D6A417749454D674D5459344C6A6B334E6941314D53 CALLVALUE PUSH26 0x4D4441734D5459344C6A4D784E5341314D4334304D7A55734D54 MSIZE CALLER 0x4C PUSH11 0x63774E7941304F5334314D PREVRANDAO COINBASE PUSH8 0x517941784E6A6375 0x4D SLOAD COINBASE PUSH24 0x494451344C6A55324E5377784E6A59754D6A513549445133 0x4C PUSH11 0x557A4D4377784E6A55754F PREVRANDAO GASLIMIT BALANCE 0x49 PREVRANDAO MLOAD CALLER 0x4C PUSH11 0x49774D434244494445324E NUMBER CALLVALUE PUSH25 0x4E6A49674E4455754F54517A4C4445324D6934344D4441674E PREVRANDAO SSTORE PUSH22 0x4D6A49334C4445324D6934344D4441674E4455754E6A GASLIMIT ORIGIN 0x49 GASLIMIT 0x4D PUSH8 0x4D5459794C6A6777 0x4D NUMBER COINBASE ADDRESS 0x4E MSTORE8 CALLVALUE CALLVALUE 0x4D PUSH27 0x67734D54597A4C6A497A4F4341304E6934784F4463734D54597A4C PUSH11 0x63334E4341304E69347A4F SLOAD COINBASE PUSH8 0x517941784E6A5175 0x4F SLOAD 0x4D PUSH25 0x494451324C6A677A4D4377784E6A59754F444177494451344C PUSH11 0x4D354D4377784E6A59754F PREVRANDAO COINBASE PUSH24 0x494451344C6A6B784E534244494445324E6934344D444167 0x4E PREVRANDAO PUSH12 0x754D5445344C4445324E7934 PUSH27 0x4D5451674E446B754F5451784C4445324E7934354E444D674E5441 PUSH22 0x4E7A517949454D674D5459344C6A55334D6941314D53 CALLVALUE BALANCE 0x4E PREVRANDAO MLOAD PUSH20 0x4D5463774C6A45314F5341314E4334774D444173 0x4D SLOAD PUSH4 0x784C6A51 CALLER 0x4D NUMBER COINBASE BALANCE 0x4E PUSH10 0x34794D44416751794178 0x4E PUSH27 0x63754D445533494459314C6A55334F4377784E7A63754D44637A49 PREVRANDAO MSIZE ORIGIN 0x4C PUSH11 0x45354E7977784E7A45754E PUSH11 0x6B31494459304C6A67794E NUMBER TIMESTAMP PREVRANDAO 0x49 PREVRANDAO GASLIMIT ORIGIN 0x4F MSTORE8 CALLVALUE CALLDATALOAD 0x4D SLOAD PUSH12 0x674E6A51754D7A63784C4445 ORIGIN 0x4E PUSH26 0x34334E5451674E6A51754D4441774C4445324E6934344F444967 0x4E PUSH11 0x51754D44417749454D674D SLOAD MSIZE ORIGIN 0x4C PUSH11 0x41784D5341324E4334774D PREVRANDAO COINBASE PUSH20 0x4D5459304C6A59774E7941324D7934334D544573 0x4D SLOAD MSIZE PUSH27 0x4C6A63324D7941324D79347A4E546B67517941784E6A49754D6A63 ORIGIN 0x49 PREVRANDAO MSIZE PUSH26 0x4C6A637A4E7977784E5467754D6A4135494459794C6A63334E79 PUSH24 0x784E5463754D5459304944597A4C6A51794D694244494445 BALANCE 0x4E PUSH10 0x34354E4449674E6A4D75 0x4E SLOAD SSTORE CALLDATALOAD 0x4C PREVRANDAO GASLIMIT BALANCE 0x4E MSTORE8 CALLVALUE PUSH25 0x4F5451674E6A4D754F5441334C4445314D7934794F4441674E PUSH11 0x51754D546B3149454D674D SLOAD MLOAD CALLER 0x4C PUSH11 0x41324E5341324E5334784D PUSH27 0x45734D54517A4C6A67794D7941324E6934304D6A51734D5451774C PUSH11 0x59774D7941324F5334794E SLOAD GASLIMIT PUSH8 0x517941784D7A6775 0x4F PREVRANDAO 0x49 CALLER 0x49 PREVRANDAO PUSH4 0x774C6A67 PUSH25 0x4D4377784D7A63754D7A5532494463774C6A4D784F5377784D PUSH27 0x63754E7A5977494459344C6A4D774D5342444944457A4F5334774D PREVRANDAO PUSH8 0x674E6A49754D4459 PUSH25 0x4C4445314E7934774F546B674E5463754E4459344C4445324E PUSH26 0x34774D4441674E6A41754F44633449454D674D5463774C6A4579 0x4E PUSH10 0x41324D5334354E545573 0x4D SLOAD PUSH4 0x784C6A63 PUSH24 0x4D6941324D53347A4F5459734D5463774C6A51334E534131 0x4F MSTORE8 CALLVALUE ORIGIN 0x4E PREVRANDAO MSIZE PUSH8 0x517941784E7A4175 0x4D PUSH11 0x4932494455354C6A49354D MSTORE8 PUSH24 0x784E6A6B754E7A5132494455344C6A51324D4377784E6A6B PUSH22 0x4E444135494455334C6A67774D434244494445324F53 CALLVALUE PUSH24 0x4E7A49674E5463754D5451774C4445324E7934314D544567 0x4E SLOAD SSTORE PUSH22 0x4D7A51774C4445324E5334354E4445674E544D754F44 COINBASE PUSH24 0x49454D674D5459304C6A4D334D5341314D6934794E6A4173 0x4D SLOAD MSIZE PUSH26 0x4C6A4D334E5341314D4334774E6A41734D5459784C6A55774E43 COINBASE ADDRESS 0x4F NUMBER CALLVALUE CALLDATALOAD 0x4D SLOAD 0x49 PUSH8 0x517941784E6A4175 0x4D PREVRANDAO SSTORE PUSH26 0x494451324C6A6B354E5377784E5459754F444578494451304C6A MLOAD PUSH24 0x4D4377784E5455754F446377494451304C6A51774D434244 0x49 PREVRANDAO GASLIMIT BALANCE 0x4E MSTORE8 CALLVALUE ORIGIN 0x4E SLOAD MLOAD PUSH8 0x4E4451754E444177 0x4C PREVRANDAO GASLIMIT BALANCE 0x4E NUMBER CALLVALUE ADDRESS 0x4E PUSH27 0x41674E444D754F5445344C4445314D7934794D7A6B674E444D754D PUSH27 0x493549454D674D5451354C6A59794F4341304D5334324D4441734D SLOAD MLOAD BALANCE 0x4C PUSH11 0x41354F5341304D5334324E SLOAD PUSH8 0x734D5451784C6A59 PUSH24 0x4D4341304D7934304E7A5967517941784E4445754D445577 0x49 PREVRANDAO MLOAD PUSH27 0x4C6A63324D5377784E4441754D6A6B324944517A4C6A6B354E6977 PUSH25 0x4D7A6B754F5449304944517A4C6A6B354F4342444944457A4F MSTORE8 CALLVALUE BALANCE 0x4E SLOAD 0x49 PUSH8 0x4E444D754F546B35 0x4C PREVRANDAO GASLIMIT PUSH27 0x4F5334784D6A55674E4451754D546B334C44457A4F4334354E7A59 PUSH8 0x4E4451754E444D35 0x49 GASLIMIT 0x4D PUSH8 0x4D544D344C6A6779 0x4E PUSH26 0x41304E4334324F4441734D544D334C6A51344D7941304E533432 0x4E PUSH11 0x67734D544D314C6A6B344F MSTORE8 COINBASE ADDRESS 0x4E PUSH10 0x34324D7A516751794178 0x4D PUSH11 0x63754E7A5533494455784C PUSH11 0x6B324D4377784D6A45754E SLOAD GASLIMIT PUSH26 0x494459784C6A6B784E6977784D5467754F5455784944637A4C6A PUSH8 0x774D434244494445 PUSH25 0x4E7934324E4449674E7A6B754F4459344C4445784E5334324D PREVRANDAO MSIZE PUSH8 0x4F4463754E445535 0x4C PREVRANDAO GASLIMIT PUSH25 0x4E5334774E544D674F4467754D7A493549454D674D5445304C PUSH11 0x4D344D7941344F53347A4F PREVRANDAO 0x4D PUSH20 0x4D54457A4C6A51324E7941344E79347A4E546373 0x4D SLOAD GASLIMIT PUSH27 0x4C6A6B324E6941344E5334354D6A5567517941784D5451754D6A41 BALANCE 0x49 PREVRANDAO PUSH8 0x314C6A49304D4377 PUSH25 0x4D5451754E444132494467304C6A45794D6977784D5451754E PREVRANDAO GASLIMIT PUSH27 0x4944677A4C6A51304D434244494445784E4334304D6A41674F4449 PUSH22 0x4E7A55344C4445784E4334324F5441674F4445754F44 SSTORE PUSH25 0x4C4445784E5334774D544D674F4445754E44493049454D674D SLOAD GASLIMIT BALANCE 0x4C PUSH11 0x4D344D6941344D4334354D PUSH27 0x55734D5445314C6A59774D4341334F5334334D6A6B734D5445314C PUSH11 0x59774D4341334F4334784E PUSH27 0x4D67517941784D5455754E6A4177494463324C6A55334D5377784D SLOAD SSTORE PUSH22 0x4E7A6B79494463314C6A557A4F4377784D5459754D54 MLOAD ORIGIN 0x49 PREVRANDAO PUSH4 0x314C6A49 ADDRESS 0x4E MSTORE8 TIMESTAMP PREVRANDAO 0x49 PREVRANDAO GASLIMIT PUSH25 0x4E6934304E5459674E7A51754F5467344C4445784E6934334F PREVRANDAO 0x49 PUSH8 0x4E7A4D754E6A5534 0x4C PREVRANDAO GASLIMIT PUSH25 0x4E6934354D4449674E7A49754D54553549454D674D5445334C PUSH11 0x41784F5341334D4334334D SLOAD GASLIMIT PUSH20 0x4D5445334C6A4D784D7941324F53347A4D6A6373 0x4D SLOAD GASLIMIT CALLER 0x4C PUSH11 0x55314E7941324F5334774F PREVRANDAO 0x4D PUSH8 0x517941784D546375 0x4F PREVRANDAO COINBASE PUSH25 0x494459344C6A677A4F5377784D5463754F546734494459344C PUSH11 0x45344D5377784D5463754F SLOAD PUSH4 0x30494459 CALLER 0x4C PUSH11 0x59794D434244494445784E PUSH26 0x34354D6A63674E6A55754F4451304C4445784E6934304E545567 0x4E PUSH27 0x41754F4449794C4445784E6934304D6A59674E7A49754F44557849 GASLIMIT 0x4D PUSH8 0x4D5445324C6A5178 0x4D NUMBER COINBASE CALLER 0x4D PUSH26 0x34354F4445734D5445324C6A45324E6941334E4334344F545973 0x4D SLOAD GASLIMIT BALANCE 0x4C PUSH11 0x67774D4341334E5334794D PREVRANDAO COINBASE PUSH8 0x517941784D545575 0x4E PREVRANDAO COINBASE PUSH25 0x494463314C6A557A4D5377784D5455754D6A4177494463324C PUSH11 0x51794F4377784D5455754D PUSH11 0x4177494463334C6A67334E MSTORE8 TIMESTAMP PREVRANDAO 0x49 PREVRANDAO GASLIMIT PUSH25 0x4E5334794D4441674E7A6B754D44637A4C4445784E4334354F PREVRANDAO SSTORE PUSH8 0x4F4441754E445132 0x4C PREVRANDAO GASLIMIT PUSH25 0x4E4334334D6A4D674F4441754F54493249454D674D5445304C PUSH11 0x41774E6941344D6934794E PREVRANDAO COINBASE PUSH20 0x4D54457A4C6A55774F4341344E5334304F444173 0x4D SLOAD GASLIMIT PUSH27 0x4C6A55334D4341344F4334304D6A5567517941784D544D754E6A45 CALLER 0x49 PREVRANDAO PUSH12 0x774C6A59794F5377784D544D PUSH22 0x4E44593049446B784C6A49344F5377784D5449754E6A GASLIMIT PUSH27 0x49446B794C6A55304D794244494445784D6934774E5459674F544D PUSH22 0x4D7A59304C4445784D5334324D4441674F5451754E44 PUSH8 0x7A4C4445784D5334 ORIGIN 0x4D PREVRANDAO COINBASE PUSH8 0x4F5455754D444D78 0x49 GASLIMIT 0x4D PUSH8 0x4D5445784C6A5977 0x4D NUMBER COINBASE CALLDATALOAD 0x4E MSTORE8 CALLVALUE BALANCE 0x4E PUSH27 0x67734D5445784C6A4D7A4D4341354E6934324E7A49734D5445784C PUSH11 0x41774D4341354E7934304E PUSH11 0x4967517941784D5441754E PUSH11 0x637749446B344C6A49314D MSTORE8 PUSH24 0x784D5441754E44493149446B354C6A637A4D5377784D5441 PUSH22 0x4E445532494445774D4334334E446B67544341784D54 COINBASE PUSH22 0x4E54457A494445774D6934324D4441674D5445774C6A PUSH4 0x354D5341 PUSH25 0x4D4441754E6A417749454D674D5445774C6A6B304E4341354F MSTORE8 CALLVALUE BALANCE 0x4D PREVRANDAO COINBASE PUSH20 0x4D5445784C6A49334F5341354F4334774F544D73 0x4D SLOAD GASLIMIT PUSH25 0x4C6A557A4E5341354E7934304E7A5167517941784D5445754E PUSH27 0x6B7849446B324C6A67314E5377784D5449754D44413249446B314C PUSH11 0x67324E5377784D5449754D PREVRANDAO GASLIMIT ADDRESS 0x49 PREVRANDAO PUSH12 0x314C6A49334E434244494445 PUSH25 0x4D6934774D6A49674F5451754E6A677A4C4445784D6934304F PREVRANDAO 0x4D PUSH8 0x4F544D754E6A5977 0x4C PREVRANDAO GASLIMIT PUSH25 0x4D7934774D7A6B674F544D754D444177494577674D5445304C PUSH11 0x41304F5341354D5334344D PREVRANDAO COINBASE PUSH8 0x4D54457A4C6A6734 0x4D NUMBER COINBASE CALLDATALOAD 0x4E NUMBER CALLVALUE PUSH24 0x4D444167517941784D544D754E6A553349446B324C6A6B77 0x4E PUSH26 0x77784D5449754F544179494445774D6934314F4449734D544579 0x4C PUSH11 0x45334E7941784D4459754F PREVRANDAO COINBASE PUSH24 0x49454D674D5445784C6A67314E5341784D4467754E6A6377 0x4C PREVRANDAO GASLIMIT PUSH25 0x4D5334314D5441674D5445794C6A41784E6977784D5445754E PREVRANDAO GASLIMIT PUSH25 0x494445784E4334794D7A5567517941784D5445754D7A457849 PREVRANDAO GASLIMIT PUSH25 0x4E6934304E5455734D5445784C6A41304D7941784D5467754E PUSH27 0x59784C4445784D4334344D5455674D5445354C6A4D324D53424449 PREVRANDAO GASLIMIT PUSH25 0x4D4334314F4463674D5445354C6A6B324D5377784D5441754E PREVRANDAO COINBASE PUSH24 0x494445794D5334344D4441734D5445774C6A51774D434178 0x4D PUSH11 0x4D754E44513349454D674D SLOAD GASLIMIT PUSH24 0x4C6A51774D4341784D6A55754D446B304C4445784D433478 0x4D PUSH27 0x4D674D5449334C6A59304F4377784D446B754F444133494445794F MSTORE8 CALLVALUE PUSH25 0x4D6A4567517941784D446B754E4467784944457A4D4334314F SLOAD MLOAD PUSH20 0x4D5441354C6A457A4E5341784D7A51754D545177 0x4C PREVRANDAO GASLIMIT PUSH24 0x4F5334774D7A67674D544D334C6A41774D43424449444577 0x4F NUMBER CALLVALUE CALLVALUE 0x4E PREVRANDAO MLOAD PUSH8 0x4D5451794C6A6379 0x4D PUSH10 0x77784D4467754E546B79 0x49 PREVRANDAO GASLIMIT ADDRESS 0x4E NUMBER CALLVALUE ADDRESS 0x4D PUSH27 0x41734D5441334C6A67334E6941784E4451754F44673149454D674D SLOAD COINBASE CALLER 0x4C PUSH11 0x41334E5341784E4455754D PUSH27 0x6B314C4445774E6934344D4441674D5451314C6A49304D4377784D PREVRANDAO MSIZE PUSH22 0x4F444177494445304E4334794F444167517941784D44 MSIZE PUSH22 0x4F444177494445304D6934794D4451734D5441314C6A 0x49 PUSH27 0x4D4341784E4445754F5441784C4445774D6934794D4441674D5451 PUSH27 0x4C6A4D354D534244494445774D5334784D4441674D54517A4C6A6B PUSH27 0x4D6977784D4441754D445130494445304E43347A4F4445734F546B PUSH22 0x4F445530494445304E43347A4F446367517941354F53 CALLVALUE BALANCE 0x4E PREVRANDAO 0x49 PUSH8 0x4D5451304C6A4D35 0x4F MSTORE8 PUSH24 0x354F4334774D7A59674D5451314C6A4D7A4E5377354D6934 ADDRESS 0x4D PREVRANDAO COINBASE PUSH8 0x4D5451354C6A4179 0x4D PUSH10 0x424449446B784C6A5178 0x4D NUMBER COINBASE PUSH25 0x4E446B754E6A63774C446B774C6A49324E6941784E5441754D PUSH27 0x4D324C4467354C6A67314E7941784E5441754E54417A49454D674F PREVRANDAO MSIZE PUSH22 0x4D7A6332494445314D5334354D6A4D734E7A6B754E6A PUSH8 0x30494445314E7934 PUSH25 0x4D4445734E7A4D754E44637A494445324D7934784F44456751 PUSH26 0x41324E4334794E5451674D5463794C6A49774E7977324D533432 0x4D SLOAD COINBASE PUSH8 0x4D5463304C6A6B35 0x4D NUMBER PUSH24 0x324D5334324D4455674D5463314C6A59334D794244494459 PUSH25 0x4C6A55354F4341784E7A59754E6A6B794C4455354C6A51334E NUMBER COINBASE PUSH25 0x4E7A67754D4441774C4455334C6A67794F4341784E7A67754D PREVRANDAO COINBASE PUSH24 0x49454D674E5459754D544D32494445334F4334774D444173 0x4E SLOAD GASLIMIT PUSH22 0x4D6A5133494445334F5334794D5449734E4459754D7A MLOAD PUSH25 0x494445344D4334344E446367517941304E4334304D7A6B674D SLOAD PUSH8 0x784C6A51344D5377 ADDRESS 0x4D PUSH10 0x34324F444D674D546779 0x4C PUSH11 0x41774D4377304D6934304D PUSH27 0x6B674D5467794C6A41774D434244494451794C6A45354E5341784F PREVRANDAO 0x49 PUSH22 0x4D4441774C4451784C6A41324D7941784F4449754E44 SSTORE PUSH24 0x4C444D354C6A6B794D7941784F444D754D44417749454D67 0x4D PUSH27 0x67754E7A677A494445344D7934314E5441734D7A63754E54593549 PREVRANDAO GASLIMIT CALLVALUE 0x4E NUMBER CALLVALUE PUSH24 0x4D4459734D7A63754D6A4931494445344E4334774D545167 MLOAD PUSH26 0x417A4E6934344F4445674D5467304C6A41794D53777A4E533434 0x4F PREVRANDAO COINBASE PUSH8 0x4D5467304C6A4D33 0x4E MSTORE8 PUSH24 0x7A4E5334774D4441674D5467304C6A67774D43424449444D ADDRESS 0x4C PUSH11 0x45794D4341784F4455754D PUSH11 0x49314C444D7A4C6A45334D PUSH10 0x41784F4455754E546335 0x4C PREVRANDAO 0x4D PUSH26 0x4C6A67354E4341784F4455754E54673249454D674D7A49754D44 MLOAD ADDRESS 0x49 PREVRANDAO GASLIMIT CALLVALUE 0x4E MSTORE8 CALLVALUE ORIGIN 0x4D PREVRANDAO PUSH12 0x734D6A49754E444134494445 CALLDATALOAD 0x4D NUMBER CALLVALUE ORIGIN 0x4F SLOAD MLOAD PUSH20 0x4D5467754F444177494445354D7934774D6A5167 MLOAD PUSH26 0x41784E6934354D7A41674D546B304C6A497A4D6977784E433435 0x4E SLOAD GASLIMIT PUSH8 0x4D546B314C6A5177 0x4F NUMBER PUSH24 0x784E4334304D4449674D546B314C6A597A4E794244494445 PUSH27 0x4C6A67314D7941784F5455754F4459334C4445794C6A63334D7941 PUSH25 0x4F5459754E544D344C4445794C6A41774D6941784F5463754D SLOAD 0x49 CALLER 0x49 GASLIMIT 0x4D PUSH8 0x4D5445754D6A4D78 0x49 PREVRANDAO GASLIMIT CALLDATALOAD 0x4E PUSH26 0x34334D5463734F5334354E7A41674D546B344C6A557A4E537735 0x4C PUSH11 0x49774D4341784F5467754F SLOAD MLOAD BALANCE 0x49 GASLIMIT 0x4D PUSH8 0x4F4334304D7A4167 0x4D SLOAD PUSH12 0x354C6A4D314E5377334C6A41 BALANCE 0x4D NUMBER COINBASE PUSH26 0x4D4441754D7A41774C4459754D544D7A494449774D5334774E44 SSTORE PUSH8 0x517941314C6A4978 0x4E PUSH10 0x41794D4445754E7A6B77 0x4C PREVRANDAO MLOAD PUSH22 0x4D6A6732494449774D6934304D4441734E4334774E6A MSIZE PUSH8 0x4D6A41794C6A5177 0x4D NUMBER TIMESTAMP PREVRANDAO 0x49 PREVRANDAO 0x4D PUSH22 0x4F445132494449774D6934304D4441734D7934324D44 PUSH4 0x674D6A41 PUSH26 0x4C6A557A4E69777A4C6A557A4D7941794D4449754E7A417A4945 0x4D PUSH8 0x4D7934304E6A4167 0x4D PUSH11 0x41794C6A67334D4377794C PUSH11 0x597A4E5341794D444D754E PUSH11 0x41314C4445754E7A417749 PREVRANDAO 0x49 PUSH24 0x4E43347A4D7A6367517941774C6A63324E5341794D445575 0x4D PREVRANDAO MSIZE CALLVALUE 0x4C PREVRANDAO COINBASE PUSH22 0x4D444177494449774E5334354E4445734D4334774D44 COINBASE PUSH8 0x4D6A41324C6A4933 0x4E MSTORE8 TIMESTAMP PREVRANDAO 0x49 PREVRANDAO COINBASE PUSH22 0x4D444177494449774E6934334D4441734D4334304D6A 0x4D PUSH8 0x4D6A41324C6A5578 0x4D PUSH10 0x77784C6A51774E534179 0x4D PREVRANDAO SSTORE PUSH22 0x4E6A513549454D674D6934784E7A67674D6A41304C6A PUSH12 0x334D43777A4C6A4D7A4D6941 PUSH26 0x4D4451754D5451314C444D754F545935494449774D7934344D54 MSIZE PUSH8 0x517941304C6A5977 0x4E PUSH10 0x41794D444D754E446732 0x4C PREVRANDAO SSTORE PUSH22 0x4D546735494449774D7934774E7A67734E5334794E6A MLOAD PUSH8 0x4D6A41794C6A6B77 0x4F NUMBER TIMESTAMP PREVRANDAO 0x49 PREVRANDAO SSTORE PUSH22 0x4E445931494449774D6934304E5449734F4334324F54 PUSH4 0x674D6A41 PUSH24 0x4C6A41774D4377354C6A41354E7941794D4441754D444177 0x49 GASLIMIT 0x4D PUSH8 0x4F5334794F445967 0x4D PUSH11 0x41774C6A41774D4377784D MSTORE8 CALLVALUE PUSH26 0x4D4463674D546B344C6A677A4E6977784D79347A4E6A55674D54 PUSH12 0x334C6A51784D794244494445 BALANCE 0x4C PUSH11 0x55794E4341784F5455754F SLOAD PUSH12 0x774C4445334C6A597A4D4341 PUSH25 0x4F5451754E7A45344C4445344C6A41304E5341784F5451754E SLOAD PUSH8 0x3249454D674D5467 PUSH22 0x4E445977494445354E4334304E5451734D5467754F44 COINBASE PUSH24 0x494445354E4334784F5467734D5467754F44417749444535 0x4E NUMBER CALLVALUE PUSH24 0x4D545967517941784F4334344D4441674D546B7A4C6A677A 0x4E MSTORE8 PUSH24 0x784F5334794E4463674D546B7A4C6A55334E5377784F5334 CALLER 0x4F SLOAD 0x4D PUSH8 0x4D546B7A4C6A517A 0x4F NUMBER TIMESTAMP PREVRANDAO 0x49 PREVRANDAO 0x49 PUSH24 0x4C6A4D7A4F5341784F544D754D7A41784C4449784C6A4D33 0x4E NUMBER COINBASE PUSH25 0x4F5449754E6A6B324C4449794C6A41354D7941784F5449754D PREVRANDAO PUSH12 0x3049454D674D6A49754F4445 PUSH26 0x494445354D5334304F5449734D6A51754E546377494445354D43 CALLVALUE ADDRESS 0x4D PUSH27 0x4D734D6A59754D444177494445344F5334334E444167517941794E PUSH26 0x34304D7A41674D5467354C6A41304E6977794F5334324F444167 0x4D SLOAD PUSH8 0x334C6A6B304E7977 PUSH27 0x4D5334774D4441674D5467334C6A49354E69424449444D794C6A4D PUSH26 0x4D4341784F4459754E6A51314C444D304C6A51344D4341784F44 SSTORE PUSH22 0x4F4445314C444D314C6A67774D4341784F4455754E44 SSTORE PUSH25 0x49454D674D7A63754D544977494445344E5334774F4467734D PUSH27 0x67754F544977494445344E4334304E4455734D7A6B754F44417749 PREVRANDAO GASLIMIT CALLVALUE 0x4E NUMBER CALLVALUE PUSH24 0x4D6A5567517941304D4334324F4441674D54677A4C6A5977 0x4E NUMBER PUSH24 0x304D6934304E6A55674D5467794C6A6B314D4377304D7934 CALLER 0x4E PUSH11 0x59674D5467794C6A55334D PUSH10 0x4244494451314C6A4132 0x4E PUSH26 0x41784F4449754D546B7A4C4451324C6A55354E7941784F444575 0x4E PUSH11 0x51784C4451334C6A45324E PUSH10 0x41784F4445754D7A5130 0x49 GASLIMIT 0x4D PUSH8 0x4E4463754E7A4D31 0x49 PREVRANDAO GASLIMIT CALLVALUE 0x4D MSTORE8 CALLVALUE PUSH24 0x4E4467734E4467754E446778494445344D4334344D445173 0x4E PREVRANDAO PUSH8 0x754F444931494445 CALLVALUE 0x4D NUMBER CALLVALUE CALLVALUE 0x4D PREVRANDAO 0x49 PUSH8 0x517941304F533434 0x4E PUSH27 0x4D674D5467774C6A63354F4377314E5334334E7A55674D5463354C PUSH11 0x45324F5377314E6934784F PREVRANDAO COINBASE PUSH8 0x4D5463344C6A6333 0x4D PUSH10 0x4244494455324C6A4D34 0x4F MSTORE8 COINBASE PUSH25 0x4E7A67754E5459344C4455334C6A55774D5341784E7A67754E PREVRANDAO COINBASE PUSH24 0x4C4455344C6A59314D5341784E7A67754E44417749454D67 0x4E PUSH11 0x41754F446332494445334F NUMBER CALLVALUE ADDRESS 0x4D PREVRANDAO COINBASE PUSH20 0x4E6A49754D444177494445334E7934334D7A4D73 0x4E PUSH11 0x49754D444177494445334E PUSH10 0x34304D54516751794132 0x4D PUSH10 0x34774D4441674D546332 0x4C PUSH11 0x41784D7977324D6934794E PUSH27 0x41674D5463314C6A55344D6977324D6934324D4441674D5463314C PUSH11 0x51314E534244494459794C PUSH11 0x6B7A4D4341784E7A55754D PUSH27 0x49354C44597A4C6A49774D4341784E7A55754D44597A4C44597A4C PUSH11 0x49774D4341784E7A51754F PREVRANDAO MSIZE ORIGIN 0x49 GASLIMIT 0x4D PUSH8 0x4E6A4D754D6A4177 0x49 PREVRANDAO GASLIMIT CALLER 0x4E NUMBER CALLVALUE ORIGIN 0x4E PUSH11 0x67734E6A55754D7A6B3349 PREVRANDAO GASLIMIT CALLER 0x4D PUSH10 0x347A4E6A67734E6A6775 0x4D PREVRANDAO PUSH8 0x7A494445324F5334 CALLER 0x4E SLOAD 0x4D PUSH8 0x517941334D433433 0x4E PUSH11 0x67674D5459334C6A457A4F MSTORE8 PUSH24 0x334E4334774E544D674D54597A4C6A67314D6977334E5334 PUSH27 0x4F444D674D5459794C6A51304F534244494463324C6A63784D6941 PUSH25 0x4E6A45754D4451314C4463344C6A63774D4341784E546B754D PUSH11 0x457A4C4463354C6A67774D NUMBER COINBASE PUSH25 0x4E5467754D7A633349454D674F4459754E7A4935494445314D PUSH26 0x34784D5445734F4459754E6A5177494445314D7934784E7A4973 0x4F PREVRANDAO PUSH12 0x754E6A4177494445314D5334 ORIGIN 0x4F PREVRANDAO PUSH4 0x67517941 CALLDATALOAD 0x4D NUMBER CALLVALUE CALLVALUE 0x4D SLOAD COINBASE PUSH8 0x4D5455784C6A4134 0x4D NUMBER PUSH24 0x354D6934344E6A45674D5451354C6A67324E7977354E4334 PUSH25 0x4E5463674D5451344C6A6B354D53424449446B344C6A55344D PUSH10 0x41784E4459754D444130 0x4C PREVRANDAO PUSH12 0x344C6A457A4D5341784E4459 PUSH22 0x4D6A59794C4445774D7934304E4467674D54517A4C6A MSIZE CALLVALUE 0x4D NUMBER TIMESTAMP PREVRANDAO 0x49 PREVRANDAO GASLIMIT PUSH24 0x4E4334354D544D674D5451794C6A6B324F5377784D445975 0x4D PREVRANDAO COINBASE PUSH24 0x494445304D7934794E5459734D5441324C6A41774D434178 0x4E PREVRANDAO MLOAD PUSH22 0x4D7A553149454D674D5441324C6A41774D4341784E44 MLOAD PUSH22 0x4E7A67304C4445774E6934784D446B674D5451314C6A MLOAD PUSH25 0x4F5377784D4459754D6A517A494445304E5334334E6A636751 PUSH26 0x41784D4459754E444931494445304E6934794E444D734D544132 0x4C PUSH11 0x497A4D5341784E4459754E PREVRANDAO COINBASE PUSH24 0x4C4445774E5334304E5463674D5451324C6A51774D434244 0x49 PREVRANDAO GASLIMIT PUSH24 0x4D7934324D4459674D5451324C6A51774D4377784D444975 0x4E PREVRANDAO SSTORE PUSH24 0x494445314D69347A4D7A49734D54417A4C6A6B304F534178 0x4E SLOAD MLOAD PUSH22 0x4D544D3449454D674D5441314C6A6B344D6941784E54 MSIZE PUSH22 0x4E5467344C4445774F4334354E4445674D5455784C6A 0x49 CALLER 0x4E PUSH10 0x77784D4463754E6A4D30 0x49 PREVRANDAO GASLIMIT ADDRESS 0x4E PUSH26 0x34314D6A5567517941784D4463754D6A6335494445304E693431 0x4D PREVRANDAO MSIZE PUSH20 0x4D5441334C6A4D304D4341784E4459754D7A4535 0x4C PREVRANDAO GASLIMIT PUSH24 0x4F4334784E5455674D5451314C6A6B304F43424449444577 0x4F MSTORE8 CALLVALUE PUSH27 0x4D5449674D5451314C6A51794D4377784D446B754F546B7A494445 ADDRESS 0x4D PUSH10 0x34314D7A51734D544577 0x4C PUSH11 0x45334D4341784D7A63754E PREVRANDAO COINBASE PUSH24 0x49454D674D5445774C6A51334D5341784D6A67754E6A6732 0x4C PREVRANDAO GASLIMIT PUSH25 0x4D4334354D7A45674D5449784C6A4D324F5377784D5445754D PUSH11 0x4179494445794D5334774D PREVRANDAO COINBASE PUSH8 0x517941784D544575 0x4E PUSH11 0x5532494445794D43347A4F PREVRANDAO GASLIMIT PUSH20 0x4D5445794C6A4D7A4E6941784D5459754E7A6335 0x4C PREVRANDAO GASLIMIT PUSH25 0x4D69347A4D7A55674D5445314C6A41774D434244494445784D PUSH10 0x347A4D7A4D674D544578 0x4C PUSH11 0x677A4F4377784D544D754D PUSH11 0x5979494445774D79347A4E PREVRANDAO SSTORE PUSH20 0x4D54457A4C6A6B784D4341784D4441754E6A4177 0x49 GASLIMIT 0x4D PUSH8 0x4D5445304C6A4D77 0x4F NUMBER COINBASE CALLDATALOAD 0x4F NUMBER CALLVALUE CALLDATALOAD 0x4D SLOAD MSIZE PUSH20 0x4D5445304C6A55314F4341354E6934794E445973 0x4D SLOAD GASLIMIT ADDRESS 0x4C PUSH11 0x557A4F4341354D7934354D PREVRANDAO COINBASE PUSH8 0x517941784D545175 0x4E SLOAD 0x49 PUSH24 0x49446B784C6A63314E5377784D5451754E6A553349446B77 0x4C PUSH11 0x41774D4377784D5451754F PREVRANDAO MLOAD PUSH26 0x49446B774C6A41774D434244494445784E53347A4E544D674F54 COINBASE PUSH22 0x4D4441774C4445784E6934304E7A67674F4463754E6A MLOAD ADDRESS 0x4C PREVRANDAO GASLIMIT PUSH25 0x4E7934774D7A67674F4455754E44417749454D674D5445334C PUSH11 0x4D784D6941344E43347A4D PREVRANDAO COINBASE PUSH20 0x4D5445334C6A677A4D7941344D6934304D544173 0x4D SLOAD GASLIMIT CALLVALUE 0x4C PUSH11 0x45354E5341344D5334794D PREVRANDAO COINBASE PUSH8 0x517941784D546775 0x4E SLOAD SSTORE CALLVALUE 0x49 PREVRANDAO PUSH4 0x354C6A6B CALLDATALOAD 0x4D NUMBER PUSH24 0x784D546B754D444531494463334C6A67334E4377784D546B PUSH22 0x4D6A4579494463324C6A51354F434244494445784F53 CALLVALUE ADDRESS 0x4D PREVRANDAO PUSH8 0x674E7A55754D5449 PUSH26 0x4C4445784F5334344E4459674E7A4D754D5467784C4445794D43 CALLVALUE PUSH25 0x4F4455674E7A49754D54673049454D674D5449774C6A55794D PUSH26 0x41334D5334784F4467734D5449774C6A67774D5341334D433477 0x4E PUSH11 0x4D734D5449774C6A67774D PUSH10 0x41324F5334324F445967 MLOAD PUSH26 0x41784D6A41754F444130494459344C6A67334E4377784D6A4975 0x4D PUSH27 0x6377494459304C6A6B7A4D5377784D6A4D754D6A4D304944597A4C PUSH11 0x55324D534244494445794D PUSH26 0x34314E6A67674E6A4D754D444D794C4445794E43347A4E545967 0x4E PUSH11 0x45754E444D774C4445794E NUMBER CALLVALUE CALLDATALOAD 0x4F PREVRANDAO MSIZE PUSH8 0x4E6A41754D444177 0x49 GASLIMIT 0x4D PUSH8 0x4D5449324C6A6B7A 0x4D PUSH26 0x41314E5334314F444D734D544D324C6A63314F5341304E533432 0x4D PREVRANDAO COINBASE PUSH20 0x4D544D354C6A45324D4341304E5334324D444167 MLOAD PUSH26 0x41784D7A6B754D7A4530494451314C6A59774D4377784D7A6B75 0x4E PUSH11 0x4D33494451314C6A51774D PUSH26 0x77784D7A6B754F446334494451314C6A45324D69424449444530 0x4D MSTORE8 CALLVALUE CALLVALUE 0x4D PUSH27 0x41674E444D754D6A45774C4445304F4334354E5467674E4449754D PUSH11 0x55334C4445314D5334334E SLOAD MSIZE PUSH8 0x4E444D754E54637A 0x49 GASLIMIT 0x4D PUSH8 0x4D5455354C6A4579 0x4F NUMBER COINBASE ADDRESS 0x4E PUSH26 0x34774E4441734D5455344C6A63344D7941304E6934344D444D73 0x4D SLOAD MSIZE PUSH25 0x4C6A59794E7941314D43347A4F444967517941784E6A4D754D SLOAD GASLIMIT CALLDATALOAD 0x49 PREVRANDAO SSTORE PUSH26 0x4C6A49324D6977784E6A51754F546B77494455304C6A4D774E79 PUSH24 0x784E6A55754E7A6779494455304C6A6B794E794244494445 ORIGIN 0x4E PUSH10 0x34314E7A55674E545575 0x4E SLOAD MLOAD ORIGIN 0x4C PREVRANDAO GASLIMIT ORIGIN 0x4E PUSH26 0x34334D544D674E5459754F4441324C4445324F43347A4D544967 0x4E SLOAD PUSH4 0x754E7A49 CALLER 0x49 GASLIMIT 0x4D PUSH8 0x4D5459344C6A6B78 0x4D NUMBER COINBASE BALANCE 0x4F NUMBER CALLVALUE ORIGIN 0x4E PREVRANDAO PUSH4 0x734D5459 CALLDATALOAD 0x4C PUSH11 0x557A4E5341314F5334304E PUSH11 0x41734D5459354C6A63774D NUMBER COINBASE BALANCE 0x4F MSTORE8 CALLVALUE BALANCE 0x4D PUSH27 0x4D67517941784E6A6B754F445931494455354C6A59774E7977784E PUSH27 0x41754D444177494455354C6A6B794D6977784E7A41754D44417749 PREVRANDAO MSIZE PUSH24 0x4C6A497A4D794244494445334D4334774D4441674E6A4575 0x4E PREVRANDAO 0x4D CALLER 0x4C PREVRANDAO GASLIMIT ORIGIN 0x4F NUMBER CALLVALUE PUSH25 0x4E7A49674E6A41754E6A49324C4445324E5334344D4441674E SLOAD PUSH8 0x754D7A637749454D PUSH8 0x4D5459304C6A6B79 0x4D NUMBER COINBASE BALANCE 0x4E PUSH26 0x34314D7A4D734D54597A4C6A49324E5341314E5334354E446773 0x4D SLOAD MSIZE PUSH26 0x4C6A45794D6941314E4334344E446767517941784E5467754D6A PUSH4 0x78494455 PUSH25 0x4C6A45304D4377784E5459754E544532494455774C6A59324E MSTORE8 PUSH24 0x784E5463754E7A63794944557A4C6A59334D434244494445 BALANCE 0x4F NUMBER CALLVALUE BALANCE 0x4E PREVRANDAO GASLIMIT PUSH8 0x4E5455754E544579 0x4C PREVRANDAO GASLIMIT BALANCE 0x4E PUSH26 0x34354D4441674E5463754F5441324C4445314E6934304F545567 0x4E SLOAD PUSH8 0x754E44517749454D PUSH8 0x4D54557A4C6A6B31 0x4D MSTORE8 COINBASE BALANCE 0x4F MSTORE8 CALLVALUE ADDRESS 0x4D PREVRANDAO PUSH4 0x734D5455 PUSH26 0x4C6A41774D4341314F43347A4D7A63734D5455794C6A41774D43 COINBASE BALANCE 0x4E MSTORE8 CALLVALUE CALLDATALOAD 0x4E PUSH27 0x5167517941784E5449754D444177494455314C6A4D354E7977784E SLOAD GASLIMIT PUSH22 0x4E545531494455304C6A457A4D7977784E5445754D44 GASLIMIT PUSH25 0x4944557A4C6A45324D794244494445314D4334304E6A59674E SLOAD 0x49 PUSH22 0x4D546B7A4C4445304F5334304E5467674E5441754D6A PUSH12 0x314C4445304F4334334E6A6B PUSH8 0x4E4467754F545131 0x49 GASLIMIT 0x4D PUSH8 0x4D5451324C6A6379 0x4D PUSH10 0x41304E4334354D7A4D73 0x4D SLOAD MLOAD PUSH25 0x4C6A55334E5341304E43347A4E7A51734D544D354C6A41334E PUSH10 0x41304E7934344F545167 MLOAD PUSH26 0x41784D7A67754D7A6330494451344C6A67344D7977784D7A5975 0x4E PUSH11 0x4D77494455774C6A67344E PUSH26 0x77784D7A55754D6A4177494455794C6A4D304E6942444944457A 0x4D MSTORE8 CALLVALUE ADDRESS 0x4D PREVRANDAO PUSH8 0x674E5459754D6A45 ORIGIN 0x4C PREVRANDAO GASLIMIT PUSH27 0x4D4334314D6A59674E5463754E44457A4C4445794F5334334E6A49 PUSH8 0x4E546B754E7A4931 0x49 GASLIMIT 0x4D PUSH8 0x4D5449354C6A4D34 0x4E NUMBER COINBASE ORIGIN 0x4D NUMBER CALLVALUE CALLVALUE 0x4E PUSH11 0x59734D5449344C6A59314E NUMBER COINBASE ORIGIN 0x4D PUSH10 0x34304E7A45734D544934 0x4C PUSH11 0x457A4F4341324D7934794F SLOAD 0x49 PUSH8 0x517941784D6A6375 0x4E PUSH11 0x4979494459304C6A45784D PUSH26 0x77784D6A63754D6A4177494459314C6A41314E4377784D6A6375 0x4D PUSH11 0x4177494459314C6A4D344D PUSH26 0x4244494445794E7934794D4441674E6A55754E7A45794C444579 0x4E PUSH10 0x34324E6A55674E6A5975 0x4F SLOAD PUSH4 0x784C4445 PUSH26 0x4E6934774D5441674E6A67754D54677849454D674D5449314C6A 0x4D BALANCE 0x4E PUSH10 0x41324F53347A4F544173 0x4D SLOAD 0x49 ADDRESS 0x4C PUSH11 0x55314E4341334D5334304D SLOAD PUSH12 0x734D5449304C6A49794F4341 CALLER 0x4D PUSH10 0x34324F54416751794178 0x4D PUSH11 0x4D754E6A5977494463304C PUSH11 0x6B774E4377784D6A49754D PREVRANDAO PUSH8 0x30494463354C6A67 ADDRESS 0x4E PUSH26 0x77784D6A45754D444130494467794C6A67774D43424449444578 0x4F MSTORE8 CALLVALUE BALANCE 0x4F PREVRANDAO PUSH12 0x674F4459754E6A59324C4445 PUSH25 0x4F4334304D4441674F5445754E7A63354C4445784F4334304D PREVRANDAO COINBASE PUSH8 0x4F544D754F546B31 0x49 GASLIMIT 0x4D PUSH8 0x4D5445344C6A5177 0x4D NUMBER COINBASE CALLDATALOAD 0x4E MSTORE8 CALLVALUE CALLER 0x4D PREVRANDAO 0x4D PUSH20 0x4D5445344C6A45304D6941354E6934354D7A5973 0x4D SLOAD GASLIMIT CALLER 0x4C PUSH11 0x557A4F4341354F4334784D SLOAD MSIZE PUSH8 0x517941784D546375 0x4D PREVRANDAO MSIZE ADDRESS 0x49 PREVRANDAO PUSH12 0x354C6A41304D6977784D5459 PUSH22 0x4E6A4D78494445774D4334314D6A41734D5445324C6A SSTORE CALLER 0x4E PUSH26 0x41784D4445754E44417749454D674D5445324C6A55794D694178 0x4D PREVRANDAO 0x49 PUSH22 0x4D6A67774C4445784E6934794F4441674D5441304C6A COINBASE CALLVALUE 0x4D NUMBER PUSH24 0x784D5459754D444D34494445774E5334304D444167517941 PUSH25 0x4D5455754E7A4532494445774E7934784E5455734D5445314C PUSH11 0x63784F4341784D4467754D PREVRANDAO PUSH12 0x7A4C4445784E6934774E4451 PUSH8 0x4D5441344C6A6735 0x4D MSTORE8 TIMESTAMP PREVRANDAO 0x49 PREVRANDAO GASLIMIT PUSH25 0x4E6934794F446B674D5441354C6A51354D5377784D5459754D PUSH27 0x6B33494445784D4334314E7A45734D5445324C6A49344D7941784D SLOAD GASLIMIT PUSH22 0x4D6A6B7849454D674D5445314C6A51314D4341784D54 MSIZE PUSH22 0x4E5463774C4445784E5334784E5459674D5445344C6A COINBASE PUSH26 0x4D7977784D5451754E6A4531494445784F5334314E546B675179 COINBASE PUSH25 0x4D5451754D6A6333494445794D4334314D5463734D5445304C PUSH11 0x41774D4341784D6A49754E PREVRANDAO MSIZE PUSH24 0x4C4445784E4334774D4441674D54497A4C6A67334E794244 0x49 PREVRANDAO GASLIMIT PUSH25 0x4E4334774D4441674D5449314C6A49354D7977784D544D754E PUSH27 0x6777494445794E6934344E4459734D54457A4C6A55784D6941784D PUSH11 0x63754D7A493249454D674D SLOAD GASLIMIT PUSH27 0x4C6A45334D4341784D6A63754F544D344C4445784D7934774E6A4D PUSH8 0x4D544D774C6A4179 0x4D NUMBER PUSH24 0x784D544D754D5455304944457A4E4334794E7A4167517941 PUSH25 0x4D544D754D6A55344944457A4F5334774F546B734D54457A4C PUSH11 0x45314D4341784E4441754E PUSH27 0x51314C4445784D6934324D6A59674D5451794C6A4D794D69424449 PREVRANDAO GASLIMIT PUSH25 0x4D5334354F5459674D5451304C6A49784F4377784D5449754D PREVRANDAO COINBASE PUSH27 0x494445304E43347A4F546B734D5445794C6A63344D7941784E4459 PUSH22 0x4E44557A49454D674D54457A4C6A6B354D7941784E44 PUSH12 0x754E6A4D314C4445784D7934 CALLVALUE 0x4E PUSH11 0x63674D5455774C6A55354F NUMBER PUSH24 0x784D5449754D444177494445314D6934304E446367517941 PUSH25 0x4D5441754E6A5530494445314D7934334F4441734D5445774C PUSH11 0x51774D4341784E5451754D PUSH11 0x6B774C4445784D4334304D PREVRANDAO COINBASE PUSH8 0x4D5455314C6A5932 0x4D PUSH26 0x4244494445784D4334304D4441674D5459784C6A41324E797778 0x4D PREVRANDAO 0x4D PUSH22 0x4F545531494445324D5334334F4467734D5441784C6A COINBASE CALLDATALOAD 0x4F NUMBER COINBASE PUSH25 0x4E5459754E7A417A49454D674D5441774C6A55334D7941784E SLOAD SSTORE PUSH22 0x4E7A63774C446B354C6A6B314E7941784E5455754D6A COINBASE PUSH24 0x4C446B354C6A51334E5341784E5455754D6A417749454D67 0x4F SLOAD PUSH8 0x754E445131494445 BALANCE 0x4E MSTORE8 CALLVALUE PUSH26 0x4D4441734F5445754D7A6333494445314F4334324E5467734F44 PUSH12 0x754E6A4177494445324D4334 PUSH24 0x4D7A4567517941344F4334344D7A41674D5459774C6A5979 0x4E PUSH10 0x77344E7934314D546B67 0x4D SLOAD MSIZE PUSH25 0x4C6A4D794F4377344E6934324F4459674D5459784C6A55354D PUSH10 0x4244494467314C6A6731 0x4D PUSH26 0x41784E6A45754F4455324C4467304C6A6B774E7941784E6A4975 0x4E PREVRANDAO PUSH4 0x324C4467 ADDRESS 0x4C PUSH11 0x55344D7941784E6A49754F SLOAD PUSH4 0x7749454D PUSH8 0x4F444D754E6A6B30 0x49 PREVRANDAO GASLIMIT ORIGIN 0x4E NUMBER CALLVALUE PUSH27 0x4D6A63734F4441754E7A6B79494445324E6934794E6A51734E7A67 PUSH22 0x4F446330494445324E6934334F444167517941334E79 CALLVALUE BALANCE 0x4D PUSH27 0x4D674D5459334C6A45304D5377334E7934774D6A67674D5459334C PUSH11 0x557A4E4377334E6934314D SLOAD 0x49 PUSH8 0x4D5459344C6A5978 0x4E PUSH10 0x4244494463324C6A4531 0x4D MSTORE8 COINBASE PUSH25 0x4E6A6B754D7A637A4C4463314C6A557A4E6941784E7A41754D PREVRANDAO PUSH12 0x7A4C4463314C6A45304E5341 PUSH25 0x4E7A41754D6A453449454D674E7A51754E544579494445334D NUMBER CALLVALUE ADDRESS 0x4D SLOAD PUSH8 0x734E7A49754E7A59 ADDRESS 0x49 PREVRANDAO GASLIMIT CALLER 0x4D PUSH10 0x34304E4449734E7A4175 0x4E PUSH11 0x6B78494445334E53347A4E PUSH27 0x4D67517941334D43347A4D4441674D5463314C6A6B794E4377324F NUMBER CALLVALUE CALLDATALOAD 0x4E SLOAD PUSH12 0x674D5463324C6A6B334D7977 ORIGIN 0x4E PUSH26 0x34334D446B674D5463334C6A63774D794244494459314C6A6333 0x4E NUMBER COINBASE PUSH25 0x4E7A67754F444D304C4459314C6A49794D4341784E7A6B754E PREVRANDAO MLOAD PUSH24 0x4C44597A4C6A6B344D7941784F4445754E7A633549454D67 0x4E PUSH11 0x45754E544D35494445344E PUSH10 0x34304D4449734E6A4575 0x4F PREVRANDAO COINBASE PUSH27 0x494445344E69347A4D546B734E544D754D446330494445344E5334 PUSH25 0x4F544167517941314D4334784E6A41674D5467304C6A67784D PUSH10 0x77304F4334334F444567 0x4D SLOAD PUSH8 0x304C6A63354E5377 ADDRESS 0x4E PUSH26 0x34334D6A41674D5467314C6A45794D434244494451324C6A5979 0x4D MSTORE8 COINBASE PUSH25 0x4F4455754E4455334C4451314C6A6B794E5341784F4455754E PREVRANDAO 0x4D PUSH27 0x4C4451304C6A63774F5341784F4455754D44457A49454D674E444D PUSH22 0x4D546B77494445344E4334304F5441734E444D754D44 0x49 PUSH26 0x494445344E4334314D6A4D734E4441754E544133494445344E53 CALLVALUE CALLVALUE 0x4D PUSH27 0x51675179417A4F5334774E6A55674D5467324C6A55344E53777A4E PUSH26 0x34324D4467674D5467334C6A49774D43777A4E7934794E6A6B67 0x4D SLOAD PUSH8 0x334C6A49774D4342 PREVRANDAO 0x49 PREVRANDAO 0x4D ORIGIN 0x4C PUSH11 0x6B794F5341784F4463754D PUSH11 0x41774C444D324C6A49334E MSTORE8 COINBASE PUSH25 0x4F4463754E5455304C444D314C6A67784E5341784F4463754F SLOAD PUSH8 0x3249454D674D7A51 PUSH22 0x4F446B32494445344F4334344E446B734D7A49754D44 GASLIMIT CALLDATALOAD 0x49 PREVRANDAO GASLIMIT CALLDATALOAD 0x4D NUMBER CALLVALUE BALANCE 0x4E PREVRANDAO PUSH4 0x734D7A41 PUSH22 0x4D7A4532494445354D5334794D7A4567517941794F53 CALLVALUE CALLER 0x4D PUSH11 0x41674D546B784C6A51334D MSTORE8 PUSH24 0x794F5334784D7A41674D546B784C6A6B354D5377794F5334 PUSH24 0x4D4451674D546B794C6A4D344F434244494449344C6A6330 0x4E PUSH26 0x41784F544D754D546B344C4449324C6A6B7A4D4341784F545175 0x4E PREVRANDAO PUSH12 0x354C44497A4C6A51304D7941 PUSH25 0x4F5459754D7A637749454D674D6A49754D545133494445354E PUSH26 0x34774E6A59734D6A41754E445178494445354F4334784E6A6373 0x4D SLOAD PUSH12 0x754E6A5579494445354F4334 CALLVALUE 0x4D SLOAD PUSH8 0x67517941784F4334 CALLVALUE 0x4E PUSH11 0x4D674D546B354C6A51324F NUMBER PUSH24 0x784F4334774D5451674D6A41774C6A41774D4377784E7934 CALLER 0x4E PUSH11 0x51674D6A41774C6A41774D NUMBER TIMESTAMP PREVRANDAO 0x49 PREVRANDAO GASLIMIT CALLER 0x4C PUSH11 0x55784E5341794D4441754D PREVRANDAO COINBASE PUSH24 0x4C4445314C6A63334E4341794D4441754E7A49774C44457A 0x4C PUSH11 0x67354E6941794D4445754E PUSH11 0x417749454D674D5449754D PREVRANDAO GASLIMIT CALLDATALOAD 0x49 PREVRANDAO 0x49 PUSH24 0x4D6934304F4441734D5441754D6A597A494449774D793479 0x4D PREVRANDAO COINBASE PUSH20 0x4F5334354F5455674D6A417A4C6A49774D434244 0x49 PREVRANDAO PUSH12 0x754E44637A494449774D7934 PUSH26 0x4D4441734E6934304D4441674D6A41324C6A4D344D7977324C6A MLOAD PUSH24 0x4D4341794D4459754F54493049454D674E6934304D444167 0x4D PUSH11 0x41334C6A45774D6977304C PUSH11 0x6B324D4341794D4467754E PUSH11 0x67344C444D754D6A417749 PREVRANDAO 0x49 PUSH25 0x4D4334304E446767544341774C6A41774D4341794D544D754E PUSH11 0x5134494441754D44417749 PREVRANDAO 0x49 PUSH26 0x4F5334324D6A5167544341774C6A41774D4341794E4455754E6A COINBASE PUSH24 0x494441754F545578494449304E5334324D44416751794178 0x4C PUSH11 0x51334E4341794E4455754E PUSH11 0x41774C4449754E54413549 PREVRANDAO 0x49 ADDRESS 0x4E MSTORE8 CALLVALUE PUSH27 0x4E5441734D7934794E5445674D6A51314C6A41304E434244494455 PUSH22 0x4E6A4535494449304E4334774E6A6B734F4334324E54 COINBASE PUSH8 0x4D6A517A4C6A677A 0x4D PUSH10 0x77344C6A6B304E434179 0x4E PREVRANDAO MLOAD PUSH22 0x4E546B3549454D674F5334304D5451674D6A51314C6A PUSH8 0x794E4377344C6A55 PUSH26 0x4D6941794E4459754E6A6B794C4459754E544578494449304E69 CALLVALUE CALLDATALOAD 0x4E PUSH11 0x63675179417A4C6A51304D PUSH10 0x41794E4463754D7A6732 0x4C NUMBER ADDRESS PUSH24 0x4C6A41774D4341794E4467754E54417A4C4330774C6A4177 0x4D NUMBER COINBASE PUSH26 0x4E446B754D44633549454D674C5441754D444177494449304F53 CALLVALUE ADDRESS 0x4E SLOAD 0x4D PUSH20 0x4D4334794D4455674D6A51354C6A55774D537777 0x4C PUSH11 0x63774D4341794E446B754D PUSH11 0x513249454D674D5334304E PREVRANDAO PUSH12 0x674D6A51344C6A67324D4377 ADDRESS 0x4C PUSH11 0x67794E5341794E4467754D PREVRANDAO PUSH8 0x334C4463754D7A49 CALLER 0x49 PREVRANDAO 0x49 ADDRESS 0x4E PUSH26 0x34334D6A6B67544341344C6A67314E4341794E4463754E544578 0x49 PREVRANDAO PUSH8 0x754E7A4933494449 ADDRESS 0x4F MSTORE8 CALLVALUE PUSH24 0x4E545567517941344C6A59774D5341794E5441754E546735 0x4C PREVRANDAO PUSH8 0x754E546731494449 BALANCE 0x4D NUMBER CALLVALUE ORIGIN 0x4D PREVRANDAO 0x49 PUSH20 0x4E6934324D4441674D6A55774C6A677A4E794244 0x49 PREVRANDAO SSTORE PUSH22 0x4E544177494449314D4334354E6A67734D7934354D7A GASLIMIT PUSH8 0x4D6A55784C6A4D33 0x4D PUSH26 0x777A4C6A45784D7941794E5445754E7A4D3349454D674D693479 0x4F SLOAD SSTORE PUSH8 0x4D6A55794C6A4577 0x4D PUSH10 0x77784C6A49324D434179 0x4E SLOAD 0x49 PUSH22 0x4E4441774C4441754F44457A494449314D6934304D44 COINBASE PUSH8 0x544341774C6A4177 0x4D NUMBER COINBASE PUSH26 0x4E5449754E444177494441754D44417749444D794E6934794D44 COINBASE PUSH8 0x544341774C6A4177 0x4D NUMBER COINBASE ADDRESS 0x4D PREVRANDAO COINBASE PUSH22 0x4D444177494449334C6A41774D4341304D4441754D44 COINBASE PUSH24 0x49454D674E5459754D544D32494451774D4334774D444173 0x4E SLOAD MLOAD PUSH22 0x4F544D7A494451774D4334774F5451734E544D754D6A SSTORE PUSH24 0x49444D354E7934354E545167517941314D6934344D7A6367 0x4D PUSH27 0x6B334C6A51794F5377314D6934794D4451674D7A6B324C6A457A4D MSTORE8 PUSH24 0x314D5334344E4451674D7A6B314C6A41324F534244494455 PUSH25 0x4C6A51344D79417A4F5451754D4441334C4455774C6A6B794D MSTORE8 COINBASE PUSH27 0x4F5449754E6A49784C4455774C6A55354E43417A4F5445754F5467 CALLDATALOAD 0x49 GASLIMIT 0x4D PUSH8 0x4E5441754D6A5933 0x49 PREVRANDAO 0x4D CALLDATALOAD 0x4D MSTORE8 CALLVALUE PUSH27 0x4E5463734E5441754D44417749444D354D4334304E7A45734E5441 PUSH22 0x4D44417749444D354D4334774D6A4167517941314D43 CALLVALUE PUSH24 0x4D4441674D7A67354C6A55324F5377304F5334344D7A6767 0x4D PUSH27 0x67354C6A49774D4377304F5334324D7A6B674D7A67354C6A49774D NUMBER TIMESTAMP PREVRANDAO 0x49 PREVRANDAO MLOAD CALLVALUE 0x4C PUSH11 0x6B784D53417A4F446B754D PUSH11 0x41774C4451334C6A59774D NUMBER COINBASE PUSH27 0x4F444D754E7A45324C4451334C6A59774D43417A4F4441754E6A63 PUSH25 0x49454D674E4463754E6A417749444D334F4334354E5459734E PREVRANDAO PUSH4 0x754E4449 PUSH26 0x49444D334E7934324D4463734E4463754D54673249444D334E79 CALLVALUE BALANCE 0x4D PUSH11 0x6B67517941304E6934794D PUSH11 0x45674D7A63334C6A49774E PUSH26 0x77304E5334304F544D674D7A637A4C6A55324F4377304E533478 0x4D SLOAD PUSH12 0x674D7A59334C6A49774D4342 PREVRANDAO 0x49 PREVRANDAO MLOAD ADDRESS 0x4C PUSH11 0x63784D53417A4E6A41754D PUSH11 0x51794C4451304C6A59314F MSTORE8 COINBASE PUSH27 0x4E6A41754D4451774C4451794C6A41334D69417A4E5455754E4441 PUSH24 0x49454D674E4441754D6A413149444D314D6934774E544173 0x4D PUSH27 0x63754E6A417749444D304E4334794F4467734D7A63754E6A417749 PREVRANDAO 0x4D ADDRESS 0x4D PUSH10 0x34774E7A4D675179417A 0x4E PUSH26 0x34324D4441674D7A51784C6A45784D43777A4E79347A4D444567 0x4D PUSH27 0x51774C6A45784F53777A4E6934344D7A59674D7A4D354C6A55304E PUSH10 0x424D49444D324C6A4133 0x4D PUSH26 0x417A4D7A67754E6A417A49444D314C6A55334E69417A4D7A6B75 0x4F PREVRANDAO COINBASE PUSH25 0x49454D674D7A51754D7A457749444D304D6934344E5445734D PUSH11 0x59754F54457749444D314E PUSH26 0x34304F444D734D6A59754D54633149444D314F43347A4F445967 MLOAD PUSH26 0x41794E5334794E546B674D7A55354C6A55784E4377794D793478 0x4E PUSH27 0x4D674D7A59794C6A6B334D7977794D6934324F4451674D7A59304C PUSH11 0x45334F534244494449794C PUSH11 0x4D344F43417A4E6A51754F SLOAD COINBASE CALLVALUE 0x4C PREVRANDAO 0x49 PUSH24 0x4C6A45324D69417A4E6A67754E5449314C4445304C6A677A 0x4F NUMBER COINBASE PUSH27 0x4E7A59754F544D3049454D674D544D754E6A413349444D334F4334 CALLVALUE 0x4E PUSH27 0x63734D5445754E7A453349444D344D5334324E6A63734D5441754E PUSH11 0x4D3349444D344D7934784D PUSH27 0x5167517941354C6A55314F43417A4F4451754E6A41774C4467754D SLOAD 0x4D PUSH27 0x49444D344E6934334D4441734E7934304E7A49674D7A67334C6A67 PUSH24 0x4D434244494455754D6A4D3549444D354D5334314D544973 0x4E NUMBER CALLVALUE PUSH24 0x4D7A6B674D7A6B794C6A4D324F43777A4C6A49784F53417A 0x4F SLOAD COINBASE PUSH22 0x4F444D3249454D674D6934344F5445674D7A6B774C6A 0x49 PUSH26 0x4D79777A4C6A41344D69417A4F446B754E6A6B774C4451754D54 PUSH8 0x3049444D344F4334 PUSH25 0x4D7A5967517941334C6A4D784E69417A4F444D754E7A49794C PREVRANDAO GASLIMIT PUSH27 0x4C6A45774D43417A4E7A51754E6A49354C44457A4C6A597A4D4341 PUSH27 0x4E7A4D754D6A673349454D674D5451754D54457A49444D334D6934 PUSH24 0x4E6A49734D546B754F446B7749444D324D6934314E6A4173 0x4D PUSH11 0x45754D6A497849444D324D NUMBER CALLVALUE CALLVALUE 0x4D PREVRANDAO COINBASE PUSH8 0x517941794D533434 0x4D PREVRANDAO 0x4D PUSH8 0x4D7A59774C6A417A 0x4D NUMBER PUSH24 0x794D6934314F4459674D7A55344C6A55314F5377794D6934 CALLDATALOAD 0x4E PUSH11 0x45674D7A55334C6A557A4D PUSH10 0x42444944497A4C6A4D7A 0x4E PUSH10 0x417A4E5459754E544130 0x4C PREVRANDAO 0x49 PUSH27 0x4C6A6B774D79417A4E5455754E4451334C4449304C6A49794D5341 PUSH27 0x4E5455754D54677A49454D674D6A51754E544D3549444D314E4334 CALLDATALOAD 0x4D SLOAD PUSH8 0x734D6A51754F4441 PUSH24 0x49444D314E4334314E6A59734D6A51754F44417749444D31 0x4E NUMBER CALLVALUE PUSH27 0x4F546B67517941794E4334344D4441674D7A55304C6A497A4D7977 PUSH26 0x4E5334304D7A6B674D7A557A4C6A41304D4377794E6934794D6A GASLIMIT PUSH8 0x4D7A55784C6A6330 0x4F NUMBER TIMESTAMP PREVRANDAO 0x49 PREVRANDAO 0x49 CALLVALUE 0x4C PUSH11 0x59334E69417A4E4463754E PUSH11 0x6B784C444D794C6A517A4E PUSH26 0x417A4D7A6B754E6A41774C444D7A4C6A67304E69417A4D7A5575 0x4D PUSH27 0x513249454D674D7A55754D7A637749444D7A4D4334334E4445734D PUSH27 0x55754E44597849444D794F5334784F5455734D7A51754E7A6B3449 PREVRANDAO 0x4D PUSH25 0x4F5334794D4441675179417A4E4334784D6A67674D7A41354C PUSH11 0x45774F43777A4D7934354D PUSH11 0x6B674D6A6B324C6A41784E PUSH10 0x777A4E4334304D444167 0x4D PUSH11 0x6B7A4C6A41774D43424449 PREVRANDAO 0x4D ADDRESS 0x4C PUSH11 0x59304D5341794F5445754E PREVRANDAO MSIZE PUSH24 0x4C444D304C6A6B354F4341794F4467754D7A45774C444D31 0x4C PUSH11 0x45354D7941794F4459754D PREVRANDAO COINBASE PUSH24 0x49454D674D7A55754E544578494449344D6934794D7A5173 0x4D PUSH27 0x59754E544930494449334E69347A4E7A45734D7A59754F54673049 PREVRANDAO 0x49 CALLER 0x4E MSTORE8 CALLVALUE ORIGIN 0x4D PUSH11 0x59675179417A4E7934774F PREVRANDAO GASLIMIT PUSH8 0x4D6A63314C6A5133 0x4D NUMBER PUSH24 0x7A4E79347A4E4455674D6A63304C6A49334E53777A4E7934 BALANCE 0x4E PUSH27 0x49674D6A63794C6A6B334D53424449444D344C6A41314D6941794E PUSH27 0x41754D6A45334C4451774C6A41334D7941794E6A49754F444D354C PREVRANDAO MLOAD PUSH24 0x4C6A6B774E6941794E6A41754F44417749454D674E444975 0x4F SLOAD COINBASE BALANCE 0x49 PREVRANDAO 0x49 BALANCE 0x4E MSTORE8 CALLVALUE CALLDATALOAD 0x4D SLOAD COINBASE PUSH20 0x4E444D754D7A5532494449314E53347A4E444973 0x4E PREVRANDAO MLOAD PUSH22 0x4F445532494449314E5334344D546767517941304E69 CALLVALUE PUSH24 0x4D7A4D674D6A55324C6A45354D5377304E5334344E446367 0x4D PUSH11 0x55334C6A59304D4377304E NUMBER CALLVALUE PUSH24 0x4D5449674D6A59794C6A51774D434244494451774C6A5930 0x4D MSTORE8 COINBASE PUSH26 0x4E7A45754D54517A4C444D354C6A41354D7941794E7A63754E6A MLOAD CALLER 0x4C PREVRANDAO 0x4D CALLER 0x4C PUSH11 0x6B324F5341794F4463754F PREVRANDAO COINBASE PUSH24 0x49454D674D7A63754E445530494449354D6934304E446B73 0x4D PUSH27 0x63754E446B3249444D794D5334774D7A41734D7A67754D44493049 PREVRANDAO 0x4D PUSH26 0x4E6934774D4441675179417A4F4334794E7A41674D7A49344C6A 0x4D PUSH25 0x4D43777A4F4334314D5459674D7A4D784C6A497A4F53777A4F NUMBER CALLVALUE BALANCE 0x4E PUSH27 0x45674D7A4D794C6A55774F43424449444D344C6A59304D79417A4D PUSH27 0x51754D5467324C444D344C6A67324E69417A4D7A51754F5459774C PREVRANDAO 0x4D CALLDATALOAD 0x4C PUSH11 0x4D344F43417A4D7A55754D PUSH27 0x517949454D674D7A6B754F446B7749444D7A4E5334334D446B734E PREVRANDAO COINBASE PUSH22 0x4D546B3549444D7A4E6934324F5459734E4441754E44 GASLIMIT CALLDATALOAD 0x49 PREVRANDAO 0x4D PUSH27 0x4F4334324D7A4D67517941304D4334354D6A55674D7A517A4C6A41 CALLDATALOAD 0x4E NUMBER PUSH24 0x304D6934784D5441674D7A51334C6A49344E4377304D7934 CALLER 0x4D SLOAD SSTORE PUSH8 0x4D7A55774C6A4934 0x4D NUMBER TIMESTAMP PREVRANDAO 0x49 PREVRANDAO MLOAD ADDRESS 0x4C PUSH11 0x41354D69417A4E5441754F SLOAD PUSH8 0x304C4451304C6A51 PUSH24 0x4D43417A4E5445754E7A4D7A4C4451304C6A51774D43417A 0x4E SLOAD GASLIMIT PUSH22 0x4F54513149454D674E4451754E44417749444D314D69 CALLVALUE BALANCE 0x4D PUSH11 0x6B734E4463754E54633249 PREVRANDAO 0x4D BALANCE 0x4E PUSH26 0x34354E6A51734E446B754D446B3249444D314F5334354F444D67 MLOAD PUSH26 0x41314D4334334F5463674D7A59794C6A49304D5377314D433434 0x4D PREVRANDAO PUSH12 0x674D7A59304C6A457A4D4377 ADDRESS 0x4F MSTORE8 CALLVALUE PUSH25 0x4D6A55674D7A59304C6A4D794E434244494451344C6A55784E MSTORE8 COINBASE PUSH27 0x4E6A51754D7A6B314C4451334C6A6B344D53417A4E6A51754E7A51 PUSH25 0x4C4451334C6A67354D69417A4E6A55754D54493049454D674E PREVRANDAO PUSH4 0x754E544D CALLER 0x49 PREVRANDAO 0x4D ORIGIN 0x4E PUSH10 0x34324E5445734E446775 0x4D PREVRANDAO PUSH12 0x3349444D334E7934774E5467 PUSH20 0x4E4467754E546B3149444D334F4334794D444167 MLOAD PUSH26 0x41304F4334344F444D674D7A63344C6A67324D4377304F533430 0x4D PUSH27 0x45674D7A67774C6A4D354D4377304F5334344D5451674D7A67784C PUSH11 0x59774D434244494455774C PUSH11 0x45354E79417A4F4449754F PREVRANDAO GASLIMIT PUSH24 0x4C4455774C6A63314E53417A4F4451754D7A6B784C445578 0x4C PUSH11 0x41314E53417A4F4455754D SLOAD GASLIMIT ADDRESS 0x49 GASLIMIT 0x4D PUSH8 0x4E5445754D7A5531 0x49 PREVRANDAO 0x4D CALLVALUE 0x4E MSTORE8 CALLVALUE CALLVALUE 0x4D PUSH27 0x59734E5445754E6A417749444D344E6934334D4451734E5445754E PUSH11 0x417749444D344E7934774E PREVRANDAO 0x49 PUSH8 0x517941314D533432 0x4D PREVRANDAO COINBASE PUSH8 0x4D7A67334C6A5930 0x4D PUSH10 0x77314E6934314E6A5967 0x4D PUSH27 0x6B334C6A51794E4377314E7934794E5451674D7A6B344C6A45344D NUMBER TIMESTAMP PREVRANDAO 0x49 PREVRANDAO SSTORE CALLER 0x4C PUSH11 0x51304E43417A4F5467754D PUSH27 0x67354C4455334C6A59774D43417A4F5467754F4467304C4455334C PUSH11 0x59774D43417A4F546B754D PUSH11 0x677749454D674E5463754E PUSH11 0x4177494451774D4334324D PUSH27 0x4D734E6A59754D6A4934494451774D43347A4E4441734E6A59754E SLOAD PUSH4 0x7849444D CALLDATALOAD 0x4F NUMBER CALLVALUE CALLDATALOAD 0x4E PUSH27 0x5567517941324E6934354D5455674D7A6B334C6A59774D7977324F NUMBER CALLVALUE CALLDATALOAD 0x4D PUSH11 0x6B674D7A6B334C6A63774D PUSH10 0x77324F5334784D6A6767 0x4D PUSH27 0x6B354C6A45774D434244494459354C6A49314D53417A4F546B754F SLOAD MSIZE BALANCE 0x4C PREVRANDAO MSIZE CALLDATALOAD 0x4C PUSH11 0x51784D6941304D4441754D PREVRANDAO COINBASE PUSH24 0x4C44637A4C6A49314D5341304D4441754D44417749454D67 0x4E PUSH27 0x63754F444D7A494451774D4334774D4441734E7A63754E7A593149 PREVRANDAO MLOAD PUSH24 0x4D4334794F5451734E7A51754D54517A49444D354E693478 0x4D PUSH11 0x6767517941324F4334774F SLOAD SSTORE PUSH8 0x4D7A67354C6A4533 0x4D PUSH26 0x77324E4334334D7A41674D7A67784C6A4D794D6977324E793479 0x4D PUSH11 0x59674D7A63354C6A6B344E PUSH10 0x4244494459344C6A4578 0x4F NUMBER COINBASE PUSH27 0x4E7A6B754E5441354C4459354C6A49774D43417A4F4441754D4455 PUSH26 0x4C4459354C6A49774D43417A4F4441754F54633449454D674E6A PUSH12 0x754D6A417749444D344D7934 PUSH25 0x4E7A4D734E7A51754D546B7949444D354D5334774E6A4D734E PUSH27 0x67754D6A6B3449444D354E53347A4E545967517941334F5334324D SLOAD GASLIMIT PUSH8 0x4D7A6B324C6A6379 0x4F MSTORE8 PUSH24 0x344D5334774D4449674D7A6B344C6A4D7A4E6977344D5334 PUSH27 0x4F446B674D7A6B344C6A6B794F43424D494467794C6A41354E4341 ADDRESS 0x4D PREVRANDAO COINBASE PUSH22 0x4D44417A4944457A4D5334344F446B674D7A6B354C6A PUSH12 0x774D69424D494445344D5334 ORIGIN 0x4F PREVRANDAO SSTORE PUSH8 0x4D7A6B354C6A6777 0x4D NUMBER COINBASE PUSH25 0x4F4449754F54517949444D354E7934314E544167517941784F PREVRANDAO SSTORE PUSH22 0x4E44593149444D354D7934774D7A59734D546B784C6A COINBASE CALLDATALOAD 0x4E NUMBER COINBASE PUSH27 0x4F4455754E7A41784C4445354E53347A4F4449674D7A67784C6A4D ADDRESS 0x4D MSTORE8 TIMESTAMP PREVRANDAO 0x49 PREVRANDAO 0x49 PUSH24 0x4D7934324E6A55674D7A63794C6A6B784F4377794D445575 0x4D SLOAD 0x4D PUSH25 0x49444D334D5334794D4441734D6A41304C6A417A4F53417A4E PUSH27 0x45754D6A417749454D674D6A417A4C6A51314E69417A4E7A45754D PUSH11 0x41774C4445354D5334304D PUSH27 0x6B674D7A63314C6A49314D7977784F5445754D44417749444D334E MSTORE8 CALLVALUE BALANCE 0x4F SLOAD PUSH4 0x67517941 PUSH25 0x4F5441754E7A677749444D334E5334334E7A41734D5467344C PUSH11 0x6B344D43417A4E7A59754D PUSH11 0x6B354C4445344E7934774D PREVRANDAO COINBASE PUSH8 0x4D7A63324C6A6333 0x4E NUMBER TIMESTAMP PREVRANDAO 0x49 PREVRANDAO GASLIMIT CALLVALUE 0x4E MSTORE8 CALLVALUE PUSH24 0x4D6A41674D7A63334C6A49304F4377784F4449754F545577 0x49 PREVRANDAO 0x4D CALLER 0x4E PUSH26 0x34344D7A55734D5467794C6A51774D43417A4E7A67754D446334 0x49 GASLIMIT 0x4D PUSH8 0x4D5467784C6A6731 0x4D NUMBER COINBASE PUSH27 0x4E7A67754D7A49784C4445344D4334324F4441674D7A63344C6A59 ORIGIN 0x4D PUSH26 0x77784E7A6B754F44417749444D334F4334344D7A6B6751794178 0x4E PUSH27 0x67754F54497749444D334F5334774D5455734D5463324C6A67314D NUMBER COINBASE PUSH27 0x4E7A6B754E5451324C4445334E5334794D4441674D7A67774C6A41 PUSH25 0x4F534244494445334D7934314E5441674D7A67774C6A51354D MSTORE8 PUSH24 0x784E7A45754D54417749444D344D5334774D5455734D5459 CALLDATALOAD 0x4C PUSH11 0x63314E53417A4F4445754D SLOAD PUSH8 0x7949454D674D5459 CALLVALUE 0x4C PUSH11 0x51774F53417A4F4445754D PUSH27 0x51354C4445324E7934784D5459674D7A67784C6A59774E4377784E PUSH11 0x59754F44677849444D344D MSTORE8 CALLVALUE CALLER 0x4E SLOAD COINBASE PUSH8 0x517941784E6A5975 0x4D PUSH27 0x597849444D344D6934774E7A45734D5459774C6A4D784D69417A4F PREVRANDAO 0x49 PUSH22 0x4F544D7A4C4445314D4334304D4441674D7A67304C6A COINBASE CALLDATALOAD 0x4E PUSH26 0x42444944457A4F4334784D7A6B674D7A67314C6A557A4F437778 0x4D SLOAD PUSH12 0x754D54453449444D344E5334 PUSH27 0x4D7A45734D5441324C6A41774D43417A4F444D754E6A453149454D PUSH8 0x4F5455754D445530 0x49 PREVRANDAO 0x4D CALLVALUE 0x4D PUSH10 0x34784F444D734F446375 0x4E PREVRANDAO GASLIMIT PUSH26 0x49444D344D43347A4F544D734F4441754E54457749444D334E79 CALLVALUE ORIGIN 0x4E PREVRANDAO MLOAD PUSH8 0x517941334F43347A 0x4E SLOAD PUSH12 0x674D7A63324C6A63344F4377 CALLER 0x4E PUSH10 0x34794F4445674D7A6331 0x4C PUSH11 0x6B344D6977334E5334344F SLOAD GASLIMIT PUSH8 0x4D7A63314C6A6731 0x4D PUSH26 0x4244494463304C6A67314E69417A4E7A55754E5445774C446330 0x4C PUSH11 0x55304F43417A4E7A51754D PUSH27 0x637A4C4463314C6A4D7A4E53417A4E7A4D754E7A6B3449454D674E PUSH27 0x59754E44637849444D334D6934354E6A63734E7A59754D44633249 PREVRANDAO 0x4D CALLER 0x4D PUSH10 0x34304E546B734E7A5175 0x4D SLOAD COINBASE PUSH24 0x49444D334D6934794D446B67517941334D5334794E6A6367 0x4D PUSH27 0x63784C6A67314D6977324F5334794E5467674D7A63784C6A497A4F MSTORE8 PUSH24 0x324E6934334D5445674D7A59354C6A6B314E534244494459 BALANCE 0x4C PUSH11 0x51314D79417A4E6A6B754D PUSH27 0x49774C4459304C6A49304D43417A4E6A67754F4441774C4459304C PUSH11 0x41784E79417A4E6A67754F PREVRANDAO COINBASE PUSH24 0x49454D674E6A49754F44637749444D324F4334344D444173 0x4E SLOAD PUSH12 0x754D6A4D3149444D324E6934 PUSH26 0x4D6A6B734E5455754E54457949444D324D6934334F4451675179 COINBASE ADDRESS 0x4E PUSH26 0x34334D7A59674D7A55314C6A55344F4377304F4334304F544967 0x4D PUSH27 0x51324C6A67774D4377314E6934344F4463674D7A51324C6A67774D NUMBER TIMESTAMP PREVRANDAO 0x49 PREVRANDAO SSTORE CALLVALUE 0x4C PUSH11 0x4D784D53417A4E4459754F PREVRANDAO COINBASE PUSH24 0x4C4459314C6A497A4F43417A4E4467754D7A6B774C445934 0x4C PUSH11 0x4D774D69417A4E446B754E PREVRANDAO 0x49 PUSH24 0x49454D674F4451754D7A4D3349444D314E4334344D544173 0x4F SLOAD COINBASE PUSH22 0x4E7A457749444D324E7934324D7A63734E7A6B754D7A MLOAD BALANCE 0x49 PREVRANDAO 0x4D CALLER 0x4D MSTORE8 CALLVALUE ORIGIN 0x4E PREVRANDAO PUSH12 0x67517941334E7934354E4455 PUSH8 0x4D7A63794C6A4530 0x4E NUMBER PUSH24 0x334E6934344D4441674D7A63794C6A59334D5377334E6934 CALLVALUE 0x4D PREVRANDAO COINBASE PUSH8 0x4D7A63794C6A6779 0x4D NUMBER TIMESTAMP PREVRANDAO 0x49 PREVRANDAO PUSH4 0x324C6A67 PUSH24 0x4D43417A4E7A4D754D6A49324C4467774C6A63304E79417A 0x4E PUSH27 0x51754E5467324C4467324C6A59774D43417A4E7A59754D546B3349 GASLIMIT 0x4D PUSH8 0x4F446B754E445977 0x49 PREVRANDAO 0x4D CALLER 0x4E PUSH10 0x34354F4451734F544975 0x4E PREVRANDAO 0x4D PUSH24 0x49444D334E7934344D4451734F544D754D6A417749444D33 0x4F NUMBER CALLVALUE PUSH24 0x4D546B67517941354E5334344E7A63674D7A63344C6A6332 0x4E PUSH10 0x77784D444D754D444978 0x49 PREVRANDAO 0x4D CALLER 0x4F MSTORE8 CALLVALUE CALLDATALOAD 0x4D SLOAD MSIZE PUSH20 0x4D5445774C6A51774D43417A4F4441754E7A6732 0x49 GASLIMIT 0x4D PUSH8 0x4D5449794C6A4532 0x4E PUSH10 0x417A4F4449754D546330 0x4C PREVRANDAO GASLIMIT ADDRESS 0x4E PUSH26 0x34784E444D674D7A67794C6A41334E4377784E5455754E444177 0x49 PREVRANDAO 0x4D CALLVALUE 0x4D NUMBER CALLVALUE ORIGIN 0x4D PREVRANDAO MSIZE PUSH8 0x517941784E546375 0x4D SLOAD MSIZE PUSH24 0x49444D344D4334794F5451734D5455354C6A45304D43417A 0x4E PUSH27 0x6B754F5455314C4445314F5334344D4441674D7A63354C6A67314E NUMBER TIMESTAMP PREVRANDAO 0x49 PREVRANDAO GASLIMIT ORIGIN 0x4F NUMBER CALLVALUE CALLER 0x4E SLOAD PUSH4 0x674D7A63 CALLVALUE 0x4C PUSH11 0x51344E6977784F4455754D PUSH11 0x673449444D334E4334314D SLOAD MSIZE PUSH20 0x4D546B7A4C6A41774D43417A4E7A45754F446777 0x49 GASLIMIT 0x4D PUSH8 0x4D546B324C6A5130 0x4D NUMBER COINBASE PUSH27 0x4E7A41754E7A41304C4445354F4334324E7A55674D7A59354C6A63 CALLVALUE 0x4D PUSH26 0x77794D4455754F44417749444D324E6934324D44556751794179 0x4D PREVRANDAO PUSH4 0x754D5463 CALLER 0x49 PREVRANDAO 0x4D ORIGIN 0x4E MSTORE8 CALLVALUE CALLDATALOAD 0x4F SLOAD GASLIMIT PUSH20 0x4D6A41354C6A6B314D43417A4E6A51754E546734 0x4C PREVRANDAO 0x49 PUSH25 0x4D79347A4E7A6B674D7A59794C6A63334D434244494449784E NUMBER CALLVALUE ORIGIN 0x4F PREVRANDAO PUSH4 0x674D7A59 PUSH26 0x4C6A41334E6977794D5459754E444D7849444D324D5334794E7A GASLIMIT PUSH20 0x4D6A45334C6A49314D79417A4E6A41754F546778 0x49 GASLIMIT 0x4D PUSH8 0x4D6A45344C6A4133 0x4E PUSH10 0x417A4E6A41754E6A6B78 0x4C PREVRANDAO 0x49 PUSH26 0x4D4334774F4463674D7A55354C6A55304D6977794D6A45754E7A 0x49 PUSH27 0x49444D314F4334304D6A6367517941794D6A4D754D7A553449444D BALANCE 0x4E PUSH26 0x347A4D5449734D6A49304C6A63354E43417A4E5459754E444177 0x4C PREVRANDAO 0x49 PUSH26 0x4E4334354D544D674D7A55324C6A51774D434244494449794E53 CALLVALUE PUSH27 0x4E6A55674D7A55324C6A51774D4377794D7A4D754E44513349444D BALANCE 0x4D MSTORE8 CALLVALUE PUSH25 0x4D5449734D6A4D304C6A51794D69417A4E5441754D54633549 GASLIMIT 0x4D PUSH8 0x4D6A4D304C6A6B34 0x4E NUMBER COINBASE PUSH27 0x4E446B754E6A51774C44497A4E5334314E4463674D7A51354C6A49 PUSH24 0x4D4377794D7A55754E6A633049444D304F5334794D444167 MLOAD PUSH26 0x41794D7A55754F44417849444D304F5334794D4441734D6A4D33 0x4C PUSH11 0x4D344E53417A4E4463754E PUSH11 0x677A4C44497A4F5334784F SLOAD SSTORE PUSH8 0x4D7A51314C6A6779 0x4F MSTORE8 TIMESTAMP PREVRANDAO 0x49 PREVRANDAO 0x49 ADDRESS 0x4D PUSH10 0x34304D4455674D7A5179 0x4C PUSH11 0x55304D5377794E444D754E PUSH11 0x417749444D304D5334354E PREVRANDAO SSTORE PUSH20 0x4D6A517A4C6A59774D43417A4E444D754E6A4D30 0x49 GASLIMIT 0x4D PUSH8 0x4D6A517A4C6A5977 0x4D NUMBER COINBASE PUSH27 0x4E4451754D7A6B794C44497A4F43347A4F5451674D7A55774C6A41 PUSH24 0x4D4377794D7A63754E6A6B7749444D314D4334774D444167 MLOAD PUSH26 0x41794D7A63754D54513249444D314D4334774D4441734D6A4D31 0x4C PUSH11 0x41314D69417A4E5449754D PREVRANDAO COINBASE ORIGIN 0x4C PREVRANDAO 0x49 PUSH27 0x4E4334794E7A63674D7A557A4C6A49334D4342444944497A4D7934 CALLDATALOAD 0x4D SLOAD PUSH4 0x674D7A55 PUSH27 0x4C6A67314F4377794D7A4D754D6A553349444D314E4334304E5455 PUSH20 0x4D6A4D794C6A67784D53417A4E5451754E546B33 0x49 GASLIMIT 0x4D PUSH8 0x4D6A4D794C6A4D32 0x4E MSTORE8 COINBASE PUSH27 0x4E5451754E7A4D344C44497A4D6934774D4441674D7A55314C6A45 PUSH27 0x4E5377794D7A49754D44417749444D314E5334304F444167517941 PUSH26 0x4D7A49754D44417749444D314E6934794D5441734D6A4D794C6A PUSH12 0x354E79417A4E5459754D5441 PUSH25 0x4C44497A4F4334304D4441674D7A55304C6A63344D43424449 PREVRANDAO 0x49 ADDRESS 0x4E NUMBER CALLVALUE PUSH26 0x4E6A59674D7A557A4C6A4D304E6977794E4459754D4445784944 0x4D BALANCE 0x4D PUSH26 0x34784D6A63734D6A557A4C6A49774D43417A4E5449754F544978 0x49 GASLIMIT 0x4D PUSH8 0x4D6A59774C6A5179 0x4D PUSH10 0x417A4E5449754E7A457A 0x4C PREVRANDAO 0x49 ORIGIN 0x4E PUSH26 0x34304D446B674D7A557A4C6A49774E6977794E7A45754F444932 0x49 PREVRANDAO 0x4D BALANCE 0x4E NUMBER CALLVALUE PUSH26 0x4D7A5567517941794E7A55754D6A417A49444D314E5334774D6A 0x49 PUSH20 0x4D6A63334C6A49354E79417A4E5451754F546B35 0x4C PREVRANDAO 0x49 CALLER 0x4E PUSH10 0x34794D6A51674D7A5530 0x4C PUSH11 0x45344E794244494449334E MSTORE8 CALLVALUE CALLER 0x4F SLOAD MSIZE PUSH8 0x4D7A557A4C6A6732 0x4E NUMBER PUSH24 0x794E7A55754D444D7849444D314D7934324D4441734D6A63 ADDRESS 0x4C PUSH11 0x55794E43417A4E544D754E PUSH11 0x417749454D674D6A63304C PUSH11 0x41784E69417A4E544D754E PUSH11 0x41774C4449334D7934324D PREVRANDAO COINBASE PUSH8 0x4D7A557A4C6A5179 0x4D NUMBER PUSH24 0x794E7A4D754E6A417749444D314D7934794D444167517941 PUSH26 0x4E7A4D754E6A417749444D314D6934354F4441734D6A637A4C6A MLOAD PUSH24 0x4F43417A4E5449754F4441774C4449334D7934784E7A5167 0x4D PUSH27 0x55794C6A67774D434244494449334D4334344E6A4D674D7A55794C PUSH11 0x67774D4377794E6A59754F PREVRANDAO COINBASE PUSH25 0x49444D304F5334324E5459734D6A59334C6A67784D43417A4E PREVRANDAO PUSH8 0x754E6A513449454D PUSH8 0x4D6A59344C6A5932 0x4E PUSH10 0x417A4E4463754E7A6B78 0x4C PREVRANDAO 0x49 ORIGIN 0x4F NUMBER CALLVALUE ORIGIN 0x4D PUSH11 0x63674D7A51334C6A63344E NUMBER PUSH24 0x794E7A49754D6A413449444D304F5334304D545967517941 PUSH26 0x4E7A59754D6A633449444D314D5334794E7A45734D6A67794C6A PUSH12 0x304E69417A4E544D754D7A6B BALANCE 0x4C PREVRANDAO 0x49 CALLVALUE 0x4E PUSH26 0x34794D4441674D7A55304C6A45354D534244494449344F533477 0x4E PUSH27 0x41674D7A55304C6A55304D5377794F5445754E7A637749444D314E MSTORE8 CALLVALUE PUSH24 0x4F4451734D6A6B7A4C6A49774D43417A4E5455754D7A6B34 0x49 GASLIMIT 0x4D PUSH8 0x4D6A6B304C6A597A 0x4D NUMBER COINBASE PUSH27 0x4E5455754E7A457A4C4449354F4334794D7A41674D7A55324C6A41 CALLER 0x4F MSTORE8 PUSH24 0x7A4D4445754D6A417749444D314E6934794D544D67517941 PUSH27 0x4D4451754D54637749444D314E69347A4E4459734D7A41334C6A63 CALLER 0x4D NUMBER COINBASE PUSH27 0x4E5459754E7A4D314C444D774F5334794D4441674D7A55334C6A41 CALLER 0x4E PUSH26 0x424449444D784D69347A4F5449674D7A55334C6A67304D43777A 0x4D PUSH11 0x63754E6A597949444D314E PUSH26 0x34314D4463734D7A4D794C6A49774D43417A4E5459754E546331 0x49 GASLIMIT 0x4D PUSH8 0x4D7A4D7A4C6A6330 0x4D NUMBER COINBASE PUSH27 0x4E5459754D6A55354C444D7A4E5334324D7A41674D7A55314C6A6B CALLDATALOAD 0x4E MSTORE8 PUSH24 0x7A4D7A59754E44417749444D314E5334354F446767517941 PUSH27 0x4D7A67754D44517749444D314E5334354E7A4D734D7A51314C6A51 PUSH24 0x4D69417A4E5451754E7A49794C444D304F4334774D444167 0x4D PUSH27 0x55304C6A41784F43424449444D304F4334354F5441674D7A557A4C PUSH11 0x63304F53777A4E5441754E PUSH27 0x6B7749444D314D7934794E6A4D734D7A55794C6A41774D43417A4E SLOAD 0x49 PUSH22 0x4F544D3449454D674D7A55314C6A49304E53417A4E54 0x49 PUSH22 0x4D4459324C444D324E6934304D5445674D7A51344C6A MLOAD PUSH26 0x4E69777A4E6A63754F44417749444D304E7934334F4467675179 COINBASE PUSH27 0x4E6A67754E44597749444D304E7934304F4455734D7A59354C6A6B PUSH24 0x4D43417A4E4459754F4467314C444D334D5334774D444167 0x4D PUSH27 0x51324C6A51314E53424449444D344E4334314E7A59674D7A51784C PUSH11 0x45314D4377304D4441754D PUSH11 0x673449444D7A4D4334324E PUSH27 0x41734D7A6B354C6A6B794E43417A4D6A63754D545979494577674D PUSH27 0x6B354C6A67774D43417A4D6A55754F54637849444D354F4334304D PREVRANDAO PUSH4 0x674D7A49 CALLER 0x4C PUSH11 0x49304F43424449444D344F MSTORE8 CALLVALUE CALLVALUE 0x4F PREVRANDAO GASLIMIT PUSH8 0x4D7A4D314C6A4132 0x4E NUMBER PUSH24 0x7A4F4445754D7A6B3549444D7A4D6934344E5455734D7A67 PUSH27 0x4C6A45324D79417A4D6A4D754D6A633449454D674D7A67304C6A51 PUSH26 0x4D53417A4D5459754E4455784C444D354E4334784D4463674D7A COINBASE ADDRESS 0x4C PUSH11 0x59784F43777A4F5467754E PREVRANDAO 0x4D CALLVALUE 0x49 PREVRANDAO 0x4D PUSH24 0x4E4334324D5467675179417A4F546B754E7A6B3249444D77 0x4E NUMBER CALLVALUE ORIGIN 0x4D SLOAD PUSH8 0x734E4441774C6A41 PUSH24 0x4D43417A4D4451754E446B354C4451774D4334774D444167 0x4D PUSH27 0x417A4C6A63774F534244494451774D4334774D4441674D7A417A4C PUSH11 0x49774F53777A4F546B754F PREVRANDAO 0x49 PUSH24 0x49444D774D6934344D4441734D7A6B354C6A59774D43417A 0x4D PREVRANDAO 0x49 PUSH22 0x4F44417749454D674D7A6B354C6A4D344D43417A4D44 0x49 PUSH22 0x4F4441774C444D354F5334794D4441674D7A41794C6A MLOAD ADDRESS 0x4D NUMBER PUSH24 0x7A4F546B754D6A417749444D774D6934774D444167517941 PUSH27 0x4F546B754D6A417749444D774D5334314E6A41734D7A6B354C6A4D CALLVALUE 0x4D NUMBER COINBASE PUSH27 0x4D4445754D6A41774C444D354F5334324D4441674D7A41784C6A49 PUSH24 0x4D43424449444D354F5334344E5467674D7A41784C6A4977 0x4D NUMBER PUSH24 0x304D4441754D444177494449354E6934334D546B734E4441 PUSH24 0x4C6A41774D4341794F4467754E545534494577674E444177 0x4C PUSH11 0x41774D4341794E7A55754F SLOAD GASLIMIT BALANCE 0x49 PREVRANDAO 0x4D CALLDATALOAD 0x4F NUMBER CALLVALUE CALLVALUE 0x4E SLOAD PUSH8 0x674D6A63304C6A51 BALANCE 0x4F NUMBER TIMESTAMP PREVRANDAO 0x49 PREVRANDAO 0x4D CALLDATALOAD 0x4F NUMBER CALLVALUE PUSH26 0x4D6A6B674D6A637A4C6A59314E69777A4F5463754D7A51344944 0x49 CALLER 0x4D PUSH10 0x34774D5441734D7A6B32 0x4C PUSH11 0x6B774D4341794E7A41754F PREVRANDAO COINBASE PUSH24 0x49454D674D7A6B314C6A67344E7941794E6A67754D445931 0x4C PREVRANDAO 0x4D CALLDATALOAD 0x4D MSTORE8 CALLVALUE BALANCE 0x4E PUSH11 0x55674D6A55354C6A45314D PUSH26 0x777A4F5441754D6A4135494449314E7934774D4441675179417A 0x4F PREVRANDAO PUSH12 0x754E6A5530494449314E6934 PUSH25 0x4D6A41734D7A67344C6A67304D5341794E5451754E546B774C PREVRANDAO 0x4D CALLVALUE 0x4F NUMBER CALLVALUE ADDRESS 0x4D PREVRANDAO GASLIMIT PUSH8 0x4D6A557A4C6A5977 0x4D NUMBER TIMESTAMP PREVRANDAO 0x49 PREVRANDAO 0x4D CALLVALUE 0x4E PUSH26 0x34354E6A45674D6A55794C6A59784D43777A4F4463754E445932 0x49 PREVRANDAO 0x49 BALANCE 0x4D MSTORE8 CALLVALUE BALANCE 0x4F SLOAD PUSH12 0x734D7A67334C6A4D774D4341 PUSH26 0x4E5445754D7A553049454D674D7A67314C6A67324D5341794E44 PUSH12 0x754D6A45334C444D344D7934 CALLER 0x4E PUSH11 0x51674D6A51324C6A49344E PUSH26 0x777A4F4449754E6A4135494449304E4334344D4441675179417A 0x4F PREVRANDAO GASLIMIT PUSH22 0x4F445178494449304D7934344D5441734D7A67774C6A MLOAD CALLDATALOAD 0x4F MSTORE8 COINBASE PUSH26 0x4E4445754F5467354C444D334F5334324D6A67674D6A51774C6A PUSH4 0x314E4342 PREVRANDAO 0x49 PREVRANDAO 0x4D CALLER 0x4F NUMBER CALLVALUE CALLER 0x4E SLOAD MSIZE PUSH8 0x4D6A4D354C6A5578 0x4F NUMBER PUSH24 0x7A4E7A63754E446B774944497A4F4334774E4449734D7A63 ORIGIN 0x4C PUSH11 0x67784D7941794D7A63754E PREVRANDAO PUSH4 0x7949454D PUSH8 0x4D7A63324C6A457A 0x4E PUSH26 0x41794D7A59754F54417A4C444D334E4334334E5445674D6A4D31 0x4C PUSH11 0x49784E43777A4E7A4D754E PUSH27 0x4D7A4944497A4D7934334D546B675179417A4E7A49754E7A453249 PREVRANDAO 0x49 PUSH27 0x4D6934794D6A4D734D7A63784C6A49774E7941794D7A41754D4445 PUSH24 0x4C444D334D43347A4F4449674D6A49344C6A67774D434244 0x49 PREVRANDAO 0x4D ORIGIN 0x4F MSTORE8 CALLVALUE BALANCE 0x4E SLOAD MSIZE PUSH8 0x4D6A49334C6A5535 0x4D NUMBER PUSH24 0x7A4E6A59754E444D79494449794E4334784D6A59734D7A59 PUSH27 0x4C6A51304D4341794D6A45754D54417A49454D674D7A59774C6A51 ADDRESS 0x4F NUMBER COINBASE PUSH26 0x4D5467754D4463354C444D314F4334774D4441674D6A45314C6A SSTORE PUSH26 0x4D69777A4E5467754D444177494449784E5334304D6A41675179 COINBASE PUSH27 0x4E5467754D444177494449784E53347A4D546B734D7A55334C6A55 BALANCE 0x4D NUMBER COINBASE PUSH26 0x4D5451754E5463794C444D314E7934774D4441674D6A457A4C6A PUSH4 0x324D6942 PREVRANDAO 0x49 PREVRANDAO 0x4D BALANCE 0x4E MSTORE8 CALLVALUE CALLER 0x4D PUSH27 0x51674D6A45784C6A67354E79777A4E5455754E6A5931494449784D NUMBER CALLVALUE ADDRESS 0x4D PREVRANDAO COINBASE PUSH20 0x4D7A55324C6A67304E5341794D5441754E444177 0x49 GASLIMIT 0x4D PUSH8 0x4D7A55344C6A4D32 0x4E MSTORE8 COINBASE PUSH26 0x4D5441754E4441774C444D324D4334344D7A51674D6A45794C6A MSIZE BALANCE 0x4D MSTORE8 PUSH24 0x7A4E7A41754E445135494449794D6934344D444967517941 PUSH27 0x4E7A63754D6A6B774944497A4D4334774D6A55734D7A67774C6A51 PUSH26 0x4E5341794D7A4D754E6A63324C444D344D6934344D4441674D6A 0x4D CALLER 0x4C PUSH11 0x45344F43424449444D344D PUSH26 0x34784D7A41674D6A4D334C6A59334E69777A4F444D754E7A4531 0x49 PREVRANDAO 0x49 PUSH27 0x4F4334304E4455734D7A67304C6A45774D4341794D7A67754F446B CALLDATALOAD 0x49 GASLIMIT 0x4D PUSH8 0x4D7A67304C6A5134 0x4E MSTORE8 COINBASE PUSH26 0x4D7A6B754D7A55794C444D344E4334344D4441674D6A4D354C6A PUSH12 0x324E53777A4F4451754F4441 PUSH24 0x494449304D4334794E6A45675179417A4F4451754F444177 0x49 PREVRANDAO 0x49 ADDRESS 0x4D NUMBER CALLVALUE BALANCE 0x4E SLOAD PUSH8 0x734D7A67304C6A6B PUSH27 0x4E5341794E4441754F4441784C444D344E5334784D4441674D6A51 PUSH24 0x4C6A67774D69424449444D344E5334794E6A55674D6A5177 0x4C PUSH11 0x67774D79777A4F4459754D SLOAD PUSH8 0x31494449304D5334 CALLDATALOAD 0x4E PUSH27 0x4D734D7A67334C6A45304E5341794E444D754E44417949454D674D PUSH27 0x67344C6A45774E4341794E4451754F444D784C444D344F5334774E PREVRANDAO PUSH12 0x674D6A51324C6A41774D4377 PUSH27 0x4F446B754D6A5131494449304E6934774D4441675179417A4F446B PUSH22 0x4E445177494449304E6934774D4441734D7A67354C6A MSIZE PUSH24 0x4D4341794E4459754D6A517A4C444D344F5334324D444167 0x4D PUSH11 0x51324C6A55304D43424449 PREVRANDAO 0x4D CALLVALUE 0x4F MSTORE8 CALLVALUE ORIGIN 0x4D PREVRANDAO COINBASE PUSH8 0x4D6A51324C6A677A 0x4E PUSH26 0x777A4F5441754D544132494449304E7934334F4449734D7A6B77 0x4C PUSH11 0x63794E4341794E4467754E PUSH11 0x517749454D674D7A6B784C PUSH11 0x4D304D6941794E446B754E PREVRANDAO PUSH12 0x344C444D354D5334354E6A59 PUSH8 0x4D6A55774C6A5578 0x4E MSTORE8 PUSH24 0x7A4F5449754D544578494449314D4334354D444167517941 PUSH27 0x4F5449754D6A5532494449314D5334794F4455734D7A6B794C6A55 ORIGIN 0x4D MSTORE8 COINBASE PUSH26 0x4E5445754E6A41774C444D354D6934334F4463674D6A55784C6A MSIZE PUSH24 0x4D43424449444D354D7934774D5451674D6A55784C6A5977 0x4D NUMBER PUSH24 0x7A4F544D754D6A4177494449314D5334344E7A49734D7A6B PUSH27 0x4C6A49774D4341794E5449754D6A413049454D674D7A6B7A4C6A49 PUSH24 0x4D4341794E5449754E544D324C444D354D7934314E6A4167 0x4D PUSH11 0x557A4C6A45784E69777A4F SLOAD MLOAD PUSH22 0x4D444177494449314D7934304F544D675179417A4F54 MLOAD PUSH22 0x4E445177494449314D7934344E7A41734D7A6B304C6A PUSH8 0x774D4341794E5451 PUSH22 0x4E4445784C444D354E4334344D4441674D6A55304C6A MSIZE CALLDATALOAD 0x4E PUSH26 0x424449444D354E4334344D4441674D6A55304C6A6B344D69777A 0x4F SLOAD SSTORE PUSH22 0x4D6A4931494449314E5334344F446B734D7A6B314C6A PUSH4 0x304E4341 PUSH26 0x4E5459754E7A457849454D674D7A6B324C6A49324D7941794E54 PUSH4 0x754E544D PUSH27 0x4C444D354E7934774E5441674D6A55344C6A6B794E53777A4F5463 PUSH22 0x4E446B79494449314F5334344D444D675179417A4F54 PUSH12 0x754E545530494449324D7934 CALLVALUE 0x4F SLOAD PUSH8 0x734D7A6B354C6A63 CALLVALUE 0x4E PUSH10 0x41794E6A51754D6A5179 0x4C PREVRANDAO 0x4D CALLDATALOAD 0x4F MSTORE8 CALLVALUE CALLDATALOAD 0x4D SLOAD 0x49 PUSH8 0x4D6A597A4C6A4D35 0x4D NUMBER TIMESTAMP PREVRANDAO 0x49 PREVRANDAO MLOAD PUSH24 0x4D4334774E4441674D6A59794C6A55794E43777A4F546375 0x4D PREVRANDAO GASLIMIT CALLDATALOAD 0x49 PREVRANDAO 0x49 BALANCE 0x4E PUSH10 0x34324F4451734D7A6B30 0x4C PUSH11 0x49794E6941794E5449754E PREVRANDAO COINBASE PUSH24 0x49454D674D7A67334C6A51324F5341794E4449754D444D7A 0x4C PREVRANDAO 0x4D CALLVALUE 0x4E PUSH10 0x34794D4451674D6A5177 0x4C PUSH11 0x457A4D69777A4F4455754E PUSH27 0x45774944497A4F5334324D4441675179417A4F4455754E44417A49 PREVRANDAO 0x49 PUSH27 0x4F5334794E7A41734D7A67304C6A51304D6941794D7A67754D4445 PUSH24 0x4C444D344D7934314E7A55674D6A4D324C6A67774D434244 0x49 PREVRANDAO 0x4D CALLVALUE 0x4D MSTORE8 CALLVALUE ADDRESS 0x4E PUSH27 0x4D674D6A4D7A4C6A67324F43777A4F4445754E7A49774944497A4E NUMBER CALLVALUE PUSH25 0x4F5441734D7A63354C6A41774D4341794D7A41754F44493549 GASLIMIT 0x4D PUSH8 0x4D7A63334C6A5934 0x4D NUMBER COINBASE PUSH26 0x4D6A6B754D546B344C444D334E6934784E5441674D6A49334C6A 0x4D CALLDATALOAD 0x4D PUSH10 0x777A4E7A55754E6A4177 0x49 PREVRANDAO 0x49 PUSH26 0x4E6934344D5459675179417A4E6A55754D7A4530494449784E69 CALLVALUE PUSH24 0x4E4455734D7A59794C6A4D334D4341794D5449754E7A6379 0x4C PREVRANDAO 0x4D ORIGIN 0x4D PUSH10 0x34324D5449674D6A4579 0x4C PUSH11 0x4D344D43424449444D324D PUSH26 0x34774E7A41674D6A45784C6A597A4F53777A4E6A51754D446779 0x49 PREVRANDAO 0x49 PUSH25 0x4D6934774D546B734D7A59314C6A55354F4341794D544D754E SLOAD COINBASE PUSH24 0x49454D674D7A63774C6A41354D5341794D5463754F446B77 0x4C PREVRANDAO 0x4D CALLER 0x4D NUMBER CALLVALUE BALANCE 0x4E PUSH27 0x55674D6A45334C6A6B774D79777A4E6A6B754D6A4177494449784D PUSH26 0x34324D4441675179417A4E6A67754E7A5977494449784D693479 0x4D PUSH11 0x4D734D7A59344C6A51774D NUMBER COINBASE PUSH26 0x4D5441754E7A55344C444D324F4334304D4441674D6A45774C6A 0x4D ADDRESS 0x4E PUSH10 0x424449444D324F433430 0x4D PREVRANDAO COINBASE PUSH8 0x4D6A41354C6A6B7A 0x4E NUMBER PUSH24 0x7A4E6A63754F544D31494449774F4334324E5449734D7A59 CALLER 0x4C PUSH11 0x4D324E6941794D4463754E PREVRANDAO PUSH12 0x3449454D674D7A59314C6A51 ADDRESS 0x4E NUMBER COINBASE PUSH26 0x4D444D754E546B304C444D324E5334784E5459674D6A41794C6A SSTORE PUSH24 0x4D53777A4E6A55754F445934494449774D5334334F446B67 MLOAD PUSH26 0x417A4E6A59754E6A5979494449774D4334354F5455734D7A5933 0x4C PUSH11 0x59334E6941794D4445754E PUSH27 0x63304C444D324F43347A4F544D674D6A417A4C6A63794F53424449 PREVRANDAO 0x4D ORIGIN 0x4F NUMBER CALLVALUE ORIGIN 0x4E PREVRANDAO PUSH12 0x674D6A41304C6A51794F4377 PUSH27 0x4E6A6B754D544179494449774E5334314E4441734D7A59354C6A4D CALLDATALOAD 0x4F NUMBER COINBASE PUSH26 0x4D4459754D6A417749454D674D7A59354C6A59354E5341794D44 MSIZE PUSH22 0x4F4459774C444D334D4334774E7A67674D6A41344C6A GASLIMIT PUSH26 0x4D43777A4E7A41754D6A5134494449774F5334774D4441675443 COINBASE PUSH27 0x4E7A41754E545535494449784D4334324D4441674D7A63774C6A63 CALLER 0x4F MSTORE8 COINBASE PUSH26 0x4D4467754F44417749454D674D7A63784C6A49784E5341794D44 SSTORE PUSH22 0x4D6A51354C444D334D7934794E4463674D6A41324C6A 0x4D PUSH25 0x4D79777A4E7A51754E6A4178494449784D4334344D44416751 PUSH26 0x417A4E7A51754F545932494449784D6934774D5441734D7A6331 0x4C PUSH11 0x51304E4341794D544D754E PREVRANDAO MLOAD ORIGIN 0x4C PREVRANDAO 0x4D CALLER 0x4E MSTORE8 CALLVALUE ORIGIN 0x4E PUSH11 0x55674D6A457A4C6A6B354D NUMBER TIMESTAMP PREVRANDAO 0x49 PREVRANDAO 0x4D CALLER 0x4E PUSH10 0x34794D7A49674D6A4531 0x4C PUSH11 0x4D354E43777A4E7A51754E PUSH11 0x6330494449784E6934334E PUSH27 0x49734D7A637A4C6A59774F4341794D5455754F44413349454D674D PUSH27 0x63794C6A6B354E5341794D5455754D6A55794C444D334D6934344E PUSH11 0x41674D6A45314C6A49334D MSTORE8 PUSH24 0x7A4E7A49754D6A417A494449784E5334354F546367517941 PUSH27 0x4E7A45754F44417A494449784E6934304D7A6B734D7A63784C6A49 PUSH27 0x4E4341794D5459754F4441774C444D334D4334354D7A67674D6A45 ORIGIN 0x4C PUSH11 0x67774D43424449444D324F MSTORE8 CALLVALUE CALLDATALOAD 0x4D SLOAD MLOAD PUSH8 0x4D6A45324C6A6777 0x4D NUMBER PUSH24 0x7A4E7A41754E444535494449784E7934344D446B734D7A63 PUSH26 0x4C6A557A4F5341794D6A41754D44417749454D674D7A637A4C6A PUSH4 0x774F5341 PUSH26 0x4D6A45754D6A45774C444D334E5334334E5459674D6A497A4C6A MLOAD ORIGIN 0x4D NUMBER PUSH24 0x7A4E7A63754D446733494449794E5334774D444167517941 PUSH27 0x4F4441754D444D31494449794F4334304D5441734D7A67784C6A55 CALLDATALOAD 0x4E PUSH10 0x41794D7A41754D54597A 0x4C PREVRANDAO 0x4D CALLVALUE 0x4D PUSH26 0x347A4D6A4D674D6A4D794C6A41774D43424449444D344E693479 0x4F PREVRANDAO GASLIMIT PUSH8 0x4D6A4D314C6A4530 0x4E PUSH26 0x777A4F4467754F4451314944497A4F4334304D7A4D734D7A6B78 0x4C PUSH11 0x55354E4341794E4449754E PUSH11 0x417749454D674D7A6B7A4C PUSH11 0x45354D5341794E4455754D PREVRANDAO 0x49 PUSH24 0x4C444D354E4334344D7A55674D6A51334C6A51314D43777A 0x4F SLOAD SSTORE PUSH22 0x4D6A5134494449304F4334774D4441675179417A4F54 SSTORE PUSH22 0x4E6A5978494449304F4334314E5441734D7A6B324C6A SSTORE CALLVALUE 0x4E NUMBER COINBASE PUSH26 0x4E5441754D4459774C444D354E7934794F546B674D6A55784C6A 0x4D BALANCE 0x4E PUSH26 0x424449444D354F5334774D5441674D6A55304C6A51314E53777A 0x4F SLOAD PUSH12 0x754E444935494449314E5334 PUSH25 0x4E6A49734D7A6B354C6A63304D4341794E5455754E44633049 GASLIMIT 0x4D PUSH8 0x4D7A6B354C6A6734 0x4D PUSH26 0x41794E5455754E6A45334C4451774D4334774D4441674D6A5179 0x4C PUSH11 0x41304E5377304D4441754D PREVRANDAO COINBASE PUSH24 0x494449794E53347A4D545167544341304D4441754D444177 0x49 PREVRANDAO GASLIMIT CALLDATALOAD 0x4E NUMBER CALLVALUE CALLVALUE 0x4F SLOAD SSTORE PUSH8 0x4D7A6B344C6A4577 0x4D NUMBER COINBASE PUSH25 0x4F5451754D6A413549454D674D7A6B334C6A41314E5341784F SLOAD 0x4D PUSH22 0x4F444D784C444D354E5334774D7A41674D546B7A4C6A 0x4D CALLER 0x4E PUSH26 0x777A4F544D754E6A4177494445354D7934784F546B675179417A 0x4F SLOAD COINBASE PUSH22 0x4F446330494445354D6934344E546B734D7A67354C6A COINBASE PUSH24 0x4E6941784F5449754D7A45784C444D344E7934774D444167 0x4D SLOAD PUSH12 0x784C6A49324D53424449444D CALLVALUE 0x4E PUSH10 0x347A4E4441674D546B77 0x4C PUSH11 0x6B784E69777A4F4451754F SLOAD PUSH12 0x77494445354D4334304F5467 PUSH20 0x4D7A67304C6A41774D4341784F5441754D7A4D79 0x49 GASLIMIT 0x4D PUSH8 0x4D7A677A4C6A4178 0x4D NUMBER COINBASE PUSH25 0x4F5441754D5459334C444D344D5334784F5451674D5467354C PUSH11 0x67324E43777A4E7A6B754F SLOAD MSIZE ADDRESS 0x49 PREVRANDAO GASLIMIT CALLVALUE 0x4F MSTORE8 CALLVALUE ORIGIN 0x4E SLOAD PUSH12 0x675179417A4E7A4D754D4455 ORIGIN 0x49 PREVRANDAO GASLIMIT CALLVALUE 0x4F NUMBER CALLVALUE BALANCE 0x4D PREVRANDAO PUSH8 0x734D7A63794C6A51 PUSH24 0x4E4341784F4451754E54677A4C444D334F5334774F444D67 0x4D SLOAD PUSH8 0x304C6A4D314D7942 PREVRANDAO 0x49 PREVRANDAO 0x4D CALLVALUE 0x4D PUSH10 0x34774F4467674D546730 0x4C PUSH11 0x49314D43777A4F4463754E PUSH11 0x5135494445344E5334774D PREVRANDAO MSIZE PUSH20 0x4D7A67354C6A4D774D7941784F4455754E7A517A 0x49 GASLIMIT 0x4D PUSH8 0x4D7A6B784C6A5932 0x4D MSTORE8 COINBASE PUSH25 0x4F4459754E7A6B7A4C444D354D7934794F5463674D5467334C PUSH11 0x49774D43777A4F5455754D SLOAD MSIZE ORIGIN 0x49 PREVRANDAO GASLIMIT CALLVALUE 0x4E PUSH26 0x34794D4441675179417A4F5459754D6A5134494445344E793479 0x4D PREVRANDAO COINBASE PUSH20 0x4D7A6B334C6A597A4D4341784F4463754E544D78 0x4C PREVRANDAO 0x4D CALLDATALOAD 0x4F NUMBER CALLVALUE BALANCE 0x4D PREVRANDAO MSIZE PUSH8 0x4D5467344C6A4177 0x4D MSTORE8 TIMESTAMP PREVRANDAO 0x49 PREVRANDAO 0x4D CALLDATALOAD 0x4F MSTORE8 CALLVALUE CALLDATALOAD 0x4D PREVRANDAO PUSH12 0x674D5467344C6A63314D7977 ADDRESS 0x4D PREVRANDAO COINBASE PUSH22 0x4D444177494445344F4334334E5467734E4441774C6A COINBASE PUSH24 0x4D4341784F4467754D44673249454D674E4441774C6A4177 0x4D NUMBER COINBASE PUSH25 0x4F4463754D7A49774C444D354E6934334D7A6B674D5467324C PUSH11 0x41344E69777A4F5449754E PREVRANDAO COINBASE PUSH24 0x494445344E5334794D5441675179417A4F4451754E7A6732 0x49 PREVRANDAO GASLIMIT CALLVALUE 0x4D PUSH26 0x34324E7A49734D7A67784C6A67344D6941784F444D754D6A4933 0x4C PREVRANDAO 0x4D CALLER 0x4F MSTORE8 CALLVALUE PUSH27 0x4E7A4D674D54677A4C6A49784E43424449444D334E6934334D7A59 PUSH8 0x4D54677A4C6A4977 0x4D MSTORE8 PUSH24 0x7A4E7A49754E6A4534494445344D69347A4D6A51734D7A63 PUSH25 0x4C6A67334E4341784F4445754E6A453449454D674D7A59354C PUSH11 0x59324D4341784E7A6B754E SLOAD GASLIMIT BALANCE 0x4C PREVRANDAO 0x4D CALLVALUE 0x4D MSTORE8 CALLVALUE PUSH24 0x4D6A63674D5463354C6A59344E53777A4F4467754E444177 0x49 PREVRANDAO GASLIMIT CALLVALUE 0x4D MSTORE8 CALLVALUE CALLVALUE 0x4E PUSH11 0x55675179417A4F5441754D PUSH11 0x6377494445344D6934304D SLOAD PUSH8 0x734D7A6B794C6A4D ADDRESS 0x4D NUMBER COINBASE PUSH25 0x4F444D754D4445354C444D354D7934774D4441674D54677A4C PUSH11 0x49774D53424449444D354D PUSH26 0x34324E6A41674D54677A4C6A4D344D69777A4F5455754D546B77 0x49 PREVRANDAO GASLIMIT CALLVALUE 0x4D PUSH26 0x34344D444D734D7A6B324C6A51774D4341784F4451754D544D33 0x49 GASLIMIT 0x4D PUSH8 0x4D7A6B334C6A5978 0x4D NUMBER COINBASE PUSH25 0x4F4451754E4463774C444D354F4334354D5455674D5467304C PUSH11 0x67324E53777A4F546B754D PUSH27 0x4177494445344E5334774D5451675179417A4F546B754E7A597749 PREVRANDAO GASLIMIT CALLVALUE 0x4E MSTORE8 CALLVALUE PUSH25 0x4F544D734E4441774C6A41774D4341784F4455754D446B324C PREVRANDAO MLOAD PUSH24 0x4D4334774D4441674D5467304C6A637A4D53424449445177 0x4D NUMBER CALLVALUE PUSH24 0x4D4441674D5467304C6A45344F53777A4F5459754D545131 0x49 PREVRANDAO GASLIMIT CALLVALUE 0x4D PUSH10 0x34344D4441734D7A6B30 0x4C PUSH11 0x59304D5341784F4449754F PREVRANDAO COINBASE PUSH24 0x49454D674D7A6B304C6A49304E5341784F4449754F444177 0x4C PREVRANDAO 0x4D CALLDATALOAD 0x4D PUSH26 0x347A4E5451674D5467794C6A55324D43777A4F5449754E6A5977 0x49 PREVRANDAO GASLIMIT CALLVALUE 0x4D PUSH10 0x34794E6A59675179417A 0x4F SLOAD GASLIMIT PUSH22 0x4D445931494445344D5334314F5441734D7A67344C6A PUSH12 0x354E5341784F4441754F4455 PUSH26 0x4C444D344E7934794D4459674D5467774C6A4D794D7942444944 0x4D CALLVALUE 0x4E PUSH10 0x34304E4441674D546777 0x4C PUSH11 0x41354E69777A4F4455754D PUSH27 0x6733494445334F5334314E7A55734D7A67304C6A67324E6941784E PUSH27 0x6B754D54593249454D674D7A67304C6A4D304E5341784E7A67754E PUSH27 0x55324C444D344D7934794E6A49674D5463344C6A4D774D69777A4F PREVRANDAO 0x49 PUSH22 0x4E445535494445334F4334784E5463675179417A4F44 GASLIMIT PUSH22 0x4E6A5533494445334F4334774D5449734D7A67774C6A SSTORE ADDRESS 0x4D MSTORE8 COINBASE PUSH25 0x4E7A63754E6A59784C444D334F5334354F4441674D5463334C PUSH11 0x4D334F43424449444D334F MSTORE8 CALLVALUE ADDRESS 0x4D SLOAD PUSH12 0x674D5463334C6A41354E4377 PUSH27 0x4E7A63754D7A5135494445334E6934324E6A55734D7A63314C6A4D CALLVALUE 0x4D NUMBER COINBASE PUSH25 0x4E7A59754E44493149454D674D7A637A4C6A51784D5341784E PUSH27 0x59754D5467314C444D334D4334344D5441674D5463314C6A63344D PUSH26 0x777A4E6A6B754E6A4177494445334E5334314D7A49675179417A 0x4E PUSH11 0x67754D7A6B77494445334E MSTORE8 CALLVALUE PUSH26 0x4F4445734D7A59324C6A59344D4341784E7A55754D54417A4C44 0x4D ORIGIN 0x4E MSTORE8 CALLVALUE CALLVALUE 0x4D PREVRANDAO COINBASE PUSH8 0x4D5463314C6A457A 0x4E PUSH10 0x424449444D324E433435 0x4D PUSH11 0x41674D5463314C6A45324F MSTORE8 PUSH24 0x7A4E6A49754D445177494445334E4334354F4467734D7A55 CALLDATALOAD 0x4C PUSH11 0x51774D4341784E7A51754E PUSH27 0x4D3049454D674D7A55324C6A63324D4341784E7A51754E4467774C PREVRANDAO 0x4D BALANCE 0x4D PUSH10 0x34354E5449674D546330 0x4C PUSH11 0x4D774E53777A4E5441754F SLOAD 0x4D CALLER 0x49 PREVRANDAO GASLIMIT CALLER 0x4E NUMBER CALLVALUE PUSH27 0x4E4463675179417A4E4467754D7A6B33494445334E43347A4F546B PUSH20 0x4D7A51324C6A63304D6941784E7A51754D6A4930 0x4C PREVRANDAO 0x4D ADDRESS 0x4E MSTORE8 CALLVALUE BALANCE 0x4D PUSH27 0x63674D54637A4C6A63334F43424449444D304E4334314F4449674D SLOAD PUSH4 0x7A4C6A51 PUSH26 0x4E43777A4E444D754D7A6B31494445334D7934774D7A67734D7A MLOAD PUSH26 0x4C6A6B774D4341784E7A49754F54497849454D674D7A51784C6A 0x4D BALANCE 0x4F MSTORE8 COINBASE PUSH25 0x4E7A49754E5455304C444D304D5334344F5441674D5463784C PUSH11 0x59354D43777A4E444D754F SLOAD 0x49 ADDRESS 0x49 PREVRANDAO GASLIMIT CALLER 0x4D MSTORE8 CALLVALUE PUSH26 0x4E5451675179417A4E4459754E446334494445334D4334334D44 MSIZE PUSH20 0x4D7A59344C6A45794D5341784E7A41754E6A6732 0x4C PREVRANDAO 0x4D CALLER 0x4D NUMBER CALLVALUE PUSH26 0x4D4441674D5463784C6A497A4D43424449444D334D5334774F44 COINBASE PUSH8 0x4D5463784C6A5132 0x4D NUMBER PUSH24 0x7A4E7A4D754E7A6777494445334D6934774E6A63734D7A63 ORIGIN 0x4C PUSH11 0x49774D4341784E7A49754E SLOAD PUSH4 0x3549454D PUSH8 0x4D7A67774C6A6333 0x4D NUMBER COINBASE PUSH25 0x4E7A4D754E5451334C444D344D7934314D4445674D5463304C PUSH11 0x4D334F53777A4F4455754E PREVRANDAO SSTORE ORIGIN 0x49 PREVRANDAO GASLIMIT CALLER 0x4E MSTORE8 CALLVALUE PUSH27 0x4F546B675179417A4F4459754D446731494445334E5334334D6A63 PUSH20 0x4D7A67324C6A63344D4341784E7A55754F546B33 0x4C PREVRANDAO 0x4D CALLVALUE 0x4E PUSH26 0x34774D4441674D5463314C6A6B354F53424449444D344E793479 0x4D PUSH11 0x41674D5463324C6A41774D MSTORE8 PUSH24 0x7A4F4467754E7A4930494445334E6934314E4449734D7A6B PUSH24 0x4C6A4D304D5341784E7A63754D6A417849454D674D7A6B78 0x4C PUSH11 0x6B314F5341784E7A63754F PREVRANDAO MSIZE PUSH25 0x4C444D354D7934324D4455674D5463344C6A51774D43777A4F SLOAD 0x4D PUSH22 0x4F546B35494445334F4334304D4441675179417A4F54 MLOAD PUSH22 0x4D7A6B79494445334F4334304D4441734D7A6B304C6A PUSH8 0x784F4341784E7A67 PUSH22 0x4E6A63774C444D354E4334354E4455674D5463354C6A COINBASE PUSH24 0x4D43424449444D354E5334774E7A45674D5463354C6A4D7A 0x4D NUMBER PUSH24 0x7A4F5455754E444D32494445334F5334324D4441734D7A6B BALANCE 0x4C PUSH11 0x63314E4341784E7A6B754E PUSH11 0x417749454D674D7A6B324C PUSH11 0x41334D7941784E7A6B754E PUSH11 0x41774C444D354E69347A4F SLOAD 0x4D PUSH8 0x4D5463354C6A637A 0x4E MSTORE8 PUSH24 0x7A4F5459754E445933494445334F5334354D444167517941 PUSH27 0x4F5459754E6A4934494445344D4334794E6A4D734D7A6B354C6A51 BALANCE 0x4E NUMBER COINBASE PUSH25 0x4F4449754E4441774C444D354F5334334E7A4D674D5467794C PUSH11 0x51774D434244494451774D PUSH10 0x347A4D5445674D546779 0x4C PUSH11 0x51774D43777A4F5451754E PUSH27 0x6333494445334E7934324E4467734D7A67354C6A4D304D5341784E PUSH27 0x55754F44497749454D674D7A67334C6A63324F5341784E7A55754D PUSH11 0x6B784C444D344E5334334F PREVRANDAO PUSH12 0x674D5463304C6A55774E6977 PUSH27 0x4F4451754F545178494445334E4334774E7A63675179417A4F4451 PUSH22 0x4D446B7A494445334D7934324E4463734D7A67794C6A MLOAD BALANCE 0x4E MSTORE8 COINBASE PUSH25 0x4E7A4D754D5459334C444D344D53347A4D4441674D54637A4C PUSH11 0x41784D43424449444D344D NUMBER CALLVALUE PUSH25 0x4E4459674D5463794C6A67314D79777A4E7A6B754D54413249 PREVRANDAO GASLIMIT CALLER 0x4D PUSH10 0x34314E7A49734D7A6334 0x4C PUSH11 0x6B354D5341784E7A49754D PUSH27 0x673249454D674D7A63344C6A67334E6941784E7A49754D546B354C PREVRANDAO 0x4D CALLER 0x4E PUSH26 0x34354D7A45674D5463784C6A6B794E69777A4E7A59754F446B78 0x49 PREVRANDAO GASLIMIT CALLER 0x4D MSTORE8 CALLVALUE CALLER 0x4E PUSH27 0x67675179417A4E7A55754F445578494445334D5334324D7A45734D PUSH27 0x637A4C6A6B794D4341784E7A45754D6A63324C444D334D6934324D PREVRANDAO COINBASE PUSH8 0x4D5463774C6A6B34 0x4F MSTORE8 TIMESTAMP PREVRANDAO 0x49 PREVRANDAO 0x4D ORIGIN 0x4F NUMBER CALLVALUE PUSH26 0x4E4449674D5463774C6A41304E43777A4E6A41754E5463334944 GASLIMIT ORIGIN 0x4F MSTORE8 CALLVALUE ADDRESS 0x4E PUSH11 0x6B734D7A55324C6A41354E PUSH10 0x41784E6A6B754E7A5579 0x49 GASLIMIT 0x4D PUSH8 0x4D7A51784C6A4931 0x4E PUSH26 0x41784E7A41754E6A67344C444D304D4334344D4441674D546377 0x4C PUSH11 0x63314E79777A4E4441754F PREVRANDAO COINBASE PUSH24 0x494445334D6934774E5455675179417A4E4441754F444177 0x49 PREVRANDAO GASLIMIT CALLER 0x4D PUSH10 0x34304E7A6B734D7A5178 0x4C PUSH11 0x45784E5341784E7A49754F SLOAD 0x4D PUSH24 0x4C444D304D5334314D4441674D54637A4C6A41314F534244 0x49 PREVRANDAO 0x4D ADDRESS 0x4E NUMBER CALLVALUE BALANCE 0x4F SLOAD 0x49 PUSH8 0x4D5463304C6A4135 0x4D MSTORE8 PUSH24 0x7A4E5445754D7A5979494445334F4334784D5449734D7A55 PUSH27 0x4C6A51324E5341784F4441754D54593149454D674D7A55304C6A45 ORIGIN 0x4D NUMBER COINBASE PUSH25 0x4F4441754F4451304C444D314E6934774D4449674D5467794C PUSH11 0x51344D43777A4E5463754E SLOAD SSTORE CALLER 0x49 PREVRANDAO GASLIMIT CALLVALUE 0x4D PUSH26 0x34344D4441675179417A4E546B754D544579494445344E533478 0x4D PUSH11 0x41734D7A59774C6A4D344F NUMBER COINBASE PUSH25 0x4F4459754E4449314C444D324D43347A4F5449674D5467324C PUSH11 0x63774D43424449444D324D NUMBER CALLVALUE ADDRESS 0x4D PREVRANDAO SSTORE PUSH8 0x4D5467334C6A5578 0x4E PUSH10 0x777A4E546B754D444134 0x49 PREVRANDAO GASLIMIT CALLVALUE 0x4E PUSH26 0x34794E7A41734D7A55344C6A45794E5341784F4459754D7A4177 0x49 GASLIMIT 0x4D PUSH8 0x4D7A55314C6A6335 0x4E NUMBER COINBASE PUSH25 0x4F444D754E7A4D344C444D314D7934794E6A55674D5467784C PUSH11 0x59334D79777A4E5449754D SLOAD MSIZE ADDRESS 0x49 PREVRANDAO GASLIMIT CALLVALUE 0x4D MSTORE8 CALLVALUE ADDRESS 0x4D PUSH27 0x51675179417A4E5445754E446730494445344D5334794F4459734D PUSH27 0x55774C6A41304E4341784F4441754E54677A4C444D304F4334354E PUSH11 0x51674D5463354C6A67334D PUSH10 0x424449444D304E693431 0x4E PREVRANDAO 0x49 PUSH8 0x4D5463344C6A4933 0x4F NUMBER PUSH24 0x7A4D7A55754E446B78494445334D7934774D4459734D7A4D PUSH24 0x4C6A51774D4341784E7A45754D44453249454D674D7A4935 0x4C PUSH11 0x51784D4341784E7A41754E PUSH11 0x49354C444D794F4334784E SLOAD COINBASE PUSH8 0x4D5463774C6A457A 0x4E MSTORE8 PUSH24 0x7A4D6A63754E6A4177494445324F5334354D546B67517941 PUSH27 0x4D6A59754D7A5531494445324F5334304D6A6B734D7A45354C6A51 CALLER 0x4E PUSH10 0x41784E6A63754D545932 0x4C PREVRANDAO 0x4D PUSH25 0x4E6934774D4441674D5459324C6A45774D69424449444D784D PUSH10 0x34794E544D674D545930 0x4C PUSH11 0x6B314E69777A4D5441754E PUSH11 0x6734494445324E4334314E SLOAD SSTORE PUSH20 0x4D7A41324C6A49774D4341784E6A4D754E546735 0x49 GASLIMIT 0x4D PUSH8 0x4D7A41304C6A4177 0x4D NUMBER COINBASE PUSH25 0x4E6A4D754D5445324C444D774D5334314E7A41674D5459794C PUSH11 0x55334E69777A4D4441754F PREVRANDAO COINBASE PUSH24 0x494445324D69347A4F544167517941794F5467754E444134 0x49 PREVRANDAO GASLIMIT ORIGIN 0x4D MSTORE8 CALLVALUE CALLVALUE 0x4D SLOAD COINBASE PUSH20 0x4D6A67344C6A59334E4341784E6A41754D7A6731 0x4C PREVRANDAO 0x49 CALLVALUE 0x4E PUSH26 0x34794D4441674D5459774C6A4D354F534244494449344E433434 0x4D PUSH11 0x67674D5459774C6A51794D PUSH10 0x77794F4451754E545935 0x49 PREVRANDAO GASLIMIT ORIGIN 0x4D NUMBER CALLVALUE CALLDATALOAD 0x4D PUSH27 0x45734D6A67324C6A49334F5341784E6A49754D6A453149454D674D PUSH11 0x67334C6A45784E6941784E PUSH11 0x49754F4451304C4449344E PUSH26 0x34344F5441674D54597A4C6A51314F4377794F4467754D444177 0x49 PREVRANDAO GASLIMIT ORIGIN 0x4D PUSH26 0x34314F444167517941794F4467754D6A517A494445324D793434 0x4E SLOAD COINBASE PUSH20 0x4D6A6B774C6A63354D5341784E6A55754E545177 0x4C PREVRANDAO 0x49 CALLDATALOAD 0x4D PUSH26 0x34774F444D674D5459324C6A6B314D694244494449354E533478 0x4D SLOAD 0x49 PUSH8 0x4D5459344C6A4977 0x4D PUSH10 0x77794F5455754F44637A 0x49 PREVRANDAO GASLIMIT ORIGIN 0x4F MSTORE8 CALLVALUE PUSH27 0x4F5441734D6A6B314C6A45334F5341784E7A41754D6A493249454D PUSH8 0x4D6A6B304C6A5177 0x4E NUMBER COINBASE PUSH25 0x4E7A45754D5455354C4449354D7934774E4445674D5463774C PUSH11 0x67344F4377794F5445754E PUSH11 0x517A494445324F5334314D PUSH11 0x4567517941794F5441754F SLOAD 0x49 ADDRESS 0x49 PREVRANDAO GASLIMIT ORIGIN 0x4F NUMBER CALLVALUE CALLVALUE 0x4D SLOAD PUSH4 0x734D6A6B PUSH24 0x4C6A41774D6941784E6A67754D4455794C4449344F533431 0x4F SLOAD MLOAD PUSH8 0x4D5459334C6A6779 0x4D MSTORE8 TIMESTAMP PREVRANDAO 0x49 PREVRANDAO 0x49 CALLVALUE 0x4F NUMBER CALLVALUE PUSH27 0x4F446B674D5459334C6A457A4E6977794F4445754F445532494445 ORIGIN 0x4D PUSH10 0x34324E444D734D6A6778 0x4C PUSH11 0x49334E7941784E6A49754D SLOAD COINBASE PUSH24 0x49454D674D6A67774C6A6B344D7941784E6A45754F444931 0x4C PREVRANDAO 0x49 CALLVALUE 0x4D NUMBER CALLVALUE BALANCE 0x4E PUSH27 0x51674D5459784C6A59774D4377794F4441754D7A5934494445324D MSTORE8 CALLVALUE ORIGIN 0x4D PREVRANDAO COINBASE PUSH8 0x517941794F444175 0x4D SLOAD MSIZE PUSH25 0x494445324D5334324D4441734D6A63354C6A51774F5341784E PUSH11 0x45754D444D314C4449334F NUMBER CALLVALUE ORIGIN 0x4F SLOAD MSIZE PUSH8 0x4D5459774C6A4D30 0x4D PUSH26 0x4244494449334E7934354F444D674D5455354C6A59314D697779 0x4E PUSH27 0x59754E544177494445314F4334324E5449734D6A63314C6A51774D NUMBER COINBASE PUSH25 0x4E5467754D54497849454D674D6A63304C6A4D774D4341784E SLOAD PUSH4 0x754E546B PUSH24 0x4C4449334D6934334E5441674D5455324C6A63324D537779 0x4E PUSH27 0x45754F545531494445314E6934794E7A6767517941794E7A45754D SLOAD MSIZE PUSH24 0x494445314E5334334F5455734D6A59344C6A59304D434178 0x4E SLOAD MLOAD PUSH22 0x4D7A4D344C4449324E69347A4E5455674D54557A4C6A COINBASE ADDRESS 0x4D NUMBER TIMESTAMP PREVRANDAO 0x49 PREVRANDAO 0x49 ORIGIN 0x4E NUMBER CALLVALUE PUSH24 0x4E7A41674D5455784C6A63304D6977794E6A41754F445577 0x49 PREVRANDAO GASLIMIT ADDRESS 0x4F MSTORE8 CALLVALUE CALLDATALOAD 0x4D SLOAD GASLIMIT PUSH20 0x4D6A55354C6A49774D4341784E4467754F546378 0x49 GASLIMIT 0x4D PUSH8 0x4D6A55304C6A5533 0x4E NUMBER COINBASE PUSH25 0x4E4459754D7A4D324C4449304F5334794D6A55674D5451304C PUSH11 0x41774D4377794E4463754F PREVRANDAO GASLIMIT CALLVALUE 0x49 PREVRANDAO GASLIMIT ADDRESS 0x4E NUMBER CALLVALUE PUSH24 0x4D444167517941794E4463754D7A4D78494445304E433477 0x4D PREVRANDAO COINBASE PUSH20 0x4D6A51324C6A67774E5341784E444D754F446379 0x4C PREVRANDAO 0x49 ADDRESS 0x4E PUSH10 0x34324E4467674D54517A 0x4C PUSH11 0x63784E534244494449304E PUSH10 0x34794E446B674D54517A 0x4C PUSH11 0x4D784E6977794E4449754E PUSH27 0x4534494445304D6934774D4445734D6A51794C6A41304E4341784E PREVRANDAO 0x49 PUSH22 0x4D44417749454D674D6A51784C6A51774E5341784E44 0x49 PUSH22 0x4D4441774C4449304D5334324E6A67674D5451314C6A PUSH4 0x784F4377 PUSH26 0x4E4449754D7A5933494445304E6934314E6A4167517941794E44 0x49 PUSH22 0x4F444D31494445304E7934784D6A51734D6A51304C6A SSTORE PUSH25 0x4F4341784E5451754E7A4D314C4449304E5334324D4455674D SLOAD MSIZE PUSH25 0x4C6A49774D434244494449304E6934774D7A41674D54597A4C PUSH11 0x637A4D4377794E4459754E PREVRANDAO PUSH8 0x30494445324E6934 PUSH25 0x4E6A63734D6A51324C6A59784D7941784E6A59754E6A453249 GASLIMIT 0x4D PUSH8 0x4D6A51324C6A6332 0x4F NUMBER COINBASE PUSH25 0x4E6A63754D5455784C4449304E6934314E6A67674D5459334C PUSH11 0x59344E6977794E4459754D PREVRANDAO 0x4D PUSH26 0x494445324F4334784E7A4567517941794E4451754F4463354944 GASLIMIT ORIGIN 0x4F MSTORE8 CALLVALUE PUSH26 0x4D5451734D6A51304C6A49784D6941784E6A67754E5449774C44 0x49 ADDRESS 0x4D PUSH26 0x34324E5451674D5459314C6A59354E694244494449304D793430 0x4D PREVRANDAO MLOAD PUSH8 0x4D5459304C6A517A 0x4D PUSH26 0x77794E4449754F444931494445324D5334314D5441734D6A5179 0x4C PUSH11 0x4D324E7941784E546B754D PUSH11 0x417749454D674D6A51784C PUSH11 0x6B774F5341784E5459754F PREVRANDAO PUSH12 0x774C4449304D5334794F5463 PUSH8 0x4D54557A4C6A5133 0x4D NUMBER PUSH24 0x794E4445754D444131494445314D5334324D444167517941 PUSH26 0x4E4441754E445179494445304E7934354F4449734D6A4D354C6A PUSH12 0x774F4341784E4459754D6A4D CALLER 0x4C PREVRANDAO 0x49 PUSH27 0x4F5334794D7A59674D5451314C6A67794D6942444944497A4F4334 CALLER 0x4D SLOAD PUSH12 0x674D5451314C6A55774D7977 PUSH26 0x4D7A67754D546331494445304D7934314D4463734D6A4D334C6A MLOAD PUSH25 0x4E4341784D7A6B754D54517949454D674D6A4D334C6A41344F MSTORE8 COINBASE PUSH25 0x4D7A63754D6A63344C44497A4E6934304E5445674D544D304C PUSH11 0x6B784D7977794D7A55754F SLOAD PUSH12 0x334944457A4D7934344F4463 PUSH8 0x517941794D7A5575 0x4D SLOAD GASLIMIT PUSH25 0x4944457A4D5334344F444D734D6A4D304C6A517A4E5341784D PUSH11 0x59754F4441774C44497A4E MSTORE8 CALLVALUE PUSH24 0x4E5451674D5449324C6A67774D4342444944497A4E533430 0x4E PUSH27 0x55674D5449324C6A67774D4377794D7A59754E444134494445794F NUMBER CALLVALUE CALLVALUE 0x4D SLOAD COINBASE PUSH20 0x4D6A4D324C6A67784F5341784D7A41754E6A4177 0x49 GASLIMIT 0x4D PUSH8 0x4D6A4D334C6A4134 0x4F MSTORE8 COINBASE PUSH25 0x4D7A45754E7A63334C44497A4E7934774F5459674D544D784C PUSH11 0x63344D4377794D7A63754D SLOAD MLOAD CALLER 0x49 PREVRANDAO GASLIMIT PUSH27 0x4D4334334E444567517941794D7A63754D5463324944457A4D4334 PUSH25 0x4E546B734D6A4D324C6A59324D4341784D6A67754E546B304C PREVRANDAO 0x49 PUSH27 0x4E6934774D4441674D5449334C6A49324D7942444944497A4E5334 PUSH26 0x4D7A4D674D5449314C6A63784F4377794D7A51754E7A63334944 GASLIMIT PUSH26 0x4E4334784E5445734D6A4D304C6A637A4E6941784D6A49754F54 0x49 PUSH26 0x49454D674D6A4D304C6A59344E5341784D6A45754D7A67784C44 0x49 PUSH27 0x4E4334324E444D674D5449784C6A49334F4377794D7A51754E5449 CALLVALUE 0x49 PREVRANDAO GASLIMIT PUSH26 0x4D6934304D444167517941794D7A51754D546332494445794E53 CALLVALUE CALLVALUE 0x4D PUSH11 0x4D734D6A4D304C6A41774D PUSH10 0x41784D6A55754F546335 0x4C PREVRANDAO 0x49 PUSH27 0x4D6934354E7A4D674D54497A4C6A67774D4342444944497A4D6934 ADDRESS 0x4E SLOAD MLOAD PUSH8 0x4D5449794C6A6377 0x4D NUMBER PUSH24 0x794D7A49754D444979494445794D5334304F4455734D6A4D PUSH26 0x4C6A41784E4341784D6A45754D54417749454D674D6A4D784C6A PUSH12 0x354D4341784D546B754F5445 PUSH24 0x4C44497A4D4334314E4467674D5449774C6A49334E797779 0x4D PUSH11 0x6B754F546B30494445794D MSTORE8 CALLVALUE ORIGIN 0x4D SLOAD MLOAD PUSH8 0x517941794D6A6375 0x4F SLOAD MLOAD PUSH27 0x494445794E6934314E6A55734D6A45354C6A63334D4341784D6A6B PUSH22 0x4E6A55314C4449774E6934794D4441674D544D774C6A MSIZE PUSH25 0x4D434244494449774D53347A4E6A41674D544D774C6A6B314D NUMBER PUSH24 0x784F5459754D4455774944457A4D53347A4F444D734D546B ADDRESS 0x4C PUSH11 0x51774D4341784D7A45754E SLOAD PUSH4 0x7949454D PUSH8 0x4D5459324C6A6778 0x4E PUSH26 0x41784D7A51754E7A49334C4445304D5334774D7A67674D544932 0x4C PUSH11 0x55354F5377784E444D754F SLOAD PUSH8 0x77494445784E5334 ORIGIN 0x4E PUSH27 0x5567517941784E4455754D446335494445784D5334314F5445734D SLOAD SSTORE PUSH24 0x4C6A49324E7941784D5441754E4451784C4445314E793479 0x4F PREVRANDAO MSIZE PUSH8 0x4D5445794C6A6379 0x4E MSTORE8 TIMESTAMP PREVRANDAO 0x49 PREVRANDAO GASLIMIT ORIGIN 0x4D PUSH26 0x34784E4451674D5445304C6A597A4D5377784E7A51754E7A5530 0x49 PREVRANDAO GASLIMIT PUSH25 0x4E5334324F4455734D5467774C6A49774D4341784D5451754F PREVRANDAO COINBASE CALLER 0x49 GASLIMIT 0x4D PUSH8 0x4D5467784C6A5579 0x4D NUMBER COINBASE PUSH25 0x4D5451754E546B304C4445344E4334344E5441674D5445304C PUSH11 0x49794F5377784F4463754E PUSH11 0x4177494445784D7934354F SLOAD MSIZE PUSH8 0x517941784F545575 0x4D PUSH27 0x6732494445784D79347A4D7A63734D546B354C6A637A4F4341784D SLOAD 0x49 PUSH22 0x4E6A49354C4449774E5334344D4441674D5445784C6A COINBASE PUSH27 0x4E794244494449774F4334344F4441674D5445774C6A49794F4377 PUSH26 0x4D5449754E445533494445774F53347A4D4441734D6A457A4C6A PUSH4 0x304F4341 PUSH25 0x4D4467754F54633249454D674D6A45314C6A41304D4341784D PREVRANDAO PUSH8 0x754E6A55794C4449 PUSH25 0x4E7934794D4441674D5441334C6A6B314E7977794D5467754E SLOAD MLOAD CALLVALUE 0x49 PREVRANDAO GASLIMIT PUSH24 0x4E7934304D7A4567517941794D546B754F446B3349444577 0x4E PUSH10 0x34354D4455734D6A4978 0x4C PUSH11 0x63794D4341784D4459754D PUSH11 0x55334C4449794D6934324D PREVRANDAO COINBASE PUSH8 0x4D5441314C6A6B34 0x4F MSTORE8 TIMESTAMP PREVRANDAO 0x49 PREVRANDAO 0x49 PUSH26 0x4D7934304F4441674D5441314C6A63794D6977794D6A51754F44 PUSH8 0x32494445774E5334 PUSH26 0x4E6A55734D6A49314C6A63794E5341784D4451754F5463304945 0x4D PUSH8 0x4D6A49334C6A4D79 0x4D PUSH26 0x41784D4451754E4445354C4449794F4334304D4455674D544130 0x4C PUSH11 0x55324F5377794D6A67754D PUSH27 0x6B7A494445774E53347A4E444D67517941794D6A67754D7A673349 PREVRANDAO GASLIMIT PUSH24 0x4E5334334E6A49734D6A497A4C6A63774E7941784D446775 0x4F PREVRANDAO COINBASE PUSH24 0x4C4449794D7934774E6A67674D5441344C6A67774D434244 0x49 PREVRANDAO 0x49 PUSH26 0x4D6934354D5459674D5441344C6A67774D4377794D6A49754D44 0x49 CALLVALUE 0x49 PREVRANDAO GASLIMIT PUSH24 0x4F5334784D7A4D734D6A49784C6A41354E6941784D446B75 0x4E SLOAD MLOAD PUSH24 0x49454D674D6A49774C6A45324D7941784D446B754F545133 0x4C PREVRANDAO 0x49 PUSH25 0x4F43347A4D6A41674D5445774C6A59344D7977794D5463754D PREVRANDAO COINBASE PUSH24 0x494445784D5334784E7A5567517941794D5455754E6A6777 0x49 PREVRANDAO GASLIMIT PUSH25 0x4D5334324E6A63734D6A45304C6A49304D4341784D5449754D PUSH11 0x45794C4449784D7934344D PREVRANDAO COINBASE PUSH8 0x4D5445794C6A4D34 0x4E PUSH26 0x4244494449784D6934354D5451674D5445794C6A637A4E797779 0x4D PREVRANDAO PUSH8 0x754D7A4131494445 PUSH25 0x4E4334774D546B734D6A41304C6A59774D4341784D5451754F SLOAD MLOAD BALANCE 0x49 GASLIMIT 0x4D PUSH8 0x4D6A41784C6A5177 0x4D PUSH10 0x41784D5455754E7A5130 0x4C PREVRANDAO GASLIMIT CALLDATALOAD 0x4F NUMBER CALLVALUE BALANCE 0x4E PREVRANDAO 0x4D PUSH8 0x4D5445324C6A4931 0x4E MSTORE8 PUSH24 0x784F5451754D6A4177494445784E6934344D445167517941 PUSH25 0x4F5449754D6A4977494445784E7934774E5451734D5467354C PUSH11 0x63354D4341784D5463754E PREVRANDAO MLOAD PUSH24 0x4C4445344F4334344D4441674D5445334C6A59324D694244 0x49 PREVRANDAO GASLIMIT CALLVALUE 0x4E PUSH26 0x34334E7A59674D5445334C6A67354D5377784F4449754D7A5131 0x49 PREVRANDAO GASLIMIT PUSH25 0x4F4334774D6A67734D5463324C6A49774D4341784D5463754F SLOAD PUSH4 0x3549454D PUSH8 0x4D54597A4C6A4130 0x4D NUMBER COINBASE PUSH25 0x4D5463754F4463314C4445324D79347A4D4455674D5445334C PUSH11 0x67324E5377784E6A4D754F SLOAD GASLIMIT PUSH24 0x494445784F4334304E7A4167517941784E6A51754F446379 0x49 PREVRANDAO GASLIMIT PUSH25 0x4F5334304D7A49734D5463314C6A67344E5341784D6A41754E SLOAD PUSH4 0x324C4445 CALLVALUE 0x4D PUSH26 0x34344D4441674D5449774C6A557A4E694244494445354F433477 0x4D PREVRANDAO 0x4D PUSH8 0x4D5449774C6A5132 0x4E PUSH10 0x77794D4449754E544977 0x49 PREVRANDAO GASLIMIT PUSH26 0x4D4334774F5459734D6A45774C6A41304D6941784D5467754D7A PUSH8 0x7A49454D674D6A45 PUSH25 0x4C6A6B7A4E5341784D5463754F54557A4C4449784D7934344E SLOAD PUSH12 0x674D5445334C6A59774D4377 PUSH26 0x4D5451754D7A4534494445784E7934324D444167517941794D54 MLOAD PUSH22 0x4E7A6333494445784E7934324D4441734D6A45314C6A 0x49 BALANCE 0x4D PUSH10 0x41784D5463754E445177 0x4C PREVRANDAO 0x49 PUSH25 0x4E53347A4E7A4D674D5445334C6A49304E434244494449784E MSTORE8 CALLVALUE ADDRESS 0x4F SLOAD MLOAD PUSH8 0x4D5445334C6A4130 0x4F MSTORE8 PUSH24 0x794D5459754D445535494445784E6934334E7A49734D6A45 ORIGIN 0x4C PUSH11 0x59794F4341784D5459754E PUSH11 0x493549454D674D6A45344C PUSH11 0x63794D7941784D5459754D SLOAD COINBASE PUSH27 0x4C4449794D6934344E5451674D54457A4C6A67354E6977794D6A51 PUSH22 0x4F546377494445784D6934784E7A4967517941794D6A PUSH4 0x754F4449 PUSH24 0x494445774F5334344E5445734D6A49354C6A63784E534178 0x4D PREVRANDAO PUSH12 0x754E7A49794C4449794F4334 BALANCE 0x4E PUSH11 0x51674D5445784C6A6B794F NUMBER TIMESTAMP PREVRANDAO 0x49 PREVRANDAO 0x49 PUSH26 0x4F4334794E5463674D5445794C6A55784F4377794D6A67754D44 COINBASE ADDRESS 0x49 PREVRANDAO GASLIMIT PUSH25 0x4D7934794D4445734D6A49344C6A41774D6941784D544D754E PREVRANDAO MLOAD ORIGIN 0x49 GASLIMIT 0x4D PUSH8 0x4D6A49334C6A6B35 0x4D NUMBER COINBASE PUSH25 0x4D5455754E7A63344C4449784F4334344F5445674D5449774C PUSH11 0x45324F5377794D5441754D PUSH27 0x4532494445794D5334354F444567517941794D4459754D54633549 PREVRANDAO GASLIMIT PUSH26 0x4D6934344E5455734D6A417A4C6A4D784F5341784D6A4D754E54 MSIZE PUSH25 0x4C4449774D6934794E7A51674D54497A4C6A6B324E53424449 PREVRANDAO GASLIMIT CALLDATALOAD 0x4F NUMBER CALLVALUE CALLVALUE 0x4F PREVRANDAO MSIZE PUSH8 0x4D5449314C6A4933 0x4E MSTORE8 PUSH24 0x784E7A55754F446379494445794E4334784E7A49734D5459 BALANCE 0x4C PUSH11 0x41774D4341784D6A49754D SLOAD PUSH4 0x3549454D PUSH8 0x4D54597A4C6A4930 0x4D NUMBER COINBASE PUSH25 0x4D6A45754F4455324C4445324D4334334D6A41674D5449784C PUSH11 0x51314F4377784E546B754E PREVRANDAO COINBASE PUSH24 0x494445794D5334794F545167544341784E5463754D444177 0x49 PREVRANDAO GASLIMIT PUSH26 0x4D4334354F5455674D5455334C6A41774D4341784D546B754E54 PUSH12 0x34494577674D5455334C6A41 PUSH24 0x4D4341784D5467754D6A4177494445314F5334354D444167 0x4D SLOAD GASLIMIT CALLVALUE 0x4C PUSH11 0x41344D694244494445324D PUSH10 0x34314D7A59674D544533 0x4C PUSH11 0x6B334E6977784E6A51754D PREVRANDAO SSTORE BALANCE 0x49 PREVRANDAO GASLIMIT PUSH25 0x4E7934794E6A67734D5459784C6A6B774D4341784D5463754D SLOAD SSTORE PUSH25 0x49454D674D5459784C6A51774E5341784D5463754D5449304C PREVRANDAO GASLIMIT ORIGIN 0x4D NUMBER CALLVALUE PUSH25 0x4E7A55674D5445334C6A41314F4377784E546B754D54593249 PREVRANDAO GASLIMIT PUSH25 0x4E7934774D445167517941784E5467754D545534494445784E PUSH10 0x34354E446B734D545532 0x4C PUSH11 0x67334F5341784D5459754E PUSH11 0x41344C4445314E69347A4D PUSH11 0x51674D5445324C6A49304E MSTORE8 TIMESTAMP PREVRANDAO 0x49 PREVRANDAO GASLIMIT BALANCE 0x4D PUSH26 0x34784D7A59674D5445304C6A45314E5377784E4459754F444177 0x49 PREVRANDAO GASLIMIT PUSH25 0x4E53347A4D6A49734D5451324C6A67774D4341784D5463754F SLOAD PUSH12 0x3549454D674D5451324C6A67 PUSH24 0x4D4341784D546B754D446B344C4445314D4334774F444567 0x4D SLOAD 0x49 PUSH26 0x4C6A55344D4377784E5445754E7A4531494445794D7934794D54 SSTORE PUSH8 0x517941784E544975 0x4E PREVRANDAO 0x49 PUSH26 0x494445794D7934304F446B734D54557A4C6A63794D4341784D6A MLOAD PUSH22 0x4D444D334C4445314E4334324D4441674D5449304C6A MLOAD PUSH27 0x4D794244494445314E6934354E7A4D674D5449314C6A51354F4377 PUSH25 0x4E6A45754D7A4D30494445794E6934324F5459734D5459314C PUSH11 0x51774D4341784D6A63754D PUSH27 0x6B3549454D674D5459334C6A4D344D4341784D6A63754E7A51784C PREVRANDAO GASLIMIT ORIGIN 0x4F MSTORE8 CALLVALUE CALLDATALOAD 0x4F SLOAD COINBASE PUSH8 0x4D5449344C6A4978 0x4E MSTORE8 PUSH24 0x784E7A45754D6A4177494445794F4334304E544967517941 PUSH25 0x4E7A55754D6A5534494445794F5334794E4467734D5467304C PUSH11 0x59774E4341784D6A6B754D PUSH27 0x51324C4445344F53347A4D5449674D5449344C6A59304E43424449 PREVRANDAO GASLIMIT CALLDATALOAD 0x4D MSTORE8 CALLVALUE ORIGIN 0x4F PREVRANDAO MLOAD PUSH8 0x4D5449344C6A4935 0x4D NUMBER PUSH24 0x784F5451754E444132494445794F4334774D4441734D546B BALANCE 0x4C PUSH11 0x4D324D6941784D6A67754D PREVRANDAO COINBASE PUSH24 0x49454D674D546B324C6A4D784E7941784D6A67754D444177 0x4C PREVRANDAO GASLIMIT CALLDATALOAD 0x4E PUSH26 0x34344E6A45674D5449334C6A637A4D5377784F5467754E7A6B79 0x49 PREVRANDAO GASLIMIT PUSH26 0x4E7934304D444D67517941784F546B754E7A497A494445794E79 CALLVALUE PUSH24 0x4E7A51734D6A41774C6A59784D6941784D6A59754F446730 0x4C PREVRANDAO 0x49 PUSH24 0x4D4334334E6A59674D5449324C6A6B334F53424449444977 0x4D PUSH10 0x34334D5449674D544934 0x4C PUSH11 0x45344D6977794D5463754E PREVRANDAO 0x49 BALANCE 0x49 PREVRANDAO GASLIMIT PUSH26 0x4E6934774E7A51734D6A49784C6A63794F4341784D6A4D754F54 PUSH4 0x3249454D PUSH8 0x4D6A49344C6A4D31 0x4D PUSH10 0x41784D6A41754E7A5132 0x4C PREVRANDAO 0x49 PUSH27 0x4D79347A4F5459674D5445774C6A4D7A4D5377794D7A41754D5441 PUSH24 0x494445774E6934324F544167517941794D6A6B754E7A4531 0x49 PREVRANDAO GASLIMIT PUSH24 0x4E6934794E6A51734D6A49354C6A4D314D5341784D445575 0x4D PUSH11 0x59774C4449794F5334794F SLOAD 0x49 PUSH8 0x4D5441304C6A5131 0x4F NUMBER TIMESTAMP PREVRANDAO 0x49 PREVRANDAO 0x49 PUSH26 0x4F4334344E544D674F5467754E5445354C4449794F4334304D7A COINBASE PUSH8 0x4F5451754E7A6731 0x4C PREVRANDAO 0x49 PUSH26 0x4F4334784E4441674F5451754D6A633549454D674D6A49334C6A MSIZE CALLER 0x4D MSTORE8 COINBASE CALLDATALOAD 0x4D PUSH26 0x34304E546B734D6A497A4C6A55334D4341344F4334334F545973 0x4D PUSH11 0x49794C6A59304D7941344F NUMBER CALLVALUE PUSH24 0x4D6A6767517941794D6A49754D6A4932494467334C6A5934 0x4D PUSH10 0x77794D6A45754E546B32 0x49 PREVRANDAO PUSH8 0x334C6A41324E7977 PUSH26 0x4D6A45754D6A517A494467324C6A59324D434244494449784E79 CALLVALUE CALLDATALOAD 0x4E PUSH27 0x45674F4449754F446B794C4449784E5334314E5441674F4445754F SLOAD PUSH8 0x344C4449784E4334 PUSH25 0x4F4463674F4451754D44493049454D674D6A45794C6A4D7A4F NUMBER COINBASE CALLVALUE 0x4E PUSH10 0x34334F4463734D6A4133 0x4C PUSH11 0x59774D4341344F5334784E PREVRANDAO PUSH12 0x734D6A41794C6A49774D4341 CALLVALUE 0x4F MSTORE8 CALLVALUE CALLDATALOAD 0x4F SLOAD PUSH12 0x67517941784F5449754D5455 CALLDATALOAD 0x49 PREVRANDAO PUSH12 0x784C6A55344D4377784F4445 PUSH22 0x4D7A6330494467304C6A4D334E7977784F4463754D6A PUSH4 0x35494467 PUSH24 0x4C6A417A4E534244494445344F4334794D4449674E7A6B75 0x4D PUSH27 0x55324C4445344F5334784F4463674E7A67754F4441774C4445344F MSTORE8 CALLVALUE ADDRESS 0x4E PUSH11 0x63674E7A67754F44417749 GASLIMIT 0x4D PUSH8 0x4D5467354C6A6330 0x4F NUMBER COINBASE CALLER 0x4F NUMBER CALLVALUE CALLVALUE 0x4D PREVRANDAO COINBASE PUSH20 0x4D546B784C6A41784E7941334F43347A4D7A5173 0x4D SLOAD PUSH12 0x794C6A49344F5341334E7934 CALLER 0x4E PUSH11 0x5167517941784F5455754E PREVRANDAO PUSH4 0x7A494463 ORIGIN 0x4C PUSH11 0x4D7A4E6977784F5463754E PUSH27 0x6777494463314C6A59794D4377794D4441754E6A4177494463314C PUSH11 0x45344E694244494449774D MSTORE8 CALLVALUE CALLDATALOAD 0x4D PUSH11 0x41674E7A51754F54677A4C PREVRANDAO 0x49 PUSH24 0x4D7934344D5441674E7A51754E6A45314C4449774E433434 0x4D PREVRANDAO COINBASE PUSH8 0x4E7A51754D7A6377 0x49 GASLIMIT 0x4D PUSH8 0x4D6A41324C6A6731 0x4F MSTORE8 COINBASE CALLER 0x4D PUSH26 0x34344E546B734D6A41334C6A67774D7941334D7934344D444173 0x4D PUSH11 0x45794C6A41334D5341334D PUSH26 0x34354D545967517941794D5451754D6A63304944637A4C6A6B33 0x4E PUSH10 0x77794D5455754D7A4931 0x49 PREVRANDAO PUSH4 0x304C6A45 CALLVALUE 0x4D PUSH10 0x77794D5455754E7A6732 0x49 PREVRANDAO PUSH4 0x304C6A59 ADDRESS 0x4D PUSH26 0x4244494449784E6934784F544D674E7A55754D4455774C444978 0x4E PUSH10 0x34344E6A55674E7A5575 0x4D PUSH11 0x497A4C4449784E7934324D SLOAD SSTORE PUSH8 0x4E7A55754D54457A 0x49 GASLIMIT 0x4D PUSH8 0x4D6A45354C6A4132 0x4E MSTORE8 COINBASE CALLER 0x4E NUMBER CALLVALUE CALLDATALOAD 0x4D PREVRANDAO COINBASE PUSH20 0x4D6A45354C6A45784E7941334E53347A4E445573 0x4D PUSH11 0x45334C6A6B354F5341334F NUMBER CALLVALUE ADDRESS 0x4D PREVRANDAO 0x4D PUSH8 0x544341794D546375 0x4D SLOAD PUSH12 0x34494467774C6A55354E5341 PUSH26 0x4D5467754E6A4D30494467784C6A63354E794244494449784F53 CALLVALUE ADDRESS 0x4D PUSH11 0x51674F4449754E4455354C PREVRANDAO 0x49 PUSH26 0x4D5334794D6A63674F4451754D5449314C4449794D6934324E44 COINBASE PUSH8 0x4F4455754E544177 0x49 GASLIMIT 0x4D PUSH8 0x4D6A49304C6A4131 0x4E NUMBER COINBASE CALLVALUE 0x4E PUSH10 0x34344E7A55734D6A4931 0x4C PUSH11 0x4D334F5341344F4334774D PREVRANDAO COINBASE PUSH20 0x4D6A49314C6A55344E6941344F4334774D444167 MLOAD PUSH26 0x41794D6A59754D444179494467344C6A41774D4377794D6A5175 0x4E SLOAD PUSH12 0x7A494467324C6A55344F5377 PUSH26 0x4D6A41754E6A41324944677A4C6A41784D694244494449784E79 CALLVALUE CALLER 0x4E PREVRANDAO PUSH4 0x674F4441 PUSH22 0x4E4451344C4449784E7934304E4455674E7A6B754D6A PUSH12 0x354C4449784F5334774D7A4D PUSH8 0x4E7A63754D444D78 0x49 GASLIMIT 0x4D PUSH8 0x4D6A45354C6A6332 0x4F NUMBER COINBASE CALLER 0x4E MSTORE8 CALLVALUE CALLDATALOAD 0x4F PREVRANDAO 0x49 PUSH20 0x4D6A45354C6A63314F4341334D7934354E6A4973 0x4D PUSH11 0x45354C6A41784D7941334D PUSH10 0x34354E7A596751794179 0x4D SLOAD PUSH8 0x754E6A6B77494463 PUSH26 0x4C6A55304F5377794D5467754E444977494463784C6A6B784D79 PUSH24 0x794D5467754E44457A494463784C6A55324D694244494449 PUSH25 0x4F43347A4F5463674E7A41754E7A51354C4449784E4334784E PREVRANDAO 0x4D PUSH8 0x4E6A59754E444177 0x4C PREVRANDAO 0x49 PUSH25 0x4D79347A4E6A51674E6A59754E44417749454D674D6A45794C PUSH11 0x59344E4341324E6934304D PREVRANDAO COINBASE PUSH20 0x4D6A45794C6A41774D4341324E4334344D6A5173 0x4D PUSH11 0x45794C6A41774D4341324D PUSH26 0x34794E545167517941794D5449754D444177494459794C6A5931 0x4D PUSH10 0x77794D5445754F444132 0x49 PREVRANDAO MSIZE PUSH25 0x4C6A6B324E6977794D5445754E545935494459784C6A63794F MSTORE8 TIMESTAMP PREVRANDAO 0x49 PREVRANDAO 0x49 PUSH25 0x4D53347A4D7A49674E6A45754E446B794C4449784D4334354F PREVRANDAO MLOAD PUSH8 0x4E6A41754E6A6B78 0x4C PREVRANDAO 0x49 PUSH25 0x4D4334334F5459674E546B754F54513549454D674D6A41354C PUSH11 0x67354F4341314E69347A4F SLOAD PUSH12 0x734D6A41314C6A6B354D6941 ADDRESS 0x4E PUSH26 0x34344D6A51734D6A41314C6A59344F5341304F4334334D7A5167 MLOAD PUSH26 0x41794D4455754E546B31494451354C6A41784E6977794D445575 0x4E PUSH27 0x597A494451354C6A55314D5377794D4459754D445979494451354C PUSH11 0x6B794D794244494449774E PUSH10 0x347A4E6A49674E544175 0x4D PUSH11 0x6B314C4449774E6934344F SLOAD COINBASE PUSH8 0x4E5445754D6A4D77 0x4C PREVRANDAO 0x49 PUSH24 0x4E7934794D7A59674E5449754D44417749454D674D6A4133 0x4C PUSH11 0x55344D5341314D6934334E PUSH27 0x41734D6A41344C6A45314F4341314E4334774D7A41734D6A41344C PUSH11 0x55784E6941314E4334344D PREVRANDAO COINBASE PUSH8 0x517941794D446775 0x4F PREVRANDAO PUSH4 0x30494455 BALANCE 0x4C PUSH11 0x55334D4377794D446B754E SLOAD 0x4D CALLVALUE 0x49 PREVRANDAO SSTORE CALLER 0x4C PUSH11 0x4D334D4377794D446B754F SLOAD PUSH12 0x77494455344C6A67774D4342 PREVRANDAO 0x49 PREVRANDAO 0x49 PUSH25 0x4D4334304E4449674E6A41754D6A4D774C4449784D4334354F PREVRANDAO PUSH12 0x674E6A45754E7A457A4C4449 PUSH25 0x4D5334794D4459674E6A49754D446B3149454D674D6A45784C PUSH11 0x51794D7941324D6934304E PUSH27 0x63734D6A45784C6A59774D4341324D7934314E5463734D6A45784C PUSH11 0x59774D4341324E4334304F SLOAD SSTORE PUSH8 0x544341794D544575 0x4E PUSH11 0x4177494459324C6A49774D NUMBER COINBASE PUSH26 0x4D4467754D7A4177494459324C6A49794F434244494449774D79 CALLVALUE PUSH24 0x4D6A59674E6A59754D6A63794C4449774D43347A4E444567 0x4E PUSH11 0x59754F4459354C4445354D MSTORE8 CALLVALUE CALLER 0x4F SLOAD COINBASE PUSH8 0x4E6A6B754F446B34 0x49 GASLIMIT 0x4D PUSH8 0x4D5467324C6A5135 0x4D NUMBER COINBASE CALLER 0x4D MSTORE8 CALLVALUE CALLER 0x4E PUSH27 0x55734D5467304C6A59334D4341334D5334794D7A4D734D5467334C PUSH11 0x45774D4341324F4334314D PREVRANDAO 0x49 PUSH8 0x517941784F446775 0x4D PREVRANDAO 0x49 CALLDATALOAD 0x49 PREVRANDAO MSIZE CALLER 0x4C PUSH11 0x51314E7977784F544D754E SLOAD PUSH4 0x33494459 BALANCE 0x4C PUSH11 0x55344F4377784F5463754E SLOAD SSTORE CALLDATALOAD 0x49 PREVRANDAO MSIZE ADDRESS 0x4C PUSH11 0x6B334F534244494445354F NUMBER CALLVALUE BALANCE 0x4D PUSH11 0x63674E6A51754F444D784C PREVRANDAO GASLIMIT CALLDATALOAD 0x4F MSTORE8 CALLVALUE CALLDATALOAD 0x4D PUSH11 0x55674E6A51754E4455324C PREVRANDAO 0x49 PUSH24 0x4D4334324E6A59674E6A51754D54513349454D674D6A4178 0x4C PUSH11 0x55314F5341324D7934334E PUSH27 0x51734D6A41794C6A67774E5341324D7934324E5455734D6A41304C PUSH11 0x4D324D6941324D7934334F SLOAD PUSH4 0x67517941 PUSH26 0x4D4467754D446B7A494459304C6A457A4E5377794D4463754F44 PUSH12 0x30494459794C6A45334D7977 PUSH26 0x4D444D754F546B34494459774C6A45354F534244494445354F53 CALLVALUE CALLER 0x4E PUSH27 0x45674E5467754D4455334C4445354D6934794E5467674E546B754D PUSH11 0x41324C4445344F5334324D PREVRANDAO COINBASE PUSH8 0x4E6A49754E444179 0x49 GASLIMIT 0x4D PUSH8 0x4D5467354C6A5135 0x4D NUMBER COINBASE ORIGIN 0x4D PUSH10 0x34314D7A51734D546734 0x4C PUSH11 0x59344D4341324D7934784E PUSH11 0x55734D5467334C6A67774D NUMBER COINBASE ORIGIN 0x4D PUSH26 0x34344D444D67517941784F4459754F544977494459304C6A5130 0x4D PUSH10 0x77784F4455754D6A6331 0x49 PREVRANDAO MSIZE BALANCE 0x4C PUSH11 0x637A4E4377784F4451754D SLOAD MLOAD ADDRESS 0x49 PREVRANDAO MSIZE ORIGIN 0x4C PUSH11 0x59334E534244494445344D MSTORE8 CALLVALUE PUSH27 0x4F5441674E6A67754F5459334C4445344D4334794F4445674E6A6B PUSH22 0x4D7A637A4C4445334F5334304D4467674E6A67754E44 COINBASE CALLDATALOAD 0x49 GASLIMIT 0x4D PUSH8 0x4D5463344C6A4D30 0x4E NUMBER COINBASE ORIGIN 0x4E PUSH26 0x34794D7A4D734D54677A4C6A59784D4341324D5334324E544973 0x4D SLOAD PUSH8 0x334C6A67774D4341 BALANCE 0x4F MSTORE8 CALLVALUE BALANCE 0x4D SLOAD MSIZE PUSH8 0x517941784F446775 0x4E PREVRANDAO MSIZE PUSH24 0x494455354C6A45344D4377784F446B754E7A497749445534 0x4C PUSH11 0x557A4E6977784F5441754E PUSH11 0x4177494455344C6A41344E PUSH10 0x4244494445354D693478 0x4F SLOAD 0x4D PUSH8 0x4E5463754D6A6379 0x4C PREVRANDAO GASLIMIT CALLDATALOAD 0x4E PUSH10 0x347A4D4459674E545975 0x4D PREVRANDAO PUSH4 0x314C4445 CALLDATALOAD 0x4F NUMBER CALLVALUE ADDRESS 0x4E PREVRANDAO 0x4D PUSH8 0x4E5455754F444131 0x49 GASLIMIT 0x4D PUSH8 0x4D6A41774C6A4D77 0x4F MSTORE8 COINBASE BALANCE 0x4E MSTORE8 CALLVALUE BALANCE 0x4E PUSH11 0x6B734D6A417A4C6A51334D MSTORE8 COINBASE BALANCE 0x4E PUSH10 0x34324D7A63734D6A4131 0x4C PUSH11 0x59324D5341314F4334794E PREVRANDAO SSTORE PUSH8 0x544341794D446375 0x4E PUSH27 0x4D78494455354C6A63324E5341794D4463754E446B35494455344C PUSH11 0x4D7A4D694244494449774E PUSH26 0x347A4E7A45674E5463754E5451304C4449774E6934314E7A6367 0x4E SLOAD SSTORE PUSH22 0x4E7A49784C4449774E5334334D7A4D674E5451754D6A PUSH8 0x7749454D674D6A41 ADDRESS 0x4C PUSH11 0x67354D4341314D6934344D PUSH27 0x6B734D6A417A4C6A55344E4341314D4334324D5445734D6A41794C PUSH11 0x677A4D6941304F53347A4D PUSH27 0x4167517941784F546B754D6A49344944517A4C6A45354D6977784F SLOAD 0x4D PUSH22 0x4D7A593149444D354C6A4D304E7977784F446B754D44 COINBASE PUSH24 0x494451774C6A49324D43424E4D546B334C6A55794E434130 0x4E NUMBER CALLVALUE PUSH27 0x4D444167517941784F546B754D544132494451314C6A677A4D6977 PUSH26 0x4D4441754E444177494451334C6A49354D5377794D4441754E44 COINBASE PUSH24 0x494451334C6A55304D794244494449774D4334304D444167 0x4E PREVRANDAO PUSH4 0x754E7A6B ADDRESS 0x4C PREVRANDAO 0x49 PUSH24 0x4D4334314E6A45674E4467754D4441774C4449774D433433 0x4E SLOAD PUSH4 0x674E4467 PUSH22 0x4D44417749454D674D6A41774C6A6B314E4341304F43 CALLVALUE PUSH24 0x4D4441734D6A41784C6A49794F4341304F4334794F545973 0x4D PUSH11 0x41784C6A4D324E7941304F NUMBER CALLVALUE ORIGIN 0x4E SLOAD PUSH4 0x67517941 PUSH26 0x4D4445754F544131494455774C6A41324D5377794D4445754D44 PUSH12 0x33494451354C6A59314E4377 PUSH25 0x4F546B754D444535494451334C6A51334E434244494445354E PUSH10 0x34314D7A4D674E445175 0x4F PREVRANDAO MSIZE ORIGIN 0x4C PREVRANDAO GASLIMIT CALLDATALOAD 0x4E MSTORE8 CALLVALUE CALLDATALOAD 0x4E PUSH27 0x49674E4451754E6A637A4C4445354E6934784F4459674E4459754E SLOAD COINBASE PUSH24 0x49454D674D546B324C6A49324F5341304E7934794D545573 0x4D SLOAD PUSH12 0x324C6A51314E7941304F4334 CALLER 0x4F SLOAD COINBASE PUSH20 0x4D546B324C6A59774D7941314D4334774D444167 MLOAD PUSH26 0x41784F5463754D444D7A4944557A4C6A55324F5377784F545575 0x4E PUSH11 0x4D31494455314C6A67774D NUMBER PUSH24 0x784F5449754F545934494455314C6A67774D43424D494445 CALLDATALOAD 0x4D MSTORE8 CALLVALUE PUSH24 0x4D4441674E5455754F444177494445354D4334344D444167 0x4E SLOAD GASLIMIT PUSH22 0x4F54453349454D674D546B774C6A59774D4341304F43 CALLVALUE PUSH24 0x4D7A63734D546B774C6A55354F5341304F4334774D7A5173 0x4D SLOAD PUSH8 0x354C6A41784F5341 ADDRESS 0x4E PUSH10 0x34304D54636751794178 0x4F PREVRANDAO MSIZE PUSH22 0x4F546731494451304C6A4D7A4E7977784F4459754E7A COINBASE PUSH24 0x494451304C6A4D324E5377784F4449754E7A413049445133 0x4C PUSH11 0x41314E794244494445334E PUSH26 0x34344D6A45674E5441754D7A51324C4445334E6934774D444167 0x4E SLOAD 0x4D PUSH22 0x4D5451324C4445334E6934774D4441674E5463754D7A MSIZE BALANCE 0x49 GASLIMIT 0x4D PUSH8 0x4D5463324C6A4177 0x4D NUMBER COINBASE ORIGIN 0x4D NUMBER CALLVALUE ORIGIN 0x4F SLOAD SSTORE PUSH20 0x4D5463314C6A4D7A4E5341324D5334304E546773 0x4D SLOAD PUSH4 0x304C6A51 PUSH24 0x4D4341314F5334794D444167517941784E7A51754D544933 0x49 PREVRANDAO SSTORE CALLVALUE 0x4C PUSH11 0x55304D4377784E7A4D754E PUSH27 0x5131494455344C6A41774D4377784E7A4D754E545578494455344C PUSH11 0x41774D434244494445334D PUSH26 0x347A4E5467674E5467754D4441774C4445334D7934794D444167 0x4E SLOAD PUSH4 0x754F4445 ORIGIN 0x4C PREVRANDAO GASLIMIT CALLER 0x4D PUSH26 0x34794D4441674E5463754E546B7949454D674D54637A4C6A4977 0x4D NUMBER COINBASE BALANCE 0x4E PUSH26 0x347A4E6A67734D5463794C6A63314D4341314E6934304E7A4573 0x4D SLOAD PUSH4 0x794C6A49 PUSH24 0x4D4341314E5334324D444167517941784E7A41754F546379 0x49 PREVRANDAO SSTORE PUSH27 0x4C6A59314E4377784E7A41754F5455314944557A4C6A49354D5377 PUSH25 0x4E7A49754D4467354944557A4C6A45794F434244494445334D PUSH10 0x34324D5449674E544D75 0x4D PREVRANDAO SSTORE PUSH27 0x4C4445334D79347A4D544D674E5449754E44457A4C4445334D7934 CALLER 0x4F PREVRANDAO PUSH12 0x674E5445754E54633149454D PUSH8 0x4D5463314C6A5131 0x4D PUSH10 0x41304F4334324E544D73 0x4D SLOAD PUSH4 0x354C6A41 CALLVALUE 0x4E NUMBER COINBASE ADDRESS 0x4E MSTORE8 CALLVALUE PUSH26 0x4F4451734D5467794C6A55314F4341304D7934304E4445675179 COINBASE PUSH25 0x4F444D754E6A4D31494451794C6A67324F5377784F4451754E PUSH27 0x4533494451794C6A497A4E5377784F4451754F54597A494451794C PUSH11 0x417A4D534244494445344E MSTORE8 CALLVALUE BALANCE 0x4F SLOAD PUSH8 0x674E4445754E5441 ADDRESS 0x4C PREVRANDAO GASLIMIT CALLVALUE 0x4F NUMBER CALLVALUE PUSH25 0x4D5441674E4445754D6A59324C4445354D5334324D6A51674E PREVRANDAO GASLIMIT PUSH22 0x4D7A6B35494577674D546B304C6A59304F5341304D53 CALLVALUE BALANCE 0x4D SLOAD MLOAD PUSH8 0x4D546B334C6A5579 0x4E NUMBER COINBASE ADDRESS 0x4E NUMBER CALLVALUE PUSH27 0x4D4441675454457A4E4334324E4445674E444D754E546B3049454D PUSH8 0x4D544D784C6A6778 0x4D PUSH26 0x41304E5334314F544D734D5449334C6A59774D4341304F533430 0x4F SLOAD PUSH8 0x734D5449334C6A59 PUSH24 0x4D4341314D4334784D6A4967517941784D6A63754E6A4177 0x49 PREVRANDAO SSTORE PUSH24 0x4C6A4D784E4377784D6A59754E7A6B77494455784C6A4D35 0x4E PUSH26 0x77784D6A55754F444177494455794C6A55794F53424449444579 0x4E NUMBER CALLVALUE CALLVALUE 0x4D SLOAD COINBASE PUSH8 0x4E544D754E6A5977 0x4C PREVRANDAO GASLIMIT PUSH26 0x4E4334774D4441674E5451754E7A4D7A4C4445794E4334774D44 COINBASE PUSH8 0x4E5451754F544579 0x49 GASLIMIT 0x4D PUSH8 0x4D5449304C6A4177 0x4D NUMBER COINBASE BALANCE 0x4E MSTORE8 CALLVALUE PUSH24 0x4F5449734D54497A4C6A4D304D6941314E6934794E6A5573 0x4D SLOAD 0x49 PUSH26 0x4C6A557A4F4341314E7934314D546B67517941784D6A45754D44 SSTORE CALLER 0x49 PREVRANDAO SSTORE CALLDATALOAD 0x4C PUSH11 0x677A4D4377784D546B754D PUSH11 0x41774944597A4C6A45324D PUSH10 0x77784D546B754D6A4177 0x49 PREVRANDAO MSIZE PUSH27 0x4C6A55774F534244494445784F5334794D4441674E6A4D754E6A45 PUSH27 0x4C4445784F5334304E7A41674E6A4D754E4463304C4445784F5334 CALLVALUE 0x4D PREVRANDAO COINBASE PUSH8 0x4E6A4D754D6A4177 0x49 GASLIMIT 0x4D PUSH8 0x4D5449774C6A457A 0x4D NUMBER COINBASE ORIGIN 0x4D PUSH10 0x34354D6A59734D544977 0x4C PUSH11 0x51774D4341324D6934314D PUSH27 0x45734D5449774C6A51774D4341324D69347A4D6A4567517941784D PUSH11 0x41754E444177494459794C PUSH11 0x45784D5377784D6A45754D SLOAD MSIZE BALANCE 0x49 PREVRANDAO MSIZE PUSH24 0x4C6A59344E5377784D6A49754D544177494455354C6A4531 0x4D MSTORE8 TIMESTAMP PREVRANDAO 0x49 PREVRANDAO GASLIMIT PUSH26 0x4D7934774D7A55674E5463754E6A45334C4445794D7934354F44 0x4D PUSH8 0x4E5459754D445532 0x4C PREVRANDAO GASLIMIT PUSH26 0x4E4334794D4459674E5455754E6A677849454D674D5449314C6A MLOAD CALLER 0x4D MSTORE8 COINBASE BALANCE 0x4D PUSH26 0x34314E546B734D5449324C6A6B7A4F4341314D5334324D7A4973 0x4D SLOAD 0x49 CALLER 0x4C PUSH11 0x517A4D7941314D5334304E PREVRANDAO 0x4D PUSH8 0x517941784D6A6375 0x4E PUSH27 0x5131494455784C6A4D794D7977784D6A67754D444177494455784C PUSH11 0x41794E7977784D6A67754D PREVRANDAO COINBASE PUSH24 0x494455774C6A63344E694244494445794F4334774D444167 0x4E PREVRANDAO PUSH12 0x754E5449354C44457A4E5334 PUSH27 0x4E5451674E4449754F4441774C44457A4E6934334D6A63674E4449 PUSH22 0x4F44417749454D674D544D324C6A6B7A4D7941304D69 CALLVALUE CALLVALUE 0x4D PREVRANDAO COINBASE PUSH20 0x4D544D334C6A4D794E6941304D6934314D7A4173 0x4D SLOAD 0x4D CALLER 0x4C PUSH11 0x59774D4341304D6934794D PREVRANDAO COINBASE PUSH8 0x517941784D7A6775 0x4E PREVRANDAO PUSH12 0x35494451784C6A45784E7977 PUSH25 0x4D7A63754E445131494451784C6A59784D7977784D7A51754E PUSH11 0x51784944517A4C6A55354E NUMBER TIMESTAMP 0x4E 0x4D PUSH11 0x41794C6A67774D4341314D NUMBER CALLVALUE CALLVALUE 0x4D PUSH11 0x5167517941794D4449754F PREVRANDAO COINBASE PUSH24 0x494455784C6A49334E7977794D4449754E6A497749445578 0x4C PUSH11 0x557A4E6977794D4449754E PREVRANDAO COINBASE PUSH24 0x494455784C6A51774D434244494449774D6934784F444167 0x4E SLOAD GASLIMIT PUSH22 0x4D6A59304C4449774D6934774D4441674E5441754F44 PUSH12 0x7A4C4449774D6934774D4441 PUSH8 0x4E5441754E546332 0x49 GASLIMIT 0x4D PUSH8 0x4D6A41794C6A4177 0x4D NUMBER COINBASE BALANCE 0x4D NUMBER CALLVALUE PUSH26 0x4E546B734D6A41794C6A45344D4341314D4334774D4441734D6A COINBASE PUSH26 0x4C6A51774D4341314D4334774D444167517941794D4449754E6A 0x49 PUSH24 0x494455774C6A41774D4377794D4449754F44417749445577 0x4C PUSH11 0x4D334D5377794D4449754F PREVRANDAO COINBASE PUSH24 0x494455774C6A67794E43424E4D6A41324C6A4D354E434131 0x4E PUSH26 0x347A4D444167517941794D4459754D7A6735494455344C6A4179 0x4F NUMBER PUSH24 0x794D4459754D7A4530494455344C6A41344E5377794D4459 PUSH22 0x4D444177494455334C6A59774D434244494449774E53 CALLVALUE ADDRESS 0x4F SLOAD PUSH12 0x674E5459754F4449304C4449 PUSH24 0x4E5334304F546B674E5459754E4441774C4449774E693477 0x4D PREVRANDAO COINBASE PUSH8 0x4E5459754E444177 0x49 GASLIMIT 0x4D PUSH8 0x4D6A41324C6A4979 0x4D NUMBER COINBASE BALANCE 0x4E PUSH10 0x34304D4441734D6A4132 0x4C PUSH11 0x4D354E7941314E6934344D PREVRANDAO SSTORE PUSH20 0x4D6A41324C6A4D354E4341314E79347A4D444167 SLOAD SLOAD GASLIMIT CALLDATALOAD 0x4E PUSH26 0x347A4E7A63674E6A45754D6A673549454D674D546B344C6A6335 0x4D NUMBER COINBASE ORIGIN 0x4D PUSH26 0x347A4D4459734D546B344C6A49344D5341324D7934334E444973 0x4D SLOAD PUSH12 0x304C6A41794F4341324E4334 PUSH25 0x4E6A5167517941784F5445754D6A4D78494459304C6A51304D MSTORE8 PUSH24 0x784F446B754D546B35494459794C6A51354F4377784F5445 PUSH22 0x4E544177494459784C6A63304E694244494445354D53 CALLVALUE CALLVALUE 0x4F PREVRANDAO SSTORE PUSH8 0x4E6A45754E6A4977 0x4C PREVRANDAO GASLIMIT CALLDATALOAD 0x4D PUSH10 0x34334E4441674E6A4575 0x4D PUSH11 0x63774C4445354D7934304D PREVRANDAO COINBASE PUSH8 0x4E6A41754F545934 0x49 GASLIMIT 0x4D PUSH8 0x4D546B314C6A4535 0x4E PUSH26 0x41324D4334784E4455734D546B324C6A59314F5341324D433479 0x4E PUSH11 0x4D734D546B334C6A4D334E PUSH26 0x41324D5334794F446B67545445324D6934344D5451674E6A5175 0x4D PUSH11 0x413349454D674D5459314C PUSH11 0x45354E5341324E5334304D PUSH27 0x67734D5459314C6A45344E5341324F4334314D5455734D5459794C PUSH11 0x67774D4341324F4334344D PUSH27 0x5167517941784E6A45754F444577494459344C6A6B324E7977784E PUSH11 0x41754E544D31494459354C PUSH11 0x49324E7977784E546B754F SLOAD MSIZE CALLER 0x49 PREVRANDAO MSIZE CALLDATALOAD 0x4C PUSH11 0x55774D694244494445314F NUMBER CALLVALUE ADDRESS 0x4E PREVRANDAO 0x49 PUSH8 0x4E7A41754D544D7A 0x4C PREVRANDAO GASLIMIT BALANCE 0x4E PUSH26 0x34304E446B674E6A6B754D4463344C4445314E6934334F444967 0x4E PUSH11 0x59754D54497849454D674D SLOAD SSTORE ORIGIN 0x4C PUSH11 0x51784D5341324E4334304E PUSH27 0x55734D5455324C6A67324D4341324E4334774F5451734D5455354C PUSH11 0x51784D4341324D7934344F SLOAD PUSH8 0x67517941784E6A41 PUSH22 0x4E5441314944597A4C6A67784D7977784E6A45754E44 SSTORE ADDRESS 0x49 PREVRANDAO MSIZE PUSH27 0x4C6A63784D6977784E6A45754E5449774944597A4C6A59334D6942 PREVRANDAO 0x49 PREVRANDAO GASLIMIT ORIGIN 0x4D MSTORE8 CALLVALUE BALANCE 0x4F PREVRANDAO MSIZE PUSH8 0x4E6A4D754E6A4D79 0x4C PREVRANDAO GASLIMIT ORIGIN 0x4D PUSH10 0x34784E6A67674E6A4D75 0x4F PREVRANDAO PUSH4 0x7A4C4445 ORIGIN 0x4D PUSH10 0x34344D5451674E6A5175 0x4D PUSH11 0x4133494530784D5467754E PREVRANDAO PUSH4 0x78494459 ADDRESS 0x4C PUSH11 0x677A4E534244494445784F NUMBER CALLVALUE PUSH25 0x4F4445674E6A55754D6A6B354C4445784F4334774D6A45674E PUSH11 0x55754E7A55314C4445784F NUMBER CALLVALUE PUSH25 0x4D5455674E6A55754F44513549454D674D5445344C6A4D354D PUSH26 0x41324E6934784D6A59734D5445354C6A49344F4341324E433434 0x4E PUSH11 0x51734D5445354C6A457A4E PUSH26 0x41324E4334304D544167517941784D546B754D44597749445930 0x4C PUSH11 0x45344D4377784D5467754E PUSH27 0x5977494459304C6A4D334D5377784D5467754E446378494459304C PUSH11 0x677A4E53424E4D6A45774C PUSH11 0x51344E4341324E7934304E PREVRANDAO SSTORE PUSH8 0x517941794D544575 0x4D PREVRANDAO MLOAD PUSH27 0x494459344C6A45304E5377794D5449754D7A417A494459354C6A4D ORIGIN 0x4F NUMBER PUSH24 0x794D5455754D7A5935494463794C6A45344F434244494449 PUSH25 0x4E6934304E5449674E7A4D754D5467314C4449784E7934794E PREVRANDAO 0x49 PUSH8 0x4E7A51754D444177 0x4C PREVRANDAO 0x49 PUSH25 0x4E7934784D6A55674E7A51754D44417749454D674D6A45324C PUSH11 0x557A4F5341334E4334774D PREVRANDAO COINBASE PUSH20 0x4D6A45774C6A63354F4341334D5334354F546373 0x4D PUSH11 0x41354C6A51774D4341334D MSTORE8 CALLVALUE PUSH27 0x4D445567517941794D4455754F545531494459354C6A59774D4377 PUSH26 0x4D444D754E445931494459354C6A59794E5377794D4455754D54 PUSH8 0x33494463784C6A4D ADDRESS 0x4E PUSH26 0x4244494449774E5334354F4451674E7A49754D5451304C444977 0x4E MSTORE8 CALLVALUE ORIGIN 0x4D PUSH27 0x6B674E7A4D754D5463334C4449774E4334314D4441674E7A4D754E PREVRANDAO COINBASE ADDRESS 0x49 GASLIMIT 0x4D PUSH8 0x4D6A417A4C6A4D32 0x4F MSTORE8 COINBASE CALLER 0x4D PUSH26 0x34324D6A6B734D6A41784C6A6B7A4F5341334E4334774E7A6373 0x4D PUSH11 0x41774C6A59354D5341334E NUMBER CALLVALUE BALANCE 0x4F SLOAD PUSH4 0x67517941 PUSH25 0x4F546B754E7A597A494463304C6A6B344E4377784F5463754D PUSH27 0x6331494463794C6A55774F4377784F5459754F546B79494463774C PUSH11 0x63324D794244494445354E PUSH10 0x34314E5441674E6A6775 0x4E PUSH27 0x55774C4445354E7934304D5467674E6A67754D6A49304C4449774D MSTORE8 CALLVALUE PUSH26 0x4D444D674E6A67754D6A457849454D674D6A417A4C6A4D324E53 COINBASE ORIGIN 0x4F NUMBER CALLVALUE PUSH26 0x4D4451734D6A41304C6A51774D4341324F4334774E446B734D6A COINBASE ADDRESS 0x4C PUSH11 0x51774D4341324E7934334D PUSH27 0x4D67517941794D4451754E444177494459324C6A597A4E7977794D PREVRANDAO PUSH12 0x754E6A5177494459324C6A4D CALLVALUE 0x4F MSTORE8 PUSH24 0x794D5441754E446730494459334C6A51304E53424E4D6A45 BALANCE 0x4C PUSH11 0x6B794D7941324F4334354E SLOAD PUSH4 0x67517941 PUSH26 0x4D546B754D7A4D31494463794C6A51354F5377794D5467754E6A MLOAD CALLER 0x49 PREVRANDAO PUSH4 0x7A4C6A55 CALLER 0x4D NUMBER PUSH24 0x794D5451754F446B30494463774C6A55314F534244494449 PUSH25 0x4D53347A4E4441674E6A63754E7A41344C4449784D4334344D SLOAD MSIZE PUSH8 0x4E6A59754F444177 0x4C PREVRANDAO 0x49 PUSH25 0x4D6934334D6A4D674E6A59754F44417749454D674D6A457A4C PUSH11 0x55314E7941324E6934344D PREVRANDAO COINBASE PUSH20 0x4D6A45304C6A4D334F4341324E79347A4E544D73 0x4D PUSH11 0x45314C6A6B794D7941324F NUMBER CALLVALUE CALLDATALOAD 0x4E SLOAD PUSH4 0x67545445 CALLER 0x4E PUSH10 0x34344E5451674E6A6775 0x4F SLOAD PUSH8 0x7749454D674D5467 PUSH25 0x4C6A4D354E4341334D69347A4D5449734D5467304C6A67344D MSTORE8 COINBASE CALLER 0x4F NUMBER CALLVALUE BALANCE 0x4E PUSH11 0x51734D54677A4C6A4D344F NUMBER COINBASE CALLVALUE 0x4D NUMBER CALLVALUE ORIGIN 0x4F SLOAD SSTORE PUSH8 0x517941784F444D75 0x4D PREVRANDAO 0x49 ADDRESS 0x49 PREVRANDAO PUSH8 0x784C6A49784E5377 PUSH25 0x4F4449754F446330494467784C6A6B314E6977784F444D754D PREVRANDAO GASLIMIT CALLER 0x49 PREVRANDAO PUSH8 0x794C6A55794E7942 PREVRANDAO 0x49 PREVRANDAO GASLIMIT CALLVALUE 0x4D PUSH26 0x34784E6A4D674F444D754D5441344C4445344D7934774D7A5567 0x4F PREVRANDAO 0x4D PUSH22 0x4E7A41344C4445344D6934324F5441674F4451754D44 SSTORE PUSH26 0x49454D674D5467794C6A4D334F4341344E43347A4E6A51734D54 PUSH8 0x784C6A67784D5341 CALLVALUE 0x4E MSTORE8 CALLVALUE PUSH26 0x4E7A67734D5467784C6A51794F5341344E6934774F4449675179 COINBASE PUSH25 0x4E7A59754F54493049446B314C6A55334E6977784E6A49754F SLOAD SSTORE PUSH24 0x49446B334C6A67774E4377784E4449754D6A413449446B79 0x4C PUSH11 0x4D7A4E694244494445304D NUMBER CALLVALUE ORIGIN 0x4E PUSH27 0x49674F5445754F544D784C44457A4F4334354D6A49674F5445754E PUSH11 0x41774C44457A4F43347A4D SLOAD PUSH12 0x674F5445754E6A417749454D PUSH8 0x4D544D324C6A4533 0x4D PUSH10 0x41354D5334324D444173 0x4D SLOAD 0x4D PUSH27 0x4C6A55774E7941344F5334354E5441734D544D7A4C6A67774E6941 CALLVALUE 0x4F NUMBER CALLVALUE CALLVALUE 0x4D PREVRANDAO MSIZE PUSH8 0x517941784D7A4D75 0x4F SLOAD SSTORE PUSH25 0x494467344C6A49314D7977784D7A51754D54417A494467334C PUSH11 0x49324D4377784D7A51754D SLOAD MLOAD ADDRESS 0x49 PREVRANDAO PUSH8 0x324C6A59774D4342 PREVRANDAO 0x49 PREVRANDAO GASLIMIT PUSH27 0x4E43347A4D4463674F444D754F5451304C44457A4E43347A4D4449 PUSH8 0x4F444D754F545134 0x4C PREVRANDAO GASLIMIT ADDRESS 0x4D PUSH26 0x34304D4441674E7A67754D7A6B3449454D674D5451354C6A6734 0x4F MSTORE8 COINBASE CALLER 0x4E NUMBER CALLVALUE ADDRESS 0x4D PUSH27 0x6B734D5455324C6A41774D4341334D5334794F544D734D5455344C PUSH11 0x45794E5341334D4334344D SLOAD PUSH4 0x67517941 PUSH25 0x4E6A51754D7A4D78494459354C6A51794E6977784E7A41754E PUSH11 0x6B34494459344C6A6B774F MSTORE8 PUSH24 0x784E7A45754E7A5931494459354C6A63784D434244494445 CALLER 0x4D PUSH26 0x34304E5445674E7A41754F5463314C4445334D5334304E6A5567 0x4E PUSH27 0x49754E4441774C4445324F4334774D5459674E7A49754E44417749 GASLIMIT 0x4D PUSH8 0x4D5459314C6A6335 0x4E PUSH26 0x41334D6934304D4441734D5459794C6A41354F4341334D793430 0x4E PUSH11 0x45734D5455344C6A49334D MSTORE8 COINBASE CALLER 0x4E MSTORE8 CALLVALUE PUSH25 0x4F546367517941784E5459754F444579494463314C6A67314F MSTORE8 PUSH24 0x784E5455754D7A5133494463324C6A51774D4377784E5455 PUSH22 0x4D444532494463324C6A51774D434244494445314E43 CALLVALUE PUSH26 0x4E6A4D674E7A59754E4441774C4445304E6934794D5463674F44 COINBASE PUSH22 0x4E54557A4C4445304E4334324D4441674F4445754E7A PUSH4 0x3349454D PUSH8 0x4D54517A4C6A6B30 0x4D NUMBER COINBASE CALLVALUE 0x4D PUSH10 0x34794E7A59734D545179 0x4C PUSH11 0x6B334E7941344D6934344D SLOAD PUSH12 0x734D5451794C6A51324D4341 CALLVALUE 0x4D PUSH10 0x34354F44496751794178 0x4E PREVRANDAO GASLIMIT PUSH22 0x4E7A6B774944677A4C6A45354E4377784E4445754E6A MLOAD PUSH27 0x4944677A4C6A51774D7977784E4445754F5451354944677A4C6A63 PUSH24 0x4F534244494445304D6934794E5451674F4451754D444530 0x4C PREVRANDAO GASLIMIT ADDRESS 0x4D PUSH26 0x34774E4451674F444D754F5449344C4445304E4334324F446B67 0x4F PREVRANDAO 0x4D PUSH22 0x4E44457749454D674D5451324C6A6B794F4341344D69 CALLVALUE CALLER 0x4D PREVRANDAO MSIZE PUSH20 0x4D5451334C6A63774D6941344D6934304D544973 0x4D SLOAD SSTORE PUSH24 0x4C6A6B784E6941344D5334774E444D67517941784E545575 0x4E PUSH27 0x6B33494463344C6A6B324E5377784E546B754E544934494463344C PUSH11 0x45314F4377784E6A55754D PUSH11 0x4177494463334C6A6B314D PUSH10 0x4244494445334D693435 0x4F SLOAD 0x4D PUSH8 0x4E7A63754E6A6377 0x4C PREVRANDAO GASLIMIT CALLER 0x4E MSTORE8 CALLVALUE ORIGIN 0x4F SLOAD PUSH4 0x674E7A63 PUSH22 0x4F4441344C4445334E7934354D4445674E7A67754E6A COINBASE PUSH26 0x49454D674D5467784C6A41354F5341334F5334334E5451734D54 PUSH8 0x784C6A4D324D5341 CALLER 0x4F MSTORE8 CALLVALUE PUSH24 0x4E7A63734D5463344C6A6B334E5341334E5334344D6A6767 MLOAD PUSH26 0x41784E7A63754F544530494463304C6A4D344D6977784E7A5975 0x4F SLOAD GASLIMIT PUSH25 0x4944637A4C6A49774D4377784E7A59754E7A51334944637A4C PUSH11 0x49774D434244494445334E PUSH10 0x347A4E6A41674E7A4D75 0x4D PUSH11 0x41774C4445334D6934324F SLOAD 0x4D PUSH8 0x4E7A41754D445134 0x4C PREVRANDAO GASLIMIT CALLER 0x4D PUSH10 0x34794F5467674E6A6B75 0x4D PUSH27 0x633249454D674D5463784C6A45344D5341324E7934304E7A67734D SLOAD PUSH4 0x304C6A51 PUSH26 0x4D7941324E7934784F5459734D5463324C6A67314E4341324F43 CALLVALUE CALLDATALOAD 0x4F PREVRANDAO COINBASE PUSH8 0x545445324F433479 0x4D PUSH11 0x45674E7A55754D44593549 GASLIMIT 0x4D PUSH8 0x4D5459344C6A6730 0x4F MSTORE8 COINBASE CALLER 0x4E PUSH10 0x34794E6A45734D545934 0x4C PUSH11 0x6B334F4341334E6934344E PUSH11 0x49734D5459344C6A59334D MSTORE8 COINBASE CALLER 0x4E PUSH26 0x34784E6A6B67517941784E6A63754F546333494463334C6A6732 0x4D PUSH26 0x77784E6A41754F444932494463334C6A637A4D6977784E6A4175 0x4E SLOAD SSTORE PUSH27 0x494463334C6A41794D534244494445324D4334794E444D674E7A59 PUSH22 0x4D6A457A4C4445324D5334324D7A51674E7A51754E44 0x4D PUSH25 0x4C4445324D6934324D4441674E7A51754D7A6B3449454D674D SLOAD MSIZE PUSH27 0x4C6A41304D4341334E43347A4F4451734D54597A4C6A67314D4341 CALLER 0x4E NUMBER CALLVALUE PUSH25 0x4D5441734D5459304C6A51774D4341334D7934334F54456751 PUSH26 0x41784E6A59754D446777494463794C6A67784E5377784E6A6375 0x4D PUSH11 0x4D334944637A4C6A49774D PUSH10 0x77784E6A67754D6A4978 0x49 PREVRANDAO PUSH4 0x314C6A41 ORIGIN 0x4F MSTORE8 TIMESTAMP 0x4E 0x4D PUSH11 0x41354C6A4D314F4341334E PUSH10 0x34784E54556751794179 0x4D PREVRANDAO PUSH4 0x754D4463 BALANCE 0x49 PREVRANDAO PUSH4 0x324C6A59 BALANCE 0x4D PUSH10 0x77794D4459754D6A4135 0x49 PREVRANDAO PUSH4 0x334C6A49 PUSH27 0x4E5377794D4455754D7A6732494463344C6A67794F434244494449 PUSH24 0x4E4334784E4451674F4445754D6A4D774C4449774D533433 0x4E SLOAD PUSH4 0x674F4449 PUSH22 0x4E5455334C4445354F4334794D7A41674F4449754F44 GASLIMIT PUSH24 0x49454D674D546B314C6A55314D5341344D7934774D444573 0x4D SLOAD PUSH12 0x314C6A49774D6941344D7934 PUSH24 0x4F546B734D546B324C6A45344E5341344D79347A4F445567 MLOAD PUSH26 0x41784F546B754D446B35494467304C6A497A4D6977794D444D75 0x4F SLOAD SSTORE ADDRESS 0x49 PREVRANDAO PUSH8 0x794C6A45794D7977 PUSH26 0x4D4455754E7A6B79494463354C6A49784D794244494449774E79 CALLVALUE PUSH25 0x4E7A59674E7A63754D4449784C4449774F4334774E6A49674E PUSH27 0x59754E6A59304C4449784D6934794D4441674E7A59754E6A4D7749 GASLIMIT 0x4D PUSH8 0x4D6A45314C6A5532 0x4E PUSH26 0x41334E6934324D4449734D6A45314C6A67774F4341334E693432 0x4E SLOAD SSTORE PUSH20 0x4D6A45314C6A6B794D4341334E7934304E444967 MLOAD PUSH26 0x41794D5459754D6A6B35494467774C6A41354E7977794D446B75 0x4E PUSH27 0x4531494467304C6A67304D7977794D444D754E444177494467324C PUSH11 0x51324E794244494445354E PUSH26 0x34354F5441674F4463754F4455344C4445344F4334774E444167 0x4F PREVRANDAO MLOAD PUSH22 0x4F5459794C4445354D4334774D6A49674F4449754E54 PUSH4 0x7A49454D PUSH8 0x4D546B774C6A5530 0x4D MSTORE8 COINBASE CALLVALUE 0x4D MSTORE8 CALLVALUE CALLDATALOAD 0x4E PREVRANDAO PUSH8 0x734D546B784C6A45 ADDRESS 0x4F NUMBER COINBASE CALLVALUE 0x4D MSTORE8 CALLVALUE CALLDATALOAD 0x4E SLOAD COINBASE PUSH20 0x4D546B7A4C6A59774D4341344D6934314F445167 MLOAD PUSH26 0x41784F5451754D6A6735494467794C6A63324D6977784F545175 0x4D SLOAD 0x4D BALANCE 0x49 PREVRANDAO PUSH8 0x794C6A55344E4377 PUSH25 0x4F544D754D54417A494467794C6A41784D794244494445354D NUMBER CALLVALUE PUSH27 0x4F544D674F4441754E5445794C4445344E7934324D6A6B674F4449 PUSH22 0x4D6A6B794C4445344F5334324F5451674F4451754D6A COINBASE CALLER 0x49 GASLIMIT 0x4D PUSH8 0x4D546B304C6A4932 0x4D PUSH26 0x41344F4334304E444D734D6A417A4C6A55784F4341344F433431 0x4D SLOAD MSIZE PUSH20 0x4D6A41354C6A67324D6941344E43347A4E6A5567 MLOAD PUSH26 0x41794D5441754E7A63334944677A4C6A63324E7977794D544575 0x4F SLOAD COINBASE CALLDATALOAD 0x49 PREVRANDAO PUSH8 0x7A4C6A45314E6977 PUSH26 0x4D5449754D7A63344944677A4C6A41774E794244494449784D79 CALLVALUE PUSH27 0x4D6A63674F4449754E7A41324C4449784E6934784F5455674E7A6B PUSH22 0x4D6A63324C4449784E6934324D6A45674E7A63754F54 0x4D ADDRESS 0x49 GASLIMIT 0x4D PUSH8 0x4D6A45334C6A4932 0x4D PUSH26 0x41334E5334354D5449734D6A45304C6A41324E7941334E533478 0x4D PUSH27 0x41734D6A41354C6A4D314F4341334E6934784E545567545445324F NUMBER CALLVALUE CALLDATALOAD 0x4D PUSH27 0x6B674F4441754E7A637A49454D674D5459344C6A51324E5341344D NUMBER CALLVALUE CALLDATALOAD 0x4E PUSH27 0x67734D5459334C6A55324E5341344D5334344D5451734D5459324C PUSH11 0x6B7A4F5341344D6934324D PUSH27 0x4967517941784E6A49754D7A5933494467344C6A59774D4377784E SLOAD MSIZE PUSH22 0x4E54457949446B774C6A417A4E4377784E446B754E7A GASLIMIT CALLDATALOAD 0x49 PREVRANDAO PUSH8 0x324C6A67314D4342 PREVRANDAO 0x49 PREVRANDAO GASLIMIT ADDRESS 0x4E PUSH26 0x34334F4455674F4455754F54517A4C4445304E6934324D444D67 0x4F PREVRANDAO SSTORE PUSH22 0x4E6A41794C4445304E6934784D546B674F4455754F44 GASLIMIT PUSH25 0x49454D674D5451314C6A55304E5341344E6934774E6A41734D SLOAD MLOAD BALANCE 0x4C PUSH11 0x59344D6941344E6934784E PUSH27 0x59734D5451324C6A67774D4341344E69347A4F446367517941784E PREVRANDAO PUSH4 0x754E5463 PUSH24 0x494467324C6A557A4D7977784E4467754E54673049446732 0x4C PUSH11 0x67324D4377784E446B754D PREVRANDAO SSTORE PUSH26 0x494467334C6A45784E534244494445314E5334784F4463674F54 COINBASE PUSH22 0x4E4451304C4445324D53347A4D4451674F446B754E44 COINBASE BALANCE 0x4C PREVRANDAO GASLIMIT ORIGIN 0x4E PUSH10 0x34794D7A63674F445175 0x4D SLOAD PUSH12 0x32494577674D5459354C6A41 CALLER 0x4E NUMBER COINBASE CALLVALUE 0x4D MSTORE8 CALLVALUE PUSH26 0x4D4441674D5463784C6A59334E4341344D5334794D4441675179 COINBASE PUSH25 0x4F4441754E545577494467784C6A49774D4377784E7A6B754D PUSH27 0x6732494467334C6A51774E7977784E6A6B754F444D3249446B784C PUSH11 0x41774D534244494445324E MSTORE8 CALLVALUE PUSH27 0x4E4449674F5449754E6A6B7A4C4445314D7934324E444D674F5449 PUSH22 0x4D6A6B794C4445304F4334784E4467674F5441754D6A SSTORE CALLDATALOAD 0x49 GASLIMIT 0x4D PUSH8 0x4D5451334C6A4935 0x4E PUSH10 0x41344F5334354E445173 0x4D SLOAD MLOAD BALANCE 0x4C PUSH11 0x6B344E4341344F5334314D PUSH11 0x6B734D5451314C6A497A4D MSTORE8 COINBASE CALLVALUE 0x4F MSTORE8 CALLVALUE PUSH27 0x4D7A6367517941784E444D754E545131494467344C6A6B774E7977 PUSH25 0x4E444D754D6A6B35494467344C6A4D774D5377784E4451754D PUSH27 0x6331494467334C6A49794E534244494445304E5334314E4463674F PREVRANDAO MSIZE PUSH22 0x4D44557A4C4445304E4334324E7A41674F4459754D54 PUSH12 0x354C4445304D79347A4D6A49 PUSH8 0x4F4463754E444178 0x49 GASLIMIT 0x4D PUSH8 0x4D5451784C6A6B33 0x4E PUSH10 0x41344F4334324D444573 0x4D SLOAD MLOAD PUSH26 0x4C6A55304E6941344F53347A4D546B734D5451314C6A4D344F43 COINBASE CALLDATALOAD 0x4D NUMBER CALLVALUE PUSH24 0x4D445967517941784E4459754D6A633049446B774C6A4979 0x4D NUMBER PUSH24 0x784E4463754E54517749446B774C6A55354E6977784E4467 PUSH22 0x4D6A417749446B774C6A67304D534244494445314F53 CALLVALUE PUSH24 0x4F5451674F5451754F4467794C4445334E4334344D7A6B67 0x4F SLOAD 0x49 PUSH22 0x4D446B354C4445334F4334794D7A59674F4455754E54 0x4D PUSH25 0x49454D674D5463354C6A67314F4341344D69347A4F5455734D SLOAD PUSH4 0x7A4C6A45 PUSH27 0x4E7941334F4334354E5451734D5459344C6A6B7A4F5341344D4334 CALLER 0x4E PUSH27 0x4D67545449794D5334324D5467674F4467754E44453449454D674D PUSH11 0x49334C6A55314E7941354E NUMBER CALLVALUE PUSH26 0x4F5463734D6A49344C6A41774D4341354E5334784D5463734D6A 0x49 CALLVALUE 0x4C PUSH11 0x41774D4341784D4441754D PUSH11 0x4977494577674D6A49344C PUSH11 0x41774D4341784D444D754D SLOAD GASLIMIT PUSH27 0x494449794E69347A4F5449674D54417A4C6A63314E794244494449 PUSH26 0x4D7934344E446B674D5441304C6A63334E4377794D6A4D754E6A 0x49 ADDRESS 0x49 PREVRANDAO GASLIMIT PUSH24 0x4E4334324E7A49734D6A49304C6A41324E5341784D444975 0x4E PUSH27 0x417749454D674D6A49304C6A49334E4341784D4445754E7A59314C PREVRANDAO 0x49 PUSH26 0x4E4334334D4455674D5441774C6A59774D5377794D6A55754D44 0x49 PUSH26 0x494445774D4334784D545167517941794D6A55754F5467324944 PUSH12 0x344C6A597A4E6977794D6A51 PUSH22 0x4F544D3049446B7A4C6A6B774E4377794D6A4D754E54 COINBASE PUSH24 0x49446B7A4C6A49324E794244494449794D79347A4D7A5567 0x4F SLOAD 0x4D PUSH22 0x4D546B7A4C4449794D7934794D4441674F5449754F44 PUSH4 0x7A4C4449 PUSH26 0x4D7934794D4441674F5449754E54553049454D674D6A497A4C6A 0x49 PUSH24 0x4D4341354D6934794D7A59734D6A49794C6A6B7A4D434135 0x4D MSTORE8 CALLVALUE CALLVALUE 0x4E PUSH27 0x45734D6A49794C6A59774D4341354D5334334E445567517941794D PUSH11 0x49754D6A637749446B784C PUSH11 0x59784F4377794D6A49754D PREVRANDAO COINBASE PUSH24 0x49446B784C6A49324E4377794D6A49754D44417749446B77 0x4C PUSH11 0x6B314E794244494449794D PUSH10 0x34774D4441674F544175 0x4E PUSH11 0x55784C4449794D5334344E PREVRANDAO SSTORE PUSH8 0x4F5441754E444177 0x4C PREVRANDAO 0x49 PUSH26 0x4D5334324E5463674F5441754E44417749454D674D6A49784C6A MLOAD ORIGIN 0x4F NUMBER COINBASE CALLDATALOAD 0x4D NUMBER CALLVALUE ADDRESS 0x4D PREVRANDAO COINBASE PUSH20 0x4D6A49774C6A4D304E4341344F5334314D444173 0x4D PUSH11 0x45354C6A45324D4341344F NUMBER CALLVALUE ADDRESS 0x4D PREVRANDAO COINBASE PUSH8 0x517941794D546375 0x4F SLOAD PUSH4 0x32494467 CALLER 0x4C PUSH11 0x4D774D4377794D5459754F PREVRANDAO COINBASE PUSH27 0x494467324C6A51774D4377794D5459754E54557A494467324C6A51 PUSH24 0x4D434244494449784E5334334D6A6B674F4459754E444177 0x4C PREVRANDAO 0x49 PUSH25 0x4E5334784E5467674F4455754D7A41314C4449784E5334304D PUSH11 0x59674F4451754D6A4D3449 GASLIMIT 0x4D PUSH8 0x4D6A45314C6A6778 0x4D PUSH10 0x41344D6934334D444173 0x4D PUSH11 0x45314C6A6B774F4341344D PUSH10 0x34334E6A55734D6A4978 0x4C PUSH11 0x59784F4341344F4334304D SLOAD PUSH8 0x67545449794E7934 PUSH27 0x4E6A41674F446B754E6A677A49454D674D6A49334C6A637A4F5341 CALLDATALOAD 0x4D NUMBER CALLVALUE PUSH26 0x4E6A41734D6A49344C6A4D774E7941354D4334344D7A49734D6A 0x49 CALLVALUE 0x4C PUSH11 0x59794E4341354D4334354E SLOAD MLOAD PUSH8 0x517941794D6A6775 0x4F SLOAD MLOAD PUSH25 0x49446B784C6A41334E5377794D6A6B754D6A417749446B784C PUSH11 0x51794F5377794D6A6B754D PUSH11 0x417749446B784C6A637A4F NUMBER TIMESTAMP PREVRANDAO 0x49 PREVRANDAO 0x49 PUSH26 0x4F5334794D4441674F5449754D4451344C4449794F5334304E54 COINBASE PUSH8 0x4F5449754E544577 0x4C PREVRANDAO 0x49 PUSH26 0x4F5334334E5459674F5449754E7A593049454D674D6A4D774C6A COINBASE ORIGIN 0x4D PUSH10 0x41354D7934774D546773 0x4D PUSH11 0x4D774C6A59794E4341354E NUMBER CALLVALUE BALANCE 0x4E PREVRANDAO PUSH12 0x734D6A4D784C6A41774E5341 CALLDATALOAD 0x4E PUSH10 0x34784E6A636751794179 0x4D PUSH27 0x45754E6A557849446B344C6A6B774F4377794D7A45754E6A513549 PREVRANDAO GASLIMIT PUSH24 0x4D4334794E6A45734D6A4D774C6A6B354E7941784D444975 0x4F PREVRANDAO 0x49 PUSH25 0x49454D674D6A4D774C6A63344E4341784D444D754E6A55354C PREVRANDAO 0x49 PUSH27 0x4D4334354D6A49674D54417A4C6A6B794E7977794D7A45754E7A59 CALLVALUE 0x49 PREVRANDAO GASLIMIT PUSH24 0x4E43347A4D544D67517941794D7A49754D7A593349444577 0x4E NUMBER CALLVALUE BALANCE 0x4F PREVRANDAO MSIZE PUSH20 0x4D6A4D794C6A67774D4341784D4455754D544579 0x4C PREVRANDAO 0x49 PUSH27 0x4D6934344D4441674D5441314C6A55324F4342444944497A4D6934 CALLVALUE 0x4D PREVRANDAO COINBASE PUSH8 0x4D5441324C6A4177 0x4D NUMBER PUSH24 0x794D7A49754F545530494445774E6934304E4467734D6A4D PUSH27 0x4C6A45304D6941784D4459754E54593049454D674D6A4D7A4C6A63 CALLDATALOAD 0x4D PUSH26 0x41784D4459754F5459324C44497A4D7934784D4441674D544130 0x4C PUSH11 0x63334E5377794D7A49754E PREVRANDAO 0x49 PUSH27 0x494445774E4334794F446767517941794D7A45754F445934494445 PUSH24 0x4D7934344F5441734D6A4D784C6A63304E5341784D444D75 0x4D SLOAD 0x4D CALLVALUE 0x4C PREVRANDAO 0x49 PUSH27 0x4D5334334E5455674D5441774C6A49774D4342444944497A4D5334 CALLER 0x4E PUSH27 0x49674F5451754F446B314C44497A4D4334324F5441674F5445754F SLOAD MSIZE PUSH25 0x4C4449794E7934344E4467674F446B754E6A4133494577674D PUSH11 0x49324C6A59334D7941344F NUMBER CALLVALUE ORIGIN 0x4D PUSH27 0x51674D6A49334C6A4D324D4341344F5334324F444D67545445774F MSTORE8 CALLVALUE ORIGIN 0x4F PREVRANDAO GASLIMIT PUSH8 0x4D5441304C6A4934 0x4F NUMBER TIMESTAMP PREVRANDAO 0x49 PREVRANDAO GASLIMIT PUSH24 0x4F5334304D5459674D5441314C6A45334D5377784D446B75 0x4D PUSH11 0x4978494445774E6934304D SLOAD 0x49 PUSH20 0x4D5441354C6A49304E6941784D4463754D445132 0x49 GASLIMIT 0x4D PUSH8 0x4D5441354C6A4933 0x4E PUSH26 0x41784D4463754F4445334C4445774F53347A4E4463674D544133 0x4C PUSH11 0x6B7A4E5377784D446B754E PREVRANDAO SSTORE CALLER 0x49 PREVRANDAO GASLIMIT PUSH24 0x4E7934304D444167517941784D446B754E54513349444577 0x4E PUSH10 0x34354E6A41734D544135 0x4C PUSH11 0x67784F4341784D4455754F SLOAD MLOAD ORIGIN 0x4C PREVRANDAO GASLIMIT PUSH25 0x4D4334774E546B674D5441314C6A45304E694244494445784D NUMBER CALLVALUE PUSH27 0x4D4441674D5441304C6A4D304E7977784D5441754E444979494445 PUSH24 0x4D7934304E6A59734D5445774C6A4D794F5341784D444D75 0x4D SLOAD PUSH8 0x3449454D674D5445 PUSH24 0x4C6A497A4E7941784D4449754F5445784C4445774F533435 0x4E PREVRANDAO SSTORE PUSH8 0x4D54417A4C6A5177 0x4E PUSH10 0x77784D446B754E6A6778 0x49 PREVRANDAO GASLIMIT PUSH24 0x4E4334794F446767545445794D6934344D4441674D54417A 0x4C PUSH11 0x63794E434244494445794D PUSH10 0x34344D4441674D544130 0x4C PUSH11 0x63344E7977784D6A45754F PREVRANDAO COINBASE PUSH26 0x494445774E69347A4D7A55734D5449784C6A4D344E5341784D44 SSTORE PUSH22 0x4F54453449454D674D5449784C6A497A4D4341784D44 SSTORE PUSH22 0x4E7A59304C4445794D5334794D6A51674D5441304C6A PUSH12 0x354F5377784D6A45754D7A63 PUSH24 0x494445774E4334794D546B67517941784D6A45754E6A6378 0x49 PREVRANDAO GASLIMIT PUSH24 0x4D6934324D5455734D5449794C6A67774D4341784D444975 0x4D PUSH11 0x49304C4445794D6934344D PREVRANDAO COINBASE PUSH8 0x4D54417A4C6A6379 0x4E NUMBER TIMESTAMP 0x4E 0x4D SLOAD 0x49 BALANCE 0x4C PUSH11 0x6B344E7941784D444D754D SLOAD PUSH8 0x3049454D674D5449 ORIGIN 0x4C PUSH11 0x51354F4341784D444D754E SLOAD COINBASE ORIGIN 0x4C PREVRANDAO GASLIMIT PUSH26 0x4E6934304E7A6B674D54417A4C6A67794D4377784D6A55754F44 MLOAD PUSH27 0x494445774E5334314F446767517941784D6A51754F445577494445 PUSH24 0x4F43347A4E446B734D5449314C6A417A4D5341784D545575 0x4E PUSH11 0x63794C4445794E6934784D PUSH27 0x51674D5445334C6A4D314E534244494445794E6934314D7A51674D SLOAD GASLIMIT CALLER 0x4C PUSH11 0x6B324E5377784D6A63754D SLOAD 0x49 PUSH26 0x494445784F5334304E6A6B734D5449334C6A51304D6941784D6A COINBASE PUSH22 0x4E6A6B3349454D674D5449334C6A63324D6941784D6A GASLIMIT PUSH22 0x4F5449314C4445794F4334334E5445674D5449304C6A MLOAD ORIGIN 0x4D NUMBER PUSH24 0x784D6A6B754E6A4D35494445794E69347A4D7A4167517941 PUSH25 0x4D7A45754E5459314944457A4D43347A4F4451734D544D784C PUSH11 0x557A4E4341784D7A45754E PUSH27 0x49304C4445794F5334314D546B674D544D784C6A55794E43424449 PREVRANDAO GASLIMIT PUSH26 0x4E7934304D6A63674D544D784C6A4D784E7977784D6A49754F44 COINBASE PUSH24 0x494445794D5334784D6A4D734D5449794C6A67774D434178 0x4D SLOAD MSIZE PUSH22 0x4E7A497949454D674D5449794C6A67774D4341784D54 SSTORE PUSH22 0x4F4455324C4445794D6934324D5445674D5445304C6A PUSH4 0x354E5377 PUSH25 0x4D6A49754D7A6778494445784E43347A4E6A5167517941784D PUSH11 0x45754F444131494445784D PUSH26 0x34794F4467734D5449784C6A637A4F4341784D446B754D6A4932 0x4C PREVRANDAO GASLIMIT PUSH26 0x4D6934794E7A49674D5441334C6A63344E434244494445794D69 CALLVALUE BALANCE 0x4D SLOAD 0x4D PUSH8 0x4D5441334C6A457A 0x4D PUSH26 0x77784D6A49754F544530494445774E5334344E4467734D54497A 0x4C PUSH11 0x45324D7941784D4451754F SLOAD 0x49 CALLVALUE 0x49 GASLIMIT 0x4D PUSH8 0x4D54497A4C6A5531 0x4F MSTORE8 COINBASE PUSH25 0x4D444D754E44597A4C4445794D7934354D4449674D54417A4C PUSH11 0x45784E4377784D6A55754D PUSH11 0x4177494445774D6934344E SLOAD 0x4D PUSH8 0x517941784D6A5575 0x4D PUSH27 0x4577494445774D6934344D7A41734D5449314C6A59324E4341784D PREVRANDAO 0x49 PUSH22 0x4F5463354C4445794E5334354F4463674D54417A4C6A GASLIMIT CALLVALUE 0x4E NUMBER TIMESTAMP 0x4E 0x4D PUSH11 0x49354C6A4D354D7941784D PREVRANDAO PUSH8 0x754D7A593549454D PUSH8 0x4D6A49354C6A4131 0x4E MSTORE8 COINBASE PUSH25 0x4D446B754E7A45324C4449794F5334774E7A49674D5441354C PUSH11 0x63774E7977794D6A63754F PREVRANDAO SSTORE PUSH26 0x494445774F5334784E544567517941794D6A59754E54597A4944 GASLIMIT PUSH24 0x4F4334314E6A4D734D6A49324C6A55784D7941784D446375 0x4F PREVRANDAO PUSH12 0x784C4449794E7934334D4441 PUSH8 0x4D5441334C6A4135 0x4D PUSH10 0x4244494449794F433434 0x4F SLOAD SSTORE PUSH8 0x4D5441324C6A4934 0x4F NUMBER PUSH24 0x794D6A6B754E7A557A494445774E6934354D7A59734D6A49 CALLDATALOAD 0x4C PUSH11 0x4D354D7941784D4467754D PUSH27 0x5935494530784D6A63754E6A557A494445774F4334334D44416751 PUSH26 0x41784D7A41754E446734494445784D7934344D5449734D544D77 0x4C PUSH11 0x67354F4341784D5463754D PUSH11 0x55344C4445794F4334334D PREVRANDAO 0x4D PUSH8 0x4D5445334C6A5579 0x4D PUSH10 0x4244494445794E693432 0x4E SLOAD MSIZE PUSH8 0x4D5445334C6A6332 0x4F MSTORE8 PUSH24 0x784D6A55754D444134494445784D6934794E6A49734D5449 BALANCE 0x4C PUSH11 0x67314E7941784D4467754D PREVRANDAO GASLIMIT CALLER 0x49 GASLIMIT 0x4D PUSH8 0x4D5449324C6A4534 0x4D PUSH26 0x41784D4459754D7A677A4C4445794E6934304D5467674D544132 0x4C PUSH11 0x51334D7977784D6A63754E PUSH11 0x557A494445774F4334334D PREVRANDAO COINBASE PUSH8 0x5454497A4D693434 0x4F PREVRANDAO MLOAD PUSH8 0x4D5445784C6A4130 0x4D NUMBER TIMESTAMP PREVRANDAO 0x49 PREVRANDAO 0x49 PUSH27 0x4D6934344D7A67674D54457A4C6A41304D6977794D7A49754E6A41 BALANCE 0x49 PREVRANDAO GASLIMIT PUSH25 0x4E5334794E4441734D6A4D794C6A4D324E7941784D5455754F SLOAD 0x49 PUSH27 0x49454D674D6A4D784C6A6B344E7941784D5463754D4445304C4449 PUSH27 0x4D6934774E6A41674D5445334C6A4D7A4D6977794D7A49754F5459 CALLER 0x49 PREVRANDAO GASLIMIT PUSH25 0x4F4334314D6A4567517941794D7A4D754E544D31494445784F MSTORE8 CALLVALUE PUSH26 0x4E6A59734D6A4D304C6A41774D4341784D6A41754D5445304C44 0x49 PUSH27 0x4E4334774D4441674D5449774C6A51774E4342444944497A4E4334 PUSH24 0x4D4441674D5449774C6A59354E5377794D7A51754D544535 0x49 PREVRANDAO GASLIMIT PUSH26 0x4D4334344D5451734D6A4D304C6A49324E4341784D6A41754E6A MSIZE CALLDATALOAD 0x49 GASLIMIT 0x4D PUSH8 0x4D6A4D304C6A5532 0x4D PUSH10 0x41784D6A41754D7A6378 0x4C PREVRANDAO 0x49 PUSH27 0x4D7934784E7A63674D5445334C6A59774D4377794D7A49754E7A4D PUSH24 0x494445784E7934324D444167517941794D7A49754E546378 0x49 PREVRANDAO GASLIMIT PUSH25 0x4E7934324D4441734D6A4D794C6A59784F5341784D5463754D PREVRANDAO PUSH12 0x784C44497A4D6934344D7A59 PUSH8 0x4D5445324C6A5132 0x4F NUMBER TIMESTAMP PREVRANDAO 0x49 PREVRANDAO 0x49 PUSH27 0x4D7934774E544D674D5445314C6A67304E6977794D7A4D754D5463 PUSH25 0x494445784D7934314E5445734D6A4D7A4C6A41354F5341784D SLOAD GASLIMIT PUSH22 0x4D7A5934494577674D6A4D794C6A6B324E7941784D44 PUSH4 0x754E4441 PUSH24 0x4944497A4D6934344F4451674D5445784C6A41304D43424E 0x4D SLOAD COINBASE CALLVALUE 0x4C PUSH11 0x67324E4341784D5441754D PUSH11 0x497749454D674D5441344C PUSH11 0x67794F5341784D5441754F PREVRANDAO PUSH12 0x784C4445774F4334314E7A59 PUSH8 0x4D5445784C6A5932 0x4E NUMBER PUSH24 0x784D4467754D7A417A494445784D5334354D7A6367517941 PUSH25 0x4D4463754F445179494445784D69347A4F5467734D5441334C PUSH11 0x51354E5341784D5459754E PUSH27 0x41794C4445774E7934774E4449674D5449334C6A59774D43424D49 PREVRANDAO GASLIMIT PUSH24 0x4E6934354D4441674D544D784C6A41774D4341784D446375 0x4D PUSH11 0x5179494445794E7934344D PREVRANDAO COINBASE PUSH8 0x517941784D446375 0x4E PREVRANDAO 0x4D PUSH24 0x494445794E6934774E4441734D5441334C6A63304E434178 0x4D PUSH11 0x49754D4459334C4445774E PUSH26 0x34354D7A6B674D5445344C6A6B334D534244494445774F433478 0x4D PUSH27 0x55674D5445314C6A67334E6977784D4467754E544577494445784D PUSH10 0x34354E4449734D544134 0x4C PUSH11 0x63334D6941784D5449754E PREVRANDAO SSTORE PUSH27 0x49454D674D5441354C6A417A4E4341784D5445754F54597A4C4445 PUSH24 0x4F5334784E7A59674D5445774C6A6B344E6977784D446B75 0x4D PREVRANDAO PUSH8 0x34494445784D4334 PUSH26 0x4F444967544341784D4467754F544934494445774F5334774D44 COINBASE PUSH8 0x4D5441344C6A6732 0x4E NUMBER COINBASE PUSH25 0x4D5441754D6A4977494530794D6A67754F444D33494445784E MSTORE8 CALLVALUE CALLVALUE 0x4F SLOAD GASLIMIT PUSH8 0x517941794D6A6775 0x4E PREVRANDAO PUSH12 0x77494445784E6934304F4463 PUSH20 0x4D6A49344C6A51794D6941784D5459754D7A6B33 0x4C PREVRANDAO 0x49 PUSH26 0x4F4334304D5449674D5445314C6A4D7A4D794244494449794F43 CALLVALUE PUSH27 0x4F5451674D54457A4C6A51774F5377794D6A67754F545932494445 PUSH25 0x4D6934794E5445734D6A49354C6A45794E5341784D544D754F PREVRANDAO PUSH12 0x7849454D674D6A49354C6A45 CALLDATALOAD 0x4D PUSH26 0x41784D5451754E6A41794C4449794F5334774E6A51674D544531 0x4C PUSH11 0x55774D6977794D6A67754F PREVRANDAO 0x4D CALLER 0x49 PREVRANDAO GASLIMIT PUSH25 0x4E5334344F5445675454497A4E4334784D7A6B674D5449354C PUSH11 0x677A4E5342444944497A4E NUMBER CALLVALUE PUSH26 0x4F4441674D544D784C6A55774E4377794D7A51754E6A51794944 GASLIMIT PUSH27 0x4D79347A4E446B734D6A4D304C6A6B304D6941784D7A4D754F544D BALANCE 0x49 GASLIMIT 0x4D PUSH8 0x4D6A4D324C6A4132 0x4E PUSH10 0x41784D7A59754D544931 0x4C PREVRANDAO 0x49 PUSH27 0x4E6934314D7A6B674D544D334C6A67334D7977794D7A59754E6A67 CALLDATALOAD 0x49 PREVRANDAO GASLIMIT ADDRESS 0x4D NUMBER CALLVALUE ADDRESS 0x4D PREVRANDAO COINBASE PUSH8 0x517941794D7A5975 0x4F PREVRANDAO 0x4D CALLDATALOAD 0x49 PREVRANDAO GASLIMIT ADDRESS 0x4D PUSH10 0x34354D546B734D6A4D33 0x4C PUSH11 0x55314F5341784E4455754D SLOAD MSIZE ADDRESS 0x4C PREVRANDAO 0x49 PUSH27 0x4F4334324D5451674D5451324C6A51774D4342444944497A4F5334 PUSH26 0x4E6A59674D5451334C6A45324E5377794D7A6B754E5449314944 GASLIMIT ADDRESS 0x4F NUMBER CALLVALUE CALLER 0x4E SLOAD PUSH12 0x734D6A4D354C6A41774D4341 PUSH25 0x4E4467754E7A633349454D674D6A4D344C6A63344D4341784E PREVRANDAO PUSH8 0x754E7A67304C4449 PUSH27 0x4F4334794E7A49674D5451344C6A59344E6977794D7A63754F4463 PUSH25 0x494445304F4334314E546B67517941794D7A63754D44417849 PREVRANDAO GASLIMIT ADDRESS 0x4F NUMBER CALLVALUE PUSH26 0x4F444D734D6A4D314C6A59774D4341784E446B754E444D774C44 0x49 PUSH27 0x4E5334324D4441674D5455774C6A51784F5342444944497A4E5334 ORIGIN 0x4D PREVRANDAO COINBASE PUSH8 0x4D5455774C6A6777 0x4D PUSH10 0x77794D7A55754D7A4978 0x49 PREVRANDAO GASLIMIT BALANCE 0x4D MSTORE8 CALLVALUE PUSH26 0x4D6A45734D6A4D304C6A6B344D5341784E5445754D7A55794945 0x4D PUSH8 0x4D6A4D304C6A4532 0x4E PUSH10 0x41784E5445754E6A5931 0x4C PREVRANDAO 0x49 PUSH27 0x4E4334314F5441674D5451334C6A45304E4377794D7A55754E5449 CALLVALUE 0x49 PREVRANDAO GASLIMIT ADDRESS 0x4E MSTORE8 CALLVALUE BALANCE 0x4D SLOAD PUSH4 0x67517941 PUSH26 0x4D7A59754D54417A494445304E4334314D546B734D6A4D324C6A COINBASE CALLVALUE 0x4E PUSH10 0x41784E4451754D6A4134 0x4C PREVRANDAO 0x49 PUSH27 0x4E53347A4D444D674D5451784C6A55784E7942444944497A4E4334 PUSH25 0x4D4445674D544D334C6A4D344E7977794D7A4D754E446B7A49 PREVRANDAO GASLIMIT PUSH27 0x4D7934354D5449734D6A4D7A4C6A4D774E4341784D7A41754D5441 PUSH24 0x49454D674D6A4D7A4C6A41354F5341784D6A55754F544D32 0x4C PREVRANDAO 0x49 PUSH27 0x4D7934334F5445674D5449314C6A63784E6977794D7A51754D544D CALLDATALOAD 0x49 PREVRANDAO GASLIMIT PUSH26 0x4F5334344D7A5567545445774E69347A4D5455674D544D314C6A 0x49 PUSH27 0x4D43424D494445774E6934794D4441674D544D344C6A67314F5341 PUSH25 0x4D4451754D6A41774944457A4F5334324E7A6767517941784D PREVRANDAO 0x4D PUSH22 0x4D544177494445304D4334784D6A6B734D5441784C6A MSIZE PUSH27 0x4D7941784E4441754E7A51324C4445774D4334354E4441674D5451 PUSH25 0x4C6A41304F534244494445774D4334794E4459674D5451784C PUSH11 0x4D314D6977354F53347A4D PUSH27 0x59674D5451784C6A59774D4377354F4334354D5459674D5451784C PUSH11 0x59774D43424449446B344C PUSH11 0x51354E6941784E4445754E PUSH11 0x41774C446B334C6A67774E NUMBER COINBASE PUSH25 0x4E4445754F4459304C446B334C6A4D334E6941784E4449754D SLOAD PUSH8 0x3349454D674F5459 PUSH22 0x4F545135494445304D6934314D5441734F5459754D6A PUSH12 0x78494445304D6934334F4441 PUSH20 0x4F5455754F544579494445304D6934334F446367 MLOAD PUSH26 0x41354E5334794E5449674D5451794C6A63354F5377354D693477 0x4D SLOAD MLOAD PUSH8 0x4D5451304C6A4D77 0x4E MSTORE8 PUSH24 0x354D5334324D4441674D5451304C6A63354D69424449446B PUSH25 0x4C6A51354D4341784E4451754F5449794C446B774C6A67344D MSTORE8 COINBASE PUSH25 0x4E4455754E4449324C446B774C6A49304E6941784E4455754F SLOAD GASLIMIT ADDRESS 0x49 GASLIMIT 0x4D PUSH8 0x4F446B754E6A4578 0x49 PREVRANDAO GASLIMIT ADDRESS 0x4E PUSH10 0x34304D4445734F446B75 0x4D PUSH11 0x6732494445304E6934344D PREVRANDAO COINBASE PUSH20 0x4F446B754E544979494445304E6934344D444167 MLOAD PUSH26 0x41344F5334334E546B674D5451324C6A67774D4377354D433477 0x4E PUSH11 0x49674D5451324C6A59794E NUMBER PUSH24 0x354D4334784F5455674D5451324C6A51774F43424449446B PUSH24 0x4C6A59314E5341784E4455754E6A59304C446B314C6A4930 0x4E PUSH10 0x41784E444D754D6A4177 0x4C PREVRANDAO PUSH12 0x324C6A45334D6941784E444D PUSH22 0x4D6A417749454D674F5459754E6A6730494445304D79 CALLVALUE PUSH26 0x4D4441734F5463754D7A4133494445304D6934354E5449734F54 PUSH4 0x754E5455 CALLDATALOAD 0x49 PREVRANDAO GASLIMIT ADDRESS 0x4D PUSH10 0x34324E54416751794135 0x4E PUSH26 0x34344D5441674D5451794C6A4D304E7977354F4334334E444167 0x4D SLOAD MLOAD PUSH25 0x4C6A6B344E4377354F5334324D6A55674D5451784C6A67304D PUSH10 0x4244494445774D433431 0x4D SLOAD COINBASE PUSH8 0x4D5451784C6A6377 0x4D MSTORE8 PUSH24 0x784D4445754E545179494445304D5334304D6A59734D5441 PUSH25 0x4C6A6B784E7941784E4445754D6A4D7849454D674D5441794C PUSH11 0x49354D7941784E4445754D PREVRANDAO 0x4D CALLER 0x4C PREVRANDAO GASLIMIT PUSH24 0x4D7934314E4455674D5451774C6A51314E7977784D445175 0x4E PUSH27 0x41774944457A4F5334354E445167544341784D4459754F44417749 PREVRANDAO GASLIMIT PUSH27 0x4F5334774D5445674D5441324C6A67774D4341784D7A55754D7A41 ORIGIN 0x49 GASLIMIT 0x4D PUSH8 0x4D5441324C6A6777 0x4D NUMBER COINBASE PUSH25 0x4D7A41754E5451324C4445774E6934304E6A55674D544D774C PUSH11 0x51354E4377784D4459754D PUSH27 0x45314944457A4E5334794D7A41675454497A4E79347A4E7A51674D SLOAD 0x4D PUSH26 0x4C6A59774D4342444944497A4E7934314D7A55674D544D7A4C6A COINBASE ADDRESS 0x4D NUMBER PUSH24 0x794D7A63754F4441784944457A4E4334794D6A6B734D6A4D CALLER 0x4C PUSH11 0x6B324E4341784D7A55754D PUSH11 0x517849454D674D6A4D344C PUSH11 0x4D354F5341784D7A63754F SLOAD 0x4D PUSH26 0x4C44497A4F5334334D5455674D544D354C6A59774D4377794E44 GASLIMIT PUSH22 0x4E4441304944457A4F5334324D444167517941794E44 0x49 PUSH22 0x4D5451324944457A4F5334324D4441734D6A51794C6A PUSH8 0x324E4341784D7A6B PUSH22 0x4E7A67774C4449304D7934774D4441674D5451774C6A COINBASE PUSH24 0x4D434244494449304D7934784D7A59674D5451774C6A4979 0x4D NUMBER PUSH24 0x794E444D754E545178494445304D4334304D4441734D6A51 PUSH27 0x4C6A6B774D4341784E4441754E44417749454D674D6A51304C6A51 ADDRESS 0x4F NUMBER COINBASE PUSH25 0x4E4441754E4441774C4449304E4334304D6A67674D5451774C PUSH11 0x4D774E5377794E444D754E PUSH27 0x63324944457A4F5334344D544D67517941794E444D754D7A513549 PREVRANDAO GASLIMIT PUSH27 0x4F5334304F5441734D6A51794C6A51794D6941784D7A6B754D6A49 PUSH24 0x4C4449304D5334334D5459674D544D354C6A49784D794244 0x49 PREVRANDAO 0x49 ADDRESS 0x4D NUMBER CALLVALUE CALLDATALOAD 0x4D SLOAD MLOAD PUSH8 0x4D544D354C6A4977 0x4E MSTORE8 PUSH24 0x794E4441754D5445354944457A4F4334344E6A51734D6A4D CALLDATALOAD 0x4C PUSH11 0x59774D4341784D7A67754D PUSH27 0x413449454D674D6A4D344C6A63314D5341784D7A63754D7A6B334C PREVRANDAO 0x49 PUSH27 0x4F4334324D5441674D544D324C6A6B334E5377794D7A67754D6A51 PUSH24 0x4944457A4E4334794D7A5567517941794D7A67754D544930 0x49 PREVRANDAO GASLIMIT PUSH27 0x4D79347A4E7A51734D6A4D334C6A67784E6941784D7A49754E4463 ADDRESS 0x4C PREVRANDAO 0x49 PUSH27 0x4E7934314E5459674D544D794C6A497A4E5342444944497A4E7934 PUSH25 0x4F546B674D544D784C6A6B774E7977794D7A63754D54553049 PREVRANDAO GASLIMIT PUSH27 0x4D5334354F5463734D6A4D334C6A4D334E4341784D7A49754E6A41 PUSH24 0x494530794E4459754D544977494445304D4334334F445967 MLOAD PUSH26 0x41794E4459754F545533494445304D4334354E4467734D6A5133 0x4C PUSH11 0x67304F4341784E4445754D PUSH11 0x67344C4449304F4334784D PREVRANDAO COINBASE PUSH8 0x4D5451784C6A5530 0x4D NUMBER TIMESTAMP PREVRANDAO 0x49 PREVRANDAO 0x49 ADDRESS 0x4F NUMBER CALLVALUE PUSH27 0x4E544D674D5451784C6A63354D7977794E4467754F546330494445 ADDRESS 0x4D PUSH10 0x34774D4441734D6A5135 0x4C PUSH11 0x51344D4341784E4449754D PREVRANDAO COINBASE PUSH24 0x49454D674D6A51354C6A6B344E6941784E4449754D444177 0x4C PREVRANDAO 0x49 BALANCE 0x4D NUMBER CALLVALUE ADDRESS 0x4D PREVRANDAO COINBASE PUSH8 0x4D5451794C6A4533 0x4E PUSH26 0x77794E5441754E444177494445304D69347A4F54496751794179 0x4E SLOAD COINBASE PUSH22 0x4E444177494445304D6934324D4467734D6A55774C6A PUSH8 0x354E5341784E4449 PUSH22 0x4F54417A4C4449314D5334314D4441674D54517A4C6A COINBASE ADDRESS 0x4F NUMBER TIMESTAMP PREVRANDAO 0x49 PREVRANDAO 0x49 BALANCE 0x4D PUSH10 0x34784D4455674D54517A 0x4C PUSH11 0x45354D6977794E5449754F PREVRANDAO PUSH4 0x77494445 ADDRESS 0x4D PUSH26 0x34314D5441734D6A557A4C6A49774D4341784E444D754E7A5531 0x49 GASLIMIT 0x4D PUSH8 0x4D6A557A4C6A6379 0x4D MSTORE8 COINBASE PUSH25 0x4E4451754D5451794C4449314D7934334D6A67674D5451304C PUSH11 0x45774F4377794E544D754D PUSH11 0x5578494445304D7934314D PREVRANDAO COINBASE PUSH8 0x517941794E544975 0x4F SLOAD MLOAD CALLDATALOAD 0x49 PREVRANDAO GASLIMIT ADDRESS 0x4D PUSH26 0x34784D5455734D6A55794C6A4D344E6941784E4449754F444177 0x4C PREVRANDAO 0x49 BALANCE 0x4D PUSH10 0x34774D4441674D545179 0x4C PUSH11 0x67774D434244494449314D MSTORE8 CALLVALUE ORIGIN 0x4D SLOAD MLOAD PUSH8 0x4D5451794C6A6777 0x4D NUMBER PUSH24 0x794E5445754D446330494445304D6934314D7A41734D6A55 PUSH24 0x4C6A67774D4341784E4449754D6A417749454D674D6A5577 0x4C PUSH11 0x55794E6941784E4445754F PREVRANDAO PUSH4 0x774C4449 ADDRESS 0x4F MSTORE8 CALLVALUE CALLVALUE 0x4F SLOAD MSIZE PUSH8 0x4D5451784C6A5977 0x4D NUMBER PUSH24 0x794E446B754E444177494445304D5334324D444167517941 PUSH26 0x4E4467754F544130494445304D5334324D4441734D6A51344C6A 0x49 CALLER 0x4E NUMBER COINBASE PUSH25 0x4E4445754D7A4D774C4449304F4334774D4441674D5451784C PUSH11 0x41774D434244494449304E PUSH26 0x34334D4467674D5451774C6A59304F4377794E4459754F544179 0x49 PREVRANDAO GASLIMIT ADDRESS 0x4D NUMBER CALLVALUE ADDRESS 0x4D SLOAD PUSH12 0x734D6A51324C6A41314D5341 PUSH25 0x4E4441754E445132494577674D6A51304C6A59774D4341784E PREVRANDAO COINBASE PUSH22 0x4E446B79494449304E6934784D6A41674D5451774C6A PUSH4 0x344E6942 0x4E 0x4D PUSH11 0x51314C6A49774D4341784E PREVRANDAO MLOAD PUSH22 0x4D444D7949454D674D6A51314C6A49774D4341784E44 MLOAD PUSH22 0x4D546B324C4449304E5334354E5467674D5451304C6A MLOAD BALANCE 0x4F NUMBER PUSH24 0x794E4459754F446731494445304E4334324D545167517941 PUSH26 0x4E4463754F444578494445304E4334334E7A45734D6A51344C6A PUSH8 0x304E6941784E4455 PUSH22 0x4D4451304C4449304F5334784F4455674D5451314C6A 0x49 PUSH26 0x4D694244494449304F5334314D6A4D674D5451314C6A4D354F53 PUSH24 0x794E5441754F446777494445304E5334354E5451734D6A55 PUSH26 0x4C6A49774D4341784E4459754E44553049454D674D6A557A4C6A SSTORE PUSH26 0x4D4341784E4459754F5455304C4449314E4334344D6A63674D54 MLOAD CALLER 0x4C PUSH11 0x557A4D4377794E5455754D SLOAD COINBASE ADDRESS 0x49 PREVRANDAO GASLIMIT ADDRESS 0x4E PUSH26 0x34334D7A5167517941794E5455754F446730494445304F43347A 0x4D PREVRANDAO PUSH4 0x734D6A55 CALLVALUE 0x4C PUSH11 0x63794E7941784E446B754F PREVRANDAO PUSH4 0x344C4449 ORIGIN 0x4D MSTORE8 CALLVALUE ORIGIN 0x4E PUSH27 0x67674D5455784C6A4D324E534244494449324D7934784E5445674D SLOAD SSTORE PUSH26 0x4C6A45774E7977794E6A51754F445978494445314D7934774E7A COINBASE PUSH20 0x4D6A59314C6A51334F4341784E544D754E544131 0x49 GASLIMIT 0x4D PUSH8 0x4D6A59324C6A4135 0x4E MSTORE8 COINBASE PUSH25 0x4E544D754F544D354C4449324E7934774D4455674D5455304C PUSH11 0x51794D5377794E6A63754E SLOAD COINBASE PUSH24 0x494445314E4334314E7A5167517941794E6A63754F546B31 0x49 PREVRANDAO GASLIMIT BALANCE 0x4E NUMBER CALLVALUE CALLER 0x4D PUSH11 0x67734D6A59344C6A51774D NUMBER COINBASE PUSH25 0x4E5455754D4445774C4449324F4334304D4441674D5455314C PUSH11 0x49774D434244494449324F NUMBER CALLVALUE ADDRESS 0x4D PREVRANDAO COINBASE PUSH8 0x4D5455314C6A4D35 0x4D NUMBER PUSH24 0x794E6A67754F444131494445314E5334324E7A55734D6A59 CALLDATALOAD 0x4C PUSH11 0x4D774D4341784E5455754F PREVRANDAO 0x4D PUSH25 0x49454D674D6A59354C6A63354E5341784E5455754F5467344C PREVRANDAO 0x49 CALLER 0x4D NUMBER CALLVALUE CALLDATALOAD 0x4D PUSH11 0x41674D5455324C6A55334E MSTORE8 PUSH24 0x794E7A45754F444177494445314E7934784D7A5567517941 PUSH26 0x4E7A49754E6A6777494445314E7934324F5455734D6A63304C6A GASLIMIT CALLDATALOAD 0x4D PUSH10 0x41784E5467754E546335 0x4C PREVRANDAO 0x49 CALLER 0x4E MSTORE8 CALLVALUE PUSH25 0x4E6A45674D5455354C6A41354F434244494449334E6934784D PUSH27 0x41674D5455354C6A59784E7977794E7A63754E545932494445324D NUMBER CALLVALUE BALANCE 0x4E PUSH27 0x4D734D6A63344C6A4D314D6941784E6A45754D6A497849454D674D PUSH11 0x63354C6A457A4F5341784E PUSH11 0x45754F4463774C4449334F MSTORE8 CALLVALUE CALLDATALOAD 0x4F SLOAD MSIZE PUSH8 0x4D5459794C6A5177 0x4D NUMBER PUSH24 0x794F4441754D6A5534494445324D6934304D444167517941 PUSH26 0x4F4441754E544535494445324D6934304D4441734D6A67774C6A PUSH4 0x354D7941 PUSH25 0x4E6A49754E5451304C4449344D4334344E6A63674D5459794C PUSH11 0x63794D434244494449344D NUMBER CALLVALUE CALLDATALOAD 0x4E PREVRANDAO COINBASE PUSH8 0x4D5459794C6A6735 0x4E MSTORE8 PUSH24 0x794F4449754E546B78494445324E4334774F544D734D6A67 ADDRESS 0x4C PUSH11 0x557A4E6941784E6A55754D PUSH27 0x677849454D674D6A67354C6A63784E5341784E6A67754F4441354C PREVRANDAO 0x49 CALLDATALOAD 0x4D MSTORE8 CALLVALUE PUSH25 0x4E5455674D5463774C6A49304E6977794F5441754D54593149 PREVRANDAO GASLIMIT CALLER 0x4D NUMBER CALLVALUE CALLDATALOAD 0x4F SLOAD MSIZE PUSH8 0x517941794F446775 0x4D SLOAD SSTORE CALLDATALOAD 0x49 PREVRANDAO GASLIMIT CALLER 0x4D PUSH10 0x34314D5451734D6A6779 0x4C PUSH11 0x6B314F4341784E7A41754D SLOAD PUSH4 0x334C4449 CALLER 0x4F NUMBER CALLVALUE PUSH26 0x4D4441674D5459314C6A59784F534244494449334E79347A4D6A COINBASE PUSH8 0x4D5459304C6A6333 0x4E PUSH10 0x77794E7A59754D6A5177 0x49 PREVRANDAO GASLIMIT ORIGIN 0x4D PUSH26 0x34354E7A67734D6A63314C6A67774D4341784E6A4D754F445131 0x49 GASLIMIT 0x4D PUSH8 0x4D6A63314C6A4D32 0x4D NUMBER COINBASE PUSH25 0x4E6A4D754E7A457A4C4449334E4334304E6A41674D54597A4C PUSH11 0x457A4E4377794E7A4D754F PREVRANDAO COINBASE PUSH24 0x494445324D6934314E546B67517941794E7A4D754D545177 0x49 PREVRANDAO GASLIMIT ORIGIN 0x4D MSTORE8 CALLVALUE CALLDATALOAD 0x4F PREVRANDAO MLOAD PUSH20 0x4D6A63784C6A59334E5341784E6A41754F544534 0x4C PREVRANDAO 0x49 CALLER 0x4D NUMBER CALLVALUE BALANCE 0x4E PREVRANDAO MLOAD PUSH8 0x4D5459774C6A4535 0x4D NUMBER TIMESTAMP PREVRANDAO 0x49 PREVRANDAO 0x49 ORIGIN 0x4F MSTORE8 CALLVALUE ADDRESS 0x4D SLOAD 0x4D PUSH8 0x4D5455354C6A5132 0x4D PUSH10 0x77794E6A67754D7A5533 0x49 PREVRANDAO GASLIMIT BALANCE 0x4F NUMBER CALLVALUE ORIGIN 0x4E SLOAD MLOAD PUSH20 0x4D6A59344C6A45354E7941784E5467754D7A6B31 0x49 GASLIMIT 0x4D PUSH8 0x4D6A59344C6A417A 0x4E PUSH26 0x41784E5467754D544D324C4449324E6934344D4449674D545533 0x4C PUSH11 0x4D344F4377794E6A55754E PREVRANDAO SSTORE PUSH27 0x494445314E6934334D7A4D67517941794E6A41754F546B31494445 BALANCE 0x4E NUMBER CALLVALUE BALANCE 0x4E PUSH11 0x6B734D6A55354C6A63324D MSTORE8 COINBASE PUSH25 0x4E544D754F4445314C4449314F43347A4E5455674D5455794C PUSH11 0x4D354E534244494449314E PUSH10 0x347A4D7A67674D545577 0x4C PUSH11 0x4D314F4377794E4459754E PREVRANDAO 0x4D BALANCE 0x49 PREVRANDAO GASLIMIT ADDRESS 0x4E MSTORE8 CALLVALUE ADDRESS 0x4E SLOAD PUSH4 0x734D6A51 ADDRESS 0x4C PUSH11 0x49334D6941784E4455754E PREVRANDAO 0x49 BALANCE 0x49 GASLIMIT 0x4D PUSH8 0x4D6A51794C6A5935 0x4D PUSH10 0x41784E4455754E444178 0x4C PREVRANDAO 0x49 ADDRESS 0x4D PUSH10 0x34314F544D674D545131 0x4C PUSH11 0x4D7A4D4377794E4449754E PREVRANDAO PUSH4 0x33494445 ADDRESS 0x4E NUMBER CALLVALUE PUSH25 0x4D7A4167544341794E4449754D7A5530494445304D6934344E PUSH11 0x45674D6A517A4C6A63334E PUSH26 0x41784E444D754D6A6B3349454D674D6A51304C6A55324D434178 0x4E PREVRANDAO 0x4D PUSH22 0x4E544D344C4449304E5334794D4441674D54517A4C6A PUSH8 0x324F4377794E4455 PUSH22 0x4D6A4177494445304E4334774D7A4967545449314E53 CALLVALUE BALANCE 0x4E PREVRANDAO MLOAD PUSH8 0x4D5451304C6A6777 0x4F MSTORE8 TIMESTAMP PREVRANDAO 0x49 PREVRANDAO 0x49 BALANCE 0x4E PUSH10 0x34314D444D674D545131 0x4C PUSH11 0x49304E4377794E5463754E SLOAD PUSH8 0x7A494445304E5334 BALANCE 0x4F PREVRANDAO MSIZE PUSH20 0x4D6A55334C6A6B304E4341784E4455754E545934 0x49 GASLIMIT 0x4D PUSH8 0x4D6A55344C6A5134 0x4E MSTORE8 COINBASE PUSH25 0x4E4455754E5451794C4449314F4334304F5451674D5451314C PUSH11 0x55774D5377794E5467754D PREVRANDAO COINBASE PUSH24 0x494445304E53347A4D7A4D67517941794E5463754E6A6377 0x49 PREVRANDAO GASLIMIT ADDRESS 0x4E MSTORE8 CALLVALUE PUSH26 0x4D6A41734D6A55324C6A677A4D7941784E4451754F4463304C44 0x49 BALANCE 0x4E PUSH10 0x34784E4441674D545130 0x4C PUSH11 0x55324E434244494449314E MSTORE8 CALLVALUE ADDRESS 0x4E PREVRANDAO MSIZE PUSH8 0x4D5451304C6A4931 0x4E NUMBER PUSH24 0x794E5451754E6A4D32494445304E4334774D4451734D6A55 ADDRESS 0x4C PUSH11 0x4D304D4341784E4451754D PREVRANDAO COINBASE CALLDATALOAD 0x49 GASLIMIT 0x4D PUSH8 0x4D6A55304C6A4130 0x4D PUSH26 0x41784E4451754D4445304C4449314E4334314F4455674D545130 0x4C PUSH11 0x4D334E4377794E5455754E SLOAD MLOAD ADDRESS 0x49 PREVRANDAO GASLIMIT ADDRESS 0x4E NUMBER CALLVALUE CALLVALUE 0x4D PREVRANDAO PUSH12 0x67545449314F5334794D4441 PUSH8 0x4D5451324C6A4977 0x4D NUMBER TIMESTAMP PREVRANDAO 0x49 PREVRANDAO 0x49 BALANCE 0x4F MSTORE8 CALLVALUE ADDRESS 0x4E PUSH27 0x51674D5451324C6A557A4D4377794E6A41754D446778494445304E PUSH10 0x34334F546B734D6A5977 0x4C PUSH11 0x55304F5341784E4459754E PUSH27 0x6B3449454D674D6A59784C6A49344E7941784E4459754E7A6B314C PREVRANDAO 0x49 ORIGIN 0x4D MSTORE8 CALLVALUE PUSH26 0x4E4463674D5451324C6A63784E5377794E6A41754D6A55304944 GASLIMIT ADDRESS 0x4E PUSH10 0x34784F54676751794179 0x4E SLOAD PUSH8 0x754F444577494445 ADDRESS 0x4E MSTORE8 CALLVALUE ADDRESS 0x4E PREVRANDAO MLOAD PUSH20 0x4D6A55344C6A55334D7941784E4455754E445131 0x4C PREVRANDAO 0x49 BALANCE 0x4F MSTORE8 CALLVALUE PUSH26 0x4D4441674D5451324C6A49774D43424E4F4463754E5451354944 GASLIMIT ADDRESS 0x4E PUSH26 0x34304E6A6B67517941344E7934794E4463674D5451334C6A677A 0x4F NUMBER PUSH24 0x344E5334354D6A41674D5451344C6A6B794F5377344E4334 ORIGIN 0x4D PREVRANDAO COINBASE PUSH8 0x4D5451354C6A6735 0x4E PUSH10 0x42444944677A4C6A4934 0x4D NUMBER COINBASE PUSH25 0x4E5441754F4459794C4467784C6A417A4D4341784E5449754E PUSH27 0x637A4C4463354C6A59774D4341784E5451754D54517949454D674E PUSH27 0x67754D546377494445314E5334314D5449734E7A55754F444D7749 PREVRANDAO GASLIMIT BALANCE 0x4E PUSH26 0x34314D4459734E7A51754E444177494445314F4334314E7A4D67 MLOAD PUSH26 0x41334D5334344E6A45674D5459774C6A51324F4377324E433477 0x4D PREVRANDAO COINBASE PUSH8 0x4D5459344C6A4579 0x4D NUMBER PUSH24 0x324E4334774D4441674D5459344C6A59354E694244494459 ADDRESS 0x4C PUSH11 0x41774D4341784E6A67754F PREVRANDAO SSTORE ORIGIN 0x4C PREVRANDAO MSIZE BALANCE 0x4C PUSH11 0x6B7A4E5341784E6A63754D PREVRANDAO PUSH4 0x344C4459 CALLVALUE 0x4C PUSH11 0x4D774D4341784E6A51754E PUSH27 0x513149454D674E7A41754E6A5931494445324D6934304D5449734E PUSH27 0x4D754E546B77494445314F5334334F4441734E7A51754F44417749 PREVRANDAO GASLIMIT BALANCE 0x4F NUMBER CALLVALUE CALLVALUE 0x4F SLOAD MSIZE PUSH8 0x517941334E693477 0x4D SLOAD COINBASE PUSH8 0x4D5455344C6A4178 0x4D PUSH26 0x77334F4334794F4467674D5455324C6A41794D6977334F533434 0x4E PUSH11 0x49674D5455304C6A51334E NUMBER TIMESTAMP PREVRANDAO 0x49 PREVRANDAO PUSH8 0x784C6A517A4E7941 PUSH25 0x4E5449754F5449314C44677A4C6A51314F5341784E5445754D SLOAD PUSH12 0x304C4467304C6A4D314E6941 PUSH25 0x4E5441754E6A493449454D674F4459754D546B34494445304F MSTORE8 CALLVALUE ADDRESS 0x4E PUSH11 0x55734F446B754D44637849 PREVRANDAO GASLIMIT ADDRESS 0x4E PUSH10 0x34344D4441734F446775 0x4E PREVRANDAO PUSH8 0x7A494445304E6934 CALLVALUE 0x4D PREVRANDAO COINBASE PUSH8 0x517941344F433479 0x4E PUSH27 0x45674D5451324C6A67774D4377344E7934344E5445674D5451334C PUSH11 0x45774D5377344E7934314E PREVRANDAO PUSH12 0x674D5451334C6A51324F5342 0x4E 0x4D PUSH11 0x59794C6A41774E6941784E PREVRANDAO PUSH4 0x754E4441 CALLER 0x49 GASLIMIT 0x4D PUSH8 0x4D6A59794C6A4933 0x4D MSTORE8 COINBASE PUSH25 0x4E4463754E7A49324C4449324D79347A4D6A4D674D5451344C PUSH11 0x4D354E4377794E6A51754D PUSH27 0x5130494445304F4334344F544167517941794E6A55754F44633149 PREVRANDAO GASLIMIT ADDRESS 0x4F MSTORE8 CALLVALUE ORIGIN 0x4D PUSH27 0x55734D6A59344C6A41334D6941784E5441754F4455354C4449334D PUSH10 0x34324E6A63674D54557A 0x4C PUSH11 0x55794F534244494449334D PUSH26 0x34354D4451674D5455304C6A49304E7977794E7A63754E6A4932 0x49 PREVRANDAO GASLIMIT BALANCE 0x4E PUSH10 0x34344F444D734D6A6334 0x4C PUSH11 0x45324E6941784E5463754E PREVRANDAO 0x49 PUSH27 0x49454D674D6A63344C6A59784E5341784E5463754F4463794C4449 CALLVALUE 0x4D NUMBER CALLVALUE PUSH24 0x4D446B674D5455344C6A41344E6977794F444D754E445533 0x49 PREVRANDAO GASLIMIT BALANCE 0x4F NUMBER CALLVALUE PUSH26 0x4D7A5567517941794F4459754D444D79494445314F43347A4E44 PUSH4 0x734D6A67 CALLVALUE 0x4C PUSH11 0x4D784E6941784E5467754E SLOAD MLOAD CALLVALUE 0x4C PREVRANDAO 0x49 CALLVALUE 0x4F NUMBER CALLVALUE BALANCE 0x4D PUSH27 0x49674D5455344C6A59344D694244494449344F4334334E4467674D SLOAD SSTORE CALLVALUE 0x4C PUSH11 0x67784E5377794F5441754D SLOAD GASLIMIT PUSH26 0x494445314F4334354E7A63734D6A6B784C6A55324D7941784E54 PUSH12 0x754D44517849454D674D6A6B PUSH27 0x4C6A41784D7941784E546B754D5441314C4449354E4334344D7A41 PUSH8 0x4D5455354C6A4931 0x4E NUMBER PUSH24 0x794F5455754E6A4177494445314F53347A4E7A4967517941 PUSH26 0x4F5459754F446779494445314F5334314E6A6B734D6A6B324C6A PUSH12 0x784E5341784E546B754E5455 PUSH24 0x4C4449354E6934774D4441674D5455354C6A45314D434244 0x49 PREVRANDAO 0x49 CALLDATALOAD 0x4E MSTORE8 CALLVALUE ADDRESS 0x4E SLOAD COINBASE PUSH8 0x4D5455344C6A6B77 0x4F MSTORE8 PUSH24 0x794F544D754F544977494445314F4334324E6A4D734D6A6B PUSH26 0x4C6A59774D4341784E5467754E6A417849454D674D6A6B784C6A 0x49 CALLVALUE 0x4D NUMBER COINBASE PUSH25 0x4E5467754E5451774C4449344F5334334E5441674D5455344C PUSH11 0x4D344D4377794F446B754D PUSH11 0x4177494445314F4334794E PREVRANDAO MSIZE PUSH8 0x517941794F446775 0x4E PUSH11 0x5577494445314F4334784D SLOAD 0x49 PUSH20 0x4D6A67324C6A45354D7941784E5463754F544931 0x4C PREVRANDAO 0x49 CALLVALUE 0x4D PUSH26 0x34334E4445674D5455334C6A677A4D43424D494449334F533479 0x4F PREVRANDAO 0x49 PUSH8 0x4D5455334C6A5931 0x4F MSTORE8 COINBASE PUSH26 0x4E7A59754E7A5178494445314E5334344D7A5167517941794E7A SSTORE PUSH22 0x4D7A517A494445314E4334344D7A41734D6A637A4C6A PUSH12 0x784E5341784E544D754E7A4D CALLER 0x4C PREVRANDAO 0x49 CALLER 0x4D PUSH26 0x34314E6A59674D54557A4C6A51774E534244494449334D793479 0x4D SLOAD PUSH8 0x674D54557A4C6A41 CALLER 0x4D PUSH10 0x77794E7A49754E7A4D78 0x49 PREVRANDAO GASLIMIT BALANCE 0x4D PUSH10 0x34344D4441734D6A6379 0x4C PUSH11 0x51344E4341784E5449754F PREVRANDAO COINBASE PUSH24 0x49454D674D6A63794C6A497A4E7941784E5449754F444177 0x4C PREVRANDAO 0x49 CALLER 0x4D MSTORE8 CALLVALUE PUSH27 0x4E544D674D5455794C6A4D7A4D6977794E7A41754E544534494445 BALANCE 0x4D MSTORE8 CALLVALUE CALLER 0x4E PUSH11 0x4167517941794E6A6B754E PUSH11 0x677A494445314D5334784F PREVRANDAO PUSH8 0x734D6A59344C6A59 ADDRESS 0x4D NUMBER COINBASE PUSH25 0x4E5441754E5455344C4449324F4334794D4441674D5455774C PUSH11 0x4D324D534244494449324E PUSH26 0x34334E6A41674D5455774C6A45324D7977794E6A63754D544D77 0x49 PREVRANDAO GASLIMIT ADDRESS 0x4F MSTORE8 CALLVALUE CALLVALUE 0x4D PUSH27 0x51734D6A59324C6A67774D4341784E446B754E6A4D7749454D674D PUSH11 0x59324C6A51334D4341784E PREVRANDAO PUSH12 0x754E4449314C4449324E5334 CALLDATALOAD 0x4D PUSH27 0x41674D5451354C6A45314D6977794E6A55754E6A4177494445304F MSTORE8 CALLVALUE PUSH24 0x4D6A5167517941794E6A55754D6A6377494445304F433434 0x4F SLOAD SSTORE PUSH20 0x4D6A59304C6A49784F4341784E4467754D7A5134 0x4C PREVRANDAO 0x49 ORIGIN 0x4D PUSH26 0x34794E6A49674D5451334C6A67774F434244494449324D69347A 0x4D PREVRANDAO MSIZE PUSH8 0x4D5451334C6A4932 0x4F NUMBER PUSH24 0x794E6A45754E7A5178494445304E7934774F4467734D6A59 PUSH26 0x4C6A41774E6941784E4463754E444133494530784D4459754E44 0x4D ADDRESS 0x49 PREVRANDAO GASLIMIT ADDRESS 0x4F NUMBER CALLVALUE PUSH24 0x4E6A5167517941784D4463754E44557A494445304F533435 0x4E PUSH11 0x63734D5441314C6A67324F MSTORE8 COINBASE PUSH25 0x4E5455754D7A41304C4445774E4334334F5449674D54557A4C PUSH11 0x59774D434244494445774E NUMBER CALLVALUE PUSH26 0x4E4451674D5455794C6A637A4D7977784D4451754D7A45784944 GASLIMIT ADDRESS 0x4F NUMBER CALLVALUE PUSH26 0x4E446B734D5441304C6A67344D4341784E4463754E6A67774945 0x4D PUSH8 0x4D5441314C6A5532 0x4E NUMBER COINBASE PUSH25 0x4E4459754F546B324C4445774E5334354D4467674D5451334C PUSH11 0x41344D4377784D4459754E PREVRANDAO 0x4D ADDRESS 0x49 PREVRANDAO GASLIMIT ADDRESS 0x4F NUMBER CALLVALUE PUSH24 0x4E6A51675454497A4F4334784D5455674D5455784C6A6B77 0x4E PUSH26 0x42444944497A4E7934334F4451674D5455314C6A4D774F537779 0x4D PUSH27 0x59754E54417A494445324D53347A4D5463734D6A4D314C6A45354E PUSH10 0x41784E6A55754E6A4177 0x49 GASLIMIT 0x4D PUSH8 0x4D6A4D304C6A5135 0x4D PUSH10 0x41784E6A63754F544577 0x4C PREVRANDAO 0x49 PUSH27 0x4D7934324F4467674D5463774C6A63354D4377794D7A4D754E4445 PUSH26 0x494445334D6934774D444167517941794D7A49754E7A4D7A4944 GASLIMIT CALLER 0x4E NUMBER CALLVALUE CALLDATALOAD 0x4E PUSH11 0x51734D6A4D784C6A4D794E PUSH10 0x41784E7A63754F44517A 0x4C PREVRANDAO 0x49 PUSH27 0x4D4334774E7A55674D5463344C6A67794E794244494449794E7934 ORIGIN 0x4D PREVRANDAO PUSH12 0x674D5467774C6A63324E7977 PUSH26 0x4D6A59754D6A5130494445334F4334304D6A49734D6A49344C6A GASLIMIT CALLDATALOAD 0x4F NUMBER COINBASE PUSH25 0x4E7A55754E6A417949454D674D6A49354C6A51304E4341784E PUSH27 0x4D754F4441314C44497A4D5334794E7A4D674D5459354C6A51304E NUMBER PUSH24 0x794D7A49754D545932494445324E6934784E444967517941 PUSH26 0x4D7A49754E544530494445324E4334344E5451734D6A4D7A4C6A COINBASE CALLVALUE 0x4E PUSH10 0x41784E6A49754F444577 0x4C PREVRANDAO 0x49 PUSH27 0x4D7934304D7A59674D5459784C6A59774D4342444944497A4D7934 CALLER 0x4F PREVRANDAO PUSH4 0x674D5459 PUSH24 0x4C6A4D354D4377794D7A51754D6A5130494445314F433431 0x4F SLOAD COINBASE PUSH20 0x4D6A4D304C6A51314D7941784E5463754E6A4177 0x49 GASLIMIT 0x4D PUSH8 0x4D6A4D304C6A5932 0x4D PUSH10 0x41784E5459754E6A4577 0x4C PREVRANDAO 0x49 PUSH27 0x4E5334774D4455674D5455314C6A51344E7977794D7A55754D6A45 ORIGIN 0x49 PREVRANDAO GASLIMIT BALANCE 0x4E MSTORE8 CALLVALUE PUSH25 0x4D445567517941794D7A55754E444933494445314E4334334D PUSH11 0x4D734D6A4D314C6A59774E NUMBER COINBASE PUSH25 0x4E5451754D44417A4C44497A4E5334324D446B674D54557A4C PUSH11 0x55774E5342444944497A4E MSTORE8 CALLVALUE ORIGIN 0x4D SLOAD MLOAD PUSH8 0x4D54557A4C6A4177 0x4E PUSH26 0x77794D7A55754F546330494445314D5334344D5451734D6A4D32 0x4C PUSH11 0x51784D5341784E5441754F PREVRANDAO SSTORE PUSH26 0x49454D674D6A4D334C6A51324E7941784E4467754E5449314C44 0x49 PUSH27 0x4F43347A4F5441674D5451354C6A41354E6977794D7A67754D5445 BALANCE 0x49 PREVRANDAO GASLIMIT BALANCE 0x4D MSTORE8 CALLVALUE CALLDATALOAD 0x4D PREVRANDAO PUSH4 0x67545449 ADDRESS 0x4D NUMBER CALLVALUE ADDRESS 0x4D SLOAD SSTORE PUSH8 0x4D54557A4C6A6777 0x4E NUMBER TIMESTAMP PREVRANDAO 0x49 PREVRANDAO 0x49 ADDRESS 0x4D NUMBER CALLVALUE BALANCE 0x4D PUSH27 0x51674D5455304C6A6B774D6977794E4441754F444D77494445314E PUSH10 0x34784E6A41734D6A5178 0x4C PUSH11 0x41334D7941784E5459754E PUSH11 0x417749454D674D6A51784C PUSH11 0x51314E4341784E5463754D PUSH11 0x67334C4449304D5334344D PREVRANDAO MLOAD PUSH8 0x4D5459774C6A6330 0x4E PUSH26 0x77794E4445754E6A5577494445324D69347A4D44416751794179 0x4E PREVRANDAO GASLIMIT PUSH22 0x4E546B78494445324D6934344F5455734D6A51774C6A GASLIMIT BALANCE 0x4E NUMBER COINBASE PUSH25 0x4E6A49754F54637A4C44497A4F5334344D4441674D5459794C PUSH11 0x51774D4342444944497A4F MSTORE8 CALLVALUE PUSH27 0x4E7A45674D5459784C6A63774E5377794D7A67754F444930494445 ORIGIN 0x4D MSTORE8 CALLVALUE CALLDATALOAD 0x4E PUSH11 0x51734D6A4D344C6A55324F NUMBER COINBASE PUSH25 0x4E6A49754F54673049454D674D6A4D344C6A517A4D7941784E PUSH11 0x4D754E5449314C44497A4F NUMBER CALLVALUE PUSH24 0x4E6A6B674D5459304C6A45334E7977794D7A63754E7A5978 0x49 PREVRANDAO GASLIMIT ORIGIN 0x4E NUMBER CALLVALUE ADDRESS 0x4D PUSH27 0x4D67517941794D7A63754E445579494445324E4334324F446B734D PUSH11 0x4D334C6A49774D4341784E PUSH11 0x55754E4441314C44497A4E PUSH26 0x34794D4441674D5459324C6A41794E5342444944497A4E793479 0x4D PREVRANDAO COINBASE PUSH8 0x4D5459324C6A5930 0x4E MSTORE8 PUSH24 0x794D7A63754D444D7A494445324E7934794E5459734D6A4D ORIGIN 0x4C PUSH11 0x67794F5341784E6A63754D PUSH27 0x677949454D674D6A4D324C6A45794F4341784E6A63754F4445314C PREVRANDAO 0x49 PUSH27 0x4E6934774D5451674D5459324C6A45354F5377794D7A59754E6A41 CALLER 0x49 PREVRANDAO GASLIMIT ORIGIN 0x4E NUMBER CALLVALUE PUSH26 0x4D7A5967517941794D7A59754F544D7A494445324D7934784E54 MSIZE PUSH20 0x4D6A4D334C6A49774D4341784E6A45754E7A4579 0x4C PREVRANDAO 0x49 PUSH27 0x4E7934794D4441674D5459784C6A41794E5342444944497A4E7934 PUSH26 0x4D4441674D5459774C6A4D7A4F5377794D7A63754E4451344944 GASLIMIT BALANCE 0x4F MSTORE8 CALLVALUE ADDRESS 0x4D PUSH11 0x4D734D6A4D334C6A63314D NUMBER COINBASE PUSH25 0x4E5467754F54673549454D674D6A4D344C6A4D334F4341784E SLOAD PUSH8 0x754D4467354C4449 PUSH27 0x4F5334774D7A41674D5455304C6A4D314F4377794D7A67754F4455 ORIGIN 0x49 PREVRANDAO GASLIMIT BALANCE 0x4D PUSH10 0x34324E6A556751794179 0x4D PUSH27 0x67754E7A5979494445314D5334334E5445734D6A4D344C6A67344D PUSH10 0x41784E5445754E545533 0x4C PREVRANDAO 0x49 PUSH27 0x4F5334304E7A41674D5455784C6A59324F534244494449304D4334 PUSH24 0x4D6A4D674D5455784C6A63334E5377794E4441754D6A5579 0x49 PREVRANDAO GASLIMIT BALANCE 0x4D PUSH10 0x34794F5449734D6A5177 0x4C PUSH11 0x51784E5341784E544D754F PREVRANDAO COINBASE ADDRESS 0x49 GASLIMIT ADDRESS PUSH26 0x4D7A4D754F446733494445314E7934774F545567517941794D7A 0x4D PUSH22 0x4E7A6B31494445314E7934334D444D734D6A4D7A4C6A PUSH4 0x784E7941 PUSH25 0x4E5463754D7A41774C44497A4D7934334D5451674D5455324C PUSH11 0x49774D4342444944497A4D PUSH26 0x34334D5445674D5455314C6A45774D4377794D7A4D754E7A6733 0x49 PREVRANDAO GASLIMIT BALANCE 0x4E NUMBER CALLVALUE ORIGIN 0x4D PREVRANDAO 0x4D PUSH20 0x4D6A4D7A4C6A67344D6941784E5455754D446B31 0x49 GASLIMIT 0x4D PUSH8 0x4D6A4D7A4C6A6B33 0x4E PUSH26 0x41784E5455754E5467324C44497A4D7934354E7A6B674D545532 0x4C PUSH11 0x51344E6977794D7A4D754F PREVRANDAO PUSH8 0x33494445314E7934 PUSH24 0x4F545567545449354F5334324D4441674D5455354C6A5534 0x4E PUSH10 0x424449444D774D433434 0x4D SLOAD COINBASE PUSH8 0x4D5455354C6A6333 0x4E PUSH26 0x777A4D4449754E444935494445324D4334784D6A6B734D7A417A 0x4C PUSH11 0x45354E7941784E6A41754D PUSH27 0x593349454D674D7A417A4C6A6B324E6941784E6A41754E6A41314C PREVRANDAO 0x4D PUSH24 0x4E53347A4E7A51674D5459774C6A67774D43777A4D445975 0x4D PUSH27 0x4932494445324D4334344D4441675179417A4D4463754D7A4D7849 PREVRANDAO GASLIMIT ORIGIN 0x4D NUMBER CALLVALUE CALLVALUE 0x4D PREVRANDAO COINBASE PUSH20 0x4D7A41344C6A4D774F5341784E6A45754D445579 0x4C PREVRANDAO 0x4D PUSH24 0x4F4334324E5463674D5459784C6A51774D43424449444D77 0x4F NUMBER CALLVALUE CALLDATALOAD 0x4F PREVRANDAO PUSH4 0x674D5459 PUSH25 0x4C6A637A4D43777A4D446B754F544535494445324D6934774D PREVRANDAO MSIZE PUSH20 0x4D7A45774C6A63794F5341784E6A49754D444530 0x49 GASLIMIT 0x4D PUSH8 0x4D7A45784C6A557A 0x4F NUMBER COINBASE PUSH25 0x4E6A49754D4449794C444D784D6934324E5441674D5459794C PUSH11 0x49344E69777A4D544D754D PUSH11 0x4177494445324D6934324D PREVRANDAO COINBASE PUSH8 0x5179417A4D544D75 0x4E PUSH27 0x5577494445324D6934354D5451734D7A45304C6A63304D4341784E PUSH11 0x4D754D5467304C444D784E MSTORE8 CALLVALUE ADDRESS 0x4D PREVRANDAO COINBASE PUSH8 0x4D54597A4C6A4535 0x4F MSTORE8 TIMESTAMP PREVRANDAO 0x49 PREVRANDAO 0x4D PUSH25 0x4E6934774E6A41674D54597A4C6A49784D79777A4D5459754F SLOAD MLOAD CALLDATALOAD 0x49 PREVRANDAO GASLIMIT ORIGIN 0x4D PUSH26 0x34304F5441734D7A45334C6A4D334E6941784E6A4D754F44457A 0x49 GASLIMIT 0x4D PUSH8 0x4D7A45334C6A6777 0x4E NUMBER COINBASE PUSH25 0x4E6A51754D544D324C444D784F4334324D5451674D5459304C PUSH11 0x4D334F53777A4D546B754D SLOAD PUSH4 0x32494445 ORIGIN 0x4E NUMBER CALLVALUE PUSH27 0x4E5451675179417A4D6A41754D44457A494445324E43347A4D5459 PUSH20 0x4D7A49774C6A41314E4341784E6A51754D6A6377 0x4C PREVRANDAO 0x4D PUSH25 0x4F5334304D4441674D5459304C6A45774E69424449444D784F NUMBER CALLVALUE CALLDATALOAD 0x4E PUSH11 0x41674D54597A4C6A6B354E MSTORE8 PUSH24 0x7A4D5467754D6A5131494445324D7934324E5455734D7A45 CALLER 0x4C PUSH11 0x67784D5341784E6A4D754D PUSH27 0x557949454D674D7A45334C6A4D334E7941784E6A4D754D4451344C PREVRANDAO 0x4D PUSH25 0x4E6934314E4451674D5459794C6A67774D43777A4D5455754F SLOAD MSIZE PUSH24 0x494445324D6934344D4441675179417A4D5455754D7A6332 0x49 PREVRANDAO GASLIMIT ORIGIN 0x4D PUSH10 0x34344D4441734D7A4530 0x4C PUSH11 0x49314D5341784E6A49754E SLOAD 0x4D PUSH24 0x4C444D784D7934304E6A49674D5459794C6A49774D434244 0x49 PREVRANDAO 0x4D PUSH25 0x4D6934324E7A49674D5459784C6A67334D43777A4D5445754E SLOAD GASLIMIT ADDRESS 0x49 PREVRANDAO GASLIMIT ORIGIN 0x4D MSTORE8 CALLVALUE ORIGIN 0x4D PREVRANDAO COINBASE PUSH20 0x4D7A45774C6A67344F5341784E6A45754E6A4177 0x49 GASLIMIT 0x4D PUSH8 0x4D7A45774C6A4932 0x4E NUMBER COINBASE PUSH25 0x4E6A45754E6A41774C444D774F5334304D4451674D5459784C PUSH11 0x4D7A4E69777A4D4467754F SLOAD PUSH4 0x32494445 ORIGIN 0x4D MSTORE8 CALLVALUE PUSH24 0x4D544D675179417A4D4467754E545135494445324D433432 0x4F SLOAD COINBASE PUSH20 0x4D7A41334C6A51794D7941784E6A41754E444977 0x4C PREVRANDAO 0x4D PUSH24 0x4E6934304E7A51674D5459774C6A51784D79424449444D77 0x4E MSTORE8 CALLVALUE BALANCE 0x4D PUSH11 0x51674D5459774C6A51774E PUSH10 0x777A4D4451754D7A6B77 0x49 PREVRANDAO GASLIMIT ORIGIN 0x4D NUMBER CALLVALUE PUSH26 0x4D446B734D7A417A4C6A6B314D7941784E546B754F5463314945 0x4D PUSH8 0x4D7A417A4C6A5578 0x4E PUSH26 0x41784E546B754E7A51784C444D774D5334344E6A4D674D545535 0x4C PUSH11 0x51344D43777A4D4441754D PUSH11 0x6777494445314F53347A4F SLOAD MLOAD PUSH8 0x517941794F546375 0x4E PREVRANDAO SSTORE CALLER 0x49 PREVRANDAO GASLIMIT BALANCE 0x4F MSTORE8 CALLVALUE PUSH26 0x4E4449734D6A6B334C6A51304D7941784E546B754D6A51324C44 0x49 CALLDATALOAD 0x4F MSTORE8 CALLVALUE ORIGIN 0x4D PREVRANDAO COINBASE PUSH8 0x4D5455354C6A5534 0x4E PUSH10 0x424E4D5449314C6A4930 0x4F MSTORE8 COINBASE PUSH25 0x4E6A41754E7A673149454D674D5449314C6A63774D4341784E PUSH11 0x41754E7A6B314C4445794E MSTORE8 CALLVALUE CALLDATALOAD 0x4E PUSH27 0x6B674D5459784C6A4D784F4377784D6A59754D545930494445324D PUSH10 0x34314D44416751794178 0x4D PUSH11 0x59754E445179494445324E NUMBER CALLVALUE PUSH26 0x4E7A59734D544D784C6A49344D5341784E6A6B754E44677A4C44 GASLIMIT PUSH27 0x4D7934354D5455674D5463774C6A67304D4342444944457A4E4334 BALANCE 0x4D SLOAD 0x49 PUSH8 0x4D5463784C6A4530 0x4E PUSH26 0x77784D7A55754D545130494445334D5334324D6A51734D544D31 0x4C PUSH11 0x4D794D4341784E7A45754F PREVRANDAO PUSH12 0x3549454D674D544D314C6A51 CALLDATALOAD 0x4E PUSH10 0x41784E7A49754D546331 0x4C PREVRANDAO GASLIMIT PUSH27 0x4E5334344E4445674D5463794C6A51774D4377784D7A59754D4467 ORIGIN 0x49 PREVRANDAO GASLIMIT CALLER 0x4D PUSH10 0x34304D44416751794178 0x4D PUSH27 0x59754D7A4D79494445334D6934304D4441734D544D324C6A67784F NUMBER COINBASE PUSH25 0x4E7A49754E6A59324C44457A4E7934784E6A59674D5463794C PUSH11 0x6B354D5342444944457A4E PUSH26 0x34314D5455674D54637A4C6A4D784E6977784D7A67754D6A6733 0x49 PREVRANDAO GASLIMIT CALLER 0x4E NUMBER CALLVALUE PUSH24 0x4D7A59734D544D344C6A67344D6941784E7A51754E546B78 0x49 GASLIMIT 0x4D PUSH8 0x4D544D354C6A5133 0x4E PUSH26 0x41784E7A55754D5451324C4445304D4334784E5441674D546331 0x4C PUSH11 0x59774D4377784E4441754D PUSH27 0x6335494445334E5334324D444167517941784E4441754E6A413349 PREVRANDAO GASLIMIT CALLER 0x4E MSTORE8 CALLVALUE ORIGIN 0x4D PREVRANDAO COINBASE PUSH20 0x4D5451784C6A49334D6941784E7A59754D544D32 0x4C PREVRANDAO GASLIMIT ADDRESS 0x4D MSTORE8 CALLVALUE CALLVALUE 0x4E SLOAD MSIZE PUSH8 0x4D5463324C6A6335 0x4D PUSH10 0x4244494445304D693430 0x4E PREVRANDAO COINBASE PUSH8 0x4D5463334C6A5130 0x4E PUSH26 0x77784E444D754D6A5578494445334F4334774F446B734D54517A 0x4C PUSH11 0x59314F5341784E7A67754D PUSH11 0x453549454D674D5451314C PUSH11 0x41344D7941784E7A67754E PUSH11 0x63784C4445304E4334314D PREVRANDAO MSIZE PUSH8 0x4D5463354C6A5977 0x4D NUMBER PUSH24 0x784E4449754F444177494445334F5334324D444167517941 PUSH25 0x4E4445754E6A5130494445334F5334324D4441734D5451784C PUSH11 0x49774D4341784E7A6B754E PREVRANDAO 0x4D PUSH27 0x4C4445304D5334794D4441674D5463354C6A41774D434244494445 ADDRESS 0x4D MSTORE8 CALLVALUE PUSH26 0x4D4441674D5463344C6A59334D4377784E4445754D4441304944 GASLIMIT CALLER 0x4F NUMBER CALLVALUE ADDRESS 0x4D PREVRANDAO COINBASE PUSH20 0x4D5451774C6A63324E4341784E7A67754E444177 0x49 GASLIMIT 0x4D PUSH8 0x4D5451774C6A5579 0x4E NUMBER COINBASE PUSH25 0x4E7A67754E4441774C44457A4F5334314F5445674D5463334C PUSH11 0x63334D4377784D7A67754E PUSH11 0x6B79494445334E7934774D PREVRANDAO COINBASE PUSH8 0x517941784D7A6375 0x4E PUSH27 0x6B79494445334E6934794D7A41734D544D324C6A67314D7941784E PUSH27 0x55754E6A41774C44457A4E6934324D4459674D5463314C6A59774D NUMBER TIMESTAMP PREVRANDAO 0x49 PREVRANDAO GASLIMIT PUSH27 0x4E69347A4E5467674D5463314C6A59774D4377784D7A55754E544D BALANCE 0x49 PREVRANDAO GASLIMIT CALLER 0x4E MSTORE8 CALLVALUE PUSH25 0x4E4445734D544D304C6A63334F4341784E7A51754E54677849 GASLIMIT 0x4D PUSH8 0x4D544D304C6A4179 0x4D NUMBER COINBASE PUSH25 0x4E7A51754D4449774C44457A4D6934324E5455674D54637A4C PUSH11 0x45344F4377784D7A45754E PUSH27 0x5130494445334D6934334D7A4567517941784D6A67754D44417A49 PREVRANDAO GASLIMIT CALLER 0x4D NUMBER CALLVALUE CALLVALUE 0x4E SLOAD PUSH8 0x734D5445354C6A6B CALLVALUE 0x4E PUSH10 0x41784E6A4D754E6A6B31 0x4C PREVRANDAO GASLIMIT PUSH26 0x4D4334774D4459674D5459794C6A49304E434244494445794D43 CALLVALUE PUSH24 0x4D6A51674D5459774C6A6B344D5377784D6A45754D6A4132 0x49 PREVRANDAO GASLIMIT ORIGIN 0x4D NUMBER CALLVALUE PUSH27 0x4E7A55734D54497A4C6A49774D4341784E6A41754E6A413349454D PUSH8 0x4D54497A4C6A6B33 0x4D NUMBER COINBASE PUSH25 0x4E6A41754E6A6B324C4445794E4334344F5449674D5459774C PUSH11 0x63334E7977784D6A55754D PUSH11 0x5135494445324D4334334F PREVRANDAO SSTORE PUSH8 0x545449354D693430 0x4F PREVRANDAO 0x4D PUSH8 0x4D5459784C6A6334 0x4E PUSH26 0x4244494449354E43347A4F546B674D5459794C6A41354F537779 0x4F SLOAD MSIZE PUSH22 0x4D6A6735494445324D6934314D6A45734D6A6B324C6A MSIZE CALLVALUE 0x4D PUSH26 0x41784E6A49754E7A493149454D674D6A6B334C6A41334E794178 0x4E PUSH11 0x49754F5449354C4449354F NUMBER CALLVALUE CALLER 0x4E SLOAD COINBASE PUSH8 0x4D54597A4C6A4979 0x4D NUMBER PUSH24 0x7A4D4441754E444177494445324D79347A4E7A4567517941 PUSH27 0x4D4449754D445577494445324D7934314D6A49734D7A417A4C6A6B ADDRESS 0x4D NUMBER COINBASE PUSH25 0x4E6A4D754F4441784C444D774E4334324D4441674D54597A4C PUSH11 0x6B354D69424449444D774F MSTORE8 CALLVALUE PUSH24 0x4D7A67674D5459314C6A49334D53777A4D5441754E445535 0x49 PREVRANDAO GASLIMIT ORIGIN 0x4E MSTORE8 CALLVALUE ORIGIN 0x4D PREVRANDAO MLOAD PUSH20 0x4D7A45794C6A55774D4341784E6A55754F445179 0x49 GASLIMIT 0x4D PUSH8 0x4D7A457A4C6A6332 0x4E MSTORE8 COINBASE PUSH25 0x4E6A55754F5467354C444D784E4334344D4441674D5459324C PUSH11 0x49794E53777A4D5451754F PREVRANDAO COINBASE PUSH24 0x494445324E69347A4E6A59675179417A4D5451754F444177 0x49 PREVRANDAO GASLIMIT ORIGIN 0x4E PUSH10 0x34314D4463734D7A4532 0x4C PUSH11 0x45354E5341784E6A63754D PREVRANDAO MLOAD PUSH27 0x4C444D784E7934354D4441674D5459334C6A55314F43424449444D PUSH25 0x4F5334324D4455674D5459344C6A41334D69777A4D6A45754E PUSH11 0x6335494445324F4334334E PREVRANDAO 0x49 PUSH20 0x4D7A49794C6A55774F4341784E6A6B754D445133 0x49 GASLIMIT 0x4D PUSH8 0x4D7A497A4C6A4D7A 0x4F NUMBER COINBASE PUSH25 0x4E6A6B754D7A55784C444D794E4334794F5455674D5459354C PUSH11 0x59774D43777A4D6A51754E PUSH11 0x4D33494445324F5334324D PREVRANDAO COINBASE PUSH8 0x5179417A4D6A5175 0x4F SLOAD PUSH4 0x34494445 ORIGIN 0x4F MSTORE8 CALLVALUE ORIGIN 0x4D PREVRANDAO COINBASE PUSH20 0x4D7A49314C6A55794E7941784E6A6B754F446377 0x4C PREVRANDAO 0x4D PUSH26 0x4E5334344E5463674D5463774C6A49774D43424449444D794E69 CALLVALUE PUSH25 0x4F4463674D5463774C6A557A4D43777A4D6A59754F44593549 PREVRANDAO GASLIMIT CALLER 0x4D NUMBER CALLVALUE CALLVALUE 0x4D PREVRANDAO COINBASE PUSH20 0x4D7A49334C6A4D334D6941784E7A41754F444177 0x49 GASLIMIT 0x4D PUSH8 0x4D7A49334C6A6733 0x4E MSTORE8 COINBASE PUSH25 0x4E7A41754F4441774C444D794F53347A4E4467674D5463784C PUSH11 0x4D7A4F43777A4D7A41754E PUSH11 0x5130494445334D5334354F SLOAD SSTORE PUSH8 0x5179417A4D7A4575 0x4F SLOAD MLOAD PUSH24 0x494445334D6934324E5449734D7A4D7A4C6A49774D534178 0x4E PUSH27 0x4D754D546B794C444D7A4D7934304E4463674D54637A4C6A45354E MSTORE8 TIMESTAMP PREVRANDAO 0x49 PREVRANDAO 0x4D PUSH27 0x4D7934324F544D674D54637A4C6A45354F43777A4D7A55754D5449 BALANCE 0x49 PREVRANDAO GASLIMIT CALLER 0x4D PUSH26 0x34344D7A41734D7A4D324C6A59794F4341784E7A51754E6A4177 0x49 GASLIMIT 0x4D PUSH8 0x4D7A4D344C6A457A 0x4D PUSH10 0x41784E7A55754D7A6377 0x4C PREVRANDAO 0x4D PUSH27 0x4F5334314F5463674D5463324C6A41774D43777A4D7A6B754F4467 ADDRESS 0x49 PREVRANDAO GASLIMIT CALLER 0x4E PUSH10 0x34774D4441675179417A 0x4E PREVRANDAO COINBASE PUSH22 0x4D546379494445334E6934774D4441734D7A51784C6A GASLIMIT BALANCE 0x4D PUSH10 0x41784E7A59754E545177 0x4C PREVRANDAO 0x4D ADDRESS 0x4D PUSH10 0x34774E6A4D674D546333 0x4C PUSH11 0x49774D43424449444D304D PUSH10 0x34354E7A55674D546333 0x4C PUSH11 0x67324D43777A4E4451754D PREVRANDAO MSIZE CALLDATALOAD 0x49 PREVRANDAO GASLIMIT CALLER 0x4F NUMBER CALLVALUE ADDRESS 0x4D PREVRANDAO COINBASE PUSH20 0x4D7A51304C6A51354E6941784E7A67754E444177 0x49 GASLIMIT 0x4D PUSH8 0x4D7A51314C6A5931 0x4D NUMBER COINBASE PUSH25 0x4E7A67754E4441774C444D304E7934324D4441674D5467774C PUSH11 0x51794D69777A4E4463754E PUSH11 0x4177494445344D5334324D SLOAD PUSH12 0x675179417A4E4463754E6A41 PUSH24 0x494445344E43347A4F4459734D7A51304C6A6B774D794178 0x4F PREVRANDAO MLOAD PUSH22 0x4D7A55314C444D304D6934784F4455674D5467784C6A SSTORE BALANCE 0x4E PUSH10 0x424449444D304D433477 0x4D SLOAD 0x49 PUSH8 0x4D5463354C6A4D78 0x4F NUMBER PUSH24 0x7A4D7A51754E6A4D35494445334E5334324D4441734D7A4D PUSH27 0x4C6A55334E7941784E7A55754E6A417749454D674D7A4D7A4C6A49 PUSH25 0x4D4341784E7A55754E6A41774C444D7A4D6934794E7A59674D SLOAD PUSH4 0x314C6A41 CALLDATALOAD 0x4E PUSH10 0x777A4D7A45754E544179 0x49 PREVRANDAO GASLIMIT CALLER 0x4E NUMBER CALLVALUE ADDRESS 0x4F PREVRANDAO GASLIMIT PUSH8 0x5179417A4D7A4175 0x4E PUSH27 0x4933494445334D7934344E6A55734D7A49354C6A417A4E7941784E PUSH27 0x4D754D4449304C444D794E7934334E4463674D5463794C6A59784D PUSH10 0x424449444D794E693430 0x4E SLOAD MSIZE PUSH8 0x4D5463794C6A4535 0x4F MSTORE8 PUSH24 0x7A4D6A51754D545177494445334D5334304D6A6B734D7A49 PUSH26 0x4C6A59774D4341784E7A41754F54417749454D674D7A45334C6A SSTORE PUSH24 0x4E5341784E6A6B754D5455774C444D784E6934774D6A4567 0x4D SLOAD MSIZE CALLVALUE 0x4C PUSH11 0x67774F53777A4D446B754D PREVRANDAO COINBASE BALANCE 0x49 PREVRANDAO GASLIMIT ORIGIN 0x4E PUSH26 0x34334E7A55675179417A4D4459754E546734494445324E793430 0x4D SLOAD PUSH8 0x734D7A41304C6A49 CALLER 0x4E MSTORE8 COINBASE PUSH25 0x4E6A59754F5451334C444D774D7934344E6A55674D5459324C PUSH11 0x63794F43424449444D774D PUSH26 0x34304E5455674D5459324C6A55774F43777A4D4445754E7A5179 0x49 PREVRANDAO GASLIMIT ORIGIN 0x4E PUSH10 0x34794F4459734D7A4177 0x4C PUSH11 0x41314F5341784E6A59754D PUSH11 0x4D3149454D674D6A6B304C PUSH11 0x45324E5341784E6A59754D PREVRANDAO SSTORE ADDRESS 0x4C PREVRANDAO 0x49 CALLDATALOAD 0x4D MSTORE8 CALLVALUE CALLER 0x4E PUSH11 0x41674D5459314C6A51774E PUSH10 0x77794F446B754D545132 0x49 PREVRANDAO GASLIMIT ORIGIN 0x4D PUSH26 0x34794F545167517941794F4459754E545935494445324D533479 0x4D SLOAD GASLIMIT PUSH20 0x4D6A67324C6A49794E7941784E6A41754E54637A 0x4C PREVRANDAO 0x49 CALLVALUE 0x4E PUSH26 0x34354D4441674D5459774C6A6B324E434244494449344F433431 0x4D PREVRANDAO SSTORE PUSH8 0x4D5459784C6A4577 0x4E MSTORE8 PUSH24 0x794F5441754E545933494445324D5334304E7A59734D6A6B PUSH26 0x4C6A51344D7941784E6A45754E7A6733494530784D6A67754F44 COINBASE PUSH24 0x494445324D5334344D444167517941784D6A6B754E444D34 0x49 PREVRANDAO GASLIMIT ORIGIN 0x4D PUSH10 0x34784D7A41734D544D77 0x4C PUSH11 0x45774E4341784E6A49754E PUSH11 0x4D794C44457A4D4334794F PREVRANDAO COINBASE PUSH8 0x4D5459794C6A6B78 0x4E MSTORE8 TIMESTAMP PREVRANDAO 0x49 PREVRANDAO GASLIMIT PUSH27 0x4D4334304E5459674D54597A4C6A45354F4377784D7A45754E546B PUSH24 0x494445324E4334794D7A41734D544D794C6A67774D434178 0x4E PUSH11 0x55754D6A413549454D674D SLOAD 0x4D ADDRESS 0x4C PUSH11 0x41784D4341784E6A59754D SLOAD PUSH8 0x334C44457A4E5334 CALLDATALOAD 0x4F SLOAD SSTORE PUSH8 0x4D5459334C6A6735 0x4D NUMBER PUSH24 0x784D7A63754D6A4579494445324F4334354F545167517941 PUSH25 0x4D7A6B754F545577494445334D5334304E7A63734D5451784C PUSH11 0x45774D4341784E7A49754E PREVRANDAO MLOAD ORIGIN 0x4C PREVRANDAO GASLIMIT ADDRESS 0x4E NUMBER CALLVALUE ADDRESS 0x4D SLOAD MLOAD PUSH8 0x4D5463314C6A4132 0x4E PUSH10 0x4244494445304E533434 0x4E SLOAD 0x49 PUSH8 0x4D5463324C6A4977 0x4D PUSH26 0x77784E4463754D6A5931494445334E7934314E7A55734D545133 0x4C PUSH11 0x55314E5341784E7A67754D SLOAD GASLIMIT ORIGIN 0x49 GASLIMIT 0x4D PUSH8 0x4D5451344C6A4130 0x4E MSTORE8 COINBASE PUSH25 0x4E7A6B754D444D784C4445314D4334354D6A6B674D5467774C PUSH11 0x67774D4377784E5445754F SLOAD 0x4D PUSH26 0x494445344D4334344D444167517941784E5449754D5463324944 GASLIMIT CALLVALUE 0x4D NUMBER CALLVALUE CALLVALUE 0x4D PREVRANDAO COINBASE PUSH20 0x4D5455794C6A63334E5341784F4445754D7A5177 0x4C PREVRANDAO GASLIMIT BALANCE 0x4D PUSH26 0x34794E6A4D674D5467794C6A41774D434244494445314D793433 0x4E SLOAD GASLIMIT PUSH8 0x4D5467794C6A5932 0x4D NUMBER PUSH24 0x784E5451754D7A4177494445344D7934794D4441734D5455 ADDRESS 0x4C PUSH11 0x51344D7941784F444D754D PUSH11 0x417749454D674D5455324C PUSH11 0x49324E4341784F444D754D PUSH11 0x41774C4445314F4334334E PUSH11 0x4D674D5467324C6A49344D MSTORE8 PUSH24 0x784E5463754E546333494445344E7934774D545167517941 PUSH25 0x4E5463754D444979494445344E79347A4E5463734D5455304C PUSH11 0x457A4E4341784F4455754E PREVRANDAO 0x4D ORIGIN 0x4C PREVRANDAO GASLIMIT BALANCE 0x4D PUSH26 0x34344D6A41674D5467304C6A55784E534244494445314D793432 0x4F PREVRANDAO MSIZE PUSH8 0x4D5467304C6A4579 0x4D PUSH10 0x77784E5449754E7A6378 0x49 PREVRANDAO GASLIMIT CALLVALUE 0x4D PUSH26 0x34794F5445734D5455784C6A63344F4341784F4449754E6A5935 0x49 GASLIMIT 0x4D PUSH8 0x4D5455774C6A6777 0x4E MSTORE8 COINBASE PUSH25 0x4F4449754D4451324C4445314D4334774D4441674D5467784C PUSH11 0x4D334D5377784E5441754D PREVRANDAO COINBASE PUSH24 0x494445344D5334784E6A6B67517941784E5441754D444177 0x49 PREVRANDAO GASLIMIT CALLVALUE 0x4D NUMBER CALLVALUE CALLDATALOAD 0x4E PUSH11 0x59734D5451354C6A63784D MSTORE8 COINBASE PUSH25 0x4F4441754F4441774C4445304F53347A4E5467674D5467774C PUSH11 0x67774D434244494445304F MSTORE8 CALLVALUE PUSH24 0x4D4451674D5467774C6A67774D4377784E4467754D444D7A 0x49 PREVRANDAO GASLIMIT CALLVALUE 0x4D NUMBER CALLVALUE PUSH26 0x4E6A41734D5451334C6A49774D4341784E7A6B754E6A41774945 0x4D PUSH8 0x4D5451324C6A4D32 0x4E PUSH26 0x41784E7A67754F5451774C4445304E5334304F5459674D546334 0x4C PUSH11 0x51774D4377784E4455754D PUSH11 0x5931494445334F4334304D PREVRANDAO COINBASE PUSH8 0x517941784E445575 0x4D PREVRANDAO 0x4D ADDRESS 0x49 PREVRANDAO GASLIMIT CALLER 0x4F NUMBER CALLVALUE ADDRESS 0x4D PREVRANDAO COINBASE PUSH20 0x4D5451304C6A59784D4341784E7A67754D446332 0x4C PREVRANDAO GASLIMIT ADDRESS 0x4E NUMBER CALLVALUE PUSH27 0x4D6A4D674D5463334C6A59334F534244494445304E4334774D7A55 PUSH8 0x4D5463334C6A4934 0x4D PUSH10 0x77784E444D754D445535 0x49 PREVRANDAO GASLIMIT CALLER 0x4E PUSH10 0x34304D6A63734D545179 0x4C PUSH11 0x45314E4341784E7A55754E PUSH27 0x633549454D674D544D774C6A6B324F5341784E6A63754E7A59334C PREVRANDAO GASLIMIT PUSH26 0x4E6934794F5467674D54597A4C6A51344E6977784D6A59754F54 0x4D PUSH27 0x494445324D5334344D7A4167517941784D6A63754D6A4D78494445 ORIGIN 0x4D MSTORE8 CALLVALUE PUSH24 0x4E5451734D5449334C6A4D314D7941784E6A45754D445579 0x4C PREVRANDAO GASLIMIT PUSH26 0x4F4334344D4441674D5459784C6A67774D43424E4D7A49784C6A MSIZE PUSH24 0x4D4341784E6A55754D44417749454D674D7A49784C6A6733 0x4E NUMBER COINBASE PUSH25 0x4E6A55754D7A4D774C444D794D6934314E7A45674D5459314C PUSH11 0x55334F53777A4D6A4D754D SLOAD MLOAD CALLDATALOAD 0x49 PREVRANDAO GASLIMIT ORIGIN 0x4E MSTORE8 CALLVALUE BALANCE 0x4E SLOAD MLOAD PUSH8 0x5179417A4D6A4D75 0x4F SLOAD PUSH4 0x33494445 ORIGIN 0x4E MSTORE8 CALLVALUE BALANCE 0x4D SLOAD PUSH4 0x734D7A49 ADDRESS 0x4C PUSH11 0x417A4D4341784E6A55754E PREVRANDAO MSIZE ORIGIN 0x4C PREVRANDAO 0x4D PUSH26 0x4D7934304D4441674D5459314C6A4D784E53424449444D794D69 CALLVALUE CALLDATALOAD 0x4E PUSH11 0x41674D5459314C6A49774F MSTORE8 PUSH24 0x7A4D6A49754E444935494445324E4334354E6A41734D7A49 PUSH26 0x4C6A49794D4341784E6A51754E7A597849454D674D7A49784C6A SSTORE CALLVALUE 0x4E PUSH10 0x41784E6A51754D545534 0x4C PREVRANDAO 0x4D PUSH26 0x4D5334774E6A63674D5459304C6A4D314F43777A4D6A45754E6A COINBASE PUSH24 0x494445324E5334774D44416754544D794E5334334D445167 0x4D SLOAD MSIZE ORIGIN 0x4C PUSH11 0x51774D43424449444D794E PUSH10 0x34314D6A55674D545932 0x4C PUSH11 0x67304D43777A4D6A63754E SLOAD MLOAD CALLER 0x49 PREVRANDAO GASLIMIT ORIGIN 0x4E PUSH26 0x34794D4441734D7A49334C6A6B334E5341784E6A63754D6A4177 0x49 GASLIMIT 0x4D PUSH8 0x4D7A49344C6A5177 0x4D PUSH26 0x41784E6A63754D6A41774C444D794F4334344E6A51674D545933 0x4C PUSH11 0x4D344D43777A4D6A6B754D PREVRANDAO COINBASE PUSH24 0x494445324E7934324D4441675179417A4D6A6B754D544D32 0x49 PREVRANDAO GASLIMIT ORIGIN 0x4E PUSH26 0x34344D6A41734D7A49354C6A517A4F5341784E6A67754D444177 0x4C PREVRANDAO 0x4D PUSH26 0x4F5334324E7A4D674D5459344C6A41774D43424449444D794F53 CALLVALUE CALLDATALOAD 0x4E PREVRANDAO GASLIMIT PUSH8 0x4D5459344C6A4177 0x4D NUMBER PUSH24 0x7A4D6A6B754F544530494445324E7934334E7A67734D7A49 CALLDATALOAD 0x4C PUSH11 0x59774D4341784E6A63754E PREVRANDAO COINBASE PUSH24 0x49454D674D7A49354C6A4D794E6941784E6A63754D446377 0x4C PREVRANDAO 0x4D PUSH26 0x4F4334324D4459674D5459324C6A67774D43777A4D6A67754D44 COINBASE PUSH24 0x494445324E6934344D4441675179417A4D6A63754D7A6B30 0x49 PREVRANDAO GASLIMIT ORIGIN 0x4E PUSH10 0x34344D4441734D7A4932 0x4C PUSH11 0x59334E4341784E6A59754E SLOAD 0x4D PUSH24 0x4C444D794E6934304D4441674D5459324C6A49774D434244 0x49 PREVRANDAO 0x4D PUSH26 0x4E6934784D6A59674D5459314C6A67334D43777A4D6A55754E54 0x49 PUSH26 0x494445324E5334324D4441734D7A49314C6A41314E7941784E6A SSTORE PUSH22 0x4E6A417749454D674D7A49304C6A51784D7941784E6A SSTORE PUSH22 0x4E6A41774C444D794E4334314E6A63674D5459314C6A PUSH4 0x354D4377 PUSH27 0x4D6A55754E7A4130494445324E6934304D44416754544D304E6934 CALLVALUE 0x4E PREVRANDAO SSTORE PUSH8 0x4D5459334C6A497A 0x4E MSTORE8 TIMESTAMP PREVRANDAO 0x49 PREVRANDAO 0x4D ADDRESS 0x4E NUMBER CALLVALUE PUSH25 0x4F5463674D5459334C6A63314D53777A4E4451754D6A633349 PREVRANDAO GASLIMIT ORIGIN 0x4F NUMBER CALLVALUE PUSH25 0x4D7A6B734D7A51324C6A6B324D7941784E6A63754F44457A49 GASLIMIT 0x4D PUSH8 0x4D7A51354C6A5933 0x4D NUMBER COINBASE PUSH25 0x4E6A63754E4467314C444D324D6934784D6A59674D5459334C PUSH11 0x51324D43777A4E6A59754D PREVRANDAO COINBASE PUSH24 0x494445324E7934334E7A55675443417A4E6A67754E6A4177 0x49 PREVRANDAO GASLIMIT ORIGIN 0x4E PUSH26 0x34354F4463674D7A59324C6A59314E7941784E6A63754E444930 0x49 GASLIMIT 0x4D PUSH8 0x4D7A59304C6A5131 0x4D PUSH10 0x41784E6A59754E7A6731 0x4C PREVRANDAO 0x4D ADDRESS 0x4F MSTORE8 CALLVALUE CALLVALUE 0x4E PUSH27 0x41674D5459324C6A59304E69777A4E4459754F445131494445324E PUSH26 0x34794D7A55675454497A4E6934774D4441674D5459354C6A4977 0x4D NUMBER TIMESTAMP PREVRANDAO 0x49 PREVRANDAO 0x49 PUSH27 0x4E6934774D4441674D5463774C6A55774E5377794D7A55754D7A45 CALLVALUE 0x49 PREVRANDAO GASLIMIT CALLER 0x4D MSTORE8 CALLVALUE PUSH25 0x4E7A4D734D6A4D304C6A6B314E4341784E7A41754D6A493049 GASLIMIT 0x4D PUSH8 0x4D6A4D304C6A5979 0x4E PUSH10 0x41784E6A6B754D7A5935 0x4C PREVRANDAO 0x49 PUSH27 0x4E5334784D7A45674D5459334C6A55784D4377794D7A55754E6A45 PUSH26 0x494445324E7934344D446367517941794D7A55754F4449314944 GASLIMIT ORIGIN 0x4E PUSH26 0x34354D7A6B734D6A4D324C6A41774D4341784E6A67754E545932 0x4C PREVRANDAO 0x49 PUSH27 0x4E6934774D4441674D5459354C6A49774D43424E4D7A4D784C6A41 PUSH24 0x4D4341784E6A67754D6A6B3049454D674D7A4D784C6A5130 0x4D NUMBER COINBASE PUSH25 0x4E6A67754E4441314C444D7A4D6934784E5455674D5459344C PUSH11 0x63304E53777A4D7A49754E SLOAD PUSH8 0x35494445324F5334 PUSH24 0x4E4467675179417A4D7A4D754E545534494445324F533433 0x4D PUSH11 0x59734D7A4D314C6A55324F NUMBER COINBASE PUSH25 0x4E6A6B754E7A59774C444D7A4E7934774E7A51674D5459354C PUSH11 0x45794E53424449444D7A4E PUSH26 0x34324F544D674D5459344C6A67324E43777A4D7A6B754E445977 0x49 PREVRANDAO GASLIMIT ORIGIN 0x4F NUMBER CALLVALUE BALANCE 0x4D PUSH27 0x4D734D7A51784C6A41774D4341784E6A67754D7A6B77494577674D PUSH27 0x517A4C6A67774D4341784E6A67754D54493549444D304D5334784E PREVRANDAO PUSH12 0x674D5459344C6A41324E5342 PREVRANDAO 0x49 PREVRANDAO 0x4D PUSH27 0x4F5334314E5455674D5459344C6A41794E69777A4D7A63754F5449 BALANCE 0x49 PREVRANDAO GASLIMIT ORIGIN 0x4F NUMBER CALLVALUE PUSH26 0x4D7A6B734D7A4D334C6A41324D6941784E6A67754E6A41774945 0x4D PUSH8 0x4D7A4D324C6A4933 0x4D PUSH10 0x41784E6A67754F544D77 0x4C PREVRANDAO 0x4D PUSH27 0x4E5334784D4449674D5459354C6A49774D43777A4D7A51754E4459 PUSH26 0x494445324F5334794D4441675179417A4D7A4D754F4449794944 GASLIMIT ORIGIN 0x4F MSTORE8 CALLVALUE PUSH26 0x4D4441734D7A4D7A4C6A41334E4341784E6A67754F544D774C44 0x4D PUSH27 0x4D6934344D4441674D5459344C6A59774D43424449444D7A4D6934 BALANCE 0x4D PUSH11 0x59674D5459344C6A49334D NUMBER PUSH24 0x7A4D7A45754F444935494445324F4334774D6A45734D7A4D PUSH25 0x4C6A49314D5341784E6A67754D44513249454D674D7A4D774C PUSH11 0x51784D5341784E6A67754D PREVRANDAO PUSH8 0x7A4C444D7A4D4334 PUSH27 0x4E6A45674D5459344C6A457A4D79777A4D7A45754D444177494445 ORIGIN 0x4F NUMBER CALLVALUE PUSH26 0x4F54516754544D334D5334304D4441674D5459344C6A4D344E79 TIMESTAMP PREVRANDAO 0x49 PREVRANDAO 0x4D CALLER 0x4D PUSH10 0x34354E4441674D545934 0x4C PUSH11 0x55304F43777A4E7A51754F PREVRANDAO 0x49 CALLDATALOAD 0x49 PREVRANDAO GASLIMIT ORIGIN 0x4F NUMBER CALLVALUE CALLVALUE 0x4F PREVRANDAO MSIZE PUSH20 0x4D7A63314C6A55354E7941784E6A6B754D545177 0x49 GASLIMIT 0x4D PUSH8 0x4D7A63324C6A4D32 0x4E PUSH10 0x41784E6A6B754D7A6B7A 0x4C PREVRANDAO 0x4D CALLER 0x4E PUSH26 0x34324D6A59674D5459354C6A59774E69777A4E7A67754D7A6B33 0x49 PREVRANDAO GASLIMIT ORIGIN 0x4F MSTORE8 CALLVALUE ORIGIN 0x4D SLOAD 0x4D PUSH8 0x5179417A4E7A6B75 0x4D SLOAD MSIZE CALLDATALOAD 0x49 PREVRANDAO GASLIMIT ORIGIN 0x4F MSTORE8 CALLVALUE ORIGIN 0x4D PUSH11 0x41734D7A67774C6A45304F MSTORE8 COINBASE PUSH25 0x4E6A6B754F446B774C444D344D4334314E7A59674D5463774C PUSH11 0x49784D79424449444D344D MSTORE8 CALLVALUE PUSH24 0x4D4451674D5463774C6A557A4E69777A4F4445754F544130 0x49 PREVRANDAO GASLIMIT CALLER 0x4D NUMBER CALLVALUE CALLER 0x4F PREVRANDAO 0x49 PUSH20 0x4D7A67794C6A55334E6941784E7A41754E7A5535 0x49 GASLIMIT PUSH24 0x674D7A677A4C6A67774D4341784E7A41754E7A453449444D CALLVALUE 0x4D PUSH10 0x34324D4441674D546377 0x4C PUSH11 0x4D354F43424449444D344D MSTORE8 CALLVALUE CALLDATALOAD 0x4E PREVRANDAO COINBASE PUSH8 0x4D5463774C6A4979 0x4D MSTORE8 PUSH24 0x7A4F4441754F445977494445324F5334344F5449734D7A67 PUSH24 0x4C6A49774D4341784E6A6B754E6A593349454D674D7A6333 0x4C PUSH11 0x67354E4341784E6A67754F PREVRANDAO PUSH4 0x344C444D CALLER 0x4E NUMBER CALLVALUE BALANCE 0x4E PUSH27 0x63674D5459344C6A4D784E43777A4E7A45754E6A4177494445324F NUMBER CALLVALUE PUSH26 0x4D4455675443417A4E6A67754E6A4177494445324F4334774F54 MLOAD PUSH8 0x4D7A63784C6A5177 0x4D NUMBER COINBASE PUSH25 0x4E6A67754D7A6733494530324D5334344D6A59674D5463784C PUSH11 0x4D304F534244494455354C PUSH11 0x4D784E6941784E7A51754D PUSH11 0x67334C4455334C6A4D7A4E MSTORE8 COINBASE PUSH25 0x4E7A55754E546B334C4455314C6A4D334F4341784E7A55754E PUSH11 0x457A49454D674E5451754E SLOAD GASLIMIT PUSH24 0x494445334E5334324D6A41734E544D754E44557849444533 0x4E MSTORE8 CALLVALUE CALLVALUE 0x4F SLOAD COINBASE PUSH20 0x4E544D754D444930494445334E6934794D544D67 MLOAD PUSH26 0x41314D69347A4E7A49674D5463324C6A63774E5377314D69347A 0x4E SLOAD 0x49 PUSH8 0x4D5463324C6A6777 0x4D NUMBER PUSH24 0x314D6934354D4441674D5463324C6A67774D434244494455 PUSH27 0x4C6A49314F5341784E7A59754F4441774C44557A4C6A59324E4341 PUSH25 0x4E7A59754E6A49774C44557A4C6A67774D4341784E7A59754E PREVRANDAO COINBASE PUSH24 0x49454D674E544D754F544D32494445334E6934784F444173 0x4E SLOAD MLOAD PUSH22 0x4E7A4579494445334E5334354F546B734E5455754E54 0x49 ADDRESS 0x49 PREVRANDAO GASLIMIT CALLER 0x4E MSTORE8 CALLVALUE CALLDATALOAD 0x4F SLOAD PUSH12 0x67517941314E7934344E4463 PUSH8 0x4D5463314C6A6B35 0x4E PUSH10 0x77324D4334314E444167 0x4D SLOAD PUSH4 0x304C6A41 PUSH25 0x4D4377324D7934794E5445674D5463774C6A4D774D43424449 PREVRANDAO MSIZE ADDRESS 0x4C PUSH11 0x55354D4341784E6A67754E PREVRANDAO MSIZE ORIGIN 0x4C PREVRANDAO MSIZE PUSH27 0x4C6A63334E7941784E6A6B754D4459324C4459784C6A67794E6941 PUSH25 0x4E7A45754D7A51354945307A4F4451754E6A4930494445334D MSTORE8 CALLVALUE PUSH27 0x4F4463675179417A4F4455754D445578494445334D5334334D5441 PUSH20 0x4D7A67314C6A59304E6941784E7A45754F546777 0x4C PREVRANDAO 0x4D CALLVALUE 0x4E MSTORE8 CALLVALUE CALLDATALOAD 0x4E PREVRANDAO MSIZE PUSH8 0x4D5463784C6A6B34 0x4E PUSH26 0x424449444D344E6934794E4459674D5463784C6A6B354E43777A 0x4F PREVRANDAO PUSH12 0x754E444977494445334D7934 ADDRESS 0x4E PREVRANDAO COINBASE PUSH20 0x4D7A6B7A4C6A41774D4341784E7A55754D6A4177 0x49 GASLIMIT 0x4D PUSH8 0x4D7A6B324C6A5534 0x4D NUMBER COINBASE PUSH25 0x4E7A59754F5459774C444D354F5334324E6A51674D5463344C PUSH11 0x4D354E79777A4F546B754F PREVRANDAO SSTORE ADDRESS 0x49 PREVRANDAO GASLIMIT CALLER 0x4F NUMBER CALLVALUE PUSH27 0x4F545167517941304D4441754D7A5577494445334F43347A4F4459 PUSH20 0x4D7A6B344C6A6B304E6941784E7A63754E6A4D79 0x4C PREVRANDAO 0x4D CALLDATALOAD 0x4D PUSH10 0x34304E6A67674D546330 0x4C PUSH11 0x517A4D69424449444D344F MSTORE8 CALLVALUE PUSH27 0x4D5455674D5463794C6A67334E43777A4F4459754E444178494445 CALLER 0x4D MSTORE8 CALLVALUE ORIGIN 0x4D PREVRANDAO COINBASE PUSH20 0x4D7A67314C6A6B354D5341784E7A45754E6A4177 0x49 GASLIMIT 0x4D PUSH8 0x4D7A67314C6A5534 0x4D PUSH10 0x41784E7A45754E6A4177 0x4C PREVRANDAO 0x4D CALLVALUE 0x4E MSTORE8 CALLVALUE PUSH25 0x4D7A59674D5463784C6A51794D43777A4F4455754D44417749 PREVRANDAO GASLIMIT CALLER 0x4D MSTORE8 CALLVALUE PUSH26 0x4D4441675179417A4F4451754F445930494445334D4334354F44 COINBASE PUSH20 0x4D7A67304C6A55304F5341784E7A41754F444177 0x4C PREVRANDAO 0x4D CALLVALUE 0x4E NUMBER CALLVALUE PUSH27 0x4D4441674D5463774C6A67774D43424449444D344E4334774E5445 PUSH8 0x4D5463774C6A6777 0x4D NUMBER PUSH24 0x7A4F4451754D546B32494445334D5334774E6A51734D7A67 ADDRESS 0x4C PUSH11 0x59794E4341784E7A45754D PUSH27 0x6733494530784E4451754E544532494445334D6934314D44416751 PUSH26 0x41784E4455754D6A4979494445334D6934354F5455734D545132 0x4C PUSH11 0x4D354D5341784E7A4D754F PREVRANDAO PUSH12 0x314C4445304E7934784D5451 PUSH8 0x4D5463304C6A5577 0x4D NUMBER TIMESTAMP PREVRANDAO 0x49 PREVRANDAO GASLIMIT ADDRESS 0x4E PUSH26 0x34344D7A63674D5463314C6A45774E5377784E4467754E6A597A 0x49 PREVRANDAO GASLIMIT CALLER 0x4E MSTORE8 CALLVALUE ORIGIN 0x4D PREVRANDAO COINBASE PUSH20 0x4D5451344C6A6B314D4341784E7A55754E6A4177 0x49 GASLIMIT 0x4D PUSH8 0x4D5451354C6A4D34 0x4D NUMBER COINBASE PUSH25 0x4E7A55754E6A41774C4445314D4334304D4441674D5463334C PUSH11 0x45324D4377784E5441754E PREVRANDAO COINBASE PUSH24 0x494445334E7934344D546B67517941784E5441754E444177 0x49 PREVRANDAO GASLIMIT CALLER 0x4F NUMBER CALLVALUE BALANCE 0x4E SLOAD 0x4D PUSH20 0x4D5451344C6A51774D5341784E7A63754E7A6B34 0x4C PREVRANDAO GASLIMIT ADDRESS 0x4E PUSH26 0x34324E4467674D5463324C6A63344D434244494445304E793478 0x4E SLOAD 0x49 PUSH8 0x4D5463324C6A4577 0x4F MSTORE8 PUSH24 0x784E4459754D7A4134494445334E53347A4F544D734D5451 BALANCE 0x4C PUSH11 0x63334D7941784E7A55754D SLOAD PUSH12 0x7749454D674D5451314C6A49 PUSH27 0x4F4341784E7A51754F5467324C4445304E4334344D4441674D5463 ADDRESS 0x4C PUSH11 0x59314D7977784E4451754F PREVRANDAO COINBASE PUSH24 0x494445334E4334304E446B67517941784E4451754F444177 0x49 PREVRANDAO GASLIMIT CALLER 0x4E NUMBER CALLVALUE PUSH26 0x4E4459734D5451304C6A45334D4341784E7A4D754E7A41334C44 GASLIMIT ADDRESS 0x4D PUSH26 0x34304D4441674D54637A4C6A49314D794244494445304D693432 0x4D PUSH27 0x41674D5463794C6A63354F5377784E4449754D444177494445334D PUSH10 0x34794E4445734D545179 0x4C PUSH11 0x41774D4341784E7A49754D PREVRANDAO GASLIMIT PUSH27 0x49454D674D5451794C6A41774D4341784E7A45754D7A49304C4445 ADDRESS 0x4D PUSH26 0x34784E5467674D5463784C6A55304F4377784E4451754E544532 0x49 PREVRANDAO GASLIMIT CALLER 0x4D PUSH10 0x34314D44416754544932 0x4D PUSH26 0x34324E6A6B674D5463314C6A41324D694244494449324E433434 0x4D SLOAD PUSH4 0x674D5463 ORIGIN 0x4C PUSH11 0x45774D6977794E6A51754E SLOAD MLOAD CALLER 0x49 PREVRANDAO GASLIMIT CALLER 0x4E PUSH26 0x34774D4449734D6A59794C6A55774D4341784E7A67754F545133 0x49 GASLIMIT 0x4D PUSH8 0x4D6A59784C6A5131 0x4E MSTORE8 COINBASE PUSH25 0x4E7A6B754F5451784C4449314F4334304E4441674D5467794C PUSH11 0x677A4E6977794E5455754F PREVRANDAO COINBASE PUSH24 0x494445344E53347A4F444167517941794E446B754E544177 0x49 PREVRANDAO GASLIMIT CALLDATALOAD 0x4D MSTORE8 CALLVALUE ADDRESS 0x4E SLOAD 0x4D PUSH20 0x4D6A51324C6A63344D7941784F544D754D6A5133 0x4C PREVRANDAO 0x49 ADDRESS 0x4E MSTORE8 CALLVALUE PUSH25 0x4F444D674D546B794C6A4D354D534244494449304D7934774D PUSH27 0x45674D546B784C6A497A4F5377794E444D754E545933494445344F NUMBER CALLVALUE CALLVALUE 0x4E PUSH27 0x51734D6A51324C6A497A4D6941784F4463754E7A597849454D674D PUSH11 0x51334C6A51354D7941784F PREVRANDAO PUSH4 0x754D6A4D ADDRESS 0x4C PREVRANDAO 0x49 ADDRESS 0x4F MSTORE8 CALLVALUE ORIGIN 0x4D SLOAD MSIZE PUSH8 0x4D5467314C6A4D33 0x4D MSTORE8 PUSH24 0x794E5467754D544577494445334E79347A4E444167517941 PUSH26 0x4E6A45754D7A4D35494445334E4334794F4463734D6A59794C6A 0x4D BALANCE 0x4D PUSH26 0x41784E7A4D754F4463784C4449324D7934324E6A6B674D546331 0x4C PUSH11 0x41324D69424E4E446B754D PUSH11 0x4177494445334E7934304D PREVRANDAO COINBASE PUSH8 0x517941304F433479 0x4F SLOAD COINBASE PUSH8 0x4D5463334C6A6B79 0x4D NUMBER PUSH24 0x304F4334794E7A4D674D5463334C6A6B334D7977304F5334 PUSH24 0x4D6A41674D5463334C6A6B344E694244494451354C6A5133 0x4D MSTORE8 COINBASE PUSH25 0x4E7A63754F546B304C4455774C6A41784D5341784E7A63754F PREVRANDAO 0x4D CALLER 0x4C PREVRANDAO SSTORE PUSH24 0x4C6A49794D4341784E7A63754E6A4D3549454D674E544175 0x4E PREVRANDAO 0x49 CALLDATALOAD 0x49 PREVRANDAO GASLIMIT CALLER 0x4E PUSH26 0x34304E4441734E5441754F545977494445334E7934784F544573 0x4E SLOAD GASLIMIT PUSH22 0x4E444177494445334E7934774F445567517941314D69 CALLVALUE PUSH24 0x4E5445674D5463324C6A6B794F5377314D6934774D545167 0x4D SLOAD PUSH4 0x324C6A67 CALLVALUE 0x4E PUSH26 0x77314D5334794D4441674D5463324C6A67324D53424449445577 0x4C PUSH11 0x59314D4341784E7A59754F PREVRANDAO MLOAD PUSH27 0x4C4451354C6A63314D4341784E7A63754D4467324C4451354C6A49 PUSH24 0x4D4341784E7A63754E444177494530304E5334784D546367 0x4D SLOAD PUSH4 0x344C6A49 PUSH25 0x4E694244494451304C6A637A4E5341784E7A67754E546B354C PREVRANDAO MLOAD PUSH24 0x4C6A59304F5341784F4441754D4459314C444D354C6A4177 0x4D NUMBER COINBASE PUSH25 0x4F4441754E44457949454D674D7A63754E445130494445344D NUMBER CALLVALUE CALLER 0x4D PUSH27 0x6B734D7A49754E545930494445344D7934784E7A67734D7A4D754E PREVRANDAO 0x4D ORIGIN 0x49 PREVRANDAO GASLIMIT CALLVALUE 0x4D PUSH26 0x34784F544D675179417A4D7934324E7A59674D54677A4C6A4535 0x4E PUSH26 0x777A4E4334344E4459674D5467794C6A59324D79777A4E693477 0x4D PUSH27 0x59674D5467794C6A41774E79424449444D334C6A49794E6941784F PREVRANDAO GASLIMIT PUSH22 0x4D7A55784C444D344C6A63314D5341784F4441754F44 GASLIMIT PUSH25 0x4C444D354C6A51794E4341784F4441754F44413349454D674E PREVRANDAO COINBASE PUSH22 0x4D446B32494445344D4334344D444D734E4441754F54 PUSH12 0x32494445344D4334314D7A59 PUSH20 0x4E4445754E444930494445344D4334794D544D67 MLOAD PUSH26 0x41304D5334344E5445674D5463354C6A67354D4377304D693431 0x4E PUSH11 0x55674D5463354C6A59794D NUMBER PUSH24 0x304D7934774D5445674D5463354C6A59784D794244494451 PUSH27 0x4C6A51314E7941784E7A6B754E6A41324C4451304C6A45344E5341 PUSH25 0x4E7A6B754D7A51314C4451304C6A59794F5341784E7A6B754D PREVRANDAO 0x4D ADDRESS 0x49 GASLIMIT 0x4D PUSH8 0x4E4455754D446330 0x49 PREVRANDAO GASLIMIT CALLER 0x4F NUMBER CALLVALUE CALLER 0x4D PUSH11 0x4D734E4455754F54593549 PREVRANDAO GASLIMIT CALLER 0x4F NUMBER CALLVALUE PUSH27 0x4F5441734E4459754E6A4534494445334F4334794F545167544341 ADDRESS 0x4E PUSH26 0x34344D4441674D5463344C6A45794D4341304E6934314E6A6367 0x4D SLOAD PUSH4 0x344C6A41 ORIGIN 0x4D NUMBER TIMESTAMP PREVRANDAO 0x49 PREVRANDAO MLOAD BALANCE 0x4C PUSH11 0x67344F4341784E7A67754D PREVRANDAO 0x49 CALLER 0x4C PREVRANDAO MLOAD BALANCE 0x4C PUSH11 0x497A4E6941784E7A67754D PREVRANDAO PUSH12 0x334C4451314C6A45784E7941 PUSH25 0x4E7A67754D6A4532494530334D6934314F5449674D5467794C PUSH11 0x49324E434244494463334C PUSH11 0x59794F4341784F4455754D PUSH27 0x49304C4467784C6A59774D4341784F4467754E54457A4C4467784C PUSH11 0x59774D4341784F446B754E PREVRANDAO PUSH12 0x3149454D674F4445754E6A41 PUSH24 0x494445354D5334784D4445734F4441754E544D3149444535 0x4D NUMBER CALLVALUE CALLDATALOAD 0x4E SLOAD PUSH4 0x734E7A63 PUSH22 0x4E7A4578494445344F4334354E7A4167517941334D79 CALLVALUE PUSH25 0x4D5467674D5467314C6A637A4F4377334D5334344E6A45674D SLOAD PUSH8 0x304C6A6B784E7977 CALLER 0x4D NUMBER CALLVALUE PUSH25 0x4D6A63674D5467304C6A41784E694244494459344C6A45794D NUMBER COINBASE PUSH25 0x4F4449754F5463304C4459334C6A517A4D5341784F4449754D PUSH11 0x45354C4459334C6A63304D PUSH26 0x41784F4445754E44413149454D674E6A67754D544D3049444534 0x4D NUMBER CALLVALUE PUSH27 0x4F4451734E7A41754D445979494445344D4334334D6A59734E7A49 PUSH22 0x4E546B79494445344D6934794E6A516754544D774C6A SSTORE PUSH24 0x4E5341784F444D754F54553249454D674D6A67754E7A497A 0x49 PREVRANDAO GASLIMIT CALLVALUE 0x4E NUMBER CALLVALUE ORIGIN 0x4E PUSH11 0x51734D6A63754E44593149 PREVRANDAO GASLIMIT CALLVALUE 0x4E MSTORE8 CALLVALUE ORIGIN 0x4D PREVRANDAO COINBASE PUSH20 0x4D6A67754D6A6B32494445344E5334324D444167 MLOAD PUSH26 0x41794F4334314E4463674D5467314C6A59774D4377794F433434 0x4E SLOAD 0x49 PUSH8 0x4D5467314C6A5130 0x4D NUMBER PUSH24 0x794F4334354E7A4D674D5467314C6A49304E434244494449 CALLDATALOAD 0x4C PUSH11 0x41354E4341784F4455754D PREVRANDAO MLOAD CALLDATALOAD 0x4C PREVRANDAO 0x49 CALLDATALOAD 0x4C PUSH11 0x59334E4341784F4451754E PUSH27 0x59344C444D774C6A49324E4341784F4451754E6A497749454D674D PUSH27 0x45754D7A4932494445344E43347A4E544D734D7A4D754D7A4D3249 PREVRANDAO GASLIMIT CALLVALUE 0x4D PUSH26 0x34784E6A49734D7A49754E546735494445344D7934794E444567 MLOAD PUSH26 0x417A4D69347A4E7A55674D54677A4C6A49324E43777A4D533430 0x4D PUSH27 0x63674D54677A4C6A55344E69777A4D4334314D4455674D54677A4C PUSH11 0x6B314E69424E4D6A49754F PREVRANDAO COINBASE PUSH24 0x494445344E7934304D444167517941794D6934314D6A5967 0x4D SLOAD PUSH8 0x334C6A637A4D4377 PUSH26 0x4D6934774D446B674D5467344C6A41774F4377794D5334324E54 GASLIMIT PUSH8 0x4D5467344C6A4178 0x4E PUSH26 0x4244494449784C6A49354D7941784F4467754D4449334C444977 0x4C PUSH11 0x49344D4341784F4467754E PREVRANDAO MSIZE BALANCE 0x4C PREVRANDAO GASLIMIT CALLDATALOAD 0x4C PUSH11 0x51774D4341784F4467754F SLOAD PUSH12 0x7949454D674D5467754E5449 PUSH24 0x494445344F5334314D5467734D5463754D44673349444535 0x4D NUMBER CALLVALUE PUSH27 0x4D7A63734D5459754D6A4531494445354D4334344D544967517941 PUSH25 0x4E53347A4E444D674D546B784C6A49344E7977784E4334784F SLOAD MLOAD PUSH8 0x4D546B794C6A4178 0x4F MSTORE8 PUSH24 0x784D7934324E6A45674D546B794C6A517A4F434244494445 PUSH27 0x4C6A45794F4341784F5449754F4455334C4445794C6A55794D4341 PUSH25 0x4F544D754D6A41774C4445794C6A4D784D5341784F544D754D PUSH11 0x417749454D674D5449754D SLOAD COINBASE PUSH25 0x494445354D7934794D4441734D5445754D44417A494445354E NUMBER CALLVALUE PUSH24 0x4D5441734F5334344E7A45674D546B314C6A41774D434244 0x49 PREVRANDAO PUSH8 0x754E7A5177494445 CALLDATALOAD 0x4E MSTORE8 CALLVALUE CALLDATALOAD 0x4F SLOAD COINBASE PUSH20 0x4E7934324E7A59674D546B324C6A67774D437733 0x4C PUSH11 0x55774E7941784F5459754F PREVRANDAO COINBASE PUSH24 0x49454D674E79347A4D7A67674D546B324C6A67774D437732 0x4C PUSH11 0x67334E7941784F5463754D SLOAD GASLIMIT BALANCE 0x4C PREVRANDAO MSIZE PUSH22 0x4E446779494445354E7934314D444167517941324C6A COINBASE CALLVALUE 0x4E PUSH26 0x41784F5463754F4467314C4451754F446379494445354F433435 0x4E PREVRANDAO PUSH12 0x734D7934334F4449674D546B CALLDATALOAD 0x4C PUSH11 0x67324E534244494441754D PUSH11 0x6730494449774D6934344D PREVRANDAO SSTORE PUSH20 0x4C5441754D544D77494449774D7934794D444173 0x4D NUMBER CALLVALUE PUSH26 0x4F5441674D6A417A4C6A49774D434244494441754E5445334944 0x49 PUSH24 0x4D7934794D4441734D4334354D6A59674D6A41794C6A6B7A 0x4D NUMBER PUSH24 0x784C6A49774D4341794D4449754E6A417749454D674D5334 ADDRESS 0x4E PUSH27 0x51674D6A41794C6A49334D4377784C6A6B304E6941794D4449754D PREVRANDAO COINBASE PUSH24 0x4C4449754D6A5135494449774D6934774D44416751794179 0x4C PUSH11 0x55314D6941794D4449754D PREVRANDAO COINBASE PUSH24 0x4C4449754F444177494449774D5334344D5455734D693434 0x4D PREVRANDAO COINBASE PUSH8 0x4D6A41784C6A5534 0x4F NUMBER TIMESTAMP PREVRANDAO 0x49 PREVRANDAO 0x49 PUSH22 0x4F444177494449774D5334784E5449734E4334344F54 COINBASE PUSH8 0x4D546B354C6A4977 0x4D PUSH26 0x77324C6A6B324D7941784F5463754E7A413249454D674E793432 0x4E PREVRANDAO 0x4D PUSH8 0x4D546B334C6A4978 0x4E MSTORE8 PUSH24 0x344C6A63794D5341784F5459754E4441314C446B754D7A55 CALLER 0x49 PREVRANDAO GASLIMIT CALLDATALOAD 0x4E MSTORE8 CALLVALUE CALLDATALOAD 0x4D PREVRANDAO MSIZE PUSH8 0x517941784D433435 0x4E PREVRANDAO COINBASE PUSH8 0x4D546B304C6A5932 0x4E PUSH10 0x77784E4334334E7A4567 0x4D SLOAD PUSH12 0x794C6A41774D4377784E4334 CALLDATALOAD 0x4E PUSH27 0x45674D546B794C6A41774D434244494445314C6A41324D5341784F SLOAD 0x49 PUSH22 0x4D4441774C4445324C6A55774E4341784F5445754D54 PUSH12 0x774C4445344C6A45334F4341 PUSH25 0x4F5441754D6A417749454D674D546B754F44557A494445344F MSTORE8 CALLVALUE PUSH26 0x4D5441734D6A45754E445932494445344F4334304D4441734D6A GASLIMIT PUSH22 0x4E7A597A494445344F4334304D444167517941794D69 CALLVALUE PUSH24 0x4E546B674D5467344C6A51774D4377794D6934314D546367 0x4D SLOAD PUSH8 0x344C6A45304D5377 PUSH26 0x4D6934334F4441674D5467334C6A67794E4342444944497A4C6A COINBASE ADDRESS 0x4D PUSH26 0x41784F4463754E5441334C44497A4C6A59314D4341784F446375 0x4D SLOAD PUSH4 0x794C4449 ADDRESS 0x4C PUSH11 0x45794F5341784F4463754D PREVRANDAO PUSH4 0x3449454D PUSH8 0x4D6A51754F546B31 0x49 PREVRANDAO GASLIMIT CALLVALUE 0x4E PUSH10 0x34354D5441734D6A5175 0x4F SLOAD PUSH12 0x31494445344E6934354D446B PUSH20 0x4D6A51754D545135494445344E6934344E545167 MLOAD PUSH26 0x41794D7934324F4445674D5467324C6A67794E5377794D793477 0x4E PUSH27 0x51674D5467334C6A41334D4377794D6934344D4441674D5467334C PUSH11 0x51774D43424E4D6A51784C PUSH11 0x6B794F4341784F5445754E PUSH27 0x457A49454D674D6A51794C6A59794F4341784F5449754E5455334C PREVRANDAO 0x49 ADDRESS 0x4D PUSH10 0x34774F5451674D546B7A 0x4C PUSH11 0x41774F4377794D7A55754E PUSH27 0x4D35494445354E6934354D7A6367517941794D7A45754E7A4D3549 PREVRANDAO GASLIMIT CALLDATALOAD 0x4F MSTORE8 CALLVALUE ADDRESS 0x4D SLOAD COINBASE PUSH20 0x4D6A4D784C6A557A4D4341784F546B754E446777 0x4C PREVRANDAO 0x49 PUSH27 0x4D4334344D4449674D546B344C6A59774D694244494449794F5334 CALLER 0x4D PUSH27 0x51674D546B334C6A4D784E5377794D7A49754E54457A494445354E MSTORE8 CALLVALUE PUSH24 0x4E7A49734D6A4D344C6A59774D4341784F5449754D7A4578 0x49 GASLIMIT 0x4D PUSH8 0x4D6A51784C6A5177 0x4D NUMBER COINBASE PUSH25 0x4F5445754D4451784C4449304D53347A4E7A51674D546B784C PUSH11 0x41304E6977794E4445754F SLOAD 0x49 CALLVALUE 0x49 PREVRANDAO GASLIMIT CALLDATALOAD 0x4D MSTORE8 CALLVALUE CALLER 0x4D SLOAD 0x4D PUSH8 0x545445794E433479 0x4D PREVRANDAO COINBASE PUSH8 0x4D546B344C6A4535 0x4D PUSH10 0x4244494445794E69347A 0x4D PUSH27 0x63674D546B344C6A67794D6977784D6A67754F445979494445354F MSTORE8 CALLVALUE PUSH26 0x4D4449734D544D784C6A67774D4341784F546B754D7A4D334945 0x4D PUSH8 0x4D544D304C6A4979 0x4D NUMBER COINBASE PUSH25 0x4F546B754E4451344C44457A4E6934334E4441674D546B354C PUSH11 0x63314D4377784D7A63754E PREVRANDAO COINBASE PUSH24 0x494449774D4334774D446767517941784D7A67754D544D78 0x49 PREVRANDAO 0x49 PUSH24 0x4D4334794F5451734D5451774C6A63784D6941794D444175 0x4E PREVRANDAO MSIZE PUSH25 0x4C4445304E4334774D4441674D6A41774C6A517A4E53424449 PREVRANDAO GASLIMIT BALANCE 0x4E PUSH26 0x34354D4449674D6A41774C6A4D794E6977784E6A41754D445579 0x49 PREVRANDAO 0x49 PUSH24 0x4D43347A4E4441734D54597A4C6A63784E7941794D444175 0x4E SLOAD MSIZE CALLVALUE 0x49 GASLIMIT 0x4D PUSH8 0x4D5459314C6A6B31 0x4E PUSH26 0x41794D4441754E7A41334C4445324F53347A4F4451674D6A4177 0x4C PUSH11 0x59774E4377784E7A45754E PUSH27 0x4533494449774D43347A4D6A6767517941784E7A67754F44513149 PREVRANDAO GASLIMIT CALLDATALOAD 0x4F MSTORE8 CALLVALUE ADDRESS 0x4F PREVRANDAO SSTORE PUSH20 0x4D5467794C6A4D794E5341784F546B754E6A4977 0x4C PREVRANDAO GASLIMIT CALLVALUE 0x4D PUSH26 0x34794E6A41674D6A41774C6A63334E534244494445344E433431 0x4D SLOAD PUSH12 0x674D6A41794C6A4D794F5377 PUSH25 0x4F444D754D6A5532494449774E5334784F5451734D5467784C PUSH11 0x59774D4341794D4451754E SLOAD MLOAD PUSH25 0x49454D674D5467784C6A49334D4341794D4451754E4445784C PREVRANDAO GASLIMIT CALLER 0x4F NUMBER CALLVALUE ORIGIN 0x4E PUSH11 0x41674D6A41304C6A49304E MSTORE8 PUSH24 0x784E7A55754F444177494449774E4334784E7A4567517941 PUSH25 0x4E7A49754F545177494449774E4334774F5467734D5459354C PUSH11 0x45344D4341794D444D754F SLOAD 0x49 BALANCE 0x4C PREVRANDAO GASLIMIT ORIGIN 0x4E PUSH26 0x34304E4459674D6A417A4C6A63344E794244494445324D693432 0x4F PREVRANDAO 0x49 PUSH8 0x4D6A417A4C6A5177 0x4E PUSH26 0x77784E446B754E444930494449774D7934314D7A55734D545134 0x4C PUSH11 0x49334E7941794D444D754F SLOAD PUSH4 0x7849454D PUSH8 0x4D5451334C6A5978 0x4E PUSH26 0x41794D4451754D6A49794C4445304E6934334E4445674D6A4130 0x4C PUSH11 0x49774F5377784E4455754E PUSH27 0x5132494449774D7934354D7A5167517941784E4451754E6A593349 PREVRANDAO 0x49 PUSH24 0x4D7934324D7A59734D5451794C6A4D344D5341794D444D75 0x4E PUSH11 0x55784C44457A4E7934344F PREVRANDAO PUSH12 0x674D6A417A4C6A6B344E4342 PREVRANDAO 0x49 PREVRANDAO GASLIMIT PUSH27 0x4D6934304F4445674D6A41304C6A4D344E5377784D7A45754D5459 PUSH26 0x494449774E43347A4E6A55734D5449344C6A67334E7941794D44 0x4D PUSH22 0x4F44513549454D674D5449334C6A51774E5341794D44 0x4D PUSH22 0x4E5445334C4445794E4334304F5441674D6A41794C6A PUSH12 0x304D6977784D6A49754E4441 PUSH24 0x494449774D6934314E7A4567517941784D5455754D445131 0x49 PREVRANDAO 0x49 PUSH24 0x4D5334794E6A63734D5445794C6A51354D5341784F546B75 0x4E SLOAD MSIZE ORIGIN 0x4C PREVRANDAO GASLIMIT PUSH25 0x4E4334324E4467674D546B334C6A51774F534244494445784E MSTORE8 CALLVALUE BALANCE 0x4D SLOAD 0x4D PUSH8 0x4D546B324C6A5530 0x4E NUMBER PUSH24 0x784D546B754F444177494445354E6934344F5459734D5449 ADDRESS 0x4C PUSH11 0x49774D4341784F5467754D SLOAD PUSH12 0x79494530794D6A45754E7A4D ADDRESS 0x49 PREVRANDAO 0x49 PUSH24 0x4E4334304E6A5967517941794D6A49754E544D3049444977 0x4E MSTORE8 CALLVALUE CALLER 0x4D PUSH27 0x67734D6A45344C6A557A4E4341794D4463754F544D354C4449784E NUMBER CALLVALUE PUSH27 0x4E5449674D6A41344C6A55794F534244494449784D7934314E5459 PUSH8 0x4D6A41344C6A5930 0x4D MSTORE8 PUSH24 0x794D5445754E7A5179494449774F5334784F5467734D6A45 PUSH24 0x4C6A4D794D5341794D446B754E7A593249454D674D6A4133 0x4C PUSH11 0x41324D6941794D5445754D PREVRANDAO PUSH4 0x774C4449 PUSH24 0x4E4334324D5445674D6A45784C6A45304D6977794D444D75 0x4F SLOAD PUSH4 0x31494449 PUSH24 0x4F5334354E544D67517941794D444D754D546B3349444977 0x4F NUMBER CALLVALUE ADDRESS 0x4F SLOAD PUSH12 0x734D6A41304C6A49784D5341 PUSH26 0x4D4463754F546B7A4C4449774F4334794E5459674D6A41334C6A PUSH8 0x784E694244494449 PUSH25 0x4D5334314E6A63674D6A41334C6A59334D5377794D5449754D SLOAD MLOAD ORIGIN 0x49 PREVRANDAO 0x49 PUSH24 0x4E7934314D5451734D6A45314C6A51794F5341794D445575 0x4F PREVRANDAO PUSH4 0x7849454D PUSH8 0x4D6A49774C6A557A 0x4E MSTORE8 COINBASE PUSH26 0x4D444D754D7A45334C4449794D4334354E5445674D6A417A4C6A 0x49 PUSH26 0x4E4377794D6A45754E7A4D30494449774E4334304E6A59675454 GASLIMIT CALLER 0x4D NUMBER CALLVALUE PUSH27 0x4D7A59674D6A41304C6A59324E694244494445334F5334344F4459 PUSH8 0x4D6A41304C6A6B7A 0x4E PUSH10 0x77784F4445754D446B33 0x49 PREVRANDAO 0x49 PUSH24 0x4E5334784E6A49734D5467774C6A55314E5341794D445975 0x4E SLOAD PUSH4 0x7949454D PUSH8 0x4D5467774C6A4977 0x4E NUMBER COINBASE PUSH26 0x4D4463754E4467344C4445334F5334794F4467674D6A41334C6A SSTORE PUSH26 0x4E4377784E6A63754D7A4D78494449774E7934784D4445675179 COINBASE PUSH25 0x4E6A41754F546735494449774E6934344E7A59734D5455304C PUSH11 0x51784F4341794D4459754E PUSH27 0x49344C4445314D6934334D6A6B674D6A41324C6A63334D53424449 PREVRANDAO GASLIMIT BALANCE 0x4D NUMBER CALLVALUE BALANCE 0x4D PREVRANDAO PUSH12 0x674D6A41324C6A67794F5377 PUSH25 0x4E446B754D6A6B34494449774E6934324E6A55734D5451344C PUSH11 0x4D314F4341794D4459754D SLOAD PUSH4 0x34494577 PUSH8 0x4D5451334C6A4131 0x4E PUSH10 0x41794D4455754E544131 0x49 PREVRANDAO GASLIMIT ADDRESS 0x4F NUMBER CALLVALUE PUSH24 0x4D6A67674D6A41304C6A6B324E794244494445304F533478 0x4E SLOAD SSTORE PUSH8 0x4D6A41304C6A4D30 0x4D PUSH10 0x77784E5455754E7A5579 0x49 PREVRANDAO 0x49 PUSH24 0x4E4334794E544D734D5463774C6A4D7A4E6941794D445175 0x4E PUSH11 0x59324945307A4E5455754D PUSH27 0x4977494449774E5334774E4463675179417A4E5459754D44493049 PREVRANDAO 0x49 PUSH24 0x4E5334304D444D734D7A55324C6A6B324D4341794D445975 0x4D PREVRANDAO GASLIMIT PUSH25 0x4C444D314E7934304D4441674D6A41324C6A4D354F43424449 PREVRANDAO 0x4D BALANCE 0x4E PUSH26 0x34344E4441674D6A41324C6A63344E69777A4E5467754E6A6779 0x49 PREVRANDAO 0x49 PUSH24 0x4E79347A4E5441734D7A55354C6A49334D6941794D446375 0x4E PUSH11 0x557849454D674D7A59774C PUSH11 0x4D794E4341794D4467754D SLOAD PUSH12 0x774C444D324D6934304D4441 PUSH8 0x4D6A45774C6A6730 0x4D NUMBER PUSH24 0x7A4E6A49754E444177494449784D5334324E445567517941 PUSH27 0x4E6A49754E444177494449784D6934334D6A41734D7A55334C6A67 BALANCE 0x4D PUSH10 0x41794D446B754E7A6B77 0x4C PREVRANDAO 0x4D BALANCE 0x4E NUMBER CALLVALUE CALLVALUE 0x4D PUSH27 0x49674D6A41324C6A63334D53424449444D314D6934344E7A67674D PUSH11 0x41304C6A67784E69777A4E SLOAD 0x4D PUSH22 0x4D544932494449774D7934354D7A67734D7A55314C6A 0x4D PUSH26 0x4D4341794D4455754D445133494530784E4455754E7A51354944 0x49 PUSH24 0x4E5334784E446367517941784E4463754D44677849444977 0x4E MSTORE8 CALLVALUE PUSH27 0x4E5441734D5451304C6A63794D4341794D4459754D7A51334C4445 ADDRESS 0x4D PUSH10 0x34304F4467674D6A4132 0x4C PUSH11 0x55794E534244494445304D MSTORE8 CALLVALUE PUSH24 0x4D5441674D6A41324C6A59304D6977784D7A67754F544534 0x49 PREVRANDAO 0x49 PUSH24 0x4E6934354D7A49734D544D334C6A67304D4341794D446375 0x4D SLOAD MSIZE CALLVALUE 0x49 GASLIMIT 0x4D PUSH8 0x4D544D314C6A4931 0x4E MSTORE8 COINBASE PUSH26 0x4D4463754E7A4D314C44457A4D7934354F4441674D6A41324C6A PUSH8 0x334E7977784D7A55 PUSH22 0x4D7A5977494449774E5334304F546367517941784D7A SSTORE PUSH22 0x4F444D77494449774E5334774D6A63734D54517A4C6A 0x4D PUSH24 0x4F5341794D4451754E7A63314C4445304E5334334E446B67 0x4D PUSH11 0x41314C6A45304E79424E4D PUSH27 0x63774C6A67774D4341794D5445754E54513149454D674D7A63774C PUSH11 0x67774D4341794D5449754E PUSH27 0x49784C444D334D5334314D544D674D6A45304C6A51774D43777A4E PUSH27 0x49754D44457A494449784E4334304D4441675179417A4E7A49754E PUSH27 0x6B78494449784E4334304D4441734D7A63794C6A49354F5341794D SLOAD GASLIMIT PUSH22 0x4D4449324C444D334D5334314D4441674D6A45774C6A PUSH8 0x334E43424449444D CALLER 0x4D MSTORE8 CALLVALUE PUSH24 0x4D6A49674D6A45774C6A63344D79777A4E7A41754F444177 0x49 PREVRANDAO 0x49 PUSH25 0x4D4334354F5459734D7A63774C6A67774D4341794D5445754E SLOAD MLOAD BALANCE 0x49 GASLIMIT ADDRESS PUSH26 0x4D5455754E544578494449784D7934354D444167517941794D54 PUSH4 0x754D4463 PUSH27 0x494449784E4334354D446B734D6A45344C6A45304F5341794D5459 PUSH22 0x4D6A41324C4449794D4334794E444D674D6A45354C6A MSIZE PUSH24 0x4D434244494449794D5334794E6A45674D6A49784C6A4931 0x4D NUMBER PUSH24 0x794D6A49754E444D32494449794D7934774F5449734D6A49 PUSH26 0x4C6A67314E4341794D6A4D754E6A6B7A49454D674D6A497A4C6A MSIZE BALANCE 0x4E MSTORE8 COINBASE PUSH26 0x4D6A51754F4451324C44497A4D6934774D4441674D6A51784C6A 0x4D PUSH25 0x4D7977794D7A49754D444177494449304D5334334E44456751 PUSH26 0x41794D7A49754D444177494449304D5334344E7A67734D6A4D7A 0x4C PUSH11 0x45304E6941794E4451754D PUSH27 0x63344C44497A4E4334314E4459674D6A51334C6A49354E53424449 PREVRANDAO 0x49 PUSH27 0x4E5334354E4459674D6A55774C6A49784D7977794D7A63754D7A59 CALLDATALOAD 0x49 PREVRANDAO 0x49 BALANCE 0x4D PUSH26 0x347A4D6A41734D6A4D334C6A63774E6941794E5451754D6A4177 0x49 GASLIMIT 0x4D PUSH8 0x4D6A4D344C6A4130 0x4E NUMBER COINBASE PUSH26 0x4E5455754D4467774C44497A4F5334784D7A49674D6A55334C6A PUSH4 0x344D4377 PUSH26 0x4E4441754D54497A494449324D4334794D444167517941794E44 0x49 PUSH22 0x4E446778494449324E5334354E5467734D6A51794C6A MLOAD ORIGIN 0x4D MSTORE8 COINBASE PUSH26 0x4E6A55754F4467784C4449304D5334334E7A45674D6A59324C6A SSTORE CALLER 0x4D MSTORE8 TIMESTAMP PREVRANDAO 0x49 PREVRANDAO 0x49 ADDRESS 0x4D NUMBER CALLVALUE CALLER 0x4F PREVRANDAO PUSH8 0x674D6A59334C6A55 BALANCE 0x4E MSTORE8 PUSH24 0x794E4441754D444130494449324E6934344E4455734D6A4D CALLVALUE 0x4C PUSH11 0x557A4F5341794E6A4D754E PUSH11 0x513049454D674D6A4D334C PUSH11 0x63334D6941794E6A45754F SLOAD PUSH4 0x774C4449 PUSH27 0x4E6934314D6A67674D6A55354C6A4D774D7977794D7A55754E7A63 PUSH27 0x494449314E7934334D546B67517941794D7A55754D444534494449 BALANCE 0x4E PUSH10 0x34784D7A51734D6A4D30 0x4C PUSH11 0x4D354F5341794E5451754E PUSH11 0x6B304C44497A4E43347A4F SLOAD PUSH4 0x674D6A55 ADDRESS 0x4C PUSH11 0x55784F5342444944497A4E NUMBER CALLVALUE PUSH27 0x4F5449674D6A55304C6A41784F5377794D6A51754E446778494449 PUSH27 0x4E4334304D5445734D6A497A4C6A49784E7941794D7A49754E4441 PUSH24 0x49454D674D6A49794C6A55354E5341794D7A45754E444577 0x4C PREVRANDAO 0x49 PUSH26 0x4D5334354E5455674D6A4D774C6A45324E4377794D6A45754E7A PUSH12 0x30494449794F5334324D7A49 PUSH8 0x517941794D6A4575 0x4D PUSH27 0x6B32494449794F43347A4D5441734D6A45314C6A517A4D5341794D SLOAD PUSH4 0x754F546B PUSH27 0x4C4449784E4334304F5441674D6A45334C6A41774D434244494449 PUSH25 0x4D5334324D7A63674D6A457A4C6A6B344F4377794D5449754D PUSH27 0x5178494449784D5334344E5445734D6A45314C6A55784D5341794D SLOAD 0x4D PUSH22 0x4F544177494530794E6A67754D6A4177494449784F43 CALLVALUE CALLDATALOAD 0x4E PUSH27 0x5167517941794E6A67754D6A4177494449794D4334774E4449734D PUSH11 0x59334C6A6B7A4E7941794D PUSH11 0x41754D6A55324C4449324E MSTORE8 CALLVALUE PUSH24 0x4D4441674D6A49784C6A55334E534244494449324D793479 0x4E PREVRANDAO COINBASE PUSH8 0x4D6A49794C6A4D32 0x4E PUSH10 0x77794E6A45754D444535 0x49 PREVRANDAO 0x49 PUSH26 0x4D7934314E4441734D6A59774C6A41324E5341794D6A51754D54 PUSH8 0x7A49454D674D6A55 CALLVALUE 0x4C PUSH11 0x63774D7941794D6A55754D SLOAD COINBASE PUSH25 0x4C4449314F4334784F4467674D6A49314C6A49314F5377794E SLOAD PUSH4 0x754E6A59 BALANCE 0x49 PREVRANDAO 0x49 PUSH26 0x4E4334354D6A4567517941794E5455754E7A6779494449794D79 CALLVALUE CALLER 0x4D PREVRANDAO COINBASE PUSH20 0x4D6A55344C6A6B7A4E4341794D6A41754E545979 0x4C PREVRANDAO 0x49 ORIGIN 0x4D PUSH26 0x34344D4455674D6A45344C6A67774E694244494449324E793432 0x4E PUSH11 0x63674D6A45334C6A51784E MSTORE8 PUSH24 0x794E6A67754D6A4177494449784E7934304D7A55734D6A59 CALLVALUE 0x4C PUSH11 0x49774D4341794D5467754F SLOAD PUSH4 0x30494530 PUSH25 0x4F4459754D444177494449794E6934774D6A5167517941784F PREVRANDAO MSIZE PUSH22 0x4F546B77494449794E6934794E6A45734D5467344C6A 0x49 BALANCE 0x4D NUMBER COINBASE PUSH26 0x4D6A59754E5455784C4445344F4334344D4441674D6A49324C6A MSIZE ORIGIN 0x4F NUMBER TIMESTAMP PREVRANDAO 0x49 PREVRANDAO GASLIMIT CALLDATALOAD 0x4D PUSH10 0x34334D5449674D6A4933 0x4C PUSH11 0x55774D6977794D4455754D SLOAD SSTORE CALLVALUE 0x49 PREVRANDAO 0x49 PUSH27 0x4D6934784D4467734D6A457A4C6A4D794F4341794D7A55754E7A51 ADDRESS 0x49 GASLIMIT 0x4D PUSH8 0x4D6A45314C6A517A 0x4E PUSH26 0x41794D7A59754E6A677A4C4449784E5334324E444D674D6A4D32 0x4C PUSH11 0x67344E4377794D5455754E SLOAD 0x49 CALLVALUE 0x49 PREVRANDAO 0x49 PUSH27 0x4E7934344F544167517941794D5455754D7A49774944497A4F5334 ORIGIN 0x4F SLOAD PUSH8 0x734D6A45304C6A41 CALLER 0x4D PUSH10 0x41794D7A6B754E44677A 0x4C PREVRANDAO 0x49 PUSH24 0x4E5334324E546B674D6A4D324C6A45354D79424449444535 0x4E NUMBER CALLVALUE PUSH26 0x4E7A49674D6A4D784C6A637A4F5377784F446B754E6A6B784944 0x49 PUSH27 0x4D4334784E7A55734D5467314C6A49774D4341794D6A6B754D6A41 BALANCE 0x49 GASLIMIT 0x4D PUSH8 0x4D5467784C6A6335 0x4D MSTORE8 COINBASE PUSH26 0x4D6A67754E4459354C4445344D5334324D6A6B674D6A49344C6A MLOAD PUSH24 0x4D5377784F4445754D545132494449794E7934314D444167 MLOAD PUSH26 0x41784F4441754E546334494449794E6934304D7A67734D546778 0x4C PUSH11 0x6B344E4341794D6A55754D PREVRANDAO PUSH12 0x7A4C4445344D79347A4E4445 PUSH8 0x4D6A49314C6A4D35 0x4F MSTORE8 TIMESTAMP PREVRANDAO 0x49 PREVRANDAO GASLIMIT CALLVALUE 0x4D PUSH26 0x34344D544D674D6A49314C6A55774E6977784F4455754D444577 0x49 PREVRANDAO 0x49 PUSH26 0x4E5334334F4463734D5467324C6A41774D4341794D6A59754D44 0x49 ADDRESS 0x49 GASLIMIT ADDRESS PUSH26 0x4E6A67754D7A4978494449794F4334354D7A5167517941794E6A PUSH8 0x754D546733494449 PUSH26 0x4F5334344E5467734D6A59314C6A51774D5341794D7A45754F54 MSIZE ORIGIN 0x4C PREVRANDAO 0x49 ORIGIN 0x4E NUMBER CALLVALUE PUSH26 0x4F4463674D6A4D784C6A6B344E794244494449324D6934794D44 PUSH8 0x674D6A4D794C6A41 PUSH26 0x4E5377794E6A4D754D7A4530494449794F5334794D5467734D6A MSIZE BALANCE 0x4C PUSH11 0x63794F5341794D6A67754D PUSH27 0x493549454D674D6A59334C6A59354F5341794D6A63754E6A41304C PREVRANDAO 0x49 ORIGIN 0x4F NUMBER CALLVALUE ADDRESS 0x4F PREVRANDAO PUSH8 0x674D6A49334C6A63 CALLVALUE 0x4F NUMBER PUSH24 0x794E6A67754D7A4978494449794F4334354D7A5167545449 PUSH24 0x4E4334304E7A55674D6A4D324C6A67784F53424449444977 0x4E MSTORE8 CALLVALUE PUSH26 0x4D4451674D6A4D334C6A51354D4377794D4459754E5459324944 0x49 PUSH27 0x4F4334314D6A55734D6A41334C6A55774D7941794D7A6B754D5445 CALLDATALOAD 0x49 GASLIMIT 0x4D PUSH8 0x4D6A45784C6A6B35 0x4D PUSH26 0x41794E4445754F5459354C4449774F5334304D5451674D6A517A 0x4C PUSH11 0x51344E6977794D4451754E PUSH11 0x4177494449304D4334344D PUSH11 0x6367517941794D4445754D PREVRANDAO MLOAD PUSH24 0x4944497A4F4334344E6A45734D6A41774C6A4D314E794179 0x4D PUSH27 0x63754E7A59314C4449774D5334354D4449674D6A4D324C6A55774D PUSH10 0x4244494449774D793479 0x4D PUSH27 0x51674D6A4D314C6A51784D6977794D4449754F5441794944497A4E MSTORE8 CALLVALUE PUSH27 0x4E7A45734D6A41304C6A51334E5341794D7A59754F444535494530 PUSH27 0x4F4334344D4459674D6A55784C6A41774E79424449444D354C6A67 ORIGIN 0x4E PUSH10 0x41794E5449754D6A6730 0x4C PREVRANDAO 0x4D CALLVALUE 0x4C PUSH11 0x63794D7941794E5463754D PUSH11 0x4D334C444D334C6A497A4F NUMBER COINBASE PUSH26 0x4E5463754F44413349454D674D7A59754D444178494449314F43 CALLVALUE PUSH26 0x4F4449734D7A55754E544577494449314E7934774E446B734D7A SSTORE PUSH22 0x4F444579494449314E4334794D6A67675179417A4E69 CALLVALUE PUSH25 0x4E7A67674D6A55774C6A67774E53777A4E7934304E7A67674D PUSH11 0x51354C6A51774E79777A4F NUMBER CALLVALUE CALLVALUE 0x4D PREVRANDAO MSIZE PUSH8 0x4D6A55784C6A4177 0x4E PUSH26 0x424E4D7A4D754E544932494449314F43347A4E5451675179417A 0x4E NUMBER CALLVALUE BALANCE 0x4E SLOAD PUSH4 0x674D6A59 PUSH24 0x4C6A45344F43777A4E4334324D7A51674D6A59784C6A457A 0x4E MSTORE8 PUSH24 0x7A4D7934334F4441674D6A59784C6A51324D79424449444D PUSH26 0x4C6A4D324F4341794E6A49754D4441314C444D774C6A497A4D69 COINBASE PUSH26 0x4E5467754E5459334C444D784C6A497A4D6941794E5463754D7A MSIZE PUSH26 0x49454D674D7A45754F546B7A494449314E6934304E4455734D7A 0x49 PUSH22 0x4E6A4178494449314E6934334D4467734D7A4D754E54 0x49 ORIGIN 0x49 PREVRANDAO 0x49 BALANCE 0x4F NUMBER CALLVALUE PUSH27 0x4E545167545449794D5334314F5441674D6A59304C6A41794D5342 PREVRANDAO 0x49 PREVRANDAO 0x49 PUSH26 0x4D7934304D4459674D6A59304C6A51334D7977794D6A55754E54 MLOAD BALANCE 0x49 PREVRANDAO 0x49 ORIGIN 0x4E MSTORE8 CALLVALUE PUSH24 0x4F4451734D6A49324C6A4D304E5341794E6A55754D7A6335 0x49 GASLIMIT 0x4D PUSH8 0x4D6A49334C6A4530 0x4E MSTORE8 COINBASE PUSH26 0x4E6A55754E6A63304C4449794F4334344F4441674D6A59324C6A 0x49 PUSH27 0x4D6977794D7A41754D6A4177494449324E6934324D6A4167517941 PUSH26 0x4D7A51754F545131494449324F4334774D5451734D6A4D344C6A 0x4D CALLER 0x4D PUSH10 0x41794E6A6B754F444979 0x4C PREVRANDAO 0x49 PUSH27 0x4F4334784D5459674D6A63774C6A63354F4342444944497A4E7934 CALLVALUE 0x4D SLOAD PUSH8 0x674D6A63784C6A6B ADDRESS 0x4D NUMBER PUSH24 0x794D7A59754F546731494449334D6934794D6A45734D6A4D BALANCE 0x4C PUSH11 0x51314D4341794E7A45754E PUSH27 0x417749454D674D6A4D304C6A63324D6941794E7A45754E4459324C PREVRANDAO 0x49 PUSH27 0x4D6934344E5441674D6A63774C6A67344E6977794D7A45754D6A41 PUSH24 0x494449334D4334304D446B67517941794D6A6B754E545577 0x49 PREVRANDAO 0x49 ORIGIN 0x4F MSTORE8 CALLVALUE CALLDATALOAD 0x4D PUSH27 0x4D734D6A49334C6A67304D4341794E6A6B754D7A677A4C4449794E PUSH26 0x34304D4441674D6A59354C6A45344E694244494449794E53347A 0x4F SLOAD 0x4D PUSH8 0x4D6A59344C6A4934 0x4F NUMBER PUSH24 0x794D6A45754D6A4D32494449324E6934354D6A67734D6A45 CALLER 0x4C PUSH11 0x63774D4341794E6A59754D PREVRANDAO GASLIMIT PUSH24 0x49454D674D6A45314C6A6B304D6941794E6A55754E545530 0x4C PREVRANDAO 0x49 PUSH25 0x4E5334304F444D674D6A59304C6A59334E7977794D5459754E PREVRANDAO PUSH8 0x77494449324D7934 ORIGIN 0x4F PREVRANDAO COINBASE PUSH8 0x517941794D546375 0x4D SLOAD 0x4D PUSH27 0x494449324D7934774D6A63734D6A45334C6A63324E4341794E6A4D PUSH22 0x4D4459354C4449794D5334314F5441674D6A59304C6A COINBASE PUSH26 0x4D53424E4D6A55304C6A4D354E6941794E6A51754E546B314945 0x4D PUSH8 0x4D6A55314C6A4579 0x4F MSTORE8 COINBASE PUSH26 0x4E6A55754E4463344C4449314E4334314E6A67674D6A59334C6A COINBASE PUSH26 0x4E6977794E544D754D545578494449324F4334774D7A55675179 COINBASE PUSH26 0x4E5445754F545132494449324F4334344F544D734D6A55774C6A PUSH4 0x334F5341 PUSH26 0x4E7A41754D4459354C4449304F4334324D6A45674D6A63794C6A MSIZE PUSH24 0x4D434244494449304E7934324D6A59674D6A637A4C6A6332 0x4E PUSH26 0x77794E4463754E546779494449334D7934334E7A6B734D6A5132 0x4C PUSH11 0x6B354F5341794E7A4D754D PREVRANDAO 0x49 ADDRESS 0x49 GASLIMIT 0x4D PUSH8 0x4D6A51314C6A6733 0x4E MSTORE8 COINBASE PUSH26 0x4E7A45754E5459334C4449304E69347A4E5455674D6A63774C6A PUSH4 0x784E6977 PUSH26 0x4E5445754E445933494449324E5334784D444167517941794E54 0x49 PUSH22 0x4E546335494449324D7934344E7A67734D6A557A4C6A MSIZE ADDRESS 0x4F NUMBER COINBASE PUSH26 0x4E6A4D754E6A6B304C4449314E43347A4F5459674D6A59304C6A SSTORE CALLDATALOAD 0x4E MSTORE8 TIMESTAMP 0x4E 0x4D PUSH11 0x49334C6A41774D4341794E PUSH27 0x49754F44417749454D674D6A49334C6A457A4E6941794E7A4D754D PREVRANDAO 0x49 PUSH24 0x4C4449794E7934334D7A49674D6A637A4C6A49774E697779 0x4D PUSH11 0x67754D7A4930494449334D PUSH26 0x34794D544967517941794D7A41754E544D31494449334D793479 0x4D PUSH27 0x67734D6A4D324C6A6B344E7941794E7A59754D544D794C44497A4E PUSH26 0x34784D7A55674D6A63334C6A45324E5342444944497A4E793430 0x4D PUSH27 0x45674D6A63354C6A497A4E5377794D7A55754E544933494449334F MSTORE8 CALLVALUE PUSH25 0x4D7A63734D6A49354C6A49774D4341794E7A59754E7A553149 GASLIMIT 0x4D PUSH8 0x4D6A497A4C6A4D30 0x4D NUMBER COINBASE PUSH26 0x4E7A51754E5451344C4449794D7934794D4441674D6A63304C6A MLOAD CALLVALUE 0x4D MSTORE8 PUSH24 0x794D6A4D754D6A4177494449334D7934344F446B67517941 PUSH26 0x4D6A4D754D6A4177494449334D6934324D5451734D6A49324C6A 0x4D PUSH27 0x4D5341794E7A45754E7A45334C4449794E7934774D4441674D6A63 PUSH26 0x4C6A67774D43424E4D6A55324C6A45314F4341794E7A59754D54 COINBASE PUSH24 0x49454D674D6A55324C6A6B314E4341794E7A63754D7A6379 0x4C PREVRANDAO 0x49 BALANCE 0x4E MSTORE8 CALLVALUE CALLDATALOAD 0x4E PUSH27 0x63674D6A63344C6A45324E7977794E544D754D546734494449334F NUMBER CALLVALUE BALANCE 0x4D SLOAD PUSH4 0x67517941 PUSH26 0x4E5441754D544530494449334F4334354D4449734D6A51344C6A PUSH12 0x774D7941794E7A67754D6A4D PUSH27 0x4C4449314D4334784E6A41674D6A63324C6A67304E434244494449 BALANCE 0x4D MSTORE8 CALLVALUE BALANCE 0x4E PREVRANDAO PUSH12 0x674D6A63314C6A4D784D4377 PUSH26 0x4E5455754D7A5932494449334E4334344D7A59734D6A55324C6A GASLIMIT BALANCE 0x4F NUMBER COINBASE PUSH26 0x4E7A59754D544177494530794E4467754E6A4132494449354D43 CALLVALUE ORIGIN 0x4E PUSH11 0x5567517941794E446B754E SLOAD COINBASE ORIGIN 0x49 PREVRANDAO 0x49 CALLDATALOAD 0x4D PUSH10 0x34774D7A6B734D6A5578 0x4C PUSH11 0x55334F4341794F546B754F SLOAD PUSH8 0x304C4449314D7934 PUSH25 0x4E7A67674D7A41344C6A49774D434244494449314D7934314E PUSH11 0x51674D7A45774C6A45344D NUMBER PUSH24 0x794E5451754D7A633549444D784D7934354F544D734D6A55 ADDRESS 0x4C PUSH11 0x6B354D43417A4D5459754E PUSH11 0x637949454D674D6A55324C PUSH11 0x45774E69417A4D6A45754E SLOAD MSIZE ORIGIN 0x4C PREVRANDAO 0x49 BALANCE 0x4E PUSH10 0x34784D5455674D7A497A 0x4C PUSH11 0x59774D4377794E5455754D PREVRANDAO 0x49 PUSH25 0x49444D794D7934324D444167517941794E544D754F44593549 PREVRANDAO 0x4D PUSH26 0x4D7934324D4441734D6A557A4C6A4D7A4F53417A4D6A49754D7A PUSH4 0x304C4449 BALANCE 0x4D PUSH10 0x34774E6A59674D7A4532 0x4C PUSH11 0x63314E794244494449314D MSTORE8 CALLVALUE PUSH27 0x4E4467674D7A457A4C6A55354D5377794E5441754D6A4D3349444D PUSH24 0x4F5334774D6A41734D6A51354C6A55354E79417A4D445975 0x4E PUSH11 0x417749454D674D6A51344C PUSH11 0x6B314E69417A4D4451754D SLOAD PUSH8 0x774C4449304F4334 PUSH24 0x4E4451674D7A41774C6A55344D4377794E4463754E545935 0x49 PREVRANDAO 0x49 CALLDATALOAD 0x4F NUMBER CALLVALUE ORIGIN 0x4D PREVRANDAO COINBASE PUSH8 0x517941794E446375 0x4D PREVRANDAO PUSH12 0x30494449354E6934324D6A41 PUSH20 0x4D6A51324C6A51314E7941794F5451754E444D7A 0x4C PREVRANDAO 0x49 ADDRESS 0x4E PUSH10 0x34784E544D674D6A6B7A 0x4C PUSH11 0x63304D434244494449304E NUMBER CALLVALUE ORIGIN 0x4E PUSH27 0x63674D6A6B774C6A4D334E4377794E4459754E7A4D77494449344E PUSH26 0x34344D4449734D6A51344C6A59774E6941794F5441754E6A5931 0x49 GASLIMIT ADDRESS PUSH27 0x4F5467754E6A677749444D774F43347A4D5451675179417A4F5467 PUSH22 0x4D44593049444D774F4334354E5467734D7A6B324C6A PUSH8 0x354E43417A4D446B PUSH22 0x4E6A6B794C444D354E6934774F4441674D7A41354C6A PUSH12 0x304E43424449444D354E5334 PUSH25 0x4E5445674D7A45774C6A497A4D79777A4F5451754D6A493449 PREVRANDAO 0x4D PUSH25 0x4D4334354D7A51734D7A6B7A4C6A59774D43417A4D5445754F PREVRANDAO 0x49 CALLVALUE 0x49 GASLIMIT 0x4D PUSH8 0x4D7A6B7A4C6A4131 0x4D NUMBER COINBASE PUSH27 0x4D5449754E6A45784C444D354D5334344E7A51674D7A45304C6A45 PUSH26 0x4F53777A4F5441754F54673349444D784E5334794D4441675179 COINBASE PUSH27 0x4F4449754E44557849444D794E5334314D446B734D7A67324C6A41 CALLVALUE 0x4D PUSH26 0x417A4D7A4D754D5445334C444D354E5334334E6A45674D7A4931 0x4C PUSH11 0x49774D43424449444D354F NUMBER CALLVALUE PUSH27 0x4E7A45674D7A497A4C6A41324E43777A4F5467754E54453549444D PUSH26 0x4D6934304F5445734D7A6B324C6A55774D43417A4D6A49754D7A 0x49 ADDRESS 0x49 GASLIMIT 0x4D PUSH8 0x4D7A6B314C6A4134 0x4D MSTORE8 COINBASE PUSH27 0x4D6A49754D6A41334C444D354E4334354F544D674D7A49794C6A45 PUSH25 0x4F53777A4F5451754F44633249444D794D4334324F54636751 PUSH26 0x417A4F5451754E7A513349444D784F5334784D7A6B734D7A6B30 0x4C PUSH11 0x63354F43417A4D546B754D PREVRANDAO PUSH8 0x324C444D354E6934 CALLDATALOAD 0x4D PREVRANDAO COINBASE PUSH8 0x4D7A45344C6A5979 0x4E PUSH10 0x424449444D354E793434 0x4F SLOAD PUSH4 0x674D7A45 CALLVALUE 0x4C PUSH11 0x51774E79777A4F5467754D PREVRANDAO COINBASE PUSH24 0x49444D784F4334794D6A41734D7A6B344C6A41774D43417A 0x4D SLOAD MSIZE PUSH22 0x4E6A493249454D674D7A6B344C6A41774D43417A4D54 SSTORE PUSH22 0x4D6A41794C444D354F4334784F5451674D7A45304C6A PUSH4 0x794E5377 PUSH27 0x4F546B754D44453449444D784E4334784D6A55675179417A4F546B PUSH22 0x4F54677749444D784D7934304D6A51734E4441774C6A COINBASE PUSH27 0x4D43417A4D544D754D6A45774C444D354F5334354D5467674D7A45 PUSH24 0x4C6A49324D79424D49444D354F5334344D4441674D7A4133 0x4C PUSH11 0x45304D79417A4F5467754E PUSH11 0x677749444D774F43347A4D SLOAD MLOAD PUSH8 0x5454497A4E533477 0x4E SLOAD PUSH4 0x674D7A45 PUSH26 0x4C6A51794D5342444944497A4E5334324E6A59674D7A45794C6A MSIZE BALANCE 0x4D PUSH26 0x77794D7A63754F44677A49444D784D7934794F5467734D6A4D35 0x4C PUSH11 0x6B344D79417A4D544D754F PREVRANDAO SSTORE ADDRESS 0x49 GASLIMIT 0x4D PUSH8 0x4D6A51304C6A4D79 0x4F NUMBER COINBASE PUSH27 0x4D5455754D4441314C4449304E6934784E5449674D7A45324C6A49 PUSH24 0x4E6977794E4451754F54497849444D784E7934784D446767 MLOAD PUSH26 0x41794E4451754D444D3149444D784E7934334E5459734D6A5179 0x4C PUSH11 0x497A4F43417A4D5463754E SLOAD GASLIMIT PUSH27 0x4C44497A4E7934324D4441674D7A45324C6A45784E694244494449 PUSH27 0x4E5334334D7A41674D7A45314C6A55314D7977794D7A4D754D6A45 PUSH26 0x49444D784E4334354F4449734D6A4D794C6A41774E53417A4D54 MLOAD PUSH22 0x4F44513249454D674D6A49354C6A63324E69417A4D54 MLOAD PUSH22 0x4E546B314C4449794F5334784F546B674D7A45304C6A COINBASE PUSH26 0x4D7977794D6A6B754E7A553049444D784D6934314E7A63675179 COINBASE PUSH26 0x4D7A41754D44497749444D784D5334344F4449734D6A4D7A4C6A 0x4D CALLER 0x4F NUMBER COINBASE PUSH27 0x4D5445754E7A677A4C44497A4E5334774E5463674D7A45794C6A51 PUSH26 0x4D53424E4D6A51314C6A41774D43417A4D6A51754E544D774945 0x4D PUSH8 0x4D6A51354C6A4934 0x4E PUSH26 0x417A4D6A55754E7A67794C4449314D5334784D6A59674D7A4932 0x4C PUSH11 0x6B334D7977794E5441754E PUSH11 0x553349444D794F4334784F SLOAD SSTORE PUSH8 0x517941794E544175 0x4D SLOAD MLOAD CALLDATALOAD 0x49 PREVRANDAO 0x4D PUSH26 0x4F5334314D6A41734D6A51784C6A63774E69417A4D6A63754D7A PUSH12 0x774C4449304D4334324E4449 PUSH8 0x4D7A49314C6A5932 0x4F NUMBER TIMESTAMP PREVRANDAO 0x49 PREVRANDAO 0x49 ADDRESS 0x4D NUMBER CALLVALUE PUSH26 0x4E7A55674D7A49314C6A41334E5377794E4445754E6A55784944 0x4D PUSH26 0x4D7934314D5467734D6A51794C6A4D304E79417A4D6A4D754E7A 0x4D CALLDATALOAD 0x49 GASLIMIT 0x4D PUSH8 0x4D6A51794C6A6377 0x4E PUSH10 0x417A4D6A4D754F44557A 0x4C PREVRANDAO 0x49 ADDRESS 0x4D PUSH26 0x34354D4441674D7A49304C6A49774F5377794E4455754D444177 0x49 PREVRANDAO 0x4D PUSH26 0x4E4334314D7A4167545449324E4334324D7A4D674D7A49304C6A MLOAD PUSH27 0x4E694244494449324E53347A4E7A55674D7A49314C6A49314E7977 PUSH26 0x4E6A55754D7A633149444D794E5334794F444D734D6A59304C6A MSIZE PUSH25 0x4F43417A4D6A55754F444D3249454D674D6A59794C6A67314D PUSH26 0x417A4D6A63754D5449334C4449324D43347A4D5459674D7A4932 0x4C PUSH11 0x41324F5377794E6A45754E PREVRANDAO GASLIMIT BALANCE 0x49 PREVRANDAO 0x4D PUSH26 0x4E4334314D444167517941794E6A49754D6A413149444D794D79 CALLVALUE PUSH27 0x4E7A49734D6A597A4C6A59304E43417A4D6A4D754D7A517A4C4449 ORIGIN 0x4E NUMBER CALLVALUE ORIGIN 0x4D PUSH27 0x4D674D7A49304C6A517A4E69424E4D7A6B334C6A49774D43417A4D PUSH11 0x6B754F54513249454D674D PUSH27 0x6B334C6A49774D43417A4D7A41754D7A51334C444D354D7934324D PUSH27 0x55674D7A4D7A4C6A49774D43777A4F544D754D544D3049444D7A4D PUSH26 0x34794D4441675179417A4F5449754F54557749444D7A4D793479 0x4D PREVRANDAO COINBASE PUSH20 0x4D7A6B794C6A67774D43417A4D7A4D754D444977 0x4C PREVRANDAO 0x4D CALLDATALOAD 0x4D PUSH10 0x34344D4441674D7A4D79 0x4C PUSH11 0x67774D43424449444D354D PUSH10 0x34344D4441674D7A4D79 0x4C PUSH11 0x55344D43777A4F5449754F SLOAD MLOAD CALLER 0x49 PREVRANDAO 0x4D PUSH27 0x4D6934304D4441734D7A6B7A4C6A45794E79417A4D7A49754E4441 PUSH24 0x49454D674D7A6B7A4C6A4D774E79417A4D7A49754E444177 0x4C PREVRANDAO 0x4D CALLDATALOAD 0x4E NUMBER CALLVALUE PUSH25 0x4E6A49674D7A4D784C6A63334D43777A4F5455754D44493349 PREVRANDAO 0x4D PUSH27 0x4D5334774D4441675179417A4F5459754E6A413549444D794F5334 BALANCE 0x4F SLOAD 0x49 PUSH20 0x4D7A6B334C6A49774D43417A4D6A6B754D7A4132 0x4C PREVRANDAO 0x4D CALLDATALOAD 0x4E PUSH26 0x34794D4441674D7A49354C6A6B304E69424E4D7A6B344C6A597A 0x4D PUSH10 0x417A4D7A4D754F545135 0x49 GASLIMIT 0x4D PUSH8 0x4D7A6B344C6A5578 0x4D PUSH26 0x417A4D7A51754D5451784C444D354E7934794E4449674D7A4D31 0x4C PUSH11 0x41334E53777A4F5455754F PREVRANDAO COINBASE CALLVALUE 0x49 PREVRANDAO 0x4D PUSH27 0x4E6934774D6A55675179417A4F5449754F44637849444D7A4E7934 CALLDATALOAD 0x4E PUSH27 0x41734D7A6B794C6A63784E69417A4D7A67754D7A49794C444D354E NUMBER CALLVALUE PUSH27 0x4E7A67674D7A4D354C6A49324F43424449444D354E5334354E7A63 PUSH8 0x4D7A51774C6A4533 0x4E PUSH26 0x777A4F5459754E446B7749444D304D6934794E7A55734D7A6B32 0x4C PUSH11 0x45354E69417A4E4459754E PUSH11 0x6B33494577674D7A6B314C PUSH11 0x6B324D69417A4E5441754D PUSH11 0x417749444D354E7934354E PUSH11 0x67674D7A55794C6A51774D NUMBER TIMESTAMP 0x4D 0x49 PREVRANDAO 0x4D CALLDATALOAD 0x4F MSTORE8 CALLVALUE CALLDATALOAD 0x4E PUSH27 0x55674D7A55304C6A59774D43417A4F546B754F54673349444D304E NUMBER CALLVALUE PUSH25 0x4D444167517941304D4441754D44417749444D7A4D7934334D SLOAD 0x4D PUSH20 0x4D7A6B354C6A63344D79417A4D7A49754D446732 0x4C PREVRANDAO 0x4D CALLDATALOAD 0x4F NUMBER CALLVALUE ORIGIN 0x4D PUSH27 0x49674D7A4D7A4C6A6B304F53424E4D6A55314C6A67774E79417A4D PUSH27 0x59754F44497849454D674D6A55324C6A51774E53417A4D7A67754E PUSH27 0x41314C4449314D4334344D6A6B674D7A51314C6A4D314D6977794E PREVRANDAO PUSH8 0x754F44513049444D ADDRESS 0x4E MSTORE8 CALLVALUE PUSH25 0x4D6A4567517941794E4459754E546B7849444D304E4334344E PUSH11 0x41734D6A51334C6A49774E NUMBER COINBASE PUSH27 0x4E444D754D5459334C4449314D4334354D5449674D7A4D354C6A51 PUSH24 0x4F534244494449314E43347A4E6A4D674D7A4D314C6A6B78 0x4D MSTORE8 PUSH24 0x794E5455754D7A557949444D7A4E53347A4F4467734D6A55 BALANCE 0x4C PUSH11 0x67774E79417A4D7A59754F PREVRANDAO 0x49 PUSH25 0x4945307A4F5459754D44417749444D7A4E7934324D44416751 PUSH26 0x417A4F5459754D44417749444D7A4E7934344D6A41734D7A6B31 0x4C PUSH11 0x55354E53417A4D7A63754F SLOAD PUSH12 0x334C444D354E5334784D4441 PUSH8 0x4D7A4D334C6A6B35 0x4E NUMBER TIMESTAMP PREVRANDAO 0x49 PREVRANDAO 0x4D CALLDATALOAD 0x4E NUMBER CALLVALUE PUSH27 0x4E7A49674D7A4D334C6A6B344F53777A4F5451754D7A453149444D PUSH27 0x4E7934354D5451734D7A6B304C6A67774D43417A4D7A63754E6A41 PUSH24 0x49454D674D7A6B314C6A55334E69417A4D7A63754D446B35 0x4C PREVRANDAO 0x4D CALLDATALOAD 0x4E PUSH10 0x34774D4441674D7A4D33 0x4C PUSH11 0x41354F53777A4F5459754D PREVRANDAO COINBASE PUSH24 0x49444D7A4E7934324D44416754544D344E6934334D444167 0x4D PUSH27 0x4D334C6A67334E69424449444D344E69347A4D5455674D7A4D334C PUSH11 0x6B334E69777A4F4455754E PUSH11 0x673149444D7A4E7934354E PUSH27 0x59734D7A67314C6A4D774D43417A4D7A63754F44633249454D674D PUSH27 0x67304C6A6B784E53417A4D7A63754E7A63314C444D344E5334794D PUSH27 0x41674D7A4D334C6A59354D79777A4F4459754D44417749444D7A4E PUSH26 0x34324F544D675179417A4F4459754E7A637749444D7A4E793432 0x4F SLOAD 0x4D PUSH20 0x4D7A67334C6A41344E53417A4D7A63754E7A6331 0x4C PREVRANDAO 0x4D CALLVALUE 0x4E PUSH10 0x34334D4441674D7A4D33 0x4C PUSH11 0x67334E69424E4D6A55354C PUSH11 0x45794D43417A4D7A67754F PREVRANDAO PUSH8 0x7749454D674D6A55 CALLDATALOAD 0x4C PUSH11 0x67794D43417A4D7A6B754E SLOAD PUSH8 0x774C4449314F5334 CALLER 0x4D PUSH11 0x41674D7A51794C6A59794D PUSH26 0x77794E5467754F54637849444D304D79347A4E7A456751794179 0x4E SLOAD PUSH4 0x754E6A55 CALLER 0x49 PREVRANDAO 0x4D ADDRESS 0x4E NUMBER CALLVALUE ORIGIN 0x4F PREVRANDAO MSIZE PUSH20 0x4D6A55324C6A41774D43417A4E444D754F445979 0x4C PREVRANDAO 0x49 BALANCE 0x4E PUSH10 0x34774D4441674D7A5178 0x4C PUSH11 0x67354E434244494449314E PUSH10 0x34774D4441674D7A4D35 0x4C PUSH11 0x4D344E5377794E5463754F PREVRANDAO MLOAD ADDRESS 0x49 PREVRANDAO 0x4D PUSH27 0x4E7934324D4451734D6A55354C6A45794D43417A4D7A67754F4467 PUSH24 0x4945307A4F5441754F44557949444D7A4F53347A4D7A6367 MLOAD PUSH26 0x417A4F5441754E6A413349444D7A4F5334324D7A4D734D7A6735 0x4C PUSH11 0x4D7A4E69417A4E4441754E PREVRANDAO 0x4D ORIGIN 0x4C PREVRANDAO 0x4D CALLVALUE 0x4F NUMBER CALLVALUE PUSH24 0x4D6A63674D7A51784C6A45794D69424449444D344E693433 0x4D SLOAD PUSH8 0x674D7A51784C6A67 PUSH24 0x4F43777A4F4451754E7A677949444D304D7934774D7A4573 0x4D PUSH27 0x677A4C6A63794E43417A4E444D754F44517849454D674D7A67774C PUSH11 0x4D314D79417A4E4459754E PREVRANDAO 0x49 PUSH24 0x4C444D324E69347A4E4445674D7A55794C6A55334F53777A 0x4E PUSH11 0x45754D44417749444D314D PUSH26 0x34344D6A6B675179417A4E6A41754D7A517749444D314D793435 0x4F PREVRANDAO MLOAD PUSH20 0x4D7A55354C6A59794D43417A4E5451754D6A5178 0x4C PREVRANDAO 0x4D BALANCE 0x4F MSTORE8 CALLVALUE ADDRESS 0x4D PREVRANDAO COINBASE PUSH8 0x4D7A55304C6A5177 0x4D MSTORE8 TIMESTAMP PREVRANDAO 0x49 PREVRANDAO 0x4D BALANCE 0x4F MSTORE8 CALLVALUE PUSH25 0x4F4441674D7A55304C6A55324D69777A4E5467754E54557749 PREVRANDAO 0x4D BALANCE 0x4E NUMBER CALLVALUE CALLER 0x4F PREVRANDAO PUSH4 0x734D7A55 CALLVALUE 0x4C PUSH11 0x41774D43417A4E5451754F SLOAD COINBASE PUSH26 0x49454D674D7A55334C6A51314D43417A4E5455754D4445344C44 0x4D BALANCE 0x4E MSTORE8 CALLVALUE BALANCE 0x4E PUSH11 0x41674D7A55314C6A51354E PUSH26 0x777A4E544D754F44417749444D314E5334354E6A67675179417A 0x4E SLOAD 0x49 PUSH22 0x4D44517749444D314E6934304D7A6B734D7A51354C6A COINBASE CALLER 0x4D NUMBER COINBASE PUSH27 0x4E5463754D446B324C444D304E7934794D4441674D7A55334C6A51 PUSH26 0x4F43424449444D304E53347A4D7A41674D7A55334C6A63324D53 PUSH24 0x7A4E4449754D6A637749444D314F43347A4D4451734D7A51 PUSH24 0x4C6A51774D43417A4E5467754E6A4D3149454D674D7A4D31 0x4C PUSH11 0x55774D43417A4E546B754E SLOAD COINBASE ADDRESS 0x4C PREVRANDAO 0x4D PUSH26 0x4E53347A4F546B674D7A59774C6A4D304D53777A4D5459754E44 COINBASE PUSH24 0x49444D324D4334324D6A51675179417A4D4455754D444579 0x49 PREVRANDAO 0x4D ORIGIN 0x4D NUMBER CALLVALUE CALLDATALOAD 0x4F PREVRANDAO 0x49 PUSH20 0x4D7A41304C6A45344F43417A4E6A41754F545579 0x4C PREVRANDAO 0x49 CALLDATALOAD 0x4F MSTORE8 CALLVALUE CALLVALUE 0x4D PREVRANDAO COINBASE PUSH8 0x4D7A59774C6A4179 0x4E MSTORE8 TIMESTAMP PREVRANDAO 0x49 PREVRANDAO 0x49 CALLDATALOAD 0x4E PUSH26 0x34324D4441674D7A55354C6A55324D4377794F5451754E545979 0x49 PREVRANDAO 0x4D BALANCE 0x4F NUMBER CALLVALUE CALLDATALOAD 0x4F SLOAD GASLIMIT PUSH20 0x4D6A6B7A4C6A41304F43417A4E5467754E7A5979 0x49 GASLIMIT 0x4D PUSH8 0x4D6A6B784C6A557A 0x4E MSTORE8 COINBASE PUSH27 0x4E5467754E544D794C4449344F4334334F4463674D7A55334C6A6B PUSH24 0x4E7977794F4459754F54517949444D314E79347A4E7A4967 MLOAD PUSH26 0x41794F444D754E44633149444D314E69347A4E6A63734D6A6777 0x4C PUSH11 0x55314F53417A4E5459754D PREVRANDAO PUSH8 0x334C4449344D5334 PUSH24 0x4D4441674D7A55324C6A67774D434244494449344D533478 0x4D PUSH27 0x59674D7A55334C6A41794D4377794F4445754E546B7949444D314E PUSH26 0x34794D4441734D6A67794C6A41784D79417A4E5463754D6A4177 0x49 GASLIMIT 0x4D PUSH8 0x4D6A67304C6A6732 0x4E NUMBER COINBASE PUSH27 0x4E5463754D6A41774C4449354F4334344F4445674D7A59314C6A41 BALANCE 0x4F NUMBER PUSH24 0x7A4D4459754D44417749444D334D4334324E446767517941 PUSH27 0x4D5449754E44453449444D334E5334324F4463734D7A49314C6A55 CALLVALUE 0x4D PUSH26 0x417A4F5441754D6A6B304C444D7A4D4334794E6A59674D7A6B33 0x4C PUSH11 0x55334D53424D49444D7A4D MSTORE8 CALLVALUE CALLVALUE 0x4D PREVRANDAO COINBASE PUSH8 0x4D7A6B354C6A6B31 0x4E PUSH10 0x417A4E5463754F44457A 0x49 PREVRANDAO 0x4D CALLDATALOAD 0x4F MSTORE8 CALLVALUE CALLDATALOAD 0x4E PUSH27 0x67675443417A4F444D754F444931494451774D4334774D4441674D PUSH27 0x67304C6A49324E53417A4F5467754D7A417749454D674D7A67304C PUSH11 0x55774E69417A4F5463754D PUSH27 0x59314C444D344E4334354D7A4D674D7A6B314C6A63774D43777A4F PREVRANDAO SSTORE PUSH22 0x4D6A457A49444D354E4334324D4441675179417A4F44 SSTORE PUSH22 0x4E446B7949444D354D7934314D4441734D7A67314C6A PUSH4 0x344D4341 PUSH27 0x4F5441754D54677A4C444D344E5334344E5445674D7A67334C6A49 PUSH26 0x4F53424449444D344E5334354F446B674D7A67784C6A55794F53 PUSH24 0x7A4F4459754D44517A49444D344D53347A4E4449734D7A67 CALLER 0x4C PUSH11 0x59774D43417A4F4445754D SLOAD 0x4D ADDRESS 0x49 GASLIMIT 0x4D PUSH8 0x4D7A67344C6A6B35 0x4F MSTORE8 COINBASE PUSH27 0x4F4441754F5451334C444D344F4334324D4445674D7A63794C6A63 ADDRESS 0x4D NUMBER PUSH24 0x7A4F4463754D54413049444D334D4334344F545567517941 PUSH27 0x4F4459754E7A453249444D334D4334304D5467734D7A67304C6A41 PUSH24 0x4D43417A4E7A4D754F544D354C444D344E4334774D444167 0x4D PUSH27 0x63304C6A6B784F53424449444D344E4334774D4441674D7A63324C PUSH11 0x63774D69777A4E7A6B754E PUSH27 0x513349444D334F5334334E5449734D7A63344C6A55354E53417A4E PUSH27 0x67754E7A6B3249454D674D7A63334C6A63354E53417A4E7A67754D SLOAD 0x4D PUSH26 0x4C444D334E7934794F544D674D7A63344C6A55344D69777A4E7A MLOAD PUSH22 0x4F54413549444D344D6934774F5467675179417A4E7A 0x4D PUSH22 0x4F44553549444D344D7934324E4459734D7A63794C6A MSIZE PUSH25 0x4D53417A4F4455754E4463794C444D334D6934784D7A59674D PUSH27 0x67324C6A45314E69424449444D334D4334314E5459674D7A67344C PUSH11 0x517A4D69777A4E6A55754D PUSH27 0x6B3049444D354D7934314E6A4D734D7A597A4C6A63314E43417A4F SLOAD MLOAD PUSH22 0x4E44673449454D674D7A59794C6A67324E43417A4F54 MLOAD PUSH22 0x4F546B774C444D324D53347A4E7A49674D7A6B314C6A PUSH12 0x774E69777A4E6A41754E444D CALLDATALOAD 0x49 PREVRANDAO 0x4D CALLDATALOAD 0x4E PUSH10 0x34314D6A51675179417A 0x4E SLOAD PUSH8 0x754F44413049444D CALLDATALOAD 0x4E PUSH26 0x34324D4459734D7A55334C6A51774E53417A4F5463754F444D7A 0x4C PREVRANDAO 0x4D BALANCE 0x4E PUSH26 0x34314D4455674D7A6B334C6A41774D43424449444D314E793431 0x4D PUSH27 0x45674D7A6B324C6A63344D43777A4E5463754F44677949444D354E PUSH10 0x34314D5441734D7A5534 0x4C PUSH11 0x49344E53417A4F5459754E PREVRANDAO COINBASE PUSH24 0x49454D674D7A59774C6A55304D69417A4F5455754E7A6730 0x4C PREVRANDAO 0x4D ORIGIN 0x4E NUMBER CALLVALUE CALLER 0x4E PUSH27 0x49674D7A6B784C6A557A4D79777A4E6A6B754D6A4D3049444D344E MSTORE8 CALLVALUE PUSH27 0x4F5459675179417A4E7A41754F444D7A49444D344D7934784F5467 PUSH20 0x4D7A63794C6A67314D79417A4F4441754D445577 0x4C PREVRANDAO 0x4D CALLER 0x4D PUSH26 0x34334D6A4D674D7A63344C6A51774D43424449444D334E693479 0x4F SLOAD PUSH4 0x674D7A63 PUSH27 0x4C6A55794D53777A4E7A67754E44417749444D324F5334794F5451 PUSH20 0x4D7A63344C6A51774D43417A4E6A67754F546B34 0x49 GASLIMIT 0x4D PUSH8 0x4D7A63344C6A5177 0x4D NUMBER COINBASE PUSH27 0x4E6A67754F4451314C444D334F4334324E6A49674D7A59344C6A45 BALANCE 0x4E NUMBER PUSH24 0x7A4E7A67754F54677949444D324E7934304E6A4167517941 PUSH27 0x4F4445754D7A673449444D324D6934794E5445734D7A677A4C6A49 PUSH24 0x4D43417A4E5451754F4445314C444D344D7934794D444167 0x4D PUSH27 0x55774C6A45314D69424449444D344D7934794D4441674D7A51324C PUSH11 0x63334D79777A4F444D754E PUSH27 0x673449444D304E5334324E4455734D7A67314C6A45324E53417A4E PREVRANDAO MSIZE PUSH22 0x4D7A677849454D674D7A67334C6A41774F43417A4E44 PUSH4 0x754D7A59 CALLVALUE 0x4C PREVRANDAO 0x4D CALLVALUE 0x4E MSTORE8 CALLVALUE PUSH27 0x4D5451674D7A59794C6A55774D79777A4F4449754F44513049444D ORIGIN 0x4E PUSH26 0x34784D5463675179417A4F4449754E6A417749444D324E793431 0x4E PUSH27 0x51734D7A67794C6A51774D43417A4E6A67754D6A59774C444D344D PUSH10 0x34304D4441674D7A5934 0x4C PUSH11 0x59304D69424449444D344D PUSH10 0x34304D4441674D7A5935 0x4C PUSH11 0x41794E43777A4F4449754D SLOAD GASLIMIT ADDRESS 0x49 PREVRANDAO 0x4D ORIGIN 0x4F MSTORE8 CALLVALUE ORIGIN 0x4E SLOAD 0x4D PUSH20 0x4D7A67784C6A63324E53417A4E7A41754D444D35 0x49 GASLIMIT 0x4D PUSH8 0x4D7A67784C6A5178 0x4E PUSH10 0x417A4E7A41754E444931 0x4C PREVRANDAO 0x4D CALLVALUE 0x4D MSTORE8 CALLVALUE PUSH26 0x4D544D674D7A63784C6A41324F53777A4F4445754D7A45304944 0x4D CALLER 0x4D MSTORE8 CALLVALUE ADDRESS 0x4E PUSH27 0x41675179417A4F4445754E44553549444D334D6934774E4455734D PUSH27 0x67784C6A59784D69417A4E7A45754F5449314C444D344D6934774D PUSH27 0x63674D7A63774C6A6B774D43424449444D344D69347A4D7A4D674D PUSH27 0x63774C6A45344E53777A4F4449754E6A6B3149444D324F5334324D PREVRANDAO COINBASE PUSH20 0x4D7A67794C6A67304D69417A4E6A6B754E6A4177 0x49 GASLIMIT 0x4D PUSH8 0x4D7A677A4C6A4D79 0x4E MSTORE8 COINBASE PUSH27 0x4E6A6B754E6A41774C444D344E6934304D4441674D7A59304C6A41 CALLER 0x4F MSTORE8 PUSH24 0x7A4F4459754E44417749444D324D7934794D544567517941 PUSH27 0x4F4459754E44417749444D324D6934334E4451734D7A67324C6A67 PUSH25 0x4E43417A4E6A45754F5459314C444D344E79347A4D546B674D PUSH27 0x59784C6A51344D53424449444D344F4334794D544D674D7A59774C PUSH11 0x59794E53777A4F5441754D PREVRANDAO 0x49 ADDRESS 0x49 PREVRANDAO 0x4D BALANCE 0x4E PUSH10 0x34324F446B734D7A6B78 0x4C PUSH11 0x51784E79417A4E5449754E SLOAD PUSH4 0x3449454D PUSH8 0x4D7A6B794C6A4131 0x4D PUSH10 0x417A4E5441754E7A417A 0x4C PREVRANDAO 0x4D CALLDATALOAD 0x4D PUSH10 0x34774E5451674D7A5577 0x4C PUSH11 0x51324E69777A4F5445754E PREVRANDAO SSTORE PUSH25 0x49444D304F5334794F5467675179417A4F5441754E54457949 PREVRANDAO 0x4D ADDRESS 0x4E PUSH26 0x34304F444D734D7A6B774C6A597A4F53417A4E4459754E546B79 0x4C PREVRANDAO 0x4D CALLDATALOAD 0x4D PUSH10 0x34774E444D674D7A5131 0x4C PUSH11 0x45314E69424449444D354D PUSH26 0x34784D5449674D7A51304C6A41324D69777A4F544D754D6A557A 0x49 PREVRANDAO 0x4D ADDRESS 0x4D PUSH26 0x34324F444D734D7A6B7A4C6A41304E79417A4E4449754E445179 0x49 GASLIMIT 0x4D PUSH8 0x4D7A6B794C6A6B78 0x4E PUSH10 0x417A4E4445754E6A5135 0x4C PREVRANDAO 0x4D CALLDATALOAD 0x4D PUSH10 0x34344D4463674D7A5177 0x4C PUSH11 0x55774E53777A4F5449754F PREVRANDAO COINBASE ADDRESS 0x49 PREVRANDAO 0x4D PUSH27 0x4F5334354D4441675179417A4F5449754F44417749444D7A4F4334 ORIGIN 0x4F PREVRANDAO MLOAD PUSH20 0x4D7A6B784C6A59324E53417A4D7A67754D7A5533 0x4C PREVRANDAO 0x4D CALLDATALOAD 0x4D NUMBER CALLVALUE CALLVALUE 0x4E SLOAD 0x49 PUSH8 0x4D7A4D354C6A4D7A 0x4E PUSH26 0x424E4D7A6B784C6A67304E43417A4E4445754E44493549454D67 0x4D PUSH27 0x6B784C6A63794D53417A4E4445754E7A55774C444D354D5334794D SLOAD GASLIMIT PUSH8 0x4D7A51794C6A4535 0x4E PUSH26 0x777A4F5441754E7A457749444D304D6934304D6A4D675179417A 0x4F SLOAD COINBASE PUSH22 0x4D6A457749444D304D6934324E446B734D7A67354C6A 0x4D BALANCE 0x4D NUMBER COINBASE PUSH27 0x4E444D754D446B344C444D344F4334344D4441674D7A517A4C6A51 PUSH25 0x4F53424449444D344E7934334D4449674D7A51304C6A41324D MSTORE8 PUSH24 0x7A4F4459754D7A517949444D304E4334774E4441734D7A67 ORIGIN 0x4C PUSH11 0x45794E43417A4E444D754D PUSH27 0x633449454D674D7A67314C6A6B354E43417A4E4449754F54677A4C PREVRANDAO 0x4D CALLVALUE 0x4F NUMBER CALLVALUE PUSH27 0x4F444D674D7A51784C6A59774D43777A4F446B754D546B3149444D ADDRESS 0x4D MSTORE8 CALLVALUE ORIGIN 0x4D PREVRANDAO COINBASE PUSH8 0x5179417A4F446B75 0x4D PUSH27 0x6B3449444D304D5334324D4441734D7A6B774C6A41324D69417A4E PREVRANDAO GASLIMIT PUSH22 0x4D5441314C444D354D4334324E7A49674D7A51774C6A SSTORE PUSH24 0x4D43424449444D354D5334344D5451674D7A4D354C6A4D32 0x4E PUSH26 0x777A4F5449754E44513049444D7A4F5334344E6A59734D7A6B78 0x4C PUSH11 0x67304E43417A4E4445754E PREVRANDAO 0x49 CALLDATALOAD 0x49 GASLIMIT ADDRESS BALANCE 0x4E MSTORE8 CALLVALUE CALLER 0x4D SLOAD COINBASE PUSH8 0x4D7A51354C6A6735 0x4E NUMBER TIMESTAMP PREVRANDAO 0x49 PREVRANDAO SSTORE PUSH26 0x4C6A6B794F43417A4E5441754D6A49354C4455794C6A45344F43 COINBASE PUSH27 0x4E5449754F546B7A4C4455304C6A45794F53417A4E5455754F4441 PUSH24 0x49454D674E5463754D7A4D3049444D324D4334304D7A4D73 0x4E PUSH11 0x45754E6A417749444D324D PUSH26 0x34314F5455734E6A45754E6A417749444D324D53347A4D7A6367 MLOAD PUSH26 0x41324D5334324D4441674D7A55354C6A55344D6977324E533478 0x4E PREVRANDAO COINBASE PUSH8 0x4D7A55324C6A6379 0x4D MSTORE8 PUSH24 0x324E6934794D5445674D7A55334C6A59774F534244494459 CALLER 0x4C PUSH11 0x45774D43417A4E5467754D PUSH27 0x51334C4459324C6A6B784F53417A4E546B754E7A51344C4459314C PUSH11 0x67774D43417A4E6A41754F PREVRANDAO COINBASE PUSH24 0x49454D674E6A55754D6A557749444D324D53347A4D546373 0x4E PUSH11 0x51754F44417749444D324D MSTORE8 CALLVALUE CALLDATALOAD 0x4E PUSH27 0x67734E6A51754F44417749444D324D6934794E7A4167517941324E NUMBER CALLVALUE CALLVALUE 0x4D PREVRANDAO COINBASE PUSH8 0x4D7A597A4C6A4134 0x4D MSTORE8 PUSH24 0x324E6934784F4455674D7A59794C6A6B774D4377324E7934 PUSH24 0x4D5467674D7A59784C6A6B344D534244494459334C6A5579 0x4D PUSH26 0x417A4E6A45754E4449794C4459344C6A45304F43417A4E6A4575 0x4D SLOAD PUSH12 0x354C4459344C6A6B344D4341 PUSH27 0x4E6A45754D6A677849454D674E7A45754D544D3149444D324D5334 ADDRESS 0x4F SLOAD GASLIMIT PUSH20 0x4E7A41754E6A673349444D324D7934784D6A5573 0x4E PUSH11 0x63754F44453549444D324E MSTORE8 CALLVALUE BALANCE 0x4D SLOAD MSIZE PUSH8 0x517941324E693432 0x4E PREVRANDAO MLOAD PUSH8 0x4D7A59324C6A5135 0x4E MSTORE8 PUSH24 0x324E7934784E6A45674D7A59334C6A45784D7977324F5334 CALLDATALOAD 0x4D PREVRANDAO COINBASE PUSH8 0x4D7A59344C6A4177 0x4D PUSH10 0x4244494463344C6A4930 0x4E MSTORE8 COINBASE PUSH27 0x4E7A41754E7A457A4C44677A4C6A59324E79417A4E6A67754D7A4D CALLVALUE 0x4C PREVRANDAO PUSH8 0x784C6A45344E6941 PUSH27 0x4E6A4D754D44553549454D674E7A6B754D54677949444D314F4334 CALLER 0x4F SLOAD PUSH4 0x734E6A6B PUSH22 0x4E44633549444D314D5334354E544D734E6A51754D6A COINBASE PUSH24 0x49444D314D5334774E7A6767517941324D6934304F544D67 0x4D PUSH27 0x55774C6A63354E5377314F4334304E4451674D7A55774C6A41314E PUSH10 0x77314E7934324E6A4567 0x4D PUSH27 0x51354C6A67344E434244494455334C6A49354F43417A4E446B754F PREVRANDAO COINBASE ADDRESS 0x4C PREVRANDAO SSTORE ORIGIN 0x4C PUSH11 0x51784F53417A4E446B754F PREVRANDAO COINBASE CALLDATALOAD 0x4C PREVRANDAO SSTORE BALANCE 0x4C PUSH11 0x63784D43417A4E446B754F PREVRANDAO PUSH12 0x304945307A4F544D754E6A4D CALLER 0x49 PREVRANDAO 0x4D BALANCE 0x4E MSTORE8 CALLVALUE ORIGIN 0x4D PUSH27 0x59675179417A4F544D754D546B7849444D314E69347A4E6A67734D PUSH27 0x6B794C6A63774F43417A4E5463754E5445314C444D354D6934314E PUSH11 0x51674D7A55344C6A45344E NUMBER TIMESTAMP PREVRANDAO 0x49 PREVRANDAO 0x4D CALLDATALOAD 0x4D PUSH10 0x34304D546B674D7A5534 0x4C PUSH11 0x67314D79777A4F5445754E PUSH27 0x593449444D324D4334304E6A41734D7A6B784C6A45784E79417A4E PUSH11 0x45754E7A553249454D674D PUSH27 0x67354C6A63344D43417A4E6A51754E44457A4C444D344F5334334E PUSH27 0x6B674D7A59304C6A45774D43777A4F5445754D54593149444D334E NUMBER CALLVALUE PUSH24 0x4D4441675179417A4F5445754E6A457949444D334E793478 0x4F SLOAD COINBASE PUSH20 0x4D7A6B794C6A41334E53417A4F4441754E544977 0x4C PREVRANDAO 0x4D CALLDATALOAD 0x4D PUSH10 0x34784F5451674D7A6778 0x4C PUSH11 0x51774D43424449444D354D PUSH10 0x347A4D544D674D7A6779 0x4C PUSH11 0x49344D43777A4F5449754E PUSH11 0x417949444D344E4334794D PREVRANDAO GASLIMIT PUSH20 0x4D7A6B794C6A677A4E69417A4F4455754E6A5935 0x49 GASLIMIT 0x4D PUSH8 0x4D7A6B7A4C6A4D7A 0x4D PUSH26 0x417A4F4467754E7A67354C444D354D6934354D7A49674D7A6B77 0x4C PUSH11 0x41774D43777A4F5445754E PREVRANDAO COINBASE PUSH24 0x49444D354D4334774D4441675179417A4F5441754D544D33 0x49 PREVRANDAO 0x4D CALLDATALOAD 0x4D NUMBER CALLVALUE PUSH24 0x4D4441734D7A67354C6A59784E53417A4F4467754F545934 0x4C PREVRANDAO 0x4D CALLVALUE 0x4F MSTORE8 CALLVALUE BALANCE 0x4E PREVRANDAO COINBASE PUSH8 0x4D7A67324C6A4D79 0x4E PUSH10 0x424449444D344F533431 0x4D PREVRANDAO PUSH4 0x674D7A67 BALANCE 0x4C PUSH11 0x45314E79777A4F446B754D PUSH27 0x513049444D344E6934314E4441734D7A67354C6A45334F43417A4F PREVRANDAO PUSH12 0x754E44417749454D674D7A67 CALLDATALOAD 0x4C PUSH11 0x41774F43417A4F5449754D PUSH27 0x49304C444D344F4334314F546B674D7A6B314C6A4D344F43777A4F PREVRANDAO PUSH8 0x754D6A513049444D CALLDATALOAD 0x4E PUSH10 0x34304D4441675179417A 0x4F PREVRANDAO MSIZE PUSH22 0x4F544D7A494451774D4334784D7A45734D7A67324C6A PUSH4 0x7A4D4341 ADDRESS 0x4D PREVRANDAO COINBASE PUSH22 0x4D4441774C444D354D7934344D6A63674E4441774C6A COINBASE PUSH24 0x4D43424D494451774D4334774E544D674E4441774C6A4177 0x4D NUMBER COINBASE PUSH27 0x4F546B754F446B7849444D354E6934784D4441675179417A4F546B PUSH22 0x4E7A677A49444D354D7934304F4455734D7A6B354C6A 0x4D PUSH25 0x4D79417A4F5441754E5463794C444D354F4334304E6A55674D PUSH27 0x67334C6A49314F43424449444D354E7934334E6A6B674D7A67304C PUSH11 0x55304D53777A4F5463754D PUSH11 0x417749444D344D5334344F SLOAD MSIZE PUSH20 0x4D7A6B334C6A49774D43417A4F4445754D7A6779 0x49 GASLIMIT 0x4D PUSH8 0x4D7A6B334C6A4977 0x4D NUMBER COINBASE PUSH27 0x4F4441754F4459344C444D354E7934774D6A41674D7A67774C6A4D PUSH27 0x4E69777A4F5459754F44417749444D344D4334794D444167517941 PUSH27 0x4F5459754E54677749444D344D4334774E6A51734D7A6B324C6A51 PUSH24 0x4D43417A4E7A6B754E4463334C444D354E6934304D444167 0x4D PUSH27 0x63344C6A67354E69424449444D354E6934304D4441674D7A63334C PUSH11 0x67784D53777A4F5455754D SLOAD PUSH8 0x3549444D334D6934 PUSH25 0x4E6A55734D7A6B304C6A45354D69417A4E6A67754E6A417749 GASLIMIT 0x4D PUSH8 0x4D7A6B794C6A6377 0x4D NUMBER COINBASE PUSH27 0x4E6A4D754D6A59314C444D354D7934774D446B674D7A59774C6A41 PUSH24 0x4D43777A4F5455754D44413249444D324D4334774D444167 MLOAD PUSH26 0x417A4F5459754E7A413449444D324D4334774D4441734D7A6B32 0x4C PUSH11 0x6B354E69417A4E5459754E PUSH27 0x41774C444D354E5334304D6A4D674D7A55314C6A49794D69424D49 PREVRANDAO 0x4D CALLDATALOAD 0x4E NUMBER CALLVALUE ADDRESS 0x4E PREVRANDAO MSIZE PUSH8 0x4D7A55304C6A4D77 0x4E NUMBER COINBASE PUSH27 0x4F544D754E6A4D3349444D314E5334324D7A5967545449334E7934 PUSH26 0x4D4441674D7A55314C6A49794D794244494449334E7934794D44 COINBASE PUSH8 0x4D7A55314C6A5933 0x4D NUMBER PUSH24 0x794E7A67754F54513549444D314E6934774D5445734D6A63 CALLDATALOAD 0x4C PUSH11 0x4D794D79417A4E5455754E PUSH11 0x4D3349454D674D6A63354C PUSH11 0x55774F53417A4E5455754E PREVRANDAO SSTORE PUSH25 0x4C4449334F5334784D4463674D7A55314C6A49784F4377794E PUSH27 0x67754E444D7749444D314E5334784D546B67517941794E7A63754E PUSH27 0x553049444D314E5334774D6A41734D6A63334C6A49774D43417A4E SLOAD SSTORE PUSH22 0x4D4459324C4449334E7934794D4441674D7A55314C6A 0x49 PUSH26 0x4D79424E4D6A51354C6A41774D43417A4E5459754D44457A4945 0x4D PUSH8 0x4D6A51334C6A5934 0x4D NUMBER COINBASE PUSH27 0x4E5459754D6A45324C4449304E5334774E7A41674D7A55324C6A55 CALLVALUE 0x4F NUMBER PUSH24 0x794E444D754D6A417749444D314E6934344D7A6367517941 PUSH26 0x4D7A6B754E7A4D3249444D314E79347A4D4441734D6A4D784C6A COINBASE CALLDATALOAD 0x4E PUSH10 0x417A4E6A41754D444179 0x4C PREVRANDAO 0x49 PUSH26 0x4F4334794D4441674D7A59784C6A55794F434244494449794E79 CALLVALUE PUSH27 0x4D6A41674D7A59784C6A6B354D6977794D6A55754E7A6B7749444D ORIGIN 0x4D PUSH10 0x34334E4459734D6A4930 0x4C PUSH11 0x67774D43417A4E6A4D754D PUSH11 0x413049454D674D6A497A4C PUSH11 0x67784D43417A4E6A4D754E PUSH11 0x59794C4449794D6934324E SLOAD PUSH8 0x674D7A59304C6A49 PUSH26 0x4E7977794D6A49754D6A517749444D324E4334304E546B675179 COINBASE PUSH26 0x4D6A45754F44497A49444D324E4334324F5445734D6A49774C6A GASLIMIT PUSH25 0x4D79417A4E6A55754E6A41354C4449784F4334304E4441674D PUSH27 0x59324C6A51354F534244494449784D4334794E6A63674D7A63774C PUSH11 0x67304F5377784F5467754E SLOAD PUSH8 0x3249444D344D4334 ORIGIN 0x4E SLOAD COINBASE PUSH20 0x4D546B7A4C6A63784E43417A4F4463754D6A5132 0x49 GASLIMIT 0x4D PUSH8 0x4D546B794C6A677A 0x4F NUMBER COINBASE PUSH27 0x4F4467754E444D784C4445354D5334344D6A51674D7A67354C6A59 ADDRESS 0x4F NUMBER PUSH24 0x784F5445754E44597849444D344F5334354E446B67517941 PUSH25 0x4F5445754D446B3349444D354D4334794E5445734D546B774C PUSH11 0x67774D43417A4F5441754E PUSH27 0x49324C4445354D4334344D4441674D7A6B784C6A41774E69424449 PREVRANDAO GASLIMIT CALLDATALOAD 0x4D NUMBER CALLVALUE CALLVALUE 0x4D PREVRANDAO COINBASE PUSH8 0x4D7A6B784C6A4934 0x4E MSTORE8 PUSH24 0x784F5441754D444D3149444D354D69347A4F4467734D5467 CALLDATALOAD 0x4C PUSH11 0x45774D43417A4F544D754E PREVRANDAO SSTORE CALLER 0x49 GASLIMIT 0x4D PUSH8 0x4D5467334C6A4177 0x4D PUSH10 0x417A4F5455754F445531 0x4C PREVRANDAO GASLIMIT CALLVALUE 0x4E NUMBER CALLVALUE CALLVALUE 0x4D PREVRANDAO COINBASE PUSH8 0x4D7A6B344C6A6B34 0x4D PUSH26 0x77784F4451754F44417749444D354F5334314E6A556751794178 0x4F PREVRANDAO MLOAD PUSH22 0x4F44417749444D354F5334344E7A55734D546B324C6A PUSH8 0x7A4F5341304D4441 PUSH22 0x4D4441774C4449794E6934344D4463674E4441774C6A COINBASE PUSH24 0x4D43424D494449324F4334344D5451674E4441774C6A4177 0x4D NUMBER COINBASE PUSH26 0x4E6A67754E54637949444D354E5334314D444167517941794E6A PUSH8 0x754E444D3549444D CALLDATALOAD 0x4D PUSH26 0x34774D6A55734D6A59344C6A41324D79417A4F5441754D545578 0x4C PREVRANDAO 0x49 ORIGIN 0x4E PUSH26 0x34334D7A63674D7A67354C6A45784E434244494449324E793430 0x4D SLOAD GASLIMIT PUSH8 0x4D7A67344C6A4133 0x4E PUSH26 0x77794E6A63754D546B7949444D344E6934354D4463734D6A5933 0x4C PUSH11 0x49304F43417A4F4459754E SLOAD GASLIMIT ADDRESS 0x49 GASLIMIT 0x4D PUSH8 0x4D6A59334C6A557A 0x4E MSTORE8 COINBASE PUSH27 0x4F4451754E544D344C4449324E6934304D7A45674D7A63354C6A59 CALLVALUE 0x4E PUSH10 0x77794E6A51754D6A4535 0x49 PREVRANDAO 0x4D CALLER 0x4D PUSH26 0x34794D444167517941794E6A49754D7A637849444D324E793433 0x4E PUSH27 0x6B734D6A59774C6A49344D69417A4E6A51754E5455324C4449314E PUSH26 0x34334D4455674D7A597A4C6A45304F434244494449314E533434 0x4E PUSH11 0x59674D7A59794C6A45304D PUSH26 0x77794E5455754E54597749444D324D5334774F444D734D6A5532 0x4C PUSH11 0x67334D79417A4E6A41754D PUSH11 0x597749454D674D6A55334C PUSH11 0x67304E53417A4E546B754E PUSH11 0x55784C4449324D5334784F SLOAD SSTORE PUSH8 0x4D7A59784C6A4D77 0x4F MSTORE8 PUSH24 0x794E6A49754D6A553549444D324D6934354D6A5967517941 PUSH26 0x4E6A59754D54633449444D324F4334344F4441734D6A59344C6A PUSH12 0x334E43417A4E7A55754F446B CALLDATALOAD 0x4C PREVRANDAO 0x49 CALLER 0x4D NUMBER CALLVALUE PUSH24 0x4D5459674D7A67794C6A51774D434244494449334D433435 0x4D SLOAD PUSH4 0x674D7A67 CALLVALUE 0x4C PUSH11 0x41784E7977794E7A45754E SLOAD SSTORE ADDRESS 0x49 PREVRANDAO 0x4D CALLDATALOAD 0x4D PUSH26 0x34354E4451734D6A63784C6A55334E79417A4F5459754F544177 0x49 GASLIMIT PUSH24 0x674D6A63784C6A59774D4341304D4441754D444177494449 CALLDATALOAD 0x4F MSTORE8 CALLVALUE ADDRESS 0x4D PREVRANDAO COINBASE PUSH8 0x4E4441774C6A4177 0x4D NUMBER TIMESTAMP PREVRANDAO 0x49 PREVRANDAO 0x4D PUSH26 0x4F4334334D4441674E4441774C6A41774D43777A4D6A67754D7A 0x4D ADDRESS 0x49 PREVRANDAO MLOAD PUSH24 0x4D4334774D6A49734D7A49324C6A59344E69417A4F546775 0x4D PUSH27 0x493549454D674D7A49324C6A51774D79417A4F5467754D444D344C PREVRANDAO 0x4D PUSH26 0x4E5334324E4441674D7A6B334C6A41344D43777A4D6A51754F54 PUSH12 0x7849444D354E6934794D4441 PUSH8 0x5179417A4D545175 0x4E PREVRANDAO GASLIMIT CALLDATALOAD 0x49 PREVRANDAO 0x4D CALLVALUE 0x4D MSTORE8 CALLVALUE CALLVALUE 0x4E PUSH11 0x67734D7A41774C6A55334F NUMBER COINBASE PUSH27 0x4E6A6B754E4455314C4449344F4334344D4441674D7A597A4C6A63 ADDRESS 0x4D PUSH10 0x4244494449344E793478 0x4E SLOAD COINBASE PUSH8 0x4D7A59794C6A6B30 0x4D PUSH10 0x77794F4455754E44597A 0x49 PREVRANDAO 0x4D ORIGIN 0x4D PUSH10 0x34784D5463734D6A6731 0x4C PUSH11 0x41314D69417A4E6A45754F SLOAD GASLIMIT PUSH24 0x49454D674D6A677A4C6A59354F53417A4E6A45754D6A4934 0x4C PREVRANDAO 0x49 CALLER 0x4E PUSH26 0x34344D6A6B674D7A55354C6A457A4E5377794E7A59754E444177 0x49 PREVRANDAO 0x4D BALANCE 0x4F NUMBER CALLVALUE CALLVALUE 0x4D PUSH11 0x5567517941794E7A51754E SLOAD 0x4D PUSH27 0x49444D314F4334304D6A41734D6A63774C6A45794E69417A4E5463 PUSH22 0x4D6A597A4C4449324F4334304E6A51674D7A55324C6A PUSH4 0x304D5342 PREVRANDAO 0x49 PREVRANDAO 0x49 ORIGIN 0x4E PUSH26 0x34334D6A6B674D7A55324C6A55784D5377794E6A55754E7A5135 0x49 PREVRANDAO 0x4D BALANCE 0x4E PUSH10 0x34794E5463734D6A5930 0x4C PUSH11 0x41324E43417A4E5459754D SLOAD PUSH4 0x3449454D PUSH8 0x4D6A55304C6A4531 0x4D PUSH10 0x417A4E5455754E7A457A 0x4C PREVRANDAO 0x49 BALANCE 0x4D MSTORE8 CALLVALUE PUSH25 0x4E5451674D7A55314C6A59344D4377794E446B754D44417749 PREVRANDAO 0x4D BALANCE 0x4E PUSH10 0x34774D544D6754544D35 0x4E PUSH26 0x34344E4451674D7A59334C6A63324E79424449444D354E793433 0x4D SLOAD GASLIMIT PUSH8 0x4D7A59344C6A4935 0x4F MSTORE8 PUSH24 0x7A4F5463754E7A637749444D324F5334784E5451734D7A6B CALLER 0x4C PUSH11 0x6B334E53417A4E6A6B754E PUSH11 0x593349454D674D7A6B344C PUSH11 0x49344F43417A4E7A41754E PREVRANDAO MLOAD CALLVALUE 0x4C PREVRANDAO 0x4D CALLDATALOAD 0x4F NUMBER CALLVALUE PUSH27 0x4E544D674D7A63774C6A49354D43777A4F5467754D7A633149444D ORIGIN 0x4F NUMBER CALLVALUE CALLER 0x4D PREVRANDAO COINBASE PUSH8 0x5179417A4F546775 0x4E PREVRANDAO COINBASE PUSH27 0x49444D324E6934324D446B734D7A6B344C6A49784E79417A4E6A59 PUSH22 0x4D6A67794C444D354E7934344E4451674D7A59334C6A PUSH4 0x324E7941 PUSH10 0x49475A70624777394969 0x4D BALANCE MSIZE PUSH27 0x67354D324D6949475A7062477774636E56735A5430695A585A6C62 PUSH14 0x396B5A4349676333523562475539 0x49 PUSH15 0x4E30636D39725A546F67636D646959 MSTORE8 PUSH8 0x784F446373494449 PUSH25 0x4F4377674F445573494441754E6A6B704F79497650676F6749 NUMBER COINBASE PUSH8 0x5048426864476767 PUSH4 0x33523562 SELFBALANCE SSTORE CODECOPY 0x49 PUSH15 0x4E30636D39725A546F67636D64694B PREVRANDAO COINBASE PUSH20 0x49444173494441704F79426D615778734F694279 GAS ORIGIN 0x49 PUSH16 0x4D6A49314C43417A4D4377674D7A4170 0x4F PUSH26 0x49675A443069545341794D6A59754D4459674D5441334C6A6377 0x4D PUSH10 0x4244494449794E533434 0x4D SLOAD PUSH8 0x674D5441324C6A6B CALLER 0x4D PUSH26 0x41794D6A63754E444131494445774E5334344F4445674D6A4933 0x4C PUSH11 0x67304E7941784D4455754E PUSH11 0x5967517941794D6A6B754D PUSH11 0x4534494445774E4334354E PUSH27 0x51674D6A4D774C6A41784D7941784D4455754F4445314944497A4D MSTORE8 CALLVALUE BALANCE 0x4F MSTORE8 COINBASE PUSH25 0x4D4459754D7A5167517941794D7A45754F5463674D5441324C PUSH11 0x51324E7941794D7A4D754D PUSH11 0x5530494445774E79347A4F SLOAD PUSH12 0x674D6A4D794C6A59354E6941 PUSH25 0x4D4463754F54553349454D674D6A4D794C6A51334D6941784D PREVRANDAO PUSH8 0x754D546778494449 PUSH27 0x4D5334314F5341784D446B754D5463324944497A4D5334314F5341 PUSH25 0x4D446B754E6A553449454D674D6A4D784C6A5535494445784D NUMBER CALLVALUE PUSH26 0x4E6A6B674D6A4D784C6A6B774F4341784D5445754E5445334944 0x49 PUSH27 0x4D5334334E6941784D5449754D445167517941794D7A41754E6A6B PUSH25 0x494445784E5334344D4463674D6A4D784C6A51334E5341784D SLOAD PUSH4 0x754E446B CALLDATALOAD 0x49 PREVRANDAO 0x49 PUSH27 0x4D43347A4D5451674D5445344C6A51794D534244494449794E5334 CALLER 0x4D PUSH11 0x6B674D5449794C6A41324E NUMBER COINBASE PUSH26 0x4D6A63754D546778494445794D5334344D5445674D6A49314C6A PUSH8 0x774E5341784D6A45 PUSH22 0x4F54413549454D674D6A49304C6A5933494445794D53 CALLVALUE CALLDATALOAD 0x4F MSTORE8 COINBASE PUSH26 0x4D6A55754D7A5931494445794D7934324D6941794D6A51754D7A SSTORE CALLDATALOAD 0x49 PREVRANDAO GASLIMIT PUSH26 0x4E4334794F544567517941794D6A4D754E44597A494445794E43 CALLVALUE CALLVALUE 0x4F PREVRANDAO PUSH8 0x674D6A49784C6A67 CALLDATALOAD 0x4F MSTORE8 COINBASE PUSH25 0x4D6A51754F446335494449794D5334794D5449674D5449314C PUSH11 0x55324E694244494449794D MSTORE8 CALLVALUE PUSH24 0x4E5459674D5449314C6A63794D5341794D6A45754D444130 0x49 PREVRANDAO GASLIMIT PUSH26 0x4E5334324F4449674D6A49774C6A63344E6941784D6A55754E7A 0x4D ORIGIN 0x49 GASLIMIT 0x4D PUSH8 0x4D6A45354C6A5535 0x4E PUSH26 0x41784D6A59754D444D7A494449784E5334334E5459674D544932 0x4C PUSH11 0x41334F5341794D5451754E PREVRANDAO PUSH12 0x78494445794E69347A4D7A49 PUSH8 0x517941794D544975 0x4E SLOAD GASLIMIT PUSH8 0x4D5449324C6A6379 0x4F NUMBER COINBASE PUSH26 0x4D446B754F444132494445794E6934794D4463674D6A41344C6A COINBASE PUSH26 0x4E5341784D6A63754D446B3449454D674D6A41324C6A6B794E79 COINBASE PUSH25 0x4D6A63754E6A5133494449774E4334344F5467674D5449334C PUSH11 0x4D334D6941794D444D754E PUSH11 0x6733494445794E7934314D PUSH11 0x4D67517941794D4445754D PUSH27 0x49674D5449334C6A67784F5341784F5467754F544530494445794F NUMBER CALLVALUE PUSH26 0x4E5459674D546B324C6A59794E6941784D6A67754E7A45304945 0x4D PUSH8 0x4D546B304C6A5179 0x4D MSTORE8 COINBASE PUSH25 0x4D6A6B754D545531494445354D6934774E6A49674D5449354C PUSH11 0x41794D5341784F446B754F PREVRANDAO 0x49 PUSH8 0x4D5449354C6A4D35 0x4E MSTORE8 TIMESTAMP PREVRANDAO 0x49 PREVRANDAO GASLIMIT CALLVALUE 0x4E PUSH26 0x34784E4445674D5449354C6A67304D5341784F4451754D544D7A 0x49 PREVRANDAO GASLIMIT PUSH27 0x4D4334784F5463674D5467784C6A4D354F4341784D6A6B754E6A55 PUSH8 0x517941784E7A6B75 0x4E PUSH27 0x49674D5449354C6A4D784E4341784E7A63754F444131494445794F MSTORE8 CALLVALUE ORIGIN 0x4E PUSH27 0x45674D5463324C6A49774F5341784D6A6B754D544D3549454D674D SLOAD PUSH4 0x304C6A45 PUSH8 0x4D5449344C6A517A 0x4E PUSH26 0x41784E7A45754E544578494445794F5334794E4459674D545935 0x4C PUSH11 0x51774D7941784D6A67754E SLOAD MLOAD ADDRESS 0x49 GASLIMIT 0x4D PUSH8 0x4D5459344C6A6379 0x4D PUSH10 0x41784D6A67754D7A4533 0x49 PREVRANDAO GASLIMIT ORIGIN 0x4E PUSH26 0x34344D5459674D5449344C6A51354D6941784E6A63754D544132 0x49 PREVRANDAO GASLIMIT PUSH26 0x4F43347A4E7A5167517941784E6A51754F444978494445794E79 CALLVALUE CALLDATALOAD 0x4F SLOAD 0x4D PUSH8 0x4D5459794C6A4D79 0x4D MSTORE8 COINBASE PUSH25 0x4D6A67754D445531494445324D4334794D5459674D5449334C PUSH11 0x4D314D794244494445314F MSTORE8 CALLVALUE PUSH24 0x4D4455674D5449324C6A6B304F5341784E5463754E6A4979 0x49 PREVRANDAO GASLIMIT PUSH26 0x4E69347A4F4449674D5455324C6A4D774D6941784D6A59754D54 MSIZE PUSH26 0x49454D674D5455314C6A637A4F4341784D6A59754D4459344944 GASLIMIT BALANCE 0x4E NUMBER CALLVALUE PUSH26 0x4D6A67674D5449314C6A67334E4341784E544D754F444D314944 GASLIMIT PUSH26 0x4E5334304F444567517941784E544D754E444532494445794E53 CALLVALUE PUSH24 0x4E6A49674D5455784C6A6B344E5341784D6A51754E445131 0x49 PREVRANDAO GASLIMIT BALANCE 0x4D MSTORE8 CALLVALUE PUSH27 0x4E6A67674D5449304C6A493549454D674D5455774C6A59304E5341 PUSH25 0x4D6A51754D544135494445304F5334304F544D674D5449794C PUSH11 0x6B794E5341784E4467754F SLOAD PUSH8 0x33494445794D6934 ADDRESS 0x4D SLOAD PUSH12 0x67517941784E4467754D7A59 PUSH27 0x494445794D5334334F5459674D5451344C6A45774F4341784D6A45 PUSH22 0x4E5451674D5451334C6A59794E6941784D6A45754D44 SSTORE CALLVALUE 0x49 GASLIMIT 0x4D PUSH8 0x4D5451334C6A4D30 0x4F NUMBER COINBASE PUSH25 0x4D6A41754E7A67674D5451324C6A59774E4341784D6A41754D SLOAD 0x4D PUSH8 0x4D5451324C6A5977 0x4E NUMBER COINBASE PUSH25 0x4D546B754E7A677949454D674D5451324C6A59774E4341784D SLOAD PUSH12 0x754D6A6B79494445304E6934 PUSH24 0x4D7A59674D5445334C6A6B324F5341784E4455754E7A557A 0x49 PREVRANDAO GASLIMIT PUSH25 0x4E7934314E794244494445304E53347A4E6A55674D5445334C PUSH11 0x41794D6941784E4463754D PUSH27 0x63674D5445304C6A6B7A4D6941784E4463754D7A63674D5445304C PUSH11 0x63324D694244494445304E PUSH26 0x347A4E7941784D5445754E7A4135494445314D4334354D6A6367 0x4D SLOAD GASLIMIT BALANCE 0x4C PUSH11 0x55784E4341784E544D754E PREVRANDAO GASLIMIT PUSH8 0x4D5445314C6A4178 0x4F NUMBER TIMESTAMP PREVRANDAO 0x49 PREVRANDAO GASLIMIT BALANCE 0x4E NUMBER CALLVALUE PUSH26 0x4D7A55674D5445304C6A67314D7941784E5455754D6A677A4944 GASLIMIT PUSH25 0x4E4334344E4467674D5455324C6A457A4D6941784D5451754F PREVRANDAO MLOAD CALLVALUE 0x49 GASLIMIT 0x4D PUSH8 0x4D5455324C6A6B31 0x4E MSTORE8 COINBASE PUSH25 0x4D5451754F445134494445314E7934334E7A63674D5445304C PUSH11 0x67304F4341784E5467754E SLOAD PUSH12 0x35494445784E4334344E4467 PUSH8 0x517941784E6A4175 0x4F SLOAD MLOAD ORIGIN 0x49 PREVRANDAO GASLIMIT PUSH25 0x4E4334344E4467674D54597A4C6A4D304E7941784D5451754F SLOAD 0x4D PUSH27 0x494445324E5334324E6941784D5451754F544D7A49454D674D5459 ORIGIN 0x4C PUSH11 0x63314D7941784D5451754F SLOAD 0x4D PUSH27 0x494445324F4334304E546B674D5445304C6A63784E5341784E6A6B PUSH22 0x4E44417A494445784E5334784F446767517941784E7A COINBASE PUSH22 0x4D446B35494445784E5334314D7A59674D5463784C6A 0x49 BALANCE 0x4E MSTORE8 COINBASE PUSH25 0x4D5455754D446B7A494445334D5334354E5455674D5445314C PUSH11 0x51304D794244494445334D PUSH10 0x34304E7A45674D544531 0x4C PUSH11 0x63774D5341784E7A4D754F PREVRANDAO MLOAD PUSH27 0x494445784E5334304E444D674D5463304C6A51794D6941784D5455 PUSH22 0x4E44517A49454D674D5463324C6A59784D5341784D54 SSTORE PUSH22 0x4E44517A494445334F4334334E4455674D5445314C6A 0x49 CALLER 0x4D PUSH26 0x41784F4441754F446734494445784E5334794E7A4D6751794178 0x4F PREVRANDAO 0x4D PUSH22 0x4E4455674D5445314C6A49334D7941784F4459754E44 MLOAD ADDRESS 0x49 PREVRANDAO GASLIMIT PUSH25 0x4E5334324D6A67674D5467344C6A67344E4341784D5455754D PREVRANDAO GASLIMIT CALLVALUE 0x49 GASLIMIT 0x4D PUSH8 0x4D5467354C6A6331 0x4D MSTORE8 COINBASE PUSH25 0x4D5451754F444178494445354D4334334F4459674D5445314C PUSH11 0x417A4E6941784F5445754E PUSH11 0x4133494445784E4334334E PUSH11 0x4967517941784F5449754D PUSH11 0x5132494445784E4334314E PREVRANDAO PUSH12 0x674D546B7A4C6A41354E5341 PUSH25 0x4D5451754F446B674D546B7A4C6A637A4D7941784D5451754E PUSH11 0x633349454D674D546B314C PUSH11 0x63794E6941784D5451754D PREVRANDAO GASLIMIT PUSH27 0x494445354F4334784D7A67674D5445304C6A59344D6941794D4441 PUSH22 0x4D546B35494445784E4334784E6A6367517941794D44 GASLIMIT PUSH22 0x4E7A4D7A494445784D7934334F444D674D6A417A4C6A SSTORE PUSH24 0x4D5341784D5451754D445535494449774E4334354E6A4D67 0x4D SLOAD GASLIMIT PUSH27 0x4C6A55334D534244494449774E6934334E7A55674D5445794C6A6B ORIGIN 0x4E PUSH26 0x41794D4467754E7A4533494445784D6934334E4455674D6A4577 0x4C PUSH11 0x55334E7941784D5449754D SLOAD 0x49 BALANCE 0x49 GASLIMIT 0x4D PUSH8 0x4D6A45784C6A6B78 0x4E PUSH10 0x41784D5445754E6A6335 0x49 PREVRANDAO 0x49 PUSH25 0x4D7934774D6A6B674D5445784C6A4578494449784E43347A4D PUSH11 0x45674D5445774C6A59334F MSTORE8 TIMESTAMP PREVRANDAO 0x49 PREVRANDAO 0x49 PUSH25 0x4E53347A4F4467674D5445774C6A4D794D7941794D5459754E SLOAD MLOAD CALLDATALOAD 0x49 PREVRANDAO GASLIMIT PUSH25 0x4D4334784E6941794D5463754E54557A494445774F5334324E SLOAD PUSH8 0x67517941794D5467 PUSH22 0x4E6A4D35494445774F5334784D5455674D6A49774C6A GASLIMIT ORIGIN 0x4E NUMBER COINBASE PUSH25 0x4D446B754D6A5132494449794D5334794D5445674D5441344C PUSH11 0x63794D694244494449794D MSTORE8 CALLVALUE ORIGIN 0x4F SLOAD PUSH12 0x674D5441344C6A51334F4341 PUSH26 0x4D6A49754E7A59674D5441344C6A45794E7941794D6A4D754D7A 0x4D CALLVALUE 0x49 PREVRANDAO GASLIMIT PUSH24 0x4F4334784D6A6367517941794D6A4D754E54633049444577 0x4F NUMBER CALLVALUE PUSH25 0x4D6A63674D6A49324C6A67324D6941784D4463754D54637A49 PREVRANDAO 0x49 PUSH26 0x4E5334354E7A55674D5441334C6A59784E69497650676F674943 COINBASE PUSH8 0x5048426864476767 PUSH2 0x5751 CODECOPY 0x49 PUSH15 0x4268644767794969426B50534A4E4D SLOAD PUSH8 0x314C6A49774D4341 PUSH27 0x4F4334324D444167517941784F4451754E6A557749444D344C6A6B PUSH25 0x4E4377784F444D754F54457A49444D354C6A45334F4377784F PREVRANDAO 0x4D PUSH22 0x4E54597A49444D354C6A45344E694244494445344D79 CALLVALUE PUSH26 0x4D544D674D7A6B754D546B304C4445344D6934784D7A4D674D7A PUSH12 0x754E6A51344C4445344D5334 PUSH25 0x4E6A4D674E4441754D546B3149454D674D5467774C6A45354D PUSH26 0x41304D4334334E4449734D5463354C6A457A4D4341304D53347A 0x4D SLOAD 0x4D PUSH20 0x4D5463344C6A67774D4341304D5334304E6A5567 MLOAD PUSH26 0x41784E7A67754E446377494451784C6A59784E6977784E7A6775 0x4D PREVRANDAO SSTORE ORIGIN 0x49 PREVRANDAO MLOAD PUSH25 0x4C6A6B334F4377784E7A63754F446777494451794C6A49334D NUMBER TIMESTAMP PREVRANDAO 0x49 PREVRANDAO GASLIMIT CALLER 0x4E PUSH26 0x34334D4451674E4449754E5459784C4445334E79347A4E445167 0x4E PREVRANDAO 0x49 PUSH22 0x4F4441794C4445334E7934774F4441674E4449754F44 COINBASE BALANCE 0x49 GASLIMIT 0x4D PUSH8 0x4D5463314C6A4D34 0x4D NUMBER COINBASE ADDRESS 0x4D PUSH10 0x34344D6A4D734D546377 0x4C PUSH11 0x67774D4341304F4334324F SLOAD PUSH4 0x734D5463 PUSH24 0x4C6A67774D4341314D4334344E6A4167517941784E7A4175 0x4F PREVRANDAO COINBASE PUSH24 0x494455794C6A6B354D4377784E7A49754D4463784944557A 0x4C PUSH11 0x41784D5377784E7A4D754D SLOAD SSTORE PUSH25 0x494455774C6A6B774D434244494445334E5334314E4451674E PREVRANDAO MSIZE PUSH22 0x4D6A49784C4445344D7934304E446B674E4445754D54 COINBASE PUSH25 0x4C4445344F5334324F5441674E4441754D54673449454D674D SLOAD PUSH12 0x7A4C6A63304F43417A4F5334 BALANCE 0x4F SLOAD SSTORE PUSH20 0x4D546B354C6A51304D6941304D7934314E545973 0x4D PUSH11 0x41794C6A677A4D6941304F MSTORE8 CALLVALUE PUSH27 0x4D7A4167517941794D444D754E546730494455774C6A59784D5377 PUSH26 0x4D4451754F446B77494455794C6A677A4F5377794D4455754E7A 0x4D PUSH27 0x494455304C6A49344D434244494449774E6934314E7A63674E5455 PUSH22 0x4E7A49784C4449774E79347A4E7A45674E5463754E54 MLOAD ADDRESS 0x4C PREVRANDAO 0x49 PUSH24 0x4E7934304F546B674E5467754D7A4D79494577674D6A4133 0x4C PUSH11 0x637A4D5341314F5334334E PUSH11 0x55674D6A41314C6A59324D MSTORE8 COINBASE BALANCE 0x4F NUMBER CALLVALUE PUSH26 0x4E445567517941794D444D754E446378494455324C6A597A4E79 PUSH24 0x794D4441754D7A4135494455314C6A55324F5377784F5467 PUSH22 0x4E44517A494455314C6A67774E534244494445354E69 CALLVALUE PUSH27 0x4D4459674E5459754D4463314C4445354D6934784F544D674E5463 PUSH22 0x4D6A63794C4445354D4334324D4441674E5467754D44 PUSH8 0x3249454D674D5467 CALLDATALOAD 0x4C PUSH11 0x63794D4341314F4334314D PUSH27 0x59734D5467344C6A51324D4341314F5334784F4441734D5467334C PUSH11 0x67774D4341314F5334314D SLOAD MSIZE PUSH8 0x517941784F444D75 0x4E PUSH11 0x4577494459784C6A59314D PUSH10 0x77784E7A67754D7A5130 0x49 PREVRANDAO MSIZE CALLER 0x4C PUSH11 0x497A4D7977784E7A6B754E PREVRANDAO COINBASE CALLVALUE 0x49 PREVRANDAO MSIZE CALLVALUE 0x4C PUSH11 0x51774F534244494445344D NUMBER CALLVALUE PUSH26 0x4F4445674E6A6B754D7A637A4C4445344D53347A4F5441674E6A PUSH8 0x754F5459334C4445 CALLVALUE 0x4E NUMBER CALLVALUE PUSH25 0x4E4451674E6A59754E6A633149454D674D5467314C6A49334E MSTORE8 COINBASE ORIGIN 0x4E MSTORE8 CALLVALUE CALLER 0x4D PUSH27 0x51734D5467324C6A6B794D4341324E4334304E4449734D5467334C PUSH11 0x67774D4341324D7934344D PREVRANDAO 0x4D PUSH8 0x517941784F446775 0x4E PUSH11 0x67774944597A4C6A45324E MSTORE8 PUSH24 0x784F446B754E446B77494459794C6A557A4E4377784F446B PUSH22 0x4E6A4177494459794C6A51774D694244494445354D69 CALLVALUE PUSH26 0x4E5467674E546B754D6A41324C4445354F5334334E7A45674E54 PUSH8 0x754D4455334C4449 PUSH24 0x4D7934354F5467674E6A41754D546B3549454D674D6A4133 0x4C PUSH11 0x67354E4341324D6934784E PUSH27 0x4D734D6A41344C6A41354D7941324E4334784D7A55734D6A41304C PUSH11 0x4D324D6941324D7934334F SLOAD PUSH4 0x67517941 PUSH26 0x4D4449754F4441314944597A4C6A59314E5377794D4445754E54 SSTORE CALLDATALOAD 0x49 PREVRANDAO MSIZE PUSH27 0x4C6A63334E4377794D4441754E6A5932494459304C6A45304E7942 PREVRANDAO 0x49 PREVRANDAO GASLIMIT CALLDATALOAD 0x4F MSTORE8 CALLVALUE CALLDATALOAD 0x4D PUSH11 0x55674E6A51754E4455324C PREVRANDAO GASLIMIT CALLDATALOAD 0x4F NUMBER CALLVALUE BALANCE 0x4D PUSH11 0x63674E6A51754F444D784C PREVRANDAO GASLIMIT CALLDATALOAD 0x4E PUSH26 0x34314E546B674E6A51754F54633549454D674D546B7A4C6A5533 0x4E PUSH26 0x41324E5334314F4467734D5467344C6A41794F5341324E793430 0x4E SLOAD PUSH4 0x734D5467 CALLER 0x4C PUSH11 0x45774D4341324F4334314D PREVRANDAO 0x49 PUSH8 0x517941784F445175 0x4E PUSH11 0x6377494463784C6A497A4D PUSH26 0x77784F4459754E446B77494463784C6A63334E5377784F544575 0x4E PUSH27 0x6B77494459354C6A67354F434244494449774D43347A4E4445674E PUSH11 0x59754F4459354C4449774D PUSH26 0x34774D6A59674E6A59754D6A63794C4449774F43347A4D444167 0x4E PUSH11 0x59754D6A4934494577674D PUSH11 0x45784C6A59774D4341324E PUSH10 0x34794D4441674D6A4578 0x4C PUSH11 0x59774D4341324E4334304F SLOAD SSTORE PUSH8 0x517941794D544575 0x4E PUSH11 0x41774944597A4C6A55314E PUSH26 0x77794D5445754E44497A494459794C6A51334E7977794D544575 0x4D PUSH11 0x4132494459794C6A41354E MSTORE8 TIMESTAMP PREVRANDAO 0x49 PREVRANDAO 0x49 PUSH25 0x4D4334354F446B674E6A45754E7A457A4C4449784D4334304E PREVRANDAO 0x49 PUSH8 0x4E6A41754D6A4D77 0x4C PREVRANDAO 0x49 PUSH24 0x4F5334354F5441674E5467754F44417749454D674D6A4135 0x4C PUSH11 0x557A4F4341314E79347A4E PUSH27 0x41734D6A41344C6A6B784E6941314E5334324E6A41734D6A41344C PUSH11 0x59774F5341314E5334774D PREVRANDAO COINBASE PUSH8 0x517941794D446775 0x4D PUSH27 0x4178494455304C6A4D304D4377794D4463754E6A597A494455794C PUSH11 0x6B304E6977794D4463754D SLOAD PUSH12 0x77494455784C6A6B774D6942 PREVRANDAO 0x49 PREVRANDAO 0x49 PUSH24 0x4E6934334D5467674E5441754F4455344C4449774E693478 0x4E PUSH11 0x59674E446B754F54417A4C PREVRANDAO 0x49 PUSH24 0x4E5334354E6A55674E446B754E7A633549454D674D6A4131 0x4C PUSH11 0x63324E4341304F5334324E SLOAD MLOAD PUSH20 0x4D6A41314C6A59774D4341304F5334794F444173 0x4D PUSH11 0x41314C6A59774D4341304F NUMBER CALLVALUE CALLDATALOAD 0x4E PREVRANDAO MSIZE PUSH8 0x517941794D445575 0x4E PUSH11 0x4177494451334C6A59304F NUMBER PUSH24 0x784F546B754D7A597A494451774C6A51774D6977784F5467 PUSH22 0x4D6A5130494451774C6A51774D534244494445354F43 CALLVALUE PUSH24 0x4E446B674E4441754E4441774C4445354E7934774D544567 0x4D PUSH27 0x6B754F4459774C4445354E5334354D7A67674D7A6B754D6A417749 GASLIMIT 0x4D PUSH8 0x4D546B7A4C6A5932 0x4E NUMBER COINBASE PUSH27 0x4E7934344D4445734D5467334C6A49794E79417A4E7934304E4445 PUSH20 0x4D5467314C6A49774D43417A4F4334324D444167 SLOAD SLOAD GASLIMIT ADDRESS 0x4E MSTORE8 CALLVALUE CALLER 0x4F PREVRANDAO MLOAD PUSH8 0x4D7A6B754E545934 0x49 GASLIMIT 0x4D PUSH8 0x4D5451314C6A5531 0x4E MSTORE8 COINBASE PUSH27 0x4F5334344D4445734D5451304C6A51334E5341304D4334784D4459 PUSH20 0x4D54517A4C6A4D344E4341304D4334794E445167 MLOAD PUSH26 0x41784E4449754D6A6B7A494451774C6A4D344D6977784E444575 0x4D PREVRANDAO COINBASE PUSH25 0x494451774C6A63304E4377784E4441754E544530494451784C PUSH11 0x41304F434244494445304D NUMBER CALLVALUE PUSH24 0x4D6A63674E4445754D7A55794C44457A4F5334794F445167 0x4E PREVRANDAO GASLIMIT PUSH22 0x4E6A41774C44457A4F4334344E6A4D674E4445754E6A COINBASE PUSH24 0x49454D674D544D344C6A51304D6941304D5334324D444173 0x4D SLOAD 0x4D CALLER 0x4C PUSH11 0x67334E4341304D5334344E PUSH27 0x41734D544D334C6A59774D4341304D6934794D444167517941784D PUSH27 0x63754D7A4932494451794C6A557A4D4377784D7A59754F544D7A49 PREVRANDAO MLOAD PUSH26 0x4C6A67774D4377784D7A59754E7A4933494451794C6A67774D43 TIMESTAMP PREVRANDAO 0x49 PREVRANDAO GASLIMIT PUSH27 0x4E53347A4E4441674E4449754F4441774C4445794F4334314F5441 PUSH8 0x4E4467754F546779 0x4C PREVRANDAO GASLIMIT PUSH26 0x4E7934344F444D674E5441754F54417749454D674D5449334C6A PUSH4 0x304D5341 BALANCE 0x4D MSTORE8 CALLVALUE PUSH26 0x4F4455734D5449334C6A51324D7941314D5334324D4441734D54 0x49 CALLER 0x4C PUSH11 0x49324E6941314D5334324D PREVRANDAO COINBASE PUSH8 0x517941784D6A5975 0x4F SLOAD SSTORE PUSH25 0x494455784C6A59774D4377784D6A55754E4449344944557A4C PUSH11 0x597A4D6977784D6A51754D PUSH11 0x4132494455314C6A59344D MSTORE8 TIMESTAMP PREVRANDAO 0x49 PREVRANDAO GASLIMIT PUSH26 0x4D7934354F444D674E5459754D4455324C4445794D7934774D7A SSTORE PUSH8 0x4E5463754E6A4533 0x4C PREVRANDAO GASLIMIT PUSH26 0x4D6934784D4441674E546B754D54557849454D674D5449784C6A GASLIMIT ORIGIN 0x4E MSTORE8 COINBASE ORIGIN 0x4D NUMBER CALLVALUE ORIGIN 0x4F PREVRANDAO SSTORE PUSH20 0x4D5449774C6A51774D4341324D6934784D544573 0x4D SLOAD 0x49 PUSH24 0x4C6A51774D4341324D69347A4D6A4567517941784D6A4175 0x4E PREVRANDAO COINBASE PUSH24 0x494459794C6A557A4D5377784D6A41754D544D7749445979 0x4C PUSH11 0x6B794E6977784D546B754F PREVRANDAO COINBASE PUSH24 0x4944597A4C6A49774D434244494445784F5334304E7A4167 0x4E PUSH11 0x4D754E4463304C4445784F MSTORE8 CALLVALUE PUSH26 0x4D4441674E6A51754D4445304C4445784F5334794D4441674E6A MLOAD PUSH22 0x4E44417749454D674D5445354C6A49774D4341324E43 CALLVALUE CALLER 0x4F PREVRANDAO MSIZE PUSH20 0x4D5445344C6A6B7A4D4341324E53347A4D6A5973 0x4D SLOAD GASLIMIT CALLVALUE 0x4C PUSH11 0x59774D4341324E5334324D PREVRANDAO COINBASE PUSH8 0x517941784D546775 0x4D PUSH11 0x6377494459314C6A67334E NUMBER PUSH24 0x784D5467754D444177494459324C6A59334D4377784D5467 PUSH22 0x4D444177494459334C6A4D324F534244494445784F43 CALLVALUE PUSH24 0x4D4441674E6A67754D4459344C4445784E7934344D444567 0x4E PUSH11 0x67754F444D354C4445784E PUSH26 0x34314E5463674E6A6B754D44677A49454D674D5445334C6A4D78 0x4D PUSH26 0x41324F53347A4D6A63734D5445334C6A41784F5341334D433433 0x4D SLOAD GASLIMIT PUSH20 0x4D5445324C6A6B774D6941334D6934784E546B67 MLOAD PUSH26 0x41784D5459754E7A67794944637A4C6A59314F4377784D545975 0x4E PREVRANDAO SSTORE ORIGIN 0x49 PREVRANDAO PUSH4 0x304C6A6B CALLVALUE 0x4F NUMBER PUSH24 0x784D5459754D545132494463314C6A49304E534244494445 PUSH25 0x4E5334334F5449674E7A55754E544D344C4445784E5334324D PREVRANDAO COINBASE PUSH8 0x4E7A59754E546378 0x4C PREVRANDAO GASLIMIT PUSH25 0x4E5334324D4441674E7A67754D54637A49454D674D5445314C PUSH11 0x59774D4341334F5334334D PUSH11 0x6B734D5445314C6A4D344D PUSH10 0x41344D4334354D7A5573 0x4D SLOAD GASLIMIT BALANCE 0x4C PUSH11 0x41784D7941344D5334304D PUSH11 0x5167517941784D5451754E PUSH11 0x6B77494467784C6A67314D MSTORE8 PUSH24 0x784D5451754E444977494467794C6A63314F4377784D5451 PUSH22 0x4E44457A4944677A4C6A51304D434244494445784E43 CALLVALUE ADDRESS 0x4D PREVRANDAO MSIZE PUSH8 0x4F4451754D544979 0x4C PREVRANDAO GASLIMIT PUSH25 0x4E4334794D4455674F4455754D6A51774C4445784D7934354E PUSH11 0x59674F4455754F54493149 GASLIMIT 0x4D PUSH8 0x4D54457A4C6A5132 0x4E PUSH26 0x41344E79347A4E5463734D5445304C6A4D344D7941344F53347A 0x4F PREVRANDAO 0x4D PUSH20 0x4D5445314C6A41314D7941344F43347A4D6A6B67 MLOAD PUSH26 0x41784D5455754E6A4132494467334C6A51314F5377784D546375 0x4E PUSH11 0x5179494463354C6A67324F NUMBER PUSH24 0x784D5467754F5455784944637A4C6A67774D434244494445 PUSH26 0x4D5334314D5449674E6A45754F5445324C4445794E7934334E54 PUSH4 0x674E5445 PUSH22 0x4F5459774C44457A4E5334354F446B674E4459754E6A 0x4D ADDRESS 0x49 GASLIMIT 0x4D PUSH8 0x4D544D334C6A5134 0x4D PUSH26 0x41304E5334324E6A67734D544D344C6A67794E7941304E433432 0x4F PREVRANDAO COINBASE PUSH20 0x4D544D344C6A6B334E6941304E4334304D7A6B67 MLOAD PUSH26 0x41784D7A6B754D544931494451304C6A45354E7977784D7A6B75 0x4E SLOAD SSTORE PUSH26 0x4944517A4C6A6B354F5377784D7A6B754F5449304944517A4C6A PUSH12 0x354F434244494445304D4334 PUSH26 0x4F5459674E444D754F546B324C4445304D5334774E5441674E44 0x4D PUSH22 0x4E7A59784C4445304D5334324D4441674E444D754E44 PUSH4 0x3249454D PUSH8 0x4D5451314C6A4135 0x4F MSTORE8 COINBASE ADDRESS 0x4D MSTORE8 CALLVALUE ORIGIN 0x4E SLOAD PUSH8 0x734D5451354C6A59 PUSH26 0x4F4341304D5334324D4441734D54557A4C6A497A4F5341304D79 CALLVALUE PUSH27 0x4D6A6B67517941784E5451754E4463774944517A4C6A6B784F4377 PUSH25 0x4E5455754E6A5530494451304C6A51774D4377784E5455754F PREVRANDAO PUSH4 0x77494451 ADDRESS 0x4C PUSH11 0x51774D434244494445314E PUSH10 0x34344D5445674E445175 0x4E PREVRANDAO COINBASE PUSH24 0x4C4445324D4334774E5449674E4459754F546B314C444532 0x4D MSTORE8 CALLVALUE BALANCE 0x4D PREVRANDAO MLOAD PUSH8 0x4E4467754F544579 0x49 GASLIMIT 0x4D PUSH8 0x4D5459794C6A4D33 0x4E MSTORE8 COINBASE BALANCE 0x4D NUMBER CALLVALUE PUSH24 0x4E6A41734D5459304C6A4D334D5341314D6934794E6A4173 0x4D SLOAD MSIZE BALANCE 0x4C PUSH11 0x6B304D5341314D7934344D PREVRANDAO COINBASE PUSH8 0x517941784E6A6375 0x4E SLOAD GASLIMIT PUSH25 0x494455314C6A4D304D4377784E6A6B754D446379494455334C PUSH11 0x45304D4377784E6A6B754E PREVRANDAO COINBASE CALLDATALOAD 0x49 PREVRANDAO SSTORE CALLER 0x4C PUSH11 0x67774D434244494445324F MSTORE8 CALLVALUE CALLER 0x4E PREVRANDAO MSIZE PUSH8 0x4E5467754E445977 0x4C PREVRANDAO GASLIMIT CALLER 0x4D NUMBER CALLVALUE PUSH26 0x4D6A59674E546B754D6A6B784C4445334D4334304E7A55674E54 PUSH12 0x754E6A513249454D674D5463 PUSH25 0x4C6A63774D6941324D53347A4F5459734D5463774C6A45794E PUSH10 0x41324D5334354E545573 0x4D SLOAD MSIZE CALLER 0x4C PUSH11 0x41774D4341324D4334344E PUSH27 0x6767517941784E5463754D446B35494455334C6A51324F4377784D PUSH27 0x6B754D444134494459794C6A41324D5377784D7A63754E7A597749 PREVRANDAO MSIZE CALLVALUE 0x4C PUSH11 0x4D774D5342444944457A4E PUSH26 0x347A4E5459674E7A41754D7A45354C44457A4F4334344D6A6367 0x4E PUSH27 0x41754F4445774C4445304D4334324D444D674E6A6B754D6A557849 GASLIMIT 0x4D PUSH8 0x4D54517A4C6A6779 0x4D PUSH26 0x41324E6934304D6A51734D5451334C6A41324E5341324E533478 0x4D PUSH27 0x45734D54557A4C6A49344D4341324E4334784F545567517941784E SLOAD SSTORE PUSH22 0x4D546B304944597A4C6A6B774E7977784E5459754F54 MLOAD PUSH26 0x4944597A4C6A55314F5377784E5463754D5459304944597A4C6A MLOAD PUSH26 0x4D694244494445314F4334794D446B674E6A49754E7A63334C44 GASLIMIT ORIGIN 0x4D PUSH10 0x34794E7A59674E6A4975 0x4E PUSH27 0x4D334C4445324D7934334E6A4D674E6A4D754D7A553549454D674D SLOAD MSIZE ADDRESS 0x4C PUSH11 0x59774E7941324D7934334D SLOAD GASLIMIT PUSH20 0x4D5459324C6A41784D5341324E4334774D444173 0x4D SLOAD MSIZE ORIGIN 0x4C PUSH11 0x67344D6941324E4334774D PREVRANDAO COINBASE PUSH8 0x517941784E6A6375 0x4E PUSH27 0x5530494459304C6A41774D4377784E6A6B754F544535494459304C PUSH11 0x4D334D5377784E7A45754E PUSH11 0x6B31494459304C6A67794E NUMBER TIMESTAMP PREVRANDAO 0x49 PREVRANDAO GASLIMIT CALLER 0x4E PUSH26 0x34774E7A4D674E6A59754D546B334C4445334E7934774E546367 0x4E PUSH11 0x55754E5463344C4445334D MSTORE8 CALLVALUE ADDRESS 0x4E PUSH27 0x41674E5459754D6A417749454D674D5463774C6A45314F5341314E NUMBER CALLVALUE PUSH24 0x4D4441734D5459344C6A55334D6941314D5334314E445173 0x4D SLOAD MSIZE CALLER 0x4C PUSH11 0x6B304D7941314D4334334E PREVRANDAO 0x49 PUSH8 0x517941784E6A6375 0x4D PUSH27 0x4530494451354C6A6B304D5377784E6A59754F444177494451354C PUSH11 0x45784D6977784E6A59754F PREVRANDAO COINBASE PUSH24 0x494451344C6A6B774D434244494445324E6934344D444167 0x4E PREVRANDAO PUSH8 0x754D7A677A4C4445 ORIGIN 0x4E NUMBER CALLVALUE PUSH27 0x4E7A55674E4459754E4441774C4445324D7934334E444D674E4459 PUSH22 0x4E44417749454D674D54597A4C6A51324E6941304E69 CALLVALUE ADDRESS 0x4D PREVRANDAO COINBASE PUSH20 0x4D54597A4C6A41354E6941304E6934784E7A4173 0x4D SLOAD MSIZE PUSH26 0x4C6A6B794D4341304E5334344F446B67517941784E6A49754D7A PUSH8 0x7A494451314C6A41 PUSH27 0x4D6977784E546B754D7A497A494451794C6A67774D4377784E5467 PUSH22 0x4E6A6731494451794C6A67774D434244494445314F43 CALLVALUE PUSH27 0x4E5455674E4449754F4441774C4445314E7934354F4449674E4449 PUSH22 0x4E544D774C4445314E7934344E5455674E4449754D6A COINBASE PUSH24 0x49454D674D5455334C6A63794F5341304D5334344E7A4173 0x4D SLOAD SSTORE CALLER 0x4C PUSH11 0x4D7A4D6941304D5334324D PREVRANDAO COINBASE PUSH20 0x4D5455324C6A6B334E4341304D5334324D444167 MLOAD PUSH26 0x41784E5459754E6A4532494451784C6A59774D4377784E545575 0x4F PREVRANDAO MLOAD ORIGIN 0x49 PREVRANDAO MLOAD PUSH25 0x4C6A4D314D4377784E5455754D6A5979494451784C6A41304E NUMBER TIMESTAMP PREVRANDAO 0x49 PREVRANDAO GASLIMIT BALANCE 0x4D PUSH26 0x34774E5467674D7A6B754F446B784C4445304E6934304E7A5167 0x4D PUSH27 0x67754F4459314C4445304E5334334F4451674D7A6B754E54593449 GASLIMIT ADDRESS PUSH26 0x4D5445754E6A4177494459334C6A45794E434244494449784D53 CALLVALUE ORIGIN 0x4D PREVRANDAO COINBASE PUSH8 0x4E6A63754F544531 0x4C PREVRANDAO 0x49 PUSH25 0x4E6934324F5459674E7A49754E4441774C4449784E7934314F SLOAD MLOAD PUSH8 0x4E7A49754E444177 0x49 GASLIMIT 0x4D PUSH8 0x4D6A45344C6A5531 0x4D PUSH10 0x41334D6934304D444173 0x4D PUSH11 0x45334C6A67314E4341334D NUMBER CALLVALUE CALLDATALOAD 0x4E PUSH11 0x49734D6A45314C6A6B794D PUSH26 0x41324F4334354E546367517941794D5451754D44413549445932 0x4C PUSH11 0x6B334D4377794D5445754E PUSH11 0x4177494459314C6A6B304F NUMBER PUSH24 0x794D5445754E6A4177494459334C6A45794E43424E4D5463 PUSH26 0x4C6A59794E6941324F4334794D7A4567517941784E7A49754D6A MSIZE ORIGIN 0x49 PREVRANDAO MSIZE CALLVALUE 0x4C PUSH11 0x55354D5377784E7A49754D SLOAD 0x49 BALANCE 0x49 PREVRANDAO MSIZE CALLDATALOAD 0x4C PUSH11 0x41344D7977784E7A49754D PUSH11 0x6B34494459354C6A4D334E PUSH10 0x4244494445334D693432 0x4F SLOAD 0x4D PUSH8 0x4E7A41754D445134 0x4C PREVRANDAO GASLIMIT CALLER 0x4E PUSH10 0x347A4E6A41674E7A4D75 0x4D PUSH11 0x41774C4445334E6934334E PREVRANDAO PUSH4 0x674E7A4D PUSH22 0x4D6A417749454D674D5463324C6A6B784D5341334D79 CALLVALUE PUSH26 0x4D4441734D5463334C6A6B784E4341334E43347A4F4449734D54 PUSH4 0x344C6A6B CALLER 0x4E MSTORE8 COINBASE CALLER 0x4E MSTORE8 CALLVALUE CALLVALUE 0x4D PUSH11 0x6767517941784F4445754D PUSH27 0x5978494463354C6A41334E7977784F4445754D446B35494463354C PUSH11 0x63314E4377784E7A63754F SLOAD COINBASE PUSH25 0x494463344C6A59774D694244494445334D69347A4E5467674E PUSH27 0x59754E6A41314C4445314F43347A4E6A63674E7A63754F4463784C PREVRANDAO GASLIMIT BALANCE 0x4D NUMBER CALLVALUE CALLDATALOAD 0x4D SLOAD MSIZE PUSH8 0x4F4445754D44517A 0x49 GASLIMIT 0x4D PUSH8 0x4D5451334C6A6377 0x4D PUSH10 0x41344D6934304D544973 0x4D SLOAD MLOAD ORIGIN 0x4C PUSH11 0x6B794F4341344D6934334D PREVRANDAO MSIZE PUSH20 0x4D5451304C6A59344F5341344D7934304D544167 MLOAD PUSH26 0x41784E444D754D4451304944677A4C6A6B794F4377784E444975 0x4D PUSH11 0x5530494467304C6A41784E NUMBER PUSH24 0x784E4445754F5451354944677A4C6A63774F534244494445 ADDRESS 0x4D MSTORE8 CALLVALUE ORIGIN 0x4E PREVRANDAO 0x4D PUSH8 0x4F444D754E44417A 0x4C PREVRANDAO GASLIMIT ADDRESS 0x4D MSTORE8 CALLVALUE CALLER 0x4F SLOAD COINBASE PUSH8 0x4F444D754D546B30 0x4C PREVRANDAO GASLIMIT ADDRESS 0x4D PUSH10 0x34304E6A41674F444975 0x4F SLOAD PUSH8 0x7949454D674D5451 PUSH26 0x4C6A6B334E7941344D6934344D546B734D54517A4C6A6B304D43 COINBASE CALLVALUE 0x4D PUSH10 0x34794E7A59734D545130 0x4C PUSH11 0x59774D4341344D5334334E PUSH27 0x6367517941784E4459754D6A4533494467774C6A55314D7977784E SLOAD MLOAD PUSH22 0x4D6A597A494463324C6A51774D4377784E5455754D44 GASLIMIT ORIGIN 0x49 PREVRANDAO PUSH4 0x324C6A51 PUSH24 0x4D434244494445314E53347A4E4463674E7A59754E444177 0x4C PREVRANDAO GASLIMIT BALANCE 0x4E PUSH10 0x34344D5449674E7A5575 0x4F PREVRANDAO SSTORE CALLDATALOAD 0x4C PREVRANDAO GASLIMIT BALANCE 0x4F NUMBER CALLVALUE PUSH26 0x4E7A45674E7A55754D546B3349454D674D5459794C6A41354F43 COINBASE CALLER 0x4D PUSH26 0x34304E6A45734D5459314C6A63354E7941334D6934304D444173 0x4D SLOAD MSIZE CALLVALUE 0x4C PUSH11 0x41784E6941334D6934304D PREVRANDAO COINBASE PUSH8 0x517941784E7A4575 0x4E PREVRANDAO MSIZE BALANCE 0x49 PREVRANDAO PUSH4 0x794C6A51 PUSH24 0x4D4377784E7A4D754E445578494463774C6A6B334E537778 0x4E PUSH27 0x45754E7A5931494459354C6A63784D434244494445334D4334324F SLOAD PUSH8 0x674E6A67754F5441 CALLDATALOAD 0x4C PREVRANDAO GASLIMIT ORIGIN 0x4E NUMBER CALLVALUE PUSH27 0x4D7A45674E6A6B754E4449324C4445314F4334784D6A55674E7A41 PUSH22 0x4F44453349454D674D5455324C6A41774D4341334D53 CALLVALUE PUSH26 0x4F544D734D5451354C6A67344F5341334E4334304D7A6B734D54 MLOAD PUSH27 0x4C6A51774D4341334F43347A4F546767517941784D7A51754D7A41 PUSH26 0x4944677A4C6A6B304F4377784D7A51754D7A41334944677A4C6A PUSH12 0x304E4377784D7A51754D5451 ADDRESS 0x49 PREVRANDAO PUSH8 0x324C6A59774D4342 PREVRANDAO 0x49 PREVRANDAO GASLIMIT PUSH27 0x4E4334784D444D674F4463754D6A59774C44457A4D7934354E5445 PUSH8 0x4F4467754D6A557A 0x4C PREVRANDAO GASLIMIT PUSH27 0x4D7934344D4459674F4467754F44413249454D674D544D7A4C6A55 PUSH24 0x4E7941344F5334354E5441734D544D324C6A45334D694135 0x4D MSTORE8 CALLVALUE ORIGIN 0x4D PREVRANDAO COINBASE PUSH20 0x4D544D344C6A4D784F5341354D5334324D444167 MLOAD PUSH26 0x41784D7A67754F54497949446B784C6A59774D4377784E444175 0x4E PUSH11 0x637949446B784C6A6B7A4D MSTORE8 PUSH24 0x784E4449754D6A413449446B794C6A4D7A4E694244494445 ORIGIN 0x4D PUSH10 0x34354E5441674F546375 0x4F PREVRANDAO COINBASE ADDRESS 0x4C PREVRANDAO GASLIMIT CALLER 0x4E PUSH10 0x34354D6A51674F545575 0x4E SLOAD PUSH4 0x324C4445 CALLVALUE 0x4D MSTORE8 CALLVALUE ADDRESS 0x4D PUSH11 0x6B674F4459754D44677949 GASLIMIT 0x4D PUSH8 0x4D5467784C6A6778 0x4D MSTORE8 COINBASE CALLVALUE 0x4E MSTORE8 CALLVALUE PUSH26 0x4E7A67734D5467794C6A4D334F4341344E43347A4E6A51734D54 PUSH8 0x794C6A59354D4341 CALLVALUE 0x4E NUMBER CALLVALUE PUSH24 0x4E544967517941784F444D754D444D314944677A4C6A6377 0x4F NUMBER PUSH24 0x784F444D754D54597A4944677A4C6A45774F4377784F444D PUSH22 0x4D444533494467794C6A55794E794244494445344D69 CALLVALUE CALLVALUE 0x4E PUSH27 0x51674F4445754F5455324C4445344D7934774D6A51674F4445754D PUSH11 0x45314C4445344D79347A4F PREVRANDAO PUSH8 0x674F4441754E6A6B BALANCE 0x49 GASLIMIT 0x4D PUSH8 0x4D5467314C6A6735 0x4D PUSH26 0x41334E7934784D6A41734D5463314C6A59794E7941324E533479 0x4D PUSH27 0x41734D5463794C6A59794E6941324F4334794D7A4567545449774E PUSH10 0x34794D4441674E7A4D75 0x4F SLOAD SSTORE BALANCE 0x49 GASLIMIT 0x4D PUSH8 0x4D6A41304C6A6B32 0x4E PUSH10 0x41334E4334304F446373 0x4D PUSH11 0x41784C6A63784D6941334E MSTORE8 CALLVALUE PUSH25 0x4F546B734D6A41774C6A51354E4341334E5334794D44556751 PUSH26 0x41784F546B754D545132494463314C6A49784D6977784F545575 0x4D PUSH27 0x6378494463324C6A4D354D4377784F5449754D6A6735494463334C PUSH11 0x63324E794244494445354D MSTORE8 CALLVALUE PUSH24 0x4D5463674E7A67754D7A4D314C4445344F5334334E446767 0x4E PUSH27 0x67754F4441774C4445344F5334304E6A63674E7A67754F44417749 GASLIMIT 0x4D PUSH8 0x4D5467354C6A4534 0x4E PUSH26 0x41334F4334344D4441734D5467344C6A49774D6941334F53347A 0x4E SLOAD MSIZE PUSH20 0x4D5467334C6A49334F5341344D4334774D7A5567 MLOAD PUSH26 0x41784F4445754D7A6330494467304C6A4D334E7977784F544975 0x4D SLOAD SSTORE CALLDATALOAD 0x49 PREVRANDAO PUSH12 0x784C6A55344D4377794D4449 PUSH22 0x4D6A4177494467354C6A6B354F534244494449774E79 CALLVALUE ORIGIN 0x4D PREVRANDAO COINBASE PUSH8 0x4F446B754D545135 0x4C PREVRANDAO 0x49 PUSH25 0x4D69347A4D7A67674F4459754E7A67334C4449784E4334784F PREVRANDAO PUSH4 0x674F4451 PUSH22 0x4D44493049454D674D6A45314C6A55314D4341344D53 CALLVALUE CALLDATALOAD 0x4F PREVRANDAO PUSH8 0x734D6A45334C6A6B CALLER 0x4D MSTORE8 COINBASE CALLVALUE 0x4D PUSH10 0x34344F5449734D6A4978 0x4C PUSH11 0x49304D7941344E6934324E PUSH11 0x4167517941794D6A45754E SLOAD PUSH12 0x32494467334C6A41324E7977 PUSH26 0x4D6A49754D6A4932494467334C6A59344D6977794D6A49754E6A MLOAD PUSH27 0x494467344C6A41794F434244494449794D7934314E7A41674F4467 PUSH22 0x4E7A6B324C4449794E7934324E7A45674F544D754E44 SSTORE CALLDATALOAD 0x4C PREVRANDAO 0x49 PUSH26 0x4F4334784E4441674F5451754D6A633549454D674D6A49344C6A MLOAD PUSH27 0x4D4341354E4334334F4455734D6A49344C6A67314D7941354F4334 BALANCE 0x4D SLOAD PUSH12 0x734D6A49354C6A49354D6941 PUSH25 0x4D4451754E44553449454D674D6A49354C6A4D314D5341784D PREVRANDAO SSTORE PUSH22 0x4D6A59774C4449794F5334334D5455674D5441324C6A 0x49 ORIGIN 0x4E NUMBER PUSH24 0x794D7A41754D544177494445774E6934324F544167517941 PUSH26 0x4D7A4D754D7A6B32494445784D43347A4D7A45734D6A49344C6A 0x4D BALANCE 0x4D PUSH10 0x41784D6A41754E7A5132 0x4C PREVRANDAO 0x49 PUSH26 0x4D5334334D6A67674D54497A4C6A6B334E694244494449784E79 CALLVALUE ADDRESS 0x4D PUSH11 0x55674D5449324C6A41334E NUMBER PUSH24 0x794D4449754E7A4579494445794F4334784F4449734D6A41 PUSH24 0x4C6A63324E6941784D6A59754F54633549454D674D6A4177 0x4C PUSH11 0x59784D6941784D6A59754F PREVRANDAO PUSH8 0x304C4445354F5334 CALLER 0x4D PUSH11 0x4D674D5449334C6A41334E NUMBER PUSH24 0x784F5467754E7A6B79494445794E7934304D444D67517941 PUSH25 0x4F5463754F445978494445794E7934334D7A45734D546B324C PUSH11 0x4D784E7941784D6A67754D PREVRANDAO COINBASE PUSH24 0x4C4445354E53347A4E6A49674D5449344C6A41774D434244 0x49 PREVRANDAO GASLIMIT CALLDATALOAD 0x4E NUMBER CALLVALUE ADDRESS 0x4D PREVRANDAO MSIZE PUSH8 0x4D5449344C6A4177 0x4D NUMBER PUSH24 0x784F5445754E6A6730494445794F4334794F5441734D5467 CALLDATALOAD 0x4C PUSH11 0x4D784D6941784D6A67754E PUSH11 0x513049454D674D5467304C PUSH11 0x59774E4341784D6A6B754D PUSH27 0x51324C4445334E5334794E5467674D5449354C6A49304F4377784E PUSH27 0x45754D6A4177494445794F4334304E544967517941784E6A6B754F SLOAD PUSH12 0x77494445794F4334794D5455 PUSH20 0x4D5459334C6A4D344D4341784D6A63754E7A5178 0x4C PREVRANDAO GASLIMIT ORIGIN 0x4E MSTORE8 CALLVALUE ADDRESS 0x4D PREVRANDAO COINBASE PUSH8 0x4D5449334C6A4D35 0x4F MSTORE8 TIMESTAMP PREVRANDAO 0x49 PREVRANDAO GASLIMIT ORIGIN 0x4D MSTORE8 CALLVALUE PUSH27 0x4D7A51674D5449324C6A59354E6977784E5459754F54637A494445 PUSH26 0x4E5334304F5467734D5455304C6A59774D4341784D6A51754E44 0x4D PUSH27 0x49454D674D54557A4C6A63794D4341784D6A51754D444D334C4445 BALANCE 0x4D PUSH10 0x34304D6A49674D54497A 0x4C PUSH11 0x51344F5377784E5445754E PUSH27 0x4531494445794D7934794D545567517941784E5441754D44677849 PREVRANDAO GASLIMIT PUSH26 0x4D6934314F4441734D5451324C6A67774D4341784D546B754D44 PUSH12 0x344C4445304E6934344D4441 PUSH8 0x4D5445334C6A6B35 0x4F MSTORE8 TIMESTAMP PREVRANDAO 0x49 PREVRANDAO GASLIMIT ADDRESS 0x4E PUSH10 0x34344D4441674D544531 0x4C PUSH11 0x4D794D6977784E544D754D SLOAD 0x4D ORIGIN 0x49 PREVRANDAO GASLIMIT PUSH25 0x4E4334784E5455734D5455324C6A4D794E4341784D5459754D PUSH11 0x513149454D674D5455324C PUSH11 0x67334F5341784D5459754E PUSH11 0x41344C4445314F4334784E SLOAD PUSH8 0x674D5445324C6A6B ADDRESS 0x4F MSTORE8 PUSH24 0x784E546B754D545932494445784E7934774D445167517941 PUSH25 0x4E6A41754D546331494445784E7934774E5467734D5459784C PUSH11 0x51774E5341784D5463754D SLOAD 0x49 ADDRESS 0x4C PREVRANDAO GASLIMIT ORIGIN 0x4D MSTORE8 CALLVALUE CALLDATALOAD 0x4D PREVRANDAO COINBASE PUSH8 0x4D5445334C6A4531 0x4D MSTORE8 TIMESTAMP PREVRANDAO 0x49 PREVRANDAO GASLIMIT ORIGIN 0x4E NUMBER CALLVALUE PUSH24 0x4E5455674D5445334C6A49324F4377784E6A49754E544D32 0x49 PREVRANDAO GASLIMIT PUSH25 0x4E7934354E7A59734D5455354C6A6B774D4341784D5467754D PREVRANDAO PUSH8 0x79494577674D5455 CALLER 0x4C PUSH11 0x41774D4341784D5467754D PUSH11 0x4177494445314E7934774D PREVRANDAO COINBASE PUSH8 0x4D5445354C6A5535 0x4F NUMBER TIMESTAMP 0x4D 0x49 PREVRANDAO GASLIMIT BALANCE 0x4E PUSH26 0x34774D4441674D5449774C6A6B354E5341784E546B754E444177 0x49 PREVRANDAO GASLIMIT PUSH26 0x4D5334794F545167517941784E6A41754E7A4977494445794D53 CALLVALUE ADDRESS 0x4E SLOAD PUSH8 0x734D54597A4C6A49 ADDRESS 0x4D NUMBER COINBASE PUSH25 0x4D6A45754F4455324C4445324E5334774D4441674D5449794C PUSH11 0x45334F534244494445334E MSTORE8 CALLVALUE CALLVALUE 0x4E PUSH27 0x49674D5449304C6A45334D6977784F5467754F446732494445794E MSTORE8 CALLVALUE PUSH26 0x4E7A55734D6A41794C6A49334E4341784D6A4D754F5459314945 0x4D PUSH8 0x4D6A417A4C6A4D78 0x4F MSTORE8 COINBASE PUSH25 0x4D6A4D754E5459784C4449774E6934784E7A6B674D5449794C PUSH11 0x67314E5377794D5441754D PUSH27 0x4532494445794D5334354F444567517941794D5467754F446B7849 PREVRANDAO GASLIMIT PUSH26 0x4D4334784E6A6B734D6A49334C6A6B354D4341784D5455754E7A PUSH4 0x344C4449 PUSH26 0x4F4334774D4449674D54457A4C6A51304E694244494449794F43 CALLVALUE PUSH24 0x4D4451674D54457A4C6A49774D5377794D6A67754D6A5533 0x49 PREVRANDAO GASLIMIT PUSH25 0x4D6934314D5467734D6A49344C6A55324E4341784D5445754F SLOAD 0x49 CALLVALUE 0x49 GASLIMIT 0x4D PUSH8 0x4D6A49354C6A6378 0x4E MSTORE8 COINBASE PUSH25 0x4D446B754E7A49794C4449794E7934344D6A41674D5441354C PUSH11 0x67314D5377794D6A51754F SLOAD PUSH4 0x77494445 PUSH25 0x4D6934784E7A4967517941794D6A49754F445530494445784D PUSH26 0x34344F5459734D6A45344C6A63794D7941784D5459754D54417A 0x4C PREVRANDAO 0x49 PUSH25 0x4E6934324D6A67674D5445324C6A59794F534244494449784E PUSH10 0x34774E546B674D544532 0x4C PUSH11 0x63334D6977794D5455754E PREVRANDAO PUSH12 0x30494445784E7934774E446B PUSH20 0x4D6A45314C6A4D334D7941784D5463754D6A5130 0x49 GASLIMIT 0x4D PUSH8 0x4D6A45314C6A4931 0x4D PUSH10 0x41784D5463754E445177 0x4C PREVRANDAO 0x49 PUSH25 0x4E4334334E7A63674D5445334C6A59774D4377794D5451754D PUSH27 0x4534494445784E7934324D444167517941794D544D754F44553549 PREVRANDAO GASLIMIT PUSH25 0x4E7934324D4441734D6A45784C6A6B7A4E5341784D5463754F SLOAD SSTORE PUSH27 0x4C4449784D4334774E4449674D5445344C6A4D344D794244494449 PUSH24 0x4D6934314D6A41674D5449774C6A41354E6977784F546775 0x4D PREVRANDAO COINBASE PUSH27 0x494445794D4334304E6A59734D54677A4C6A67774D4341784D6A41 PUSH22 0x4E544D3249454D674D5463314C6A67344E5341784D6A COINBASE PUSH22 0x4E5463324C4445324E4334344E7A49674D5445354C6A MLOAD PUSH27 0x4D6977784E6A4D754F544577494445784F4334304E7A4167517941 PUSH25 0x4E6A4D754D7A4131494445784E7934344E6A55734D54597A4C PUSH11 0x41304D4341784D5463754F PREVRANDAO PUSH4 0x314C4445 CALLER 0x4E PUSH10 0x34794D4441674D544533 0x4C PUSH11 0x6B334F534244494445344D PUSH10 0x347A4E4455674D544534 0x4C PUSH11 0x41794F4377784F4463754E PUSH27 0x6332494445784E7934344F5445734D5467344C6A67774D4341784D SLOAD PUSH4 0x754E6A59 PUSH26 0x49454D674D5467354C6A63354D4341784D5463754E4451774C44 GASLIMIT CALLDATALOAD 0x4D PUSH10 0x34794D6A41674D544533 0x4C PUSH11 0x41314E4377784F5451754D PUSH11 0x4177494445784E6934344D PREVRANDAO MLOAD PUSH8 0x517941784F546775 0x4E SLOAD MLOAD PUSH27 0x494445784E6934794E5455734D6A41784C6A51774D6941784D5455 PUSH22 0x4E7A51304C4449774E4334324D4441674D5445304C6A PUSH12 0x304E534244494449774F4334 PUSH27 0x4D4455674D5445304C6A41784F5377794D5449754F544530494445 PUSH25 0x4D6934334D7A63734D6A457A4C6A67774D4341784D5449754D PUSH27 0x673349454D674D6A45304C6A49304D4341784D5449754D6A45794C PREVRANDAO 0x49 PUSH25 0x4E5334324F4441674D5445784C6A59324E7977794D5463754D PREVRANDAO COINBASE PUSH24 0x494445784D5334784E7A5567517941794D5467754D7A4977 0x49 PREVRANDAO GASLIMIT PUSH25 0x4D4334324F444D734D6A49774C6A45324D7941784D446B754F SLOAD MLOAD CALLER 0x4C PREVRANDAO 0x49 PUSH26 0x4D5334774F5459674D5441354C6A55304D434244494449794D69 CALLVALUE PUSH24 0x4D6A67674D5441354C6A457A4D7977794D6A49754F544532 0x49 PREVRANDAO GASLIMIT PUSH24 0x4F4334344D4441734D6A497A4C6A41324F4341784D446775 0x4F PREVRANDAO COINBASE PUSH24 0x49454D674D6A497A4C6A63774E7941784D4467754F444177 0x4C PREVRANDAO 0x49 PUSH26 0x4F43347A4F4463674D5441314C6A63324D6977794D6A67754D7A PUSH12 0x7A494445774E53347A4E444D PUSH8 0x517941794D6A6775 0x4E PREVRANDAO COINBASE BALANCE 0x49 PREVRANDAO GASLIMIT PUSH24 0x4E4334314E6A6B734D6A49334C6A4D794D7941784D445175 0x4E PREVRANDAO GASLIMIT CALLDATALOAD 0x4C PREVRANDAO 0x49 PUSH26 0x4E5334334D6A55674D5441304C6A6B334E434244494449794E43 CALLVALUE CALLVALUE 0x4F PREVRANDAO MSIZE PUSH8 0x4D5441314C6A4932 0x4E MSTORE8 PUSH24 0x794D6A4D754E446777494445774E5334334D6A49734D6A49 PUSH26 0x4C6A59774D4341784D4455754F54673549454D674D6A49784C6A PUSH4 0x794D4341 PUSH25 0x4D4459754D6A55334C4449784F5334344F5463674D5441324C PUSH11 0x6B774E5377794D5467754E SLOAD MLOAD CALLVALUE 0x49 PREVRANDAO GASLIMIT PUSH24 0x4E7934304D7A4567517941794D5463754D6A417749444577 0x4E PUSH26 0x34354E5463734D6A45314C6A41304D4341784D4467754E6A5579 0x4C PREVRANDAO 0x49 PUSH25 0x4D7934334E4467674D5441344C6A6B334E694244494449784D PUSH10 0x34304E5463674D544135 0x4C PUSH11 0x4D774D4377794D4467754F PREVRANDAO PUSH8 0x77494445784D4334 PUSH26 0x4D6A67734D6A41314C6A67774D4341784D5445754D444D334945 0x4D PUSH8 0x4D546B354C6A637A 0x4F NUMBER COINBASE PUSH25 0x4D5449754E6A49354C4445354E53347A4F4459674D54457A4C PUSH11 0x4D7A4E7977784F4463754E PUSH11 0x4177494445784D7934354F SLOAD MSIZE PUSH8 0x517941784F445175 0x4F PREVRANDAO SSTORE PUSH24 0x494445784E4334794D6A6B734D5467784C6A55794D434178 0x4D SLOAD MLOAD PUSH22 0x4E546B304C4445344D4334794D4441674D5445304C6A PUSH8 0x774E794244494445 CALLER 0x4E NUMBER CALLVALUE CALLER 0x4E SLOAD MLOAD PUSH8 0x4D5445314C6A5934 0x4E MSTORE8 PUSH24 0x784E6A4D754D545130494445784E4334324D7A45734D5455 CALLER 0x4C PUSH11 0x49344E6941784D5449754E PUSH27 0x493149454D674D5455774C6A49324E7941784D5441754E4451784C PREVRANDAO GASLIMIT ADDRESS 0x4E MSTORE8 CALLVALUE PUSH24 0x4E7A6B674D5445784C6A55354D5377784E444D754F546777 0x49 PREVRANDAO GASLIMIT PUSH25 0x4E5334324E7A5567517941784E4445754D444D34494445794E PUSH10 0x34314F546B734D545932 0x4C PUSH11 0x67784E7941784D7A51754E PUSH27 0x49334C4445354E4334304D4441674D544D784C6A55334D69424449 PREVRANDAO GASLIMIT CALLDATALOAD 0x4E PUSH10 0x34774E5441674D544D78 0x4C PUSH11 0x4D344D7977794D4445754D PUSH27 0x59774944457A4D4334354E5441734D6A41324C6A49774D4341784D PUSH27 0x41754E6A457749454D674D6A45354C6A63334D4341784D6A6B754E PUSH11 0x55314C4449794E7934354E PREVRANDAO 0x4D PUSH8 0x4D5449324C6A5532 0x4E MSTORE8 PUSH24 0x794D6A6B754F546B30494445794D5334324D545167517941 PUSH26 0x4D7A41754E545134494445794D4334794E7A63734D6A4D784C6A PUSH12 0x354D4341784D546B754F5445 PUSH24 0x4C44497A4D6934774D5451674D5449784C6A45774D434244 0x49 PREVRANDAO 0x49 PUSH27 0x4D6934774E5441674D5449794C6A67324F5377794D7A4D754F446B CALLER 0x49 PREVRANDAO GASLIMIT PUSH26 0x4E5334344E7A6B734D6A4D304C6A49774F4341784D6A51754E6A PUSH4 0x3249454D PUSH8 0x4D6A4D304C6A6377 0x4D NUMBER COINBASE PUSH25 0x4D6A49754E7A63314C44497A4E4334784F4441674D5449774C PUSH11 0x45784D6977794D7A4D754D PREVRANDAO 0x49 PUSH26 0x494445784F4334314F544D67517941794D7A49754D4463304944 GASLIMIT PUSH25 0x4E79347A4E5445734D6A4D784C6A6B354E4341784D5463754D PREVRANDAO 0x49 BALANCE 0x4C PREVRANDAO 0x49 PUSH27 0x4D69347A4E6A41674D5445314C6A67354D4342444944497A4D6934 BALANCE 0x4F PREVRANDAO PUSH12 0x674D5445314C6A45344D5377 PUSH26 0x4D7A49754F444532494445784D6934304E6A4D734D6A4D794C6A PUSH8 0x324E5341784D446B PUSH22 0x4F44557849454D674D6A4D794C6A6B314F4341784D44 MLOAD PUSH22 0x4F544D304C44497A4D6934344D5467674D5441304C6A MLOAD CALLER 0x4E PUSH26 0x77794D7A45754D44517A494445774D7934344F44416751794179 0x4D PUSH27 0x41754E7A4931494445774D7934334E7A4D734D6A4D774C6A63304D MSTORE8 COINBASE PUSH25 0x4D444D754D7A4D324C44497A4D5334784D4441674D5441794C PUSH11 0x4D7A4E7942444944497A4D MSTORE8 CALLVALUE CALLDATALOAD 0x4D PUSH27 0x49674D5441774C6A41784E6977794D7A45754D54673049446B304C PUSH11 0x51304E5377794D6A6B754F PREVRANDAO 0x49 PUSH24 0x49446B794C6A67774D434244494449794F5334314E445967 0x4F SLOAD 0x49 PUSH22 0x4E4463774C4449794F5334794D5441674F5445754F44 PUSH8 0x314C4449794F5334 PUSH24 0x4E7A4D674F5445754E54417749454D674D6A49344C6A6B7A 0x4E PUSH26 0x41354D5334784D5455734D6A49344C6A59314E4341354D433434 0x4D PREVRANDAO COINBASE PUSH20 0x4D6A49344C6A51304E5341354D4334344D444167 MLOAD PUSH26 0x41794D6A67754D6A4D3249446B774C6A67774D4377794D6A6375 0x4E PUSH11 0x633249446B774C6A45334D NUMBER PUSH24 0x794D6A63754D6A4177494467354C6A51774D434244494449 PUSH26 0x4E6934334D6A51674F4467754E6A4D774C4449794E6934774F44 0x49 PUSH8 0x4F4467754D444177 0x4C PREVRANDAO 0x49 PUSH26 0x4E5334334E7A4D674F4467754D44417749454D674D6A49314C6A MLOAD ORIGIN 0x4E NUMBER COINBASE CALLVALUE 0x4F NUMBER CALLVALUE PUSH24 0x4D4441734D6A49304C6A41314E4341344E6934344E7A5573 0x4D PUSH11 0x49794C6A59304D4341344E MSTORE8 CALLVALUE BALANCE 0x4D PREVRANDAO COINBASE PUSH8 0x517941794D6A4575 0x4D PUSH11 0x4933494467304C6A45794E MSTORE8 PUSH24 0x794D546B754E444930494467794C6A51314F5377794D5467 PUSH22 0x4E6A4D30494467784C6A63354E79424D494449784E79 CALLVALUE PUSH25 0x4F5467674F4441754E546B31494449784E7934354F546B674E PUSH27 0x67754E44417A49454D674D6A45354C6A45784E7941334E53347A4E PREVRANDAO SSTORE PUSH20 0x4D6A45354C6A41324E5341334E4334354D444173 0x4D PUSH11 0x45334C6A59784E5341334E MSTORE8 CALLVALUE PUSH25 0x4D544D67517941794D5459754F445931494463314C6A49794D PUSH26 0x77794D5459754D546B7A494463314C6A41314D4377794D545575 0x4E PUSH27 0x6732494463304C6A59304D794244494449784E53347A4E444D674E PUSH27 0x51754D6A41774C4449784E4334304D6A45674E7A51754D4441774C PREVRANDAO 0x49 PUSH25 0x4D6934344D6A63674E7A51754D44417749454D674D6A45784C PUSH11 0x55314E4341334E4334774D PREVRANDAO COINBASE PUSH20 0x4D6A41354C6A63794D6941334D7934354D544973 0x4D PUSH11 0x41344C6A63314E6941334D PUSH26 0x34344D445567517941794D4463754E7A6B774944637A4C6A5935 0x4F NUMBER PUSH24 0x794D4459754E6A51774944637A4C6A63324E6977794D4459 PUSH22 0x4D6A41774944637A4C6A6B314E53424E4D6A45314C6A PUSH12 0x304E7941334E69347A4E4459 PUSH8 0x517941794D546375 0x4D PUSH27 0x5530494463334C6A51794F4377794D5451754E7A6379494467794C PUSH11 0x49304E7977794D5449754D PUSH27 0x63344944677A4C6A41774E794244494449784D5334354D446B674F PREVRANDAO 0x4D PUSH22 0x4D5455324C4449784D4334334E7A63674F444D754E7A MSIZE CALLER 0x4C PREVRANDAO 0x49 PUSH24 0x4F5334344E6A49674F4451754D7A593149454D674D6A417A 0x4C PUSH11 0x55784F4341344F4334314D SLOAD MSIZE PUSH20 0x4D546B304C6A49324D7941344F4334304E444D73 0x4D SLOAD PUSH8 0x354C6A59354E4341 CALLVALUE 0x4E NUMBER CALLVALUE PUSH26 0x4D446367517941784F4463754E6A4977494467794C6A49344D79 PUSH24 0x784F5441754D7A5530494467774C6A55304F4377784F544D PUSH22 0x4D546731494467784C6A6B354D694244494445354E79 CALLVALUE CALLER 0x4D PUSH11 0x59674F4451754D7A41354C PREVRANDAO 0x49 PUSH24 0x4D6934314D5455674F4449754E7A55344C4449774E693479 0x4E SLOAD GASLIMIT PUSH8 0x4E7A63754E7A5979 0x49 GASLIMIT 0x4D PUSH8 0x4D6A41334C6A5933 0x4E MSTORE8 COINBASE CALLER 0x4E MSTORE8 CALLVALUE CALLVALUE 0x4E SLOAD PUSH4 0x734D6A45 ADDRESS 0x4C PUSH11 0x41354D6941334E4334354D SLOAD PUSH12 0x734D6A45314C6A6B304E7941 CALLER 0x4E PUSH10 0x347A4E44596754544533 0x4E PUSH10 0x34314F4441674F444575 0x4E SLOAD PUSH12 0x7849454D674D5467794C6A55 CALLDATALOAD 0x4F NUMBER COINBASE CALLVALUE 0x4E NUMBER CALLVALUE PUSH27 0x4D7A49734D54637A4C6A67304E7941354D6934774D6A59734D5459 ADDRESS 0x4C PUSH11 0x41774D4341354D6934324E SLOAD GASLIMIT PUSH8 0x517941784E546B75 0x4D PUSH27 0x513149446B794C6A6B304E6977784E5445754E444D7849446B794C PUSH11 0x417A4F5377784E4467754D PUSH11 0x417749446B774C6A67304D MSTORE8 TIMESTAMP PREVRANDAO 0x49 PREVRANDAO GASLIMIT ADDRESS 0x4E PUSH26 0x34314E4441674F5441754E546B324C4445304E6934794E7A5167 0x4F SLOAD COINBASE PUSH22 0x4D6A49774C4445304E53347A4F4467674F5441754D44 COINBASE ORIGIN 0x49 GASLIMIT 0x4D PUSH8 0x4D5451784C6A6330 0x4E PUSH26 0x41344F5334784D6A59734D5451784C6A59314D6941344E793435 0x4D PUSH27 0x49734D5451314C6A41354E4341344E69347A4D545167544341784E PREVRANDAO MSIZE PUSH22 0x4F444D7A494467314C6A51354E7941784E446B754E7A GASLIMIT ORIGIN 0x49 PREVRANDAO PUSH8 0x324C6A67304F4342 PREVRANDAO 0x49 PREVRANDAO GASLIMIT BALANCE 0x4E PUSH10 0x34314D544D674F544175 0x4D PREVRANDAO 0x4D ADDRESS 0x4C PREVRANDAO GASLIMIT ORIGIN 0x4D PUSH10 0x347A4E6A59674F446775 0x4E PUSH11 0x41784C4445324E6934354D PUSH27 0x6B674F4449754E6A4D7949454D674D5459344C6A67794D6941344D NUMBER CALLVALUE PUSH25 0x4E7A4D734D5463794C6A55334F4341334F5334334E6A67734D SLOAD PUSH4 0x324C6A55 CALLVALUE 0x4D NUMBER COINBASE CALLVALUE 0x4D MSTORE8 CALLVALUE BALANCE 0x4F SLOAD GASLIMIT PUSH8 0x545445784D693435 0x4D PREVRANDAO COINBASE PUSH8 0x4F544D754D545130 0x49 GASLIMIT 0x4D PUSH8 0x4D5445794C6A5177 0x4E MSTORE8 COINBASE CALLDATALOAD 0x4D PUSH26 0x34344D5463734D5445794C6A41774D4341354E4334344D6A4573 0x4D SLOAD GASLIMIT PUSH26 0x4C6A41774D4341354E53347A4E7A5967517941784D5449754D44 COINBASE PUSH24 0x49446B314C6A6B7A4D4377784D5445754E7A557749446B33 0x4C PUSH11 0x41324D6977784D5445754E PREVRANDAO MLOAD BALANCE 0x49 PREVRANDAO PUSH12 0x334C6A67354D694244494445 PUSH25 0x4D4334354D6A55674F546B754D7A41334C4445784D4334324D PUSH11 0x49674D5441774C6A6B324D NUMBER PUSH24 0x784D446B754E546331494445774F4334784D444167517941 PUSH25 0x4D446B754D7A5178494445774F5334324F5455734D5441344C PUSH11 0x6B314D6941784D5445754E PUSH11 0x4D774C4445774F4334334D PREVRANDAO PUSH12 0x674D5445794C6A51774D4342 PREVRANDAO 0x49 PREVRANDAO GASLIMIT PUSH24 0x4F4334304E6A63674D54457A4C6A45334D4377784D446775 0x4D SLOAD GASLIMIT CALLDATALOAD 0x49 PREVRANDAO GASLIMIT PUSH25 0x4E6934794D7A41734D5441334C6A6B7A4E7941784D546B754D PUSH11 0x417749454D674D5441334C PUSH11 0x63314E4341784D6A49754D SLOAD PUSH4 0x774C4445 PUSH24 0x4E7934304D7A6B674D5449324C6A49794D4377784D446375 0x4D PUSH11 0x4D33494445794F4334794D PREVRANDAO COINBASE PUSH8 0x517941784D446375 0x4D PREVRANDAO 0x4D BALANCE 0x49 PREVRANDAO GASLIMIT PUSH27 0x4D4334784F4441734D5441324C6A67314E4341784D7A4D754E4449 PUSH27 0x4C4445774E6934344D7A55674D544D314C6A51774E69424D494445 PUSH24 0x4E6934344D4441674D544D354C6A41784D5341784D445175 0x4E PUSH27 0x41774944457A4F5334354E445167517941784D444D754E54513149 PREVRANDAO GASLIMIT ADDRESS 0x4D NUMBER CALLVALUE ADDRESS 0x4E SLOAD PUSH4 0x734D5441 PUSH26 0x4C6A49354D7941784E4445754D444D334C4445774D5334354D54 PUSH4 0x674D5451 PUSH25 0x4C6A497A4D534244494445774D5334314E4449674D5451784C PUSH11 0x51794E6977784D4441754E SLOAD GASLIMIT PUSH24 0x494445304D5334334D4445734F546B754E6A493149444530 0x4D MSTORE8 CALLVALUE CALLVALUE 0x4E PREVRANDAO 0x49 PUSH8 0x517941354F433433 0x4E PREVRANDAO COINBASE PUSH8 0x4D5451784C6A6B34 0x4E NUMBER PUSH24 0x354E7934344D5441674D5451794C6A4D304E7977354E7934 BALANCE 0x4E SLOAD PUSH12 0x674D5451794C6A59314D4342 PREVRANDAO 0x49 PREVRANDAO PUSH12 0x334C6A4D774E7941784E4449 PUSH22 0x4F5455794C446B324C6A59344E4341784E444D754D6A COINBASE PUSH24 0x4C446B324C6A45334D6941784E444D754D6A417749454D67 0x4F SLOAD SSTORE PUSH22 0x4E6A5978494445304D7934794D4441734F5451754D54 0x4D ADDRESS 0x49 PREVRANDAO GASLIMIT ADDRESS 0x4D PUSH26 0x34344E7A55734F5449754E7A6335494445304E4334334D444167 MLOAD PUSH26 0x41354D5334304D6A51674D5451314C6A55794E5377344F533434 0x4E SLOAD SSTORE PUSH8 0x4D5451324C6A5130 0x4F MSTORE8 PUSH24 0x344F5334794F5449674D5451324C6A63314D794244494467 CALLVALUE 0x4C PUSH11 0x63794F5341784E4463754D PREVRANDAO SSTORE CALLER 0x4C PREVRANDAO PUSH8 0x334C6A63344D4341 PUSH25 0x4E4463754F4441334C4467334C6A45344D7941784E4467754E PREVRANDAO GASLIMIT CALLVALUE 0x49 GASLIMIT 0x4D PUSH8 0x4F4459754E546731 0x49 PREVRANDAO GASLIMIT ADDRESS 0x4F MSTORE8 CALLVALUE PUSH24 0x4D6A6B734F4455754D7A4D33494445314D4334774D446773 0x4F PREVRANDAO MLOAD PUSH22 0x4E444577494445314D4334314F544D67517941344D79 CALLVALUE ADDRESS 0x4F PREVRANDAO 0x4D PUSH8 0x4D5455784C6A4533 0x4F MSTORE8 PUSH24 0x344D5334304D7A63674D5455794C6A6B794E5377334F5334 CALLVALUE 0x4E PUSH11 0x49674D5455304C6A51334E NUMBER TIMESTAMP PREVRANDAO 0x49 PREVRANDAO PUSH4 0x344C6A49 CALLVALUE 0x4F NUMBER COINBASE PUSH25 0x4E5459754D4449794C4463324C6A41784D4341784E5467754D PREVRANDAO GASLIMIT PUSH27 0x4C4463304C6A67774D4341784E5467754F446B3349454D674E7A49 PUSH22 0x4D44417A494445324D4334354E4441734E6A55754E54 PUSH8 0x33494445324E7934 PUSH25 0x4F5441734E6A4D754E6A4132494445324F5334344D44416751 PUSH26 0x41324D4334784E6A55674D5463304C6A4D7A4E6977314F433477 0x4D PREVRANDAO COINBASE PUSH8 0x4D5463314C6A6B35 0x4E PUSH10 0x77314E5334314D6A5167 0x4D SLOAD PUSH4 0x314C6A6B CALLDATALOAD 0x4F MSTORE8 TIMESTAMP PREVRANDAO 0x49 PREVRANDAO SSTORE ADDRESS 0x4C PUSH11 0x63784D6941784E7A55754F SLOAD PUSH12 0x354C44557A4C6A6B304E6941 PUSH25 0x4E7A59754D5459304C44557A4C6A67794D6941784E7A59754D PUSH27 0x593149454D674E544D754E6A6B33494445334E6934314E6A59734E SLOAD 0x49 PUSH22 0x4F446334494445334E6934344E5449734E5449754D44 COINBASE PUSH24 0x494445334E7934774D444167517941314D5334784D6A4967 0x4D SLOAD PUSH4 0x334C6A45 ADDRESS 0x4F NUMBER PUSH24 0x314D43347A4D5459674D5463334C6A51784D7977314D4334 PUSH26 0x4D4463674D5463334C6A55344F434244494455774C6A41354F53 COINBASE PUSH25 0x4E7A63754E7A597A4C4451344C6A6B334F4341784E7A67754D PREVRANDAO 0x4D ORIGIN 0x4C PREVRANDAO MLOAD CALLER 0x4C PUSH11 0x63784E6941784E7A67754D SLOAD PUSH12 0x7A49454D674E4459754E4455 ADDRESS 0x49 PREVRANDAO GASLIMIT CALLER 0x4F NUMBER CALLVALUE PUSH27 0x4E5445734E4455754D445978494445334F4334334D7A49734E4451 PUSH22 0x4E6A4979494445334F5334774E444167517941304E43 CALLVALUE PUSH25 0x4F4449674D5463354C6A4D304F4377304D7934304E5463674D SLOAD PUSH4 0x354C6A59 PUSH24 0x4E6977304D7934774D5445674D5463354C6A59784D794244 0x49 PREVRANDAO MLOAD PUSH26 0x4C6A55324E5341784E7A6B754E6A49774C4451784C6A67314D53 COINBASE PUSH25 0x4E7A6B754F446B774C4451784C6A51794E4341784F4441754D PUSH11 0x457A49454D674E4441754F SLOAD PUSH12 0x32494445344D4334314D7A59 PUSH20 0x4E4441754D544979494445344D4334344D444173 0x4D PUSH27 0x6B754E446777494445344D4334344D4441675179417A4F4334344D PUSH27 0x63674D5467774C6A67774D43777A4E7934794D4463674D5467784C PUSH11 0x4D314E69777A4E5334344E SLOAD MSIZE PUSH8 0x4D5467794C6A417A 0x4E PUSH10 0x424449444D7A4C6A4930 0x4E MSTORE8 COINBASE PUSH25 0x4F444D754D7A55774C444D784C6A6B324E7941784F444D754F SLOAD 0x4D CALLVALUE 0x4C PREVRANDAO 0x49 CALLDATALOAD 0x4C PUSH11 0x51774D4341784F4455754D PREVRANDAO COINBASE CALLER 0x49 GASLIMIT 0x4D PUSH8 0x4D6A67754E544977 0x49 PREVRANDAO GASLIMIT CALLVALUE 0x4E MSTORE8 CALLVALUE PUSH27 0x4E7A4D734D6A63754D445977494445344E6934774D5463734D6A59 PUSH22 0x4D545532494445344E6934304D7A6367517941794E53 CALLVALUE PUSH26 0x4E5449674D5467324C6A67314E6977794E4334794D7A6B674D54 PUSH8 0x334C6A49774D4377 PUSH26 0x4D7934354D4455674D5467334C6A49774D4342444944497A4C6A SSTORE CALLER 0x4D MSTORE8 COINBASE PUSH25 0x4F4463754D6A41774C44497A4C6A41334E4341784F4463754E PREVRANDAO PUSH4 0x774C4449 PUSH26 0x4C6A67774D4341784F4463754F44417749454D674D6A49754E54 0x49 ORIGIN 0x49 PREVRANDAO GASLIMIT CALLVALUE 0x4F NUMBER CALLVALUE PUSH25 0x4D7A41734D6A49754D445535494445344F4334304D4441734D PUSH11 0x45754E7A597A494445344F NUMBER CALLVALUE ADDRESS 0x4D PREVRANDAO COINBASE PUSH8 0x517941794D533430 0x4E PUSH11 0x59674D5467344C6A51774D NUMBER PUSH24 0x784F5334344E544D674D5467354C6A49784D4377784F4334 PUSH25 0x4E7A67674D546B774C6A49774D434244494445324C6A55774E NUMBER COINBASE PUSH25 0x4F5445754D546B774C4445314C6A41324D5341784F5449754D PREVRANDAO COINBASE PUSH24 0x4C4445304C6A6B334D5341784F5449754D44417749454D67 0x4D SLOAD MLOAD PUSH22 0x4E7A6378494445354D6934774D4441734D5441754F54 MLOAD PUSH24 0x494445354E4334324E6A59734F53347A4E5463674D546B31 0x4C PUSH11 0x6B774E694244494467754E PUSH27 0x4978494445354E6934304D4455734E7934324E444D674D546B334C PUSH11 0x49784E5377324C6A6B324D PUSH26 0x41784F5463754E7A413249454D674E4334344F5441674D546B35 0x4C PUSH11 0x49774D7977794C6A67774D NUMBER COINBASE PUSH26 0x4D4445754D5455794C4449754F444177494449774D5334314F44 PUSH8 0x67517941794C6A67 PUSH24 0x4D4341794D4445754F4445314C4449754E54633149444977 0x4D PUSH10 0x34774D4459734D69347A 0x4D PREVRANDAO COINBASE PUSH8 0x4D6A41794C6A4178 0x4D PUSH26 0x4244494445754D7A4931494449774D6934774D7A6B734D433477 0x4D PREVRANDAO COINBASE PUSH8 0x4D6A417A4C6A5579 0x4F NUMBER PUSH24 0x744D4334774D4441674D6A41304C6A55354F43424D494330 PUSH24 0x4C6A41774D4341794D4455754E6A5933494445754E7A4177 0x49 PREVRANDAO 0x49 PUSH24 0x4E43347A4D7A6367517941794C6A597A4E5341794D444D75 0x4E PUSH11 0x41314C444D754E44597749 PREVRANDAO 0x49 PUSH24 0x4D6934344E7A41734D7934314D7A4D674D6A41794C6A6377 0x4D PUSH26 0x424449444D754E6A4133494449774D6934314D7A59734D793434 0x4E PREVRANDAO MSIZE PUSH8 0x4D6A41794C6A5177 0x4D NUMBER PUSH24 0x304C6A41324E6941794D4449754E44417749454D674E4334 PUSH26 0x4F4459674D6A41794C6A51774D4377314C6A49784E6941794D44 GASLIMIT PUSH22 0x4E7A6B774C4459754D544D7A494449774D5334774E44 SSTORE PUSH8 0x517941334C6A4131 0x4D NUMBER COINBASE PUSH26 0x4D4441754D7A41774C4467754E444D77494445354F53347A4E54 SSTORE PUSH20 0x4F5334794D4441674D546B344C6A6B304E534244 0x49 PREVRANDAO PUSH12 0x754F546377494445354F4334 BALANCE 0x4D PUSH27 0x55734D5445754D6A4D78494445354E7934334D5463734D5449754D PREVRANDAO COINBASE PUSH26 0x494445354E7934784D6A6367517941784D6934334E7A4D674D54 PUSH12 0x324C6A557A4F4377784D7934 CALLVALUE 0x4E SLOAD 0x4D PUSH8 0x4D546B314C6A6732 0x4E PUSH26 0x77784E4334304D4449674D546B314C6A597A4E79424449444530 0x4C PUSH11 0x6B314D5341784F5455754E PREVRANDAO COINBASE CALLVALUE 0x4C PREVRANDAO GASLIMIT ORIGIN 0x4C PUSH11 0x6B7A4D4341784F5451754D PUSH11 0x4D794C4445344C6A67774D NUMBER COINBASE PUSH25 0x4F544D754D44493049454D674D6A49754E444134494445354D NUMBER CALLVALUE ORIGIN 0x4F SLOAD MLOAD PUSH20 0x4D7A49754D445130494445344E5334324D446B73 0x4D PUSH27 0x49754F446B30494445344E5334314F4459675179417A4D7934784E PUSH27 0x49674D5467314C6A55334F53777A4E4334784D6A41674D5467314C PUSH11 0x49794E53777A4E5334774D PREVRANDAO COINBASE PUSH8 0x4D5467304C6A6777 0x4D NUMBER TIMESTAMP PREVRANDAO 0x49 PREVRANDAO 0x4D BALANCE 0x4C PUSH11 0x67344D4341784F4451754D PUSH27 0x63314C444D324C6A67344D5341784F4451754D4449784C444D334C PUSH11 0x49794E5341784F4451754D PREVRANDAO GASLIMIT ADDRESS 0x49 GASLIMIT 0x4D PUSH8 0x4D7A63754E545935 0x49 PREVRANDAO GASLIMIT CALLVALUE 0x4E NUMBER CALLVALUE PUSH24 0x4D4459734D7A67754E7A677A494445344D7934314E544173 0x4D PUSH27 0x6B754F54497A494445344D7934774D444167517941304D5334774E PUSH11 0x4D674D5467794C6A51314D NUMBER PUSH24 0x304D6934784F5455674D5467794C6A41774D4377304D6934 ADDRESS 0x4D PUSH27 0x6B674D5467794C6A41774D434244494451794C6A59344D7941784F PREVRANDAO 0x49 PUSH22 0x4D4441774C4451304C6A517A4F5341784F4445754E44 PUSH8 0x784C4451324C6A4D ADDRESS 0x4D MSTORE8 COINBASE PUSH25 0x4F4441754F44513349454D674E5445754D6A5133494445334F MSTORE8 CALLVALUE PUSH26 0x4D5449734E5459754D544D32494445334F4334774D4441734E54 PUSH4 0x754F4449 CALLVALUE 0x49 PREVRANDAO GASLIMIT CALLER 0x4F NUMBER CALLVALUE PUSH24 0x4D444167517941314F5334304E7A51674D5463344C6A4177 0x4D NUMBER PUSH24 0x324D5334314F5467674D5463324C6A59354D6977324D5334 ORIGIN 0x4D PREVRANDAO SSTORE PUSH8 0x4D5463314C6A5933 0x4D PUSH26 0x4244494459784C6A59784D4341784E7A51754F546B774C445930 0x4C PUSH11 0x49314E4341784E7A49754D PUSH11 0x41334C44637A4C6A51334D PUSH26 0x41784E6A4D754D54677849454D674E7A6B754E6A673049444531 0x4E PUSH26 0x34784D4445734F4459754D7A6332494445314D5334354D6A4D73 0x4F PREVRANDAO PUSH12 0x754F445533494445314D4334 BALANCE 0x4D PREVRANDAO 0x4D PUSH8 0x517941354D433479 0x4E PUSH11 0x59674D5455774C6A4D7A4E PUSH10 0x77354D5334304D544167 0x4D SLOAD MLOAD CALLDATALOAD 0x4C PUSH11 0x59334D4377354D6934304D PREVRANDAO COINBASE PUSH8 0x4D5451354C6A4179 0x4D PUSH10 0x424449446B344C6A417A 0x4E PUSH10 0x41784E4455754D7A4D31 0x4C PREVRANDAO PUSH12 0x354C6A55304D6941784E4451 PUSH22 0x4D7A6B354C446B354C6A67314E4341784E4451754D7A PUSH8 0x3349454D674D5441 PUSH24 0x4C6A41304E4341784E4451754D7A67784C4445774D533478 0x4D PREVRANDAO COINBASE PUSH8 0x4D54517A4C6A6B7A 0x4D PUSH10 0x77784D4449754D6A4177 0x49 PREVRANDAO GASLIMIT ADDRESS 0x4D PUSH26 0x347A4F544567517941784D4455754D6A4D77494445304D533435 0x4D PREVRANDAO GASLIMIT PUSH20 0x4D5441324C6A67774D4341784E4449754D6A4130 0x4C PREVRANDAO GASLIMIT PUSH24 0x4E6934344D4441674D5451304C6A49344D43424449444577 0x4E PUSH10 0x34344D4441674D545131 0x4C PUSH11 0x49304D4377784D4463754D PREVRANDAO PUSH4 0x31494445 ADDRESS 0x4E MSTORE8 CALLVALUE PUSH27 0x4F5455734D5441334C6A67334E6941784E4451754F44673149454D PUSH8 0x4D5441344C6A5535 0x4D PUSH10 0x41784E4451754E444D77 0x4C PREVRANDAO GASLIMIT PUSH24 0x4F4334344E4451674D5451794C6A63794D6977784D446B75 0x4D PREVRANDAO 0x4D CALLVALUE 0x49 PREVRANDAO GASLIMIT PUSH27 0x4E7934774D444167517941784D446B754D544D314944457A4E4334 PUSH25 0x4E4441734D5441354C6A51344D5341784D7A41754E546B304C PREVRANDAO GASLIMIT PUSH24 0x4F5334344D4463674D5449354C6A45794D53424449444578 0x4D NUMBER CALLVALUE PUSH25 0x4D7A4D674D5449334C6A59304F4377784D5441754E44417749 PREVRANDAO GASLIMIT PUSH26 0x4E5334774F5451734D5445774C6A51774D4341784D6A4D754E44 MLOAD CALLER 0x49 GASLIMIT 0x4D PUSH8 0x4D5445774C6A5177 0x4D NUMBER COINBASE PUSH25 0x4D6A45754F4441774C4445784D4334314F4463674D5445354C PUSH11 0x6B324D5377784D5441754F PREVRANDAO GASLIMIT BALANCE 0x49 PREVRANDAO GASLIMIT PUSH25 0x4F53347A4E6A4567517941784D5445754D44517A494445784F NUMBER CALLVALUE CALLER 0x4E PUSH11 0x45734D5445784C6A4D784E NUMBER COINBASE PUSH25 0x4D5459754D7A6B314C4445784D5334304D5467674D5445304C PUSH11 0x45774E434244494445784D MSTORE8 CALLVALUE BALANCE 0x4D PUSH11 0x45674D5445784C6A67784D PUSH26 0x77784D5445754F445534494445774F4334324E4467734D544579 0x4C PUSH11 0x45324E7941784D4463754D PREVRANDAO MSIZE CALLDATALOAD 0x49 GASLIMIT 0x4D PUSH8 0x4D5445794C6A5133 0x4E MSTORE8 COINBASE PUSH25 0x4D4455754E446B784C4445784D6934344D7A67674D5441794C PUSH11 0x67334D5377784D5449754F SLOAD PUSH4 0x79494445 PUSH24 0x4D5334794E445967517941784D544D754D54413249446B35 0x4C PUSH11 0x59794D6977784D544D754E PREVRANDAO COINBASE BALANCE 0x49 PREVRANDAO PUSH12 0x334C6A55304D4377784D544D PUSH22 0x4E6A4D3249446B324C6A59794D534244494445784D79 CALLVALUE CALLVALUE 0x4E PUSH11 0x67674F5455754E7A41794C PREVRANDAO GASLIMIT PUSH25 0x4D7934354F546B674F5451754D6A59344C4445784D7934354D PUSH11 0x6B674F544D754E444D3149 GASLIMIT PUSH24 0x674D54457A4C6A67774D4341354D5334354D6A41674D5445 PUSH26 0x4C6A6B774D4341354D7934784E445167545445794E43347A4D44 PUSH8 0x674D54417A4C6A41 CALLER 0x4E NUMBER TIMESTAMP PREVRANDAO 0x49 PREVRANDAO GASLIMIT PUSH26 0x4D7934344F546B674D54417A4C6A45344D5377784D6A4D754E44 0x4D PUSH24 0x494445774D7934354E4449734D54497A4C6A45324D794178 0x4D PREVRANDAO MLOAD PUSH22 0x4F54493449454D674D5449794C6A6B784E4341784D44 SSTORE PUSH22 0x4F4451344C4445794D6934314D544D674D5441334C6A GASLIMIT PUSH27 0x4D7977784D6A49754D6A6379494445774E7934334F445167517941 PUSH25 0x4D6A45754E7A4D34494445774F5334794D6A59734D5449784C PUSH11 0x67774E5341784D544D754D PUSH11 0x67344C4445794D69347A4F PREVRANDAO GASLIMIT PUSH8 0x4D5445304C6A4D32 0x4E NUMBER TIMESTAMP PREVRANDAO 0x49 PREVRANDAO GASLIMIT PUSH26 0x4D6934324D5445674D5445304C6A63354E5377784D6A49754F44 COINBASE PUSH24 0x494445784E5334344E5459734D5449794C6A67774D434178 0x4D SLOAD MSIZE PUSH22 0x4E7A497949454D674D5449794C6A67774D4341784D6A GASLIMIT PUSH22 0x4D54497A4C4445794E7934304D6A63674D544D784C6A 0x4D PUSH25 0x4E7977784D6A6B754E5445354944457A4D5334314D6A516751 PUSH26 0x41784D7A45754E544D304944457A4D5334334D6A51734D544D78 0x4C PUSH11 0x55324E5341784D7A41754D PUSH27 0x67304C4445794F5334324D7A6B674D5449324C6A4D7A4D43424449 PREVRANDAO GASLIMIT PUSH26 0x4F4334334E5445674D5449304C6A51324D4377784D6A63754E7A MSIZE PUSH26 0x494445794D5334354D6A55734D5449334C6A51304D6941784D6A COINBASE PUSH22 0x4E6A6B3349454D674D5449334C6A45794D6941784D54 PUSH12 0x754E4459354C4445794E6934 BALANCE 0x4D PUSH27 0x51674D5445334C6A6B324E5377784D6A59754D544D30494445784E PUSH26 0x347A4E545567517941784D6A55754D444D78494445784E533432 0x4E PUSH27 0x49734D5449304C6A67314D4341784D4467754D7A51354C4445794E MSTORE8 CALLVALUE CALLVALUE 0x4E PREVRANDAO 0x4D PUSH8 0x4D5441314C6A5534 0x4F NUMBER TIMESTAMP PREVRANDAO 0x49 PREVRANDAO GASLIMIT PUSH26 0x4E6934314E4445674D54417A4C6A59304F4377784D6A59754D7A COINBASE PUSH25 0x494445774D6934324D7A45734D5449314C6A49774D4341784D PREVRANDAO 0x49 PUSH22 0x4F44557A49454D674D5449314C6A41354D4341784D44 0x49 PUSH22 0x4F4463314C4445794E4334324F4467674D5441794C6A PUSH12 0x334E4377784D6A51754D7A41 CALLVALUE 0x49 PREVRANDAO GASLIMIT PUSH24 0x4D7934774E7A51675454497A4E4334354D6A67674D544935 0x4C PUSH11 0x51784D5342444944497A4E MSTORE8 CALLVALUE PUSH24 0x4E6A49674D544D774C6A67304E6977794D7A55754E54517A 0x49 PREVRANDAO GASLIMIT PUSH27 0x4D6934344E6A45734D6A4D314C6A6B354E7941784D7A4D754F4467 CALLER 0x49 GASLIMIT 0x4D PUSH8 0x4D6A4D324C6A5131 0x4D MSTORE8 COINBASE PUSH25 0x4D7A51754F54457A4C44497A4E7934774F446B674D544D334C PUSH11 0x49334F4377794D7A63754E PREVRANDAO GASLIMIT ADDRESS 0x49 PREVRANDAO GASLIMIT PUSH27 0x4F5334784E444967517941794D7A67754D546331494445304D7934 BALANCE 0x4D PREVRANDAO PUSH4 0x734D6A4D CALLVALUE 0x4C PUSH11 0x63784F5341784E4455754E SLOAD COINBASE PUSH27 0x4C44497A4F5334794D7A59674D5451314C6A67794D694244494449 PUSH27 0x4F5334354D4467674D5451324C6A497A4E7977794E4441754E4451 PUSH26 0x494445304E7934354F4449734D6A51784C6A41774E5341784E54 GASLIMIT PUSH22 0x4E6A417749454D674D6A51784C6A49354E7941784E54 0x4D PUSH22 0x4E4463774C4449304D5334354D446B674D5455324C6A PUSH8 0x354D4377794E4449 PUSH22 0x4D7A5933494445314F5334794D444167517941794E44 0x49 PUSH22 0x4F444931494445324D5334314D5441734D6A517A4C6A MLOAD PUSH24 0x4E4341784E6A51754E444D7A4C4449304D7934324E545167 0x4D SLOAD MSIZE BALANCE 0x4C PUSH11 0x59354E694244494449304E NUMBER CALLVALUE PUSH26 0x4D5449674D5459344C6A55794D4377794E4451754F4463354944 GASLIMIT ORIGIN 0x4F MSTORE8 CALLVALUE PUSH26 0x4D5451734D6A51324C6A417A4D6941784E6A67754D5463784945 0x4D PUSH8 0x4D6A51324C6A5532 0x4F NUMBER COINBASE PUSH25 0x4E6A63754E6A67324C4449304E6934334E6A67674D5459334C PUSH11 0x45314D5377794E4459754E PUSH11 0x457A494445324E6934324D SLOAD MSIZE PUSH8 0x517941794E445975 0x4E PREVRANDAO PUSH8 0x30494445324E6934 PUSH25 0x4E6A63734D6A51324C6A417A4D4341784E6A4D754E7A4D774C PREVRANDAO 0x49 ADDRESS 0x4E MSTORE8 CALLVALUE ORIGIN 0x4D PREVRANDAO SSTORE PUSH8 0x4D5459784C6A4977 0x4D NUMBER TIMESTAMP PREVRANDAO 0x49 PREVRANDAO 0x49 ADDRESS 0x4E NUMBER CALLVALUE BALANCE 0x4D SLOAD PUSH8 0x674D5455304C6A63 PUSH27 0x4E5377794E4449754F444D31494445304E7934784D6A51734D6A51 PUSH26 0x4C6A4D324E7941784E4459754E54597749454D674D6A51784C6A MSIZE ORIGIN 0x4F NUMBER COINBASE PUSH25 0x4E4455754E7A45344C4449304D5334304D4455674D5451794C PUSH11 0x41774D4377794E4449754D PREVRANDAO MLOAD ADDRESS 0x49 PREVRANDAO GASLIMIT ADDRESS 0x4D PUSH10 0x34774D44416751794179 0x4E PREVRANDAO 0x49 PUSH22 0x4E7A4534494445304D6934774D4445734D6A51324C6A 0x49 ADDRESS 0x4F MSTORE8 COINBASE PUSH25 0x4E444D754D7A45324C4449304E6934324E4467674D54517A4C PUSH11 0x63784E534244494449304E PUSH10 0x34344D4455674D54517A 0x4C PUSH11 0x67334D6977794E4463754D PUSH27 0x4D78494445304E4334774D4441734D6A51334C6A67784F4341784E PREVRANDAO MLOAD PUSH22 0x4D44417749454D674D6A51354C6A49794E5341784E44 MLOAD PUSH22 0x4D4441774C4449314E4334314E7A51674D5451324C6A 0x4D PUSH27 0x4E6977794E546B754D6A4177494445304F4334354E7A4567517941 PUSH26 0x4E6A41754F445577494445304F5334354D5445734D6A59304C6A COINBASE CALLER 0x4D NUMBER COINBASE PUSH25 0x4E5445754E7A51794C4449324E69347A4E5455674D54557A4C PUSH11 0x41304D434244494449324F NUMBER CALLVALUE ORIGIN 0x4E PREVRANDAO COINBASE PUSH8 0x4D5455304C6A4D7A 0x4F NUMBER PUSH24 0x794E7A45754D545977494445314E5334334F5455734D6A63 PUSH25 0x4C6A6B314E5341784E5459754D6A633449454D674D6A63794C PUSH11 0x63314D4341784E5459754E PUSH27 0x59784C4449334E43347A4D4441674D5455334C6A55354D4377794E PUSH27 0x55754E444177494445314F4334784D6A4567517941794E7A59754E SLOAD COINBASE PUSH24 0x494445314F4334324E5449734D6A63334C6A6B344D794178 0x4E SLOAD PUSH12 0x754E6A55794C4449334F4334 ORIGIN 0x4F SLOAD MSIZE PUSH8 0x4D5459774C6A4D30 0x4D PUSH26 0x4244494449334F5334304D446B674D5459784C6A417A4E537779 0x4F PREVRANDAO COINBASE PUSH22 0x4D545978494445324D5334324D4441734D6A67774C6A 0x4D ORIGIN 0x4F NUMBER COINBASE PUSH25 0x4E6A45754E6A417749454D674D6A67774C6A55334E4341784E PUSH11 0x45754E6A41774C4449344D NUMBER CALLVALUE CALLDATALOAD 0x4F PREVRANDAO 0x4D PUSH8 0x4D5459784C6A6779 0x4E MSTORE8 PUSH24 0x794F4445754D6A6333494445324D6934784D444167517941 PUSH26 0x4F4445754F445532494445324D6934324E444D734D6A67344C6A 0x4D CALLVALUE 0x4F MSTORE8 COINBASE PUSH25 0x4E6A63754D544D324C4449344F5334314F5451674D5459334C PUSH11 0x67794D534244494449354D NUMBER CALLVALUE PUSH24 0x4D4449674D5459344C6A41314D6977794F5441754F544930 0x49 PREVRANDAO GASLIMIT ORIGIN 0x4F NUMBER CALLVALUE CALLVALUE 0x4D SLOAD PUSH4 0x734D6A6B PUSH25 0x4C6A59304D7941784E6A6B754E54497849454D674D6A6B7A4C PUSH11 0x41304D5341784E7A41754F PREVRANDAO PUSH8 0x344C4449354E4334 ADDRESS 0x4D PREVRANDAO MLOAD PUSH8 0x4D5463784C6A4531 0x4F MSTORE8 PUSH24 0x794F5455754D546335494445334D4334794D6A5967517941 PUSH26 0x4F5455754F44637A494445324F53347A4F5441734D6A6B314C6A GASLIMIT PUSH25 0x4D6941784E6A67754D6A41794C4449354D7934774F444D674D SLOAD MSIZE ORIGIN 0x4C PUSH11 0x6B314D694244494449354D NUMBER CALLVALUE CALLER 0x4F SLOAD GASLIMIT PUSH8 0x4D5459314C6A5530 0x4D NUMBER PUSH24 0x794F4467754D6A517A494445324D7934344E5441734D6A67 CALLVALUE 0x4C PUSH11 0x41774D4341784E6A4D754E SLOAD PUSH8 0x7749454D674D6A67 CALLER 0x4C PUSH11 0x67354D4341784E6A4D754E PREVRANDAO SSTORE CALLVALUE 0x4C PREVRANDAO 0x49 CALLVALUE 0x4E PUSH26 0x34784D5459674D5459794C6A67304E4377794F4459754D6A6335 0x49 PREVRANDAO GASLIMIT ORIGIN 0x4D PUSH10 0x34794D54556751794179 0x4F PREVRANDAO MLOAD PUSH22 0x4E545935494445324D4334354D7A45734D6A67304C6A PUSH8 0x794F4341784E6A41 PUSH22 0x4E4449794C4449344E7934794D4441674D5459774C6A 0x4D CALLDATALOAD 0x4F MSTORE8 TIMESTAMP PREVRANDAO 0x49 PREVRANDAO 0x49 CALLVALUE 0x4F NUMBER CALLVALUE ORIGIN 0x4E PUSH27 0x51674D5459774C6A4D344E5377794F5467754E444134494445324D MSTORE8 CALLVALUE CALLVALUE 0x4D SLOAD COINBASE PUSH20 0x4D7A41774C6A67774D4341784E6A49754D7A6B77 0x49 GASLIMIT 0x4D PUSH8 0x4D7A41784C6A5533 0x4D NUMBER COINBASE PUSH25 0x4E6A49754E5463324C444D774E4334774D4441674D54597A4C PUSH11 0x45784E69777A4D4459754D PUSH11 0x4177494445324D7934314F PREVRANDAO PUSH12 0x675179417A4D5441754E6A67 CALLVALUE 0x49 PREVRANDAO GASLIMIT ORIGIN 0x4E NUMBER CALLVALUE BALANCE 0x4E SLOAD SSTORE PUSH20 0x4D7A45794C6A49314D7941784E6A51754F545532 0x4C PREVRANDAO 0x4D PUSH25 0x4E6934774D4441674D5459324C6A45774D69424449444D784F MSTORE8 CALLVALUE ADDRESS 0x4E PUSH27 0x59674D5459334C6A45324E69777A4D6A59754D7A5531494445324F MSTORE8 CALLVALUE ADDRESS 0x4D PUSH11 0x6B734D7A49334C6A59774D NUMBER COINBASE PUSH25 0x4E6A6B754F54453549454D674D7A49344C6A45314D4341784E PUSH27 0x41754D544D314C444D794F5334304D5441674D5463774C6A59794F MSTORE8 PUSH24 0x7A4D7A41754E444177494445334D5334774D545967517941 PUSH27 0x4D7A55754E446B78494445334D7934774D4459734D7A51324C6A55 ADDRESS 0x4D PUSH10 0x41784E7A67754D6A6334 0x4C PREVRANDAO 0x4D ADDRESS 0x4F NUMBER CALLVALUE CALLDATALOAD 0x4E PUSH11 0x51674D5463354C6A67334D PUSH10 0x424449444D314D433477 0x4E PREVRANDAO MLOAD PUSH8 0x4D5467774C6A5534 0x4D PUSH26 0x777A4E5445754E446730494445344D5334794F4459734D7A5579 0x4C PUSH11 0x45324E4341784F4445754E PREVRANDAO 0x4D ADDRESS 0x49 GASLIMIT 0x4D PUSH8 0x4D7A557A4C6A4932 0x4E MSTORE8 COINBASE PUSH25 0x4F4445754E6A637A4C444D314E5334334F5451674D54677A4C PUSH11 0x637A4F43777A4E5467754D SLOAD 0x49 BALANCE 0x49 PREVRANDAO GASLIMIT CALLVALUE 0x4E PUSH10 0x347A4D4441675179417A 0x4E SLOAD PUSH12 0x754D444134494445344E7934 PUSH26 0x4E7A41734D7A59774C6A51774E5341784F4463754E5445324C44 0x4D ORIGIN 0x4D NUMBER CALLVALUE PUSH27 0x4F5449674D5467324C6A63774D43424449444D324D43347A4F4467 PUSH8 0x4D5467324C6A5179 0x4E MSTORE8 PUSH24 0x7A4E546B754D544579494445344E5334784D6A41734D7A55 CALLER 0x4C PUSH11 0x55314E7941784F444D754F PREVRANDAO COINBASE PUSH24 0x49454D674D7A55324C6A41774D6941784F4449754E446777 0x4C PREVRANDAO 0x4D BALANCE 0x4E NUMBER CALLVALUE PUSH25 0x4E6A41674D5467774C6A67304E43777A4E544D754E44593149 PREVRANDAO GASLIMIT CALLVALUE 0x4D NUMBER CALLVALUE PUSH25 0x4E6A55675179417A4E5445754D7A5979494445334F4334784D SLOAD 0x49 PUSH20 0x4D7A51304C6A55354D6941784E7A51754D446B78 0x4C PREVRANDAO 0x4D ADDRESS 0x4D MSTORE8 CALLVALUE BALANCE 0x4D PREVRANDAO COINBASE PUSH8 0x4D54637A4C6A4131 0x4F MSTORE8 TIMESTAMP PREVRANDAO 0x49 PREVRANDAO 0x4D ADDRESS 0x4D MSTORE8 CALLVALUE PUSH25 0x4D5455674D5463794C6A6B7A4D43777A4E4441754F44417749 PREVRANDAO GASLIMIT CALLER 0x4D PUSH10 0x34304E7A6B734D7A5177 0x4C PUSH11 0x67774D4341784E7A49754D PREVRANDAO SSTORE BALANCE 0x49 GASLIMIT 0x4D PUSH8 0x4D7A51774C6A6777 0x4D NUMBER COINBASE PUSH25 0x4E7A41754E7A55334C444D304D5334794E5463674D5463774C PUSH11 0x59344F43777A4E5459754D PREVRANDAO PUSH12 0x32494445324F5334334E5449 PUSH8 0x5179417A4E6A4175 0x4E SLOAD PUSH4 0x33494445 ORIGIN 0x4F MSTORE8 CALLVALUE ADDRESS 0x4E PUSH11 0x6B734D7A59344C6A49304D PUSH10 0x41784E7A41754D445130 0x4C PREVRANDAO 0x4D CALLER 0x4D PUSH10 0x34324D4441674D546377 0x4C PUSH11 0x6B344F53424449444D334D PUSH26 0x34354D6A41674D5463784C6A49334E69777A4E7A55754F445578 0x49 PREVRANDAO GASLIMIT CALLER 0x4D MSTORE8 CALLVALUE ORIGIN 0x4D PUSH27 0x45734D7A63324C6A67354D5341784E7A45754E7A633449454D674D PUSH27 0x63334C6A6B7A4D5341784E7A45754F5449324C444D334F4334344E PUSH27 0x59674D5463794C6A45354F53777A4E7A67754F546B78494445334D PUSH10 0x347A4F4459675179417A 0x4E PUSH27 0x6B754D544132494445334D6934314E7A49734D7A67774C6A45304E PUSH10 0x41784E7A49754F44557A 0x4C PREVRANDAO 0x4D CALLVALUE 0x4D MSTORE8 CALLVALUE PUSH27 0x4D4441674D54637A4C6A41784D43424449444D344D6934304E5455 PUSH8 0x4D54637A4C6A4532 0x4E PUSH26 0x777A4F4451754D446B7A494445334D7934324E4463734D7A6730 0x4C PUSH11 0x6B304D5341784E7A51754D PREVRANDAO PUSH4 0x3349454D PUSH8 0x4D7A67314C6A6334 0x4F MSTORE8 COINBASE PUSH25 0x4E7A51754E5441324C444D344E7934334F544D674D5463314C PUSH11 0x49354F53777A4F446B754D PUSH27 0x6B32494445334E5334344D7A63675179417A4F5449754E54673049 PREVRANDAO GASLIMIT CALLER 0x4E PUSH10 0x34354D4463734D7A6B31 0x4C PUSH11 0x45324F4341784E7A67754D SLOAD PUSH8 0x354C444D354E7934 CALLVALUE 0x4D PUSH11 0x4D674D5467774C6A41784E PUSH10 0x424449444D354F533435 0x4E PUSH11 0x51674D5467784C6A51344F MSTORE8 PUSH24 0x304D4441754D444178494445344D5334304F4463734D7A6B CALLDATALOAD 0x4C PUSH11 0x6B354E6941784E7A6B754F SLOAD COINBASE PUSH24 0x49454D674D7A6B354C6A6B354D6941784E7A67754E6A4532 0x4C PREVRANDAO 0x4D CALLDATALOAD 0x4F MSTORE8 CALLVALUE CALLDATALOAD 0x4D SLOAD GASLIMIT PUSH8 0x4D5463344C6A5532 0x4D NUMBER PUSH24 0x7A4F544D754D6A4D7A494445334E53347A4D444167517941 PUSH27 0x4F446B754E544531494445334D7934304F4455734D7A67324C6A49 PUSH27 0x4D6941784E7A45754F546B304C444D344E5334354D7A63674D5463 PUSH25 0x4C6A6B344E79424449444D344E5334324E4445674D5463784C PUSH11 0x6B344D43777A4F4455754D PREVRANDAO SSTORE PUSH25 0x494445334D5334334D5441734D7A67304C6A59794E4341784E PUSH27 0x45754D7A673349454D674D7A67304C6A45354E6941784E7A45754D PREVRANDAO MSIZE ADDRESS 0x4C PREVRANDAO 0x4D CALLVALUE 0x4D PUSH26 0x34794F4459674D5463774C6A67774D43777A4F4449754E6A4177 0x49 PREVRANDAO GASLIMIT CALLER 0x4D NUMBER CALLVALUE CALLVALUE 0x4D PREVRANDAO COINBASE PUSH8 0x5179417A4F444575 0x4F SLOAD GASLIMIT ADDRESS 0x49 PREVRANDAO GASLIMIT CALLER 0x4D NUMBER CALLVALUE CALLVALUE 0x4D PREVRANDAO COINBASE PUSH20 0x4D7A67784C6A41774E4341784E7A41754E544D32 0x4C PREVRANDAO 0x4D CALLVALUE 0x4D NUMBER CALLVALUE BALANCE 0x4E PUSH27 0x59674D5463774C6A49784D79424449444D344D4334784E446B674D SLOAD MSIZE CALLDATALOAD 0x4C PUSH11 0x67354D43777A4E7A6B754D PREVRANDAO PUSH8 0x77494445324F5334 ORIGIN 0x4D SLOAD 0x49 PUSH20 0x4D7A63344C6A49774D4341784E6A6B754E546B31 0x49 GASLIMIT 0x4D PUSH8 0x4D7A63334C6A4D79 0x4D NUMBER COINBASE PUSH25 0x4E6A6B754E5463354C444D334E5334344F4441674D5459354C PUSH11 0x4D774E53777A4E7A55754D PREVRANDAO COINBASE PUSH24 0x494445324F4334354F4467675179417A4E7A51754D544977 0x49 PREVRANDAO GASLIMIT ORIGIN 0x4F NUMBER CALLVALUE ORIGIN 0x4E PUSH27 0x45734D7A63794C6A55354D4341784E6A67754E4441324C444D334D MSTORE8 CALLVALUE ORIGIN 0x4D PREVRANDAO COINBASE PUSH8 0x4D5459344C6A4D35 0x4F NUMBER TIMESTAMP PREVRANDAO 0x49 PREVRANDAO 0x4D CALLER 0x4D NUMBER CALLVALUE ORIGIN 0x4D SLOAD COINBASE PUSH8 0x4D5459344C6A4D35 0x4D NUMBER PUSH24 0x7A4E6A67754E545979494445324F4334794D4455734D7A59 CALLER 0x4C PUSH11 0x41304F5341784E6A63754F SLOAD PUSH8 0x3249454D674D7A59 PUSH24 0x4C6A55794D5341784E6A63754D44517A4C444D304D533433 0x4D PUSH11 0x49674D5459334C6A63774E PUSH26 0x777A4D7A63754E6A4177494445324F5334774D6A63675179417A 0x4D PUSH27 0x55754D7A4131494445324F5334334E6A4D734D7A4D7A4C6A55324D MSTORE8 COINBASE PUSH25 0x4E6A6B754E7A55344C444D7A4D6934314E7A59674D5459354C PUSH11 0x41784D79424449444D7A4D PUSH10 0x34784E446B674D545934 0x4C PUSH11 0x59354D43777A4D7A45754E SLOAD 0x4D PUSH24 0x494445324F4334304D546B734D7A4D784C6A49774D434178 0x4E PUSH11 0x67754E44457749454D674D PUSH27 0x4D774C6A67334D4341784E6A67754E4441794C444D7A4D4334774F PREVRANDAO MLOAD PUSH8 0x4D5459344C6A4579 0x4E PUSH10 0x777A4D6A6B754E445530 0x49 PREVRANDAO GASLIMIT ORIGIN 0x4E PUSH26 0x34334F5467675179417A4D6A67754F444930494445324E793430 0x4E PUSH11 0x6B734D7A49344C6A41314F NUMBER COINBASE PUSH25 0x4E6A63754D6A41774C444D794E7934334E544D674D5459334C PUSH11 0x49774D43424449444D794E PUSH26 0x34304E4463674D5459334C6A49774D43777A4D6A59754E544931 0x49 PREVRANDAO GASLIMIT ORIGIN 0x4E PUSH10 0x34344E4441734D7A4931 0x4C PUSH11 0x63774E4341784E6A59754E PREVRANDAO COINBASE PUSH24 0x49454D674D7A49304C6A67344E4341784E6A55754F545977 0x4C PREVRANDAO 0x4D PUSH26 0x4D7934334D7A59674D5459314C6A59774D43777A4D6A4D754D54 SSTORE BALANCE 0x49 PREVRANDAO GASLIMIT ORIGIN 0x4E MSTORE8 CALLVALUE ORIGIN 0x4D PREVRANDAO COINBASE PUSH8 0x5179417A4D6A4975 0x4E SLOAD PUSH4 0x30494445 ORIGIN 0x4E MSTORE8 CALLVALUE ORIGIN 0x4D PREVRANDAO COINBASE PUSH20 0x4D7A49784C6A67334E4341784E6A55754D7A4D77 0x4C PREVRANDAO 0x4D PUSH26 0x4D5334324D4441674D5459314C6A41774D43424449444D794D53 CALLVALUE PUSH27 0x4D6A49674D5459304C6A59324E53777A4D6A41754E445577494445 ORIGIN 0x4E NUMBER CALLVALUE ADDRESS 0x4D PREVRANDAO COINBASE PUSH20 0x4D7A45354C6A59794E7941784E6A51754E444177 0x49 GASLIMIT 0x4D PUSH8 0x4D7A45344C6A6778 0x4E PUSH10 0x41784E6A51754E444177 0x4C PREVRANDAO 0x4D PUSH25 0x4E7934344D4451674D5459304C6A457A4E69777A4D5463754D PUSH27 0x6332494445324D7934344D544D675179417A4D5459754F54513549 PREVRANDAO GASLIMIT ORIGIN 0x4D PUSH26 0x34304F5441734D7A45324C6A41324D4341784E6A4D754D6A457A 0x4C PREVRANDAO 0x4D PUSH25 0x4E5334304D4441674D54597A4C6A45354F53424449444D784E NUMBER CALLVALUE CALLER 0x4E PREVRANDAO COINBASE PUSH8 0x4D54597A4C6A4534 0x4E NUMBER PUSH24 0x7A4D544D754E7A5577494445324D6934354D5451734D7A45 PUSH27 0x4C6A49774D4341784E6A49754E6A417749454D674D7A45794C6A59 BALANCE 0x4D NUMBER COINBASE PUSH25 0x4E6A49754D6A67324C444D784D5334314D7A67674D5459794C PUSH11 0x41794D69777A4D5441754E PUSH27 0x4935494445324D6934774D5451675179417A4D446B754F54453549 PREVRANDAO GASLIMIT ORIGIN 0x4D PUSH10 0x34774D4459734D7A4134 0x4C PUSH11 0x6B344E7941784E6A45754E PUSH27 0x4D774C444D774F4334324E5463674D5459784C6A51774D43424449 PREVRANDAO 0x4D PUSH24 0x4F43347A4D4459674D5459784C6A41304F53777A4D446375 0x4D PUSH27 0x4935494445324D4334344D4441734D7A41324C6A4D774D5341784E PUSH11 0x41754F44417749454D674D PUSH27 0x41314C6A4D7A4E5341784E6A41754F4441774C444D774D7934324E SLOAD PUSH8 0x674D5459774C6A55 ADDRESS 0x4D MSTORE8 PUSH24 0x7A4D4449754E54637A494445324D4334794D6A5167517941 PUSH27 0x4D4441754E7A4531494445314F5334324F4449734D6A6B304C6A41 ADDRESS 0x4D PUSH10 0x41784E546B754D444579 0x4C PREVRANDAO 0x49 CALLDATALOAD 0x4D MSTORE8 CALLVALUE ADDRESS 0x4D PREVRANDAO COINBASE PUSH8 0x4D5455354C6A4577 0x4D PUSH10 0x4244494449354D433433 0x4E PREVRANDAO COINBASE PUSH8 0x4D5455354C6A4579 0x4E MSTORE8 PUSH24 0x794F446B754E6A5977494445314F4334354F4441734D6A67 CALLDATALOAD 0x4C PUSH11 0x41774D4341784E5467754E PUSH27 0x677749454D674D6A67344C6A4D304D4341784E5467754E5467784C PREVRANDAO 0x49 CALLVALUE 0x4E MSTORE8 CALLVALUE CALLER 0x4E PUSH11 0x6B674D5455344C6A4D7A4D NUMBER PUSH24 0x794F444D754D6A6732494445314F4334794D6A4D67517941 PUSH26 0x4E7A6B754F546730494445314F4334774F4445734D6A63344C6A MSIZE PUSH24 0x4F5341784E5463754F4459324C4449334F4334784E6A5567 0x4D SLOAD SSTORE CALLER 0x4C PUSH11 0x51794D694244494449334E PUSH26 0x34324D6A59674D5455324C6A67344D7977794E7A4D754F54417A 0x49 PREVRANDAO GASLIMIT BALANCE 0x4E NUMBER CALLVALUE PUSH26 0x4E4459734D6A63794C6A59324E7941784E544D754E5449354945 0x4D PUSH8 0x4D6A59344C6A4133 0x4D PUSH10 0x41784E5441754F445535 0x4C PREVRANDAO 0x49 ORIGIN 0x4E MSTORE8 CALLVALUE CALLVALUE 0x4E PUSH27 0x55674D5451354C6A597A4E5377794E6A51754D7A5130494445304F NUMBER CALLVALUE CALLVALUE 0x4F SLOAD COINBASE PUSH8 0x517941794E6A4D75 0x4D PUSH27 0x497A494445304F43347A4F5451734D6A59794C6A49324E6941784E PREVRANDAO PUSH4 0x754E7A49 PUSH24 0x4C4449324D5334354F5455674D5451334C6A4D354E434244 0x49 PREVRANDAO 0x49 ORIGIN 0x4D MSTORE8 CALLVALUE CALLER 0x4D PUSH11 0x51674D5451334C6A41324E PUSH26 0x77794E6A45754D446B32494445304E6934344D4441734D6A5977 0x4C PUSH11 0x59774D4341784E4459754F PREVRANDAO COINBASE PUSH24 0x49454D674D6A59774C6A45774E4341784E4459754F444177 0x4C PREVRANDAO 0x49 BALANCE 0x4F MSTORE8 CALLVALUE ADDRESS 0x4E PUSH27 0x51674D5451324C6A557A4D4377794E546B754D6A4177494445304E PUSH10 0x34794D44416751794179 0x4E SLOAD PUSH8 0x754F544932494445 ADDRESS 0x4E MSTORE8 CALLVALUE CALLVALUE 0x4E PUSH27 0x41734D6A55344C6A4D324E5341784E4455754E6A41774C4449314E PUSH26 0x34354E5449674D5451314C6A59774D434244494449314E793431 0x4E PREVRANDAO COINBASE PUSH8 0x4D5451314C6A5977 0x4D NUMBER PUSH24 0x794E5459754D446333494445304E5334774E7A67734D6A55 ADDRESS 0x4C PUSH11 0x63774D5341784E4451754E PREVRANDAO MLOAD PUSH24 0x49454D674D6A557A4C6A4D794E5341784E444D754F444178 0x4C PREVRANDAO 0x49 BALANCE 0x4D MSTORE8 CALLVALUE CALLER 0x4F SLOAD SSTORE PUSH8 0x4D54517A4C6A4531 0x4F MSTORE8 PUSH24 0x794E5445754D7A4177494445304D7934774D544D67517941 PUSH26 0x4E5441754F444131494445304D6934344E6A59734D6A55774C6A MLOAD PUSH24 0x4D4341784E4449754E5463344C4449314D4334304D444167 0x4D SLOAD MLOAD PUSH26 0x4C6A4D334D794244494449314D4334304D4441674D5451794C6A GASLIMIT ORIGIN 0x4F NUMBER PUSH24 0x794E5441754D444D30494445304D6934774D4441734D6A51 CALLDATALOAD 0x4C PUSH11 0x55344E6941784E4449754D PREVRANDAO COINBASE PUSH24 0x49454D674D6A51354C6A457A4F4341784E4449754D444177 0x4C PREVRANDAO 0x49 ADDRESS 0x4F NUMBER CALLVALUE PUSH27 0x4E7A4D674D5451784C6A63314D4377794E4463754F446732494445 ADDRESS 0x4D MSTORE8 CALLVALUE ADDRESS 0x4E PREVRANDAO 0x4D PUSH8 0x517941794E446375 0x4D PUSH27 0x6B35494445304D5334784D7A63734D6A51324C6A45304F5341784E PREVRANDAO COINBASE PUSH22 0x4E7A59334C4449304E5334784D446B674D5451774C6A MSIZE PUSH26 0x4D434244494449304E4334774E6A6B674D5451774C6A51334E43 PUSH24 0x794E444D754D544530494445304D4334784F4451734D6A51 PUSH26 0x4C6A6B344E6941784D7A6B754F54633349454D674D6A51794C6A PUSH8 0x314F4341784D7A6B PUSH22 0x4E7A63774C4449304D6934784E4459674D544D354C6A MSIZE PUSH24 0x4D4377794E4445754E4441304944457A4F5334324D444167 MLOAD PUSH26 0x41794D7A6B754E7A59794944457A4F5334324D4441734D6A4D34 0x4C PUSH11 0x51774D4341784D7A63754F SLOAD MLOAD ADDRESS 0x4C PREVRANDAO 0x49 PUSH27 0x4E7934354E7A6B674D544D314C6A517A4E5342444944497A4E6934 CALLVALUE 0x4E PUSH11 0x4D674D5449344C6A63344D MSTORE8 PUSH24 0x794D7A51754E444534494445794D7934354E544D734D6A4D ADDRESS 0x4C PUSH11 0x6B794F4341784D6A6B754E PREVRANDAO GASLIMIT PUSH25 0x494530784D4451754F446777494445304E7934324F44416751 PUSH26 0x41784D4451754D7A4578494445304F4334794E446B734D544130 0x4C PUSH11 0x49304E4341784E5449754E PUSH27 0x4D7A4C4445774E4334334F5449674D54557A4C6A59774D43424449 PREVRANDAO GASLIMIT PUSH24 0x4E5334344E6A6B674D5455314C6A4D774E4377784D446375 0x4E PREVRANDAO SSTORE PUSH27 0x494445304F5334354E6A63734D5441324C6A517A4E4341784E4467 PUSH22 0x4D44593049454D674D5441314C6A6B774F4341784E44 PUSH4 0x754D4467 PUSH24 0x4C4445774E5334314E6A51674D5451324C6A6B354E697778 0x4D PREVRANDAO MLOAD PUSH22 0x4F446777494445304E7934324F4441675454497A4E69 CALLVALUE ADDRESS 0x4D SLOAD GASLIMIT PUSH8 0x4D5455774C6A6731 0x4D PUSH10 0x42444944497A4E533435 0x4E PUSH27 0x51674D5455784C6A67784E4377794D7A55754E6A4530494445314D PUSH26 0x34774D4463734D6A4D314C6A59774F5341784E544D754E544131 0x49 GASLIMIT 0x4D PUSH8 0x4D6A4D314C6A5977 0x4E NUMBER COINBASE PUSH25 0x4E5451754D44417A4C44497A4E5334304D6A63674D5455304C PUSH11 0x63794D7977794D7A55754D PUSH11 0x4532494445314E5334784D PREVRANDAO SSTORE PUSH8 0x517941794D7A5575 0x4D PREVRANDAO COINBASE BALANCE 0x49 PREVRANDAO GASLIMIT BALANCE 0x4E MSTORE8 CALLVALUE ADDRESS 0x4F PREVRANDAO PUSH4 0x734D6A4D ADDRESS 0x4C PUSH11 0x59324D6941784E5459754E PUSH11 0x45774C44497A4E4334304E SLOAD 0x4D PUSH8 0x4D5455334C6A5977 0x4D NUMBER TIMESTAMP PREVRANDAO 0x49 PREVRANDAO 0x49 PUSH27 0x4E4334794E4451674D5455344C6A55354D4377794D7A4D754E7A67 CALLER 0x49 PREVRANDAO GASLIMIT ORIGIN 0x4D NUMBER CALLVALUE PUSH27 0x4F5441734D6A4D7A4C6A517A4E6941784E6A45754E6A417749454D PUSH8 0x4D6A4D7A4C6A4134 0x4E PUSH10 0x41784E6A49754F444577 0x4C PREVRANDAO 0x49 PUSH27 0x4D6934314D5451674D5459304C6A67314E4377794D7A49754D5459 ORIGIN 0x49 PREVRANDAO GASLIMIT ORIGIN 0x4E PUSH10 0x34784E44496751794179 0x4D PUSH27 0x45754D6A637A494445324F5334304E4451734D6A49354C6A51304E NUMBER COINBASE PUSH25 0x4E7A4D754F4441314C4449794F4334784F5467674D5463314C PUSH11 0x59774D694244494449794E PUSH10 0x34794E4451674D546334 0x4C PUSH11 0x51794D6977794D6A63754E PUSH11 0x4135494445344D4334334E PUSH11 0x63734D6A4D774C6A41334E MSTORE8 COINBASE PUSH25 0x4E7A67754F44493349454D674D6A4D784C6A4D794E6941784E PUSH27 0x63754F44517A4C44497A4D6934334D7A4D674D5463304C6A6B324E NUMBER PUSH24 0x794D7A4D754E444579494445334D6934774D444167517941 PUSH26 0x4D7A4D754E6A6734494445334D4334334F5441734D6A4D304C6A MLOAD CALLDATALOAD 0x4D PUSH10 0x41784E6A63754F544577 0x4C PREVRANDAO 0x49 PUSH27 0x4E5334784F5459674D5459314C6A59774D4342444944497A4F4334 PUSH27 0x4D4451674D5455314C6A51784D4377794D7A6B754D54677A494445 ADDRESS 0x4E NUMBER CALLVALUE CALLER 0x4E PREVRANDAO 0x4D PUSH20 0x4D6A4D324C6A51784D5341784E5441754F445579 0x49 GASLIMIT ADDRESS PUSH25 0x4D6A59754F544D7A494445324D5334344D7A4167517941784D PUSH11 0x59754D6A6B34494445324D PUSH26 0x34304F4459734D544D774C6A6B324F5341784E6A63754E7A5933 0x4C PREVRANDAO GASLIMIT ADDRESS 0x4D PUSH10 0x34784E5451674D546331 0x4C PUSH11 0x63334F534244494445304D PUSH26 0x34774E546B674D5463324C6A51794E7977784E4451754D444D31 0x49 PREVRANDAO GASLIMIT CALLER 0x4E PUSH26 0x34794F4449734D5451304C6A4D794D7941784E7A63754E6A6335 0x49 GASLIMIT 0x4D PUSH8 0x4D5451304C6A5978 0x4D NUMBER COINBASE PUSH25 0x4E7A67754D4463324C4445304E5334774D7A51674D5463344C PUSH11 0x51774D4377784E4455754D PUSH11 0x5931494445334F4334304D PREVRANDAO COINBASE PUSH8 0x517941784E445575 0x4E PREVRANDAO PUSH12 0x32494445334F4334304D4441 PUSH20 0x4D5451324C6A4D324E7941784E7A67754F545177 0x4C PREVRANDAO GASLIMIT ADDRESS 0x4E PUSH26 0x34794D4441674D5463354C6A59774D434244494445304F433477 0x4D PUSH27 0x4D674D5467774C6A49324D4377784E446B754D444130494445344D NUMBER CALLVALUE CALLVALUE 0x4D PREVRANDAO COINBASE PUSH20 0x4D5451354C6A4D314F4341784F4441754F444177 0x49 GASLIMIT 0x4D PUSH8 0x4D5451354C6A6378 0x4D MSTORE8 COINBASE PUSH25 0x4F4441754F4441774C4445314D4334774D4441674D5467774C PUSH11 0x6B324E6977784E5441754D PREVRANDAO COINBASE PUSH24 0x494445344D5334784E6A6B67517941784E5441754D444177 0x49 PREVRANDAO GASLIMIT CALLVALUE 0x4D MSTORE8 CALLVALUE PUSH27 0x4E7A45734D5455774C6A67774E5341784F4449754D4451324C4445 BALANCE 0x4D MSTORE8 CALLVALUE CALLER 0x4F PREVRANDAO PUSH8 0x674D5467794C6A59 ORIGIN 0x4F MSTORE8 TIMESTAMP PREVRANDAO 0x49 PREVRANDAO GASLIMIT BALANCE 0x4D PUSH10 0x34334E7A45674D54677A 0x4C PUSH11 0x49354D5377784E544D754E PUSH11 0x6732494445344E4334784D PUSH11 0x49734D54557A4C6A67794D NUMBER COINBASE PUSH25 0x4F4451754E54453149454D674D5455304C6A457A4E4341784F PREVRANDAO SSTORE PUSH22 0x4E444D324C4445314E7934774D6A49674D5467334C6A 0x4D BALANCE 0x4E PUSH26 0x77784E5463754E546333494445344E7934774D54516751794178 0x4E SLOAD PUSH8 0x754E7A597A494445 CALLVALUE 0x4E PUSH10 0x34794F4445734D545532 0x4C PUSH11 0x49324E4341784F444D754D PUSH11 0x41774C4445314E4334304F PREVRANDAO 0x4D PUSH8 0x4D54677A4C6A4977 0x4D NUMBER TIMESTAMP PREVRANDAO 0x49 PREVRANDAO GASLIMIT BALANCE 0x4E NUMBER CALLVALUE PUSH27 0x4D4441674D54677A4C6A49774D4377784E544D754E7A5578494445 CALLVALUE 0x4D PUSH10 0x34324E6A41734D54557A 0x4C PUSH11 0x49324D7941784F4449754D PREVRANDAO COINBASE PUSH24 0x49454D674D5455794C6A63334E5341784F4445754D7A5177 0x4C PREVRANDAO GASLIMIT BALANCE 0x4D PUSH10 0x34784E7A59674D546777 0x4C PUSH11 0x67774D4377784E5445754F SLOAD 0x4D PUSH26 0x494445344D4334344D444167517941784E5441754F5449354944 GASLIMIT CALLVALUE 0x4D NUMBER CALLVALUE CALLVALUE 0x4D PREVRANDAO COINBASE PUSH20 0x4D5451344C6A41304E5341784E7A6B754D444D78 0x4C PREVRANDAO GASLIMIT ADDRESS 0x4E PUSH26 0x34314E5455674D5463344C6A45784E694244494445304E793479 0x4E PUSH11 0x55674D5463334C6A55334E MSTORE8 PUSH24 0x784E4455754F445579494445334E6934794D444D734D5451 ADDRESS 0x4C PUSH11 0x51784E4341784E7A55754D PREVRANDAO MSIZE ORIGIN 0x49 GASLIMIT 0x4D PUSH8 0x4D5451784C6A4577 0x4D NUMBER COINBASE PUSH25 0x4E7A49754E4451324C44457A4F5334354E5441674D5463784C PUSH11 0x51334E7977784D7A63754D PUSH11 0x4579494445324F4334354F SLOAD MLOAD PUSH8 0x517941784D7A5575 0x4F SLOAD PUSH12 0x31494445324E7934344F5441 PUSH20 0x4D544D304C6A41784D4341784E6A59754D546733 0x4C PREVRANDAO GASLIMIT PUSH27 0x4D6934344D4441674D5459314C6A49774F5342444944457A4D5334 BALANCE 0x4F SLOAD COINBASE PUSH8 0x4D5459304C6A497A 0x4D NUMBER PUSH24 0x784D7A41754E445532494445324D7934784F5467734D544D PUSH24 0x4C6A49344D4341784E6A49754F54453149454D674D544935 0x4C PUSH11 0x6B344D4341784E6A49754E PREVRANDAO 0x4D PUSH25 0x4C4445794E7934354D5463674D5459784C6A49774D4377784D PUSH11 0x63754E444133494445324D MSTORE8 CALLVALUE PUSH26 0x4D444167517941784D6A63754D6A6335494445324D5334794D44 COINBASE PUSH20 0x4D5449334C6A41324E6941784E6A45754E446730 0x4C PREVRANDAO GASLIMIT PUSH26 0x4E6934354D7A4D674D5459784C6A677A4D43424E4D7A63794C6A 0x49 PUSH24 0x4D7941784F4441754E6A553049454D674D7A63784C6A4177 0x4D NUMBER COINBASE PUSH25 0x4F4445754F4455334C444D334E4334334D7A55674D54677A4C PUSH11 0x45354D53777A4E7A6B754D PUSH27 0x637A494445344D7934794D5451675179417A4F4445754F44677749 PREVRANDAO GASLIMIT CALLVALUE 0x4D PUSH26 0x34794D6A63734D7A67304C6A557A4F4341784F444D754E6A4D7A 0x4C PREVRANDAO 0x4D CALLDATALOAD 0x4D PUSH10 0x34304D4441674D546731 0x4C PUSH11 0x49774E53424449444D354D PUSH26 0x34324D5441674D5467314C6A51304E79777A4F5455754E6A6777 0x49 PREVRANDAO GASLIMIT CALLVALUE 0x4E MSTORE8 CALLVALUE CALLDATALOAD 0x4F SLOAD SSTORE PUSH20 0x4D7A6B334C6A41774D4341784F4459754E44497A 0x49 GASLIMIT 0x4D PUSH8 0x4E4441774C6A4177 0x4F MSTORE8 COINBASE PUSH25 0x4F4463754D7A6B334C4451774D4334774D4441674D5467334C PUSH11 0x4D354F4377304D4441754D PREVRANDAO COINBASE PUSH24 0x494445344E6934794D7A4967517941304D4441754D444177 0x49 PREVRANDAO GASLIMIT CALLVALUE 0x4E MSTORE8 CALLVALUE PUSH26 0x4D6A51734D7A6B354C6A55354D4341784F4455754D444D784C44 0x4D CALLDATALOAD 0x4E NUMBER CALLVALUE ADDRESS 0x4D PREVRANDAO COINBASE PUSH8 0x4D54677A4C6A5977 0x4D PUSH26 0x424449444D354D7934304D5441674D54677A4C6A4D7A4D43777A 0x4F SLOAD 0x49 PUSH22 0x4D545577494445344D6934354E5463734D7A6B784C6A MSIZE PUSH24 0x4D4341784F4449754E7A633049454D674D7A67304C6A5179 0x4E PUSH10 0x41784F4441754D7A6733 0x4C PREVRANDAO 0x4D CALLER 0x4D PUSH26 0x34324E4467674D5463354C6A49774F53777A4E7A49754D6A417A 0x49 PREVRANDAO GASLIMIT CALLVALUE 0x4D NUMBER CALLVALUE ORIGIN 0x4E SLOAD MLOAD PUSH8 0x545459334C6A6330 0x4D PUSH26 0x41784F4445754E44413149454D674E6A63754E444D7849444534 0x4D PUSH10 0x34794D546B734E6A6775 0x4D SLOAD 0x49 PUSH24 0x494445344D6934354E7A51734E7A41754D54493349444534 0x4E NUMBER CALLVALUE PUSH24 0x4D545967517941334D5334344E6A45674D5467304C6A6B78 0x4E PUSH26 0x77334D7934784D5467674D5467314C6A637A4F4377334E793433 0x4D SLOAD GASLIMIT PUSH8 0x4D5467344C6A6B33 0x4D NUMBER TIMESTAMP PREVRANDAO 0x49 PREVRANDAO PUSH8 0x794C6A677A4E5341 PUSH25 0x4F5449754E5463314C44677A4C6A4D354E7941784F446B754F PREVRANDAO PUSH8 0x794C4463344C6A4D PUSH24 0x4D4341784F4459754D54513249454D674E7A45754E6A4532 0x49 PREVRANDAO GASLIMIT CALLVALUE 0x4D MSTORE8 CALLVALUE PUSH26 0x4E4463734E6A67754D7A5930494445334F5334334F4463734E6A PUSH4 0x754E7A51 PUSH27 0x494445344D5334304D4455675454497A4F4334324D4441674D546B PUSH26 0x4C6A4D784D5342444944497A4D6934314D544D674D546B314C6A COINBASE CALLER 0x4D PUSH10 0x77794D6A6B754E7A4D30 0x49 PREVRANDAO GASLIMIT CALLDATALOAD 0x4E PUSH26 0x347A4D5455734D6A4D774C6A67774D6941784F5467754E6A4179 0x49 GASLIMIT 0x4D PUSH8 0x4D6A4D784C6A557A 0x4D NUMBER COINBASE PUSH25 0x4F546B754E4467774C44497A4D5334334D7A6B674D546B354C PUSH11 0x51784D4377794D7A55754E PUSH27 0x4D35494445354E6934354D7A6367517941794E4449754D446B3049 PREVRANDAO GASLIMIT CALLDATALOAD 0x4D PUSH26 0x34774D4467734D6A51794C6A59794F4341784F5449754E545533 0x4C PREVRANDAO 0x49 ADDRESS 0x4D MSTORE8 CALLVALUE CALLDATALOAD 0x4D PUSH11 0x67674D546B784C6A63784D PUSH26 0x4244494449304D53347A4E7A51674D546B784C6A41304E697779 0x4E PREVRANDAO GASLIMIT PUSH22 0x4E444177494445354D5334774E4445734D6A4D344C6A MSIZE PUSH24 0x4D4341784F5449754D7A45784945307A4E6A55754F445934 0x49 PREVRANDAO 0x49 PUSH24 0x4D5334334F446B675179417A4E6A55754D54553249444977 0x4D PUSH10 0x34314D4445734D7A5931 0x4C PUSH11 0x51304E4341794D444D754E SLOAD PUSH12 0x304C444D324E79347A4E6A59 PUSH8 0x4D6A41334C6A5135 0x4F NUMBER TIMESTAMP PREVRANDAO 0x49 PREVRANDAO 0x4D ORIGIN 0x4E PUSH26 0x34354D7A55674D6A41344C6A59314D69777A4E6A67754E444177 0x49 PREVRANDAO 0x49 PUSH24 0x4F5334354D7A51734D7A59344C6A51774D4341794D544175 0x4D PUSH27 0x513249454D674D7A59344C6A51774D4341794D5441754E7A55344C PREVRANDAO 0x4D ORIGIN 0x4F NUMBER CALLVALUE CALLER 0x4E PUSH11 0x41674D6A45794C6A49794D PUSH26 0x777A4E6A6B754D6A4177494449784D7934324D4441675179417A 0x4E PUSH27 0x41754E546331494449784E7934354D444D734D7A63774C6A41354D MSTORE8 COINBASE PUSH26 0x4D5463754F446B774C444D324E5334314F5467674D6A457A4C6A SSTORE PUSH24 0x4D43424449444D324E4334774F4449674D6A45794C6A4178 0x4F MSTORE8 PUSH24 0x7A4E6A4D754D446377494449784D5334324D7A6B734D7A59 PUSH26 0x4C6A59784D6941794D5449754D7A677749454D674D7A59794C6A 0x4D CALLER 0x4D NUMBER COINBASE PUSH26 0x4D5449754E7A63794C444D324E53347A4D5451674D6A45324C6A COINBASE ADDRESS 0x4E MSTORE8 PUSH24 0x7A4E7A55754E6A4177494449794E6934344D545967517941 PUSH27 0x4E7A59754D545577494449794E79347A4F5449734D7A63334C6A59 CALLVALUE 0x4D NUMBER COINBASE PUSH26 0x4D6A6B754D546B344C444D334F5334774D4441674D6A4D774C6A PUSH8 0x794F53424449444D CALLVALUE 0x4D MSTORE8 CALLVALUE CALLER 0x4D PUSH11 0x41674D6A4D304C6A45354D NUMBER PUSH24 0x7A4F4445754E44637A4944497A4D7934344E6A67734D7A67 PUSH27 0x4C6A55334E5341794D7A59754F44417749454D674D7A67304C6A51 ADDRESS 0x4D PUSH10 0x41794D7A67754D444577 0x4C PREVRANDAO 0x4D CALLVALUE 0x4E MSTORE8 CALLVALUE ADDRESS 0x4D PREVRANDAO 0x4D PUSH8 0x4D6A4D354C6A4933 0x4D NUMBER PUSH24 0x7A4F4455754E7A45774944497A4F5334324D444167517941 PUSH27 0x4F4459754D4445334944497A4F5334354D7A41734D7A67334C6A59 CALLER 0x4E PUSH26 0x41794E4449754D7A59774C444D344F5334304D4441674D6A5131 0x4C PUSH11 0x41774D43424449444D354D MSTORE8 CALLVALUE PUSH25 0x4D6A49674D6A51334C6A59304D43777A4F544D754D7A457849 PREVRANDAO 0x49 BALANCE 0x4D NUMBER CALLVALUE CALLDATALOAD 0x4F SLOAD 0x49 PUSH20 0x4D7A6B304C6A49324D7941794E5449754E445577 0x49 GASLIMIT 0x4D PUSH8 0x4D7A6B314C6A4978 0x4E MSTORE8 COINBASE PUSH26 0x4E544D754F5441334C444D354E6934344E5445674D6A55324C6A MSIZE CALLDATALOAD 0x4E PUSH26 0x777A4F5463754F446B33494449314F4334324E5441675443417A 0x4F SLOAD PUSH12 0x754F444177494449324D6934 PUSH26 0x4D4441674D7A6B354C6A6B784E6941794E546B754D54517A4945 0x4D PUSH8 0x4E4441774C6A4178 0x4D MSTORE8 COINBASE PUSH26 0x4E5459754E6A55774C444D354F5334344F444D674D6A55314C6A PUSH8 0x7A4F53777A4F546B PUSH22 0x4D6A4931494449314E4334334E444D675179417A4F54 PUSH8 0x754E7A6779494449 BALANCE 0x4E NUMBER CALLVALUE PUSH24 0x4D4451734D7A6B334C6A67334E4341794E5449754E444577 0x4C PREVRANDAO 0x4D CALLDATALOAD 0x4E PUSH26 0x34794D446B674D6A55784C6A49774D43424449444D354E693431 0x4E PREVRANDAO 0x4D PUSH8 0x4D6A51354C6A6B35 0x4D NUMBER PUSH24 0x7A4F5455754E6A5978494449304F4334314E5441734D7A6B BALANCE 0x4C PUSH11 0x49304F4341794E4467754D PREVRANDAO COINBASE PUSH24 0x49454D674D7A6B304C6A677A4E5341794E4463754E445577 0x4C PREVRANDAO 0x4D CALLDATALOAD 0x4D PUSH26 0x34784F5445674D6A51314C6A41794D43777A4F5445754E546B30 0x49 PREVRANDAO 0x49 ADDRESS 0x4D PUSH10 0x34324D4441675179417A 0x4F PREVRANDAO PUSH8 0x754F445131494449 PUSH27 0x4F4334304D7A4D734D7A67324C6A49344D5341794D7A55754D5451 CALLER 0x4C PREVRANDAO 0x4D CALLVALUE 0x4D PUSH26 0x347A4D6A4D674D6A4D794C6A41774D43424449444D344D533431 0x4F SLOAD MSIZE PUSH8 0x4D6A4D774C6A4532 0x4D PUSH26 0x777A4F4441754D444D31494449794F4334304D5441734D7A6333 0x4C PUSH11 0x41344E7941794D6A55754D PREVRANDAO COINBASE PUSH24 0x49454D674D7A63314C6A63314E6941794D6A4D754E445977 0x4C PREVRANDAO 0x4D CALLER 0x4D PUSH26 0x34334D446B674D6A49784C6A49784D43777A4E7A49754E544D35 0x49 PREVRANDAO 0x49 PUSH26 0x4D4334774D4441675179417A4E7A41754E444535494449784E79 CALLVALUE CALLVALUE 0x4D PREVRANDAO PUSH12 0x734D7A59354C6A6B784E4341 PUSH26 0x4D5459754F4441774C444D334D4334354D7A67674D6A45324C6A PUSH8 0x774D43424449444D CALLER 0x4D MSTORE8 CALLVALUE PUSH26 0x4D7A51674D6A45324C6A67774D43777A4E7A45754F44417A4944 0x49 PUSH25 0x4E6934304D7A6B734D7A63794C6A49774D7941794D5455754F SLOAD PUSH12 0x3349454D674D7A63794C6A67 ORIGIN 0x4D NUMBER COINBASE PUSH26 0x4D5455754D6A63784C444D334D6934354F5455674D6A45314C6A 0x49 BALANCE 0x4D PUSH10 0x777A4E7A4D754E6A4134 0x49 PREVRANDAO 0x49 PUSH25 0x4E5334344D4463675179417A4E7A51754E6A6330494449784E PUSH10 0x34334E7A49734D7A6332 0x4C PUSH11 0x497A4D6941794D5455754D PUSH27 0x6B304C444D334E5334324E6A55674D6A457A4C6A6B354D43424449 PREVRANDAO 0x4D CALLER 0x4E MSTORE8 CALLVALUE ADDRESS 0x4E PREVRANDAO MLOAD PUSH8 0x4D6A457A4C6A5130 0x4E PUSH10 0x777A4E7A51754F545932 0x49 PREVRANDAO 0x49 PUSH25 0x4D6934774D5441734D7A63304C6A59774D5341794D5441754F PREVRANDAO COINBASE PUSH24 0x49454D674D7A637A4C6A49304E7941794D4459754D7A457A 0x4C PREVRANDAO 0x4D CALLER 0x4D MSTORE8 CALLVALUE PUSH26 0x4D5455674D6A41314C6A49304F53777A4E7A41754E7A63354944 0x49 PUSH24 0x4F4334344D4441675443417A4E7A41754E54553549444978 0x4D NUMBER CALLVALUE ORIGIN 0x4D PREVRANDAO COINBASE PUSH8 0x4D7A63774C6A4930 0x4F NUMBER COINBASE PUSH26 0x4D446B754D44417749454D674D7A63774C6A41334F4341794D44 PUSH8 0x754D5449774C444D ORIGIN 0x4F MSTORE8 CALLVALUE ORIGIN 0x4F SLOAD SSTORE PUSH8 0x4D6A41324C6A6732 0x4D NUMBER PUSH24 0x7A4E6A6B754D7A6B34494449774E6934794D444167517941 PUSH27 0x4E6A6B754D544179494449774E5334314E4441734D7A59344C6A59 ADDRESS 0x4F MSTORE8 COINBASE PUSH26 0x4D4451754E4449344C444D324F43347A4F544D674D6A417A4C6A PUSH4 0x794F5342 PREVRANDAO 0x49 PREVRANDAO 0x4D ORIGIN 0x4E PUSH26 0x34324E7A59674D6A41784C6A63334E43777A4E6A59754E6A5979 0x49 PREVRANDAO 0x49 PUSH24 0x4D4334354F5455734D7A59314C6A67324F4341794D444575 0x4E PUSH27 0x6735494530794D546B754E6A4177494449774D7934344E6A6B6751 PUSH26 0x41794D546B754D6A6377494449774D7934354F4467734D6A4533 0x4C PUSH11 0x4D354D7941794D4451754F PREVRANDAO PUSH8 0x354C4449784E5334 ADDRESS 0x4D PUSH11 0x6B674D6A41314C6A67334D MSTORE8 TIMESTAMP PREVRANDAO 0x49 PREVRANDAO 0x49 PUSH25 0x4D6934784E4459674D6A41334C6A55784E4377794D5445754E SLOAD MSIZE CALLER 0x49 PREVRANDAO 0x49 PUSH24 0x4E7934324E7A45734D6A41344C6A49314E6941794D446375 0x4F PREVRANDAO GASLIMIT ORIGIN 0x49 GASLIMIT 0x4D PUSH8 0x4D6A41304C6A4978 0x4D MSTORE8 COINBASE PUSH26 0x4D4463754F546B7A4C4449774D7934784F5463674D6A41344C6A MLOAD CALLDATALOAD 0x4F MSTORE8 PUSH24 0x794D444D754F546331494449774F5334354E544D67517941 PUSH26 0x4D4451754E6A4578494449784D5334784E4449734D6A41334C6A COINBASE ORIGIN 0x4D PUSH10 0x41794D5445754D446377 0x4C PREVRANDAO 0x49 PUSH25 0x4D43347A4D6A45674D6A41354C6A63324E694244494449784D MSTORE8 CALLVALUE CALLER 0x4E PREVRANDAO 0x49 PUSH8 0x4D6A41354C6A4535 0x4F NUMBER PUSH24 0x794D544D754E545532494449774F4334324E4445734D6A45 ADDRESS 0x4C PUSH11 0x4D314D6941794D4467754E SLOAD 0x49 CALLDATALOAD 0x49 GASLIMIT 0x4D PUSH8 0x4D6A45324C6A5177 0x4E PUSH10 0x41794D4467754D6A4D35 0x4C PREVRANDAO 0x49 PUSH26 0x4D5334774E4463674D6A41324C6A51324E7977794D6A45754E6A MLOAD CALLVALUE 0x49 PREVRANDAO 0x49 PUSH24 0x4E5334334E444D67517941794D6A49754E54633349444977 0x4E NUMBER CALLVALUE ORIGIN 0x4D PUSH11 0x49734D6A49784C6A45304E PUSH26 0x41794D444D754D7A45304C4449784F5334324D4441674D6A417A 0x4C PUSH11 0x67324F53424E4D5451344C PUSH11 0x41794F4341794D4451754F SLOAD MSIZE CALLER 0x49 GASLIMIT PUSH24 0x674D5451334C6A41314E6941794D4455754E544131494445 ADDRESS 0x4F NUMBER CALLVALUE PUSH27 0x4E5467674D6A41324C6A45334F434244494445304F5334794F5467 PUSH8 0x4D6A41324C6A5932 0x4E MSTORE8 PUSH24 0x784E5441754E544135494449774E6934344D6A6B734D5455 PUSH26 0x4C6A63794F5341794D4459754E7A637849454D674D5455304C6A MLOAD PUSH25 0x4F4341794D4459754E7A49344C4445324D4334354F446B674D PUSH11 0x41324C6A67334E6977784E PUSH11 0x63754D7A4D78494449774E PUSH26 0x34784D444567517941784F4441754E6A4D34494449774E793431 0x4E PUSH27 0x49734D5467794C6A45794E7941794D4463754D7A67304C4445344D NUMBER CALLVALUE PUSH26 0x4D546B674D6A41314C6A51334E694244494445334F5334784F54 MLOAD PUSH8 0x4D6A41304C6A5131 0x4D MSTORE8 PUSH24 0x784E446B754F444177494449774D7934354F4455734D5451 CALLVALUE 0x4C PUSH11 0x41794F4341794D4451754F SLOAD MSIZE CALLER 0x49 GASLIMIT ADDRESS PUSH27 0x4E544D754E6A4177494449774E4334354E6A6B675179417A4E544D PUSH22 0x4E6A4177494449774E6934774D7A55734D7A55354C6A SSTORE ADDRESS 0x4F NUMBER COINBASE PUSH26 0x4D5445754D5455314C444D324D5334314D4441674D6A45784C6A PUSH4 0x334D4342 PREVRANDAO 0x49 PREVRANDAO 0x4D ORIGIN 0x4D PUSH26 0x34794E5449674D6A45794C6A4D794D69777A4E6A45754D6A6779 0x49 PREVRANDAO 0x49 PUSH24 0x4F4334324F4441734D7A55354C6A49334D6941794D446375 0x4E PUSH11 0x557849454D674D7A55344C PUSH11 0x59344D6941794D4463754D PUSH27 0x55774C444D314E7934344E4441674D6A41324C6A63344E69777A4E SLOAD PUSH4 0x754E4441 PUSH24 0x494449774E69347A4F5467675179417A4E5459754E6A4932 0x49 PREVRANDAO 0x49 PUSH24 0x4E5334334D5459734D7A55304C6A49324E7941794D445175 0x4E PREVRANDAO COINBASE PUSH24 0x4C444D314D7934344D6A41674D6A41304C6A51774D434244 0x49 PREVRANDAO 0x4D BALANCE 0x4D PUSH26 0x34324F546B674D6A41304C6A51774D43777A4E544D754E6A4177 0x49 PREVRANDAO 0x49 PUSH24 0x4E4334324E5459734D7A557A4C6A59774D4341794D445175 0x4F SLOAD MSIZE CALLDATALOAD 0x49 GASLIMIT ADDRESS PUSH25 0x4D7A55754D7A5977494449774E5334304F546367517941784D PUSH27 0x4D754F546777494449774E6934344E7A63734D544D314C6A49314E MSTORE8 COINBASE PUSH26 0x4D4463754E7A4D314C44457A4E7934344E4441674D6A41334C6A GASLIMIT ORIGIN 0x4F NUMBER TIMESTAMP PREVRANDAO 0x49 PREVRANDAO GASLIMIT PUSH27 0x4F4334354D5467674D6A41324C6A6B7A4D6977784E4445754D4445 PUSH24 0x494449774E6934324E4449734D5451794C6A51344F434179 0x4D PREVRANDAO MSIZE PUSH22 0x4E54493149454D674D5451304C6A63794D4341794D44 MSIZE PUSH22 0x4D7A51334C4445304E7934774F4445674D6A41314C6A 0x4D BALANCE 0x4D NUMBER PUSH24 0x784E4455754E7A5135494449774E5334784E446367517941 PUSH25 0x4E444D754D7A4135494449774E4334334E7A55734D544D314C PUSH11 0x677A4D4341794D4455754D PREVRANDAO 0x49 CALLER 0x4C PREVRANDAO GASLIMIT PUSH27 0x4E53347A4E6A41674D6A41314C6A51354E79424E4D7A63794C6A4D PUSH26 0x4D7941794D5449754E7A417A49454D674D7A63794C6A51324D53 COINBASE PUSH26 0x4D5451754E6A45794C444D334D5334344D4467674D6A45304C6A PUSH12 0x354F53777A4E7A45754D546B PUSH24 0x494449784D79347A4E7A51675179417A4E7A41754E546377 0x49 PREVRANDAO 0x49 PUSH25 0x4D5334334E4449734D7A63774C6A59354E6941794D5441754E PUSH27 0x49794C444D334D5334314D4441674D6A45774C6A67334E43424449 PREVRANDAO 0x4D CALLER 0x4D PUSH10 0x34774D5445674D6A4577 0x4C PUSH11 0x6B334D53777A4E7A49754D PUSH11 0x4D7A494449784D5334304E PUSH11 0x59734D7A63794C6A4D794D PUSH26 0x41794D5449754E7A417A494530794D5449754E54673549444978 0x4D PUSH26 0x34324D546767517941794D5449754D7A4533494449784E433477 0x4E SLOAD PUSH4 0x734D6A45 PUSH27 0x4C6A49784E4341794D5455754E6A557A4C4449784E4334304F5441 PUSH8 0x4D6A45334C6A4177 0x4D NUMBER TIMESTAMP PREVRANDAO 0x49 PREVRANDAO 0x49 PUSH25 0x4E5334304D7A45674D6A45334C6A6B354D7977794D6A45754D PUSH27 0x6B32494449794F43347A4D5441734D6A49784C6A63354E4341794D PUSH11 0x6B754E6A4D7949454D674D PUSH11 0x49784C6A6B314E5341794D PUSH27 0x41754D5459304C4449794D6934314F5455674D6A4D784C6A51784D NUMBER PUSH24 0x794D6A4D754D6A45334944497A4D6934304D444167517941 PUSH26 0x4D6A51754E4467784944497A4E4334304D5445734D6A4D304C6A 0x4D CALLDATALOAD 0x4D PUSH10 0x41794E5451754D444535 0x4C PREVRANDAO 0x49 PUSH27 0x4E43347A4F5463674D6A55304C6A55784F5342444944497A4E4334 PUSH27 0x4F546B674D6A55304C6A59354E4377794D7A55754D444534494449 BALANCE 0x4E PUSH10 0x34784D7A51734D6A4D31 0x4C PUSH11 0x63334D7941794E5463754E PUSH27 0x453549454D674D6A4D324C6A55794F4341794E546B754D7A417A4C PREVRANDAO 0x49 PUSH27 0x4E7934334E7A49674D6A59784C6A6B334D4377794D7A67754E544D CALLDATALOAD 0x49 PREVRANDAO 0x49 ORIGIN 0x4D PUSH26 0x34324E445167517941794E4441754D444130494449324E693434 0x4E PREVRANDAO SSTORE PUSH20 0x4D6A51774C6A63344F4341794E6A63754E545531 0x4C PREVRANDAO 0x49 ADDRESS 0x4D MSTORE8 CALLVALUE CALLER 0x4E PUSH27 0x45674D6A59324C6A55334D534244494449304D6934304E6A45674D PUSH11 0x59314C6A67344D5377794E PREVRANDAO 0x49 PUSH22 0x4E446778494449324E5334354E5467734D6A51774C6A GASLIMIT PUSH26 0x4D7941794E6A41754D6A417749454D674D6A4D354C6A457A4D69 COINBASE PUSH26 0x4E5463754E7A67774C44497A4F4334774E4451674D6A55314C6A COINBASE CALLVALUE 0x4D NUMBER PUSH24 0x794D7A63754E7A4132494449314E4334794D444167517941 PUSH26 0x4D7A63754D7A5935494449314D79347A4D6A41734D6A4D314C6A PUSH12 0x304E6941794E5441754D6A45 PUSH27 0x4C44497A4E4334314E4459674D6A51334C6A49354E534244494449 PUSH27 0x4D7934784E4459674D6A51304C6A4D334F4377794D7A49754D4441 PUSH24 0x494449304D5334344E7A67734D6A4D794C6A41774D434179 0x4E PREVRANDAO GASLIMIT PUSH22 0x4E7A517849454D674D6A4D794C6A41774D4341794E44 GASLIMIT PUSH22 0x4D7A457A4C4449794D7934324E5455674D6A49304C6A PUSH8 0x304E6977794D6A49 PUSH22 0x4F445530494449794D7934324F544D67517941794D6A 0x49 PUSH22 0x4E444D32494449794D7934774F5449734D6A49784C6A 0x49 ORIGIN 0x4D MSTORE8 COINBASE PUSH26 0x4D6A45754D6A55774C4449794D4334794E444D674D6A45354C6A MSIZE PUSH24 0x4D434244494449784E7934774D5463674D6A45304C6A4D33 0x4D NUMBER PUSH24 0x794D544D754E7A4534494449784D5334334F5449734D6A45 PUSH26 0x4C6A55344F5341794D544D754E6A4534494530794E6A4D754F44 COINBASE BALANCE 0x49 PREVRANDAO 0x49 PUSH25 0x4F4334344D445967517941794E5467754F544D30494449794D NUMBER CALLVALUE BALANCE 0x4E PUSH11 0x49734D6A55314C6A63344D PUSH10 0x41794D6A4D754E7A4177 0x4C PREVRANDAO 0x49 BALANCE 0x4E PUSH26 0x34324E6A55674D6A49304C6A6B794D534244494449314F433478 0x4F PREVRANDAO PUSH8 0x674D6A49314C6A49 BALANCE 0x4F MSTORE8 PUSH24 0x794E5467754E7A417A494449794E5334784D4445734D6A59 PUSH24 0x4C6A41324E5341794D6A51754D54677A49454D674D6A5978 0x4C PUSH11 0x41784F5341794D6A4D754E SLOAD MLOAD PUSH24 0x4C4449324D7934794E4441674D6A49794C6A4D324E697779 0x4E PUSH11 0x55754D444177494449794D MSTORE8 CALLVALUE BALANCE 0x4E PUSH27 0x5567517941794E6A63754F544D33494449794D4334794E5459734D PUSH11 0x59344C6A49774D4341794D PUSH11 0x41754D4451794C4449324F NUMBER CALLVALUE PUSH26 0x4D4441674D6A45344C6A6B334E434244494449324F4334794D44 COINBASE PUSH8 0x4D6A45334C6A517A 0x4E MSTORE8 PUSH24 0x794E6A63754E6A5933494449784E7934304D5455734D6A59 PUSH27 0x4C6A67774E5341794D5467754F444132494530784F4445754E5467 CALLVALUE 0x49 PREVRANDAO 0x49 PUSH26 0x4E5334354D6A6B67517941784F4441754F444D34494449794E69 CALLVALUE BALANCE 0x4D PUSH27 0x63734D5467774C6A63324E7941794D6A59754E7A6B774C4445344D MSTORE8 CALLVALUE PUSH25 0x4E4459674D6A49334C6A55774D434244494445344D5334324D PUSH11 0x6B674D6A49344C6A51774D MSTORE8 PUSH24 0x784F4445754E7A6B78494449794F4334304E6A6B734D5467 BALANCE 0x4C PUSH11 0x49774D4341794D6A6B754D PUSH11 0x413149454D674D5467354C PUSH11 0x59354D5341794D7A41754D SLOAD PUSH4 0x314C4445 CALLDATALOAD 0x4E NUMBER CALLVALUE PUSH26 0x4E7A49674D6A4D784C6A637A4F5377794D4455754E6A55354944 0x49 PUSH27 0x4E6934784F544D67517941794D5451754D4463794944497A4F5334 ADDRESS 0x4F PREVRANDAO 0x4D PUSH20 0x4D6A45314C6A4D794D4341794D7A6B754E6A6B34 0x4C PREVRANDAO 0x49 PUSH25 0x4E5334314D6A67674D6A4D334C6A67354D434244494449784E MSTORE8 CALLVALUE ORIGIN 0x4E PREVRANDAO 0x4D PUSH8 0x4D6A4D324C6A6734 0x4E NUMBER PUSH24 0x794D5455754E444D334944497A4E6934324F444D734D6A45 PUSH27 0x4C6A4D794F4341794D7A55754E7A513049454D674D6A41314C6A45 BALANCE 0x4F NUMBER COINBASE PUSH26 0x4D7A49754D5441344C4445354D6934334D5449674D6A49334C6A SSTORE PUSH24 0x4D6977784F4467754F444177494449794E6934324E6A6767 MLOAD PUSH26 0x41784F4467754D6A5577494449794E6934314E5445734D546732 0x4C PUSH11 0x6B354D4341794D6A59754D PUSH11 0x59784C4445344E6934774D PREVRANDAO COINBASE PUSH8 0x4D6A49324C6A4179 0x4E NUMBER TIMESTAMP PREVRANDAO 0x49 PREVRANDAO GASLIMIT CALLVALUE 0x4E MSTORE8 CALLVALUE PUSH24 0x4D5441674D6A49314C6A63344E7977784F444D754F44457A 0x49 PREVRANDAO 0x49 PUSH26 0x4E5334314D4459734D54677A4C6A4D304D5341794D6A55754D7A PUSH12 0x3549454D674D5467794C6A67 BALANCE 0x4D PUSH26 0x41794D6A55754D6A67354C4445344D6934774F5459674D6A4931 0x4C PUSH11 0x55784F4377784F4445754E SLOAD PUSH8 0x34494449794E5334 CALLDATALOAD 0x4D PUSH11 0x6B67545449324E5334334D PUSH11 0x6B674D6A49344C6A4D794F MSTORE8 TIMESTAMP PREVRANDAO 0x49 PREVRANDAO 0x49 ORIGIN 0x4D PUSH26 0x34354E7A67674D6A49344C6A6B334E4377794E6A49754F544932 0x49 PREVRANDAO 0x49 PUSH27 0x4D43347A4D5441734D6A597A4C6A4D7A4E4341794D7A45754D7A63 PUSH27 0x49454D674D6A597A4C6A59344E6941794D7A49754D6A6B774C4449 ORIGIN 0x4E NUMBER CALLVALUE CALLER 0x4F PREVRANDAO PUSH4 0x674D6A4D PUSH26 0x4C6A45794D4377794E6A59754E6A41774944497A4D4334344E7A COINBASE PUSH8 0x517941794E6A6B75 0x4E PREVRANDAO GASLIMIT CALLDATALOAD 0x49 PREVRANDAO 0x49 PUSH26 0x4F4334354D6A55734D6A59344C6A67794E4341794D6A63754D54 PUSH8 0x354C4449324E5334 CALLER 0x4D PUSH11 0x6B674D6A49344C6A4D794F MSTORE8 TIMESTAMP 0x4E 0x4D PUSH11 0x41784C6A6B774D6941794D PUSH27 0x59754E54417949454D674D6A41774C6A4D314E7941794D7A63754E PUSH27 0x59314C4449774D5334774E4441674D6A4D344C6A67324D5377794D PREVRANDAO MLOAD PUSH22 0x4E6A4177494449304D4334344D6A6367517941794D44 PUSH12 0x754E444530494449304D7934 ADDRESS 0x4F PREVRANDAO MSIZE PUSH20 0x4D6A45784C6A6B354D7941794E4445754F545935 0x4C PREVRANDAO 0x49 PUSH24 0x4E7934314D444D674D6A4D354C6A45784F53424449444977 0x4E PUSH10 0x34314E6A59674D6A4D34 0x4C PUSH11 0x55794E5377794D4455754D PUSH11 0x41304944497A4E7934304F SLOAD COINBASE PUSH20 0x4D6A41304C6A51334E5341794D7A59754F444535 0x49 GASLIMIT 0x4D PUSH8 0x4D6A41794C6A6B77 0x4D PUSH10 0x41794D7A55754D7A6378 0x4C PREVRANDAO 0x49 PUSH24 0x4D7934794D7A51674D6A4D314C6A51784D6977794D444575 0x4F SLOAD COINBASE PUSH26 0x4944497A4E6934314D444967545455754D7A4535494449304E43 CALLVALUE ADDRESS 0x4D PUSH11 0x4167517941304C6A4D354E NUMBER COINBASE PUSH26 0x4E4451754E6A41794C444D754D6A6778494449304E4334354E44 0x4D PUSH20 0x4D6934344E4455674D6A51314C6A45334E694244 0x49 PREVRANDAO 0x49 PUSH22 0x4E444135494449304E5334304D446B734D5334314F54 GASLIMIT PUSH8 0x4D6A51314C6A5977 0x4D NUMBER PUSH24 0x784C6A41794E6941794E4455754E6A417749454D674D4334 PUSH25 0x4D6A41674D6A51314C6A59774D4377774C6A41774D4341794E PREVRANDAO SSTORE PUSH22 0x4E7A59304C4441754D444177494449304E7934774D44 COINBASE PUSH8 0x517941774C6A4177 0x4D NUMBER COINBASE PUSH26 0x4E4467754E5467784C4441754D544577494449304F4334324D54 PUSH8 0x734D6934304F4459 PUSH8 0x4D6A51334C6A677A 0x4E MSTORE8 TIMESTAMP PREVRANDAO 0x49 PREVRANDAO 0x4D PUSH22 0x4E444935494449304E7934314D6A55734E5334784E44 PUSH8 0x674D6A51334C6A45 ADDRESS 0x4F NUMBER PUSH24 0x324C6A4D774E6941794E4459754F546B3349454D674F4334 BALANCE 0x4D PREVRANDAO GASLIMIT PUSH8 0x4D6A51324C6A6378 0x4D PUSH10 0x77354C6A517A4E534179 0x4E PREVRANDAO SSTORE PUSH22 0x4F4463334C4467754F545532494449304E4334324D6A PUSH12 0x67517941344C6A59354E5341 PUSH26 0x4E444D754F5451344C4463754F544934494449304D7934354D44 MLOAD PUSH20 0x4E53347A4D546B674D6A51304C6A51794D43424E 0x4D PUSH27 0x59754E6A6333494449314D4334354F4441675179417A4E5334344D SLOAD 0x49 PUSH8 0x4D6A55784C6A6730 0x4E MSTORE8 PUSH24 0x7A4E53347A4E7A41674D6A55324C6A63304D69777A4E6934 PUSH24 0x4F5449674D6A55334C6A51324D79424449444D334C6A4D31 0x4D MSTORE8 COINBASE PUSH26 0x4E5467754E7A497A4C444D344C6A63314E6941794E5459754F54 PUSH8 0x324C444D354C6A41 CALLVALUE 0x4F MSTORE8 COINBASE PUSH26 0x4E544D754E7A553549454D674D7A6B754D7A6B78494449314D43 CALLVALUE CALLVALUE 0x4D PUSH27 0x4D734D7A67754D546B35494449304F5334304E546B734D7A59754E PUSH11 0x6333494449314D4334354F PREVRANDAO COINBASE PUSH8 0x5454517A4C6A5177 0x4D NUMBER COINBASE PUSH26 0x4E5455754F54413249454D674E4449754F546735494449314E69 CALLVALUE PUSH26 0x4D4467734E4445754F444135494449314F4334314E6A67734E44 COINBASE PUSH22 0x4E6A5530494449324D5334304D4441675179417A4F53 CALLVALUE CALLVALUE 0x4E PREVRANDAO PUSH8 0x674D6A597A4C6A4D CALLER 0x4E MSTORE8 PUSH24 0x7A4F4334774D6A55674D6A63774C6A49304E79777A4E7934 BALANCE 0x4D PUSH27 0x51674D6A637A4C6A45324D79424449444D334C6A4D7A4D7941794E PUSH27 0x51754D7A557A4C444D334C6A41344F4341794E7A55754E4455344C PREVRANDAO 0x4D ORIGIN 0x4C PUSH11 0x6B344F4341794E7A55754E PUSH11 0x453549454D674D7A59754E SLOAD 0x49 ADDRESS 0x49 PREVRANDAO 0x49 CALLER 0x4E PUSH10 0x347A4E7A41734D7A5575 0x4E SLOAD GASLIMIT PUSH27 0x494449344D6934794D5463734D7A55754D546B7A494449344E6934 PUSH24 0x4D4441675179417A4E4334354F5467674D6A67344C6A4D78 0x4D NUMBER PUSH24 0x7A4E4334324E4445674D6A6B784C6A51324D43777A4E4334 ADDRESS 0x4D PREVRANDAO COINBASE PUSH8 0x4D6A6B7A4C6A4177 0x4D NUMBER TIMESTAMP PREVRANDAO 0x49 PREVRANDAO 0x4D PUSH27 0x4C6A6B794F5341794F5459754D4445324C444D304C6A45794F4341 PUSH27 0x4D446B754D5441344C444D304C6A63354F43417A4D546B754D6A41 PUSH24 0x49454D674D7A55754E44597849444D794F5334784F545573 0x4D PUSH27 0x55754D7A637749444D7A4D4334334E4445734D7A4D754F44513249 PREVRANDAO 0x4D PUSH27 0x4E53347A4E4459675179417A4D6934304D7A63674D7A4D354C6A59 PUSH24 0x4D4377794F4334324E7A59674D7A51334C6A59354D537779 0x4E PUSH10 0x34794D6A45674D7A5578 0x4C PUSH11 0x63304F434244494449314C PUSH11 0x517A4F53417A4E544D754D PREVRANDAO MLOAD PUSH24 0x4C4449304C6A67774D43417A4E5451754D6A4D7A4C444930 0x4C PUSH11 0x67774D43417A4E5451754D PUSH27 0x6B3549454D674D6A51754F44417749444D314E4334314E6A59734D PUSH11 0x51754E544D3549444D314E NUMBER CALLVALUE CALLDATALOAD 0x4D SLOAD PUSH8 0x734D6A51754D6A49 PUSH25 0x49444D314E5334784F444D67517941794D7934354D444D674D PUSH27 0x55314C6A51304E7977794D79347A4D7A59674D7A55324C6A55774E NUMBER PUSH24 0x794D6934354E6A45674D7A55334C6A557A4D694244494449 PUSH26 0x4C6A55344E69417A4E5467754E5455354C4449784C6A67774D79 COINBASE PUSH27 0x4E6A41754D444D774C4449784C6A49794D53417A4E6A41754F4441 PUSH24 0x49454D674D546B754F446B7749444D324D6934314E6A4173 0x4D SLOAD MLOAD PUSH22 0x4D54457A49444D334D6934774E6A49734D544D754E6A 0x4D PUSH24 0x49444D334D7934794F446367517941784D7934784D444167 0x4D PUSH27 0x63304C6A59794F5377334C6A4D784E69417A4F444D754E7A49794C PREVRANDAO MLOAD PUSH22 0x4D54673049444D344F4334784D7A59675179417A4C6A COINBASE CALLVALUE 0x4D PUSH10 0x417A4F446B754E6A6B77 0x4C PREVRANDAO 0x49 PUSH22 0x4F446B7849444D354D4334794D6A4D734D7934794D54 PUSH12 0x674D7A6B774C6A677A4E6942 PREVRANDAO 0x49 PREVRANDAO MLOAD PUSH22 0x4D444D3549444D354D69347A4E6A67734E5334794D7A PUSH12 0x674D7A6B784C6A55784D6977 CALLER 0x4C PUSH11 0x51334D69417A4F4463754F PREVRANDAO COINBASE PUSH24 0x49454D674F4334784D7A4D674D7A67324C6A63774D437735 0x4C PUSH11 0x55314F43417A4F4451754E PUSH11 0x41774C4445774C6A597A4E PUSH26 0x417A4F444D754D544D3049454D674D5445754E7A453349444D34 0x4D MSTORE8 CALLVALUE ORIGIN 0x4E PUSH11 0x63734D544D754E6A413349 PREVRANDAO 0x4D CALLER 0x4F NUMBER CALLVALUE CALLVALUE 0x4E PUSH27 0x63734D5451754F444D3449444D334E6934354D7A5167517941794D NUMBER CALLVALUE PUSH25 0x4E6A49674D7A59344C6A55794E5377794D69347A4F4467674D PUSH27 0x59304C6A6B774F4377794D6934324F4451674D7A59304C6A45334F MSTORE8 TIMESTAMP PREVRANDAO 0x49 PREVRANDAO 0x49 PUSH27 0x4C6A45334D79417A4E6A49754F54637A4C4449314C6A49314F5341 PUSH27 0x4E546B754E5445304C4449324C6A45334E53417A4E5467754D7A67 ORIGIN 0x49 GASLIMIT 0x4D PUSH8 0x4D6A59754F544577 0x49 PREVRANDAO 0x4D BALANCE 0x4E PUSH26 0x34304F444D734D7A51754D7A457749444D304D6934344E544573 0x4D PUSH27 0x55754E54633249444D7A4F5334344D4445675443417A4E6934774E PUSH27 0x4D674D7A4D344C6A59774D79417A4E6934344D7A59674D7A4D354C PUSH11 0x55304E69424449444D334C PUSH11 0x4D774D53417A4E4441754D SLOAD GASLIMIT CALLDATALOAD 0x4C PREVRANDAO 0x4D CALLER 0x4C PUSH11 0x59774D43417A4E4445754D SLOAD GASLIMIT PUSH24 0x4C444D334C6A59774D43417A4E4449754D44637A49454D67 0x4D PUSH27 0x63754E6A417749444D304E4334794F4467734E4441754D6A413149 PREVRANDAO 0x4D BALANCE 0x4D PUSH10 0x34774E5441734E444975 0x4D PREVRANDAO PUSH4 0x7949444D BALANCE 0x4E MSTORE8 CALLVALUE ADDRESS 0x4D PREVRANDAO COINBASE PUSH8 0x517941304E433432 0x4E SLOAD PUSH12 0x674D7A59774C6A41304D4377 ADDRESS 0x4E NUMBER CALLVALUE CALLER 0x4D SLOAD GASLIMIT PUSH8 0x4D7A59774C6A4930 0x4D PUSH10 0x77304E5334784D546B67 0x4D PUSH27 0x59334C6A49774D434244494451314C6A51354D79417A4E7A4D754E SLOAD MSIZE CALLVALUE 0x4C PREVRANDAO MLOAD ORIGIN 0x4C PUSH11 0x49794D53417A4E7A63754D PUSH11 0x41334C4451334C6A45344E PUSH10 0x417A4E7A63754E544935 0x49 GASLIMIT 0x4D PUSH8 0x4E4463754E444979 0x49 PREVRANDAO 0x4D CALLER 0x4E PUSH26 0x34324D4463734E4463754E6A417749444D334F4334354E545973 0x4E PREVRANDAO PUSH4 0x754E6A41 PUSH24 0x49444D344D4334324E7A4567517941304E7934324D444167 0x4D PUSH27 0x677A4C6A63784E6977304F4334354D5445674D7A67354C6A49774D NUMBER PUSH24 0x304F5334324D7A6B674D7A67354C6A49774D434244494451 CALLDATALOAD 0x4C PUSH11 0x677A4F43417A4F446B754D PUSH11 0x41774C4455774C6A41774D NUMBER COINBASE PUSH27 0x4F446B754E5459354C4455774C6A41774D43417A4F5441754D4449 PUSH24 0x49454D674E5441754D44417749444D354D4334304E7A4573 0x4E SLOAD COINBASE PUSH22 0x4D6A593349444D354D53347A4E5463734E5441754E54 PUSH12 0x3049444D354D5334354F446B PUSH8 0x517941314D433435 0x4D PUSH11 0x45674D7A6B794C6A59794D MSTORE8 PUSH24 0x314D5334304F444D674D7A6B304C6A41774E7977314D5334 CALLVALUE 0x4E PREVRANDAO MLOAD PUSH8 0x4D7A6B314C6A4132 0x4F MSTORE8 TIMESTAMP PREVRANDAO 0x49 PREVRANDAO SSTORE PUSH26 0x4C6A49774E43417A4F5459754D544D784C4455794C6A677A4E79 COINBASE PUSH27 0x4F5463754E4449354C44557A4C6A49314D43417A4F5463754F5455 ADDRESS 0x49 GASLIMIT 0x4D PUSH8 0x4E544D754E6A5979 0x49 PREVRANDAO 0x4D CALLDATALOAD 0x4F NUMBER CALLVALUE ADDRESS 0x4E PUSH27 0x6B734E5451754D44417749444D354F5334784E5451734E5451754D PREVRANDAO COINBASE PUSH24 0x49444D354F5334304E545167517941314E4334774D444167 0x4D PUSH27 0x6B354C6A677A4E4377314E4334314E4459674E4441774C6A41774D NUMBER PUSH24 0x314E5334344D4441674E4441774C6A41774D434244494455 CALLER 0x4C PUSH11 0x59784D5341304D4441754D PREVRANDAO COINBASE PUSH24 0x4C4455344C6A49784F53417A4F546B754D6A51774C445533 0x4C PUSH11 0x49314E43417A4F5467754D SLOAD PUSH8 0x7749454D674E5459 PUSH22 0x4E54593249444D354E7934304D6A51734E5445754E6A COINBASE PUSH24 0x49444D344E7934324E4449734E5445754E6A417749444D34 0x4E PUSH26 0x34774E444967517941314D5334324D4441674D7A67324C6A6377 0x4E NUMBER PUSH24 0x314D53347A4E5455674D7A67314C6A677A4E6977314D5334 PUSH24 0x4E5455674D7A67314C6A45784E434244494455774C6A6331 0x4E MSTORE8 COINBASE PUSH27 0x4F4451754D7A6B784C4455774C6A45354E79417A4F4449754F4445 PUSH24 0x4C4451354C6A67784E43417A4F4445754E6A417749454D67 0x4E PREVRANDAO PUSH12 0x754E444D7849444D344D4334 PUSH27 0x4F5441734E4467754F44677A49444D334F4334344E6A41734E4467 PUSH22 0x4E546B3149444D334F4334794D444167517941304F43 CALLVALUE PUSH24 0x4F5463674D7A63334C6A41314F4377304E7934314D7A6367 0x4D PUSH27 0x59324C6A59314D5377304E7934344F5449674D7A59314C6A45794E NUMBER TIMESTAMP PREVRANDAO 0x49 PREVRANDAO MLOAD CALLER 0x4C PUSH11 0x6B344D53417A4E6A51754E PUSH27 0x51784C4451344C6A55784E53417A4E6A51754D7A6B314C4451354C PUSH11 0x45794E53417A4E6A51754D PUSH27 0x493049454D674E5441754F44413549444D324E4334784D7A41734E SLOAD COINBASE PUSH22 0x4E7A6B3349444D324D6934794E4445734E446B754D44 PUSH12 0x3249444D314F5334354F444D PUSH8 0x517941304E793431 0x4E PUSH27 0x59674D7A55334C6A6B324E4377304E4334304D4441674D7A55794C PUSH11 0x55794F5377304E4334304D PREVRANDAO COINBASE PUSH8 0x4D7A55784C6A6B30 0x4E MSTORE8 TIMESTAMP PREVRANDAO 0x49 PREVRANDAO MLOAD ADDRESS 0x4C PUSH11 0x51774D43417A4E5445754E PUSH27 0x4D7A4C4451304C6A41354D69417A4E5441754F5467304C44517A4C PUSH11 0x63784E53417A4E5441754D PUSH11 0x677749454D674E4449754D SLOAD GASLIMIT PUSH24 0x49444D304E7934794F4451734E4441754F54493149444D30 0x4D PUSH26 0x34774F5451734E4441754E44453549444D7A4F4334324D7A4D67 MLOAD PUSH26 0x41304D4334784F546B674D7A4D324C6A59354E69777A4F533434 0x4F SLOAD COINBASE PUSH8 0x4D7A4D314C6A6377 0x4F MSTORE8 PUSH24 0x7A4F53347A4F4467674D7A4D314C6A4D304D69424449444D CALLVALUE 0x4C PUSH11 0x67324E69417A4D7A51754F SLOAD MSIZE PUSH24 0x4C444D344C6A59304D79417A4D7A51754D5467324C444D34 0x4C PUSH11 0x55334D53417A4D7A49754E SLOAD COINBASE CALLVALUE 0x49 GASLIMIT 0x4D PUSH8 0x4D7A67754E544532 0x49 PREVRANDAO 0x4D PUSH27 0x4D5334794D7A6B734D7A67754D6A637749444D794F43347A4D5441 PUSH20 0x4D7A67754D44493049444D794E6934774D444167 MLOAD PUSH26 0x417A4E7934304F5459674D7A49784C6A417A4D43777A4E793430 0x4E SLOAD MLOAD PUSH8 0x4D6A6B794C6A5130 0x4F MSTORE8 PUSH24 0x7A4E7934354E6A6B674D6A67334C6A67774D43424449444D CALLDATALOAD 0x4C PUSH11 0x41354E6941794E7A63754E PUSH11 0x45354C4451774C6A63794E MSTORE8 COINBASE PUSH26 0x4E7A41754E7A6B304C4451304C6A41794F5341794E6A49754E44 COINBASE PUSH24 0x49454D674E4459754D44677A494449314E7934784F445173 0x4E PREVRANDAO SSTORE PUSH22 0x4E7A6735494449314E4334784E5445734E444D754E44 COINBASE PUSH24 0x494449314E5334354D44596754544D784C6A497A4D694179 0x4E SLOAD PUSH4 0x754D7A59 PUSH26 0x49454D674D7A41754D6A4D79494449314F4334314E6A63734D7A 0x49 PUSH22 0x4D7A5934494449324D6934774D4455734D7A4D754E7A PUSH8 0x77494449324D5334 ADDRESS 0x4E PUSH11 0x4D675179417A4E4334324D PUSH27 0x51674D6A59784C6A457A4E53777A4E4334314E5463674D6A59774C PUSH11 0x45344F43777A4D7934314D PUSH11 0x59674D6A55344C6A4D314E NUMBER TIMESTAMP PREVRANDAO 0x49 PREVRANDAO 0x4D PUSH26 0x4C6A59774D5341794E5459754E7A41344C444D784C6A6B354D79 COINBASE PUSH26 0x4E5459754E4451314C444D784C6A497A4D6941794E5463754D7A MSIZE PUSH26 0x494530794D5459754E446777494449324D7934324F4441675179 COINBASE PUSH26 0x4D5455754E44677A494449324E4334324E7A63734D6A45314C6A PUSH12 0x304D6941794E6A55754E5455 ADDRESS 0x4C PREVRANDAO 0x49 PUSH25 0x4E7934334D4441674D6A59324C6A41784D434244494449794D MSTORE8 CALLVALUE PUSH26 0x4D7A59674D6A59324C6A6B794F4377794D6A55754D7A6B7A4944 0x49 ORIGIN 0x4F NUMBER CALLVALUE PUSH26 0x4F4467734D6A49334C6A51774D4341794E6A6B754D5467324945 0x4D PUSH8 0x4D6A49334C6A6730 0x4D NUMBER COINBASE PUSH26 0x4E6A6B754D7A677A4C4449794F5334314E5441674D6A59354C6A PUSH12 0x7A4D7977794D7A45754D6A41 PUSH24 0x494449334D4334304D446B67517941794D7A49754F445577 0x49 PREVRANDAO 0x49 CALLER 0x4D NUMBER CALLVALUE CALLVALUE 0x4F PREVRANDAO MSIZE PUSH20 0x4D6A4D304C6A63324D6941794E7A45754E445932 0x4C PREVRANDAO 0x49 PUSH27 0x4E5334304E5441674D6A63784C6A63774D4342444944497A4E6934 CALLDATALOAD 0x4F PREVRANDAO SSTORE PUSH8 0x4D6A63794C6A4979 0x4D MSTORE8 PUSH24 0x794D7A63754F444534494449334D5334354E4441734D6A4D CALLVALUE 0x4C PUSH11 0x45784E6941794E7A41754E PUSH27 0x6B3449454D674D6A4D344C6A4D334D6941794E6A6B754F4449794C PREVRANDAO 0x49 PUSH27 0x4E4334354E4455674D6A59344C6A41784E4377794D7A41754D6A41 PUSH24 0x494449324E6934324D6A4167517941794D6A67754F446777 0x49 PREVRANDAO 0x49 ORIGIN 0x4E PUSH10 0x34794D7A49734D6A4933 0x4C PUSH11 0x45304E5341794E6A55754E PUSH11 0x63304C4449794E69347A4E PREVRANDAO SSTORE PUSH8 0x4D6A59314C6A4D33 0x4F MSTORE8 TIMESTAMP PREVRANDAO 0x49 PREVRANDAO 0x49 PUSH26 0x4D5334344F5463674D6A597A4C6A63304D4377794D5463754D6A 0x49 BALANCE 0x49 PREVRANDAO 0x49 ORIGIN 0x4D PUSH10 0x34354D7A55734D6A4532 0x4C PUSH11 0x51344D4341794E6A4D754E PUSH11 0x6777494530794E5445754E PREVRANDAO MSIZE CALLER 0x49 PREVRANDAO 0x49 ORIGIN 0x4E MSTORE8 CALLVALUE PUSH25 0x4D444167517941794E4459754D7A5531494449334D4334334D SLOAD MSIZE PUSH20 0x4D6A51314C6A67334E5341794E7A45754E545933 0x4C PREVRANDAO 0x49 ADDRESS 0x4E PUSH10 0x34354F546B674D6A637A 0x4C PUSH11 0x41794E434244494449304E PUSH26 0x34314F4449674D6A637A4C6A63334F5377794E4463754E6A4932 0x49 PREVRANDAO 0x49 CALLER 0x4D PUSH26 0x34334E6A63734D6A51344C6A59794D5341794E7A49754E6A4177 0x49 GASLIMIT 0x4D PUSH8 0x4D6A55774C6A6333 0x4F MSTORE8 COINBASE PUSH26 0x4E7A41754D4459354C4449314D5334354E4459674D6A59344C6A PUSH8 0x354D7977794E544D PUSH22 0x4D545578494449324F4334774D7A5567517941794E54 MLOAD PUSH22 0x4E545934494449324E7934774D6A59734D6A55314C6A GASLIMIT PUSH26 0x4F5341794E6A55754E4463344C4449314E43347A4F5459674D6A MSIZE ADDRESS 0x4C PUSH11 0x55354E534244494449314D PUSH26 0x34324E4467674D6A597A4C6A59354E4377794E5449754E546335 0x49 PREVRANDAO 0x49 ORIGIN 0x4D PUSH26 0x34344E7A67734D6A55784C6A51324E7941794E6A55754D544177 0x49 GASLIMIT ADDRESS PUSH26 0x4D6A4D754E6A6777494449334D6934344F444167517941794D6A 0x49 PUSH22 0x4F545178494449334D7934324D546B734D6A497A4C6A GASLIMIT PUSH24 0x4F4341794E7A51754D7A63344C4449794E4334784D444167 0x4D PUSH11 0x63304C6A63354E53424449 PREVRANDAO 0x49 PUSH27 0x4D7934334D4455674D6A63344C6A67794E7977794D7A63754E4463 PUSH24 0x494449334F5334314D5449734D6A4D334C6A457A4E534179 0x4E PUSH27 0x63754D54593149454D674D6A4D324C6A6B344E7941794E7A59754D SLOAD 0x4D PUSH26 0x4C44497A4D4334314D7A55674D6A637A4C6A497A4F4377794D6A PUSH8 0x754D7A4930494449 CALLER 0x4D PUSH26 0x34794D544967517941794D6A63754E7A4D79494449334D793479 0x4D PREVRANDAO MSIZE PUSH20 0x4D6A49334C6A457A4E6941794E7A4D754D444977 0x4C PREVRANDAO 0x49 PUSH26 0x4E7934774D4441674D6A63794C6A67774D434244494449794E69 CALLVALUE ORIGIN 0x4E SLOAD SSTORE PUSH8 0x4D6A63794C6A4930 0x4D MSTORE8 PUSH24 0x794D6A51754D6A5978494449334D6934794F546B734D6A49 PUSH27 0x4C6A59344D4341794E7A49754F446777494530794E5449754D7A4D PUSH27 0x494449334E5334324E6A5567517941794E5441754D6A6B78494449 CALLER 0x4E PUSH10 0x34794D6A41734D6A5135 0x4C PUSH11 0x497A4E7941794E7A63754E PREVRANDAO COINBASE CALLVALUE 0x4C PREVRANDAO 0x49 BALANCE 0x4D NUMBER CALLVALUE PUSH24 0x4E5467674D6A63344C6A49794F534244494449314D433434 0x4F SLOAD PUSH4 0x674D6A63 CALLDATALOAD 0x4C PUSH11 0x41324F5377794E5455754E SLOAD GASLIMIT BALANCE 0x49 PREVRANDAO 0x49 CALLER 0x4F NUMBER CALLVALUE BALANCE 0x4D SLOAD PUSH4 0x734D6A55 ORIGIN 0x4C PUSH11 0x45314E5341794E7A63754E SLOAD COINBASE PUSH24 0x49454D674D6A55334C6A49774E4341794E7A55754F444D7A 0x4C PREVRANDAO 0x49 BALANCE 0x4E MSTORE8 CALLVALUE PUSH26 0x4D546B674D6A63304C6A67344D4377794E5449754D7A4D7A4944 0x49 CALLER 0x4E MSTORE8 CALLVALUE ORIGIN 0x4E PUSH11 0x5567545449304E5334344E PUSH11 0x63674D6A67354C6A67324E PUSH26 0x4244494449304E5334304D5459674D6A6B774C6A4D784E797779 0x4E PREVRANDAO SSTORE PUSH22 0x4E546378494449354D6934304D5449734D6A51324C6A GASLIMIT BALANCE 0x4D PUSH26 0x41794F544D754E7A517749454D674D6A51324C6A51314E794179 0x4F SLOAD MLOAD PUSH22 0x4E444D7A4C4449304E7934774F5451674D6A6B324C6A MSIZE PUSH26 0x4D4377794E4463754E545935494449354F4334324D4441675179 COINBASE PUSH26 0x4E4467754D44513049444D774D4334314F4441734D6A51344C6A PUSH12 0x314E69417A4D4451754D5467 PUSH24 0x4C4449304F5334314F5463674D7A41324C6A59774D434244 0x49 PREVRANDAO 0x49 BALANCE 0x4D NUMBER CALLVALUE PUSH26 0x4D7A63674D7A41354C6A41794D4377794E5445754D7A51344944 0x4D PUSH25 0x4D7934314F5445734D6A55794C6A41324E69417A4D5459754E PUSH27 0x553349454D674D6A557A4C6A4D7A4F53417A4D6A49754D7A63304C PREVRANDAO 0x49 BALANCE 0x4D PUSH26 0x34344E6A6B674D7A497A4C6A59774D4377794E5455754D444978 0x49 PREVRANDAO 0x4D PUSH26 0x4D7934324D444167517941794E5459754D54453149444D794D79 CALLVALUE ORIGIN 0x4D PREVRANDAO COINBASE PUSH20 0x4D6A55324C6A45774E69417A4D6A45754E545932 0x4C PREVRANDAO 0x49 BALANCE 0x4E NUMBER CALLVALUE CALLDATALOAD 0x4F SLOAD COINBASE PUSH8 0x4D7A45324C6A5933 0x4D PUSH10 0x4244494449314E43347A 0x4E PUSH27 0x6B674D7A457A4C6A6B354D7977794E544D754E54593049444D784D NUMBER CALLVALUE PUSH25 0x4F4441734D6A557A4C6A45334F43417A4D4467754D6A417749 GASLIMIT 0x4D PUSH8 0x4D6A55774C6A4534 0x4F MSTORE8 COINBASE PUSH26 0x4F5449754F4455784C4449304F4334784D4455674D6A67334C6A MSIZE PUSH26 0x4F4377794E4455754F445933494449344F5334344E6A63675454 0x4D CALLDATALOAD 0x4F MSTORE8 CALLVALUE PUSH26 0x4D4441674D7A41794C6A41774D43424449444D354F5334794D44 COINBASE PUSH8 0x4D7A41794C6A5130 0x4D NUMBER PUSH24 0x7A4F546B754D7A677749444D774D6934344D4441734D7A6B CALLDATALOAD 0x4C PUSH11 0x59774D43417A4D4449754F PREVRANDAO COINBASE PUSH24 0x49454D674D7A6B354C6A67794D43417A4D4449754F444177 0x4C PREVRANDAO MLOAD PUSH24 0x4D4334774D4441674D7A41794C6A51304D4377304D444175 0x4D PREVRANDAO COINBASE PUSH24 0x49444D774D6934774D444167517941304D4441754D444177 0x49 PREVRANDAO 0x4D PUSH24 0x4D5334314E6A41734D7A6B354C6A67794D43417A4D444575 0x4D PUSH11 0x41774C444D354F5334324D PREVRANDAO COINBASE PUSH8 0x4D7A41784C6A4977 0x4D NUMBER TIMESTAMP PREVRANDAO 0x49 PREVRANDAO 0x4D CALLDATALOAD 0x4F MSTORE8 CALLVALUE PUSH27 0x4F4441674D7A41784C6A49774D43777A4F546B754D6A417749444D PUSH24 0x4D5334314E6A41734D7A6B354C6A49774D43417A4D444975 0x4D PREVRANDAO COINBASE PUSH24 0x4945307A4F5463754D6A417749444D774E4334324F445967 MLOAD PUSH26 0x417A4F5459754E44593349444D774E4334354E5463734D7A6B77 0x4C PUSH11 0x55334F43417A4D5441754D SLOAD PUSH4 0x784C444D CALLVALUE 0x4F MSTORE8 CALLVALUE PUSH26 0x4E5441674D7A45784C6A63794D79424449444D334E6934354E54 PUSH8 0x674D7A49324C6A41 CALLDATALOAD 0x4F MSTORE8 PUSH24 0x7A4F4451754D7A593449444D7A4F53347A4D5467734D7A6B CALLVALUE 0x4C PUSH11 0x45774D43417A4D6A63754E SLOAD GASLIMIT PUSH25 0x494577674E4441774C6A41774D43417A4D6A55754F44633449 PREVRANDAO MLOAD PUSH24 0x4D4334774D4441674D7A45354C6A59354D43424D49445177 0x4D NUMBER CALLVALUE PUSH24 0x4D4441674D7A457A4C6A55774D69417A4F546B754D544177 0x49 PREVRANDAO 0x4D PUSH25 0x4E4334774F5463675179417A4F5467754E44497949444D784E NUMBER CALLVALUE BALANCE 0x4E PREVRANDAO SSTORE PUSH20 0x4D7A6B344C6A45334D43417A4D5455754D545135 0x4C PREVRANDAO 0x4D CALLDATALOAD 0x4F NUMBER CALLVALUE PUSH24 0x4E7A67674D7A45324C6A55304E43424449444D354E793435 0x4E PUSH27 0x41674D7A45344C6A45344F43777A4F5463754F444D3149444D784F NUMBER CALLVALUE ADDRESS 0x4D PUSH11 0x49734D7A6B324C6A67334F NUMBER COINBASE PUSH27 0x4D5467754E6A4D7849454D674D7A6B304C6A67774D53417A4D546B PUSH22 0x4D4467314C444D354E4334334E4463674D7A45354C6A GASLIMIT ADDRESS 0x4D MSTORE8 PUSH24 0x7A4F5451754F44633249444D794D4334324F546367517941 PUSH27 0x4F5451754F546B7A49444D794D6934784D546B734D7A6B314C6A41 CALLVALUE 0x4D MSTORE8 COINBASE PUSH27 0x4D6A49754D6A41334C444D354E6934314D4441674D7A49794C6A4D PUSH26 0x4E43424449444D354F4334314D546B674D7A49794C6A51354D53 PUSH24 0x7A4F5467754D7A637849444D794D7934774E6A51734D7A6B BALANCE 0x4C PUSH11 0x63324D53417A4D6A55754D PUSH11 0x417749454D674D7A67324C PUSH11 0x41344D79417A4D7A4D754D SLOAD GASLIMIT CALLER 0x4C PREVRANDAO 0x4D CALLVALUE 0x4D PUSH10 0x34304E5445674D7A4931 0x4C PUSH11 0x55774F53777A4F5441754F SLOAD PUSH8 0x3349444D784E5334 PUSH26 0x4D4441675179417A4F5445754F44633049444D784E4334784D6A PUSH12 0x734D7A6B7A4C6A41314D4341 PUSH27 0x4D5449754E6A45314C444D354D7934324D4441674D7A45784C6A67 PUSH27 0x4E79424449444D354E4334784F4459674D7A45784C6A41774F4377 PUSH27 0x4F5455754D54677749444D784D4334794D7A45734D7A6B324C6A41 PUSH24 0x4D43417A4D446B754F54597A49454D674D7A6B324C6A6333 0x4D NUMBER COINBASE PUSH27 0x4D446B754E7A45784C444D354E7934354F4455674D7A41344C6A6B BALANCE 0x4D MSTORE8 PUSH24 0x7A4F5467754E7A417749444D774F4334794E7A5167517941 ADDRESS 0x4D PREVRANDAO GASLIMIT PUSH22 0x4D44513449444D774E6934774E5441734E4441774C6A COINBASE PUSH27 0x4F43417A4D444D754E6A4D304C444D354E7934794D4441674D7A41 ADDRESS 0x4C PUSH11 0x59344E69424E4D6A49354C PUSH11 0x63314E43417A4D5449754E SLOAD PUSH4 0x3349454D PUSH8 0x4D6A49354C6A4535 0x4F MSTORE8 COINBASE PUSH27 0x4D5451754D44497A4C4449794F5334334E6A59674D7A45304C6A55 CALLDATALOAD 0x4E MSTORE8 PUSH24 0x794D7A49754D44413149444D784E4334344E445967517941 PUSH26 0x4D7A4D754D6A457949444D784E4334354F4449734D6A4D314C6A PUSH4 0x7A4D4341 PUSH27 0x4D5455754E54557A4C44497A4E7934324D4441674D7A45324C6A45 PUSH25 0x4E694244494449304D6934794D7A67674D7A45334C6A55784D PUSH26 0x77794E4451754D444D3149444D784E7934334E5459734D6A5130 0x4C PUSH11 0x6B794D53417A4D5463754D SLOAD COINBASE CALLVALUE 0x49 GASLIMIT 0x4D PUSH8 0x4D6A51324C6A4531 0x4D PUSH10 0x417A4D5459754D6A4132 0x4C PREVRANDAO 0x49 ADDRESS 0x4E NUMBER CALLVALUE PUSH27 0x4D6A67674D7A45314C6A41774E5377794D7A6B754F54677A49444D PUSH25 0x4D7934344E545167517941794D7A63754F44677A49444D784D PUSH26 0x34794F5467734D6A4D314C6A59324E69417A4D5449754E6A557A 0x4C PREVRANDAO 0x49 PUSH27 0x4E5334774E5463674D7A45794C6A51794D5342444944497A4D7934 PUSH27 0x4E7A67674D7A45784C6A63344D7977794D7A41754D44497749444D PUSH25 0x4D5334344F4449734D6A49354C6A63314E43417A4D5449754E SLOAD PUSH4 0x33494530 PUSH26 0x4E4445754D44597A49444D794E4334304D7A4567517941794E44 COINBASE PUSH22 0x4D446B7949444D794E5334344D5467734D6A51784C6A COINBASE PUSH27 0x4D79417A4D6A59754E54517A4C4449304E5334334D4451674D7A49 CALLVALUE 0x4C PUSH11 0x41774E794244494449304F NUMBER CALLVALUE CALLER 0x4D SLOAD SSTORE PUSH8 0x4D7A49344C6A6B31 0x4D MSTORE8 PUSH24 0x794E5441754D7A517A49444D794F5334774D544D734D6A55 PUSH24 0x4C6A59314E79417A4D6A67754D546B3149454D674D6A5578 0x4C PUSH11 0x45794E69417A4D6A59754F SLOAD PUSH4 0x7A4C4449 ADDRESS 0x4F MSTORE8 CALLVALUE PUSH26 0x4F4463674D7A49314C6A63344D6977794E4455754D4441774944 0x4D PUSH26 0x4E4334314D7A4167517941794E444D754F54417749444D794E43 CALLVALUE PUSH26 0x4D446B734D6A51794C6A63774E69417A4D6A4D754F44557A4C44 0x49 ADDRESS 0x4D PUSH10 0x347A4E4463674D7A497A 0x4C PUSH11 0x637A4F534244494449304D MSTORE8 CALLVALUE CALLDATALOAD 0x4E SLOAD SSTORE PUSH8 0x4D7A497A4C6A5978 0x4E NUMBER PUSH24 0x794E4445754E44517949444D794D7934344F5445734D6A51 PUSH25 0x4C6A41324D79417A4D6A51754E444D78494530794E6A45754E PREVRANDAO GASLIMIT BALANCE 0x49 PREVRANDAO 0x4D PUSH26 0x4E4334314D444167517941794E6A41754D7A453249444D794E69 CALLVALUE PUSH24 0x4E6A6B734D6A59794C6A67314D79417A4D6A63754D544933 0x4C PREVRANDAO 0x49 ORIGIN 0x4E NUMBER CALLVALUE ORIGIN 0x4D SLOAD PUSH8 0x674D7A49314C6A67 PUSH27 0x4E694244494449324E53347A4E7A55674D7A49314C6A49344D7977 PUSH26 0x4E6A55754D7A633149444D794E5334794E5463734D6A59304C6A MSIZE PUSH27 0x4D79417A4D6A51754E444D3249454D674D6A597A4C6A59304E4341 PUSH27 0x4D6A4D754D7A517A4C4449324D6934794D4455674D7A497A4C6A4D CALLER 0x4D PUSH10 0x77794E6A45754E444531 0x49 PREVRANDAO 0x4D PUSH26 0x4E4334314D44416754544D354F4334334D4445674D7A49354C6A PUSH4 0x344E7942 PREVRANDAO 0x49 PREVRANDAO 0x4D CALLDATALOAD 0x4E MSTORE8 CALLVALUE CALLDATALOAD 0x4F SLOAD PUSH12 0x674D7A4D7A4C6A55774D6977 PUSH27 0x4F4441754F54413249444D304D6934314F4451734D7A63784C6A41 PUSH24 0x4D43417A4E4459754E44553149454D674D7A59354C6A6B77 0x4D NUMBER COINBASE PUSH27 0x4E4459754F4467314C444D324F4334304E6A41674D7A51334C6A51 CALLVALUE 0x4E MSTORE8 PUSH24 0x7A4E6A63754F44417749444D304E7934334F446767517941 PUSH27 0x4E6A59754E44457849444D304F4334304D6A59734D7A55314C6A49 ADDRESS 0x4E MSTORE8 COINBASE PUSH27 0x4E5449754D4459324C444D314D6934774D4441674D7A55794C6A6B PUSH27 0x4F43424449444D314D4334334F5441674D7A557A4C6A49324D7977 PUSH27 0x4E4467754F546B7749444D314D7934334E446B734D7A51344C6A41 PUSH24 0x4D43417A4E5451754D44453449454D674D7A51314C6A5177 0x4D PUSH10 0x417A4E5451754E7A4979 0x4C PREVRANDAO 0x4D PUSH27 0x4F4334774E4441674D7A55314C6A6B334D79777A4D7A59754E4441 PUSH24 0x49444D314E5334354F4467675179417A4D7A55754E6A4D77 0x49 PREVRANDAO 0x4D BALANCE 0x4E MSTORE8 CALLVALUE CALLDATALOAD 0x4F SLOAD SSTORE PUSH20 0x4D7A4D7A4C6A63304D43417A4E5459754D6A5535 0x4C PREVRANDAO 0x4D PUSH27 0x4D6934794D4441674D7A55324C6A55334E53424449444D794E7934 ORIGIN 0x4E PUSH11 0x49674D7A55334C6A55774E PUSH26 0x777A4D5449754D7A6B7949444D314E7934344E4441734D7A4135 0x4C PUSH11 0x49774D43417A4E5463754D PREVRANDAO PUSH4 0x3349454D PUSH8 0x4D7A41334C6A6333 0x4D NUMBER COINBASE PUSH27 0x4E5459754E7A4D314C444D774E4334784E7A41674D7A55324C6A4D ADDRESS 0x4E PUSH10 0x777A4D4445754D6A4177 0x49 PREVRANDAO 0x4D BALANCE 0x4E PUSH10 0x34794D544D6751794179 0x4F SLOAD PUSH8 0x754D6A4D7749444D BALANCE 0x4E PUSH10 0x34774E7A6B734D6A6B30 0x4C PUSH11 0x597A4D43417A4E5455754E PUSH27 0x457A4C4449354D7934794D4441674D7A55314C6A4D354F43424449 PREVRANDAO 0x49 CALLDATALOAD 0x4D MSTORE8 CALLVALUE CALLER 0x4E PUSH27 0x41674D7A55314C6A41344E4377794F446B754D44637749444D314E NUMBER CALLVALUE BALANCE 0x4E PREVRANDAO GASLIMIT PUSH20 0x4D6A67334C6A49774D43417A4E5451754D546B78 0x49 GASLIMIT 0x4D PUSH8 0x4D6A67794C6A6B30 0x4E PUSH10 0x417A4E544D754D7A6B31 0x4C PREVRANDAO 0x49 CALLER 0x4E PUSH10 0x34794E7A67674D7A5578 0x4C PUSH11 0x49334D5377794E7A49754D PUSH11 0x413449444D304F5334304D SLOAD MSIZE PUSH8 0x517941794E6A6775 0x4E PUSH11 0x493349444D304E7934334F PREVRANDAO MLOAD PUSH20 0x4D6A59344C6A59324E69417A4E4463754E7A6B78 0x4C PREVRANDAO 0x49 ORIGIN 0x4E PUSH26 0x34344D5441674D7A51344C6A59304F434244494449324E693434 0x4D PREVRANDAO GASLIMIT PUSH8 0x4D7A51354C6A5931 0x4E PUSH10 0x77794E7A41754F44597A 0x49 PREVRANDAO 0x4D BALANCE 0x4D PUSH10 0x34344D4441734D6A637A 0x4C PUSH11 0x45334E43417A4E5449754F PREVRANDAO COINBASE PUSH24 0x49454D674D6A637A4C6A51774F43417A4E5449754F444177 0x4C PREVRANDAO 0x49 CALLER 0x4D PUSH26 0x34324D4441674D7A55794C6A6B344D4377794E7A4D754E6A4177 0x49 PREVRANDAO 0x4D BALANCE 0x4D PUSH26 0x34794D444167517941794E7A4D754E6A417749444D314D793430 0x4D PUSH11 0x41734D6A63304C6A41784E PUSH10 0x417A4E544D754E6A4177 0x4C PREVRANDAO 0x49 CALLER 0x4E NUMBER CALLVALUE BALANCE 0x4D PUSH11 0x51674D7A557A4C6A59774D NUMBER TIMESTAMP PREVRANDAO 0x49 PREVRANDAO 0x49 CALLER 0x4E MSTORE8 CALLVALUE PUSH24 0x4D7A45674D7A557A4C6A59774D4377794E7A55754E7A6B32 0x49 PREVRANDAO 0x4D BALANCE 0x4D PUSH26 0x34344E6A51734D6A63324C6A49794E43417A4E5451754D546733 0x49 GASLIMIT 0x4D PUSH8 0x4D6A63334C6A4935 0x4E PUSH26 0x417A4E5451754F546B354C4449334E5334794D444D674D7A5531 0x4C PUSH11 0x41794D6977794E7A45754F PREVRANDAO 0x49 ORIGIN 0x49 PREVRANDAO 0x4D BALANCE 0x4E NUMBER CALLVALUE PUSH26 0x4D7A5567517941794E6A63754E44413549444D314D7934794D44 MSIZE PUSH20 0x4D6A59774C6A51794D69417A4E5449754E7A457A 0x4C PREVRANDAO 0x49 BALANCE 0x4D PUSH26 0x34794D4441674D7A55794C6A6B794D534244494449304E693477 0x4D SLOAD GASLIMIT PUSH8 0x4D7A557A4C6A4579 0x4E PUSH26 0x77794E4451754D6A593249444D314D79347A4E4459734D6A4D34 0x4C PUSH11 0x51774D43417A4E5451754E PUSH27 0x677749454D674D6A4D794C6A6B354E79417A4E5459754D5441784C PREVRANDAO 0x49 PUSH27 0x4D6934774D4441674D7A55324C6A49784D4377794D7A49754D4441 PUSH24 0x49444D314E5334304F444167517941794D7A49754D444177 0x49 PREVRANDAO 0x4D BALANCE 0x4E MSTORE8 CALLVALUE PUSH25 0x4D7A55734D6A4D794C6A4D324E53417A4E5451754E7A4D344C PREVRANDAO 0x49 PUSH27 0x4D6934344D5445674D7A55304C6A55354E7942444944497A4D7934 PUSH26 0x4E5463674D7A55304C6A51314E5377794D7A4D754F5445334944 0x4D BALANCE 0x4D PUSH26 0x34344E5467734D6A4D304C6A49334E79417A4E544D754D6A6377 0x49 GASLIMIT 0x4D PUSH8 0x4D6A4D314C6A4131 0x4D PUSH10 0x417A4E5449754D444132 0x4C PREVRANDAO 0x49 PUSH27 0x4E7934784E4459674D7A55774C6A41774D4377794D7A63754E6A6B PUSH24 0x49444D314D4334774D444167517941794D7A67754D7A6B30 0x49 PREVRANDAO 0x4D BALANCE 0x4D NUMBER CALLVALUE PUSH24 0x4D4441734D6A517A4C6A59774D43417A4E4451754D7A6B79 0x4C PREVRANDAO 0x49 ADDRESS 0x4D PUSH26 0x34324D4441674D7A517A4C6A597A4E434244494449304D793432 0x4D PREVRANDAO COINBASE PUSH8 0x4D7A51784C6A6B30 0x4E MSTORE8 PUSH24 0x794E4449754E44413149444D304D6934314E4445734D6A4D CALLDATALOAD 0x4C PUSH11 0x45354E53417A4E4455754F PREVRANDAO 0x49 CALLDATALOAD 0x49 GASLIMIT 0x4D PUSH8 0x4D6A4D334C6A4D34 0x4E MSTORE8 COINBASE PUSH27 0x4E4463754E6A677A4C44497A4E5334344D4445674D7A51354C6A49 PUSH24 0x4D4377794D7A55754E6A633049444D304F5334794D444167 MLOAD PUSH26 0x41794D7A55754E54513349444D304F5334794D4441734D6A4D30 0x4C PUSH11 0x6B344E43417A4E446B754E PUSH11 0x51774C44497A4E4334304D PUSH11 0x49674D7A55774C6A45334F MSTORE8 TIMESTAMP PREVRANDAO 0x49 PREVRANDAO 0x49 PUSH27 0x4D7934304E4463674D7A55784C6A45784D6977794D6A55754D7A59 BALANCE 0x49 PREVRANDAO 0x4D BALANCE 0x4E PUSH10 0x34304D4441734D6A4930 0x4C PUSH11 0x6B784D79417A4E5459754E PREVRANDAO COINBASE PUSH24 0x49454D674D6A49304C6A63354E43417A4E5459754E444177 0x4C PREVRANDAO 0x49 PUSH26 0x4D79347A4E5467674D7A55334C6A4D784D6977794D6A45754E7A 0x49 PUSH27 0x49444D314F4334304D6A6367517941794D6A41754D44673349444D BALANCE 0x4F MSTORE8 CALLVALUE BALANCE 0x4E PREVRANDAO 0x49 PUSH20 0x4D6A45344C6A41334E69417A4E6A41754E6A6B78 0x4C PREVRANDAO 0x49 PUSH25 0x4E7934794E544D674D7A59774C6A6B344D534244494449784E PUSH10 0x34304D7A45674D7A5978 0x4C PUSH11 0x49334D5377794D5451754E PUSH11 0x673349444D324D6934774E PUSH27 0x59734D6A457A4C6A4D334F53417A4E6A49754E7A637749454D674D PUSH11 0x41354C6A6B314D43417A4E PUSH11 0x51754E5467344C4449774E PUSH26 0x34784E7A63674D7A59314C6A6B354D5377794D4455754F444177 0x49 PREVRANDAO 0x4D ORIGIN 0x4E PUSH10 0x34324D44556751794178 0x4F SLOAD PUSH8 0x754E6A633149444D ORIGIN 0x4F MSTORE8 CALLVALUE CALLER 0x4F PREVRANDAO 0x4D PUSH20 0x4D546B324C6A51304D43417A4E7A41754E7A4130 0x4C PREVRANDAO GASLIMIT CALLDATALOAD 0x4D PUSH26 0x34774D4441674D7A63784C6A67344D434244494445344E533479 0x4F PREVRANDAO PUSH8 0x674D7A63304C6A55 PUSH25 0x4E6977784E6A67754E7A553349444D334F4334304F4459734D SLOAD SSTORE CALLDATALOAD 0x4C PUSH11 0x67774D43417A4E7A6B754F PREVRANDAO SSTORE ADDRESS 0x49 GASLIMIT 0x4D PUSH8 0x4D5455354C6A4530 0x4D NUMBER COINBASE PUSH27 0x4E7A6B754F5455314C4445314E7934784E6A41674D7A67774C6A49 CALLDATALOAD 0x4E NUMBER PUSH24 0x784E5455754E44417749444D344D4334324D445967517941 PUSH25 0x4E4463754D54517A49444D344D6934774E7A51734D5449794C PUSH11 0x45324E69417A4F4449754D SLOAD PUSH4 0x304C4445 PUSH25 0x4D4334304D4441674D7A67774C6A63344E694244494445774D PUSH26 0x34774D6A45674D7A63354C6A6B784E6977354E5334344E7A6367 0x4D PUSH27 0x63344C6A63324E6977354D7934794D4441674D7A63344C6A41784F MSTORE8 TIMESTAMP PREVRANDAO 0x49 PREVRANDAO PUSH12 0x794C6A517A4D43417A4E7A63 PUSH22 0x4F4441304C4467354C6A51324D43417A4E7A59754F54 PUSH8 0x304C4467324C6A59 PUSH24 0x4D43417A4E7A59754D546B3349454D674F4441754E7A5133 0x49 PREVRANDAO 0x4D CALLER 0x4E NUMBER CALLVALUE BALANCE 0x4F PREVRANDAO MSIZE PUSH20 0x4E7A59754F44417749444D334D7934794D6A5973 0x4E PUSH27 0x59754F44417749444D334D6934344D6A4167517941334E6934344D PREVRANDAO COINBASE PUSH8 0x4D7A63794C6A5933 0x4D MSTORE8 PUSH24 0x334E7934354E4455674D7A63794C6A45304E4377334F5334 PUSH27 0x4E4455674D7A63784C6A59304F534244494467344C6A6B314D4341 PUSH27 0x4E6A67754D6A55354C4467324C6A41314F53417A4E5463754E7A55 ORIGIN 0x4C PREVRANDAO PUSH4 0x7A4C6A6B PUSH24 0x4D69417A4E5445754F44633349454D674E5459754E6A5132 0x49 PREVRANDAO 0x4D ADDRESS 0x4D PUSH26 0x34314D7A49734E4455754F44453249444D304E69347A4E544173 0x4E SLOAD GASLIMIT PUSH22 0x4E54453549444D314E7934324F546B67517941314D79 CALLVALUE ADDRESS 0x4D PUSH27 0x41674D7A59784C6A55774D5377324D5334324E4463674D7A59344C PUSH11 0x67774D4377324E4334774D SLOAD PUSH4 0x674D7A59 CALLVALUE 0x4C PUSH11 0x67774D434244494459304C PUSH11 0x49304D43417A4E6A67754F PREVRANDAO COINBASE PUSH24 0x4C4459314C6A51314D79417A4E6A6B754D7A49774C445932 0x4C PUSH11 0x63784D53417A4E6A6B754F SLOAD SSTORE BALANCE 0x49 GASLIMIT 0x4D PUSH8 0x4E6A6B754D6A5534 0x49 PREVRANDAO 0x4D CALLER 0x4D MSTORE8 CALLVALUE PUSH26 0x4D7A6B734E7A45754D6A593349444D334D5334344E5449734E7A MLOAD PUSH22 0x4D54417749444D334D6934794D446B67517941334E69 CALLVALUE PUSH24 0x4E7A59674D7A63794C6A51314F5377334E6934304E7A4567 0x4D PUSH27 0x63794C6A6B324E7977334E53347A4D7A55674D7A637A4C6A63354F NUMBER TIMESTAMP PREVRANDAO 0x49 PREVRANDAO PUSH4 0x304C6A55 ADDRESS 0x4F NUMBER COINBASE PUSH27 0x4E7A51754D7A637A4C4463304C6A67314E69417A4E7A55754E5445 PUSH24 0x4C4463314C6A67354D53417A4E7A55754F44557A49454D67 0x4E PUSH27 0x59754D6A677849444D334E5334354F4449734E7A67754D7A553549 PREVRANDAO 0x4D CALLER 0x4E PUSH10 0x34334F4467734F444175 0x4E SLOAD GASLIMIT PUSH24 0x49444D334E7934324E445167517941354F5334324D6A5167 0x4D PUSH27 0x67314C6A49314E7977784D7A41754D44673249444D344E7934784D SLOAD SSTORE PUSH20 0x4D5459794C6A45794E79417A4F4449754E6A4978 0x49 GASLIMIT 0x4D PUSH8 0x4D5459304C6A5577 0x4E PUSH10 0x417A4F4449754D6A6733 0x4C PREVRANDAO GASLIMIT ORIGIN 0x4E PUSH10 0x34324E4459674D7A6778 0x4C PUSH11 0x67354E5377784E6A59754F PREVRANDAO PUSH8 0x7849444D344D5334 CALLER 0x4E SLOAD COINBASE PUSH8 0x517941784E6A6375 0x4D SLOAD GASLIMIT ORIGIN 0x49 PREVRANDAO 0x4D CALLVALUE 0x4D MSTORE8 CALLVALUE ORIGIN 0x4D PREVRANDAO MLOAD PUSH20 0x4D5459344C6A51774F53417A4F4445754D7A5135 0x4C PREVRANDAO GASLIMIT ORIGIN 0x4F MSTORE8 CALLVALUE CALLER 0x4E SLOAD SSTORE PUSH8 0x4D7A67784C6A4534 0x4D PUSH10 0x4244494445334D533478 0x4D PREVRANDAO COINBASE PUSH8 0x4D7A67784C6A4178 0x4E MSTORE8 PUSH24 0x784E7A4D754E54557749444D344D4334304F5445734D5463 BALANCE 0x4C PUSH11 0x49774D43417A4F4441754D PREVRANDAO GASLIMIT CALLDATALOAD 0x49 GASLIMIT 0x4D PUSH8 0x4D5463324C6A6731 0x4D NUMBER COINBASE PUSH27 0x4E7A6B754E5451324C4445334F4334354D6A41674D7A63354C6A41 PUSH25 0x4E5377784E7A6B754F44417749444D334F4334344D7A6B6751 PUSH26 0x41784F4441754E6A677749444D334F4334324E6A4D734D546778 0x4C PUSH11 0x67314D43417A4E7A67754D PUSH27 0x49784C4445344D6934304D4441674D7A63344C6A41334F43424449 PREVRANDAO GASLIMIT CALLVALUE 0x4D PUSH10 0x34354E5441674D7A6333 0x4C PUSH11 0x677A4E5377784F4455754D PREVRANDAO 0x49 PUSH24 0x49444D334E7934794E4467734D5467334C6A41774D43417A 0x4E PUSH27 0x59754E7A633049454D674D5467344C6A6B344D43417A4E7A59754D PUSH11 0x6B354C4445354D4334334F PREVRANDAO COINBASE PUSH8 0x4D7A63314C6A6333 0x4D NUMBER PUSH24 0x784F5445754D44417749444D334E5334314F546367517941 PUSH25 0x4F5445754E444D3549444D334E5334794E544D734D6A417A4C PUSH11 0x51314E69417A4E7A45754D PUSH11 0x41774C4449774E4334774D PUSH27 0x6B674D7A63784C6A49774D434244494449774E5334784D7A49674D PUSH27 0x63784C6A49774D4377794D444D754E7A593549444D334D6934334F SLOAD PUSH4 0x734D546B BALANCE 0x4C PUSH11 0x4D344F43417A4F4445754D PUSH27 0x517849454D674D546B784C6A41324E53417A4F4455754E7A51334C PREVRANDAO GASLIMIT CALLVALUE 0x4E NUMBER CALLVALUE CALLVALUE 0x4E PUSH11 0x63674D7A6B7A4C6A67784E PUSH26 0x77784F4449754F44497A49444D354E7934334D44416754434178 0x4F PREVRANDAO GASLIMIT PUSH22 0x4E6A4579494451774D4334774D4441674D54677A4C6A 0x49 PUSH24 0x4E6941304D4441754D44417749454D674D5467304C6A4134 0x4E PUSH26 0x41304D4441754D4441774C4445344E4334344D4441674D7A6B35 0x4C PUSH11 0x67774E5377784F4451754F PREVRANDAO COINBASE PUSH24 0x49444D354F5334314E6A5567517941784F4451754F444177 0x49 PREVRANDAO 0x4D CALLDATALOAD 0x4F NUMBER CALLVALUE CALLDATALOAD 0x4F PREVRANDAO 0x4D PUSH20 0x4D5467334C6A41774D69417A4F5455754F445531 0x4C PREVRANDAO GASLIMIT CALLVALUE 0x4F MSTORE8 CALLVALUE PUSH25 0x4D4441674D7A6B7A4C6A51314E794244494445354D4334774D PUSH27 0x55674D7A6B794C6A4D344F4377784F5441754F44417749444D354D MSTORE8 CALLVALUE PUSH26 0x4F4455734D546B774C6A67774D43417A4F5445754D4441324945 0x4D PUSH8 0x4D546B774C6A6777 0x4D NUMBER COINBASE PUSH27 0x4F5441754E7A49324C4445354D5334774F5463674D7A6B774C6A49 BALANCE 0x4D MSTORE8 PUSH24 0x784F5445754E44597849444D344F5334354E446B67517941 PUSH25 0x4F5445754F44493049444D344F5334324E4467734D546B794C PUSH11 0x677A4F43417A4F4467754E PREVRANDAO 0x4D PUSH25 0x4C4445354D7934334D5451674D7A67334C6A49304E69424449 PREVRANDAO GASLIMIT CALLDATALOAD 0x4F NUMBER CALLVALUE BALANCE 0x4F PREVRANDAO MSIZE PUSH8 0x4D7A67774C6A5931 0x4D NUMBER PUSH24 0x794D5441754D6A593349444D334D4334344E446B734D6A45 CALLVALUE 0x4C PUSH11 0x51304D43417A4E6A59754E PREVRANDAO PUSH12 0x3549454D674D6A49774C6A45 PUSH25 0x4D79417A4E6A55754E6A41354C4449794D5334344D6A4D674D PUSH27 0x59304C6A59354D5377794D6A49754D6A517749444D324E4334304E SLOAD PUSH12 0x67517941794D6A49754E6A55 CALLVALUE 0x49 PREVRANDAO 0x4D ORIGIN 0x4E NUMBER CALLVALUE PUSH26 0x4D6A63734D6A497A4C6A67784D43417A4E6A4D754E6A59794C44 0x49 PUSH26 0x4E4334344D4441674D7A597A4C6A49774E434244494449794E53 CALLVALUE CALLER 0x4F SLOAD COINBASE PUSH8 0x4D7A59794C6A6330 0x4E PUSH10 0x77794D6A63754D7A4977 0x49 PREVRANDAO 0x4D ORIGIN 0x4D MSTORE8 CALLVALUE CALLDATALOAD 0x4F SLOAD MLOAD PUSH20 0x4D6A49344C6A49774D43417A4E6A45754E544D79 0x49 GASLIMIT 0x4D PUSH8 0x4D6A4D314C6A4133 0x4F NUMBER COINBASE PUSH27 0x4E5463754F5449314C4449304F5334304F4441674D7A55314C6A41 CALLDATALOAD 0x4E PUSH26 0x77794E5463754E54417749444D314E5334334F44416751794179 0x4E SLOAD PUSH12 0x754E44493149444D314E5334 CALLDATALOAD 0x4E PREVRANDAO 0x4D PUSH20 0x4D6A59794C6A4D334F53417A4E5459754D544D79 0x4C PREVRANDAO 0x49 ORIGIN 0x4E NUMBER CALLVALUE PUSH24 0x4E6A51674D7A55324C6A49774D434244494449324E533433 0x4E PREVRANDAO PUSH12 0x674D7A55324C6A49324E7977 PUSH26 0x4E6A63754E7A493549444D314E6934314D5445734D6A59344C6A MLOAD ORIGIN 0x4E NUMBER COINBASE PUSH27 0x4E5459754E7A517849454D674D6A63774C6A45794E69417A4E5463 PUSH22 0x4D6A597A4C4449334E4334314D7A4D674D7A55344C6A MLOAD PUSH26 0x4D4377794E7A59754E44417749444D314F4334344D6A55675179 COINBASE PUSH26 0x4E7A63754F44493549444D314F5334784D7A55734D6A677A4C6A MSIZE CALLDATALOAD 0x4F MSTORE8 COINBASE PUSH27 0x4E6A45754D6A49344C4449344E5334774E5449674D7A59784C6A6B PUSH25 0x4D434244494449344E5334304E6A4D674D7A59794C6A45784E PUSH26 0x77794F4463754D54557749444D324D6934354E4449734D6A6734 0x4C PUSH11 0x67774D43417A4E6A4D754E PUSH27 0x517949454D674D7A41774C6A55334F43417A4E6A6B754E4455314C PREVRANDAO 0x4D PUSH25 0x4E4334304D546B674D7A67784C6A67324F43777A4D6A51754F SLOAD PUSH12 0x7849444D354E6934794D4441 PUSH8 0x5179417A4D6A5575 0x4E PUSH11 0x517749444D354E7934774F PREVRANDAO COINBASE PUSH20 0x4D7A49324C6A51774D79417A4F5467754D444D34 0x4C PREVRANDAO 0x4D PUSH26 0x4E6934324F4459674D7A6B344C6A4D794F53424449444D794E69 CALLVALUE CALLDATALOAD 0x4E PUSH11 0x67674D7A6B344C6A59784F MSTORE8 PUSH24 0x7A4D6A63754D6A417749444D354F5334784D5451734D7A49 CALLER 0x4C PUSH11 0x49774D43417A4F546B754E PREVRANDAO 0x49 CALLDATALOAD 0x49 GASLIMIT 0x4D PUSH8 0x4D7A49334C6A4977 0x4D NUMBER COINBASE PUSH27 0x4F546B754F4455314C444D794E7934334E6A41674E4441774C6A41 PUSH24 0x4D43777A4D6A6B754E444177494451774D4334774D444167 MLOAD PUSH26 0x417A4D7A49754D544178494451774D4334774D4441734D7A4D79 0x4C PUSH11 0x45774D5341304D4441754D PREVRANDAO GASLIMIT CALLVALUE 0x4C PREVRANDAO 0x4D PUSH26 0x4F5334304D4455674D7A6B324C6A49324D43424449444D794D43 CALLVALUE PUSH25 0x4F444D674D7A677A4C6A51774E79777A4D446B754F54633149 PREVRANDAO 0x4D CALLER 0x4D PUSH26 0x34784D7A55734D6A6B354C6A45334D79417A4E6A55754F444D35 0x49 GASLIMIT 0x4D PUSH8 0x4D6A6B7A4C6A6332 0x4E PUSH10 0x417A4E6A49754D546733 0x4C PREVRANDAO 0x49 CALLVALUE 0x4D PUSH26 0x34344E6A41674D7A55334C6A49774D4377794F4449754D44457A 0x49 PREVRANDAO 0x4D BALANCE 0x4E PUSH26 0x34794D444167517941794F4445754E546B7949444D314E793479 0x4D PREVRANDAO COINBASE PUSH20 0x4D6A67784C6A457A4E69417A4E5463754D444977 0x4C PREVRANDAO 0x49 CALLVALUE 0x4D MSTORE8 CALLVALUE PUSH24 0x4D4441674D7A55324C6A67774D434244494449344D433431 0x4E SLOAD PUSH12 0x674D7A55324C6A41344E7977 PUSH26 0x4F444D754E44633149444D314E69347A4E6A63734D6A67324C6A PUSH12 0x304D69417A4E5463754D7A63 PUSH26 0x49454D674D6A67344C6A63344E79417A4E5463754F5441334C44 0x49 CALLDATALOAD 0x4D MSTORE8 CALLVALUE BALANCE 0x4D PUSH27 0x55674D7A55344C6A557A4D6977794F544D754D44513449444D314F NUMBER CALLVALUE CALLER 0x4E PUSH11 0x4967517941794F5451754E SLOAD MSIZE PUSH26 0x49444D314F4334354F5445734D6A6B334C6A59774D43417A4E54 PUSH12 0x754E5459774C4449354F5334 CALLVALUE 0x4D PREVRANDAO COINBASE PUSH8 0x4D7A59774C6A4179 0x4E MSTORE8 TIMESTAMP PREVRANDAO 0x49 PREVRANDAO 0x4D PUSH24 0x4E4334784F4467674D7A59774C6A6B314D69777A4D445575 0x4D PREVRANDAO GASLIMIT PUSH26 0x49444D324D4334354F4449734D7A45324C6A51774D43417A4E6A COINBASE PUSH22 0x4E6A493049454D674D7A49314C6A4D354F53417A4E6A COINBASE PUSH22 0x4D7A51784C444D7A4E5334314D4441674D7A55354C6A SSTORE PUSH24 0x4E43777A4E4441754E44417749444D314F4334324D7A5567 MLOAD PUSH26 0x417A4E4449754D6A637749444D314F43347A4D4451734D7A5131 0x4C PUSH11 0x4D7A4D43417A4E5463754E PUSH27 0x59784C444D304E7934794D4441674D7A55334C6A51794F43424449 PREVRANDAO 0x4D ADDRESS 0x4F MSTORE8 CALLVALUE PUSH24 0x4E7A41674D7A55334C6A41354E69777A4E5449754D445177 0x49 PREVRANDAO 0x4D BALANCE 0x4E PUSH10 0x34304D7A6B734D7A557A 0x4C PUSH11 0x67774D43417A4E5455754F SLOAD MSIZE CALLVALUE 0x49 GASLIMIT 0x4D PUSH8 0x4D7A55314C6A5532 0x4D NUMBER COINBASE PUSH27 0x4E5455754E446B334C444D314E7934304E5441674D7A55314C6A41 PUSH25 0x4F43777A4E5467754D44417749444D314E4334354D44496751 PUSH26 0x417A4E5467754E54557749444D314E4334334F4463734D7A5535 0x4C PUSH11 0x45344D43417A4E5451754E SLOAD MSIZE PUSH26 0x4C444D314F5334304D4441674D7A55304C6A51774D5342444944 0x4D BALANCE 0x4F MSTORE8 CALLVALUE ORIGIN 0x4D PUSH11 0x41674D7A55304C6A49304D MSTORE8 PUSH24 0x7A4E6A41754D7A517749444D314D7934354F4451734D7A59 PUSH25 0x4C6A41774D43417A4E544D754F44493549454D674D7A59324C PUSH11 0x4D314D69417A4E5449754E SLOAD PUSH4 0x324C444D CALLVALUE 0x4D NUMBER CALLVALUE PUSH27 0x4E5451674D7A51324C6A51784F53777A4F444D754E7A4D3349444D ADDRESS 0x4D PUSH26 0x34344D7A41675179417A4F4451754F44417A49444D304D793477 0x4D SLOAD SSTORE PUSH20 0x4D7A67324C6A51794D79417A4E4445754F546378 0x4C PREVRANDAO 0x4D CALLVALUE 0x4E PUSH26 0x347A4D7A63674D7A51784C6A55784D43424449444D344F433479 0x4E SLOAD 0x49 PUSH8 0x4D7A51784C6A4130 0x4F MSTORE8 PUSH24 0x7A4F446B754E54637A49444D304D4334794E5445734D7A6B PUSH24 0x4C6A49334D79417A4D7A6B754E7A4D3249454D674D7A6B78 0x4C PUSH11 0x6B354E79417A4D7A67754E PREVRANDAO MSIZE CALLDATALOAD 0x4C PREVRANDAO 0x4D CALLDATALOAD 0x4D PUSH10 0x34334F546B674D7A4D34 0x4C PUSH11 0x55794D53777A4F5449754F PREVRANDAO COINBASE ADDRESS 0x49 PREVRANDAO 0x4D PUSH27 0x4F5334354D4441675179417A4F5449754F44413349444D304D4334 BALANCE 0x4D PREVRANDAO SSTORE PUSH20 0x4D7A6B794C6A6B784E69417A4E4445754E6A5135 0x4C PREVRANDAO 0x4D CALLDATALOAD 0x4D PUSH26 0x34774E4463674D7A51794C6A51304D69424449444D354D793479 0x4E SLOAD 0x4D PUSH8 0x4D7A517A4C6A5934 0x4D PUSH26 0x777A4F544D754D54457949444D304E4334774E6A49734D7A6B79 0x4C PUSH11 0x41304D79417A4E4455754D SLOAD SSTORE ORIGIN 0x49 GASLIMIT 0x4D PUSH8 0x4D7A6B774C6A597A 0x4F MSTORE8 COINBASE PUSH27 0x4E4459754E546B794C444D354D4334314D5449674D7A51334C6A51 CALLVALUE 0x4D PUSH26 0x777A4F5445754E44557849444D304F5334794F5467675179417A 0x4F SLOAD 0x49 PUSH22 0x4D44553049444D314D4334304E6A59734D7A6B794C6A COINBASE BALANCE 0x4D PUSH10 0x417A4E5441754E7A417A 0x4C PREVRANDAO 0x4D CALLDATALOAD 0x4D MSTORE8 CALLVALUE ADDRESS 0x4D SLOAD PUSH4 0x674D7A55 PUSH26 0x4C6A55334F43424449444D354D4334774D6A51674D7A55324C6A MSIZE CALLVALUE 0x4F MSTORE8 PUSH24 0x7A4F4467754D6A457A49444D324D4334324D6A55734D7A67 CALLER 0x4C PUSH11 0x4D784F53417A4E6A45754E PREVRANDAO PUSH8 0x7849454D674D7A67 ORIGIN 0x4C PUSH11 0x67784E43417A4E6A45754F SLOAD MSIZE BALANCE 0x4C PREVRANDAO 0x4D CALLVALUE 0x4E PUSH10 0x34304D4441674D7A5979 0x4C PUSH11 0x63304E43777A4F4459754E PREVRANDAO COINBASE PUSH24 0x49444D324D7934794D5445675179417A4F4459754E444177 0x49 PREVRANDAO 0x4D ORIGIN 0x4E NUMBER CALLVALUE PUSH24 0x4E7A6B734D7A677A4C6A4D794E53417A4E6A6B754E6A4177 0x4C PREVRANDAO 0x4D CALLVALUE 0x4D PUSH10 0x34344E4449674D7A5935 0x4C PUSH11 0x59774D43424449444D344D PUSH10 0x34324F5455674D7A5935 0x4C PUSH11 0x59774D43777A4F4449754D PUSH27 0x4D7A49444D334D4334784F4455734D7A67794C6A417A4E79417A4E PUSH27 0x41754F54417749454D674D7A67784C6A59784D69417A4E7A45754F SLOAD 0x49 BALANCE 0x4C PREVRANDAO 0x4D CALLVALUE 0x4D MSTORE8 CALLVALUE ADDRESS 0x4E SLOAD PUSH12 0x674D7A63794C6A41304E5377 PUSH27 0x4F4445754D7A453049444D334D5334304E7A41675179417A4F4445 PUSH22 0x4D6A457A49444D334D5334774E6A6B734D7A67784C6A MLOAD PUSH25 0x4E69417A4E7A41754E4449314C444D344D5334334E6A55674D PUSH27 0x63774C6A417A4F53424449444D344D6934784D5451674D7A59354C PUSH11 0x59314D79777A4F4449754E PREVRANDAO COINBASE PUSH24 0x49444D324F5334774D6A51734D7A67794C6A51774D43417A 0x4E PUSH11 0x67754E6A517949454D674D PUSH27 0x67794C6A51774D43417A4E6A67754D6A59774C444D344D6934324D PREVRANDAO COINBASE PUSH8 0x4D7A59334C6A5533 0x4E NUMBER PUSH24 0x7A4F4449754F44513049444D324E7934784D546367517941 PUSH27 0x4F4455754D7A453049444D324D6934314D444D734D7A67334C6A41 PUSH24 0x4F43417A4E4463754D7A59344C444D344E5334784E6A5567 0x4D PUSH27 0x51324C6A4D344D53424449444D344D7934334F4467674D7A51314C PUSH11 0x59304E53777A4F444D754D PUSH11 0x417749444D304E6934334E PUSH27 0x4D734D7A677A4C6A49774D43417A4E5441754D54557949454D674D PUSH27 0x677A4C6A49774D43417A4E5451754F4445314C444D344D53347A4F PREVRANDAO PUSH8 0x674D7A59794C6A49 BALANCE 0x4D MSTORE8 PUSH24 0x7A4E7A67754F54677949444D324E7934304E6A4167517941 PUSH27 0x4E7A67754E6A597949444D324F4334784E5451734D7A63344C6A51 PUSH24 0x4D43417A4E6A67754F4451314C444D334F4334304D444167 0x4D PUSH27 0x59344C6A6B354F43424449444D334F4334304D4441674D7A59354C PUSH11 0x49354E43777A4E7A59754D PUSH11 0x6B3349444D334D7934314D PUSH11 0x45734D7A637A4C6A63794D PUSH26 0x417A4E7A67754E44417749454D674D7A63774C6A59784D69417A 0x4F PREVRANDAO MLOAD PUSH22 0x4D6A6B334C444D324D7934334F4445674D7A6B794C6A PUSH8 0x314E79777A4E6A41 PUSH22 0x4D54553449444D354E5334304D4441675179417A4E54 PUSH12 0x754E544D7849444D354E5334 CALLVALUE 0x4E PREVRANDAO COINBASE PUSH20 0x4D7A55344C6A59344F43417A4F5459754D6A6B77 0x4C PREVRANDAO 0x4D BALANCE 0x4F NUMBER CALLVALUE PUSH26 0x4F4455674D7A6B324C6A51774D43424449444D314E7934344F44 0x49 PUSH8 0x4D7A6B324C6A5578 0x4D NUMBER PUSH24 0x7A4E5463754E54553049444D354E6934334F4441734D7A55 CALLER 0x4C PUSH11 0x55314E53417A4F5463754D PREVRANDAO COINBASE PUSH24 0x49454D674D7A55334C6A55324D43417A4F5463754F444533 0x4C PREVRANDAO 0x4D BALANCE 0x4F NUMBER CALLVALUE CALLER 0x4F SLOAD GASLIMIT PUSH8 0x4D7A6B334C6A5978 0x4E NUMBER PUSH24 0x7A4E6A41754E444D3549444D354E6934314D6A5167517941 PUSH27 0x4E6A45754D7A637949444D354E5334354D4459734D7A59794C6A67 ORIGIN 0x4E NUMBER COINBASE PUSH27 0x4F5451754F546B774C444D324D7934334E5451674D7A6B304C6A51 CALLVALUE 0x4F NUMBER TIMESTAMP PREVRANDAO 0x49 PREVRANDAO 0x4D ORIGIN 0x4E MSTORE8 CALLVALUE PUSH27 0x4F5451674D7A6B7A4C6A55324D79777A4E7A41754E54553249444D CALLVALUE 0x4F NUMBER CALLVALUE ADDRESS 0x4D PUSH27 0x49734D7A63794C6A457A4E69417A4F4459754D54553249454D674D PUSH27 0x63794C6A59784D53417A4F4455754E4463794C444D334D7934344E SLOAD PUSH12 0x674D7A677A4C6A59304E6977 PUSH27 0x4E7A51754F54413549444D344D6934774F5467675179417A4E7A63 PUSH22 0x4D6A6B7A49444D334F4334314F4449734D7A63334C6A PUSH4 0x354E5341 PUSH27 0x4E7A67754D544D794C444D334F4334314F5455674D7A63344C6A63 CALLDATALOAD 0x4E PUSH10 0x424449444D334F533433 0x4E PREVRANDAO PUSH4 0x674D7A63 CALLDATALOAD 0x4C PUSH11 0x63314D69777A4F4451754D PREVRANDAO COINBASE PUSH24 0x49444D334E6934334D4449734D7A67304C6A41774D43417A 0x4E PUSH27 0x51754F54453549454D674D7A67304C6A41774D43417A4E7A4D754F SLOAD 0x4D CALLDATALOAD 0x4C PREVRANDAO 0x4D CALLVALUE 0x4E PUSH10 0x34334D5459674D7A6377 0x4C PUSH11 0x51784F43777A4F4463754D SLOAD COINBASE ADDRESS 0x49 PREVRANDAO 0x4D CALLER 0x4D NUMBER CALLVALUE CALLVALUE 0x4F SLOAD SSTORE PUSH8 0x5179417A4F446775 0x4E PUSH11 0x417849444D334D6934334E PREVRANDAO COINBASE PUSH20 0x4D7A67344C6A6B354F53417A4F4441754F545133 0x4C PREVRANDAO 0x4D CALLVALUE 0x4E PUSH26 0x34324D4441674D7A67784C6A457A4E43424449444D344E693477 0x4D PREVRANDAO 0x4D PUSH8 0x4D7A67784C6A4D30 0x4F NUMBER PUSH24 0x7A4F4455754F44553549444D344D5334334E5467734D7A67 BALANCE 0x4C PUSH11 0x6B7A4F53417A4F4455754F PREVRANDAO PUSH8 0x3449454D674D7A67 ORIGIN 0x4C PUSH11 0x41784E69417A4F446B754F PREVRANDAO PUSH4 0x774C444D CALLVALUE 0x4E MSTORE8 CALLVALUE BALANCE 0x4E PUSH11 0x55674D7A6B7A4C6A45354F NUMBER PUSH24 0x7A4F4451754D54633149444D354F4334354D444167517941 PUSH27 0x4F444D754F54457949444D354F5334354F4441734D7A677A4C6A6B ADDRESS 0x4D MSTORE8 COINBASE ADDRESS 0x4D PREVRANDAO COINBASE PUSH22 0x4D4441774C444D344E5334334E544D674E4441774C6A COINBASE PUSH24 0x4D43424449444D344E7934304D4441674E4441774C6A4177 0x4D NUMBER PUSH24 0x7A4F4463754E6A417849444D354F5334354D444D734D7A67 CALLER 0x4C PUSH11 0x59774E69417A4F546B754D SLOAD COINBASE PUSH24 0x49454D674D7A67334C6A59774F53417A4F5467754E6A4131 0x4C PREVRANDAO 0x4D CALLVALUE 0x4E PUSH26 0x34344F5459674D7A6B334C6A4D354D43777A4F4467754D6A5130 0x49 PREVRANDAO 0x4D CALLDATALOAD 0x4E PUSH10 0x34304D4441675179417A 0x4F PREVRANDAO PUSH8 0x754E546B3549444D CALLDATALOAD 0x4E MSTORE8 CALLVALUE PUSH27 0x4F4467734D7A67354C6A41774F43417A4F5449754D7A49304C444D CALLVALUE 0x4F MSTORE8 CALLVALUE PUSH25 0x4E7A67674D7A67354C6A51774D43424449444D344F53347A4E PREVRANDAO MLOAD PUSH8 0x4D7A67324C6A5530 0x4D NUMBER PUSH24 0x7A4F446B754E54413349444D344E5334784E5463734D7A67 CALLDATALOAD 0x4C PUSH11 0x55304D43417A4F4459754D PUSH27 0x493249454D674D7A67354C6A59784E53417A4F4467754F5459344C PREVRANDAO 0x4D CALLDATALOAD 0x4D NUMBER CALLVALUE PUSH25 0x4D7A63674D7A6B774C6A41774D43777A4F5445754E44417749 PREVRANDAO 0x4D CALLDATALOAD 0x4D NUMBER CALLVALUE PUSH24 0x4D4441675179417A4F5449754F544D7949444D354D433477 0x4D PREVRANDAO COINBASE PUSH20 0x4D7A6B7A4C6A4D7A4D79417A4F4467754E7A6735 0x4C PREVRANDAO 0x4D CALLDATALOAD 0x4D PUSH10 0x34344D7A59674D7A6731 0x4C PUSH11 0x59324F53424449444D354D PUSH10 0x34324D4449674D7A6730 0x4C PUSH11 0x49774D53777A4F5449754D PUSH27 0x457A49444D344D6934794F4441734D7A6B794C6A45354E43417A4F PREVRANDAO GASLIMIT PUSH22 0x4E44417749454D674D7A6B794C6A41334E53417A4F44 COINBASE PUSH22 0x4E5449774C444D354D5334324D5449674D7A63334C6A GASLIMIT CALLDATALOAD 0x4D NUMBER PUSH24 0x7A4F5445754D54593149444D334E4334774D444167517941 PUSH27 0x4F446B754E7A633549444D324E4334784D4441734D7A67354C6A63 CALLVALUE 0x4D NUMBER COINBASE PUSH27 0x4E6A51754E44457A4C444D354D5334784D5463674D7A59784C6A63 BALANCE 0x4E PUSH10 0x424449444D354D533433 0x4E PUSH11 0x67674D7A59774C6A51324D NUMBER PUSH24 0x7A4F5449754E44453549444D314F4334344E544D734D7A6B PUSH26 0x4C6A55324E43417A4E5467754D54673049454D674D7A6B794C6A PUSH4 0x774F4341 PUSH27 0x4E5463754E5445314C444D354D7934784F5445674D7A55324C6A4D ORIGIN 0x4F NUMBER PUSH24 0x7A4F544D754E6A4D3349444D314E5334324D7A5967544341 PUSH27 0x4F5451754E44513249444D314E43347A4D4451674D7A6B314C6A51 PUSH26 0x4D79417A4E5455754D6A497949454D674D7A6B324C6A6B354E69 COINBASE PUSH27 0x4E5459754E7A41774C444D354E6934334D4467674D7A59774C6A41 PUSH24 0x4D43777A4F5455754D44413249444D324D4334774D444167 MLOAD PUSH26 0x417A4F544D754D44413549444D324D4334774D4441734D7A6B79 0x4C PUSH11 0x63774D43417A4E6A4D754D PUSH11 0x59314C444D354E4334784F SLOAD 0x49 PUSH8 0x4D7A59344C6A5977 0x4D NUMBER TIMESTAMP PREVRANDAO 0x49 PREVRANDAO 0x4D CALLDATALOAD 0x4E MSTORE8 CALLVALUE PUSH25 0x4F446B674D7A63794C6A45324E53777A4F5459754E44417749 PREVRANDAO 0x4D CALLER 0x4E PUSH26 0x34344D5445734D7A6B324C6A51774D43417A4E7A67754F446B32 0x49 GASLIMIT 0x4D PUSH8 0x4D7A6B324C6A5177 0x4D NUMBER COINBASE PUSH27 0x4E7A6B754E4463334C444D354E6934314F4441674D7A67774C6A41 ORIGIN 0x4E NUMBER PUSH24 0x7A4F5459754F44417749444D344D4334794D444167517941 PUSH27 0x4F5463754D44497749444D344D43347A4D7A59734D7A6B334C6A49 PUSH24 0x4D43417A4F4441754F4459344C444D354E7934794D444167 0x4D PUSH27 0x67784C6A4D344D69424449444D354E7934794D4441674D7A67794C PUSH11 0x51314F53777A4F546B754E PREVRANDAO 0x49 PUSH26 0x49444D354D5334354E5455734D7A6B354C6A63314D53417A4F54 0x49 PUSH22 0x4D6A673049454D674D7A6B354C6A67334D53417A4F54 0x49 PUSH22 0x4E4441314C444D354F5334354E7A49674D7A677A4C6A PUSH12 0x354E43777A4F546B754F5463 BALANCE 0x49 PREVRANDAO 0x4D CALLER 0x4D PUSH26 0x34314F5455675443417A4F546B754F54677849444D314E433432 0x4F PREVRANDAO MSIZE PUSH8 0x4D7A6B334C6A6B7A 0x4E PUSH26 0x417A4E5449754D7A4933494577674D7A6B314C6A67354D79417A 0x4E PREVRANDAO PUSH12 0x754F54593349444D354E6934 PUSH25 0x4E6A59674D7A51324C6A55354F53424449444D354E6934314D SLOAD 0x4D PUSH8 0x4D7A51794C6A4D78 0x4F NUMBER PUSH24 0x7A4F5455754F546B7A49444D304D4334784F4459734D7A6B ADDRESS 0x4C PUSH11 0x4D334F43417A4D7A6B754D PUSH11 0x593449454D674D7A6B7A4C PUSH11 0x637A4D79417A4D7A67754F SLOAD COINBASE PUSH24 0x4C444D354D7934794D4451674D7A4D344C6A51774F53777A 0x4F SLOAD 0x4D PUSH22 0x4D6A417A49444D7A4F4334784E7A59675179417A4F54 0x4D PUSH22 0x4D6A417749444D7A4E7934334F4445734D7A6B334C6A MLOAD ADDRESS 0x4F NUMBER COINBASE PUSH27 0x4D7A51754E6A6B7A4C444D354F5334794D5451674D7A4D7A4C6A67 PUSH24 0x4E53424449444D354F5334344E546B674D7A4D7A4C6A5134 0x4D MSTORE8 PUSH24 0x304D4441754D44417749444D7A4D6934354F5455734E4441 PUSH24 0x4C6A41774D43417A4D7A45754D54413149454D674E444177 0x4C PUSH11 0x41774D43417A4D6A67754E SLOAD PUSH8 0x784C444D354F5334 CALLER 0x4E SLOAD PUSH4 0x674D7A49 CALLVALUE 0x4C PUSH11 0x4D7A4E43777A4F5467754E PUSH27 0x417849444D794F5334334F446367545449314D4334354D5449674D PUSH27 0x4D354C6A51774F534244494449304E7934794D4451674D7A517A4C PUSH11 0x45324E7977794E4459754E SLOAD PUSH12 0x7849444D304E4334344E6A41 PUSH20 0x4D6A51344C6A67304E43417A4E4455754D544978 0x49 GASLIMIT 0x4D PUSH8 0x4D6A55774C6A6779 0x4F MSTORE8 COINBASE PUSH27 0x4E4455754D7A55794C4449314E6934304D4455674D7A4D344C6A63 PUSH24 0x4E5377794E5455754F44413349444D7A4E6934344D6A4567 MLOAD PUSH26 0x41794E5455754D7A557949444D7A4E53347A4F4467734D6A5530 0x4C PUSH11 0x4D324D79417A4D7A55754F SLOAD GASLIMIT PUSH25 0x4C4449314D4334354D5449674D7A4D354C6A51774F53424E4D PUSH11 0x55334C6A4D324D43417A4D PUSH27 0x67754E7A413249454D674D6A55324C6A45774E53417A4D7A6B754E SLOAD MLOAD ADDRESS 0x4C PREVRANDAO 0x49 BALANCE 0x4E MSTORE8 CALLVALUE BALANCE 0x4E PREVRANDAO PUSH12 0x674D7A51794C6A55344F5377 PUSH26 0x4E5459754E44677749444D304D7934314D6A4167517941794E54 PUSH4 0x754F4451 PUSH26 0x49444D304E4334344F4449734D6A55354C6A59774D43417A4E44 0x4D PUSH22 0x4E446B784C4449314F5334324D4441674D7A51784C6A COINBASE BALANCE 0x4D MSTORE8 TIMESTAMP PREVRANDAO 0x49 PREVRANDAO 0x49 BALANCE 0x4F MSTORE8 CALLVALUE ORIGIN 0x4D PREVRANDAO COINBASE PUSH8 0x4D7A4D344C6A6731 0x4D PUSH26 0x77794E5467754E6A517949444D7A4E7934344E5441734D6A5533 0x4C PUSH11 0x4D324D43417A4D7A67754E PUSH27 0x4132494530324D4334324E6A45674D7A55774C6A51314E43424449 PREVRANDAO MSIZE PUSH25 0x4C6A6B304F43417A4E5441754E6A67344C44597A4C6A55304D NUMBER COINBASE PUSH27 0x4E5441754F5459354C4459304C6A49774D43417A4E5445754D4463 CALLVALUE 0x49 GASLIMIT 0x4D PUSH8 0x4E6A6B754E446335 0x49 PREVRANDAO 0x4D BALANCE 0x4D MSTORE8 CALLVALUE CALLDATALOAD 0x4E SLOAD 0x4D PUSH20 0x4E7A6B754D54677949444D314F4334334F546373 0x4F PREVRANDAO GASLIMIT PUSH22 0x4D54673249444D324D7934774E546B67517941344D79 CALLVALUE ORIGIN 0x4E PUSH11 0x63674D7A59344C6A4D7A4F NUMBER PUSH24 0x334F4334794E4455674D7A63774C6A63784D7977324F5334 CALLDATALOAD 0x4D PREVRANDAO COINBASE PUSH8 0x4D7A59344C6A4177 0x4D PUSH10 0x4244494459334C6A4532 0x4D MSTORE8 COINBASE PUSH27 0x4E6A63754D54457A4C4459324C6A59304E43417A4E6A59754E446B BALANCE 0x4C PREVRANDAO MSIZE CALLER 0x4C PUSH11 0x67784F53417A4E6A55754E SLOAD GASLIMIT ORIGIN 0x49 GASLIMIT 0x4D PUSH8 0x4E7A41754E6A6733 0x49 PREVRANDAO 0x4D ORIGIN 0x4D PUSH26 0x34784D6A55734E7A45754D544D3149444D324D5334304F544573 0x4E PUSH11 0x67754F54677749444D324D MSTORE8 CALLVALUE PUSH26 0x4F444567517941324F4334784E4467674D7A59784C6A45354F53 PUSH24 0x324E7934314D6A4D674D7A59784C6A51794D6977324E7934 PUSH24 0x4D5467674D7A59784C6A6B344D534244494459324C6A4534 0x4E MSTORE8 COINBASE PUSH27 0x4E6A49754F5441774C4459304C6A67774D43417A4E6A4D754D4467 PUSH25 0x4C4459304C6A67774D43417A4E6A49754D6A637749454D674E PUSH11 0x51754F44417749444D324D MSTORE8 CALLVALUE CALLDATALOAD 0x4E PUSH27 0x67734E6A55754D6A557749444D324D53347A4D5463734E6A55754F PREVRANDAO COINBASE PUSH24 0x49444D324D4334344D444167517941324E6934354D546B67 0x4D PUSH27 0x55354C6A63304F4377324E7934784D4441674D7A55344C6A4D304E PUSH26 0x77324E6934794D5445674D7A55334C6A59774F53424449445931 0x4C PUSH11 0x45304D43417A4E5459754E PUSH27 0x49784C4459784C6A59774D43417A4E546B754E5467794C4459784C PUSH11 0x59774D43417A4E6A45754D PUSH27 0x4D3349454D674E6A45754E6A417749444D324E43347A4F4441734E SLOAD 0x4D PUSH22 0x4F44553449444D314E7934784F444D734E544D754D44 0x4D ADDRESS 0x49 PREVRANDAO 0x4D BALANCE 0x4D PUSH26 0x347A4E7A5167517941314D6934314E446B674D7A55784C6A457A 0x4D NUMBER PUSH24 0x314E4334354F4449674D7A51354C6A49354E5377314E7934 ORIGIN 0x4E PUSH11 0x45674D7A51354C6A67344E NUMBER TIMESTAMP PREVRANDAO 0x49 PREVRANDAO SSTORE CALLVALUE 0x4C PUSH11 0x41794E53417A4E446B754F SLOAD MSIZE ADDRESS 0x4C PREVRANDAO SSTORE CALLDATALOAD 0x4C PUSH11 0x4D334E53417A4E5441754D PUSH11 0x49784C4459774C6A59324D MSTORE8 COINBASE PUSH27 0x4E5441754E445530494530794E7A6B754D7A497A49444D314E5334 ORIGIN 0x4D PUSH27 0x6367517941794E7A67754F54513549444D314E6934774D5445734D PUSH11 0x63334C6A49774D43417A4E SLOAD SSTORE PUSH22 0x4E6A63774C4449334E7934794D4441674D7A55314C6A 0x49 PUSH26 0x4D794244494449334E7934794D4441674D7A55314C6A41324E69 PUSH24 0x794E7A63754E7A553049444D314E5334774D6A41734D6A63 CALLVALUE 0x4C PUSH11 0x517A4D43417A4E5455754D SLOAD GASLIMIT CALLDATALOAD 0x49 GASLIMIT 0x4D PUSH8 0x4D6A63354C6A4577 0x4E PUSH26 0x417A4E5455754D6A45344C4449334F5334314D446B674D7A5531 0x4C PUSH11 0x51314D5377794E7A6B754D PUSH27 0x497A49444D314E5334324D7A6367545449314E6934304F4441674D PUSH27 0x59774C6A51344D434244494449314E5334314F5455674D7A59784C PUSH11 0x4D324E5377794E5455754F SLOAD PUSH8 0x3349444D324D6934 PUSH26 0x4D5441734D6A55334C6A63794D43417A4E6A4D754D5455324945 0x4D PUSH8 0x4D6A59774C6A4933 0x4F MSTORE8 COINBASE PUSH27 0x4E6A51754E5455304C4449324D69347A4E6A6B674D7A59334C6A63 CALLVALUE 0x4D PUSH26 0x77794E6A51754D6A497A49444D334D7934794D44416751794179 0x4E PUSH11 0x59754D7A6B3049444D334F MSTORE8 CALLVALUE BALANCE 0x4E PREVRANDAO SSTORE PUSH20 0x4D6A59334C6A497A4E53417A4F444D754D446777 0x4C PREVRANDAO 0x49 ORIGIN 0x4E PUSH26 0x34794E5455674D7A67314C6A6B304E434244494449324E793479 0x4E PUSH11 0x45674D7A67324C6A6B774D PUSH26 0x77794E6A63754E54497949444D344F4334304D5445734D6A5933 0x4C PUSH11 0x677A4D79417A4F446B754D PUSH11 0x6B3049454D674D6A59344C PUSH11 0x45304E53417A4F5441754D SLOAD PUSH4 0x344C4449 ORIGIN 0x4F NUMBER CALLVALUE ADDRESS 0x4D PREVRANDAO COINBASE PUSH8 0x4D7A6B784C6A6730 0x4D PUSH10 0x77794E6A67754E444177 0x49 PREVRANDAO 0x4D CALLDATALOAD 0x4D PUSH10 0x34354F54496751794179 0x4E PUSH11 0x67754E44417749444D354E NUMBER CALLVALUE PUSH25 0x4E4449734D6A59344C6A55784E69417A4F5459754D5467354C PREVRANDAO 0x49 ORIGIN 0x4F NUMBER CALLVALUE ORIGIN 0x4E SLOAD PUSH4 0x674D7A6B CALLER 0x4C PUSH11 0x55304D53424D494449324F NUMBER CALLVALUE CALLDATALOAD 0x4D SLOAD MLOAD PUSH8 0x4E4441774C6A4177 0x4D NUMBER COINBASE PUSH26 0x4E7A41754D6A5533494451774D4334774D444167544341794E7A GASLIMIT PUSH22 0x4E6A4177494451774D4334774D4441674D6A63784C6A SSTORE CALLER 0x4E PUSH26 0x417A4F5459754F54417749454D674D6A63784C6A55314E43417A 0x4F SLOAD 0x4D PUSH22 0x4F5451304C4449334D4334354D5463674D7A67344C6A COINBASE PUSH25 0x4E7977794E7A41754D44453249444D344D6934304D44416751 PUSH26 0x41794E6A67754F546B7A49444D334E6934774D5459734D6A5931 0x4C PUSH11 0x49774E53417A4E6A59754E PUSH11 0x63304C4449324D5334344F SLOAD COINBASE PUSH8 0x4D7A59794C6A4D31 0x4F NUMBER TIMESTAMP PREVRANDAO 0x49 PREVRANDAO 0x49 ORIGIN 0x4D NUMBER CALLVALUE ORIGIN 0x4F PREVRANDAO PUSH4 0x674D7A59 PUSH24 0x4C6A63354D6977794E5463754D7A4D7949444D314F533432 0x4D PUSH11 0x67734D6A55324C6A51344D NUMBER COINBASE PUSH27 0x4E6A41754E4467774945307A4F5467754D7A633149444D324F4334 CALLER 0x4D PREVRANDAO COINBASE PUSH8 0x5179417A4F546775 0x4D PUSH27 0x557A49444D334D4334794F5441734D7A6B344C6A49344F43417A4E PUSH27 0x41754E4451344C444D354E7934354E7A55674D7A59354C6A59324E PUSH26 0x424449444D354E7934324E444D674D7A59344C6A677A4F53777A 0x4F SLOAD PUSH4 0x754F444D ADDRESS 0x49 PREVRANDAO 0x4D ORIGIN 0x4E PUSH10 0x34344D4441734D7A6B34 0x4C PUSH11 0x49304D79417A4E6A59754F PREVRANDAO COINBASE PUSH24 0x49454D674D7A6B344C6A4D7A4D43417A4E6A59754F444177 0x4C PREVRANDAO 0x4D CALLDATALOAD 0x4F NUMBER CALLVALUE PUSH27 0x4F446B674D7A59334C6A59314E53777A4F5467754D7A633149444D ORIGIN 0x4F NUMBER CALLVALUE CALLER 0x4D PREVRANDAO COINBASE PUSH8 0x545459334C6A4577 0x4D NUMBER COINBASE PUSH27 0x4F4441754D444D7A49454D674E6A51754E6A637949444D344D5334 ADDRESS 0x4E PREVRANDAO MLOAD PUSH20 0x4E6A67754D6A4D7849444D344F5334794F444973 0x4E PUSH27 0x51754E7A557949444D354E6934344F446767544341334E7934304D PREVRANDAO COINBASE PUSH8 0x4D7A6B354C6A6B33 0x4E MSTORE8 COINBASE CALLER 0x4F MSTORE8 CALLVALUE CALLER 0x4E PREVRANDAO MSIZE PUSH8 0x4D7A6B354C6A6B34 0x4F NUMBER TIMESTAMP 0x4D 0x49 PREVRANDAO PUSH8 0x794C6A41354D6941 ADDRESS 0x4D PREVRANDAO COINBASE PUSH22 0x4D444177494467784C6A4D344F43417A4F5467754F54 0x49 ORIGIN 0x49 GASLIMIT 0x4D PUSH8 0x4F4445754D444178 0x49 PREVRANDAO 0x4D CALLDATALOAD 0x4F NUMBER CALLVALUE PUSH27 0x4D7A55734E7A6B754E6A457849444D354E6934334D6A6B734E7A67 PUSH22 0x4D6A6B3449444D354E53347A4E545967517941334E43 CALLVALUE ORIGIN 0x4F PREVRANDAO MLOAD PUSH8 0x4D7A6B784C6A5533 0x4E PUSH26 0x77334D6934344E6A55674D7A67344C6A6B344D4377334D433435 0x4D PREVRANDAO SSTORE PUSH8 0x4D7A67304C6A6777 0x4D NUMBER TIMESTAMP PREVRANDAO 0x49 PREVRANDAO MSIZE CALLVALUE 0x4C PUSH11 0x55304E53417A4E7A6B754E PUSH27 0x59334C4459344C6A55354F43417A4E7A6B754F4459304C4459344C PUSH11 0x45334D53417A4E7A6B754E PUSH27 0x4D3349454D674E6A63754F54593349444D334F5334324E7A59734E PUSH11 0x63754E44673149444D334F MSTORE8 CALLVALUE CALLVALUE 0x4D PREVRANDAO PUSH12 0x734E6A63754D54417749444D CALLVALUE 0x4D NUMBER CALLVALUE PUSH24 0x4D7A4D67545459324C6A59314D53417A4F5467754E6A4578 0x49 GASLIMIT 0x4D PUSH8 0x4E6A59754D6A4177 0x49 PREVRANDAO 0x4D CALLDATALOAD 0x4F MSTORE8 CALLVALUE CALLER 0x4F PREVRANDAO PUSH4 0x734E6A59 PUSH22 0x4D7A6777494451774D4334774D4441734E6A63754F44 0x49 CALLVALUE 0x49 PREVRANDAO MLOAD PUSH24 0x4D4334774D444167517941324F5334774F4441674E444177 0x4C PUSH11 0x41774D4377324F5334794E PREVRANDAO COINBASE PUSH8 0x4D7A6B354C6A6734 0x4F MSTORE8 PUSH24 0x324F5334784D6A67674D7A6B354C6A45774D434244494459 CALLVALUE 0x4C PUSH11 0x6B324F43417A4F5463754F SLOAD PUSH4 0x314C4459 CALLER 0x4C PUSH11 0x41304D53417A4F5463754E SLOAD PUSH12 0x314C4459324C6A59314D5341 PUSH27 0x4F5467754E6A457849434967633352796232746C50534A75623235 PUSH13 0x4969426D615778735053496A4D SLOAD 0x49 PUSH25 0x4F5442694969426D615778734C584A3162475539496D56325A JUMPI CALLDATALOAD PUSH23 0x5A47516949484E306557786C505349694C7A344B494341 PUSH8 0x494478775958526F 0x49 SELFBALANCE PUSH13 0x6B50534A775958526F4D794967 GAS PREVRANDAO ADDRESS PUSH10 0x545445344E7934774D44 SSTORE PUSH8 0x4E4445754E446379 0x49 GASLIMIT 0x4D PUSH8 0x4D5467324C6A4579 0x4F NUMBER COINBASE ADDRESS 0x4D MSTORE8 CALLVALUE BALANCE 0x4E PUSH27 0x55734D5467314C6A49774F5341304D5334344D6A63734D5467304C PUSH11 0x6B324D7941304D6934774D PUSH27 0x4567517941784F4451754E7A4533494451794C6A497A4E5377784F PREVRANDAO 0x4D PUSH22 0x4E6A4D31494451794C6A67324F5377784F4449754E54 SSTORE CALLVALUE 0x49 PREVRANDAO MLOAD PUSH27 0x4C6A51304D534244494445334F5334774F4451674E4455754D6A67 ADDRESS 0x4C PREVRANDAO GASLIMIT CALLER 0x4E MSTORE8 CALLVALUE ADDRESS 0x4E SLOAD 0x49 PUSH8 0x4E4467754E6A557A 0x4C PREVRANDAO GASLIMIT CALLER 0x4D PUSH26 0x34334F446B674E5445754E54633149454D674D54637A4C6A4D78 0x4D PUSH26 0x41314D6934304D544D734D5463794C6A59784D6941314D793477 0x4E SLOAD 0x4D PUSH20 0x4D5463794C6A41344F5341314D7934784D6A6767 MLOAD PUSH26 0x41784E7A41754F5455314944557A4C6A49354D5377784E7A4175 0x4F SLOAD PUSH4 0x79494455 PUSH27 0x4C6A59314E4377784E7A49754D6A4177494455314C6A59774D4342 PREVRANDAO 0x49 PREVRANDAO GASLIMIT CALLER 0x4D PUSH10 0x34334E5441674E545975 0x4E PREVRANDAO PUSH4 0x784C4445 CALLER 0x4D PUSH26 0x34794D4441674E5463754D7A59344C4445334D7934794D444167 0x4E SLOAD PUSH4 0x754E546B PUSH26 0x49454D674D54637A4C6A49774D4341314E7934344D5459734D54 PUSH4 0x7A4C6A4D BALANCE 0x4F NUMBER COINBASE BALANCE 0x4F NUMBER CALLVALUE PUSH24 0x4D4441734D54637A4C6A55314D5341314F4334774D444167 MLOAD PUSH26 0x41784E7A4D754E7A5131494455344C6A41774D4377784E7A5175 0x4D SLOAD 0x49 CALLER 0x49 PREVRANDAO SSTORE CALLVALUE 0x4C PUSH11 0x55304D4377784E7A51754E PREVRANDAO COINBASE PUSH24 0x494455354C6A49774D434244494445334E53347A4D7A5567 0x4E PUSH11 0x45754E4455344C4445334E PUSH10 0x34774D4441674E6A4175 0x4E PUSH11 0x6B314C4445334E6934774D PREVRANDAO COINBASE PUSH8 0x4E5463754D7A5931 0x49 GASLIMIT 0x4D PUSH8 0x4D5463324C6A4177 0x4D NUMBER COINBASE BALANCE 0x4D PUSH26 0x34784E4459734D5463334C6A67794D5341314D43347A4E445973 0x4D SLOAD PUSH8 0x794C6A63774E4341 ADDRESS 0x4E PUSH26 0x34774E546367517941784F4459754E7A4177494451304C6A4D32 0x4E MSTORE8 PUSH24 0x784F4459754F546731494451304C6A4D7A4E7977784F446B PUSH22 0x4D444535494451324C6A51784E794244494445354D43 CALLVALUE BALANCE 0x4F SLOAD PUSH12 0x674E4467754D444D304C4445 CALLDATALOAD 0x4D NUMBER CALLVALUE ORIGIN 0x4D PREVRANDAO COINBASE PUSH8 0x4E4467754D444D33 0x4C PREVRANDAO GASLIMIT CALLDATALOAD 0x4D NUMBER CALLVALUE CALLVALUE 0x4D PREVRANDAO COINBASE PUSH8 0x4E5445754F544533 0x49 GASLIMIT PUSH24 0x674D546B784C6A41774D4341314E5334344D4441674D546B PUSH26 0x4C6A6B324F4341314E5334344D444167517941784F5455754E6A 0x4D BALANCE 0x49 PREVRANDAO SSTORE BALANCE 0x4C PUSH11 0x67774D4377784F5463754D PREVRANDAO 0x4D PUSH27 0x4944557A4C6A55324F5377784F5459754E6A417A494455774C6A41 PUSH24 0x4D434244494445354E6934304E5463674E4467754E7A6B77 0x4C PREVRANDAO GASLIMIT CALLDATALOAD 0x4E PUSH10 0x34794E6A6B674E446375 0x4D PUSH11 0x45314C4445354E6934784F PREVRANDAO MSIZE PUSH8 0x4E4459754E544177 0x49 GASLIMIT 0x4D PUSH8 0x4D546B314C6A6B33 0x4D PUSH10 0x41304E4334324E7A4D73 0x4D SLOAD PUSH12 0x324C6A557A4D7941304E4334 CALLVALUE 0x4E PUSH11 0x59734D546B354C6A41784F MSTORE8 COINBASE ADDRESS 0x4E PUSH26 0x34304E7A5167517941794D4445754D446B33494451354C6A5931 0x4E NUMBER PUSH24 0x794D4445754F544131494455774C6A41324D5377794D4445 PUSH22 0x4D7A5933494451344C6A59314E794244494449774D53 CALLVALUE PUSH26 0x4D6A67674E4467754D6A6B324C4449774D4334354E5451674E44 PUSH8 0x754D4441774C4449 PUSH24 0x4D4334334E5463674E4467754D44417749454D674D6A4177 0x4C PUSH11 0x55324D5341304F4334774D PREVRANDAO COINBASE PUSH20 0x4D6A41774C6A51774D4341304E7934334F545173 0x4D PUSH11 0x41774C6A51774D4341304E PUSH26 0x34314E444D67517941794D4441754E444177494451334C6A4935 0x4D MSTORE8 PUSH24 0x784F546B754D544132494451314C6A677A4D6977784F5463 PUSH22 0x4E544930494451304C6A4D774D43424D494445354E43 CALLVALUE ORIGIN 0x4E PREVRANDAO PUSH12 0x674E4445754E544530494445 CALLDATALOAD 0x4D MSTORE8 CALLVALUE ORIGIN 0x4D PUSH11 0x51674E4445754D7A6B3549 GASLIMIT 0x4D PUSH8 0x4D5467354C6A6B32 0x4D MSTORE8 COINBASE ADDRESS 0x4D MSTORE8 CALLVALUE PUSH27 0x4D7A59734D5467334C6A67344D6941304D53347A4E6A6B734D5467 CALLER 0x4C PUSH11 0x41774E5341304D5334304E PUSH27 0x4967545445304D6934344E6A55674E444D754E7A6B3049454D674D SLOAD MLOAD PUSH25 0x4C6A51334D4341304E4334794F5467734D5451774C6A45794F MSTORE8 COINBASE ADDRESS 0x4E NUMBER CALLVALUE CALLDATALOAD 0x4D SLOAD GASLIMIT PUSH20 0x4D544D354C6A67344E5341304E5334784E545567 MLOAD PUSH26 0x41784D7A6B754E6A5177494451314C6A51774D4377784D7A6B75 0x4D PUSH27 0x4530494451314C6A59774D4377784D7A6B754D545977494451314C PUSH11 0x59774D4342444944457A4E PUSH10 0x34334E546B674E445575 0x4E PUSH11 0x41774C4445794E6934354D PUSH27 0x4D674E5455754E54677A4C4445794E4334354F4459674E6A41754D PREVRANDAO COINBASE PUSH24 0x49454D674D5449304C6A4D314E6941324D5334304D7A4173 0x4D SLOAD 0x49 PUSH27 0x4C6A55324F4341324D7934774D7A49734D54497A4C6A497A4E4341 ORIGIN 0x4D PUSH26 0x34314E6A4567517941784D6A49754D7A6377494459304C6A6B7A 0x4D MSTORE8 PUSH24 0x784D6A41754F444130494459344C6A67334E4377784D6A41 PUSH22 0x4F444179494459354C6A59344E694244494445794D43 CALLVALUE CALLVALUE 0x4D PREVRANDAO GASLIMIT PUSH8 0x4E7A41754D44597A 0x4C PREVRANDAO GASLIMIT PUSH26 0x4D4334314D6A4D674E7A45754D5467344C4445794D4334784F44 SSTORE PUSH8 0x4E7A49754D546730 0x49 GASLIMIT 0x4D PUSH8 0x4D5445354C6A6730 0x4E PUSH10 0x41334D7934784F444573 0x4D SLOAD GASLIMIT CALLDATALOAD 0x4C PUSH11 0x51774F4341334E5334784D PUSH11 0x49734D5445354C6A49784D PUSH10 0x41334E6934304F546767 MLOAD PUSH26 0x41784D546B754D444531494463334C6A67334E4377784D546775 0x4E SLOAD SSTORE CALLVALUE 0x49 PREVRANDAO PUSH4 0x354C6A6B CALLDATALOAD 0x4D NUMBER PUSH24 0x784D5467754D546B31494467784C6A49774D434244494445 PUSH25 0x4E7934344D7A4D674F4449754E4445774C4445784E79347A4D SLOAD 0x49 PUSH8 0x4F4451754D7A4177 0x4C PREVRANDAO GASLIMIT PUSH25 0x4E7934774D7A67674F4455754E44417749454D674D5445324C PUSH11 0x51334F4341344E7934324E PREVRANDAO MLOAD PUSH20 0x4D5445314C6A4D314D7941354D4334774D444173 0x4D SLOAD GASLIMIT ADDRESS 0x4C PUSH11 0x67304D6941354D4334774D PREVRANDAO COINBASE PUSH8 0x517941784D545175 0x4E PUSH11 0x553349446B774C6A41774D NUMBER PUSH24 0x784D5451754E54497749446B784C6A63314E5377784D5451 PUSH22 0x4E544D3449446B7A4C6A6B774D434244494445784E43 CALLVALUE BALANCE 0x4E SLOAD PUSH8 0x674F5459754D6A51 ORIGIN 0x4C PREVRANDAO GASLIMIT PUSH25 0x4E43347A4D4467674F5467754F5445324C4445784D7934354D SLOAD COINBASE PUSH8 0x4D5441774C6A5977 0x4D NUMBER TIMESTAMP PREVRANDAO 0x49 PREVRANDAO GASLIMIT PUSH25 0x4D7934794E6A49674D54417A4C6A4D304E5377784D5449754D PUSH27 0x4D7A494445784D5334344D7A67734D5445794C6A4D7A4E5341784D SLOAD SSTORE PUSH22 0x4D44417749454D674D5445794C6A4D7A4E6941784D54 MSIZE PUSH22 0x4E7A63354C4445784D5334324E5459674D5449774C6A 0x4D CALLVALUE 0x4D MSTORE8 PUSH24 0x784D5445754D6A4179494445794D5334774D444167517941 PUSH25 0x4D5441754F544D78494445794D53347A4E6A6B734D5445774C PUSH11 0x51334D5341784D6A67754E PUSH11 0x67324C4445784D4334784E PUSH27 0x41674D544D334C6A51774D434244494445774F5334354F544D674D SLOAD MLOAD PUSH26 0x4C6A557A4E4377784D446B754D7A4579494445304E5334304D6A COINBASE PUSH20 0x4D5441344C6A45314E5341784E4455754F545134 0x49 GASLIMIT 0x4D PUSH8 0x4D5441334C6A4D30 0x4D NUMBER COINBASE PUSH25 0x4E4459754D7A45354C4445774E7934794E7A6B674D5451324C PUSH11 0x55774E6977784D4463754E PUSH11 0x4D30494445304E7934314D PUSH11 0x5567517941784D4467754F SLOAD MLOAD PUSH25 0x494445314D5334794E7A59734D5441314C6A6B344D6941784E SLOAD MSIZE PUSH22 0x4E5467344C4445774D7934354E446B674D5455304C6A GASLIMIT PUSH27 0x4F434244494445774D6934304E5441674D5455794C6A4D7A4D6977 PUSH25 0x4D444D754E6A4132494445304E6934304D4441734D5441314C PUSH11 0x51314E7941784E4459754E PREVRANDAO COINBASE PUSH24 0x49454D674D5441324C6A497A4D5341784E4459754E444177 0x4C PREVRANDAO GASLIMIT PUSH24 0x4E6934304D6A55674D5451324C6A49304D7977784D445975 0x4D PUSH11 0x517A494445304E5334334E PUSH11 0x6367517941784D4459754D SLOAD COINBASE CALLDATALOAD 0x49 PREVRANDAO GASLIMIT ADDRESS 0x4E MSTORE8 CALLVALUE ADDRESS 0x4D SLOAD PUSH12 0x734D5441324C6A41774D4341 PUSH25 0x4E4451754E7A67304C4445774E6934774D4441674D5451304C PUSH11 0x4D314E534244494445774E PUSH10 0x34774D4441674D54517A 0x4C PUSH11 0x49314E6977784D4451754F SLOAD GASLIMIT PUSH27 0x494445304D6934354E6A6B734D54417A4C6A51304F4341784E444D PUSH22 0x4E6A677749454D674F5467754D544D78494445304E69 CALLVALUE PUSH26 0x4E6A49734F5467754E546779494445304E6934774D4451734F54 MLOAD PUSH22 0x4D545533494445304F4334354F544567517941354D69 CALLVALUE CALLVALUE 0x4E PUSH11 0x45674D5451354C6A67324E PUSH26 0x77354D4334344D5441674D5455784C6A41344D4377344F533432 0x4D PREVRANDAO COINBASE PUSH8 0x4D5455784C6A5934 0x4E PUSH26 0x4244494467324C6A59304D4341784E544D754D5463794C446732 0x4C PUSH11 0x63794F5341784E544D754D SLOAD GASLIMIT PUSH25 0x4C4463354C6A67774D4341784E5467754D7A633349454D674E PUSH27 0x67754E7A4177494445314F5334794D544D734E7A59754E7A457949 PREVRANDAO GASLIMIT ORIGIN 0x4D MSTORE8 CALLVALUE PUSH24 0x4E4455734E7A55754D7A677A494445324D6934304E446B67 MLOAD PUSH26 0x41334E4334774E544D674D54597A4C6A67314D6977334D433433 0x4F PREVRANDAO MLOAD PUSH8 0x4D5459334C6A4579 0x4D PUSH26 0x77324F4334784D546B674D5459354C6A63784F43424449445931 0x4C PUSH11 0x51314D7941784E7A49754D PUSH27 0x457A4C44597A4C6A45334D5341784E7A51754E6A6B344C44597A4C PUSH11 0x41304F4341784E7A55754D PREVRANDAO GASLIMIT CALLVALUE 0x49 GASLIMIT 0x4D PUSH8 0x4E6A49754F544932 0x49 PREVRANDAO GASLIMIT CALLER 0x4E MSTORE8 CALLVALUE PUSH27 0x4D7A67734E6A49754E6A4D35494445334E5334324D4441734E6A49 PUSH22 0x4E44457A494445334E5334324D444167517941324D69 CALLVALUE PUSH25 0x4F4459674D5463314C6A59774D4377324D6934774D4441674D SLOAD PUSH4 0x314C6A6B ADDRESS 0x4E PUSH26 0x77324D6934774D4441674D5463324C6A4D334D53424449445979 0x4C PUSH11 0x41774D4341784E7A63754E PUSH27 0x4D7A4C4459774C6A67354F4341784E7A67754E4441774C4455344C PUSH11 0x59314D5341784E7A67754E PREVRANDAO COINBASE PUSH24 0x49454D674E5463754E544178494445334F4334304D444173 0x4E SLOAD MSIZE PUSH22 0x4D7A6735494445334F4334314E6A67734E5459754D54 PUSH8 0x77494445334F4334 CALLER 0x4E PUSH27 0x4967517941314E5334334E7A55674D5463354C6A45324F5377304F MSTORE8 CALLVALUE CALLVALUE 0x4E PUSH27 0x4D674D5467774C6A63354F4377304F4334344D6A55674D5467774C PUSH11 0x67774D694244494451344C PUSH11 0x51344D5341784F4441754F PREVRANDAO COINBASE ADDRESS 0x4C PREVRANDAO MLOAD CALLER 0x4C PUSH11 0x637A4E5341784F4445754D PREVRANDAO MLOAD CALLVALUE 0x4C PREVRANDAO MLOAD CALLER 0x4C PUSH11 0x45324E6941784F4445754D PUSH27 0x513049454D674E4459754E546B33494445344D5334324E4445734E PREVRANDAO SSTORE PUSH22 0x4D445933494445344D6934784F544D734E444D754E7A MSIZE ORIGIN 0x49 PREVRANDAO GASLIMIT CALLVALUE 0x4D PUSH10 0x34314E7A496751794130 0x4D PUSH10 0x34304E6A55674D546779 0x4C PUSH11 0x6B314D4377304D4334324F PREVRANDAO COINBASE PUSH8 0x4D54677A4C6A5977 0x4E NUMBER PUSH24 0x7A4F5334344D4441674D5467304C6A41794E53424449444D CALLVALUE 0x4C PUSH11 0x6B794D4341784F4451754E PREVRANDAO MLOAD BALANCE 0x4C PREVRANDAO 0x4D CALLER 0x4C PUSH11 0x45794D4341784F4455754D PREVRANDAO PUSH8 0x344C444D314C6A67 PUSH24 0x4D4341784F4455754E44557849454D674D7A51754E446777 0x49 PREVRANDAO GASLIMIT CALLVALUE 0x4E MSTORE8 CALLVALUE CALLVALUE 0x4D SLOAD SSTORE PUSH20 0x4D7A49754D7A4977494445344E6934324E445573 0x4D PUSH27 0x45754D444177494445344E7934794F545967517941794F5334324F PREVRANDAO COINBASE PUSH8 0x4D5467334C6A6B30 0x4E PUSH26 0x77794E7934304D7A41674D5467354C6A41304E6977794E693477 0x4D PREVRANDAO COINBASE PUSH8 0x4D5467354C6A6330 0x4D NUMBER TIMESTAMP PREVRANDAO 0x49 PREVRANDAO 0x49 ADDRESS 0x4C PUSH11 0x55334D4341784F5441754E PREVRANDAO 0x4D PUSH27 0x4C4449794C6A67784D6941784F5445754E446B794C4449794C6A41 CALLDATALOAD 0x4D PUSH26 0x41784F5449754D446B3049454D674D6A45754D7A633049444535 0x4D PUSH10 0x34324F5459734D6A4175 0x4D PUSH27 0x4D35494445354D79347A4D4445734D546B754E7A6B7A494445354D PUSH26 0x34304D7A6767517941784F5334794E4463674D546B7A4C6A5533 0x4E MSTORE8 PUSH24 0x784F4334344D4441674D546B7A4C6A677A4E5377784F4334 CALLVALUE 0x4D PREVRANDAO COINBASE PUSH8 0x4D546B304C6A4178 0x4E PUSH10 0x4244494445344C6A6777 0x4D NUMBER COINBASE PUSH25 0x4F5451754D546B344C4445344C6A51324D4341784F5451754E PREVRANDAO SSTORE ADDRESS 0x4C PREVRANDAO GASLIMIT CALLVALUE 0x4C PUSH11 0x41304E5341784F5451754E SLOAD PUSH8 0x3249454D674D5463 PUSH22 0x4E6A4D77494445354E4334334D5467734D5455754E54 0x49 ADDRESS 0x49 PREVRANDAO GASLIMIT CALLDATALOAD 0x4E MSTORE8 CALLVALUE CALLDATALOAD 0x4F SLOAD COINBASE PUSH20 0x4D544D754D7A5931494445354E7934304D544D67 MLOAD PUSH26 0x41784D5334794D4463674D546B344C6A677A4E6977354C6A4934 0x4E PUSH10 0x41794D4441754D444177 0x4C PREVRANDAO PUSH12 0x754D446B33494449774D4334 PUSH24 0x4D444167517941344C6A59354E7941794D4441754D444177 0x4C PREVRANDAO SSTORE PUSH22 0x4E445931494449774D6934304E5449734E5334794E6A MLOAD PUSH8 0x4D6A41794C6A6B77 0x4F NUMBER TIMESTAMP PREVRANDAO 0x49 PREVRANDAO SSTORE PUSH22 0x4D546735494449774D7934774E7A67734E4334324D44 MSIZE PUSH8 0x4D6A417A4C6A5134 0x4E PUSH10 0x777A4C6A6B324F534179 0x4D PREVRANDAO 0x4D PUSH22 0x4F44453249454D674D4334334D4467674D6A41314C6A SSTORE PUSH24 0x4D6977774C6A41774D4341794D4459754E6A457A4C444175 0x4D PREVRANDAO COINBASE PUSH24 0x494449784D4334774E444567517941774C6A41774D434179 0x4D SLOAD GASLIMIT PUSH22 0x4E7A63354C4441754D544531494449784D7934794D44 COINBASE PUSH20 0x4D4334794E5459674D6A457A4C6A49774D434244 0x49 PREVRANDAO COINBASE PUSH22 0x4E6A4977494449784D7934794D4441734E6934304D44 COINBASE PUSH8 0x4D6A41334C6A4934 0x4D NUMBER PUSH24 0x324C6A51774D4341794D4459754F54413449454D674E6934 ADDRESS 0x4D PREVRANDAO COINBASE PUSH8 0x4D6A41324C6A4D33 0x4F MSTORE8 PUSH24 0x354C6A51344D6941794D444D754D6A41774C446B754F546B BALANCE 0x49 PREVRANDAO 0x49 PUSH24 0x4D7934794D444167517941784D4334794E6A4D674D6A417A 0x4C PUSH11 0x49774D4377784D6934774D SLOAD PUSH12 0x674D6A41794C6A51344D4377 PUSH25 0x4D7934344F5459674D6A41784C6A59774D434244494445314C PUSH11 0x63334E4341794D4441754E PUSH27 0x49774C4445334C6A55784E5341794D4441754D4441774C4445334C PUSH11 0x63324E4341794D4441754D PREVRANDAO COINBASE PUSH24 0x49454D674D5467754D444530494449774D4334774D444173 0x4D SLOAD PUSH8 0x754F44597A494445 CALLDATALOAD 0x4F MSTORE8 CALLVALUE ADDRESS 0x4E PUSH11 0x67734D546B754E6A557949 PREVRANDAO GASLIMIT CALLDATALOAD 0x4F NUMBER CALLVALUE CALLVALUE 0x4D SLOAD PUSH8 0x67517941794D4334 ADDRESS 0x4E PREVRANDAO GASLIMIT PUSH8 0x4D546B344C6A4532 0x4E PUSH26 0x77794D6934784E4463674D546B334C6A41324E6977794D793430 0x4E PREVRANDAO 0x4D PUSH8 0x4D546B324C6A4D33 0x4D NUMBER TIMESTAMP PREVRANDAO 0x49 PREVRANDAO 0x49 ORIGIN 0x4C PUSH11 0x6B7A4D4341784F5451754E PREVRANDAO PUSH12 0x354C4449344C6A63304E7941 PUSH25 0x4F544D754D546B344C4449354C6A41774E4341784F5449754D PUSH27 0x673449454D674D6A6B754D544D77494445354D5334354F5445734D PUSH11 0x6B754E7A4977494445354D MSTORE8 CALLVALUE ADDRESS 0x4E PUSH27 0x45734D7A41754D7A4532494445354D5334794D7A45675179417A4D PUSH10 0x34774D546B674D546B77 0x4C PUSH11 0x55304E79777A4E4334344F SLOAD MSIZE PUSH8 0x4D5467344C6A6730 0x4F MSTORE8 PUSH24 0x7A4E5334344D5455674D5467334C6A6B344E69424449444D ORIGIN 0x4C PUSH11 0x49334E5341784F4463754E SLOAD SSTORE ADDRESS 0x4C PREVRANDAO 0x4D ORIGIN 0x4C PUSH11 0x6B794F5341784F4463754D PUSH11 0x41774C444D334C6A49324F MSTORE8 COINBASE PUSH25 0x4F4463754D6A417749454D674D7A63754E6A4134494445344E PUSH26 0x34794D4441734D7A6B754D445931494445344E6934314F445573 0x4E PREVRANDAO COINBASE PUSH22 0x4E544133494445344E5334344D7A5167517941304D79 CALLVALUE PUSH24 0x4D6A49674D5467304C6A55794D7977304D7934784F544167 0x4D SLOAD PUSH8 0x304C6A51354D4377 ADDRESS 0x4E NUMBER CALLVALUE CALLER 0x4D PREVRANDAO PUSH12 0x674D5467314C6A41784D7942 PREVRANDAO 0x49 PREVRANDAO MLOAD BALANCE 0x4C PUSH11 0x6B794E5341784F4455754E PREVRANDAO 0x4D PUSH27 0x4C4451324C6A59794D5341784F4455754E4455334C4451334C6A63 PUSH26 0x4D4341784F4455754D54497749454D674E4467754E7A67784944 GASLIMIT CALLVALUE 0x4E NUMBER CALLVALUE CALLER 0x4F SLOAD SSTORE PUSH20 0x4E5441754D545977494445344E4334344D544973 0x4E SLOAD 0x4D PUSH22 0x4D446330494445344E5334784F544167517941324D53 CALLVALUE CALLVALUE 0x4D PREVRANDAO 0x4D PUSH8 0x4D5467324C6A4D78 0x4F MSTORE8 PUSH24 0x324D5334314D7A6B674D5467324C6A51774D6977324D7934 CALLDATALOAD 0x4F PREVRANDAO 0x4D PUSH8 0x4D5467784C6A6333 0x4F MSTORE8 TIMESTAMP PREVRANDAO 0x49 PREVRANDAO MSIZE BALANCE 0x4C PUSH11 0x49794D4341784E7A6B754E PREVRANDAO MLOAD PUSH24 0x4C4459314C6A63334E4341784E7A67754F444D304C445933 0x4C PUSH11 0x63774F5341784E7A63754E PUSH27 0x417A49454D674E6A67754F545535494445334E6934354E7A4D734E PUSH27 0x41754D7A4177494445334E5334354D6A51734E7A41754E6A6B7849 PREVRANDAO GASLIMIT CALLER 0x4E MSTORE8 CALLVALUE PUSH27 0x4E7A4D67517941334D6934334E6A51674D5463794C6A51304D6977 CALLER 0x4E NUMBER CALLVALUE BALANCE 0x4D SLOAD 0x49 PUSH8 0x4D5463774C6A5178 0x4F NUMBER PUSH24 0x334E5334784E4455674D5463774C6A49784F434244494463 BALANCE 0x4C PUSH11 0x557A4E6941784E7A41754D PREVRANDAO PUSH12 0x7A4C4463324C6A45314D5341 PUSH25 0x4E6A6B754D7A637A4C4463324C6A55784D6941784E6A67754E PUSH11 0x453249454D674E7A63754D PREVRANDAO 0x49 CALLVALUE 0x49 PREVRANDAO GASLIMIT ORIGIN 0x4E PUSH26 0x34314D7A51734E7A63754E544D7A494445324E7934784E444573 0x4E PUSH27 0x67754F446330494445324E6934334F444167517941344D4334334F SLOAD 0x49 PUSH8 0x4D5459324C6A4932 0x4E NUMBER PUSH24 0x344D7934324F5451674D5459304C6A4D794E7977344E4334 BALANCE 0x4F PREVRANDAO 0x4D PUSH8 0x4D5459794C6A6B33 0x4D NUMBER TIMESTAMP PREVRANDAO 0x49 PREVRANDAO PUSH8 0x304C6A6B774E7941 PUSH25 0x4E6A49754E4463324C4467314C6A67314D7941784E6A45754F PREVRANDAO SSTORE ORIGIN 0x4C PREVRANDAO PUSH8 0x324C6A59344E6941 PUSH25 0x4E6A45754E546B7949454D674F4463754E544535494445324D MSTORE8 CALLVALUE PUSH27 0x4D6A67734F4467754F444D77494445324D4334324D6A59734F446B PUSH22 0x4E6A4177494445324D4334774D7A4567517941354D53 CALLVALUE PUSH27 0x4E7A63674D5455344C6A59314F4377354F4334304E4455674D5455 BALANCE 0x4C PUSH11 0x49774D4377354F5334304E PUSH27 0x55674D5455314C6A49774D43424449446B354C6A6B314E7941784E SLOAD SSTORE PUSH22 0x4D6A41774C4445774D4334314E7A4D674D5455314C6A PUSH4 0x334D4377 PUSH25 0x4D4445754D446B34494445314E6934334D444D67517941784D PREVRANDAO 0x4D PUSH22 0x4F545531494445324D5334334F4467734D5445774C6A MLOAD PUSH24 0x4D4341784E6A45754D4459334C4445784D4334304D444167 0x4D SLOAD SSTORE BALANCE 0x4C PUSH11 0x59324D794244494445784D NUMBER CALLVALUE ADDRESS 0x4D PREVRANDAO COINBASE PUSH8 0x4D5455304C6A4935 0x4D NUMBER PUSH24 0x784D5441754E6A5530494445314D7934334F4441734D5445 PUSH26 0x4C6A41774D4341784E5449754E44513349454D674D54457A4C6A PUSH8 0x324E7941784E5441 PUSH22 0x4E546B344C4445784D7934354F544D674D5451354C6A MSIZE PUSH27 0x4E5377784D5449754E7A677A494445304E6934304E544D67517941 PUSH25 0x4D5449754D44417A494445304E43347A4F546B734D5445784C PUSH11 0x6B354E6941784E4451754D PUSH11 0x45344C4445784D6934324D PUSH11 0x59674D5451794C6A4D794D PUSH10 0x4244494445784D793478 0x4E SLOAD COINBASE PUSH8 0x4D5451774C6A6330 0x4E MSTORE8 PUSH24 0x784D544D754D6A55344944457A4F5334774F546B734D5445 PUSH27 0x4C6A45314E4341784D7A51754D6A637749454D674D54457A4C6A41 ORIGIN 0x4D PUSH26 0x41784D7A41754D4449774C4445784D7934784E7A41674D544933 0x4C PUSH11 0x6B7A4F4377784D544D754E SLOAD GASLIMIT PUSH26 0x494445794E79347A4D6A5967517941784D544D754E7A67774944 GASLIMIT PUSH26 0x4E6934344E4459734D5445304C6A41774D4341784D6A55754D6A PUSH12 0x7A4C4445784E4334774D4441 PUSH8 0x4D54497A4C6A6733 0x4E PUSH26 0x4244494445784E4334774D4441674D5449794C6A51324D437778 0x4D SLOAD MLOAD PUSH22 0x4D6A6333494445794D4334314D5463734D5445304C6A MSIZE PUSH25 0x4E5341784D546B754E54553549454D674D5445314C6A45314E PUSH10 0x41784D5467754D44497A 0x4C PREVRANDAO GASLIMIT PUSH25 0x4E5334304E5441674D5445324C6A55334D4377784D5459754D PUSH11 0x677A494445784D5334794F SLOAD GASLIMIT PUSH8 0x517941784D545975 0x4D PUSH27 0x6B33494445784D4334314E7A45734D5445324C6A49344F5341784D PREVRANDAO PUSH12 0x754E446B784C4445784E6934 PUSH24 0x4E4451674D5441344C6A67354D534244494445784E533433 0x4D SLOAD PUSH8 0x674D5441344C6A41 CALLDATALOAD 0x4D PUSH26 0x77784D5455754E7A4532494445774E7934784E5455734D544532 0x4C PUSH11 0x417A4F4341784D4455754E PREVRANDAO COINBASE PUSH24 0x49454D674D5445324C6A49344D4341784D4451754D446777 0x4C PREVRANDAO GASLIMIT PUSH25 0x4E6934314D6A49674D5441794C6A49344D4377784D5459754E SLOAD PUSH4 0x33494445 PUSH24 0x4D5334304D444167517941784D5459754E6A4D7849444577 0x4D NUMBER CALLVALUE BALANCE 0x4D PUSH11 0x41734D5445334C6A41324E NUMBER COINBASE CALLDATALOAD 0x4F MSTORE8 CALLVALUE PUSH24 0x4E4449734D5445334C6A557A4F4341354F4334784D545967 MLOAD PUSH26 0x41784D5467754D54517949446B324C6A6B7A4E6977784D546775 0x4E PREVRANDAO COINBASE PUSH24 0x49446B314C6A63774D7977784D5467754E44417749446B7A 0x4C PUSH11 0x6B354E534244494445784F NUMBER CALLVALUE ADDRESS 0x4D PREVRANDAO COINBASE PUSH8 0x4F5445754E7A6335 0x4C PREVRANDAO GASLIMIT PUSH25 0x4F5334314F446B674F4459754E6A59324C4445794D5334774D PREVRANDAO MLOAD PUSH8 0x4F4449754F444177 0x49 GASLIMIT 0x4D PUSH8 0x4D5449794C6A4134 0x4E NUMBER COINBASE CALLER 0x4F MSTORE8 CALLVALUE CALLVALUE 0x4E PREVRANDAO PUSH4 0x734D5449 PUSH27 0x4C6A59324D4341334E4334354D4451734D5449304C6A49794F4341 CALLER 0x4D PUSH10 0x34324F54416751794178 0x4D PUSH11 0x51754E545530494463784C PUSH11 0x51784F5377784D6A55754D PUSH27 0x5532494459354C6A4D354D4377784D6A59754D444577494459344C PUSH11 0x45344D534244494445794E PUSH10 0x34324E6A55674E6A5975 0x4F SLOAD PUSH4 0x784C4445 PUSH26 0x4E7934794D4441674E6A55754E7A45794C4445794E7934794D44 COINBASE PUSH8 0x4E6A55754D7A677A 0x49 GASLIMIT 0x4D PUSH8 0x4D5449334C6A4977 0x4D NUMBER COINBASE ORIGIN 0x4E MSTORE8 CALLVALUE PUSH24 0x4E5451734D5449334C6A59794D6941324E4334784D544D73 0x4D SLOAD 0x49 CALLVALUE 0x4C PUSH11 0x457A4F4341324D7934794F SLOAD 0x49 PUSH8 0x517941784D6A6775 0x4E PUSH11 0x5530494459794C6A51334D MSTORE8 PUSH24 0x784D6A6B754D7A6730494459774C6A67324E6977784D6A6B PUSH22 0x4E7A5979494455354C6A63794E5342444944457A4D43 CALLVALUE BALANCE 0x4D PUSH11 0x59674E5463754E44457A4C PREVRANDAO GASLIMIT PUSH27 0x4D5334304D4467674E5459754D6A45324C44457A4E5334794D4441 PUSH8 0x4E5449754D7A5132 0x49 GASLIMIT 0x4D PUSH8 0x4D544D324C6A597A 0x4D NUMBER COINBASE BALANCE 0x4D NUMBER CALLVALUE CALLVALUE 0x4F PREVRANDAO PUSH4 0x734D544D CALLVALUE 0x4C PUSH11 0x4D334E4341304F4334344F PREVRANDAO 0x4D PUSH20 0x4D544D354C6A41334E6941304E7934344F545167 MLOAD PUSH26 0x41784E4445754E546331494451304C6A4D334E4377784E445975 0x4E PUSH27 0x4979494451304C6A6B7A4D7977784E4467754E7A5935494451344C PUSH11 0x6B304E534244494445304F MSTORE8 CALLVALUE ADDRESS 0x4E SLOAD PUSH8 0x674E5441754D6A6B BALANCE 0x4C PREVRANDAO GASLIMIT BALANCE 0x4D NUMBER CALLVALUE ADDRESS 0x4E PUSH11 0x59674E5449754D546B7A4C PREVRANDAO GASLIMIT BALANCE 0x4D MSTORE8 CALLVALUE PUSH24 0x4D5445674E544D754D54597A49454D674D5455784C6A5531 0x4E MSTORE8 COINBASE BALANCE 0x4E NUMBER CALLVALUE PUSH25 0x4D7A4D734D5455794C6A41774D4341314E53347A4F5463734D SLOAD SSTORE PUSH26 0x4C6A41774D4341314E5334354E7A5167517941784E5449754D44 COINBASE PUSH24 0x494455344C6A4D7A4E7977784E544D754F54557849445535 0x4C PUSH11 0x51774E7977784E5459754E PREVRANDAO PUSH12 0x31494455344C6A51304D4342 PREVRANDAO 0x49 PREVRANDAO GASLIMIT BALANCE 0x4E PUSH26 0x34354D4441674E5463754F5441324C4445314F4334314E444567 0x4E SLOAD SSTORE PUSH22 0x4E5445794C4445314E7934334E7A49674E544D754E6A PUSH4 0x7749454D PUSH8 0x4D5455324C6A5578 0x4E PUSH10 0x41314D4334324E6A5573 0x4D SLOAD SSTORE CALLVALUE 0x4C PUSH11 0x49334D5341314D5334784E PREVRANDAO COINBASE PUSH20 0x4D5459794C6A45794D6941314E4334344E446767 MLOAD PUSH26 0x41784E6A4D754D6A5931494455314C6A6B304F4377784E6A5175 0x4F SLOAD 0x49 PUSH24 0x494455334C6A557A4D7977784E6A55754F44417749445534 0x4C PUSH11 0x4D334D434244494445324F NUMBER CALLVALUE PUSH25 0x4E7A49674E6A41754E6A49324C4445334D4334774D4441674E PUSH11 0x45754E444D334C4445334D NUMBER CALLVALUE PUSH24 0x4D4441674E6A41754D6A4D7A49454D674D5463774C6A4177 0x4D NUMBER COINBASE BALANCE 0x4F MSTORE8 CALLVALUE CALLDATALOAD 0x4D PUSH11 0x49734D5459354C6A67324E MSTORE8 COINBASE BALANCE 0x4F MSTORE8 CALLVALUE ORIGIN 0x4D PREVRANDAO PUSH4 0x734D5459 CALLDATALOAD 0x4C PUSH11 0x63774D4341314F5334314D PUSH27 0x4D67517941784E6A6B754E544D31494455354C6A51324D4377784E PUSH11 0x67754F544577494455344C PUSH11 0x59304E7977784E6A67754D PUSH27 0x4579494455334C6A63794E794244494445324E7934334D544D674E SLOAD MSIZE PUSH22 0x4F4441324C4445324E6934314E7A55674E5455754E54 MLOAD ORIGIN 0x4C PREVRANDAO GASLIMIT ORIGIN 0x4E MSTORE8 CALLVALUE CALLER 0x4F PREVRANDAO 0x49 PUSH8 0x4E5451754F544933 0x49 GASLIMIT 0x4D PUSH8 0x4D5459304C6A6B35 0x4D NUMBER COINBASE BALANCE 0x4E NUMBER CALLVALUE PUSH27 0x4D4463734D54597A4C6A45784F5341314D6934794E6A49734D5459 PUSH25 0x4C6A59794E7941314D43347A4F444967517941784E5467754E PUSH27 0x677A494451324C6A67774D7977784E546B754D544934494451334C PUSH11 0x41304D4377784E5445754E PUSH27 0x55324944517A4C6A55334D794244494445304F5334314E4455674E PREVRANDAO 0x49 PUSH22 0x4E544D7A4C4445304E6934784D5463674E4449754E6A GASLIMIT CALLDATALOAD 0x4C PREVRANDAO GASLIMIT ADDRESS 0x4D PUSH10 0x34344E6A55674E444D75 0x4E PUSH27 0x6B30494530794D4449754D444177494455774C6A55334E69424449 PREVRANDAO 0x49 PUSH24 0x4D6934774D4441674E5441754F446B7A4C4449774D693478 0x4F PREVRANDAO COINBASE PUSH8 0x4E5445754D6A5930 0x4C PREVRANDAO 0x49 PUSH24 0x4D6934304D4441674E5445754E44417749454D674D6A4179 0x4C PUSH11 0x59794D4341314D5334314D PUSH27 0x59734D6A41794C6A67774D4341314D5334794E7A63734D6A41794C PUSH11 0x67774D4341314D4334344D PUSH11 0x5167517941794D4449754F PREVRANDAO COINBASE PUSH24 0x494455774C6A4D334D5377794D4449754E6A497749445577 0x4C PUSH11 0x41774D4377794D4449754E PREVRANDAO COINBASE PUSH24 0x494455774C6A41774D434244494449774D6934784F444167 0x4E SLOAD COINBASE PUSH22 0x4D4441774C4449774D6934774D4441674E5441754D6A SSTORE CALLDATALOAD 0x4C PREVRANDAO 0x49 PUSH24 0x4D6934774D4441674E5441754E546332494530794D445575 0x4E PUSH11 0x4132494455324C6A63774D NUMBER TIMESTAMP PREVRANDAO 0x49 PREVRANDAO 0x49 PUSH24 0x4E5334324D6A51674E5463754E5463334C4449774E69347A 0x4F PREVRANDAO PUSH8 0x674E5467754D5455 CALLDATALOAD 0x4C PREVRANDAO 0x49 PUSH24 0x4E69347A4F5451674E5463754D7A417749454D674D6A4132 0x4C PUSH11 0x4D354E7941314E6934344D PREVRANDAO SSTORE PUSH20 0x4D6A41324C6A49794D4341314E6934304D444173 0x4D PUSH11 0x41324C6A41774D4341314E PUSH10 0x34304D44416751794179 0x4D PREVRANDAO SSTORE PUSH22 0x4E7A6777494455324C6A51774D4377794D4455754E6A COINBASE PUSH27 0x494455324C6A557A4E5377794D4455754E6A4132494455324C6A63 PUSH24 0x4D43424E4D546B7A4C6A51774D4341324D4334354E6A6767 MLOAD PUSH26 0x41784F5449754E7A5177494459784C6A49334D4377784F544575 0x4F PREVRANDAO PUSH8 0x31494459784C6A59 PUSH26 0x4D4377784F5445754E544177494459784C6A63304E6942444944 GASLIMIT CALLVALUE 0x4F MSTORE8 CALLVALUE PUSH25 0x4F546B674E6A49754E446B344C4445354D5334794D7A45674E PUSH11 0x51754E4451784C4445354E NUMBER CALLVALUE PUSH24 0x4D6A67674E6A51754D54593049454D674D546B344C6A4934 0x4D MSTORE8 COINBASE ORIGIN 0x4D PUSH26 0x34334E4449734D546B344C6A63354D4341324D79347A4D445973 0x4D SLOAD PUSH12 0x334C6A4D334E7941324D5334 PUSH26 0x4F446B67517941784F5459754E6A5535494459774C6A49324D79 PUSH24 0x784F5455754D546B33494459774C6A45304E5377784F544D PUSH22 0x4E444177494459774C6A6B324F43424E4D5455354C6A MLOAD PUSH25 0x4D4341324D7934344F546767517941784E5459754F44597749 PREVRANDAO MSIZE ADDRESS 0x4C PUSH11 0x41354E4377784E5459754E PREVRANDAO GASLIMIT PUSH25 0x494459304C6A51334E5377784E5459754E7A6779494459324C PUSH11 0x45794D534244494445314E PUSH26 0x34304E446B674E6A6B754D4463344C4445314F4334304E444967 0x4E PUSH27 0x41754D544D7A4C4445314F5334354E6A63674E6A6B754E54417949 GASLIMIT 0x4D PUSH8 0x4D5459774C6A557A 0x4E MSTORE8 COINBASE ORIGIN 0x4F MSTORE8 CALLVALUE PUSH26 0x4E6A63734D5459784C6A67784D4341324F4334354E6A63734D54 MSIZE PUSH26 0x4C6A67774D4341324F4334344D7A5167517941784E6A51754E7A GASLIMIT BALANCE 0x49 PREVRANDAO MSIZE CALLVALUE 0x4C PUSH11 0x55334F4377784E6A51754F PREVRANDAO GASLIMIT ADDRESS 0x49 PREVRANDAO MSIZE CALLVALUE 0x4C PUSH11 0x4D314E5377784E6A51754D SLOAD PUSH12 0x33494459314C6A63774E7942 PREVRANDAO 0x49 PREVRANDAO GASLIMIT ORIGIN 0x4E NUMBER CALLVALUE PUSH24 0x4D6A63674E6A51754F5463354C4445324D5334354E6A4167 0x4E PUSH11 0x4D754E4441334C4445324D MSTORE8 CALLVALUE BALANCE 0x4D PUSH11 0x41674E6A4D754E6A637949 GASLIMIT 0x4D PUSH8 0x4D5459784C6A5131 0x4E NUMBER COINBASE ORIGIN 0x4D PUSH26 0x34334D5449734D5459774C6A55774E5341324D7934344D544D73 0x4D SLOAD SSTORE CALLDATALOAD 0x4C PUSH11 0x51784D4341324D7934344F SLOAD PUSH8 0x67545449774E4334 CALLDATALOAD 0x4D PREVRANDAO COINBASE PUSH8 0x4E6A63754D445931 0x49 GASLIMIT 0x4D PUSH8 0x4D6A41304C6A5979 0x4E MSTORE8 COINBASE ORIGIN 0x4E PUSH26 0x34784E7A59734D6A41304C6A51774D4341324E7934304E7A6373 0x4D PUSH11 0x41304C6A51774D4341324E PUSH26 0x34334D7A4D67517941794D4451754E444177494459344C6A4130 0x4F MSTORE8 PUSH24 0x794D444D754D7A5931494459344C6A49774E4377794D4445 PUSH22 0x4D6A417A494459344C6A49784D534244494445354E79 CALLVALUE ADDRESS 0x4D SLOAD PUSH8 0x674E6A67754D6A49 ADDRESS 0x4C PREVRANDAO GASLIMIT CALLDATALOAD 0x4E PUSH10 0x34314E5441674E6A6775 0x4E PUSH27 0x55774C4445354E6934354F5449674E7A41754E7A597A49454D674D SLOAD PUSH12 0x334C6A4D334E5341334D6934 BALANCE 0x4D PREVRANDAO PUSH8 0x734D546B354C6A63 ORIGIN 0x4D PUSH26 0x41334E4334354F4451734D6A41774C6A59354D5341334E433431 0x4F SLOAD PUSH4 0x67517941 PUSH26 0x4D4445754F544D35494463304C6A41334E7977794D444D754D7A MSIZE CALLDATALOAD 0x49 PREVRANDAO PUSH4 0x7A4C6A59 PUSH26 0x4F5377794D4451754E5441774944637A4C6A51774E4342444944 0x49 PUSH24 0x4E5334324D7A6B674E7A4D754D5463334C4449774E533435 0x4F PREVRANDAO MLOAD PUSH8 0x4E7A49754D545130 0x4C PREVRANDAO 0x49 PUSH24 0x4E5334784F4463674E7A45754D7A513349454D674D6A417A 0x4C PUSH11 0x51324E5341324F5334324D PUSH11 0x55734D6A41314C6A6B314E MSTORE8 COINBASE ORIGIN 0x4F MSTORE8 CALLVALUE ORIGIN 0x4D PREVRANDAO COINBASE PUSH20 0x4D6A41354C6A51774D4341334D53347A4D445567 MLOAD PUSH26 0x41794D5441754E7A6B34494463784C6A6B354E7977794D545975 0x4E SLOAD 0x4D CALLDATALOAD 0x49 PREVRANDAO PUSH4 0x304C6A41 PUSH24 0x4D4377794D5463754D544931494463304C6A41774D434244 0x49 PREVRANDAO 0x49 PUSH25 0x4E7934794E4449674E7A51754D4441774C4449784E6934304E SLOAD 0x49 PUSH8 0x4E7A4D754D546731 0x4C PREVRANDAO 0x49 PUSH25 0x4E53347A4E6A6B674E7A49754D54673449454D674D6A45794C PUSH11 0x4D774D7941324F53347A4E PUSH11 0x67734D6A45784C6A41304D PUSH26 0x41324F4334784E4455734D6A45774C6A51344E4341324E793430 0x4E PREVRANDAO SSTORE PUSH8 0x517941794D446B75 0x4F SLOAD PUSH8 0x78494459324C6A67 PUSH25 0x4E6977794D4459754D545979494459324C6A55314E6977794D PREVRANDAO MLOAD PUSH22 0x4F544177494459334C6A41324E53424E4D5459304C6A MLOAD PUSH24 0x4D4341334D7934334F544567517941784E6A4D754F445577 0x49 PREVRANDAO PUSH4 0x304C6A45 PUSH25 0x4D4377784E6A4D754D445177494463304C6A4D344E4377784E PUSH11 0x49754E6A4177494463304C PUSH11 0x4D354F434244494445324D MSTORE8 CALLVALUE ORIGIN 0x4D PUSH27 0x51674E7A51754E444D784C4445324D4334794E444D674E7A59754D PUSH11 0x457A4C4445324D4334314E SLOAD 0x4D PUSH8 0x4E7A63754D444978 0x49 GASLIMIT 0x4D PUSH8 0x4D5459774C6A6779 0x4E PUSH10 0x41334E7934334D7A4973 0x4D SLOAD MSIZE CALLER 0x4C PUSH11 0x6B334E7941334E7934344E PUSH11 0x4D734D5459344C6A59334D MSTORE8 COINBASE CALLER 0x4E PUSH26 0x34784E6A6B67517941784E7A41754D6A5131494463314C6A5535 0x4E MSTORE8 PUSH24 0x784E6A59754E445531494463794C6A55354E6977784E6A51 PUSH22 0x4E4441774944637A4C6A63354D53424E4D6A45314C6A MLOAD PUSH26 0x4E6941344E4334794D7A6767517941794D5455754D5455344944 PUSH8 0x314C6A4D774E5377 PUSH26 0x4D5455754E7A4935494467324C6A51774D4377794D5459754E54 SSTORE PUSH27 0x494467324C6A51774D434244494449784E6934344D444D674F4459 PUSH22 0x4E4441774C4449784E7934354E7A59674F4463754D7A COINBASE PUSH24 0x4C4449784F5334784E6A41674F4467754E44417749454D67 0x4D PUSH11 0x49774C6A4D304E4341344F MSTORE8 CALLVALUE BALANCE 0x4D PREVRANDAO COINBASE PUSH20 0x4D6A49784C6A51324F4341354D4334304D444173 0x4D PUSH11 0x49784C6A59314E7941354D NUMBER CALLVALUE ADDRESS 0x4D PREVRANDAO COINBASE PUSH8 0x517941794D6A4575 0x4F PREVRANDAO MLOAD BALANCE 0x49 PREVRANDAO PUSH12 0x774C6A51774D4377794D6A49 PUSH22 0x4D44417749446B774C6A59314D5377794D6A49754D44 COINBASE PUSH24 0x49446B774C6A6B314E794244494449794D6934774D444167 0x4F SLOAD GASLIMIT PUSH22 0x4D6A59304C4449794D6934794E7A41674F5445754E6A GASLIMIT CALLVALUE 0x4C PREVRANDAO 0x49 PUSH26 0x4D6934324D4441674F5445754E7A513149454D674D6A49794C6A PUSH12 0x7A4D4341354D5334344E7A45 PUSH20 0x4D6A497A4C6A49774D4341354D6934794D7A5973 0x4D PUSH11 0x497A4C6A49774D4341354D PUSH10 0x34314E54516751794179 0x4D PUSH11 0x4D754D6A417749446B794C PUSH11 0x67334D7977794D6A4D754D PUSH27 0x4D3149446B7A4C6A45354D7977794D6A4D754E54417749446B7A4C PUSH11 0x49324E794244494449794E NUMBER CALLVALUE CALLDATALOAD 0x4D PUSH27 0x51674F544D754F5441304C4449794E5334354F4459674F5467754E PUSH11 0x4D324C4449794E5334774D PUSH11 0x49674D5441774C6A45784E NUMBER TIMESTAMP PREVRANDAO 0x49 PREVRANDAO 0x49 PUSH26 0x4E4334334D4455674D5441774C6A59774D5377794D6A51754D6A PUSH4 0x30494445 PUSH24 0x4D5334334E6A55734D6A49304C6A41324E5341784D444975 0x4E PUSH27 0x417749454D674D6A497A4C6A59794E4341784D4451754E6A63794C PREVRANDAO 0x49 PUSH26 0x4D7934344E446B674D5441304C6A63334E4377794D6A59754D7A PUSH12 0x79494445774D7934334E5463 PUSH8 0x544341794D6A6775 0x4D PREVRANDAO COINBASE PUSH24 0x494445774D7934784D544D674D6A49344C6A41774D434178 0x4D PREVRANDAO COINBASE PUSH22 0x4D6A497749454D674D6A49344C6A41774D4341354E53 CALLVALUE PUSH25 0x4D5463734D6A49334C6A55314E7941354E4334794F5463734D PUSH11 0x49784C6A59784F4341344F NUMBER CALLVALUE ADDRESS 0x4D SLOAD PUSH8 0x67517941794D5455 PUSH22 0x4F544134494467794C6A63324E5377794D5455754F44 GASLIMIT PUSH26 0x494467794C6A63774D4377794D5455754E444932494467304C6A 0x49 PUSH27 0x4F43424E4D5449784C6A4D334D4341784D4451754D6A453549454D PUSH8 0x4D5449784C6A4979 0x4E NUMBER COINBASE PUSH25 0x4D4451754F546B354C4445794D5334794D7A41674D5441314C PUSH11 0x63324E4377784D6A45754D PUSH27 0x6731494445774E5334354D546767517941784D6A45754F44417949 PREVRANDAO GASLIMIT PUSH24 0x4E69347A4D7A55734D5449794C6A67774D4341784D445175 0x4E PUSH27 0x67334C4445794D6934344D4441674D54417A4C6A63794E43424449 PREVRANDAO GASLIMIT PUSH26 0x4D6934344D4441674D5441794C6A49794E4377784D6A45754E6A PUSH4 0x78494445 PUSH24 0x4D6934324D5455734D5449784C6A4D334D4341784D445175 0x4D PUSH11 0x4535494530794D6A63754E PUSH27 0x4177494445774E7934774F544967517941794D6A59754E54457A49 PREVRANDAO GASLIMIT PUSH24 0x4E7934344F5445734D6A49324C6A55324D7941784D446775 0x4E SLOAD MSIZE PUSH27 0x4C4449794E7934344E5449674D5441354C6A45314D534244494449 PUSH26 0x4F5334774E7A49674D5441354C6A63774E7977794D6A6B754D44 SSTORE BALANCE 0x49 PREVRANDAO GASLIMIT PUSH24 0x4F5334334D5459734D6A49354C6A4D354D7941784D446775 0x4D PUSH27 0x593549454D674D6A49354C6A63314D7941784D4459754F544D324C PREVRANDAO 0x49 PUSH26 0x4F4334344F5455674D5441324C6A49344F4377794D6A63754E7A COINBASE PUSH24 0x494445774E7934774F544967545445794E5334344E546367 0x4D SLOAD COINBASE CALLVALUE 0x4C PUSH11 0x41784E794244494445794E MSTORE8 CALLVALUE PUSH24 0x4D4467674D5445794C6A49324D6977784D6A59754E6A5532 0x49 PREVRANDAO GASLIMIT PUSH25 0x4E7934334E6A6B734D5449344C6A63774D7941784D5463754E SLOAD 0x49 PUSH26 0x49454D674D544D774C6A67354F4341784D5463754D6A55344C44 GASLIMIT PUSH27 0x4D4334304F4467674D54457A4C6A67784D6977784D6A63754E6A55 PUSH27 0x494445774F4334334D444167517941784D6A59754E444534494445 PUSH24 0x4E6934304E7A4D734D5449324C6A45344D7941784D445975 0x4D PUSH27 0x677A4C4445794E5334344E5463674D5441344C6A41784E79424E4D PUSH11 0x49344C6A63774D4341784D SLOAD 0x4D PUSH22 0x4D7A4D7A49454D674D6A49344C6A49774F4341784D54 MLOAD PUSH22 0x4E544D314C4449794F43347A4D6A63674D5445324C6A PUSH4 0x324E7977 PUSH26 0x4D6A67754F444D33494445784E5334344F544567517941794D6A PUSH12 0x754D445930494445784E5334 BALANCE 0x4D PREVRANDAO 0x49 PUSH20 0x4D6A49354C6A45354D7941784D5451754E6A4179 0x4C PREVRANDAO 0x49 PUSH26 0x4F5334784D6A55674D54457A4C6A67354D534244494449794F53 CALLVALUE PUSH24 0x4D6A63674D5445794C6A67334E7977794D6A67754F544D32 0x49 PREVRANDAO GASLIMIT PUSH25 0x4D6934334E5463734D6A49344C6A63774D4341784D544D754D PUSH27 0x4D7A494530794D7A4D754D7A41304944457A4D4334784D44416751 PUSH26 0x41794D7A4D754E446B7A4944457A4D7934354D5449734D6A4D30 0x4C PUSH11 0x45774D5341784D7A63754D PUSH27 0x67334C44497A4E53347A4D444D674D5451784C6A55784E79424449 PREVRANDAO 0x49 PUSH27 0x4E6934774F4459674D5451304C6A49774F4377794D7A59754D5441 PUSH27 0x494445304E4334314D546B734D6A4D314C6A55794F4341784E4455 PUSH22 0x4E54453349454D674D6A4D304C6A55354D4341784E44 PUSH4 0x754D5451 ADDRESS 0x4C PREVRANDAO 0x49 PUSH27 0x4E4334784E6A59674D5455784C6A59324E5377794D7A51754F5467 PUSH25 0x494445314D53347A4E544967517941794D7A55754D7A497849 PREVRANDAO GASLIMIT BALANCE 0x4D MSTORE8 CALLVALUE PUSH26 0x4D6A45734D6A4D314C6A59774D4341784E5441754F4441794C44 0x49 PUSH27 0x4E5334324D4441674D5455774C6A51784F5342444944497A4E5334 ORIGIN 0x4D PREVRANDAO COINBASE PUSH8 0x4D5451354C6A517A 0x4D NUMBER PUSH24 0x794D7A63754D444178494445304F4334794F444D734D6A4D CALLER 0x4C PUSH11 0x67334D5341784E4467754E SLOAD SSTORE CALLDATALOAD 0x49 GASLIMIT 0x4D PUSH8 0x4D6A4D344C6A4933 0x4D PUSH10 0x41784E4467754E6A6732 0x4C PREVRANDAO 0x49 PUSH27 0x4F4334334F4441674D5451344C6A63344E4377794D7A6B754D4441 PUSH24 0x494445304F4334334E7A6367517941794D7A6B754E544931 0x49 PREVRANDAO GASLIMIT ADDRESS 0x4F NUMBER CALLVALUE CALLER 0x4E SLOAD PUSH12 0x734D6A4D354C6A49324E6941 PUSH25 0x4E4463754D5459314C44497A4F4334324D5451674D5451324C PUSH11 0x51774D4342444944497A4E PUSH26 0x34314E546B674D5451314C6A45324E4377794D7A59754F444D35 0x49 PREVRANDAO GASLIMIT ADDRESS 0x4D PUSH10 0x34354D546B734D6A4D32 0x4C PUSH11 0x59344F5341784E4441754E PREVRANDAO COINBASE PUSH24 0x49454D674D6A4D324C6A557A4F5341784D7A63754F44637A 0x4C PREVRANDAO 0x49 PUSH27 0x4E6934774E6A59674D544D324C6A45794E5377794D7A51754F5451 PUSH26 0x4944457A4D7934354D7A5567517941794D7A51754E6A51794944 GASLIMIT PUSH27 0x4D79347A4E446B734D6A4D304C6A49344D4341784D7A45754E5441 ADDRESS 0x4C PREVRANDAO 0x49 PUSH27 0x4E4334784D7A6B674D5449354C6A677A4E5342444944497A4D7934 CALLER 0x4F SLOAD GASLIMIT PUSH8 0x4D5449314C6A6378 0x4E PUSH10 0x77794D7A4D754D446B35 0x49 PREVRANDAO GASLIMIT PUSH26 0x4E5334354D7A59734D6A4D7A4C6A4D774E4341784D7A41754D54 COINBASE PUSH24 0x494530794E4449754E446333494445304E4334784D7A4167 MLOAD PUSH26 0x41794E4449754E546B7A494445304E53347A4D7A41734D6A5179 0x4C PUSH11 0x59354D6941784E4455754E PREVRANDAO COINBASE PUSH25 0x4C4449304E4334794E7A49674D5451314C6A51794E53424449 PREVRANDAO 0x49 ADDRESS 0x4E PUSH10 0x34304D7A55674D545131 0x4C PUSH11 0x51314E7977794E5459754D PUSH27 0x4D34494445314D43347A4E5467734D6A55344C6A4D314E5341784E SLOAD 0x49 PUSH22 0x4D7A6B3149454D674D6A55354C6A63324D5341784E54 0x4D PUSH22 0x4F4445314C4449324D4334354F5455674D5455304C6A SSTORE ORIGIN 0x4F MSTORE8 PUSH24 0x794E6A55754E44557A494445314E6934334D7A4D67517941 PUSH26 0x4E6A59754F444179494445314E79347A4F4467734D6A59344C6A COINBASE PUSH27 0x4E7941784E5467754D544D324C4449324F4334784F5463674D5455 CALLVALUE 0x4C PUSH11 0x4D354E534244494449324F NUMBER CALLVALUE PUSH27 0x4E5463674D5455344C6A59314E4377794E6A6B754E44457A494445 BALANCE 0x4F MSTORE8 CALLVALUE ADDRESS 0x4E PUSH11 0x49734D6A63774C6A55304E NUMBER COINBASE PUSH25 0x4E6A41754D546B7749454D674D6A63784C6A59334E5341784E PUSH11 0x41754F5445344C4449334D PUSH26 0x34784E4441674D5459784C6A6B344E4377794E7A4D754F444177 0x49 PREVRANDAO GASLIMIT ORIGIN 0x4D PUSH10 0x34314E546B6751794179 0x4E PUSH27 0x51754E445977494445324D7934784D7A51734D6A63314C6A4D324D NUMBER COINBASE PUSH25 0x4E6A4D754E7A457A4C4449334E5334344D4441674D54597A4C PUSH11 0x67304E534244494449334E PUSH10 0x34794E4441674D54597A 0x4C PUSH11 0x6B334F4377794E7A63754D PUSH27 0x4977494445324E4334334E7A59734D6A63344C6A49774D4341784E PUSH11 0x55754E6A453549454D674D PUSH11 0x67794C6A6B314F4341784E PUSH27 0x41754D5463334C4449344F4334784E546B674D5463794C6A55784E NUMBER PUSH24 0x794F5441754D545931494445334D4334354F545967517941 PUSH26 0x4F5445754D545531494445334D4334794E4459734D6A67354C6A PUSH4 0x784E5341 PUSH25 0x4E6A67754F4441354C4449344E4334314D7A59674D5459314C PUSH11 0x4D344D534244494449344D PUSH10 0x34314F5445674D545930 0x4C PUSH11 0x41354D7977794F4441754F SLOAD MLOAD PUSH24 0x494445324D6934344F5455734D6A67774C6A67324E794178 0x4E PUSH11 0x49754E7A497749454D674D PUSH11 0x67774C6A63354D7941784E PUSH11 0x49754E5451304C4449344D NUMBER CALLVALUE BALANCE 0x4D SLOAD PUSH12 0x674D5459794C6A51774D4377 PUSH26 0x4F4441754D6A5534494445324D6934304D444167517941794E7A PUSH12 0x754F546B32494445324D6934 ADDRESS 0x4D PREVRANDAO COINBASE PUSH20 0x4D6A63354C6A457A4F5341784E6A45754F446377 0x4C PREVRANDAO 0x49 CALLER 0x4F NUMBER CALLVALUE PUSH27 0x4E5449674D5459784C6A49794D534244494449334E7934314E6A59 PUSH8 0x4D5459774C6A5533 0x4D PUSH26 0x77794E7A59754D544D77494445314F5334324D5463734D6A6331 0x4C PUSH11 0x45324D5341784E546B754D PREVRANDAO PUSH12 0x3449454D674D6A63304C6A45 CALLDATALOAD 0x4D PUSH10 0x41784E5467754E546335 0x4C PREVRANDAO 0x49 CALLER 0x4D PUSH10 0x34324F4441674D545533 0x4C PUSH11 0x59354E5377794E7A45754F PREVRANDAO COINBASE PUSH24 0x494445314E7934784D7A5567517941794E7A41754F544977 0x49 PREVRANDAO GASLIMIT BALANCE 0x4E PUSH10 0x34314E7A55734D6A5935 0x4C PUSH11 0x63354E5341784E5455754F SLOAD PUSH8 0x344C4449324F5334 PUSH27 0x4D4441674D5455314C6A677A4D534244494449324F4334344D4455 PUSH8 0x4D5455314C6A5933 0x4E MSTORE8 PUSH24 0x794E6A67754E444177494445314E53347A4F5441734D6A59 CALLVALUE 0x4C PUSH11 0x51774D4341784E5455754D PUSH11 0x417749454D674D6A59344C PUSH11 0x51774D4341784E5455754D PREVRANDAO GASLIMIT PUSH24 0x4C4449324E7934354F5455674D5455304C6A63794F437779 0x4E PUSH11 0x63754E544177494445314E NUMBER CALLVALUE BALANCE 0x4E PUSH27 0x5167517941794E6A63754D444131494445314E4334304D6A45734D PUSH11 0x59324C6A41354E5341784E SLOAD 0x4D PUSH22 0x4F544D354C4449324E5334304E7A67674D54557A4C6A SSTORE PUSH24 0x4E534244494449324E4334344E6A45674D54557A4C6A4133 0x4D NUMBER PUSH24 0x794E6A4D754D545578494445314D6934784D4463734D6A59 PUSH25 0x4C6A59334F4341784E5445754D7A593149454D674D6A55344C PUSH11 0x63794E7941784E446B754F PREVRANDAO PUSH4 0x344C4449 BALANCE 0x4E MSTORE8 CALLVALUE CALLVALUE 0x4F PREVRANDAO MLOAD PUSH8 0x4D5451344C6A4D77 0x4E PUSH26 0x77794E5455754D544130494445304E7934334D7A516751794179 0x4E SLOAD MLOAD PUSH22 0x4F444933494445304E7934314D7A41734D6A557A4C6A SSTORE PUSH26 0x4D4341784E4459754F5455304C4449314D6934794D4441674D54 MLOAD ORIGIN 0x4C PUSH11 0x51314E434244494449314D NUMBER CALLVALUE CALLVALUE 0x4F PREVRANDAO COINBASE PUSH8 0x4D5451314C6A6B31 0x4E NUMBER PUSH24 0x794E446B754E54497A494445304E53347A4F546B734D6A51 CALLDATALOAD 0x4C PUSH11 0x45344E5341784E4455754D PUSH11 0x497949454D674D6A51344C PUSH11 0x67304E6941784E4455754D PREVRANDAO MLOAD ADDRESS 0x4C PREVRANDAO 0x49 ADDRESS 0x4E PUSH26 0x34344D5445674D5451304C6A63334D5377794E4459754F446731 0x49 PREVRANDAO GASLIMIT ADDRESS 0x4E NUMBER CALLVALUE ORIGIN 0x4D SLOAD MLOAD PUSH8 0x517941794E445575 0x4F SLOAD SSTORE CALLVALUE 0x49 PREVRANDAO GASLIMIT ADDRESS 0x4E NUMBER CALLVALUE ADDRESS 0x4E SLOAD PUSH8 0x734D6A51314C6A49 PUSH24 0x4D4341784E4451754D546B324C4449304E5334794D444167 0x4D SLOAD MLOAD ADDRESS 0x4C PUSH11 0x417A4D694244494449304E MSTORE8 CALLVALUE PUSH26 0x4D4441674D54517A4C6A67324F4377794E4451754E5459774944 GASLIMIT ADDRESS 0x4D PUSH26 0x34314D7A67734D6A517A4C6A63334E7941784E444D754D6A6B33 0x49 GASLIMIT PUSH24 0x674D6A51794C6A4D314E4341784E4449754F445978494449 ADDRESS 0x4D PUSH10 0x34304E7A63674D545130 0x4C PUSH11 0x457A4D43424E4D6A4D344C PUSH11 0x67314E6941784E5449754E PUSH11 0x593149454D674D6A4D354C PUSH11 0x417A4D4341784E5451754D PUSH27 0x55344C44497A4F43347A4E7A67674D5455344C6A41344F5377794D PUSH27 0x63754E7A5577494445314F4334354F446B67517941794D7A63754E PREVRANDAO MLOAD CALLVALUE 0x49 PREVRANDAO GASLIMIT BALANCE 0x4F MSTORE8 CALLVALUE ADDRESS 0x4D PUSH11 0x4D734D6A4D334C6A49774D NUMBER COINBASE PUSH25 0x4E6A41754D7A4D354C44497A4E7934794D4441674D5459784C PUSH11 0x41794E5342444944497A4E PUSH26 0x34794D4441674D5459784C6A63784D6977794D7A59754F544D7A 0x49 PREVRANDAO GASLIMIT ORIGIN 0x4D PUSH26 0x34784E5459734D6A4D324C6A59774E7941784E6A51754D6A4D32 0x49 GASLIMIT 0x4D PUSH8 0x4D6A4D324C6A4178 0x4E NUMBER COINBASE PUSH25 0x4E6A59754D546B354C44497A4E6934784D6A67674D5459334C PUSH11 0x67784E5377794D7A59754F PREVRANDAO 0x49 CALLDATALOAD 0x49 PREVRANDAO GASLIMIT ORIGIN 0x4E PUSH26 0x347A4F444967517941794D7A63754D444D7A494445324E793479 0x4E SLOAD MSIZE PUSH20 0x4D6A4D334C6A49774D4341784E6A59754E6A5131 0x4C PREVRANDAO 0x49 PUSH27 0x4E7934794D4441674D5459324C6A41794E5342444944497A4E7934 PUSH26 0x4D4441674D5459314C6A51774E5377794D7A63754E4455794944 GASLIMIT ORIGIN 0x4E NUMBER CALLVALUE ORIGIN 0x4F PREVRANDAO PUSH12 0x734D6A4D334C6A63324D5341 PUSH25 0x4E6A51754E444D7A49454D674D6A4D344C6A41324F5341784E PUSH11 0x51754D5463334C44497A4F NUMBER CALLVALUE ADDRESS 0x4D PUSH27 0x4D674D54597A4C6A55794E5377794D7A67754E545934494445324D PUSH10 0x34354F44516751794179 0x4D PUSH27 0x67754F444930494445324D5334354E6A51734D6A4D354C6A4D334D MSTORE8 COINBASE PUSH25 0x4E6A45754E7A41314C44497A4F5334344D4441674D5459794C PUSH11 0x51774D434244494449304D NUMBER CALLVALUE PUSH25 0x4E5451674D5459794C6A6B334D7977794E4445754E546B7849 PREVRANDAO GASLIMIT ORIGIN 0x4D PUSH10 0x34344F5455734D6A5178 0x4C PUSH11 0x59314D4341784E6A49754D PUSH27 0x417749454D674D6A51784C6A67774E4341784E6A41754E7A51334C PREVRANDAO 0x49 ADDRESS 0x4D MSTORE8 CALLVALUE ADDRESS 0x4E SLOAD MLOAD PUSH8 0x4D5455334C6A4934 0x4E PUSH26 0x77794E4445754D44637A494445314E6934324D44416751794179 0x4E PREVRANDAO COINBASE PUSH22 0x4F444D77494445314E6934784E6A41734D6A51774C6A SSTORE PUSH27 0x4E4341784E5451754F5441794C4449304D4334304D5455674D5455 PUSH27 0x4C6A67774E434244494449304D4334794E5449674D5455794C6A49 CALLDATALOAD 0x4D PUSH10 0x77794E4441754D44497A 0x49 PREVRANDAO GASLIMIT BALANCE 0x4D MSTORE8 CALLVALUE CALLER 0x4E PUSH27 0x55734D6A4D354C6A51334D4341784E5445754E6A593549454D674D PUSH11 0x4D344C6A67344D6941784E SLOAD GASLIMIT PUSH22 0x4E5455334C44497A4F4334334E6A49674D5455784C6A PUSH4 0x314D5377 PUSH26 0x4D7A67754F445532494445314D6934324E6A55675454497A4D79 CALLVALUE CALLER 0x4D SLOAD MLOAD PUSH8 0x4D5455324C6A4977 0x4D NUMBER TIMESTAMP PREVRANDAO 0x49 PREVRANDAO 0x49 PUSH27 0x4D7934334D5463674D5455334C6A4D774D4377794D7A4D754E7A6B BALANCE 0x49 PREVRANDAO GASLIMIT BALANCE 0x4E PUSH26 0x34334D444D734D6A4D7A4C6A67344E7941784E5463754D446B31 0x49 GASLIMIT 0x4D PUSH8 0x4D6A4D7A4C6A6B33 0x4F MSTORE8 COINBASE PUSH25 0x4E5459754E4467324C44497A4D7934354E7A63674D5455314C PUSH11 0x55344E6977794D7A4D754F PREVRANDAO PUSH8 0x79494445314E5334 PUSH24 0x4F545567517941794D7A4D754E7A6733494445314E433432 0x4D PREVRANDAO 0x4D PUSH20 0x4D6A4D7A4C6A63784D5341784E5455754D544177 0x4C PREVRANDAO 0x49 PUSH27 0x4D7934334D5451674D5455324C6A49774D43424E4D5449784C6A49 PUSH24 0x4D4341784E6A41754E6A677949454D674D5449774C6A5577 0x4F MSTORE8 COINBASE PUSH25 0x4E6A41754F5455324C4445794D4334774D5455674D5459784C PUSH11 0x59774D7977784D6A41754D PREVRANDAO COINBASE ORIGIN 0x49 PREVRANDAO GASLIMIT ORIGIN 0x4D PUSH10 0x34794E44516751794178 0x4D SLOAD PUSH12 0x754F546732494445324D7934 ORIGIN 0x4F SLOAD SSTORE PUSH20 0x4D5449344C6A41774D7941784E7A41754F445534 0x4C PREVRANDAO GASLIMIT PUSH27 0x4D5334334E4451674D5463794C6A637A4D5342444944457A4D6934 ORIGIN 0x4E SLOAD SSTORE PUSH8 0x4D54637A4C6A4534 0x4F NUMBER PUSH24 0x784D7A51754D444977494445334E4334774D6A41734D544D ADDRESS 0x4C PUSH11 0x63334F4341784E7A51754E SLOAD PUSH8 0x7849454D674D544D BALANCE 0x4C PUSH11 0x557A4E5341784E7A55754D SLOAD MLOAD PUSH25 0x4C44457A4E69347A4E5467674D5463314C6A59774D4377784D PUSH27 0x59754E6A4132494445334E5334324D444167517941784D7A59754F PREVRANDAO SSTORE PUSH27 0x494445334E5334324D4441734D544D334C6A63354D6941784E7A59 PUSH22 0x4D6A4D774C44457A4F4334324F5449674D5463334C6A COINBASE PUSH24 0x4D4342444944457A4F5334314F5445674D5463334C6A6333 0x4D NUMBER PUSH24 0x784E4441754E544930494445334F4334304D4441734D5451 PUSH24 0x4C6A63324E4341784E7A67754E44417749454D674D545178 0x4C PUSH11 0x41774E4341784E7A67754E PREVRANDAO COINBASE PUSH24 0x4C4445304D5334794D4441674D5463344C6A59334D437778 0x4E PREVRANDAO GASLIMIT PUSH22 0x4D6A4177494445334F5334774D444167517941784E44 GASLIMIT PUSH22 0x4D6A4177494445334F5334304D7A4D734D5451784C6A MSIZE ADDRESS 0x4E NUMBER COINBASE PUSH25 0x4E7A6B754E6A41774C4445304D6934344D4441674D5463354C PUSH11 0x59774D434244494445304E NUMBER CALLVALUE BALANCE 0x4D PREVRANDAO MSIZE PUSH8 0x4D5463354C6A5977 0x4D NUMBER PUSH24 0x784E4455754D44677A494445334F4334324E7A45734D5451 PUSH27 0x4C6A59314F5341784E7A67754D6A453549454D674D54517A4C6A49 BALANCE 0x4D MSTORE8 COINBASE PUSH25 0x4E7A67754D4467354C4445304D6934304E4441674D5463334C PUSH11 0x51304E7977784E4445754F PREVRANDAO SSTORE ORIGIN 0x49 PREVRANDAO GASLIMIT CALLER 0x4E PUSH10 0x34334F54496751794178 0x4E PREVRANDAO GASLIMIT PUSH22 0x4D6A6379494445334E6934784D7A59734D5451774C6A MSIZE PUSH24 0x4E7941784E7A55754E6A41774C4445304D43347A4E7A6B67 0x4D SLOAD PUSH4 0x314C6A59 PUSH24 0x4D434244494445304D4334784E5441674D5463314C6A5977 0x4D NUMBER PUSH24 0x784D7A6B754E446333494445334E5334784E4459734D544D CALLVALUE 0x4C PUSH11 0x67344D6941784E7A51754E SLOAD PUSH12 0x7849454D674D544D344C6A49 CALLVALUE 0x4E PUSH26 0x41784E7A51754D444D324C44457A4E7934314D5455674D54637A 0x4C PUSH11 0x4D784E6977784D7A63754D SLOAD MSIZE ORIGIN 0x49 PREVRANDAO GASLIMIT CALLER 0x4D PUSH10 0x34354F54456751794178 0x4D PUSH27 0x59754F444534494445334D6934324E6A59734D544D324C6A4D7A4D PUSH10 0x41784E7A49754E444177 0x4C PREVRANDAO GASLIMIT PUSH27 0x4E6934774F4459674D5463794C6A51774D4342444944457A4E5334 CALLVALUE 0x4E PREVRANDAO GASLIMIT PUSH8 0x4D5463794C6A5177 0x4D NUMBER PUSH24 0x784D7A55754E446B32494445334D6934784E7A55734D544D BALANCE 0x4C PUSH11 0x4D794D4341784E7A45754F PREVRANDAO PUSH12 0x3549454D674D544D314C6A45 ADDRESS 0x4E NUMBER COINBASE PUSH25 0x4E7A45754E6A49304C44457A4E4334314D5449674D5463784C PUSH11 0x45304E7977784D7A4D754F SLOAD GASLIMIT BALANCE 0x49 PREVRANDAO GASLIMIT CALLER 0x4D NUMBER CALLVALUE CALLVALUE 0x4E PREVRANDAO COINBASE PUSH8 0x517941784D7A4575 0x4D PUSH11 0x6778494445324F5334304F PREVRANDAO 0x4D PUSH20 0x4D5449324C6A51304D6941784E6A51754D6A6332 0x4C PREVRANDAO GASLIMIT PUSH26 0x4E6934784E6A51674D5459794C6A55774D434244494445794E53 CALLVALUE CALLDATALOAD 0x4E PUSH27 0x6B674D5459784C6A4D784F4377784D6A55754E7A4177494445324D NUMBER CALLVALUE CALLER 0x4F SLOAD SSTORE PUSH20 0x4D5449314C6A49304F5341784E6A41754E7A6731 0x49 GASLIMIT 0x4D PUSH8 0x4D5449304C6A6735 0x4D PUSH10 0x41784E6A41754E7A6333 0x4C PREVRANDAO GASLIMIT PUSH26 0x4D7934354E7A41674D5459774C6A59354E6977784D6A4D754D6A COINBASE PUSH24 0x494445324D4334324D446367517941784D6A49754E444D77 0x49 PREVRANDAO GASLIMIT ORIGIN 0x4D NUMBER CALLVALUE BALANCE 0x4D SLOAD PUSH4 0x734D5449 PUSH25 0x4C6A557A4D4341784E6A41754E5455784C4445794D5334794D PREVRANDAO COINBASE PUSH8 0x4D5459774C6A5934 0x4D PUSH10 0x424E4D6A67324C6A6777 0x4D MSTORE8 COINBASE PUSH25 0x4E6A45754D44557A49454D674D6A67324C6A67784D6941784E PUSH11 0x4D754E4445304C4449354D PUSH26 0x34314D5463674D5459324C6A417A4E53777A4D4441754D445535 0x49 PREVRANDAO GASLIMIT ORIGIN 0x4E PUSH10 0x34794D7A55675179417A 0x4D PREVRANDAO GASLIMIT PUSH22 0x4E7A5179494445324E6934794F4459734D7A417A4C6A MLOAD BALANCE 0x4E MSTORE8 COINBASE PUSH25 0x4E6A59754E5441344C444D774D7934344E6A55674D5459324C PUSH11 0x63794F43424449444D774E NUMBER CALLVALUE PUSH26 0x4E7A55674D5459324C6A6B304E79777A4D4459754E5467344944 GASLIMIT ORIGIN 0x4E PUSH26 0x34304D5467734D7A41354C6A41774E5341784E6A63754E7A6331 0x49 GASLIMIT 0x4D PUSH8 0x4D7A45324C6A4179 0x4D MSTORE8 COINBASE PUSH25 0x4E6A67754F4441354C444D784E7934314D4455674D5459354C PUSH11 0x45314D43777A4D6A49754E PUSH11 0x4177494445334D4334354D PREVRANDAO COINBASE PUSH8 0x5179417A4D6A5175 0x4D SLOAD MLOAD PUSH24 0x494445334D5334304D6A6B734D7A49324C6A51314E694178 0x4E PUSH27 0x49754D546B354C444D794E7934334E4463674D5463794C6A59784D PUSH10 0x424449444D794F533477 0x4D PUSH27 0x63674D54637A4C6A41794E43777A4D7A41754E7A4933494445334D PUSH26 0x34344E6A55734D7A4D784C6A55774D6941784E7A51754E446778 0x49 GASLIMIT 0x4D PUSH8 0x4D7A4D794C6A4933 0x4E PUSH10 0x41784E7A55754D446B32 0x4C PREVRANDAO 0x4D PUSH27 0x4D7934794D5441674D5463314C6A59774D43777A4D7A4D754E5463 CALLER 0x49 PREVRANDAO GASLIMIT CALLER 0x4E MSTORE8 CALLVALUE ORIGIN 0x4D PREVRANDAO COINBASE PUSH8 0x5179417A4D7A5175 0x4E PUSH11 0x4D35494445334E5334324D PREVRANDAO COINBASE PUSH20 0x4D7A51774C6A41784D6941784E7A6B754D7A4534 0x4C PREVRANDAO 0x4D ADDRESS 0x4D PUSH10 0x34784F4455674D546778 0x4C PUSH11 0x55314E69424449444D304E NUMBER CALLVALUE CALLDATALOAD 0x4D PREVRANDAO 0x4D PUSH8 0x4D5467304C6A4D31 0x4E MSTORE8 PUSH24 0x7A4E4463754E6A4177494445344E43347A4F4459734D7A51 CALLER 0x4C PUSH11 0x59774D4341784F4445754E PUSH11 0x453549454D674D7A51334C PUSH11 0x59774D4341784F4441754E PREVRANDAO 0x49 PUSH26 0x4C444D304E5334324E5441674D5463344C6A51774D43777A4E44 MLOAD PUSH22 0x4E446B32494445334F4334304D4441675179417A4E44 MLOAD PUSH22 0x4D445935494445334F4334304D4441734D7A51794C6A PUSH12 0x334E5341784E7A63754F4459 PUSH24 0x4C444D304D6934774E6A4D674D5463334C6A49774D434244 0x49 PREVRANDAO 0x4D ADDRESS 0x4D MSTORE8 CALLVALUE PUSH25 0x4E5449674D5463324C6A55304D43777A4E4441754D54637949 PREVRANDAO GASLIMIT CALLER 0x4E PUSH10 0x34774D4441734D7A4D35 0x4C PUSH11 0x67344E4341784E7A59754D PREVRANDAO COINBASE PUSH24 0x49454D674D7A4D354C6A55354E7941784E7A59754D444177 0x4C PREVRANDAO 0x4D PUSH27 0x4F4334784D7A49674D5463314C6A4D334D43777A4D7A59754E6A49 CALLVALUE 0x49 PREVRANDAO GASLIMIT CALLER 0x4E NUMBER CALLVALUE ORIGIN 0x4D PREVRANDAO COINBASE PUSH8 0x5179417A4D7A5575 0x4D SLOAD 0x49 BALANCE 0x49 PREVRANDAO GASLIMIT CALLER 0x4D PUSH26 0x34344D7A41734D7A4D7A4C6A59354D7941784E7A4D754D546B34 0x4C PREVRANDAO 0x4D PUSH27 0x4D7934304E4463674D54637A4C6A45354E53424449444D7A4D7934 PUSH26 0x4D4445674D54637A4C6A45354D69777A4D7A45754F5451774944 GASLIMIT CALLER 0x4D PUSH10 0x34324E5449734D7A4D77 0x4C PUSH11 0x59304E4341784E7A45754F SLOAD PUSH12 0x3149454D674D7A49354C6A4D ADDRESS 0x4F NUMBER COINBASE PUSH25 0x4E7A45754D7A4D344C444D794E7934344E7A55674D5463774C PUSH11 0x67774D43777A4D6A63754D PUSH27 0x6379494445334D4334344D4441675179417A4D6A59754F44593549 PREVRANDAO GASLIMIT CALLER 0x4D NUMBER CALLVALUE CALLVALUE 0x4D PREVRANDAO COINBASE PUSH20 0x4D7A49324C6A45344E7941784E7A41754E544D77 0x4C PREVRANDAO 0x4D PUSH26 0x4E5334344E5463674D5463774C6A49774D43424449444D794E53 CALLVALUE BALANCE 0x4D PUSH11 0x63674D5459354C6A67334D NUMBER PUSH24 0x7A4D6A51754F546334494445324F5334324D4441734D7A49 ADDRESS 0x4C PUSH11 0x597A4E7941784E6A6B754E PUSH11 0x417749454D674D7A49304C PUSH11 0x49354E5341784E6A6B754E PUSH11 0x41774C444D794D79347A4D PUSH27 0x67674D5459354C6A4D314D53777A4D6A49754E544134494445324F MSTORE8 CALLVALUE PUSH24 0x4E4463675179417A4D6A45754E6A6335494445324F433433 0x4E PREVRANDAO 0x49 PUSH20 0x4D7A45354C6A59774E5341784E6A67754D446379 0x4C PREVRANDAO 0x4D PUSH25 0x4E7934354D4441674D5459334C6A55314F43424449444D784E PUSH10 0x34784F5455674D545933 0x4C PUSH11 0x41304D79777A4D5451754F PREVRANDAO COINBASE PUSH24 0x494445324E6934314D4463734D7A45304C6A67774D434178 0x4E PUSH11 0x59754D7A593249454D674D PUSH27 0x45304C6A67774D4341784E6A59754D6A49314C444D784D7934334E PUSH11 0x55674D5459314C6A6B344F MSTORE8 PUSH24 0x7A4D5449754E544177494445324E5334344E444967517941 PUSH27 0x4D5441754E445535494445324E5334324D4451734D7A41354C6A41 PUSH27 0x4F4341784E6A55754D6A63784C444D774E4334324D4441674D5459 PUSH27 0x4C6A6B354D69424449444D774D7934354E4441674D54597A4C6A67 PUSH24 0x4D53777A4D4449754D445577494445324D7934314D6A4973 0x4D PUSH27 0x41774C6A51774D4341784E6A4D754D7A637849454D674D6A6B344C PUSH11 0x63314D4341784E6A4D754D PUSH11 0x49774C4449354E7934774E PUSH27 0x63674D5459794C6A6B794F5377794F5459754E6A677A494445324D PUSH10 0x34334D6A556751794179 0x4F SLOAD MSIZE PUSH22 0x4D6A6735494445324D6934314D6A45734D6A6B304C6A 0x4D CALLDATALOAD 0x4F MSTORE8 COINBASE PUSH25 0x4E6A49754D446B354C4449354D6934304F444D674D5459784C PUSH11 0x63344E794244494449354D NUMBER CALLVALUE BALANCE 0x4E PUSH11 0x63674D5459784C6A51334E PUSH10 0x77794F4467754E544131 0x49 PREVRANDAO GASLIMIT ORIGIN 0x4D MSTORE8 CALLVALUE PUSH25 0x4D4455734D6A67334C6A6B774D4341784E6A41754F54593049 GASLIMIT 0x4D PUSH8 0x4D6A67334C6A4935 0x4E MSTORE8 COINBASE PUSH25 0x4E6A41754F4449794C4449344E6934344D4445674D5459774C PUSH11 0x67324D7977794F4459754F PREVRANDAO COINBASE PUSH25 0x494445324D5334774E544D675454497A4E4334354E6A6B674D SLOAD MSIZE CALLVALUE 0x4C PUSH11 0x55344D7942444944497A4E NUMBER CALLVALUE ORIGIN 0x4E PUSH11 0x59674D5459354C6A63344F NUMBER PUSH24 0x794D7A55754D444935494445334D4334354E544D734D6A4D BALANCE 0x4C PUSH11 0x55354E7941784E7A41754E PUSH11 0x417949454D674D6A4D324C PUSH11 0x45784D6941784E7A41754D PUSH11 0x677A4C44497A4E6934784D PUSH11 0x51674D5459344C6A45794E NUMBER PUSH24 0x794D7A55754E6A4579494445324E7934344D446367517941 PUSH26 0x4D7A55754D7A6B34494445324E7934324E7A55734D6A4D314C6A GASLIMIT PUSH24 0x4F5341784E6A67754D4449304C44497A4E4334354E6A6B67 0x4D SLOAD MSIZE CALLVALUE 0x4C PUSH11 0x55344D79424E4D7A517A4C PUSH11 0x63774D4341784E7A45754D PUSH11 0x633249454D674D7A51784C PUSH11 0x67324E4341784E7A45754E PUSH11 0x63334C444D304D5334304D PUSH11 0x6B674D5463794C6A55334D MSTORE8 PUSH24 0x7A4E4449754F544177494445334D6934354D6A4567517941 PUSH27 0x4E444D754D7A6B31494445334D7934774D7A67734D7A51304C6A55 CALLVALUE 0x4D PUSH10 0x41784E7A4D754E444930 0x4C PREVRANDAO 0x4D ADDRESS 0x4E MSTORE8 CALLVALUE BALANCE 0x4D PUSH27 0x63674D54637A4C6A63334F43424449444D304E6934334E4449674D SLOAD PUSH4 0x304C6A49 PUSH26 0x4E43777A4E4467754D7A6B33494445334E43347A4F546B734D7A SSTORE PUSH24 0x4C6A6B7A4E7941784E7A51754D7A513349454D674D7A5579 0x4C PUSH11 0x6B314D6941784E7A51754D PUSH27 0x41314C444D314E6934334E6A41674D5463304C6A51344D43777A4E SLOAD PUSH12 0x754E444177494445334E4334 CALLER 0x4D PUSH27 0x51675179417A4E6A49754D445177494445334E4334354F4467734D PUSH27 0x59304C6A6B794D4341784E7A55754D5459354C444D324E5334344D PREVRANDAO COINBASE PUSH8 0x4D5463314C6A457A 0x4E PUSH10 0x424449444D324E693432 0x4F PREVRANDAO COINBASE PUSH8 0x4D5463314C6A4577 0x4D PUSH26 0x777A4E6A67754D7A6B77494445334E5334794F4445734D7A5935 0x4C PUSH11 0x59774D4341784E7A55754E SLOAD 0x4D PUSH26 0x49454D674D7A63774C6A67784D4341784E7A55754E7A677A4C44 0x4D CALLER 0x4D PUSH26 0x34304D5445674D5463324C6A45344E53777A4E7A55754D7A6777 0x49 PREVRANDAO GASLIMIT CALLER 0x4E PUSH10 0x34304D6A55675179417A 0x4E PUSH27 0x63754D7A5135494445334E6934324E6A55734D7A63354C6A51784F MSTORE8 COINBASE PUSH25 0x4E7A63754D446B304C444D334F5334354F4441674D5463334C PUSH11 0x4D334F43424449444D344D NUMBER CALLVALUE BALANCE 0x4E PREVRANDAO GASLIMIT PUSH8 0x4D5463334C6A5932 0x4D MSTORE8 PUSH24 0x7A4F4445754E6A5533494445334F4334774D5449734D7A67 PUSH26 0x4C6A51314F5341784E7A67754D54553349454D674D7A677A4C6A 0x49 ORIGIN 0x4D PUSH10 0x41784E7A67754D7A4179 0x4C PREVRANDAO 0x4D CALLVALUE 0x4E NUMBER CALLVALUE PUSH27 0x4E4455674D5463344C6A63314E69777A4F4451754F445932494445 CALLER 0x4F MSTORE8 CALLVALUE PUSH25 0x4E6A59675179417A4F4455754D7A6733494445334F5334314E PUSH27 0x55734D7A67324C6A51304D4341784F4441754D446B324C444D344E PUSH26 0x34794D4459674D5467774C6A4D794D79424449444D344F433435 0x4E PUSH27 0x45674D5467774C6A67304E53777A4F5445754D545930494445344D MSTORE8 CALLVALUE ORIGIN 0x4D SLOAD SSTORE PUSH20 0x4D7A6B794C6A49774F5341784F4449754D446335 0x49 GASLIMIT 0x4D PUSH8 0x4D7A6B794C6A5931 0x4E NUMBER COINBASE PUSH25 0x4F4449754D6A63324C444D354E4334784F4451674D5467794C PUSH11 0x63774E69777A4F5455754E PUSH11 0x4135494445344D7934774D PUSH27 0x4D675179417A4F5463754D444D30494445344D79347A4E6A41734D PUSH27 0x6B344C6A59774E5341784F444D754E7A4D794C444D354F5334784D PREVRANDAO COINBASE PUSH8 0x4D54677A4C6A6732 0x4D MSTORE8 TIMESTAMP PREVRANDAO 0x49 PREVRANDAO MLOAD PUSH24 0x4D4334334D7A4D674D5467304C6A49344D7977304D444175 0x4D SLOAD MSIZE PUSH27 0x494445344D6934334D5445734D7A6B344C6A49774F4341784F4445 PUSH22 0x4E44417749454D674D7A6B334C6A49794D7941784F44 COINBASE PUSH22 0x4E7A51774C444D354E6934304D5451674D5467774C6A COINBASE ORIGIN 0x4E MSTORE8 PUSH24 0x7A4F5459754E444135494445334F5334354D444167517941 PUSH27 0x4F5459754E444130494445334F5334334D7A55734D7A6B324C6A45 PUSH26 0x4E4341784E7A6B754E6A41774C444D354E5334334F4463674D54 PUSH4 0x354C6A59 PUSH24 0x4D43424449444D354E5334304E5445674D5463354C6A5977 0x4D NUMBER PUSH24 0x7A4F5455754D446378494445334F53347A4D7A41734D7A6B ADDRESS 0x4C PUSH11 0x6B304E5341784E7A6B754D PREVRANDAO COINBASE PUSH24 0x49454D674D7A6B304C6A67784F4341784E7A67754E6A6377 0x4C PREVRANDAO 0x4D CALLDATALOAD 0x4E NUMBER CALLVALUE PUSH27 0x4F5449674D5463344C6A51774D43777A4F544D754F546B35494445 CALLER 0x4F NUMBER CALLVALUE ADDRESS 0x4D PREVRANDAO COINBASE PUSH8 0x5179417A4F544D75 0x4E PUSH11 0x4131494445334F4334304D PREVRANDAO COINBASE PUSH20 0x4D7A6B784C6A6B314F5341784E7A63754F445978 0x4C PREVRANDAO 0x4D CALLDATALOAD 0x4D NUMBER CALLVALUE PUSH27 0x4E4445674D5463334C6A49774D53424449444D344F4334334D6A51 PUSH8 0x4D5463324C6A5530 0x4D PUSH10 0x777A4F4463754D6A4977 0x49 PREVRANDAO GASLIMIT CALLER 0x4E PUSH10 0x34774D4445734D7A6733 0x4C PUSH11 0x41774D4341784E7A55754F SLOAD PUSH12 0x3549454D674D7A67324C6A63 CALLVALUE 0x4D NUMBER COINBASE PUSH25 0x4E7A55754F546B334C444D344E6934774F4455674D5463314C PUSH11 0x63794E79777A4F4455754E PREVRANDAO SSTORE ORIGIN 0x49 PREVRANDAO GASLIMIT CALLER 0x4E MSTORE8 CALLVALUE PUSH27 0x4F546B675179417A4F444D754E544178494445334E43347A4E7A6B PUSH20 0x4D7A67774C6A63334D4341784E7A4D754E545133 0x4C PREVRANDAO 0x4D CALLER 0x4E PUSH10 0x34794D4441674D546379 0x4C PUSH11 0x55334F53424449444D334D PUSH26 0x34334F4441674D5463794C6A41324E79777A4E7A45754D446777 0x49 PREVRANDAO GASLIMIT CALLER 0x4D MSTORE8 CALLVALUE ADDRESS 0x4E PUSH11 0x41734D7A63774C6A49774D NUMBER COINBASE PUSH25 0x4E7A45754D6A4D7749454D674D7A59344C6A49794D4341784E PUSH27 0x41754E7A45304C444D304E6934784D4445674D5463774C6A63314D PUSH10 0x777A4E444D754E7A4177 0x49 PREVRANDAO GASLIMIT CALLER 0x4D MSTORE8 CALLVALUE PUSH26 0x4E7A5967545445304D6934774D4441674D5463794C6A41784D79 TIMESTAMP PREVRANDAO 0x49 PREVRANDAO GASLIMIT ADDRESS 0x4D PUSH10 0x34774D4441674D546379 0x4C PUSH11 0x49304D5377784E4449754E PUSH11 0x4D77494445334D6934334F SLOAD PUSH12 0x734D54517A4C6A51774D4341 PUSH25 0x4E7A4D754D6A557A49454D674D5451304C6A45334D4341784E PUSH27 0x4D754E7A41334C4445304E4334344D4441674D5463304C6A49304E PUSH10 0x77784E4451754F444177 0x49 PREVRANDAO GASLIMIT CALLER 0x4E NUMBER CALLVALUE ADDRESS 0x4E PREVRANDAO PUSH12 0x67517941784E4451754F4441 PUSH24 0x494445334E4334324E544D734D5451314C6A497A4F434178 0x4E PUSH27 0x51754F5467324C4445304E5334334E7A4D674D5463314C6A45354D NUMBER TIMESTAMP PREVRANDAO 0x49 PREVRANDAO GASLIMIT ADDRESS 0x4E PUSH10 0x347A4D4467674D546331 0x4C PUSH11 0x4D354D7977784E4463754D SLOAD SSTORE PUSH26 0x494445334E6934784D446B734D5451334C6A59304F4341784E7A MSIZE PUSH22 0x4E7A677749454D674D5451344C6A51774D5341784E7A PUSH4 0x754E7A6B CALLVALUE 0x4C PREVRANDAO GASLIMIT BALANCE 0x4D NUMBER CALLVALUE ADDRESS 0x4D PREVRANDAO COINBASE PUSH8 0x4D5463344C6A5531 0x4D PUSH26 0x77784E5441754E444177494445334E7934344D546B6751794178 0x4E SLOAD COINBASE PUSH22 0x4E444177494445334E7934784E6A41734D5451354C6A 0x4D CALLVALUE 0x4D NUMBER COINBASE PUSH25 0x4E7A55754E6A41774C4445304F4334354E5441674D5463314C PUSH11 0x59774D434244494445304F NUMBER CALLVALUE ORIGIN 0x4E PUSH11 0x4D674D5463314C6A59774D NUMBER PUSH24 0x784E4463754F444D33494445334E5334784D4455734D5451 CALLER 0x4C PUSH11 0x45784E4341784E7A51754E SLOAD COINBASE PUSH24 0x49454D674D54517A4C6A6B354D4341784E7A45754F446731 0x4C PREVRANDAO GASLIMIT ADDRESS 0x4D PUSH10 0x34774D4441674D546377 0x4C PUSH11 0x6B784E7977784E4449754D PREVRANDAO COINBASE PUSH24 0x494445334D6934774D544D67545449314F4334784D544167 0x4D SLOAD PUSH4 0x334C6A4D ADDRESS 0x4D NUMBER TIMESTAMP PREVRANDAO 0x49 PREVRANDAO 0x49 ADDRESS 0x4F MSTORE8 CALLVALUE ORIGIN 0x4D SLOAD MSIZE PUSH8 0x4D5467314C6A4D33 0x4D MSTORE8 PUSH24 0x794E4463754E446B7A494445344E7934794D7A51734D6A51 ORIGIN 0x4C PUSH11 0x497A4D6941784F4463754E PUSH27 0x597849454D674D6A517A4C6A55324E7941784F4467754F4463304C PREVRANDAO 0x49 ADDRESS 0x4D PUSH26 0x34774D7A45674D546B784C6A497A4F5377794E4455754D54677A 0x49 PREVRANDAO GASLIMIT CALLDATALOAD 0x4D PUSH10 0x347A4F54456751794179 0x4E PREVRANDAO MSIZE PUSH22 0x4E7A677A494445354D7934794E4463734D6A51354C6A SSTORE PUSH24 0x4D4341784F5445754E44557A4C4449314E5334344D444167 0x4D SLOAD PUSH8 0x314C6A4D344D4342 PREVRANDAO 0x49 PREVRANDAO 0x49 BALANCE 0x4F NUMBER CALLVALUE ADDRESS 0x4E PREVRANDAO COINBASE PUSH8 0x4D5467794C6A677A 0x4E PUSH10 0x77794E6A45754E445531 0x49 PREVRANDAO GASLIMIT CALLER 0x4F MSTORE8 CALLVALUE CALLDATALOAD 0x4E PREVRANDAO GASLIMIT PUSH20 0x4D6A59794C6A55774D4341784E7A67754F545133 0x49 GASLIMIT 0x4D PUSH8 0x4D6A59304C6A5530 0x4E PUSH26 0x41784E7A63754D4441794C4449324E4334344D5463674D546332 0x4C PUSH11 0x45774D6977794E6A4D754E PUSH11 0x5935494445334E5334774E PUSH11 0x4967517941794E6A49754D PUSH27 0x557A494445334D7934344E7A45734D6A59784C6A4D7A4F5341784E PUSH27 0x51754D6A67334C4449314F4334784D5441674D5463334C6A4D304D NUMBER TIMESTAMP 0x4E 0x4D PUSH27 0x63334C6A59784F5341784F4451754E44417A49454D674D7A63794C PUSH11 0x4D314F5341784F4455754D SLOAD PUSH12 0x334C444D334D7934344F5445 PUSH8 0x4D5467344C6A5930 0x4F MSTORE8 PUSH24 0x7A4E7A6B754F545578494445344F5334324E546367517941 PUSH27 0x4F4445754D546734494445344F5334344E6A4D734D7A677A4C6A41 PUSH25 0x4D4341784F5441754D5459334C444D344E4334774D4441674D SLOAD PUSH12 0x774C6A4D7A4D69424449444D CALLVALUE 0x4E NUMBER CALLVALUE CALLDATALOAD 0x4F SLOAD COINBASE PUSH8 0x4D546B774C6A5135 0x4F NUMBER PUSH24 0x7A4F4459754D7A5177494445354D4334354D5467734D7A67 CALLER 0x4C PUSH11 0x41774D4341784F5445754D PUSH11 0x593249454D674D7A67354C PUSH11 0x41304D4341784F5449754D PUSH27 0x517A4C444D354D6934784D546B674D546B7A4C6A49774E43777A4F SLOAD 0x4D PUSH22 0x4F544977494445354D7934794D4449675179417A4F54 MLOAD PUSH22 0x4F445932494445354D7934794D4445734D7A6B324C6A GASLIMIT PUSH26 0x4E6941784F544D754E4451314C444D354E6934334D6A41674D54 PUSH12 0x7A4C6A63304E43424449444D CALLDATALOAD 0x4E PUSH26 0x347A4D5451674D546B304C6A41304D79777A4F5467754D6A6B31 0x49 PREVRANDAO GASLIMIT CALLDATALOAD 0x4E NUMBER CALLVALUE ADDRESS 0x4D PREVRANDAO MSIZE PUSH20 0x4D7A6B344C6A6B774D4341784F5451754E545578 0x49 GASLIMIT PUSH24 0x674E4441774C6A41774D4341784F5451754F444531494451 PUSH24 0x4D4334774D4441674D546B784C6A67314E43424449445177 0x4D NUMBER CALLVALUE PUSH24 0x4D4441674D5467344C6A49794E53777A4F546B754D7A637A 0x49 PREVRANDAO GASLIMIT CALLVALUE 0x4E PUSH26 0x34324D7A67734D7A6B314C6A41794D5341784F4463754D546731 0x49 GASLIMIT 0x4D PUSH8 0x4D7A6B794C6A457A 0x4E NUMBER COINBASE PUSH25 0x4F4459754F4467304C444D354D5334314E5467674D5467324C PUSH11 0x637A4F53777A4F446B754D PUSH27 0x417A494445344E5334334E4441675179417A4F4467754E546B7749 PREVRANDAO GASLIMIT CALLVALUE 0x4E MSTORE8 CALLVALUE ADDRESS 0x4D PUSH11 0x51734D7A67324C6A59784D NUMBER COINBASE PUSH25 0x4F4451754F546B794C444D344E4334354D444D674D5467304C PUSH11 0x63344D43424449444D344D PUSH26 0x34784F5463674D5467304C6A55324E79777A4F4445754D7A5577 0x49 PREVRANDAO GASLIMIT CALLVALUE 0x4E NUMBER CALLVALUE PUSH27 0x4D6A49734D7A67774C6A67774D4341784F4451754D6A4D3049454D PUSH8 0x4D7A67774C6A4931 0x4D NUMBER COINBASE PUSH25 0x4F4451754D5451324C444D334F4334344D546B674D5467304C PUSH11 0x49794D69777A4E7A63754E PUSH11 0x4535494445344E4334304D PREVRANDAO 0x4D PUSH8 0x545445784E433432 0x4E PREVRANDAO PUSH8 0x674D546B334C6A51 PUSH24 0x4F534244494445784D6934304F5445674D546B354C6A5532 0x4E PUSH10 0x77784D5455754D445131 0x49 PREVRANDAO 0x49 PUSH24 0x4D5334794E6A63734D5449794C6A51774D4341794D444975 0x4E SLOAD PUSH4 0x7849454D PUSH8 0x4D5449304C6A5135 0x4D NUMBER COINBASE PUSH26 0x4D4449754F5451794C4445794E7934304D4455674D6A417A4C6A SSTORE PUSH25 0x4E7977784D6A67754F446333494449774D7934344E446B6751 PUSH26 0x41784D7A45754D545979494449774E43347A4E6A55734D544D79 0x4C PUSH11 0x51344D5341794D4451754D PUSH27 0x67314C44457A4E7934344F446B674D6A417A4C6A6B344E43424449 PREVRANDAO GASLIMIT ADDRESS 0x4D PUSH10 0x347A4F4445674D6A417A 0x4C PUSH11 0x59314D5377784E4451754E PUSH11 0x5933494449774D7934324D PUSH27 0x59734D5451314C6A63304E6941794D444D754F544D3049454D674D SLOAD MLOAD ORIGIN 0x4C PUSH11 0x63304D5341794D4451754D PUSH11 0x41354C4445304E7934324D SLOAD PUSH4 0x674D6A41 ADDRESS 0x4C PUSH11 0x49794D6977784E4467754D PUSH11 0x6333494449774D7934354E PUSH27 0x4567517941784E446B754E444930494449774D7934314D7A55734D SLOAD MSIZE PUSH26 0x4C6A59344D6941794D444D754E4441334C4445324E7934304E44 MSIZE PUSH8 0x4D6A417A4C6A6334 0x4E PUSH26 0x4244494445324F5334784F4441674D6A417A4C6A6B794E537778 0x4E PUSH27 0x49754F545177494449774E4334774F5467734D5463314C6A67774D NUMBER COINBASE PUSH26 0x4D4451754D54637849454D674D5463344C6A59324D4341794D44 MLOAD PUSH22 0x4D6A51314C4445344D5334794E7A41674D6A41304C6A MLOAD PUSH25 0x4D5377784F4445754E6A4177494449774E4334314E44456751 PUSH26 0x41784F444D754D6A5532494449774E5334784F5451734D546730 0x4C PUSH11 0x55784F5341794D4449754D PUSH27 0x49354C4445344D7934794E6A41674D6A41774C6A63334E53424449 PREVRANDAO GASLIMIT CALLVALUE 0x4D PUSH10 0x347A4D6A55674D546B35 0x4C PUSH11 0x59794D4377784E7A67754F PREVRANDAO MLOAD BALANCE 0x49 PREVRANDAO GASLIMIT CALLDATALOAD 0x4F MSTORE8 CALLVALUE ADDRESS 0x4F PREVRANDAO SSTORE PUSH20 0x4D5463784C6A63784E7941794D4441754D7A4934 0x49 GASLIMIT 0x4D PUSH8 0x4D5459354C6A4D34 0x4E NUMBER COINBASE PUSH26 0x4D4441754E6A41304C4445324E5334354E5463674D6A41774C6A PUSH4 0x774E7977 PUSH25 0x4E6A4D754E7A4533494449774D4334314E6A6767517941784E PUSH11 0x41754D445579494449774D NUMBER CALLVALUE PUSH27 0x4E4441734D5455334C6A6B774D6941794D4441754D7A49324C4445 ADDRESS 0x4E NUMBER CALLVALUE PUSH24 0x4D4441674D6A41774C6A517A4E534244494445304D433433 0x4D SLOAD 0x49 PUSH8 0x4D6A41774C6A5132 0x4D MSTORE8 PUSH24 0x784D7A67754D544D78494449774D4334794F5451734D544D CALLER 0x4C PUSH11 0x51774D4341794D4441754D PREVRANDAO COINBASE CALLVALUE 0x49 GASLIMIT 0x4D PUSH8 0x4D544D324C6A6330 0x4D NUMBER COINBASE PUSH25 0x4F546B754E7A55774C44457A4E4334794D6A41674D546B354C PUSH11 0x51304F4377784D7A45754F PREVRANDAO COINBASE PUSH24 0x494445354F53347A4D7A6367517941784D6A67754F445979 0x49 PREVRANDAO GASLIMIT CALLDATALOAD 0x4F MSTORE8 CALLVALUE PUSH26 0x4D4449734D5449324C6A4D7A4E7941784F5467754F4449794C44 GASLIMIT PUSH26 0x4E4334794D4441674D546B344C6A45354D694244494445784F53 CALLVALUE CALLVALUE 0x4D PREVRANDAO COINBASE PUSH8 0x4D546B324C6A6735 0x4E PUSH10 0x77784D5455754E54457A 0x49 PREVRANDAO GASLIMIT CALLDATALOAD 0x4E PUSH10 0x34314E4451734D544530 0x4C PUSH11 0x59304F4341784F5463754E PREVRANDAO COINBASE CALLDATALOAD 0x49 GASLIMIT ADDRESS PUSH27 0x4E5459754D444177494449784D53347A4E4451675179417A4E5459 PUSH22 0x4D444177494449784D5334344E6A4D734D7A55324C6A MLOAD BALANCE 0x4D NUMBER COINBASE PUSH26 0x4D5449754F5455784C444D314E7934774D4441674D6A457A4C6A PUSH4 0x324D6942 PREVRANDAO 0x49 PREVRANDAO 0x4D BALANCE 0x4E PUSH26 0x34314E5441674D6A45304C6A55334D69777A4E5467754D444177 0x49 PREVRANDAO 0x49 PUSH25 0x4E53347A4D546B734D7A55344C6A41774D4341794D5455754E PREVRANDAO 0x49 PUSH24 0x49454D674D7A55344C6A41774D4341794D5455754E544979 0x4C PREVRANDAO 0x4D ORIGIN 0x4D NUMBER CALLVALUE ADDRESS 0x4E PREVRANDAO PUSH8 0x674D6A45344C6A41 CALLER 0x4F MSTORE8 PUSH24 0x7A4E6A4D754E445177494449794D5334784D444D67517941 PUSH27 0x4E6A59754E444D79494449794E4334784D6A59734D7A59354C6A55 BALANCE 0x4E PUSH10 0x41794D6A63754E546B77 0x4C PREVRANDAO 0x4D CALLER 0x4D NUMBER CALLVALUE PUSH27 0x4F4449674D6A49344C6A67774D43424449444D334D5334794D4463 PUSH8 0x4D6A4D774C6A4178 0x4D NUMBER PUSH24 0x7A4E7A49754E7A45324944497A4D6934794D6A4D734D7A63 PUSH27 0x4C6A637A4D7941794D7A4D754E7A453549454D674D7A63304C6A63 BALANCE 0x4D MSTORE8 COINBASE PUSH26 0x4D7A55754D6A45304C444D334E6934784D7A63674D6A4D324C6A PUSH12 0x774D79777A4E7A59754F4445 PUSH27 0x4944497A4E7934304E7A49675179417A4E7A63754E446B77494449 PUSH27 0x4F4334774E4449734D7A63344C6A63314E6941794D7A6B754E5445 CALLVALUE 0x4C PREVRANDAO 0x4D CALLER 0x4F MSTORE8 CALLVALUE ORIGIN 0x4D PUSH11 0x67674D6A51774C6A63314E NUMBER TIMESTAMP PREVRANDAO 0x49 PREVRANDAO 0x4D CALLVALUE 0x4D NUMBER CALLVALUE ADDRESS 0x4F SLOAD PUSH12 0x674D6A51784C6A6B344F5377 PUSH27 0x4F4445754F445178494449304D7934344D5441734D7A67794C6A59 PUSH24 0x4F5341794E4451754F44417749454D674D7A677A4C6A6332 0x4E NUMBER COINBASE PUSH26 0x4E4459754D6A67334C444D344E5334344E6A45674D6A51354C6A 0x49 PUSH25 0x4E79777A4F4463754D7A4177494449314D53347A4E54516751 PUSH26 0x417A4F4463754E445932494449314D5334314F546B734D7A6733 0x4C PUSH11 0x6B324D5341794E5449754E PUSH11 0x45774C444D344F4334304D PREVRANDAO GASLIMIT PUSH8 0x4D6A557A4C6A5977 0x4D NUMBER TIMESTAMP PREVRANDAO 0x49 PREVRANDAO 0x4D CALLVALUE 0x4F NUMBER CALLVALUE CALLVALUE 0x4E PREVRANDAO GASLIMIT PUSH8 0x4D6A55304C6A5535 0x4D NUMBER PUSH24 0x7A4F446B754E6A5530494449314E6934784D6A41734D7A6B PUSH24 0x4C6A49774F4341794E5463754D44417749454D674D7A6B78 0x4C PUSH11 0x55334F5341794E546B754D SLOAD PUSH4 0x344C444D CALLDATALOAD 0x4E PUSH10 0x34774F5459674D6A5934 0x4C PUSH11 0x55794F53777A4F5459754F SLOAD PUSH8 0x32494449334D5334 PUSH24 0x4D7A45675179417A4F5463754D7A6730494449334D693478 0x4E PREVRANDAO PUSH12 0x734D7A6B344C6A49784F5341 PUSH26 0x4E7A4D754E6A63354C444D354F4334344E4451674D6A63304C6A MLOAD PUSH27 0x4D53424D49444D354F5334354E7A67674D6A63314C6A67774D4341 PUSH27 0x4F546B754F546735494449334D4334784D5449675179417A4F546B PUSH22 0x4F546B35494449324E4334354F5463734D7A6B354C6A PUSH12 0x784D7941794E6A51754D6A63 PUSH26 0x4C444D354F5334784D7A49674D6A59794C6A6B784D6942444944 0x4D CALLDATALOAD 0x4F NUMBER CALLVALUE ORIGIN 0x4E SLOAD SSTORE PUSH8 0x4D6A59794C6A4134 0x4D NUMBER PUSH24 0x7A4F5463754F544577494449324D4334324F4445734D7A6B CALLER 0x4C PUSH11 0x51334E6941794E546B754F PREVRANDAO COINBASE PUSH27 0x49454D674D7A6B334C6A41304D7941794E5467754F5449314C444D CALLDATALOAD 0x4E PUSH10 0x34794E6A4D674D6A5533 0x4C PUSH11 0x557A4D79777A4F5455754E PUSH27 0x5130494449314E6934334D5445675179417A4F5455754D6A493149 PREVRANDAO 0x49 BALANCE 0x4E MSTORE8 CALLVALUE CALLVALUE 0x4F PREVRANDAO PUSH12 0x734D7A6B304C6A67774D4341 PUSH26 0x4E5451754F5467794C444D354E4334344D4441674D6A55304C6A MSIZE CALLDATALOAD 0x4E PUSH26 0x424449444D354E4334344D4441674D6A55304C6A51784D53777A 0x4F SLOAD MLOAD PUSH22 0x4E445177494449314D7934344E7A41734D7A6B304C6A COINBASE PUSH24 0x4D4341794E544D754E446B7A49454D674D7A6B7A4C6A5532 0x4D NUMBER COINBASE PUSH26 0x4E544D754D5445324C444D354D7934794D4441674D6A55794C6A SSTORE BALANCE 0x4E MSTORE8 PUSH24 0x7A4F544D754D6A4177494449314D6934794E446367517941 PUSH27 0x4F544D754D6A4177494449314D5334354D7A67734D7A6B794C6A6B PUSH27 0x4D4341794E5445754E5467794C444D354D6934324D4441674D6A55 PUSH25 0x4C6A51314E53424449444D354D6934794E7A41674D6A55784C PUSH11 0x4D794F53777A4F5449754D PREVRANDAO COINBASE PUSH24 0x494449314D5334774D7A67734D7A6B794C6A41774D434179 0x4E SLOAD COINBASE PUSH22 0x4F44413549454D674D7A6B794C6A41774D4341794E54 COINBASE PUSH22 0x4E5467774C444D354D5334304E6A41674D6A51354C6A MSIZE ADDRESS 0x4F NUMBER PUSH24 0x7A4F5441754F444177494449304F4334334D7A6367517941 PUSH27 0x4F5441754D545177494449304E7934344D6A55734D7A67354C6A59 PUSH24 0x4D4341794E4459754F444D334C444D344F5334324D444167 0x4D PUSH11 0x51324C6A55304D43424449 PREVRANDAO 0x4D CALLVALUE 0x4F MSTORE8 CALLVALUE ORIGIN 0x4D PREVRANDAO COINBASE PUSH8 0x4D6A51324C6A4930 0x4D PUSH26 0x777A4F446B754E445177494449304E6934774D4441734D7A6735 0x4C PUSH11 0x49304E5341794E4459754D PREVRANDAO COINBASE PUSH24 0x49454D674D7A67354C6A41304F5341794E4459754D444177 0x4C PREVRANDAO 0x4D CALLVALUE 0x4F NUMBER CALLVALUE PUSH25 0x4D4451674D6A51304C6A677A4D53777A4F4463754D54513149 PREVRANDAO 0x49 ADDRESS 0x4D PUSH26 0x34304D4449675179417A4F4459754D546731494449304D533435 0x4E PUSH27 0x4D734D7A67314C6A49324E5341794E4441754F44417A4C444D344E MSTORE8 CALLVALUE PUSH25 0x4D4441674D6A51774C6A67774D69424449444D344E4334354D PUSH27 0x55674D6A51774C6A67774D53777A4F4451754F444177494449304D NUMBER CALLVALUE BALANCE 0x4E SLOAD PUSH8 0x734D7A67304C6A67 PUSH24 0x4D4341794E4441754D6A597849454D674D7A67304C6A6777 0x4D NUMBER COINBASE PUSH26 0x4D7A6B754F5459314C444D344E4334304F4455674D6A4D354C6A 0x4D BALANCE 0x4D PUSH10 0x777A4F4451754D544177 0x49 PREVRANDAO 0x49 PUSH27 0x4F4334344F546B675179417A4F444D754E7A45314944497A4F4334 ADDRESS 0x4E PREVRANDAO SSTORE PUSH20 0x4D7A677A4C6A457A4D4341794D7A63754E6A6332 0x4C PREVRANDAO 0x4D CALLVALUE 0x4D PUSH10 0x34344D4441674D6A4D33 0x4C PUSH11 0x45344F43424449444D344D NUMBER CALLVALUE ADDRESS 0x4D PUSH11 0x55674D6A4D7A4C6A59334E PUSH10 0x777A4E7A63754D6A6B77 0x49 PREVRANDAO 0x49 PUSH27 0x4D4334774D6A55734D7A63774C6A51304F5341794D6A49754F4441 PUSH26 0x49454D674D7A55344C6A6B334F4341794D5441754E6A6B794C44 0x4D BALANCE 0x4E PUSH10 0x34774D4441674D6A4134 0x4C PUSH11 0x4D7A4D43777A4E5459754D PREVRANDAO COINBASE PUSH24 0x494449784D53347A4E445167545451754F44417749444930 0x4F NUMBER CALLVALUE PUSH26 0x4D6A5567517941304C6A417A4D4341794E4467754E5445324C44 0x49 PUSH22 0x4F445578494449304F4334334E6A55734D6934784F44 COINBASE PUSH8 0x4D6A51344C6A6333 0x4E PUSH26 0x4244494441754E6A417A494449304F4334344D4463734C544175 0x4D PREVRANDAO COINBASE PUSH24 0x494449304F5334304E4451734C5441754D44417749444931 0x4D MSTORE8 CALLVALUE PUSH24 0x4F444167517941774C6A41774D4341794E5449754E6A4D33 0x4C PREVRANDAO COINBASE PUSH22 0x4E7A517A494449314D6934334F544D734D7934784D54 0x4D PUSH8 0x4D6A55784C6A637A 0x4E PUSH26 0x424449444D754F544D78494449314D53347A4E7A4D734E533431 0x4D PREVRANDAO COINBASE PUSH8 0x4D6A55774C6A6B32 0x4F NUMBER PUSH24 0x324C6A59774D4341794E5441754F444D3349454D674F4334 BALANCE 0x4E PUSH27 0x4D674D6A55774C6A59774D7977344C6A59774D6941794E5441754E SLOAD PUSH8 0x774C4467754E7A49 ADDRESS 0x49 PREVRANDAO 0x49 ADDRESS 0x4F MSTORE8 CALLVALUE PUSH25 0x4D444167517941344C6A67324E6941794E4463754D7A67354C PREVRANDAO PUSH4 0x754E6A6B CALLVALUE 0x49 PREVRANDAO 0x49 ADDRESS 0x4E PUSH26 0x34784D6A6B734E4334344D4441674D6A51344C6A49794E53424E 0x4D PUSH27 0x6B314C6A41794E79417A4D7A45754D44417749454D674D7A6B304C PUSH11 0x45324D69417A4D7A45754E PUSH27 0x63774C444D354D79347A4D4463674D7A4D794C6A51774D43777A4F SLOAD 0x4D PUSH22 0x4D54493349444D7A4D6934304D4441675179417A4F54 0x49 PUSH22 0x4F54513349444D7A4D6934304D4441734D7A6B794C6A PUSH8 0x774D43417A4D7A49 PUSH22 0x4E5467774C444D354D6934344D4441674D7A4D794C6A PUSH8 0x774D43424449444D CALLDATALOAD 0x4D PUSH10 0x34344D4441674D7A4D7A 0x4C PUSH11 0x41794D43777A4F5449754F SLOAD SSTORE PUSH24 0x49444D7A4D7934794D4441734D7A6B7A4C6A457A4E43417A 0x4D PUSH27 0x4D754D6A417749454D674D7A6B7A4C6A597A4E53417A4D7A4D754D PUSH11 0x41774C444D354E7934794D PREVRANDAO COINBASE PUSH8 0x4D7A4D774C6A4D30 0x4E PUSH26 0x777A4F5463754D6A417749444D794F5334354E4459675179417A 0x4F SLOAD PUSH4 0x754D6A41 PUSH24 0x49444D794F53347A4D4459734D7A6B324C6A59774F53417A 0x4D PUSH11 0x6B754E546B794C444D354E MSTORE8 CALLVALUE PUSH24 0x4D6A63674D7A4D784C6A41774D43424E4D7A6B304C6A6777 0x4D NUMBER COINBASE PUSH27 0x4D7A63754E6A417749454D674D7A6B304C6A4D784E53417A4D7A63 PUSH22 0x4F5445304C444D354E43347A4E7A49674D7A4D334C6A PUSH12 0x344F53777A4F5455754D5441 PUSH24 0x49444D7A4E7934354F5451675179417A4F5455754E546B31 0x49 PREVRANDAO 0x4D PUSH27 0x4E7934354F5463734D7A6B324C6A41774D43417A4D7A63754F4449 PUSH24 0x4C444D354E6934774D4441674D7A4D334C6A59774D434244 0x49 PREVRANDAO 0x4D CALLDATALOAD 0x4E PUSH10 0x34774D4441674D7A4D33 0x4C PUSH11 0x41354F53777A4F5455754E SLOAD PUSH4 0x3249444D PUSH27 0x4E7934774F546B734D7A6B304C6A67774D43417A4D7A63754E6A41 PUSH24 0x4945307A4F4455754D7A417749444D7A4E7934344E7A5967 MLOAD PUSH26 0x417A4F4455754E6A673149444D7A4E7934354E7A59734D7A6732 0x4C PUSH11 0x4D784E53417A4D7A63754F SLOAD PUSH4 0x324C444D CALLVALUE 0x4E PUSH10 0x34334D4441674D7A4D33 0x4C PUSH11 0x67334E69424449444D344E PUSH26 0x34774F4455674D7A4D334C6A63334E53777A4F4459754E7A6377 0x49 PREVRANDAO 0x4D PUSH27 0x4E7934324F544D734D7A67324C6A41774D43417A4D7A63754E6A6B PUSH27 0x49454D674D7A67314C6A497A4D43417A4D7A63754E6A6B7A4C444D CALLVALUE 0x4E NUMBER CALLVALUE CALLDATALOAD 0x4D SLOAD SSTORE PUSH8 0x4D7A4D334C6A6333 0x4E MSTORE8 PUSH24 0x7A4F4455754D7A417749444D7A4E7934344E7A596754544D CALLDATALOAD 0x4D NUMBER CALLVALUE ORIGIN 0x4E PUSH27 0x49674D7A51774C6A55774D43424449444D354D4334774E6A49674D PUSH27 0x51784C6A45774E53777A4F446B754D7A6B3449444D304D5334324D PREVRANDAO COINBASE PUSH20 0x4D7A67354C6A45354E53417A4E4445754E6A4177 0x49 GASLIMIT 0x4D PUSH8 0x4D7A67344C6A4D34 0x4D PUSH26 0x417A4E4445754E6A41774C444D344E5334354F5451674D7A5179 0x4C PUSH11 0x6B344D79777A4F4459754D SLOAD 0x49 ADDRESS 0x49 PREVRANDAO 0x4D ADDRESS 0x4D PUSH26 0x347A4E7A67675179417A4F4459754D7A517949444D304E433477 0x4E PREVRANDAO COINBASE PUSH20 0x4D7A67334C6A63774D69417A4E4451754D445978 0x4C PREVRANDAO 0x4D CALLVALUE 0x4F NUMBER CALLVALUE CALLVALUE 0x4D PREVRANDAO COINBASE PUSH8 0x4D7A517A4C6A5178 0x4F MSTORE8 TIMESTAMP PREVRANDAO 0x49 PREVRANDAO 0x4D CALLVALUE 0x4F MSTORE8 CALLVALUE PUSH27 0x4E5441674D7A517A4C6A41354F43777A4F5441754D6A457749444D ADDRESS 0x4D PUSH10 0x34324E446B734D7A6B77 0x4C PUSH11 0x63784D43417A4E4449754E PREVRANDAO 0x49 PUSH27 0x49454D674D7A6B784C6A637A4D79417A4E4445754F5459784C444D CALLDATALOAD 0x4D PUSH10 0x34784D7A63674D7A5178 0x4C PUSH11 0x45354E53777A4F5445754F SLOAD 0x49 ADDRESS 0x49 PREVRANDAO 0x4D ADDRESS 0x4D NUMBER CALLVALUE PUSH25 0x4D6A4D675179417A4F5445754E7A6B3349444D7A4F5334304F PREVRANDAO MSIZE PUSH20 0x4D7A6B784C6A59304F43417A4D7A6B754E544D78 0x4C PREVRANDAO 0x4D CALLDATALOAD 0x4D NUMBER CALLVALUE ORIGIN 0x4E PUSH27 0x49674D7A51774C6A55774D43416949484E30636D39725A54306962 PUSH14 0x39755A5349675A6D6C7362433179 PUSH5 0x57786C5053 0x4A PUSH13 0x646D56756232526B4969427A64 BASEFEE PUSH13 0x735A5430695A6D6C7362446F67 PUSH4 0x6D64694B PREVRANDAO GASLIMIT CALLER 0x4E PUSH10 0x77674D6A41354C434178 0x4E PREVRANDAO 0x4D PUSH17 0x4F79497650676F67494341675048426864 SELFBALANCE PUSH8 0x6761575139496E42 PUSH9 0x644767304969426B50 MSTORE8 0x4A 0x4E 0x4D SLOAD PUSH8 0x314C6A55774D4341 PUSH27 0x4E7934774E7A4567517941784F4451754E54513049444D334C6A45 CALLVALUE 0x4E NUMBER PUSH24 0x784F4451754D44417749444D334C6A51314E7977784F4451 PUSH22 0x4D44417749444D334C6A67794E434244494445344E43 CALLVALUE PUSH24 0x4D4441674D7A67754D6A45334C4445344D7934314E544167 0x4D PUSH27 0x67754E4441774C4445344D6934314F4463674D7A67754E44417749 GASLIMIT 0x4D PUSH8 0x4D5467784C6A6377 0x4D MSTORE8 COINBASE PUSH27 0x4F4334304D4441734D5467784C6A41344F53417A4F4334324D6A4D PUSH20 0x4D5467774C6A6B304E53417A4F5334774D444167 MLOAD PUSH26 0x41784F4441754F44453449444D354C6A4D7A4D4377784F444175 0x4E PREVRANDAO GASLIMIT ADDRESS 0x49 PREVRANDAO 0x4D CALLDATALOAD 0x4C PUSH11 0x59774D4377784F4441754D PREVRANDAO MLOAD ORIGIN 0x49 PREVRANDAO 0x4D CALLDATALOAD 0x4C PUSH11 0x59774D434244494445334F MSTORE8 CALLVALUE ORIGIN 0x4E PUSH27 0x6B674D7A6B754E6A41774C4445334F5334774E7A41674D7A6B754F SLOAD MSIZE PUSH24 0x4C4445334F4334324F544D674E4441754E44417749454D67 0x4D SLOAD PUSH4 0x344C6A4D PUSH25 0x4E6941304D4334344E4441734D5463334C6A637A4E5341304D MSTORE8 CALLVALUE PUSH26 0x4D4441734D5463334C6A51774D6941304D5334794D4441675179 COINBASE PUSH25 0x4E7A59754E544533494451784C6A49774D4377784E7A41754E PREVRANDAO SSTORE PUSH24 0x494451334C6A55784D7977784E6A6B754E7A4D3149445135 0x4C PUSH11 0x45334F434244494445324F MSTORE8 CALLVALUE PUSH25 0x4E5445674E5441754E544D334C4445324F5334784D4467674E SLOAD COINBASE PUSH22 0x4E5459774C4445324F4334334E7A55674E446B754E7A COINBASE PUSH24 0x49454D674D5459344C6A55344D7941304F5334794D445573 0x4D SLOAD MSIZE CALLVALUE 0x4C PUSH11 0x49314D6941304F4334344D PREVRANDAO COINBASE PUSH20 0x4D5459344C6A41304D4341304F4334344D444167 MLOAD PUSH26 0x41784E6A63754F444934494451344C6A67774D4377784E6A6375 0x4E SLOAD MLOAD PUSH24 0x494451344C6A51304D4377784E6A63754E44417749445134 0x4C PUSH11 0x41774D434244494445324E PUSH26 0x34794E6A41674E4463754E5459774C4445324E6934344F446767 0x4E PREVRANDAO PUSH4 0x754D6A41 PUSH24 0x4C4445324E6934314E7A4D674E4463754D6A417749454D67 0x4D SLOAD MSIZE ORIGIN 0x4C PUSH11 0x49314F4341304E7934794D PREVRANDAO COINBASE PUSH20 0x4D5459324C6A41774D4341304E6934354D6A5173 0x4D SLOAD MSIZE ORIGIN 0x4C PUSH11 0x41774D4341304E6934314F PREVRANDAO PUSH4 0x67517941 PUSH25 0x4E6A59754D444177494451324C6A49314D5377784E6A55754E PUSH11 0x6731494451314C6A67314F MSTORE8 PUSH24 0x784E6A55754D7A4177494451314C6A63784E794244494445 ORIGIN 0x4E NUMBER CALLVALUE CALLDATALOAD 0x4D SLOAD SSTORE PUSH8 0x4E4455754E546331 0x4C PREVRANDAO GASLIMIT ORIGIN 0x4E NUMBER CALLVALUE PUSH24 0x4E444D674E4455754D4451784C4445324D79347A4E6A4967 0x4E PREVRANDAO MLOAD PUSH22 0x4E54493549454D674D5459794C6A59344D5341304E43 CALLVALUE PUSH24 0x4D5467734D5459784C6A6B784E6941304D7934324D444173 0x4D SLOAD MSIZE PUSH25 0x4C6A59324D6941304D7934324D444167517941784E6A45754E PREVRANDAO COINBASE CALLVALUE 0x49 PREVRANDAO MLOAD PUSH27 0x4C6A59774D4377784E6A45754D6A41774944517A4C6A4D324E7977 PUSH25 0x4E6A45754D6A41774944517A4C6A41344D794244494445324D MSTORE8 CALLVALUE PUSH26 0x4D4441674E4449754E7A6B354C4445324D4334784D6A67674E44 0x49 PUSH22 0x4D4463304C4445314F4334344D5463674E4445754E44 PUSH4 0x7A49454D PUSH8 0x4D5455334C6A5577 0x4E PUSH10 0x41304D4334344E7A4573 0x4D SLOAD SSTORE ORIGIN 0x4C PUSH11 0x4D794E6941304D4334794D PREVRANDAO MLOAD PUSH20 0x4D5455324C6A45354D79417A4F5334354F446B67 MLOAD PUSH26 0x41784E5459754D44597849444D354C6A63334E5377784E545575 0x4E PREVRANDAO 0x4D CALLVALUE 0x49 PREVRANDAO 0x4D CALLDATALOAD 0x4C PUSH11 0x59774D4377784E5451754F PREVRANDAO GASLIMIT PUSH24 0x49444D354C6A59774D434244494445314E4334784F444567 0x4D PUSH27 0x6B754E6A41774C4445314D7934314F5449674D7A6B754D7A63314C PREVRANDAO GASLIMIT BALANCE 0x4D PUSH26 0x34314D4445674D7A6B754D54417749454D674D54557A4C6A4979 0x4E MSTORE8 COINBASE PUSH27 0x4F4334794E7A45734D54517A4C6A6B774E43417A4F4334784E544D PUSH20 0x4D54517A4C6A41344F53417A4F4334354E6A6767 MLOAD PUSH26 0x41784E4449754E7A517949444D354C6A4D784E6977784E444975 0x4D PREVRANDAO PUSH4 0x3349444D CALLDATALOAD 0x4C PUSH11 0x59774D4377784E4445754E PUSH11 0x457A49444D354C6A59774D NUMBER TIMESTAMP PREVRANDAO 0x49 PREVRANDAO GASLIMIT ADDRESS 0x4D MSTORE8 CALLVALUE PUSH25 0x4E4467674D7A6B754E6A41774C4445304D4334784D4441674D PUSH27 0x6B754F544D314C44457A4F5334794F4451674E4441754D7A513049 GASLIMIT 0x4D PUSH8 0x4D544D344C6A5132 0x4F NUMBER COINBASE ADDRESS 0x4D NUMBER CALLVALUE CALLER 0x4E SLOAD MLOAD PUSH20 0x4D544D334C6A55334E5341304D5334774D446B73 0x4D SLOAD 0x4D CALLER 0x4C PUSH11 0x4D774D4341304D4334354D SLOAD GASLIMIT PUSH8 0x517941784D7A6375 0x4D PREVRANDAO 0x49 BALANCE 0x49 PREVRANDAO MLOAD PUSH24 0x4C6A67784D7977784D7A59754F444177494451774C6A6B35 0x4E PUSH10 0x77784D7A59754F444177 0x49 PREVRANDAO MLOAD PUSH25 0x4C6A4D784E7942444944457A4E6934344D4441674E4445754E PUSH11 0x51314C44457A4E6934794E PUSH27 0x51674E4449754D4441314C44457A4E5334314F5463674E4449754D SLOAD MLOAD PUSH25 0x49454D674D544D304C6A6B7A4E5341304D6934794E7A4D734D SLOAD 0x4D ADDRESS 0x4C PUSH11 0x51304D4341304D6934324D PREVRANDAO MSIZE PUSH20 0x4D544D304C6A51354E7941304D6934344F444567 MLOAD PUSH26 0x41784D7A51754E5455304944517A4C6A45314E6977784D7A5175 0x4D PUSH11 0x45324944517A4C6A51304D NUMBER PUSH24 0x784D7A4D754E7A51334944517A4C6A55784D694244494445 PUSH27 0x4D7934794E7A67674E444D754E5467304C44457A4D6934304D6A45 PUSH8 0x4E4451754D546330 0x4C PREVRANDAO GASLIMIT PUSH27 0x4D5334344E4451674E4451754F44497949454D674D544D784C6A49 ORIGIN 0x4E PUSH10 0x41304E5334304E7A4173 0x4D SLOAD 0x4D PUSH24 0x4C6A59784E5341304E6934774D4441734D544D774C6A4D35 0x4E PUSH26 0x41304E6934774D444167517941784D7A41754D54633549445132 0x4C PUSH11 0x41774D4377784D7A41754D PREVRANDAO COINBASE PUSH24 0x494451324C6A49334D4377784D7A41754D44417749445132 0x4C PUSH11 0x59774D4342444944457A4D NUMBER CALLVALUE PUSH24 0x4D4441674E4459754F544D774C4445794F5334334E7A5567 0x4E PREVRANDAO PUSH4 0x754D6A41 CALLVALUE 0x4C PREVRANDAO GASLIMIT PUSH26 0x4F5334314D4441674E4463754D6A453449454D674D5449354C6A 0x49 PUSH26 0x4E5341304E7934794D6A6B734D5449344C6A59304D4341304E79 CALLVALUE CALLER 0x4D PREVRANDAO 0x4D PUSH20 0x4D5449344C6A49774D4341304F4334794E7A4D67 MLOAD PUSH26 0x41784D6A63754E7A5977494451344C6A67304D7977784D6A5975 0x4F PREVRANDAO GASLIMIT BALANCE 0x49 PREVRANDAO MLOAD CALLDATALOAD 0x4C PUSH11 0x6B794D5377784D6A59754D SLOAD COINBASE PUSH24 0x494455774C6A59324F434244494445794E53347A4F445567 0x4E SLOAD GASLIMIT PUSH22 0x4E4445314C4445794E4334344D4441674E5449754D6A PUSH8 0x784C4445794E4334 CALLVALUE 0x4D PREVRANDAO COINBASE PUSH8 0x4E5449754E546B7A 0x49 GASLIMIT 0x4D PUSH8 0x4D5449304C6A6777 0x4D NUMBER COINBASE BALANCE 0x4D PUSH10 0x34354D4451734D544930 0x4C PUSH11 0x4D314D4341314D7934324E PREVRANDAO MLOAD PUSH20 0x4D54497A4C6A67774D4341314E4334794D7A6767 MLOAD PUSH26 0x41784D6A4D754D6A5577494455304C6A677A4D5377784D6A4975 0x4F PREVRANDAO COINBASE PUSH24 0x494455314C6A55304F4377784D6A49754F44417749445531 0x4C PUSH11 0x677A4D434244494445794D PUSH10 0x34344D4441674E545975 0x4D SLOAD GASLIMIT PUSH26 0x4C4445794D6934304F4459674E5459754E6A55334C4445794D69 CALLVALUE PUSH25 0x4D444D674E5463754D44517749454D674D5449784C6A4D7A4E MSTORE8 COINBASE BALANCE 0x4E PUSH26 0x34344D4467734D5449774C6A63314D4341314F4334334E544973 0x4D SLOAD GASLIMIT CALLDATALOAD 0x4C PUSH11 0x67324E5341324D4334324E SLOAD GASLIMIT PUSH8 0x517941784D546B75 0x4E SLOAD MLOAD ADDRESS 0x49 PREVRANDAO MSIZE PUSH25 0x4C6A4D7A4F5377784D546B754D44677A494459794C6A41794E MSTORE8 PUSH24 0x784D5467754F445178494459794C6A45334E534244494445 PUSH25 0x4F4334314F5467674E6A49754D7A49314C4445784F4334304D PREVRANDAO COINBASE PUSH8 0x4E6A49754F446733 0x4C PREVRANDAO GASLIMIT PUSH25 0x4F4334304D4441674E6A4D754E44493049454D674D5445344C PUSH11 0x51774D4341324D7934354E PUSH11 0x45734D5445344C6A49794D NUMBER COINBASE ORIGIN 0x4E NUMBER CALLVALUE ADDRESS 0x4D PREVRANDAO COINBASE PUSH20 0x4D5445344C6A41774D4341324E4334304D444167 MLOAD PUSH26 0x41784D5463754E7A6777494459304C6A51774D4377784D546375 0x4E PUSH11 0x4534494459304C6A6B344E MSTORE8 PUSH24 0x784D5463754E6A5177494459314C6A63774D434244494445 PUSH25 0x4E7934324E7A41674E6A59754E6A67334C4445784E7934334E PREVRANDAO 0x4D PUSH8 0x4E6A59754F444134 0x4C PREVRANDAO GASLIMIT PUSH25 0x4E7934354E4449674E6A59754D6A417749454D674D5445344C PUSH11 0x517A4E7941324E4334324F SLOAD GASLIMIT PUSH20 0x4D5449774C6A55354D4341324D4334314F546773 0x4D SLOAD 0x49 PUSH26 0x4C6A49354E5341314E7934354D7A4167517941784D6A4D754D6A 0x4D PUSH27 0x494455324C6A51324D5377784D6A51754D444177494455314C6A45 PUSH24 0x4F4377784D6A51754D444177494455304C6A6B794D794244 0x49 PREVRANDAO GASLIMIT PUSH26 0x4E4334774D4441674E5451754E7A4D344C4445794E4334344D54 COINBASE PUSH8 0x4E544D754E6A5977 0x4C PREVRANDAO GASLIMIT PUSH26 0x4E5334344D4441674E5449754E54493549454D674D5449324C6A PUSH4 0x354D4341 BALANCE 0x4D MSTORE8 CALLVALUE PUSH27 0x4F5463734D5449334C6A59774D4341314D43347A4D5451734D5449 CALLER 0x4C PUSH11 0x59774D4341314D4334784D PUSH11 0x4D67517941784D6A63754E PUSH11 0x4177494451344C6A677A4E MSTORE8 PUSH24 0x784D7A59754D446B32494451794C6A45304E6977784D7A67 PUSH22 0x4F446B30494451784C6A497A4D5342444944457A4F53 CALLVALUE CALLER 0x4D SLOAD MSIZE PUSH8 0x4E4441754F545979 0x4C PREVRANDAO GASLIMIT ADDRESS 0x4D NUMBER CALLVALUE ADDRESS 0x4F SLOAD 0x49 PUSH8 0x4E4441754E546331 0x4C PREVRANDAO GASLIMIT ADDRESS 0x4D NUMBER CALLVALUE ORIGIN 0x4D SLOAD PUSH8 0x674E4441754D7A63 PUSH25 0x49454D674D5451774C6A63304E4341304D4334784E6A63734D SLOAD MLOAD PUSH25 0x4C6A4D304E5341304D4334774D4441734D5451784C6A6B314D PUSH10 0x41304D4334774D444167 MLOAD PUSH26 0x41784E4449754E545977494451774C6A41774D4377784E444D75 0x4F SLOAD COINBASE PUSH26 0x49444D354C6A63784D6977784E4451754F544D3149444D354C6A 0x4D ORIGIN 0x4D NUMBER TIMESTAMP PREVRANDAO 0x49 PREVRANDAO GASLIMIT ADDRESS 0x4F NUMBER CALLVALUE PUSH25 0x4E7A41674D7A67754D6A55344C4445314D7934784D7A49674D PUSH27 0x6B754D6A55784C4445314F4334314E7A63674E4449754D446B7749 GASLIMIT 0x4D PUSH8 0x4D5459774C6A4978 0x4D PUSH10 0x41304D6934354E444D73 0x4D SLOAD MSIZE PUSH24 0x4C6A4D794F5341304D7934774D6A55734D5459794C6A4179 0x4D MSTORE8 COINBASE ADDRESS 0x4E NUMBER CALLVALUE BALANCE 0x4D PREVRANDAO MSIZE PUSH8 0x517941784E6A4975 0x4E SLOAD PUSH8 0x79494451304C6A6B CALLDATALOAD 0x4F NUMBER PUSH24 0x784E6A4D754F446732494451314C6A6B7A4D4377784E6A51 PUSH22 0x4F544535494451324C6A55334F434244494445324E53 CALLVALUE CALLDATALOAD 0x4E SLOAD GASLIMIT PUSH8 0x4E4463754D6A4933 0x4C PREVRANDAO GASLIMIT ORIGIN 0x4E PUSH10 0x34344F5459674E446775 0x4D PREVRANDAO PUSH4 0x794C4445 ORIGIN 0x4E PUSH26 0x34774D5467674E4467754E44553449454D674D5459334C6A4530 0x4D MSTORE8 COINBASE ADDRESS 0x4F NUMBER CALLVALUE CALLVALUE 0x4E PREVRANDAO MLOAD PUSH20 0x4D5459334C6A63314F4341304F5334334D544D73 0x4D SLOAD MSIZE CALLVALUE 0x4C PUSH11 0x4D354D5341314D43347A4F SLOAD COINBASE PUSH8 0x517941784E6A6B75 0x4D PREVRANDAO 0x49 PUSH27 0x494455784C6A41324E7977784E6A6B754E6A4935494455784C6A67 ADDRESS 0x4D MSTORE8 PUSH24 0x784E6A6B754E7A4D35494455794C6A45784D434244494445 ORIGIN 0x4F MSTORE8 CALLVALUE CALLVALUE 0x4E PREVRANDAO PUSH8 0x674E5449754D7A67 PUSH24 0x4C4445324F5334354E5445674E5449754D4467334C444532 0x4F MSTORE8 CALLVALUE CALLDATALOAD 0x4E PUSH11 0x67674E5445754E44597749 GASLIMIT 0x4D PUSH8 0x4D5463774C6A4131 0x4E NUMBER COINBASE ADDRESS 0x4F NUMBER CALLVALUE PUSH27 0x4E5463734D5463334C6A6B7A4F4341304D4334774D4441734D5467 PUSH24 0x4C6A63334F5341304D4334774D444167517941784F444175 0x4F SLOAD SSTORE CALLER 0x49 PREVRANDAO MLOAD PUSH24 0x4C6A41774D4377784F4445754D7A493249444D354C6A637A 0x4D NUMBER PUSH24 0x784F4445754E6A417749444D354C6A51774D434244494445 CALLVALUE 0x4D MSTORE8 CALLVALUE CALLVALUE 0x4E PUSH27 0x51674D7A6B754D4463774C4445344D6934314E7A45674D7A67754E PUSH27 0x6B304C4445344D7934784E446B674D7A67754E7A673349454D674D SLOAD PUSH8 0x7A4C6A63794E7941 PUSH27 0x4F4334334F4441734D5467304C6A55304F53417A4F4334314D5441 PUSH20 0x4D5467304C6A6B334E69417A4F4334784F446367 MLOAD PUSH26 0x41784F4459754D54417A49444D334C6A4D7A4E6977784F545175 0x4E PREVRANDAO PUSH12 0x7849444D334C6A4D304E6977 PUSH25 0x4F5455754D6A417749444D344C6A49774D434244494445354E MSTORE8 CALLVALUE ADDRESS 0x4E PUSH27 0x51674D7A67754E544D774C4445354E5334354D6A51674D7A67754F PREVRANDAO COINBASE PUSH24 0x4C4445354E6934794D4441674D7A67754F44417749454D67 0x4D SLOAD PUSH12 0x324C6A51334E69417A4F4334 CALLVALUE 0x4D PREVRANDAO COINBASE PUSH20 0x4D546B324C6A6B794E69417A4F5334774E7A4173 0x4D SLOAD PUSH12 0x334C6A49774D43417A4F5334 ADDRESS 0x4D PREVRANDAO COINBASE PUSH8 0x517941784F546375 0x4E PREVRANDAO PUSH4 0x3049444D CALLDATALOAD 0x4C PUSH11 0x637A4D4377784F5467754D PREVRANDAO COINBASE CALLER 0x49 PREVRANDAO MLOAD PUSH24 0x4C6A41774D4377784F5467754D7A6732494451774C6A4177 0x4D NUMBER TIMESTAMP PREVRANDAO 0x49 PREVRANDAO 0x49 PUSH24 0x4D5334784F544D674E4441754D4441774C4449774F433434 0x4E PUSH27 0x41674E5449754D7A51774C4449784D4334334F5459674E546B754F SLOAD MLOAD CALLDATALOAD 0x49 GASLIMIT 0x4D PUSH8 0x4D6A45774C6A6B34 0x4E NUMBER COINBASE ORIGIN 0x4D NUMBER CALLVALUE ORIGIN 0x4F SLOAD GASLIMIT PUSH20 0x4D6A45784C6A4D7A4D6941324D5334304F544973 0x4D PUSH11 0x45784C6A55324F5341324D MSTORE8 CALLVALUE CALLER 0x4D PUSH11 0x6B67517941794D5445754F PREVRANDAO COINBASE ORIGIN 0x49 PREVRANDAO MSIZE PUSH25 0x4C6A6B324E6977794D5449754D444177494459794C6A59314D PUSH10 0x77794D5449754D444177 0x49 PREVRANDAO MSIZE PUSH27 0x4C6A49314E434244494449784D6934774D4441674E6A51754F4449 ADDRESS 0x4C PREVRANDAO 0x49 PUSH25 0x4D6934324F4451674E6A59754E4441774C4449784D79347A4E PUSH11 0x51674E6A59754E44417749 GASLIMIT 0x4D PUSH8 0x4D6A45304C6A4530 0x4D PUSH26 0x41324E6934304D4441734D6A45344C6A4D354E7941334D433433 0x4E PREVRANDAO PUSH12 0x734D6A45344C6A51784D7941 CALLER 0x4D MSTORE8 CALLVALUE BALANCE 0x4E PUSH11 0x4967517941794D5467754E PREVRANDAO 0x49 PUSH24 0x494463784C6A6B784D7977794D5467754E6A6B7749446379 0x4C PUSH11 0x55304F5377794D546B754D PREVRANDAO GASLIMIT PUSH27 0x494463794C6A6B334E694244494449784F5334334E5467674E7A4D PUSH22 0x4F5459794C4449784F5334334E6A67674E7A55754F54 PUSH8 0x794C4449784F5334 PUSH24 0x4D7A4D674E7A63754D444D7849454D674D6A45334C6A5130 0x4E MSTORE8 COINBASE CALLER 0x4F MSTORE8 CALLVALUE PUSH26 0x4F546B734D6A45334C6A63304E7941344D4334304E4467734D6A 0x49 PUSH24 0x4C6A59774E6941344D7934774D544967517941794D6A6B75 0x4F PREVRANDAO 0x4D BALANCE 0x49 PREVRANDAO PUSH12 0x784C6A49354D5377794D7A41 PUSH22 0x4E44557849446B784C6A6B334E6977794D7A45754D6A PUSH4 0x3149446B ADDRESS 0x4C PUSH11 0x67334D7942444944497A4D MSTORE8 CALLVALUE BALANCE 0x4E PREVRANDAO MSIZE PUSH8 0x4F5455754F44497A 0x4C PREVRANDAO 0x49 PUSH27 0x4D5334334E6A51674F5467754D6A45354C44497A4D5334334E6A45 PUSH8 0x4D5441774C6A4535 0x4F MSTORE8 TIMESTAMP PREVRANDAO 0x49 PREVRANDAO 0x49 PUSH27 0x4D5334334E5459674D54417A4C6A49314F4377794D7A45754F4459 CALLDATALOAD 0x49 PREVRANDAO GASLIMIT PUSH24 0x4D7934344F446B734D6A4D794C6A55784E6941784D445175 0x4E PREVRANDAO GASLIMIT ADDRESS 0x49 GASLIMIT 0x4D PUSH8 0x4D6A4D7A4C6A4D32 0x4E MSTORE8 COINBASE PUSH25 0x4D4455754D5441784C44497A4D7934314F4449674D5445304C PUSH11 0x55304D7977794D7A49754E PUSH27 0x6B33494445784E6934324D446767517941794D7A49754E54673549 PREVRANDAO GASLIMIT PUSH25 0x4E7934784E5451734D6A4D794C6A55314D4341784D5463754E PUSH11 0x41784C44497A4D6934334D SLOAD COINBASE PUSH8 0x4D5445334C6A5977 0x4D PUSH26 0x42444944497A4D79347A4F5467674D5445334C6A59774F537779 0x4D PUSH27 0x51754E54417A494445794D43347A4F446B734D6A4D304C6A59354E PUSH10 0x41784D6A49754E6A4177 0x49 GASLIMIT 0x4D PUSH8 0x4D6A4D304C6A6779 0x4E MSTORE8 COINBASE PUSH25 0x4D6A51754D4463314C44497A4E53347A4E4467674D5449314C PUSH11 0x6B774D6977794D7A59754D PREVRANDAO SSTORE PUSH27 0x494445794E79347A4E444567517941794D7A59754E6A6730494445 PUSH26 0x4F4334324D6A6B734D6A4D334C6A49774D4341784D7A41754D44 PUSH12 0x7A4C44497A4E7934794D4441 PUSH8 0x4D544D774C6A5535 0x4E MSTORE8 TIMESTAMP PREVRANDAO 0x49 PREVRANDAO 0x49 PUSH27 0x4E7934794D4441674D544D784C6A41354F4377794D7A63754E4459 CALLDATALOAD 0x49 PREVRANDAO GASLIMIT PUSH27 0x4D6934774D6A51734D6A4D334C6A63354F4341784D7A49754E6A55 ADDRESS 0x49 GASLIMIT 0x4D PUSH8 0x4D6A4D344C6A4579 0x4E PUSH10 0x41784D7A4D754D6A6730 0x4C PREVRANDAO 0x49 PUSH27 0x4F43347A4F5459674D544D304C6A517A4E5377794D7A67754D7A6B CALLVALUE 0x49 PREVRANDAO GASLIMIT PUSH27 0x4E5334794D544567517941794D7A67754E4441794944457A4E7934 BALANCE 0x4D PUSH11 0x67734D6A4D354C6A67774E NUMBER COINBASE PUSH25 0x4D7A6B754D5463314C4449304D5334344D4441674D544D354C PUSH11 0x49774E794244494449304D PUSH10 0x34304E6A41674D544D35 0x4C PUSH11 0x49784E7977794E444D754D PUSH27 0x51354944457A4F5334304F5441734D6A517A4C6A63334E6941784D PUSH27 0x6B754F44457A49454D674D6A51304C6A49774E4341784E4441754D SLOAD 0x4D ORIGIN 0x4C PREVRANDAO 0x49 ADDRESS 0x4E MSTORE8 CALLVALUE PUSH26 0x4D5459674D5451774C6A51774D4377794E4459754D4449334944 GASLIMIT ADDRESS 0x4D NUMBER CALLVALUE ADDRESS 0x4D PREVRANDAO COINBASE PUSH8 0x517941794E445975 0x4F PREVRANDAO SSTORE PUSH24 0x494445304D4334304D4441734D6A51334C6A63794D694178 0x4E PREVRANDAO COINBASE PUSH22 0x4E6A59314C4449304F4334774D4441674D5451784C6A COINBASE PUSH24 0x4D434244494449304F4334794E7A51674D5451784C6A4D7A 0x4D NUMBER PUSH24 0x794E4467754F544130494445304D5334324D4441734D6A51 CALLDATALOAD 0x4C PUSH11 0x51774D4341784E4445754E PUSH11 0x417749454D674D6A51354C PUSH11 0x67354E6941784E4445754E PUSH11 0x41774C4449314D4334314D PUSH11 0x59674D5451784C6A67334D NUMBER PUSH24 0x794E5441754F444177494445304D6934794D444167517941 PUSH26 0x4E5445754D446330494445304D6934314D7A41734D6A55784C6A MSIZE PUSH25 0x4E4341784E4449754F4441774C4449314D6934774D4441674D SLOAD MLOAD PUSH26 0x4C6A67774D434244494449314D69347A4F4459674D5451794C6A PUSH8 0x774D4377794E5449 PUSH22 0x4F544932494445304D7934774E7A41734D6A557A4C6A 0x49 PUSH24 0x4D4341784E444D754E44417749454D674D6A557A4C6A5133 0x4E NUMBER COINBASE PUSH25 0x4E444D754E7A4D774C4449314D7934354F5445674D5451304C PUSH11 0x41774D5377794E5451754D PUSH27 0x5135494445304E4334774D444967517941794E5451754E7A413349 PREVRANDAO GASLIMIT ADDRESS 0x4E NUMBER CALLVALUE PUSH24 0x4D4451734D6A55314C6A55784E6941784E4451754D6A6330 0x4C PREVRANDAO 0x49 BALANCE 0x4E PUSH10 0x34784E4459674D545130 0x4C PUSH11 0x59774D694244494449314E PUSH10 0x34334E7A59674D545130 0x4C PUSH11 0x6B7A4D5377794E5463754E PREVRANDAO PUSH8 0x79494445304E5334 PUSH26 0x4D4441734D6A55334C6A63784E6941784E4455754D6A41774945 0x4D PUSH8 0x4D6A55344C6A4534 0x4F NUMBER COINBASE PUSH25 0x4E4455754D6A41774C4449324D7934354D5441674D5451344C PUSH11 0x41774D7977794E6A59754E PUSH27 0x4177494445304F5334324D444567517941794E6A63754D44673149 PREVRANDAO GASLIMIT ADDRESS 0x4F MSTORE8 CALLVALUE CALLVALUE 0x4D PUSH11 0x45734D6A59334C6A63324D NUMBER COINBASE PUSH25 0x4E5441754D54597A4C4449324F4334794D4441674D5455774C PUSH11 0x4D324D534244494449324F NUMBER CALLVALUE ORIGIN 0x4E PREVRANDAO COINBASE PUSH8 0x4D5455774C6A5531 0x4F NUMBER PUSH24 0x794E6A6B754E6A677A494445314D5334784F4467734D6A63 PUSH24 0x4C6A55784F4341784E5445754E7A597749454D674D6A6378 0x4C PUSH11 0x4D314D7941784E5449754D PUSH27 0x4D794C4449334D6934794D7A63674D5455794C6A67774D4377794E PUSH27 0x49754E446730494445314D6934344D444167517941794E7A49754E PUSH27 0x4D78494445314D6934344D4441734D6A637A4C6A49784F4341784E SLOAD 0x4D PUSH22 0x4D4463794C4449334D7934314E6A59674D54557A4C6A MLOAD PUSH24 0x4E534244494449334D7934354D5455674D54557A4C6A637A 0x4E PUSH26 0x77794E7A55754D7A517A494445314E4334344D7A41734D6A6332 0x4C PUSH11 0x63304D5341784E5455754F PREVRANDAO 0x4D ADDRESS 0x49 GASLIMIT PUSH24 0x674D6A63354C6A49344D6941784E5463754E6A5535494449 CALLVALUE 0x4D PUSH26 0x34334E4445674D5455334C6A677A4D434244494449344E693478 0x4F SLOAD 0x4D PUSH8 0x4D5455334C6A6B79 0x4E MSTORE8 PUSH24 0x794F4467754E6A5577494445314F4334784D5463734D6A67 CALLDATALOAD 0x4C PUSH11 0x49774D4341784E5467754D PUSH11 0x553449454D674D6A67354C PUSH11 0x63314D4341784E5467754D PUSH27 0x6B354C4449354D5334774D5441674D5455344C6A55314D5377794F SLOAD 0x49 PUSH22 0x4D444177494445314F4334314F546367517941794F54 MSIZE PUSH22 0x4E445133494445314F4334344D444D734D7A417A4C6A 0x49 PUSH25 0x4F4341784E546B754E5467784C444D774D7934354E4463674D SLOAD SSTORE CALLDATALOAD 0x4C PUSH11 0x6B334D53424449444D774E NUMBER CALLVALUE PUSH27 0x4F4463674D5459774C6A49774E79777A4D4455754E544930494445 ORIGIN 0x4D NUMBER CALLVALUE ADDRESS 0x4D PREVRANDAO MSIZE PUSH20 0x4D7A41324C6A51334E4341784E6A41754E44457A 0x49 GASLIMIT 0x4D PUSH8 0x4D7A41334C6A5179 0x4D PUSH26 0x41784E6A41754E4449774C444D774F4334314E446B674D545977 0x4C PUSH11 0x59354D43777A4D4467754F SLOAD PUSH4 0x32494445 ORIGIN 0x4D MSTORE8 CALLVALUE PUSH24 0x4D544D675179417A4D446B754E444130494445324D53347A 0x4D PUSH27 0x59734D7A45774C6A49324E4341784E6A45754E6A41774C444D784D NUMBER CALLVALUE CALLVALUE 0x4F PREVRANDAO PUSH12 0x674D5459784C6A59774D4342 PREVRANDAO 0x49 PREVRANDAO 0x4D PUSH25 0x4D5334314D5451674D5459784C6A59774D43777A4D5449754E PUSH11 0x6379494445324D5334344E PUSH27 0x41734D7A457A4C6A51324D6941784E6A49754D6A417749454D674D PUSH27 0x45304C6A49314D5341784E6A49754E544D774C444D784E53347A4E PUSH27 0x59674D5459794C6A67774D43777A4D5455754F545977494445324D PUSH10 0x34344D4441675179417A 0x4D SLOAD MSIZE PUSH22 0x4E545130494445324D6934344D4441734D7A45334C6A 0x4D CALLDATALOAD 0x4F MSTORE8 COINBASE PUSH25 0x4E6A4D754D4459304C444D784E7934344E6A41674D54597A4C PUSH11 0x4D344E79424449444D784F NUMBER CALLVALUE PUSH27 0x4D6A45674D54597A4C6A63784D43777A4D546B754E445131494445 ORIGIN 0x4E NUMBER CALLVALUE PUSH24 0x4F5451734D7A49774C6A4D314F4341784E6A51754D6A5177 0x49 GASLIMIT 0x4D PUSH8 0x4D7A49784C6A4933 0x4D MSTORE8 COINBASE PUSH25 0x4E6A51754D7A67324C444D794D6934784D4467674D5459304C PUSH11 0x59314D53777A4D6A49754D PUSH11 0x4534494445324E4334344D PUSH11 0x6B675179417A4D6A49754D PUSH27 0x4934494445324E5334774D4467734D7A497A4C6A49784F5341784E PUSH11 0x55754D6A63304C444D794E NUMBER CALLVALUE PUSH25 0x4F5459674D5459314C6A51794D43424449444D794E5334784E PUSH27 0x51674D5459314C6A55324E79777A4D6A59754D546779494445324E MSTORE8 CALLVALUE CALLDATALOAD 0x4D PUSH27 0x63734D7A49324C6A517A4E6941784E6A59754D6A517A49454D674D PUSH27 0x49324C6A59354D4341784E6A59754E5455774C444D794E79347A4F SLOAD MLOAD PUSH8 0x4D5459324C6A6777 0x4D NUMBER PUSH24 0x7A4D6A67754D444177494445324E6934344D444167517941 PUSH27 0x4D6A67754E6A4132494445324E6934344D4441734D7A49354C6A4D PUSH26 0x4E6941784E6A63754D4463774C444D794F5334324D4441674D54 MSIZE CALLER 0x4C PUSH11 0x51774D43424449444D794F MSTORE8 CALLVALUE CALLVALUE 0x4E PUSH27 0x51674D5459334C6A637A4D43777A4D7A41754E546B30494445324F NUMBER CALLVALUE PUSH24 0x4D4441734D7A4D784C6A49774D4341784E6A67754D444177 0x49 GASLIMIT 0x4D PUSH8 0x4D7A4D784C6A6777 0x4E PUSH10 0x41784E6A67754D444177 0x4C PREVRANDAO 0x4D PUSH27 0x4D6934314D6A59674D5459344C6A49334D43777A4D7A49754F4441 PUSH24 0x494445324F4334324D4441675179417A4D7A4D754D7A6B34 0x49 PREVRANDAO GASLIMIT ORIGIN 0x4F MSTORE8 CALLVALUE PUSH27 0x4D6A41734D7A4D314C6A45794F4341784E6A6B754D7A63334C444D PUSH27 0x4E6934324E7A51674D5459344C6A63794E79424449444D7A4E7934 PUSH26 0x4F544D674D5459344C6A51324E69777A4D7A6B754E5445774944 GASLIMIT ORIGIN 0x4F NUMBER CALLVALUE PUSH25 0x4D6A41734D7A51784C6A59774D4341784E6A63754F54553549 GASLIMIT 0x4D PUSH8 0x4D7A517A4C6A5935 0x4D NUMBER COINBASE PUSH25 0x4E6A63754E7A6B334C444D304E6934794E6A55674D5459334C PUSH11 0x51334D79777A4E4463754D PUSH27 0x4979494445324E7934794E4441675179417A4E446B754E7A513349 PREVRANDAO GASLIMIT ORIGIN 0x4E PUSH10 0x34334D4455734D7A5930 0x4C PUSH11 0x4D334E7941784E6A59754E PUSH27 0x497A4C444D324E6934784D4463674D5459334C6A49324E43424449 PREVRANDAO 0x4D ORIGIN 0x4E PUSH10 0x34344D5467674D545933 0x4C PUSH11 0x51344E69777A4E6A6B754D PREVRANDAO 0x49 PUSH24 0x494445324E7934344D546B734D7A63784C6A41774D434178 0x4E PUSH11 0x67754D44413149454D674D PUSH27 0x63304C6A63314E7941784E6A67754D7A55344C444D334F4334784E SLOAD PUSH8 0x674D5459344C6A6B CALLER 0x4D MSTORE8 PUSH24 0x7A4F4441754D6A4177494445324F5334324E6A4D67517941 PUSH27 0x4F4441754F445977494445324F5334344F4463734D7A67794C6A45 PUSH26 0x4D4341784E7A41754D6A51314C444D344D7934774D4441674D54 PUSH4 0x774C6A51 BALANCE 0x4F NUMBER TIMESTAMP PREVRANDAO 0x49 PREVRANDAO 0x4D CALLVALUE 0x4D PUSH26 0x34344F4441674D5463774C6A59334D53777A4F4451754E7A6378 0x49 PREVRANDAO GASLIMIT CALLER 0x4D MSTORE8 CALLVALUE PUSH24 0x4D5459734D7A67304C6A6B344D4341784E7A45754D6A497A 0x49 GASLIMIT 0x4D PUSH8 0x4D7A67314C6A4534 0x4F MSTORE8 COINBASE PUSH25 0x4E7A45754E444D774C444D344E5334324E6A6B674D5463784C PUSH11 0x59774D43777A4F4459754D PREVRANDAO MLOAD CALLVALUE 0x49 PREVRANDAO GASLIMIT CALLER 0x4D MSTORE8 CALLVALUE ORIGIN 0x4D PREVRANDAO COINBASE PUSH8 0x5179417A4F445975 0x4F PREVRANDAO MSIZE PUSH25 0x494445334D5334324D4441734D7A6B344C6A49334D4341784E PUSH27 0x63754D4459314C444D354F4334324D5449674D5463334C6A59784F MSTORE8 TIMESTAMP PREVRANDAO 0x49 PREVRANDAO 0x4D CALLDATALOAD 0x4F NUMBER CALLVALUE CALLER 0x4E PREVRANDAO GASLIMIT PUSH8 0x4D5463334C6A6779 0x4F MSTORE8 PUSH24 0x7A4F546B754D545178494445334F4334774D4441734D7A6B CALLDATALOAD 0x4C PUSH11 0x51354F5341784E7A67754D PREVRANDAO COINBASE PUSH24 0x49454D674E4441774C6A417A4D6941784E7A67754D444177 0x4C PREVRANDAO 0x4D CALLDATALOAD 0x4F MSTORE8 CALLVALUE CALLDATALOAD 0x4F SLOAD SSTORE PUSH8 0x4D5463334C6A6731 0x4E MSTORE8 PUSH24 0x7A4F546B754D6A6B79494445334E7934794D444167517941 PUSH27 0x4F5467754F444977494445334E6934334E6A41734D7A6B344C6A45 CALLER 0x4F NUMBER COINBASE PUSH25 0x4E7A59754E4441774C444D354E7934344E6A59674D5463324C PUSH11 0x51774D43424449444D354E PUSH26 0x34314E544D674D5463324C6A51774D43777A4F5463754D446330 0x49 PREVRANDAO GASLIMIT CALLER 0x4E PUSH10 0x34784D7A41734D7A6B32 0x4C PUSH11 0x67774D4341784E7A55754F PREVRANDAO COINBASE PUSH24 0x49454D674D7A6B324C6A55794E6941784E7A55754E446377 0x4C PREVRANDAO 0x4D CALLDATALOAD 0x4E MSTORE8 CALLVALUE CALLVALUE 0x4F PREVRANDAO COINBASE PUSH8 0x4D5463314C6A4977 0x4D NUMBER PUSH24 0x7A4F5455754D7A5931494445334E5334794D444167517941 PUSH27 0x4F5451754F444D34494445334E5334794D4441734D7A6B304C6A49 ADDRESS 0x4D MSTORE8 COINBASE PUSH25 0x4E7A51754F4455774C444D354E4334774D4441674D5463304C PUSH11 0x51774D43424449444D354D PUSH26 0x34334E546B674D54637A4C6A6B314D43777A4F544D754D545979 0x49 PREVRANDAO GASLIMIT CALLER 0x4D PUSH26 0x34324D4441734D7A6B794C6A597A4E5341784E7A4D754E6A4177 0x49 GASLIMIT 0x4D PUSH8 0x4D7A6B794C6A4579 0x4D NUMBER COINBASE PUSH25 0x4E7A4D754E6A41774C444D354D5334304E7A51674D54637A4C PUSH11 0x4D7A4D43777A4F5445754D PUSH11 0x4177494445334D7934774D PREVRANDAO COINBASE PUSH8 0x5179417A4F544175 0x4F SLOAD 0x49 ORIGIN 0x49 PREVRANDAO GASLIMIT CALLER 0x4D PUSH10 0x34324E7A41734D7A6B77 0x4C PUSH11 0x4D314F4341784E7A49754E PREVRANDAO COINBASE PUSH24 0x4C444D344F5334354D7A67674D5463794C6A51774D434244 0x49 PREVRANDAO 0x4D CALLVALUE 0x4F MSTORE8 CALLVALUE BALANCE 0x4D SLOAD PUSH12 0x674D5463794C6A51774D4377 PUSH27 0x4F446B754D446378494445334D6934784D7A41734D7A67344C6A6B ADDRESS 0x4E MSTORE8 COINBASE PUSH25 0x4E7A45754F44417749454D674D7A67344C6A67784E6941784E PUSH27 0x45754E4459304C444D344F4334794D6A45674D5463784C6A49774D NUMBER PUSH24 0x7A4F4463754E546B78494445334D5334794D444167517941 PUSH27 0x4F4459754F546379494445334D5334794D4441734D7A67324C6A51 PUSH24 0x4D5341784E7A45754D4441794C444D344E69347A4D6A4167 0x4D SLOAD PUSH4 0x774C6A63 ORIGIN 0x4D MSTORE8 TIMESTAMP PREVRANDAO 0x49 PREVRANDAO 0x4D CALLVALUE 0x4E PUSH10 0x34794E4441674D546377 0x4C PUSH11 0x55784F53777A4F4455754D PUSH11 0x6777494445334D4334794D PUSH11 0x59734D7A67304C6A45344E PUSH26 0x41784E7A41754D54457749454D674D7A677A4C6A41354E434178 0x4E PUSH11 0x6B754F546B7A4C444D344D MSTORE8 CALLVALUE CALLDATALOAD 0x4D PUSH27 0x41674D5459354C6A59334D79777A4F4445754E6A4177494445324F MSTORE8 CALLVALUE PUSH27 0x4F5463675179417A4F4445754D6A6377494445324F5334784D6A45 PUSH20 0x4D7A63354C6A6B324F4341784E6A67754E7A6379 0x4C PREVRANDAO 0x4D CALLER 0x4F NUMBER CALLVALUE CALLER 0x4D PREVRANDAO MSIZE PUSH8 0x4D5459344C6A5979 0x4D NUMBER TIMESTAMP PREVRANDAO 0x49 PREVRANDAO 0x4D CALLER 0x4E PUSH26 0x34304E4455674D5459344C6A51324F43777A4E7A59754D7A4135 0x49 PREVRANDAO GASLIMIT ORIGIN 0x4F NUMBER CALLVALUE PUSH25 0x4E7A63734D7A63324C6A45344D7941784E6A63754F54637949 GASLIMIT 0x4D PUSH8 0x4D7A63324C6A4131 0x4E PUSH10 0x41784E6A63754E7A5933 0x4C PREVRANDAO 0x4D CALLER 0x4E NUMBER CALLVALUE BALANCE 0x4E SLOAD PUSH8 0x674D5459334C6A59 PUSH24 0x4D43777A4E7A49754F44557A494445324E7934324D444167 MLOAD PUSH26 0x417A4E7A41754E7A5132494445324E7934324D4441734D7A5935 0x4C PUSH11 0x55774E4341784E6A63754E PREVRANDAO GASLIMIT PUSH26 0x4C444D324F4334354E7A59674D5459334C6A41784D7942444944 0x4D ORIGIN 0x4E PUSH26 0x34354D546B674D5459324C6A49784D79777A4E4451754F445578 0x49 PREVRANDAO GASLIMIT ORIGIN 0x4E PUSH10 0x34784D4467734D7A5130 0x4C PUSH11 0x41324D5341784E6A59754F SLOAD COINBASE PUSH24 0x49454D674D7A517A4C6A63344E7941784E6A63754D546331 0x4C PREVRANDAO 0x4D ADDRESS 0x4D MSTORE8 CALLVALUE CALLDATALOAD 0x4F SLOAD MSIZE PUSH8 0x4D5459334C6A5579 0x4E PUSH26 0x777A4E4441754D446778494445324E7934324F4445675179417A 0x4D PUSH27 0x67754D545933494445324E7934344D7A59734D7A4D314C6A67314E PUSH10 0x41784E6A67754D446334 0x4C PREVRANDAO 0x4D PUSH27 0x4E4334354E4463674D5459344C6A49784F53424449444D7A4D7934 CALLDATALOAD 0x4D SLOAD 0x4D PUSH8 0x4D5459344C6A4D33 0x4F MSTORE8 PUSH24 0x7A4D7A4D754D546B79494445324F43347A4D5445734D7A4D PUSH27 0x4C6A41794D7941784E6A67754D444D3449454D674D7A4D794C6A67 CALLER 0x4E NUMBER COINBASE PUSH25 0x4E6A63754E7A6B334C444D7A4D6934794E444D674D5459334C PUSH11 0x59774D43777A4D7A45754E PUSH11 0x4535494445324E7934324D PREVRANDAO COINBASE PUSH8 0x5179417A4D7A4175 0x4F SLOAD PUSH8 0x78494445324E7934 ORIGIN 0x4D PREVRANDAO COINBASE PUSH20 0x4D7A4D774C6A4D344E5341784E6A63754D7A4D34 0x4C PREVRANDAO 0x4D PUSH27 0x4D4334794E5455674D5459334C6A41774D43424449444D7A4D4334 PUSH25 0x4D5449674D5459324C6A59794E69777A4D6A6B754E54417849 PREVRANDAO GASLIMIT ORIGIN 0x4E PUSH10 0x34304D4441734D7A4934 0x4C PUSH11 0x597A4D6941784E6A59754E PREVRANDAO COINBASE PUSH24 0x49454D674D7A49334C6A63354F4341784E6A59754E444177 0x4C PREVRANDAO 0x4D PUSH26 0x4E7934784D4449674D5459324C6A45314E53777A4D6A59754F44 PUSH12 0x33494445324E5334334F4463 PUSH8 0x5179417A4D6A5975 0x4E PUSH27 0x4134494445324E5334304E5441734D7A49314C6A67304E6941784E PUSH11 0x55754D4459774C444D794E NUMBER CALLVALUE CALLDATALOAD 0x4F PREVRANDAO COINBASE PUSH8 0x4D5459304C6A6B78 0x4F MSTORE8 TIMESTAMP PREVRANDAO 0x49 PREVRANDAO 0x4D PUSH26 0x4E4334784D5455674D5459304C6A63334F53777A4D6A4D754D54 MSIZE CALLER 0x49 PREVRANDAO GASLIMIT ORIGIN 0x4E NUMBER CALLVALUE ADDRESS 0x4D PUSH11 0x55734D7A49794C6A67334E MSTORE8 COINBASE PUSH25 0x4E6A51754D544D7949454D674D7A49794C6A55344D6941784E PUSH11 0x4D754F444D354C444D794D MSTORE8 CALLVALUE BALANCE 0x4E PREVRANDAO MSIZE PUSH8 0x4D54597A4C6A5977 0x4D NUMBER PUSH24 0x7A4D6A41754E546378494445324D7934324D444167517941 PUSH27 0x4D546B754E546B33494445324D7934324D4441734D7A45344C6A67 PUSH24 0x4D4341784E6A4D754E444D784C444D784F4334344D444167 0x4D SLOAD MSIZE PUSH27 0x4C6A49794E53424449444D784F4334344D4441674D54597A4C6A41 PUSH25 0x4F43777A4D5463754F546332494445324D6934334D6A55734D PUSH27 0x45324C6A6B324F4341784E6A49754E54633049454D674D7A45314C PUSH11 0x6B324D5341784E6A49754E PREVRANDAO 0x49 PUSH27 0x4C444D784E5334774E4445674D5459794C6A41314D69777A4D5451 PUSH22 0x4F544931494445324D5334334E5441675179417A4D54 MLOAD PUSH22 0x4E7A6779494445324D53347A4E7A59734D7A45304C6A COINBASE PUSH25 0x4E4341784E6A45754D6A41774C444D784D6934314D6A6B674D SLOAD MSIZE PUSH25 0x4C6A49774D43424449444D784D5334784D546B674D5459784C PUSH11 0x49774D43777A4D5441754D SLOAD 0x4D PUSH24 0x494445324D4334354F4463734D7A41354C6A63304D794178 0x4E PUSH11 0x41754E6A417749454D674D PUSH27 0x41354C6A4D324D4341784E6A41754D6A45334C444D774F43347A4E PUSH27 0x51674D5459774C6A41774D43777A4D4463754D444977494445324D NUMBER CALLVALUE PUSH24 0x4D4441675179417A4D4455754E6A6732494445324D433477 0x4D PREVRANDAO COINBASE PUSH20 0x4D7A41304C6A63794E5341784E546B754E7A6B78 0x4C PREVRANDAO 0x4D PUSH24 0x4E4334304D7A49674D5455354C6A517A4F43424449444D77 0x4E NUMBER CALLVALUE PUSH25 0x4D5445674D5455354C6A41314D53777A4D4449754E54517749 PREVRANDAO GASLIMIT BALANCE 0x4F NUMBER CALLVALUE CALLER 0x4F PREVRANDAO PUSH8 0x734D6A6B354C6A4D CALLVALUE 0x4D PUSH26 0x41784E5467754E546B7749454D674D6A6B324C6A67324D694178 0x4E SLOAD PUSH8 0x754E444D7A4C4449 CALLDATALOAD 0x4E NUMBER CALLVALUE CALLVALUE 0x4D PREVRANDAO COINBASE PUSH8 0x4D5455344C6A4530 0x4E PUSH10 0x77794F5451754F444177 0x49 PREVRANDAO GASLIMIT BALANCE 0x4E PUSH26 0x34354E544967517941794F5451754F444177494445314E793433 0x4E SLOAD PUSH8 0x734D6A6B794C6A6B BALANCE 0x4E NUMBER COINBASE PUSH25 0x4E5463754E6A41774C4449354D4334324F5463674D5455334C PUSH11 0x59774D434244494449344F NUMBER CALLVALUE ADDRESS 0x4E PREVRANDAO GASLIMIT PUSH8 0x4D5455334C6A5977 0x4D NUMBER PUSH24 0x794F4455754F545932494445314E7934304D4467734D6A67 BALANCE 0x4C PUSH11 0x45354E7941784E5463754D SLOAD PUSH4 0x3049454D PUSH8 0x4D6A67304C6A5179 0x4F MSTORE8 COINBASE PUSH25 0x4E5459754F5451774C4449344D6934314E4455674D5455324C PUSH11 0x59344F5377794F4445754D PREVRANDAO GASLIMIT PUSH24 0x494445314E6934324D545967517941794E7A67754E7A4130 0x49 PREVRANDAO GASLIMIT BALANCE 0x4E PUSH10 0x34314D4463734D6A6334 0x4C PUSH11 0x45794E4341784E5459754D PUSH27 0x4D344C4449334E7934324E6A45674D5455314C6A59304D69424449 PREVRANDAO 0x49 CALLER 0x4E PUSH26 0x347A4E5451674D5455314C6A45334F5377794E7A59754F446330 0x49 PREVRANDAO GASLIMIT BALANCE 0x4E NUMBER CALLVALUE CALLVALUE 0x4D PREVRANDAO COINBASE PUSH20 0x4D6A63324C6A55354E4341784E5451754F444177 0x49 GASLIMIT 0x4D PUSH8 0x4D6A63324C6A4D78 0x4E NUMBER COINBASE PUSH25 0x4E5451754F4441774C4449334E5334354E7A55674D5455304C PUSH11 0x55784D5377794E7A55754F PREVRANDAO 0x4D CALLDATALOAD 0x49 PREVRANDAO GASLIMIT BALANCE 0x4E NUMBER CALLVALUE PUSH25 0x4E546767517941794E7A55754E7A4130494445314D7934344D PREVRANDAO MSIZE PUSH20 0x4D6A63314C6A4D314E7941784E544D754E6A4134 0x4C PREVRANDAO 0x49 CALLER 0x4E MSTORE8 CALLVALUE PUSH24 0x4E6A67674D54557A4C6A63784F534244494449334E433433 0x4E PUSH27 0x6B674D54557A4C6A67794F5377794E7A51754D7A4935494445314D PUSH26 0x34314E7A67734D6A63304C6A41324F4341784E544D754D545977 0x49 GASLIMIT 0x4D PUSH8 0x4D6A637A4C6A6777 0x4E PUSH26 0x41784E5449754E7A51794C4449334D7934794D7A55674D545579 0x4C PUSH11 0x51774D4377794E7A49754E PUSH27 0x6B33494445314D6934304D444167517941794E7A49754D7A553449 PREVRANDAO GASLIMIT BALANCE 0x4D PUSH10 0x34304D4441734D6A6379 0x4C PUSH11 0x41304E5341784E5449754D SLOAD PUSH4 0x354C4449 CALLER 0x4D PUSH10 0x34784D4441674D545578 0x4C PUSH11 0x6B774F534244494449334D PUSH10 0x34784E5455674D545578 0x4C PUSH11 0x59304D4377794E7A45754E PUSH27 0x5530494445314D53347A4E5449734D6A63784C6A49784D4341784E SLOAD GASLIMIT PUSH22 0x4D6A637749454D674D6A63774C6A59324E5341784E54 GASLIMIT PUSH22 0x4D5467344C4449324F5334354F4441674D5455774C6A PUSH4 0x334F5377 PUSH26 0x4E6A6B754E6A6733494445314D43347A4E6A4167517941794E6A PUSH12 0x754D7A6B30494445304F5334 CALLDATALOAD 0x4E PREVRANDAO 0x49 PUSH20 0x4D6A59344C6A67774E5341784E446B754E6A4177 0x4C PREVRANDAO 0x49 ORIGIN 0x4F NUMBER CALLVALUE PUSH27 0x4E7A63674D5451354C6A59774D434244494449324E7934354E5441 PUSH8 0x4D5451354C6A5977 0x4D NUMBER PUSH24 0x794E6A63754E6A4177494445304F5334304E5455734D6A59 CALLER 0x4C PUSH11 0x59774D4341784E446B754D PUSH11 0x633349454D674D6A59334C PUSH11 0x59774D4341784E4467754F SLOAD 0x4D CALLDATALOAD 0x4C PREVRANDAO 0x49 ORIGIN 0x4E NUMBER CALLVALUE CALLVALUE 0x4D PUSH11 0x63674D5451334C6A59774D NUMBER PUSH24 0x794E6A51754D544934494445304E7934324D444167517941 PUSH26 0x4E6A4D754F544132494445304E7934324D4441734D6A597A4C6A 0x4D CALLDATALOAD 0x4F NUMBER COINBASE PUSH25 0x4E4463754D6A51774C4449324D7934774D4441674D5451324C PUSH11 0x67774D434244494449324D PUSH10 0x34324D4449674D545132 0x4C PUSH11 0x4D324D4377794E6A45754F PREVRANDAO PUSH12 0x35494445304E5334354F5451 PUSH20 0x4D6A59784C6A517A4F4341784E4455754F546733 0x49 GASLIMIT 0x4D PUSH8 0x4D6A59774C6A6B33 0x4E PUSH26 0x41784E4455754F5467774C4449324D4334794E5445674D545131 0x4C PUSH11 0x63784D4377794E546B754F PREVRANDAO 0x49 ADDRESS 0x49 PREVRANDAO GASLIMIT ADDRESS 0x4E MSTORE8 CALLVALUE PUSH27 0x4F446367517941794E546B754D7A6B32494445304E5334774E6A51 PUSH20 0x4D6A55344C6A63304E4341784E4451754F444177 0x4C PREVRANDAO 0x49 BALANCE 0x4F NUMBER CALLVALUE PUSH27 0x4E7A4D674D5451304C6A67774D434244494449314F4334774D4449 PUSH8 0x4D5451304C6A6777 0x4D NUMBER PUSH24 0x794E5463754E446B33494445304E4334314E5463734D6A55 CALLER 0x4C PUSH11 0x49314D5341784E4451754D PUSH11 0x597849454D674D6A55334C PUSH11 0x41774E4341784E444D754F SLOAD MSIZE ADDRESS 0x4C PREVRANDAO 0x49 BALANCE 0x4E PUSH10 0x34794D7A45674D54517A 0x4C PUSH11 0x63774E6977794E5455754E SLOAD 0x4D PUSH25 0x494445304D7934324F445967517941794E5451754F44493249 PREVRANDAO GASLIMIT ADDRESS 0x4D PUSH26 0x34324E6A59734D6A55304C6A45774E4341784E444D754D7A6378 0x4C PREVRANDAO 0x49 BALANCE 0x4D PUSH26 0x34354D5441674D54517A4C6A41794E534244494449314D793433 0x4D SLOAD PUSH8 0x674D5451794C6A59 CALLVALUE 0x4D MSTORE8 PUSH24 0x794E544D754D545178494445304D6934304D4441734D6A55 PUSH26 0x4C6A59794F5341784E4449754E44417749454D674D6A55794C6A GASLIMIT PUSH25 0x4E7941784E4449754E4441774C4449314D5334304E7A51674D SLOAD MLOAD PUSH26 0x4C6A457A4D4377794E5445754D6A4177494445304D5334344D44 COINBASE PUSH8 0x517941794E544175 0x4F SLOAD 0x49 ORIGIN 0x49 PREVRANDAO GASLIMIT ADDRESS 0x4D MSTORE8 CALLVALUE ADDRESS 0x4E PUSH27 0x41734D6A55774C6A49354D7941784E4445754D6A41774C4449304F MSTORE8 CALLVALUE CALLER 0x4F SLOAD MLOAD PUSH8 0x4D5451784C6A4977 0x4D NUMBER TIMESTAMP PREVRANDAO 0x49 PREVRANDAO 0x49 ADDRESS 0x4F MSTORE8 CALLVALUE PUSH26 0x4F5451674D5451784C6A49774D4377794E4467754E7A67794944 GASLIMIT ADDRESS 0x4D NUMBER CALLVALUE CALLDATALOAD 0x4D PUSH27 0x41734D6A51344C6A59314E5341784E4441754E6A417749454D674D PUSH11 0x51344C6A55794F5341784E PREVRANDAO COINBASE PUSH22 0x4D6A63774C4449304E7934354F4445674D5451774C6A COINBASE PUSH24 0x4D4377794E4463754E444D35494445304D4334774D444167 MLOAD PUSH26 0x41794E4459754F446B32494445304D4334774D4441734D6A5131 0x4C PUSH11 0x6B304E5341784D7A6B754F PREVRANDAO COINBASE PUSH25 0x4C4449304E53347A4D6A59674D544D354C6A55314E79424449 PREVRANDAO 0x49 ADDRESS 0x4E NUMBER CALLVALUE CALLER 0x4D PREVRANDAO PUSH4 0x674D544D CALLDATALOAD 0x4C PUSH11 0x4D784E4377794E444D754D PUSH27 0x41794944457A4F4334354F546B734D6A51794C6A49774E5341784D PUSH27 0x67754F44553349454D674D6A51774C6A597A4F5341784D7A67754E PUSH11 0x55314C4449304D4334784E PUSH27 0x67674D544D344C6A51794F4377794E4441754D4459784944457A4E PUSH26 0x34344D444167517941794D7A6B754F5463344944457A4E79347A 0x4E PUSH11 0x41734D6A4D354C6A59324D MSTORE8 COINBASE PUSH25 0x4D7A59754F4455324C44497A4F53347A4E5455674D544D324C PUSH11 0x59344D4342444944497A4F NUMBER CALLVALUE CALLDATALOAD 0x4F SLOAD GASLIMIT PUSH8 0x4D544D324C6A5133 0x4D NUMBER PUSH24 0x794D7A67754F4441774944457A4E5334324D6A63734D6A4D CALLVALUE 0x4C PUSH11 0x67774D4341784D7A51754D PUSH11 0x493549454D674D6A4D344C PUSH11 0x67774D4341784D7A49754F PREVRANDAO 0x49 PUSH27 0x4C44497A4F4334314F5459674D544D784C6A6B794F5377794D7A67 PUSH22 0x4D6A41774944457A4D5334324D444167517941794D7A PUSH4 0x754F4463 PUSH24 0x4944457A4D53347A4D6A59734D6A4D334C6A59774D434178 0x4D PUSH27 0x41754E5445314C44497A4E7934324D4441674D5449354C6A63354E PUSH26 0x42444944497A4E7934324D4441674D5449354C6A41334F537779 0x4D PUSH27 0x63754D7A4D78494445794E7934354E7A59734D6A4D334C6A41774D PUSH10 0x41784D6A63754D7A5132 0x49 GASLIMIT 0x4D PUSH8 0x4D6A4D324C6A5933 0x4E NUMBER COINBASE PUSH25 0x4D6A59754E7A45324C44497A4E6934304D444D674D5449314C PUSH11 0x6B7A4D4377794D7A59754E PREVRANDAO COINBASE PUSH24 0x494445794E5334324D444167517941794D7A59754D7A6B33 0x49 PREVRANDAO GASLIMIT PUSH26 0x4E5334794E7A41734D6A4D324C6A45784D5341784D6A51754E44 MSIZE PUSH24 0x4C44497A4E5334334E6A51674D54497A4C6A67774D434244 0x49 PREVRANDAO 0x49 PUSH27 0x4E5334304D5463674D54497A4C6A45304D4377794D7A55754D5445 CALLDATALOAD 0x49 PREVRANDAO GASLIMIT PUSH26 0x4D5334344D6A55734D6A4D314C6A45774D7941784D6A41754F44 PUSH4 0x3449454D PUSH8 0x4D6A4D314C6A4134 0x4D MSTORE8 COINBASE PUSH25 0x4D546B754E6A55324C44497A4E4334344E446B674D5445354C PUSH11 0x41774D4377794D7A51754D PUSH27 0x417A494445784F4334324D546367517941794D7A4D754E546B3349 PREVRANDAO GASLIMIT PUSH25 0x4F4334784D6A49734D6A4D7A4C6A557A4F5341784D5463754E SLOAD PUSH12 0x784C44497A4D7934324D444D PUSH8 0x4D5445794C6A457A 0x4F MSTORE8 TIMESTAMP PREVRANDAO 0x49 PREVRANDAO 0x49 PUSH27 0x4D7934334D444D674D54417A4C6A59324F5377794D7A4D754E7A41 CALLVALUE 0x49 PREVRANDAO GASLIMIT PUSH24 0x4D7934334D6A45734D6A4D794C6A67334D4341784D444D75 0x4E SLOAD COINBASE PUSH27 0x49454D674D6A4D794C6A49784E5341784D444D754D7A4D784C4449 PUSH27 0x4D6934784E7A45674D54417A4C6A41794F5377794D7A49754E4451 PUSH24 0x494445774D4334314D446B67517941794D7A49754E6A4531 0x49 PREVRANDAO PUSH12 0x344C6A67344D4377794D7A49 PUSH22 0x4E54637A49446B334C6A41314E7977794D7A49754D7A MLOAD PUSH26 0x49446B324C6A45314D7942444944497A4D6934784D6A4D674F54 SSTORE PUSH22 0x4D6A6B354C44497A4D5334344D7A6B674F5451754D54 SSTORE PUSH24 0x4C44497A4D5334334D446B674F544D754E6A417749454D67 0x4D PUSH11 0x4D784C6A55344D4341354D PUSH26 0x34774E5441734D6A4D784C6A45304D7941354D69347A4E6A5573 0x4D PUSH11 0x4D774C6A637A4E7941354D PUSH10 0x34774E7A636751794179 0x4D PUSH27 0x41754D7A4D7949446B784C6A63354D4377794D7A41754D44417749 PREVRANDAO PUSH12 0x784C6A4D794E4377794D7A41 PUSH22 0x4D44417749446B784C6A41304D6942444944497A4D43 CALLVALUE PUSH24 0x4D4441674F5441754D6A6B794C4449794E6934354E444167 0x4F PREVRANDAO PUSH4 0x754D6A41 PUSH24 0x4C4449794E6934784F5463674F4463754D6A417749454D67 0x4D PUSH11 0x49314C6A67304F4341344E PUSH26 0x34794D4441734D6A49314C6A49314F5341344E6934324E7A4173 0x4D PUSH11 0x49304C6A67344E7941344E PUSH10 0x34774D6A496751794179 0x4D PUSH11 0x51754E544531494467314C PUSH11 0x4D334E4377794D6A4D754F PREVRANDAO PUSH4 0x30494467 ADDRESS 0x4C PUSH11 0x63314E6977794D6A4D754E PREVRANDAO MSIZE PUSH27 0x494467304C6A59304F434244494449794D7934774E5449674F4451 PUSH22 0x4E5451784C4449794D6934334F5451674F4451754D6A GASLIMIT CALLDATALOAD 0x4C PREVRANDAO 0x49 PUSH26 0x4D6934344F446B674F444D754F544D7A49454D674D6A497A4C6A COINBASE BALANCE 0x4E PUSH26 0x41344D7934304D7A41734D6A49784C6A55324E4341344D693430 0x4D PREVRANDAO COINBASE PUSH20 0x4D6A49774C6A59324E7941344D6934304D444167 MLOAD PUSH26 0x41794D5467754F545933494467794C6A51774D4377794D546775 0x4D SLOAD MLOAD PUSH25 0x494463354C6A51324D7977794D546B754E444933494463334C PUSH11 0x6B354D534244494449784F MSTORE8 CALLVALUE CALLER 0x4D SLOAD PUSH12 0x674E7A63754E6A55324C4449 PUSH26 0x4D4334774D6A51674E7A59754E7A55774C4449794D4334784D44 0x4D PUSH8 0x4E7A55754F546333 0x49 GASLIMIT 0x4D PUSH8 0x4D6A49774C6A4534 0x4D PUSH10 0x41334E5334794D444D73 0x4D PUSH11 0x49774C6A4D344D6941334E NUMBER CALLVALUE PUSH27 0x4E5449734D6A49774C6A55304E7941334E4334774F445567517941 PUSH26 0x4D6A41754E7A45794944637A4C6A67784F4377794D6A41754E6A SSTORE CALLER 0x49 PREVRANDAO PUSH4 0x7A4C6A59 PUSH24 0x4D4377794D6A41754E4449304944637A4C6A59774D434244 0x49 PREVRANDAO 0x49 PUSH26 0x4D4334784F5445674E7A4D754E6A41774C4449794D4334774D44 COINBASE PUSH8 0x4E7A4D754D6A5177 0x4C PREVRANDAO 0x49 PUSH26 0x4D4334774D4441674E7A49754F44417749454D674D6A49774C6A COINBASE PUSH24 0x4D4341334D69347A4E6A41734D6A45354C6A67794D434133 0x4D PUSH10 0x34774D4441734D6A4535 0x4C PUSH11 0x59774D4341334D6934774D PREVRANDAO COINBASE PUSH8 0x517941794D546B75 0x4D PUSH27 0x6777494463794C6A41774D4377794D546B754D6A4177494463784C PUSH11 0x637A4D5377794D546B754D PUSH11 0x4177494463784C6A51774D PUSH10 0x4244494449784F533479 0x4D PREVRANDAO COINBASE PUSH8 0x4E7A41754E6A6331 0x4C PREVRANDAO 0x49 PUSH25 0x4E4334304F4455674E6A59754D4441774C4449784D7934334E SLOAD 0x49 PUSH8 0x4E6A59754D444177 0x49 GASLIMIT 0x4D PUSH8 0x4D6A45794C6A6B31 0x4D MSTORE8 COINBASE ORIGIN 0x4E PUSH10 0x34774D4441734D6A4579 0x4C PUSH11 0x51774D4341324E4334324E PREVRANDAO MLOAD PUSH20 0x4D6A45794C6A51774D4341324D6934324E7A5567 MLOAD PUSH26 0x41794D5449754E444177494459784C6A55344D7977794D544975 0x4D SLOAD MSIZE CALLDATALOAD 0x49 PREVRANDAO MSIZE PUSH24 0x4C6A63774E6977794D5445754F444177494459774C6A5177 0x4D NUMBER TIMESTAMP PREVRANDAO 0x49 PREVRANDAO 0x49 PUSH25 0x4D5334304E7A41674E6A41754D5449324C4449784D5334794D PREVRANDAO COINBASE PUSH8 0x4E546B754E444132 0x4C PREVRANDAO 0x49 PUSH25 0x4D5334794D4441674E5467754F44417749454D674D6A45784C PUSH11 0x49774D4341314F4334784F SLOAD MLOAD PUSH20 0x4D6A45774C6A6B7A4D4341314E7934304E7A5173 0x4D PUSH11 0x45774C6A59774D4341314E PUSH26 0x34794D444167517941794D5441754D6A6377494455324C6A6B79 0x4E PUSH10 0x77794D5441754D444177 0x49 PREVRANDAO SSTORE ORIGIN 0x4C PUSH11 0x49774E6977794D5441754D PREVRANDAO COINBASE PUSH24 0x494455314C6A59774D434244494449784D4334774D444167 0x4E SLOAD MLOAD PUSH22 0x4F546B304C4449774F5334334D7A41674E5451754D6A PUSH4 0x304C4449 PUSH24 0x4F5334304D4441674E5451754D44417749454D674D6A4135 0x4C PUSH11 0x41334D4341314D7934334D PUSH11 0x59734D6A41344C6A67774D NUMBER COINBASE BALANCE 0x4D PUSH26 0x34774F4455734D6A41344C6A67774D4341314D6934314E7A5567 MLOAD PUSH26 0x41794D4467754F444177494455794C6A41324E5377794D446775 0x4E PUSH11 0x4533494455784C6A557A4E NUMBER PUSH24 0x794D4467754D7A6B30494455784C6A4D354E694244494449 PUSH24 0x4F4334784E7A45674E5445754D6A55344C4449774E793433 0x4D PUSH11 0x49674E5441754E54637A4C PREVRANDAO 0x49 PUSH24 0x4E79347A4F5459674E446B754F44637A49454D674D6A4132 0x4C PUSH11 0x51304F4341304E7934344D PUSH27 0x49734D6A41314C6A41354F4341304E5334334E544D734D6A417A4C PUSH11 0x63774D4341304E4334784F PREVRANDAO 0x4D PUSH8 0x517941794D444975 0x4F SLOAD PUSH8 0x314944517A4C6A4D CALLVALUE 0x4D NUMBER PUSH24 0x794D4449754E444177494451794C6A597A4D7977794D4449 PUSH22 0x4E444177494451794C6A55794D694244494449774D69 CALLVALUE ADDRESS 0x4D PREVRANDAO COINBASE PUSH8 0x4E4449754D545134 0x4C PREVRANDAO GASLIMIT CALLDATALOAD 0x4F MSTORE8 CALLVALUE ADDRESS 0x4D PREVRANDAO 0x4D PUSH8 0x4D7A6B754E6A4535 0x4C PREVRANDAO GASLIMIT CALLDATALOAD 0x4F NUMBER CALLVALUE CALLDATALOAD 0x4E PREVRANDAO PUSH12 0x674D7A6B754E6A413549454D PUSH8 0x4D546B344C6A6377 0x4D MSTORE8 COINBASE PUSH27 0x4F5334324D4451734D546B344C6A49334E43417A4F53347A4D7A41 PUSH20 0x4D546B344C6A41774D43417A4F5334774D444167 MLOAD PUSH26 0x41784F5463754E7A493249444D344C6A59334D4377784F546375 0x4D PUSH11 0x493549444D344C6A51774D NUMBER PUSH24 0x784F5459754F446B3149444D344C6A51774D434244494445 CALLDATALOAD 0x4E PUSH10 0x34314E6A45674D7A6775 0x4E PREVRANDAO COINBASE PUSH24 0x4C4445354E6934774E6A49674D7A67754D446B774C444535 0x4E MSTORE8 CALLVALUE CALLER 0x4F PREVRANDAO SSTORE PUSH8 0x4D7A63754E7A4579 0x49 GASLIMIT 0x4D PUSH8 0x4D546B314C6A4932 0x4F MSTORE8 COINBASE PUSH27 0x4E7934774D4459734D5467354C6A49794E69417A4E6934324D6A6B PUSH20 0x4D5467314C6A55774D43417A4E7934774E7A4567 SLOAD SLOAD GASLIMIT PUSH25 0x4E6934304E6A51674E6A67754E6A453549454D674D5445324C PUSH11 0x49774F5341324F5334784E PUSH27 0x6B734D5445324C6A41774D4341334D43347A4E446B734D5445324C PUSH11 0x41774D4341334D5334794D SLOAD PUSH12 0x67517941784D5459754D4441 PUSH24 0x494463794C6A41344F4377784D5455754F444D7849446379 0x4C PUSH11 0x67774D4377784D5455754E PUSH11 0x4931494463794C6A67774D NUMBER TIMESTAMP PREVRANDAO 0x49 PREVRANDAO GASLIMIT PUSH25 0x4E5334304D546B674E7A49754F4441774C4445784E5334794D PUSH11 0x6B674E7A4D754D5445314C PREVRANDAO GASLIMIT PUSH25 0x4E5334794D4451674E7A4D754E54417749454D674D5445304C PUSH11 0x677A4D6941334F5334784E PUSH27 0x4D734D5445304C6A63774D5341344D4334774D4441734D5445304C PUSH11 0x45324E7941344D4334774D PREVRANDAO COINBASE PUSH8 0x517941784D544D75 0x4E PUSH27 0x5532494467774C6A41774D4377784D544D754E6A4177494467774C PUSH11 0x557A4D4377784D544D754E PUSH11 0x4177494467784C6A6B794E NUMBER TIMESTAMP PREVRANDAO 0x49 PREVRANDAO GASLIMIT PUSH25 0x4D7934324D4441674F4449754F546B324C4445784D79347A4E PREVRANDAO COINBASE PUSH8 0x4F4451754D546B78 0x4C PREVRANDAO GASLIMIT PUSH25 0x4D7934774D544D674F4451754E6A493049454D674D5445794C PUSH11 0x59774E4341344E5334784E PUSH11 0x4D734D5445794C6A51794D PUSH10 0x41344E6934304E544D73 0x4D SLOAD GASLIMIT PUSH26 0x4C6A51784D7941344F4334344E546367517941784D5449754E44 COINBASE PUSH27 0x49446B784C6A55314D7977784D5449754D6A593449446B794C6A4D ORIGIN 0x4E MSTORE8 PUSH24 0x784D5445754F44417749446B794C6A55304E534244494445 PUSH25 0x4D5334304E6A63674F5449754E6A637A4C4445784D5334784F SLOAD PUSH12 0x674F544D754D6A59354C4445 PUSH25 0x4D5334784F5467674F544D754F44673349454D674D5445784C PUSH11 0x45354E6941354E4334304F SLOAD PUSH12 0x734D5445774C6A6B794D6941 CALLDATALOAD 0x4E MSTORE8 CALLVALUE BALANCE 0x4D PUSH11 0x4D734D5445774C6A55344F NUMBER COINBASE CALLDATALOAD 0x4E PUSH10 0x34784E6A4D6751794178 0x4D SLOAD COINBASE PUSH22 0x4D6A553149446B324C6A67774D7977784D446B754F54 0x4D CALLER 0x49 PREVRANDAO PUSH12 0x344C6A55344F5377784D446B PUSH22 0x4F44677A494445774D4334784D7A4D67517941784D44 PUSH12 0x754F444535494445774D5334 CALLDATALOAD 0x4D PUSH11 0x41734D5441354C6A59774E MSTORE8 COINBASE PUSH25 0x4D4449754F546B344C4445774F5334794F5449674D54417A4C PUSH11 0x45774D794244494445774F NUMBER CALLVALUE CALLDATALOAD 0x4E PUSH27 0x4D674D54417A4C6A49774F5377784D4467754F444177494445774E NUMBER CALLVALUE PUSH25 0x4E4449734D5441344C6A67774D4341784D4455754E7A557A49 GASLIMIT 0x4D PUSH8 0x4D5441344C6A6777 0x4D NUMBER COINBASE PUSH25 0x4D4463754D5449784C4445774F4334324D5441674D5441344C PUSH11 0x517A4D4377784D4467754D PUSH27 0x6333494445774F4334324E6A4D67517941784D4467754D54513049 PREVRANDAO GASLIMIT PUSH24 0x4F4334344F5459734D5441334C6A67344D4341784D544175 0x4D SLOAD MLOAD CALLER 0x4C PREVRANDAO GASLIMIT PUSH24 0x4E7934334F5441674D5445784C6A51304D79424449444577 0x4E PUSH26 0x34334D4441674D5445794C6A637A4F5377784D4463754E7A4D77 0x49 PREVRANDAO GASLIMIT PUSH25 0x4D7934304E4441734D5441334C6A67314E6941784D544D754D PREVRANDAO COINBASE PUSH24 0x49454D674D5441334C6A6B344D7941784D5449754E545977 0x4C PREVRANDAO GASLIMIT PUSH24 0x4F4334794E444D674D5445794C6A41774E7977784D446775 0x4E PREVRANDAO 0x4D ADDRESS 0x49 PREVRANDAO GASLIMIT PUSH25 0x4D5334334E7A4167517941784D4467754E6A4931494445784D MSTORE8 CALLVALUE BALANCE 0x4D PUSH27 0x51734D5441344C6A6B774D7941784D5441754D4441304C4445774F MSTORE8 CALLVALUE PUSH24 0x4E5445674D5441344C6A4D334D434244494445774F533478 0x4F SLOAD PUSH12 0x674D5441324C6A637A4E7977 PUSH25 0x4D446B754E54597A494445774E4334334D4449734D5441354C PUSH11 0x67324D4341784D444D754F PREVRANDAO SSTORE PUSH24 0x49454D674D5445774C6A45314E7941784D4449754F546B33 0x4C PREVRANDAO GASLIMIT PUSH25 0x4D4334304D4441674D5441784C6A557A4E4377784D5441754E PREVRANDAO COINBASE PUSH24 0x494445774D4334314F546B67517941784D5441754E444177 0x49 PREVRANDAO PUSH12 0x354C6A59324D7977784D5441 PUSH22 0x4E6A637749446B344C6A49314D5377784D5445754D44 COINBASE PUSH24 0x49446B334C6A51324D694244494445784D53347A4D7A4167 0x4F SLOAD MSIZE PUSH22 0x4E6A63794C4445784D5334324D4441674F5455754E54 PUSH4 0x344C4445 PUSH25 0x4D5334324D4441674F5455754D444D7849454D674D5445784C PUSH11 0x59774D4341354E4334304F PREVRANDAO 0x4D PUSH20 0x4D5445794C6A41314E6941354D79347A4E6A5173 0x4D SLOAD GASLIMIT PUSH26 0x4C6A59784D7941354D6934314E444D67517941784D544D754E44 MSIZE ADDRESS 0x49 PREVRANDAO PUSH12 0x784C6A49344F5377784D544D PUSH22 0x4E6A453349446B774C6A59794F5377784D544D754E54 PUSH4 0x77494467 CALLVALUE 0x4C PUSH11 0x51794E534244494445784D PUSH26 0x34314D4467674F4455754E4467774C4445784E4334774D445967 0x4F PREVRANDAO 0x49 PUSH22 0x4D6A51774C4445784E4334334D6A4D674F4441754F54 0x49 ORIGIN 0x49 GASLIMIT 0x4D PUSH8 0x4D5445304C6A6B34 0x4E MSTORE8 COINBASE CALLVALUE 0x4D NUMBER CALLVALUE ADDRESS 0x4E PREVRANDAO MSIZE PUSH20 0x4D5445314C6A49774D4341334F5334774E7A4D73 0x4D SLOAD GASLIMIT BALANCE 0x4C PUSH11 0x49774D4341334E7934344E PUSH27 0x5567517941784D5455754D6A4177494463324C6A51794F4377784D SLOAD SSTORE PUSH22 0x4E444178494463314C6A557A4D5377784D5455754F44 COINBASE PUSH24 0x494463314C6A49774D434244494445784E6934784E6A6B67 0x4E PUSH27 0x51754F446B304C4445784E6934304D4463674E7A4D754F546B774C PREVRANDAO GASLIMIT PUSH25 0x4E6934304D5467674E7A49754F44557849454D674D5445324C PUSH11 0x51794E7941334D5334344D PUSH27 0x4D734D5445324C6A59354E5341334D4334794F4441734D5445334C PUSH11 0x41784D6941324F5334304D PREVRANDAO COINBASE PUSH8 0x517941784D546375 0x4E PUSH27 0x6B33494459334C6A49794D5377784D5463754D7A6331494459324C PUSH11 0x59784F5377784D5459754E PREVRANDAO MSIZE ADDRESS 0x49 PREVRANDAO MSIZE CALLVALUE 0x4C PUSH11 0x59784F53424E4D6A45794C PUSH11 0x6B794D4341334E6934324F SLOAD MSIZE PUSH8 0x517941794D546375 0x4D PUSH11 0x557A494463324C6A6B324E PUSH26 0x77794D5455754F544977494463354C6A63344D5377794D446B75 0x4E PUSH27 0x45774944677A4C6A51334E434244494449774F43347A4E4445674F PREVRANDAO MLOAD PUSH22 0x4D6A67344C4449774E7934794F446B674F4455754D44 0x49 PUSH27 0x4C4449774E79347A4E7A4D674F4455754D54413349454D674D6A41 CALLER 0x4C PUSH11 0x63794E5341344E5334304E SLOAD PUSH8 0x734D6A457A4C6A4D CALLVALUE 0x4D PUSH26 0x41344D5334334D4463734D6A45304C6A51314F4341344D433430 0x4D SLOAD GASLIMIT PUSH8 0x517941794D545975 0x4F PREVRANDAO PUSH8 0x35494463334C6A51 CALLER 0x4E PUSH26 0x77794D5459754E444978494463324C6A4D324E7977794D544975 0x4F PREVRANDAO COINBASE PUSH24 0x494463324C6A51344D69424D494449784D4334324D444167 0x4E PUSH27 0x59754E545578494449784D6934354D6A41674E7A59754E6A6B3249 GASLIMIT ADDRESS PUSH26 0x4D4459754F445935494463334C6A6B324D694244494449774E69 CALLVALUE PUSH26 0x4F4445674E7A67754E6A41784C4449774E53347A4F5467674E7A PUSH12 0x754E6A59784C4449774E4334 CALLDATALOAD 0x4D PREVRANDAO PUSH4 0x674F4441 PUSH22 0x4D7A453349454D674D6A41304C6A51784E6941344D43 CALLVALUE CALLDATALOAD 0x4E PUSH27 0x4D734D6A417A4C6A49304E6941344D5334344F5441734D6A41794C PUSH11 0x4D774E7941344D69347A4E SLOAD MLOAD PUSH8 0x517941794D444575 0x4D PUSH27 0x5934494467794C6A67784F5377794D4441754F4455304944677A4C PUSH11 0x49774D4377794D4445754D SLOAD MSIZE BALANCE 0x49 PREVRANDAO PUSH8 0x7A4C6A49774D4342 PREVRANDAO 0x49 PREVRANDAO 0x49 PUSH24 0x4D69347A4D546B674F444D754D6A41774C4449774E533478 0x4F PREVRANDAO MSIZE PUSH8 0x4F4445754D545179 0x4C PREVRANDAO 0x49 PUSH24 0x4E6934794E7A55674E7A6B754E544D7749454D674D6A4133 0x4C PUSH11 0x41344D6941334F43347A4D PUSH27 0x63734D6A41334C6A67314D7941334E7934334D6A63734D6A41354C PUSH11 0x41774D4341334E79347A4E PUSH27 0x5567544341794D5441754E6A4177494463324C6A67344E4341794D PREVRANDAO PUSH12 0x754D6A5935494463324C6A67 ADDRESS 0x4D PUSH10 0x4244494449774F433479 0x4F PREVRANDAO COINBASE PUSH8 0x4E7A59754F444578 0x4C PREVRANDAO 0x49 PUSH24 0x4E7934324E6A51674E7A63754D446B344C4449774E693434 0x4E PUSH11 0x6B674E7A63754F54597949 GASLIMIT ADDRESS PUSH25 0x4E7A41754D7A4133494467784C6A51354D434244494445334D MSTORE8 CALLVALUE PUSH24 0x4D6A59674F4445754E5463354C4445334D6934784D445967 0x4F PREVRANDAO GASLIMIT PUSH22 0x4E5463334C4445334D6934334D4463674F4445754E44 PUSH8 0x3249454D674D5463 PUSH27 0x4C6A4D774F4341344D53347A4F5455734D5463794C6A63794D4341 CALLVALUE 0x4D MSTORE8 CALLVALUE PUSH27 0x4D6A49734D5463784C6A51774D4341344D53347A4D6A5167517941 PUSH25 0x4E7A41754D446777494467784C6A4D794E6977784E6A6B754E SLOAD PUSH8 0x34494467784C6A51 PUSH24 0x4D5377784E7A41754D7A4133494467784C6A51354D43424E 0x4D SLOAD MSIZE ORIGIN 0x4C PUSH11 0x45354E5341344E4334794E SLOAD PUSH4 0x67517941 PUSH25 0x4E6A49754E544D34494467344C6A4D354E6977784E5459754D PREVRANDAO 0x49 PUSH24 0x49446B774C6A4D7A4E7977784E5449754D7A553549446734 0x4C PUSH11 0x4D334F434244494445314D MSTORE8 CALLVALUE CALLDATALOAD 0x4D PREVRANDAO MLOAD PUSH8 0x4F4467754D544D30 0x4C PREVRANDAO GASLIMIT BALANCE 0x4D MSTORE8 CALLVALUE ADDRESS 0x4E PREVRANDAO GASLIMIT PUSH8 0x4F4467754D444931 0x4C PREVRANDAO GASLIMIT BALANCE 0x4D MSTORE8 CALLVALUE PUSH27 0x4D7A45674F4467754D544D3149454D674D5455774C6A63794F4341 CALLVALUE 0x4F NUMBER CALLVALUE CALLER 0x4D PUSH27 0x67734D54557A4C6A4D334F5341344F53347A4E4441734D5455324C PUSH11 0x59774D4341344F53347A4D PUSH27 0x4567517941784E6A45754E6A497A494467354C6A4D784F4377784E PUSH11 0x51754D544131494467334C PUSH11 0x67354E4377784E6A63754F SLOAD 0x4D PUSH24 0x494467794C6A677A4D534244494445324F5334304E7A4967 0x4F PREVRANDAO COINBASE PUSH22 0x4E7A6B794C4445324F4334324F4459674F4445754E44 0x4D CALLER 0x4C PREVRANDAO GASLIMIT ORIGIN 0x4E PUSH10 0x34784F5455674F445175 0x4D PUSH11 0x5533494530784E7A55754E PUSH11 0x4177494467794C6A55304D NUMBER TIMESTAMP PREVRANDAO 0x49 PREVRANDAO GASLIMIT CALLER 0x4E PUSH10 0x347A4E7A41674F444D75 0x4D SLOAD COINBASE CALLER 0x4C PREVRANDAO GASLIMIT CALLER 0x4E PUSH26 0x34794D6A55674F444D754E7A59314C4445334E7934314D444167 0x4F PREVRANDAO MLOAD PUSH22 0x4D44417949454D674D5463334C6A67324E6941344E43 CALLVALUE PUSH27 0x4D5459734D5463344C6A41774D4341344E4334794F4459734D5463 CALLVALUE 0x4C PUSH11 0x41774D4341344D7934344F SLOAD COINBASE PUSH8 0x517941784E7A6775 0x4D PREVRANDAO COINBASE PUSH24 0x4944677A4C6A55354D6977784E7A63754D7A49314944677A 0x4C PUSH11 0x41774E5377784E7A59754E SLOAD COINBASE PUSH24 0x494467794C6A55344E534244494445334E4334794D6A4567 0x4F PREVRANDAO GASLIMIT PUSH22 0x4E4449304C4445334E4334774E7A59674F4445754E44 GASLIMIT CALLER 0x4C PREVRANDAO GASLIMIT CALLER 0x4E MSTORE8 CALLVALUE ORIGIN 0x4D PREVRANDAO COINBASE PUSH8 0x4F4449754E545177 0x49 GASLIMIT ADDRESS PUSH25 0x4F5441754D444535494467794C6A55334F434244494445344F MSTORE8 CALLVALUE ADDRESS 0x4E SLOAD MLOAD PUSH8 0x4F444D754D6A5534 0x4C PREVRANDAO GASLIMIT CALLDATALOAD 0x4D NUMBER CALLVALUE CALLER 0x4E PUSH11 0x6B674F4455754D6A45334C PREVRANDAO GASLIMIT CALLDATALOAD 0x4D MSTORE8 CALLVALUE CALLER 0x4E PUSH27 0x41674F4455754D54673349454D674D546B794C6A41774E6941344E MSTORE8 CALLVALUE PUSH25 0x4F4441734D546B784C6A59354E5341344E4334334D7A41734D SLOAD PUSH12 0x784C6A41334E7941344E4334 PUSH25 0x4F446367517941784F4467754F444135494467794C6A45354D PUSH10 0x77784F5445754E6A6731 0x49 PREVRANDAO PUSH8 0x784C6A67794E5377 PUSH25 0x4F5455754D6A6B314944677A4C6A59304F534244494445354E PUSH10 0x34784E5467674F445175 0x4D PREVRANDAO PUSH8 0x314C4445354F5334 PUSH26 0x4D6A55674F4451754D446B354C4445354F5334354D4449674F44 0x4D PUSH22 0x4E6A593549454D674D6A41774C6A45344E6941344D79 CALLVALUE ADDRESS 0x4F PREVRANDAO PUSH12 0x734D546B354C6A51774D6941 CALLVALUE 0x4D PUSH26 0x347A4E446B734D546B344C6A45774D6941344D79347A4E446367 MLOAD PUSH26 0x41784F5459754F444D324944677A4C6A4D304E5377784F545575 0x4D PREVRANDAO PUSH8 0x774944677A4C6A45 PUSH25 0x4E7977784F5451754D6A4177494467794C6A677A4F53424449 PREVRANDAO GASLIMIT CALLDATALOAD 0x4D MSTORE8 CALLVALUE PUSH27 0x4E6A41674F4445754F54517A4C4445354D4334314F4459674F4445 PUSH22 0x4F446B304C4445354D4334774D546B674F4449754E54 PUSH4 0x34494530 PUSH25 0x4E7A63754D544532494467314C6A63354D794244494445334E NUMBER CALLVALUE PUSH27 0x4E5455674F446B754E4467334C4445324F5334304D7A4D674F5445 PUSH22 0x4D6A63354C4445324D5334794D4441674F5445754E54 PUSH8 0x35494577674D5455 ADDRESS 0x4C PUSH11 0x59774D4341354D5334344D PUSH27 0x67674D5459774C6A67354D5341354D5334354D546B67517941784E PUSH11 0x59754E7A4D7A49446B784C PUSH11 0x6B354E4377784E6A63754D PUSH27 0x637849446B784C6A6B794F5377784E6A6B754F444D3249446B784C PUSH11 0x41774D534244494445334D PUSH26 0x34784E6A63674F446B754E7A51334C4445334F4334324E6A6367 0x4F PREVRANDAO SSTORE PUSH22 0x4E7A45324C4445334E7934354E6A67674F4455754D44 MLOAD PUSH25 0x49454D674D5463334C6A67334E6941344E4334354E5445734D SLOAD PUSH4 0x334C6A51 CALLDATALOAD 0x4D PUSH10 0x41344E5334794F544173 0x4D SLOAD PUSH4 0x334C6A45 PUSH25 0x4E6941344E5334334F544D67545445354D7934774D5451674F PREVRANDAO SSTORE PUSH22 0x4E7A677749454D674D546B7A4C6A51304E6941344E69 CALLVALUE PUSH25 0x4D4463734D546B304C6A517A4D4341344E69347A4E6A6B734D SLOAD PUSH12 0x314C6A49774D4341344E6934 PUSH27 0x4E6A4967517941784F5459754E7A6B31494467324C6A4D304F4377 PUSH25 0x4F5459754D445533494467314C6A6B794E5377784F544D754E PUSH11 0x4530494467314C6A51314D PUSH26 0x4244494445354D69347A4D6A4D674F4455754D6A41304C444535 0x4D PUSH10 0x34794F4449674F445575 0x4D PUSH11 0x49334C4445354D7934774D SLOAD MLOAD PUSH8 0x4F4455754E7A6777 0x49 GASLIMIT ADDRESS PUSH26 0x4D4451754E6A4177494467314C6A51344E534244494449774E43 CALLVALUE PUSH25 0x4E6A41674F4455754E546B784C4449774D7934324D6A6B674F PREVRANDAO SSTORE PUSH22 0x4F4451774C4449774D7934304D6A41674F4459754D44 0x4D CALLDATALOAD 0x49 GASLIMIT 0x4D PUSH8 0x4D6A41794C6A6777 0x4F NUMBER COINBASE CALLVALUE 0x4E PUSH10 0x34324D6A45734D6A4130 0x4C PUSH11 0x51344E5341344E6934304D PUSH27 0x63734D6A41314C6A59774D4341344E5334344D444167517941794D PREVRANDAO MSIZE PUSH22 0x4E546730494467314C6A497A4E7977794D4459754D54 PUSH4 0x78494467 BALANCE 0x4C PUSH11 0x45774E7977794D4451754E PUSH11 0x4177494467314C6A51344E MSTORE8 TIMESTAMP 0x4E 0x4D SLOAD MLOAD ADDRESS 0x4C PUSH11 0x4D334E5341344E7934794D PUSH11 0x5567517941784E444D754D PUSH27 0x4D34494467344C6A49324D6977784E444D754E544931494467344C PUSH11 0x67314E6977784E4455754D PREVRANDAO 0x49 BALANCE 0x49 PREVRANDAO PUSH8 0x354C6A49344F5342 PREVRANDAO 0x49 PREVRANDAO GASLIMIT ADDRESS 0x4E MSTORE8 CALLVALUE ORIGIN 0x4E PUSH27 0x45674F446B754E4463324C4445304E7934794F4441674F446B754F SLOAD PUSH4 0x794C4445 ADDRESS 0x4F NUMBER CALLVALUE ORIGIN 0x4D PREVRANDAO COINBASE PUSH8 0x4F5441754D7A6B78 0x49 GASLIMIT 0x4D PUSH8 0x4D5451354C6A6B79 0x4D NUMBER COINBASE CALLDATALOAD 0x4D NUMBER CALLVALUE CALLVALUE 0x4D SLOAD GASLIMIT PUSH20 0x4D5455784C6A67784D4341354D5334794E446373 0x4D SLOAD SSTORE PUSH26 0x4C6A67774D4341354D53347A4E6A4567544341784E5451754E6A COINBASE PUSH24 0x49446B784C6A55324F4341784E544D754D44417749446B78 0x4C PUSH11 0x41784E534244494445314D PUSH10 0x34784D6A41674F544175 0x4E PUSH27 0x45774C4445314D4334354E5441674F5441754E4451334C4445314D NUMBER CALLVALUE ADDRESS 0x4D PREVRANDAO COINBASE PUSH8 0x4F5441754E444934 0x49 GASLIMIT 0x4D PUSH8 0x4D5451354C6A6731 0x4D NUMBER COINBASE CALLDATALOAD 0x4D NUMBER CALLVALUE ADDRESS 0x4D SLOAD COINBASE PUSH20 0x4D5451344C6A67344E4341354D4334784D6A5973 0x4D SLOAD MLOAD CALLVALUE 0x4C PUSH11 0x49314E4341344F5334334F SLOAD PUSH8 0x67517941784E4463 PUSH22 0x4E6A4930494467354C6A51324F5377784E4459754F44 PUSH4 0x78494467 CALLDATALOAD 0x4C PUSH11 0x49774D4377784E4459754E SLOAD PUSH8 0x77494467354C6A49 PUSH24 0x4D434244494445304E4334344E5463674F446B754D6A4177 0x4C PREVRANDAO GASLIMIT ADDRESS 0x4D PUSH26 0x34344E7A63674F4467754D7A6B354C4445304E4334324D446B67 0x4F PREVRANDAO PUSH4 0x754E546B PUSH24 0x49454D674D5451314C6A4D314D5341344E6934334E7A4173 0x4D SLOAD MLOAD CALLER 0x4C PUSH11 0x55794F4341344E6934314D PREVRANDAO PUSH8 0x734D5451344C6A49 PUSH26 0x4D4341344E7934784E545567517941784E4467754E4449354944 PUSH8 0x334C6A4D314D4377 PUSH25 0x4E446B754D445577494467334C6A59794E6977784E446B754E PUSH11 0x4177494467334C6A63324F MSTORE8 TIMESTAMP PREVRANDAO 0x49 PREVRANDAO GASLIMIT BALANCE 0x4D NUMBER CALLVALUE PUSH27 0x4E5467674F4463754F5459314C4445314D4334794E6A45674F4463 PUSH22 0x4F444D314C4445304F5334794D4441674F4463754D6A 0x4D PUSH25 0x49454D674D5451334C6A4D314D7941344E6934784E7A6B734D SLOAD MLOAD BALANCE 0x4C PUSH11 0x51794D7941344E6934784E PUSH27 0x63734D5451304C6A4D334E5341344E7934794D6A5567545445354F NUMBER CALLVALUE PUSH27 0x4D5445674F4459754E6A6B7A49454D674D546B354C6A49314D5341 CALLVALUE 0x4E PUSH10 0x34334E7A67734D6A4177 0x4C PUSH11 0x59354D5341344E6934334E PUSH27 0x63734D6A41784C6A55784D5341344E6934324F544567517941794D PREVRANDAO 0x49 PUSH22 0x4D7A4D77494467324C6A59774E5377794D4445754E54 MSIZE PUSH24 0x494467324C6A557A4E6977784F546B754F44417749446732 0x4C PUSH11 0x557A4E794244494445354F NUMBER CALLVALUE PUSH24 0x4E4441674F4459754E544D354C4445354E79347A4E7A4167 0x4F PREVRANDAO MSIZE PUSH22 0x4E6A41354C4445354F43347A4D5445674F4459754E6A PUSH12 0x7A494530784D4463754D6A41 PUSH24 0x494445794D5334334E546367517941784D4463754D6A4177 0x49 PREVRANDAO GASLIMIT PUSH26 0x4D6934794F4451734D5441324C6A6B7A4D4341784D6A49754F44 GASLIMIT CALLVALUE 0x4C PREVRANDAO GASLIMIT PUSH24 0x4E6934324D4441674D5449794C6A6B304E53424449444577 0x4E PUSH10 0x34774F5455674D54497A 0x4C PUSH11 0x457A4F4377784D4459754D PREVRANDAO COINBASE PUSH24 0x494445794E4334304D5449734D5441324C6A41774D434178 0x4D PUSH27 0x41754F546733494577674D5441324C6A41774D4341784D7A67754F PREVRANDAO COINBASE PUSH24 0x494445774E4334334D4441674D544D344C6A67784E434244 0x49 PREVRANDAO GASLIMIT PUSH24 0x4D7934354F4455674D544D344C6A67794D6977784D444975 0x4F SLOAD SSTORE PUSH24 0x4944457A4F5334774F4459734D5441794C6A51774D434178 0x4D PUSH27 0x6B754E44417749454D674D5441784C6A67314D4341784D7A6B754E PUSH27 0x45304C4445774D5334774E7A49674D544D354C6A6B334F4377784D PREVRANDAO COINBASE PUSH22 0x4E6A63784944457A4F5334354F445967517941784D44 COINBASE PUSH22 0x4D6A63784944457A4F5334354F5451734F546B754E6A PUSH4 0x7A494445 ADDRESS 0x4D NUMBER CALLVALUE PUSH26 0x4E7A41734F546B754D7A517A494445304D4334324D4441675179 COINBASE CALLDATALOAD 0x4F MSTORE8 CALLVALUE PUSH24 0x4D544D674D5451774C6A6B7A4D4377354F43347A4D444167 0x4D SLOAD MLOAD PUSH25 0x4C6A49774D4377354E7934334E546B674D5451784C6A49774D NUMBER TIMESTAMP PREVRANDAO 0x49 PREVRANDAO PUSH12 0x334C6A49784F4341784E4445 PUSH22 0x4D6A41774C446B324C6A59334D5341784E4445754E44 PUSH4 0x774C446B ORIGIN 0x4C PUSH11 0x55304E5341784E4445754F PREVRANDAO COINBASE PUSH24 0x49454D674F5459754E444131494445304D6934784E6A5173 0x4F SLOAD SSTORE PUSH22 0x4F444177494445304D6934304D4441734F5455754D44 COINBASE ORIGIN 0x49 PREVRANDAO GASLIMIT ADDRESS 0x4D PUSH10 0x34304D44416751794135 0x4E NUMBER CALLVALUE PUSH26 0x4F4463674D5451794C6A51774D4377354D7934304E7A51674D54 MLOAD PUSH26 0x4C6A59334D4377354D7934794D4441674D54517A4C6A41774D43 TIMESTAMP PREVRANDAO 0x49 PREVRANDAO PUSH12 0x794C6A6B794E6941784E444D PUSH22 0x4D7A4D774C446B794C6A51324E4341784E444D754E6A COINBASE PUSH24 0x4C446B794C6A45334E4341784E444D754E6A417749454D67 0x4F SLOAD GASLIMIT PUSH22 0x4F44677A494445304D7934324D4441734F5445754D7A PUSH8 0x77494445304D7934 CALLDATALOAD 0x4F PREVRANDAO COINBASE PUSH20 0x4F5445754D445531494445304E4334304E444D67 MLOAD PUSH26 0x41354D4334334D7A41674D5451304C6A6B774E7977354D433479 0x4E PUSH11 0x67674D5451314C6A45324E PUSH10 0x77354D4334774D6A6B67 0x4D SLOAD MLOAD BALANCE 0x4C PUSH11 0x41784F434244494467354C PUSH11 0x63354D4341784E4451754F PREVRANDAO PUSH4 0x774C4467 CALLDATALOAD 0x4C PUSH11 0x51344E6941784E4455754D PREVRANDAO 0x4D PUSH25 0x4C4467354C6A4D314E4341784E4455754D7A633149454D674F PREVRANDAO PUSH12 0x754D6A4979494445304E5334 CALLER 0x4D SLOAD PUSH12 0x734F4467754F544135494445 ADDRESS 0x4E PUSH10 0x34774D4449734F446775 0x4E PUSH11 0x5533494445304E6934774D PREVRANDAO MLOAD PUSH8 0x517941344F433430 0x4D PREVRANDAO MSIZE PUSH8 0x4D5451324C6A4177 0x4E PUSH26 0x77344E7934314F5441674D5451324C6A597A4E7977344E693434 0x4E PREVRANDAO MLOAD PUSH8 0x4D5451334C6A5177 0x4E NUMBER TIMESTAMP PREVRANDAO 0x49 PREVRANDAO PUSH8 0x324C6A41354F4341 PUSH25 0x4E4467754D5463794C4467314C6A49314D4341784E4467754F PREVRANDAO COINBASE PUSH24 0x4C4467304C6A6B314F5341784E4467754F44417749454D67 0x4F PREVRANDAO MLOAD PUSH22 0x4E6A5935494445304F4334344D4441734F444D754E54 PUSH12 0x34494445304F5334324D446B PUSH20 0x4F4449754E546778494445314D4334314F546767 MLOAD PUSH26 0x41344D5334314E6A51674D5455784C6A55344E6977344D433479 0x4D PREVRANDAO PUSH4 0x674D5455 PUSH26 0x4C6A63774E5377334F5334314E6A59674D54557A4C6A41344E43 TIMESTAMP PREVRANDAO 0x49 PREVRANDAO PUSH4 0x344C6A6B PUSH26 0x4E5341784E544D754E44597A4C4463344C6A51774D4341784E54 MLOAD PUSH22 0x4D446B304C4463344C6A51774D4341784E5451754E44 PUSH8 0x3249454D674E7A67 PUSH22 0x4E444177494445314E4334344E7A6B734E7A67754D6A COINBASE CALLER 0x49 PREVRANDAO GASLIMIT BALANCE 0x4E MSTORE8 CALLVALUE PUSH26 0x4D4441734E7A63754F546378494445314E5334794D4441675179 COINBASE CALLER 0x4E PUSH26 0x34334D7A59674D5455314C6A49774D4377334E7934794F544967 0x4D SLOAD SSTORE BALANCE 0x4C PUSH11 0x51794E5377334E6934354F PREVRANDAO SSTORE PUSH8 0x4D5455314C6A6377 0x4D NUMBER TIMESTAMP PREVRANDAO 0x49 PREVRANDAO PUSH4 0x304C6A63 BALANCE 0x4D PUSH10 0x41784E5463754E7A417A 0x4C PREVRANDAO PUSH4 0x784C6A59 BALANCE 0x4F MSTORE8 COINBASE PUSH25 0x4E6A41754D4441774C4463784C6A45354E7941784E6A41754D PREVRANDAO COINBASE PUSH24 0x49454D674E7A41754F546334494445324D4334774D444173 0x4E PUSH27 0x41754F444177494445324D4334794E7A41734E7A41754F44417749 PREVRANDAO GASLIMIT ORIGIN 0x4D NUMBER CALLVALUE ORIGIN 0x4D PREVRANDAO COINBASE PUSH8 0x517941334D433434 0x4D PREVRANDAO COINBASE PUSH8 0x4D5459774C6A6B7A 0x4D NUMBER PUSH24 0x334D4334324E446B674D5459784C6A49774D4377334D4334 ADDRESS 0x4E PUSH11 0x55674D5459784C6A49774D NUMBER TIMESTAMP PREVRANDAO 0x49 PREVRANDAO MSIZE CALLDATALOAD 0x4C PUSH11 0x67334E5341784E6A45754D PUSH11 0x41774C4459324C6A41774D NUMBER COINBASE PUSH25 0x4E6A55754D6A41794C4459324C6A41774D4341784E6A55754F PREVRANDAO GASLIMIT PUSH26 0x49454D674E6A59754D444177494445324E6934784D7A55734E6A SSTORE PUSH22 0x4F445530494445324E69347A4E5455734E6A55754E6A PUSH4 0x32494445 ORIGIN 0x4E PUSH10 0x347A4D44416751794132 0x4E MSTORE8 CALLVALUE PUSH27 0x4D6A41674D5459324C6A45354D4377324D6934304D4455674D5459 CALLDATALOAD 0x4C PUSH11 0x49784E7977324D6934304D PREVRANDAO 0x49 PUSH8 0x4D5459354C6A6377 0x4D NUMBER TIMESTAMP PREVRANDAO 0x49 PREVRANDAO MSIZE PUSH26 0x4C6A51774D5341784E6A6B754F4459314C4459794C6A457A4D79 COINBASE PUSH25 0x4E7A41754D4441774C4459784C6A67774F4341784E7A41754D PREVRANDAO COINBASE PUSH24 0x49454D674E6A45754E446779494445334D4334774D444173 0x4E PUSH11 0x45754D544179494445334D NUMBER CALLVALUE ADDRESS 0x4E SLOAD COINBASE PUSH20 0x4E6A41754F545930494445334D5334774D444167 MLOAD PUSH26 0x41324D4334344D6A59674D5463784C6A55314D4377324D433430 0x4E PUSH27 0x55674D5463794C6A41774D4377324D4334784F4451674D5463794C PUSH11 0x41774D434244494455354C PUSH11 0x67354D6941784E7A49754D PREVRANDAO COINBASE PUSH24 0x4C4455354C6A55304D4341784E7A49754D7A59774C445535 0x4C PUSH11 0x51774D4341784E7A49754F PREVRANDAO COINBASE PUSH24 0x49454D674E546B754D6A5977494445334D7934794E444173 0x4E SLOAD PUSH8 0x754F446B34494445 CALLER 0x4D PUSH26 0x34324D4441734E5467754E546B32494445334D7934324D444167 MLOAD PUSH26 0x41314F4334794F544D674D54637A4C6A59774D4377314E793433 0x4F PREVRANDAO 0x4D PUSH8 0x4D54637A4C6A6B33 0x4E MSTORE8 PUSH24 0x314E7934304E6A49674D5463304C6A517A4D794244494455 ORIGIN 0x4C PUSH11 0x6B354D6941784E7A55754D SLOAD COINBASE ADDRESS 0x4C PREVRANDAO SSTORE ORIGIN 0x4C PUSH11 0x55794E6941784E7A55754D PUSH11 0x51304C4455314C6A41314F MSTORE8 COINBASE PUSH25 0x4E7A55754D54557A49454D674E544D754E7A6731494445334E MSTORE8 CALLVALUE PUSH24 0x4E7A55734E544D754D44457A494445334E5334794E445573 0x4E SLOAD 0x49 PUSH22 0x4E446734494445334E5334334D6A4567517941314D69 CALLVALUE PUSH24 0x4E5467674D5463324C6A45784D4377314D5334774E6A6367 0x4D SLOAD PUSH4 0x324C6A51 PUSH24 0x4E5377314D4334784E6A6B674D5463324C6A51784D794244 0x49 PREVRANDAO MLOAD CALLDATALOAD 0x4C PUSH11 0x4D774E6941784E7A59754E PREVRANDAO 0x49 PUSH24 0x4C4451344C6A49314D5341784E7A59754E6A6B774C445133 0x4C PUSH11 0x67794E4341784E7A63754D PREVRANDAO GASLIMIT PUSH27 0x49454D674E4463754D7A6B32494445334E79347A4D7A59734E4459 PUSH22 0x4D7A6730494445334E7934324D4441734E4455754E54 PUSH4 0x7A494445 CALLER 0x4E PUSH26 0x34324D444167517941304E4334334E5441674D5463334C6A5977 0x4D NUMBER PUSH24 0x304D7934344E7A67674D5463334C6A67324E5377304D7934 ORIGIN 0x4D PREVRANDAO COINBASE PUSH8 0x4D5463344C6A4977 0x4D NUMBER TIMESTAMP PREVRANDAO 0x49 PREVRANDAO MLOAD PUSH27 0x4C6A4D794E6941784E7A67754E544D774C4451794C6A55784E6941 PUSH25 0x4E7A67754F4441774C4451784C6A67774D4341784E7A67754F PREVRANDAO COINBASE PUSH24 0x49454D674E4445754D446730494445334F4334344D444173 0x4E PREVRANDAO COINBASE PUSH22 0x4D6A6330494445334F5334774E7A41734E4441754D44 COINBASE PUSH24 0x494445334F5334304D4441675179417A4F5334334D6A4567 0x4D SLOAD PUSH4 0x354C6A63 PUSH27 0x4E79777A4F4334344E446B674D5467774C6A41774D43777A4F4334 PUSH24 0x4D544D674D5467774C6A41774D43424449444D334C6A417A 0x4F NUMBER COINBASE PUSH25 0x4F4441754D4441774C444D324C6A49334E7941784F4441754D PUSH11 0x637A4C444D314C6A67774F MSTORE8 COINBASE PUSH25 0x4F4441754E7A6B7849454D674D7A55754E444531494445344D MSTORE8 CALLVALUE PUSH26 0x4D6A55734D7A51754F545534494445344D5334304F5463734D7A MLOAD PUSH22 0x4E7A6B79494445344D53347A4F5455675179417A4E43 CALLVALUE ORIGIN 0x4D PUSH11 0x59674D5467784C6A49354D PUSH26 0x777A4E4334794E6A67674D5467784C6A51334E79777A4D793435 0x4F SLOAD MSIZE PUSH8 0x4D5467784C6A6777 0x4E NUMBER TIMESTAMP PREVRANDAO 0x49 PREVRANDAO 0x4D PUSH27 0x4C6A63794E4341784F4449754D544D794C444D794C6A6B334F4341 PUSH25 0x4F4449754E4441774C444D794C6A4D7A4F4341784F4449754E PREVRANDAO COINBASE PUSH24 0x49454D674D7A45754E6A637A494445344D6934304D444173 0x4D PUSH27 0x45754D446332494445344D6934324E5463734D7A41754F54513149 PREVRANDAO GASLIMIT CALLVALUE 0x4D PUSH26 0x34774D4441675179417A4D4334344D5455674D54677A4C6A4D7A 0x4F NUMBER PUSH24 0x7A4D4334794D546B674D54677A4C6A59774D4377794F5334 BALANCE 0x4F PREVRANDAO COINBASE PUSH8 0x4D54677A4C6A5977 0x4D NUMBER TIMESTAMP PREVRANDAO 0x49 PREVRANDAO 0x49 CALLVALUE 0x4C PUSH11 0x67334E7941784F444D754E PUSH11 0x41774C4449344C6A49784F MSTORE8 COINBASE PUSH25 0x4F444D754F54497A4C4449334C6A67314D4341784F4451754E PREVRANDAO MLOAD CALLDATALOAD 0x49 GASLIMIT 0x4D PUSH8 0x4D6A63754E444134 0x49 PREVRANDAO GASLIMIT CALLVALUE 0x4E MSTORE8 CALLVALUE PUSH24 0x4F4445734D6A59754F545579494445344E5334794E545173 0x4D PUSH11 0x59754D445935494445344E MSTORE8 CALLVALUE PUSH25 0x4D6A5567517941794E5334794D4463674D5467304C6A6B354F NUMBER PUSH24 0x794E4334354D7A67674D5467314C6A41354E4377794E5334 PUSH24 0x4F4451674D5467314C6A51334E534244494449314C6A4535 0x4E MSTORE8 COINBASE PUSH25 0x4F4455754E7A59304C4449314C6A457A4D5341784F4459754D PREVRANDAO GASLIMIT BALANCE 0x4C PREVRANDAO 0x49 ADDRESS 0x4C PUSH11 0x6B304D7941784F4459754D PREVRANDAO 0x4D PUSH27 0x49454D674D6A4D754D446777494445344E6934794D5451734D6A49 PUSH22 0x4E6A557A494445344E69347A4E6A49734D6A49754D7A 0x4D PUSH25 0x494445344E6934354D7A6367517941794D6934784D6A63674D SLOAD PUSH8 0x334C6A4D774D6977 PUSH26 0x4D5334314D5451674D5467334C6A59774D4377794D4334354E6A PUSH8 0x674D5467334C6A59 PUSH24 0x4D434244494449774C6A51794D6941784F4463754E6A4177 0x4C PREVRANDAO GASLIMIT CALLDATALOAD 0x4C PUSH11 0x67334D5341784F4463754F PREVRANDAO PUSH4 0x774C4445 CALLDATALOAD 0x4C PUSH11 0x63304E5341784F4467754D PUSH11 0x417749454D674D546B754E PUSH11 0x4534494445344F4334314D PUSH27 0x41734D546B754D446B7A494445344F4334344D4441734D5467754E SLOAD PUSH4 0x33494445 CALLVALUE 0x4F NUMBER CALLVALUE CALLVALUE 0x4D PREVRANDAO COINBASE PUSH8 0x517941784F433477 0x4E PUSH11 0x49674D5467344C6A67774D NUMBER PUSH24 0x784E7934304F5459674D5467354C6A41794E5377784E7934 PUSH27 0x4D6A41674D5467354C6A4D774D434244494445334C6A45304E4341 PUSH25 0x4F446B754E5463324C4445324C6A45304E5341784F5441754D PUSH11 0x45344C4445314C6A45774D NUMBER COINBASE PUSH25 0x4F5441754E7A493449454D674D5451754D445531494445354D MSTORE8 CALLVALUE PUSH26 0x4D7A6B734D544D754D6A4177494445354D5334344D446B734D54 0x4D PUSH22 0x4D6A4177494445354D5334354F545967517941784D79 CALLVALUE PUSH26 0x4D4441674D546B794C6A45344D7977784D6934324E6A41674D54 PUSH12 0x794C6A51314E5377784D6934 PUSH24 0x4D4441674D546B794C6A59774D434244494445784C6A4D30 0x4D NUMBER COINBASE PUSH25 0x4F5449754E7A51314C4445774C6A67774D4341784F544D754D PREVRANDAO PUSH4 0x324C4445 PUSH24 0x4C6A67774D4341784F544D754D7A4D3249454D674D544175 0x4F PREVRANDAO COINBASE PUSH24 0x494445354D7934344D444D734F5334794D5459674D546B31 0x4C PUSH11 0x41794F4377344C6A63324F NUMBER COINBASE PUSH25 0x4F5451754F54413349454D674F4334324E4441674D546B304C PUSH11 0x67334D7977334C6A49354D NUMBER COINBASE PUSH25 0x4F5459754D4441304C4455754E7A5934494445354E7934304D PUSH11 0x4167517941304C6A49304E MSTORE8 COINBASE PUSH25 0x4F5467754F444D334C4449754F446332494445354F5334354F SLOAD MSIZE PUSH20 0x4D6934334D6A55674D546B354C6A6B354F434244 0x49 PREVRANDAO 0x49 PUSH22 0x4D6A4131494449774D4334774D4449734C5441754D54 SSTORE BALANCE 0x49 PREVRANDAO 0x49 PUSH24 0x4D69347A4E7A67734D4334784D4451674D6A41794C6A597A 0x4E PUSH26 0x4244494441754D6A5132494449774D6934334E7A6B734D433432 0x4D SLOAD GASLIMIT PUSH8 0x4D6A41794C6A5930 0x4F MSTORE8 PUSH24 0x774C6A6B784E5341794D4449754D7A513449454D674D5334 PUSH26 0x4D546B674D6A41794C6A41304E6977794C6A517A4E4341794D44 COINBASE PUSH22 0x4F546B774C444D754E6A4532494449774D4334774D44 COINBASE PUSH8 0x517941304C6A6335 0x4E PUSH26 0x41784F546B754D4445774C4459754D446733494445354E793434 0x4F PREVRANDAO SSTORE PUSH20 0x4E6934304F4449674D546B334C6A55774D434244 0x49 PREVRANDAO MSIZE PUSH22 0x4F446333494445354E7934784D5455734E79347A4D7A PUSH8 0x674D546B324C6A67 PUSH24 0x4D4377334C6A55774E7941784F5459754F44417749454D67 0x4E PUSH26 0x34324E7A59674D546B324C6A67774D4377344C6A63304D434178 0x4F SLOAD SSTORE PUSH22 0x4F546B774C446B754F446378494445354E5334774D44 COINBASE PUSH8 0x517941784D533477 0x4D PREVRANDAO 0x4D PUSH8 0x4D546B304C6A4178 0x4D NUMBER PUSH24 0x784D6934784D4445674D546B7A4C6A49774D4377784D6934 PUSH27 0x4D5445674D546B7A4C6A49774D434244494445794C6A55794D4341 PUSH25 0x4F544D754D6A41774C44457A4C6A45794F4341784F5449754F PREVRANDAO SSTORE CALLER 0x4C PREVRANDAO GASLIMIT PUSH27 0x4C6A59324D5341784F5449754E444D3449454D674D5451754D546B ADDRESS 0x49 PREVRANDAO GASLIMIT CALLDATALOAD 0x4D PUSH10 0x34774D546B734D545575 0x4D PUSH27 0x517A494445354D5334794F4463734D5459754D6A4531494445354D NUMBER CALLVALUE CALLVALUE 0x4D SLOAD 0x49 PUSH8 0x517941784E793477 0x4F PREVRANDAO PUSH4 0x674D546B PUSH24 0x4C6A4D7A4E7977784F4334314D6A41674D5467354C6A5578 0x4F NUMBER PUSH24 0x784F5334304D4441674D5467344C6A6B354D694244494449 PUSH24 0x4C6A49344D4341784F4467754E4459314C4449784C6A4935 0x4D PUSH26 0x41784F4467754D4449334C4449784C6A59314D5341784F446775 0x4D PREVRANDAO GASLIMIT CALLER 0x49 GASLIMIT 0x4D PUSH8 0x4D6A49754D444135 0x49 PREVRANDAO GASLIMIT CALLVALUE 0x4F NUMBER CALLVALUE PUSH24 0x4D4467734D6A49754E544932494445344E7934334D7A4173 0x4D PUSH11 0x49754F444177494445344E PUSH26 0x34304D444167517941794D7934774E7A51674D5467334C6A4133 0x4D NUMBER PUSH24 0x794D7934324F5449674D5467324C6A67774D4377794E4334 PUSH25 0x4E7A4D674D5467324C6A67774D434244494449304C6A59314E NUMBER COINBASE PUSH25 0x4F4459754F4441774C4449314C6A4D354E6941784F4459754E SLOAD 0x4D ORIGIN 0x4C PREVRANDAO 0x49 BALANCE 0x4C PUSH11 0x67794E4341784F4459754D PUSH11 0x457A49454D674D6A59754D PUSH11 0x5578494445344E5334344F SLOAD COINBASE PUSH20 0x4D6A59754F445532494445344E5334324D6A4173 0x4D PUSH11 0x63754D545935494445344E MSTORE8 CALLVALUE ORIGIN 0x4D SLOAD 0x4D PUSH8 0x517941794E793430 0x4F PREVRANDAO GASLIMIT PUSH8 0x4D5467314C6A5977 0x4E PUSH10 0x77794F4334774D6A4567 0x4D SLOAD PUSH8 0x314C6A4D324D5377 PUSH26 0x4F43347A4E6A6B674D5467314C6A41324F434244494449344C6A PUSH4 0x784E6941 PUSH25 0x4F4451754E7A63314C4449354C6A6B774D4341784F4451754D PUSH11 0x457A4C444D784C6A41774D NUMBER COINBASE PUSH25 0x4F444D754F44453549454D674D7A49754D544177494445344D PUSH26 0x34304D6A51734D7A4D754F546B77494445344D6934314E7A4D73 0x4D PUSH27 0x55754D6A4177494445344D5334354D6A63675179417A4E6934304D SLOAD COINBASE PUSH8 0x4D5467784C6A4934 0x4D MSTORE8 PUSH24 0x7A4F4334784D6A41674D5467774C6A59774D43777A4F5334 PUSH24 0x4D4441674D5467774C6A51784E43424449444D354C6A6734 0x4D NUMBER COINBASE PUSH25 0x4F4441754D6A49344C4451784C6A55354D4341784E7A6B754E PUSH11 0x63344C4451794C6A67774D NUMBER COINBASE PUSH25 0x4E7A6B754D546B7949454D674E4451754D444577494445334F NUMBER CALLVALUE CALLER 0x4D PREVRANDAO MSIZE PUSH20 0x4E4455754F444577494445334F4334784F445173 0x4E PREVRANDAO MSIZE PUSH22 0x4F444177494445334F4334774D7A4967517941304E79 CALLVALUE CALLER 0x4F SLOAD COINBASE PUSH8 0x4D5463334C6A6733 0x4F MSTORE8 PUSH24 0x304F4334354F544D674D5463334C6A557A4F5377304F5334 ADDRESS 0x4E PUSH27 0x51674D5463334C6A49334E794244494451354C6A6B314E4341784E PUSH27 0x63754D4445314C4455774C6A63334E5341784E7A59754F4441774C PREVRANDAO SSTORE PUSH25 0x4C6A49354E7941784E7A59754F44417749454D674E5445754F PREVRANDAO 0x49 PUSH24 0x494445334E6934344D4441734E5449754E546B3249444533 0x4E PUSH10 0x34314D7A59734E544D75 0x4D PREVRANDAO 0x49 ADDRESS 0x49 PREVRANDAO GASLIMIT CALLER 0x4E PUSH10 0x34794D544D6751794131 0x4D PUSH26 0x34304E5445674D5463314C6A67354D4377314E4334314D544167 0x4D SLOAD PUSH4 0x314C6A59 PUSH26 0x4D4377314E53347A4E7A67674D5463314C6A59784D7942444944 SSTORE CALLER 0x4C PUSH11 0x55794E6941784E7A55754E SLOAD PUSH12 0x314C4459304C6A41774D4341 PUSH25 0x4E7A41754D7A55314C4459304C6A41774D4341784E6A67754E PUSH11 0x4D3149454D674E6A51754D PREVRANDAO COINBASE PUSH24 0x494445324F4334784D4459734E7A49754D44413549444532 0x4D NUMBER CALLVALUE PUSH27 0x4E5467734E7A51754E444177494445314F4334314E7A4D67517941 CALLER 0x4E MSTORE8 CALLVALUE CALLVALUE 0x4D PUSH27 0x41674D5455334C6A55774E6977334F4334784E7A41674D5455314C PUSH11 0x55784D6977334F5334324D PREVRANDAO COINBASE PUSH8 0x4D5455304C6A4530 0x4D PUSH10 0x4244494467784C6A417A 0x4D NUMBER COINBASE PUSH25 0x4E5449754E7A637A4C44677A4C6A4D774E5341784E5441754F PREVRANDAO MLOAD ORIGIN 0x4C PREVRANDAO PUSH8 0x304C6A59314E6941 PUSH25 0x4E446B754F44597749454D674F4459754D444132494445304F NUMBER CALLVALUE CALLVALUE 0x4E PUSH27 0x51734F4463754D6A4D30494445304E7934344E6A6B734F4463754D PUSH27 0x677A494445304E7934324D6A6367517941344E7934314D7A49674D SLOAD MLOAD CALLER 0x4C PUSH11 0x4D344E6977344F4334794D PUSH11 0x63674D5451324C6A6B304D PUSH10 0x77344F4334354D6A6367 0x4D SLOAD MLOAD ORIGIN 0x4C PUSH11 0x59304D534244494467354C PUSH11 0x59794E7941784E4459754D PUSH27 0x51774C446B774C6A55324D4341784E4455754E7A55794C446B784C PUSH11 0x41774D4341784E4455754D PUSH27 0x4D7A49454D674F5449754D444935494445304E43347A4E5455734F SLOAD SSTORE PUSH22 0x4D444979494445304D6934344D4451734F5455754F54 GASLIMIT PUSH26 0x494445304D6934334F446367517941354E6934794F5445674D54 MLOAD PUSH26 0x4C6A63344D4377354E6934354E446B674D5451794C6A55784D43 PUSH24 0x354E79347A4E7A59674D5451794C6A45344E79424449446B CALLER 0x4C PUSH11 0x67774E4341784E4445754F PREVRANDAO MSIZE ADDRESS 0x4C PREVRANDAO PUSH12 0x344C6A51354E6941784E4445 PUSH22 0x4E6A41774C446B344C6A6B784E6941784E4445754E6A COINBASE PUSH24 0x49454D674F546B754D7A4D32494445304D5334324D444173 0x4D SLOAD COINBASE PUSH24 0x4C6A49304E6941784E4445754D7A55794C4445774D433435 0x4E PREVRANDAO COINBASE PUSH8 0x4D5451784C6A4130 0x4F MSTORE8 TIMESTAMP PREVRANDAO 0x49 PREVRANDAO GASLIMIT PUSH24 0x4D5334324D7A4D674D5451774C6A63304E6977784D444D75 0x4D SLOAD COINBASE PUSH24 0x494445304D4334784D6A6B734D5441304C6A49774D434178 0x4D PUSH27 0x6B754E6A6335494577674D5441324C6A49774D4341784D7A67754F PREVRANDAO MSIZE PUSH24 0x494445774E6934324F4445674D544D784C6A557A4D434244 0x49 PREVRANDAO GASLIMIT PUSH24 0x4E6934354E4455674D5449334C6A51354F5377784D446375 0x4D PUSH11 0x6335494445794D7934304D PUSH27 0x55734D5441334C6A51794D7941784D6A49754E54417749454D674D SLOAD COINBASE CALLER 0x4C PUSH11 0x55324E6941784D6A45754E SLOAD MSIZE BALANCE 0x4C PREVRANDAO GASLIMIT PUSH24 0x4E7934314E7A55674D5449774C6A67774D4377784D446375 0x4E PREVRANDAO MLOAD PUSH26 0x494445794D4334344D444167517941784D4463754D7A41354944 GASLIMIT PUSH26 0x4D4334344D4441734D5441334C6A49774D4341784D6A45754D6A 0x4D PUSH25 0x4C4445774E7934794D4441674D5449784C6A63314E79416949 BASEFEE 0x4E ADDRESS PUSH4 0x6D39725A SLOAD ADDRESS PUSH10 0x626D39755A5349675A6D PUSH13 0x7362443069497A6C6C59545A6A 0x4E PUSH26 0x49675A6D6C73624331796457786C50534A6C646D56756232526B 0x49 PUSH10 0x427A64486C735A543069 0x49 PUSH10 0x382B436941675043396E POP PUSH8 0x6F384C334E325A7A CALLVALUE RETURNDATASIZE "
		},
		"gasEstimates": {
			"creation": {
				"codeDepositCost": "3751600",
				"executionCost": "infinite",
				"totalCost": "infinite"
			},
			"external": {
				"addLiquidity(uint256,uint256,uint256,uint256,address,uint256)": "infinite",
				"allowance(address,address)": "infinite",
				"approve(address,uint256)": "infinite",
				"balanceOf(address)": "2887",
				"balanceOfAt(address,uint256)": "infinite",
				"burn(uint256)": "infinite",
				"burnFrom(address,uint256)": "infinite",
				"burnRate()": "2481",
				"decimals()": "455",
				"decreaseAllowance(address,uint256)": "infinite",
				"increaseAllowance(address,uint256)": "infinite",
				"initialize()": "infinite",
				"maxTransferAmount()": "2540",
				"minTransferAmount()": "2562",
				"mint(address,uint256)": "infinite",
				"name()": "infinite",
				"owner()": "2633",
				"pause()": "infinite",
				"paused()": "2590",
				"proxiableUUID()": "infinite",
				"renounceOwnership()": "30466",
				"setBurnRate(uint256)": "24878",
				"setMaxTransferAmount(uint256)": "24873",
				"setMinTransferAmount(uint256)": "24917",
				"setTaxRate(uint256)": "24876",
				"setUniswapV2Router(address)": "27077",
				"symbol()": "infinite",
				"taxRate()": "2527",
				"totalSupply()": "2483",
				"totalSupplyAt(uint256)": "infinite",
				"transfer(address,uint256)": "infinite",
				"transferFrom(address,address,uint256)": "infinite",
				"transferOwnership(address)": "30876",
				"uniswapV2Router()": "infinite",
				"unpause()": "infinite",
				"upgradeTo(address)": "infinite",
				"upgradeToAndCall(address,bytes)": "infinite"
			},
			"internal": {
				"_authorizeUpgrade(address)": "infinite",
				"_beforeTokenTransfer(address,address,uint256)": "infinite",
				"_transfer(address,address,uint256)": "infinite"
			}
		},
		"methodIdentifiers": {
			"addLiquidity(uint256,uint256,uint256,uint256,address,uint256)": "ded998b9",
			"allowance(address,address)": "dd62ed3e",
			"approve(address,uint256)": "095ea7b3",
			"balanceOf(address)": "70a08231",
			"balanceOfAt(address,uint256)": "4ee2cd7e",
			"burn(uint256)": "42966c68",
			"burnFrom(address,uint256)": "79cc6790",
			"burnRate()": "bed99850",
			"decimals()": "313ce567",
			"decreaseAllowance(address,uint256)": "a457c2d7",
			"increaseAllowance(address,uint256)": "39509351",
			"initialize()": "8129fc1c",
			"maxTransferAmount()": "a9e75723",
			"minTransferAmount()": "68841431",
			"mint(address,uint256)": "40c10f19",
			"name()": "06fdde03",
			"owner()": "8da5cb5b",
			"pause()": "8456cb59",
			"paused()": "5c975abb",
			"proxiableUUID()": "52d1902d",
			"renounceOwnership()": "715018a6",
			"setBurnRate(uint256)": "189d165e",
			"setMaxTransferAmount(uint256)": "8bf55409",
			"setMinTransferAmount(uint256)": "b92e6396",
			"setTaxRate(uint256)": "c6d69a30",
			"setUniswapV2Router(address)": "1419841d",
			"symbol()": "95d89b41",
			"taxRate()": "771a3a1d",
			"totalSupply()": "18160ddd",
			"totalSupplyAt(uint256)": "981b24d0",
			"transfer(address,uint256)": "a9059cbb",
			"transferFrom(address,address,uint256)": "23b872dd",
			"transferOwnership(address)": "f2fde38b",
			"uniswapV2Router()": "1694505e",
			"unpause()": "3f4ba83a",
			"upgradeTo(address)": "3659cfe6",
			"upgradeToAndCall(address,bytes)": "4f1ef286"
		}
	},
	"abi": [
		{
			"inputs": [],
			"stateMutability": "nonpayable",
			"type": "constructor"
		},
		{
			"anonymous": false,
			"inputs": [
				{
					"indexed": false,
					"internalType": "address",
					"name": "previousAdmin",
					"type": "address"
				},
				{
					"indexed": false,
					"internalType": "address",
					"name": "newAdmin",
					"type": "address"
				}
			],
			"name": "AdminChanged",
			"type": "event"
		},
		{
			"anonymous": false,
			"inputs": [
				{
					"indexed": true,
					"internalType": "address",
					"name": "owner",
					"type": "address"
				},
				{
					"indexed": true,
					"internalType": "address",
					"name": "spender",
					"type": "address"
				},
				{
					"indexed": false,
					"internalType": "uint256",
					"name": "value",
					"type": "uint256"
				}
			],
			"name": "Approval",
			"type": "event"
		},
		{
			"anonymous": false,
			"inputs": [
				{
					"indexed": true,
					"internalType": "address",
					"name": "beacon",
					"type": "address"
				}
			],
			"name": "BeaconUpgraded",
			"type": "event"
		},
		{
			"anonymous": false,
			"inputs": [
				{
					"indexed": false,
					"internalType": "uint8",
					"name": "version",
					"type": "uint8"
				}
			],
			"name": "Initialized",
			"type": "event"
		},
		{
			"anonymous": false,
			"inputs": [
				{
					"indexed": true,
					"internalType": "address",
					"name": "previousOwner",
					"type": "address"
				},
				{
					"indexed": true,
					"internalType": "address",
					"name": "newOwner",
					"type": "address"
				}
			],
			"name": "OwnershipTransferred",
			"type": "event"
		},
		{
			"anonymous": false,
			"inputs": [
				{
					"indexed": false,
					"internalType": "address",
					"name": "account",
					"type": "address"
				}
			],
			"name": "Paused",
			"type": "event"
		},
		{
			"anonymous": false,
			"inputs": [
				{
					"indexed": false,
					"internalType": "uint256",
					"name": "id",
					"type": "uint256"
				}
			],
			"name": "Snapshot",
			"type": "event"
		},
		{
			"anonymous": false,
			"inputs": [
				{
					"indexed": true,
					"internalType": "address",
					"name": "from",
					"type": "address"
				},
				{
					"indexed": true,
					"internalType": "address",
					"name": "to",
					"type": "address"
				},
				{
					"indexed": false,
					"internalType": "uint256",
					"name": "value",
					"type": "uint256"
				}
			],
			"name": "Transfer",
			"type": "event"
		},
		{
			"anonymous": false,
			"inputs": [
				{
					"indexed": false,
					"internalType": "address",
					"name": "account",
					"type": "address"
				}
			],
			"name": "Unpaused",
			"type": "event"
		},
		{
			"anonymous": false,
			"inputs": [
				{
					"indexed": true,
					"internalType": "address",
					"name": "implementation",
					"type": "address"
				}
			],
			"name": "Upgraded",
			"type": "event"
		},
		{
			"inputs": [
				{
					"internalType": "uint256",
					"name": "tokenAmount",
					"type": "uint256"
				},
				{
					"internalType": "uint256",
					"name": "ethAmount",
					"type": "uint256"
				},
				{
					"internalType": "uint256",
					"name": "minTokens",
					"type": "uint256"
				},
				{
					"internalType": "uint256",
					"name": "minEth",
					"type": "uint256"
				},
				{
					"internalType": "address",
					"name": "to",
					"type": "address"
				},
				{
					"internalType": "uint256",
					"name": "deadline",
					"type": "uint256"
				}
			],
			"name": "addLiquidity",
			"outputs": [],
			"stateMutability": "nonpayable",
			"type": "function"
		},
		{
			"inputs": [
				{
					"internalType": "address",
					"name": "owner",
					"type": "address"
				},
				{
					"internalType": "address",
					"name": "spender",
					"type": "address"
				}
			],
			"name": "allowance",
			"outputs": [
				{
					"internalType": "uint256",
					"name": "",
					"type": "uint256"
				}
			],
			"stateMutability": "view",
			"type": "function"
		},
		{
			"inputs": [
				{
					"internalType": "address",
					"name": "spender",
					"type": "address"
				},
				{
					"internalType": "uint256",
					"name": "amount",
					"type": "uint256"
				}
			],
			"name": "approve",
			"outputs": [
				{
					"internalType": "bool",
					"name": "",
					"type": "bool"
				}
			],
			"stateMutability": "nonpayable",
			"type": "function"
		},
		{
			"inputs": [
				{
					"internalType": "address",
					"name": "account",
					"type": "address"
				}
			],
			"name": "balanceOf",
			"outputs": [
				{
					"internalType": "uint256",
					"name": "",
					"type": "uint256"
				}
			],
			"stateMutability": "view",
			"type": "function"
		},
		{
			"inputs": [
				{
					"internalType": "address",
					"name": "account",
					"type": "address"
				},
				{
					"internalType": "uint256",
					"name": "snapshotId",
					"type": "uint256"
				}
			],
			"name": "balanceOfAt",
			"outputs": [
				{
					"internalType": "uint256",
					"name": "",
					"type": "uint256"
				}
			],
			"stateMutability": "view",
			"type": "function"
		},
		{
			"inputs": [
				{
					"internalType": "uint256",
					"name": "amount",
					"type": "uint256"
				}
			],
			"name": "burn",
			"outputs": [],
			"stateMutability": "nonpayable",
			"type": "function"
		},
		{
			"inputs": [
				{
					"internalType": "address",
					"name": "account",
					"type": "address"
				},
				{
					"internalType": "uint256",
					"name": "amount",
					"type": "uint256"
				}
			],
			"name": "burnFrom",
			"outputs": [],
			"stateMutability": "nonpayable",
			"type": "function"
		},
		{
			"inputs": [],
			"name": "burnRate",
			"outputs": [
				{
					"internalType": "uint256",
					"name": "",
					"type": "uint256"
				}
			],
			"stateMutability": "view",
			"type": "function"
		},
		{
			"inputs": [],
			"name": "decimals",
			"outputs": [
				{
					"internalType": "uint8",
					"name": "",
					"type": "uint8"
				}
			],
			"stateMutability": "view",
			"type": "function"
		},
		{
			"inputs": [
				{
					"internalType": "address",
					"name": "spender",
					"type": "address"
				},
				{
					"internalType": "uint256",
					"name": "subtractedValue",
					"type": "uint256"
				}
			],
			"name": "decreaseAllowance",
			"outputs": [
				{
					"internalType": "bool",
					"name": "",
					"type": "bool"
				}
			],
			"stateMutability": "nonpayable",
			"type": "function"
		},
		{
			"inputs": [
				{
					"internalType": "address",
					"name": "spender",
					"type": "address"
				},
				{
					"internalType": "uint256",
					"name": "addedValue",
					"type": "uint256"
				}
			],
			"name": "increaseAllowance",
			"outputs": [
				{
					"internalType": "bool",
					"name": "",
					"type": "bool"
				}
			],
			"stateMutability": "nonpayable",
			"type": "function"
		},
		{
			"inputs": [],
			"name": "initialize",
			"outputs": [],
			"stateMutability": "nonpayable",
			"type": "function"
		},
		{
			"inputs": [],
			"name": "maxTransferAmount",
			"outputs": [
				{
					"internalType": "uint256",
					"name": "",
					"type": "uint256"
				}
			],
			"stateMutability": "view",
			"type": "function"
		},
		{
			"inputs": [],
			"name": "minTransferAmount",
			"outputs": [
				{
					"internalType": "uint256",
					"name": "",
					"type": "uint256"
				}
			],
			"stateMutability": "view",
			"type": "function"
		},
		{
			"inputs": [
				{
					"internalType": "address",
					"name": "to",
					"type": "address"
				},
				{
					"internalType": "uint256",
					"name": "amount",
					"type": "uint256"
				}
			],
			"name": "mint",
			"outputs": [],
			"stateMutability": "nonpayable",
			"type": "function"
		},
		{
			"inputs": [],
			"name": "name",
			"outputs": [
				{
					"internalType": "string",
					"name": "",
					"type": "string"
				}
			],
			"stateMutability": "view",
			"type": "function"
		},
		{
			"inputs": [],
			"name": "owner",
			"outputs": [
				{
					"internalType": "address",
					"name": "",
					"type": "address"
				}
			],
			"stateMutability": "view",
			"type": "function"
		},
		{
			"inputs": [],
			"name": "pause",
			"outputs": [],
			"stateMutability": "nonpayable",
			"type": "function"
		},
		{
			"inputs": [],
			"name": "paused",
			"outputs": [
				{
					"internalType": "bool",
					"name": "",
					"type": "bool"
				}
			],
			"stateMutability": "view",
			"type": "function"
		},
		{
			"inputs": [],
			"name": "proxiableUUID",
			"outputs": [
				{
					"internalType": "bytes32",
					"name": "",
					"type": "bytes32"
				}
			],
			"stateMutability": "view",
			"type": "function"
		},
		{
			"inputs": [],
			"name": "renounceOwnership",
			"outputs": [],
			"stateMutability": "nonpayable",
			"type": "function"
		},
		{
			"inputs": [
				{
					"internalType": "uint256",
					"name": "newBurnRate",
					"type": "uint256"
				}
			],
			"name": "setBurnRate",
			"outputs": [],
			"stateMutability": "nonpayable",
			"type": "function"
		},
		{
			"inputs": [
				{
					"internalType": "uint256",
					"name": "newMaxTransferAmount",
					"type": "uint256"
				}
			],
			"name": "setMaxTransferAmount",
			"outputs": [],
			"stateMutability": "nonpayable",
			"type": "function"
		},
		{
			"inputs": [
				{
					"internalType": "uint256",
					"name": "newMinTransferAmount",
					"type": "uint256"
				}
			],
			"name": "setMinTransferAmount",
			"outputs": [],
			"stateMutability": "nonpayable",
			"type": "function"
		},
		{
			"inputs": [
				{
					"internalType": "uint256",
					"name": "newTaxRate",
					"type": "uint256"
				}
			],
			"name": "setTaxRate",
			"outputs": [],
			"stateMutability": "nonpayable",
			"type": "function"
		},
		{
			"inputs": [
				{
					"internalType": "address",
					"name": "router",
					"type": "address"
				}
			],
			"name": "setUniswapV2Router",
			"outputs": [],
			"stateMutability": "nonpayable",
			"type": "function"
		},
		{
			"inputs": [],
			"name": "symbol",
			"outputs": [
				{
					"internalType": "string",
					"name": "",
					"type": "string"
				}
			],
			"stateMutability": "view",
			"type": "function"
		},
		{
			"inputs": [],
			"name": "taxRate",
			"outputs": [
				{
					"internalType": "uint256",
					"name": "",
					"type": "uint256"
				}
			],
			"stateMutability": "view",
			"type": "function"
		},
		{
			"inputs": [],
			"name": "totalSupply",
			"outputs": [
				{
					"internalType": "uint256",
					"name": "",
					"type": "uint256"
				}
			],
			"stateMutability": "view",
			"type": "function"
		},
		{
			"inputs": [
				{
					"internalType": "uint256",
					"name": "snapshotId",
					"type": "uint256"
				}
			],
			"name": "totalSupplyAt",
			"outputs": [
				{
					"internalType": "uint256",
					"name": "",
					"type": "uint256"
				}
			],
			"stateMutability": "view",
			"type": "function"
		},
		{
			"inputs": [
				{
					"internalType": "address",
					"name": "to",
					"type": "address"
				},
				{
					"internalType": "uint256",
					"name": "amount",
					"type": "uint256"
				}
			],
			"name": "transfer",
			"outputs": [
				{
					"internalType": "bool",
					"name": "",
					"type": "bool"
				}
			],
			"stateMutability": "nonpayable",
			"type": "function"
		},
		{
			"inputs": [
				{
					"internalType": "address",
					"name": "from",
					"type": "address"
				},
				{
					"internalType": "address",
					"name": "to",
					"type": "address"
				},
				{
					"internalType": "uint256",
					"name": "amount",
					"type": "uint256"
				}
			],
			"name": "transferFrom",
			"outputs": [
				{
					"internalType": "bool",
					"name": "",
					"type": "bool"
				}
			],
			"stateMutability": "nonpayable",
			"type": "function"
		},
		{
			"inputs": [
				{
					"internalType": "address",
					"name": "newOwner",
					"type": "address"
				}
			],
			"name": "transferOwnership",
			"outputs": [],
			"stateMutability": "nonpayable",
			"type": "function"
		},
		{
			"inputs": [],
			"name": "uniswapV2Router",
			"outputs": [
				{
					"internalType": "contract IUniswapV2Router02",
					"name": "",
					"type": "address"
				}
			],
			"stateMutability": "view",
			"type": "function"
		},
		{
			"inputs": [],
			"name": "unpause",
			"outputs": [],
			"stateMutability": "nonpayable",
			"type": "function"
		},
		{
			"inputs": [
				{
					"internalType": "address",
					"name": "newImplementation",
					"type": "address"
				}
			],
			"name": "upgradeTo",
			"outputs": [],
			"stateMutability": "nonpayable",
			"type": "function"
		},
		{
			"inputs": [
				{
					"internalType": "address",
					"name": "newImplementation",
					"type": "address"
				},
				{
					"internalType": "bytes",
					"name": "data",
					"type": "bytes"
				}
			],
			"name": "upgradeToAndCall",
			"outputs": [],
			"stateMutability": "payable",
			"type": "function"
		}
	]
}